{"contracts/ReputationStake.sol":{"ReputationStake":{"abi":[{"inputs":[{"internalType":"address","name":"_stakeToken","type":"address"},{"internalType":"address","name":"_feeRecipient","type":"address"}],"stateMutability":"nonpayable","type":"constructor"},{"anonymous":false,"inputs":[{"indexed":true,"internalType":"address","name":"agent","type":"address"},{"indexed":false,"internalType":"string","name":"metadataURI","type":"string"}],"name":"AgentRegistered","type":"event"},{"anonymous":false,"inputs":[{"indexed":true,"internalType":"address","name":"agent","type":"address"},{"indexed":false,"internalType":"uint256","name":"amount","type":"uint256"},{"indexed":false,"internalType":"string","name":"reason","type":"string"}],"name":"AgentSlashed","type":"event"},{"anonymous":false,"inputs":[{"indexed":true,"internalType":"address","name":"agent","type":"address"},{"indexed":false,"internalType":"uint256","name":"newScore","type":"uint256"}],"name":"ReputationUpdated","type":"event"},{"anonymous":false,"inputs":[{"indexed":true,"internalType":"address","name":"agent","type":"address"},{"indexed":false,"internalType":"uint256","name":"amount","type":"uint256"}],"name":"RewardDistributed","type":"event"},{"anonymous":false,"inputs":[{"indexed":true,"internalType":"address","name":"agent","type":"address"},{"indexed":false,"internalType":"uint256","name":"amount","type":"uint256"},{"indexed":false,"internalType":"uint256","name":"unlockTime","type":"uint256"}],"name":"StakeDeposited","type":"event"},{"anonymous":false,"inputs":[{"indexed":true,"internalType":"address","name":"agent","type":"address"},{"indexed":false,"internalType":"uint256","name":"amount","type":"uint256"}],"name":"StakeWithdrawn","type":"event"},{"inputs":[],"name":"activityWeight","outputs":[{"internalType":"uint256","name":"","type":"uint256"}],"stateMutability":"view","type":"function"},{"inputs":[{"internalType":"address","name":"_slasher","type":"address"}],"name":"addSlasher","outputs":[],"stateMutability":"nonpayable","type":"function"},{"inputs":[{"internalType":"address","name":"","type":"address"},{"internalType":"uint256","name":"","type":"uint256"}],"name":"agentStakes","outputs":[{"internalType":"uint256","name":"amount","type":"uint256"},{"internalType":"uint256","name":"since","type":"uint256"},{"internalType":"uint256","name":"unlockTime","type":"uint256"},{"internalType":"bool","name":"withdrawn","type":"bool"}],"stateMutability":"view","type":"function"},{"inputs":[{"internalType":"address","name":"","type":"address"}],"name":"agents","outputs":[{"internalType":"uint256","name":"totalStaked","type":"uint256"},{"internalType":"uint256","name":"reputationScore","type":"uint256"},{"internalType":"uint256","name":"successfulCovenants","type":"uint256"},{"internalType":"uint256","name":"breachedCovenants","type":"uint256"},{"internalType":"uint256","name":"lastActivity","type":"uint256"},{"internalType":"bool","name":"isActive","type":"bool"},{"internalType":"string","name":"metadataURI","type":"string"}],"stateMutability":"view","type":"function"},{"inputs":[{"internalType":"address","name":"","type":"address"}],"name":"authorizedSlashers","outputs":[{"internalType":"bool","name":"","type":"bool"}],"stateMutability":"view","type":"function"},{"inputs":[{"internalType":"address","name":"_agent","type":"address"}],"name":"calculateReputation","outputs":[{"internalType":"uint256","name":"","type":"uint256"}],"stateMutability":"view","type":"function"},{"inputs":[],"name":"feeRecipient","outputs":[{"internalType":"address","name":"","type":"address"}],"stateMutability":"view","type":"function"},{"inputs":[{"internalType":"address","name":"_agent","type":"address"}],"name":"getAgentProfile","outputs":[{"components":[{"internalType":"uint256","name":"totalStaked","type":"uint256"},{"internalType":"uint256","name":"reputationScore","type":"uint256"},{"internalType":"uint256","name":"successfulCovenants","type":"uint256"},{"internalType":"uint256","name":"breachedCovenants","type":"uint256"},{"internalType":"uint256","name":"lastActivity","type":"uint256"},{"internalType":"bool","name":"isActive","type":"bool"},{"internalType":"string","name":"metadataURI","type":"string"}],"internalType":"struct ReputationStake.AgentProfile","name":"","type":"tuple"}],"stateMutability":"view","type":"function"},{"inputs":[{"internalType":"address","name":"_agent","type":"address"},{"internalType":"uint256","name":"_index","type":"uint256"}],"name":"getStake","outputs":[{"components":[{"internalType":"uint256","name":"amount","type":"uint256"},{"internalType":"uint256","name":"since","type":"uint256"},{"internalType":"uint256","name":"unlockTime","type":"uint256"},{"internalType":"bool","name":"withdrawn","type":"bool"}],"internalType":"struct ReputationStake.Stake","name":"","type":"tuple"}],"stateMutability":"view","type":"function"},{"inputs":[{"internalType":"address","name":"_agent","type":"address"}],"name":"getStakeCount","outputs":[{"internalType":"uint256","name":"","type":"uint256"}],"stateMutability":"view","type":"function"},{"inputs":[],"name":"historyWeight","outputs":[{"internalType":"uint256","name":"","type":"uint256"}],"stateMutability":"view","type":"function"},{"inputs":[{"internalType":"address","name":"_agent","type":"address"}],"name":"isRegistered","outputs":[{"internalType":"bool","name":"","type":"bool"}],"stateMutability":"view","type":"function"},{"inputs":[],"name":"lockPeriod","outputs":[{"internalType":"uint256","name":"","type":"uint256"}],"stateMutability":"view","type":"function"},{"inputs":[],"name":"minimumStake","outputs":[{"internalType":"uint256","name":"","type":"uint256"}],"stateMutability":"view","type":"function"},{"inputs":[],"name":"protocolFeeBps","outputs":[{"internalType":"uint256","name":"","type":"uint256"}],"stateMutability":"view","type":"function"},{"inputs":[{"internalType":"address","name":"_agent","type":"address"},{"internalType":"uint256","name":"_slashingMultiplier","type":"uint256"},{"internalType":"string","name":"_reason","type":"string"}],"name":"recordBreach","outputs":[],"stateMutability":"nonpayable","type":"function"},{"inputs":[{"internalType":"address","name":"_agent","type":"address"}],"name":"recordSuccess","outputs":[],"stateMutability":"nonpayable","type":"function"},{"inputs":[{"internalType":"string","name":"_metadataURI","type":"string"}],"name":"registerAgent","outputs":[],"stateMutability":"nonpayable","type":"function"},{"inputs":[{"internalType":"address","name":"_slasher","type":"address"}],"name":"removeSlasher","outputs":[],"stateMutability":"nonpayable","type":"function"},{"inputs":[{"internalType":"uint256","name":"_minimumStake","type":"uint256"},{"internalType":"uint256","name":"_slashingPercentage","type":"uint256"},{"internalType":"uint256","name":"_lockPeriod","type":"uint256"}],"name":"setParameters","outputs":[],"stateMutability":"nonpayable","type":"function"},{"inputs":[],"name":"slashingPercentage","outputs":[{"internalType":"uint256","name":"","type":"uint256"}],"stateMutability":"view","type":"function"},{"inputs":[{"internalType":"uint256","name":"_amount","type":"uint256"}],"name":"stake","outputs":[],"stateMutability":"nonpayable","type":"function"},{"inputs":[],"name":"stakeToken","outputs":[{"internalType":"contract IERC20","name":"","type":"address"}],"stateMutability":"view","type":"function"},{"inputs":[],"name":"stakeWeight","outputs":[{"internalType":"uint256","name":"","type":"uint256"}],"stateMutability":"view","type":"function"},{"inputs":[],"name":"totalAgents","outputs":[{"internalType":"uint256","name":"","type":"uint256"}],"stateMutability":"view","type":"function"},{"inputs":[],"name":"totalStaked","outputs":[{"internalType":"uint256","name":"","type":"uint256"}],"stateMutability":"view","type":"function"},{"inputs":[{"internalType":"uint256","name":"_stakeIndex","type":"uint256"}],"name":"withdrawStake","outputs":[],"stateMutability":"nonpayable","type":"function"}],"evm":{"bytecode":{"linkReferences":{},"object":"608060405268056bc75e2d631000006005556103e860065562093a8060075560646008556028600955601e600a55601e600b553480156200003f57600080fd5b5060405162001ccb38038062001ccb8339810160408190526200006291620000ca565b600080546001600160a01b039384166001600160a01b031991821617825560018054939094169216919091178255338152600460205260409020805460ff1916909117905562000102565b80516001600160a01b0381168114620000c557600080fd5b919050565b60008060408385031215620000de57600080fd5b620000e983620000ad565b9150620000f960208401620000ad565b90509250929050565b611bb980620001126000396000f3fe608060405234801561001057600080fd5b50600436106101a95760003560e01c806378dc93a4116100f9578063be3ac6a711610097578063cf57ee6911610071578063cf57ee69146103ab578063cfd47663146103d4578063ec5ffac21461041c578063fd66091e1461042557600080fd5b8063be3ac6a71461036a578063c3c5a54714610373578063c5053712146103a257600080fd5b8063aac6aa9c116100d3578063aac6aa9c146102e6578063aed2d908146102f9578063b0c87df21461032c578063b2ab27821461033557600080fd5b806378dc93a4146102aa578063817b1cd2146102ca578063a694fc3a146102d357600080fd5b806335659fb8116101665780634690484011610140578063469048401461025057806351ed6a301461027b57806368a9f19c1461028e57806369666a49146102a157600080fd5b806335659fb81461022b5780633fd8b02f14610234578063423412871461023d57600080fd5b8063209ffa18146101ae57806325d5971f146101c3578063267b1167146101d657806327c06fd5146101f25780632d2a95851461020557806334c5d2ce14610218575b600080fd5b6101c16101bc366004611677565b61044b565b005b6101c16101d13660046116d1565b610814565b6101df60095481565b6040519081526020015b60405180910390f35b6101df6102003660046116ea565b610a99565b6101c161021336600461170c565b610bf1565b6101c161022636600461174e565b610d7e565b6101df60085481565b6101df60075481565b6101c161024b3660046116ea565b610dbb565b600154610263906001600160a01b031681565b6040516001600160a01b0390911681526020016101e9565b600054610263906001600160a01b031681565b6101c161029c3660046116ea565b610eb5565b6101df60065481565b6102bd6102b83660046116ea565b610f08565b6040516101e991906117c0565b6101df600c5481565b6101c16102e13660046116d1565b61104a565b6101c16102f43660046116ea565b611288565b61031c6103073660046116ea565b60046020526000908152604090205460ff1681565b60405190151581526020016101e9565b6101df600b5481565b610348610343366004611822565b6112d8565b60408051948552602085019390935291830152151560608201526080016101e9565b6101df600a5481565b61031c6103813660046116ea565b6001600160a01b031660009081526002602052604090206005015460ff1690565b6101df600d5481565b6101df6103b93660046116ea565b6001600160a01b031660009081526003602052604090205490565b6103e76103e2366004611822565b611321565b6040516101e9919081518152602080830151908201526040808301519082015260609182015115159181019190915260800190565b6101df60055481565b6104386104333660046116ea565b6113c7565b6040516101e9979695949392919061184c565b3360009081526004602052604090205460ff166104835760405162461bcd60e51b815260040161047a90611892565b60405180910390fd5b6001600160a01b03841660009081526002602052604090206005015460ff166104be5760405162461bcd60e51b815260040161047a906118ba565b6001600160a01b03841660009081526002602052604081206003018054916104e5836118f8565b90915550506001600160a01b0384166000908152600260205260408120426004820155600654905461271091869161051d9190611911565b6105279190611911565b610531919061193e565b905060008111801561055a57506001600160a01b03851660009081526002602052604090205415155b156107bf576001600160a01b038516600090815260036020526040812082915b81548110801561058a5750600083115b156106e5578181815481106105a1576105a1611952565b600091825260209091206003600490920201015460ff161580156105e8575060008282815481106105d4576105d4611952565b906000526020600020906004020160000154115b156106d357600082828154811061060157610601611952565b906000526020600020906004020160000154841161061f5783610644565b82828154811061063157610631611952565b9060005260206000209060040201600001545b90508083838154811061065957610659611952565b906000526020600020906004020160000160008282546106799190611968565b90915550506001600160a01b038916600090815260026020526040812080548392906106a6908490611968565b9250508190555080600c60008282546106bf9190611968565b909155506106cf90508185611968565b9350505b806106dd816118f8565b91505061057a565b506000546001546001600160a01b039182169163a9059cbb91166107098587611968565b6040516001600160e01b031960e085901b1681526001600160a01b03909216600483015260248201526044016020604051808303816000875af1158015610754573d6000803e3d6000fd5b505050506040513d601f19601f82011682018060405250810190610778919061197b565b6107bc5760405162461bcd60e51b815260206004820152601560248201527414db185cda081d1c985b9cd9995c8819985a5b1959605a1b604482015260640161047a565b50505b6107c885611494565b846001600160a01b03167ff90d547af41b84ae5db3dc86fac677444898b3350b3e9cccd482dea1274bfc95828585604051610805939291906119c6565b60405180910390a25050505050565b3360009081526002602052604090206005015460ff166108465760405162461bcd60e51b815260040161047a906118ba565b3360009081526003602052604090205481106108945760405162461bcd60e51b815260206004820152600d60248201526c092dcecc2d8d2c840d2dcc8caf609b1b604482015260640161047a565b3360009081526003602052604081208054839081106108b5576108b5611952565b60009182526020909120600490910201600381015490915060ff16156109115760405162461bcd60e51b815260206004820152601160248201527020b63932b0b23c903bb4ba34323930bbb760791b604482015260640161047a565b80600201544210156109545760405162461bcd60e51b815260206004820152600c60248201526b14dd1a5b1b081b1bd8dad95960a21b604482015260640161047a565b60038101805460ff1916600117905580543360009081526002602052604081208054839290610984908490611968565b9250508190555080600c600082825461099d9190611968565b909155506109ac905033611494565b60005460405163a9059cbb60e01b8152336004820152602481018390526001600160a01b039091169063a9059cbb906044016020604051808303816000875af11580156109fd573d6000803e3d6000fd5b505050506040513d601f19601f82011682018060405250810190610a21919061197b565b610a5f5760405162461bcd60e51b815260206004820152600f60248201526e151c985b9cd9995c8819985a5b1959608a1b604482015260640161047a565b60405181815233907f8108595eb6bad3acefa9da467d90cc2217686d5c5ac85460f8b7849c840645fc9060200160405180910390a2505050565b6001600160a01b0381166000908152600260205260408120600581015460ff16610ac65750600092915050565b8054600090610ad6576000610af2565b6005546009548354610ae89190611911565b610af2919061193e565b9050610190811115610b0357506101905b600082600301548360020154610b1991906119e9565b905060008115610b6c5760008285600201546064610b379190611911565b610b41919061193e565b90506064600a5482610b539190611911565b610b5e90600a611911565b610b68919061193e565b9150505b600062015180856004015442610b829190611968565b610b8c919061193e565b90506000601e8210610b9f576000610bce565b600b54601e90610baf8483611968565b610bb99190611911565b610bc490600a611911565b610bce919061193e565b905080610bdb84876119e9565b610be591906119e9565b98975050505050505050565b3360009081526002602052604090206005015460ff1615610c495760405162461bcd60e51b8152602060048201526012602482015271105b1c9958591e481c9959da5cdd195c995960721b604482015260640161047a565b6040518060e001604052806000815260200160008152602001600081526020016000815260200142815260200160011515815260200183838080601f016020809104026020016040519081016040528093929190818152602001838380828437600092018290525093909452505033815260026020818152604092839020855181559085015160018201559184015190820155606083015160038201556080830151600482015560a083015160058201805460ff191691151591909117905560c08301519091506006820190610d1f9082611a9b565b5050600d805491506000610d32836118f8565b9190505550336001600160a01b03167fda816ca2fc37b9eecec62ae8263008ec6be1afb38dc28bc9c7c51d7e348da9c28383604051610d72929190611b5b565b60405180910390a25050565b3360009081526004602052604090205460ff16610dad5760405162461bcd60e51b815260040161047a90611892565b600592909255600655600755565b3360009081526004602052604090205460ff16610dea5760405162461bcd60e51b815260040161047a90611892565b6001600160a01b03811660009081526002602052604090206005015460ff16610e255760405162461bcd60e51b815260040161047a906118ba565b6001600160a01b0381166000908152600260208190526040822001805491610e4c836118f8565b90915550506001600160a01b038116600090815260026020526040902042600490910155610e7981611494565b6001600160a01b03811660009081526002602081905260409091200154610ea290600a90611b6f565b600003610eb257610eb2816114f3565b50565b3360009081526004602052604090205460ff16610ee45760405162461bcd60e51b815260040161047a90611892565b6001600160a01b03166000908152600460205260409020805460ff19166001179055565b610f4a6040518060e001604052806000815260200160008152602001600081526020016000815260200160008152602001600015158152602001606081525090565b6001600160a01b038216600090815260026020818152604092839020835160e0810185528154815260018201549281019290925291820154928101929092526003810154606083015260048101546080830152600581015460ff16151560a083015260068101805460c084019190610fc190611a12565b80601f0160208091040260200160405190810160405280929190818152602001828054610fed90611a12565b801561103a5780601f1061100f5761010080835404028352916020019161103a565b820191906000526020600020905b81548152906001019060200180831161101d57829003601f168201915b5050505050815250509050919050565b3360009081526002602052604090206005015460ff1661107c5760405162461bcd60e51b815260040161047a906118ba565b600081116110c15760405162461bcd60e51b81526020600482015260126024820152710416d6f756e74206d757374206265203e20360741b604482015260640161047a565b6000546040516323b872dd60e01b8152336004820152306024820152604481018390526001600160a01b03909116906323b872dd906064016020604051808303816000875af1158015611118573d6000803e3d6000fd5b505050506040513d601f19601f8201168201806040525081019061113c919061197b565b61117a5760405162461bcd60e51b815260206004820152600f60248201526e151c985b9cd9995c8819985a5b1959608a1b604482015260640161047a565b60006040518060800160405280838152602001428152602001600754426111a191906119e9565b81526000602091820181905233808252600380845260408084208054600180820183559186528686208851600490920201908155878701519181019190915586820151600280830191909155606088015191909301805460ff1916911515919091179055918352909252908120805492935084929091906112239084906119e9565b9250508190555081600c600082825461123c91906119e9565b9091555061124b905033611494565b6040808201518151848152602081019190915233917f05cce4a371bf9816b1a7594f1d76c98eba4ed025ff3e471234ae598f17899bd49101610d72565b3360009081526004602052604090205460ff166112b75760405162461bcd60e51b815260040161047a90611892565b6001600160a01b03166000908152600460205260409020805460ff19169055565b600360205281600052604060002081815481106112f457600080fd5b60009182526020909120600490910201805460018201546002830154600390930154919450925060ff1684565b61134e60405180608001604052806000815260200160008152602001600081526020016000151581525090565b6001600160a01b038316600090815260036020526040902080548390811061137857611378611952565b60009182526020918290206040805160808101825260049093029091018054835260018101549383019390935260028301549082015260039091015460ff161515606082015290505b92915050565b6002602081905260009182526040909120805460018201549282015460038301546004840154600585015460068601805495979694959394929360ff909216929161141190611a12565b80601f016020809104026020016040519081016040528092919081815260200182805461143d90611a12565b801561148a5780601f1061145f5761010080835404028352916020019161148a565b820191906000526020600020905b81548152906001019060200180831161146d57829003601f168201915b5050505050905087565b600061149f82610a99565b6001600160a01b0383166000818152600260205260409081902060010183905551919250907ffc577563f1b9a0461e24abef1e1fcc0d33d3d881f20b5df6dda59de4aae2c82190610d729084815260200190565b6001600160a01b0381166000908152600260205260408120546115189060649061193e565b9050801561160e5760005460405163a9059cbb60e01b81526001600160a01b038481166004830152602482018490529091169063a9059cbb906044016020604051808303816000875af1158015611573573d6000803e3d6000fd5b505050506040513d601f19601f82011682018060405250810190611597919061197b565b6115d35760405162461bcd60e51b815260206004820152600d60248201526c14995dd85c990819985a5b1959609a1b604482015260640161047a565b816001600160a01b03167fe34918ff1c7084970068b53fd71ad6d8b04e9f15d3886cbf006443e6cdc52ea682604051610d7291815260200190565b5050565b80356001600160a01b038116811461162957600080fd5b919050565b60008083601f84011261164057600080fd5b50813567ffffffffffffffff81111561165857600080fd5b60208301915083602082850101111561167057600080fd5b9250929050565b6000806000806060858703121561168d57600080fd5b61169685611612565b935060208501359250604085013567ffffffffffffffff8111156116b957600080fd5b6116c58782880161162e565b95989497509550505050565b6000602082840312156116e357600080fd5b5035919050565b6000602082840312156116fc57600080fd5b61170582611612565b9392505050565b6000806020838503121561171f57600080fd5b823567ffffffffffffffff81111561173657600080fd5b6117428582860161162e565b90969095509350505050565b60008060006060848603121561176357600080fd5b505081359360208301359350604090920135919050565b6000815180845260005b818110156117a057602081850181015186830182015201611784565b506000602082860101526020601f19601f83011685010191505092915050565b6020815281516020820152602082015160408201526040820151606082015260608201516080820152608082015160a082015260a0820151151560c0820152600060c083015160e08084015261181a61010084018261177a565b949350505050565b6000806040838503121561183557600080fd5b61183e83611612565b946020939093013593505050565b87815286602082015285604082015284606082015283608082015282151560a082015260e060c0820152600061188560e083018461177a565b9998505050505050505050565b6020808252600e908201526d139bdd08185d5d1a1bdc9a5e995960921b604082015260600190565b6020808252600e908201526d139bdd081c9959da5cdd195c995960921b604082015260600190565b634e487b7160e01b600052601160045260246000fd5b60006001820161190a5761190a6118e2565b5060010190565b80820281158282048414176113c1576113c16118e2565b634e487b7160e01b600052601260045260246000fd5b60008261194d5761194d611928565b500490565b634e487b7160e01b600052603260045260246000fd5b818103818111156113c1576113c16118e2565b60006020828403121561198d57600080fd5b8151801515811461170557600080fd5b81835281816020850137506000828201602090810191909152601f909101601f19169091010190565b8381526040602082015260006119e060408301848661199d565b95945050505050565b808201808211156113c1576113c16118e2565b634e487b7160e01b600052604160045260246000fd5b600181811c90821680611a2657607f821691505b602082108103611a4657634e487b7160e01b600052602260045260246000fd5b50919050565b601f821115611a9657600081815260208120601f850160051c81016020861015611a735750805b601f850160051c820191505b81811015611a9257828155600101611a7f565b5050505b505050565b815167ffffffffffffffff811115611ab557611ab56119fc565b611ac981611ac38454611a12565b84611a4c565b602080601f831160018114611afe5760008415611ae65750858301515b600019600386901b1c1916600185901b178555611a92565b600085815260208120601f198616915b82811015611b2d57888601518255948401946001909101908401611b0e565b5085821015611b4b5787850151600019600388901b60f8161c191681555b5050505050600190811b01905550565b60208152600061181a60208301848661199d565b600082611b7e57611b7e611928565b50069056fea2646970667358221220900d3e694f7303c765da599c07a5713b156c2796e8cf4856a1891b19ba8fd2bb64736f6c63430008140033","opcodes":"PUSH1 0x80 PUSH1 0x40 MSTORE PUSH9 0x56BC75E2D63100000 PUSH1 0x5 SSTORE PUSH2 0x3E8 PUSH1 0x6 SSTORE PUSH3 0x93A80 PUSH1 0x7 SSTORE PUSH1 0x64 PUSH1 0x8 SSTORE PUSH1 0x28 PUSH1 0x9 SSTORE PUSH1 0x1E PUSH1 0xA SSTORE PUSH1 0x1E PUSH1 0xB SSTORE CALLVALUE DUP1 ISZERO PUSH3 0x3F JUMPI PUSH1 0x0 DUP1 REVERT JUMPDEST POP PUSH1 0x40 MLOAD PUSH3 0x1CCB CODESIZE SUB DUP1 PUSH3 0x1CCB DUP4 CODECOPY DUP2 ADD PUSH1 0x40 DUP2 SWAP1 MSTORE PUSH3 0x62 SWAP2 PUSH3 0xCA JUMP JUMPDEST PUSH1 0x0 DUP1 SLOAD PUSH1 0x1 PUSH1 0x1 PUSH1 0xA0 SHL SUB SWAP4 DUP5 AND PUSH1 0x1 PUSH1 0x1 PUSH1 0xA0 SHL SUB NOT SWAP2 DUP3 AND OR DUP3 SSTORE PUSH1 0x1 DUP1 SLOAD SWAP4 SWAP1 SWAP5 AND SWAP3 AND SWAP2 SWAP1 SWAP2 OR DUP3 SSTORE CALLER DUP2 MSTORE PUSH1 0x4 PUSH1 0x20 MSTORE PUSH1 0x40 SWAP1 KECCAK256 DUP1 SLOAD PUSH1 0xFF NOT AND SWAP1 SWAP2 OR SWAP1 SSTORE PUSH3 0x102 JUMP JUMPDEST DUP1 MLOAD PUSH1 0x1 PUSH1 0x1 PUSH1 0xA0 SHL SUB DUP2 AND DUP2 EQ PUSH3 0xC5 JUMPI PUSH1 0x0 DUP1 REVERT JUMPDEST SWAP2 SWAP1 POP JUMP JUMPDEST PUSH1 0x0 DUP1 PUSH1 0x40 DUP4 DUP6 SUB SLT ISZERO PUSH3 0xDE JUMPI PUSH1 0x0 DUP1 REVERT JUMPDEST PUSH3 0xE9 DUP4 PUSH3 0xAD JUMP JUMPDEST SWAP2 POP PUSH3 0xF9 PUSH1 0x20 DUP5 ADD PUSH3 0xAD JUMP JUMPDEST SWAP1 POP SWAP3 POP SWAP3 SWAP1 POP JUMP JUMPDEST PUSH2 0x1BB9 DUP1 PUSH3 0x112 PUSH1 0x0 CODECOPY PUSH1 0x0 RETURN INVALID PUSH1 0x80 PUSH1 0x40 MSTORE CALLVALUE DUP1 ISZERO PUSH2 0x10 JUMPI PUSH1 0x0 DUP1 REVERT JUMPDEST POP PUSH1 0x4 CALLDATASIZE LT PUSH2 0x1A9 JUMPI PUSH1 0x0 CALLDATALOAD PUSH1 0xE0 SHR DUP1 PUSH4 0x78DC93A4 GT PUSH2 0xF9 JUMPI DUP1 PUSH4 0xBE3AC6A7 GT PUSH2 0x97 JUMPI DUP1 PUSH4 0xCF57EE69 GT PUSH2 0x71 JUMPI DUP1 PUSH4 0xCF57EE69 EQ PUSH2 0x3AB JUMPI DUP1 PUSH4 0xCFD47663 EQ PUSH2 0x3D4 JUMPI DUP1 PUSH4 0xEC5FFAC2 EQ PUSH2 0x41C JUMPI DUP1 PUSH4 0xFD66091E EQ PUSH2 0x425 JUMPI PUSH1 0x0 DUP1 REVERT JUMPDEST DUP1 PUSH4 0xBE3AC6A7 EQ PUSH2 0x36A JUMPI DUP1 PUSH4 0xC3C5A547 EQ PUSH2 0x373 JUMPI DUP1 PUSH4 0xC5053712 EQ PUSH2 0x3A2 JUMPI PUSH1 0x0 DUP1 REVERT JUMPDEST DUP1 PUSH4 0xAAC6AA9C GT PUSH2 0xD3 JUMPI DUP1 PUSH4 0xAAC6AA9C EQ PUSH2 0x2E6 JUMPI DUP1 PUSH4 0xAED2D908 EQ PUSH2 0x2F9 JUMPI DUP1 PUSH4 0xB0C87DF2 EQ PUSH2 0x32C JUMPI DUP1 PUSH4 0xB2AB2782 EQ PUSH2 0x335 JUMPI PUSH1 0x0 DUP1 REVERT JUMPDEST DUP1 PUSH4 0x78DC93A4 EQ PUSH2 0x2AA JUMPI DUP1 PUSH4 0x817B1CD2 EQ PUSH2 0x2CA JUMPI DUP1 PUSH4 0xA694FC3A EQ PUSH2 0x2D3 JUMPI PUSH1 0x0 DUP1 REVERT JUMPDEST DUP1 PUSH4 0x35659FB8 GT PUSH2 0x166 JUMPI DUP1 PUSH4 0x46904840 GT PUSH2 0x140 JUMPI DUP1 PUSH4 0x46904840 EQ PUSH2 0x250 JUMPI DUP1 PUSH4 0x51ED6A30 EQ PUSH2 0x27B JUMPI DUP1 PUSH4 0x68A9F19C EQ PUSH2 0x28E JUMPI DUP1 PUSH4 0x69666A49 EQ PUSH2 0x2A1 JUMPI PUSH1 0x0 DUP1 REVERT JUMPDEST DUP1 PUSH4 0x35659FB8 EQ PUSH2 0x22B JUMPI DUP1 PUSH4 0x3FD8B02F EQ PUSH2 0x234 JUMPI DUP1 PUSH4 0x42341287 EQ PUSH2 0x23D JUMPI PUSH1 0x0 DUP1 REVERT JUMPDEST DUP1 PUSH4 0x209FFA18 EQ PUSH2 0x1AE JUMPI DUP1 PUSH4 0x25D5971F EQ PUSH2 0x1C3 JUMPI DUP1 PUSH4 0x267B1167 EQ PUSH2 0x1D6 JUMPI DUP1 PUSH4 0x27C06FD5 EQ PUSH2 0x1F2 JUMPI DUP1 PUSH4 0x2D2A9585 EQ PUSH2 0x205 JUMPI DUP1 PUSH4 0x34C5D2CE EQ PUSH2 0x218 JUMPI JUMPDEST PUSH1 0x0 DUP1 REVERT JUMPDEST PUSH2 0x1C1 PUSH2 0x1BC CALLDATASIZE PUSH1 0x4 PUSH2 0x1677 JUMP JUMPDEST PUSH2 0x44B JUMP JUMPDEST STOP JUMPDEST PUSH2 0x1C1 PUSH2 0x1D1 CALLDATASIZE PUSH1 0x4 PUSH2 0x16D1 JUMP JUMPDEST PUSH2 0x814 JUMP JUMPDEST PUSH2 0x1DF PUSH1 0x9 SLOAD DUP2 JUMP JUMPDEST PUSH1 0x40 MLOAD SWAP1 DUP2 MSTORE PUSH1 0x20 ADD JUMPDEST PUSH1 0x40 MLOAD DUP1 SWAP2 SUB SWAP1 RETURN JUMPDEST PUSH2 0x1DF PUSH2 0x200 CALLDATASIZE PUSH1 0x4 PUSH2 0x16EA JUMP JUMPDEST PUSH2 0xA99 JUMP JUMPDEST PUSH2 0x1C1 PUSH2 0x213 CALLDATASIZE PUSH1 0x4 PUSH2 0x170C JUMP JUMPDEST PUSH2 0xBF1 JUMP JUMPDEST PUSH2 0x1C1 PUSH2 0x226 CALLDATASIZE PUSH1 0x4 PUSH2 0x174E JUMP JUMPDEST PUSH2 0xD7E JUMP JUMPDEST PUSH2 0x1DF PUSH1 0x8 SLOAD DUP2 JUMP JUMPDEST PUSH2 0x1DF PUSH1 0x7 SLOAD DUP2 JUMP JUMPDEST PUSH2 0x1C1 PUSH2 0x24B CALLDATASIZE PUSH1 0x4 PUSH2 0x16EA JUMP JUMPDEST PUSH2 0xDBB JUMP JUMPDEST PUSH1 0x1 SLOAD PUSH2 0x263 SWAP1 PUSH1 0x1 PUSH1 0x1 PUSH1 0xA0 SHL SUB AND DUP2 JUMP JUMPDEST PUSH1 0x40 MLOAD PUSH1 0x1 PUSH1 0x1 PUSH1 0xA0 SHL SUB SWAP1 SWAP2 AND DUP2 MSTORE PUSH1 0x20 ADD PUSH2 0x1E9 JUMP JUMPDEST PUSH1 0x0 SLOAD PUSH2 0x263 SWAP1 PUSH1 0x1 PUSH1 0x1 PUSH1 0xA0 SHL SUB AND DUP2 JUMP JUMPDEST PUSH2 0x1C1 PUSH2 0x29C CALLDATASIZE PUSH1 0x4 PUSH2 0x16EA JUMP JUMPDEST PUSH2 0xEB5 JUMP JUMPDEST PUSH2 0x1DF PUSH1 0x6 SLOAD DUP2 JUMP JUMPDEST PUSH2 0x2BD PUSH2 0x2B8 CALLDATASIZE PUSH1 0x4 PUSH2 0x16EA JUMP JUMPDEST PUSH2 0xF08 JUMP JUMPDEST PUSH1 0x40 MLOAD PUSH2 0x1E9 SWAP2 SWAP1 PUSH2 0x17C0 JUMP JUMPDEST PUSH2 0x1DF PUSH1 0xC SLOAD DUP2 JUMP JUMPDEST PUSH2 0x1C1 PUSH2 0x2E1 CALLDATASIZE PUSH1 0x4 PUSH2 0x16D1 JUMP JUMPDEST PUSH2 0x104A JUMP JUMPDEST PUSH2 0x1C1 PUSH2 0x2F4 CALLDATASIZE PUSH1 0x4 PUSH2 0x16EA JUMP JUMPDEST PUSH2 0x1288 JUMP JUMPDEST PUSH2 0x31C PUSH2 0x307 CALLDATASIZE PUSH1 0x4 PUSH2 0x16EA JUMP JUMPDEST PUSH1 0x4 PUSH1 0x20 MSTORE PUSH1 0x0 SWAP1 DUP2 MSTORE PUSH1 0x40 SWAP1 KECCAK256 SLOAD PUSH1 0xFF AND DUP2 JUMP JUMPDEST PUSH1 0x40 MLOAD SWAP1 ISZERO ISZERO DUP2 MSTORE PUSH1 0x20 ADD PUSH2 0x1E9 JUMP JUMPDEST PUSH2 0x1DF PUSH1 0xB SLOAD DUP2 JUMP JUMPDEST PUSH2 0x348 PUSH2 0x343 CALLDATASIZE PUSH1 0x4 PUSH2 0x1822 JUMP JUMPDEST PUSH2 0x12D8 JUMP JUMPDEST PUSH1 0x40 DUP1 MLOAD SWAP5 DUP6 MSTORE PUSH1 0x20 DUP6 ADD SWAP4 SWAP1 SWAP4 MSTORE SWAP2 DUP4 ADD MSTORE ISZERO ISZERO PUSH1 0x60 DUP3 ADD MSTORE PUSH1 0x80 ADD PUSH2 0x1E9 JUMP JUMPDEST PUSH2 0x1DF PUSH1 0xA SLOAD DUP2 JUMP JUMPDEST PUSH2 0x31C PUSH2 0x381 CALLDATASIZE PUSH1 0x4 PUSH2 0x16EA JUMP JUMPDEST PUSH1 0x1 PUSH1 0x1 PUSH1 0xA0 SHL SUB AND PUSH1 0x0 SWAP1 DUP2 MSTORE PUSH1 0x2 PUSH1 0x20 MSTORE PUSH1 0x40 SWAP1 KECCAK256 PUSH1 0x5 ADD SLOAD PUSH1 0xFF AND SWAP1 JUMP JUMPDEST PUSH2 0x1DF PUSH1 0xD SLOAD DUP2 JUMP JUMPDEST PUSH2 0x1DF PUSH2 0x3B9 CALLDATASIZE PUSH1 0x4 PUSH2 0x16EA JUMP JUMPDEST PUSH1 0x1 PUSH1 0x1 PUSH1 0xA0 SHL SUB AND PUSH1 0x0 SWAP1 DUP2 MSTORE PUSH1 0x3 PUSH1 0x20 MSTORE PUSH1 0x40 SWAP1 KECCAK256 SLOAD SWAP1 JUMP JUMPDEST PUSH2 0x3E7 PUSH2 0x3E2 CALLDATASIZE PUSH1 0x4 PUSH2 0x1822 JUMP JUMPDEST PUSH2 0x1321 JUMP JUMPDEST PUSH1 0x40 MLOAD PUSH2 0x1E9 SWAP2 SWAP1 DUP2 MLOAD DUP2 MSTORE PUSH1 0x20 DUP1 DUP4 ADD MLOAD SWAP1 DUP3 ADD MSTORE PUSH1 0x40 DUP1 DUP4 ADD MLOAD SWAP1 DUP3 ADD MSTORE PUSH1 0x60 SWAP2 DUP3 ADD MLOAD ISZERO ISZERO SWAP2 DUP2 ADD SWAP2 SWAP1 SWAP2 MSTORE PUSH1 0x80 ADD SWAP1 JUMP JUMPDEST PUSH2 0x1DF PUSH1 0x5 SLOAD DUP2 JUMP JUMPDEST PUSH2 0x438 PUSH2 0x433 CALLDATASIZE PUSH1 0x4 PUSH2 0x16EA JUMP JUMPDEST PUSH2 0x13C7 JUMP JUMPDEST PUSH1 0x40 MLOAD PUSH2 0x1E9 SWAP8 SWAP7 SWAP6 SWAP5 SWAP4 SWAP3 SWAP2 SWAP1 PUSH2 0x184C JUMP JUMPDEST CALLER PUSH1 0x0 SWAP1 DUP2 MSTORE PUSH1 0x4 PUSH1 0x20 MSTORE PUSH1 0x40 SWAP1 KECCAK256 SLOAD PUSH1 0xFF AND PUSH2 0x483 JUMPI PUSH1 0x40 MLOAD PUSH3 0x461BCD PUSH1 0xE5 SHL DUP2 MSTORE PUSH1 0x4 ADD PUSH2 0x47A SWAP1 PUSH2 0x1892 JUMP JUMPDEST PUSH1 0x40 MLOAD DUP1 SWAP2 SUB SWAP1 REVERT JUMPDEST PUSH1 0x1 PUSH1 0x1 PUSH1 0xA0 SHL SUB DUP5 AND PUSH1 0x0 SWAP1 DUP2 MSTORE PUSH1 0x2 PUSH1 0x20 MSTORE PUSH1 0x40 SWAP1 KECCAK256 PUSH1 0x5 ADD SLOAD PUSH1 0xFF AND PUSH2 0x4BE JUMPI PUSH1 0x40 MLOAD PUSH3 0x461BCD PUSH1 0xE5 SHL DUP2 MSTORE PUSH1 0x4 ADD PUSH2 0x47A SWAP1 PUSH2 0x18BA JUMP JUMPDEST PUSH1 0x1 PUSH1 0x1 PUSH1 0xA0 SHL SUB DUP5 AND PUSH1 0x0 SWAP1 DUP2 MSTORE PUSH1 0x2 PUSH1 0x20 MSTORE PUSH1 0x40 DUP2 KECCAK256 PUSH1 0x3 ADD DUP1 SLOAD SWAP2 PUSH2 0x4E5 DUP4 PUSH2 0x18F8 JUMP JUMPDEST SWAP1 SWAP2 SSTORE POP POP PUSH1 0x1 PUSH1 0x1 PUSH1 0xA0 SHL SUB DUP5 AND PUSH1 0x0 SWAP1 DUP2 MSTORE PUSH1 0x2 PUSH1 0x20 MSTORE PUSH1 0x40 DUP2 KECCAK256 TIMESTAMP PUSH1 0x4 DUP3 ADD SSTORE PUSH1 0x6 SLOAD SWAP1 SLOAD PUSH2 0x2710 SWAP2 DUP7 SWAP2 PUSH2 0x51D SWAP2 SWAP1 PUSH2 0x1911 JUMP JUMPDEST PUSH2 0x527 SWAP2 SWAP1 PUSH2 0x1911 JUMP JUMPDEST PUSH2 0x531 SWAP2 SWAP1 PUSH2 0x193E JUMP JUMPDEST SWAP1 POP PUSH1 0x0 DUP2 GT DUP1 ISZERO PUSH2 0x55A JUMPI POP PUSH1 0x1 PUSH1 0x1 PUSH1 0xA0 SHL SUB DUP6 AND PUSH1 0x0 SWAP1 DUP2 MSTORE PUSH1 0x2 PUSH1 0x20 MSTORE PUSH1 0x40 SWAP1 KECCAK256 SLOAD ISZERO ISZERO JUMPDEST ISZERO PUSH2 0x7BF JUMPI PUSH1 0x1 PUSH1 0x1 PUSH1 0xA0 SHL SUB DUP6 AND PUSH1 0x0 SWAP1 DUP2 MSTORE PUSH1 0x3 PUSH1 0x20 MSTORE PUSH1 0x40 DUP2 KECCAK256 DUP3 SWAP2 JUMPDEST DUP2 SLOAD DUP2 LT DUP1 ISZERO PUSH2 0x58A JUMPI POP PUSH1 0x0 DUP4 GT JUMPDEST ISZERO PUSH2 0x6E5 JUMPI DUP2 DUP2 DUP2 SLOAD DUP2 LT PUSH2 0x5A1 JUMPI PUSH2 0x5A1 PUSH2 0x1952 JUMP JUMPDEST PUSH1 0x0 SWAP2 DUP3 MSTORE PUSH1 0x20 SWAP1 SWAP2 KECCAK256 PUSH1 0x3 PUSH1 0x4 SWAP1 SWAP3 MUL ADD ADD SLOAD PUSH1 0xFF AND ISZERO DUP1 ISZERO PUSH2 0x5E8 JUMPI POP PUSH1 0x0 DUP3 DUP3 DUP2 SLOAD DUP2 LT PUSH2 0x5D4 JUMPI PUSH2 0x5D4 PUSH2 0x1952 JUMP JUMPDEST SWAP1 PUSH1 0x0 MSTORE PUSH1 0x20 PUSH1 0x0 KECCAK256 SWAP1 PUSH1 0x4 MUL ADD PUSH1 0x0 ADD SLOAD GT JUMPDEST ISZERO PUSH2 0x6D3 JUMPI PUSH1 0x0 DUP3 DUP3 DUP2 SLOAD DUP2 LT PUSH2 0x601 JUMPI PUSH2 0x601 PUSH2 0x1952 JUMP JUMPDEST SWAP1 PUSH1 0x0 MSTORE PUSH1 0x20 PUSH1 0x0 KECCAK256 SWAP1 PUSH1 0x4 MUL ADD PUSH1 0x0 ADD SLOAD DUP5 GT PUSH2 0x61F JUMPI DUP4 PUSH2 0x644 JUMP JUMPDEST DUP3 DUP3 DUP2 SLOAD DUP2 LT PUSH2 0x631 JUMPI PUSH2 0x631 PUSH2 0x1952 JUMP JUMPDEST SWAP1 PUSH1 0x0 MSTORE PUSH1 0x20 PUSH1 0x0 KECCAK256 SWAP1 PUSH1 0x4 MUL ADD PUSH1 0x0 ADD SLOAD JUMPDEST SWAP1 POP DUP1 DUP4 DUP4 DUP2 SLOAD DUP2 LT PUSH2 0x659 JUMPI PUSH2 0x659 PUSH2 0x1952 JUMP JUMPDEST SWAP1 PUSH1 0x0 MSTORE PUSH1 0x20 PUSH1 0x0 KECCAK256 SWAP1 PUSH1 0x4 MUL ADD PUSH1 0x0 ADD PUSH1 0x0 DUP3 DUP3 SLOAD PUSH2 0x679 SWAP2 SWAP1 PUSH2 0x1968 JUMP JUMPDEST SWAP1 SWAP2 SSTORE POP POP PUSH1 0x1 PUSH1 0x1 PUSH1 0xA0 SHL SUB DUP10 AND PUSH1 0x0 SWAP1 DUP2 MSTORE PUSH1 0x2 PUSH1 0x20 MSTORE PUSH1 0x40 DUP2 KECCAK256 DUP1 SLOAD DUP4 SWAP3 SWAP1 PUSH2 0x6A6 SWAP1 DUP5 SWAP1 PUSH2 0x1968 JUMP JUMPDEST SWAP3 POP POP DUP2 SWAP1 SSTORE POP DUP1 PUSH1 0xC PUSH1 0x0 DUP3 DUP3 SLOAD PUSH2 0x6BF SWAP2 SWAP1 PUSH2 0x1968 JUMP JUMPDEST SWAP1 SWAP2 SSTORE POP PUSH2 0x6CF SWAP1 POP DUP2 DUP6 PUSH2 0x1968 JUMP JUMPDEST SWAP4 POP POP JUMPDEST DUP1 PUSH2 0x6DD DUP2 PUSH2 0x18F8 JUMP JUMPDEST SWAP2 POP POP PUSH2 0x57A JUMP JUMPDEST POP PUSH1 0x0 SLOAD PUSH1 0x1 SLOAD PUSH1 0x1 PUSH1 0x1 PUSH1 0xA0 SHL SUB SWAP2 DUP3 AND SWAP2 PUSH4 0xA9059CBB SWAP2 AND PUSH2 0x709 DUP6 DUP8 PUSH2 0x1968 JUMP JUMPDEST PUSH1 0x40 MLOAD PUSH1 0x1 PUSH1 0x1 PUSH1 0xE0 SHL SUB NOT PUSH1 0xE0 DUP6 SWAP1 SHL AND DUP2 MSTORE PUSH1 0x1 PUSH1 0x1 PUSH1 0xA0 SHL SUB SWAP1 SWAP3 AND PUSH1 0x4 DUP4 ADD MSTORE PUSH1 0x24 DUP3 ADD MSTORE PUSH1 0x44 ADD PUSH1 0x20 PUSH1 0x40 MLOAD DUP1 DUP4 SUB DUP2 PUSH1 0x0 DUP8 GAS CALL ISZERO DUP1 ISZERO PUSH2 0x754 JUMPI RETURNDATASIZE PUSH1 0x0 DUP1 RETURNDATACOPY RETURNDATASIZE PUSH1 0x0 REVERT JUMPDEST POP POP POP POP PUSH1 0x40 MLOAD RETURNDATASIZE PUSH1 0x1F NOT PUSH1 0x1F DUP3 ADD AND DUP3 ADD DUP1 PUSH1 0x40 MSTORE POP DUP2 ADD SWAP1 PUSH2 0x778 SWAP2 SWAP1 PUSH2 0x197B JUMP JUMPDEST PUSH2 0x7BC JUMPI PUSH1 0x40 MLOAD PUSH3 0x461BCD PUSH1 0xE5 SHL DUP2 MSTORE PUSH1 0x20 PUSH1 0x4 DUP3 ADD MSTORE PUSH1 0x15 PUSH1 0x24 DUP3 ADD MSTORE PUSH21 0x14DB185CDA081D1C985B9CD9995C8819985A5B1959 PUSH1 0x5A SHL PUSH1 0x44 DUP3 ADD MSTORE PUSH1 0x64 ADD PUSH2 0x47A JUMP JUMPDEST POP POP JUMPDEST PUSH2 0x7C8 DUP6 PUSH2 0x1494 JUMP JUMPDEST DUP5 PUSH1 0x1 PUSH1 0x1 PUSH1 0xA0 SHL SUB AND PUSH32 0xF90D547AF41B84AE5DB3DC86FAC677444898B3350B3E9CCCD482DEA1274BFC95 DUP3 DUP6 DUP6 PUSH1 0x40 MLOAD PUSH2 0x805 SWAP4 SWAP3 SWAP2 SWAP1 PUSH2 0x19C6 JUMP JUMPDEST PUSH1 0x40 MLOAD DUP1 SWAP2 SUB SWAP1 LOG2 POP POP POP POP POP JUMP JUMPDEST CALLER PUSH1 0x0 SWAP1 DUP2 MSTORE PUSH1 0x2 PUSH1 0x20 MSTORE PUSH1 0x40 SWAP1 KECCAK256 PUSH1 0x5 ADD SLOAD PUSH1 0xFF AND PUSH2 0x846 JUMPI PUSH1 0x40 MLOAD PUSH3 0x461BCD PUSH1 0xE5 SHL DUP2 MSTORE PUSH1 0x4 ADD PUSH2 0x47A SWAP1 PUSH2 0x18BA JUMP JUMPDEST CALLER PUSH1 0x0 SWAP1 DUP2 MSTORE PUSH1 0x3 PUSH1 0x20 MSTORE PUSH1 0x40 SWAP1 KECCAK256 SLOAD DUP2 LT PUSH2 0x894 JUMPI PUSH1 0x40 MLOAD PUSH3 0x461BCD PUSH1 0xE5 SHL DUP2 MSTORE PUSH1 0x20 PUSH1 0x4 DUP3 ADD MSTORE PUSH1 0xD PUSH1 0x24 DUP3 ADD MSTORE PUSH13 0x92DCECC2D8D2C840D2DCC8CAF PUSH1 0x9B SHL PUSH1 0x44 DUP3 ADD MSTORE PUSH1 0x64 ADD PUSH2 0x47A JUMP JUMPDEST CALLER PUSH1 0x0 SWAP1 DUP2 MSTORE PUSH1 0x3 PUSH1 0x20 MSTORE PUSH1 0x40 DUP2 KECCAK256 DUP1 SLOAD DUP4 SWAP1 DUP2 LT PUSH2 0x8B5 JUMPI PUSH2 0x8B5 PUSH2 0x1952 JUMP JUMPDEST PUSH1 0x0 SWAP2 DUP3 MSTORE PUSH1 0x20 SWAP1 SWAP2 KECCAK256 PUSH1 0x4 SWAP1 SWAP2 MUL ADD PUSH1 0x3 DUP2 ADD SLOAD SWAP1 SWAP2 POP PUSH1 0xFF AND ISZERO PUSH2 0x911 JUMPI PUSH1 0x40 MLOAD PUSH3 0x461BCD PUSH1 0xE5 SHL DUP2 MSTORE PUSH1 0x20 PUSH1 0x4 DUP3 ADD MSTORE PUSH1 0x11 PUSH1 0x24 DUP3 ADD MSTORE PUSH17 0x20B63932B0B23C903BB4BA34323930BBB7 PUSH1 0x79 SHL PUSH1 0x44 DUP3 ADD MSTORE PUSH1 0x64 ADD PUSH2 0x47A JUMP JUMPDEST DUP1 PUSH1 0x2 ADD SLOAD TIMESTAMP LT ISZERO PUSH2 0x954 JUMPI PUSH1 0x40 MLOAD PUSH3 0x461BCD PUSH1 0xE5 SHL DUP2 MSTORE PUSH1 0x20 PUSH1 0x4 DUP3 ADD MSTORE PUSH1 0xC PUSH1 0x24 DUP3 ADD MSTORE PUSH12 0x14DD1A5B1B081B1BD8DAD959 PUSH1 0xA2 SHL PUSH1 0x44 DUP3 ADD MSTORE PUSH1 0x64 ADD PUSH2 0x47A JUMP JUMPDEST PUSH1 0x3 DUP2 ADD DUP1 SLOAD PUSH1 0xFF NOT AND PUSH1 0x1 OR SWAP1 SSTORE DUP1 SLOAD CALLER PUSH1 0x0 SWAP1 DUP2 MSTORE PUSH1 0x2 PUSH1 0x20 MSTORE PUSH1 0x40 DUP2 KECCAK256 DUP1 SLOAD DUP4 SWAP3 SWAP1 PUSH2 0x984 SWAP1 DUP5 SWAP1 PUSH2 0x1968 JUMP JUMPDEST SWAP3 POP POP DUP2 SWAP1 SSTORE POP DUP1 PUSH1 0xC PUSH1 0x0 DUP3 DUP3 SLOAD PUSH2 0x99D SWAP2 SWAP1 PUSH2 0x1968 JUMP JUMPDEST SWAP1 SWAP2 SSTORE POP PUSH2 0x9AC SWAP1 POP CALLER PUSH2 0x1494 JUMP JUMPDEST PUSH1 0x0 SLOAD PUSH1 0x40 MLOAD PUSH4 0xA9059CBB PUSH1 0xE0 SHL DUP2 MSTORE CALLER PUSH1 0x4 DUP3 ADD MSTORE PUSH1 0x24 DUP2 ADD DUP4 SWAP1 MSTORE PUSH1 0x1 PUSH1 0x1 PUSH1 0xA0 SHL SUB SWAP1 SWAP2 AND SWAP1 PUSH4 0xA9059CBB SWAP1 PUSH1 0x44 ADD PUSH1 0x20 PUSH1 0x40 MLOAD DUP1 DUP4 SUB DUP2 PUSH1 0x0 DUP8 GAS CALL ISZERO DUP1 ISZERO PUSH2 0x9FD JUMPI RETURNDATASIZE PUSH1 0x0 DUP1 RETURNDATACOPY RETURNDATASIZE PUSH1 0x0 REVERT JUMPDEST POP POP POP POP PUSH1 0x40 MLOAD RETURNDATASIZE PUSH1 0x1F NOT PUSH1 0x1F DUP3 ADD AND DUP3 ADD DUP1 PUSH1 0x40 MSTORE POP DUP2 ADD SWAP1 PUSH2 0xA21 SWAP2 SWAP1 PUSH2 0x197B JUMP JUMPDEST PUSH2 0xA5F JUMPI PUSH1 0x40 MLOAD PUSH3 0x461BCD PUSH1 0xE5 SHL DUP2 MSTORE PUSH1 0x20 PUSH1 0x4 DUP3 ADD MSTORE PUSH1 0xF PUSH1 0x24 DUP3 ADD MSTORE PUSH15 0x151C985B9CD9995C8819985A5B1959 PUSH1 0x8A SHL PUSH1 0x44 DUP3 ADD MSTORE PUSH1 0x64 ADD PUSH2 0x47A JUMP JUMPDEST PUSH1 0x40 MLOAD DUP2 DUP2 MSTORE CALLER SWAP1 PUSH32 0x8108595EB6BAD3ACEFA9DA467D90CC2217686D5C5AC85460F8B7849C840645FC SWAP1 PUSH1 0x20 ADD PUSH1 0x40 MLOAD DUP1 SWAP2 SUB SWAP1 LOG2 POP POP POP JUMP JUMPDEST PUSH1 0x1 PUSH1 0x1 PUSH1 0xA0 SHL SUB DUP2 AND PUSH1 0x0 SWAP1 DUP2 MSTORE PUSH1 0x2 PUSH1 0x20 MSTORE PUSH1 0x40 DUP2 KECCAK256 PUSH1 0x5 DUP2 ADD SLOAD PUSH1 0xFF AND PUSH2 0xAC6 JUMPI POP PUSH1 0x0 SWAP3 SWAP2 POP POP JUMP JUMPDEST DUP1 SLOAD PUSH1 0x0 SWAP1 PUSH2 0xAD6 JUMPI PUSH1 0x0 PUSH2 0xAF2 JUMP JUMPDEST PUSH1 0x5 SLOAD PUSH1 0x9 SLOAD DUP4 SLOAD PUSH2 0xAE8 SWAP2 SWAP1 PUSH2 0x1911 JUMP JUMPDEST PUSH2 0xAF2 SWAP2 SWAP1 PUSH2 0x193E JUMP JUMPDEST SWAP1 POP PUSH2 0x190 DUP2 GT ISZERO PUSH2 0xB03 JUMPI POP PUSH2 0x190 JUMPDEST PUSH1 0x0 DUP3 PUSH1 0x3 ADD SLOAD DUP4 PUSH1 0x2 ADD SLOAD PUSH2 0xB19 SWAP2 SWAP1 PUSH2 0x19E9 JUMP JUMPDEST SWAP1 POP PUSH1 0x0 DUP2 ISZERO PUSH2 0xB6C JUMPI PUSH1 0x0 DUP3 DUP6 PUSH1 0x2 ADD SLOAD PUSH1 0x64 PUSH2 0xB37 SWAP2 SWAP1 PUSH2 0x1911 JUMP JUMPDEST PUSH2 0xB41 SWAP2 SWAP1 PUSH2 0x193E JUMP JUMPDEST SWAP1 POP PUSH1 0x64 PUSH1 0xA SLOAD DUP3 PUSH2 0xB53 SWAP2 SWAP1 PUSH2 0x1911 JUMP JUMPDEST PUSH2 0xB5E SWAP1 PUSH1 0xA PUSH2 0x1911 JUMP JUMPDEST PUSH2 0xB68 SWAP2 SWAP1 PUSH2 0x193E JUMP JUMPDEST SWAP2 POP POP JUMPDEST PUSH1 0x0 PUSH3 0x15180 DUP6 PUSH1 0x4 ADD SLOAD TIMESTAMP PUSH2 0xB82 SWAP2 SWAP1 PUSH2 0x1968 JUMP JUMPDEST PUSH2 0xB8C SWAP2 SWAP1 PUSH2 0x193E JUMP JUMPDEST SWAP1 POP PUSH1 0x0 PUSH1 0x1E DUP3 LT PUSH2 0xB9F JUMPI PUSH1 0x0 PUSH2 0xBCE JUMP JUMPDEST PUSH1 0xB SLOAD PUSH1 0x1E SWAP1 PUSH2 0xBAF DUP5 DUP4 PUSH2 0x1968 JUMP JUMPDEST PUSH2 0xBB9 SWAP2 SWAP1 PUSH2 0x1911 JUMP JUMPDEST PUSH2 0xBC4 SWAP1 PUSH1 0xA PUSH2 0x1911 JUMP JUMPDEST PUSH2 0xBCE SWAP2 SWAP1 PUSH2 0x193E JUMP JUMPDEST SWAP1 POP DUP1 PUSH2 0xBDB DUP5 DUP8 PUSH2 0x19E9 JUMP JUMPDEST PUSH2 0xBE5 SWAP2 SWAP1 PUSH2 0x19E9 JUMP JUMPDEST SWAP9 SWAP8 POP POP POP POP POP POP POP POP JUMP JUMPDEST CALLER PUSH1 0x0 SWAP1 DUP2 MSTORE PUSH1 0x2 PUSH1 0x20 MSTORE PUSH1 0x40 SWAP1 KECCAK256 PUSH1 0x5 ADD SLOAD PUSH1 0xFF AND ISZERO PUSH2 0xC49 JUMPI PUSH1 0x40 MLOAD PUSH3 0x461BCD PUSH1 0xE5 SHL DUP2 MSTORE PUSH1 0x20 PUSH1 0x4 DUP3 ADD MSTORE PUSH1 0x12 PUSH1 0x24 DUP3 ADD MSTORE PUSH18 0x105B1C9958591E481C9959DA5CDD195C9959 PUSH1 0x72 SHL PUSH1 0x44 DUP3 ADD MSTORE PUSH1 0x64 ADD PUSH2 0x47A JUMP JUMPDEST PUSH1 0x40 MLOAD DUP1 PUSH1 0xE0 ADD PUSH1 0x40 MSTORE DUP1 PUSH1 0x0 DUP2 MSTORE PUSH1 0x20 ADD PUSH1 0x0 DUP2 MSTORE PUSH1 0x20 ADD PUSH1 0x0 DUP2 MSTORE PUSH1 0x20 ADD PUSH1 0x0 DUP2 MSTORE PUSH1 0x20 ADD TIMESTAMP DUP2 MSTORE PUSH1 0x20 ADD PUSH1 0x1 ISZERO ISZERO DUP2 MSTORE PUSH1 0x20 ADD DUP4 DUP4 DUP1 DUP1 PUSH1 0x1F ADD PUSH1 0x20 DUP1 SWAP2 DIV MUL PUSH1 0x20 ADD PUSH1 0x40 MLOAD SWAP1 DUP2 ADD PUSH1 0x40 MSTORE DUP1 SWAP4 SWAP3 SWAP2 SWAP1 DUP2 DUP2 MSTORE PUSH1 0x20 ADD DUP4 DUP4 DUP1 DUP3 DUP5 CALLDATACOPY PUSH1 0x0 SWAP3 ADD DUP3 SWAP1 MSTORE POP SWAP4 SWAP1 SWAP5 MSTORE POP POP CALLER DUP2 MSTORE PUSH1 0x2 PUSH1 0x20 DUP2 DUP2 MSTORE PUSH1 0x40 SWAP3 DUP4 SWAP1 KECCAK256 DUP6 MLOAD DUP2 SSTORE SWAP1 DUP6 ADD MLOAD PUSH1 0x1 DUP3 ADD SSTORE SWAP2 DUP5 ADD MLOAD SWAP1 DUP3 ADD SSTORE PUSH1 0x60 DUP4 ADD MLOAD PUSH1 0x3 DUP3 ADD SSTORE PUSH1 0x80 DUP4 ADD MLOAD PUSH1 0x4 DUP3 ADD SSTORE PUSH1 0xA0 DUP4 ADD MLOAD PUSH1 0x5 DUP3 ADD DUP1 SLOAD PUSH1 0xFF NOT AND SWAP2 ISZERO ISZERO SWAP2 SWAP1 SWAP2 OR SWAP1 SSTORE PUSH1 0xC0 DUP4 ADD MLOAD SWAP1 SWAP2 POP PUSH1 0x6 DUP3 ADD SWAP1 PUSH2 0xD1F SWAP1 DUP3 PUSH2 0x1A9B JUMP JUMPDEST POP POP PUSH1 0xD DUP1 SLOAD SWAP2 POP PUSH1 0x0 PUSH2 0xD32 DUP4 PUSH2 0x18F8 JUMP JUMPDEST SWAP2 SWAP1 POP SSTORE POP CALLER PUSH1 0x1 PUSH1 0x1 PUSH1 0xA0 SHL SUB AND PUSH32 0xDA816CA2FC37B9EECEC62AE8263008EC6BE1AFB38DC28BC9C7C51D7E348DA9C2 DUP4 DUP4 PUSH1 0x40 MLOAD PUSH2 0xD72 SWAP3 SWAP2 SWAP1 PUSH2 0x1B5B JUMP JUMPDEST PUSH1 0x40 MLOAD DUP1 SWAP2 SUB SWAP1 LOG2 POP POP JUMP JUMPDEST CALLER PUSH1 0x0 SWAP1 DUP2 MSTORE PUSH1 0x4 PUSH1 0x20 MSTORE PUSH1 0x40 SWAP1 KECCAK256 SLOAD PUSH1 0xFF AND PUSH2 0xDAD JUMPI PUSH1 0x40 MLOAD PUSH3 0x461BCD PUSH1 0xE5 SHL DUP2 MSTORE PUSH1 0x4 ADD PUSH2 0x47A SWAP1 PUSH2 0x1892 JUMP JUMPDEST PUSH1 0x5 SWAP3 SWAP1 SWAP3 SSTORE PUSH1 0x6 SSTORE PUSH1 0x7 SSTORE JUMP JUMPDEST CALLER PUSH1 0x0 SWAP1 DUP2 MSTORE PUSH1 0x4 PUSH1 0x20 MSTORE PUSH1 0x40 SWAP1 KECCAK256 SLOAD PUSH1 0xFF AND PUSH2 0xDEA JUMPI PUSH1 0x40 MLOAD PUSH3 0x461BCD PUSH1 0xE5 SHL DUP2 MSTORE PUSH1 0x4 ADD PUSH2 0x47A SWAP1 PUSH2 0x1892 JUMP JUMPDEST PUSH1 0x1 PUSH1 0x1 PUSH1 0xA0 SHL SUB DUP2 AND PUSH1 0x0 SWAP1 DUP2 MSTORE PUSH1 0x2 PUSH1 0x20 MSTORE PUSH1 0x40 SWAP1 KECCAK256 PUSH1 0x5 ADD SLOAD PUSH1 0xFF AND PUSH2 0xE25 JUMPI PUSH1 0x40 MLOAD PUSH3 0x461BCD PUSH1 0xE5 SHL DUP2 MSTORE PUSH1 0x4 ADD PUSH2 0x47A SWAP1 PUSH2 0x18BA JUMP JUMPDEST PUSH1 0x1 PUSH1 0x1 PUSH1 0xA0 SHL SUB DUP2 AND PUSH1 0x0 SWAP1 DUP2 MSTORE PUSH1 0x2 PUSH1 0x20 DUP2 SWAP1 MSTORE PUSH1 0x40 DUP3 KECCAK256 ADD DUP1 SLOAD SWAP2 PUSH2 0xE4C DUP4 PUSH2 0x18F8 JUMP JUMPDEST SWAP1 SWAP2 SSTORE POP POP PUSH1 0x1 PUSH1 0x1 PUSH1 0xA0 SHL SUB DUP2 AND PUSH1 0x0 SWAP1 DUP2 MSTORE PUSH1 0x2 PUSH1 0x20 MSTORE PUSH1 0x40 SWAP1 KECCAK256 TIMESTAMP PUSH1 0x4 SWAP1 SWAP2 ADD SSTORE PUSH2 0xE79 DUP2 PUSH2 0x1494 JUMP JUMPDEST PUSH1 0x1 PUSH1 0x1 PUSH1 0xA0 SHL SUB DUP2 AND PUSH1 0x0 SWAP1 DUP2 MSTORE PUSH1 0x2 PUSH1 0x20 DUP2 SWAP1 MSTORE PUSH1 0x40 SWAP1 SWAP2 KECCAK256 ADD SLOAD PUSH2 0xEA2 SWAP1 PUSH1 0xA SWAP1 PUSH2 0x1B6F JUMP JUMPDEST PUSH1 0x0 SUB PUSH2 0xEB2 JUMPI PUSH2 0xEB2 DUP2 PUSH2 0x14F3 JUMP JUMPDEST POP JUMP JUMPDEST CALLER PUSH1 0x0 SWAP1 DUP2 MSTORE PUSH1 0x4 PUSH1 0x20 MSTORE PUSH1 0x40 SWAP1 KECCAK256 SLOAD PUSH1 0xFF AND PUSH2 0xEE4 JUMPI PUSH1 0x40 MLOAD PUSH3 0x461BCD PUSH1 0xE5 SHL DUP2 MSTORE PUSH1 0x4 ADD PUSH2 0x47A SWAP1 PUSH2 0x1892 JUMP JUMPDEST PUSH1 0x1 PUSH1 0x1 PUSH1 0xA0 SHL SUB AND PUSH1 0x0 SWAP1 DUP2 MSTORE PUSH1 0x4 PUSH1 0x20 MSTORE PUSH1 0x40 SWAP1 KECCAK256 DUP1 SLOAD PUSH1 0xFF NOT AND PUSH1 0x1 OR SWAP1 SSTORE JUMP JUMPDEST PUSH2 0xF4A PUSH1 0x40 MLOAD DUP1 PUSH1 0xE0 ADD PUSH1 0x40 MSTORE DUP1 PUSH1 0x0 DUP2 MSTORE PUSH1 0x20 ADD PUSH1 0x0 DUP2 MSTORE PUSH1 0x20 ADD PUSH1 0x0 DUP2 MSTORE PUSH1 0x20 ADD PUSH1 0x0 DUP2 MSTORE PUSH1 0x20 ADD PUSH1 0x0 DUP2 MSTORE PUSH1 0x20 ADD PUSH1 0x0 ISZERO ISZERO DUP2 MSTORE PUSH1 0x20 ADD PUSH1 0x60 DUP2 MSTORE POP SWAP1 JUMP JUMPDEST PUSH1 0x1 PUSH1 0x1 PUSH1 0xA0 SHL SUB DUP3 AND PUSH1 0x0 SWAP1 DUP2 MSTORE PUSH1 0x2 PUSH1 0x20 DUP2 DUP2 MSTORE PUSH1 0x40 SWAP3 DUP4 SWAP1 KECCAK256 DUP4 MLOAD PUSH1 0xE0 DUP2 ADD DUP6 MSTORE DUP2 SLOAD DUP2 MSTORE PUSH1 0x1 DUP3 ADD SLOAD SWAP3 DUP2 ADD SWAP3 SWAP1 SWAP3 MSTORE SWAP2 DUP3 ADD SLOAD SWAP3 DUP2 ADD SWAP3 SWAP1 SWAP3 MSTORE PUSH1 0x3 DUP2 ADD SLOAD PUSH1 0x60 DUP4 ADD MSTORE PUSH1 0x4 DUP2 ADD SLOAD PUSH1 0x80 DUP4 ADD MSTORE PUSH1 0x5 DUP2 ADD SLOAD PUSH1 0xFF AND ISZERO ISZERO PUSH1 0xA0 DUP4 ADD MSTORE PUSH1 0x6 DUP2 ADD DUP1 SLOAD PUSH1 0xC0 DUP5 ADD SWAP2 SWAP1 PUSH2 0xFC1 SWAP1 PUSH2 0x1A12 JUMP JUMPDEST DUP1 PUSH1 0x1F ADD PUSH1 0x20 DUP1 SWAP2 DIV MUL PUSH1 0x20 ADD PUSH1 0x40 MLOAD SWAP1 DUP2 ADD PUSH1 0x40 MSTORE DUP1 SWAP3 SWAP2 SWAP1 DUP2 DUP2 MSTORE PUSH1 0x20 ADD DUP3 DUP1 SLOAD PUSH2 0xFED SWAP1 PUSH2 0x1A12 JUMP JUMPDEST DUP1 ISZERO PUSH2 0x103A JUMPI DUP1 PUSH1 0x1F LT PUSH2 0x100F JUMPI PUSH2 0x100 DUP1 DUP4 SLOAD DIV MUL DUP4 MSTORE SWAP2 PUSH1 0x20 ADD SWAP2 PUSH2 0x103A JUMP JUMPDEST DUP3 ADD SWAP2 SWAP1 PUSH1 0x0 MSTORE PUSH1 0x20 PUSH1 0x0 KECCAK256 SWAP1 JUMPDEST DUP2 SLOAD DUP2 MSTORE SWAP1 PUSH1 0x1 ADD SWAP1 PUSH1 0x20 ADD DUP1 DUP4 GT PUSH2 0x101D JUMPI DUP3 SWAP1 SUB PUSH1 0x1F AND DUP3 ADD SWAP2 JUMPDEST POP POP POP POP POP DUP2 MSTORE POP POP SWAP1 POP SWAP2 SWAP1 POP JUMP JUMPDEST CALLER PUSH1 0x0 SWAP1 DUP2 MSTORE PUSH1 0x2 PUSH1 0x20 MSTORE PUSH1 0x40 SWAP1 KECCAK256 PUSH1 0x5 ADD SLOAD PUSH1 0xFF AND PUSH2 0x107C JUMPI PUSH1 0x40 MLOAD PUSH3 0x461BCD PUSH1 0xE5 SHL DUP2 MSTORE PUSH1 0x4 ADD PUSH2 0x47A SWAP1 PUSH2 0x18BA JUMP JUMPDEST PUSH1 0x0 DUP2 GT PUSH2 0x10C1 JUMPI PUSH1 0x40 MLOAD PUSH3 0x461BCD PUSH1 0xE5 SHL DUP2 MSTORE PUSH1 0x20 PUSH1 0x4 DUP3 ADD MSTORE PUSH1 0x12 PUSH1 0x24 DUP3 ADD MSTORE PUSH18 0x416D6F756E74206D757374206265203E203 PUSH1 0x74 SHL PUSH1 0x44 DUP3 ADD MSTORE PUSH1 0x64 ADD PUSH2 0x47A JUMP JUMPDEST PUSH1 0x0 SLOAD PUSH1 0x40 MLOAD PUSH4 0x23B872DD PUSH1 0xE0 SHL DUP2 MSTORE CALLER PUSH1 0x4 DUP3 ADD MSTORE ADDRESS PUSH1 0x24 DUP3 ADD MSTORE PUSH1 0x44 DUP2 ADD DUP4 SWAP1 MSTORE PUSH1 0x1 PUSH1 0x1 PUSH1 0xA0 SHL SUB SWAP1 SWAP2 AND SWAP1 PUSH4 0x23B872DD SWAP1 PUSH1 0x64 ADD PUSH1 0x20 PUSH1 0x40 MLOAD DUP1 DUP4 SUB DUP2 PUSH1 0x0 DUP8 GAS CALL ISZERO DUP1 ISZERO PUSH2 0x1118 JUMPI RETURNDATASIZE PUSH1 0x0 DUP1 RETURNDATACOPY RETURNDATASIZE PUSH1 0x0 REVERT JUMPDEST POP POP POP POP PUSH1 0x40 MLOAD RETURNDATASIZE PUSH1 0x1F NOT PUSH1 0x1F DUP3 ADD AND DUP3 ADD DUP1 PUSH1 0x40 MSTORE POP DUP2 ADD SWAP1 PUSH2 0x113C SWAP2 SWAP1 PUSH2 0x197B JUMP JUMPDEST PUSH2 0x117A JUMPI PUSH1 0x40 MLOAD PUSH3 0x461BCD PUSH1 0xE5 SHL DUP2 MSTORE PUSH1 0x20 PUSH1 0x4 DUP3 ADD MSTORE PUSH1 0xF PUSH1 0x24 DUP3 ADD MSTORE PUSH15 0x151C985B9CD9995C8819985A5B1959 PUSH1 0x8A SHL PUSH1 0x44 DUP3 ADD MSTORE PUSH1 0x64 ADD PUSH2 0x47A JUMP JUMPDEST PUSH1 0x0 PUSH1 0x40 MLOAD DUP1 PUSH1 0x80 ADD PUSH1 0x40 MSTORE DUP1 DUP4 DUP2 MSTORE PUSH1 0x20 ADD TIMESTAMP DUP2 MSTORE PUSH1 0x20 ADD PUSH1 0x7 SLOAD TIMESTAMP PUSH2 0x11A1 SWAP2 SWAP1 PUSH2 0x19E9 JUMP JUMPDEST DUP2 MSTORE PUSH1 0x0 PUSH1 0x20 SWAP2 DUP3 ADD DUP2 SWAP1 MSTORE CALLER DUP1 DUP3 MSTORE PUSH1 0x3 DUP1 DUP5 MSTORE PUSH1 0x40 DUP1 DUP5 KECCAK256 DUP1 SLOAD PUSH1 0x1 DUP1 DUP3 ADD DUP4 SSTORE SWAP2 DUP7 MSTORE DUP7 DUP7 KECCAK256 DUP9 MLOAD PUSH1 0x4 SWAP1 SWAP3 MUL ADD SWAP1 DUP2 SSTORE DUP8 DUP8 ADD MLOAD SWAP2 DUP2 ADD SWAP2 SWAP1 SWAP2 SSTORE DUP7 DUP3 ADD MLOAD PUSH1 0x2 DUP1 DUP4 ADD SWAP2 SWAP1 SWAP2 SSTORE PUSH1 0x60 DUP9 ADD MLOAD SWAP2 SWAP1 SWAP4 ADD DUP1 SLOAD PUSH1 0xFF NOT AND SWAP2 ISZERO ISZERO SWAP2 SWAP1 SWAP2 OR SWAP1 SSTORE SWAP2 DUP4 MSTORE SWAP1 SWAP3 MSTORE SWAP1 DUP2 KECCAK256 DUP1 SLOAD SWAP3 SWAP4 POP DUP5 SWAP3 SWAP1 SWAP2 SWAP1 PUSH2 0x1223 SWAP1 DUP5 SWAP1 PUSH2 0x19E9 JUMP JUMPDEST SWAP3 POP POP DUP2 SWAP1 SSTORE POP DUP2 PUSH1 0xC PUSH1 0x0 DUP3 DUP3 SLOAD PUSH2 0x123C SWAP2 SWAP1 PUSH2 0x19E9 JUMP JUMPDEST SWAP1 SWAP2 SSTORE POP PUSH2 0x124B SWAP1 POP CALLER PUSH2 0x1494 JUMP JUMPDEST PUSH1 0x40 DUP1 DUP3 ADD MLOAD DUP2 MLOAD DUP5 DUP2 MSTORE PUSH1 0x20 DUP2 ADD SWAP2 SWAP1 SWAP2 MSTORE CALLER SWAP2 PUSH32 0x5CCE4A371BF9816B1A7594F1D76C98EBA4ED025FF3E471234AE598F17899BD4 SWAP2 ADD PUSH2 0xD72 JUMP JUMPDEST CALLER PUSH1 0x0 SWAP1 DUP2 MSTORE PUSH1 0x4 PUSH1 0x20 MSTORE PUSH1 0x40 SWAP1 KECCAK256 SLOAD PUSH1 0xFF AND PUSH2 0x12B7 JUMPI PUSH1 0x40 MLOAD PUSH3 0x461BCD PUSH1 0xE5 SHL DUP2 MSTORE PUSH1 0x4 ADD PUSH2 0x47A SWAP1 PUSH2 0x1892 JUMP JUMPDEST PUSH1 0x1 PUSH1 0x1 PUSH1 0xA0 SHL SUB AND PUSH1 0x0 SWAP1 DUP2 MSTORE PUSH1 0x4 PUSH1 0x20 MSTORE PUSH1 0x40 SWAP1 KECCAK256 DUP1 SLOAD PUSH1 0xFF NOT AND SWAP1 SSTORE JUMP JUMPDEST PUSH1 0x3 PUSH1 0x20 MSTORE DUP2 PUSH1 0x0 MSTORE PUSH1 0x40 PUSH1 0x0 KECCAK256 DUP2 DUP2 SLOAD DUP2 LT PUSH2 0x12F4 JUMPI PUSH1 0x0 DUP1 REVERT JUMPDEST PUSH1 0x0 SWAP2 DUP3 MSTORE PUSH1 0x20 SWAP1 SWAP2 KECCAK256 PUSH1 0x4 SWAP1 SWAP2 MUL ADD DUP1 SLOAD PUSH1 0x1 DUP3 ADD SLOAD PUSH1 0x2 DUP4 ADD SLOAD PUSH1 0x3 SWAP1 SWAP4 ADD SLOAD SWAP2 SWAP5 POP SWAP3 POP PUSH1 0xFF AND DUP5 JUMP JUMPDEST PUSH2 0x134E PUSH1 0x40 MLOAD DUP1 PUSH1 0x80 ADD PUSH1 0x40 MSTORE DUP1 PUSH1 0x0 DUP2 MSTORE PUSH1 0x20 ADD PUSH1 0x0 DUP2 MSTORE PUSH1 0x20 ADD PUSH1 0x0 DUP2 MSTORE PUSH1 0x20 ADD PUSH1 0x0 ISZERO ISZERO DUP2 MSTORE POP SWAP1 JUMP JUMPDEST PUSH1 0x1 PUSH1 0x1 PUSH1 0xA0 SHL SUB DUP4 AND PUSH1 0x0 SWAP1 DUP2 MSTORE PUSH1 0x3 PUSH1 0x20 MSTORE PUSH1 0x40 SWAP1 KECCAK256 DUP1 SLOAD DUP4 SWAP1 DUP2 LT PUSH2 0x1378 JUMPI PUSH2 0x1378 PUSH2 0x1952 JUMP JUMPDEST PUSH1 0x0 SWAP2 DUP3 MSTORE PUSH1 0x20 SWAP2 DUP3 SWAP1 KECCAK256 PUSH1 0x40 DUP1 MLOAD PUSH1 0x80 DUP2 ADD DUP3 MSTORE PUSH1 0x4 SWAP1 SWAP4 MUL SWAP1 SWAP2 ADD DUP1 SLOAD DUP4 MSTORE PUSH1 0x1 DUP2 ADD SLOAD SWAP4 DUP4 ADD SWAP4 SWAP1 SWAP4 MSTORE PUSH1 0x2 DUP4 ADD SLOAD SWAP1 DUP3 ADD MSTORE PUSH1 0x3 SWAP1 SWAP2 ADD SLOAD PUSH1 0xFF AND ISZERO ISZERO PUSH1 0x60 DUP3 ADD MSTORE SWAP1 POP JUMPDEST SWAP3 SWAP2 POP POP JUMP JUMPDEST PUSH1 0x2 PUSH1 0x20 DUP2 SWAP1 MSTORE PUSH1 0x0 SWAP2 DUP3 MSTORE PUSH1 0x40 SWAP1 SWAP2 KECCAK256 DUP1 SLOAD PUSH1 0x1 DUP3 ADD SLOAD SWAP3 DUP3 ADD SLOAD PUSH1 0x3 DUP4 ADD SLOAD PUSH1 0x4 DUP5 ADD SLOAD PUSH1 0x5 DUP6 ADD SLOAD PUSH1 0x6 DUP7 ADD DUP1 SLOAD SWAP6 SWAP8 SWAP7 SWAP5 SWAP6 SWAP4 SWAP5 SWAP3 SWAP4 PUSH1 0xFF SWAP1 SWAP3 AND SWAP3 SWAP2 PUSH2 0x1411 SWAP1 PUSH2 0x1A12 JUMP JUMPDEST DUP1 PUSH1 0x1F ADD PUSH1 0x20 DUP1 SWAP2 DIV MUL PUSH1 0x20 ADD PUSH1 0x40 MLOAD SWAP1 DUP2 ADD PUSH1 0x40 MSTORE DUP1 SWAP3 SWAP2 SWAP1 DUP2 DUP2 MSTORE PUSH1 0x20 ADD DUP3 DUP1 SLOAD PUSH2 0x143D SWAP1 PUSH2 0x1A12 JUMP JUMPDEST DUP1 ISZERO PUSH2 0x148A JUMPI DUP1 PUSH1 0x1F LT PUSH2 0x145F JUMPI PUSH2 0x100 DUP1 DUP4 SLOAD DIV MUL DUP4 MSTORE SWAP2 PUSH1 0x20 ADD SWAP2 PUSH2 0x148A JUMP JUMPDEST DUP3 ADD SWAP2 SWAP1 PUSH1 0x0 MSTORE PUSH1 0x20 PUSH1 0x0 KECCAK256 SWAP1 JUMPDEST DUP2 SLOAD DUP2 MSTORE SWAP1 PUSH1 0x1 ADD SWAP1 PUSH1 0x20 ADD DUP1 DUP4 GT PUSH2 0x146D JUMPI DUP3 SWAP1 SUB PUSH1 0x1F AND DUP3 ADD SWAP2 JUMPDEST POP POP POP POP POP SWAP1 POP DUP8 JUMP JUMPDEST PUSH1 0x0 PUSH2 0x149F DUP3 PUSH2 0xA99 JUMP JUMPDEST PUSH1 0x1 PUSH1 0x1 PUSH1 0xA0 SHL SUB DUP4 AND PUSH1 0x0 DUP2 DUP2 MSTORE PUSH1 0x2 PUSH1 0x20 MSTORE PUSH1 0x40 SWAP1 DUP2 SWAP1 KECCAK256 PUSH1 0x1 ADD DUP4 SWAP1 SSTORE MLOAD SWAP2 SWAP3 POP SWAP1 PUSH32 0xFC577563F1B9A0461E24ABEF1E1FCC0D33D3D881F20B5DF6DDA59DE4AAE2C821 SWAP1 PUSH2 0xD72 SWAP1 DUP5 DUP2 MSTORE PUSH1 0x20 ADD SWAP1 JUMP JUMPDEST PUSH1 0x1 PUSH1 0x1 PUSH1 0xA0 SHL SUB DUP2 AND PUSH1 0x0 SWAP1 DUP2 MSTORE PUSH1 0x2 PUSH1 0x20 MSTORE PUSH1 0x40 DUP2 KECCAK256 SLOAD PUSH2 0x1518 SWAP1 PUSH1 0x64 SWAP1 PUSH2 0x193E JUMP JUMPDEST SWAP1 POP DUP1 ISZERO PUSH2 0x160E JUMPI PUSH1 0x0 SLOAD PUSH1 0x40 MLOAD PUSH4 0xA9059CBB PUSH1 0xE0 SHL DUP2 MSTORE PUSH1 0x1 PUSH1 0x1 PUSH1 0xA0 SHL SUB DUP5 DUP2 AND PUSH1 0x4 DUP4 ADD MSTORE PUSH1 0x24 DUP3 ADD DUP5 SWAP1 MSTORE SWAP1 SWAP2 AND SWAP1 PUSH4 0xA9059CBB SWAP1 PUSH1 0x44 ADD PUSH1 0x20 PUSH1 0x40 MLOAD DUP1 DUP4 SUB DUP2 PUSH1 0x0 DUP8 GAS CALL ISZERO DUP1 ISZERO PUSH2 0x1573 JUMPI RETURNDATASIZE PUSH1 0x0 DUP1 RETURNDATACOPY RETURNDATASIZE PUSH1 0x0 REVERT JUMPDEST POP POP POP POP PUSH1 0x40 MLOAD RETURNDATASIZE PUSH1 0x1F NOT PUSH1 0x1F DUP3 ADD AND DUP3 ADD DUP1 PUSH1 0x40 MSTORE POP DUP2 ADD SWAP1 PUSH2 0x1597 SWAP2 SWAP1 PUSH2 0x197B JUMP JUMPDEST PUSH2 0x15D3 JUMPI PUSH1 0x40 MLOAD PUSH3 0x461BCD PUSH1 0xE5 SHL DUP2 MSTORE PUSH1 0x20 PUSH1 0x4 DUP3 ADD MSTORE PUSH1 0xD PUSH1 0x24 DUP3 ADD MSTORE PUSH13 0x14995DD85C990819985A5B1959 PUSH1 0x9A SHL PUSH1 0x44 DUP3 ADD MSTORE PUSH1 0x64 ADD PUSH2 0x47A JUMP JUMPDEST DUP2 PUSH1 0x1 PUSH1 0x1 PUSH1 0xA0 SHL SUB AND PUSH32 0xE34918FF1C7084970068B53FD71AD6D8B04E9F15D3886CBF006443E6CDC52EA6 DUP3 PUSH1 0x40 MLOAD PUSH2 0xD72 SWAP2 DUP2 MSTORE PUSH1 0x20 ADD SWAP1 JUMP JUMPDEST POP POP JUMP JUMPDEST DUP1 CALLDATALOAD PUSH1 0x1 PUSH1 0x1 PUSH1 0xA0 SHL SUB DUP2 AND DUP2 EQ PUSH2 0x1629 JUMPI PUSH1 0x0 DUP1 REVERT JUMPDEST SWAP2 SWAP1 POP JUMP JUMPDEST PUSH1 0x0 DUP1 DUP4 PUSH1 0x1F DUP5 ADD SLT PUSH2 0x1640 JUMPI PUSH1 0x0 DUP1 REVERT JUMPDEST POP DUP2 CALLDATALOAD PUSH8 0xFFFFFFFFFFFFFFFF DUP2 GT ISZERO PUSH2 0x1658 JUMPI PUSH1 0x0 DUP1 REVERT JUMPDEST PUSH1 0x20 DUP4 ADD SWAP2 POP DUP4 PUSH1 0x20 DUP3 DUP6 ADD ADD GT ISZERO PUSH2 0x1670 JUMPI PUSH1 0x0 DUP1 REVERT JUMPDEST SWAP3 POP SWAP3 SWAP1 POP JUMP JUMPDEST PUSH1 0x0 DUP1 PUSH1 0x0 DUP1 PUSH1 0x60 DUP6 DUP8 SUB SLT ISZERO PUSH2 0x168D JUMPI PUSH1 0x0 DUP1 REVERT JUMPDEST PUSH2 0x1696 DUP6 PUSH2 0x1612 JUMP JUMPDEST SWAP4 POP PUSH1 0x20 DUP6 ADD CALLDATALOAD SWAP3 POP PUSH1 0x40 DUP6 ADD CALLDATALOAD PUSH8 0xFFFFFFFFFFFFFFFF DUP2 GT ISZERO PUSH2 0x16B9 JUMPI PUSH1 0x0 DUP1 REVERT JUMPDEST PUSH2 0x16C5 DUP8 DUP3 DUP9 ADD PUSH2 0x162E JUMP JUMPDEST SWAP6 SWAP9 SWAP5 SWAP8 POP SWAP6 POP POP POP POP JUMP JUMPDEST PUSH1 0x0 PUSH1 0x20 DUP3 DUP5 SUB SLT ISZERO PUSH2 0x16E3 JUMPI PUSH1 0x0 DUP1 REVERT JUMPDEST POP CALLDATALOAD SWAP2 SWAP1 POP JUMP JUMPDEST PUSH1 0x0 PUSH1 0x20 DUP3 DUP5 SUB SLT ISZERO PUSH2 0x16FC JUMPI PUSH1 0x0 DUP1 REVERT JUMPDEST PUSH2 0x1705 DUP3 PUSH2 0x1612 JUMP JUMPDEST SWAP4 SWAP3 POP POP POP JUMP JUMPDEST PUSH1 0x0 DUP1 PUSH1 0x20 DUP4 DUP6 SUB SLT ISZERO PUSH2 0x171F JUMPI PUSH1 0x0 DUP1 REVERT JUMPDEST DUP3 CALLDATALOAD PUSH8 0xFFFFFFFFFFFFFFFF DUP2 GT ISZERO PUSH2 0x1736 JUMPI PUSH1 0x0 DUP1 REVERT JUMPDEST PUSH2 0x1742 DUP6 DUP3 DUP7 ADD PUSH2 0x162E JUMP JUMPDEST SWAP1 SWAP7 SWAP1 SWAP6 POP SWAP4 POP POP POP POP JUMP JUMPDEST PUSH1 0x0 DUP1 PUSH1 0x0 PUSH1 0x60 DUP5 DUP7 SUB SLT ISZERO PUSH2 0x1763 JUMPI PUSH1 0x0 DUP1 REVERT JUMPDEST POP POP DUP2 CALLDATALOAD SWAP4 PUSH1 0x20 DUP4 ADD CALLDATALOAD SWAP4 POP PUSH1 0x40 SWAP1 SWAP3 ADD CALLDATALOAD SWAP2 SWAP1 POP JUMP JUMPDEST PUSH1 0x0 DUP2 MLOAD DUP1 DUP5 MSTORE PUSH1 0x0 JUMPDEST DUP2 DUP2 LT ISZERO PUSH2 0x17A0 JUMPI PUSH1 0x20 DUP2 DUP6 ADD DUP2 ADD MLOAD DUP7 DUP4 ADD DUP3 ADD MSTORE ADD PUSH2 0x1784 JUMP JUMPDEST POP PUSH1 0x0 PUSH1 0x20 DUP3 DUP7 ADD ADD MSTORE PUSH1 0x20 PUSH1 0x1F NOT PUSH1 0x1F DUP4 ADD AND DUP6 ADD ADD SWAP2 POP POP SWAP3 SWAP2 POP POP JUMP JUMPDEST PUSH1 0x20 DUP2 MSTORE DUP2 MLOAD PUSH1 0x20 DUP3 ADD MSTORE PUSH1 0x20 DUP3 ADD MLOAD PUSH1 0x40 DUP3 ADD MSTORE PUSH1 0x40 DUP3 ADD MLOAD PUSH1 0x60 DUP3 ADD MSTORE PUSH1 0x60 DUP3 ADD MLOAD PUSH1 0x80 DUP3 ADD MSTORE PUSH1 0x80 DUP3 ADD MLOAD PUSH1 0xA0 DUP3 ADD MSTORE PUSH1 0xA0 DUP3 ADD MLOAD ISZERO ISZERO PUSH1 0xC0 DUP3 ADD MSTORE PUSH1 0x0 PUSH1 0xC0 DUP4 ADD MLOAD PUSH1 0xE0 DUP1 DUP5 ADD MSTORE PUSH2 0x181A PUSH2 0x100 DUP5 ADD DUP3 PUSH2 0x177A JUMP JUMPDEST SWAP5 SWAP4 POP POP POP POP JUMP JUMPDEST PUSH1 0x0 DUP1 PUSH1 0x40 DUP4 DUP6 SUB SLT ISZERO PUSH2 0x1835 JUMPI PUSH1 0x0 DUP1 REVERT JUMPDEST PUSH2 0x183E DUP4 PUSH2 0x1612 JUMP JUMPDEST SWAP5 PUSH1 0x20 SWAP4 SWAP1 SWAP4 ADD CALLDATALOAD SWAP4 POP POP POP JUMP JUMPDEST DUP8 DUP2 MSTORE DUP7 PUSH1 0x20 DUP3 ADD MSTORE DUP6 PUSH1 0x40 DUP3 ADD MSTORE DUP5 PUSH1 0x60 DUP3 ADD MSTORE DUP4 PUSH1 0x80 DUP3 ADD MSTORE DUP3 ISZERO ISZERO PUSH1 0xA0 DUP3 ADD MSTORE PUSH1 0xE0 PUSH1 0xC0 DUP3 ADD MSTORE PUSH1 0x0 PUSH2 0x1885 PUSH1 0xE0 DUP4 ADD DUP5 PUSH2 0x177A JUMP JUMPDEST SWAP10 SWAP9 POP POP POP POP POP POP POP POP POP JUMP JUMPDEST PUSH1 0x20 DUP1 DUP3 MSTORE PUSH1 0xE SWAP1 DUP3 ADD MSTORE PUSH14 0x139BDD08185D5D1A1BDC9A5E9959 PUSH1 0x92 SHL PUSH1 0x40 DUP3 ADD MSTORE PUSH1 0x60 ADD SWAP1 JUMP JUMPDEST PUSH1 0x20 DUP1 DUP3 MSTORE PUSH1 0xE SWAP1 DUP3 ADD MSTORE PUSH14 0x139BDD081C9959DA5CDD195C9959 PUSH1 0x92 SHL PUSH1 0x40 DUP3 ADD MSTORE PUSH1 0x60 ADD SWAP1 JUMP JUMPDEST PUSH4 0x4E487B71 PUSH1 0xE0 SHL PUSH1 0x0 MSTORE PUSH1 0x11 PUSH1 0x4 MSTORE PUSH1 0x24 PUSH1 0x0 REVERT JUMPDEST PUSH1 0x0 PUSH1 0x1 DUP3 ADD PUSH2 0x190A JUMPI PUSH2 0x190A PUSH2 0x18E2 JUMP JUMPDEST POP PUSH1 0x1 ADD SWAP1 JUMP JUMPDEST DUP1 DUP3 MUL DUP2 ISZERO DUP3 DUP3 DIV DUP5 EQ OR PUSH2 0x13C1 JUMPI PUSH2 0x13C1 PUSH2 0x18E2 JUMP JUMPDEST PUSH4 0x4E487B71 PUSH1 0xE0 SHL PUSH1 0x0 MSTORE PUSH1 0x12 PUSH1 0x4 MSTORE PUSH1 0x24 PUSH1 0x0 REVERT JUMPDEST PUSH1 0x0 DUP3 PUSH2 0x194D JUMPI PUSH2 0x194D PUSH2 0x1928 JUMP JUMPDEST POP DIV SWAP1 JUMP JUMPDEST PUSH4 0x4E487B71 PUSH1 0xE0 SHL PUSH1 0x0 MSTORE PUSH1 0x32 PUSH1 0x4 MSTORE PUSH1 0x24 PUSH1 0x0 REVERT JUMPDEST DUP2 DUP2 SUB DUP2 DUP2 GT ISZERO PUSH2 0x13C1 JUMPI PUSH2 0x13C1 PUSH2 0x18E2 JUMP JUMPDEST PUSH1 0x0 PUSH1 0x20 DUP3 DUP5 SUB SLT ISZERO PUSH2 0x198D JUMPI PUSH1 0x0 DUP1 REVERT JUMPDEST DUP2 MLOAD DUP1 ISZERO ISZERO DUP2 EQ PUSH2 0x1705 JUMPI PUSH1 0x0 DUP1 REVERT JUMPDEST DUP2 DUP4 MSTORE DUP2 DUP2 PUSH1 0x20 DUP6 ADD CALLDATACOPY POP PUSH1 0x0 DUP3 DUP3 ADD PUSH1 0x20 SWAP1 DUP2 ADD SWAP2 SWAP1 SWAP2 MSTORE PUSH1 0x1F SWAP1 SWAP2 ADD PUSH1 0x1F NOT AND SWAP1 SWAP2 ADD ADD SWAP1 JUMP JUMPDEST DUP4 DUP2 MSTORE PUSH1 0x40 PUSH1 0x20 DUP3 ADD MSTORE PUSH1 0x0 PUSH2 0x19E0 PUSH1 0x40 DUP4 ADD DUP5 DUP7 PUSH2 0x199D JUMP JUMPDEST SWAP6 SWAP5 POP POP POP POP POP JUMP JUMPDEST DUP1 DUP3 ADD DUP1 DUP3 GT ISZERO PUSH2 0x13C1 JUMPI PUSH2 0x13C1 PUSH2 0x18E2 JUMP JUMPDEST PUSH4 0x4E487B71 PUSH1 0xE0 SHL PUSH1 0x0 MSTORE PUSH1 0x41 PUSH1 0x4 MSTORE PUSH1 0x24 PUSH1 0x0 REVERT JUMPDEST PUSH1 0x1 DUP2 DUP2 SHR SWAP1 DUP3 AND DUP1 PUSH2 0x1A26 JUMPI PUSH1 0x7F DUP3 AND SWAP2 POP JUMPDEST PUSH1 0x20 DUP3 LT DUP2 SUB PUSH2 0x1A46 JUMPI PUSH4 0x4E487B71 PUSH1 0xE0 SHL PUSH1 0x0 MSTORE PUSH1 0x22 PUSH1 0x4 MSTORE PUSH1 0x24 PUSH1 0x0 REVERT JUMPDEST POP SWAP2 SWAP1 POP JUMP JUMPDEST PUSH1 0x1F DUP3 GT ISZERO PUSH2 0x1A96 JUMPI PUSH1 0x0 DUP2 DUP2 MSTORE PUSH1 0x20 DUP2 KECCAK256 PUSH1 0x1F DUP6 ADD PUSH1 0x5 SHR DUP2 ADD PUSH1 0x20 DUP7 LT ISZERO PUSH2 0x1A73 JUMPI POP DUP1 JUMPDEST PUSH1 0x1F DUP6 ADD PUSH1 0x5 SHR DUP3 ADD SWAP2 POP JUMPDEST DUP2 DUP2 LT ISZERO PUSH2 0x1A92 JUMPI DUP3 DUP2 SSTORE PUSH1 0x1 ADD PUSH2 0x1A7F JUMP JUMPDEST POP POP POP JUMPDEST POP POP POP JUMP JUMPDEST DUP2 MLOAD PUSH8 0xFFFFFFFFFFFFFFFF DUP2 GT ISZERO PUSH2 0x1AB5 JUMPI PUSH2 0x1AB5 PUSH2 0x19FC JUMP JUMPDEST PUSH2 0x1AC9 DUP2 PUSH2 0x1AC3 DUP5 SLOAD PUSH2 0x1A12 JUMP JUMPDEST DUP5 PUSH2 0x1A4C JUMP JUMPDEST PUSH1 0x20 DUP1 PUSH1 0x1F DUP4 GT PUSH1 0x1 DUP2 EQ PUSH2 0x1AFE JUMPI PUSH1 0x0 DUP5 ISZERO PUSH2 0x1AE6 JUMPI POP DUP6 DUP4 ADD MLOAD JUMPDEST PUSH1 0x0 NOT PUSH1 0x3 DUP7 SWAP1 SHL SHR NOT AND PUSH1 0x1 DUP6 SWAP1 SHL OR DUP6 SSTORE PUSH2 0x1A92 JUMP JUMPDEST PUSH1 0x0 DUP6 DUP2 MSTORE PUSH1 0x20 DUP2 KECCAK256 PUSH1 0x1F NOT DUP7 AND SWAP2 JUMPDEST DUP3 DUP2 LT ISZERO PUSH2 0x1B2D JUMPI DUP9 DUP7 ADD MLOAD DUP3 SSTORE SWAP5 DUP5 ADD SWAP5 PUSH1 0x1 SWAP1 SWAP2 ADD SWAP1 DUP5 ADD PUSH2 0x1B0E JUMP JUMPDEST POP DUP6 DUP3 LT ISZERO PUSH2 0x1B4B JUMPI DUP8 DUP6 ADD MLOAD PUSH1 0x0 NOT PUSH1 0x3 DUP9 SWAP1 SHL PUSH1 0xF8 AND SHR NOT AND DUP2 SSTORE JUMPDEST POP POP POP POP POP PUSH1 0x1 SWAP1 DUP2 SHL ADD SWAP1 SSTORE POP JUMP JUMPDEST PUSH1 0x20 DUP2 MSTORE PUSH1 0x0 PUSH2 0x181A PUSH1 0x20 DUP4 ADD DUP5 DUP7 PUSH2 0x199D JUMP JUMPDEST PUSH1 0x0 DUP3 PUSH2 0x1B7E JUMPI PUSH2 0x1B7E PUSH2 0x1928 JUMP JUMPDEST POP MOD SWAP1 JUMP INVALID LOG2 PUSH5 0x6970667358 0x22 SLT KECCAK256 SWAP1 0xD RETURNDATACOPY PUSH10 0x4F7303C765DA599C07A5 PUSH18 0x3B156C2796E8CF4856A1891B19BA8FD2BB64 PUSH20 0x6F6C634300081400330000000000000000000000 "},"methodIdentifiers":{"activityWeight()":"b0c87df2","addSlasher(address)":"68a9f19c","agentStakes(address,uint256)":"b2ab2782","agents(address)":"fd66091e","authorizedSlashers(address)":"aed2d908","calculateReputation(address)":"27c06fd5","feeRecipient()":"46904840","getAgentProfile(address)":"78dc93a4","getStake(address,uint256)":"cfd47663","getStakeCount(address)":"cf57ee69","historyWeight()":"be3ac6a7","isRegistered(address)":"c3c5a547","lockPeriod()":"3fd8b02f","minimumStake()":"ec5ffac2","protocolFeeBps()":"35659fb8","recordBreach(address,uint256,string)":"209ffa18","recordSuccess(address)":"42341287","registerAgent(string)":"2d2a9585","removeSlasher(address)":"aac6aa9c","setParameters(uint256,uint256,uint256)":"34c5d2ce","slashingPercentage()":"69666a49","stake(uint256)":"a694fc3a","stakeToken()":"51ed6a30","stakeWeight()":"267b1167","totalAgents()":"c5053712","totalStaked()":"817b1cd2","withdrawStake(uint256)":"25d5971f"}}}}}