{"contracts/CovenantFactory.sol":{"CovenantFactory":{"abi":[{"inputs":[{"internalType":"address","name":"_feeRecipient","type":"address"}],"stateMutability":"nonpayable","type":"constructor"},{"inputs":[],"name":"CovenantAlreadyExists","type":"error"},{"inputs":[],"name":"InsufficientStake","type":"error"},{"inputs":[],"name":"InvalidAgentAddress","type":"error"},{"inputs":[],"name":"Unauthorized","type":"error"},{"anonymous":false,"inputs":[{"indexed":true,"internalType":"address","name":"covenantAddress","type":"address"},{"indexed":true,"internalType":"address","name":"initiator","type":"address"},{"indexed":true,"internalType":"address","name":"counterparty","type":"address"},{"indexed":false,"internalType":"bytes32","name":"covenantType","type":"bytes32"},{"indexed":false,"internalType":"uint256","name":"stakeAmount","type":"uint256"},{"indexed":false,"internalType":"uint256","name":"timestamp","type":"uint256"}],"name":"CovenantCreated","type":"event"},{"anonymous":false,"inputs":[{"indexed":true,"internalType":"address","name":"oldRecipient","type":"address"},{"indexed":true,"internalType":"address","name":"newRecipient","type":"address"}],"name":"FeeRecipientUpdated","type":"event"},{"anonymous":false,"inputs":[{"indexed":false,"internalType":"uint256","name":"oldStake","type":"uint256"},{"indexed":false,"internalType":"uint256","name":"newStake","type":"uint256"}],"name":"MinimumStakeUpdated","type":"event"},{"anonymous":false,"inputs":[{"indexed":false,"internalType":"uint256","name":"oldFee","type":"uint256"},{"indexed":false,"internalType":"uint256","name":"newFee","type":"uint256"}],"name":"ProtocolFeeUpdated","type":"event"},{"inputs":[{"internalType":"bytes32","name":"","type":"bytes32"}],"name":"agentPairToCovenant","outputs":[{"internalType":"address","name":"","type":"address"}],"stateMutability":"view","type":"function"},{"inputs":[{"internalType":"address","name":"","type":"address"}],"name":"covenantCreationTime","outputs":[{"internalType":"uint256","name":"","type":"uint256"}],"stateMutability":"view","type":"function"},{"inputs":[{"internalType":"address","name":"_agent1","type":"address"},{"internalType":"address","name":"_agent2","type":"address"}],"name":"covenantExists","outputs":[{"internalType":"bool","name":"","type":"bool"}],"stateMutability":"view","type":"function"},{"inputs":[{"internalType":"uint256","name":"","type":"uint256"}],"name":"covenants","outputs":[{"internalType":"address","name":"","type":"address"}],"stateMutability":"view","type":"function"},{"inputs":[{"internalType":"address","name":"_counterparty","type":"address"},{"internalType":"bytes32","name":"_covenantType","type":"bytes32"},{"internalType":"string","name":"_termsIPFSHash","type":"string"},{"internalType":"uint256","name":"_duration","type":"uint256"}],"name":"createCovenant","outputs":[{"internalType":"address","name":"covenantAddress","type":"address"}],"stateMutability":"payable","type":"function"},{"inputs":[],"name":"feeRecipient","outputs":[{"internalType":"address","name":"","type":"address"}],"stateMutability":"view","type":"function"},{"inputs":[],"name":"getCovenantCount","outputs":[{"internalType":"uint256","name":"","type":"uint256"}],"stateMutability":"view","type":"function"},{"inputs":[{"internalType":"uint256","name":"_offset","type":"uint256"},{"internalType":"uint256","name":"_limit","type":"uint256"}],"name":"getCovenants","outputs":[{"internalType":"address[]","name":"","type":"address[]"}],"stateMutability":"view","type":"function"},{"inputs":[],"name":"minimumStake","outputs":[{"internalType":"uint256","name":"","type":"uint256"}],"stateMutability":"view","type":"function"},{"inputs":[],"name":"owner","outputs":[{"internalType":"address","name":"","type":"address"}],"stateMutability":"view","type":"function"},{"inputs":[],"name":"protocolFeeBps","outputs":[{"internalType":"uint256","name":"","type":"uint256"}],"stateMutability":"view","type":"function"},{"inputs":[{"internalType":"address","name":"_newRecipient","type":"address"}],"name":"setFeeRecipient","outputs":[],"stateMutability":"nonpayable","type":"function"},{"inputs":[{"internalType":"uint256","name":"_newMinimum","type":"uint256"}],"name":"setMinimumStake","outputs":[],"stateMutability":"nonpayable","type":"function"},{"inputs":[{"internalType":"uint256","name":"_newFeeBps","type":"uint256"}],"name":"setProtocolFee","outputs":[],"stateMutability":"nonpayable","type":"function"},{"inputs":[{"internalType":"address","name":"_newOwner","type":"address"}],"name":"transferOwnership","outputs":[],"stateMutability":"nonpayable","type":"function"}],"evm":{"bytecode":{"linkReferences":{},"object":"60806040526064600455662386f26fc1000060055534801561002057600080fd5b506040516134a93803806134a983398101604081905261003f91610099565b6001600160a01b03811661006657604051635697b36760e01b815260040160405180910390fd5b60068054336001600160a01b031991821617909155600380549091166001600160a01b03929092169190911790556100c9565b6000602082840312156100ab57600080fd5b81516001600160a01b03811681146100c257600080fd5b9392505050565b6133d1806100d86000396000f3fe608060405260043610620000fb5760003560e01c80638da5cb5b1162000095578063e74b981b1162000060578063e74b981b14620002e5578063ea50eb03146200030a578063ec5ffac21462000321578063f2fde38b146200033957600080fd5b80638da5cb5b146200024757806392d5388e1462000269578063d565d1691462000280578063d9516baa14620002b157600080fd5b80633ba8585911620000d65780633ba8585914620001905780634690484014620001c65780635d7a9d0714620001e8578063787dce3d146200022257600080fd5b8063233e9903146200010057806328f4ca31146200012757806335659fb81462000169575b600080fd5b3480156200010d57600080fd5b50620001256200011f36600462000ab0565b6200035e565b005b3480156200013457600080fd5b506200014c6200014636600462000ab0565b620003ca565b6040516001600160a01b0390911681526020015b60405180910390f35b3480156200017657600080fd5b506200018160045481565b60405190815260200162000160565b3480156200019d57600080fd5b50620001b5620001af36600462000ae7565b620003f5565b604051901515815260200162000160565b348015620001d357600080fd5b506003546200014c906001600160a01b031681565b348015620001f557600080fd5b506200014c6200020736600462000ab0565b6002602052600090815260409020546001600160a01b031681565b3480156200022f57600080fd5b50620001256200024136600462000ab0565b620004a2565b3480156200025457600080fd5b506006546200014c906001600160a01b031681565b6200014c6200027a36600462000b1f565b62000555565b3480156200028d57600080fd5b50620001816200029f36600462000bb5565b60016020526000908152604090205481565b348015620002be57600080fd5b50620002d6620002d036600462000bda565b620008c9565b60405162000160919062000bfd565b348015620002f257600080fd5b50620001256200030436600462000bb5565b620009ce565b3480156200031757600080fd5b5060005462000181565b3480156200032e57600080fd5b506200018160055481565b3480156200034657600080fd5b50620001256200035836600462000bb5565b62000a55565b6006546001600160a01b0316331462000389576040516282b42960e81b815260040160405180910390fd5b60055460408051918252602082018390527fd67ed534faf3e0dcda08ac6043ec96dcf9b6ebec56055fd14bd0cb40a27c0e49910160405180910390a1600555565b60008181548110620003db57600080fd5b6000918252602090912001546001600160a01b0316905081565b600080826001600160a01b0316846001600160a01b0316106200041957826200041b565b835b836001600160a01b0316856001600160a01b0316106200043c57846200043e565b835b6040516bffffffffffffffffffffffff19606093841b811660208301529190921b16603482015260480160408051601f198184030181529181528151602092830120600090815260029092529020546001600160a01b031615159150505b92915050565b6006546001600160a01b03163314620004cd576040516282b42960e81b815260040160405180910390fd5b6103e8811115620005145760405162461bcd60e51b815260206004820152600c60248201526b08ccaca40e8dede40d0d2ced60a31b60448201526064015b60405180910390fd5b60045460408051918252602082018390527fb404cac19fb1cbeff98d325795b08886e3cd8fe8cb1a2f193aac66f13fb239c3910160405180910390a1600455565b60006001600160a01b03861615806200057657506001600160a01b03861633145b156200059557604051635697b36760e01b815260040160405180910390fd5b600554341015620005b9576040516378de4a6960e11b815260040160405180910390fd5b60006001600160a01b0387163310620005d35786620005d5565b335b6001600160a01b0388163310620005ed5733620005ef565b875b6040516bffffffffffffffffffffffff19606093841b811660208301529190921b16603482015260480160408051601f198184030181529181528151602092830120600081815260029093529120549091506001600160a01b03161562000669576040516303f9bd7560e11b815260040160405180910390fd5b6000612710600454346200067e919062000c62565b6200068a919062000c7c565b905060006200069a823462000c9f565b6003546040519192506000916001600160a01b039091169084908381818185875af1925050503d8060008114620006ee576040519150601f19603f3d011682016040523d82523d6000602084013e620006f3565b606091505b50509050806200073c5760405162461bcd60e51b8152602060048201526013602482015272119959481d1c985b9cd9995c8819985a5b1959606a1b60448201526064016200050b565b600082338c8c8c8c8c89600360009054906101000a90046001600160a01b03166004546040516200076d9062000aa2565b620007819998979695949392919062000cb5565b6040518091039082f09050801580156200079f573d6000803e3d6000fd5b5090508095506000869080600181540180825580915050600190039060005260206000200160009091909190916101000a8154816001600160a01b0302191690836001600160a01b031602179055504260016000886001600160a01b03166001600160a01b0316815260200190815260200160002081905550856002600087815260200190815260200160002060006101000a8154816001600160a01b0302191690836001600160a01b031602179055508a6001600160a01b0316336001600160a01b0316876001600160a01b03167f3eb472a527e15c935ab5f5304eb8a07041c95959ead93c387cfff282331ca09d8d8742604051620008b3939291909283526020830191909152604082015260600190565b60405180910390a4505050505095945050505050565b60606000620008d9838562000d2a565b600054909150811115620008ec57506000545b6000620008fa858362000c9f565b67ffffffffffffffff81111562000915576200091562000d40565b6040519080825280602002602001820160405280156200093f578160200160208202803683370190505b509050845b82811015620009c5576000818154811062000963576200096362000d56565b6000918252602090912001546001600160a01b03168262000985888462000c9f565b8151811062000998576200099862000d56565b6001600160a01b039092166020928302919091019091015280620009bc8162000d6c565b91505062000944565b50949350505050565b6006546001600160a01b03163314620009f9576040516282b42960e81b815260040160405180910390fd5b6003546040516001600160a01b038084169216907faaebcf1bfa00580e41d966056b48521fa9f202645c86d4ddf28113e617c1b1d390600090a3600380546001600160a01b0319166001600160a01b0392909216919091179055565b6006546001600160a01b0316331462000a80576040516282b42960e81b815260040160405180910390fd5b600680546001600160a01b0319166001600160a01b0392909216919091179055565b6126138062000d8983390190565b60006020828403121562000ac357600080fd5b5035919050565b80356001600160a01b038116811462000ae257600080fd5b919050565b6000806040838503121562000afb57600080fd5b62000b068362000aca565b915062000b166020840162000aca565b90509250929050565b60008060008060006080868803121562000b3857600080fd5b62000b438662000aca565b945060208601359350604086013567ffffffffffffffff8082111562000b6857600080fd5b818801915088601f83011262000b7d57600080fd5b81358181111562000b8d57600080fd5b89602082850101111562000ba057600080fd5b96999598505060200195606001359392505050565b60006020828403121562000bc857600080fd5b62000bd38262000aca565b9392505050565b6000806040838503121562000bee57600080fd5b50508035926020909101359150565b6020808252825182820181905260009190848201906040850190845b8181101562000c405783516001600160a01b03168352928401929184019160010162000c19565b50909695505050505050565b634e487b7160e01b600052601160045260246000fd5b80820281158282048414176200049c576200049c62000c4c565b60008262000c9a57634e487b7160e01b600052601260045260246000fd5b500490565b818103818111156200049c576200049c62000c4c565b6001600160a01b038a8116825289811660208301526040820189905261010060608301819052820187905260009061012090888a838601376000848a01830152608084019790975260a0830195909552509190931660c082015260e0810192909252601f909201601f19160101949350505050565b808201808211156200049c576200049c62000c4c565b634e487b7160e01b600052604160045260246000fd5b634e487b7160e01b600052603260045260246000fd5b60006001820162000d815762000d8162000c4c565b506001019056fe60c0604052604051620026133803806200261383398101604081905262000026916200013f565b6001600160a01b0388811660805287811660a0908152600980546001600160a01b03191692851692909217909155600a82905534600855604080519182018152878252602082018790524290820181905260608201906200008990879062000273565b815260209081018590528151600090815590820151600190620000ad90826200032a565b506040828101516002830155606083015160038301556080909201516004909101556005805460ff199081169091556001600160a01b03999099166000908152600b60205220805490981660011790975550620003f695505050505050565b80516001600160a01b03811681146200012457600080fd5b919050565b634e487b7160e01b600052604160045260246000fd5b600080600080600080600080610100898b0312156200015d57600080fd5b62000168896200010c565b9750602062000179818b016200010c565b60408b015160608c015191995097506001600160401b03808211156200019e57600080fd5b818c0191508c601f830112620001b357600080fd5b815181811115620001c857620001c862000129565b604051601f8201601f19908116603f01168101908382118183101715620001f357620001f362000129565b816040528281528f868487010111156200020c57600080fd5b600093505b8284101562000230578484018601518185018701529285019262000211565b6000868483010152809a505050505050506080890151935060a089015192506200025d60c08a016200010c565b915060e089015190509295985092959890939650565b808201808211156200029557634e487b7160e01b600052601160045260246000fd5b92915050565b600181811c90821680620002b057607f821691505b602082108103620002d157634e487b7160e01b600052602260045260246000fd5b50919050565b601f8211156200032557600081815260208120601f850160051c81016020861015620003005750805b601f850160051c820191505b8181101562000321578281556001016200030c565b5050505b505050565b81516001600160401b0381111562000346576200034662000129565b6200035e816200035784546200029b565b84620002d7565b602080601f8311600181146200039657600084156200037d5750858301515b600019600386901b1c1916600185901b17855562000321565b600085815260208120601f198616915b82811015620003c757888601518255948401946001909101908401620003a6565b5085821015620003e65787850151600019600388901b60f8161c191681555b5050505050600190811b01905550565b60805160a0516121876200048c6000396000818161044e0152818161095001528181610ac301528181610c8f01528181610d800152818161118601526115380152600081816102dc015281816106dd01528181610a9101528181610e2d015281816111540152818161128a0152818161145f0152818161160d0152818161189a015281816119d90152611a7e01526121876000f3fe6080604052600436106101855760003560e01c806384b62c28116100d1578063d24126d91161008a578063e3cfef6011610064578063e3cfef60146104c2578063e89e4ed6146104d7578063ee38db9514610508578063f5a3f4af1461051d57600080fd5b8063d24126d914610470578063d502562514610486578063da25de3c146104ac57600080fd5b806384b62c28146103a7578063852ea203146103c75780638f4cf247146103e7578063a8d52f7a146103fc578063bdc84ac31461041c578063c3df65461461043c57600080fd5b80634a4d41eb1161013e57806369db0a7e1161011857806369db0a7e1461032e578063725a3b4b146103505780637bf6c104146103705780637d0d50dc1461039257600080fd5b80634a4d41eb146102b45780635c39fcc1146102ca57806369b4d6fe146102fe57600080fd5b8063200d2ed2146101a957806322f3e2d4146101d95780632442e1cb146101fe57806335659fb81461022b5780633670a7bd1461024f578063469048401461027c57600080fd5b366101a457346008600082825461019c9190611b53565b925050819055005b600080fd5b3480156101b557600080fd5b506005546101c39060ff1681565b6040516101d09190611b82565b60405180910390f35b3480156101e557600080fd5b506101ee61053d565b60405190151581526020016101d0565b34801561020a57600080fd5b5061021e610219366004611baa565b61055e565b6040516101d09190611c09565b34801561023757600080fd5b50610241600a5481565b6040519081526020016101d0565b34801561025b57600080fd5b5061024161026a366004611c5d565b600c6020526000908152604090205481565b34801561028857600080fd5b5060095461029c906001600160a01b031681565b6040516001600160a01b0390911681526020016101d0565b3480156102c057600080fd5b5061024160075481565b3480156102d657600080fd5b5061029c7f000000000000000000000000000000000000000000000000000000000000000081565b34801561030a57600080fd5b506101ee610319366004611c5d565b600b6020526000908152604090205460ff1681565b34801561033a57600080fd5b5061034e610349366004611baa565b6106d2565b005b34801561035c57600080fd5b5061034e61036b366004611cd6565b610a86565b34801561037c57600080fd5b50610385610bf6565b6040516101d09190611d18565b34801561039e57600080fd5b5061034e610c84565b3480156103b357600080fd5b5061034e6103c2366004611d2b565b610e22565b3480156103d357600080fd5b5061034e6103e2366004611baa565b611017565b3480156103f357600080fd5b50600654610241565b34801561040857600080fd5b5061034e610417366004611cd6565b611149565b34801561042857600080fd5b5061034e610437366004611d77565b611369565b34801561044857600080fd5b5061029c7f000000000000000000000000000000000000000000000000000000000000000081565b34801561047c57600080fd5b50610241600f5481565b34801561049257600080fd5b5061049b6116e9565b6040516101d0959493929190611d99565b3480156104b857600080fd5b5061024160085481565b3480156104ce57600080fd5b50610241611792565b3480156104e357600080fd5b506104f76104f2366004611baa565b6117b7565b6040516101d0959493929190611dcf565b34801561051457600080fd5b5061034e61188f565b34801561052957600080fd5b50600d5461029c906001600160a01b031681565b6000600160055460ff16600681111561055857610558611b6c565b14905090565b6105946040518060a001604052806060815260200160008152602001600015158152602001600015158152602001600081525090565b60065482106105da5760405162461bcd60e51b815260206004820152600d60248201526c092dcecc2d8d2c840d2dcc8caf609b1b60448201526064015b60405180910390fd5b600682815481106105ed576105ed611e06565b90600052602060002090600402016040518060a001604052908160008201805461061690611e1c565b80601f016020809104026020016040519081016040528092919081815260200182805461064290611e1c565b801561068f5780601f106106645761010080835404028352916020019161068f565b820191906000526020600020905b81548152906001019060200180831161067257829003601f168201915b505050918352505060018201546020820152600282015460ff80821615156040840152610100909104161515606082015260039091015460809091015292915050565b336001600160a01b037f0000000000000000000000000000000000000000000000000000000000000000161461071a5760405162461bcd60e51b81526004016105d190611e56565b600160055460ff16600681111561073357610733611b6c565b146107505760405162461bcd60e51b81526004016105d190611e7d565b60065481106107955760405162461bcd60e51b8152602060048201526011602482015270496e76616c6964206d696c6573746f6e6560781b60448201526064016105d1565b6000600682815481106107aa576107aa611e06565b60009182526020909120600490910201600281015490915060ff166108015760405162461bcd60e51b815260206004820152600d60248201526c139bdd0818dbdb5c1b195d1959609a1b60448201526064016105d1565b6002810154610100900460ff161561084a5760405162461bcd60e51b815260206004820152600c60248201526b105b1c9958591e481c185a5960a21b60448201526064016105d1565b60028101805461ff001916610100179055600181015460088054600090610872908490611ea1565b925050819055506000612710600a5483600101546108909190611eb4565b61089a9190611ecb565b905060008183600101546108ae9190611ea1565b6009546040519192506000916001600160a01b039091169084908381818185875af1925050503d8060008114610900576040519150601f19603f3d011682016040523d82523d6000602084013e610905565b606091505b505090508061094c5760405162461bcd60e51b8152602060048201526013602482015272119959481d1c985b9cd9995c8819985a5b1959606a1b60448201526064016105d1565b60007f00000000000000000000000000000000000000000000000000000000000000006001600160a01b03168360405160006040518083038185875af1925050503d80600081146109b9576040519150601f19603f3d011682016040523d82523d6000602084013e6109be565b606091505b5050905080610a005760405162461bcd60e51b815260206004820152600e60248201526d14185e5b595b9d0819985a5b195960921b60448201526064016105d1565b857f3af368126e502abc57fe61217a2e2ffc37e0753a9bc218ab9976a49a996e444984604051610a3291815260200190565b60405180910390a2610a42611ad7565b15610a7e576005805460ff191660021790556040517fbf1804db3af6b11f9d3cadcf0c65df2bad3a56d93c275062fdc655bedf351f7790600090a15b505050505050565b336001600160a01b037f0000000000000000000000000000000000000000000000000000000000000000161480610ae55750336001600160a01b037f000000000000000000000000000000000000000000000000000000000000000016145b610b1f5760405162461bcd60e51b815260206004820152600b60248201526a4e6f74206120706172747960a81b60448201526064016105d1565b600160055460ff166006811115610b3857610b38611b6c565b1480610b5a5750600060055460ff166006811115610b5857610b58611b6c565b145b610b975760405162461bcd60e51b815260206004820152600e60248201526d43616e6e6f74206469737075746560901b60448201526064016105d1565b6005805460ff19166003179055600e610bb1828483611f4e565b5042600f5560405133907f28b099eb575e23e32becd7c30dc8f9b2f98e370cdbf9841ea3338d9000402a2590610bea9085908590612038565b60405180910390a25050565b600e8054610c0390611e1c565b80601f0160208091040260200160405190810160405280929190818152602001828054610c2f90611e1c565b8015610c7c5780601f10610c5157610100808354040283529160200191610c7c565b820191906000526020600020905b815481529060010190602001808311610c5f57829003601f168201915b505050505081565b336001600160a01b037f00000000000000000000000000000000000000000000000000000000000000001614610cef5760405162461bcd60e51b815260206004820152601060248201526f4e6f7420636f756e746572706172747960801b60448201526064016105d1565b600060055460ff166006811115610d0857610d08611b6c565b14610d435760405162461bcd60e51b815260206004820152600b60248201526a4e6f742070656e64696e6760a81b60448201526064016105d1565b6003544210610d7e5760405162461bcd60e51b8152602060048201526007602482015266115e1c1a5c995960ca1b60448201526064016105d1565b7f00000000000000000000000000000000000000000000000000000000000000006001600160a01b03166000818152600b60205260408082208054600160ff199182168117909255600580549091169091179055517f9f4a87e77dbaf5b55d5e6f62125b58988c5befb44fb876196dd62ffca1362f219190a26040517f47c82a599a82344a17a0b9fefda032175048e76d1d1bdf41e8bc686480ff204c90600090a1565b336001600160a01b037f00000000000000000000000000000000000000000000000000000000000000001614610e6a5760405162461bcd60e51b81526004016105d190611e56565b600160055460ff166006811115610e8357610e83611b6c565b14610ea05760405162461bcd60e51b81526004016105d190611e7d565b600854811115610ee95760405162461bcd60e51b8152602060048201526014602482015273496e73756666696369656e742062616c616e636560601b60448201526064016105d1565b6040805160c06020601f8601819004028201810190925260a08101848152600692829190879087908190850183828082843760009201829052509385525050506020808301869052604083018290526060830182905260809092018190528354600181018555938152208151919260040201908190610f689082612054565b50602082015160018201556040820151600282018054606085015115156101000261ff00199315159390931661ffff199091161791909117905560809091015160039091015560078054829190600090610fc3908490611b53565b9091555050600654610fd790600190611ea1565b7fbf293db00f4de65b181a066ecc2f8bb81fb7174b517fd8085700e259ad00db1b84848460405161100a93929190612114565b60405180910390a2505050565b600160055460ff16600681111561103057611030611b6c565b1461104d5760405162461bcd60e51b81526004016105d190611e7d565b60065481106110925760405162461bcd60e51b8152602060048201526011602482015270496e76616c6964206d696c6573746f6e6560781b60448201526064016105d1565b6000600682815481106110a7576110a7611e06565b60009182526020909120600490910201600281015490915060ff16156111035760405162461bcd60e51b8152602060048201526011602482015270105b1c9958591e4818dbdb5c1b195d1959607a1b60448201526064016105d1565b60028101805460ff19166001179055426003820155604051339083907f032f77b843a5cc848407ffb1e918c51fd6982fbfd1adf0b60f45c6d7bb54068a90600090a35050565b336001600160a01b037f00000000000000000000000000000000000000000000000000000000000000001614806111a85750336001600160a01b037f000000000000000000000000000000000000000000000000000000000000000016145b6111e25760405162461bcd60e51b815260206004820152600b60248201526a4e6f74206120706172747960a81b60448201526064016105d1565b600160055460ff1660068111156111fb576111fb611b6c565b146112185760405162461bcd60e51b81526004016105d190611e7d565b600354421161125b5760405162461bcd60e51b815260206004820152600f60248201526e139bdd08195e1c1a5c9959081e595d608a1b60448201526064016105d1565b6005805460ff191660061790556008541561132e57600880546000918290556040519091906001600160a01b037f0000000000000000000000000000000000000000000000000000000000000000169083908381818185875af1925050503d80600081146112e5576040519150601f19603f3d011682016040523d82523d6000602084013e6112ea565b606091505b505090508061132b5760405162461bcd60e51b815260206004820152600d60248201526c1499599d5b990819985a5b1959609a1b60448201526064016105d1565b50505b336001600160a01b03167f76b5660c2bd01bae8e3db371287bd828ee6a8a490398f7ac405273035e6379738383604051610bea929190612038565b600360055460ff16600681111561138257611382611b6c565b146113be5760405162461bcd60e51b815260206004820152600c60248201526b139bdd08191a5cdc1d5d195960a21b60448201526064016105d1565b6008546113cb8284611b53565b11156114115760405162461bcd60e51b8152602060048201526015602482015274417761726473206578636565642062616c616e636560581b60448201526064016105d1565b6005805460ff19166004179055600d8054336001600160a01b0319909116179055811561150b57816008600082825461144a9190611ea1565b90915550506040516000906001600160a01b037f0000000000000000000000000000000000000000000000000000000000000000169084908381818185875af1925050503d80600081146114ba576040519150601f19603f3d011682016040523d82523d6000602084013e6114bf565b606091505b50509050806115095760405162461bcd60e51b8152602060048201526016602482015275125b9a5d1a585d1bdc88185dd85c990819985a5b195960521b60448201526064016105d1565b505b80156115eb5780600860008282546115239190611ea1565b90915550506040516000906001600160a01b037f0000000000000000000000000000000000000000000000000000000000000000169083908381818185875af1925050503d8060008114611593576040519150601f19603f3d011682016040523d82523d6000602084013e611598565b606091505b50509050806115e95760405162461bcd60e51b815260206004820152601960248201527f436f756e7465727061727479206177617264206661696c65640000000000000060448201526064016105d1565b505b600854156116b157600880546000918290556040519091906001600160a01b037f0000000000000000000000000000000000000000000000000000000000000000169083908381818185875af1925050503d8060008114611668576040519150601f19603f3d011682016040523d82523d6000602084013e61166d565b606091505b50509050806116ae5760405162461bcd60e51b815260206004820152600d60248201526c1499599d5b990819985a5b1959609a1b60448201526064016105d1565b50505b604080518381526020810183905233917fd45d961e06565b8dd3d1da8aa5d6bdf1ea1253ebf46c31573e5acd0125f243269101610bea565b60008054600180549192916116fd90611e1c565b80601f016020809104026020016040519081016040528092919081815260200182805461172990611e1c565b80156117765780601f1061174b57610100808354040283529160200191611776565b820191906000526020600020905b81548152906001019060200180831161175957829003601f168201915b5050505050908060020154908060030154908060040154905085565b60035460009042106117a45750600090565b6003546117b2904290611ea1565b905090565b600681815481106117c757600080fd5b90600052602060002090600402016000915090508060000180546117ea90611e1c565b80601f016020809104026020016040519081016040528092919081815260200182805461181690611e1c565b80156118635780601f1061183857610100808354040283529160200191611863565b820191906000526020600020905b81548152906001019060200180831161184657829003601f168201915b505050600184015460028501546003909501549394909360ff8083169450610100909204909116915085565b336001600160a01b037f000000000000000000000000000000000000000000000000000000000000000016146118d75760405162461bcd60e51b81526004016105d190611e56565b6005805460ff1660068111156118ef576118ef611b6c565b14806119115750600660055460ff16600681111561190f5761190f611b6c565b145b806119325750600260055460ff16600681111561193057611930611b6c565b145b8061193e575060035442115b6119805760405162461bcd60e51b815260206004820152601360248201527210d85b9b9bdd081dda5d1a191c985dc81e595d606a1b60448201526064016105d1565b6000600854116119bf5760405162461bcd60e51b815260206004820152600a6024820152694e6f2062616c616e636560b01b60448201526064016105d1565b600880546000918290556040519091906001600160a01b037f0000000000000000000000000000000000000000000000000000000000000000169083908381818185875af1925050503d8060008114611a34576040519150601f19603f3d011682016040523d82523d6000602084013e611a39565b606091505b5050905080611a7c5760405162461bcd60e51b815260206004820152600f60248201526e15da5d1a191c985dc819985a5b1959608a1b60448201526064016105d1565b7f00000000000000000000000000000000000000000000000000000000000000006001600160a01b03167feaff4b37086828766ad3268786972c0cd24259d4c87a80f9d3963a3c3d999b0d83604051610bea91815260200190565b6000805b600654811015611b355760068181548110611af857611af8611e06565b906000526020600020906004020160020160019054906101000a900460ff16611b2357600091505090565b80611b2d81612138565b915050611adb565b506001905090565b634e487b7160e01b600052601160045260246000fd5b80820180821115611b6657611b66611b3d565b92915050565b634e487b7160e01b600052602160045260246000fd5b6020810160078310611ba457634e487b7160e01b600052602160045260246000fd5b91905290565b600060208284031215611bbc57600080fd5b5035919050565b6000815180845260005b81811015611be957602081850181015186830182015201611bcd565b506000602082860101526020601f19601f83011685010191505092915050565b602081526000825160a06020840152611c2560c0840182611bc3565b905060208401516040840152604084015115156060840152606084015115156080840152608084015160a08401528091505092915050565b600060208284031215611c6f57600080fd5b81356001600160a01b0381168114611c8657600080fd5b9392505050565b60008083601f840112611c9f57600080fd5b50813567ffffffffffffffff811115611cb757600080fd5b602083019150836020828501011115611ccf57600080fd5b9250929050565b60008060208385031215611ce957600080fd5b823567ffffffffffffffff811115611d0057600080fd5b611d0c85828601611c8d565b90969095509350505050565b602081526000611c866020830184611bc3565b600080600060408486031215611d4057600080fd5b833567ffffffffffffffff811115611d5757600080fd5b611d6386828701611c8d565b909790965060209590950135949350505050565b60008060408385031215611d8a57600080fd5b50508035926020909101359150565b85815260a060208201526000611db260a0830187611bc3565b604083019590955250606081019290925260809091015292915050565b60a081526000611de260a0830188611bc3565b60208301969096525092151560408401529015156060830152608090910152919050565b634e487b7160e01b600052603260045260246000fd5b600181811c90821680611e3057607f821691505b602082108103611e5057634e487b7160e01b600052602260045260246000fd5b50919050565b6020808252600d908201526c2737ba1034b734ba34b0ba37b960991b604082015260600190565b6020808252600a90820152694e6f742061637469766560b01b604082015260600190565b81810381811115611b6657611b66611b3d565b8082028115828204841417611b6657611b66611b3d565b600082611ee857634e487b7160e01b600052601260045260246000fd5b500490565b634e487b7160e01b600052604160045260246000fd5b601f821115611f4957600081815260208120601f850160051c81016020861015611f2a5750805b601f850160051c820191505b81811015610a7e57828155600101611f36565b505050565b67ffffffffffffffff831115611f6657611f66611eed565b611f7a83611f748354611e1c565b83611f03565b6000601f841160018114611fae5760008515611f965750838201355b600019600387901b1c1916600186901b178355612008565b600083815260209020601f19861690835b82811015611fdf5786850135825560209485019460019092019101611fbf565b5086821015611ffc5760001960f88860031b161c19848701351681555b505060018560011b0183555b5050505050565b81835281816020850137506000828201602090810191909152601f909101601f19169091010190565b60208152600061204c60208301848661200f565b949350505050565b815167ffffffffffffffff81111561206e5761206e611eed565b6120828161207c8454611e1c565b84611f03565b602080601f8311600181146120b7576000841561209f5750858301515b600019600386901b1c1916600185901b178555610a7e565b600085815260208120601f198616915b828110156120e6578886015182559484019460019091019084016120c7565b50858210156121045787850151600019600388901b60f8161c191681555b5050505050600190811b01905550565b60408152600061212860408301858761200f565b9050826020830152949350505050565b60006001820161214a5761214a611b3d565b506001019056fea2646970667358221220dacab52b3469b8135e5e3583c49cf7cc4e604b02a01ddccb211456e5a758d24b64736f6c63430008140033a26469706673582212202ff141e6aff20ec9661502f201a3697049faa8c4b61449bb1fc141440e7f38ae64736f6c63430008140033","opcodes":"PUSH1 0x80 PUSH1 0x40 MSTORE PUSH1 0x64 PUSH1 0x4 SSTORE PUSH7 0x2386F26FC10000 PUSH1 0x5 SSTORE CALLVALUE DUP1 ISZERO PUSH2 0x20 JUMPI PUSH1 0x0 DUP1 REVERT JUMPDEST POP PUSH1 0x40 MLOAD PUSH2 0x34A9 CODESIZE SUB DUP1 PUSH2 0x34A9 DUP4 CODECOPY DUP2 ADD PUSH1 0x40 DUP2 SWAP1 MSTORE PUSH2 0x3F SWAP2 PUSH2 0x99 JUMP JUMPDEST PUSH1 0x1 PUSH1 0x1 PUSH1 0xA0 SHL SUB DUP2 AND PUSH2 0x66 JUMPI PUSH1 0x40 MLOAD PUSH4 0x5697B367 PUSH1 0xE0 SHL DUP2 MSTORE PUSH1 0x4 ADD PUSH1 0x40 MLOAD DUP1 SWAP2 SUB SWAP1 REVERT JUMPDEST PUSH1 0x6 DUP1 SLOAD CALLER PUSH1 0x1 PUSH1 0x1 PUSH1 0xA0 SHL SUB NOT SWAP2 DUP3 AND OR SWAP1 SWAP2 SSTORE PUSH1 0x3 DUP1 SLOAD SWAP1 SWAP2 AND PUSH1 0x1 PUSH1 0x1 PUSH1 0xA0 SHL SUB SWAP3 SWAP1 SWAP3 AND SWAP2 SWAP1 SWAP2 OR SWAP1 SSTORE PUSH2 0xC9 JUMP JUMPDEST PUSH1 0x0 PUSH1 0x20 DUP3 DUP5 SUB SLT ISZERO PUSH2 0xAB JUMPI PUSH1 0x0 DUP1 REVERT JUMPDEST DUP2 MLOAD PUSH1 0x1 PUSH1 0x1 PUSH1 0xA0 SHL SUB DUP2 AND DUP2 EQ PUSH2 0xC2 JUMPI PUSH1 0x0 DUP1 REVERT JUMPDEST SWAP4 SWAP3 POP POP POP JUMP JUMPDEST PUSH2 0x33D1 DUP1 PUSH2 0xD8 PUSH1 0x0 CODECOPY PUSH1 0x0 RETURN INVALID PUSH1 0x80 PUSH1 0x40 MSTORE PUSH1 0x4 CALLDATASIZE LT PUSH3 0xFB JUMPI PUSH1 0x0 CALLDATALOAD PUSH1 0xE0 SHR DUP1 PUSH4 0x8DA5CB5B GT PUSH3 0x95 JUMPI DUP1 PUSH4 0xE74B981B GT PUSH3 0x60 JUMPI DUP1 PUSH4 0xE74B981B EQ PUSH3 0x2E5 JUMPI DUP1 PUSH4 0xEA50EB03 EQ PUSH3 0x30A JUMPI DUP1 PUSH4 0xEC5FFAC2 EQ PUSH3 0x321 JUMPI DUP1 PUSH4 0xF2FDE38B EQ PUSH3 0x339 JUMPI PUSH1 0x0 DUP1 REVERT JUMPDEST DUP1 PUSH4 0x8DA5CB5B EQ PUSH3 0x247 JUMPI DUP1 PUSH4 0x92D5388E EQ PUSH3 0x269 JUMPI DUP1 PUSH4 0xD565D169 EQ PUSH3 0x280 JUMPI DUP1 PUSH4 0xD9516BAA EQ PUSH3 0x2B1 JUMPI PUSH1 0x0 DUP1 REVERT JUMPDEST DUP1 PUSH4 0x3BA85859 GT PUSH3 0xD6 JUMPI DUP1 PUSH4 0x3BA85859 EQ PUSH3 0x190 JUMPI DUP1 PUSH4 0x46904840 EQ PUSH3 0x1C6 JUMPI DUP1 PUSH4 0x5D7A9D07 EQ PUSH3 0x1E8 JUMPI DUP1 PUSH4 0x787DCE3D EQ PUSH3 0x222 JUMPI PUSH1 0x0 DUP1 REVERT JUMPDEST DUP1 PUSH4 0x233E9903 EQ PUSH3 0x100 JUMPI DUP1 PUSH4 0x28F4CA31 EQ PUSH3 0x127 JUMPI DUP1 PUSH4 0x35659FB8 EQ PUSH3 0x169 JUMPI JUMPDEST PUSH1 0x0 DUP1 REVERT JUMPDEST CALLVALUE DUP1 ISZERO PUSH3 0x10D JUMPI PUSH1 0x0 DUP1 REVERT JUMPDEST POP PUSH3 0x125 PUSH3 0x11F CALLDATASIZE PUSH1 0x4 PUSH3 0xAB0 JUMP JUMPDEST PUSH3 0x35E JUMP JUMPDEST STOP JUMPDEST CALLVALUE DUP1 ISZERO PUSH3 0x134 JUMPI PUSH1 0x0 DUP1 REVERT JUMPDEST POP PUSH3 0x14C PUSH3 0x146 CALLDATASIZE PUSH1 0x4 PUSH3 0xAB0 JUMP JUMPDEST PUSH3 0x3CA JUMP JUMPDEST PUSH1 0x40 MLOAD PUSH1 0x1 PUSH1 0x1 PUSH1 0xA0 SHL SUB SWAP1 SWAP2 AND DUP2 MSTORE PUSH1 0x20 ADD JUMPDEST PUSH1 0x40 MLOAD DUP1 SWAP2 SUB SWAP1 RETURN JUMPDEST CALLVALUE DUP1 ISZERO PUSH3 0x176 JUMPI PUSH1 0x0 DUP1 REVERT JUMPDEST POP PUSH3 0x181 PUSH1 0x4 SLOAD DUP2 JUMP JUMPDEST PUSH1 0x40 MLOAD SWAP1 DUP2 MSTORE PUSH1 0x20 ADD PUSH3 0x160 JUMP JUMPDEST CALLVALUE DUP1 ISZERO PUSH3 0x19D JUMPI PUSH1 0x0 DUP1 REVERT JUMPDEST POP PUSH3 0x1B5 PUSH3 0x1AF CALLDATASIZE PUSH1 0x4 PUSH3 0xAE7 JUMP JUMPDEST PUSH3 0x3F5 JUMP JUMPDEST PUSH1 0x40 MLOAD SWAP1 ISZERO ISZERO DUP2 MSTORE PUSH1 0x20 ADD PUSH3 0x160 JUMP JUMPDEST CALLVALUE DUP1 ISZERO PUSH3 0x1D3 JUMPI PUSH1 0x0 DUP1 REVERT JUMPDEST POP PUSH1 0x3 SLOAD PUSH3 0x14C SWAP1 PUSH1 0x1 PUSH1 0x1 PUSH1 0xA0 SHL SUB AND DUP2 JUMP JUMPDEST CALLVALUE DUP1 ISZERO PUSH3 0x1F5 JUMPI PUSH1 0x0 DUP1 REVERT JUMPDEST POP PUSH3 0x14C PUSH3 0x207 CALLDATASIZE PUSH1 0x4 PUSH3 0xAB0 JUMP JUMPDEST PUSH1 0x2 PUSH1 0x20 MSTORE PUSH1 0x0 SWAP1 DUP2 MSTORE PUSH1 0x40 SWAP1 KECCAK256 SLOAD PUSH1 0x1 PUSH1 0x1 PUSH1 0xA0 SHL SUB AND DUP2 JUMP JUMPDEST CALLVALUE DUP1 ISZERO PUSH3 0x22F JUMPI PUSH1 0x0 DUP1 REVERT JUMPDEST POP PUSH3 0x125 PUSH3 0x241 CALLDATASIZE PUSH1 0x4 PUSH3 0xAB0 JUMP JUMPDEST PUSH3 0x4A2 JUMP JUMPDEST CALLVALUE DUP1 ISZERO PUSH3 0x254 JUMPI PUSH1 0x0 DUP1 REVERT JUMPDEST POP PUSH1 0x6 SLOAD PUSH3 0x14C SWAP1 PUSH1 0x1 PUSH1 0x1 PUSH1 0xA0 SHL SUB AND DUP2 JUMP JUMPDEST PUSH3 0x14C PUSH3 0x27A CALLDATASIZE PUSH1 0x4 PUSH3 0xB1F JUMP JUMPDEST PUSH3 0x555 JUMP JUMPDEST CALLVALUE DUP1 ISZERO PUSH3 0x28D JUMPI PUSH1 0x0 DUP1 REVERT JUMPDEST POP PUSH3 0x181 PUSH3 0x29F CALLDATASIZE PUSH1 0x4 PUSH3 0xBB5 JUMP JUMPDEST PUSH1 0x1 PUSH1 0x20 MSTORE PUSH1 0x0 SWAP1 DUP2 MSTORE PUSH1 0x40 SWAP1 KECCAK256 SLOAD DUP2 JUMP JUMPDEST CALLVALUE DUP1 ISZERO PUSH3 0x2BE JUMPI PUSH1 0x0 DUP1 REVERT JUMPDEST POP PUSH3 0x2D6 PUSH3 0x2D0 CALLDATASIZE PUSH1 0x4 PUSH3 0xBDA JUMP JUMPDEST PUSH3 0x8C9 JUMP JUMPDEST PUSH1 0x40 MLOAD PUSH3 0x160 SWAP2 SWAP1 PUSH3 0xBFD JUMP JUMPDEST CALLVALUE DUP1 ISZERO PUSH3 0x2F2 JUMPI PUSH1 0x0 DUP1 REVERT JUMPDEST POP PUSH3 0x125 PUSH3 0x304 CALLDATASIZE PUSH1 0x4 PUSH3 0xBB5 JUMP JUMPDEST PUSH3 0x9CE JUMP JUMPDEST CALLVALUE DUP1 ISZERO PUSH3 0x317 JUMPI PUSH1 0x0 DUP1 REVERT JUMPDEST POP PUSH1 0x0 SLOAD PUSH3 0x181 JUMP JUMPDEST CALLVALUE DUP1 ISZERO PUSH3 0x32E JUMPI PUSH1 0x0 DUP1 REVERT JUMPDEST POP PUSH3 0x181 PUSH1 0x5 SLOAD DUP2 JUMP JUMPDEST CALLVALUE DUP1 ISZERO PUSH3 0x346 JUMPI PUSH1 0x0 DUP1 REVERT JUMPDEST POP PUSH3 0x125 PUSH3 0x358 CALLDATASIZE PUSH1 0x4 PUSH3 0xBB5 JUMP JUMPDEST PUSH3 0xA55 JUMP JUMPDEST PUSH1 0x6 SLOAD PUSH1 0x1 PUSH1 0x1 PUSH1 0xA0 SHL SUB AND CALLER EQ PUSH3 0x389 JUMPI PUSH1 0x40 MLOAD PUSH3 0x82B429 PUSH1 0xE8 SHL DUP2 MSTORE PUSH1 0x4 ADD PUSH1 0x40 MLOAD DUP1 SWAP2 SUB SWAP1 REVERT JUMPDEST PUSH1 0x5 SLOAD PUSH1 0x40 DUP1 MLOAD SWAP2 DUP3 MSTORE PUSH1 0x20 DUP3 ADD DUP4 SWAP1 MSTORE PUSH32 0xD67ED534FAF3E0DCDA08AC6043EC96DCF9B6EBEC56055FD14BD0CB40A27C0E49 SWAP2 ADD PUSH1 0x40 MLOAD DUP1 SWAP2 SUB SWAP1 LOG1 PUSH1 0x5 SSTORE JUMP JUMPDEST PUSH1 0x0 DUP2 DUP2 SLOAD DUP2 LT PUSH3 0x3DB JUMPI PUSH1 0x0 DUP1 REVERT JUMPDEST PUSH1 0x0 SWAP2 DUP3 MSTORE PUSH1 0x20 SWAP1 SWAP2 KECCAK256 ADD SLOAD PUSH1 0x1 PUSH1 0x1 PUSH1 0xA0 SHL SUB AND SWAP1 POP DUP2 JUMP JUMPDEST PUSH1 0x0 DUP1 DUP3 PUSH1 0x1 PUSH1 0x1 PUSH1 0xA0 SHL SUB AND DUP5 PUSH1 0x1 PUSH1 0x1 PUSH1 0xA0 SHL SUB AND LT PUSH3 0x419 JUMPI DUP3 PUSH3 0x41B JUMP JUMPDEST DUP4 JUMPDEST DUP4 PUSH1 0x1 PUSH1 0x1 PUSH1 0xA0 SHL SUB AND DUP6 PUSH1 0x1 PUSH1 0x1 PUSH1 0xA0 SHL SUB AND LT PUSH3 0x43C JUMPI DUP5 PUSH3 0x43E JUMP JUMPDEST DUP4 JUMPDEST PUSH1 0x40 MLOAD PUSH12 0xFFFFFFFFFFFFFFFFFFFFFFFF NOT PUSH1 0x60 SWAP4 DUP5 SHL DUP2 AND PUSH1 0x20 DUP4 ADD MSTORE SWAP2 SWAP1 SWAP3 SHL AND PUSH1 0x34 DUP3 ADD MSTORE PUSH1 0x48 ADD PUSH1 0x40 DUP1 MLOAD PUSH1 0x1F NOT DUP2 DUP5 SUB ADD DUP2 MSTORE SWAP2 DUP2 MSTORE DUP2 MLOAD PUSH1 0x20 SWAP3 DUP4 ADD KECCAK256 PUSH1 0x0 SWAP1 DUP2 MSTORE PUSH1 0x2 SWAP1 SWAP3 MSTORE SWAP1 KECCAK256 SLOAD PUSH1 0x1 PUSH1 0x1 PUSH1 0xA0 SHL SUB AND ISZERO ISZERO SWAP2 POP POP JUMPDEST SWAP3 SWAP2 POP POP JUMP JUMPDEST PUSH1 0x6 SLOAD PUSH1 0x1 PUSH1 0x1 PUSH1 0xA0 SHL SUB AND CALLER EQ PUSH3 0x4CD JUMPI PUSH1 0x40 MLOAD PUSH3 0x82B429 PUSH1 0xE8 SHL DUP2 MSTORE PUSH1 0x4 ADD PUSH1 0x40 MLOAD DUP1 SWAP2 SUB SWAP1 REVERT JUMPDEST PUSH2 0x3E8 DUP2 GT ISZERO PUSH3 0x514 JUMPI PUSH1 0x40 MLOAD PUSH3 0x461BCD PUSH1 0xE5 SHL DUP2 MSTORE PUSH1 0x20 PUSH1 0x4 DUP3 ADD MSTORE PUSH1 0xC PUSH1 0x24 DUP3 ADD MSTORE PUSH12 0x8CCACA40E8DEDE40D0D2CED PUSH1 0xA3 SHL PUSH1 0x44 DUP3 ADD MSTORE PUSH1 0x64 ADD JUMPDEST PUSH1 0x40 MLOAD DUP1 SWAP2 SUB SWAP1 REVERT JUMPDEST PUSH1 0x4 SLOAD PUSH1 0x40 DUP1 MLOAD SWAP2 DUP3 MSTORE PUSH1 0x20 DUP3 ADD DUP4 SWAP1 MSTORE PUSH32 0xB404CAC19FB1CBEFF98D325795B08886E3CD8FE8CB1A2F193AAC66F13FB239C3 SWAP2 ADD PUSH1 0x40 MLOAD DUP1 SWAP2 SUB SWAP1 LOG1 PUSH1 0x4 SSTORE JUMP JUMPDEST PUSH1 0x0 PUSH1 0x1 PUSH1 0x1 PUSH1 0xA0 SHL SUB DUP7 AND ISZERO DUP1 PUSH3 0x576 JUMPI POP PUSH1 0x1 PUSH1 0x1 PUSH1 0xA0 SHL SUB DUP7 AND CALLER EQ JUMPDEST ISZERO PUSH3 0x595 JUMPI PUSH1 0x40 MLOAD PUSH4 0x5697B367 PUSH1 0xE0 SHL DUP2 MSTORE PUSH1 0x4 ADD PUSH1 0x40 MLOAD DUP1 SWAP2 SUB SWAP1 REVERT JUMPDEST PUSH1 0x5 SLOAD CALLVALUE LT ISZERO PUSH3 0x5B9 JUMPI PUSH1 0x40 MLOAD PUSH4 0x78DE4A69 PUSH1 0xE1 SHL DUP2 MSTORE PUSH1 0x4 ADD PUSH1 0x40 MLOAD DUP1 SWAP2 SUB SWAP1 REVERT JUMPDEST PUSH1 0x0 PUSH1 0x1 PUSH1 0x1 PUSH1 0xA0 SHL SUB DUP8 AND CALLER LT PUSH3 0x5D3 JUMPI DUP7 PUSH3 0x5D5 JUMP JUMPDEST CALLER JUMPDEST PUSH1 0x1 PUSH1 0x1 PUSH1 0xA0 SHL SUB DUP9 AND CALLER LT PUSH3 0x5ED JUMPI CALLER PUSH3 0x5EF JUMP JUMPDEST DUP8 JUMPDEST PUSH1 0x40 MLOAD PUSH12 0xFFFFFFFFFFFFFFFFFFFFFFFF NOT PUSH1 0x60 SWAP4 DUP5 SHL DUP2 AND PUSH1 0x20 DUP4 ADD MSTORE SWAP2 SWAP1 SWAP3 SHL AND PUSH1 0x34 DUP3 ADD MSTORE PUSH1 0x48 ADD PUSH1 0x40 DUP1 MLOAD PUSH1 0x1F NOT DUP2 DUP5 SUB ADD DUP2 MSTORE SWAP2 DUP2 MSTORE DUP2 MLOAD PUSH1 0x20 SWAP3 DUP4 ADD KECCAK256 PUSH1 0x0 DUP2 DUP2 MSTORE PUSH1 0x2 SWAP1 SWAP4 MSTORE SWAP2 KECCAK256 SLOAD SWAP1 SWAP2 POP PUSH1 0x1 PUSH1 0x1 PUSH1 0xA0 SHL SUB AND ISZERO PUSH3 0x669 JUMPI PUSH1 0x40 MLOAD PUSH4 0x3F9BD75 PUSH1 0xE1 SHL DUP2 MSTORE PUSH1 0x4 ADD PUSH1 0x40 MLOAD DUP1 SWAP2 SUB SWAP1 REVERT JUMPDEST PUSH1 0x0 PUSH2 0x2710 PUSH1 0x4 SLOAD CALLVALUE PUSH3 0x67E SWAP2 SWAP1 PUSH3 0xC62 JUMP JUMPDEST PUSH3 0x68A SWAP2 SWAP1 PUSH3 0xC7C JUMP JUMPDEST SWAP1 POP PUSH1 0x0 PUSH3 0x69A DUP3 CALLVALUE PUSH3 0xC9F JUMP JUMPDEST PUSH1 0x3 SLOAD PUSH1 0x40 MLOAD SWAP2 SWAP3 POP PUSH1 0x0 SWAP2 PUSH1 0x1 PUSH1 0x1 PUSH1 0xA0 SHL SUB SWAP1 SWAP2 AND SWAP1 DUP5 SWAP1 DUP4 DUP2 DUP2 DUP2 DUP6 DUP8 GAS CALL SWAP3 POP POP POP RETURNDATASIZE DUP1 PUSH1 0x0 DUP2 EQ PUSH3 0x6EE JUMPI PUSH1 0x40 MLOAD SWAP2 POP PUSH1 0x1F NOT PUSH1 0x3F RETURNDATASIZE ADD AND DUP3 ADD PUSH1 0x40 MSTORE RETURNDATASIZE DUP3 MSTORE RETURNDATASIZE PUSH1 0x0 PUSH1 0x20 DUP5 ADD RETURNDATACOPY PUSH3 0x6F3 JUMP JUMPDEST PUSH1 0x60 SWAP2 POP JUMPDEST POP POP SWAP1 POP DUP1 PUSH3 0x73C JUMPI PUSH1 0x40 MLOAD PUSH3 0x461BCD PUSH1 0xE5 SHL DUP2 MSTORE PUSH1 0x20 PUSH1 0x4 DUP3 ADD MSTORE PUSH1 0x13 PUSH1 0x24 DUP3 ADD MSTORE PUSH19 0x119959481D1C985B9CD9995C8819985A5B1959 PUSH1 0x6A SHL PUSH1 0x44 DUP3 ADD MSTORE PUSH1 0x64 ADD PUSH3 0x50B JUMP JUMPDEST PUSH1 0x0 DUP3 CALLER DUP13 DUP13 DUP13 DUP13 DUP13 DUP10 PUSH1 0x3 PUSH1 0x0 SWAP1 SLOAD SWAP1 PUSH2 0x100 EXP SWAP1 DIV PUSH1 0x1 PUSH1 0x1 PUSH1 0xA0 SHL SUB AND PUSH1 0x4 SLOAD PUSH1 0x40 MLOAD PUSH3 0x76D SWAP1 PUSH3 0xAA2 JUMP JUMPDEST PUSH3 0x781 SWAP10 SWAP9 SWAP8 SWAP7 SWAP6 SWAP5 SWAP4 SWAP3 SWAP2 SWAP1 PUSH3 0xCB5 JUMP JUMPDEST PUSH1 0x40 MLOAD DUP1 SWAP2 SUB SWAP1 DUP3 CREATE SWAP1 POP DUP1 ISZERO DUP1 ISZERO PUSH3 0x79F JUMPI RETURNDATASIZE PUSH1 0x0 DUP1 RETURNDATACOPY RETURNDATASIZE PUSH1 0x0 REVERT JUMPDEST POP SWAP1 POP DUP1 SWAP6 POP PUSH1 0x0 DUP7 SWAP1 DUP1 PUSH1 0x1 DUP2 SLOAD ADD DUP1 DUP3 SSTORE DUP1 SWAP2 POP POP PUSH1 0x1 SWAP1 SUB SWAP1 PUSH1 0x0 MSTORE PUSH1 0x20 PUSH1 0x0 KECCAK256 ADD PUSH1 0x0 SWAP1 SWAP2 SWAP1 SWAP2 SWAP1 SWAP2 PUSH2 0x100 EXP DUP2 SLOAD DUP2 PUSH1 0x1 PUSH1 0x1 PUSH1 0xA0 SHL SUB MUL NOT AND SWAP1 DUP4 PUSH1 0x1 PUSH1 0x1 PUSH1 0xA0 SHL SUB AND MUL OR SWAP1 SSTORE POP TIMESTAMP PUSH1 0x1 PUSH1 0x0 DUP9 PUSH1 0x1 PUSH1 0x1 PUSH1 0xA0 SHL SUB AND PUSH1 0x1 PUSH1 0x1 PUSH1 0xA0 SHL SUB AND DUP2 MSTORE PUSH1 0x20 ADD SWAP1 DUP2 MSTORE PUSH1 0x20 ADD PUSH1 0x0 KECCAK256 DUP2 SWAP1 SSTORE POP DUP6 PUSH1 0x2 PUSH1 0x0 DUP8 DUP2 MSTORE PUSH1 0x20 ADD SWAP1 DUP2 MSTORE PUSH1 0x20 ADD PUSH1 0x0 KECCAK256 PUSH1 0x0 PUSH2 0x100 EXP DUP2 SLOAD DUP2 PUSH1 0x1 PUSH1 0x1 PUSH1 0xA0 SHL SUB MUL NOT AND SWAP1 DUP4 PUSH1 0x1 PUSH1 0x1 PUSH1 0xA0 SHL SUB AND MUL OR SWAP1 SSTORE POP DUP11 PUSH1 0x1 PUSH1 0x1 PUSH1 0xA0 SHL SUB AND CALLER PUSH1 0x1 PUSH1 0x1 PUSH1 0xA0 SHL SUB AND DUP8 PUSH1 0x1 PUSH1 0x1 PUSH1 0xA0 SHL SUB AND PUSH32 0x3EB472A527E15C935AB5F5304EB8A07041C95959EAD93C387CFFF282331CA09D DUP14 DUP8 TIMESTAMP PUSH1 0x40 MLOAD PUSH3 0x8B3 SWAP4 SWAP3 SWAP2 SWAP1 SWAP3 DUP4 MSTORE PUSH1 0x20 DUP4 ADD SWAP2 SWAP1 SWAP2 MSTORE PUSH1 0x40 DUP3 ADD MSTORE PUSH1 0x60 ADD SWAP1 JUMP JUMPDEST PUSH1 0x40 MLOAD DUP1 SWAP2 SUB SWAP1 LOG4 POP POP POP POP POP SWAP6 SWAP5 POP POP POP POP POP JUMP JUMPDEST PUSH1 0x60 PUSH1 0x0 PUSH3 0x8D9 DUP4 DUP6 PUSH3 0xD2A JUMP JUMPDEST PUSH1 0x0 SLOAD SWAP1 SWAP2 POP DUP2 GT ISZERO PUSH3 0x8EC JUMPI POP PUSH1 0x0 SLOAD JUMPDEST PUSH1 0x0 PUSH3 0x8FA DUP6 DUP4 PUSH3 0xC9F JUMP JUMPDEST PUSH8 0xFFFFFFFFFFFFFFFF DUP2 GT ISZERO PUSH3 0x915 JUMPI PUSH3 0x915 PUSH3 0xD40 JUMP JUMPDEST PUSH1 0x40 MLOAD SWAP1 DUP1 DUP3 MSTORE DUP1 PUSH1 0x20 MUL PUSH1 0x20 ADD DUP3 ADD PUSH1 0x40 MSTORE DUP1 ISZERO PUSH3 0x93F JUMPI DUP2 PUSH1 0x20 ADD PUSH1 0x20 DUP3 MUL DUP1 CALLDATASIZE DUP4 CALLDATACOPY ADD SWAP1 POP JUMPDEST POP SWAP1 POP DUP5 JUMPDEST DUP3 DUP2 LT ISZERO PUSH3 0x9C5 JUMPI PUSH1 0x0 DUP2 DUP2 SLOAD DUP2 LT PUSH3 0x963 JUMPI PUSH3 0x963 PUSH3 0xD56 JUMP JUMPDEST PUSH1 0x0 SWAP2 DUP3 MSTORE PUSH1 0x20 SWAP1 SWAP2 KECCAK256 ADD SLOAD PUSH1 0x1 PUSH1 0x1 PUSH1 0xA0 SHL SUB AND DUP3 PUSH3 0x985 DUP9 DUP5 PUSH3 0xC9F JUMP JUMPDEST DUP2 MLOAD DUP2 LT PUSH3 0x998 JUMPI PUSH3 0x998 PUSH3 0xD56 JUMP JUMPDEST PUSH1 0x1 PUSH1 0x1 PUSH1 0xA0 SHL SUB SWAP1 SWAP3 AND PUSH1 0x20 SWAP3 DUP4 MUL SWAP2 SWAP1 SWAP2 ADD SWAP1 SWAP2 ADD MSTORE DUP1 PUSH3 0x9BC DUP2 PUSH3 0xD6C JUMP JUMPDEST SWAP2 POP POP PUSH3 0x944 JUMP JUMPDEST POP SWAP5 SWAP4 POP POP POP POP JUMP JUMPDEST PUSH1 0x6 SLOAD PUSH1 0x1 PUSH1 0x1 PUSH1 0xA0 SHL SUB AND CALLER EQ PUSH3 0x9F9 JUMPI PUSH1 0x40 MLOAD PUSH3 0x82B429 PUSH1 0xE8 SHL DUP2 MSTORE PUSH1 0x4 ADD PUSH1 0x40 MLOAD DUP1 SWAP2 SUB SWAP1 REVERT JUMPDEST PUSH1 0x3 SLOAD PUSH1 0x40 MLOAD PUSH1 0x1 PUSH1 0x1 PUSH1 0xA0 SHL SUB DUP1 DUP5 AND SWAP3 AND SWAP1 PUSH32 0xAAEBCF1BFA00580E41D966056B48521FA9F202645C86D4DDF28113E617C1B1D3 SWAP1 PUSH1 0x0 SWAP1 LOG3 PUSH1 0x3 DUP1 SLOAD PUSH1 0x1 PUSH1 0x1 PUSH1 0xA0 SHL SUB NOT AND PUSH1 0x1 PUSH1 0x1 PUSH1 0xA0 SHL SUB SWAP3 SWAP1 SWAP3 AND SWAP2 SWAP1 SWAP2 OR SWAP1 SSTORE JUMP JUMPDEST PUSH1 0x6 SLOAD PUSH1 0x1 PUSH1 0x1 PUSH1 0xA0 SHL SUB AND CALLER EQ PUSH3 0xA80 JUMPI PUSH1 0x40 MLOAD PUSH3 0x82B429 PUSH1 0xE8 SHL DUP2 MSTORE PUSH1 0x4 ADD PUSH1 0x40 MLOAD DUP1 SWAP2 SUB SWAP1 REVERT JUMPDEST PUSH1 0x6 DUP1 SLOAD PUSH1 0x1 PUSH1 0x1 PUSH1 0xA0 SHL SUB NOT AND PUSH1 0x1 PUSH1 0x1 PUSH1 0xA0 SHL SUB SWAP3 SWAP1 SWAP3 AND SWAP2 SWAP1 SWAP2 OR SWAP1 SSTORE JUMP JUMPDEST PUSH2 0x2613 DUP1 PUSH3 0xD89 DUP4 CODECOPY ADD SWAP1 JUMP JUMPDEST PUSH1 0x0 PUSH1 0x20 DUP3 DUP5 SUB SLT ISZERO PUSH3 0xAC3 JUMPI PUSH1 0x0 DUP1 REVERT JUMPDEST POP CALLDATALOAD SWAP2 SWAP1 POP JUMP JUMPDEST DUP1 CALLDATALOAD PUSH1 0x1 PUSH1 0x1 PUSH1 0xA0 SHL SUB DUP2 AND DUP2 EQ PUSH3 0xAE2 JUMPI PUSH1 0x0 DUP1 REVERT JUMPDEST SWAP2 SWAP1 POP JUMP JUMPDEST PUSH1 0x0 DUP1 PUSH1 0x40 DUP4 DUP6 SUB SLT ISZERO PUSH3 0xAFB JUMPI PUSH1 0x0 DUP1 REVERT JUMPDEST PUSH3 0xB06 DUP4 PUSH3 0xACA JUMP JUMPDEST SWAP2 POP PUSH3 0xB16 PUSH1 0x20 DUP5 ADD PUSH3 0xACA JUMP JUMPDEST SWAP1 POP SWAP3 POP SWAP3 SWAP1 POP JUMP JUMPDEST PUSH1 0x0 DUP1 PUSH1 0x0 DUP1 PUSH1 0x0 PUSH1 0x80 DUP7 DUP9 SUB SLT ISZERO PUSH3 0xB38 JUMPI PUSH1 0x0 DUP1 REVERT JUMPDEST PUSH3 0xB43 DUP7 PUSH3 0xACA JUMP JUMPDEST SWAP5 POP PUSH1 0x20 DUP7 ADD CALLDATALOAD SWAP4 POP PUSH1 0x40 DUP7 ADD CALLDATALOAD PUSH8 0xFFFFFFFFFFFFFFFF DUP1 DUP3 GT ISZERO PUSH3 0xB68 JUMPI PUSH1 0x0 DUP1 REVERT JUMPDEST DUP2 DUP9 ADD SWAP2 POP DUP9 PUSH1 0x1F DUP4 ADD SLT PUSH3 0xB7D JUMPI PUSH1 0x0 DUP1 REVERT JUMPDEST DUP2 CALLDATALOAD DUP2 DUP2 GT ISZERO PUSH3 0xB8D JUMPI PUSH1 0x0 DUP1 REVERT JUMPDEST DUP10 PUSH1 0x20 DUP3 DUP6 ADD ADD GT ISZERO PUSH3 0xBA0 JUMPI PUSH1 0x0 DUP1 REVERT JUMPDEST SWAP7 SWAP10 SWAP6 SWAP9 POP POP PUSH1 0x20 ADD SWAP6 PUSH1 0x60 ADD CALLDATALOAD SWAP4 SWAP3 POP POP POP JUMP JUMPDEST PUSH1 0x0 PUSH1 0x20 DUP3 DUP5 SUB SLT ISZERO PUSH3 0xBC8 JUMPI PUSH1 0x0 DUP1 REVERT JUMPDEST PUSH3 0xBD3 DUP3 PUSH3 0xACA JUMP JUMPDEST SWAP4 SWAP3 POP POP POP JUMP JUMPDEST PUSH1 0x0 DUP1 PUSH1 0x40 DUP4 DUP6 SUB SLT ISZERO PUSH3 0xBEE JUMPI PUSH1 0x0 DUP1 REVERT JUMPDEST POP POP DUP1 CALLDATALOAD SWAP3 PUSH1 0x20 SWAP1 SWAP2 ADD CALLDATALOAD SWAP2 POP JUMP JUMPDEST PUSH1 0x20 DUP1 DUP3 MSTORE DUP3 MLOAD DUP3 DUP3 ADD DUP2 SWAP1 MSTORE PUSH1 0x0 SWAP2 SWAP1 DUP5 DUP3 ADD SWAP1 PUSH1 0x40 DUP6 ADD SWAP1 DUP5 JUMPDEST DUP2 DUP2 LT ISZERO PUSH3 0xC40 JUMPI DUP4 MLOAD PUSH1 0x1 PUSH1 0x1 PUSH1 0xA0 SHL SUB AND DUP4 MSTORE SWAP3 DUP5 ADD SWAP3 SWAP2 DUP5 ADD SWAP2 PUSH1 0x1 ADD PUSH3 0xC19 JUMP JUMPDEST POP SWAP1 SWAP7 SWAP6 POP POP POP POP POP POP JUMP JUMPDEST PUSH4 0x4E487B71 PUSH1 0xE0 SHL PUSH1 0x0 MSTORE PUSH1 0x11 PUSH1 0x4 MSTORE PUSH1 0x24 PUSH1 0x0 REVERT JUMPDEST DUP1 DUP3 MUL DUP2 ISZERO DUP3 DUP3 DIV DUP5 EQ OR PUSH3 0x49C JUMPI PUSH3 0x49C PUSH3 0xC4C JUMP JUMPDEST PUSH1 0x0 DUP3 PUSH3 0xC9A JUMPI PUSH4 0x4E487B71 PUSH1 0xE0 SHL PUSH1 0x0 MSTORE PUSH1 0x12 PUSH1 0x4 MSTORE PUSH1 0x24 PUSH1 0x0 REVERT JUMPDEST POP DIV SWAP1 JUMP JUMPDEST DUP2 DUP2 SUB DUP2 DUP2 GT ISZERO PUSH3 0x49C JUMPI PUSH3 0x49C PUSH3 0xC4C JUMP JUMPDEST PUSH1 0x1 PUSH1 0x1 PUSH1 0xA0 SHL SUB DUP11 DUP2 AND DUP3 MSTORE DUP10 DUP2 AND PUSH1 0x20 DUP4 ADD MSTORE PUSH1 0x40 DUP3 ADD DUP10 SWAP1 MSTORE PUSH2 0x100 PUSH1 0x60 DUP4 ADD DUP2 SWAP1 MSTORE DUP3 ADD DUP8 SWAP1 MSTORE PUSH1 0x0 SWAP1 PUSH2 0x120 SWAP1 DUP9 DUP11 DUP4 DUP7 ADD CALLDATACOPY PUSH1 0x0 DUP5 DUP11 ADD DUP4 ADD MSTORE PUSH1 0x80 DUP5 ADD SWAP8 SWAP1 SWAP8 MSTORE PUSH1 0xA0 DUP4 ADD SWAP6 SWAP1 SWAP6 MSTORE POP SWAP2 SWAP1 SWAP4 AND PUSH1 0xC0 DUP3 ADD MSTORE PUSH1 0xE0 DUP2 ADD SWAP3 SWAP1 SWAP3 MSTORE PUSH1 0x1F SWAP1 SWAP3 ADD PUSH1 0x1F NOT AND ADD ADD SWAP5 SWAP4 POP POP POP POP JUMP JUMPDEST DUP1 DUP3 ADD DUP1 DUP3 GT ISZERO PUSH3 0x49C JUMPI PUSH3 0x49C PUSH3 0xC4C JUMP JUMPDEST PUSH4 0x4E487B71 PUSH1 0xE0 SHL PUSH1 0x0 MSTORE PUSH1 0x41 PUSH1 0x4 MSTORE PUSH1 0x24 PUSH1 0x0 REVERT JUMPDEST PUSH4 0x4E487B71 PUSH1 0xE0 SHL PUSH1 0x0 MSTORE PUSH1 0x32 PUSH1 0x4 MSTORE PUSH1 0x24 PUSH1 0x0 REVERT JUMPDEST PUSH1 0x0 PUSH1 0x1 DUP3 ADD PUSH3 0xD81 JUMPI PUSH3 0xD81 PUSH3 0xC4C JUMP JUMPDEST POP PUSH1 0x1 ADD SWAP1 JUMP INVALID PUSH1 0xC0 PUSH1 0x40 MSTORE PUSH1 0x40 MLOAD PUSH3 0x2613 CODESIZE SUB DUP1 PUSH3 0x2613 DUP4 CODECOPY DUP2 ADD PUSH1 0x40 DUP2 SWAP1 MSTORE PUSH3 0x26 SWAP2 PUSH3 0x13F JUMP JUMPDEST PUSH1 0x1 PUSH1 0x1 PUSH1 0xA0 SHL SUB DUP9 DUP2 AND PUSH1 0x80 MSTORE DUP8 DUP2 AND PUSH1 0xA0 SWAP1 DUP2 MSTORE PUSH1 0x9 DUP1 SLOAD PUSH1 0x1 PUSH1 0x1 PUSH1 0xA0 SHL SUB NOT AND SWAP3 DUP6 AND SWAP3 SWAP1 SWAP3 OR SWAP1 SWAP2 SSTORE PUSH1 0xA DUP3 SWAP1 SSTORE CALLVALUE PUSH1 0x8 SSTORE PUSH1 0x40 DUP1 MLOAD SWAP2 DUP3 ADD DUP2 MSTORE DUP8 DUP3 MSTORE PUSH1 0x20 DUP3 ADD DUP8 SWAP1 MSTORE TIMESTAMP SWAP1 DUP3 ADD DUP2 SWAP1 MSTORE PUSH1 0x60 DUP3 ADD SWAP1 PUSH3 0x89 SWAP1 DUP8 SWAP1 PUSH3 0x273 JUMP JUMPDEST DUP2 MSTORE PUSH1 0x20 SWAP1 DUP2 ADD DUP6 SWAP1 MSTORE DUP2 MLOAD PUSH1 0x0 SWAP1 DUP2 SSTORE SWAP1 DUP3 ADD MLOAD PUSH1 0x1 SWAP1 PUSH3 0xAD SWAP1 DUP3 PUSH3 0x32A JUMP JUMPDEST POP PUSH1 0x40 DUP3 DUP2 ADD MLOAD PUSH1 0x2 DUP4 ADD SSTORE PUSH1 0x60 DUP4 ADD MLOAD PUSH1 0x3 DUP4 ADD SSTORE PUSH1 0x80 SWAP1 SWAP3 ADD MLOAD PUSH1 0x4 SWAP1 SWAP2 ADD SSTORE PUSH1 0x5 DUP1 SLOAD PUSH1 0xFF NOT SWAP1 DUP2 AND SWAP1 SWAP2 SSTORE PUSH1 0x1 PUSH1 0x1 PUSH1 0xA0 SHL SUB SWAP10 SWAP1 SWAP10 AND PUSH1 0x0 SWAP1 DUP2 MSTORE PUSH1 0xB PUSH1 0x20 MSTORE KECCAK256 DUP1 SLOAD SWAP1 SWAP9 AND PUSH1 0x1 OR SWAP1 SWAP8 SSTORE POP PUSH3 0x3F6 SWAP6 POP POP POP POP POP POP JUMP JUMPDEST DUP1 MLOAD PUSH1 0x1 PUSH1 0x1 PUSH1 0xA0 SHL SUB DUP2 AND DUP2 EQ PUSH3 0x124 JUMPI PUSH1 0x0 DUP1 REVERT JUMPDEST SWAP2 SWAP1 POP JUMP JUMPDEST PUSH4 0x4E487B71 PUSH1 0xE0 SHL PUSH1 0x0 MSTORE PUSH1 0x41 PUSH1 0x4 MSTORE PUSH1 0x24 PUSH1 0x0 REVERT JUMPDEST PUSH1 0x0 DUP1 PUSH1 0x0 DUP1 PUSH1 0x0 DUP1 PUSH1 0x0 DUP1 PUSH2 0x100 DUP10 DUP12 SUB SLT ISZERO PUSH3 0x15D JUMPI PUSH1 0x0 DUP1 REVERT JUMPDEST PUSH3 0x168 DUP10 PUSH3 0x10C JUMP JUMPDEST SWAP8 POP PUSH1 0x20 PUSH3 0x179 DUP2 DUP12 ADD PUSH3 0x10C JUMP JUMPDEST PUSH1 0x40 DUP12 ADD MLOAD PUSH1 0x60 DUP13 ADD MLOAD SWAP2 SWAP10 POP SWAP8 POP PUSH1 0x1 PUSH1 0x1 PUSH1 0x40 SHL SUB DUP1 DUP3 GT ISZERO PUSH3 0x19E JUMPI PUSH1 0x0 DUP1 REVERT JUMPDEST DUP2 DUP13 ADD SWAP2 POP DUP13 PUSH1 0x1F DUP4 ADD SLT PUSH3 0x1B3 JUMPI PUSH1 0x0 DUP1 REVERT JUMPDEST DUP2 MLOAD DUP2 DUP2 GT ISZERO PUSH3 0x1C8 JUMPI PUSH3 0x1C8 PUSH3 0x129 JUMP JUMPDEST PUSH1 0x40 MLOAD PUSH1 0x1F DUP3 ADD PUSH1 0x1F NOT SWAP1 DUP2 AND PUSH1 0x3F ADD AND DUP2 ADD SWAP1 DUP4 DUP3 GT DUP2 DUP4 LT OR ISZERO PUSH3 0x1F3 JUMPI PUSH3 0x1F3 PUSH3 0x129 JUMP JUMPDEST DUP2 PUSH1 0x40 MSTORE DUP3 DUP2 MSTORE DUP16 DUP7 DUP5 DUP8 ADD ADD GT ISZERO PUSH3 0x20C JUMPI PUSH1 0x0 DUP1 REVERT JUMPDEST PUSH1 0x0 SWAP4 POP JUMPDEST DUP3 DUP5 LT ISZERO PUSH3 0x230 JUMPI DUP5 DUP5 ADD DUP7 ADD MLOAD DUP2 DUP6 ADD DUP8 ADD MSTORE SWAP3 DUP6 ADD SWAP3 PUSH3 0x211 JUMP JUMPDEST PUSH1 0x0 DUP7 DUP5 DUP4 ADD ADD MSTORE DUP1 SWAP11 POP POP POP POP POP POP POP PUSH1 0x80 DUP10 ADD MLOAD SWAP4 POP PUSH1 0xA0 DUP10 ADD MLOAD SWAP3 POP PUSH3 0x25D PUSH1 0xC0 DUP11 ADD PUSH3 0x10C JUMP JUMPDEST SWAP2 POP PUSH1 0xE0 DUP10 ADD MLOAD SWAP1 POP SWAP3 SWAP6 SWAP9 POP SWAP3 SWAP6 SWAP9 SWAP1 SWAP4 SWAP7 POP JUMP JUMPDEST DUP1 DUP3 ADD DUP1 DUP3 GT ISZERO PUSH3 0x295 JUMPI PUSH4 0x4E487B71 PUSH1 0xE0 SHL PUSH1 0x0 MSTORE PUSH1 0x11 PUSH1 0x4 MSTORE PUSH1 0x24 PUSH1 0x0 REVERT JUMPDEST SWAP3 SWAP2 POP POP JUMP JUMPDEST PUSH1 0x1 DUP2 DUP2 SHR SWAP1 DUP3 AND DUP1 PUSH3 0x2B0 JUMPI PUSH1 0x7F DUP3 AND SWAP2 POP JUMPDEST PUSH1 0x20 DUP3 LT DUP2 SUB PUSH3 0x2D1 JUMPI PUSH4 0x4E487B71 PUSH1 0xE0 SHL PUSH1 0x0 MSTORE PUSH1 0x22 PUSH1 0x4 MSTORE PUSH1 0x24 PUSH1 0x0 REVERT JUMPDEST POP SWAP2 SWAP1 POP JUMP JUMPDEST PUSH1 0x1F DUP3 GT ISZERO PUSH3 0x325 JUMPI PUSH1 0x0 DUP2 DUP2 MSTORE PUSH1 0x20 DUP2 KECCAK256 PUSH1 0x1F DUP6 ADD PUSH1 0x5 SHR DUP2 ADD PUSH1 0x20 DUP7 LT ISZERO PUSH3 0x300 JUMPI POP DUP1 JUMPDEST PUSH1 0x1F DUP6 ADD PUSH1 0x5 SHR DUP3 ADD SWAP2 POP JUMPDEST DUP2 DUP2 LT ISZERO PUSH3 0x321 JUMPI DUP3 DUP2 SSTORE PUSH1 0x1 ADD PUSH3 0x30C JUMP JUMPDEST POP POP POP JUMPDEST POP POP POP JUMP JUMPDEST DUP2 MLOAD PUSH1 0x1 PUSH1 0x1 PUSH1 0x40 SHL SUB DUP2 GT ISZERO PUSH3 0x346 JUMPI PUSH3 0x346 PUSH3 0x129 JUMP JUMPDEST PUSH3 0x35E DUP2 PUSH3 0x357 DUP5 SLOAD PUSH3 0x29B JUMP JUMPDEST DUP5 PUSH3 0x2D7 JUMP JUMPDEST PUSH1 0x20 DUP1 PUSH1 0x1F DUP4 GT PUSH1 0x1 DUP2 EQ PUSH3 0x396 JUMPI PUSH1 0x0 DUP5 ISZERO PUSH3 0x37D JUMPI POP DUP6 DUP4 ADD MLOAD JUMPDEST PUSH1 0x0 NOT PUSH1 0x3 DUP7 SWAP1 SHL SHR NOT AND PUSH1 0x1 DUP6 SWAP1 SHL OR DUP6 SSTORE PUSH3 0x321 JUMP JUMPDEST PUSH1 0x0 DUP6 DUP2 MSTORE PUSH1 0x20 DUP2 KECCAK256 PUSH1 0x1F NOT DUP7 AND SWAP2 JUMPDEST DUP3 DUP2 LT ISZERO PUSH3 0x3C7 JUMPI DUP9 DUP7 ADD MLOAD DUP3 SSTORE SWAP5 DUP5 ADD SWAP5 PUSH1 0x1 SWAP1 SWAP2 ADD SWAP1 DUP5 ADD PUSH3 0x3A6 JUMP JUMPDEST POP DUP6 DUP3 LT ISZERO PUSH3 0x3E6 JUMPI DUP8 DUP6 ADD MLOAD PUSH1 0x0 NOT PUSH1 0x3 DUP9 SWAP1 SHL PUSH1 0xF8 AND SHR NOT AND DUP2 SSTORE JUMPDEST POP POP POP POP POP PUSH1 0x1 SWAP1 DUP2 SHL ADD SWAP1 SSTORE POP JUMP JUMPDEST PUSH1 0x80 MLOAD PUSH1 0xA0 MLOAD PUSH2 0x2187 PUSH3 0x48C PUSH1 0x0 CODECOPY PUSH1 0x0 DUP2 DUP2 PUSH2 0x44E ADD MSTORE DUP2 DUP2 PUSH2 0x950 ADD MSTORE DUP2 DUP2 PUSH2 0xAC3 ADD MSTORE DUP2 DUP2 PUSH2 0xC8F ADD MSTORE DUP2 DUP2 PUSH2 0xD80 ADD MSTORE DUP2 DUP2 PUSH2 0x1186 ADD MSTORE PUSH2 0x1538 ADD MSTORE PUSH1 0x0 DUP2 DUP2 PUSH2 0x2DC ADD MSTORE DUP2 DUP2 PUSH2 0x6DD ADD MSTORE DUP2 DUP2 PUSH2 0xA91 ADD MSTORE DUP2 DUP2 PUSH2 0xE2D ADD MSTORE DUP2 DUP2 PUSH2 0x1154 ADD MSTORE DUP2 DUP2 PUSH2 0x128A ADD MSTORE DUP2 DUP2 PUSH2 0x145F ADD MSTORE DUP2 DUP2 PUSH2 0x160D ADD MSTORE DUP2 DUP2 PUSH2 0x189A ADD MSTORE DUP2 DUP2 PUSH2 0x19D9 ADD MSTORE PUSH2 0x1A7E ADD MSTORE PUSH2 0x2187 PUSH1 0x0 RETURN INVALID PUSH1 0x80 PUSH1 0x40 MSTORE PUSH1 0x4 CALLDATASIZE LT PUSH2 0x185 JUMPI PUSH1 0x0 CALLDATALOAD PUSH1 0xE0 SHR DUP1 PUSH4 0x84B62C28 GT PUSH2 0xD1 JUMPI DUP1 PUSH4 0xD24126D9 GT PUSH2 0x8A JUMPI DUP1 PUSH4 0xE3CFEF60 GT PUSH2 0x64 JUMPI DUP1 PUSH4 0xE3CFEF60 EQ PUSH2 0x4C2 JUMPI DUP1 PUSH4 0xE89E4ED6 EQ PUSH2 0x4D7 JUMPI DUP1 PUSH4 0xEE38DB95 EQ PUSH2 0x508 JUMPI DUP1 PUSH4 0xF5A3F4AF EQ PUSH2 0x51D JUMPI PUSH1 0x0 DUP1 REVERT JUMPDEST DUP1 PUSH4 0xD24126D9 EQ PUSH2 0x470 JUMPI DUP1 PUSH4 0xD5025625 EQ PUSH2 0x486 JUMPI DUP1 PUSH4 0xDA25DE3C EQ PUSH2 0x4AC JUMPI PUSH1 0x0 DUP1 REVERT JUMPDEST DUP1 PUSH4 0x84B62C28 EQ PUSH2 0x3A7 JUMPI DUP1 PUSH4 0x852EA203 EQ PUSH2 0x3C7 JUMPI DUP1 PUSH4 0x8F4CF247 EQ PUSH2 0x3E7 JUMPI DUP1 PUSH4 0xA8D52F7A EQ PUSH2 0x3FC JUMPI DUP1 PUSH4 0xBDC84AC3 EQ PUSH2 0x41C JUMPI DUP1 PUSH4 0xC3DF6546 EQ PUSH2 0x43C JUMPI PUSH1 0x0 DUP1 REVERT JUMPDEST DUP1 PUSH4 0x4A4D41EB GT PUSH2 0x13E JUMPI DUP1 PUSH4 0x69DB0A7E GT PUSH2 0x118 JUMPI DUP1 PUSH4 0x69DB0A7E EQ PUSH2 0x32E JUMPI DUP1 PUSH4 0x725A3B4B EQ PUSH2 0x350 JUMPI DUP1 PUSH4 0x7BF6C104 EQ PUSH2 0x370 JUMPI DUP1 PUSH4 0x7D0D50DC EQ PUSH2 0x392 JUMPI PUSH1 0x0 DUP1 REVERT JUMPDEST DUP1 PUSH4 0x4A4D41EB EQ PUSH2 0x2B4 JUMPI DUP1 PUSH4 0x5C39FCC1 EQ PUSH2 0x2CA JUMPI DUP1 PUSH4 0x69B4D6FE EQ PUSH2 0x2FE JUMPI PUSH1 0x0 DUP1 REVERT JUMPDEST DUP1 PUSH4 0x200D2ED2 EQ PUSH2 0x1A9 JUMPI DUP1 PUSH4 0x22F3E2D4 EQ PUSH2 0x1D9 JUMPI DUP1 PUSH4 0x2442E1CB EQ PUSH2 0x1FE JUMPI DUP1 PUSH4 0x35659FB8 EQ PUSH2 0x22B JUMPI DUP1 PUSH4 0x3670A7BD EQ PUSH2 0x24F JUMPI DUP1 PUSH4 0x46904840 EQ PUSH2 0x27C JUMPI PUSH1 0x0 DUP1 REVERT JUMPDEST CALLDATASIZE PUSH2 0x1A4 JUMPI CALLVALUE PUSH1 0x8 PUSH1 0x0 DUP3 DUP3 SLOAD PUSH2 0x19C SWAP2 SWAP1 PUSH2 0x1B53 JUMP JUMPDEST SWAP3 POP POP DUP2 SWAP1 SSTORE STOP JUMPDEST PUSH1 0x0 DUP1 REVERT JUMPDEST CALLVALUE DUP1 ISZERO PUSH2 0x1B5 JUMPI PUSH1 0x0 DUP1 REVERT JUMPDEST POP PUSH1 0x5 SLOAD PUSH2 0x1C3 SWAP1 PUSH1 0xFF AND DUP2 JUMP JUMPDEST PUSH1 0x40 MLOAD PUSH2 0x1D0 SWAP2 SWAP1 PUSH2 0x1B82 JUMP JUMPDEST PUSH1 0x40 MLOAD DUP1 SWAP2 SUB SWAP1 RETURN JUMPDEST CALLVALUE DUP1 ISZERO PUSH2 0x1E5 JUMPI PUSH1 0x0 DUP1 REVERT JUMPDEST POP PUSH2 0x1EE PUSH2 0x53D JUMP JUMPDEST PUSH1 0x40 MLOAD SWAP1 ISZERO ISZERO DUP2 MSTORE PUSH1 0x20 ADD PUSH2 0x1D0 JUMP JUMPDEST CALLVALUE DUP1 ISZERO PUSH2 0x20A JUMPI PUSH1 0x0 DUP1 REVERT JUMPDEST POP PUSH2 0x21E PUSH2 0x219 CALLDATASIZE PUSH1 0x4 PUSH2 0x1BAA JUMP JUMPDEST PUSH2 0x55E JUMP JUMPDEST PUSH1 0x40 MLOAD PUSH2 0x1D0 SWAP2 SWAP1 PUSH2 0x1C09 JUMP JUMPDEST CALLVALUE DUP1 ISZERO PUSH2 0x237 JUMPI PUSH1 0x0 DUP1 REVERT JUMPDEST POP PUSH2 0x241 PUSH1 0xA SLOAD DUP2 JUMP JUMPDEST PUSH1 0x40 MLOAD SWAP1 DUP2 MSTORE PUSH1 0x20 ADD PUSH2 0x1D0 JUMP JUMPDEST CALLVALUE DUP1 ISZERO PUSH2 0x25B JUMPI PUSH1 0x0 DUP1 REVERT JUMPDEST POP PUSH2 0x241 PUSH2 0x26A CALLDATASIZE PUSH1 0x4 PUSH2 0x1C5D JUMP JUMPDEST PUSH1 0xC PUSH1 0x20 MSTORE PUSH1 0x0 SWAP1 DUP2 MSTORE PUSH1 0x40 SWAP1 KECCAK256 SLOAD DUP2 JUMP JUMPDEST CALLVALUE DUP1 ISZERO PUSH2 0x288 JUMPI PUSH1 0x0 DUP1 REVERT JUMPDEST POP PUSH1 0x9 SLOAD PUSH2 0x29C SWAP1 PUSH1 0x1 PUSH1 0x1 PUSH1 0xA0 SHL SUB AND DUP2 JUMP JUMPDEST PUSH1 0x40 MLOAD PUSH1 0x1 PUSH1 0x1 PUSH1 0xA0 SHL SUB SWAP1 SWAP2 AND DUP2 MSTORE PUSH1 0x20 ADD PUSH2 0x1D0 JUMP JUMPDEST CALLVALUE DUP1 ISZERO PUSH2 0x2C0 JUMPI PUSH1 0x0 DUP1 REVERT JUMPDEST POP PUSH2 0x241 PUSH1 0x7 SLOAD DUP2 JUMP JUMPDEST CALLVALUE DUP1 ISZERO PUSH2 0x2D6 JUMPI PUSH1 0x0 DUP1 REVERT JUMPDEST POP PUSH2 0x29C PUSH32 0x0 DUP2 JUMP JUMPDEST CALLVALUE DUP1 ISZERO PUSH2 0x30A JUMPI PUSH1 0x0 DUP1 REVERT JUMPDEST POP PUSH2 0x1EE PUSH2 0x319 CALLDATASIZE PUSH1 0x4 PUSH2 0x1C5D JUMP JUMPDEST PUSH1 0xB PUSH1 0x20 MSTORE PUSH1 0x0 SWAP1 DUP2 MSTORE PUSH1 0x40 SWAP1 KECCAK256 SLOAD PUSH1 0xFF AND DUP2 JUMP JUMPDEST CALLVALUE DUP1 ISZERO PUSH2 0x33A JUMPI PUSH1 0x0 DUP1 REVERT JUMPDEST POP PUSH2 0x34E PUSH2 0x349 CALLDATASIZE PUSH1 0x4 PUSH2 0x1BAA JUMP JUMPDEST PUSH2 0x6D2 JUMP JUMPDEST STOP JUMPDEST CALLVALUE DUP1 ISZERO PUSH2 0x35C JUMPI PUSH1 0x0 DUP1 REVERT JUMPDEST POP PUSH2 0x34E PUSH2 0x36B CALLDATASIZE PUSH1 0x4 PUSH2 0x1CD6 JUMP JUMPDEST PUSH2 0xA86 JUMP JUMPDEST CALLVALUE DUP1 ISZERO PUSH2 0x37C JUMPI PUSH1 0x0 DUP1 REVERT JUMPDEST POP PUSH2 0x385 PUSH2 0xBF6 JUMP JUMPDEST PUSH1 0x40 MLOAD PUSH2 0x1D0 SWAP2 SWAP1 PUSH2 0x1D18 JUMP JUMPDEST CALLVALUE DUP1 ISZERO PUSH2 0x39E JUMPI PUSH1 0x0 DUP1 REVERT JUMPDEST POP PUSH2 0x34E PUSH2 0xC84 JUMP JUMPDEST CALLVALUE DUP1 ISZERO PUSH2 0x3B3 JUMPI PUSH1 0x0 DUP1 REVERT JUMPDEST POP PUSH2 0x34E PUSH2 0x3C2 CALLDATASIZE PUSH1 0x4 PUSH2 0x1D2B JUMP JUMPDEST PUSH2 0xE22 JUMP JUMPDEST CALLVALUE DUP1 ISZERO PUSH2 0x3D3 JUMPI PUSH1 0x0 DUP1 REVERT JUMPDEST POP PUSH2 0x34E PUSH2 0x3E2 CALLDATASIZE PUSH1 0x4 PUSH2 0x1BAA JUMP JUMPDEST PUSH2 0x1017 JUMP JUMPDEST CALLVALUE DUP1 ISZERO PUSH2 0x3F3 JUMPI PUSH1 0x0 DUP1 REVERT JUMPDEST POP PUSH1 0x6 SLOAD PUSH2 0x241 JUMP JUMPDEST CALLVALUE DUP1 ISZERO PUSH2 0x408 JUMPI PUSH1 0x0 DUP1 REVERT JUMPDEST POP PUSH2 0x34E PUSH2 0x417 CALLDATASIZE PUSH1 0x4 PUSH2 0x1CD6 JUMP JUMPDEST PUSH2 0x1149 JUMP JUMPDEST CALLVALUE DUP1 ISZERO PUSH2 0x428 JUMPI PUSH1 0x0 DUP1 REVERT JUMPDEST POP PUSH2 0x34E PUSH2 0x437 CALLDATASIZE PUSH1 0x4 PUSH2 0x1D77 JUMP JUMPDEST PUSH2 0x1369 JUMP JUMPDEST CALLVALUE DUP1 ISZERO PUSH2 0x448 JUMPI PUSH1 0x0 DUP1 REVERT JUMPDEST POP PUSH2 0x29C PUSH32 0x0 DUP2 JUMP JUMPDEST CALLVALUE DUP1 ISZERO PUSH2 0x47C JUMPI PUSH1 0x0 DUP1 REVERT JUMPDEST POP PUSH2 0x241 PUSH1 0xF SLOAD DUP2 JUMP JUMPDEST CALLVALUE DUP1 ISZERO PUSH2 0x492 JUMPI PUSH1 0x0 DUP1 REVERT JUMPDEST POP PUSH2 0x49B PUSH2 0x16E9 JUMP JUMPDEST PUSH1 0x40 MLOAD PUSH2 0x1D0 SWAP6 SWAP5 SWAP4 SWAP3 SWAP2 SWAP1 PUSH2 0x1D99 JUMP JUMPDEST CALLVALUE DUP1 ISZERO PUSH2 0x4B8 JUMPI PUSH1 0x0 DUP1 REVERT JUMPDEST POP PUSH2 0x241 PUSH1 0x8 SLOAD DUP2 JUMP JUMPDEST CALLVALUE DUP1 ISZERO PUSH2 0x4CE JUMPI PUSH1 0x0 DUP1 REVERT JUMPDEST POP PUSH2 0x241 PUSH2 0x1792 JUMP JUMPDEST CALLVALUE DUP1 ISZERO PUSH2 0x4E3 JUMPI PUSH1 0x0 DUP1 REVERT JUMPDEST POP PUSH2 0x4F7 PUSH2 0x4F2 CALLDATASIZE PUSH1 0x4 PUSH2 0x1BAA JUMP JUMPDEST PUSH2 0x17B7 JUMP JUMPDEST PUSH1 0x40 MLOAD PUSH2 0x1D0 SWAP6 SWAP5 SWAP4 SWAP3 SWAP2 SWAP1 PUSH2 0x1DCF JUMP JUMPDEST CALLVALUE DUP1 ISZERO PUSH2 0x514 JUMPI PUSH1 0x0 DUP1 REVERT JUMPDEST POP PUSH2 0x34E PUSH2 0x188F JUMP JUMPDEST CALLVALUE DUP1 ISZERO PUSH2 0x529 JUMPI PUSH1 0x0 DUP1 REVERT JUMPDEST POP PUSH1 0xD SLOAD PUSH2 0x29C SWAP1 PUSH1 0x1 PUSH1 0x1 PUSH1 0xA0 SHL SUB AND DUP2 JUMP JUMPDEST PUSH1 0x0 PUSH1 0x1 PUSH1 0x5 SLOAD PUSH1 0xFF AND PUSH1 0x6 DUP2 GT ISZERO PUSH2 0x558 JUMPI PUSH2 0x558 PUSH2 0x1B6C JUMP JUMPDEST EQ SWAP1 POP SWAP1 JUMP JUMPDEST PUSH2 0x594 PUSH1 0x40 MLOAD DUP1 PUSH1 0xA0 ADD PUSH1 0x40 MSTORE DUP1 PUSH1 0x60 DUP2 MSTORE PUSH1 0x20 ADD PUSH1 0x0 DUP2 MSTORE PUSH1 0x20 ADD PUSH1 0x0 ISZERO ISZERO DUP2 MSTORE PUSH1 0x20 ADD PUSH1 0x0 ISZERO ISZERO DUP2 MSTORE PUSH1 0x20 ADD PUSH1 0x0 DUP2 MSTORE POP SWAP1 JUMP JUMPDEST PUSH1 0x6 SLOAD DUP3 LT PUSH2 0x5DA JUMPI PUSH1 0x40 MLOAD PUSH3 0x461BCD PUSH1 0xE5 SHL DUP2 MSTORE PUSH1 0x20 PUSH1 0x4 DUP3 ADD MSTORE PUSH1 0xD PUSH1 0x24 DUP3 ADD MSTORE PUSH13 0x92DCECC2D8D2C840D2DCC8CAF PUSH1 0x9B SHL PUSH1 0x44 DUP3 ADD MSTORE PUSH1 0x64 ADD JUMPDEST PUSH1 0x40 MLOAD DUP1 SWAP2 SUB SWAP1 REVERT JUMPDEST PUSH1 0x6 DUP3 DUP2 SLOAD DUP2 LT PUSH2 0x5ED JUMPI PUSH2 0x5ED PUSH2 0x1E06 JUMP JUMPDEST SWAP1 PUSH1 0x0 MSTORE PUSH1 0x20 PUSH1 0x0 KECCAK256 SWAP1 PUSH1 0x4 MUL ADD PUSH1 0x40 MLOAD DUP1 PUSH1 0xA0 ADD PUSH1 0x40 MSTORE SWAP1 DUP2 PUSH1 0x0 DUP3 ADD DUP1 SLOAD PUSH2 0x616 SWAP1 PUSH2 0x1E1C JUMP JUMPDEST DUP1 PUSH1 0x1F ADD PUSH1 0x20 DUP1 SWAP2 DIV MUL PUSH1 0x20 ADD PUSH1 0x40 MLOAD SWAP1 DUP2 ADD PUSH1 0x40 MSTORE DUP1 SWAP3 SWAP2 SWAP1 DUP2 DUP2 MSTORE PUSH1 0x20 ADD DUP3 DUP1 SLOAD PUSH2 0x642 SWAP1 PUSH2 0x1E1C JUMP JUMPDEST DUP1 ISZERO PUSH2 0x68F JUMPI DUP1 PUSH1 0x1F LT PUSH2 0x664 JUMPI PUSH2 0x100 DUP1 DUP4 SLOAD DIV MUL DUP4 MSTORE SWAP2 PUSH1 0x20 ADD SWAP2 PUSH2 0x68F JUMP JUMPDEST DUP3 ADD SWAP2 SWAP1 PUSH1 0x0 MSTORE PUSH1 0x20 PUSH1 0x0 KECCAK256 SWAP1 JUMPDEST DUP2 SLOAD DUP2 MSTORE SWAP1 PUSH1 0x1 ADD SWAP1 PUSH1 0x20 ADD DUP1 DUP4 GT PUSH2 0x672 JUMPI DUP3 SWAP1 SUB PUSH1 0x1F AND DUP3 ADD SWAP2 JUMPDEST POP POP POP SWAP2 DUP4 MSTORE POP POP PUSH1 0x1 DUP3 ADD SLOAD PUSH1 0x20 DUP3 ADD MSTORE PUSH1 0x2 DUP3 ADD SLOAD PUSH1 0xFF DUP1 DUP3 AND ISZERO ISZERO PUSH1 0x40 DUP5 ADD MSTORE PUSH2 0x100 SWAP1 SWAP2 DIV AND ISZERO ISZERO PUSH1 0x60 DUP3 ADD MSTORE PUSH1 0x3 SWAP1 SWAP2 ADD SLOAD PUSH1 0x80 SWAP1 SWAP2 ADD MSTORE SWAP3 SWAP2 POP POP JUMP JUMPDEST CALLER PUSH1 0x1 PUSH1 0x1 PUSH1 0xA0 SHL SUB PUSH32 0x0 AND EQ PUSH2 0x71A JUMPI PUSH1 0x40 MLOAD PUSH3 0x461BCD PUSH1 0xE5 SHL DUP2 MSTORE PUSH1 0x4 ADD PUSH2 0x5D1 SWAP1 PUSH2 0x1E56 JUMP JUMPDEST PUSH1 0x1 PUSH1 0x5 SLOAD PUSH1 0xFF AND PUSH1 0x6 DUP2 GT ISZERO PUSH2 0x733 JUMPI PUSH2 0x733 PUSH2 0x1B6C JUMP JUMPDEST EQ PUSH2 0x750 JUMPI PUSH1 0x40 MLOAD PUSH3 0x461BCD PUSH1 0xE5 SHL DUP2 MSTORE PUSH1 0x4 ADD PUSH2 0x5D1 SWAP1 PUSH2 0x1E7D JUMP JUMPDEST PUSH1 0x6 SLOAD DUP2 LT PUSH2 0x795 JUMPI PUSH1 0x40 MLOAD PUSH3 0x461BCD PUSH1 0xE5 SHL DUP2 MSTORE PUSH1 0x20 PUSH1 0x4 DUP3 ADD MSTORE PUSH1 0x11 PUSH1 0x24 DUP3 ADD MSTORE PUSH17 0x496E76616C6964206D696C6573746F6E65 PUSH1 0x78 SHL PUSH1 0x44 DUP3 ADD MSTORE PUSH1 0x64 ADD PUSH2 0x5D1 JUMP JUMPDEST PUSH1 0x0 PUSH1 0x6 DUP3 DUP2 SLOAD DUP2 LT PUSH2 0x7AA JUMPI PUSH2 0x7AA PUSH2 0x1E06 JUMP JUMPDEST PUSH1 0x0 SWAP2 DUP3 MSTORE PUSH1 0x20 SWAP1 SWAP2 KECCAK256 PUSH1 0x4 SWAP1 SWAP2 MUL ADD PUSH1 0x2 DUP2 ADD SLOAD SWAP1 SWAP2 POP PUSH1 0xFF AND PUSH2 0x801 JUMPI PUSH1 0x40 MLOAD PUSH3 0x461BCD PUSH1 0xE5 SHL DUP2 MSTORE PUSH1 0x20 PUSH1 0x4 DUP3 ADD MSTORE PUSH1 0xD PUSH1 0x24 DUP3 ADD MSTORE PUSH13 0x139BDD0818DBDB5C1B195D1959 PUSH1 0x9A SHL PUSH1 0x44 DUP3 ADD MSTORE PUSH1 0x64 ADD PUSH2 0x5D1 JUMP JUMPDEST PUSH1 0x2 DUP2 ADD SLOAD PUSH2 0x100 SWAP1 DIV PUSH1 0xFF AND ISZERO PUSH2 0x84A JUMPI PUSH1 0x40 MLOAD PUSH3 0x461BCD PUSH1 0xE5 SHL DUP2 MSTORE PUSH1 0x20 PUSH1 0x4 DUP3 ADD MSTORE PUSH1 0xC PUSH1 0x24 DUP3 ADD MSTORE PUSH12 0x105B1C9958591E481C185A59 PUSH1 0xA2 SHL PUSH1 0x44 DUP3 ADD MSTORE PUSH1 0x64 ADD PUSH2 0x5D1 JUMP JUMPDEST PUSH1 0x2 DUP2 ADD DUP1 SLOAD PUSH2 0xFF00 NOT AND PUSH2 0x100 OR SWAP1 SSTORE PUSH1 0x1 DUP2 ADD SLOAD PUSH1 0x8 DUP1 SLOAD PUSH1 0x0 SWAP1 PUSH2 0x872 SWAP1 DUP5 SWAP1 PUSH2 0x1EA1 JUMP JUMPDEST SWAP3 POP POP DUP2 SWAP1 SSTORE POP PUSH1 0x0 PUSH2 0x2710 PUSH1 0xA SLOAD DUP4 PUSH1 0x1 ADD SLOAD PUSH2 0x890 SWAP2 SWAP1 PUSH2 0x1EB4 JUMP JUMPDEST PUSH2 0x89A SWAP2 SWAP1 PUSH2 0x1ECB JUMP JUMPDEST SWAP1 POP PUSH1 0x0 DUP2 DUP4 PUSH1 0x1 ADD SLOAD PUSH2 0x8AE SWAP2 SWAP1 PUSH2 0x1EA1 JUMP JUMPDEST PUSH1 0x9 SLOAD PUSH1 0x40 MLOAD SWAP2 SWAP3 POP PUSH1 0x0 SWAP2 PUSH1 0x1 PUSH1 0x1 PUSH1 0xA0 SHL SUB SWAP1 SWAP2 AND SWAP1 DUP5 SWAP1 DUP4 DUP2 DUP2 DUP2 DUP6 DUP8 GAS CALL SWAP3 POP POP POP RETURNDATASIZE DUP1 PUSH1 0x0 DUP2 EQ PUSH2 0x900 JUMPI PUSH1 0x40 MLOAD SWAP2 POP PUSH1 0x1F NOT PUSH1 0x3F RETURNDATASIZE ADD AND DUP3 ADD PUSH1 0x40 MSTORE RETURNDATASIZE DUP3 MSTORE RETURNDATASIZE PUSH1 0x0 PUSH1 0x20 DUP5 ADD RETURNDATACOPY PUSH2 0x905 JUMP JUMPDEST PUSH1 0x60 SWAP2 POP JUMPDEST POP POP SWAP1 POP DUP1 PUSH2 0x94C JUMPI PUSH1 0x40 MLOAD PUSH3 0x461BCD PUSH1 0xE5 SHL DUP2 MSTORE PUSH1 0x20 PUSH1 0x4 DUP3 ADD MSTORE PUSH1 0x13 PUSH1 0x24 DUP3 ADD MSTORE PUSH19 0x119959481D1C985B9CD9995C8819985A5B1959 PUSH1 0x6A SHL PUSH1 0x44 DUP3 ADD MSTORE PUSH1 0x64 ADD PUSH2 0x5D1 JUMP JUMPDEST PUSH1 0x0 PUSH32 0x0 PUSH1 0x1 PUSH1 0x1 PUSH1 0xA0 SHL SUB AND DUP4 PUSH1 0x40 MLOAD PUSH1 0x0 PUSH1 0x40 MLOAD DUP1 DUP4 SUB DUP2 DUP6 DUP8 GAS CALL SWAP3 POP POP POP RETURNDATASIZE DUP1 PUSH1 0x0 DUP2 EQ PUSH2 0x9B9 JUMPI PUSH1 0x40 MLOAD SWAP2 POP PUSH1 0x1F NOT PUSH1 0x3F RETURNDATASIZE ADD AND DUP3 ADD PUSH1 0x40 MSTORE RETURNDATASIZE DUP3 MSTORE RETURNDATASIZE PUSH1 0x0 PUSH1 0x20 DUP5 ADD RETURNDATACOPY PUSH2 0x9BE JUMP JUMPDEST PUSH1 0x60 SWAP2 POP JUMPDEST POP POP SWAP1 POP DUP1 PUSH2 0xA00 JUMPI PUSH1 0x40 MLOAD PUSH3 0x461BCD PUSH1 0xE5 SHL DUP2 MSTORE PUSH1 0x20 PUSH1 0x4 DUP3 ADD MSTORE PUSH1 0xE PUSH1 0x24 DUP3 ADD MSTORE PUSH14 0x14185E5B595B9D0819985A5B1959 PUSH1 0x92 SHL PUSH1 0x44 DUP3 ADD MSTORE PUSH1 0x64 ADD PUSH2 0x5D1 JUMP JUMPDEST DUP6 PUSH32 0x3AF368126E502ABC57FE61217A2E2FFC37E0753A9BC218AB9976A49A996E4449 DUP5 PUSH1 0x40 MLOAD PUSH2 0xA32 SWAP2 DUP2 MSTORE PUSH1 0x20 ADD SWAP1 JUMP JUMPDEST PUSH1 0x40 MLOAD DUP1 SWAP2 SUB SWAP1 LOG2 PUSH2 0xA42 PUSH2 0x1AD7 JUMP JUMPDEST ISZERO PUSH2 0xA7E JUMPI PUSH1 0x5 DUP1 SLOAD PUSH1 0xFF NOT AND PUSH1 0x2 OR SWAP1 SSTORE PUSH1 0x40 MLOAD PUSH32 0xBF1804DB3AF6B11F9D3CADCF0C65DF2BAD3A56D93C275062FDC655BEDF351F77 SWAP1 PUSH1 0x0 SWAP1 LOG1 JUMPDEST POP POP POP POP POP POP JUMP JUMPDEST CALLER PUSH1 0x1 PUSH1 0x1 PUSH1 0xA0 SHL SUB PUSH32 0x0 AND EQ DUP1 PUSH2 0xAE5 JUMPI POP CALLER PUSH1 0x1 PUSH1 0x1 PUSH1 0xA0 SHL SUB PUSH32 0x0 AND EQ JUMPDEST PUSH2 0xB1F JUMPI PUSH1 0x40 MLOAD PUSH3 0x461BCD PUSH1 0xE5 SHL DUP2 MSTORE PUSH1 0x20 PUSH1 0x4 DUP3 ADD MSTORE PUSH1 0xB PUSH1 0x24 DUP3 ADD MSTORE PUSH11 0x4E6F742061207061727479 PUSH1 0xA8 SHL PUSH1 0x44 DUP3 ADD MSTORE PUSH1 0x64 ADD PUSH2 0x5D1 JUMP JUMPDEST PUSH1 0x1 PUSH1 0x5 SLOAD PUSH1 0xFF AND PUSH1 0x6 DUP2 GT ISZERO PUSH2 0xB38 JUMPI PUSH2 0xB38 PUSH2 0x1B6C JUMP JUMPDEST EQ DUP1 PUSH2 0xB5A JUMPI POP PUSH1 0x0 PUSH1 0x5 SLOAD PUSH1 0xFF AND PUSH1 0x6 DUP2 GT ISZERO PUSH2 0xB58 JUMPI PUSH2 0xB58 PUSH2 0x1B6C JUMP JUMPDEST EQ JUMPDEST PUSH2 0xB97 JUMPI PUSH1 0x40 MLOAD PUSH3 0x461BCD PUSH1 0xE5 SHL DUP2 MSTORE PUSH1 0x20 PUSH1 0x4 DUP3 ADD MSTORE PUSH1 0xE PUSH1 0x24 DUP3 ADD MSTORE PUSH14 0x43616E6E6F742064697370757465 PUSH1 0x90 SHL PUSH1 0x44 DUP3 ADD MSTORE PUSH1 0x64 ADD PUSH2 0x5D1 JUMP JUMPDEST PUSH1 0x5 DUP1 SLOAD PUSH1 0xFF NOT AND PUSH1 0x3 OR SWAP1 SSTORE PUSH1 0xE PUSH2 0xBB1 DUP3 DUP5 DUP4 PUSH2 0x1F4E JUMP JUMPDEST POP TIMESTAMP PUSH1 0xF SSTORE PUSH1 0x40 MLOAD CALLER SWAP1 PUSH32 0x28B099EB575E23E32BECD7C30DC8F9B2F98E370CDBF9841EA3338D9000402A25 SWAP1 PUSH2 0xBEA SWAP1 DUP6 SWAP1 DUP6 SWAP1 PUSH2 0x2038 JUMP JUMPDEST PUSH1 0x40 MLOAD DUP1 SWAP2 SUB SWAP1 LOG2 POP POP JUMP JUMPDEST PUSH1 0xE DUP1 SLOAD PUSH2 0xC03 SWAP1 PUSH2 0x1E1C JUMP JUMPDEST DUP1 PUSH1 0x1F ADD PUSH1 0x20 DUP1 SWAP2 DIV MUL PUSH1 0x20 ADD PUSH1 0x40 MLOAD SWAP1 DUP2 ADD PUSH1 0x40 MSTORE DUP1 SWAP3 SWAP2 SWAP1 DUP2 DUP2 MSTORE PUSH1 0x20 ADD DUP3 DUP1 SLOAD PUSH2 0xC2F SWAP1 PUSH2 0x1E1C JUMP JUMPDEST DUP1 ISZERO PUSH2 0xC7C JUMPI DUP1 PUSH1 0x1F LT PUSH2 0xC51 JUMPI PUSH2 0x100 DUP1 DUP4 SLOAD DIV MUL DUP4 MSTORE SWAP2 PUSH1 0x20 ADD SWAP2 PUSH2 0xC7C JUMP JUMPDEST DUP3 ADD SWAP2 SWAP1 PUSH1 0x0 MSTORE PUSH1 0x20 PUSH1 0x0 KECCAK256 SWAP1 JUMPDEST DUP2 SLOAD DUP2 MSTORE SWAP1 PUSH1 0x1 ADD SWAP1 PUSH1 0x20 ADD DUP1 DUP4 GT PUSH2 0xC5F JUMPI DUP3 SWAP1 SUB PUSH1 0x1F AND DUP3 ADD SWAP2 JUMPDEST POP POP POP POP POP DUP2 JUMP JUMPDEST CALLER PUSH1 0x1 PUSH1 0x1 PUSH1 0xA0 SHL SUB PUSH32 0x0 AND EQ PUSH2 0xCEF JUMPI PUSH1 0x40 MLOAD PUSH3 0x461BCD PUSH1 0xE5 SHL DUP2 MSTORE PUSH1 0x20 PUSH1 0x4 DUP3 ADD MSTORE PUSH1 0x10 PUSH1 0x24 DUP3 ADD MSTORE PUSH16 0x4E6F7420636F756E7465727061727479 PUSH1 0x80 SHL PUSH1 0x44 DUP3 ADD MSTORE PUSH1 0x64 ADD PUSH2 0x5D1 JUMP JUMPDEST PUSH1 0x0 PUSH1 0x5 SLOAD PUSH1 0xFF AND PUSH1 0x6 DUP2 GT ISZERO PUSH2 0xD08 JUMPI PUSH2 0xD08 PUSH2 0x1B6C JUMP JUMPDEST EQ PUSH2 0xD43 JUMPI PUSH1 0x40 MLOAD PUSH3 0x461BCD PUSH1 0xE5 SHL DUP2 MSTORE PUSH1 0x20 PUSH1 0x4 DUP3 ADD MSTORE PUSH1 0xB PUSH1 0x24 DUP3 ADD MSTORE PUSH11 0x4E6F742070656E64696E67 PUSH1 0xA8 SHL PUSH1 0x44 DUP3 ADD MSTORE PUSH1 0x64 ADD PUSH2 0x5D1 JUMP JUMPDEST PUSH1 0x3 SLOAD TIMESTAMP LT PUSH2 0xD7E JUMPI PUSH1 0x40 MLOAD PUSH3 0x461BCD PUSH1 0xE5 SHL DUP2 MSTORE PUSH1 0x20 PUSH1 0x4 DUP3 ADD MSTORE PUSH1 0x7 PUSH1 0x24 DUP3 ADD MSTORE PUSH7 0x115E1C1A5C9959 PUSH1 0xCA SHL PUSH1 0x44 DUP3 ADD MSTORE PUSH1 0x64 ADD PUSH2 0x5D1 JUMP JUMPDEST PUSH32 0x0 PUSH1 0x1 PUSH1 0x1 PUSH1 0xA0 SHL SUB AND PUSH1 0x0 DUP2 DUP2 MSTORE PUSH1 0xB PUSH1 0x20 MSTORE PUSH1 0x40 DUP1 DUP3 KECCAK256 DUP1 SLOAD PUSH1 0x1 PUSH1 0xFF NOT SWAP2 DUP3 AND DUP2 OR SWAP1 SWAP3 SSTORE PUSH1 0x5 DUP1 SLOAD SWAP1 SWAP2 AND SWAP1 SWAP2 OR SWAP1 SSTORE MLOAD PUSH32 0x9F4A87E77DBAF5B55D5E6F62125B58988C5BEFB44FB876196DD62FFCA1362F21 SWAP2 SWAP1 LOG2 PUSH1 0x40 MLOAD PUSH32 0x47C82A599A82344A17A0B9FEFDA032175048E76D1D1BDF41E8BC686480FF204C SWAP1 PUSH1 0x0 SWAP1 LOG1 JUMP JUMPDEST CALLER PUSH1 0x1 PUSH1 0x1 PUSH1 0xA0 SHL SUB PUSH32 0x0 AND EQ PUSH2 0xE6A JUMPI PUSH1 0x40 MLOAD PUSH3 0x461BCD PUSH1 0xE5 SHL DUP2 MSTORE PUSH1 0x4 ADD PUSH2 0x5D1 SWAP1 PUSH2 0x1E56 JUMP JUMPDEST PUSH1 0x1 PUSH1 0x5 SLOAD PUSH1 0xFF AND PUSH1 0x6 DUP2 GT ISZERO PUSH2 0xE83 JUMPI PUSH2 0xE83 PUSH2 0x1B6C JUMP JUMPDEST EQ PUSH2 0xEA0 JUMPI PUSH1 0x40 MLOAD PUSH3 0x461BCD PUSH1 0xE5 SHL DUP2 MSTORE PUSH1 0x4 ADD PUSH2 0x5D1 SWAP1 PUSH2 0x1E7D JUMP JUMPDEST PUSH1 0x8 SLOAD DUP2 GT ISZERO PUSH2 0xEE9 JUMPI PUSH1 0x40 MLOAD PUSH3 0x461BCD PUSH1 0xE5 SHL DUP2 MSTORE PUSH1 0x20 PUSH1 0x4 DUP3 ADD MSTORE PUSH1 0x14 PUSH1 0x24 DUP3 ADD MSTORE PUSH20 0x496E73756666696369656E742062616C616E6365 PUSH1 0x60 SHL PUSH1 0x44 DUP3 ADD MSTORE PUSH1 0x64 ADD PUSH2 0x5D1 JUMP JUMPDEST PUSH1 0x40 DUP1 MLOAD PUSH1 0xC0 PUSH1 0x20 PUSH1 0x1F DUP7 ADD DUP2 SWAP1 DIV MUL DUP3 ADD DUP2 ADD SWAP1 SWAP3 MSTORE PUSH1 0xA0 DUP2 ADD DUP5 DUP2 MSTORE PUSH1 0x6 SWAP3 DUP3 SWAP2 SWAP1 DUP8 SWAP1 DUP8 SWAP1 DUP2 SWAP1 DUP6 ADD DUP4 DUP3 DUP1 DUP3 DUP5 CALLDATACOPY PUSH1 0x0 SWAP3 ADD DUP3 SWAP1 MSTORE POP SWAP4 DUP6 MSTORE POP POP POP PUSH1 0x20 DUP1 DUP4 ADD DUP7 SWAP1 MSTORE PUSH1 0x40 DUP4 ADD DUP3 SWAP1 MSTORE PUSH1 0x60 DUP4 ADD DUP3 SWAP1 MSTORE PUSH1 0x80 SWAP1 SWAP3 ADD DUP2 SWAP1 MSTORE DUP4 SLOAD PUSH1 0x1 DUP2 ADD DUP6 SSTORE SWAP4 DUP2 MSTORE KECCAK256 DUP2 MLOAD SWAP2 SWAP3 PUSH1 0x4 MUL ADD SWAP1 DUP2 SWAP1 PUSH2 0xF68 SWAP1 DUP3 PUSH2 0x2054 JUMP JUMPDEST POP PUSH1 0x20 DUP3 ADD MLOAD PUSH1 0x1 DUP3 ADD SSTORE PUSH1 0x40 DUP3 ADD MLOAD PUSH1 0x2 DUP3 ADD DUP1 SLOAD PUSH1 0x60 DUP6 ADD MLOAD ISZERO ISZERO PUSH2 0x100 MUL PUSH2 0xFF00 NOT SWAP4 ISZERO ISZERO SWAP4 SWAP1 SWAP4 AND PUSH2 0xFFFF NOT SWAP1 SWAP2 AND OR SWAP2 SWAP1 SWAP2 OR SWAP1 SSTORE PUSH1 0x80 SWAP1 SWAP2 ADD MLOAD PUSH1 0x3 SWAP1 SWAP2 ADD SSTORE PUSH1 0x7 DUP1 SLOAD DUP3 SWAP2 SWAP1 PUSH1 0x0 SWAP1 PUSH2 0xFC3 SWAP1 DUP5 SWAP1 PUSH2 0x1B53 JUMP JUMPDEST SWAP1 SWAP2 SSTORE POP POP PUSH1 0x6 SLOAD PUSH2 0xFD7 SWAP1 PUSH1 0x1 SWAP1 PUSH2 0x1EA1 JUMP JUMPDEST PUSH32 0xBF293DB00F4DE65B181A066ECC2F8BB81FB7174B517FD8085700E259AD00DB1B DUP5 DUP5 DUP5 PUSH1 0x40 MLOAD PUSH2 0x100A SWAP4 SWAP3 SWAP2 SWAP1 PUSH2 0x2114 JUMP JUMPDEST PUSH1 0x40 MLOAD DUP1 SWAP2 SUB SWAP1 LOG2 POP POP POP JUMP JUMPDEST PUSH1 0x1 PUSH1 0x5 SLOAD PUSH1 0xFF AND PUSH1 0x6 DUP2 GT ISZERO PUSH2 0x1030 JUMPI PUSH2 0x1030 PUSH2 0x1B6C JUMP JUMPDEST EQ PUSH2 0x104D JUMPI PUSH1 0x40 MLOAD PUSH3 0x461BCD PUSH1 0xE5 SHL DUP2 MSTORE PUSH1 0x4 ADD PUSH2 0x5D1 SWAP1 PUSH2 0x1E7D JUMP JUMPDEST PUSH1 0x6 SLOAD DUP2 LT PUSH2 0x1092 JUMPI PUSH1 0x40 MLOAD PUSH3 0x461BCD PUSH1 0xE5 SHL DUP2 MSTORE PUSH1 0x20 PUSH1 0x4 DUP3 ADD MSTORE PUSH1 0x11 PUSH1 0x24 DUP3 ADD MSTORE PUSH17 0x496E76616C6964206D696C6573746F6E65 PUSH1 0x78 SHL PUSH1 0x44 DUP3 ADD MSTORE PUSH1 0x64 ADD PUSH2 0x5D1 JUMP JUMPDEST PUSH1 0x0 PUSH1 0x6 DUP3 DUP2 SLOAD DUP2 LT PUSH2 0x10A7 JUMPI PUSH2 0x10A7 PUSH2 0x1E06 JUMP JUMPDEST PUSH1 0x0 SWAP2 DUP3 MSTORE PUSH1 0x20 SWAP1 SWAP2 KECCAK256 PUSH1 0x4 SWAP1 SWAP2 MUL ADD PUSH1 0x2 DUP2 ADD SLOAD SWAP1 SWAP2 POP PUSH1 0xFF AND ISZERO PUSH2 0x1103 JUMPI PUSH1 0x40 MLOAD PUSH3 0x461BCD PUSH1 0xE5 SHL DUP2 MSTORE PUSH1 0x20 PUSH1 0x4 DUP3 ADD MSTORE PUSH1 0x11 PUSH1 0x24 DUP3 ADD MSTORE PUSH17 0x105B1C9958591E4818DBDB5C1B195D1959 PUSH1 0x7A SHL PUSH1 0x44 DUP3 ADD MSTORE PUSH1 0x64 ADD PUSH2 0x5D1 JUMP JUMPDEST PUSH1 0x2 DUP2 ADD DUP1 SLOAD PUSH1 0xFF NOT AND PUSH1 0x1 OR SWAP1 SSTORE TIMESTAMP PUSH1 0x3 DUP3 ADD SSTORE PUSH1 0x40 MLOAD CALLER SWAP1 DUP4 SWAP1 PUSH32 0x32F77B843A5CC848407FFB1E918C51FD6982FBFD1ADF0B60F45C6D7BB54068A SWAP1 PUSH1 0x0 SWAP1 LOG3 POP POP JUMP JUMPDEST CALLER PUSH1 0x1 PUSH1 0x1 PUSH1 0xA0 SHL SUB PUSH32 0x0 AND EQ DUP1 PUSH2 0x11A8 JUMPI POP CALLER PUSH1 0x1 PUSH1 0x1 PUSH1 0xA0 SHL SUB PUSH32 0x0 AND EQ JUMPDEST PUSH2 0x11E2 JUMPI PUSH1 0x40 MLOAD PUSH3 0x461BCD PUSH1 0xE5 SHL DUP2 MSTORE PUSH1 0x20 PUSH1 0x4 DUP3 ADD MSTORE PUSH1 0xB PUSH1 0x24 DUP3 ADD MSTORE PUSH11 0x4E6F742061207061727479 PUSH1 0xA8 SHL PUSH1 0x44 DUP3 ADD MSTORE PUSH1 0x64 ADD PUSH2 0x5D1 JUMP JUMPDEST PUSH1 0x1 PUSH1 0x5 SLOAD PUSH1 0xFF AND PUSH1 0x6 DUP2 GT ISZERO PUSH2 0x11FB JUMPI PUSH2 0x11FB PUSH2 0x1B6C JUMP JUMPDEST EQ PUSH2 0x1218 JUMPI PUSH1 0x40 MLOAD PUSH3 0x461BCD PUSH1 0xE5 SHL DUP2 MSTORE PUSH1 0x4 ADD PUSH2 0x5D1 SWAP1 PUSH2 0x1E7D JUMP JUMPDEST PUSH1 0x3 SLOAD TIMESTAMP GT PUSH2 0x125B JUMPI PUSH1 0x40 MLOAD PUSH3 0x461BCD PUSH1 0xE5 SHL DUP2 MSTORE PUSH1 0x20 PUSH1 0x4 DUP3 ADD MSTORE PUSH1 0xF PUSH1 0x24 DUP3 ADD MSTORE PUSH15 0x139BDD08195E1C1A5C9959081E595D PUSH1 0x8A SHL PUSH1 0x44 DUP3 ADD MSTORE PUSH1 0x64 ADD PUSH2 0x5D1 JUMP JUMPDEST PUSH1 0x5 DUP1 SLOAD PUSH1 0xFF NOT AND PUSH1 0x6 OR SWAP1 SSTORE PUSH1 0x8 SLOAD ISZERO PUSH2 0x132E JUMPI PUSH1 0x8 DUP1 SLOAD PUSH1 0x0 SWAP2 DUP3 SWAP1 SSTORE PUSH1 0x40 MLOAD SWAP1 SWAP2 SWAP1 PUSH1 0x1 PUSH1 0x1 PUSH1 0xA0 SHL SUB PUSH32 0x0 AND SWAP1 DUP4 SWAP1 DUP4 DUP2 DUP2 DUP2 DUP6 DUP8 GAS CALL SWAP3 POP POP POP RETURNDATASIZE DUP1 PUSH1 0x0 DUP2 EQ PUSH2 0x12E5 JUMPI PUSH1 0x40 MLOAD SWAP2 POP PUSH1 0x1F NOT PUSH1 0x3F RETURNDATASIZE ADD AND DUP3 ADD PUSH1 0x40 MSTORE RETURNDATASIZE DUP3 MSTORE RETURNDATASIZE PUSH1 0x0 PUSH1 0x20 DUP5 ADD RETURNDATACOPY PUSH2 0x12EA JUMP JUMPDEST PUSH1 0x60 SWAP2 POP JUMPDEST POP POP SWAP1 POP DUP1 PUSH2 0x132B JUMPI PUSH1 0x40 MLOAD PUSH3 0x461BCD PUSH1 0xE5 SHL DUP2 MSTORE PUSH1 0x20 PUSH1 0x4 DUP3 ADD MSTORE PUSH1 0xD PUSH1 0x24 DUP3 ADD MSTORE PUSH13 0x1499599D5B990819985A5B1959 PUSH1 0x9A SHL PUSH1 0x44 DUP3 ADD MSTORE PUSH1 0x64 ADD PUSH2 0x5D1 JUMP JUMPDEST POP POP JUMPDEST CALLER PUSH1 0x1 PUSH1 0x1 PUSH1 0xA0 SHL SUB AND PUSH32 0x76B5660C2BD01BAE8E3DB371287BD828EE6A8A490398F7AC405273035E637973 DUP4 DUP4 PUSH1 0x40 MLOAD PUSH2 0xBEA SWAP3 SWAP2 SWAP1 PUSH2 0x2038 JUMP JUMPDEST PUSH1 0x3 PUSH1 0x5 SLOAD PUSH1 0xFF AND PUSH1 0x6 DUP2 GT ISZERO PUSH2 0x1382 JUMPI PUSH2 0x1382 PUSH2 0x1B6C JUMP JUMPDEST EQ PUSH2 0x13BE JUMPI PUSH1 0x40 MLOAD PUSH3 0x461BCD PUSH1 0xE5 SHL DUP2 MSTORE PUSH1 0x20 PUSH1 0x4 DUP3 ADD MSTORE PUSH1 0xC PUSH1 0x24 DUP3 ADD MSTORE PUSH12 0x139BDD08191A5CDC1D5D1959 PUSH1 0xA2 SHL PUSH1 0x44 DUP3 ADD MSTORE PUSH1 0x64 ADD PUSH2 0x5D1 JUMP JUMPDEST PUSH1 0x8 SLOAD PUSH2 0x13CB DUP3 DUP5 PUSH2 0x1B53 JUMP JUMPDEST GT ISZERO PUSH2 0x1411 JUMPI PUSH1 0x40 MLOAD PUSH3 0x461BCD PUSH1 0xE5 SHL DUP2 MSTORE PUSH1 0x20 PUSH1 0x4 DUP3 ADD MSTORE PUSH1 0x15 PUSH1 0x24 DUP3 ADD MSTORE PUSH21 0x417761726473206578636565642062616C616E6365 PUSH1 0x58 SHL PUSH1 0x44 DUP3 ADD MSTORE PUSH1 0x64 ADD PUSH2 0x5D1 JUMP JUMPDEST PUSH1 0x5 DUP1 SLOAD PUSH1 0xFF NOT AND PUSH1 0x4 OR SWAP1 SSTORE PUSH1 0xD DUP1 SLOAD CALLER PUSH1 0x1 PUSH1 0x1 PUSH1 0xA0 SHL SUB NOT SWAP1 SWAP2 AND OR SWAP1 SSTORE DUP2 ISZERO PUSH2 0x150B JUMPI DUP2 PUSH1 0x8 PUSH1 0x0 DUP3 DUP3 SLOAD PUSH2 0x144A SWAP2 SWAP1 PUSH2 0x1EA1 JUMP JUMPDEST SWAP1 SWAP2 SSTORE POP POP PUSH1 0x40 MLOAD PUSH1 0x0 SWAP1 PUSH1 0x1 PUSH1 0x1 PUSH1 0xA0 SHL SUB PUSH32 0x0 AND SWAP1 DUP5 SWAP1 DUP4 DUP2 DUP2 DUP2 DUP6 DUP8 GAS CALL SWAP3 POP POP POP RETURNDATASIZE DUP1 PUSH1 0x0 DUP2 EQ PUSH2 0x14BA JUMPI PUSH1 0x40 MLOAD SWAP2 POP PUSH1 0x1F NOT PUSH1 0x3F RETURNDATASIZE ADD AND DUP3 ADD PUSH1 0x40 MSTORE RETURNDATASIZE DUP3 MSTORE RETURNDATASIZE PUSH1 0x0 PUSH1 0x20 DUP5 ADD RETURNDATACOPY PUSH2 0x14BF JUMP JUMPDEST PUSH1 0x60 SWAP2 POP JUMPDEST POP POP SWAP1 POP DUP1 PUSH2 0x1509 JUMPI PUSH1 0x40 MLOAD PUSH3 0x461BCD PUSH1 0xE5 SHL DUP2 MSTORE PUSH1 0x20 PUSH1 0x4 DUP3 ADD MSTORE PUSH1 0x16 PUSH1 0x24 DUP3 ADD MSTORE PUSH22 0x125B9A5D1A585D1BDC88185DD85C990819985A5B1959 PUSH1 0x52 SHL PUSH1 0x44 DUP3 ADD MSTORE PUSH1 0x64 ADD PUSH2 0x5D1 JUMP JUMPDEST POP JUMPDEST DUP1 ISZERO PUSH2 0x15EB JUMPI DUP1 PUSH1 0x8 PUSH1 0x0 DUP3 DUP3 SLOAD PUSH2 0x1523 SWAP2 SWAP1 PUSH2 0x1EA1 JUMP JUMPDEST SWAP1 SWAP2 SSTORE POP POP PUSH1 0x40 MLOAD PUSH1 0x0 SWAP1 PUSH1 0x1 PUSH1 0x1 PUSH1 0xA0 SHL SUB PUSH32 0x0 AND SWAP1 DUP4 SWAP1 DUP4 DUP2 DUP2 DUP2 DUP6 DUP8 GAS CALL SWAP3 POP POP POP RETURNDATASIZE DUP1 PUSH1 0x0 DUP2 EQ PUSH2 0x1593 JUMPI PUSH1 0x40 MLOAD SWAP2 POP PUSH1 0x1F NOT PUSH1 0x3F RETURNDATASIZE ADD AND DUP3 ADD PUSH1 0x40 MSTORE RETURNDATASIZE DUP3 MSTORE RETURNDATASIZE PUSH1 0x0 PUSH1 0x20 DUP5 ADD RETURNDATACOPY PUSH2 0x1598 JUMP JUMPDEST PUSH1 0x60 SWAP2 POP JUMPDEST POP POP SWAP1 POP DUP1 PUSH2 0x15E9 JUMPI PUSH1 0x40 MLOAD PUSH3 0x461BCD PUSH1 0xE5 SHL DUP2 MSTORE PUSH1 0x20 PUSH1 0x4 DUP3 ADD MSTORE PUSH1 0x19 PUSH1 0x24 DUP3 ADD MSTORE PUSH32 0x436F756E7465727061727479206177617264206661696C656400000000000000 PUSH1 0x44 DUP3 ADD MSTORE PUSH1 0x64 ADD PUSH2 0x5D1 JUMP JUMPDEST POP JUMPDEST PUSH1 0x8 SLOAD ISZERO PUSH2 0x16B1 JUMPI PUSH1 0x8 DUP1 SLOAD PUSH1 0x0 SWAP2 DUP3 SWAP1 SSTORE PUSH1 0x40 MLOAD SWAP1 SWAP2 SWAP1 PUSH1 0x1 PUSH1 0x1 PUSH1 0xA0 SHL SUB PUSH32 0x0 AND SWAP1 DUP4 SWAP1 DUP4 DUP2 DUP2 DUP2 DUP6 DUP8 GAS CALL SWAP3 POP POP POP RETURNDATASIZE DUP1 PUSH1 0x0 DUP2 EQ PUSH2 0x1668 JUMPI PUSH1 0x40 MLOAD SWAP2 POP PUSH1 0x1F NOT PUSH1 0x3F RETURNDATASIZE ADD AND DUP3 ADD PUSH1 0x40 MSTORE RETURNDATASIZE DUP3 MSTORE RETURNDATASIZE PUSH1 0x0 PUSH1 0x20 DUP5 ADD RETURNDATACOPY PUSH2 0x166D JUMP JUMPDEST PUSH1 0x60 SWAP2 POP JUMPDEST POP POP SWAP1 POP DUP1 PUSH2 0x16AE JUMPI PUSH1 0x40 MLOAD PUSH3 0x461BCD PUSH1 0xE5 SHL DUP2 MSTORE PUSH1 0x20 PUSH1 0x4 DUP3 ADD MSTORE PUSH1 0xD PUSH1 0x24 DUP3 ADD MSTORE PUSH13 0x1499599D5B990819985A5B1959 PUSH1 0x9A SHL PUSH1 0x44 DUP3 ADD MSTORE PUSH1 0x64 ADD PUSH2 0x5D1 JUMP JUMPDEST POP POP JUMPDEST PUSH1 0x40 DUP1 MLOAD DUP4 DUP2 MSTORE PUSH1 0x20 DUP2 ADD DUP4 SWAP1 MSTORE CALLER SWAP2 PUSH32 0xD45D961E06565B8DD3D1DA8AA5D6BDF1EA1253EBF46C31573E5ACD0125F24326 SWAP2 ADD PUSH2 0xBEA JUMP JUMPDEST PUSH1 0x0 DUP1 SLOAD PUSH1 0x1 DUP1 SLOAD SWAP2 SWAP3 SWAP2 PUSH2 0x16FD SWAP1 PUSH2 0x1E1C JUMP JUMPDEST DUP1 PUSH1 0x1F ADD PUSH1 0x20 DUP1 SWAP2 DIV MUL PUSH1 0x20 ADD PUSH1 0x40 MLOAD SWAP1 DUP2 ADD PUSH1 0x40 MSTORE DUP1 SWAP3 SWAP2 SWAP1 DUP2 DUP2 MSTORE PUSH1 0x20 ADD DUP3 DUP1 SLOAD PUSH2 0x1729 SWAP1 PUSH2 0x1E1C JUMP JUMPDEST DUP1 ISZERO PUSH2 0x1776 JUMPI DUP1 PUSH1 0x1F LT PUSH2 0x174B JUMPI PUSH2 0x100 DUP1 DUP4 SLOAD DIV MUL DUP4 MSTORE SWAP2 PUSH1 0x20 ADD SWAP2 PUSH2 0x1776 JUMP JUMPDEST DUP3 ADD SWAP2 SWAP1 PUSH1 0x0 MSTORE PUSH1 0x20 PUSH1 0x0 KECCAK256 SWAP1 JUMPDEST DUP2 SLOAD DUP2 MSTORE SWAP1 PUSH1 0x1 ADD SWAP1 PUSH1 0x20 ADD DUP1 DUP4 GT PUSH2 0x1759 JUMPI DUP3 SWAP1 SUB PUSH1 0x1F AND DUP3 ADD SWAP2 JUMPDEST POP POP POP POP POP SWAP1 DUP1 PUSH1 0x2 ADD SLOAD SWAP1 DUP1 PUSH1 0x3 ADD SLOAD SWAP1 DUP1 PUSH1 0x4 ADD SLOAD SWAP1 POP DUP6 JUMP JUMPDEST PUSH1 0x3 SLOAD PUSH1 0x0 SWAP1 TIMESTAMP LT PUSH2 0x17A4 JUMPI POP PUSH1 0x0 SWAP1 JUMP JUMPDEST PUSH1 0x3 SLOAD PUSH2 0x17B2 SWAP1 TIMESTAMP SWAP1 PUSH2 0x1EA1 JUMP JUMPDEST SWAP1 POP SWAP1 JUMP JUMPDEST PUSH1 0x6 DUP2 DUP2 SLOAD DUP2 LT PUSH2 0x17C7 JUMPI PUSH1 0x0 DUP1 REVERT JUMPDEST SWAP1 PUSH1 0x0 MSTORE PUSH1 0x20 PUSH1 0x0 KECCAK256 SWAP1 PUSH1 0x4 MUL ADD PUSH1 0x0 SWAP2 POP SWAP1 POP DUP1 PUSH1 0x0 ADD DUP1 SLOAD PUSH2 0x17EA SWAP1 PUSH2 0x1E1C JUMP JUMPDEST DUP1 PUSH1 0x1F ADD PUSH1 0x20 DUP1 SWAP2 DIV MUL PUSH1 0x20 ADD PUSH1 0x40 MLOAD SWAP1 DUP2 ADD PUSH1 0x40 MSTORE DUP1 SWAP3 SWAP2 SWAP1 DUP2 DUP2 MSTORE PUSH1 0x20 ADD DUP3 DUP1 SLOAD PUSH2 0x1816 SWAP1 PUSH2 0x1E1C JUMP JUMPDEST DUP1 ISZERO PUSH2 0x1863 JUMPI DUP1 PUSH1 0x1F LT PUSH2 0x1838 JUMPI PUSH2 0x100 DUP1 DUP4 SLOAD DIV MUL DUP4 MSTORE SWAP2 PUSH1 0x20 ADD SWAP2 PUSH2 0x1863 JUMP JUMPDEST DUP3 ADD SWAP2 SWAP1 PUSH1 0x0 MSTORE PUSH1 0x20 PUSH1 0x0 KECCAK256 SWAP1 JUMPDEST DUP2 SLOAD DUP2 MSTORE SWAP1 PUSH1 0x1 ADD SWAP1 PUSH1 0x20 ADD DUP1 DUP4 GT PUSH2 0x1846 JUMPI DUP3 SWAP1 SUB PUSH1 0x1F AND DUP3 ADD SWAP2 JUMPDEST POP POP POP PUSH1 0x1 DUP5 ADD SLOAD PUSH1 0x2 DUP6 ADD SLOAD PUSH1 0x3 SWAP1 SWAP6 ADD SLOAD SWAP4 SWAP5 SWAP1 SWAP4 PUSH1 0xFF DUP1 DUP4 AND SWAP5 POP PUSH2 0x100 SWAP1 SWAP3 DIV SWAP1 SWAP2 AND SWAP2 POP DUP6 JUMP JUMPDEST CALLER PUSH1 0x1 PUSH1 0x1 PUSH1 0xA0 SHL SUB PUSH32 0x0 AND EQ PUSH2 0x18D7 JUMPI PUSH1 0x40 MLOAD PUSH3 0x461BCD PUSH1 0xE5 SHL DUP2 MSTORE PUSH1 0x4 ADD PUSH2 0x5D1 SWAP1 PUSH2 0x1E56 JUMP JUMPDEST PUSH1 0x5 DUP1 SLOAD PUSH1 0xFF AND PUSH1 0x6 DUP2 GT ISZERO PUSH2 0x18EF JUMPI PUSH2 0x18EF PUSH2 0x1B6C JUMP JUMPDEST EQ DUP1 PUSH2 0x1911 JUMPI POP PUSH1 0x6 PUSH1 0x5 SLOAD PUSH1 0xFF AND PUSH1 0x6 DUP2 GT ISZERO PUSH2 0x190F JUMPI PUSH2 0x190F PUSH2 0x1B6C JUMP JUMPDEST EQ JUMPDEST DUP1 PUSH2 0x1932 JUMPI POP PUSH1 0x2 PUSH1 0x5 SLOAD PUSH1 0xFF AND PUSH1 0x6 DUP2 GT ISZERO PUSH2 0x1930 JUMPI PUSH2 0x1930 PUSH2 0x1B6C JUMP JUMPDEST EQ JUMPDEST DUP1 PUSH2 0x193E JUMPI POP PUSH1 0x3 SLOAD TIMESTAMP GT JUMPDEST PUSH2 0x1980 JUMPI PUSH1 0x40 MLOAD PUSH3 0x461BCD PUSH1 0xE5 SHL DUP2 MSTORE PUSH1 0x20 PUSH1 0x4 DUP3 ADD MSTORE PUSH1 0x13 PUSH1 0x24 DUP3 ADD MSTORE PUSH19 0x10D85B9B9BDD081DDA5D1A191C985DC81E595D PUSH1 0x6A SHL PUSH1 0x44 DUP3 ADD MSTORE PUSH1 0x64 ADD PUSH2 0x5D1 JUMP JUMPDEST PUSH1 0x0 PUSH1 0x8 SLOAD GT PUSH2 0x19BF JUMPI PUSH1 0x40 MLOAD PUSH3 0x461BCD PUSH1 0xE5 SHL DUP2 MSTORE PUSH1 0x20 PUSH1 0x4 DUP3 ADD MSTORE PUSH1 0xA PUSH1 0x24 DUP3 ADD MSTORE PUSH10 0x4E6F2062616C616E6365 PUSH1 0xB0 SHL PUSH1 0x44 DUP3 ADD MSTORE PUSH1 0x64 ADD PUSH2 0x5D1 JUMP JUMPDEST PUSH1 0x8 DUP1 SLOAD PUSH1 0x0 SWAP2 DUP3 SWAP1 SSTORE PUSH1 0x40 MLOAD SWAP1 SWAP2 SWAP1 PUSH1 0x1 PUSH1 0x1 PUSH1 0xA0 SHL SUB PUSH32 0x0 AND SWAP1 DUP4 SWAP1 DUP4 DUP2 DUP2 DUP2 DUP6 DUP8 GAS CALL SWAP3 POP POP POP RETURNDATASIZE DUP1 PUSH1 0x0 DUP2 EQ PUSH2 0x1A34 JUMPI PUSH1 0x40 MLOAD SWAP2 POP PUSH1 0x1F NOT PUSH1 0x3F RETURNDATASIZE ADD AND DUP3 ADD PUSH1 0x40 MSTORE RETURNDATASIZE DUP3 MSTORE RETURNDATASIZE PUSH1 0x0 PUSH1 0x20 DUP5 ADD RETURNDATACOPY PUSH2 0x1A39 JUMP JUMPDEST PUSH1 0x60 SWAP2 POP JUMPDEST POP POP SWAP1 POP DUP1 PUSH2 0x1A7C JUMPI PUSH1 0x40 MLOAD PUSH3 0x461BCD PUSH1 0xE5 SHL DUP2 MSTORE PUSH1 0x20 PUSH1 0x4 DUP3 ADD MSTORE PUSH1 0xF PUSH1 0x24 DUP3 ADD MSTORE PUSH15 0x15DA5D1A191C985DC819985A5B1959 PUSH1 0x8A SHL PUSH1 0x44 DUP3 ADD MSTORE PUSH1 0x64 ADD PUSH2 0x5D1 JUMP JUMPDEST PUSH32 0x0 PUSH1 0x1 PUSH1 0x1 PUSH1 0xA0 SHL SUB AND PUSH32 0xEAFF4B37086828766AD3268786972C0CD24259D4C87A80F9D3963A3C3D999B0D DUP4 PUSH1 0x40 MLOAD PUSH2 0xBEA SWAP2 DUP2 MSTORE PUSH1 0x20 ADD SWAP1 JUMP JUMPDEST PUSH1 0x0 DUP1 JUMPDEST PUSH1 0x6 SLOAD DUP2 LT ISZERO PUSH2 0x1B35 JUMPI PUSH1 0x6 DUP2 DUP2 SLOAD DUP2 LT PUSH2 0x1AF8 JUMPI PUSH2 0x1AF8 PUSH2 0x1E06 JUMP JUMPDEST SWAP1 PUSH1 0x0 MSTORE PUSH1 0x20 PUSH1 0x0 KECCAK256 SWAP1 PUSH1 0x4 MUL ADD PUSH1 0x2 ADD PUSH1 0x1 SWAP1 SLOAD SWAP1 PUSH2 0x100 EXP SWAP1 DIV PUSH1 0xFF AND PUSH2 0x1B23 JUMPI PUSH1 0x0 SWAP2 POP POP SWAP1 JUMP JUMPDEST DUP1 PUSH2 0x1B2D DUP2 PUSH2 0x2138 JUMP JUMPDEST SWAP2 POP POP PUSH2 0x1ADB JUMP JUMPDEST POP PUSH1 0x1 SWAP1 POP SWAP1 JUMP JUMPDEST PUSH4 0x4E487B71 PUSH1 0xE0 SHL PUSH1 0x0 MSTORE PUSH1 0x11 PUSH1 0x4 MSTORE PUSH1 0x24 PUSH1 0x0 REVERT JUMPDEST DUP1 DUP3 ADD DUP1 DUP3 GT ISZERO PUSH2 0x1B66 JUMPI PUSH2 0x1B66 PUSH2 0x1B3D JUMP JUMPDEST SWAP3 SWAP2 POP POP JUMP JUMPDEST PUSH4 0x4E487B71 PUSH1 0xE0 SHL PUSH1 0x0 MSTORE PUSH1 0x21 PUSH1 0x4 MSTORE PUSH1 0x24 PUSH1 0x0 REVERT JUMPDEST PUSH1 0x20 DUP2 ADD PUSH1 0x7 DUP4 LT PUSH2 0x1BA4 JUMPI PUSH4 0x4E487B71 PUSH1 0xE0 SHL PUSH1 0x0 MSTORE PUSH1 0x21 PUSH1 0x4 MSTORE PUSH1 0x24 PUSH1 0x0 REVERT JUMPDEST SWAP2 SWAP1 MSTORE SWAP1 JUMP JUMPDEST PUSH1 0x0 PUSH1 0x20 DUP3 DUP5 SUB SLT ISZERO PUSH2 0x1BBC JUMPI PUSH1 0x0 DUP1 REVERT JUMPDEST POP CALLDATALOAD SWAP2 SWAP1 POP JUMP JUMPDEST PUSH1 0x0 DUP2 MLOAD DUP1 DUP5 MSTORE PUSH1 0x0 JUMPDEST DUP2 DUP2 LT ISZERO PUSH2 0x1BE9 JUMPI PUSH1 0x20 DUP2 DUP6 ADD DUP2 ADD MLOAD DUP7 DUP4 ADD DUP3 ADD MSTORE ADD PUSH2 0x1BCD JUMP JUMPDEST POP PUSH1 0x0 PUSH1 0x20 DUP3 DUP7 ADD ADD MSTORE PUSH1 0x20 PUSH1 0x1F NOT PUSH1 0x1F DUP4 ADD AND DUP6 ADD ADD SWAP2 POP POP SWAP3 SWAP2 POP POP JUMP JUMPDEST PUSH1 0x20 DUP2 MSTORE PUSH1 0x0 DUP3 MLOAD PUSH1 0xA0 PUSH1 0x20 DUP5 ADD MSTORE PUSH2 0x1C25 PUSH1 0xC0 DUP5 ADD DUP3 PUSH2 0x1BC3 JUMP JUMPDEST SWAP1 POP PUSH1 0x20 DUP5 ADD MLOAD PUSH1 0x40 DUP5 ADD MSTORE PUSH1 0x40 DUP5 ADD MLOAD ISZERO ISZERO PUSH1 0x60 DUP5 ADD MSTORE PUSH1 0x60 DUP5 ADD MLOAD ISZERO ISZERO PUSH1 0x80 DUP5 ADD MSTORE PUSH1 0x80 DUP5 ADD MLOAD PUSH1 0xA0 DUP5 ADD MSTORE DUP1 SWAP2 POP POP SWAP3 SWAP2 POP POP JUMP JUMPDEST PUSH1 0x0 PUSH1 0x20 DUP3 DUP5 SUB SLT ISZERO PUSH2 0x1C6F JUMPI PUSH1 0x0 DUP1 REVERT JUMPDEST DUP2 CALLDATALOAD PUSH1 0x1 PUSH1 0x1 PUSH1 0xA0 SHL SUB DUP2 AND DUP2 EQ PUSH2 0x1C86 JUMPI PUSH1 0x0 DUP1 REVERT JUMPDEST SWAP4 SWAP3 POP POP POP JUMP JUMPDEST PUSH1 0x0 DUP1 DUP4 PUSH1 0x1F DUP5 ADD SLT PUSH2 0x1C9F JUMPI PUSH1 0x0 DUP1 REVERT JUMPDEST POP DUP2 CALLDATALOAD PUSH8 0xFFFFFFFFFFFFFFFF DUP2 GT ISZERO PUSH2 0x1CB7 JUMPI PUSH1 0x0 DUP1 REVERT JUMPDEST PUSH1 0x20 DUP4 ADD SWAP2 POP DUP4 PUSH1 0x20 DUP3 DUP6 ADD ADD GT ISZERO PUSH2 0x1CCF JUMPI PUSH1 0x0 DUP1 REVERT JUMPDEST SWAP3 POP SWAP3 SWAP1 POP JUMP JUMPDEST PUSH1 0x0 DUP1 PUSH1 0x20 DUP4 DUP6 SUB SLT ISZERO PUSH2 0x1CE9 JUMPI PUSH1 0x0 DUP1 REVERT JUMPDEST DUP3 CALLDATALOAD PUSH8 0xFFFFFFFFFFFFFFFF DUP2 GT ISZERO PUSH2 0x1D00 JUMPI PUSH1 0x0 DUP1 REVERT JUMPDEST PUSH2 0x1D0C DUP6 DUP3 DUP7 ADD PUSH2 0x1C8D JUMP JUMPDEST SWAP1 SWAP7 SWAP1 SWAP6 POP SWAP4 POP POP POP POP JUMP JUMPDEST PUSH1 0x20 DUP2 MSTORE PUSH1 0x0 PUSH2 0x1C86 PUSH1 0x20 DUP4 ADD DUP5 PUSH2 0x1BC3 JUMP JUMPDEST PUSH1 0x0 DUP1 PUSH1 0x0 PUSH1 0x40 DUP5 DUP7 SUB SLT ISZERO PUSH2 0x1D40 JUMPI PUSH1 0x0 DUP1 REVERT JUMPDEST DUP4 CALLDATALOAD PUSH8 0xFFFFFFFFFFFFFFFF DUP2 GT ISZERO PUSH2 0x1D57 JUMPI PUSH1 0x0 DUP1 REVERT JUMPDEST PUSH2 0x1D63 DUP7 DUP3 DUP8 ADD PUSH2 0x1C8D JUMP JUMPDEST SWAP1 SWAP8 SWAP1 SWAP7 POP PUSH1 0x20 SWAP6 SWAP1 SWAP6 ADD CALLDATALOAD SWAP5 SWAP4 POP POP POP POP JUMP JUMPDEST PUSH1 0x0 DUP1 PUSH1 0x40 DUP4 DUP6 SUB SLT ISZERO PUSH2 0x1D8A JUMPI PUSH1 0x0 DUP1 REVERT JUMPDEST POP POP DUP1 CALLDATALOAD SWAP3 PUSH1 0x20 SWAP1 SWAP2 ADD CALLDATALOAD SWAP2 POP JUMP JUMPDEST DUP6 DUP2 MSTORE PUSH1 0xA0 PUSH1 0x20 DUP3 ADD MSTORE PUSH1 0x0 PUSH2 0x1DB2 PUSH1 0xA0 DUP4 ADD DUP8 PUSH2 0x1BC3 JUMP JUMPDEST PUSH1 0x40 DUP4 ADD SWAP6 SWAP1 SWAP6 MSTORE POP PUSH1 0x60 DUP2 ADD SWAP3 SWAP1 SWAP3 MSTORE PUSH1 0x80 SWAP1 SWAP2 ADD MSTORE SWAP3 SWAP2 POP POP JUMP JUMPDEST PUSH1 0xA0 DUP2 MSTORE PUSH1 0x0 PUSH2 0x1DE2 PUSH1 0xA0 DUP4 ADD DUP9 PUSH2 0x1BC3 JUMP JUMPDEST PUSH1 0x20 DUP4 ADD SWAP7 SWAP1 SWAP7 MSTORE POP SWAP3 ISZERO ISZERO PUSH1 0x40 DUP5 ADD MSTORE SWAP1 ISZERO ISZERO PUSH1 0x60 DUP4 ADD MSTORE PUSH1 0x80 SWAP1 SWAP2 ADD MSTORE SWAP2 SWAP1 POP JUMP JUMPDEST PUSH4 0x4E487B71 PUSH1 0xE0 SHL PUSH1 0x0 MSTORE PUSH1 0x32 PUSH1 0x4 MSTORE PUSH1 0x24 PUSH1 0x0 REVERT JUMPDEST PUSH1 0x1 DUP2 DUP2 SHR SWAP1 DUP3 AND DUP1 PUSH2 0x1E30 JUMPI PUSH1 0x7F DUP3 AND SWAP2 POP JUMPDEST PUSH1 0x20 DUP3 LT DUP2 SUB PUSH2 0x1E50 JUMPI PUSH4 0x4E487B71 PUSH1 0xE0 SHL PUSH1 0x0 MSTORE PUSH1 0x22 PUSH1 0x4 MSTORE PUSH1 0x24 PUSH1 0x0 REVERT JUMPDEST POP SWAP2 SWAP1 POP JUMP JUMPDEST PUSH1 0x20 DUP1 DUP3 MSTORE PUSH1 0xD SWAP1 DUP3 ADD MSTORE PUSH13 0x2737BA1034B734BA34B0BA37B9 PUSH1 0x99 SHL PUSH1 0x40 DUP3 ADD MSTORE PUSH1 0x60 ADD SWAP1 JUMP JUMPDEST PUSH1 0x20 DUP1 DUP3 MSTORE PUSH1 0xA SWAP1 DUP3 ADD MSTORE PUSH10 0x4E6F7420616374697665 PUSH1 0xB0 SHL PUSH1 0x40 DUP3 ADD MSTORE PUSH1 0x60 ADD SWAP1 JUMP JUMPDEST DUP2 DUP2 SUB DUP2 DUP2 GT ISZERO PUSH2 0x1B66 JUMPI PUSH2 0x1B66 PUSH2 0x1B3D JUMP JUMPDEST DUP1 DUP3 MUL DUP2 ISZERO DUP3 DUP3 DIV DUP5 EQ OR PUSH2 0x1B66 JUMPI PUSH2 0x1B66 PUSH2 0x1B3D JUMP JUMPDEST PUSH1 0x0 DUP3 PUSH2 0x1EE8 JUMPI PUSH4 0x4E487B71 PUSH1 0xE0 SHL PUSH1 0x0 MSTORE PUSH1 0x12 PUSH1 0x4 MSTORE PUSH1 0x24 PUSH1 0x0 REVERT JUMPDEST POP DIV SWAP1 JUMP JUMPDEST PUSH4 0x4E487B71 PUSH1 0xE0 SHL PUSH1 0x0 MSTORE PUSH1 0x41 PUSH1 0x4 MSTORE PUSH1 0x24 PUSH1 0x0 REVERT JUMPDEST PUSH1 0x1F DUP3 GT ISZERO PUSH2 0x1F49 JUMPI PUSH1 0x0 DUP2 DUP2 MSTORE PUSH1 0x20 DUP2 KECCAK256 PUSH1 0x1F DUP6 ADD PUSH1 0x5 SHR DUP2 ADD PUSH1 0x20 DUP7 LT ISZERO PUSH2 0x1F2A JUMPI POP DUP1 JUMPDEST PUSH1 0x1F DUP6 ADD PUSH1 0x5 SHR DUP3 ADD SWAP2 POP JUMPDEST DUP2 DUP2 LT ISZERO PUSH2 0xA7E JUMPI DUP3 DUP2 SSTORE PUSH1 0x1 ADD PUSH2 0x1F36 JUMP JUMPDEST POP POP POP JUMP JUMPDEST PUSH8 0xFFFFFFFFFFFFFFFF DUP4 GT ISZERO PUSH2 0x1F66 JUMPI PUSH2 0x1F66 PUSH2 0x1EED JUMP JUMPDEST PUSH2 0x1F7A DUP4 PUSH2 0x1F74 DUP4 SLOAD PUSH2 0x1E1C JUMP JUMPDEST DUP4 PUSH2 0x1F03 JUMP JUMPDEST PUSH1 0x0 PUSH1 0x1F DUP5 GT PUSH1 0x1 DUP2 EQ PUSH2 0x1FAE JUMPI PUSH1 0x0 DUP6 ISZERO PUSH2 0x1F96 JUMPI POP DUP4 DUP3 ADD CALLDATALOAD JUMPDEST PUSH1 0x0 NOT PUSH1 0x3 DUP8 SWAP1 SHL SHR NOT AND PUSH1 0x1 DUP7 SWAP1 SHL OR DUP4 SSTORE PUSH2 0x2008 JUMP JUMPDEST PUSH1 0x0 DUP4 DUP2 MSTORE PUSH1 0x20 SWAP1 KECCAK256 PUSH1 0x1F NOT DUP7 AND SWAP1 DUP4 JUMPDEST DUP3 DUP2 LT ISZERO PUSH2 0x1FDF JUMPI DUP7 DUP6 ADD CALLDATALOAD DUP3 SSTORE PUSH1 0x20 SWAP5 DUP6 ADD SWAP5 PUSH1 0x1 SWAP1 SWAP3 ADD SWAP2 ADD PUSH2 0x1FBF JUMP JUMPDEST POP DUP7 DUP3 LT ISZERO PUSH2 0x1FFC JUMPI PUSH1 0x0 NOT PUSH1 0xF8 DUP9 PUSH1 0x3 SHL AND SHR NOT DUP5 DUP8 ADD CALLDATALOAD AND DUP2 SSTORE JUMPDEST POP POP PUSH1 0x1 DUP6 PUSH1 0x1 SHL ADD DUP4 SSTORE JUMPDEST POP POP POP POP POP JUMP JUMPDEST DUP2 DUP4 MSTORE DUP2 DUP2 PUSH1 0x20 DUP6 ADD CALLDATACOPY POP PUSH1 0x0 DUP3 DUP3 ADD PUSH1 0x20 SWAP1 DUP2 ADD SWAP2 SWAP1 SWAP2 MSTORE PUSH1 0x1F SWAP1 SWAP2 ADD PUSH1 0x1F NOT AND SWAP1 SWAP2 ADD ADD SWAP1 JUMP JUMPDEST PUSH1 0x20 DUP2 MSTORE PUSH1 0x0 PUSH2 0x204C PUSH1 0x20 DUP4 ADD DUP5 DUP7 PUSH2 0x200F JUMP JUMPDEST SWAP5 SWAP4 POP POP POP POP JUMP JUMPDEST DUP2 MLOAD PUSH8 0xFFFFFFFFFFFFFFFF DUP2 GT ISZERO PUSH2 0x206E JUMPI PUSH2 0x206E PUSH2 0x1EED JUMP JUMPDEST PUSH2 0x2082 DUP2 PUSH2 0x207C DUP5 SLOAD PUSH2 0x1E1C JUMP JUMPDEST DUP5 PUSH2 0x1F03 JUMP JUMPDEST PUSH1 0x20 DUP1 PUSH1 0x1F DUP4 GT PUSH1 0x1 DUP2 EQ PUSH2 0x20B7 JUMPI PUSH1 0x0 DUP5 ISZERO PUSH2 0x209F JUMPI POP DUP6 DUP4 ADD MLOAD JUMPDEST PUSH1 0x0 NOT PUSH1 0x3 DUP7 SWAP1 SHL SHR NOT AND PUSH1 0x1 DUP6 SWAP1 SHL OR DUP6 SSTORE PUSH2 0xA7E JUMP JUMPDEST PUSH1 0x0 DUP6 DUP2 MSTORE PUSH1 0x20 DUP2 KECCAK256 PUSH1 0x1F NOT DUP7 AND SWAP2 JUMPDEST DUP3 DUP2 LT ISZERO PUSH2 0x20E6 JUMPI DUP9 DUP7 ADD MLOAD DUP3 SSTORE SWAP5 DUP5 ADD SWAP5 PUSH1 0x1 SWAP1 SWAP2 ADD SWAP1 DUP5 ADD PUSH2 0x20C7 JUMP JUMPDEST POP DUP6 DUP3 LT ISZERO PUSH2 0x2104 JUMPI DUP8 DUP6 ADD MLOAD PUSH1 0x0 NOT PUSH1 0x3 DUP9 SWAP1 SHL PUSH1 0xF8 AND SHR NOT AND DUP2 SSTORE JUMPDEST POP POP POP POP POP PUSH1 0x1 SWAP1 DUP2 SHL ADD SWAP1 SSTORE POP JUMP JUMPDEST PUSH1 0x40 DUP2 MSTORE PUSH1 0x0 PUSH2 0x2128 PUSH1 0x40 DUP4 ADD DUP6 DUP8 PUSH2 0x200F JUMP JUMPDEST SWAP1 POP DUP3 PUSH1 0x20 DUP4 ADD MSTORE SWAP5 SWAP4 POP POP POP POP JUMP JUMPDEST PUSH1 0x0 PUSH1 0x1 DUP3 ADD PUSH2 0x214A JUMPI PUSH2 0x214A PUSH2 0x1B3D JUMP JUMPDEST POP PUSH1 0x1 ADD SWAP1 JUMP INVALID LOG2 PUSH5 0x6970667358 0x22 SLT KECCAK256 0xDA 0xCA 0xB5 0x2B CALLVALUE PUSH10 0xB8135E5E3583C49CF7CC 0x4E PUSH1 0x4B MUL LOG0 SAR 0xDC 0xCB 0x21 EQ JUMP 0xE5 0xA7 PC 0xD2 0x4B PUSH5 0x736F6C6343 STOP ADDMOD EQ STOP CALLER LOG2 PUSH5 0x6970667358 0x22 SLT KECCAK256 0x2F CALL COINBASE 0xE6 0xAF CALLCODE 0xE 0xC9 PUSH7 0x1502F201A36970 0x49 STATICCALL 0xA8 0xC4 0xB6 EQ 0x49 0xBB 0x1F 0xC1 COINBASE PREVRANDAO 0xE PUSH32 0x38AE64736F6C6343000814003300000000000000000000000000000000000000 "},"methodIdentifiers":{"agentPairToCovenant(bytes32)":"5d7a9d07","covenantCreationTime(address)":"d565d169","covenantExists(address,address)":"3ba85859","covenants(uint256)":"28f4ca31","createCovenant(address,bytes32,string,uint256)":"92d5388e","feeRecipient()":"46904840","getCovenantCount()":"ea50eb03","getCovenants(uint256,uint256)":"d9516baa","minimumStake()":"ec5ffac2","owner()":"8da5cb5b","protocolFeeBps()":"35659fb8","setFeeRecipient(address)":"e74b981b","setMinimumStake(uint256)":"233e9903","setProtocolFee(uint256)":"787dce3d","transferOwnership(address)":"f2fde38b"}}}}}