{"contracts/AgentRegistry.sol":{"AgentRegistry":{"abi":[{"inputs":[],"stateMutability":"nonpayable","type":"constructor"},{"inputs":[],"name":"ContractNotPaused","type":"error"},{"inputs":[],"name":"ContractPaused","type":"error"},{"inputs":[],"name":"NotPauser","type":"error"},{"inputs":[],"name":"ReentrancyGuardReentrantCall","type":"error"},{"anonymous":false,"inputs":[{"indexed":true,"internalType":"address","name":"agent","type":"address"},{"indexed":false,"internalType":"uint256","name":"covenantsCompleted","type":"uint256"},{"indexed":false,"internalType":"uint256","name":"tasksCompleted","type":"uint256"},{"indexed":false,"internalType":"uint256","name":"totalEarned","type":"uint256"}],"name":"ActivityRecorded","type":"event"},{"anonymous":false,"inputs":[{"indexed":true,"internalType":"address","name":"agent","type":"address"},{"indexed":false,"internalType":"uint256","name":"timestamp","type":"uint256"}],"name":"AgentDeactivated","type":"event"},{"anonymous":false,"inputs":[{"indexed":true,"internalType":"address","name":"agent","type":"address"},{"indexed":false,"internalType":"uint256","name":"timestamp","type":"uint256"}],"name":"AgentReactivated","type":"event"},{"anonymous":false,"inputs":[{"indexed":true,"internalType":"address","name":"agent","type":"address"},{"indexed":false,"internalType":"string","name":"metadataURI","type":"string"},{"indexed":false,"internalType":"uint256[]","name":"skills","type":"uint256[]"},{"indexed":false,"internalType":"uint256","name":"timestamp","type":"uint256"}],"name":"AgentRegistered","type":"event"},{"anonymous":false,"inputs":[{"indexed":true,"internalType":"address","name":"agent","type":"address"},{"indexed":false,"internalType":"string","name":"metadataURI","type":"string"},{"indexed":false,"internalType":"uint256[]","name":"skills","type":"uint256[]"},{"indexed":false,"internalType":"uint256","name":"timestamp","type":"uint256"}],"name":"AgentUpdated","type":"event"},{"anonymous":false,"inputs":[{"indexed":false,"internalType":"address","name":"account","type":"address"}],"name":"Paused","type":"event"},{"anonymous":false,"inputs":[{"indexed":true,"internalType":"address","name":"previousPauser","type":"address"},{"indexed":true,"internalType":"address","name":"newPauser","type":"address"}],"name":"PauserTransferred","type":"event"},{"anonymous":false,"inputs":[{"indexed":true,"internalType":"uint256","name":"skillId","type":"uint256"},{"indexed":false,"internalType":"string","name":"name","type":"string"},{"indexed":false,"internalType":"string","name":"description","type":"string"}],"name":"SkillAdded","type":"event"},{"anonymous":false,"inputs":[{"indexed":true,"internalType":"address","name":"agent","type":"address"},{"indexed":true,"internalType":"uint256","name":"skillId","type":"uint256"}],"name":"SkillAssigned","type":"event"},{"anonymous":false,"inputs":[{"indexed":false,"internalType":"address","name":"account","type":"address"}],"name":"Unpaused","type":"event"},{"inputs":[{"internalType":"string","name":"_name","type":"string"},{"internalType":"string","name":"_description","type":"string"}],"name":"addSkill","outputs":[],"stateMutability":"nonpayable","type":"function"},{"inputs":[{"internalType":"address","name":"","type":"address"}],"name":"agents","outputs":[{"internalType":"address","name":"agentAddress","type":"address"},{"internalType":"string","name":"metadataURI","type":"string"},{"internalType":"uint256","name":"reputationScore","type":"uint256"},{"internalType":"bool","name":"isActive","type":"bool"},{"internalType":"uint256","name":"registeredAt","type":"uint256"},{"internalType":"uint256","name":"lastActive","type":"uint256"},{"internalType":"uint256","name":"covenantsCompleted","type":"uint256"},{"internalType":"uint256","name":"tasksCompleted","type":"uint256"},{"internalType":"uint256","name":"totalEarned","type":"uint256"}],"stateMutability":"view","type":"function"},{"inputs":[{"internalType":"uint256","name":"","type":"uint256"}],"name":"allAgents","outputs":[{"internalType":"address","name":"","type":"address"}],"stateMutability":"view","type":"function"},{"inputs":[],"name":"deactivate","outputs":[],"stateMutability":"nonpayable","type":"function"},{"inputs":[{"internalType":"uint256","name":"_skillId","type":"uint256"}],"name":"findAgentsBySkill","outputs":[{"internalType":"address[]","name":"","type":"address[]"}],"stateMutability":"view","type":"function"},{"inputs":[{"internalType":"uint256[]","name":"_skillIds","type":"uint256[]"}],"name":"findAgentsBySkills","outputs":[{"internalType":"address[]","name":"","type":"address[]"}],"stateMutability":"view","type":"function"},{"inputs":[{"internalType":"address","name":"_agent","type":"address"}],"name":"getAgent","outputs":[{"components":[{"internalType":"address","name":"agentAddress","type":"address"},{"internalType":"string","name":"metadataURI","type":"string"},{"internalType":"uint256[]","name":"skills","type":"uint256[]"},{"internalType":"string[]","name":"skillNames","type":"string[]"},{"internalType":"uint256","name":"reputationScore","type":"uint256"},{"internalType":"bool","name":"isActive","type":"bool"},{"internalType":"uint256","name":"registeredAt","type":"uint256"},{"internalType":"uint256","name":"lastActive","type":"uint256"},{"internalType":"uint256","name":"covenantsCompleted","type":"uint256"},{"internalType":"uint256","name":"tasksCompleted","type":"uint256"},{"internalType":"uint256","name":"totalEarned","type":"uint256"}],"internalType":"struct AgentRegistry.AgentProfile","name":"","type":"tuple"}],"stateMutability":"view","type":"function"},{"inputs":[],"name":"getAgentCount","outputs":[{"internalType":"uint256","name":"","type":"uint256"}],"stateMutability":"view","type":"function"},{"inputs":[{"internalType":"address","name":"_agent","type":"address"}],"name":"getAgentSkills","outputs":[{"internalType":"uint256[]","name":"","type":"uint256[]"}],"stateMutability":"view","type":"function"},{"inputs":[],"name":"getAllSkills","outputs":[{"components":[{"internalType":"uint256","name":"id","type":"uint256"},{"internalType":"string","name":"name","type":"string"},{"internalType":"string","name":"description","type":"string"},{"internalType":"uint256","name":"agentCount","type":"uint256"}],"internalType":"struct AgentRegistry.Skill[]","name":"","type":"tuple[]"}],"stateMutability":"view","type":"function"},{"inputs":[{"internalType":"uint256","name":"_limit","type":"uint256"},{"internalType":"uint256","name":"_withinSeconds","type":"uint256"}],"name":"getRecentlyActive","outputs":[{"internalType":"address[]","name":"","type":"address[]"}],"stateMutability":"view","type":"function"},{"inputs":[{"internalType":"uint256","name":"_limit","type":"uint256"}],"name":"getTopAgents","outputs":[{"internalType":"address[]","name":"","type":"address[]"}],"stateMutability":"view","type":"function"},{"inputs":[{"internalType":"address","name":"_agent","type":"address"}],"name":"isRegistered","outputs":[{"internalType":"bool","name":"","type":"bool"}],"stateMutability":"view","type":"function"},{"inputs":[],"name":"nextSkillId","outputs":[{"internalType":"uint256","name":"","type":"uint256"}],"stateMutability":"view","type":"function"},{"inputs":[],"name":"owner","outputs":[{"internalType":"address","name":"","type":"address"}],"stateMutability":"view","type":"function"},{"inputs":[],"name":"pause","outputs":[],"stateMutability":"nonpayable","type":"function"},{"inputs":[],"name":"paused","outputs":[{"internalType":"bool","name":"","type":"bool"}],"stateMutability":"view","type":"function"},{"inputs":[],"name":"pauser","outputs":[{"internalType":"address","name":"","type":"address"}],"stateMutability":"view","type":"function"},{"inputs":[],"name":"reactivate","outputs":[],"stateMutability":"nonpayable","type":"function"},{"inputs":[{"internalType":"address","name":"_agent","type":"address"},{"internalType":"uint256","name":"_covenantsCompleted","type":"uint256"},{"internalType":"uint256","name":"_tasksCompleted","type":"uint256"},{"internalType":"uint256","name":"_totalEarned","type":"uint256"}],"name":"recordActivity","outputs":[],"stateMutability":"nonpayable","type":"function"},{"inputs":[{"internalType":"string","name":"_metadataURI","type":"string"},{"internalType":"uint256[]","name":"_skillIds","type":"uint256[]"}],"name":"registerAgent","outputs":[],"stateMutability":"payable","type":"function"},{"inputs":[],"name":"registrationFee","outputs":[{"internalType":"uint256","name":"","type":"uint256"}],"stateMutability":"view","type":"function"},{"inputs":[{"internalType":"uint256","name":"_newFee","type":"uint256"}],"name":"setRegistrationFee","outputs":[],"stateMutability":"nonpayable","type":"function"},{"inputs":[{"internalType":"string","name":"","type":"string"}],"name":"skillNameToId","outputs":[{"internalType":"uint256","name":"","type":"uint256"}],"stateMutability":"view","type":"function"},{"inputs":[{"internalType":"uint256","name":"","type":"uint256"},{"internalType":"uint256","name":"","type":"uint256"}],"name":"skillToAgents","outputs":[{"internalType":"address","name":"","type":"address"}],"stateMutability":"view","type":"function"},{"inputs":[{"internalType":"uint256","name":"","type":"uint256"}],"name":"skills","outputs":[{"internalType":"uint256","name":"id","type":"uint256"},{"internalType":"string","name":"name","type":"string"},{"internalType":"string","name":"description","type":"string"},{"internalType":"uint256","name":"agentCount","type":"uint256"}],"stateMutability":"view","type":"function"},{"inputs":[],"name":"totalAgents","outputs":[{"internalType":"uint256","name":"","type":"uint256"}],"stateMutability":"view","type":"function"},{"inputs":[{"internalType":"address","name":"newPauser","type":"address"}],"name":"transferPauser","outputs":[],"stateMutability":"nonpayable","type":"function"},{"inputs":[],"name":"unpause","outputs":[],"stateMutability":"nonpayable","type":"function"},{"inputs":[{"internalType":"string","name":"_metadataURI","type":"string"},{"internalType":"uint256[]","name":"_skillIds","type":"uint256[]"}],"name":"updateProfile","outputs":[],"stateMutability":"nonpayable","type":"function"},{"inputs":[],"name":"withdrawFees","outputs":[],"stateMutability":"nonpayable","type":"function"},{"stateMutability":"payable","type":"receive"}],"evm":{"bytecode":{"linkReferences":{},"object":"60406080815234620003f35760017f9b779b17422d0df92223018b32b4d1fa46e071723d6817e2486d003becc55f0081905560008054610100600160a81b03191633600881811b610100600160a81b031692909217835560069390935560079190915566038d7ea4c6800060095580546001600160a01b0319169091179055620003e56200008c620003f8565b601a8152620001056020917f536d61727420436f6e747261637420446576656c6f706d656e7400000000000083820152620000c66200042e565b90602782527f57726974696e6720616e64206175646974696e6720536f6c696469747920636f84830152666e74726163747360c81b868301526200049a565b6200017262000113620003f8565b600d81526c4461746120416e616c7973697360981b83820152620001366200042e565b90602482527f4f6e2d636861696e20616e64206f66662d636861696e206461746120616e616c84830152637973697360e01b868301526200049a565b620001da62000180620003f8565b600781526654726164696e6760c81b838201526200019d6200042e565b90602582527f446546692074726164696e6720616e64206172626974726167652073747261748483015264656769657360d81b868301526200049a565b6200024c620001e8620003f8565b601081526f21b7b73a32b73a1021b932b0ba34b7b760811b838201526200020e6200042e565b90602682527f446f63756d656e746174696f6e2c20736f6369616c206d656469612c206d617284830152656b6574696e6760d01b868301526200049a565b620002b16200025a620003f8565b60118152705365637572697479204175646974696e6760781b8382015262000281620003f8565b90601f82527f536d61727420636f6e7472616374207365637572697479207265766965777300848301526200049a565b6200031f620002bf620003f8565b601081526f4d616368696e65204c6561726e696e6760801b83820152620002e56200042e565b90602282527f41492f4d4c206d6f64656c20747261696e696e6720616e6420696e666572656e8483015261636560f01b868301526200049a565b620003796200032d620003f8565b60068152654465764f707360d01b8382015262000349620003f8565b90601d82527f496e66726173747275637475726520616e64206465706c6f796d656e74000000848301526200049a565b62000383620003f8565b601481527f436f6d6d756e697479204d616e6167656d656e74000000000000000000000000828201527f446973636f72642c20666f72756d732c20676f7665726e616e63650000000000620003d7620003f8565b92601b84528301526200049a565b516129709081620008428239f35b600080fd5b60408051919082016001600160401b038111838210176200041857604052565b634e487b7160e01b600052604160045260246000fd5b60405190606082016001600160401b038111838210176200041857604052565b60005b838110620004625750506000910152565b818101518382015260200162000451565b906020916200048e815180928185528580860191016200044e565b601f01601f1916010190565b6006549192919060001982146200082b57600182016006556040805194608086016001600160401b03811187821017620004185782528386526020860183815282870196828852600060608201528560005260026020528360002091815183555197885160018060401b038111620004185760018401549960018b811c9b16801562000820575b60208c101462000723578190601f9b8c8111620007c7575b506020908c8311600114620007505760009262000744575b50508160011b916000199060031b1c19161760018401555b51805190986002840191906001600160401b03821162000418578254600181811c9116801562000739575b60208210146200072357818111620006d9575b506020908211600114620006505792600392826060936200063f989796600080516020620031b28339815191529c9d9e60009262000644575b50508160011b9160001990871b1c19161790555b01519101558583516020818751620006108183858c016200044e565b810160048152030190205562000630835194848695865285019062000473565b90838203602085015262000473565b0390a2565b015190503880620005e0565b601f1982169a8360005260206000209b60005b818110620006c0575083600080516020620031b28339815191529b9c9d6200063f999897946003979460609760019510620006a7575b505050811b019055620005f4565b015160001983891b60f8161c1916905538808062000699565b838301518e556001909d019c6020938401930162000663565b8360005260206000208280850160051c8201926020861062000719575b0160051c01905b8181106200070c5750620005a7565b60008155600101620006fd565b92508192620006f6565b634e487b7160e01b600052602260045260246000fd5b90607f169062000594565b01519050388062000551565b9250600186016000526020600020906000935b601f1984168510620007ab576001945083601f1981161062000791575b505050811b01600184015562000569565b015160001960f88460031b161c1916905538808062000780565b8181015183556020948501946001909301929091019062000763565b9091506001860160005260206000208c80850160051c8201926020861062000816575b9085949392910160051c01905b81811062000806575062000539565b60008155849350600101620007f7565b92508192620007ea565b9a607f169a62000521565b634e487b7160e01b600052601160045260246000fdfe6080604052600436101561001b575b361561001957600080fd5b005b60003560e01c806308edbd1414611b5457806314c44e0914611b365780633421ebfd14611ada57806334306d2514611abc578063346945fd146119775780633f4ba83a146119015780634421ea211461183c578063476343ee146117c557806350d15fbe1461174c57806351b42b00146116d75780635c975abb146116b45780635d3aa8131461158e57806375ae1fef14610e805780638456cb5914610df55780638da5cb5b14610dcc57806391cab63e14610a475780639fd0506d14610d9f578063a113938f14610d6e578063b1e29ea414610be5578063b2bdc75f14610ba9578063b47172da14610b58578063b6ef504e14610ad5578063c320c72714610aa7578063c3c5a54714610a65578063c505371214610a47578063ccc3bba814610888578063d18611d6146107b3578063d862ae87146104d3578063e0bb12f714610491578063fb3551ff1461022c5763fd66091e0361000e5734610227576020366003190112610227576001600160a01b03806101976121fd565b1660005260016020526040600020908154166101b56001830161224d565b9160048101549060ff6005820154169060068101546007820154600883015491600a6009850154940154946101fc604051998a998a526101208060208c01528a01906122f3565b96604089015215156060880152608087015260a086015260c085015260e08401526101008301520390f35b600080fd5b34610227576020366003190112610227576102456121fd565b600061014060405161025681612112565b82815260606020820152606060408201526060808201528260808201528260a08201528260c08201528260e08201528261010082015282610120820152015260018060a01b031660005260016020526040600020604051906102b782612112565b80546001600160a01b031682526102d06001820161224d565b60208301526102e16002820161288b565b604083015260038101546102f4816124a6565b906103026040519283612149565b808252602082016003840160005260206000206000915b8383106104745786600a878760608401526004810154608084015260ff600582015416151560a0840152600681015460c0840152600781015460e08401526008810154610100840152600981015461012084015201546101408201526040516020815260018060a01b0382511660208201526103bf6103a9602084015161016060408501526101808401906122f3565b6040840151838203601f190160608501526123d7565b606083015190601f19838203016080840152815180825260208201916020808360051b8301019401926000915b838310610447578680876101408b608081015160a085015260a0810151151560c085015260c081015160e085015260e08101516101008501526101008101516101208501526101208101518285015201516101608301520390f35b9091929394602080610465600193601f1986820301875289516122f3565b970193019301919392906103ec565b6001602081926104838561224d565b815201920192019190610319565b3461022757602036600319011261022757600435600554811015610227576104ba602091612372565b905460405160039290921b1c6001600160a01b03168152f35b34610227576040366003190112610227576001600160401b03600435818111610227576105049036906004016121bc565b6024358281116102275761051c9036906004016121bc565b9161053260018060a01b03600854163314612853565b6006549261053f8461240b565b60065560405161054e8161212e565b8481526020928382019085825260408301908482526060840192600084528860005260028752604060002094518555600190818601905180519084821161072f5781906105a58261059f8654612213565b86612555565b8a90601f831160011461075057600092610745575b5050600019600383901b1c191690831b1790555b600285019251805192831161072f576105eb8361059f8654612213565b8790601f841160011461069b5793838061068b989560039561067e9c99957f05991bfaa80c5f743d433bd10462fc1453a7c566aa9c81582e3dbab915dca4ff9e9c99600094610690575b50501b9160001990861b1c19161790555b51910155866040518381875161065f8183858c016121da565b81016004815203019020556040519485946040865260408601906122f3565b91848303908501526122f3565b0390a2005b015192508f80610635565b90601f9392931983169185600052896000209260005b81811061071a57509361067e9a97937f05991bfaa80c5f743d433bd10462fc1453a7c566aa9c81582e3dbab915dca4ff9c9a979361068b9a97938360039810610702575b505050811b019055610646565b015160001983881b60f8161c191690558d80806106f5565b82840151855593860193928b01928b016106b1565b634e487b7160e01b600052604160045260246000fd5b015190508c806105ba565b60008581528c8120879550929190601f198516908e5b82821061079c5750508411610783575b505050811b0190556105ce565b015160001960f88460031b161c191690558c8080610776565b83850151865589979095019493840193018e610766565b3461022757600036600319011261022757336000908152600160205260409020546107e8906001600160a01b0316151561262a565b33600052600160205260ff6005604060002001541661085257336000526001602052604060002060058101600160ff198254161790556007429101556040514281527f72fa502a711d31da2101a8152ede15f4f332c7bef579c13ca9f8ef603a4480e660203392a2005b60405162461bcd60e51b815260206004820152600e60248201526d416c72656164792061637469766560901b6044820152606490fd5b3461022757600036600319011261022757600654600019808201908282116109ff576108b3826124a6565b916108c16040519384612149565b8083526108d0601f19916124a6565b0160005b818110610a15575050600192835b818110610985578385604051918291602090818401828552835180915260408501928060408360051b8801019501936000905b8382106109225787870388f35b918496819592949698508190603f198b82030185528951908151815261096961095784840151608080878601528401906122f3565b604084015183820360408501526122f3565b9160608091015191015298019201920187969593919492610915565b806000526002906020828152604060002090858301908382116109ff5760036109f4936109d76109fa978c946109cc604051966109c18861212e565b85548852850161224d565b90860152820161224d565b6040840152015460608201526109ed8289612507565b5286612507565b5061240b565b6108e2565b634e487b7160e01b600052601160045260246000fd5b602090604051610a248161212e565b6000815260606000849180838501528060408501528301528287010152016108d4565b34610227576000366003190112610227576020600754604051908152f35b34610227576020366003190112610227576001600160a01b03610a866121fd565b166000526001602052602060ff600560406000200154166040519015158152f35b3461022757602036600319011261022757610acd60018060a01b03600854163314612853565b600435600955005b34610227576020806003193601126102275760043560005260038152604060002090604051908181845491828152019360005281600020916000905b828210610b3857610b3485610b2881890382612149565b6040519182918261232e565b0390f35b83546001600160a01b031686529485019460019384019390910190610b11565b34610227576020366003190112610227576001600160a01b03610b796121fd565b166000526001602052610b34610b95600260406000200161288b565b6040519182916020835260208301906123d7565b34610227576020366003190112610227576004356001600160401b03811161022757610b28610bdf610b34923690600401612080565b906126a6565b34610227576020806003193601126102275760055460043581811115610d68575080915b610c1282612674565b9160005b818110610d3a57505060005b8251811015610ce95760018082018083116109ff57815b610c4e575b5050610c499061240b565b610c22565b8451811015610ce4578190610ca8906001600160a01b0380610c70838a612507565b511660005283875260046040600020015481610c8c888b612507565b511660005284885260046040600020015410610cae575061240b565b90610c39565b80610cb9878a612507565b511690610cc6838a612507565b5116610cd2878a612507565b52610cdd8289612507565b52886109f4565b610c3e565b8284610cf481612674565b9160005b828110610d0d5760405180610b34868261232e565b610d35906001600160a01b03610d238285612507565b5116610d2f8287612507565b5261240b565b610cf8565b80610d47610d6392612372565b905460039190911b1c6001600160a01b0316610d2f8287612507565b610c16565b91610c09565b3461022757610d7c36612318565b90600052600360205260406000208054821015610227576020916104ba916123bf565b346102275760003660031901126102275760005460405160089190911c6001600160a01b03168152602090f35b34610227576000366003190112610227576008546040516001600160a01b039091168152602090f35b3461022757600036600319011261022757600054600881901c6001600160a01b03163303610e6e5760ff8116610e5c5760019060ff1916176000557f62e78cea01bee320cd4e420270b5ea74000d11b0c9f74754ebdbfc544b05a2586020604051338152a1005b60405163ab35696f60e01b8152600490fd5b60405163492f678160e01b8152600490fd5b610e89366120b0565b9060ff60009493945416610e5c5760027f9b779b17422d0df92223018b32b4d1fa46e071723d6817e2486d003becc55f00541461157c5760027f9b779b17422d0df92223018b32b4d1fa46e071723d6817e2486d003becc55f005560005b828110611536575033600052600160205260ff600560406000200154166114fc576009548034106114c457803411611469575b50610f24826124bd565b60005b8381106113d8575060405190610f3c82612112565b338252610f4a368787612185565b6020830152610f58846124a6565b610f656040519182612149565b84815260208101368660051b8601116102275784905b8660051b860182106113c85750506040830152606082015260006080820152600160a08201524260c08201524260e082015260006101008201526000610120820152600061014082015233600052600160205260406000209060018060a01b038151166bffffffffffffffffffffffff60a01b83541617825560208101518051906001600160401b03821161072f5781906110268261101d6001880154612213565b60018801612555565b602090601f83116001146113565760009261134b575b50508160011b916000199060031b1c19161760018301555b60408101518051906001600160401b03821161072f576020600285019161107b848461259a565b0190600052602060002060005b83811061133757505050506060810151805190600160401b821161072f5760038401548260038601558083106112bf575b5060200190600384016000526020600020916000905b8282106111dc5750505050610140816080600a93015160048501556005840160a0820151151560ff8019835416911617905560c0810151600685015560e08101516007850155610100810151600885015561012081015160098501550151910155600554600160401b81101561072f577fdf1275f67e995789184a7a608f6c1b71953a305670459d1bb1f05956db47c05d936111956111778360016111b39501600555612372565b81546001600160a01b0360039290921b91821b19163390911b179055565b6111a060075461240b565b60075560405193849333974293866125ce565b0390a260017f9b779b17422d0df92223018b32b4d1fa46e071723d6817e2486d003becc55f0055005b80518051906001600160401b03821161072f57611203826111fd8854612213565b88612555565b602090601f831160011461124f579282600194936020938695600092611244575b5050600019600383901b1c191690841b1787555b019401910190926110cf565b015190508f80611224565b908660005260206000209160005b601f19851681106112a7575083602093600196938796938794601f1981161061128e575b505050811b018755611238565b015160001960f88460031b161c191690558f8080611281565b9192602060018192868501518155019401920161125d565b600385016000526020600020908382015b81830181106112e05750506110b9565b806112ed60019254612213565b806112fa575b50016112d0565b601f811183146113105750600081555b8c6112f3565b60009082825261132e601f60208420920160051c820185830161253e565b8183555561130a565b600190602084519401938184015501611088565b01519050888061103c565b9250600185016000526020600020906000935b601f19841685106113ad576001945083601f19811610611394575b505050811b016001830155611054565b015160001960f88460031b161c19169055888080611384565b81810151835560209485019460019093019290910190611369565b8135815260209182019101610f7b565b806113e761146492868661241a565b356000526002602052611400600160406000200161224d565b61140a8285612507565b526114158184612507565b5061142181868661241a565b3560005260038060205261143933604060002061251b565b61144482878761241a565b35600052600260205260406000200161145d815461240b565b905561240b565b610f27565b60008080611478819434612469565b335af1611483612476565b501561148f5784610f1a565b60405162461bcd60e51b815260206004820152600d60248201526c1499599d5b990819985a5b1959609a1b6044820152606490fd5b60405162461bcd60e51b815260206004820152601060248201526f496e73756666696369656e742066656560801b6044820152606490fd5b60405162461bcd60e51b8152602060048201526012602482015271105b1c9958591e481c9959da5cdd195c995960721b6044820152606490fd5b8061154561155c92858561241a565b35151580611561575b6115579061242a565b61240b565b610ee7565b5061155761157082868661241a565b3560065411905061154e565b604051633ee5aeb560e01b8152600490fd5b346102275761159c36612318565b6005918254906115ab82612674565b936115b860009442612469565b9060005b848110611606575b50505050506115d281612674565b9160005b8281106115eb5760405180610b34868261232e565b611601906001600160a01b03610d238285612507565b6115d6565b61160f81612372565b60018060a01b03809254600392831b1c16600052600160209080825260ff8660406000200154169182611689575b5050611654575b505061164f9061240b565b6115bc565b9082979161166461167494612372565b9054911b1c16610d2f828a612507565b9483861015611684578780611644565b6115c4565b9091508361169686612372565b905490851b1c16600052528460076040600020015410158a8061163d565b3461022757600036600319011261022757602060ff600054166040519015158152f35b346102275760003660031901126102275733600052600160205261170560ff6005604060002001541661262a565b336000526001602052600560406000200160ff1981541690556040514281527f0908d0024a3278cb165ed9b5e370dfd4b2c566122efebb355afb5b56e224915860203392a2005b346102275760203660031901126102275760043560005260026020526040600020805461177b6001830161224d565b916117bb600361178d6002840161224d565b920154916117ad60405195869586526080602087015260808601906122f3565b9084820360408601526122f3565b9060608301520390f35b3461022757600036600319011261022757600080808060018060a01b03600854166117f1813314612853565b47905af16117fd612476565b501561180557005b60405162461bcd60e51b815260206004820152600f60248201526e15da5d1a191c985dc819985a5b1959608a1b6044820152606490fd5b34610227576020366003190112610227576118556121fd565b6000546001600160a01b03600882901c8116919033839003610e6e5783169283156118c357610100600160a81b031990911660089190911b610100600160a81b03161760009081557f51c4874e0f23f262e04a38c51751336dde72126d67f53eb672aaff02996b3ef69080a3005b60405162461bcd60e51b8152602060048201526016602482015275496e76616c696420706175736572206164647265737360501b6044820152606490fd5b3461022757600036600319011261022757600054600881901c6001600160a01b03163303610e6e5760ff8116156119655760ff19166000557f5db9ee0a495bf2e6ff9c91a7834c1ba4fdd244a5e8aa4e537bd38aeae4b073aa6020604051338152a1005b60405163dcdde9dd60e01b8152600490fd5b34610227576080366003190112610227576001600160a01b036119986121fd565b1680600052600160205260ff6005604060002001541615611a8457806000526001602052604060002060088101906119d36024358354612667565b80925560098101916119e86044358454612667565b809355600a82016119fc6064358254612667565b809155426007840155600a820293828504600a14831517156109ff576005810293818504600514821517156109ff576004611a6e611a5d6060977fac3c2beb7724a927c9efcb9aa36d9cc3215467ad97652337ec58c5527ba70e5399612667565b670de0b6b3a7640000860490612667565b91015560405192835260208301526040820152a2005b60405162461bcd60e51b815260206004820152601060248201526f4167656e74206e6f742061637469766560801b6044820152606490fd5b34610227576000366003190112610227576020600654604051908152f35b34610227576020366003190112610227576004356001600160401b03811161022757611b236020611b10819336906004016121bc565b81604051938285809451938492016121da565b8101600481520301902054604051908152f35b34610227576000366003190112610227576020600954604051908152f35b3461022757611b62366120b0565b9190336000526001602052611b8160ff6005604060002001541661262a565b60005b8381106120455750336000526001602052604060002060009460028201905b8154871015611ce557611bb687836123bf565b90549060031b1c9485600052600360205260406000209660005b885480821015611cd157611be4828b6123bf565b90546001600160a01b03929160031b1c82163314611c0c575050611c079061240b565b611bd0565b9092969a9498939795999160001982019182116109ff57611c4384611c34611c6294866123bf565b90549060031b1c1691846123bf565b90919082549060031b9160018060a01b03809116831b921b1916179055565b80548015611cbb576000190191611c7983836123bf565b909182549160031b1b1916905555600052600260205260036040600020019081549182156109ff57611cb09260001901905561240b565b959194909293611ba3565b634e487b7160e01b600052603160045260246000fd5b505093979094929650611cb091955061240b565b94929190611cf2846124bd565b9060005b858110611fd457506001600160401b03861161072f5760018301611d2487611d1e8354612213565b83612555565b866000601f8211600114611f6d57600091611f62575b508760011b906000198960031b1c19161790555b6001600160401b03851161072f57611d66858261259a565b839060005260206000209060005b868110611f4e57505050805190600160401b821161072f576003830154826003850155808310611ed6575b5060200190600383016000526020600020916000905b828210611dfb57877f4343b17cbad9b3255be7285fe10f12ee275fa867fad18ab3297ac8456cc99f7c888861068b8d8a60074291015560405193849333974293866125ce565b80518051906001600160401b03821161072f57611e1c826111fd8854612213565b602090601f8311600114611e68579282600194936020938695600092611e5d575b5050600019600383901b1c191690841b1787555b01940191019092611db5565b015190508e80611e3d565b90601f198316918760005260206000209260005b818110611ebe5750936020936001969387969383889510611ea5575b505050811b018755611e51565b015160001960f88460031b161c191690558e8080611e98565b92936020600181928786015181550195019301611e7c565b600384016000526020600020908382015b8183018110611ef7575050611d9f565b80611f0460019254612213565b80611f11575b5001611ee7565b601f81118314611f275750600081555b8b611f0a565b600090828252611f45601f60208420920160051c820185830161253e565b81835555611f21565b600190602083359301928185015501611d74565b905088013589611d3a565b60008381526020812092505b8a601f198b168210611fbc57505088601f19811610611fa2575b5050600187811b019055611d4e565b89013560001960038a901b60f8161c191690558880611f93565b60018394602093948493013581550193019101611f79565b80611fe361204092888861241a565b356000526002602052611ffc600160406000200161224d565b6120068286612507565b526120118185612507565b5061201d81888861241a565b3560005260038060205261203533604060002061251b565b61144482898961241a565b611cf6565b8061205761206892868598969561241a565b35151580612071576115579061242a565b93909193611b84565b5061155761157082878961241a565b9181601f84011215610227578235916001600160401b038311610227576020808501948460051b01011161022757565b604060031982011261022757600435916001600160401b038084116102275782602385011215610227578360040135938185116102275783602486830101116102275760240193926024359182116102275761210e91600401612080565b9091565b61016081019081106001600160401b0382111761072f57604052565b608081019081106001600160401b0382111761072f57604052565b90601f801991011681019081106001600160401b0382111761072f57604052565b6001600160401b03811161072f57601f01601f191660200190565b9291926121918261216a565b9161219f6040519384612149565b829481845281830111610227578281602093846000960137010152565b9080601f83011215610227578160206121d793359101612185565b90565b60005b8381106121ed5750506000910152565b81810151838201526020016121dd565b600435906001600160a01b038216820361022757565b90600182811c92168015612243575b602083101461222d57565b634e487b7160e01b600052602260045260246000fd5b91607f1691612222565b906040519182600082549261226184612213565b9081845260019485811690816000146122d0575060011461228d575b505061228b92500383612149565b565b9093915060005260209081600020936000915b8183106122b857505061228b9350820101388061227d565b855488840185015294850194879450918301916122a0565b91505061228b94506020925060ff191682840152151560051b820101388061227d565b9060209161230c815180928185528580860191016121da565b601f01601f1916010190565b6040906003190112610227576004359060243590565b6020908160408183019282815285518094520193019160005b828110612355575050505090565b83516001600160a01b031685529381019392810192600101612347565b6005548110156123a95760056000527f036b6384b5eca791c62761152d0c79bb0604c104a5fb6f4eb0703f3154bb3db00190600090565b634e487b7160e01b600052603260045260246000fd5b80548210156123a95760005260206000200190600090565b90815180825260208080930193019160005b8281106123f7575050505090565b8351855293810193928101926001016123e9565b60001981146109ff5760010190565b91908110156123a95760051b0190565b1561243157565b60405162461bcd60e51b815260206004820152601060248201526f125b9d985b1a59081cdada5b1b08125160821b6044820152606490fd5b919082039182116109ff57565b3d156124a1573d906124878261216a565b916124956040519384612149565b82523d6000602084013e565b606090565b6001600160401b03811161072f5760051b60200190565b906124c7826124a6565b6124d46040519182612149565b82815280926124e5601f19916124a6565b019060005b8281106124f657505050565b8060606020809385010152016124ea565b80518210156123a95760209160051b010190565b90815491600160401b83101561072f5782611c4391600161228b950181556123bf565b818110612549575050565b6000815560010161253e565b9190601f811161256457505050565b61228b926000526020600020906020601f840160051c83019310612590575b601f0160051c019061253e565b9091508190612583565b90600160401b811161072f578154908083558181106125b857505050565b61228b926000526020600020918201910161253e565b959493918091606088528160608901526080880137600060808288010152601f8019910116850191608086840301602087015281608084015260018060fb1b0382116102275760409260a09260051b8092848301370101930152565b1561263157565b60405162461bcd60e51b815260206004820152600e60248201526d139bdd081c9959da5cdd195c995960921b6044820152606490fd5b919082018092116109ff57565b9061267e826124a6565b61268b6040519182612149565b828152809261269c601f19916124a6565b0190602036910137565b91908015612828576000928035845260209360038552604092838220908451808389829554938481520190865289862092865b8b828210612809575050506126f092500383612149565b6126fa8251612674565b928094815b84518110156127c1576001600160a01b038061271b8388612507565b511684526001808c5260ff60058b8720015416156127b657805b868110612778575b50612752575b5061274d9061240b565b6126ff565b81976127719161276561274d9489612507565b5116610d2f828a612507565b9690612743565b61279a83612786868b612507565b5116612793838a8961241a565b35906128da565b156127ad576127a89061240b565b612735565b5050833861273d565b505061274d9061240b565b50509450505093506127d281612674565b915b8181106127e2575090925050565b612804906001600160a01b036127f88288612507565b5116610d2f8286612507565b6127d4565b85546001600160a01b03168452600195860195889550930192016126d9565b509050604051602081018181106001600160401b0382111761072f5760405260008152600036813790565b1561285a57565b60405162461bcd60e51b81526020600482015260096024820152682737ba1037bbb732b960b91b6044820152606490fd5b9060405191828154918282526020928383019160005283600020936000905b8282106128c05750505061228b92500383612149565b8554845260019586019588955093810193909101906128aa565b6001600160a01b03166000908152600160208190526040822060020180549391925b84811061290d575050505050600090565b8261291882846123bf565b90549060031b1c146129325761292d9061240b565b6128fc565b50505090509056fea264697066735822122044f20ecbf70f2345d9b188268c83a69dba41a64b59234b8cf5d4f8d9da0829be64736f6c6343000814003305991bfaa80c5f743d433bd10462fc1453a7c566aa9c81582e3dbab915dca4ff","opcodes":"PUSH1 0x40 PUSH1 0x80 DUP2 MSTORE CALLVALUE PUSH3 0x3F3 JUMPI PUSH1 0x1 PUSH32 0x9B779B17422D0DF92223018B32B4D1FA46E071723D6817E2486D003BECC55F00 DUP2 SWAP1 SSTORE PUSH1 0x0 DUP1 SLOAD PUSH2 0x100 PUSH1 0x1 PUSH1 0xA8 SHL SUB NOT AND CALLER PUSH1 0x8 DUP2 DUP2 SHL PUSH2 0x100 PUSH1 0x1 PUSH1 0xA8 SHL SUB AND SWAP3 SWAP1 SWAP3 OR DUP4 SSTORE PUSH1 0x6 SWAP4 SWAP1 SWAP4 SSTORE PUSH1 0x7 SWAP2 SWAP1 SWAP2 SSTORE PUSH7 0x38D7EA4C68000 PUSH1 0x9 SSTORE DUP1 SLOAD PUSH1 0x1 PUSH1 0x1 PUSH1 0xA0 SHL SUB NOT AND SWAP1 SWAP2 OR SWAP1 SSTORE PUSH3 0x3E5 PUSH3 0x8C PUSH3 0x3F8 JUMP JUMPDEST PUSH1 0x1A DUP2 MSTORE PUSH3 0x105 PUSH1 0x20 SWAP2 PUSH32 0x536D61727420436F6E747261637420446576656C6F706D656E74000000000000 DUP4 DUP3 ADD MSTORE PUSH3 0xC6 PUSH3 0x42E JUMP JUMPDEST SWAP1 PUSH1 0x27 DUP3 MSTORE PUSH32 0x57726974696E6720616E64206175646974696E6720536F6C696469747920636F DUP5 DUP4 ADD MSTORE PUSH7 0x6E747261637473 PUSH1 0xC8 SHL DUP7 DUP4 ADD MSTORE PUSH3 0x49A JUMP JUMPDEST PUSH3 0x172 PUSH3 0x113 PUSH3 0x3F8 JUMP JUMPDEST PUSH1 0xD DUP2 MSTORE PUSH13 0x4461746120416E616C79736973 PUSH1 0x98 SHL DUP4 DUP3 ADD MSTORE PUSH3 0x136 PUSH3 0x42E JUMP JUMPDEST SWAP1 PUSH1 0x24 DUP3 MSTORE PUSH32 0x4F6E2D636861696E20616E64206F66662D636861696E206461746120616E616C DUP5 DUP4 ADD MSTORE PUSH4 0x79736973 PUSH1 0xE0 SHL DUP7 DUP4 ADD MSTORE PUSH3 0x49A JUMP JUMPDEST PUSH3 0x1DA PUSH3 0x180 PUSH3 0x3F8 JUMP JUMPDEST PUSH1 0x7 DUP2 MSTORE PUSH7 0x54726164696E67 PUSH1 0xC8 SHL DUP4 DUP3 ADD MSTORE PUSH3 0x19D PUSH3 0x42E JUMP JUMPDEST SWAP1 PUSH1 0x25 DUP3 MSTORE PUSH32 0x446546692074726164696E6720616E6420617262697472616765207374726174 DUP5 DUP4 ADD MSTORE PUSH5 0x6567696573 PUSH1 0xD8 SHL DUP7 DUP4 ADD MSTORE PUSH3 0x49A JUMP JUMPDEST PUSH3 0x24C PUSH3 0x1E8 PUSH3 0x3F8 JUMP JUMPDEST PUSH1 0x10 DUP2 MSTORE PUSH16 0x21B7B73A32B73A1021B932B0BA34B7B7 PUSH1 0x81 SHL DUP4 DUP3 ADD MSTORE PUSH3 0x20E PUSH3 0x42E JUMP JUMPDEST SWAP1 PUSH1 0x26 DUP3 MSTORE PUSH32 0x446F63756D656E746174696F6E2C20736F6369616C206D656469612C206D6172 DUP5 DUP4 ADD MSTORE PUSH6 0x6B6574696E67 PUSH1 0xD0 SHL DUP7 DUP4 ADD MSTORE PUSH3 0x49A JUMP JUMPDEST PUSH3 0x2B1 PUSH3 0x25A PUSH3 0x3F8 JUMP JUMPDEST PUSH1 0x11 DUP2 MSTORE PUSH17 0x5365637572697479204175646974696E67 PUSH1 0x78 SHL DUP4 DUP3 ADD MSTORE PUSH3 0x281 PUSH3 0x3F8 JUMP JUMPDEST SWAP1 PUSH1 0x1F DUP3 MSTORE PUSH32 0x536D61727420636F6E7472616374207365637572697479207265766965777300 DUP5 DUP4 ADD MSTORE PUSH3 0x49A JUMP JUMPDEST PUSH3 0x31F PUSH3 0x2BF PUSH3 0x3F8 JUMP JUMPDEST PUSH1 0x10 DUP2 MSTORE PUSH16 0x4D616368696E65204C6561726E696E67 PUSH1 0x80 SHL DUP4 DUP3 ADD MSTORE PUSH3 0x2E5 PUSH3 0x42E JUMP JUMPDEST SWAP1 PUSH1 0x22 DUP3 MSTORE PUSH32 0x41492F4D4C206D6F64656C20747261696E696E6720616E6420696E666572656E DUP5 DUP4 ADD MSTORE PUSH2 0x6365 PUSH1 0xF0 SHL DUP7 DUP4 ADD MSTORE PUSH3 0x49A JUMP JUMPDEST PUSH3 0x379 PUSH3 0x32D PUSH3 0x3F8 JUMP JUMPDEST PUSH1 0x6 DUP2 MSTORE PUSH6 0x4465764F7073 PUSH1 0xD0 SHL DUP4 DUP3 ADD MSTORE PUSH3 0x349 PUSH3 0x3F8 JUMP JUMPDEST SWAP1 PUSH1 0x1D DUP3 MSTORE PUSH32 0x496E66726173747275637475726520616E64206465706C6F796D656E74000000 DUP5 DUP4 ADD MSTORE PUSH3 0x49A JUMP JUMPDEST PUSH3 0x383 PUSH3 0x3F8 JUMP JUMPDEST PUSH1 0x14 DUP2 MSTORE PUSH32 0x436F6D6D756E697479204D616E6167656D656E74000000000000000000000000 DUP3 DUP3 ADD MSTORE PUSH32 0x446973636F72642C20666F72756D732C20676F7665726E616E63650000000000 PUSH3 0x3D7 PUSH3 0x3F8 JUMP JUMPDEST SWAP3 PUSH1 0x1B DUP5 MSTORE DUP4 ADD MSTORE PUSH3 0x49A JUMP JUMPDEST MLOAD PUSH2 0x2970 SWAP1 DUP2 PUSH3 0x842 DUP3 CODECOPY RETURN JUMPDEST PUSH1 0x0 DUP1 REVERT JUMPDEST PUSH1 0x40 DUP1 MLOAD SWAP2 SWAP1 DUP3 ADD PUSH1 0x1 PUSH1 0x1 PUSH1 0x40 SHL SUB DUP2 GT DUP4 DUP3 LT OR PUSH3 0x418 JUMPI PUSH1 0x40 MSTORE JUMP JUMPDEST PUSH4 0x4E487B71 PUSH1 0xE0 SHL PUSH1 0x0 MSTORE PUSH1 0x41 PUSH1 0x4 MSTORE PUSH1 0x24 PUSH1 0x0 REVERT JUMPDEST PUSH1 0x40 MLOAD SWAP1 PUSH1 0x60 DUP3 ADD PUSH1 0x1 PUSH1 0x1 PUSH1 0x40 SHL SUB DUP2 GT DUP4 DUP3 LT OR PUSH3 0x418 JUMPI PUSH1 0x40 MSTORE JUMP JUMPDEST PUSH1 0x0 JUMPDEST DUP4 DUP2 LT PUSH3 0x462 JUMPI POP POP PUSH1 0x0 SWAP2 ADD MSTORE JUMP JUMPDEST DUP2 DUP2 ADD MLOAD DUP4 DUP3 ADD MSTORE PUSH1 0x20 ADD PUSH3 0x451 JUMP JUMPDEST SWAP1 PUSH1 0x20 SWAP2 PUSH3 0x48E DUP2 MLOAD DUP1 SWAP3 DUP2 DUP6 MSTORE DUP6 DUP1 DUP7 ADD SWAP2 ADD PUSH3 0x44E JUMP JUMPDEST PUSH1 0x1F ADD PUSH1 0x1F NOT AND ADD ADD SWAP1 JUMP JUMPDEST PUSH1 0x6 SLOAD SWAP2 SWAP3 SWAP2 SWAP1 PUSH1 0x0 NOT DUP3 EQ PUSH3 0x82B JUMPI PUSH1 0x1 DUP3 ADD PUSH1 0x6 SSTORE PUSH1 0x40 DUP1 MLOAD SWAP5 PUSH1 0x80 DUP7 ADD PUSH1 0x1 PUSH1 0x1 PUSH1 0x40 SHL SUB DUP2 GT DUP8 DUP3 LT OR PUSH3 0x418 JUMPI DUP3 MSTORE DUP4 DUP7 MSTORE PUSH1 0x20 DUP7 ADD DUP4 DUP2 MSTORE DUP3 DUP8 ADD SWAP7 DUP3 DUP9 MSTORE PUSH1 0x0 PUSH1 0x60 DUP3 ADD MSTORE DUP6 PUSH1 0x0 MSTORE PUSH1 0x2 PUSH1 0x20 MSTORE DUP4 PUSH1 0x0 KECCAK256 SWAP2 DUP2 MLOAD DUP4 SSTORE MLOAD SWAP8 DUP9 MLOAD PUSH1 0x1 DUP1 PUSH1 0x40 SHL SUB DUP2 GT PUSH3 0x418 JUMPI PUSH1 0x1 DUP5 ADD SLOAD SWAP10 PUSH1 0x1 DUP12 DUP2 SHR SWAP12 AND DUP1 ISZERO PUSH3 0x820 JUMPI JUMPDEST PUSH1 0x20 DUP13 LT EQ PUSH3 0x723 JUMPI DUP2 SWAP1 PUSH1 0x1F SWAP12 DUP13 DUP2 GT PUSH3 0x7C7 JUMPI JUMPDEST POP PUSH1 0x20 SWAP1 DUP13 DUP4 GT PUSH1 0x1 EQ PUSH3 0x750 JUMPI PUSH1 0x0 SWAP3 PUSH3 0x744 JUMPI JUMPDEST POP POP DUP2 PUSH1 0x1 SHL SWAP2 PUSH1 0x0 NOT SWAP1 PUSH1 0x3 SHL SHR NOT AND OR PUSH1 0x1 DUP5 ADD SSTORE JUMPDEST MLOAD DUP1 MLOAD SWAP1 SWAP9 PUSH1 0x2 DUP5 ADD SWAP2 SWAP1 PUSH1 0x1 PUSH1 0x1 PUSH1 0x40 SHL SUB DUP3 GT PUSH3 0x418 JUMPI DUP3 SLOAD PUSH1 0x1 DUP2 DUP2 SHR SWAP2 AND DUP1 ISZERO PUSH3 0x739 JUMPI JUMPDEST PUSH1 0x20 DUP3 LT EQ PUSH3 0x723 JUMPI DUP2 DUP2 GT PUSH3 0x6D9 JUMPI JUMPDEST POP PUSH1 0x20 SWAP1 DUP3 GT PUSH1 0x1 EQ PUSH3 0x650 JUMPI SWAP3 PUSH1 0x3 SWAP3 DUP3 PUSH1 0x60 SWAP4 PUSH3 0x63F SWAP9 SWAP8 SWAP7 PUSH1 0x0 DUP1 MLOAD PUSH1 0x20 PUSH3 0x31B2 DUP4 CODECOPY DUP2 MLOAD SWAP2 MSTORE SWAP13 SWAP14 SWAP15 PUSH1 0x0 SWAP3 PUSH3 0x644 JUMPI JUMPDEST POP POP DUP2 PUSH1 0x1 SHL SWAP2 PUSH1 0x0 NOT SWAP1 DUP8 SHL SHR NOT AND OR SWAP1 SSTORE JUMPDEST ADD MLOAD SWAP2 ADD SSTORE DUP6 DUP4 MLOAD PUSH1 0x20 DUP2 DUP8 MLOAD PUSH3 0x610 DUP2 DUP4 DUP6 DUP13 ADD PUSH3 0x44E JUMP JUMPDEST DUP2 ADD PUSH1 0x4 DUP2 MSTORE SUB ADD SWAP1 KECCAK256 SSTORE PUSH3 0x630 DUP4 MLOAD SWAP5 DUP5 DUP7 SWAP6 DUP7 MSTORE DUP6 ADD SWAP1 PUSH3 0x473 JUMP JUMPDEST SWAP1 DUP4 DUP3 SUB PUSH1 0x20 DUP6 ADD MSTORE PUSH3 0x473 JUMP JUMPDEST SUB SWAP1 LOG2 JUMP JUMPDEST ADD MLOAD SWAP1 POP CODESIZE DUP1 PUSH3 0x5E0 JUMP JUMPDEST PUSH1 0x1F NOT DUP3 AND SWAP11 DUP4 PUSH1 0x0 MSTORE PUSH1 0x20 PUSH1 0x0 KECCAK256 SWAP12 PUSH1 0x0 JUMPDEST DUP2 DUP2 LT PUSH3 0x6C0 JUMPI POP DUP4 PUSH1 0x0 DUP1 MLOAD PUSH1 0x20 PUSH3 0x31B2 DUP4 CODECOPY DUP2 MLOAD SWAP2 MSTORE SWAP12 SWAP13 SWAP14 PUSH3 0x63F SWAP10 SWAP9 SWAP8 SWAP5 PUSH1 0x3 SWAP8 SWAP5 PUSH1 0x60 SWAP8 PUSH1 0x1 SWAP6 LT PUSH3 0x6A7 JUMPI JUMPDEST POP POP POP DUP2 SHL ADD SWAP1 SSTORE PUSH3 0x5F4 JUMP JUMPDEST ADD MLOAD PUSH1 0x0 NOT DUP4 DUP10 SHL PUSH1 0xF8 AND SHR NOT AND SWAP1 SSTORE CODESIZE DUP1 DUP1 PUSH3 0x699 JUMP JUMPDEST DUP4 DUP4 ADD MLOAD DUP15 SSTORE PUSH1 0x1 SWAP1 SWAP14 ADD SWAP13 PUSH1 0x20 SWAP4 DUP5 ADD SWAP4 ADD PUSH3 0x663 JUMP JUMPDEST DUP4 PUSH1 0x0 MSTORE PUSH1 0x20 PUSH1 0x0 KECCAK256 DUP3 DUP1 DUP6 ADD PUSH1 0x5 SHR DUP3 ADD SWAP3 PUSH1 0x20 DUP7 LT PUSH3 0x719 JUMPI JUMPDEST ADD PUSH1 0x5 SHR ADD SWAP1 JUMPDEST DUP2 DUP2 LT PUSH3 0x70C JUMPI POP PUSH3 0x5A7 JUMP JUMPDEST PUSH1 0x0 DUP2 SSTORE PUSH1 0x1 ADD PUSH3 0x6FD JUMP JUMPDEST SWAP3 POP DUP2 SWAP3 PUSH3 0x6F6 JUMP JUMPDEST PUSH4 0x4E487B71 PUSH1 0xE0 SHL PUSH1 0x0 MSTORE PUSH1 0x22 PUSH1 0x4 MSTORE PUSH1 0x24 PUSH1 0x0 REVERT JUMPDEST SWAP1 PUSH1 0x7F AND SWAP1 PUSH3 0x594 JUMP JUMPDEST ADD MLOAD SWAP1 POP CODESIZE DUP1 PUSH3 0x551 JUMP JUMPDEST SWAP3 POP PUSH1 0x1 DUP7 ADD PUSH1 0x0 MSTORE PUSH1 0x20 PUSH1 0x0 KECCAK256 SWAP1 PUSH1 0x0 SWAP4 JUMPDEST PUSH1 0x1F NOT DUP5 AND DUP6 LT PUSH3 0x7AB JUMPI PUSH1 0x1 SWAP5 POP DUP4 PUSH1 0x1F NOT DUP2 AND LT PUSH3 0x791 JUMPI JUMPDEST POP POP POP DUP2 SHL ADD PUSH1 0x1 DUP5 ADD SSTORE PUSH3 0x569 JUMP JUMPDEST ADD MLOAD PUSH1 0x0 NOT PUSH1 0xF8 DUP5 PUSH1 0x3 SHL AND SHR NOT AND SWAP1 SSTORE CODESIZE DUP1 DUP1 PUSH3 0x780 JUMP JUMPDEST DUP2 DUP2 ADD MLOAD DUP4 SSTORE PUSH1 0x20 SWAP5 DUP6 ADD SWAP5 PUSH1 0x1 SWAP1 SWAP4 ADD SWAP3 SWAP1 SWAP2 ADD SWAP1 PUSH3 0x763 JUMP JUMPDEST SWAP1 SWAP2 POP PUSH1 0x1 DUP7 ADD PUSH1 0x0 MSTORE PUSH1 0x20 PUSH1 0x0 KECCAK256 DUP13 DUP1 DUP6 ADD PUSH1 0x5 SHR DUP3 ADD SWAP3 PUSH1 0x20 DUP7 LT PUSH3 0x816 JUMPI JUMPDEST SWAP1 DUP6 SWAP5 SWAP4 SWAP3 SWAP2 ADD PUSH1 0x5 SHR ADD SWAP1 JUMPDEST DUP2 DUP2 LT PUSH3 0x806 JUMPI POP PUSH3 0x539 JUMP JUMPDEST PUSH1 0x0 DUP2 SSTORE DUP5 SWAP4 POP PUSH1 0x1 ADD PUSH3 0x7F7 JUMP JUMPDEST SWAP3 POP DUP2 SWAP3 PUSH3 0x7EA JUMP JUMPDEST SWAP11 PUSH1 0x7F AND SWAP11 PUSH3 0x521 JUMP JUMPDEST PUSH4 0x4E487B71 PUSH1 0xE0 SHL PUSH1 0x0 MSTORE PUSH1 0x11 PUSH1 0x4 MSTORE PUSH1 0x24 PUSH1 0x0 REVERT INVALID PUSH1 0x80 PUSH1 0x40 MSTORE PUSH1 0x4 CALLDATASIZE LT ISZERO PUSH2 0x1B JUMPI JUMPDEST CALLDATASIZE ISZERO PUSH2 0x19 JUMPI PUSH1 0x0 DUP1 REVERT JUMPDEST STOP JUMPDEST PUSH1 0x0 CALLDATALOAD PUSH1 0xE0 SHR DUP1 PUSH4 0x8EDBD14 EQ PUSH2 0x1B54 JUMPI DUP1 PUSH4 0x14C44E09 EQ PUSH2 0x1B36 JUMPI DUP1 PUSH4 0x3421EBFD EQ PUSH2 0x1ADA JUMPI DUP1 PUSH4 0x34306D25 EQ PUSH2 0x1ABC JUMPI DUP1 PUSH4 0x346945FD EQ PUSH2 0x1977 JUMPI DUP1 PUSH4 0x3F4BA83A EQ PUSH2 0x1901 JUMPI DUP1 PUSH4 0x4421EA21 EQ PUSH2 0x183C JUMPI DUP1 PUSH4 0x476343EE EQ PUSH2 0x17C5 JUMPI DUP1 PUSH4 0x50D15FBE EQ PUSH2 0x174C JUMPI DUP1 PUSH4 0x51B42B00 EQ PUSH2 0x16D7 JUMPI DUP1 PUSH4 0x5C975ABB EQ PUSH2 0x16B4 JUMPI DUP1 PUSH4 0x5D3AA813 EQ PUSH2 0x158E JUMPI DUP1 PUSH4 0x75AE1FEF EQ PUSH2 0xE80 JUMPI DUP1 PUSH4 0x8456CB59 EQ PUSH2 0xDF5 JUMPI DUP1 PUSH4 0x8DA5CB5B EQ PUSH2 0xDCC JUMPI DUP1 PUSH4 0x91CAB63E EQ PUSH2 0xA47 JUMPI DUP1 PUSH4 0x9FD0506D EQ PUSH2 0xD9F JUMPI DUP1 PUSH4 0xA113938F EQ PUSH2 0xD6E JUMPI DUP1 PUSH4 0xB1E29EA4 EQ PUSH2 0xBE5 JUMPI DUP1 PUSH4 0xB2BDC75F EQ PUSH2 0xBA9 JUMPI DUP1 PUSH4 0xB47172DA EQ PUSH2 0xB58 JUMPI DUP1 PUSH4 0xB6EF504E EQ PUSH2 0xAD5 JUMPI DUP1 PUSH4 0xC320C727 EQ PUSH2 0xAA7 JUMPI DUP1 PUSH4 0xC3C5A547 EQ PUSH2 0xA65 JUMPI DUP1 PUSH4 0xC5053712 EQ PUSH2 0xA47 JUMPI DUP1 PUSH4 0xCCC3BBA8 EQ PUSH2 0x888 JUMPI DUP1 PUSH4 0xD18611D6 EQ PUSH2 0x7B3 JUMPI DUP1 PUSH4 0xD862AE87 EQ PUSH2 0x4D3 JUMPI DUP1 PUSH4 0xE0BB12F7 EQ PUSH2 0x491 JUMPI DUP1 PUSH4 0xFB3551FF EQ PUSH2 0x22C JUMPI PUSH4 0xFD66091E SUB PUSH2 0xE JUMPI CALLVALUE PUSH2 0x227 JUMPI PUSH1 0x20 CALLDATASIZE PUSH1 0x3 NOT ADD SLT PUSH2 0x227 JUMPI PUSH1 0x1 PUSH1 0x1 PUSH1 0xA0 SHL SUB DUP1 PUSH2 0x197 PUSH2 0x21FD JUMP JUMPDEST AND PUSH1 0x0 MSTORE PUSH1 0x1 PUSH1 0x20 MSTORE PUSH1 0x40 PUSH1 0x0 KECCAK256 SWAP1 DUP2 SLOAD AND PUSH2 0x1B5 PUSH1 0x1 DUP4 ADD PUSH2 0x224D JUMP JUMPDEST SWAP2 PUSH1 0x4 DUP2 ADD SLOAD SWAP1 PUSH1 0xFF PUSH1 0x5 DUP3 ADD SLOAD AND SWAP1 PUSH1 0x6 DUP2 ADD SLOAD PUSH1 0x7 DUP3 ADD SLOAD PUSH1 0x8 DUP4 ADD SLOAD SWAP2 PUSH1 0xA PUSH1 0x9 DUP6 ADD SLOAD SWAP5 ADD SLOAD SWAP5 PUSH2 0x1FC PUSH1 0x40 MLOAD SWAP10 DUP11 SWAP10 DUP11 MSTORE PUSH2 0x120 DUP1 PUSH1 0x20 DUP13 ADD MSTORE DUP11 ADD SWAP1 PUSH2 0x22F3 JUMP JUMPDEST SWAP7 PUSH1 0x40 DUP10 ADD MSTORE ISZERO ISZERO PUSH1 0x60 DUP9 ADD MSTORE PUSH1 0x80 DUP8 ADD MSTORE PUSH1 0xA0 DUP7 ADD MSTORE PUSH1 0xC0 DUP6 ADD MSTORE PUSH1 0xE0 DUP5 ADD MSTORE PUSH2 0x100 DUP4 ADD MSTORE SUB SWAP1 RETURN JUMPDEST PUSH1 0x0 DUP1 REVERT JUMPDEST CALLVALUE PUSH2 0x227 JUMPI PUSH1 0x20 CALLDATASIZE PUSH1 0x3 NOT ADD SLT PUSH2 0x227 JUMPI PUSH2 0x245 PUSH2 0x21FD JUMP JUMPDEST PUSH1 0x0 PUSH2 0x140 PUSH1 0x40 MLOAD PUSH2 0x256 DUP2 PUSH2 0x2112 JUMP JUMPDEST DUP3 DUP2 MSTORE PUSH1 0x60 PUSH1 0x20 DUP3 ADD MSTORE PUSH1 0x60 PUSH1 0x40 DUP3 ADD MSTORE PUSH1 0x60 DUP1 DUP3 ADD MSTORE DUP3 PUSH1 0x80 DUP3 ADD MSTORE DUP3 PUSH1 0xA0 DUP3 ADD MSTORE DUP3 PUSH1 0xC0 DUP3 ADD MSTORE DUP3 PUSH1 0xE0 DUP3 ADD MSTORE DUP3 PUSH2 0x100 DUP3 ADD MSTORE DUP3 PUSH2 0x120 DUP3 ADD MSTORE ADD MSTORE PUSH1 0x1 DUP1 PUSH1 0xA0 SHL SUB AND PUSH1 0x0 MSTORE PUSH1 0x1 PUSH1 0x20 MSTORE PUSH1 0x40 PUSH1 0x0 KECCAK256 PUSH1 0x40 MLOAD SWAP1 PUSH2 0x2B7 DUP3 PUSH2 0x2112 JUMP JUMPDEST DUP1 SLOAD PUSH1 0x1 PUSH1 0x1 PUSH1 0xA0 SHL SUB AND DUP3 MSTORE PUSH2 0x2D0 PUSH1 0x1 DUP3 ADD PUSH2 0x224D JUMP JUMPDEST PUSH1 0x20 DUP4 ADD MSTORE PUSH2 0x2E1 PUSH1 0x2 DUP3 ADD PUSH2 0x288B JUMP JUMPDEST PUSH1 0x40 DUP4 ADD MSTORE PUSH1 0x3 DUP2 ADD SLOAD PUSH2 0x2F4 DUP2 PUSH2 0x24A6 JUMP JUMPDEST SWAP1 PUSH2 0x302 PUSH1 0x40 MLOAD SWAP3 DUP4 PUSH2 0x2149 JUMP JUMPDEST DUP1 DUP3 MSTORE PUSH1 0x20 DUP3 ADD PUSH1 0x3 DUP5 ADD PUSH1 0x0 MSTORE PUSH1 0x20 PUSH1 0x0 KECCAK256 PUSH1 0x0 SWAP2 JUMPDEST DUP4 DUP4 LT PUSH2 0x474 JUMPI DUP7 PUSH1 0xA DUP8 DUP8 PUSH1 0x60 DUP5 ADD MSTORE PUSH1 0x4 DUP2 ADD SLOAD PUSH1 0x80 DUP5 ADD MSTORE PUSH1 0xFF PUSH1 0x5 DUP3 ADD SLOAD AND ISZERO ISZERO PUSH1 0xA0 DUP5 ADD MSTORE PUSH1 0x6 DUP2 ADD SLOAD PUSH1 0xC0 DUP5 ADD MSTORE PUSH1 0x7 DUP2 ADD SLOAD PUSH1 0xE0 DUP5 ADD MSTORE PUSH1 0x8 DUP2 ADD SLOAD PUSH2 0x100 DUP5 ADD MSTORE PUSH1 0x9 DUP2 ADD SLOAD PUSH2 0x120 DUP5 ADD MSTORE ADD SLOAD PUSH2 0x140 DUP3 ADD MSTORE PUSH1 0x40 MLOAD PUSH1 0x20 DUP2 MSTORE PUSH1 0x1 DUP1 PUSH1 0xA0 SHL SUB DUP3 MLOAD AND PUSH1 0x20 DUP3 ADD MSTORE PUSH2 0x3BF PUSH2 0x3A9 PUSH1 0x20 DUP5 ADD MLOAD PUSH2 0x160 PUSH1 0x40 DUP6 ADD MSTORE PUSH2 0x180 DUP5 ADD SWAP1 PUSH2 0x22F3 JUMP JUMPDEST PUSH1 0x40 DUP5 ADD MLOAD DUP4 DUP3 SUB PUSH1 0x1F NOT ADD PUSH1 0x60 DUP6 ADD MSTORE PUSH2 0x23D7 JUMP JUMPDEST PUSH1 0x60 DUP4 ADD MLOAD SWAP1 PUSH1 0x1F NOT DUP4 DUP3 SUB ADD PUSH1 0x80 DUP5 ADD MSTORE DUP2 MLOAD DUP1 DUP3 MSTORE PUSH1 0x20 DUP3 ADD SWAP2 PUSH1 0x20 DUP1 DUP4 PUSH1 0x5 SHL DUP4 ADD ADD SWAP5 ADD SWAP3 PUSH1 0x0 SWAP2 JUMPDEST DUP4 DUP4 LT PUSH2 0x447 JUMPI DUP7 DUP1 DUP8 PUSH2 0x140 DUP12 PUSH1 0x80 DUP2 ADD MLOAD PUSH1 0xA0 DUP6 ADD MSTORE PUSH1 0xA0 DUP2 ADD MLOAD ISZERO ISZERO PUSH1 0xC0 DUP6 ADD MSTORE PUSH1 0xC0 DUP2 ADD MLOAD PUSH1 0xE0 DUP6 ADD MSTORE PUSH1 0xE0 DUP2 ADD MLOAD PUSH2 0x100 DUP6 ADD MSTORE PUSH2 0x100 DUP2 ADD MLOAD PUSH2 0x120 DUP6 ADD MSTORE PUSH2 0x120 DUP2 ADD MLOAD DUP3 DUP6 ADD MSTORE ADD MLOAD PUSH2 0x160 DUP4 ADD MSTORE SUB SWAP1 RETURN JUMPDEST SWAP1 SWAP2 SWAP3 SWAP4 SWAP5 PUSH1 0x20 DUP1 PUSH2 0x465 PUSH1 0x1 SWAP4 PUSH1 0x1F NOT DUP7 DUP3 SUB ADD DUP8 MSTORE DUP10 MLOAD PUSH2 0x22F3 JUMP JUMPDEST SWAP8 ADD SWAP4 ADD SWAP4 ADD SWAP2 SWAP4 SWAP3 SWAP1 PUSH2 0x3EC JUMP JUMPDEST PUSH1 0x1 PUSH1 0x20 DUP2 SWAP3 PUSH2 0x483 DUP6 PUSH2 0x224D JUMP JUMPDEST DUP2 MSTORE ADD SWAP3 ADD SWAP3 ADD SWAP2 SWAP1 PUSH2 0x319 JUMP JUMPDEST CALLVALUE PUSH2 0x227 JUMPI PUSH1 0x20 CALLDATASIZE PUSH1 0x3 NOT ADD SLT PUSH2 0x227 JUMPI PUSH1 0x4 CALLDATALOAD PUSH1 0x5 SLOAD DUP2 LT ISZERO PUSH2 0x227 JUMPI PUSH2 0x4BA PUSH1 0x20 SWAP2 PUSH2 0x2372 JUMP JUMPDEST SWAP1 SLOAD PUSH1 0x40 MLOAD PUSH1 0x3 SWAP3 SWAP1 SWAP3 SHL SHR PUSH1 0x1 PUSH1 0x1 PUSH1 0xA0 SHL SUB AND DUP2 MSTORE RETURN JUMPDEST CALLVALUE PUSH2 0x227 JUMPI PUSH1 0x40 CALLDATASIZE PUSH1 0x3 NOT ADD SLT PUSH2 0x227 JUMPI PUSH1 0x1 PUSH1 0x1 PUSH1 0x40 SHL SUB PUSH1 0x4 CALLDATALOAD DUP2 DUP2 GT PUSH2 0x227 JUMPI PUSH2 0x504 SWAP1 CALLDATASIZE SWAP1 PUSH1 0x4 ADD PUSH2 0x21BC JUMP JUMPDEST PUSH1 0x24 CALLDATALOAD DUP3 DUP2 GT PUSH2 0x227 JUMPI PUSH2 0x51C SWAP1 CALLDATASIZE SWAP1 PUSH1 0x4 ADD PUSH2 0x21BC JUMP JUMPDEST SWAP2 PUSH2 0x532 PUSH1 0x1 DUP1 PUSH1 0xA0 SHL SUB PUSH1 0x8 SLOAD AND CALLER EQ PUSH2 0x2853 JUMP JUMPDEST PUSH1 0x6 SLOAD SWAP3 PUSH2 0x53F DUP5 PUSH2 0x240B JUMP JUMPDEST PUSH1 0x6 SSTORE PUSH1 0x40 MLOAD PUSH2 0x54E DUP2 PUSH2 0x212E JUMP JUMPDEST DUP5 DUP2 MSTORE PUSH1 0x20 SWAP3 DUP4 DUP3 ADD SWAP1 DUP6 DUP3 MSTORE PUSH1 0x40 DUP4 ADD SWAP1 DUP5 DUP3 MSTORE PUSH1 0x60 DUP5 ADD SWAP3 PUSH1 0x0 DUP5 MSTORE DUP9 PUSH1 0x0 MSTORE PUSH1 0x2 DUP8 MSTORE PUSH1 0x40 PUSH1 0x0 KECCAK256 SWAP5 MLOAD DUP6 SSTORE PUSH1 0x1 SWAP1 DUP2 DUP7 ADD SWAP1 MLOAD DUP1 MLOAD SWAP1 DUP5 DUP3 GT PUSH2 0x72F JUMPI DUP2 SWAP1 PUSH2 0x5A5 DUP3 PUSH2 0x59F DUP7 SLOAD PUSH2 0x2213 JUMP JUMPDEST DUP7 PUSH2 0x2555 JUMP JUMPDEST DUP11 SWAP1 PUSH1 0x1F DUP4 GT PUSH1 0x1 EQ PUSH2 0x750 JUMPI PUSH1 0x0 SWAP3 PUSH2 0x745 JUMPI JUMPDEST POP POP PUSH1 0x0 NOT PUSH1 0x3 DUP4 SWAP1 SHL SHR NOT AND SWAP1 DUP4 SHL OR SWAP1 SSTORE JUMPDEST PUSH1 0x2 DUP6 ADD SWAP3 MLOAD DUP1 MLOAD SWAP3 DUP4 GT PUSH2 0x72F JUMPI PUSH2 0x5EB DUP4 PUSH2 0x59F DUP7 SLOAD PUSH2 0x2213 JUMP JUMPDEST DUP8 SWAP1 PUSH1 0x1F DUP5 GT PUSH1 0x1 EQ PUSH2 0x69B JUMPI SWAP4 DUP4 DUP1 PUSH2 0x68B SWAP9 SWAP6 PUSH1 0x3 SWAP6 PUSH2 0x67E SWAP13 SWAP10 SWAP6 PUSH32 0x5991BFAA80C5F743D433BD10462FC1453A7C566AA9C81582E3DBAB915DCA4FF SWAP15 SWAP13 SWAP10 PUSH1 0x0 SWAP5 PUSH2 0x690 JUMPI JUMPDEST POP POP SHL SWAP2 PUSH1 0x0 NOT SWAP1 DUP7 SHL SHR NOT AND OR SWAP1 SSTORE JUMPDEST MLOAD SWAP2 ADD SSTORE DUP7 PUSH1 0x40 MLOAD DUP4 DUP2 DUP8 MLOAD PUSH2 0x65F DUP2 DUP4 DUP6 DUP13 ADD PUSH2 0x21DA JUMP JUMPDEST DUP2 ADD PUSH1 0x4 DUP2 MSTORE SUB ADD SWAP1 KECCAK256 SSTORE PUSH1 0x40 MLOAD SWAP5 DUP6 SWAP5 PUSH1 0x40 DUP7 MSTORE PUSH1 0x40 DUP7 ADD SWAP1 PUSH2 0x22F3 JUMP JUMPDEST SWAP2 DUP5 DUP4 SUB SWAP1 DUP6 ADD MSTORE PUSH2 0x22F3 JUMP JUMPDEST SUB SWAP1 LOG2 STOP JUMPDEST ADD MLOAD SWAP3 POP DUP16 DUP1 PUSH2 0x635 JUMP JUMPDEST SWAP1 PUSH1 0x1F SWAP4 SWAP3 SWAP4 NOT DUP4 AND SWAP2 DUP6 PUSH1 0x0 MSTORE DUP10 PUSH1 0x0 KECCAK256 SWAP3 PUSH1 0x0 JUMPDEST DUP2 DUP2 LT PUSH2 0x71A JUMPI POP SWAP4 PUSH2 0x67E SWAP11 SWAP8 SWAP4 PUSH32 0x5991BFAA80C5F743D433BD10462FC1453A7C566AA9C81582E3DBAB915DCA4FF SWAP13 SWAP11 SWAP8 SWAP4 PUSH2 0x68B SWAP11 SWAP8 SWAP4 DUP4 PUSH1 0x3 SWAP9 LT PUSH2 0x702 JUMPI JUMPDEST POP POP POP DUP2 SHL ADD SWAP1 SSTORE PUSH2 0x646 JUMP JUMPDEST ADD MLOAD PUSH1 0x0 NOT DUP4 DUP9 SHL PUSH1 0xF8 AND SHR NOT AND SWAP1 SSTORE DUP14 DUP1 DUP1 PUSH2 0x6F5 JUMP JUMPDEST DUP3 DUP5 ADD MLOAD DUP6 SSTORE SWAP4 DUP7 ADD SWAP4 SWAP3 DUP12 ADD SWAP3 DUP12 ADD PUSH2 0x6B1 JUMP JUMPDEST PUSH4 0x4E487B71 PUSH1 0xE0 SHL PUSH1 0x0 MSTORE PUSH1 0x41 PUSH1 0x4 MSTORE PUSH1 0x24 PUSH1 0x0 REVERT JUMPDEST ADD MLOAD SWAP1 POP DUP13 DUP1 PUSH2 0x5BA JUMP JUMPDEST PUSH1 0x0 DUP6 DUP2 MSTORE DUP13 DUP2 KECCAK256 DUP8 SWAP6 POP SWAP3 SWAP2 SWAP1 PUSH1 0x1F NOT DUP6 AND SWAP1 DUP15 JUMPDEST DUP3 DUP3 LT PUSH2 0x79C JUMPI POP POP DUP5 GT PUSH2 0x783 JUMPI JUMPDEST POP POP POP DUP2 SHL ADD SWAP1 SSTORE PUSH2 0x5CE JUMP JUMPDEST ADD MLOAD PUSH1 0x0 NOT PUSH1 0xF8 DUP5 PUSH1 0x3 SHL AND SHR NOT AND SWAP1 SSTORE DUP13 DUP1 DUP1 PUSH2 0x776 JUMP JUMPDEST DUP4 DUP6 ADD MLOAD DUP7 SSTORE DUP10 SWAP8 SWAP1 SWAP6 ADD SWAP5 SWAP4 DUP5 ADD SWAP4 ADD DUP15 PUSH2 0x766 JUMP JUMPDEST CALLVALUE PUSH2 0x227 JUMPI PUSH1 0x0 CALLDATASIZE PUSH1 0x3 NOT ADD SLT PUSH2 0x227 JUMPI CALLER PUSH1 0x0 SWAP1 DUP2 MSTORE PUSH1 0x1 PUSH1 0x20 MSTORE PUSH1 0x40 SWAP1 KECCAK256 SLOAD PUSH2 0x7E8 SWAP1 PUSH1 0x1 PUSH1 0x1 PUSH1 0xA0 SHL SUB AND ISZERO ISZERO PUSH2 0x262A JUMP JUMPDEST CALLER PUSH1 0x0 MSTORE PUSH1 0x1 PUSH1 0x20 MSTORE PUSH1 0xFF PUSH1 0x5 PUSH1 0x40 PUSH1 0x0 KECCAK256 ADD SLOAD AND PUSH2 0x852 JUMPI CALLER PUSH1 0x0 MSTORE PUSH1 0x1 PUSH1 0x20 MSTORE PUSH1 0x40 PUSH1 0x0 KECCAK256 PUSH1 0x5 DUP2 ADD PUSH1 0x1 PUSH1 0xFF NOT DUP3 SLOAD AND OR SWAP1 SSTORE PUSH1 0x7 TIMESTAMP SWAP2 ADD SSTORE PUSH1 0x40 MLOAD TIMESTAMP DUP2 MSTORE PUSH32 0x72FA502A711D31DA2101A8152EDE15F4F332C7BEF579C13CA9F8EF603A4480E6 PUSH1 0x20 CALLER SWAP3 LOG2 STOP JUMPDEST PUSH1 0x40 MLOAD PUSH3 0x461BCD PUSH1 0xE5 SHL DUP2 MSTORE PUSH1 0x20 PUSH1 0x4 DUP3 ADD MSTORE PUSH1 0xE PUSH1 0x24 DUP3 ADD MSTORE PUSH14 0x416C726561647920616374697665 PUSH1 0x90 SHL PUSH1 0x44 DUP3 ADD MSTORE PUSH1 0x64 SWAP1 REVERT JUMPDEST CALLVALUE PUSH2 0x227 JUMPI PUSH1 0x0 CALLDATASIZE PUSH1 0x3 NOT ADD SLT PUSH2 0x227 JUMPI PUSH1 0x6 SLOAD PUSH1 0x0 NOT DUP1 DUP3 ADD SWAP1 DUP3 DUP3 GT PUSH2 0x9FF JUMPI PUSH2 0x8B3 DUP3 PUSH2 0x24A6 JUMP JUMPDEST SWAP2 PUSH2 0x8C1 PUSH1 0x40 MLOAD SWAP4 DUP5 PUSH2 0x2149 JUMP JUMPDEST DUP1 DUP4 MSTORE PUSH2 0x8D0 PUSH1 0x1F NOT SWAP2 PUSH2 0x24A6 JUMP JUMPDEST ADD PUSH1 0x0 JUMPDEST DUP2 DUP2 LT PUSH2 0xA15 JUMPI POP POP PUSH1 0x1 SWAP3 DUP4 JUMPDEST DUP2 DUP2 LT PUSH2 0x985 JUMPI DUP4 DUP6 PUSH1 0x40 MLOAD SWAP2 DUP3 SWAP2 PUSH1 0x20 SWAP1 DUP2 DUP5 ADD DUP3 DUP6 MSTORE DUP4 MLOAD DUP1 SWAP2 MSTORE PUSH1 0x40 DUP6 ADD SWAP3 DUP1 PUSH1 0x40 DUP4 PUSH1 0x5 SHL DUP9 ADD ADD SWAP6 ADD SWAP4 PUSH1 0x0 SWAP1 JUMPDEST DUP4 DUP3 LT PUSH2 0x922 JUMPI DUP8 DUP8 SUB DUP9 RETURN JUMPDEST SWAP2 DUP5 SWAP7 DUP2 SWAP6 SWAP3 SWAP5 SWAP7 SWAP9 POP DUP2 SWAP1 PUSH1 0x3F NOT DUP12 DUP3 SUB ADD DUP6 MSTORE DUP10 MLOAD SWAP1 DUP2 MLOAD DUP2 MSTORE PUSH2 0x969 PUSH2 0x957 DUP5 DUP5 ADD MLOAD PUSH1 0x80 DUP1 DUP8 DUP7 ADD MSTORE DUP5 ADD SWAP1 PUSH2 0x22F3 JUMP JUMPDEST PUSH1 0x40 DUP5 ADD MLOAD DUP4 DUP3 SUB PUSH1 0x40 DUP6 ADD MSTORE PUSH2 0x22F3 JUMP JUMPDEST SWAP2 PUSH1 0x60 DUP1 SWAP2 ADD MLOAD SWAP2 ADD MSTORE SWAP9 ADD SWAP3 ADD SWAP3 ADD DUP8 SWAP7 SWAP6 SWAP4 SWAP2 SWAP5 SWAP3 PUSH2 0x915 JUMP JUMPDEST DUP1 PUSH1 0x0 MSTORE PUSH1 0x2 SWAP1 PUSH1 0x20 DUP3 DUP2 MSTORE PUSH1 0x40 PUSH1 0x0 KECCAK256 SWAP1 DUP6 DUP4 ADD SWAP1 DUP4 DUP3 GT PUSH2 0x9FF JUMPI PUSH1 0x3 PUSH2 0x9F4 SWAP4 PUSH2 0x9D7 PUSH2 0x9FA SWAP8 DUP13 SWAP5 PUSH2 0x9CC PUSH1 0x40 MLOAD SWAP7 PUSH2 0x9C1 DUP9 PUSH2 0x212E JUMP JUMPDEST DUP6 SLOAD DUP9 MSTORE DUP6 ADD PUSH2 0x224D JUMP JUMPDEST SWAP1 DUP7 ADD MSTORE DUP3 ADD PUSH2 0x224D JUMP JUMPDEST PUSH1 0x40 DUP5 ADD MSTORE ADD SLOAD PUSH1 0x60 DUP3 ADD MSTORE PUSH2 0x9ED DUP3 DUP10 PUSH2 0x2507 JUMP JUMPDEST MSTORE DUP7 PUSH2 0x2507 JUMP JUMPDEST POP PUSH2 0x240B JUMP JUMPDEST PUSH2 0x8E2 JUMP JUMPDEST PUSH4 0x4E487B71 PUSH1 0xE0 SHL PUSH1 0x0 MSTORE PUSH1 0x11 PUSH1 0x4 MSTORE PUSH1 0x24 PUSH1 0x0 REVERT JUMPDEST PUSH1 0x20 SWAP1 PUSH1 0x40 MLOAD PUSH2 0xA24 DUP2 PUSH2 0x212E JUMP JUMPDEST PUSH1 0x0 DUP2 MSTORE PUSH1 0x60 PUSH1 0x0 DUP5 SWAP2 DUP1 DUP4 DUP6 ADD MSTORE DUP1 PUSH1 0x40 DUP6 ADD MSTORE DUP4 ADD MSTORE DUP3 DUP8 ADD ADD MSTORE ADD PUSH2 0x8D4 JUMP JUMPDEST CALLVALUE PUSH2 0x227 JUMPI PUSH1 0x0 CALLDATASIZE PUSH1 0x3 NOT ADD SLT PUSH2 0x227 JUMPI PUSH1 0x20 PUSH1 0x7 SLOAD PUSH1 0x40 MLOAD SWAP1 DUP2 MSTORE RETURN JUMPDEST CALLVALUE PUSH2 0x227 JUMPI PUSH1 0x20 CALLDATASIZE PUSH1 0x3 NOT ADD SLT PUSH2 0x227 JUMPI PUSH1 0x1 PUSH1 0x1 PUSH1 0xA0 SHL SUB PUSH2 0xA86 PUSH2 0x21FD JUMP JUMPDEST AND PUSH1 0x0 MSTORE PUSH1 0x1 PUSH1 0x20 MSTORE PUSH1 0x20 PUSH1 0xFF PUSH1 0x5 PUSH1 0x40 PUSH1 0x0 KECCAK256 ADD SLOAD AND PUSH1 0x40 MLOAD SWAP1 ISZERO ISZERO DUP2 MSTORE RETURN JUMPDEST CALLVALUE PUSH2 0x227 JUMPI PUSH1 0x20 CALLDATASIZE PUSH1 0x3 NOT ADD SLT PUSH2 0x227 JUMPI PUSH2 0xACD PUSH1 0x1 DUP1 PUSH1 0xA0 SHL SUB PUSH1 0x8 SLOAD AND CALLER EQ PUSH2 0x2853 JUMP JUMPDEST PUSH1 0x4 CALLDATALOAD PUSH1 0x9 SSTORE STOP JUMPDEST CALLVALUE PUSH2 0x227 JUMPI PUSH1 0x20 DUP1 PUSH1 0x3 NOT CALLDATASIZE ADD SLT PUSH2 0x227 JUMPI PUSH1 0x4 CALLDATALOAD PUSH1 0x0 MSTORE PUSH1 0x3 DUP2 MSTORE PUSH1 0x40 PUSH1 0x0 KECCAK256 SWAP1 PUSH1 0x40 MLOAD SWAP1 DUP2 DUP2 DUP5 SLOAD SWAP2 DUP3 DUP2 MSTORE ADD SWAP4 PUSH1 0x0 MSTORE DUP2 PUSH1 0x0 KECCAK256 SWAP2 PUSH1 0x0 SWAP1 JUMPDEST DUP3 DUP3 LT PUSH2 0xB38 JUMPI PUSH2 0xB34 DUP6 PUSH2 0xB28 DUP2 DUP10 SUB DUP3 PUSH2 0x2149 JUMP JUMPDEST PUSH1 0x40 MLOAD SWAP2 DUP3 SWAP2 DUP3 PUSH2 0x232E JUMP JUMPDEST SUB SWAP1 RETURN JUMPDEST DUP4 SLOAD PUSH1 0x1 PUSH1 0x1 PUSH1 0xA0 SHL SUB AND DUP7 MSTORE SWAP5 DUP6 ADD SWAP5 PUSH1 0x1 SWAP4 DUP5 ADD SWAP4 SWAP1 SWAP2 ADD SWAP1 PUSH2 0xB11 JUMP JUMPDEST CALLVALUE PUSH2 0x227 JUMPI PUSH1 0x20 CALLDATASIZE PUSH1 0x3 NOT ADD SLT PUSH2 0x227 JUMPI PUSH1 0x1 PUSH1 0x1 PUSH1 0xA0 SHL SUB PUSH2 0xB79 PUSH2 0x21FD JUMP JUMPDEST AND PUSH1 0x0 MSTORE PUSH1 0x1 PUSH1 0x20 MSTORE PUSH2 0xB34 PUSH2 0xB95 PUSH1 0x2 PUSH1 0x40 PUSH1 0x0 KECCAK256 ADD PUSH2 0x288B JUMP JUMPDEST PUSH1 0x40 MLOAD SWAP2 DUP3 SWAP2 PUSH1 0x20 DUP4 MSTORE PUSH1 0x20 DUP4 ADD SWAP1 PUSH2 0x23D7 JUMP JUMPDEST CALLVALUE PUSH2 0x227 JUMPI PUSH1 0x20 CALLDATASIZE PUSH1 0x3 NOT ADD SLT PUSH2 0x227 JUMPI PUSH1 0x4 CALLDATALOAD PUSH1 0x1 PUSH1 0x1 PUSH1 0x40 SHL SUB DUP2 GT PUSH2 0x227 JUMPI PUSH2 0xB28 PUSH2 0xBDF PUSH2 0xB34 SWAP3 CALLDATASIZE SWAP1 PUSH1 0x4 ADD PUSH2 0x2080 JUMP JUMPDEST SWAP1 PUSH2 0x26A6 JUMP JUMPDEST CALLVALUE PUSH2 0x227 JUMPI PUSH1 0x20 DUP1 PUSH1 0x3 NOT CALLDATASIZE ADD SLT PUSH2 0x227 JUMPI PUSH1 0x5 SLOAD PUSH1 0x4 CALLDATALOAD DUP2 DUP2 GT ISZERO PUSH2 0xD68 JUMPI POP DUP1 SWAP2 JUMPDEST PUSH2 0xC12 DUP3 PUSH2 0x2674 JUMP JUMPDEST SWAP2 PUSH1 0x0 JUMPDEST DUP2 DUP2 LT PUSH2 0xD3A JUMPI POP POP PUSH1 0x0 JUMPDEST DUP3 MLOAD DUP2 LT ISZERO PUSH2 0xCE9 JUMPI PUSH1 0x1 DUP1 DUP3 ADD DUP1 DUP4 GT PUSH2 0x9FF JUMPI DUP2 JUMPDEST PUSH2 0xC4E JUMPI JUMPDEST POP POP PUSH2 0xC49 SWAP1 PUSH2 0x240B JUMP JUMPDEST PUSH2 0xC22 JUMP JUMPDEST DUP5 MLOAD DUP2 LT ISZERO PUSH2 0xCE4 JUMPI DUP2 SWAP1 PUSH2 0xCA8 SWAP1 PUSH1 0x1 PUSH1 0x1 PUSH1 0xA0 SHL SUB DUP1 PUSH2 0xC70 DUP4 DUP11 PUSH2 0x2507 JUMP JUMPDEST MLOAD AND PUSH1 0x0 MSTORE DUP4 DUP8 MSTORE PUSH1 0x4 PUSH1 0x40 PUSH1 0x0 KECCAK256 ADD SLOAD DUP2 PUSH2 0xC8C DUP9 DUP12 PUSH2 0x2507 JUMP JUMPDEST MLOAD AND PUSH1 0x0 MSTORE DUP5 DUP9 MSTORE PUSH1 0x4 PUSH1 0x40 PUSH1 0x0 KECCAK256 ADD SLOAD LT PUSH2 0xCAE JUMPI POP PUSH2 0x240B JUMP JUMPDEST SWAP1 PUSH2 0xC39 JUMP JUMPDEST DUP1 PUSH2 0xCB9 DUP8 DUP11 PUSH2 0x2507 JUMP JUMPDEST MLOAD AND SWAP1 PUSH2 0xCC6 DUP4 DUP11 PUSH2 0x2507 JUMP JUMPDEST MLOAD AND PUSH2 0xCD2 DUP8 DUP11 PUSH2 0x2507 JUMP JUMPDEST MSTORE PUSH2 0xCDD DUP3 DUP10 PUSH2 0x2507 JUMP JUMPDEST MSTORE DUP9 PUSH2 0x9F4 JUMP JUMPDEST PUSH2 0xC3E JUMP JUMPDEST DUP3 DUP5 PUSH2 0xCF4 DUP2 PUSH2 0x2674 JUMP JUMPDEST SWAP2 PUSH1 0x0 JUMPDEST DUP3 DUP2 LT PUSH2 0xD0D JUMPI PUSH1 0x40 MLOAD DUP1 PUSH2 0xB34 DUP7 DUP3 PUSH2 0x232E JUMP JUMPDEST PUSH2 0xD35 SWAP1 PUSH1 0x1 PUSH1 0x1 PUSH1 0xA0 SHL SUB PUSH2 0xD23 DUP3 DUP6 PUSH2 0x2507 JUMP JUMPDEST MLOAD AND PUSH2 0xD2F DUP3 DUP8 PUSH2 0x2507 JUMP JUMPDEST MSTORE PUSH2 0x240B JUMP JUMPDEST PUSH2 0xCF8 JUMP JUMPDEST DUP1 PUSH2 0xD47 PUSH2 0xD63 SWAP3 PUSH2 0x2372 JUMP JUMPDEST SWAP1 SLOAD PUSH1 0x3 SWAP2 SWAP1 SWAP2 SHL SHR PUSH1 0x1 PUSH1 0x1 PUSH1 0xA0 SHL SUB AND PUSH2 0xD2F DUP3 DUP8 PUSH2 0x2507 JUMP JUMPDEST PUSH2 0xC16 JUMP JUMPDEST SWAP2 PUSH2 0xC09 JUMP JUMPDEST CALLVALUE PUSH2 0x227 JUMPI PUSH2 0xD7C CALLDATASIZE PUSH2 0x2318 JUMP JUMPDEST SWAP1 PUSH1 0x0 MSTORE PUSH1 0x3 PUSH1 0x20 MSTORE PUSH1 0x40 PUSH1 0x0 KECCAK256 DUP1 SLOAD DUP3 LT ISZERO PUSH2 0x227 JUMPI PUSH1 0x20 SWAP2 PUSH2 0x4BA SWAP2 PUSH2 0x23BF JUMP JUMPDEST CALLVALUE PUSH2 0x227 JUMPI PUSH1 0x0 CALLDATASIZE PUSH1 0x3 NOT ADD SLT PUSH2 0x227 JUMPI PUSH1 0x0 SLOAD PUSH1 0x40 MLOAD PUSH1 0x8 SWAP2 SWAP1 SWAP2 SHR PUSH1 0x1 PUSH1 0x1 PUSH1 0xA0 SHL SUB AND DUP2 MSTORE PUSH1 0x20 SWAP1 RETURN JUMPDEST CALLVALUE PUSH2 0x227 JUMPI PUSH1 0x0 CALLDATASIZE PUSH1 0x3 NOT ADD SLT PUSH2 0x227 JUMPI PUSH1 0x8 SLOAD PUSH1 0x40 MLOAD PUSH1 0x1 PUSH1 0x1 PUSH1 0xA0 SHL SUB SWAP1 SWAP2 AND DUP2 MSTORE PUSH1 0x20 SWAP1 RETURN JUMPDEST CALLVALUE PUSH2 0x227 JUMPI PUSH1 0x0 CALLDATASIZE PUSH1 0x3 NOT ADD SLT PUSH2 0x227 JUMPI PUSH1 0x0 SLOAD PUSH1 0x8 DUP2 SWAP1 SHR PUSH1 0x1 PUSH1 0x1 PUSH1 0xA0 SHL SUB AND CALLER SUB PUSH2 0xE6E JUMPI PUSH1 0xFF DUP2 AND PUSH2 0xE5C JUMPI PUSH1 0x1 SWAP1 PUSH1 0xFF NOT AND OR PUSH1 0x0 SSTORE PUSH32 0x62E78CEA01BEE320CD4E420270B5EA74000D11B0C9F74754EBDBFC544B05A258 PUSH1 0x20 PUSH1 0x40 MLOAD CALLER DUP2 MSTORE LOG1 STOP JUMPDEST PUSH1 0x40 MLOAD PUSH4 0xAB35696F PUSH1 0xE0 SHL DUP2 MSTORE PUSH1 0x4 SWAP1 REVERT JUMPDEST PUSH1 0x40 MLOAD PUSH4 0x492F6781 PUSH1 0xE0 SHL DUP2 MSTORE PUSH1 0x4 SWAP1 REVERT JUMPDEST PUSH2 0xE89 CALLDATASIZE PUSH2 0x20B0 JUMP JUMPDEST SWAP1 PUSH1 0xFF PUSH1 0x0 SWAP5 SWAP4 SWAP5 SLOAD AND PUSH2 0xE5C JUMPI PUSH1 0x2 PUSH32 0x9B779B17422D0DF92223018B32B4D1FA46E071723D6817E2486D003BECC55F00 SLOAD EQ PUSH2 0x157C JUMPI PUSH1 0x2 PUSH32 0x9B779B17422D0DF92223018B32B4D1FA46E071723D6817E2486D003BECC55F00 SSTORE PUSH1 0x0 JUMPDEST DUP3 DUP2 LT PUSH2 0x1536 JUMPI POP CALLER PUSH1 0x0 MSTORE PUSH1 0x1 PUSH1 0x20 MSTORE PUSH1 0xFF PUSH1 0x5 PUSH1 0x40 PUSH1 0x0 KECCAK256 ADD SLOAD AND PUSH2 0x14FC JUMPI PUSH1 0x9 SLOAD DUP1 CALLVALUE LT PUSH2 0x14C4 JUMPI DUP1 CALLVALUE GT PUSH2 0x1469 JUMPI JUMPDEST POP PUSH2 0xF24 DUP3 PUSH2 0x24BD JUMP JUMPDEST PUSH1 0x0 JUMPDEST DUP4 DUP2 LT PUSH2 0x13D8 JUMPI POP PUSH1 0x40 MLOAD SWAP1 PUSH2 0xF3C DUP3 PUSH2 0x2112 JUMP JUMPDEST CALLER DUP3 MSTORE PUSH2 0xF4A CALLDATASIZE DUP8 DUP8 PUSH2 0x2185 JUMP JUMPDEST PUSH1 0x20 DUP4 ADD MSTORE PUSH2 0xF58 DUP5 PUSH2 0x24A6 JUMP JUMPDEST PUSH2 0xF65 PUSH1 0x40 MLOAD SWAP2 DUP3 PUSH2 0x2149 JUMP JUMPDEST DUP5 DUP2 MSTORE PUSH1 0x20 DUP2 ADD CALLDATASIZE DUP7 PUSH1 0x5 SHL DUP7 ADD GT PUSH2 0x227 JUMPI DUP5 SWAP1 JUMPDEST DUP7 PUSH1 0x5 SHL DUP7 ADD DUP3 LT PUSH2 0x13C8 JUMPI POP POP PUSH1 0x40 DUP4 ADD MSTORE PUSH1 0x60 DUP3 ADD MSTORE PUSH1 0x0 PUSH1 0x80 DUP3 ADD MSTORE PUSH1 0x1 PUSH1 0xA0 DUP3 ADD MSTORE TIMESTAMP PUSH1 0xC0 DUP3 ADD MSTORE TIMESTAMP PUSH1 0xE0 DUP3 ADD MSTORE PUSH1 0x0 PUSH2 0x100 DUP3 ADD MSTORE PUSH1 0x0 PUSH2 0x120 DUP3 ADD MSTORE PUSH1 0x0 PUSH2 0x140 DUP3 ADD MSTORE CALLER PUSH1 0x0 MSTORE PUSH1 0x1 PUSH1 0x20 MSTORE PUSH1 0x40 PUSH1 0x0 KECCAK256 SWAP1 PUSH1 0x1 DUP1 PUSH1 0xA0 SHL SUB DUP2 MLOAD AND PUSH12 0xFFFFFFFFFFFFFFFFFFFFFFFF PUSH1 0xA0 SHL DUP4 SLOAD AND OR DUP3 SSTORE PUSH1 0x20 DUP2 ADD MLOAD DUP1 MLOAD SWAP1 PUSH1 0x1 PUSH1 0x1 PUSH1 0x40 SHL SUB DUP3 GT PUSH2 0x72F JUMPI DUP2 SWAP1 PUSH2 0x1026 DUP3 PUSH2 0x101D PUSH1 0x1 DUP9 ADD SLOAD PUSH2 0x2213 JUMP JUMPDEST PUSH1 0x1 DUP9 ADD PUSH2 0x2555 JUMP JUMPDEST PUSH1 0x20 SWAP1 PUSH1 0x1F DUP4 GT PUSH1 0x1 EQ PUSH2 0x1356 JUMPI PUSH1 0x0 SWAP3 PUSH2 0x134B JUMPI JUMPDEST POP POP DUP2 PUSH1 0x1 SHL SWAP2 PUSH1 0x0 NOT SWAP1 PUSH1 0x3 SHL SHR NOT AND OR PUSH1 0x1 DUP4 ADD SSTORE JUMPDEST PUSH1 0x40 DUP2 ADD MLOAD DUP1 MLOAD SWAP1 PUSH1 0x1 PUSH1 0x1 PUSH1 0x40 SHL SUB DUP3 GT PUSH2 0x72F JUMPI PUSH1 0x20 PUSH1 0x2 DUP6 ADD SWAP2 PUSH2 0x107B DUP5 DUP5 PUSH2 0x259A JUMP JUMPDEST ADD SWAP1 PUSH1 0x0 MSTORE PUSH1 0x20 PUSH1 0x0 KECCAK256 PUSH1 0x0 JUMPDEST DUP4 DUP2 LT PUSH2 0x1337 JUMPI POP POP POP POP PUSH1 0x60 DUP2 ADD MLOAD DUP1 MLOAD SWAP1 PUSH1 0x1 PUSH1 0x40 SHL DUP3 GT PUSH2 0x72F JUMPI PUSH1 0x3 DUP5 ADD SLOAD DUP3 PUSH1 0x3 DUP7 ADD SSTORE DUP1 DUP4 LT PUSH2 0x12BF JUMPI JUMPDEST POP PUSH1 0x20 ADD SWAP1 PUSH1 0x3 DUP5 ADD PUSH1 0x0 MSTORE PUSH1 0x20 PUSH1 0x0 KECCAK256 SWAP2 PUSH1 0x0 SWAP1 JUMPDEST DUP3 DUP3 LT PUSH2 0x11DC JUMPI POP POP POP POP PUSH2 0x140 DUP2 PUSH1 0x80 PUSH1 0xA SWAP4 ADD MLOAD PUSH1 0x4 DUP6 ADD SSTORE PUSH1 0x5 DUP5 ADD PUSH1 0xA0 DUP3 ADD MLOAD ISZERO ISZERO PUSH1 0xFF DUP1 NOT DUP4 SLOAD AND SWAP2 AND OR SWAP1 SSTORE PUSH1 0xC0 DUP2 ADD MLOAD PUSH1 0x6 DUP6 ADD SSTORE PUSH1 0xE0 DUP2 ADD MLOAD PUSH1 0x7 DUP6 ADD SSTORE PUSH2 0x100 DUP2 ADD MLOAD PUSH1 0x8 DUP6 ADD SSTORE PUSH2 0x120 DUP2 ADD MLOAD PUSH1 0x9 DUP6 ADD SSTORE ADD MLOAD SWAP2 ADD SSTORE PUSH1 0x5 SLOAD PUSH1 0x1 PUSH1 0x40 SHL DUP2 LT ISZERO PUSH2 0x72F JUMPI PUSH32 0xDF1275F67E995789184A7A608F6C1B71953A305670459D1BB1F05956DB47C05D SWAP4 PUSH2 0x1195 PUSH2 0x1177 DUP4 PUSH1 0x1 PUSH2 0x11B3 SWAP6 ADD PUSH1 0x5 SSTORE PUSH2 0x2372 JUMP JUMPDEST DUP2 SLOAD PUSH1 0x1 PUSH1 0x1 PUSH1 0xA0 SHL SUB PUSH1 0x3 SWAP3 SWAP1 SWAP3 SHL SWAP2 DUP3 SHL NOT AND CALLER SWAP1 SWAP2 SHL OR SWAP1 SSTORE JUMP JUMPDEST PUSH2 0x11A0 PUSH1 0x7 SLOAD PUSH2 0x240B JUMP JUMPDEST PUSH1 0x7 SSTORE PUSH1 0x40 MLOAD SWAP4 DUP5 SWAP4 CALLER SWAP8 TIMESTAMP SWAP4 DUP7 PUSH2 0x25CE JUMP JUMPDEST SUB SWAP1 LOG2 PUSH1 0x1 PUSH32 0x9B779B17422D0DF92223018B32B4D1FA46E071723D6817E2486D003BECC55F00 SSTORE STOP JUMPDEST DUP1 MLOAD DUP1 MLOAD SWAP1 PUSH1 0x1 PUSH1 0x1 PUSH1 0x40 SHL SUB DUP3 GT PUSH2 0x72F JUMPI PUSH2 0x1203 DUP3 PUSH2 0x11FD DUP9 SLOAD PUSH2 0x2213 JUMP JUMPDEST DUP9 PUSH2 0x2555 JUMP JUMPDEST PUSH1 0x20 SWAP1 PUSH1 0x1F DUP4 GT PUSH1 0x1 EQ PUSH2 0x124F JUMPI SWAP3 DUP3 PUSH1 0x1 SWAP5 SWAP4 PUSH1 0x20 SWAP4 DUP7 SWAP6 PUSH1 0x0 SWAP3 PUSH2 0x1244 JUMPI JUMPDEST POP POP PUSH1 0x0 NOT PUSH1 0x3 DUP4 SWAP1 SHL SHR NOT AND SWAP1 DUP5 SHL OR DUP8 SSTORE JUMPDEST ADD SWAP5 ADD SWAP2 ADD SWAP1 SWAP3 PUSH2 0x10CF JUMP JUMPDEST ADD MLOAD SWAP1 POP DUP16 DUP1 PUSH2 0x1224 JUMP JUMPDEST SWAP1 DUP7 PUSH1 0x0 MSTORE PUSH1 0x20 PUSH1 0x0 KECCAK256 SWAP2 PUSH1 0x0 JUMPDEST PUSH1 0x1F NOT DUP6 AND DUP2 LT PUSH2 0x12A7 JUMPI POP DUP4 PUSH1 0x20 SWAP4 PUSH1 0x1 SWAP7 SWAP4 DUP8 SWAP7 SWAP4 DUP8 SWAP5 PUSH1 0x1F NOT DUP2 AND LT PUSH2 0x128E JUMPI JUMPDEST POP POP POP DUP2 SHL ADD DUP8 SSTORE PUSH2 0x1238 JUMP JUMPDEST ADD MLOAD PUSH1 0x0 NOT PUSH1 0xF8 DUP5 PUSH1 0x3 SHL AND SHR NOT AND SWAP1 SSTORE DUP16 DUP1 DUP1 PUSH2 0x1281 JUMP JUMPDEST SWAP2 SWAP3 PUSH1 0x20 PUSH1 0x1 DUP2 SWAP3 DUP7 DUP6 ADD MLOAD DUP2 SSTORE ADD SWAP5 ADD SWAP3 ADD PUSH2 0x125D JUMP JUMPDEST PUSH1 0x3 DUP6 ADD PUSH1 0x0 MSTORE PUSH1 0x20 PUSH1 0x0 KECCAK256 SWAP1 DUP4 DUP3 ADD JUMPDEST DUP2 DUP4 ADD DUP2 LT PUSH2 0x12E0 JUMPI POP POP PUSH2 0x10B9 JUMP JUMPDEST DUP1 PUSH2 0x12ED PUSH1 0x1 SWAP3 SLOAD PUSH2 0x2213 JUMP JUMPDEST DUP1 PUSH2 0x12FA JUMPI JUMPDEST POP ADD PUSH2 0x12D0 JUMP JUMPDEST PUSH1 0x1F DUP2 GT DUP4 EQ PUSH2 0x1310 JUMPI POP PUSH1 0x0 DUP2 SSTORE JUMPDEST DUP13 PUSH2 0x12F3 JUMP JUMPDEST PUSH1 0x0 SWAP1 DUP3 DUP3 MSTORE PUSH2 0x132E PUSH1 0x1F PUSH1 0x20 DUP5 KECCAK256 SWAP3 ADD PUSH1 0x5 SHR DUP3 ADD DUP6 DUP4 ADD PUSH2 0x253E JUMP JUMPDEST DUP2 DUP4 SSTORE SSTORE PUSH2 0x130A JUMP JUMPDEST PUSH1 0x1 SWAP1 PUSH1 0x20 DUP5 MLOAD SWAP5 ADD SWAP4 DUP2 DUP5 ADD SSTORE ADD PUSH2 0x1088 JUMP JUMPDEST ADD MLOAD SWAP1 POP DUP9 DUP1 PUSH2 0x103C JUMP JUMPDEST SWAP3 POP PUSH1 0x1 DUP6 ADD PUSH1 0x0 MSTORE PUSH1 0x20 PUSH1 0x0 KECCAK256 SWAP1 PUSH1 0x0 SWAP4 JUMPDEST PUSH1 0x1F NOT DUP5 AND DUP6 LT PUSH2 0x13AD JUMPI PUSH1 0x1 SWAP5 POP DUP4 PUSH1 0x1F NOT DUP2 AND LT PUSH2 0x1394 JUMPI JUMPDEST POP POP POP DUP2 SHL ADD PUSH1 0x1 DUP4 ADD SSTORE PUSH2 0x1054 JUMP JUMPDEST ADD MLOAD PUSH1 0x0 NOT PUSH1 0xF8 DUP5 PUSH1 0x3 SHL AND SHR NOT AND SWAP1 SSTORE DUP9 DUP1 DUP1 PUSH2 0x1384 JUMP JUMPDEST DUP2 DUP2 ADD MLOAD DUP4 SSTORE PUSH1 0x20 SWAP5 DUP6 ADD SWAP5 PUSH1 0x1 SWAP1 SWAP4 ADD SWAP3 SWAP1 SWAP2 ADD SWAP1 PUSH2 0x1369 JUMP JUMPDEST DUP2 CALLDATALOAD DUP2 MSTORE PUSH1 0x20 SWAP2 DUP3 ADD SWAP2 ADD PUSH2 0xF7B JUMP JUMPDEST DUP1 PUSH2 0x13E7 PUSH2 0x1464 SWAP3 DUP7 DUP7 PUSH2 0x241A JUMP JUMPDEST CALLDATALOAD PUSH1 0x0 MSTORE PUSH1 0x2 PUSH1 0x20 MSTORE PUSH2 0x1400 PUSH1 0x1 PUSH1 0x40 PUSH1 0x0 KECCAK256 ADD PUSH2 0x224D JUMP JUMPDEST PUSH2 0x140A DUP3 DUP6 PUSH2 0x2507 JUMP JUMPDEST MSTORE PUSH2 0x1415 DUP2 DUP5 PUSH2 0x2507 JUMP JUMPDEST POP PUSH2 0x1421 DUP2 DUP7 DUP7 PUSH2 0x241A JUMP JUMPDEST CALLDATALOAD PUSH1 0x0 MSTORE PUSH1 0x3 DUP1 PUSH1 0x20 MSTORE PUSH2 0x1439 CALLER PUSH1 0x40 PUSH1 0x0 KECCAK256 PUSH2 0x251B JUMP JUMPDEST PUSH2 0x1444 DUP3 DUP8 DUP8 PUSH2 0x241A JUMP JUMPDEST CALLDATALOAD PUSH1 0x0 MSTORE PUSH1 0x2 PUSH1 0x20 MSTORE PUSH1 0x40 PUSH1 0x0 KECCAK256 ADD PUSH2 0x145D DUP2 SLOAD PUSH2 0x240B JUMP JUMPDEST SWAP1 SSTORE PUSH2 0x240B JUMP JUMPDEST PUSH2 0xF27 JUMP JUMPDEST PUSH1 0x0 DUP1 DUP1 PUSH2 0x1478 DUP2 SWAP5 CALLVALUE PUSH2 0x2469 JUMP JUMPDEST CALLER GAS CALL PUSH2 0x1483 PUSH2 0x2476 JUMP JUMPDEST POP ISZERO PUSH2 0x148F JUMPI DUP5 PUSH2 0xF1A JUMP JUMPDEST PUSH1 0x40 MLOAD PUSH3 0x461BCD PUSH1 0xE5 SHL DUP2 MSTORE PUSH1 0x20 PUSH1 0x4 DUP3 ADD MSTORE PUSH1 0xD PUSH1 0x24 DUP3 ADD MSTORE PUSH13 0x1499599D5B990819985A5B1959 PUSH1 0x9A SHL PUSH1 0x44 DUP3 ADD MSTORE PUSH1 0x64 SWAP1 REVERT JUMPDEST PUSH1 0x40 MLOAD PUSH3 0x461BCD PUSH1 0xE5 SHL DUP2 MSTORE PUSH1 0x20 PUSH1 0x4 DUP3 ADD MSTORE PUSH1 0x10 PUSH1 0x24 DUP3 ADD MSTORE PUSH16 0x496E73756666696369656E7420666565 PUSH1 0x80 SHL PUSH1 0x44 DUP3 ADD MSTORE PUSH1 0x64 SWAP1 REVERT JUMPDEST PUSH1 0x40 MLOAD PUSH3 0x461BCD PUSH1 0xE5 SHL DUP2 MSTORE PUSH1 0x20 PUSH1 0x4 DUP3 ADD MSTORE PUSH1 0x12 PUSH1 0x24 DUP3 ADD MSTORE PUSH18 0x105B1C9958591E481C9959DA5CDD195C9959 PUSH1 0x72 SHL PUSH1 0x44 DUP3 ADD MSTORE PUSH1 0x64 SWAP1 REVERT JUMPDEST DUP1 PUSH2 0x1545 PUSH2 0x155C SWAP3 DUP6 DUP6 PUSH2 0x241A JUMP JUMPDEST CALLDATALOAD ISZERO ISZERO DUP1 PUSH2 0x1561 JUMPI JUMPDEST PUSH2 0x1557 SWAP1 PUSH2 0x242A JUMP JUMPDEST PUSH2 0x240B JUMP JUMPDEST PUSH2 0xEE7 JUMP JUMPDEST POP PUSH2 0x1557 PUSH2 0x1570 DUP3 DUP7 DUP7 PUSH2 0x241A JUMP JUMPDEST CALLDATALOAD PUSH1 0x6 SLOAD GT SWAP1 POP PUSH2 0x154E JUMP JUMPDEST PUSH1 0x40 MLOAD PUSH4 0x3EE5AEB5 PUSH1 0xE0 SHL DUP2 MSTORE PUSH1 0x4 SWAP1 REVERT JUMPDEST CALLVALUE PUSH2 0x227 JUMPI PUSH2 0x159C CALLDATASIZE PUSH2 0x2318 JUMP JUMPDEST PUSH1 0x5 SWAP2 DUP3 SLOAD SWAP1 PUSH2 0x15AB DUP3 PUSH2 0x2674 JUMP JUMPDEST SWAP4 PUSH2 0x15B8 PUSH1 0x0 SWAP5 TIMESTAMP PUSH2 0x2469 JUMP JUMPDEST SWAP1 PUSH1 0x0 JUMPDEST DUP5 DUP2 LT PUSH2 0x1606 JUMPI JUMPDEST POP POP POP POP POP PUSH2 0x15D2 DUP2 PUSH2 0x2674 JUMP JUMPDEST SWAP2 PUSH1 0x0 JUMPDEST DUP3 DUP2 LT PUSH2 0x15EB JUMPI PUSH1 0x40 MLOAD DUP1 PUSH2 0xB34 DUP7 DUP3 PUSH2 0x232E JUMP JUMPDEST PUSH2 0x1601 SWAP1 PUSH1 0x1 PUSH1 0x1 PUSH1 0xA0 SHL SUB PUSH2 0xD23 DUP3 DUP6 PUSH2 0x2507 JUMP JUMPDEST PUSH2 0x15D6 JUMP JUMPDEST PUSH2 0x160F DUP2 PUSH2 0x2372 JUMP JUMPDEST PUSH1 0x1 DUP1 PUSH1 0xA0 SHL SUB DUP1 SWAP3 SLOAD PUSH1 0x3 SWAP3 DUP4 SHL SHR AND PUSH1 0x0 MSTORE PUSH1 0x1 PUSH1 0x20 SWAP1 DUP1 DUP3 MSTORE PUSH1 0xFF DUP7 PUSH1 0x40 PUSH1 0x0 KECCAK256 ADD SLOAD AND SWAP2 DUP3 PUSH2 0x1689 JUMPI JUMPDEST POP POP PUSH2 0x1654 JUMPI JUMPDEST POP POP PUSH2 0x164F SWAP1 PUSH2 0x240B JUMP JUMPDEST PUSH2 0x15BC JUMP JUMPDEST SWAP1 DUP3 SWAP8 SWAP2 PUSH2 0x1664 PUSH2 0x1674 SWAP5 PUSH2 0x2372 JUMP JUMPDEST SWAP1 SLOAD SWAP2 SHL SHR AND PUSH2 0xD2F DUP3 DUP11 PUSH2 0x2507 JUMP JUMPDEST SWAP5 DUP4 DUP7 LT ISZERO PUSH2 0x1684 JUMPI DUP8 DUP1 PUSH2 0x1644 JUMP JUMPDEST PUSH2 0x15C4 JUMP JUMPDEST SWAP1 SWAP2 POP DUP4 PUSH2 0x1696 DUP7 PUSH2 0x2372 JUMP JUMPDEST SWAP1 SLOAD SWAP1 DUP6 SHL SHR AND PUSH1 0x0 MSTORE MSTORE DUP5 PUSH1 0x7 PUSH1 0x40 PUSH1 0x0 KECCAK256 ADD SLOAD LT ISZERO DUP11 DUP1 PUSH2 0x163D JUMP JUMPDEST CALLVALUE PUSH2 0x227 JUMPI PUSH1 0x0 CALLDATASIZE PUSH1 0x3 NOT ADD SLT PUSH2 0x227 JUMPI PUSH1 0x20 PUSH1 0xFF PUSH1 0x0 SLOAD AND PUSH1 0x40 MLOAD SWAP1 ISZERO ISZERO DUP2 MSTORE RETURN JUMPDEST CALLVALUE PUSH2 0x227 JUMPI PUSH1 0x0 CALLDATASIZE PUSH1 0x3 NOT ADD SLT PUSH2 0x227 JUMPI CALLER PUSH1 0x0 MSTORE PUSH1 0x1 PUSH1 0x20 MSTORE PUSH2 0x1705 PUSH1 0xFF PUSH1 0x5 PUSH1 0x40 PUSH1 0x0 KECCAK256 ADD SLOAD AND PUSH2 0x262A JUMP JUMPDEST CALLER PUSH1 0x0 MSTORE PUSH1 0x1 PUSH1 0x20 MSTORE PUSH1 0x5 PUSH1 0x40 PUSH1 0x0 KECCAK256 ADD PUSH1 0xFF NOT DUP2 SLOAD AND SWAP1 SSTORE PUSH1 0x40 MLOAD TIMESTAMP DUP2 MSTORE PUSH32 0x908D0024A3278CB165ED9B5E370DFD4B2C566122EFEBB355AFB5B56E2249158 PUSH1 0x20 CALLER SWAP3 LOG2 STOP JUMPDEST CALLVALUE PUSH2 0x227 JUMPI PUSH1 0x20 CALLDATASIZE PUSH1 0x3 NOT ADD SLT PUSH2 0x227 JUMPI PUSH1 0x4 CALLDATALOAD PUSH1 0x0 MSTORE PUSH1 0x2 PUSH1 0x20 MSTORE PUSH1 0x40 PUSH1 0x0 KECCAK256 DUP1 SLOAD PUSH2 0x177B PUSH1 0x1 DUP4 ADD PUSH2 0x224D JUMP JUMPDEST SWAP2 PUSH2 0x17BB PUSH1 0x3 PUSH2 0x178D PUSH1 0x2 DUP5 ADD PUSH2 0x224D JUMP JUMPDEST SWAP3 ADD SLOAD SWAP2 PUSH2 0x17AD PUSH1 0x40 MLOAD SWAP6 DUP7 SWAP6 DUP7 MSTORE PUSH1 0x80 PUSH1 0x20 DUP8 ADD MSTORE PUSH1 0x80 DUP7 ADD SWAP1 PUSH2 0x22F3 JUMP JUMPDEST SWAP1 DUP5 DUP3 SUB PUSH1 0x40 DUP7 ADD MSTORE PUSH2 0x22F3 JUMP JUMPDEST SWAP1 PUSH1 0x60 DUP4 ADD MSTORE SUB SWAP1 RETURN JUMPDEST CALLVALUE PUSH2 0x227 JUMPI PUSH1 0x0 CALLDATASIZE PUSH1 0x3 NOT ADD SLT PUSH2 0x227 JUMPI PUSH1 0x0 DUP1 DUP1 DUP1 PUSH1 0x1 DUP1 PUSH1 0xA0 SHL SUB PUSH1 0x8 SLOAD AND PUSH2 0x17F1 DUP2 CALLER EQ PUSH2 0x2853 JUMP JUMPDEST SELFBALANCE SWAP1 GAS CALL PUSH2 0x17FD PUSH2 0x2476 JUMP JUMPDEST POP ISZERO PUSH2 0x1805 JUMPI STOP JUMPDEST PUSH1 0x40 MLOAD PUSH3 0x461BCD PUSH1 0xE5 SHL DUP2 MSTORE PUSH1 0x20 PUSH1 0x4 DUP3 ADD MSTORE PUSH1 0xF PUSH1 0x24 DUP3 ADD MSTORE PUSH15 0x15DA5D1A191C985DC819985A5B1959 PUSH1 0x8A SHL PUSH1 0x44 DUP3 ADD MSTORE PUSH1 0x64 SWAP1 REVERT JUMPDEST CALLVALUE PUSH2 0x227 JUMPI PUSH1 0x20 CALLDATASIZE PUSH1 0x3 NOT ADD SLT PUSH2 0x227 JUMPI PUSH2 0x1855 PUSH2 0x21FD JUMP JUMPDEST PUSH1 0x0 SLOAD PUSH1 0x1 PUSH1 0x1 PUSH1 0xA0 SHL SUB PUSH1 0x8 DUP3 SWAP1 SHR DUP2 AND SWAP2 SWAP1 CALLER DUP4 SWAP1 SUB PUSH2 0xE6E JUMPI DUP4 AND SWAP3 DUP4 ISZERO PUSH2 0x18C3 JUMPI PUSH2 0x100 PUSH1 0x1 PUSH1 0xA8 SHL SUB NOT SWAP1 SWAP2 AND PUSH1 0x8 SWAP2 SWAP1 SWAP2 SHL PUSH2 0x100 PUSH1 0x1 PUSH1 0xA8 SHL SUB AND OR PUSH1 0x0 SWAP1 DUP2 SSTORE PUSH32 0x51C4874E0F23F262E04A38C51751336DDE72126D67F53EB672AAFF02996B3EF6 SWAP1 DUP1 LOG3 STOP JUMPDEST PUSH1 0x40 MLOAD PUSH3 0x461BCD PUSH1 0xE5 SHL DUP2 MSTORE PUSH1 0x20 PUSH1 0x4 DUP3 ADD MSTORE PUSH1 0x16 PUSH1 0x24 DUP3 ADD MSTORE PUSH22 0x496E76616C6964207061757365722061646472657373 PUSH1 0x50 SHL PUSH1 0x44 DUP3 ADD MSTORE PUSH1 0x64 SWAP1 REVERT JUMPDEST CALLVALUE PUSH2 0x227 JUMPI PUSH1 0x0 CALLDATASIZE PUSH1 0x3 NOT ADD SLT PUSH2 0x227 JUMPI PUSH1 0x0 SLOAD PUSH1 0x8 DUP2 SWAP1 SHR PUSH1 0x1 PUSH1 0x1 PUSH1 0xA0 SHL SUB AND CALLER SUB PUSH2 0xE6E JUMPI PUSH1 0xFF DUP2 AND ISZERO PUSH2 0x1965 JUMPI PUSH1 0xFF NOT AND PUSH1 0x0 SSTORE PUSH32 0x5DB9EE0A495BF2E6FF9C91A7834C1BA4FDD244A5E8AA4E537BD38AEAE4B073AA PUSH1 0x20 PUSH1 0x40 MLOAD CALLER DUP2 MSTORE LOG1 STOP JUMPDEST PUSH1 0x40 MLOAD PUSH4 0xDCDDE9DD PUSH1 0xE0 SHL DUP2 MSTORE PUSH1 0x4 SWAP1 REVERT JUMPDEST CALLVALUE PUSH2 0x227 JUMPI PUSH1 0x80 CALLDATASIZE PUSH1 0x3 NOT ADD SLT PUSH2 0x227 JUMPI PUSH1 0x1 PUSH1 0x1 PUSH1 0xA0 SHL SUB PUSH2 0x1998 PUSH2 0x21FD JUMP JUMPDEST AND DUP1 PUSH1 0x0 MSTORE PUSH1 0x1 PUSH1 0x20 MSTORE PUSH1 0xFF PUSH1 0x5 PUSH1 0x40 PUSH1 0x0 KECCAK256 ADD SLOAD AND ISZERO PUSH2 0x1A84 JUMPI DUP1 PUSH1 0x0 MSTORE PUSH1 0x1 PUSH1 0x20 MSTORE PUSH1 0x40 PUSH1 0x0 KECCAK256 PUSH1 0x8 DUP2 ADD SWAP1 PUSH2 0x19D3 PUSH1 0x24 CALLDATALOAD DUP4 SLOAD PUSH2 0x2667 JUMP JUMPDEST DUP1 SWAP3 SSTORE PUSH1 0x9 DUP2 ADD SWAP2 PUSH2 0x19E8 PUSH1 0x44 CALLDATALOAD DUP5 SLOAD PUSH2 0x2667 JUMP JUMPDEST DUP1 SWAP4 SSTORE PUSH1 0xA DUP3 ADD PUSH2 0x19FC PUSH1 0x64 CALLDATALOAD DUP3 SLOAD PUSH2 0x2667 JUMP JUMPDEST DUP1 SWAP2 SSTORE TIMESTAMP PUSH1 0x7 DUP5 ADD SSTORE PUSH1 0xA DUP3 MUL SWAP4 DUP3 DUP6 DIV PUSH1 0xA EQ DUP4 ISZERO OR ISZERO PUSH2 0x9FF JUMPI PUSH1 0x5 DUP2 MUL SWAP4 DUP2 DUP6 DIV PUSH1 0x5 EQ DUP3 ISZERO OR ISZERO PUSH2 0x9FF JUMPI PUSH1 0x4 PUSH2 0x1A6E PUSH2 0x1A5D PUSH1 0x60 SWAP8 PUSH32 0xAC3C2BEB7724A927C9EFCB9AA36D9CC3215467AD97652337EC58C5527BA70E53 SWAP10 PUSH2 0x2667 JUMP JUMPDEST PUSH8 0xDE0B6B3A7640000 DUP7 DIV SWAP1 PUSH2 0x2667 JUMP JUMPDEST SWAP2 ADD SSTORE PUSH1 0x40 MLOAD SWAP3 DUP4 MSTORE PUSH1 0x20 DUP4 ADD MSTORE PUSH1 0x40 DUP3 ADD MSTORE LOG2 STOP JUMPDEST PUSH1 0x40 MLOAD PUSH3 0x461BCD PUSH1 0xE5 SHL DUP2 MSTORE PUSH1 0x20 PUSH1 0x4 DUP3 ADD MSTORE PUSH1 0x10 PUSH1 0x24 DUP3 ADD MSTORE PUSH16 0x4167656E74206E6F7420616374697665 PUSH1 0x80 SHL PUSH1 0x44 DUP3 ADD MSTORE PUSH1 0x64 SWAP1 REVERT JUMPDEST CALLVALUE PUSH2 0x227 JUMPI PUSH1 0x0 CALLDATASIZE PUSH1 0x3 NOT ADD SLT PUSH2 0x227 JUMPI PUSH1 0x20 PUSH1 0x6 SLOAD PUSH1 0x40 MLOAD SWAP1 DUP2 MSTORE RETURN JUMPDEST CALLVALUE PUSH2 0x227 JUMPI PUSH1 0x20 CALLDATASIZE PUSH1 0x3 NOT ADD SLT PUSH2 0x227 JUMPI PUSH1 0x4 CALLDATALOAD PUSH1 0x1 PUSH1 0x1 PUSH1 0x40 SHL SUB DUP2 GT PUSH2 0x227 JUMPI PUSH2 0x1B23 PUSH1 0x20 PUSH2 0x1B10 DUP2 SWAP4 CALLDATASIZE SWAP1 PUSH1 0x4 ADD PUSH2 0x21BC JUMP JUMPDEST DUP2 PUSH1 0x40 MLOAD SWAP4 DUP3 DUP6 DUP1 SWAP5 MLOAD SWAP4 DUP5 SWAP3 ADD PUSH2 0x21DA JUMP JUMPDEST DUP2 ADD PUSH1 0x4 DUP2 MSTORE SUB ADD SWAP1 KECCAK256 SLOAD PUSH1 0x40 MLOAD SWAP1 DUP2 MSTORE RETURN JUMPDEST CALLVALUE PUSH2 0x227 JUMPI PUSH1 0x0 CALLDATASIZE PUSH1 0x3 NOT ADD SLT PUSH2 0x227 JUMPI PUSH1 0x20 PUSH1 0x9 SLOAD PUSH1 0x40 MLOAD SWAP1 DUP2 MSTORE RETURN JUMPDEST CALLVALUE PUSH2 0x227 JUMPI PUSH2 0x1B62 CALLDATASIZE PUSH2 0x20B0 JUMP JUMPDEST SWAP2 SWAP1 CALLER PUSH1 0x0 MSTORE PUSH1 0x1 PUSH1 0x20 MSTORE PUSH2 0x1B81 PUSH1 0xFF PUSH1 0x5 PUSH1 0x40 PUSH1 0x0 KECCAK256 ADD SLOAD AND PUSH2 0x262A JUMP JUMPDEST PUSH1 0x0 JUMPDEST DUP4 DUP2 LT PUSH2 0x2045 JUMPI POP CALLER PUSH1 0x0 MSTORE PUSH1 0x1 PUSH1 0x20 MSTORE PUSH1 0x40 PUSH1 0x0 KECCAK256 PUSH1 0x0 SWAP5 PUSH1 0x2 DUP3 ADD SWAP1 JUMPDEST DUP2 SLOAD DUP8 LT ISZERO PUSH2 0x1CE5 JUMPI PUSH2 0x1BB6 DUP8 DUP4 PUSH2 0x23BF JUMP JUMPDEST SWAP1 SLOAD SWAP1 PUSH1 0x3 SHL SHR SWAP5 DUP6 PUSH1 0x0 MSTORE PUSH1 0x3 PUSH1 0x20 MSTORE PUSH1 0x40 PUSH1 0x0 KECCAK256 SWAP7 PUSH1 0x0 JUMPDEST DUP9 SLOAD DUP1 DUP3 LT ISZERO PUSH2 0x1CD1 JUMPI PUSH2 0x1BE4 DUP3 DUP12 PUSH2 0x23BF JUMP JUMPDEST SWAP1 SLOAD PUSH1 0x1 PUSH1 0x1 PUSH1 0xA0 SHL SUB SWAP3 SWAP2 PUSH1 0x3 SHL SHR DUP3 AND CALLER EQ PUSH2 0x1C0C JUMPI POP POP PUSH2 0x1C07 SWAP1 PUSH2 0x240B JUMP JUMPDEST PUSH2 0x1BD0 JUMP JUMPDEST SWAP1 SWAP3 SWAP7 SWAP11 SWAP5 SWAP9 SWAP4 SWAP8 SWAP6 SWAP10 SWAP2 PUSH1 0x0 NOT DUP3 ADD SWAP2 DUP3 GT PUSH2 0x9FF JUMPI PUSH2 0x1C43 DUP5 PUSH2 0x1C34 PUSH2 0x1C62 SWAP5 DUP7 PUSH2 0x23BF JUMP JUMPDEST SWAP1 SLOAD SWAP1 PUSH1 0x3 SHL SHR AND SWAP2 DUP5 PUSH2 0x23BF JUMP JUMPDEST SWAP1 SWAP2 SWAP1 DUP3 SLOAD SWAP1 PUSH1 0x3 SHL SWAP2 PUSH1 0x1 DUP1 PUSH1 0xA0 SHL SUB DUP1 SWAP2 AND DUP4 SHL SWAP3 SHL NOT AND OR SWAP1 SSTORE JUMP JUMPDEST DUP1 SLOAD DUP1 ISZERO PUSH2 0x1CBB JUMPI PUSH1 0x0 NOT ADD SWAP2 PUSH2 0x1C79 DUP4 DUP4 PUSH2 0x23BF JUMP JUMPDEST SWAP1 SWAP2 DUP3 SLOAD SWAP2 PUSH1 0x3 SHL SHL NOT AND SWAP1 SSTORE SSTORE PUSH1 0x0 MSTORE PUSH1 0x2 PUSH1 0x20 MSTORE PUSH1 0x3 PUSH1 0x40 PUSH1 0x0 KECCAK256 ADD SWAP1 DUP2 SLOAD SWAP2 DUP3 ISZERO PUSH2 0x9FF JUMPI PUSH2 0x1CB0 SWAP3 PUSH1 0x0 NOT ADD SWAP1 SSTORE PUSH2 0x240B JUMP JUMPDEST SWAP6 SWAP2 SWAP5 SWAP1 SWAP3 SWAP4 PUSH2 0x1BA3 JUMP JUMPDEST PUSH4 0x4E487B71 PUSH1 0xE0 SHL PUSH1 0x0 MSTORE PUSH1 0x31 PUSH1 0x4 MSTORE PUSH1 0x24 PUSH1 0x0 REVERT JUMPDEST POP POP SWAP4 SWAP8 SWAP1 SWAP5 SWAP3 SWAP7 POP PUSH2 0x1CB0 SWAP2 SWAP6 POP PUSH2 0x240B JUMP JUMPDEST SWAP5 SWAP3 SWAP2 SWAP1 PUSH2 0x1CF2 DUP5 PUSH2 0x24BD JUMP JUMPDEST SWAP1 PUSH1 0x0 JUMPDEST DUP6 DUP2 LT PUSH2 0x1FD4 JUMPI POP PUSH1 0x1 PUSH1 0x1 PUSH1 0x40 SHL SUB DUP7 GT PUSH2 0x72F JUMPI PUSH1 0x1 DUP4 ADD PUSH2 0x1D24 DUP8 PUSH2 0x1D1E DUP4 SLOAD PUSH2 0x2213 JUMP JUMPDEST DUP4 PUSH2 0x2555 JUMP JUMPDEST DUP7 PUSH1 0x0 PUSH1 0x1F DUP3 GT PUSH1 0x1 EQ PUSH2 0x1F6D JUMPI PUSH1 0x0 SWAP2 PUSH2 0x1F62 JUMPI JUMPDEST POP DUP8 PUSH1 0x1 SHL SWAP1 PUSH1 0x0 NOT DUP10 PUSH1 0x3 SHL SHR NOT AND OR SWAP1 SSTORE JUMPDEST PUSH1 0x1 PUSH1 0x1 PUSH1 0x40 SHL SUB DUP6 GT PUSH2 0x72F JUMPI PUSH2 0x1D66 DUP6 DUP3 PUSH2 0x259A JUMP JUMPDEST DUP4 SWAP1 PUSH1 0x0 MSTORE PUSH1 0x20 PUSH1 0x0 KECCAK256 SWAP1 PUSH1 0x0 JUMPDEST DUP7 DUP2 LT PUSH2 0x1F4E JUMPI POP POP POP DUP1 MLOAD SWAP1 PUSH1 0x1 PUSH1 0x40 SHL DUP3 GT PUSH2 0x72F JUMPI PUSH1 0x3 DUP4 ADD SLOAD DUP3 PUSH1 0x3 DUP6 ADD SSTORE DUP1 DUP4 LT PUSH2 0x1ED6 JUMPI JUMPDEST POP PUSH1 0x20 ADD SWAP1 PUSH1 0x3 DUP4 ADD PUSH1 0x0 MSTORE PUSH1 0x20 PUSH1 0x0 KECCAK256 SWAP2 PUSH1 0x0 SWAP1 JUMPDEST DUP3 DUP3 LT PUSH2 0x1DFB JUMPI DUP8 PUSH32 0x4343B17CBAD9B3255BE7285FE10F12EE275FA867FAD18AB3297AC8456CC99F7C DUP9 DUP9 PUSH2 0x68B DUP14 DUP11 PUSH1 0x7 TIMESTAMP SWAP2 ADD SSTORE PUSH1 0x40 MLOAD SWAP4 DUP5 SWAP4 CALLER SWAP8 TIMESTAMP SWAP4 DUP7 PUSH2 0x25CE JUMP JUMPDEST DUP1 MLOAD DUP1 MLOAD SWAP1 PUSH1 0x1 PUSH1 0x1 PUSH1 0x40 SHL SUB DUP3 GT PUSH2 0x72F JUMPI PUSH2 0x1E1C DUP3 PUSH2 0x11FD DUP9 SLOAD PUSH2 0x2213 JUMP JUMPDEST PUSH1 0x20 SWAP1 PUSH1 0x1F DUP4 GT PUSH1 0x1 EQ PUSH2 0x1E68 JUMPI SWAP3 DUP3 PUSH1 0x1 SWAP5 SWAP4 PUSH1 0x20 SWAP4 DUP7 SWAP6 PUSH1 0x0 SWAP3 PUSH2 0x1E5D JUMPI JUMPDEST POP POP PUSH1 0x0 NOT PUSH1 0x3 DUP4 SWAP1 SHL SHR NOT AND SWAP1 DUP5 SHL OR DUP8 SSTORE JUMPDEST ADD SWAP5 ADD SWAP2 ADD SWAP1 SWAP3 PUSH2 0x1DB5 JUMP JUMPDEST ADD MLOAD SWAP1 POP DUP15 DUP1 PUSH2 0x1E3D JUMP JUMPDEST SWAP1 PUSH1 0x1F NOT DUP4 AND SWAP2 DUP8 PUSH1 0x0 MSTORE PUSH1 0x20 PUSH1 0x0 KECCAK256 SWAP3 PUSH1 0x0 JUMPDEST DUP2 DUP2 LT PUSH2 0x1EBE JUMPI POP SWAP4 PUSH1 0x20 SWAP4 PUSH1 0x1 SWAP7 SWAP4 DUP8 SWAP7 SWAP4 DUP4 DUP9 SWAP6 LT PUSH2 0x1EA5 JUMPI JUMPDEST POP POP POP DUP2 SHL ADD DUP8 SSTORE PUSH2 0x1E51 JUMP JUMPDEST ADD MLOAD PUSH1 0x0 NOT PUSH1 0xF8 DUP5 PUSH1 0x3 SHL AND SHR NOT AND SWAP1 SSTORE DUP15 DUP1 DUP1 PUSH2 0x1E98 JUMP JUMPDEST SWAP3 SWAP4 PUSH1 0x20 PUSH1 0x1 DUP2 SWAP3 DUP8 DUP7 ADD MLOAD DUP2 SSTORE ADD SWAP6 ADD SWAP4 ADD PUSH2 0x1E7C JUMP JUMPDEST PUSH1 0x3 DUP5 ADD PUSH1 0x0 MSTORE PUSH1 0x20 PUSH1 0x0 KECCAK256 SWAP1 DUP4 DUP3 ADD JUMPDEST DUP2 DUP4 ADD DUP2 LT PUSH2 0x1EF7 JUMPI POP POP PUSH2 0x1D9F JUMP JUMPDEST DUP1 PUSH2 0x1F04 PUSH1 0x1 SWAP3 SLOAD PUSH2 0x2213 JUMP JUMPDEST DUP1 PUSH2 0x1F11 JUMPI JUMPDEST POP ADD PUSH2 0x1EE7 JUMP JUMPDEST PUSH1 0x1F DUP2 GT DUP4 EQ PUSH2 0x1F27 JUMPI POP PUSH1 0x0 DUP2 SSTORE JUMPDEST DUP12 PUSH2 0x1F0A JUMP JUMPDEST PUSH1 0x0 SWAP1 DUP3 DUP3 MSTORE PUSH2 0x1F45 PUSH1 0x1F PUSH1 0x20 DUP5 KECCAK256 SWAP3 ADD PUSH1 0x5 SHR DUP3 ADD DUP6 DUP4 ADD PUSH2 0x253E JUMP JUMPDEST DUP2 DUP4 SSTORE SSTORE PUSH2 0x1F21 JUMP JUMPDEST PUSH1 0x1 SWAP1 PUSH1 0x20 DUP4 CALLDATALOAD SWAP4 ADD SWAP3 DUP2 DUP6 ADD SSTORE ADD PUSH2 0x1D74 JUMP JUMPDEST SWAP1 POP DUP9 ADD CALLDATALOAD DUP10 PUSH2 0x1D3A JUMP JUMPDEST PUSH1 0x0 DUP4 DUP2 MSTORE PUSH1 0x20 DUP2 KECCAK256 SWAP3 POP JUMPDEST DUP11 PUSH1 0x1F NOT DUP12 AND DUP3 LT PUSH2 0x1FBC JUMPI POP POP DUP9 PUSH1 0x1F NOT DUP2 AND LT PUSH2 0x1FA2 JUMPI JUMPDEST POP POP PUSH1 0x1 DUP8 DUP2 SHL ADD SWAP1 SSTORE PUSH2 0x1D4E JUMP JUMPDEST DUP10 ADD CALLDATALOAD PUSH1 0x0 NOT PUSH1 0x3 DUP11 SWAP1 SHL PUSH1 0xF8 AND SHR NOT AND SWAP1 SSTORE DUP9 DUP1 PUSH2 0x1F93 JUMP JUMPDEST PUSH1 0x1 DUP4 SWAP5 PUSH1 0x20 SWAP4 SWAP5 DUP5 SWAP4 ADD CALLDATALOAD DUP2 SSTORE ADD SWAP4 ADD SWAP2 ADD PUSH2 0x1F79 JUMP JUMPDEST DUP1 PUSH2 0x1FE3 PUSH2 0x2040 SWAP3 DUP9 DUP9 PUSH2 0x241A JUMP JUMPDEST CALLDATALOAD PUSH1 0x0 MSTORE PUSH1 0x2 PUSH1 0x20 MSTORE PUSH2 0x1FFC PUSH1 0x1 PUSH1 0x40 PUSH1 0x0 KECCAK256 ADD PUSH2 0x224D JUMP JUMPDEST PUSH2 0x2006 DUP3 DUP7 PUSH2 0x2507 JUMP JUMPDEST MSTORE PUSH2 0x2011 DUP2 DUP6 PUSH2 0x2507 JUMP JUMPDEST POP PUSH2 0x201D DUP2 DUP9 DUP9 PUSH2 0x241A JUMP JUMPDEST CALLDATALOAD PUSH1 0x0 MSTORE PUSH1 0x3 DUP1 PUSH1 0x20 MSTORE PUSH2 0x2035 CALLER PUSH1 0x40 PUSH1 0x0 KECCAK256 PUSH2 0x251B JUMP JUMPDEST PUSH2 0x1444 DUP3 DUP10 DUP10 PUSH2 0x241A JUMP JUMPDEST PUSH2 0x1CF6 JUMP JUMPDEST DUP1 PUSH2 0x2057 PUSH2 0x2068 SWAP3 DUP7 DUP6 SWAP9 SWAP7 SWAP6 PUSH2 0x241A JUMP JUMPDEST CALLDATALOAD ISZERO ISZERO DUP1 PUSH2 0x2071 JUMPI PUSH2 0x1557 SWAP1 PUSH2 0x242A JUMP JUMPDEST SWAP4 SWAP1 SWAP2 SWAP4 PUSH2 0x1B84 JUMP JUMPDEST POP PUSH2 0x1557 PUSH2 0x1570 DUP3 DUP8 DUP10 PUSH2 0x241A JUMP JUMPDEST SWAP2 DUP2 PUSH1 0x1F DUP5 ADD SLT ISZERO PUSH2 0x227 JUMPI DUP3 CALLDATALOAD SWAP2 PUSH1 0x1 PUSH1 0x1 PUSH1 0x40 SHL SUB DUP4 GT PUSH2 0x227 JUMPI PUSH1 0x20 DUP1 DUP6 ADD SWAP5 DUP5 PUSH1 0x5 SHL ADD ADD GT PUSH2 0x227 JUMPI JUMP JUMPDEST PUSH1 0x40 PUSH1 0x3 NOT DUP3 ADD SLT PUSH2 0x227 JUMPI PUSH1 0x4 CALLDATALOAD SWAP2 PUSH1 0x1 PUSH1 0x1 PUSH1 0x40 SHL SUB DUP1 DUP5 GT PUSH2 0x227 JUMPI DUP3 PUSH1 0x23 DUP6 ADD SLT ISZERO PUSH2 0x227 JUMPI DUP4 PUSH1 0x4 ADD CALLDATALOAD SWAP4 DUP2 DUP6 GT PUSH2 0x227 JUMPI DUP4 PUSH1 0x24 DUP7 DUP4 ADD ADD GT PUSH2 0x227 JUMPI PUSH1 0x24 ADD SWAP4 SWAP3 PUSH1 0x24 CALLDATALOAD SWAP2 DUP3 GT PUSH2 0x227 JUMPI PUSH2 0x210E SWAP2 PUSH1 0x4 ADD PUSH2 0x2080 JUMP JUMPDEST SWAP1 SWAP2 JUMP JUMPDEST PUSH2 0x160 DUP2 ADD SWAP1 DUP2 LT PUSH1 0x1 PUSH1 0x1 PUSH1 0x40 SHL SUB DUP3 GT OR PUSH2 0x72F JUMPI PUSH1 0x40 MSTORE JUMP JUMPDEST PUSH1 0x80 DUP2 ADD SWAP1 DUP2 LT PUSH1 0x1 PUSH1 0x1 PUSH1 0x40 SHL SUB DUP3 GT OR PUSH2 0x72F JUMPI PUSH1 0x40 MSTORE JUMP JUMPDEST SWAP1 PUSH1 0x1F DUP1 NOT SWAP2 ADD AND DUP2 ADD SWAP1 DUP2 LT PUSH1 0x1 PUSH1 0x1 PUSH1 0x40 SHL SUB DUP3 GT OR PUSH2 0x72F JUMPI PUSH1 0x40 MSTORE JUMP JUMPDEST PUSH1 0x1 PUSH1 0x1 PUSH1 0x40 SHL SUB DUP2 GT PUSH2 0x72F JUMPI PUSH1 0x1F ADD PUSH1 0x1F NOT AND PUSH1 0x20 ADD SWAP1 JUMP JUMPDEST SWAP3 SWAP2 SWAP3 PUSH2 0x2191 DUP3 PUSH2 0x216A JUMP JUMPDEST SWAP2 PUSH2 0x219F PUSH1 0x40 MLOAD SWAP4 DUP5 PUSH2 0x2149 JUMP JUMPDEST DUP3 SWAP5 DUP2 DUP5 MSTORE DUP2 DUP4 ADD GT PUSH2 0x227 JUMPI DUP3 DUP2 PUSH1 0x20 SWAP4 DUP5 PUSH1 0x0 SWAP7 ADD CALLDATACOPY ADD ADD MSTORE JUMP JUMPDEST SWAP1 DUP1 PUSH1 0x1F DUP4 ADD SLT ISZERO PUSH2 0x227 JUMPI DUP2 PUSH1 0x20 PUSH2 0x21D7 SWAP4 CALLDATALOAD SWAP2 ADD PUSH2 0x2185 JUMP JUMPDEST SWAP1 JUMP JUMPDEST PUSH1 0x0 JUMPDEST DUP4 DUP2 LT PUSH2 0x21ED JUMPI POP POP PUSH1 0x0 SWAP2 ADD MSTORE JUMP JUMPDEST DUP2 DUP2 ADD MLOAD DUP4 DUP3 ADD MSTORE PUSH1 0x20 ADD PUSH2 0x21DD JUMP JUMPDEST PUSH1 0x4 CALLDATALOAD SWAP1 PUSH1 0x1 PUSH1 0x1 PUSH1 0xA0 SHL SUB DUP3 AND DUP3 SUB PUSH2 0x227 JUMPI JUMP JUMPDEST SWAP1 PUSH1 0x1 DUP3 DUP2 SHR SWAP3 AND DUP1 ISZERO PUSH2 0x2243 JUMPI JUMPDEST PUSH1 0x20 DUP4 LT EQ PUSH2 0x222D JUMPI JUMP JUMPDEST PUSH4 0x4E487B71 PUSH1 0xE0 SHL PUSH1 0x0 MSTORE PUSH1 0x22 PUSH1 0x4 MSTORE PUSH1 0x24 PUSH1 0x0 REVERT JUMPDEST SWAP2 PUSH1 0x7F AND SWAP2 PUSH2 0x2222 JUMP JUMPDEST SWAP1 PUSH1 0x40 MLOAD SWAP2 DUP3 PUSH1 0x0 DUP3 SLOAD SWAP3 PUSH2 0x2261 DUP5 PUSH2 0x2213 JUMP JUMPDEST SWAP1 DUP2 DUP5 MSTORE PUSH1 0x1 SWAP5 DUP6 DUP2 AND SWAP1 DUP2 PUSH1 0x0 EQ PUSH2 0x22D0 JUMPI POP PUSH1 0x1 EQ PUSH2 0x228D JUMPI JUMPDEST POP POP PUSH2 0x228B SWAP3 POP SUB DUP4 PUSH2 0x2149 JUMP JUMPDEST JUMP JUMPDEST SWAP1 SWAP4 SWAP2 POP PUSH1 0x0 MSTORE PUSH1 0x20 SWAP1 DUP2 PUSH1 0x0 KECCAK256 SWAP4 PUSH1 0x0 SWAP2 JUMPDEST DUP2 DUP4 LT PUSH2 0x22B8 JUMPI POP POP PUSH2 0x228B SWAP4 POP DUP3 ADD ADD CODESIZE DUP1 PUSH2 0x227D JUMP JUMPDEST DUP6 SLOAD DUP9 DUP5 ADD DUP6 ADD MSTORE SWAP5 DUP6 ADD SWAP5 DUP8 SWAP5 POP SWAP2 DUP4 ADD SWAP2 PUSH2 0x22A0 JUMP JUMPDEST SWAP2 POP POP PUSH2 0x228B SWAP5 POP PUSH1 0x20 SWAP3 POP PUSH1 0xFF NOT AND DUP3 DUP5 ADD MSTORE ISZERO ISZERO PUSH1 0x5 SHL DUP3 ADD ADD CODESIZE DUP1 PUSH2 0x227D JUMP JUMPDEST SWAP1 PUSH1 0x20 SWAP2 PUSH2 0x230C DUP2 MLOAD DUP1 SWAP3 DUP2 DUP6 MSTORE DUP6 DUP1 DUP7 ADD SWAP2 ADD PUSH2 0x21DA JUMP JUMPDEST PUSH1 0x1F ADD PUSH1 0x1F NOT AND ADD ADD SWAP1 JUMP JUMPDEST PUSH1 0x40 SWAP1 PUSH1 0x3 NOT ADD SLT PUSH2 0x227 JUMPI PUSH1 0x4 CALLDATALOAD SWAP1 PUSH1 0x24 CALLDATALOAD SWAP1 JUMP JUMPDEST PUSH1 0x20 SWAP1 DUP2 PUSH1 0x40 DUP2 DUP4 ADD SWAP3 DUP3 DUP2 MSTORE DUP6 MLOAD DUP1 SWAP5 MSTORE ADD SWAP4 ADD SWAP2 PUSH1 0x0 JUMPDEST DUP3 DUP2 LT PUSH2 0x2355 JUMPI POP POP POP POP SWAP1 JUMP JUMPDEST DUP4 MLOAD PUSH1 0x1 PUSH1 0x1 PUSH1 0xA0 SHL SUB AND DUP6 MSTORE SWAP4 DUP2 ADD SWAP4 SWAP3 DUP2 ADD SWAP3 PUSH1 0x1 ADD PUSH2 0x2347 JUMP JUMPDEST PUSH1 0x5 SLOAD DUP2 LT ISZERO PUSH2 0x23A9 JUMPI PUSH1 0x5 PUSH1 0x0 MSTORE PUSH32 0x36B6384B5ECA791C62761152D0C79BB0604C104A5FB6F4EB0703F3154BB3DB0 ADD SWAP1 PUSH1 0x0 SWAP1 JUMP JUMPDEST PUSH4 0x4E487B71 PUSH1 0xE0 SHL PUSH1 0x0 MSTORE PUSH1 0x32 PUSH1 0x4 MSTORE PUSH1 0x24 PUSH1 0x0 REVERT JUMPDEST DUP1 SLOAD DUP3 LT ISZERO PUSH2 0x23A9 JUMPI PUSH1 0x0 MSTORE PUSH1 0x20 PUSH1 0x0 KECCAK256 ADD SWAP1 PUSH1 0x0 SWAP1 JUMP JUMPDEST SWAP1 DUP2 MLOAD DUP1 DUP3 MSTORE PUSH1 0x20 DUP1 DUP1 SWAP4 ADD SWAP4 ADD SWAP2 PUSH1 0x0 JUMPDEST DUP3 DUP2 LT PUSH2 0x23F7 JUMPI POP POP POP POP SWAP1 JUMP JUMPDEST DUP4 MLOAD DUP6 MSTORE SWAP4 DUP2 ADD SWAP4 SWAP3 DUP2 ADD SWAP3 PUSH1 0x1 ADD PUSH2 0x23E9 JUMP JUMPDEST PUSH1 0x0 NOT DUP2 EQ PUSH2 0x9FF JUMPI PUSH1 0x1 ADD SWAP1 JUMP JUMPDEST SWAP2 SWAP1 DUP2 LT ISZERO PUSH2 0x23A9 JUMPI PUSH1 0x5 SHL ADD SWAP1 JUMP JUMPDEST ISZERO PUSH2 0x2431 JUMPI JUMP JUMPDEST PUSH1 0x40 MLOAD PUSH3 0x461BCD PUSH1 0xE5 SHL DUP2 MSTORE PUSH1 0x20 PUSH1 0x4 DUP3 ADD MSTORE PUSH1 0x10 PUSH1 0x24 DUP3 ADD MSTORE PUSH16 0x125B9D985B1A59081CDADA5B1B081251 PUSH1 0x82 SHL PUSH1 0x44 DUP3 ADD MSTORE PUSH1 0x64 SWAP1 REVERT JUMPDEST SWAP2 SWAP1 DUP3 SUB SWAP2 DUP3 GT PUSH2 0x9FF JUMPI JUMP JUMPDEST RETURNDATASIZE ISZERO PUSH2 0x24A1 JUMPI RETURNDATASIZE SWAP1 PUSH2 0x2487 DUP3 PUSH2 0x216A JUMP JUMPDEST SWAP2 PUSH2 0x2495 PUSH1 0x40 MLOAD SWAP4 DUP5 PUSH2 0x2149 JUMP JUMPDEST DUP3 MSTORE RETURNDATASIZE PUSH1 0x0 PUSH1 0x20 DUP5 ADD RETURNDATACOPY JUMP JUMPDEST PUSH1 0x60 SWAP1 JUMP JUMPDEST PUSH1 0x1 PUSH1 0x1 PUSH1 0x40 SHL SUB DUP2 GT PUSH2 0x72F JUMPI PUSH1 0x5 SHL PUSH1 0x20 ADD SWAP1 JUMP JUMPDEST SWAP1 PUSH2 0x24C7 DUP3 PUSH2 0x24A6 JUMP JUMPDEST PUSH2 0x24D4 PUSH1 0x40 MLOAD SWAP2 DUP3 PUSH2 0x2149 JUMP JUMPDEST DUP3 DUP2 MSTORE DUP1 SWAP3 PUSH2 0x24E5 PUSH1 0x1F NOT SWAP2 PUSH2 0x24A6 JUMP JUMPDEST ADD SWAP1 PUSH1 0x0 JUMPDEST DUP3 DUP2 LT PUSH2 0x24F6 JUMPI POP POP POP JUMP JUMPDEST DUP1 PUSH1 0x60 PUSH1 0x20 DUP1 SWAP4 DUP6 ADD ADD MSTORE ADD PUSH2 0x24EA JUMP JUMPDEST DUP1 MLOAD DUP3 LT ISZERO PUSH2 0x23A9 JUMPI PUSH1 0x20 SWAP2 PUSH1 0x5 SHL ADD ADD SWAP1 JUMP JUMPDEST SWAP1 DUP2 SLOAD SWAP2 PUSH1 0x1 PUSH1 0x40 SHL DUP4 LT ISZERO PUSH2 0x72F JUMPI DUP3 PUSH2 0x1C43 SWAP2 PUSH1 0x1 PUSH2 0x228B SWAP6 ADD DUP2 SSTORE PUSH2 0x23BF JUMP JUMPDEST DUP2 DUP2 LT PUSH2 0x2549 JUMPI POP POP JUMP JUMPDEST PUSH1 0x0 DUP2 SSTORE PUSH1 0x1 ADD PUSH2 0x253E JUMP JUMPDEST SWAP2 SWAP1 PUSH1 0x1F DUP2 GT PUSH2 0x2564 JUMPI POP POP POP JUMP JUMPDEST PUSH2 0x228B SWAP3 PUSH1 0x0 MSTORE PUSH1 0x20 PUSH1 0x0 KECCAK256 SWAP1 PUSH1 0x20 PUSH1 0x1F DUP5 ADD PUSH1 0x5 SHR DUP4 ADD SWAP4 LT PUSH2 0x2590 JUMPI JUMPDEST PUSH1 0x1F ADD PUSH1 0x5 SHR ADD SWAP1 PUSH2 0x253E JUMP JUMPDEST SWAP1 SWAP2 POP DUP2 SWAP1 PUSH2 0x2583 JUMP JUMPDEST SWAP1 PUSH1 0x1 PUSH1 0x40 SHL DUP2 GT PUSH2 0x72F JUMPI DUP2 SLOAD SWAP1 DUP1 DUP4 SSTORE DUP2 DUP2 LT PUSH2 0x25B8 JUMPI POP POP POP JUMP JUMPDEST PUSH2 0x228B SWAP3 PUSH1 0x0 MSTORE PUSH1 0x20 PUSH1 0x0 KECCAK256 SWAP2 DUP3 ADD SWAP2 ADD PUSH2 0x253E JUMP JUMPDEST SWAP6 SWAP5 SWAP4 SWAP2 DUP1 SWAP2 PUSH1 0x60 DUP9 MSTORE DUP2 PUSH1 0x60 DUP10 ADD MSTORE PUSH1 0x80 DUP9 ADD CALLDATACOPY PUSH1 0x0 PUSH1 0x80 DUP3 DUP9 ADD ADD MSTORE PUSH1 0x1F DUP1 NOT SWAP2 ADD AND DUP6 ADD SWAP2 PUSH1 0x80 DUP7 DUP5 SUB ADD PUSH1 0x20 DUP8 ADD MSTORE DUP2 PUSH1 0x80 DUP5 ADD MSTORE PUSH1 0x1 DUP1 PUSH1 0xFB SHL SUB DUP3 GT PUSH2 0x227 JUMPI PUSH1 0x40 SWAP3 PUSH1 0xA0 SWAP3 PUSH1 0x5 SHL DUP1 SWAP3 DUP5 DUP4 ADD CALLDATACOPY ADD ADD SWAP4 ADD MSTORE JUMP JUMPDEST ISZERO PUSH2 0x2631 JUMPI JUMP JUMPDEST PUSH1 0x40 MLOAD PUSH3 0x461BCD PUSH1 0xE5 SHL DUP2 MSTORE PUSH1 0x20 PUSH1 0x4 DUP3 ADD MSTORE PUSH1 0xE PUSH1 0x24 DUP3 ADD MSTORE PUSH14 0x139BDD081C9959DA5CDD195C9959 PUSH1 0x92 SHL PUSH1 0x44 DUP3 ADD MSTORE PUSH1 0x64 SWAP1 REVERT JUMPDEST SWAP2 SWAP1 DUP3 ADD DUP1 SWAP3 GT PUSH2 0x9FF JUMPI JUMP JUMPDEST SWAP1 PUSH2 0x267E DUP3 PUSH2 0x24A6 JUMP JUMPDEST PUSH2 0x268B PUSH1 0x40 MLOAD SWAP2 DUP3 PUSH2 0x2149 JUMP JUMPDEST DUP3 DUP2 MSTORE DUP1 SWAP3 PUSH2 0x269C PUSH1 0x1F NOT SWAP2 PUSH2 0x24A6 JUMP JUMPDEST ADD SWAP1 PUSH1 0x20 CALLDATASIZE SWAP2 ADD CALLDATACOPY JUMP JUMPDEST SWAP2 SWAP1 DUP1 ISZERO PUSH2 0x2828 JUMPI PUSH1 0x0 SWAP3 DUP1 CALLDATALOAD DUP5 MSTORE PUSH1 0x20 SWAP4 PUSH1 0x3 DUP6 MSTORE PUSH1 0x40 SWAP3 DUP4 DUP3 KECCAK256 SWAP1 DUP5 MLOAD DUP1 DUP4 DUP10 DUP3 SWAP6 SLOAD SWAP4 DUP5 DUP2 MSTORE ADD SWAP1 DUP7 MSTORE DUP10 DUP7 KECCAK256 SWAP3 DUP7 JUMPDEST DUP12 DUP3 DUP3 LT PUSH2 0x2809 JUMPI POP POP POP PUSH2 0x26F0 SWAP3 POP SUB DUP4 PUSH2 0x2149 JUMP JUMPDEST PUSH2 0x26FA DUP3 MLOAD PUSH2 0x2674 JUMP JUMPDEST SWAP3 DUP1 SWAP5 DUP2 JUMPDEST DUP5 MLOAD DUP2 LT ISZERO PUSH2 0x27C1 JUMPI PUSH1 0x1 PUSH1 0x1 PUSH1 0xA0 SHL SUB DUP1 PUSH2 0x271B DUP4 DUP9 PUSH2 0x2507 JUMP JUMPDEST MLOAD AND DUP5 MSTORE PUSH1 0x1 DUP1 DUP13 MSTORE PUSH1 0xFF PUSH1 0x5 DUP12 DUP8 KECCAK256 ADD SLOAD AND ISZERO PUSH2 0x27B6 JUMPI DUP1 JUMPDEST DUP7 DUP2 LT PUSH2 0x2778 JUMPI JUMPDEST POP PUSH2 0x2752 JUMPI JUMPDEST POP PUSH2 0x274D SWAP1 PUSH2 0x240B JUMP JUMPDEST PUSH2 0x26FF JUMP JUMPDEST DUP2 SWAP8 PUSH2 0x2771 SWAP2 PUSH2 0x2765 PUSH2 0x274D SWAP5 DUP10 PUSH2 0x2507 JUMP JUMPDEST MLOAD AND PUSH2 0xD2F DUP3 DUP11 PUSH2 0x2507 JUMP JUMPDEST SWAP7 SWAP1 PUSH2 0x2743 JUMP JUMPDEST PUSH2 0x279A DUP4 PUSH2 0x2786 DUP7 DUP12 PUSH2 0x2507 JUMP JUMPDEST MLOAD AND PUSH2 0x2793 DUP4 DUP11 DUP10 PUSH2 0x241A JUMP JUMPDEST CALLDATALOAD SWAP1 PUSH2 0x28DA JUMP JUMPDEST ISZERO PUSH2 0x27AD JUMPI PUSH2 0x27A8 SWAP1 PUSH2 0x240B JUMP JUMPDEST PUSH2 0x2735 JUMP JUMPDEST POP POP DUP4 CODESIZE PUSH2 0x273D JUMP JUMPDEST POP POP PUSH2 0x274D SWAP1 PUSH2 0x240B JUMP JUMPDEST POP POP SWAP5 POP POP POP SWAP4 POP PUSH2 0x27D2 DUP2 PUSH2 0x2674 JUMP JUMPDEST SWAP2 JUMPDEST DUP2 DUP2 LT PUSH2 0x27E2 JUMPI POP SWAP1 SWAP3 POP POP JUMP JUMPDEST PUSH2 0x2804 SWAP1 PUSH1 0x1 PUSH1 0x1 PUSH1 0xA0 SHL SUB PUSH2 0x27F8 DUP3 DUP9 PUSH2 0x2507 JUMP JUMPDEST MLOAD AND PUSH2 0xD2F DUP3 DUP7 PUSH2 0x2507 JUMP JUMPDEST PUSH2 0x27D4 JUMP JUMPDEST DUP6 SLOAD PUSH1 0x1 PUSH1 0x1 PUSH1 0xA0 SHL SUB AND DUP5 MSTORE PUSH1 0x1 SWAP6 DUP7 ADD SWAP6 DUP9 SWAP6 POP SWAP4 ADD SWAP3 ADD PUSH2 0x26D9 JUMP JUMPDEST POP SWAP1 POP PUSH1 0x40 MLOAD PUSH1 0x20 DUP2 ADD DUP2 DUP2 LT PUSH1 0x1 PUSH1 0x1 PUSH1 0x40 SHL SUB DUP3 GT OR PUSH2 0x72F JUMPI PUSH1 0x40 MSTORE PUSH1 0x0 DUP2 MSTORE PUSH1 0x0 CALLDATASIZE DUP2 CALLDATACOPY SWAP1 JUMP JUMPDEST ISZERO PUSH2 0x285A JUMPI JUMP JUMPDEST PUSH1 0x40 MLOAD PUSH3 0x461BCD PUSH1 0xE5 SHL DUP2 MSTORE PUSH1 0x20 PUSH1 0x4 DUP3 ADD MSTORE PUSH1 0x9 PUSH1 0x24 DUP3 ADD MSTORE PUSH9 0x2737BA1037BBB732B9 PUSH1 0xB9 SHL PUSH1 0x44 DUP3 ADD MSTORE PUSH1 0x64 SWAP1 REVERT JUMPDEST SWAP1 PUSH1 0x40 MLOAD SWAP2 DUP3 DUP2 SLOAD SWAP2 DUP3 DUP3 MSTORE PUSH1 0x20 SWAP3 DUP4 DUP4 ADD SWAP2 PUSH1 0x0 MSTORE DUP4 PUSH1 0x0 KECCAK256 SWAP4 PUSH1 0x0 SWAP1 JUMPDEST DUP3 DUP3 LT PUSH2 0x28C0 JUMPI POP POP POP PUSH2 0x228B SWAP3 POP SUB DUP4 PUSH2 0x2149 JUMP JUMPDEST DUP6 SLOAD DUP5 MSTORE PUSH1 0x1 SWAP6 DUP7 ADD SWAP6 DUP9 SWAP6 POP SWAP4 DUP2 ADD SWAP4 SWAP1 SWAP2 ADD SWAP1 PUSH2 0x28AA JUMP JUMPDEST PUSH1 0x1 PUSH1 0x1 PUSH1 0xA0 SHL SUB AND PUSH1 0x0 SWAP1 DUP2 MSTORE PUSH1 0x1 PUSH1 0x20 DUP2 SWAP1 MSTORE PUSH1 0x40 DUP3 KECCAK256 PUSH1 0x2 ADD DUP1 SLOAD SWAP4 SWAP2 SWAP3 JUMPDEST DUP5 DUP2 LT PUSH2 0x290D JUMPI POP POP POP POP POP PUSH1 0x0 SWAP1 JUMP JUMPDEST DUP3 PUSH2 0x2918 DUP3 DUP5 PUSH2 0x23BF JUMP JUMPDEST SWAP1 SLOAD SWAP1 PUSH1 0x3 SHL SHR EQ PUSH2 0x2932 JUMPI PUSH2 0x292D SWAP1 PUSH2 0x240B JUMP JUMPDEST PUSH2 0x28FC JUMP JUMPDEST POP POP POP SWAP1 POP SWAP1 JUMP INVALID LOG2 PUSH5 0x6970667358 0x22 SLT KECCAK256 PREVRANDAO CALLCODE 0xE 0xCB 0xF7 0xF 0x23 GASLIMIT 0xD9 0xB1 DUP9 0x26 DUP13 DUP4 0xA6 SWAP14 0xBA COINBASE 0xA6 0x4B MSIZE 0x23 0x4B DUP13 CREATE2 0xD4 0xF8 0xD9 0xDA ADDMOD 0x29 0xBE PUSH5 0x736F6C6343 STOP ADDMOD EQ STOP CALLER SDIV SWAP10 SHL STATICCALL 0xA8 0xC PUSH0 PUSH21 0x3D433BD10462FC1453A7C566AA9C81582E3DBAB915 0xDC LOG4 SELFDESTRUCT "},"methodIdentifiers":{"addSkill(string,string)":"d862ae87","agents(address)":"fd66091e","allAgents(uint256)":"e0bb12f7","deactivate()":"51b42b00","findAgentsBySkill(uint256)":"b6ef504e","findAgentsBySkills(uint256[])":"b2bdc75f","getAgent(address)":"fb3551ff","getAgentCount()":"91cab63e","getAgentSkills(address)":"b47172da","getAllSkills()":"ccc3bba8","getRecentlyActive(uint256,uint256)":"5d3aa813","getTopAgents(uint256)":"b1e29ea4","isRegistered(address)":"c3c5a547","nextSkillId()":"34306d25","owner()":"8da5cb5b","pause()":"8456cb59","paused()":"5c975abb","pauser()":"9fd0506d","reactivate()":"d18611d6","recordActivity(address,uint256,uint256,uint256)":"346945fd","registerAgent(string,uint256[])":"75ae1fef","registrationFee()":"14c44e09","setRegistrationFee(uint256)":"c320c727","skillNameToId(string)":"3421ebfd","skillToAgents(uint256,uint256)":"a113938f","skills(uint256)":"50d15fbe","totalAgents()":"c5053712","transferPauser(address)":"4421ea21","unpause()":"3f4ba83a","updateProfile(string,uint256[])":"08edbd14","withdrawFees()":"476343ee"}}}}}