{"contracts/ReputationStake.sol":{"ReputationStake":{"abi":[{"inputs":[{"internalType":"address","name":"_stakeToken","type":"address"},{"internalType":"address","name":"_feeRecipient","type":"address"}],"stateMutability":"nonpayable","type":"constructor"},{"inputs":[],"name":"ContractNotPaused","type":"error"},{"inputs":[],"name":"ContractPaused","type":"error"},{"inputs":[],"name":"NotPauser","type":"error"},{"inputs":[],"name":"ReentrancyGuardReentrantCall","type":"error"},{"anonymous":false,"inputs":[{"indexed":true,"internalType":"address","name":"agent","type":"address"},{"indexed":false,"internalType":"string","name":"metadataURI","type":"string"}],"name":"AgentRegistered","type":"event"},{"anonymous":false,"inputs":[{"indexed":true,"internalType":"address","name":"agent","type":"address"},{"indexed":false,"internalType":"uint256","name":"amount","type":"uint256"},{"indexed":false,"internalType":"string","name":"reason","type":"string"}],"name":"AgentSlashed","type":"event"},{"anonymous":false,"inputs":[{"indexed":false,"internalType":"address","name":"account","type":"address"}],"name":"Paused","type":"event"},{"anonymous":false,"inputs":[{"indexed":true,"internalType":"address","name":"previousPauser","type":"address"},{"indexed":true,"internalType":"address","name":"newPauser","type":"address"}],"name":"PauserTransferred","type":"event"},{"anonymous":false,"inputs":[{"indexed":true,"internalType":"address","name":"agent","type":"address"},{"indexed":false,"internalType":"uint256","name":"newScore","type":"uint256"}],"name":"ReputationUpdated","type":"event"},{"anonymous":false,"inputs":[{"indexed":true,"internalType":"address","name":"agent","type":"address"},{"indexed":false,"internalType":"uint256","name":"amount","type":"uint256"}],"name":"RewardDistributed","type":"event"},{"anonymous":false,"inputs":[{"indexed":true,"internalType":"address","name":"agent","type":"address"},{"indexed":false,"internalType":"uint256","name":"amount","type":"uint256"},{"indexed":false,"internalType":"uint256","name":"unlockTime","type":"uint256"}],"name":"StakeDeposited","type":"event"},{"anonymous":false,"inputs":[{"indexed":true,"internalType":"address","name":"agent","type":"address"},{"indexed":false,"internalType":"uint256","name":"amount","type":"uint256"}],"name":"StakeWithdrawn","type":"event"},{"anonymous":false,"inputs":[{"indexed":false,"internalType":"address","name":"account","type":"address"}],"name":"Unpaused","type":"event"},{"inputs":[],"name":"activityWeight","outputs":[{"internalType":"uint256","name":"","type":"uint256"}],"stateMutability":"view","type":"function"},{"inputs":[{"internalType":"address","name":"_slasher","type":"address"}],"name":"addSlasher","outputs":[],"stateMutability":"nonpayable","type":"function"},{"inputs":[{"internalType":"address","name":"","type":"address"},{"internalType":"uint256","name":"","type":"uint256"}],"name":"agentStakes","outputs":[{"internalType":"uint256","name":"amount","type":"uint256"},{"internalType":"uint256","name":"since","type":"uint256"},{"internalType":"uint256","name":"unlockTime","type":"uint256"},{"internalType":"bool","name":"withdrawn","type":"bool"}],"stateMutability":"view","type":"function"},{"inputs":[{"internalType":"address","name":"","type":"address"}],"name":"agents","outputs":[{"internalType":"uint256","name":"totalStaked","type":"uint256"},{"internalType":"uint256","name":"reputationScore","type":"uint256"},{"internalType":"uint256","name":"successfulCovenants","type":"uint256"},{"internalType":"uint256","name":"breachedCovenants","type":"uint256"},{"internalType":"uint256","name":"lastActivity","type":"uint256"},{"internalType":"bool","name":"isActive","type":"bool"},{"internalType":"string","name":"metadataURI","type":"string"}],"stateMutability":"view","type":"function"},{"inputs":[{"internalType":"address","name":"","type":"address"}],"name":"authorizedSlashers","outputs":[{"internalType":"bool","name":"","type":"bool"}],"stateMutability":"view","type":"function"},{"inputs":[{"internalType":"address","name":"_agent","type":"address"}],"name":"calculateReputation","outputs":[{"internalType":"uint256","name":"","type":"uint256"}],"stateMutability":"view","type":"function"},{"inputs":[],"name":"feeRecipient","outputs":[{"internalType":"address","name":"","type":"address"}],"stateMutability":"view","type":"function"},{"inputs":[{"internalType":"address","name":"_agent","type":"address"}],"name":"getAgentProfile","outputs":[{"components":[{"internalType":"uint256","name":"totalStaked","type":"uint256"},{"internalType":"uint256","name":"reputationScore","type":"uint256"},{"internalType":"uint256","name":"successfulCovenants","type":"uint256"},{"internalType":"uint256","name":"breachedCovenants","type":"uint256"},{"internalType":"uint256","name":"lastActivity","type":"uint256"},{"internalType":"bool","name":"isActive","type":"bool"},{"internalType":"string","name":"metadataURI","type":"string"}],"internalType":"struct ReputationStake.AgentProfile","name":"","type":"tuple"}],"stateMutability":"view","type":"function"},{"inputs":[{"internalType":"address","name":"_agent","type":"address"},{"internalType":"uint256","name":"_index","type":"uint256"}],"name":"getStake","outputs":[{"components":[{"internalType":"uint256","name":"amount","type":"uint256"},{"internalType":"uint256","name":"since","type":"uint256"},{"internalType":"uint256","name":"unlockTime","type":"uint256"},{"internalType":"bool","name":"withdrawn","type":"bool"}],"internalType":"struct ReputationStake.Stake","name":"","type":"tuple"}],"stateMutability":"view","type":"function"},{"inputs":[{"internalType":"address","name":"_agent","type":"address"}],"name":"getStakeCount","outputs":[{"internalType":"uint256","name":"","type":"uint256"}],"stateMutability":"view","type":"function"},{"inputs":[],"name":"historyWeight","outputs":[{"internalType":"uint256","name":"","type":"uint256"}],"stateMutability":"view","type":"function"},{"inputs":[{"internalType":"address","name":"_agent","type":"address"}],"name":"isRegistered","outputs":[{"internalType":"bool","name":"","type":"bool"}],"stateMutability":"view","type":"function"},{"inputs":[],"name":"lockPeriod","outputs":[{"internalType":"uint256","name":"","type":"uint256"}],"stateMutability":"view","type":"function"},{"inputs":[],"name":"minimumStake","outputs":[{"internalType":"uint256","name":"","type":"uint256"}],"stateMutability":"view","type":"function"},{"inputs":[],"name":"pause","outputs":[],"stateMutability":"nonpayable","type":"function"},{"inputs":[],"name":"paused","outputs":[{"internalType":"bool","name":"","type":"bool"}],"stateMutability":"view","type":"function"},{"inputs":[],"name":"pauser","outputs":[{"internalType":"address","name":"","type":"address"}],"stateMutability":"view","type":"function"},{"inputs":[],"name":"protocolFeeBps","outputs":[{"internalType":"uint256","name":"","type":"uint256"}],"stateMutability":"view","type":"function"},{"inputs":[{"internalType":"address","name":"_agent","type":"address"},{"internalType":"uint256","name":"_slashingMultiplier","type":"uint256"},{"internalType":"string","name":"_reason","type":"string"}],"name":"recordBreach","outputs":[],"stateMutability":"nonpayable","type":"function"},{"inputs":[{"internalType":"address","name":"_agent","type":"address"}],"name":"recordSuccess","outputs":[],"stateMutability":"nonpayable","type":"function"},{"inputs":[{"internalType":"string","name":"_metadataURI","type":"string"}],"name":"registerAgent","outputs":[],"stateMutability":"nonpayable","type":"function"},{"inputs":[{"internalType":"address","name":"_slasher","type":"address"}],"name":"removeSlasher","outputs":[],"stateMutability":"nonpayable","type":"function"},{"inputs":[{"internalType":"uint256","name":"_minimumStake","type":"uint256"},{"internalType":"uint256","name":"_slashingPercentage","type":"uint256"},{"internalType":"uint256","name":"_lockPeriod","type":"uint256"}],"name":"setParameters","outputs":[],"stateMutability":"nonpayable","type":"function"},{"inputs":[],"name":"slashingPercentage","outputs":[{"internalType":"uint256","name":"","type":"uint256"}],"stateMutability":"view","type":"function"},{"inputs":[{"internalType":"uint256","name":"_amount","type":"uint256"}],"name":"stake","outputs":[],"stateMutability":"nonpayable","type":"function"},{"inputs":[],"name":"stakeToken","outputs":[{"internalType":"contract IERC20","name":"","type":"address"}],"stateMutability":"view","type":"function"},{"inputs":[],"name":"stakeWeight","outputs":[{"internalType":"uint256","name":"","type":"uint256"}],"stateMutability":"view","type":"function"},{"inputs":[],"name":"totalAgents","outputs":[{"internalType":"uint256","name":"","type":"uint256"}],"stateMutability":"view","type":"function"},{"inputs":[],"name":"totalStaked","outputs":[{"internalType":"uint256","name":"","type":"uint256"}],"stateMutability":"view","type":"function"},{"inputs":[{"internalType":"address","name":"newPauser","type":"address"}],"name":"transferPauser","outputs":[],"stateMutability":"nonpayable","type":"function"},{"inputs":[],"name":"unpause","outputs":[],"stateMutability":"nonpayable","type":"function"},{"inputs":[{"internalType":"uint256","name":"_stakeIndex","type":"uint256"}],"name":"withdrawStake","outputs":[],"stateMutability":"nonpayable","type":"function"}],"evm":{"bytecode":{"linkReferences":{},"object":"60803461011557601f62001bc638819003918201601f19168301916001600160401b0383118484101761011a57808492604094855283398101031261011557610053602061004c83610130565b9201610130565b60017f9b779b17422d0df92223018b32b4d1fa46e071723d6817e2486d003becc55f0055600054610100600160a81b033360081b1690610100600160a81b0319161760005568056bc75e2d631000006006556103e860075562093a8060085560646009556028600a55601e600b55601e600c5560018060a01b03908160018060a01b03199316836001541617600155169060025416176002553360005260056020526040600020600160ff19825416179055604051611a819081620001458239f35b600080fd5b634e487b7160e01b600052604160045260246000fd5b51906001600160a01b03821682036101155756fe6040608081526004908136101561001557600080fd5b6000803560e01c8063209ffa181461120757806325d5971f14611019578063267b116714610ffa57806327c06fd514610fcd5780632d2a958514610ce457806334c5d2ce14610ca657806335659fb814610c875780633f4ba83a14610c135780633fd8b02f14610bf45780634234128714610a5b5780634421ea211461098a578063469048401461096157806351ed6a30146109385780635c975abb1461091657806368a9f19c146108c457806369666a49146108a557806378dc93a4146107a2578063817b1cd2146107835780638456cb59146106ff5780639fd0506d146106d3578063a694fc3a146104c4578063aac6aa9c14610475578063aed2d90814610437578063b0c87df214610418578063b2ab2782146103a1578063be3ac6a714610382578063c3c5a54714610340578063c505371214610321578063cf57ee69146102eb578063cfd476631461023a578063ec5ffac2146102175763fd66091e1461018057600080fd5b34610214576020366003190112610214576102109082906001600160a01b036101a761150b565b16815260036020522091825492600181015494600282015490600383015490830154916101de600660ff6005870154169501611670565b9480519889988952602089015287015260608601526080850152151560a084015260e060c084015260e0830190611554565b0390f35b80fd5b5090346102365781600319360112610236576020906006549051908152f35b5080fd5b5091346102e757816003193601126102e7576080926102919161025b61150b565b826060865161026981611632565b8281528260208201528288820152015260018060a01b03168252602052826024359120611594565b509080519061029f82611632565b825492838352600181015460208401908152606060ff600360028501549486880195865201541694019315158452825194855251602085015251908301525115156060820152f35b8280fd5b5091346102e75760203660031901126102e75760209282916001600160a01b0361031361150b565b168252845220549051908152f35b509034610236578160031936011261023657602090600e549051908152f35b5090346102365760203660031901126102365760209160ff9060059083906001600160a01b0361036e61150b565b168152600386522001541690519015158152f35b509034610236578160031936011261023657602090600b549051908152f35b50346102145781600319360112610214576103ba61150b565b6001600160a01b031681526020929092528082208054602435939084101561021457506080926103e991611594565b509081549160018101549160ff6003600284015493015416928151948552602085015283015215156060820152f35b509034610236578160031936011261023657602090600c549051908152f35b5090346102365760203660031901126102365760209160ff9082906001600160a01b0361046261150b565b1681526005855220541690519015158152f35b5090346102365760203660031901126102365761049061150b565b33835260056020526104a760ff8385205416611809565b6001600160a01b0316825260056020528120805460ff1916905580f35b50903461023657602090816003193601126102e757833591338452600381526104f560ff600584872001541661175c565b821561069c5760015482516323b872dd60e01b81523387820152306024820152604481018590529082908290606490829089906001600160a01b03165af1908115610692579061054c918691610665575b506117b1565b610558600854426117ef565b825161056381611632565b84815282810142815284820192835260608201908782523388528885528588208054906801000000000000000082101561065257906105a791600182018155611594565b93909361064057610601927f05cce4a371bf9816b1a7594f1d76c98eba4ed025ff3e471234ae598f17899bd497969594926003925184555160018401558451600284015551151591019060ff801983541691151516179055565b338652600382528286206106168682546117ef565b905561062485600d546117ef565b600d55610630336119fa565b519082519485528401523392a280f35b634e487b7160e01b8952888a52602489fd5b634e487b7160e01b8a5260418b5260248afd5b6106859150833d851161068b575b61067d818361164e565b810190611799565b38610546565b503d610673565b83513d87823e3d90fd5b8490606492519162461bcd60e51b835282015260126024820152710416d6f756e74206d757374206265203e20360741b6044820152fd5b5090346102365781600319360112610236579054905160089190911c6001600160a01b03168152602090f35b5091346102e757826003193601126102e757825490600882901c6001600160a01b031633036107755760ff8216610767575060ff19166001178255513381527f62e78cea01bee320cd4e420270b5ea74000d11b0c9f74754ebdbfc544b05a25890602090a180f35b825163ab35696f60e01b8152fd5b825163492f678160e01b8152fd5b509034610236578160031936011261023657602090600d549051908152f35b5091346102e75760209283600319360112610214579082610210926107c561150b565b606060c084516107d481611600565b848152848a820152848682015284838201528460808201528460a0820152015260018060a01b03168152600386522083519361080f85611600565b81548552600182015492868601938452600283015482870190815260038401549160608801928352840154926080880193845261085f600660ff6005880154169660a08b01971515885201611670565b9560c089019687528151998a99818b5251908a015251908801525160608701525160808601525160a085015251151560c08401525160e080840152610100830190611554565b5090346102365781600319360112610236576020906007549051908152f35b509034610236576020366003190112610236576108df61150b565b33835260056020526108f660ff8385205416611809565b6001600160a01b0316825260056020528120805460ff1916600117905580f35b50903461023657816003193601126102365760ff602092541690519015158152f35b50903461023657816003193601126102365760015490516001600160a01b039091168152602090f35b50903461023657816003193601126102365760025490516001600160a01b039091168152602090f35b5091346102e75760203660031901126102e7576109a561150b565b83549060018060a01b0392838360081c1693843303610a4c578216948515610a10575050610100600160a81b031990911660089190911b610100600160a81b03161783557f51c4874e0f23f262e04a38c51751336dde72126d67f53eb672aaff02996b3ef68380a380f35b906020606492519162461bcd60e51b83528201526016602482015275496e76616c696420706175736572206164647265737360501b6044820152fd5b50845163492f678160e01b8152fd5b509190346102e75760209081600319360112610bf057610a7961150b565b9033855260058352610a9060ff8287205416611809565b6001600160a01b03828116808752600385528287206005015490959190610ab99060ff1661175c565b85875260038552600283882001610ad08154611716565b90558587526003855242828489200155610ae9846119fa565b85875260038552828720600a60028201540615610b04578780f35b60649054049384610b13578780f35b600154845163a9059cbb60e01b81526001600160a01b039290921684830190815260208101879052919287928492908390036040019183918c91165af1908115610be6578791610bc9575b5015610b985750519081527fe34918ff1c7084970068b53fd71ad6d8b04e9f15d3886cbf006443e6cdc52ea69190a2388080808080808780f35b83606492519162461bcd60e51b8352820152600d60248201526c14995dd85c990819985a5b1959609a1b6044820152fd5b610be09150853d871161068b5761067d818361164e565b38610b5e565b83513d89823e3d90fd5b8380fd5b5090346102365781600319360112610236576020906008549051908152f35b5091346102e757826003193601126102e757825490600882901c6001600160a01b031633036107755760ff821615610c79575060ff19168255513381527f5db9ee0a495bf2e6ff9c91a7834c1ba4fdd244a5e8aa4e537bd38aeae4b073aa90602090a180f35b825163dcdde9dd60e01b8152fd5b5090346102365781600319360112610236576020906009549051908152f35b509190346102e75760603660031901126102e75760ff610cd191338552600560205284205416611809565b3560065560243560075560443560085580f35b50903461023657602090816003193601126102e75767ffffffffffffffff908435828111610fc957610d199036908701611526565b9190923386526003855260ff6005838820015416610f91578151610d3c81611600565b8681528581019087825283810188815260608201898152608083019042825260a0840192600195868552878a11610f7d57918b9796959391601f9593610d8d8b519a8d8919998a910116018b61164e565b8b8a52368d8d0111610f79578a8f8f8f8f808f849286948483013701015260c089019c8d523382526003905220955186555187860155516002850155516003840155518c8301555115156005820190610df1919060ff801983541691151516179055565b6006019351998a51938411610f665750610e0b84546115c6565b601f8111610f20575b508790601f8411600114610e9a575091808092610e899695948b9c7fda816ca2fc37b9eecec62ae8263008ec6be1afb38dc28bc9c7c51d7e348da9c29b9c94610e8f575b50501b916000199060031b1c19161790555b610e75600e54611716565b600e5551928392868452339684019161173b565b0390a280f35b015192503880610e58565b8392931699848a52888a209a8a5b818110610f0b5750917fda816ca2fc37b9eecec62ae8263008ec6be1afb38dc28bc9c7c51d7e348da9c2999a9b9184610e89989796959410610ef2575b505050811b019055610e6a565b015160001960f88460031b161c19169055388080610ee5565b838301518d559b85019b928a01928a01610ea8565b848a52888a20601f850160051c8101918a8610610f5c575b601f0160051c019083905b828110610f51575050610e14565b8b8155018390610f43565b9091508190610f38565b634e487b7160e01b8a5260419052602489fd5b8e80fd5b50634e487b7160e01b8c5260418d5260248cfd5b815162461bcd60e51b81528088018690526012602482015271105b1c9958591e481c9959da5cdd195c995960721b6044820152606490fd5b8480fd5b50903461023657602036600319011261023657602090610ff3610fee61150b565b611879565b9051908152f35b509034610236578160031936011261023657602090600a549051908152f35b5091346102e757602080600319360112610bf05781353385526003825261104860ff600586882001541661175c565b338552828252838520548110156111d65761106b90338652838352848620611594565b5060038101805460ff811661119e576002830154421061116b5791839160016111019460ff1916179055548094338852600383528688206110ad8382546117fc565b90556110bb82600d546117fc565b600d556110c7336119fa565b600154875163a9059cbb60e01b8152339281019283526020830193909352919384926001600160a01b03169183918a918391604090910190565b03925af1908115611161577f8108595eb6bad3acefa9da467d90cc2217686d5c5ac85460f8b7849c840645fc93949161114091879161114a57506117b1565b519283523392a280f35b6106859150843d861161068b5761067d818361164e565b84513d87823e3d90fd5b5050925162461bcd60e51b815291820152600c60248201526b14dd1a5b1b081b1bd8dad95960a21b604482015260649150fd5b5050925162461bcd60e51b815291820152601160248201527020b63932b0b23c903bb4ba34323930bbb760791b604482015260649150fd5b50606492519162461bcd60e51b8352820152600d60248201526c092dcecc2d8d2c840d2dcc8caf609b1b6044820152fd5b5090346102365760603660031901126102365761122261150b565b9060443567ffffffffffffffff8111610bf0576112429036908601611526565b94903385526020926005845260ff9461125f868389205416611809565b60018060a01b039586821696878952600395868852611285836005878d2001541661175c565b888a5286885286858b200161129a8154611716565b9055888a528688526127106112c6868c204284820155546112c16024359160075490611846565b611846565b0496871515806114f9575b61131f575b5050505096610e89929161130c7ff90d547af41b84ae5db3dc86fac677444898b3350b3e9cccd482dea1274bfc959798996119fa565b808051968796875286015284019161173b565b9396919994959097929a82978a875289855287872099875b8b548110806114f0575b15611407578b8f8e908a6113558585611594565b5001541615806113f3575b611375575b505061137090611716565b611337565b90829c6113e2926113ab858e61138e6113709887611594565b505485111590506113ec576113a38186611594565b505494611594565b506113b78482546117fc565b90558c528a8a528c8c206113cc8382546117fc565b9055600d6113db8382546117fc565b90556117fc565b9a90508b8d611365565b8394611594565b506113fe8383611594565b50541515611360565b50949a9b9095508a92989197969c5061146793995061143081600154169160025416928b6117fc565b875163a9059cbb60e01b81526001600160a01b0390931686840190815260208101919091529193849283918f918391604090910190565b03925af19081156114e6578a916114c9575b501561148e578080809a99989796959a6112d6565b825162461bcd60e51b8152908101879052601560248201527414db185cda081d1c985b9cd9995c8819985a5b1959605a1b6044820152606490fd5b6114e09150883d8a1161068b5761067d818361164e565b38611479565b84513d8c823e3d90fd5b508a1515611341565b50898b52808952858b205415156112d1565b600435906001600160a01b038216820361152157565b600080fd5b9181601f840112156115215782359167ffffffffffffffff8311611521576020838186019501011161152157565b919082519283825260005b848110611580575050826000602080949584010152601f8019910116010190565b60208183018101518483018201520161155f565b80548210156115b05760005260206000209060021b0190600090565b634e487b7160e01b600052603260045260246000fd5b90600182811c921680156115f6575b60208310146115e057565b634e487b7160e01b600052602260045260246000fd5b91607f16916115d5565b60e0810190811067ffffffffffffffff82111761161c57604052565b634e487b7160e01b600052604160045260246000fd5b6080810190811067ffffffffffffffff82111761161c57604052565b90601f8019910116810190811067ffffffffffffffff82111761161c57604052565b9060405191826000825492611684846115c6565b9081845260019485811690816000146116f357506001146116b0575b50506116ae9250038361164e565b565b9093915060005260209081600020936000915b8183106116db5750506116ae935082010138806116a0565b855488840185015294850194879450918301916116c3565b9150506116ae94506020925060ff191682840152151560051b82010138806116a0565b60001981146117255760010190565b634e487b7160e01b600052601160045260246000fd5b908060209392818452848401376000828201840152601f01601f1916010190565b1561176357565b60405162461bcd60e51b815260206004820152600e60248201526d139bdd081c9959da5cdd195c995960921b6044820152606490fd5b90816020910312611521575180151581036115215790565b156117b857565b60405162461bcd60e51b815260206004820152600f60248201526e151c985b9cd9995c8819985a5b1959608a1b6044820152606490fd5b9190820180921161172557565b9190820391821161172557565b1561181057565b60405162461bcd60e51b815260206004820152600e60248201526d139bdd08185d5d1a1bdc9a5e995960921b6044820152606490fd5b8181029291811591840414171561172557565b8115611863570490565b634e487b7160e01b600052601260045260246000fd5b6001600160a01b03166000908152600360205260408120600581015460ff16156119f657805480156119ef576118b56118be91600a5490611846565b60065490611859565b915b6101908084116119e7575b506002820154916118e06003820154846117ef565b829381611984575b50506118fc600462015180920154426117fc565b04601e81101561197457601e03601e811161196057600c5461191d91611846565b90600a820291808304600a149015171561194c57506119499291601e6119449204926117ef565b6117ef565b90565b634e487b7160e01b81526011600452602490fd5b634e487b7160e01b82526011600452602482fd5b50611949929161194491926117ef565b909193506064810290808204606414901517156119d3576119b1916119a891611859565b600b5490611846565b600a810290808204600a14901517156119605760649004916118fc60046118e8565b634e487b7160e01b83526011600452602483fd5b9250386118cb565b50816118c0565b5090565b7ffc577563f1b9a0461e24abef1e1fcc0d33d3d881f20b5df6dda59de4aae2c8216020611a2683611879565b9260018060a01b031692836000526003825280600160406000200155604051908152a256fea2646970667358221220eb98ef16177a662c19eb9eda3eb464a9fbb600c76cf83ccf6deda51d080c933564736f6c63430008140033","opcodes":"PUSH1 0x80 CALLVALUE PUSH2 0x115 JUMPI PUSH1 0x1F PUSH3 0x1BC6 CODESIZE DUP2 SWAP1 SUB SWAP2 DUP3 ADD PUSH1 0x1F NOT AND DUP4 ADD SWAP2 PUSH1 0x1 PUSH1 0x1 PUSH1 0x40 SHL SUB DUP4 GT DUP5 DUP5 LT OR PUSH2 0x11A JUMPI DUP1 DUP5 SWAP3 PUSH1 0x40 SWAP5 DUP6 MSTORE DUP4 CODECOPY DUP2 ADD SUB SLT PUSH2 0x115 JUMPI PUSH2 0x53 PUSH1 0x20 PUSH2 0x4C DUP4 PUSH2 0x130 JUMP JUMPDEST SWAP3 ADD PUSH2 0x130 JUMP JUMPDEST PUSH1 0x1 PUSH32 0x9B779B17422D0DF92223018B32B4D1FA46E071723D6817E2486D003BECC55F00 SSTORE PUSH1 0x0 SLOAD PUSH2 0x100 PUSH1 0x1 PUSH1 0xA8 SHL SUB CALLER PUSH1 0x8 SHL AND SWAP1 PUSH2 0x100 PUSH1 0x1 PUSH1 0xA8 SHL SUB NOT AND OR PUSH1 0x0 SSTORE PUSH9 0x56BC75E2D63100000 PUSH1 0x6 SSTORE PUSH2 0x3E8 PUSH1 0x7 SSTORE PUSH3 0x93A80 PUSH1 0x8 SSTORE PUSH1 0x64 PUSH1 0x9 SSTORE PUSH1 0x28 PUSH1 0xA SSTORE PUSH1 0x1E PUSH1 0xB SSTORE PUSH1 0x1E PUSH1 0xC SSTORE PUSH1 0x1 DUP1 PUSH1 0xA0 SHL SUB SWAP1 DUP2 PUSH1 0x1 DUP1 PUSH1 0xA0 SHL SUB NOT SWAP4 AND DUP4 PUSH1 0x1 SLOAD AND OR PUSH1 0x1 SSTORE AND SWAP1 PUSH1 0x2 SLOAD AND OR PUSH1 0x2 SSTORE CALLER PUSH1 0x0 MSTORE PUSH1 0x5 PUSH1 0x20 MSTORE PUSH1 0x40 PUSH1 0x0 KECCAK256 PUSH1 0x1 PUSH1 0xFF NOT DUP3 SLOAD AND OR SWAP1 SSTORE PUSH1 0x40 MLOAD PUSH2 0x1A81 SWAP1 DUP2 PUSH3 0x145 DUP3 CODECOPY RETURN JUMPDEST PUSH1 0x0 DUP1 REVERT JUMPDEST PUSH4 0x4E487B71 PUSH1 0xE0 SHL PUSH1 0x0 MSTORE PUSH1 0x41 PUSH1 0x4 MSTORE PUSH1 0x24 PUSH1 0x0 REVERT JUMPDEST MLOAD SWAP1 PUSH1 0x1 PUSH1 0x1 PUSH1 0xA0 SHL SUB DUP3 AND DUP3 SUB PUSH2 0x115 JUMPI JUMP INVALID PUSH1 0x40 PUSH1 0x80 DUP2 MSTORE PUSH1 0x4 SWAP1 DUP2 CALLDATASIZE LT ISZERO PUSH2 0x15 JUMPI PUSH1 0x0 DUP1 REVERT JUMPDEST PUSH1 0x0 DUP1 CALLDATALOAD PUSH1 0xE0 SHR DUP1 PUSH4 0x209FFA18 EQ PUSH2 0x1207 JUMPI DUP1 PUSH4 0x25D5971F EQ PUSH2 0x1019 JUMPI DUP1 PUSH4 0x267B1167 EQ PUSH2 0xFFA JUMPI DUP1 PUSH4 0x27C06FD5 EQ PUSH2 0xFCD JUMPI DUP1 PUSH4 0x2D2A9585 EQ PUSH2 0xCE4 JUMPI DUP1 PUSH4 0x34C5D2CE EQ PUSH2 0xCA6 JUMPI DUP1 PUSH4 0x35659FB8 EQ PUSH2 0xC87 JUMPI DUP1 PUSH4 0x3F4BA83A EQ PUSH2 0xC13 JUMPI DUP1 PUSH4 0x3FD8B02F EQ PUSH2 0xBF4 JUMPI DUP1 PUSH4 0x42341287 EQ PUSH2 0xA5B JUMPI DUP1 PUSH4 0x4421EA21 EQ PUSH2 0x98A JUMPI DUP1 PUSH4 0x46904840 EQ PUSH2 0x961 JUMPI DUP1 PUSH4 0x51ED6A30 EQ PUSH2 0x938 JUMPI DUP1 PUSH4 0x5C975ABB EQ PUSH2 0x916 JUMPI DUP1 PUSH4 0x68A9F19C EQ PUSH2 0x8C4 JUMPI DUP1 PUSH4 0x69666A49 EQ PUSH2 0x8A5 JUMPI DUP1 PUSH4 0x78DC93A4 EQ PUSH2 0x7A2 JUMPI DUP1 PUSH4 0x817B1CD2 EQ PUSH2 0x783 JUMPI DUP1 PUSH4 0x8456CB59 EQ PUSH2 0x6FF JUMPI DUP1 PUSH4 0x9FD0506D EQ PUSH2 0x6D3 JUMPI DUP1 PUSH4 0xA694FC3A EQ PUSH2 0x4C4 JUMPI DUP1 PUSH4 0xAAC6AA9C EQ PUSH2 0x475 JUMPI DUP1 PUSH4 0xAED2D908 EQ PUSH2 0x437 JUMPI DUP1 PUSH4 0xB0C87DF2 EQ PUSH2 0x418 JUMPI DUP1 PUSH4 0xB2AB2782 EQ PUSH2 0x3A1 JUMPI DUP1 PUSH4 0xBE3AC6A7 EQ PUSH2 0x382 JUMPI DUP1 PUSH4 0xC3C5A547 EQ PUSH2 0x340 JUMPI DUP1 PUSH4 0xC5053712 EQ PUSH2 0x321 JUMPI DUP1 PUSH4 0xCF57EE69 EQ PUSH2 0x2EB JUMPI DUP1 PUSH4 0xCFD47663 EQ PUSH2 0x23A JUMPI DUP1 PUSH4 0xEC5FFAC2 EQ PUSH2 0x217 JUMPI PUSH4 0xFD66091E EQ PUSH2 0x180 JUMPI PUSH1 0x0 DUP1 REVERT JUMPDEST CALLVALUE PUSH2 0x214 JUMPI PUSH1 0x20 CALLDATASIZE PUSH1 0x3 NOT ADD SLT PUSH2 0x214 JUMPI PUSH2 0x210 SWAP1 DUP3 SWAP1 PUSH1 0x1 PUSH1 0x1 PUSH1 0xA0 SHL SUB PUSH2 0x1A7 PUSH2 0x150B JUMP JUMPDEST AND DUP2 MSTORE PUSH1 0x3 PUSH1 0x20 MSTORE KECCAK256 SWAP2 DUP3 SLOAD SWAP3 PUSH1 0x1 DUP2 ADD SLOAD SWAP5 PUSH1 0x2 DUP3 ADD SLOAD SWAP1 PUSH1 0x3 DUP4 ADD SLOAD SWAP1 DUP4 ADD SLOAD SWAP2 PUSH2 0x1DE PUSH1 0x6 PUSH1 0xFF PUSH1 0x5 DUP8 ADD SLOAD AND SWAP6 ADD PUSH2 0x1670 JUMP JUMPDEST SWAP5 DUP1 MLOAD SWAP9 DUP10 SWAP9 DUP10 MSTORE PUSH1 0x20 DUP10 ADD MSTORE DUP8 ADD MSTORE PUSH1 0x60 DUP7 ADD MSTORE PUSH1 0x80 DUP6 ADD MSTORE ISZERO ISZERO PUSH1 0xA0 DUP5 ADD MSTORE PUSH1 0xE0 PUSH1 0xC0 DUP5 ADD MSTORE PUSH1 0xE0 DUP4 ADD SWAP1 PUSH2 0x1554 JUMP JUMPDEST SUB SWAP1 RETURN JUMPDEST DUP1 REVERT JUMPDEST POP SWAP1 CALLVALUE PUSH2 0x236 JUMPI DUP2 PUSH1 0x3 NOT CALLDATASIZE ADD SLT PUSH2 0x236 JUMPI PUSH1 0x20 SWAP1 PUSH1 0x6 SLOAD SWAP1 MLOAD SWAP1 DUP2 MSTORE RETURN JUMPDEST POP DUP1 REVERT JUMPDEST POP SWAP2 CALLVALUE PUSH2 0x2E7 JUMPI DUP2 PUSH1 0x3 NOT CALLDATASIZE ADD SLT PUSH2 0x2E7 JUMPI PUSH1 0x80 SWAP3 PUSH2 0x291 SWAP2 PUSH2 0x25B PUSH2 0x150B JUMP JUMPDEST DUP3 PUSH1 0x60 DUP7 MLOAD PUSH2 0x269 DUP2 PUSH2 0x1632 JUMP JUMPDEST DUP3 DUP2 MSTORE DUP3 PUSH1 0x20 DUP3 ADD MSTORE DUP3 DUP9 DUP3 ADD MSTORE ADD MSTORE PUSH1 0x1 DUP1 PUSH1 0xA0 SHL SUB AND DUP3 MSTORE PUSH1 0x20 MSTORE DUP3 PUSH1 0x24 CALLDATALOAD SWAP2 KECCAK256 PUSH2 0x1594 JUMP JUMPDEST POP SWAP1 DUP1 MLOAD SWAP1 PUSH2 0x29F DUP3 PUSH2 0x1632 JUMP JUMPDEST DUP3 SLOAD SWAP3 DUP4 DUP4 MSTORE PUSH1 0x1 DUP2 ADD SLOAD PUSH1 0x20 DUP5 ADD SWAP1 DUP2 MSTORE PUSH1 0x60 PUSH1 0xFF PUSH1 0x3 PUSH1 0x2 DUP6 ADD SLOAD SWAP5 DUP7 DUP9 ADD SWAP6 DUP7 MSTORE ADD SLOAD AND SWAP5 ADD SWAP4 ISZERO ISZERO DUP5 MSTORE DUP3 MLOAD SWAP5 DUP6 MSTORE MLOAD PUSH1 0x20 DUP6 ADD MSTORE MLOAD SWAP1 DUP4 ADD MSTORE MLOAD ISZERO ISZERO PUSH1 0x60 DUP3 ADD MSTORE RETURN JUMPDEST DUP3 DUP1 REVERT JUMPDEST POP SWAP2 CALLVALUE PUSH2 0x2E7 JUMPI PUSH1 0x20 CALLDATASIZE PUSH1 0x3 NOT ADD SLT PUSH2 0x2E7 JUMPI PUSH1 0x20 SWAP3 DUP3 SWAP2 PUSH1 0x1 PUSH1 0x1 PUSH1 0xA0 SHL SUB PUSH2 0x313 PUSH2 0x150B JUMP JUMPDEST AND DUP3 MSTORE DUP5 MSTORE KECCAK256 SLOAD SWAP1 MLOAD SWAP1 DUP2 MSTORE RETURN JUMPDEST POP SWAP1 CALLVALUE PUSH2 0x236 JUMPI DUP2 PUSH1 0x3 NOT CALLDATASIZE ADD SLT PUSH2 0x236 JUMPI PUSH1 0x20 SWAP1 PUSH1 0xE SLOAD SWAP1 MLOAD SWAP1 DUP2 MSTORE RETURN JUMPDEST POP SWAP1 CALLVALUE PUSH2 0x236 JUMPI PUSH1 0x20 CALLDATASIZE PUSH1 0x3 NOT ADD SLT PUSH2 0x236 JUMPI PUSH1 0x20 SWAP2 PUSH1 0xFF SWAP1 PUSH1 0x5 SWAP1 DUP4 SWAP1 PUSH1 0x1 PUSH1 0x1 PUSH1 0xA0 SHL SUB PUSH2 0x36E PUSH2 0x150B JUMP JUMPDEST AND DUP2 MSTORE PUSH1 0x3 DUP7 MSTORE KECCAK256 ADD SLOAD AND SWAP1 MLOAD SWAP1 ISZERO ISZERO DUP2 MSTORE RETURN JUMPDEST POP SWAP1 CALLVALUE PUSH2 0x236 JUMPI DUP2 PUSH1 0x3 NOT CALLDATASIZE ADD SLT PUSH2 0x236 JUMPI PUSH1 0x20 SWAP1 PUSH1 0xB SLOAD SWAP1 MLOAD SWAP1 DUP2 MSTORE RETURN JUMPDEST POP CALLVALUE PUSH2 0x214 JUMPI DUP2 PUSH1 0x3 NOT CALLDATASIZE ADD SLT PUSH2 0x214 JUMPI PUSH2 0x3BA PUSH2 0x150B JUMP JUMPDEST PUSH1 0x1 PUSH1 0x1 PUSH1 0xA0 SHL SUB AND DUP2 MSTORE PUSH1 0x20 SWAP3 SWAP1 SWAP3 MSTORE DUP1 DUP3 KECCAK256 DUP1 SLOAD PUSH1 0x24 CALLDATALOAD SWAP4 SWAP1 DUP5 LT ISZERO PUSH2 0x214 JUMPI POP PUSH1 0x80 SWAP3 PUSH2 0x3E9 SWAP2 PUSH2 0x1594 JUMP JUMPDEST POP SWAP1 DUP2 SLOAD SWAP2 PUSH1 0x1 DUP2 ADD SLOAD SWAP2 PUSH1 0xFF PUSH1 0x3 PUSH1 0x2 DUP5 ADD SLOAD SWAP4 ADD SLOAD AND SWAP3 DUP2 MLOAD SWAP5 DUP6 MSTORE PUSH1 0x20 DUP6 ADD MSTORE DUP4 ADD MSTORE ISZERO ISZERO PUSH1 0x60 DUP3 ADD MSTORE RETURN JUMPDEST POP SWAP1 CALLVALUE PUSH2 0x236 JUMPI DUP2 PUSH1 0x3 NOT CALLDATASIZE ADD SLT PUSH2 0x236 JUMPI PUSH1 0x20 SWAP1 PUSH1 0xC SLOAD SWAP1 MLOAD SWAP1 DUP2 MSTORE RETURN JUMPDEST POP SWAP1 CALLVALUE PUSH2 0x236 JUMPI PUSH1 0x20 CALLDATASIZE PUSH1 0x3 NOT ADD SLT PUSH2 0x236 JUMPI PUSH1 0x20 SWAP2 PUSH1 0xFF SWAP1 DUP3 SWAP1 PUSH1 0x1 PUSH1 0x1 PUSH1 0xA0 SHL SUB PUSH2 0x462 PUSH2 0x150B JUMP JUMPDEST AND DUP2 MSTORE PUSH1 0x5 DUP6 MSTORE KECCAK256 SLOAD AND SWAP1 MLOAD SWAP1 ISZERO ISZERO DUP2 MSTORE RETURN JUMPDEST POP SWAP1 CALLVALUE PUSH2 0x236 JUMPI PUSH1 0x20 CALLDATASIZE PUSH1 0x3 NOT ADD SLT PUSH2 0x236 JUMPI PUSH2 0x490 PUSH2 0x150B JUMP JUMPDEST CALLER DUP4 MSTORE PUSH1 0x5 PUSH1 0x20 MSTORE PUSH2 0x4A7 PUSH1 0xFF DUP4 DUP6 KECCAK256 SLOAD AND PUSH2 0x1809 JUMP JUMPDEST PUSH1 0x1 PUSH1 0x1 PUSH1 0xA0 SHL SUB AND DUP3 MSTORE PUSH1 0x5 PUSH1 0x20 MSTORE DUP2 KECCAK256 DUP1 SLOAD PUSH1 0xFF NOT AND SWAP1 SSTORE DUP1 RETURN JUMPDEST POP SWAP1 CALLVALUE PUSH2 0x236 JUMPI PUSH1 0x20 SWAP1 DUP2 PUSH1 0x3 NOT CALLDATASIZE ADD SLT PUSH2 0x2E7 JUMPI DUP4 CALLDATALOAD SWAP2 CALLER DUP5 MSTORE PUSH1 0x3 DUP2 MSTORE PUSH2 0x4F5 PUSH1 0xFF PUSH1 0x5 DUP5 DUP8 KECCAK256 ADD SLOAD AND PUSH2 0x175C JUMP JUMPDEST DUP3 ISZERO PUSH2 0x69C JUMPI PUSH1 0x1 SLOAD DUP3 MLOAD PUSH4 0x23B872DD PUSH1 0xE0 SHL DUP2 MSTORE CALLER DUP8 DUP3 ADD MSTORE ADDRESS PUSH1 0x24 DUP3 ADD MSTORE PUSH1 0x44 DUP2 ADD DUP6 SWAP1 MSTORE SWAP1 DUP3 SWAP1 DUP3 SWAP1 PUSH1 0x64 SWAP1 DUP3 SWAP1 DUP10 SWAP1 PUSH1 0x1 PUSH1 0x1 PUSH1 0xA0 SHL SUB AND GAS CALL SWAP1 DUP2 ISZERO PUSH2 0x692 JUMPI SWAP1 PUSH2 0x54C SWAP2 DUP7 SWAP2 PUSH2 0x665 JUMPI JUMPDEST POP PUSH2 0x17B1 JUMP JUMPDEST PUSH2 0x558 PUSH1 0x8 SLOAD TIMESTAMP PUSH2 0x17EF JUMP JUMPDEST DUP3 MLOAD PUSH2 0x563 DUP2 PUSH2 0x1632 JUMP JUMPDEST DUP5 DUP2 MSTORE DUP3 DUP2 ADD TIMESTAMP DUP2 MSTORE DUP5 DUP3 ADD SWAP3 DUP4 MSTORE PUSH1 0x60 DUP3 ADD SWAP1 DUP8 DUP3 MSTORE CALLER DUP9 MSTORE DUP9 DUP6 MSTORE DUP6 DUP9 KECCAK256 DUP1 SLOAD SWAP1 PUSH9 0x10000000000000000 DUP3 LT ISZERO PUSH2 0x652 JUMPI SWAP1 PUSH2 0x5A7 SWAP2 PUSH1 0x1 DUP3 ADD DUP2 SSTORE PUSH2 0x1594 JUMP JUMPDEST SWAP4 SWAP1 SWAP4 PUSH2 0x640 JUMPI PUSH2 0x601 SWAP3 PUSH32 0x5CCE4A371BF9816B1A7594F1D76C98EBA4ED025FF3E471234AE598F17899BD4 SWAP8 SWAP7 SWAP6 SWAP5 SWAP3 PUSH1 0x3 SWAP3 MLOAD DUP5 SSTORE MLOAD PUSH1 0x1 DUP5 ADD SSTORE DUP5 MLOAD PUSH1 0x2 DUP5 ADD SSTORE MLOAD ISZERO ISZERO SWAP2 ADD SWAP1 PUSH1 0xFF DUP1 NOT DUP4 SLOAD AND SWAP2 ISZERO ISZERO AND OR SWAP1 SSTORE JUMP JUMPDEST CALLER DUP7 MSTORE PUSH1 0x3 DUP3 MSTORE DUP3 DUP7 KECCAK256 PUSH2 0x616 DUP7 DUP3 SLOAD PUSH2 0x17EF JUMP JUMPDEST SWAP1 SSTORE PUSH2 0x624 DUP6 PUSH1 0xD SLOAD PUSH2 0x17EF JUMP JUMPDEST PUSH1 0xD SSTORE PUSH2 0x630 CALLER PUSH2 0x19FA JUMP JUMPDEST MLOAD SWAP1 DUP3 MLOAD SWAP5 DUP6 MSTORE DUP5 ADD MSTORE CALLER SWAP3 LOG2 DUP1 RETURN JUMPDEST PUSH4 0x4E487B71 PUSH1 0xE0 SHL DUP10 MSTORE DUP9 DUP11 MSTORE PUSH1 0x24 DUP10 REVERT JUMPDEST PUSH4 0x4E487B71 PUSH1 0xE0 SHL DUP11 MSTORE PUSH1 0x41 DUP12 MSTORE PUSH1 0x24 DUP11 REVERT JUMPDEST PUSH2 0x685 SWAP2 POP DUP4 RETURNDATASIZE DUP6 GT PUSH2 0x68B JUMPI JUMPDEST PUSH2 0x67D DUP2 DUP4 PUSH2 0x164E JUMP JUMPDEST DUP2 ADD SWAP1 PUSH2 0x1799 JUMP JUMPDEST CODESIZE PUSH2 0x546 JUMP JUMPDEST POP RETURNDATASIZE PUSH2 0x673 JUMP JUMPDEST DUP4 MLOAD RETURNDATASIZE DUP8 DUP3 RETURNDATACOPY RETURNDATASIZE SWAP1 REVERT JUMPDEST DUP5 SWAP1 PUSH1 0x64 SWAP3 MLOAD SWAP2 PUSH3 0x461BCD PUSH1 0xE5 SHL DUP4 MSTORE DUP3 ADD MSTORE PUSH1 0x12 PUSH1 0x24 DUP3 ADD MSTORE PUSH18 0x416D6F756E74206D757374206265203E203 PUSH1 0x74 SHL PUSH1 0x44 DUP3 ADD MSTORE REVERT JUMPDEST POP SWAP1 CALLVALUE PUSH2 0x236 JUMPI DUP2 PUSH1 0x3 NOT CALLDATASIZE ADD SLT PUSH2 0x236 JUMPI SWAP1 SLOAD SWAP1 MLOAD PUSH1 0x8 SWAP2 SWAP1 SWAP2 SHR PUSH1 0x1 PUSH1 0x1 PUSH1 0xA0 SHL SUB AND DUP2 MSTORE PUSH1 0x20 SWAP1 RETURN JUMPDEST POP SWAP2 CALLVALUE PUSH2 0x2E7 JUMPI DUP3 PUSH1 0x3 NOT CALLDATASIZE ADD SLT PUSH2 0x2E7 JUMPI DUP3 SLOAD SWAP1 PUSH1 0x8 DUP3 SWAP1 SHR PUSH1 0x1 PUSH1 0x1 PUSH1 0xA0 SHL SUB AND CALLER SUB PUSH2 0x775 JUMPI PUSH1 0xFF DUP3 AND PUSH2 0x767 JUMPI POP PUSH1 0xFF NOT AND PUSH1 0x1 OR DUP3 SSTORE MLOAD CALLER DUP2 MSTORE PUSH32 0x62E78CEA01BEE320CD4E420270B5EA74000D11B0C9F74754EBDBFC544B05A258 SWAP1 PUSH1 0x20 SWAP1 LOG1 DUP1 RETURN JUMPDEST DUP3 MLOAD PUSH4 0xAB35696F PUSH1 0xE0 SHL DUP2 MSTORE REVERT JUMPDEST DUP3 MLOAD PUSH4 0x492F6781 PUSH1 0xE0 SHL DUP2 MSTORE REVERT JUMPDEST POP SWAP1 CALLVALUE PUSH2 0x236 JUMPI DUP2 PUSH1 0x3 NOT CALLDATASIZE ADD SLT PUSH2 0x236 JUMPI PUSH1 0x20 SWAP1 PUSH1 0xD SLOAD SWAP1 MLOAD SWAP1 DUP2 MSTORE RETURN JUMPDEST POP SWAP2 CALLVALUE PUSH2 0x2E7 JUMPI PUSH1 0x20 SWAP3 DUP4 PUSH1 0x3 NOT CALLDATASIZE ADD SLT PUSH2 0x214 JUMPI SWAP1 DUP3 PUSH2 0x210 SWAP3 PUSH2 0x7C5 PUSH2 0x150B JUMP JUMPDEST PUSH1 0x60 PUSH1 0xC0 DUP5 MLOAD PUSH2 0x7D4 DUP2 PUSH2 0x1600 JUMP JUMPDEST DUP5 DUP2 MSTORE DUP5 DUP11 DUP3 ADD MSTORE DUP5 DUP7 DUP3 ADD MSTORE DUP5 DUP4 DUP3 ADD MSTORE DUP5 PUSH1 0x80 DUP3 ADD MSTORE DUP5 PUSH1 0xA0 DUP3 ADD MSTORE ADD MSTORE PUSH1 0x1 DUP1 PUSH1 0xA0 SHL SUB AND DUP2 MSTORE PUSH1 0x3 DUP7 MSTORE KECCAK256 DUP4 MLOAD SWAP4 PUSH2 0x80F DUP6 PUSH2 0x1600 JUMP JUMPDEST DUP2 SLOAD DUP6 MSTORE PUSH1 0x1 DUP3 ADD SLOAD SWAP3 DUP7 DUP7 ADD SWAP4 DUP5 MSTORE PUSH1 0x2 DUP4 ADD SLOAD DUP3 DUP8 ADD SWAP1 DUP2 MSTORE PUSH1 0x3 DUP5 ADD SLOAD SWAP2 PUSH1 0x60 DUP9 ADD SWAP3 DUP4 MSTORE DUP5 ADD SLOAD SWAP3 PUSH1 0x80 DUP9 ADD SWAP4 DUP5 MSTORE PUSH2 0x85F PUSH1 0x6 PUSH1 0xFF PUSH1 0x5 DUP9 ADD SLOAD AND SWAP7 PUSH1 0xA0 DUP12 ADD SWAP8 ISZERO ISZERO DUP9 MSTORE ADD PUSH2 0x1670 JUMP JUMPDEST SWAP6 PUSH1 0xC0 DUP10 ADD SWAP7 DUP8 MSTORE DUP2 MLOAD SWAP10 DUP11 SWAP10 DUP2 DUP12 MSTORE MLOAD SWAP1 DUP11 ADD MSTORE MLOAD SWAP1 DUP9 ADD MSTORE MLOAD PUSH1 0x60 DUP8 ADD MSTORE MLOAD PUSH1 0x80 DUP7 ADD MSTORE MLOAD PUSH1 0xA0 DUP6 ADD MSTORE MLOAD ISZERO ISZERO PUSH1 0xC0 DUP5 ADD MSTORE MLOAD PUSH1 0xE0 DUP1 DUP5 ADD MSTORE PUSH2 0x100 DUP4 ADD SWAP1 PUSH2 0x1554 JUMP JUMPDEST POP SWAP1 CALLVALUE PUSH2 0x236 JUMPI DUP2 PUSH1 0x3 NOT CALLDATASIZE ADD SLT PUSH2 0x236 JUMPI PUSH1 0x20 SWAP1 PUSH1 0x7 SLOAD SWAP1 MLOAD SWAP1 DUP2 MSTORE RETURN JUMPDEST POP SWAP1 CALLVALUE PUSH2 0x236 JUMPI PUSH1 0x20 CALLDATASIZE PUSH1 0x3 NOT ADD SLT PUSH2 0x236 JUMPI PUSH2 0x8DF PUSH2 0x150B JUMP JUMPDEST CALLER DUP4 MSTORE PUSH1 0x5 PUSH1 0x20 MSTORE PUSH2 0x8F6 PUSH1 0xFF DUP4 DUP6 KECCAK256 SLOAD AND PUSH2 0x1809 JUMP JUMPDEST PUSH1 0x1 PUSH1 0x1 PUSH1 0xA0 SHL SUB AND DUP3 MSTORE PUSH1 0x5 PUSH1 0x20 MSTORE DUP2 KECCAK256 DUP1 SLOAD PUSH1 0xFF NOT AND PUSH1 0x1 OR SWAP1 SSTORE DUP1 RETURN JUMPDEST POP SWAP1 CALLVALUE PUSH2 0x236 JUMPI DUP2 PUSH1 0x3 NOT CALLDATASIZE ADD SLT PUSH2 0x236 JUMPI PUSH1 0xFF PUSH1 0x20 SWAP3 SLOAD AND SWAP1 MLOAD SWAP1 ISZERO ISZERO DUP2 MSTORE RETURN JUMPDEST POP SWAP1 CALLVALUE PUSH2 0x236 JUMPI DUP2 PUSH1 0x3 NOT CALLDATASIZE ADD SLT PUSH2 0x236 JUMPI PUSH1 0x1 SLOAD SWAP1 MLOAD PUSH1 0x1 PUSH1 0x1 PUSH1 0xA0 SHL SUB SWAP1 SWAP2 AND DUP2 MSTORE PUSH1 0x20 SWAP1 RETURN JUMPDEST POP SWAP1 CALLVALUE PUSH2 0x236 JUMPI DUP2 PUSH1 0x3 NOT CALLDATASIZE ADD SLT PUSH2 0x236 JUMPI PUSH1 0x2 SLOAD SWAP1 MLOAD PUSH1 0x1 PUSH1 0x1 PUSH1 0xA0 SHL SUB SWAP1 SWAP2 AND DUP2 MSTORE PUSH1 0x20 SWAP1 RETURN JUMPDEST POP SWAP2 CALLVALUE PUSH2 0x2E7 JUMPI PUSH1 0x20 CALLDATASIZE PUSH1 0x3 NOT ADD SLT PUSH2 0x2E7 JUMPI PUSH2 0x9A5 PUSH2 0x150B JUMP JUMPDEST DUP4 SLOAD SWAP1 PUSH1 0x1 DUP1 PUSH1 0xA0 SHL SUB SWAP3 DUP4 DUP4 PUSH1 0x8 SHR AND SWAP4 DUP5 CALLER SUB PUSH2 0xA4C JUMPI DUP3 AND SWAP5 DUP6 ISZERO PUSH2 0xA10 JUMPI POP POP PUSH2 0x100 PUSH1 0x1 PUSH1 0xA8 SHL SUB NOT SWAP1 SWAP2 AND PUSH1 0x8 SWAP2 SWAP1 SWAP2 SHL PUSH2 0x100 PUSH1 0x1 PUSH1 0xA8 SHL SUB AND OR DUP4 SSTORE PUSH32 0x51C4874E0F23F262E04A38C51751336DDE72126D67F53EB672AAFF02996B3EF6 DUP4 DUP1 LOG3 DUP1 RETURN JUMPDEST SWAP1 PUSH1 0x20 PUSH1 0x64 SWAP3 MLOAD SWAP2 PUSH3 0x461BCD PUSH1 0xE5 SHL DUP4 MSTORE DUP3 ADD MSTORE PUSH1 0x16 PUSH1 0x24 DUP3 ADD MSTORE PUSH22 0x496E76616C6964207061757365722061646472657373 PUSH1 0x50 SHL PUSH1 0x44 DUP3 ADD MSTORE REVERT JUMPDEST POP DUP5 MLOAD PUSH4 0x492F6781 PUSH1 0xE0 SHL DUP2 MSTORE REVERT JUMPDEST POP SWAP2 SWAP1 CALLVALUE PUSH2 0x2E7 JUMPI PUSH1 0x20 SWAP1 DUP2 PUSH1 0x3 NOT CALLDATASIZE ADD SLT PUSH2 0xBF0 JUMPI PUSH2 0xA79 PUSH2 0x150B JUMP JUMPDEST SWAP1 CALLER DUP6 MSTORE PUSH1 0x5 DUP4 MSTORE PUSH2 0xA90 PUSH1 0xFF DUP3 DUP8 KECCAK256 SLOAD AND PUSH2 0x1809 JUMP JUMPDEST PUSH1 0x1 PUSH1 0x1 PUSH1 0xA0 SHL SUB DUP3 DUP2 AND DUP1 DUP8 MSTORE PUSH1 0x3 DUP6 MSTORE DUP3 DUP8 KECCAK256 PUSH1 0x5 ADD SLOAD SWAP1 SWAP6 SWAP2 SWAP1 PUSH2 0xAB9 SWAP1 PUSH1 0xFF AND PUSH2 0x175C JUMP JUMPDEST DUP6 DUP8 MSTORE PUSH1 0x3 DUP6 MSTORE PUSH1 0x2 DUP4 DUP9 KECCAK256 ADD PUSH2 0xAD0 DUP2 SLOAD PUSH2 0x1716 JUMP JUMPDEST SWAP1 SSTORE DUP6 DUP8 MSTORE PUSH1 0x3 DUP6 MSTORE TIMESTAMP DUP3 DUP5 DUP10 KECCAK256 ADD SSTORE PUSH2 0xAE9 DUP5 PUSH2 0x19FA JUMP JUMPDEST DUP6 DUP8 MSTORE PUSH1 0x3 DUP6 MSTORE DUP3 DUP8 KECCAK256 PUSH1 0xA PUSH1 0x2 DUP3 ADD SLOAD MOD ISZERO PUSH2 0xB04 JUMPI DUP8 DUP1 RETURN JUMPDEST PUSH1 0x64 SWAP1 SLOAD DIV SWAP4 DUP5 PUSH2 0xB13 JUMPI DUP8 DUP1 RETURN JUMPDEST PUSH1 0x1 SLOAD DUP5 MLOAD PUSH4 0xA9059CBB PUSH1 0xE0 SHL DUP2 MSTORE PUSH1 0x1 PUSH1 0x1 PUSH1 0xA0 SHL SUB SWAP3 SWAP1 SWAP3 AND DUP5 DUP4 ADD SWAP1 DUP2 MSTORE PUSH1 0x20 DUP2 ADD DUP8 SWAP1 MSTORE SWAP2 SWAP3 DUP8 SWAP3 DUP5 SWAP3 SWAP1 DUP4 SWAP1 SUB PUSH1 0x40 ADD SWAP2 DUP4 SWAP2 DUP13 SWAP2 AND GAS CALL SWAP1 DUP2 ISZERO PUSH2 0xBE6 JUMPI DUP8 SWAP2 PUSH2 0xBC9 JUMPI JUMPDEST POP ISZERO PUSH2 0xB98 JUMPI POP MLOAD SWAP1 DUP2 MSTORE PUSH32 0xE34918FF1C7084970068B53FD71AD6D8B04E9F15D3886CBF006443E6CDC52EA6 SWAP2 SWAP1 LOG2 CODESIZE DUP1 DUP1 DUP1 DUP1 DUP1 DUP1 DUP8 DUP1 RETURN JUMPDEST DUP4 PUSH1 0x64 SWAP3 MLOAD SWAP2 PUSH3 0x461BCD PUSH1 0xE5 SHL DUP4 MSTORE DUP3 ADD MSTORE PUSH1 0xD PUSH1 0x24 DUP3 ADD MSTORE PUSH13 0x14995DD85C990819985A5B1959 PUSH1 0x9A SHL PUSH1 0x44 DUP3 ADD MSTORE REVERT JUMPDEST PUSH2 0xBE0 SWAP2 POP DUP6 RETURNDATASIZE DUP8 GT PUSH2 0x68B JUMPI PUSH2 0x67D DUP2 DUP4 PUSH2 0x164E JUMP JUMPDEST CODESIZE PUSH2 0xB5E JUMP JUMPDEST DUP4 MLOAD RETURNDATASIZE DUP10 DUP3 RETURNDATACOPY RETURNDATASIZE SWAP1 REVERT JUMPDEST DUP4 DUP1 REVERT JUMPDEST POP SWAP1 CALLVALUE PUSH2 0x236 JUMPI DUP2 PUSH1 0x3 NOT CALLDATASIZE ADD SLT PUSH2 0x236 JUMPI PUSH1 0x20 SWAP1 PUSH1 0x8 SLOAD SWAP1 MLOAD SWAP1 DUP2 MSTORE RETURN JUMPDEST POP SWAP2 CALLVALUE PUSH2 0x2E7 JUMPI DUP3 PUSH1 0x3 NOT CALLDATASIZE ADD SLT PUSH2 0x2E7 JUMPI DUP3 SLOAD SWAP1 PUSH1 0x8 DUP3 SWAP1 SHR PUSH1 0x1 PUSH1 0x1 PUSH1 0xA0 SHL SUB AND CALLER SUB PUSH2 0x775 JUMPI PUSH1 0xFF DUP3 AND ISZERO PUSH2 0xC79 JUMPI POP PUSH1 0xFF NOT AND DUP3 SSTORE MLOAD CALLER DUP2 MSTORE PUSH32 0x5DB9EE0A495BF2E6FF9C91A7834C1BA4FDD244A5E8AA4E537BD38AEAE4B073AA SWAP1 PUSH1 0x20 SWAP1 LOG1 DUP1 RETURN JUMPDEST DUP3 MLOAD PUSH4 0xDCDDE9DD PUSH1 0xE0 SHL DUP2 MSTORE REVERT JUMPDEST POP SWAP1 CALLVALUE PUSH2 0x236 JUMPI DUP2 PUSH1 0x3 NOT CALLDATASIZE ADD SLT PUSH2 0x236 JUMPI PUSH1 0x20 SWAP1 PUSH1 0x9 SLOAD SWAP1 MLOAD SWAP1 DUP2 MSTORE RETURN JUMPDEST POP SWAP2 SWAP1 CALLVALUE PUSH2 0x2E7 JUMPI PUSH1 0x60 CALLDATASIZE PUSH1 0x3 NOT ADD SLT PUSH2 0x2E7 JUMPI PUSH1 0xFF PUSH2 0xCD1 SWAP2 CALLER DUP6 MSTORE PUSH1 0x5 PUSH1 0x20 MSTORE DUP5 KECCAK256 SLOAD AND PUSH2 0x1809 JUMP JUMPDEST CALLDATALOAD PUSH1 0x6 SSTORE PUSH1 0x24 CALLDATALOAD PUSH1 0x7 SSTORE PUSH1 0x44 CALLDATALOAD PUSH1 0x8 SSTORE DUP1 RETURN JUMPDEST POP SWAP1 CALLVALUE PUSH2 0x236 JUMPI PUSH1 0x20 SWAP1 DUP2 PUSH1 0x3 NOT CALLDATASIZE ADD SLT PUSH2 0x2E7 JUMPI PUSH8 0xFFFFFFFFFFFFFFFF SWAP1 DUP5 CALLDATALOAD DUP3 DUP2 GT PUSH2 0xFC9 JUMPI PUSH2 0xD19 SWAP1 CALLDATASIZE SWAP1 DUP8 ADD PUSH2 0x1526 JUMP JUMPDEST SWAP2 SWAP1 SWAP3 CALLER DUP7 MSTORE PUSH1 0x3 DUP6 MSTORE PUSH1 0xFF PUSH1 0x5 DUP4 DUP9 KECCAK256 ADD SLOAD AND PUSH2 0xF91 JUMPI DUP2 MLOAD PUSH2 0xD3C DUP2 PUSH2 0x1600 JUMP JUMPDEST DUP7 DUP2 MSTORE DUP6 DUP2 ADD SWAP1 DUP8 DUP3 MSTORE DUP4 DUP2 ADD DUP9 DUP2 MSTORE PUSH1 0x60 DUP3 ADD DUP10 DUP2 MSTORE PUSH1 0x80 DUP4 ADD SWAP1 TIMESTAMP DUP3 MSTORE PUSH1 0xA0 DUP5 ADD SWAP3 PUSH1 0x1 SWAP6 DUP7 DUP6 MSTORE DUP8 DUP11 GT PUSH2 0xF7D JUMPI SWAP2 DUP12 SWAP8 SWAP7 SWAP6 SWAP4 SWAP2 PUSH1 0x1F SWAP6 SWAP4 PUSH2 0xD8D DUP12 MLOAD SWAP11 DUP14 DUP10 NOT SWAP10 DUP11 SWAP2 ADD AND ADD DUP12 PUSH2 0x164E JUMP JUMPDEST DUP12 DUP11 MSTORE CALLDATASIZE DUP14 DUP14 ADD GT PUSH2 0xF79 JUMPI DUP11 DUP16 DUP16 DUP16 DUP16 DUP1 DUP16 DUP5 SWAP3 DUP7 SWAP5 DUP5 DUP4 ADD CALLDATACOPY ADD ADD MSTORE PUSH1 0xC0 DUP10 ADD SWAP13 DUP14 MSTORE CALLER DUP3 MSTORE PUSH1 0x3 SWAP1 MSTORE KECCAK256 SWAP6 MLOAD DUP7 SSTORE MLOAD DUP8 DUP7 ADD SSTORE MLOAD PUSH1 0x2 DUP6 ADD SSTORE MLOAD PUSH1 0x3 DUP5 ADD SSTORE MLOAD DUP13 DUP4 ADD SSTORE MLOAD ISZERO ISZERO PUSH1 0x5 DUP3 ADD SWAP1 PUSH2 0xDF1 SWAP2 SWAP1 PUSH1 0xFF DUP1 NOT DUP4 SLOAD AND SWAP2 ISZERO ISZERO AND OR SWAP1 SSTORE JUMP JUMPDEST PUSH1 0x6 ADD SWAP4 MLOAD SWAP10 DUP11 MLOAD SWAP4 DUP5 GT PUSH2 0xF66 JUMPI POP PUSH2 0xE0B DUP5 SLOAD PUSH2 0x15C6 JUMP JUMPDEST PUSH1 0x1F DUP2 GT PUSH2 0xF20 JUMPI JUMPDEST POP DUP8 SWAP1 PUSH1 0x1F DUP5 GT PUSH1 0x1 EQ PUSH2 0xE9A JUMPI POP SWAP2 DUP1 DUP1 SWAP3 PUSH2 0xE89 SWAP7 SWAP6 SWAP5 DUP12 SWAP13 PUSH32 0xDA816CA2FC37B9EECEC62AE8263008EC6BE1AFB38DC28BC9C7C51D7E348DA9C2 SWAP12 SWAP13 SWAP5 PUSH2 0xE8F JUMPI JUMPDEST POP POP SHL SWAP2 PUSH1 0x0 NOT SWAP1 PUSH1 0x3 SHL SHR NOT AND OR SWAP1 SSTORE JUMPDEST PUSH2 0xE75 PUSH1 0xE SLOAD PUSH2 0x1716 JUMP JUMPDEST PUSH1 0xE SSTORE MLOAD SWAP3 DUP4 SWAP3 DUP7 DUP5 MSTORE CALLER SWAP7 DUP5 ADD SWAP2 PUSH2 0x173B JUMP JUMPDEST SUB SWAP1 LOG2 DUP1 RETURN JUMPDEST ADD MLOAD SWAP3 POP CODESIZE DUP1 PUSH2 0xE58 JUMP JUMPDEST DUP4 SWAP3 SWAP4 AND SWAP10 DUP5 DUP11 MSTORE DUP9 DUP11 KECCAK256 SWAP11 DUP11 JUMPDEST DUP2 DUP2 LT PUSH2 0xF0B JUMPI POP SWAP2 PUSH32 0xDA816CA2FC37B9EECEC62AE8263008EC6BE1AFB38DC28BC9C7C51D7E348DA9C2 SWAP10 SWAP11 SWAP12 SWAP2 DUP5 PUSH2 0xE89 SWAP9 SWAP8 SWAP7 SWAP6 SWAP5 LT PUSH2 0xEF2 JUMPI JUMPDEST POP POP POP DUP2 SHL ADD SWAP1 SSTORE PUSH2 0xE6A JUMP JUMPDEST ADD MLOAD PUSH1 0x0 NOT PUSH1 0xF8 DUP5 PUSH1 0x3 SHL AND SHR NOT AND SWAP1 SSTORE CODESIZE DUP1 DUP1 PUSH2 0xEE5 JUMP JUMPDEST DUP4 DUP4 ADD MLOAD DUP14 SSTORE SWAP12 DUP6 ADD SWAP12 SWAP3 DUP11 ADD SWAP3 DUP11 ADD PUSH2 0xEA8 JUMP JUMPDEST DUP5 DUP11 MSTORE DUP9 DUP11 KECCAK256 PUSH1 0x1F DUP6 ADD PUSH1 0x5 SHR DUP2 ADD SWAP2 DUP11 DUP7 LT PUSH2 0xF5C JUMPI JUMPDEST PUSH1 0x1F ADD PUSH1 0x5 SHR ADD SWAP1 DUP4 SWAP1 JUMPDEST DUP3 DUP2 LT PUSH2 0xF51 JUMPI POP POP PUSH2 0xE14 JUMP JUMPDEST DUP12 DUP2 SSTORE ADD DUP4 SWAP1 PUSH2 0xF43 JUMP JUMPDEST SWAP1 SWAP2 POP DUP2 SWAP1 PUSH2 0xF38 JUMP JUMPDEST PUSH4 0x4E487B71 PUSH1 0xE0 SHL DUP11 MSTORE PUSH1 0x41 SWAP1 MSTORE PUSH1 0x24 DUP10 REVERT JUMPDEST DUP15 DUP1 REVERT JUMPDEST POP PUSH4 0x4E487B71 PUSH1 0xE0 SHL DUP13 MSTORE PUSH1 0x41 DUP14 MSTORE PUSH1 0x24 DUP13 REVERT JUMPDEST DUP2 MLOAD PUSH3 0x461BCD PUSH1 0xE5 SHL DUP2 MSTORE DUP1 DUP9 ADD DUP7 SWAP1 MSTORE PUSH1 0x12 PUSH1 0x24 DUP3 ADD MSTORE PUSH18 0x105B1C9958591E481C9959DA5CDD195C9959 PUSH1 0x72 SHL PUSH1 0x44 DUP3 ADD MSTORE PUSH1 0x64 SWAP1 REVERT JUMPDEST DUP5 DUP1 REVERT JUMPDEST POP SWAP1 CALLVALUE PUSH2 0x236 JUMPI PUSH1 0x20 CALLDATASIZE PUSH1 0x3 NOT ADD SLT PUSH2 0x236 JUMPI PUSH1 0x20 SWAP1 PUSH2 0xFF3 PUSH2 0xFEE PUSH2 0x150B JUMP JUMPDEST PUSH2 0x1879 JUMP JUMPDEST SWAP1 MLOAD SWAP1 DUP2 MSTORE RETURN JUMPDEST POP SWAP1 CALLVALUE PUSH2 0x236 JUMPI DUP2 PUSH1 0x3 NOT CALLDATASIZE ADD SLT PUSH2 0x236 JUMPI PUSH1 0x20 SWAP1 PUSH1 0xA SLOAD SWAP1 MLOAD SWAP1 DUP2 MSTORE RETURN JUMPDEST POP SWAP2 CALLVALUE PUSH2 0x2E7 JUMPI PUSH1 0x20 DUP1 PUSH1 0x3 NOT CALLDATASIZE ADD SLT PUSH2 0xBF0 JUMPI DUP2 CALLDATALOAD CALLER DUP6 MSTORE PUSH1 0x3 DUP3 MSTORE PUSH2 0x1048 PUSH1 0xFF PUSH1 0x5 DUP7 DUP9 KECCAK256 ADD SLOAD AND PUSH2 0x175C JUMP JUMPDEST CALLER DUP6 MSTORE DUP3 DUP3 MSTORE DUP4 DUP6 KECCAK256 SLOAD DUP2 LT ISZERO PUSH2 0x11D6 JUMPI PUSH2 0x106B SWAP1 CALLER DUP7 MSTORE DUP4 DUP4 MSTORE DUP5 DUP7 KECCAK256 PUSH2 0x1594 JUMP JUMPDEST POP PUSH1 0x3 DUP2 ADD DUP1 SLOAD PUSH1 0xFF DUP2 AND PUSH2 0x119E JUMPI PUSH1 0x2 DUP4 ADD SLOAD TIMESTAMP LT PUSH2 0x116B JUMPI SWAP2 DUP4 SWAP2 PUSH1 0x1 PUSH2 0x1101 SWAP5 PUSH1 0xFF NOT AND OR SWAP1 SSTORE SLOAD DUP1 SWAP5 CALLER DUP9 MSTORE PUSH1 0x3 DUP4 MSTORE DUP7 DUP9 KECCAK256 PUSH2 0x10AD DUP4 DUP3 SLOAD PUSH2 0x17FC JUMP JUMPDEST SWAP1 SSTORE PUSH2 0x10BB DUP3 PUSH1 0xD SLOAD PUSH2 0x17FC JUMP JUMPDEST PUSH1 0xD SSTORE PUSH2 0x10C7 CALLER PUSH2 0x19FA JUMP JUMPDEST PUSH1 0x1 SLOAD DUP8 MLOAD PUSH4 0xA9059CBB PUSH1 0xE0 SHL DUP2 MSTORE CALLER SWAP3 DUP2 ADD SWAP3 DUP4 MSTORE PUSH1 0x20 DUP4 ADD SWAP4 SWAP1 SWAP4 MSTORE SWAP2 SWAP4 DUP5 SWAP3 PUSH1 0x1 PUSH1 0x1 PUSH1 0xA0 SHL SUB AND SWAP2 DUP4 SWAP2 DUP11 SWAP2 DUP4 SWAP2 PUSH1 0x40 SWAP1 SWAP2 ADD SWAP1 JUMP JUMPDEST SUB SWAP3 GAS CALL SWAP1 DUP2 ISZERO PUSH2 0x1161 JUMPI PUSH32 0x8108595EB6BAD3ACEFA9DA467D90CC2217686D5C5AC85460F8B7849C840645FC SWAP4 SWAP5 SWAP2 PUSH2 0x1140 SWAP2 DUP8 SWAP2 PUSH2 0x114A JUMPI POP PUSH2 0x17B1 JUMP JUMPDEST MLOAD SWAP3 DUP4 MSTORE CALLER SWAP3 LOG2 DUP1 RETURN JUMPDEST PUSH2 0x685 SWAP2 POP DUP5 RETURNDATASIZE DUP7 GT PUSH2 0x68B JUMPI PUSH2 0x67D DUP2 DUP4 PUSH2 0x164E JUMP JUMPDEST DUP5 MLOAD RETURNDATASIZE DUP8 DUP3 RETURNDATACOPY RETURNDATASIZE SWAP1 REVERT JUMPDEST POP POP SWAP3 MLOAD PUSH3 0x461BCD PUSH1 0xE5 SHL DUP2 MSTORE SWAP2 DUP3 ADD MSTORE PUSH1 0xC PUSH1 0x24 DUP3 ADD MSTORE PUSH12 0x14DD1A5B1B081B1BD8DAD959 PUSH1 0xA2 SHL PUSH1 0x44 DUP3 ADD MSTORE PUSH1 0x64 SWAP2 POP REVERT JUMPDEST POP POP SWAP3 MLOAD PUSH3 0x461BCD PUSH1 0xE5 SHL DUP2 MSTORE SWAP2 DUP3 ADD MSTORE PUSH1 0x11 PUSH1 0x24 DUP3 ADD MSTORE PUSH17 0x20B63932B0B23C903BB4BA34323930BBB7 PUSH1 0x79 SHL PUSH1 0x44 DUP3 ADD MSTORE PUSH1 0x64 SWAP2 POP REVERT JUMPDEST POP PUSH1 0x64 SWAP3 MLOAD SWAP2 PUSH3 0x461BCD PUSH1 0xE5 SHL DUP4 MSTORE DUP3 ADD MSTORE PUSH1 0xD PUSH1 0x24 DUP3 ADD MSTORE PUSH13 0x92DCECC2D8D2C840D2DCC8CAF PUSH1 0x9B SHL PUSH1 0x44 DUP3 ADD MSTORE REVERT JUMPDEST POP SWAP1 CALLVALUE PUSH2 0x236 JUMPI PUSH1 0x60 CALLDATASIZE PUSH1 0x3 NOT ADD SLT PUSH2 0x236 JUMPI PUSH2 0x1222 PUSH2 0x150B JUMP JUMPDEST SWAP1 PUSH1 0x44 CALLDATALOAD PUSH8 0xFFFFFFFFFFFFFFFF DUP2 GT PUSH2 0xBF0 JUMPI PUSH2 0x1242 SWAP1 CALLDATASIZE SWAP1 DUP7 ADD PUSH2 0x1526 JUMP JUMPDEST SWAP5 SWAP1 CALLER DUP6 MSTORE PUSH1 0x20 SWAP3 PUSH1 0x5 DUP5 MSTORE PUSH1 0xFF SWAP5 PUSH2 0x125F DUP7 DUP4 DUP10 KECCAK256 SLOAD AND PUSH2 0x1809 JUMP JUMPDEST PUSH1 0x1 DUP1 PUSH1 0xA0 SHL SUB SWAP6 DUP7 DUP3 AND SWAP7 DUP8 DUP10 MSTORE PUSH1 0x3 SWAP6 DUP7 DUP9 MSTORE PUSH2 0x1285 DUP4 PUSH1 0x5 DUP8 DUP14 KECCAK256 ADD SLOAD AND PUSH2 0x175C JUMP JUMPDEST DUP9 DUP11 MSTORE DUP7 DUP9 MSTORE DUP7 DUP6 DUP12 KECCAK256 ADD PUSH2 0x129A DUP2 SLOAD PUSH2 0x1716 JUMP JUMPDEST SWAP1 SSTORE DUP9 DUP11 MSTORE DUP7 DUP9 MSTORE PUSH2 0x2710 PUSH2 0x12C6 DUP7 DUP13 KECCAK256 TIMESTAMP DUP5 DUP3 ADD SSTORE SLOAD PUSH2 0x12C1 PUSH1 0x24 CALLDATALOAD SWAP2 PUSH1 0x7 SLOAD SWAP1 PUSH2 0x1846 JUMP JUMPDEST PUSH2 0x1846 JUMP JUMPDEST DIV SWAP7 DUP8 ISZERO ISZERO DUP1 PUSH2 0x14F9 JUMPI JUMPDEST PUSH2 0x131F JUMPI JUMPDEST POP POP POP POP SWAP7 PUSH2 0xE89 SWAP3 SWAP2 PUSH2 0x130C PUSH32 0xF90D547AF41B84AE5DB3DC86FAC677444898B3350B3E9CCCD482DEA1274BFC95 SWAP8 SWAP9 SWAP10 PUSH2 0x19FA JUMP JUMPDEST DUP1 DUP1 MLOAD SWAP7 DUP8 SWAP7 DUP8 MSTORE DUP7 ADD MSTORE DUP5 ADD SWAP2 PUSH2 0x173B JUMP JUMPDEST SWAP4 SWAP7 SWAP2 SWAP10 SWAP5 SWAP6 SWAP1 SWAP8 SWAP3 SWAP11 DUP3 SWAP8 DUP11 DUP8 MSTORE DUP10 DUP6 MSTORE DUP8 DUP8 KECCAK256 SWAP10 DUP8 JUMPDEST DUP12 SLOAD DUP2 LT DUP1 PUSH2 0x14F0 JUMPI JUMPDEST ISZERO PUSH2 0x1407 JUMPI DUP12 DUP16 DUP15 SWAP1 DUP11 PUSH2 0x1355 DUP6 DUP6 PUSH2 0x1594 JUMP JUMPDEST POP ADD SLOAD AND ISZERO DUP1 PUSH2 0x13F3 JUMPI JUMPDEST PUSH2 0x1375 JUMPI JUMPDEST POP POP PUSH2 0x1370 SWAP1 PUSH2 0x1716 JUMP JUMPDEST PUSH2 0x1337 JUMP JUMPDEST SWAP1 DUP3 SWAP13 PUSH2 0x13E2 SWAP3 PUSH2 0x13AB DUP6 DUP15 PUSH2 0x138E PUSH2 0x1370 SWAP9 DUP8 PUSH2 0x1594 JUMP JUMPDEST POP SLOAD DUP6 GT ISZERO SWAP1 POP PUSH2 0x13EC JUMPI PUSH2 0x13A3 DUP2 DUP7 PUSH2 0x1594 JUMP JUMPDEST POP SLOAD SWAP5 PUSH2 0x1594 JUMP JUMPDEST POP PUSH2 0x13B7 DUP5 DUP3 SLOAD PUSH2 0x17FC JUMP JUMPDEST SWAP1 SSTORE DUP13 MSTORE DUP11 DUP11 MSTORE DUP13 DUP13 KECCAK256 PUSH2 0x13CC DUP4 DUP3 SLOAD PUSH2 0x17FC JUMP JUMPDEST SWAP1 SSTORE PUSH1 0xD PUSH2 0x13DB DUP4 DUP3 SLOAD PUSH2 0x17FC JUMP JUMPDEST SWAP1 SSTORE PUSH2 0x17FC JUMP JUMPDEST SWAP11 SWAP1 POP DUP12 DUP14 PUSH2 0x1365 JUMP JUMPDEST DUP4 SWAP5 PUSH2 0x1594 JUMP JUMPDEST POP PUSH2 0x13FE DUP4 DUP4 PUSH2 0x1594 JUMP JUMPDEST POP SLOAD ISZERO ISZERO PUSH2 0x1360 JUMP JUMPDEST POP SWAP5 SWAP11 SWAP12 SWAP1 SWAP6 POP DUP11 SWAP3 SWAP9 SWAP2 SWAP8 SWAP7 SWAP13 POP PUSH2 0x1467 SWAP4 SWAP10 POP PUSH2 0x1430 DUP2 PUSH1 0x1 SLOAD AND SWAP2 PUSH1 0x2 SLOAD AND SWAP3 DUP12 PUSH2 0x17FC JUMP JUMPDEST DUP8 MLOAD PUSH4 0xA9059CBB PUSH1 0xE0 SHL DUP2 MSTORE PUSH1 0x1 PUSH1 0x1 PUSH1 0xA0 SHL SUB SWAP1 SWAP4 AND DUP7 DUP5 ADD SWAP1 DUP2 MSTORE PUSH1 0x20 DUP2 ADD SWAP2 SWAP1 SWAP2 MSTORE SWAP2 SWAP4 DUP5 SWAP3 DUP4 SWAP2 DUP16 SWAP2 DUP4 SWAP2 PUSH1 0x40 SWAP1 SWAP2 ADD SWAP1 JUMP JUMPDEST SUB SWAP3 GAS CALL SWAP1 DUP2 ISZERO PUSH2 0x14E6 JUMPI DUP11 SWAP2 PUSH2 0x14C9 JUMPI JUMPDEST POP ISZERO PUSH2 0x148E JUMPI DUP1 DUP1 DUP1 SWAP11 SWAP10 SWAP9 SWAP8 SWAP7 SWAP6 SWAP11 PUSH2 0x12D6 JUMP JUMPDEST DUP3 MLOAD PUSH3 0x461BCD PUSH1 0xE5 SHL DUP2 MSTORE SWAP1 DUP2 ADD DUP8 SWAP1 MSTORE PUSH1 0x15 PUSH1 0x24 DUP3 ADD MSTORE PUSH21 0x14DB185CDA081D1C985B9CD9995C8819985A5B1959 PUSH1 0x5A SHL PUSH1 0x44 DUP3 ADD MSTORE PUSH1 0x64 SWAP1 REVERT JUMPDEST PUSH2 0x14E0 SWAP2 POP DUP9 RETURNDATASIZE DUP11 GT PUSH2 0x68B JUMPI PUSH2 0x67D DUP2 DUP4 PUSH2 0x164E JUMP JUMPDEST CODESIZE PUSH2 0x1479 JUMP JUMPDEST DUP5 MLOAD RETURNDATASIZE DUP13 DUP3 RETURNDATACOPY RETURNDATASIZE SWAP1 REVERT JUMPDEST POP DUP11 ISZERO ISZERO PUSH2 0x1341 JUMP JUMPDEST POP DUP10 DUP12 MSTORE DUP1 DUP10 MSTORE DUP6 DUP12 KECCAK256 SLOAD ISZERO ISZERO PUSH2 0x12D1 JUMP JUMPDEST PUSH1 0x4 CALLDATALOAD SWAP1 PUSH1 0x1 PUSH1 0x1 PUSH1 0xA0 SHL SUB DUP3 AND DUP3 SUB PUSH2 0x1521 JUMPI JUMP JUMPDEST PUSH1 0x0 DUP1 REVERT JUMPDEST SWAP2 DUP2 PUSH1 0x1F DUP5 ADD SLT ISZERO PUSH2 0x1521 JUMPI DUP3 CALLDATALOAD SWAP2 PUSH8 0xFFFFFFFFFFFFFFFF DUP4 GT PUSH2 0x1521 JUMPI PUSH1 0x20 DUP4 DUP2 DUP7 ADD SWAP6 ADD ADD GT PUSH2 0x1521 JUMPI JUMP JUMPDEST SWAP2 SWAP1 DUP3 MLOAD SWAP3 DUP4 DUP3 MSTORE PUSH1 0x0 JUMPDEST DUP5 DUP2 LT PUSH2 0x1580 JUMPI POP POP DUP3 PUSH1 0x0 PUSH1 0x20 DUP1 SWAP5 SWAP6 DUP5 ADD ADD MSTORE PUSH1 0x1F DUP1 NOT SWAP2 ADD AND ADD ADD SWAP1 JUMP JUMPDEST PUSH1 0x20 DUP2 DUP4 ADD DUP2 ADD MLOAD DUP5 DUP4 ADD DUP3 ADD MSTORE ADD PUSH2 0x155F JUMP JUMPDEST DUP1 SLOAD DUP3 LT ISZERO PUSH2 0x15B0 JUMPI PUSH1 0x0 MSTORE PUSH1 0x20 PUSH1 0x0 KECCAK256 SWAP1 PUSH1 0x2 SHL ADD SWAP1 PUSH1 0x0 SWAP1 JUMP JUMPDEST PUSH4 0x4E487B71 PUSH1 0xE0 SHL PUSH1 0x0 MSTORE PUSH1 0x32 PUSH1 0x4 MSTORE PUSH1 0x24 PUSH1 0x0 REVERT JUMPDEST SWAP1 PUSH1 0x1 DUP3 DUP2 SHR SWAP3 AND DUP1 ISZERO PUSH2 0x15F6 JUMPI JUMPDEST PUSH1 0x20 DUP4 LT EQ PUSH2 0x15E0 JUMPI JUMP JUMPDEST PUSH4 0x4E487B71 PUSH1 0xE0 SHL PUSH1 0x0 MSTORE PUSH1 0x22 PUSH1 0x4 MSTORE PUSH1 0x24 PUSH1 0x0 REVERT JUMPDEST SWAP2 PUSH1 0x7F AND SWAP2 PUSH2 0x15D5 JUMP JUMPDEST PUSH1 0xE0 DUP2 ADD SWAP1 DUP2 LT PUSH8 0xFFFFFFFFFFFFFFFF DUP3 GT OR PUSH2 0x161C JUMPI PUSH1 0x40 MSTORE JUMP JUMPDEST PUSH4 0x4E487B71 PUSH1 0xE0 SHL PUSH1 0x0 MSTORE PUSH1 0x41 PUSH1 0x4 MSTORE PUSH1 0x24 PUSH1 0x0 REVERT JUMPDEST PUSH1 0x80 DUP2 ADD SWAP1 DUP2 LT PUSH8 0xFFFFFFFFFFFFFFFF DUP3 GT OR PUSH2 0x161C JUMPI PUSH1 0x40 MSTORE JUMP JUMPDEST SWAP1 PUSH1 0x1F DUP1 NOT SWAP2 ADD AND DUP2 ADD SWAP1 DUP2 LT PUSH8 0xFFFFFFFFFFFFFFFF DUP3 GT OR PUSH2 0x161C JUMPI PUSH1 0x40 MSTORE JUMP JUMPDEST SWAP1 PUSH1 0x40 MLOAD SWAP2 DUP3 PUSH1 0x0 DUP3 SLOAD SWAP3 PUSH2 0x1684 DUP5 PUSH2 0x15C6 JUMP JUMPDEST SWAP1 DUP2 DUP5 MSTORE PUSH1 0x1 SWAP5 DUP6 DUP2 AND SWAP1 DUP2 PUSH1 0x0 EQ PUSH2 0x16F3 JUMPI POP PUSH1 0x1 EQ PUSH2 0x16B0 JUMPI JUMPDEST POP POP PUSH2 0x16AE SWAP3 POP SUB DUP4 PUSH2 0x164E JUMP JUMPDEST JUMP JUMPDEST SWAP1 SWAP4 SWAP2 POP PUSH1 0x0 MSTORE PUSH1 0x20 SWAP1 DUP2 PUSH1 0x0 KECCAK256 SWAP4 PUSH1 0x0 SWAP2 JUMPDEST DUP2 DUP4 LT PUSH2 0x16DB JUMPI POP POP PUSH2 0x16AE SWAP4 POP DUP3 ADD ADD CODESIZE DUP1 PUSH2 0x16A0 JUMP JUMPDEST DUP6 SLOAD DUP9 DUP5 ADD DUP6 ADD MSTORE SWAP5 DUP6 ADD SWAP5 DUP8 SWAP5 POP SWAP2 DUP4 ADD SWAP2 PUSH2 0x16C3 JUMP JUMPDEST SWAP2 POP POP PUSH2 0x16AE SWAP5 POP PUSH1 0x20 SWAP3 POP PUSH1 0xFF NOT AND DUP3 DUP5 ADD MSTORE ISZERO ISZERO PUSH1 0x5 SHL DUP3 ADD ADD CODESIZE DUP1 PUSH2 0x16A0 JUMP JUMPDEST PUSH1 0x0 NOT DUP2 EQ PUSH2 0x1725 JUMPI PUSH1 0x1 ADD SWAP1 JUMP JUMPDEST PUSH4 0x4E487B71 PUSH1 0xE0 SHL PUSH1 0x0 MSTORE PUSH1 0x11 PUSH1 0x4 MSTORE PUSH1 0x24 PUSH1 0x0 REVERT JUMPDEST SWAP1 DUP1 PUSH1 0x20 SWAP4 SWAP3 DUP2 DUP5 MSTORE DUP5 DUP5 ADD CALLDATACOPY PUSH1 0x0 DUP3 DUP3 ADD DUP5 ADD MSTORE PUSH1 0x1F ADD PUSH1 0x1F NOT AND ADD ADD SWAP1 JUMP JUMPDEST ISZERO PUSH2 0x1763 JUMPI JUMP JUMPDEST PUSH1 0x40 MLOAD PUSH3 0x461BCD PUSH1 0xE5 SHL DUP2 MSTORE PUSH1 0x20 PUSH1 0x4 DUP3 ADD MSTORE PUSH1 0xE PUSH1 0x24 DUP3 ADD MSTORE PUSH14 0x139BDD081C9959DA5CDD195C9959 PUSH1 0x92 SHL PUSH1 0x44 DUP3 ADD MSTORE PUSH1 0x64 SWAP1 REVERT JUMPDEST SWAP1 DUP2 PUSH1 0x20 SWAP2 SUB SLT PUSH2 0x1521 JUMPI MLOAD DUP1 ISZERO ISZERO DUP2 SUB PUSH2 0x1521 JUMPI SWAP1 JUMP JUMPDEST ISZERO PUSH2 0x17B8 JUMPI JUMP JUMPDEST PUSH1 0x40 MLOAD PUSH3 0x461BCD PUSH1 0xE5 SHL DUP2 MSTORE PUSH1 0x20 PUSH1 0x4 DUP3 ADD MSTORE PUSH1 0xF PUSH1 0x24 DUP3 ADD MSTORE PUSH15 0x151C985B9CD9995C8819985A5B1959 PUSH1 0x8A SHL PUSH1 0x44 DUP3 ADD MSTORE PUSH1 0x64 SWAP1 REVERT JUMPDEST SWAP2 SWAP1 DUP3 ADD DUP1 SWAP3 GT PUSH2 0x1725 JUMPI JUMP JUMPDEST SWAP2 SWAP1 DUP3 SUB SWAP2 DUP3 GT PUSH2 0x1725 JUMPI JUMP JUMPDEST ISZERO PUSH2 0x1810 JUMPI JUMP JUMPDEST PUSH1 0x40 MLOAD PUSH3 0x461BCD PUSH1 0xE5 SHL DUP2 MSTORE PUSH1 0x20 PUSH1 0x4 DUP3 ADD MSTORE PUSH1 0xE PUSH1 0x24 DUP3 ADD MSTORE PUSH14 0x139BDD08185D5D1A1BDC9A5E9959 PUSH1 0x92 SHL PUSH1 0x44 DUP3 ADD MSTORE PUSH1 0x64 SWAP1 REVERT JUMPDEST DUP2 DUP2 MUL SWAP3 SWAP2 DUP2 ISZERO SWAP2 DUP5 DIV EQ OR ISZERO PUSH2 0x1725 JUMPI JUMP JUMPDEST DUP2 ISZERO PUSH2 0x1863 JUMPI DIV SWAP1 JUMP JUMPDEST PUSH4 0x4E487B71 PUSH1 0xE0 SHL PUSH1 0x0 MSTORE PUSH1 0x12 PUSH1 0x4 MSTORE PUSH1 0x24 PUSH1 0x0 REVERT JUMPDEST PUSH1 0x1 PUSH1 0x1 PUSH1 0xA0 SHL SUB AND PUSH1 0x0 SWAP1 DUP2 MSTORE PUSH1 0x3 PUSH1 0x20 MSTORE PUSH1 0x40 DUP2 KECCAK256 PUSH1 0x5 DUP2 ADD SLOAD PUSH1 0xFF AND ISZERO PUSH2 0x19F6 JUMPI DUP1 SLOAD DUP1 ISZERO PUSH2 0x19EF JUMPI PUSH2 0x18B5 PUSH2 0x18BE SWAP2 PUSH1 0xA SLOAD SWAP1 PUSH2 0x1846 JUMP JUMPDEST PUSH1 0x6 SLOAD SWAP1 PUSH2 0x1859 JUMP JUMPDEST SWAP2 JUMPDEST PUSH2 0x190 DUP1 DUP5 GT PUSH2 0x19E7 JUMPI JUMPDEST POP PUSH1 0x2 DUP3 ADD SLOAD SWAP2 PUSH2 0x18E0 PUSH1 0x3 DUP3 ADD SLOAD DUP5 PUSH2 0x17EF JUMP JUMPDEST DUP3 SWAP4 DUP2 PUSH2 0x1984 JUMPI JUMPDEST POP POP PUSH2 0x18FC PUSH1 0x4 PUSH3 0x15180 SWAP3 ADD SLOAD TIMESTAMP PUSH2 0x17FC JUMP JUMPDEST DIV PUSH1 0x1E DUP2 LT ISZERO PUSH2 0x1974 JUMPI PUSH1 0x1E SUB PUSH1 0x1E DUP2 GT PUSH2 0x1960 JUMPI PUSH1 0xC SLOAD PUSH2 0x191D SWAP2 PUSH2 0x1846 JUMP JUMPDEST SWAP1 PUSH1 0xA DUP3 MUL SWAP2 DUP1 DUP4 DIV PUSH1 0xA EQ SWAP1 ISZERO OR ISZERO PUSH2 0x194C JUMPI POP PUSH2 0x1949 SWAP3 SWAP2 PUSH1 0x1E PUSH2 0x1944 SWAP3 DIV SWAP3 PUSH2 0x17EF JUMP JUMPDEST PUSH2 0x17EF JUMP JUMPDEST SWAP1 JUMP JUMPDEST PUSH4 0x4E487B71 PUSH1 0xE0 SHL DUP2 MSTORE PUSH1 0x11 PUSH1 0x4 MSTORE PUSH1 0x24 SWAP1 REVERT JUMPDEST PUSH4 0x4E487B71 PUSH1 0xE0 SHL DUP3 MSTORE PUSH1 0x11 PUSH1 0x4 MSTORE PUSH1 0x24 DUP3 REVERT JUMPDEST POP PUSH2 0x1949 SWAP3 SWAP2 PUSH2 0x1944 SWAP2 SWAP3 PUSH2 0x17EF JUMP JUMPDEST SWAP1 SWAP2 SWAP4 POP PUSH1 0x64 DUP2 MUL SWAP1 DUP1 DUP3 DIV PUSH1 0x64 EQ SWAP1 ISZERO OR ISZERO PUSH2 0x19D3 JUMPI PUSH2 0x19B1 SWAP2 PUSH2 0x19A8 SWAP2 PUSH2 0x1859 JUMP JUMPDEST PUSH1 0xB SLOAD SWAP1 PUSH2 0x1846 JUMP JUMPDEST PUSH1 0xA DUP2 MUL SWAP1 DUP1 DUP3 DIV PUSH1 0xA EQ SWAP1 ISZERO OR ISZERO PUSH2 0x1960 JUMPI PUSH1 0x64 SWAP1 DIV SWAP2 PUSH2 0x18FC PUSH1 0x4 PUSH2 0x18E8 JUMP JUMPDEST PUSH4 0x4E487B71 PUSH1 0xE0 SHL DUP4 MSTORE PUSH1 0x11 PUSH1 0x4 MSTORE PUSH1 0x24 DUP4 REVERT JUMPDEST SWAP3 POP CODESIZE PUSH2 0x18CB JUMP JUMPDEST POP DUP2 PUSH2 0x18C0 JUMP JUMPDEST POP SWAP1 JUMP JUMPDEST PUSH32 0xFC577563F1B9A0461E24ABEF1E1FCC0D33D3D881F20B5DF6DDA59DE4AAE2C821 PUSH1 0x20 PUSH2 0x1A26 DUP4 PUSH2 0x1879 JUMP JUMPDEST SWAP3 PUSH1 0x1 DUP1 PUSH1 0xA0 SHL SUB AND SWAP3 DUP4 PUSH1 0x0 MSTORE PUSH1 0x3 DUP3 MSTORE DUP1 PUSH1 0x1 PUSH1 0x40 PUSH1 0x0 KECCAK256 ADD SSTORE PUSH1 0x40 MLOAD SWAP1 DUP2 MSTORE LOG2 JUMP INVALID LOG2 PUSH5 0x6970667358 0x22 SLT KECCAK256 0xEB SWAP9 0xEF AND OR PUSH27 0x662C19EB9EDA3EB464A9FBB600C76CF83CCF6DEDA51D080C933564 PUSH20 0x6F6C634300081400330000000000000000000000 "},"methodIdentifiers":{"activityWeight()":"b0c87df2","addSlasher(address)":"68a9f19c","agentStakes(address,uint256)":"b2ab2782","agents(address)":"fd66091e","authorizedSlashers(address)":"aed2d908","calculateReputation(address)":"27c06fd5","feeRecipient()":"46904840","getAgentProfile(address)":"78dc93a4","getStake(address,uint256)":"cfd47663","getStakeCount(address)":"cf57ee69","historyWeight()":"be3ac6a7","isRegistered(address)":"c3c5a547","lockPeriod()":"3fd8b02f","minimumStake()":"ec5ffac2","pause()":"8456cb59","paused()":"5c975abb","pauser()":"9fd0506d","protocolFeeBps()":"35659fb8","recordBreach(address,uint256,string)":"209ffa18","recordSuccess(address)":"42341287","registerAgent(string)":"2d2a9585","removeSlasher(address)":"aac6aa9c","setParameters(uint256,uint256,uint256)":"34c5d2ce","slashingPercentage()":"69666a49","stake(uint256)":"a694fc3a","stakeToken()":"51ed6a30","stakeWeight()":"267b1167","totalAgents()":"c5053712","totalStaked()":"817b1cd2","transferPauser(address)":"4421ea21","unpause()":"3f4ba83a","withdrawStake(uint256)":"25d5971f"}}}}}