{"contracts/CovenantFactory.sol":{"CovenantFactory":{"abi":[{"inputs":[{"internalType":"address","name":"_feeRecipient","type":"address"}],"stateMutability":"nonpayable","type":"constructor"},{"inputs":[],"name":"ContractNotPaused","type":"error"},{"inputs":[],"name":"ContractPaused","type":"error"},{"inputs":[],"name":"CovenantAlreadyExists","type":"error"},{"inputs":[],"name":"InsufficientStake","type":"error"},{"inputs":[],"name":"InvalidAgentAddress","type":"error"},{"inputs":[],"name":"NotPauser","type":"error"},{"inputs":[],"name":"ReentrancyGuardReentrantCall","type":"error"},{"inputs":[],"name":"Unauthorized","type":"error"},{"anonymous":false,"inputs":[{"indexed":true,"internalType":"address","name":"covenantAddress","type":"address"},{"indexed":true,"internalType":"address","name":"initiator","type":"address"},{"indexed":true,"internalType":"address","name":"counterparty","type":"address"},{"indexed":false,"internalType":"bytes32","name":"covenantType","type":"bytes32"},{"indexed":false,"internalType":"uint256","name":"stakeAmount","type":"uint256"},{"indexed":false,"internalType":"uint256","name":"timestamp","type":"uint256"}],"name":"CovenantCreated","type":"event"},{"anonymous":false,"inputs":[{"indexed":true,"internalType":"address","name":"oldRecipient","type":"address"},{"indexed":true,"internalType":"address","name":"newRecipient","type":"address"}],"name":"FeeRecipientUpdated","type":"event"},{"anonymous":false,"inputs":[{"indexed":false,"internalType":"uint256","name":"oldStake","type":"uint256"},{"indexed":false,"internalType":"uint256","name":"newStake","type":"uint256"}],"name":"MinimumStakeUpdated","type":"event"},{"anonymous":false,"inputs":[{"indexed":false,"internalType":"address","name":"account","type":"address"}],"name":"Paused","type":"event"},{"anonymous":false,"inputs":[{"indexed":true,"internalType":"address","name":"previousPauser","type":"address"},{"indexed":true,"internalType":"address","name":"newPauser","type":"address"}],"name":"PauserTransferred","type":"event"},{"anonymous":false,"inputs":[{"indexed":false,"internalType":"uint256","name":"oldFee","type":"uint256"},{"indexed":false,"internalType":"uint256","name":"newFee","type":"uint256"}],"name":"ProtocolFeeUpdated","type":"event"},{"anonymous":false,"inputs":[{"indexed":false,"internalType":"address","name":"account","type":"address"}],"name":"Unpaused","type":"event"},{"inputs":[{"internalType":"bytes32","name":"","type":"bytes32"}],"name":"agentPairToCovenant","outputs":[{"internalType":"address","name":"","type":"address"}],"stateMutability":"view","type":"function"},{"inputs":[{"internalType":"address","name":"","type":"address"}],"name":"covenantCreationTime","outputs":[{"internalType":"uint256","name":"","type":"uint256"}],"stateMutability":"view","type":"function"},{"inputs":[{"internalType":"address","name":"_agent1","type":"address"},{"internalType":"address","name":"_agent2","type":"address"}],"name":"covenantExists","outputs":[{"internalType":"bool","name":"","type":"bool"}],"stateMutability":"view","type":"function"},{"inputs":[{"internalType":"uint256","name":"","type":"uint256"}],"name":"covenants","outputs":[{"internalType":"address","name":"","type":"address"}],"stateMutability":"view","type":"function"},{"inputs":[{"internalType":"address","name":"_counterparty","type":"address"},{"internalType":"bytes32","name":"_covenantType","type":"bytes32"},{"internalType":"string","name":"_termsIPFSHash","type":"string"},{"internalType":"uint256","name":"_duration","type":"uint256"}],"name":"createCovenant","outputs":[{"internalType":"address","name":"covenantAddress","type":"address"}],"stateMutability":"payable","type":"function"},{"inputs":[],"name":"feeRecipient","outputs":[{"internalType":"address","name":"","type":"address"}],"stateMutability":"view","type":"function"},{"inputs":[],"name":"getCovenantCount","outputs":[{"internalType":"uint256","name":"","type":"uint256"}],"stateMutability":"view","type":"function"},{"inputs":[{"internalType":"uint256","name":"_offset","type":"uint256"},{"internalType":"uint256","name":"_limit","type":"uint256"}],"name":"getCovenants","outputs":[{"internalType":"address[]","name":"","type":"address[]"}],"stateMutability":"view","type":"function"},{"inputs":[],"name":"minimumStake","outputs":[{"internalType":"uint256","name":"","type":"uint256"}],"stateMutability":"view","type":"function"},{"inputs":[],"name":"owner","outputs":[{"internalType":"address","name":"","type":"address"}],"stateMutability":"view","type":"function"},{"inputs":[],"name":"pause","outputs":[],"stateMutability":"nonpayable","type":"function"},{"inputs":[],"name":"paused","outputs":[{"internalType":"bool","name":"","type":"bool"}],"stateMutability":"view","type":"function"},{"inputs":[],"name":"pauser","outputs":[{"internalType":"address","name":"","type":"address"}],"stateMutability":"view","type":"function"},{"inputs":[],"name":"protocolFeeBps","outputs":[{"internalType":"uint256","name":"","type":"uint256"}],"stateMutability":"view","type":"function"},{"inputs":[{"internalType":"address","name":"_newRecipient","type":"address"}],"name":"setFeeRecipient","outputs":[],"stateMutability":"nonpayable","type":"function"},{"inputs":[{"internalType":"uint256","name":"_newMinimum","type":"uint256"}],"name":"setMinimumStake","outputs":[],"stateMutability":"nonpayable","type":"function"},{"inputs":[{"internalType":"uint256","name":"_newFeeBps","type":"uint256"}],"name":"setProtocolFee","outputs":[],"stateMutability":"nonpayable","type":"function"},{"inputs":[{"internalType":"address","name":"_newOwner","type":"address"}],"name":"transferOwnership","outputs":[],"stateMutability":"nonpayable","type":"function"},{"inputs":[{"internalType":"address","name":"newPauser","type":"address"}],"name":"transferPauser","outputs":[],"stateMutability":"nonpayable","type":"function"},{"inputs":[],"name":"unpause","outputs":[],"stateMutability":"nonpayable","type":"function"}],"evm":{"bytecode":{"linkReferences":{},"object":"6080346100e657601f6131c038819003918201601f19168301916001600160401b038311848410176100eb578084926020946040528339810103126100e657516001600160a01b038116908190036100e65760017f9b779b17422d0df92223018b32b4d1fa46e071723d6817e2486d003becc55f005560008054610100600160a81b0319163360081b610100600160a81b03161790556064600555662386f26fc1000060065580156100d45760018060a01b03193381600754161760075560045416176004556040516130be90816101028239f35b604051635697b36760e01b8152600490fd5b600080fd5b634e487b7160e01b600052604160045260246000fdfe60808060405260043610156200001457600080fd5b60003560e01c908163233e99031462000ca55750806328f4ca311462000c5e57806335659fb81462000c3e5780633ba858591462000b8c5780633f4ba83a1462000b125780634421ea211462000a47578063469048401462000a1c5780635c975abb14620009f75780635d7a9d0714620009c1578063787dce3d14620009225780638456cb5914620008a55780638da5cb5b146200087a57806392d5388e14620004015780639fd0506d14620003d2578063d565d1691462000394578063d9516baa1462000220578063e74b981b14620001ae578063ea50eb03146200018e578063ec5ffac2146200016e5763f2fde38b146200011057600080fd5b346200016957602036600319011262000169576200012d62000d64565b600754906001600160a01b0390818316330362000158576001600160a01b0319909216911617600755005b6040516282b42960e81b8152600490fd5b600080fd5b346200016957600036600319011262000169576020600654604051908152f35b346200016957600036600319011262000169576020600154604051908152f35b34620001695760203660031901126200016957620001cb62000d64565b6007546001600160a01b039190821633036200015857816004549116809282167faaebcf1bfa00580e41d966056b48521fa9f202645c86d4ddf28113e617c1b1d3600080a36001600160a01b03191617600455005b346200016957604036600319011262000169576004356024908135810191828211620003805782600193845480911162000377575b509162000266818495939562000d9e565b926200028f620002768562000dac565b9462000286604051968762000d7b565b80865262000dac565b9460209283860196601f1901368837805b838110620002ef575050505060405192818401908285525180915260408401949160005b828110620002d25785870386f35b83516001600160a01b0316875295810195928101928401620002c4565b620003008198969897959762000d16565b9054906200030f848462000d9e565b918751831015620003625760039190911b1c6001600160a01b031660059190911b860188015260001981146200034d578701969496959395620002a0565b82634e487b7160e01b60005260116004526000fd5b85634e487b7160e01b60005260326004526000fd5b90508462000255565b634e487b7160e01b60009081526011600452fd5b346200016957602036600319011262000169576001600160a01b03620003b962000d64565b1660005260026020526020604060002054604051908152f35b3462000169576000366003190112620001695760005460405160089190911c6001600160a01b03168152602090f35b608036600319011262000169576200041862000d64565b67ffffffffffffffff90816044351162000169573660236044350112156200016957816044356004013511620001695736602460443560040135604435010111620001695760ff60005416620008685760027f9b779b17422d0df92223018b32b4d1fa46e071723d6817e2486d003becc55f005414620008565760027f9b779b17422d0df92223018b32b4d1fa46e071723d6817e2486d003becc55f00556001600160a01b03811615801562000843575b620008315760065434106200081f576001600160a01b03811633108015620008175733905b1562000808576200052c6200053b835b604051928391602083019586906028926001600160601b0319809260601b16835260601b1660148201520190565b03601f19810183528262000d7b565b5190206000818152600360205260409020549092906001600160a01b0316620007f657600554803402903482041434151715620007e057612710900490600080808062000589863462000d9e565b6004549096906001600160a01b03165af13d15620007da573d8281116200077d5760405190620005c4601f8201601f19166020018362000d7b565b8152600060203d92013e5b156200079f5760018060a01b036004541660055460405192836122c3810110906122c3850111176200077d576122c362000dc68439336122c384019081526001600160a01b03861660208201526024803560408301526101006060830181905260443560048101359184018290526101209593919201908501376000604435600401356122c38601818101860192909252606435608083015260a0820187905260c082019290925260e0810192909252601f01601f191601829003019082f08015620007935760018060a01b03169160015493680100000000000000008510156200077d57620006c88560016020970160015562000d16565b81549060031b9086821b9160018060a01b03901b1916179055836000526002855242604060002055600052600384526040600020836001600160601b0360a01b8254161790556040519160243583528483015242604083015260018060a01b031690827f3eb472a527e15c935ab5f5304eb8a07041c95959ead93c387cfff282331ca09d60603393a460017f9b779b17422d0df92223018b32b4d1fa46e071723d6817e2486d003becc55f0055604051908152f35b634e487b7160e01b600052604160045260246000fd5b6040513d6000823e3d90fd5b60405162461bcd60e51b8152602060048201526013602482015272119959481d1c985b9cd9995c8819985a5b1959606a1b6044820152606490fd5b620005cf565b634e487b7160e01b600052601160045260246000fd5b6040516303f9bd7560e11b8152600490fd5b6200052c6200053b33620004fe565b8190620004ee565b6040516378de4a6960e11b8152600490fd5b604051635697b36760e01b8152600490fd5b506001600160a01b0381163314620004c9565b604051633ee5aeb560e01b8152600490fd5b60405163ab35696f60e01b8152600490fd5b346200016957600036600319011262000169576007546040516001600160a01b039091168152602090f35b34620001695760003660031901126200016957600054600881901c6001600160a01b03163303620009105760ff8116620008685760019060ff1916176000557f62e78cea01bee320cd4e420270b5ea74000d11b0c9f74754ebdbfc544b05a2586020604051338152a1005b60405163492f678160e01b8152600490fd5b34620001695760203660031901126200016957600754600435906001600160a01b0316330362000158576103e881116200098d577fb404cac19fb1cbeff98d325795b08886e3cd8fe8cb1a2f193aac66f13fb239c360406005548151908152836020820152a1600555005b60405162461bcd60e51b815260206004820152600c60248201526b08ccaca40e8dede40d0d2ced60a31b6044820152606490fd5b346200016957602036600319011262000169576004356000526003602052602060018060a01b0360406000205416604051908152f35b34620001695760003660031901126200016957602060ff600054166040519015158152f35b346200016957600036600319011262000169576004546040516001600160a01b039091168152602090f35b3462000169576020366003190112620001695762000a6462000d64565b6000546001600160a01b03600882901c81169190338390036200091057831692831562000ad457610100600160a81b031990911660089190911b610100600160a81b03161760009081557f51c4874e0f23f262e04a38c51751336dde72126d67f53eb672aaff02996b3ef69080a3005b60405162461bcd60e51b8152602060048201526016602482015275496e76616c696420706175736572206164647265737360501b6044820152606490fd5b34620001695760003660031901126200016957600054600881901c6001600160a01b03163303620009105760ff81161562000b7a5760ff19166000557f5db9ee0a495bf2e6ff9c91a7834c1ba4fdd244a5e8aa4e537bd38aeae4b073aa6020604051338152a1005b60405163dcdde9dd60e01b8152600490fd5b3462000169576040366003190112620001695762000ba962000d64565b6001600160a01b036024358181169290838103620001695762000c136200052c9160209585851610938460001462000c365780945b1562000c2e57505b6040519283918783019586906028926001600160601b0319809260601b16835260601b1660148201520190565b51902060005260038252604060002054161515604051908152f35b905062000be6565b819462000bde565b346200016957600036600319011262000169576020600554604051908152f35b34620001695760203660031901126200016957600435600154811015620001695762000c8c60209162000d16565b905460405160039290921b1c6001600160a01b03168152f35b3462000169576020366003190112620001695760075460043591906001600160a01b0316330362000d0857507fd67ed534faf3e0dcda08ac6043ec96dcf9b6ebec56055fd14bd0cb40a27c0e4960406006548151908152836020820152a1600655005b6282b42960e81b8152600490fd5b60015481101562000d4e5760016000527fb10e2d527612073b26eecdfd717e6a320cf44b4afac2b0732d9fcbe2b7fa0cf60190600090565b634e487b7160e01b600052603260045260246000fd5b600435906001600160a01b03821682036200016957565b90601f8019910116810190811067ffffffffffffffff8211176200077d57604052565b91908203918211620007e057565b67ffffffffffffffff81116200077d5760051b6020019056fe604060c08152620022c390813803806200001981620003b3565b93843982019161010081840312620003ae576200003681620003d9565b90602062000046818301620003d9565b8483015160608401519193916001600160401b039190828111620003ae57830190601f92898484011215620003ae5782518181116200036d57601f19936200009482870186168901620003b3565b9b828d52888383010111620003ae57879060005b838110620003995750506000918c01015260808501519360a08601519460e0620000d560c08901620003d9565b97015160017f9b779b17422d0df92223018b32b4d1fa46e071723d6817e2486d003becc55f0081905560008054610100600160a81b0319163360081b610100600160a81b031617905560808c905260a09a909a52600a80546001600160a01b0319166001600160a01b03998a16179055600b5534600955429081019490851062000383578a519360a08501858110858211176200036d578c528085528c8986015260808c860195428752606081019788520196875289558b519283116200036d576002548981811c9116801562000362575b898210146200034c5782811162000300575b50879183116001146200029557508190600c98999a9b60009262000289575b5050600019600383901b1c191690881b176002555b51600355516004555160055560ff199485600654166006551660005252826000209182541617905551611ed49081620003ef82396080518181816101cf01528181610656015281816107260152818161085101528181610aeb015281816111580152818161140401526116e4015260a051818181610569015281816106a10152818161096601528181610eb5015281816113a601526114dd0152f35b015190503880620001d8565b82169a6002600052876000209b60005b818110620002ea575091899a9b9c9184600c9b959410620002d0575b505050811b01600255620001ed565b015160001960f88460031b161c19169055388080620002c1565b828401518e559c8a019c928901928901620002a5565b6002600052886000208380860160051c8201928b871062000342575b0160051c01908a905b82811062000335575050620001b9565b60008155018a9062000325565b925081926200031c565b634e487b7160e01b600052602260045260246000fd5b90607f1690620001a7565b634e487b7160e01b600052604160045260246000fd5b634e487b7160e01b600052601160045260246000fd5b818101830151818f01840152899201620000a8565b600080fd5b6040519190601f01601f191682016001600160401b038111838210176200036d57604052565b51906001600160a01b0382168203620003ae5756fe608080604052600436101561002c575b50361561001b57600080fd5b61002734600954611cf9565b600955005b60003560e01c908163200d2ed214611a345750806322f3e2d414611a065780632442e1cb146118f157806335659fb8146118d35780633670a7bd146118955780633f4ba83a1461181f5780634421ea211461175a57806346904840146117315780634a4d41eb146117135780635c39fcc1146116ce5780635c975abb146116ab57806369b4d6fe1461166857806369db0a7e146113ce578063725a3b4b146111045780637bf6c1041461101e5780637d0d50dc14610e905780638456cb5914610e1757806384b62c2814610a9f578063852ea203146109d95780638f4cf247146109bb5780639fd0506d1461098e578063a8d52f7a1461081d578063bdc84ac314610598578063c3df654614610553578063d24126d914610535578063d50256251461042d578063da25de3c1461040f578063e3cfef60146103ec578063e89e4ed61461036c578063ee38db95146101bc5763f5a3f4af1461018e573861000f565b346101b75760003660031901126101b757600e546040516001600160a01b039091168152602090f35b600080fd5b346101b75760003660031901126101b7577f00000000000000000000000000000000000000000000000000000000000000006001600160a01b03811690610204338314611c68565b60ff6006541660078110159081610348576005811491821561035e575b8215610337575b5050801561032c575b156102f1576009549081156102bf5760008080848194826009555af1610255611d74565b50156102885760207feaff4b37086828766ad3268786972c0cd24259d4c87a80f9d3963a3c3d999b0d91604051908152a2005b60405162461bcd60e51b815260206004820152600f60248201526e15da5d1a191c985dc819985a5b1959608a1b6044820152606490fd5b60405162461bcd60e51b815260206004820152600a6024820152694e6f2062616c616e636560b01b6044820152606490fd5b60405162461bcd60e51b815260206004820152601360248201527210d85b9b9bdd081dda5d1a191c985dc81e595d606a1b6044820152606490fd5b506004544211610231565b909150610348576002148380610228565b634e487b7160e01b600052602160045260246000fd5b506006811491506000610221565b346101b75760203660031901126101b7576004356007548110156101b7576103966103c891611be8565b506103a081611b42565b9060018101549060ff600360028301549201549160405195869560a0875260a0870190611a5c565b9360208601528181161515604086015260081c161515606084015260808301520390f35b346101b75760003660031901126101b7576020610407611e1a565b604051908152f35b346101b75760003660031901126101b7576020600954604051908152f35b346101b75760003660031901126101b75760018054604051918260006002549261045684611aca565b8084529381811690811561051357506001146104b4575b5061047a92500383611b20565b600354600454600554906104a0604051958695865260a0602087015260a0860190611a5c565b926040850152606084015260808301520390f35b6002600090815291507f405787fa12a823e0f2b7631cc41b3ba8828b3321ca811111fa75cd3aa3bb5ace5b8483106104f8575061047a93505081016020018561046d565b81935090816020925483858a010152019101909185926104df565b90506020925061047a94915060ff191682840152151560051b8201018561046d565b346101b75760003660031901126101b7576020601054604051908152f35b346101b75760003660031901126101b7576040517f00000000000000000000000000000000000000000000000000000000000000006001600160a01b03168152602090f35b346101b75760403660031901126101b75760043560248035906006549060ff82166007811015610808576003036107d5576105d38385611cf9565b60099283548092116107995760ff1916600417600655600e80546001600160a01b031916331790558480610713575b50508261068c575b50805480610648575b505060405191825260208201527fd45d961e06565b8dd3d1da8aa5d6bdf1ea1253ebf46c31573e5acd0125f2432660403392a2005b6000808080938161068596557f00000000000000000000000000000000000000000000000000000000000000005af161067f611d74565b50611dde565b8280610613565b610697838354611d06565b82556000808080867f00000000000000000000000000000000000000000000000000000000000000005af16106ca611d74565b5061060a5760649060196040519162461bcd60e51b8352602060048401528201527f436f756e7465727061727479206177617264206661696c6564000000000000006044820152fd5b61071c91611d06565b82556000808080877f00000000000000000000000000000000000000000000000000000000000000005af161074f611d74565b501561075c578484610602565b60649060166040519162461bcd60e51b83526020600484015282015275125b9a5d1a585d1bdc88185dd85c990819985a5b195960521b6044820152fd5b60405162461bcd60e51b81526020600482015260158185015274417761726473206578636565642062616c616e636560581b6044820152606490fd5b606490600c6040519162461bcd60e51b8352602060048401528201526b139bdd08191a5cdc1d5d195960a21b6044820152fd5b50634e487b7160e01b60009081526021600452fd5b346101b75760203660031901126101b75760043567ffffffffffffffff81116101b75761084e903690600401611a9c565b907f00000000000000000000000000000000000000000000000000000000000000009061088f6001600160a01b038084163314908115610962575b50611da4565b6006549060ff821660078110156103485760016108ac9114611ca4565b60045442111561092b577f76b5660c2bd01bae8e3db371287bd828ee6a8a490398f7ac405273035e6379739260066109079360ff1916176006556009548061090c575b50506040519182916020835233956020840191611d13565b0390a2005b60008080809361092495826009555af161067f611d74565b84806108ef565b60405162461bcd60e51b815260206004820152600f60248201526e139bdd08195e1c1a5c9959081e595d608a1b6044820152606490fd5b90507f000000000000000000000000000000000000000000000000000000000000000016331485610889565b346101b75760003660031901126101b75760005460405160089190911c6001600160a01b03168152602090f35b346101b75760003660031901126101b7576020600754604051908152f35b346101b75760203660031901126101b75760043560ff600654166007811015610348576001610a089114611ca4565b610a156007548210611d34565b610a1e81611be8565b5060028101805460ff8116610a665760019060ff191617905560034291015533907f032f77b843a5cc848407ffb1e918c51fd6982fbfd1adf0b60f45c6d7bb54068a600080a3005b60405162461bcd60e51b8152602060048201526011602482015270105b1c9958591e4818dbdb5c1b195d1959607a1b6044820152606490fd5b346101b75760403660031901126101b75767ffffffffffffffff6004358181116101b757610ad1903690600401611a9c565b909160ff60005416610e0557610ae5611c38565b610b19337f00000000000000000000000000000000000000000000000000000000000000006001600160a01b031614611c68565b60ff600654166007811015610348576001610b349114611ca4565b60095460243511610dc957604051610b4b81611b04565b610b5483611cdd565b610b616040519182611b20565b83815236848601116101b757838560208301376000602085830101528152602435602082015260006040820152600060608201526000608082015260075468010000000000000000811015610d9d57806001610bc09201600755611be8565b929092610db35781518051918211610d9d57610bdc8454611aca565b601f8111610d59575b50602090601f8311600114610ceb57918060039492608094600092610ce0575b50508160011b9160001990861b1c19161784555b602081015160018501556002840160408201511515815460ff61ff006060860151151560081b1692169061ffff1916171790550151910155610c5f602435600854611cf9565b600855600754600019810192908311610cca577fbf293db00f4de65b181a066ecc2f8bb81fb7174b517fd8085700e259ad00db1b91610cab604051928392604084526040840191611d13565b60243560208301520390a26001600080516020611e7f83398151915255005b634e487b7160e01b600052601160045260246000fd5b015190508880610c05565b908460005260206000209160005b601f1985168110610d415750926003949260019260809583601f19811610610d29575b505050811b018455610c19565b015160001983881b60f8161c19169055888080610d1c565b91926020600181928685015181550194019201610cf9565b846000526020600020601f840160051c810160208510610d96575b601f830160051c82018110610d8a575050610be5565b60008155600101610d74565b5080610d74565b634e487b7160e01b600052604160045260246000fd5b634e487b7160e01b600052600060045260246000fd5b60405162461bcd60e51b8152602060048201526014602482015273496e73756666696369656e742062616c616e636560601b6044820152606490fd5b60405163ab35696f60e01b8152600490fd5b346101b75760003660031901126101b757600054600881901c6001600160a01b03163303610e7e5760ff8116610e055760019060ff1916176000557f62e78cea01bee320cd4e420270b5ea74000d11b0c9f74754ebdbfc544b05a2586020604051338152a1005b60405163492f678160e01b8152600490fd5b346101b75760003660031901126101b75760ff60005416610e0557610eb3611c38565b7f00000000000000000000000000000000000000000000000000000000000000006001600160a01b031633819003610fe65760ff60065416600781101561034857610fb357600454421015610f845780600052600c6020526001604060002060ff1990828282541617905560065416176006557f9f4a87e77dbaf5b55d5e6f62125b58988c5befb44fb876196dd62ffca1362f21600080a27f47c82a599a82344a17a0b9fefda032175048e76d1d1bdf41e8bc686480ff204c600080a16001600080516020611e7f83398151915255005b60405162461bcd60e51b8152602060048201526007602482015266115e1c1a5c995960ca1b6044820152606490fd5b60405162461bcd60e51b815260206004820152600b60248201526a4e6f742070656e64696e6760a81b6044820152606490fd5b60405162461bcd60e51b815260206004820152601060248201526f4e6f7420636f756e746572706172747960801b6044820152606490fd5b346101b75760003660031901126101b7576040516000600f5461104081611aca565b808452906001908181169081156110dd5750600114611082575b61107e8461106a81860382611b20565b604051918291602083526020830190611a5c565b0390f35b600f600090815292507f8d1108e10bcb7c27dddfc02ed9d693a074039d026cf4ea4240b40f7d581ac8025b8284106110c557505050810160200161106a8261105a565b805460208587018101919091529093019281016110ad565b60ff191660208087019190915292151560051b8501909201925061106a915083905061105a565b346101b7576020806003193601126101b75767ffffffffffffffff6004358181116101b757611137903690600401611a9c565b929060ff60005416610e055761114b611c38565b61118760018060a01b03807f00000000000000000000000000000000000000000000000000000000000000001633149081156113a25750611da4565b6006549260ff841693600785101561034857600194858114908115611399575b50156113635760ff19166003176006558411610d9d576111c8600f54611aca565b601f81116112fc575b50600093601f811160011461125b57807f28b099eb575e23e32becd7c30dc8f9b2f98e370cdbf9841ea3338d9000402a25939495600091611250575b50600019600383901b1c191681861b17600f555b4260105561123b6040519283928684523396840191611d13565b0390a2600080516020611e7f83398151915255005b90508201358661120d565b601f19811694600f6000527f8d1108e10bcb7c27dddfc02ed9d693a074039d026cf4ea4240b40f7d581ac8029060005b8781106112e75750827f28b099eb575e23e32becd7c30dc8f9b2f98e370cdbf9841ea3338d9000402a25959697106112cd575b50508481811b01600f55611221565b830135600019600384901b60f8161c1916905585806112be565b8482013583559186019190850190850161128b565b600f6000527f8d1108e10bcb7c27dddfc02ed9d693a074039d026cf4ea4240b40f7d581ac802601f860160051c810191848710611359575b601f0160051c019084905b82811061134d5750506111d1565b6000815501849061133f565b9091508190611334565b60405162461bcd60e51b815260048101859052600e60248201526d43616e6e6f74206469737075746560901b6044820152606490fd5b905015876111a7565b90507f000000000000000000000000000000000000000000000000000000000000000016331486610889565b346101b7576020806003193601126101b7576004359060ff60005416610e05576113f6611c38565b6001600160a01b0361142b337f0000000000000000000000000000000000000000000000000000000000000000831614611c68565b60ff6006541660078110156103485760016114469114611ca4565b6114536007548410611d34565b61145c83611be8565b5060028101805460ff8116156116335760ff8160081c166115ff5761ff00191661010017905560010180546009546114949190611d06565b60095554600b54808202908282041482151715610cca5760008080936114c06127108395048092611d06565b95600a54165af16114cf611d74565b50156115c4576000808080847f00000000000000000000000000000000000000000000000000000000000000005af1611506611d74565b501561158e57907f3af368126e502abc57fe61217a2e2ffc37e0753a9bc218ab9976a49a996e444991604051908152a261153e611e39565b611557575b6001600080516020611e7f83398151915255005b600260ff1960065416176006557fbf1804db3af6b11f9d3cadcf0c65df2bad3a56d93c275062fdc655bedf351f77600080a1611543565b60405162461bcd60e51b815260048101839052600e60248201526d14185e5b595b9d0819985a5b195960921b6044820152606490fd5b60405162461bcd60e51b8152600481018390526013602482015272119959481d1c985b9cd9995c8819985a5b1959606a1b6044820152606490fd5b60405162461bcd60e51b815260048101869052600c60248201526b105b1c9958591e481c185a5960a21b6044820152606490fd5b60405162461bcd60e51b815260048101869052600d60248201526c139bdd0818dbdb5c1b195d1959609a1b6044820152606490fd5b346101b75760203660031901126101b7576004356001600160a01b038116908190036101b757600052600c602052602060ff604060002054166040519015158152f35b346101b75760003660031901126101b757602060ff600054166040519015158152f35b346101b75760003660031901126101b7576040517f00000000000000000000000000000000000000000000000000000000000000006001600160a01b03168152602090f35b346101b75760003660031901126101b7576020600854604051908152f35b346101b75760003660031901126101b757600a546040516001600160a01b039091168152602090f35b346101b75760203660031901126101b7576001600160a01b03600435818116918282036101b757600054908160081c1691823303610e7e5783156117e157610100600160a81b031990911660089190911b610100600160a81b03161760009081557f51c4874e0f23f262e04a38c51751336dde72126d67f53eb672aaff02996b3ef69080a3005b60405162461bcd60e51b8152602060048201526016602482015275496e76616c696420706175736572206164647265737360501b6044820152606490fd5b346101b75760003660031901126101b757600054600881901c6001600160a01b03163303610e7e5760ff8116156118835760ff19166000557f5db9ee0a495bf2e6ff9c91a7834c1ba4fdd244a5e8aa4e537bd38aeae4b073aa6020604051338152a1005b60405163dcdde9dd60e01b8152600490fd5b346101b75760203660031901126101b7576004356001600160a01b038116908190036101b757600052600d6020526020604060002054604051908152f35b346101b75760003660031901126101b7576020600b54604051908152f35b346101b7576020806003193601126101b757600435906000608060405161191781611b04565b60608152828482015282604082015282606082015201526007548210156119d25761194360a092611be8565b506040519161195183611b04565b61195a82611b42565b83526001820154918184019283526002810154906119b16003604087019260ff85161515845260ff606089019560081c161515855201549360808701948552604051978897828952519188015260c0870190611a5c565b93516040860152511515606085015251151560808401525160a08301520390f35b6064906040519062461bcd60e51b82526004820152600d60248201526c092dcecc2d8d2c840d2dcc8caf609b1b6044820152fd5b346101b75760003660031901126101b75760ff60065416600781101561034857602090600160405191148152f35b346101b75760003660031901126101b75760ff60065416906007821015610348576020918152f35b919082519283825260005b848110611a88575050826000602080949584010152601f8019910116010190565b602081830181015184830182015201611a67565b9181601f840112156101b75782359167ffffffffffffffff83116101b757602083818601950101116101b757565b90600182811c92168015611afa575b6020831014611ae457565b634e487b7160e01b600052602260045260246000fd5b91607f1691611ad9565b60a0810190811067ffffffffffffffff821117610d9d57604052565b90601f8019910116810190811067ffffffffffffffff821117610d9d57604052565b9060405191826000825492611b5684611aca565b908184526001948581169081600014611bc55750600114611b82575b5050611b8092500383611b20565b565b9093915060005260209081600020936000915b818310611bad575050611b8093508201013880611b72565b85548884018501529485019487945091830191611b95565b915050611b8094506020925060ff191682840152151560051b8201013880611b72565b600754811015611c2257600760005260021b7fa66cc928b5edb82af9bd49922954155ab7b0942694bea4ce44661d9a8736c6880190600090565b634e487b7160e01b600052603260045260246000fd5b600080516020611e7f8339815191526002815414611c565760029055565b604051633ee5aeb560e01b8152600490fd5b15611c6f57565b60405162461bcd60e51b815260206004820152600d60248201526c2737ba1034b734ba34b0ba37b960991b6044820152606490fd5b15611cab57565b60405162461bcd60e51b815260206004820152600a6024820152694e6f742061637469766560b01b6044820152606490fd5b67ffffffffffffffff8111610d9d57601f01601f191660200190565b91908201809211610cca57565b91908203918211610cca57565b908060209392818452848401376000828201840152601f01601f1916010190565b15611d3b57565b60405162461bcd60e51b8152602060048201526011602482015270496e76616c6964206d696c6573746f6e6560781b6044820152606490fd5b3d15611d9f573d90611d8582611cdd565b91611d936040519384611b20565b82523d6000602084013e565b606090565b15611dab57565b60405162461bcd60e51b815260206004820152600b60248201526a4e6f74206120706172747960a81b6044820152606490fd5b15611de557565b60405162461bcd60e51b815260206004820152600d60248201526c1499599d5b990819985a5b1959609a1b6044820152606490fd5b60045480421015611e3357611e30904290611d06565b90565b50600090565b60075460005b818110611e4d575050600190565b60ff6002611e5a83611be8565b50015460081c1615611e77576000198114610cca57600101611e3f565b505060009056fe9b779b17422d0df92223018b32b4d1fa46e071723d6817e2486d003becc55f00a2646970667358221220b86077934da44136196b85d13963e1e2ed2fc37eb79873992dbe28a5b7ae0c8264736f6c63430008140033a2646970667358221220a96d7c6e49f9db32ad1518112e0be877f01157eaf45430dafc545ed85de3537d64736f6c63430008140033","opcodes":"PUSH1 0x80 CALLVALUE PUSH2 0xE6 JUMPI PUSH1 0x1F PUSH2 0x31C0 CODESIZE DUP2 SWAP1 SUB SWAP2 DUP3 ADD PUSH1 0x1F NOT AND DUP4 ADD SWAP2 PUSH1 0x1 PUSH1 0x1 PUSH1 0x40 SHL SUB DUP4 GT DUP5 DUP5 LT OR PUSH2 0xEB JUMPI DUP1 DUP5 SWAP3 PUSH1 0x20 SWAP5 PUSH1 0x40 MSTORE DUP4 CODECOPY DUP2 ADD SUB SLT PUSH2 0xE6 JUMPI MLOAD PUSH1 0x1 PUSH1 0x1 PUSH1 0xA0 SHL SUB DUP2 AND SWAP1 DUP2 SWAP1 SUB PUSH2 0xE6 JUMPI PUSH1 0x1 PUSH32 0x9B779B17422D0DF92223018B32B4D1FA46E071723D6817E2486D003BECC55F00 SSTORE PUSH1 0x0 DUP1 SLOAD PUSH2 0x100 PUSH1 0x1 PUSH1 0xA8 SHL SUB NOT AND CALLER PUSH1 0x8 SHL PUSH2 0x100 PUSH1 0x1 PUSH1 0xA8 SHL SUB AND OR SWAP1 SSTORE PUSH1 0x64 PUSH1 0x5 SSTORE PUSH7 0x2386F26FC10000 PUSH1 0x6 SSTORE DUP1 ISZERO PUSH2 0xD4 JUMPI PUSH1 0x1 DUP1 PUSH1 0xA0 SHL SUB NOT CALLER DUP2 PUSH1 0x7 SLOAD AND OR PUSH1 0x7 SSTORE PUSH1 0x4 SLOAD AND OR PUSH1 0x4 SSTORE PUSH1 0x40 MLOAD PUSH2 0x30BE SWAP1 DUP2 PUSH2 0x102 DUP3 CODECOPY RETURN JUMPDEST PUSH1 0x40 MLOAD PUSH4 0x5697B367 PUSH1 0xE0 SHL DUP2 MSTORE PUSH1 0x4 SWAP1 REVERT JUMPDEST PUSH1 0x0 DUP1 REVERT JUMPDEST PUSH4 0x4E487B71 PUSH1 0xE0 SHL PUSH1 0x0 MSTORE PUSH1 0x41 PUSH1 0x4 MSTORE PUSH1 0x24 PUSH1 0x0 REVERT INVALID PUSH1 0x80 DUP1 PUSH1 0x40 MSTORE PUSH1 0x4 CALLDATASIZE LT ISZERO PUSH3 0x14 JUMPI PUSH1 0x0 DUP1 REVERT JUMPDEST PUSH1 0x0 CALLDATALOAD PUSH1 0xE0 SHR SWAP1 DUP2 PUSH4 0x233E9903 EQ PUSH3 0xCA5 JUMPI POP DUP1 PUSH4 0x28F4CA31 EQ PUSH3 0xC5E JUMPI DUP1 PUSH4 0x35659FB8 EQ PUSH3 0xC3E JUMPI DUP1 PUSH4 0x3BA85859 EQ PUSH3 0xB8C JUMPI DUP1 PUSH4 0x3F4BA83A EQ PUSH3 0xB12 JUMPI DUP1 PUSH4 0x4421EA21 EQ PUSH3 0xA47 JUMPI DUP1 PUSH4 0x46904840 EQ PUSH3 0xA1C JUMPI DUP1 PUSH4 0x5C975ABB EQ PUSH3 0x9F7 JUMPI DUP1 PUSH4 0x5D7A9D07 EQ PUSH3 0x9C1 JUMPI DUP1 PUSH4 0x787DCE3D EQ PUSH3 0x922 JUMPI DUP1 PUSH4 0x8456CB59 EQ PUSH3 0x8A5 JUMPI DUP1 PUSH4 0x8DA5CB5B EQ PUSH3 0x87A JUMPI DUP1 PUSH4 0x92D5388E EQ PUSH3 0x401 JUMPI DUP1 PUSH4 0x9FD0506D EQ PUSH3 0x3D2 JUMPI DUP1 PUSH4 0xD565D169 EQ PUSH3 0x394 JUMPI DUP1 PUSH4 0xD9516BAA EQ PUSH3 0x220 JUMPI DUP1 PUSH4 0xE74B981B EQ PUSH3 0x1AE JUMPI DUP1 PUSH4 0xEA50EB03 EQ PUSH3 0x18E JUMPI DUP1 PUSH4 0xEC5FFAC2 EQ PUSH3 0x16E JUMPI PUSH4 0xF2FDE38B EQ PUSH3 0x110 JUMPI PUSH1 0x0 DUP1 REVERT JUMPDEST CALLVALUE PUSH3 0x169 JUMPI PUSH1 0x20 CALLDATASIZE PUSH1 0x3 NOT ADD SLT PUSH3 0x169 JUMPI PUSH3 0x12D PUSH3 0xD64 JUMP JUMPDEST PUSH1 0x7 SLOAD SWAP1 PUSH1 0x1 PUSH1 0x1 PUSH1 0xA0 SHL SUB SWAP1 DUP2 DUP4 AND CALLER SUB PUSH3 0x158 JUMPI PUSH1 0x1 PUSH1 0x1 PUSH1 0xA0 SHL SUB NOT SWAP1 SWAP3 AND SWAP2 AND OR PUSH1 0x7 SSTORE STOP JUMPDEST PUSH1 0x40 MLOAD PUSH3 0x82B429 PUSH1 0xE8 SHL DUP2 MSTORE PUSH1 0x4 SWAP1 REVERT JUMPDEST PUSH1 0x0 DUP1 REVERT JUMPDEST CALLVALUE PUSH3 0x169 JUMPI PUSH1 0x0 CALLDATASIZE PUSH1 0x3 NOT ADD SLT PUSH3 0x169 JUMPI PUSH1 0x20 PUSH1 0x6 SLOAD PUSH1 0x40 MLOAD SWAP1 DUP2 MSTORE RETURN JUMPDEST CALLVALUE PUSH3 0x169 JUMPI PUSH1 0x0 CALLDATASIZE PUSH1 0x3 NOT ADD SLT PUSH3 0x169 JUMPI PUSH1 0x20 PUSH1 0x1 SLOAD PUSH1 0x40 MLOAD SWAP1 DUP2 MSTORE RETURN JUMPDEST CALLVALUE PUSH3 0x169 JUMPI PUSH1 0x20 CALLDATASIZE PUSH1 0x3 NOT ADD SLT PUSH3 0x169 JUMPI PUSH3 0x1CB PUSH3 0xD64 JUMP JUMPDEST PUSH1 0x7 SLOAD PUSH1 0x1 PUSH1 0x1 PUSH1 0xA0 SHL SUB SWAP2 SWAP1 DUP3 AND CALLER SUB PUSH3 0x158 JUMPI DUP2 PUSH1 0x4 SLOAD SWAP2 AND DUP1 SWAP3 DUP3 AND PUSH32 0xAAEBCF1BFA00580E41D966056B48521FA9F202645C86D4DDF28113E617C1B1D3 PUSH1 0x0 DUP1 LOG3 PUSH1 0x1 PUSH1 0x1 PUSH1 0xA0 SHL SUB NOT AND OR PUSH1 0x4 SSTORE STOP JUMPDEST CALLVALUE PUSH3 0x169 JUMPI PUSH1 0x40 CALLDATASIZE PUSH1 0x3 NOT ADD SLT PUSH3 0x169 JUMPI PUSH1 0x4 CALLDATALOAD PUSH1 0x24 SWAP1 DUP2 CALLDATALOAD DUP2 ADD SWAP2 DUP3 DUP3 GT PUSH3 0x380 JUMPI DUP3 PUSH1 0x1 SWAP4 DUP5 SLOAD DUP1 SWAP2 GT PUSH3 0x377 JUMPI JUMPDEST POP SWAP2 PUSH3 0x266 DUP2 DUP5 SWAP6 SWAP4 SWAP6 PUSH3 0xD9E JUMP JUMPDEST SWAP3 PUSH3 0x28F PUSH3 0x276 DUP6 PUSH3 0xDAC JUMP JUMPDEST SWAP5 PUSH3 0x286 PUSH1 0x40 MLOAD SWAP7 DUP8 PUSH3 0xD7B JUMP JUMPDEST DUP1 DUP7 MSTORE PUSH3 0xDAC JUMP JUMPDEST SWAP5 PUSH1 0x20 SWAP3 DUP4 DUP7 ADD SWAP7 PUSH1 0x1F NOT ADD CALLDATASIZE DUP9 CALLDATACOPY DUP1 JUMPDEST DUP4 DUP2 LT PUSH3 0x2EF JUMPI POP POP POP POP PUSH1 0x40 MLOAD SWAP3 DUP2 DUP5 ADD SWAP1 DUP3 DUP6 MSTORE MLOAD DUP1 SWAP2 MSTORE PUSH1 0x40 DUP5 ADD SWAP5 SWAP2 PUSH1 0x0 JUMPDEST DUP3 DUP2 LT PUSH3 0x2D2 JUMPI DUP6 DUP8 SUB DUP7 RETURN JUMPDEST DUP4 MLOAD PUSH1 0x1 PUSH1 0x1 PUSH1 0xA0 SHL SUB AND DUP8 MSTORE SWAP6 DUP2 ADD SWAP6 SWAP3 DUP2 ADD SWAP3 DUP5 ADD PUSH3 0x2C4 JUMP JUMPDEST PUSH3 0x300 DUP2 SWAP9 SWAP7 SWAP9 SWAP8 SWAP6 SWAP8 PUSH3 0xD16 JUMP JUMPDEST SWAP1 SLOAD SWAP1 PUSH3 0x30F DUP5 DUP5 PUSH3 0xD9E JUMP JUMPDEST SWAP2 DUP8 MLOAD DUP4 LT ISZERO PUSH3 0x362 JUMPI PUSH1 0x3 SWAP2 SWAP1 SWAP2 SHL SHR PUSH1 0x1 PUSH1 0x1 PUSH1 0xA0 SHL SUB AND PUSH1 0x5 SWAP2 SWAP1 SWAP2 SHL DUP7 ADD DUP9 ADD MSTORE PUSH1 0x0 NOT DUP2 EQ PUSH3 0x34D JUMPI DUP8 ADD SWAP7 SWAP5 SWAP7 SWAP6 SWAP4 SWAP6 PUSH3 0x2A0 JUMP JUMPDEST DUP3 PUSH4 0x4E487B71 PUSH1 0xE0 SHL PUSH1 0x0 MSTORE PUSH1 0x11 PUSH1 0x4 MSTORE PUSH1 0x0 REVERT JUMPDEST DUP6 PUSH4 0x4E487B71 PUSH1 0xE0 SHL PUSH1 0x0 MSTORE PUSH1 0x32 PUSH1 0x4 MSTORE PUSH1 0x0 REVERT JUMPDEST SWAP1 POP DUP5 PUSH3 0x255 JUMP JUMPDEST PUSH4 0x4E487B71 PUSH1 0xE0 SHL PUSH1 0x0 SWAP1 DUP2 MSTORE PUSH1 0x11 PUSH1 0x4 MSTORE REVERT JUMPDEST CALLVALUE PUSH3 0x169 JUMPI PUSH1 0x20 CALLDATASIZE PUSH1 0x3 NOT ADD SLT PUSH3 0x169 JUMPI PUSH1 0x1 PUSH1 0x1 PUSH1 0xA0 SHL SUB PUSH3 0x3B9 PUSH3 0xD64 JUMP JUMPDEST AND PUSH1 0x0 MSTORE PUSH1 0x2 PUSH1 0x20 MSTORE PUSH1 0x20 PUSH1 0x40 PUSH1 0x0 KECCAK256 SLOAD PUSH1 0x40 MLOAD SWAP1 DUP2 MSTORE RETURN JUMPDEST CALLVALUE PUSH3 0x169 JUMPI PUSH1 0x0 CALLDATASIZE PUSH1 0x3 NOT ADD SLT PUSH3 0x169 JUMPI PUSH1 0x0 SLOAD PUSH1 0x40 MLOAD PUSH1 0x8 SWAP2 SWAP1 SWAP2 SHR PUSH1 0x1 PUSH1 0x1 PUSH1 0xA0 SHL SUB AND DUP2 MSTORE PUSH1 0x20 SWAP1 RETURN JUMPDEST PUSH1 0x80 CALLDATASIZE PUSH1 0x3 NOT ADD SLT PUSH3 0x169 JUMPI PUSH3 0x418 PUSH3 0xD64 JUMP JUMPDEST PUSH8 0xFFFFFFFFFFFFFFFF SWAP1 DUP2 PUSH1 0x44 CALLDATALOAD GT PUSH3 0x169 JUMPI CALLDATASIZE PUSH1 0x23 PUSH1 0x44 CALLDATALOAD ADD SLT ISZERO PUSH3 0x169 JUMPI DUP2 PUSH1 0x44 CALLDATALOAD PUSH1 0x4 ADD CALLDATALOAD GT PUSH3 0x169 JUMPI CALLDATASIZE PUSH1 0x24 PUSH1 0x44 CALLDATALOAD PUSH1 0x4 ADD CALLDATALOAD PUSH1 0x44 CALLDATALOAD ADD ADD GT PUSH3 0x169 JUMPI PUSH1 0xFF PUSH1 0x0 SLOAD AND PUSH3 0x868 JUMPI PUSH1 0x2 PUSH32 0x9B779B17422D0DF92223018B32B4D1FA46E071723D6817E2486D003BECC55F00 SLOAD EQ PUSH3 0x856 JUMPI PUSH1 0x2 PUSH32 0x9B779B17422D0DF92223018B32B4D1FA46E071723D6817E2486D003BECC55F00 SSTORE PUSH1 0x1 PUSH1 0x1 PUSH1 0xA0 SHL SUB DUP2 AND ISZERO DUP1 ISZERO PUSH3 0x843 JUMPI JUMPDEST PUSH3 0x831 JUMPI PUSH1 0x6 SLOAD CALLVALUE LT PUSH3 0x81F JUMPI PUSH1 0x1 PUSH1 0x1 PUSH1 0xA0 SHL SUB DUP2 AND CALLER LT DUP1 ISZERO PUSH3 0x817 JUMPI CALLER SWAP1 JUMPDEST ISZERO PUSH3 0x808 JUMPI PUSH3 0x52C PUSH3 0x53B DUP4 JUMPDEST PUSH1 0x40 MLOAD SWAP3 DUP4 SWAP2 PUSH1 0x20 DUP4 ADD SWAP6 DUP7 SWAP1 PUSH1 0x28 SWAP3 PUSH1 0x1 PUSH1 0x1 PUSH1 0x60 SHL SUB NOT DUP1 SWAP3 PUSH1 0x60 SHL AND DUP4 MSTORE PUSH1 0x60 SHL AND PUSH1 0x14 DUP3 ADD MSTORE ADD SWAP1 JUMP JUMPDEST SUB PUSH1 0x1F NOT DUP2 ADD DUP4 MSTORE DUP3 PUSH3 0xD7B JUMP JUMPDEST MLOAD SWAP1 KECCAK256 PUSH1 0x0 DUP2 DUP2 MSTORE PUSH1 0x3 PUSH1 0x20 MSTORE PUSH1 0x40 SWAP1 KECCAK256 SLOAD SWAP1 SWAP3 SWAP1 PUSH1 0x1 PUSH1 0x1 PUSH1 0xA0 SHL SUB AND PUSH3 0x7F6 JUMPI PUSH1 0x5 SLOAD DUP1 CALLVALUE MUL SWAP1 CALLVALUE DUP3 DIV EQ CALLVALUE ISZERO OR ISZERO PUSH3 0x7E0 JUMPI PUSH2 0x2710 SWAP1 DIV SWAP1 PUSH1 0x0 DUP1 DUP1 DUP1 PUSH3 0x589 DUP7 CALLVALUE PUSH3 0xD9E JUMP JUMPDEST PUSH1 0x4 SLOAD SWAP1 SWAP7 SWAP1 PUSH1 0x1 PUSH1 0x1 PUSH1 0xA0 SHL SUB AND GAS CALL RETURNDATASIZE ISZERO PUSH3 0x7DA JUMPI RETURNDATASIZE DUP3 DUP2 GT PUSH3 0x77D JUMPI PUSH1 0x40 MLOAD SWAP1 PUSH3 0x5C4 PUSH1 0x1F DUP3 ADD PUSH1 0x1F NOT AND PUSH1 0x20 ADD DUP4 PUSH3 0xD7B JUMP JUMPDEST DUP2 MSTORE PUSH1 0x0 PUSH1 0x20 RETURNDATASIZE SWAP3 ADD RETURNDATACOPY JUMPDEST ISZERO PUSH3 0x79F JUMPI PUSH1 0x1 DUP1 PUSH1 0xA0 SHL SUB PUSH1 0x4 SLOAD AND PUSH1 0x5 SLOAD PUSH1 0x40 MLOAD SWAP3 DUP4 PUSH2 0x22C3 DUP2 ADD LT SWAP1 PUSH2 0x22C3 DUP6 ADD GT OR PUSH3 0x77D JUMPI PUSH2 0x22C3 PUSH3 0xDC6 DUP5 CODECOPY CALLER PUSH2 0x22C3 DUP5 ADD SWAP1 DUP2 MSTORE PUSH1 0x1 PUSH1 0x1 PUSH1 0xA0 SHL SUB DUP7 AND PUSH1 0x20 DUP3 ADD MSTORE PUSH1 0x24 DUP1 CALLDATALOAD PUSH1 0x40 DUP4 ADD MSTORE PUSH2 0x100 PUSH1 0x60 DUP4 ADD DUP2 SWAP1 MSTORE PUSH1 0x44 CALLDATALOAD PUSH1 0x4 DUP2 ADD CALLDATALOAD SWAP2 DUP5 ADD DUP3 SWAP1 MSTORE PUSH2 0x120 SWAP6 SWAP4 SWAP2 SWAP3 ADD SWAP1 DUP6 ADD CALLDATACOPY PUSH1 0x0 PUSH1 0x44 CALLDATALOAD PUSH1 0x4 ADD CALLDATALOAD PUSH2 0x22C3 DUP7 ADD DUP2 DUP2 ADD DUP7 ADD SWAP3 SWAP1 SWAP3 MSTORE PUSH1 0x64 CALLDATALOAD PUSH1 0x80 DUP4 ADD MSTORE PUSH1 0xA0 DUP3 ADD DUP8 SWAP1 MSTORE PUSH1 0xC0 DUP3 ADD SWAP3 SWAP1 SWAP3 MSTORE PUSH1 0xE0 DUP2 ADD SWAP3 SWAP1 SWAP3 MSTORE PUSH1 0x1F ADD PUSH1 0x1F NOT AND ADD DUP3 SWAP1 SUB ADD SWAP1 DUP3 CREATE DUP1 ISZERO PUSH3 0x793 JUMPI PUSH1 0x1 DUP1 PUSH1 0xA0 SHL SUB AND SWAP2 PUSH1 0x1 SLOAD SWAP4 PUSH9 0x10000000000000000 DUP6 LT ISZERO PUSH3 0x77D JUMPI PUSH3 0x6C8 DUP6 PUSH1 0x1 PUSH1 0x20 SWAP8 ADD PUSH1 0x1 SSTORE PUSH3 0xD16 JUMP JUMPDEST DUP2 SLOAD SWAP1 PUSH1 0x3 SHL SWAP1 DUP7 DUP3 SHL SWAP2 PUSH1 0x1 DUP1 PUSH1 0xA0 SHL SUB SWAP1 SHL NOT AND OR SWAP1 SSTORE DUP4 PUSH1 0x0 MSTORE PUSH1 0x2 DUP6 MSTORE TIMESTAMP PUSH1 0x40 PUSH1 0x0 KECCAK256 SSTORE PUSH1 0x0 MSTORE PUSH1 0x3 DUP5 MSTORE PUSH1 0x40 PUSH1 0x0 KECCAK256 DUP4 PUSH1 0x1 PUSH1 0x1 PUSH1 0x60 SHL SUB PUSH1 0xA0 SHL DUP3 SLOAD AND OR SWAP1 SSTORE PUSH1 0x40 MLOAD SWAP2 PUSH1 0x24 CALLDATALOAD DUP4 MSTORE DUP5 DUP4 ADD MSTORE TIMESTAMP PUSH1 0x40 DUP4 ADD MSTORE PUSH1 0x1 DUP1 PUSH1 0xA0 SHL SUB AND SWAP1 DUP3 PUSH32 0x3EB472A527E15C935AB5F5304EB8A07041C95959EAD93C387CFFF282331CA09D PUSH1 0x60 CALLER SWAP4 LOG4 PUSH1 0x1 PUSH32 0x9B779B17422D0DF92223018B32B4D1FA46E071723D6817E2486D003BECC55F00 SSTORE PUSH1 0x40 MLOAD SWAP1 DUP2 MSTORE RETURN JUMPDEST PUSH4 0x4E487B71 PUSH1 0xE0 SHL PUSH1 0x0 MSTORE PUSH1 0x41 PUSH1 0x4 MSTORE PUSH1 0x24 PUSH1 0x0 REVERT JUMPDEST PUSH1 0x40 MLOAD RETURNDATASIZE PUSH1 0x0 DUP3 RETURNDATACOPY RETURNDATASIZE SWAP1 REVERT JUMPDEST PUSH1 0x40 MLOAD PUSH3 0x461BCD PUSH1 0xE5 SHL DUP2 MSTORE PUSH1 0x20 PUSH1 0x4 DUP3 ADD MSTORE PUSH1 0x13 PUSH1 0x24 DUP3 ADD MSTORE PUSH19 0x119959481D1C985B9CD9995C8819985A5B1959 PUSH1 0x6A SHL PUSH1 0x44 DUP3 ADD MSTORE PUSH1 0x64 SWAP1 REVERT JUMPDEST PUSH3 0x5CF JUMP JUMPDEST PUSH4 0x4E487B71 PUSH1 0xE0 SHL PUSH1 0x0 MSTORE PUSH1 0x11 PUSH1 0x4 MSTORE PUSH1 0x24 PUSH1 0x0 REVERT JUMPDEST PUSH1 0x40 MLOAD PUSH4 0x3F9BD75 PUSH1 0xE1 SHL DUP2 MSTORE PUSH1 0x4 SWAP1 REVERT JUMPDEST PUSH3 0x52C PUSH3 0x53B CALLER PUSH3 0x4FE JUMP JUMPDEST DUP2 SWAP1 PUSH3 0x4EE JUMP JUMPDEST PUSH1 0x40 MLOAD PUSH4 0x78DE4A69 PUSH1 0xE1 SHL DUP2 MSTORE PUSH1 0x4 SWAP1 REVERT JUMPDEST PUSH1 0x40 MLOAD PUSH4 0x5697B367 PUSH1 0xE0 SHL DUP2 MSTORE PUSH1 0x4 SWAP1 REVERT JUMPDEST POP PUSH1 0x1 PUSH1 0x1 PUSH1 0xA0 SHL SUB DUP2 AND CALLER EQ PUSH3 0x4C9 JUMP JUMPDEST PUSH1 0x40 MLOAD PUSH4 0x3EE5AEB5 PUSH1 0xE0 SHL DUP2 MSTORE PUSH1 0x4 SWAP1 REVERT JUMPDEST PUSH1 0x40 MLOAD PUSH4 0xAB35696F PUSH1 0xE0 SHL DUP2 MSTORE PUSH1 0x4 SWAP1 REVERT JUMPDEST CALLVALUE PUSH3 0x169 JUMPI PUSH1 0x0 CALLDATASIZE PUSH1 0x3 NOT ADD SLT PUSH3 0x169 JUMPI PUSH1 0x7 SLOAD PUSH1 0x40 MLOAD PUSH1 0x1 PUSH1 0x1 PUSH1 0xA0 SHL SUB SWAP1 SWAP2 AND DUP2 MSTORE PUSH1 0x20 SWAP1 RETURN JUMPDEST CALLVALUE PUSH3 0x169 JUMPI PUSH1 0x0 CALLDATASIZE PUSH1 0x3 NOT ADD SLT PUSH3 0x169 JUMPI PUSH1 0x0 SLOAD PUSH1 0x8 DUP2 SWAP1 SHR PUSH1 0x1 PUSH1 0x1 PUSH1 0xA0 SHL SUB AND CALLER SUB PUSH3 0x910 JUMPI PUSH1 0xFF DUP2 AND PUSH3 0x868 JUMPI PUSH1 0x1 SWAP1 PUSH1 0xFF NOT AND OR PUSH1 0x0 SSTORE PUSH32 0x62E78CEA01BEE320CD4E420270B5EA74000D11B0C9F74754EBDBFC544B05A258 PUSH1 0x20 PUSH1 0x40 MLOAD CALLER DUP2 MSTORE LOG1 STOP JUMPDEST PUSH1 0x40 MLOAD PUSH4 0x492F6781 PUSH1 0xE0 SHL DUP2 MSTORE PUSH1 0x4 SWAP1 REVERT JUMPDEST CALLVALUE PUSH3 0x169 JUMPI PUSH1 0x20 CALLDATASIZE PUSH1 0x3 NOT ADD SLT PUSH3 0x169 JUMPI PUSH1 0x7 SLOAD PUSH1 0x4 CALLDATALOAD SWAP1 PUSH1 0x1 PUSH1 0x1 PUSH1 0xA0 SHL SUB AND CALLER SUB PUSH3 0x158 JUMPI PUSH2 0x3E8 DUP2 GT PUSH3 0x98D JUMPI PUSH32 0xB404CAC19FB1CBEFF98D325795B08886E3CD8FE8CB1A2F193AAC66F13FB239C3 PUSH1 0x40 PUSH1 0x5 SLOAD DUP2 MLOAD SWAP1 DUP2 MSTORE DUP4 PUSH1 0x20 DUP3 ADD MSTORE LOG1 PUSH1 0x5 SSTORE STOP JUMPDEST PUSH1 0x40 MLOAD PUSH3 0x461BCD PUSH1 0xE5 SHL DUP2 MSTORE PUSH1 0x20 PUSH1 0x4 DUP3 ADD MSTORE PUSH1 0xC PUSH1 0x24 DUP3 ADD MSTORE PUSH12 0x8CCACA40E8DEDE40D0D2CED PUSH1 0xA3 SHL PUSH1 0x44 DUP3 ADD MSTORE PUSH1 0x64 SWAP1 REVERT JUMPDEST CALLVALUE PUSH3 0x169 JUMPI PUSH1 0x20 CALLDATASIZE PUSH1 0x3 NOT ADD SLT PUSH3 0x169 JUMPI PUSH1 0x4 CALLDATALOAD PUSH1 0x0 MSTORE PUSH1 0x3 PUSH1 0x20 MSTORE PUSH1 0x20 PUSH1 0x1 DUP1 PUSH1 0xA0 SHL SUB PUSH1 0x40 PUSH1 0x0 KECCAK256 SLOAD AND PUSH1 0x40 MLOAD SWAP1 DUP2 MSTORE RETURN JUMPDEST CALLVALUE PUSH3 0x169 JUMPI PUSH1 0x0 CALLDATASIZE PUSH1 0x3 NOT ADD SLT PUSH3 0x169 JUMPI PUSH1 0x20 PUSH1 0xFF PUSH1 0x0 SLOAD AND PUSH1 0x40 MLOAD SWAP1 ISZERO ISZERO DUP2 MSTORE RETURN JUMPDEST CALLVALUE PUSH3 0x169 JUMPI PUSH1 0x0 CALLDATASIZE PUSH1 0x3 NOT ADD SLT PUSH3 0x169 JUMPI PUSH1 0x4 SLOAD PUSH1 0x40 MLOAD PUSH1 0x1 PUSH1 0x1 PUSH1 0xA0 SHL SUB SWAP1 SWAP2 AND DUP2 MSTORE PUSH1 0x20 SWAP1 RETURN JUMPDEST CALLVALUE PUSH3 0x169 JUMPI PUSH1 0x20 CALLDATASIZE PUSH1 0x3 NOT ADD SLT PUSH3 0x169 JUMPI PUSH3 0xA64 PUSH3 0xD64 JUMP JUMPDEST PUSH1 0x0 SLOAD PUSH1 0x1 PUSH1 0x1 PUSH1 0xA0 SHL SUB PUSH1 0x8 DUP3 SWAP1 SHR DUP2 AND SWAP2 SWAP1 CALLER DUP4 SWAP1 SUB PUSH3 0x910 JUMPI DUP4 AND SWAP3 DUP4 ISZERO PUSH3 0xAD4 JUMPI PUSH2 0x100 PUSH1 0x1 PUSH1 0xA8 SHL SUB NOT SWAP1 SWAP2 AND PUSH1 0x8 SWAP2 SWAP1 SWAP2 SHL PUSH2 0x100 PUSH1 0x1 PUSH1 0xA8 SHL SUB AND OR PUSH1 0x0 SWAP1 DUP2 SSTORE PUSH32 0x51C4874E0F23F262E04A38C51751336DDE72126D67F53EB672AAFF02996B3EF6 SWAP1 DUP1 LOG3 STOP JUMPDEST PUSH1 0x40 MLOAD PUSH3 0x461BCD PUSH1 0xE5 SHL DUP2 MSTORE PUSH1 0x20 PUSH1 0x4 DUP3 ADD MSTORE PUSH1 0x16 PUSH1 0x24 DUP3 ADD MSTORE PUSH22 0x496E76616C6964207061757365722061646472657373 PUSH1 0x50 SHL PUSH1 0x44 DUP3 ADD MSTORE PUSH1 0x64 SWAP1 REVERT JUMPDEST CALLVALUE PUSH3 0x169 JUMPI PUSH1 0x0 CALLDATASIZE PUSH1 0x3 NOT ADD SLT PUSH3 0x169 JUMPI PUSH1 0x0 SLOAD PUSH1 0x8 DUP2 SWAP1 SHR PUSH1 0x1 PUSH1 0x1 PUSH1 0xA0 SHL SUB AND CALLER SUB PUSH3 0x910 JUMPI PUSH1 0xFF DUP2 AND ISZERO PUSH3 0xB7A JUMPI PUSH1 0xFF NOT AND PUSH1 0x0 SSTORE PUSH32 0x5DB9EE0A495BF2E6FF9C91A7834C1BA4FDD244A5E8AA4E537BD38AEAE4B073AA PUSH1 0x20 PUSH1 0x40 MLOAD CALLER DUP2 MSTORE LOG1 STOP JUMPDEST PUSH1 0x40 MLOAD PUSH4 0xDCDDE9DD PUSH1 0xE0 SHL DUP2 MSTORE PUSH1 0x4 SWAP1 REVERT JUMPDEST CALLVALUE PUSH3 0x169 JUMPI PUSH1 0x40 CALLDATASIZE PUSH1 0x3 NOT ADD SLT PUSH3 0x169 JUMPI PUSH3 0xBA9 PUSH3 0xD64 JUMP JUMPDEST PUSH1 0x1 PUSH1 0x1 PUSH1 0xA0 SHL SUB PUSH1 0x24 CALLDATALOAD DUP2 DUP2 AND SWAP3 SWAP1 DUP4 DUP2 SUB PUSH3 0x169 JUMPI PUSH3 0xC13 PUSH3 0x52C SWAP2 PUSH1 0x20 SWAP6 DUP6 DUP6 AND LT SWAP4 DUP5 PUSH1 0x0 EQ PUSH3 0xC36 JUMPI DUP1 SWAP5 JUMPDEST ISZERO PUSH3 0xC2E JUMPI POP JUMPDEST PUSH1 0x40 MLOAD SWAP3 DUP4 SWAP2 DUP8 DUP4 ADD SWAP6 DUP7 SWAP1 PUSH1 0x28 SWAP3 PUSH1 0x1 PUSH1 0x1 PUSH1 0x60 SHL SUB NOT DUP1 SWAP3 PUSH1 0x60 SHL AND DUP4 MSTORE PUSH1 0x60 SHL AND PUSH1 0x14 DUP3 ADD MSTORE ADD SWAP1 JUMP JUMPDEST MLOAD SWAP1 KECCAK256 PUSH1 0x0 MSTORE PUSH1 0x3 DUP3 MSTORE PUSH1 0x40 PUSH1 0x0 KECCAK256 SLOAD AND ISZERO ISZERO PUSH1 0x40 MLOAD SWAP1 DUP2 MSTORE RETURN JUMPDEST SWAP1 POP PUSH3 0xBE6 JUMP JUMPDEST DUP2 SWAP5 PUSH3 0xBDE JUMP JUMPDEST CALLVALUE PUSH3 0x169 JUMPI PUSH1 0x0 CALLDATASIZE PUSH1 0x3 NOT ADD SLT PUSH3 0x169 JUMPI PUSH1 0x20 PUSH1 0x5 SLOAD PUSH1 0x40 MLOAD SWAP1 DUP2 MSTORE RETURN JUMPDEST CALLVALUE PUSH3 0x169 JUMPI PUSH1 0x20 CALLDATASIZE PUSH1 0x3 NOT ADD SLT PUSH3 0x169 JUMPI PUSH1 0x4 CALLDATALOAD PUSH1 0x1 SLOAD DUP2 LT ISZERO PUSH3 0x169 JUMPI PUSH3 0xC8C PUSH1 0x20 SWAP2 PUSH3 0xD16 JUMP JUMPDEST SWAP1 SLOAD PUSH1 0x40 MLOAD PUSH1 0x3 SWAP3 SWAP1 SWAP3 SHL SHR PUSH1 0x1 PUSH1 0x1 PUSH1 0xA0 SHL SUB AND DUP2 MSTORE RETURN JUMPDEST CALLVALUE PUSH3 0x169 JUMPI PUSH1 0x20 CALLDATASIZE PUSH1 0x3 NOT ADD SLT PUSH3 0x169 JUMPI PUSH1 0x7 SLOAD PUSH1 0x4 CALLDATALOAD SWAP2 SWAP1 PUSH1 0x1 PUSH1 0x1 PUSH1 0xA0 SHL SUB AND CALLER SUB PUSH3 0xD08 JUMPI POP PUSH32 0xD67ED534FAF3E0DCDA08AC6043EC96DCF9B6EBEC56055FD14BD0CB40A27C0E49 PUSH1 0x40 PUSH1 0x6 SLOAD DUP2 MLOAD SWAP1 DUP2 MSTORE DUP4 PUSH1 0x20 DUP3 ADD MSTORE LOG1 PUSH1 0x6 SSTORE STOP JUMPDEST PUSH3 0x82B429 PUSH1 0xE8 SHL DUP2 MSTORE PUSH1 0x4 SWAP1 REVERT JUMPDEST PUSH1 0x1 SLOAD DUP2 LT ISZERO PUSH3 0xD4E JUMPI PUSH1 0x1 PUSH1 0x0 MSTORE PUSH32 0xB10E2D527612073B26EECDFD717E6A320CF44B4AFAC2B0732D9FCBE2B7FA0CF6 ADD SWAP1 PUSH1 0x0 SWAP1 JUMP JUMPDEST PUSH4 0x4E487B71 PUSH1 0xE0 SHL PUSH1 0x0 MSTORE PUSH1 0x32 PUSH1 0x4 MSTORE PUSH1 0x24 PUSH1 0x0 REVERT JUMPDEST PUSH1 0x4 CALLDATALOAD SWAP1 PUSH1 0x1 PUSH1 0x1 PUSH1 0xA0 SHL SUB DUP3 AND DUP3 SUB PUSH3 0x169 JUMPI JUMP JUMPDEST SWAP1 PUSH1 0x1F DUP1 NOT SWAP2 ADD AND DUP2 ADD SWAP1 DUP2 LT PUSH8 0xFFFFFFFFFFFFFFFF DUP3 GT OR PUSH3 0x77D JUMPI PUSH1 0x40 MSTORE JUMP JUMPDEST SWAP2 SWAP1 DUP3 SUB SWAP2 DUP3 GT PUSH3 0x7E0 JUMPI JUMP JUMPDEST PUSH8 0xFFFFFFFFFFFFFFFF DUP2 GT PUSH3 0x77D JUMPI PUSH1 0x5 SHL PUSH1 0x20 ADD SWAP1 JUMP INVALID PUSH1 0x40 PUSH1 0xC0 DUP2 MSTORE PUSH3 0x22C3 SWAP1 DUP2 CODESIZE SUB DUP1 PUSH3 0x19 DUP2 PUSH3 0x3B3 JUMP JUMPDEST SWAP4 DUP5 CODECOPY DUP3 ADD SWAP2 PUSH2 0x100 DUP2 DUP5 SUB SLT PUSH3 0x3AE JUMPI PUSH3 0x36 DUP2 PUSH3 0x3D9 JUMP JUMPDEST SWAP1 PUSH1 0x20 PUSH3 0x46 DUP2 DUP4 ADD PUSH3 0x3D9 JUMP JUMPDEST DUP5 DUP4 ADD MLOAD PUSH1 0x60 DUP5 ADD MLOAD SWAP2 SWAP4 SWAP2 PUSH1 0x1 PUSH1 0x1 PUSH1 0x40 SHL SUB SWAP2 SWAP1 DUP3 DUP2 GT PUSH3 0x3AE JUMPI DUP4 ADD SWAP1 PUSH1 0x1F SWAP3 DUP10 DUP5 DUP5 ADD SLT ISZERO PUSH3 0x3AE JUMPI DUP3 MLOAD DUP2 DUP2 GT PUSH3 0x36D JUMPI PUSH1 0x1F NOT SWAP4 PUSH3 0x94 DUP3 DUP8 ADD DUP7 AND DUP10 ADD PUSH3 0x3B3 JUMP JUMPDEST SWAP12 DUP3 DUP14 MSTORE DUP9 DUP4 DUP4 ADD ADD GT PUSH3 0x3AE JUMPI DUP8 SWAP1 PUSH1 0x0 JUMPDEST DUP4 DUP2 LT PUSH3 0x399 JUMPI POP POP PUSH1 0x0 SWAP2 DUP13 ADD ADD MSTORE PUSH1 0x80 DUP6 ADD MLOAD SWAP4 PUSH1 0xA0 DUP7 ADD MLOAD SWAP5 PUSH1 0xE0 PUSH3 0xD5 PUSH1 0xC0 DUP10 ADD PUSH3 0x3D9 JUMP JUMPDEST SWAP8 ADD MLOAD PUSH1 0x1 PUSH32 0x9B779B17422D0DF92223018B32B4D1FA46E071723D6817E2486D003BECC55F00 DUP2 SWAP1 SSTORE PUSH1 0x0 DUP1 SLOAD PUSH2 0x100 PUSH1 0x1 PUSH1 0xA8 SHL SUB NOT AND CALLER PUSH1 0x8 SHL PUSH2 0x100 PUSH1 0x1 PUSH1 0xA8 SHL SUB AND OR SWAP1 SSTORE PUSH1 0x80 DUP13 SWAP1 MSTORE PUSH1 0xA0 SWAP11 SWAP1 SWAP11 MSTORE PUSH1 0xA DUP1 SLOAD PUSH1 0x1 PUSH1 0x1 PUSH1 0xA0 SHL SUB NOT AND PUSH1 0x1 PUSH1 0x1 PUSH1 0xA0 SHL SUB SWAP10 DUP11 AND OR SWAP1 SSTORE PUSH1 0xB SSTORE CALLVALUE PUSH1 0x9 SSTORE TIMESTAMP SWAP1 DUP2 ADD SWAP5 SWAP1 DUP6 LT PUSH3 0x383 JUMPI DUP11 MLOAD SWAP4 PUSH1 0xA0 DUP6 ADD DUP6 DUP2 LT DUP6 DUP3 GT OR PUSH3 0x36D JUMPI DUP13 MSTORE DUP1 DUP6 MSTORE DUP13 DUP10 DUP7 ADD MSTORE PUSH1 0x80 DUP13 DUP7 ADD SWAP6 TIMESTAMP DUP8 MSTORE PUSH1 0x60 DUP2 ADD SWAP8 DUP9 MSTORE ADD SWAP7 DUP8 MSTORE DUP10 SSTORE DUP12 MLOAD SWAP3 DUP4 GT PUSH3 0x36D JUMPI PUSH1 0x2 SLOAD DUP10 DUP2 DUP2 SHR SWAP2 AND DUP1 ISZERO PUSH3 0x362 JUMPI JUMPDEST DUP10 DUP3 LT EQ PUSH3 0x34C JUMPI DUP3 DUP2 GT PUSH3 0x300 JUMPI JUMPDEST POP DUP8 SWAP2 DUP4 GT PUSH1 0x1 EQ PUSH3 0x295 JUMPI POP DUP2 SWAP1 PUSH1 0xC SWAP9 SWAP10 SWAP11 SWAP12 PUSH1 0x0 SWAP3 PUSH3 0x289 JUMPI JUMPDEST POP POP PUSH1 0x0 NOT PUSH1 0x3 DUP4 SWAP1 SHL SHR NOT AND SWAP1 DUP9 SHL OR PUSH1 0x2 SSTORE JUMPDEST MLOAD PUSH1 0x3 SSTORE MLOAD PUSH1 0x4 SSTORE MLOAD PUSH1 0x5 SSTORE PUSH1 0xFF NOT SWAP5 DUP6 PUSH1 0x6 SLOAD AND PUSH1 0x6 SSTORE AND PUSH1 0x0 MSTORE MSTORE DUP3 PUSH1 0x0 KECCAK256 SWAP2 DUP3 SLOAD AND OR SWAP1 SSTORE MLOAD PUSH2 0x1ED4 SWAP1 DUP2 PUSH3 0x3EF DUP3 CODECOPY PUSH1 0x80 MLOAD DUP2 DUP2 DUP2 PUSH2 0x1CF ADD MSTORE DUP2 DUP2 PUSH2 0x656 ADD MSTORE DUP2 DUP2 PUSH2 0x726 ADD MSTORE DUP2 DUP2 PUSH2 0x851 ADD MSTORE DUP2 DUP2 PUSH2 0xAEB ADD MSTORE DUP2 DUP2 PUSH2 0x1158 ADD MSTORE DUP2 DUP2 PUSH2 0x1404 ADD MSTORE PUSH2 0x16E4 ADD MSTORE PUSH1 0xA0 MLOAD DUP2 DUP2 DUP2 PUSH2 0x569 ADD MSTORE DUP2 DUP2 PUSH2 0x6A1 ADD MSTORE DUP2 DUP2 PUSH2 0x966 ADD MSTORE DUP2 DUP2 PUSH2 0xEB5 ADD MSTORE DUP2 DUP2 PUSH2 0x13A6 ADD MSTORE PUSH2 0x14DD ADD MSTORE RETURN JUMPDEST ADD MLOAD SWAP1 POP CODESIZE DUP1 PUSH3 0x1D8 JUMP JUMPDEST DUP3 AND SWAP11 PUSH1 0x2 PUSH1 0x0 MSTORE DUP8 PUSH1 0x0 KECCAK256 SWAP12 PUSH1 0x0 JUMPDEST DUP2 DUP2 LT PUSH3 0x2EA JUMPI POP SWAP2 DUP10 SWAP11 SWAP12 SWAP13 SWAP2 DUP5 PUSH1 0xC SWAP12 SWAP6 SWAP5 LT PUSH3 0x2D0 JUMPI JUMPDEST POP POP POP DUP2 SHL ADD PUSH1 0x2 SSTORE PUSH3 0x1ED JUMP JUMPDEST ADD MLOAD PUSH1 0x0 NOT PUSH1 0xF8 DUP5 PUSH1 0x3 SHL AND SHR NOT AND SWAP1 SSTORE CODESIZE DUP1 DUP1 PUSH3 0x2C1 JUMP JUMPDEST DUP3 DUP5 ADD MLOAD DUP15 SSTORE SWAP13 DUP11 ADD SWAP13 SWAP3 DUP10 ADD SWAP3 DUP10 ADD PUSH3 0x2A5 JUMP JUMPDEST PUSH1 0x2 PUSH1 0x0 MSTORE DUP9 PUSH1 0x0 KECCAK256 DUP4 DUP1 DUP7 ADD PUSH1 0x5 SHR DUP3 ADD SWAP3 DUP12 DUP8 LT PUSH3 0x342 JUMPI JUMPDEST ADD PUSH1 0x5 SHR ADD SWAP1 DUP11 SWAP1 JUMPDEST DUP3 DUP2 LT PUSH3 0x335 JUMPI POP POP PUSH3 0x1B9 JUMP JUMPDEST PUSH1 0x0 DUP2 SSTORE ADD DUP11 SWAP1 PUSH3 0x325 JUMP JUMPDEST SWAP3 POP DUP2 SWAP3 PUSH3 0x31C JUMP JUMPDEST PUSH4 0x4E487B71 PUSH1 0xE0 SHL PUSH1 0x0 MSTORE PUSH1 0x22 PUSH1 0x4 MSTORE PUSH1 0x24 PUSH1 0x0 REVERT JUMPDEST SWAP1 PUSH1 0x7F AND SWAP1 PUSH3 0x1A7 JUMP JUMPDEST PUSH4 0x4E487B71 PUSH1 0xE0 SHL PUSH1 0x0 MSTORE PUSH1 0x41 PUSH1 0x4 MSTORE PUSH1 0x24 PUSH1 0x0 REVERT JUMPDEST PUSH4 0x4E487B71 PUSH1 0xE0 SHL PUSH1 0x0 MSTORE PUSH1 0x11 PUSH1 0x4 MSTORE PUSH1 0x24 PUSH1 0x0 REVERT JUMPDEST DUP2 DUP2 ADD DUP4 ADD MLOAD DUP2 DUP16 ADD DUP5 ADD MSTORE DUP10 SWAP3 ADD PUSH3 0xA8 JUMP JUMPDEST PUSH1 0x0 DUP1 REVERT JUMPDEST PUSH1 0x40 MLOAD SWAP2 SWAP1 PUSH1 0x1F ADD PUSH1 0x1F NOT AND DUP3 ADD PUSH1 0x1 PUSH1 0x1 PUSH1 0x40 SHL SUB DUP2 GT DUP4 DUP3 LT OR PUSH3 0x36D JUMPI PUSH1 0x40 MSTORE JUMP JUMPDEST MLOAD SWAP1 PUSH1 0x1 PUSH1 0x1 PUSH1 0xA0 SHL SUB DUP3 AND DUP3 SUB PUSH3 0x3AE JUMPI JUMP INVALID PUSH1 0x80 DUP1 PUSH1 0x40 MSTORE PUSH1 0x4 CALLDATASIZE LT ISZERO PUSH2 0x2C JUMPI JUMPDEST POP CALLDATASIZE ISZERO PUSH2 0x1B JUMPI PUSH1 0x0 DUP1 REVERT JUMPDEST PUSH2 0x27 CALLVALUE PUSH1 0x9 SLOAD PUSH2 0x1CF9 JUMP JUMPDEST PUSH1 0x9 SSTORE STOP JUMPDEST PUSH1 0x0 CALLDATALOAD PUSH1 0xE0 SHR SWAP1 DUP2 PUSH4 0x200D2ED2 EQ PUSH2 0x1A34 JUMPI POP DUP1 PUSH4 0x22F3E2D4 EQ PUSH2 0x1A06 JUMPI DUP1 PUSH4 0x2442E1CB EQ PUSH2 0x18F1 JUMPI DUP1 PUSH4 0x35659FB8 EQ PUSH2 0x18D3 JUMPI DUP1 PUSH4 0x3670A7BD EQ PUSH2 0x1895 JUMPI DUP1 PUSH4 0x3F4BA83A EQ PUSH2 0x181F JUMPI DUP1 PUSH4 0x4421EA21 EQ PUSH2 0x175A JUMPI DUP1 PUSH4 0x46904840 EQ PUSH2 0x1731 JUMPI DUP1 PUSH4 0x4A4D41EB EQ PUSH2 0x1713 JUMPI DUP1 PUSH4 0x5C39FCC1 EQ PUSH2 0x16CE JUMPI DUP1 PUSH4 0x5C975ABB EQ PUSH2 0x16AB JUMPI DUP1 PUSH4 0x69B4D6FE EQ PUSH2 0x1668 JUMPI DUP1 PUSH4 0x69DB0A7E EQ PUSH2 0x13CE JUMPI DUP1 PUSH4 0x725A3B4B EQ PUSH2 0x1104 JUMPI DUP1 PUSH4 0x7BF6C104 EQ PUSH2 0x101E JUMPI DUP1 PUSH4 0x7D0D50DC EQ PUSH2 0xE90 JUMPI DUP1 PUSH4 0x8456CB59 EQ PUSH2 0xE17 JUMPI DUP1 PUSH4 0x84B62C28 EQ PUSH2 0xA9F JUMPI DUP1 PUSH4 0x852EA203 EQ PUSH2 0x9D9 JUMPI DUP1 PUSH4 0x8F4CF247 EQ PUSH2 0x9BB JUMPI DUP1 PUSH4 0x9FD0506D EQ PUSH2 0x98E JUMPI DUP1 PUSH4 0xA8D52F7A EQ PUSH2 0x81D JUMPI DUP1 PUSH4 0xBDC84AC3 EQ PUSH2 0x598 JUMPI DUP1 PUSH4 0xC3DF6546 EQ PUSH2 0x553 JUMPI DUP1 PUSH4 0xD24126D9 EQ PUSH2 0x535 JUMPI DUP1 PUSH4 0xD5025625 EQ PUSH2 0x42D JUMPI DUP1 PUSH4 0xDA25DE3C EQ PUSH2 0x40F JUMPI DUP1 PUSH4 0xE3CFEF60 EQ PUSH2 0x3EC JUMPI DUP1 PUSH4 0xE89E4ED6 EQ PUSH2 0x36C JUMPI DUP1 PUSH4 0xEE38DB95 EQ PUSH2 0x1BC JUMPI PUSH4 0xF5A3F4AF EQ PUSH2 0x18E JUMPI CODESIZE PUSH2 0xF JUMP JUMPDEST CALLVALUE PUSH2 0x1B7 JUMPI PUSH1 0x0 CALLDATASIZE PUSH1 0x3 NOT ADD SLT PUSH2 0x1B7 JUMPI PUSH1 0xE SLOAD PUSH1 0x40 MLOAD PUSH1 0x1 PUSH1 0x1 PUSH1 0xA0 SHL SUB SWAP1 SWAP2 AND DUP2 MSTORE PUSH1 0x20 SWAP1 RETURN JUMPDEST PUSH1 0x0 DUP1 REVERT JUMPDEST CALLVALUE PUSH2 0x1B7 JUMPI PUSH1 0x0 CALLDATASIZE PUSH1 0x3 NOT ADD SLT PUSH2 0x1B7 JUMPI PUSH32 0x0 PUSH1 0x1 PUSH1 0x1 PUSH1 0xA0 SHL SUB DUP2 AND SWAP1 PUSH2 0x204 CALLER DUP4 EQ PUSH2 0x1C68 JUMP JUMPDEST PUSH1 0xFF PUSH1 0x6 SLOAD AND PUSH1 0x7 DUP2 LT ISZERO SWAP1 DUP2 PUSH2 0x348 JUMPI PUSH1 0x5 DUP2 EQ SWAP2 DUP3 ISZERO PUSH2 0x35E JUMPI JUMPDEST DUP3 ISZERO PUSH2 0x337 JUMPI JUMPDEST POP POP DUP1 ISZERO PUSH2 0x32C JUMPI JUMPDEST ISZERO PUSH2 0x2F1 JUMPI PUSH1 0x9 SLOAD SWAP1 DUP2 ISZERO PUSH2 0x2BF JUMPI PUSH1 0x0 DUP1 DUP1 DUP5 DUP2 SWAP5 DUP3 PUSH1 0x9 SSTORE GAS CALL PUSH2 0x255 PUSH2 0x1D74 JUMP JUMPDEST POP ISZERO PUSH2 0x288 JUMPI PUSH1 0x20 PUSH32 0xEAFF4B37086828766AD3268786972C0CD24259D4C87A80F9D3963A3C3D999B0D SWAP2 PUSH1 0x40 MLOAD SWAP1 DUP2 MSTORE LOG2 STOP JUMPDEST PUSH1 0x40 MLOAD PUSH3 0x461BCD PUSH1 0xE5 SHL DUP2 MSTORE PUSH1 0x20 PUSH1 0x4 DUP3 ADD MSTORE PUSH1 0xF PUSH1 0x24 DUP3 ADD MSTORE PUSH15 0x15DA5D1A191C985DC819985A5B1959 PUSH1 0x8A SHL PUSH1 0x44 DUP3 ADD MSTORE PUSH1 0x64 SWAP1 REVERT JUMPDEST PUSH1 0x40 MLOAD PUSH3 0x461BCD PUSH1 0xE5 SHL DUP2 MSTORE PUSH1 0x20 PUSH1 0x4 DUP3 ADD MSTORE PUSH1 0xA PUSH1 0x24 DUP3 ADD MSTORE PUSH10 0x4E6F2062616C616E6365 PUSH1 0xB0 SHL PUSH1 0x44 DUP3 ADD MSTORE PUSH1 0x64 SWAP1 REVERT JUMPDEST PUSH1 0x40 MLOAD PUSH3 0x461BCD PUSH1 0xE5 SHL DUP2 MSTORE PUSH1 0x20 PUSH1 0x4 DUP3 ADD MSTORE PUSH1 0x13 PUSH1 0x24 DUP3 ADD MSTORE PUSH19 0x10D85B9B9BDD081DDA5D1A191C985DC81E595D PUSH1 0x6A SHL PUSH1 0x44 DUP3 ADD MSTORE PUSH1 0x64 SWAP1 REVERT JUMPDEST POP PUSH1 0x4 SLOAD TIMESTAMP GT PUSH2 0x231 JUMP JUMPDEST SWAP1 SWAP2 POP PUSH2 0x348 JUMPI PUSH1 0x2 EQ DUP4 DUP1 PUSH2 0x228 JUMP JUMPDEST PUSH4 0x4E487B71 PUSH1 0xE0 SHL PUSH1 0x0 MSTORE PUSH1 0x21 PUSH1 0x4 MSTORE PUSH1 0x24 PUSH1 0x0 REVERT JUMPDEST POP PUSH1 0x6 DUP2 EQ SWAP2 POP PUSH1 0x0 PUSH2 0x221 JUMP JUMPDEST CALLVALUE PUSH2 0x1B7 JUMPI PUSH1 0x20 CALLDATASIZE PUSH1 0x3 NOT ADD SLT PUSH2 0x1B7 JUMPI PUSH1 0x4 CALLDATALOAD PUSH1 0x7 SLOAD DUP2 LT ISZERO PUSH2 0x1B7 JUMPI PUSH2 0x396 PUSH2 0x3C8 SWAP2 PUSH2 0x1BE8 JUMP JUMPDEST POP PUSH2 0x3A0 DUP2 PUSH2 0x1B42 JUMP JUMPDEST SWAP1 PUSH1 0x1 DUP2 ADD SLOAD SWAP1 PUSH1 0xFF PUSH1 0x3 PUSH1 0x2 DUP4 ADD SLOAD SWAP3 ADD SLOAD SWAP2 PUSH1 0x40 MLOAD SWAP6 DUP7 SWAP6 PUSH1 0xA0 DUP8 MSTORE PUSH1 0xA0 DUP8 ADD SWAP1 PUSH2 0x1A5C JUMP JUMPDEST SWAP4 PUSH1 0x20 DUP7 ADD MSTORE DUP2 DUP2 AND ISZERO ISZERO PUSH1 0x40 DUP7 ADD MSTORE PUSH1 0x8 SHR AND ISZERO ISZERO PUSH1 0x60 DUP5 ADD MSTORE PUSH1 0x80 DUP4 ADD MSTORE SUB SWAP1 RETURN JUMPDEST CALLVALUE PUSH2 0x1B7 JUMPI PUSH1 0x0 CALLDATASIZE PUSH1 0x3 NOT ADD SLT PUSH2 0x1B7 JUMPI PUSH1 0x20 PUSH2 0x407 PUSH2 0x1E1A JUMP JUMPDEST PUSH1 0x40 MLOAD SWAP1 DUP2 MSTORE RETURN JUMPDEST CALLVALUE PUSH2 0x1B7 JUMPI PUSH1 0x0 CALLDATASIZE PUSH1 0x3 NOT ADD SLT PUSH2 0x1B7 JUMPI PUSH1 0x20 PUSH1 0x9 SLOAD PUSH1 0x40 MLOAD SWAP1 DUP2 MSTORE RETURN JUMPDEST CALLVALUE PUSH2 0x1B7 JUMPI PUSH1 0x0 CALLDATASIZE PUSH1 0x3 NOT ADD SLT PUSH2 0x1B7 JUMPI PUSH1 0x1 DUP1 SLOAD PUSH1 0x40 MLOAD SWAP2 DUP3 PUSH1 0x0 PUSH1 0x2 SLOAD SWAP3 PUSH2 0x456 DUP5 PUSH2 0x1ACA JUMP JUMPDEST DUP1 DUP5 MSTORE SWAP4 DUP2 DUP2 AND SWAP1 DUP2 ISZERO PUSH2 0x513 JUMPI POP PUSH1 0x1 EQ PUSH2 0x4B4 JUMPI JUMPDEST POP PUSH2 0x47A SWAP3 POP SUB DUP4 PUSH2 0x1B20 JUMP JUMPDEST PUSH1 0x3 SLOAD PUSH1 0x4 SLOAD PUSH1 0x5 SLOAD SWAP1 PUSH2 0x4A0 PUSH1 0x40 MLOAD SWAP6 DUP7 SWAP6 DUP7 MSTORE PUSH1 0xA0 PUSH1 0x20 DUP8 ADD MSTORE PUSH1 0xA0 DUP7 ADD SWAP1 PUSH2 0x1A5C JUMP JUMPDEST SWAP3 PUSH1 0x40 DUP6 ADD MSTORE PUSH1 0x60 DUP5 ADD MSTORE PUSH1 0x80 DUP4 ADD MSTORE SUB SWAP1 RETURN JUMPDEST PUSH1 0x2 PUSH1 0x0 SWAP1 DUP2 MSTORE SWAP2 POP PUSH32 0x405787FA12A823E0F2B7631CC41B3BA8828B3321CA811111FA75CD3AA3BB5ACE JUMPDEST DUP5 DUP4 LT PUSH2 0x4F8 JUMPI POP PUSH2 0x47A SWAP4 POP POP DUP2 ADD PUSH1 0x20 ADD DUP6 PUSH2 0x46D JUMP JUMPDEST DUP2 SWAP4 POP SWAP1 DUP2 PUSH1 0x20 SWAP3 SLOAD DUP4 DUP6 DUP11 ADD ADD MSTORE ADD SWAP2 ADD SWAP1 SWAP2 DUP6 SWAP3 PUSH2 0x4DF JUMP JUMPDEST SWAP1 POP PUSH1 0x20 SWAP3 POP PUSH2 0x47A SWAP5 SWAP2 POP PUSH1 0xFF NOT AND DUP3 DUP5 ADD MSTORE ISZERO ISZERO PUSH1 0x5 SHL DUP3 ADD ADD DUP6 PUSH2 0x46D JUMP JUMPDEST CALLVALUE PUSH2 0x1B7 JUMPI PUSH1 0x0 CALLDATASIZE PUSH1 0x3 NOT ADD SLT PUSH2 0x1B7 JUMPI PUSH1 0x20 PUSH1 0x10 SLOAD PUSH1 0x40 MLOAD SWAP1 DUP2 MSTORE RETURN JUMPDEST CALLVALUE PUSH2 0x1B7 JUMPI PUSH1 0x0 CALLDATASIZE PUSH1 0x3 NOT ADD SLT PUSH2 0x1B7 JUMPI PUSH1 0x40 MLOAD PUSH32 0x0 PUSH1 0x1 PUSH1 0x1 PUSH1 0xA0 SHL SUB AND DUP2 MSTORE PUSH1 0x20 SWAP1 RETURN JUMPDEST CALLVALUE PUSH2 0x1B7 JUMPI PUSH1 0x40 CALLDATASIZE PUSH1 0x3 NOT ADD SLT PUSH2 0x1B7 JUMPI PUSH1 0x4 CALLDATALOAD PUSH1 0x24 DUP1 CALLDATALOAD SWAP1 PUSH1 0x6 SLOAD SWAP1 PUSH1 0xFF DUP3 AND PUSH1 0x7 DUP2 LT ISZERO PUSH2 0x808 JUMPI PUSH1 0x3 SUB PUSH2 0x7D5 JUMPI PUSH2 0x5D3 DUP4 DUP6 PUSH2 0x1CF9 JUMP JUMPDEST PUSH1 0x9 SWAP3 DUP4 SLOAD DUP1 SWAP3 GT PUSH2 0x799 JUMPI PUSH1 0xFF NOT AND PUSH1 0x4 OR PUSH1 0x6 SSTORE PUSH1 0xE DUP1 SLOAD PUSH1 0x1 PUSH1 0x1 PUSH1 0xA0 SHL SUB NOT AND CALLER OR SWAP1 SSTORE DUP5 DUP1 PUSH2 0x713 JUMPI JUMPDEST POP POP DUP3 PUSH2 0x68C JUMPI JUMPDEST POP DUP1 SLOAD DUP1 PUSH2 0x648 JUMPI JUMPDEST POP POP PUSH1 0x40 MLOAD SWAP2 DUP3 MSTORE PUSH1 0x20 DUP3 ADD MSTORE PUSH32 0xD45D961E06565B8DD3D1DA8AA5D6BDF1EA1253EBF46C31573E5ACD0125F24326 PUSH1 0x40 CALLER SWAP3 LOG2 STOP JUMPDEST PUSH1 0x0 DUP1 DUP1 DUP1 SWAP4 DUP2 PUSH2 0x685 SWAP7 SSTORE PUSH32 0x0 GAS CALL PUSH2 0x67F PUSH2 0x1D74 JUMP JUMPDEST POP PUSH2 0x1DDE JUMP JUMPDEST DUP3 DUP1 PUSH2 0x613 JUMP JUMPDEST PUSH2 0x697 DUP4 DUP4 SLOAD PUSH2 0x1D06 JUMP JUMPDEST DUP3 SSTORE PUSH1 0x0 DUP1 DUP1 DUP1 DUP7 PUSH32 0x0 GAS CALL PUSH2 0x6CA PUSH2 0x1D74 JUMP JUMPDEST POP PUSH2 0x60A JUMPI PUSH1 0x64 SWAP1 PUSH1 0x19 PUSH1 0x40 MLOAD SWAP2 PUSH3 0x461BCD PUSH1 0xE5 SHL DUP4 MSTORE PUSH1 0x20 PUSH1 0x4 DUP5 ADD MSTORE DUP3 ADD MSTORE PUSH32 0x436F756E7465727061727479206177617264206661696C656400000000000000 PUSH1 0x44 DUP3 ADD MSTORE REVERT JUMPDEST PUSH2 0x71C SWAP2 PUSH2 0x1D06 JUMP JUMPDEST DUP3 SSTORE PUSH1 0x0 DUP1 DUP1 DUP1 DUP8 PUSH32 0x0 GAS CALL PUSH2 0x74F PUSH2 0x1D74 JUMP JUMPDEST POP ISZERO PUSH2 0x75C JUMPI DUP5 DUP5 PUSH2 0x602 JUMP JUMPDEST PUSH1 0x64 SWAP1 PUSH1 0x16 PUSH1 0x40 MLOAD SWAP2 PUSH3 0x461BCD PUSH1 0xE5 SHL DUP4 MSTORE PUSH1 0x20 PUSH1 0x4 DUP5 ADD MSTORE DUP3 ADD MSTORE PUSH22 0x125B9A5D1A585D1BDC88185DD85C990819985A5B1959 PUSH1 0x52 SHL PUSH1 0x44 DUP3 ADD MSTORE REVERT JUMPDEST PUSH1 0x40 MLOAD PUSH3 0x461BCD PUSH1 0xE5 SHL DUP2 MSTORE PUSH1 0x20 PUSH1 0x4 DUP3 ADD MSTORE PUSH1 0x15 DUP2 DUP6 ADD MSTORE PUSH21 0x417761726473206578636565642062616C616E6365 PUSH1 0x58 SHL PUSH1 0x44 DUP3 ADD MSTORE PUSH1 0x64 SWAP1 REVERT JUMPDEST PUSH1 0x64 SWAP1 PUSH1 0xC PUSH1 0x40 MLOAD SWAP2 PUSH3 0x461BCD PUSH1 0xE5 SHL DUP4 MSTORE PUSH1 0x20 PUSH1 0x4 DUP5 ADD MSTORE DUP3 ADD MSTORE PUSH12 0x139BDD08191A5CDC1D5D1959 PUSH1 0xA2 SHL PUSH1 0x44 DUP3 ADD MSTORE REVERT JUMPDEST POP PUSH4 0x4E487B71 PUSH1 0xE0 SHL PUSH1 0x0 SWAP1 DUP2 MSTORE PUSH1 0x21 PUSH1 0x4 MSTORE REVERT JUMPDEST CALLVALUE PUSH2 0x1B7 JUMPI PUSH1 0x20 CALLDATASIZE PUSH1 0x3 NOT ADD SLT PUSH2 0x1B7 JUMPI PUSH1 0x4 CALLDATALOAD PUSH8 0xFFFFFFFFFFFFFFFF DUP2 GT PUSH2 0x1B7 JUMPI PUSH2 0x84E SWAP1 CALLDATASIZE SWAP1 PUSH1 0x4 ADD PUSH2 0x1A9C JUMP JUMPDEST SWAP1 PUSH32 0x0 SWAP1 PUSH2 0x88F PUSH1 0x1 PUSH1 0x1 PUSH1 0xA0 SHL SUB DUP1 DUP5 AND CALLER EQ SWAP1 DUP2 ISZERO PUSH2 0x962 JUMPI JUMPDEST POP PUSH2 0x1DA4 JUMP JUMPDEST PUSH1 0x6 SLOAD SWAP1 PUSH1 0xFF DUP3 AND PUSH1 0x7 DUP2 LT ISZERO PUSH2 0x348 JUMPI PUSH1 0x1 PUSH2 0x8AC SWAP2 EQ PUSH2 0x1CA4 JUMP JUMPDEST PUSH1 0x4 SLOAD TIMESTAMP GT ISZERO PUSH2 0x92B JUMPI PUSH32 0x76B5660C2BD01BAE8E3DB371287BD828EE6A8A490398F7AC405273035E637973 SWAP3 PUSH1 0x6 PUSH2 0x907 SWAP4 PUSH1 0xFF NOT AND OR PUSH1 0x6 SSTORE PUSH1 0x9 SLOAD DUP1 PUSH2 0x90C JUMPI JUMPDEST POP POP PUSH1 0x40 MLOAD SWAP2 DUP3 SWAP2 PUSH1 0x20 DUP4 MSTORE CALLER SWAP6 PUSH1 0x20 DUP5 ADD SWAP2 PUSH2 0x1D13 JUMP JUMPDEST SUB SWAP1 LOG2 STOP JUMPDEST PUSH1 0x0 DUP1 DUP1 DUP1 SWAP4 PUSH2 0x924 SWAP6 DUP3 PUSH1 0x9 SSTORE GAS CALL PUSH2 0x67F PUSH2 0x1D74 JUMP JUMPDEST DUP5 DUP1 PUSH2 0x8EF JUMP JUMPDEST PUSH1 0x40 MLOAD PUSH3 0x461BCD PUSH1 0xE5 SHL DUP2 MSTORE PUSH1 0x20 PUSH1 0x4 DUP3 ADD MSTORE PUSH1 0xF PUSH1 0x24 DUP3 ADD MSTORE PUSH15 0x139BDD08195E1C1A5C9959081E595D PUSH1 0x8A SHL PUSH1 0x44 DUP3 ADD MSTORE PUSH1 0x64 SWAP1 REVERT JUMPDEST SWAP1 POP PUSH32 0x0 AND CALLER EQ DUP6 PUSH2 0x889 JUMP JUMPDEST CALLVALUE PUSH2 0x1B7 JUMPI PUSH1 0x0 CALLDATASIZE PUSH1 0x3 NOT ADD SLT PUSH2 0x1B7 JUMPI PUSH1 0x0 SLOAD PUSH1 0x40 MLOAD PUSH1 0x8 SWAP2 SWAP1 SWAP2 SHR PUSH1 0x1 PUSH1 0x1 PUSH1 0xA0 SHL SUB AND DUP2 MSTORE PUSH1 0x20 SWAP1 RETURN JUMPDEST CALLVALUE PUSH2 0x1B7 JUMPI PUSH1 0x0 CALLDATASIZE PUSH1 0x3 NOT ADD SLT PUSH2 0x1B7 JUMPI PUSH1 0x20 PUSH1 0x7 SLOAD PUSH1 0x40 MLOAD SWAP1 DUP2 MSTORE RETURN JUMPDEST CALLVALUE PUSH2 0x1B7 JUMPI PUSH1 0x20 CALLDATASIZE PUSH1 0x3 NOT ADD SLT PUSH2 0x1B7 JUMPI PUSH1 0x4 CALLDATALOAD PUSH1 0xFF PUSH1 0x6 SLOAD AND PUSH1 0x7 DUP2 LT ISZERO PUSH2 0x348 JUMPI PUSH1 0x1 PUSH2 0xA08 SWAP2 EQ PUSH2 0x1CA4 JUMP JUMPDEST PUSH2 0xA15 PUSH1 0x7 SLOAD DUP3 LT PUSH2 0x1D34 JUMP JUMPDEST PUSH2 0xA1E DUP2 PUSH2 0x1BE8 JUMP JUMPDEST POP PUSH1 0x2 DUP2 ADD DUP1 SLOAD PUSH1 0xFF DUP2 AND PUSH2 0xA66 JUMPI PUSH1 0x1 SWAP1 PUSH1 0xFF NOT AND OR SWAP1 SSTORE PUSH1 0x3 TIMESTAMP SWAP2 ADD SSTORE CALLER SWAP1 PUSH32 0x32F77B843A5CC848407FFB1E918C51FD6982FBFD1ADF0B60F45C6D7BB54068A PUSH1 0x0 DUP1 LOG3 STOP JUMPDEST PUSH1 0x40 MLOAD PUSH3 0x461BCD PUSH1 0xE5 SHL DUP2 MSTORE PUSH1 0x20 PUSH1 0x4 DUP3 ADD MSTORE PUSH1 0x11 PUSH1 0x24 DUP3 ADD MSTORE PUSH17 0x105B1C9958591E4818DBDB5C1B195D1959 PUSH1 0x7A SHL PUSH1 0x44 DUP3 ADD MSTORE PUSH1 0x64 SWAP1 REVERT JUMPDEST CALLVALUE PUSH2 0x1B7 JUMPI PUSH1 0x40 CALLDATASIZE PUSH1 0x3 NOT ADD SLT PUSH2 0x1B7 JUMPI PUSH8 0xFFFFFFFFFFFFFFFF PUSH1 0x4 CALLDATALOAD DUP2 DUP2 GT PUSH2 0x1B7 JUMPI PUSH2 0xAD1 SWAP1 CALLDATASIZE SWAP1 PUSH1 0x4 ADD PUSH2 0x1A9C JUMP JUMPDEST SWAP1 SWAP2 PUSH1 0xFF PUSH1 0x0 SLOAD AND PUSH2 0xE05 JUMPI PUSH2 0xAE5 PUSH2 0x1C38 JUMP JUMPDEST PUSH2 0xB19 CALLER PUSH32 0x0 PUSH1 0x1 PUSH1 0x1 PUSH1 0xA0 SHL SUB AND EQ PUSH2 0x1C68 JUMP JUMPDEST PUSH1 0xFF PUSH1 0x6 SLOAD AND PUSH1 0x7 DUP2 LT ISZERO PUSH2 0x348 JUMPI PUSH1 0x1 PUSH2 0xB34 SWAP2 EQ PUSH2 0x1CA4 JUMP JUMPDEST PUSH1 0x9 SLOAD PUSH1 0x24 CALLDATALOAD GT PUSH2 0xDC9 JUMPI PUSH1 0x40 MLOAD PUSH2 0xB4B DUP2 PUSH2 0x1B04 JUMP JUMPDEST PUSH2 0xB54 DUP4 PUSH2 0x1CDD JUMP JUMPDEST PUSH2 0xB61 PUSH1 0x40 MLOAD SWAP2 DUP3 PUSH2 0x1B20 JUMP JUMPDEST DUP4 DUP2 MSTORE CALLDATASIZE DUP5 DUP7 ADD GT PUSH2 0x1B7 JUMPI DUP4 DUP6 PUSH1 0x20 DUP4 ADD CALLDATACOPY PUSH1 0x0 PUSH1 0x20 DUP6 DUP4 ADD ADD MSTORE DUP2 MSTORE PUSH1 0x24 CALLDATALOAD PUSH1 0x20 DUP3 ADD MSTORE PUSH1 0x0 PUSH1 0x40 DUP3 ADD MSTORE PUSH1 0x0 PUSH1 0x60 DUP3 ADD MSTORE PUSH1 0x0 PUSH1 0x80 DUP3 ADD MSTORE PUSH1 0x7 SLOAD PUSH9 0x10000000000000000 DUP2 LT ISZERO PUSH2 0xD9D JUMPI DUP1 PUSH1 0x1 PUSH2 0xBC0 SWAP3 ADD PUSH1 0x7 SSTORE PUSH2 0x1BE8 JUMP JUMPDEST SWAP3 SWAP1 SWAP3 PUSH2 0xDB3 JUMPI DUP2 MLOAD DUP1 MLOAD SWAP2 DUP3 GT PUSH2 0xD9D JUMPI PUSH2 0xBDC DUP5 SLOAD PUSH2 0x1ACA JUMP JUMPDEST PUSH1 0x1F DUP2 GT PUSH2 0xD59 JUMPI JUMPDEST POP PUSH1 0x20 SWAP1 PUSH1 0x1F DUP4 GT PUSH1 0x1 EQ PUSH2 0xCEB JUMPI SWAP2 DUP1 PUSH1 0x3 SWAP5 SWAP3 PUSH1 0x80 SWAP5 PUSH1 0x0 SWAP3 PUSH2 0xCE0 JUMPI JUMPDEST POP POP DUP2 PUSH1 0x1 SHL SWAP2 PUSH1 0x0 NOT SWAP1 DUP7 SHL SHR NOT AND OR DUP5 SSTORE JUMPDEST PUSH1 0x20 DUP2 ADD MLOAD PUSH1 0x1 DUP6 ADD SSTORE PUSH1 0x2 DUP5 ADD PUSH1 0x40 DUP3 ADD MLOAD ISZERO ISZERO DUP2 SLOAD PUSH1 0xFF PUSH2 0xFF00 PUSH1 0x60 DUP7 ADD MLOAD ISZERO ISZERO PUSH1 0x8 SHL AND SWAP3 AND SWAP1 PUSH2 0xFFFF NOT AND OR OR SWAP1 SSTORE ADD MLOAD SWAP2 ADD SSTORE PUSH2 0xC5F PUSH1 0x24 CALLDATALOAD PUSH1 0x8 SLOAD PUSH2 0x1CF9 JUMP JUMPDEST PUSH1 0x8 SSTORE PUSH1 0x7 SLOAD PUSH1 0x0 NOT DUP2 ADD SWAP3 SWAP1 DUP4 GT PUSH2 0xCCA JUMPI PUSH32 0xBF293DB00F4DE65B181A066ECC2F8BB81FB7174B517FD8085700E259AD00DB1B SWAP2 PUSH2 0xCAB PUSH1 0x40 MLOAD SWAP3 DUP4 SWAP3 PUSH1 0x40 DUP5 MSTORE PUSH1 0x40 DUP5 ADD SWAP2 PUSH2 0x1D13 JUMP JUMPDEST PUSH1 0x24 CALLDATALOAD PUSH1 0x20 DUP4 ADD MSTORE SUB SWAP1 LOG2 PUSH1 0x1 PUSH1 0x0 DUP1 MLOAD PUSH1 0x20 PUSH2 0x1E7F DUP4 CODECOPY DUP2 MLOAD SWAP2 MSTORE SSTORE STOP JUMPDEST PUSH4 0x4E487B71 PUSH1 0xE0 SHL PUSH1 0x0 MSTORE PUSH1 0x11 PUSH1 0x4 MSTORE PUSH1 0x24 PUSH1 0x0 REVERT JUMPDEST ADD MLOAD SWAP1 POP DUP9 DUP1 PUSH2 0xC05 JUMP JUMPDEST SWAP1 DUP5 PUSH1 0x0 MSTORE PUSH1 0x20 PUSH1 0x0 KECCAK256 SWAP2 PUSH1 0x0 JUMPDEST PUSH1 0x1F NOT DUP6 AND DUP2 LT PUSH2 0xD41 JUMPI POP SWAP3 PUSH1 0x3 SWAP5 SWAP3 PUSH1 0x1 SWAP3 PUSH1 0x80 SWAP6 DUP4 PUSH1 0x1F NOT DUP2 AND LT PUSH2 0xD29 JUMPI JUMPDEST POP POP POP DUP2 SHL ADD DUP5 SSTORE PUSH2 0xC19 JUMP JUMPDEST ADD MLOAD PUSH1 0x0 NOT DUP4 DUP9 SHL PUSH1 0xF8 AND SHR NOT AND SWAP1 SSTORE DUP9 DUP1 DUP1 PUSH2 0xD1C JUMP JUMPDEST SWAP2 SWAP3 PUSH1 0x20 PUSH1 0x1 DUP2 SWAP3 DUP7 DUP6 ADD MLOAD DUP2 SSTORE ADD SWAP5 ADD SWAP3 ADD PUSH2 0xCF9 JUMP JUMPDEST DUP5 PUSH1 0x0 MSTORE PUSH1 0x20 PUSH1 0x0 KECCAK256 PUSH1 0x1F DUP5 ADD PUSH1 0x5 SHR DUP2 ADD PUSH1 0x20 DUP6 LT PUSH2 0xD96 JUMPI JUMPDEST PUSH1 0x1F DUP4 ADD PUSH1 0x5 SHR DUP3 ADD DUP2 LT PUSH2 0xD8A JUMPI POP POP PUSH2 0xBE5 JUMP JUMPDEST PUSH1 0x0 DUP2 SSTORE PUSH1 0x1 ADD PUSH2 0xD74 JUMP JUMPDEST POP DUP1 PUSH2 0xD74 JUMP JUMPDEST PUSH4 0x4E487B71 PUSH1 0xE0 SHL PUSH1 0x0 MSTORE PUSH1 0x41 PUSH1 0x4 MSTORE PUSH1 0x24 PUSH1 0x0 REVERT JUMPDEST PUSH4 0x4E487B71 PUSH1 0xE0 SHL PUSH1 0x0 MSTORE PUSH1 0x0 PUSH1 0x4 MSTORE PUSH1 0x24 PUSH1 0x0 REVERT JUMPDEST PUSH1 0x40 MLOAD PUSH3 0x461BCD PUSH1 0xE5 SHL DUP2 MSTORE PUSH1 0x20 PUSH1 0x4 DUP3 ADD MSTORE PUSH1 0x14 PUSH1 0x24 DUP3 ADD MSTORE PUSH20 0x496E73756666696369656E742062616C616E6365 PUSH1 0x60 SHL PUSH1 0x44 DUP3 ADD MSTORE PUSH1 0x64 SWAP1 REVERT JUMPDEST PUSH1 0x40 MLOAD PUSH4 0xAB35696F PUSH1 0xE0 SHL DUP2 MSTORE PUSH1 0x4 SWAP1 REVERT JUMPDEST CALLVALUE PUSH2 0x1B7 JUMPI PUSH1 0x0 CALLDATASIZE PUSH1 0x3 NOT ADD SLT PUSH2 0x1B7 JUMPI PUSH1 0x0 SLOAD PUSH1 0x8 DUP2 SWAP1 SHR PUSH1 0x1 PUSH1 0x1 PUSH1 0xA0 SHL SUB AND CALLER SUB PUSH2 0xE7E JUMPI PUSH1 0xFF DUP2 AND PUSH2 0xE05 JUMPI PUSH1 0x1 SWAP1 PUSH1 0xFF NOT AND OR PUSH1 0x0 SSTORE PUSH32 0x62E78CEA01BEE320CD4E420270B5EA74000D11B0C9F74754EBDBFC544B05A258 PUSH1 0x20 PUSH1 0x40 MLOAD CALLER DUP2 MSTORE LOG1 STOP JUMPDEST PUSH1 0x40 MLOAD PUSH4 0x492F6781 PUSH1 0xE0 SHL DUP2 MSTORE PUSH1 0x4 SWAP1 REVERT JUMPDEST CALLVALUE PUSH2 0x1B7 JUMPI PUSH1 0x0 CALLDATASIZE PUSH1 0x3 NOT ADD SLT PUSH2 0x1B7 JUMPI PUSH1 0xFF PUSH1 0x0 SLOAD AND PUSH2 0xE05 JUMPI PUSH2 0xEB3 PUSH2 0x1C38 JUMP JUMPDEST PUSH32 0x0 PUSH1 0x1 PUSH1 0x1 PUSH1 0xA0 SHL SUB AND CALLER DUP2 SWAP1 SUB PUSH2 0xFE6 JUMPI PUSH1 0xFF PUSH1 0x6 SLOAD AND PUSH1 0x7 DUP2 LT ISZERO PUSH2 0x348 JUMPI PUSH2 0xFB3 JUMPI PUSH1 0x4 SLOAD TIMESTAMP LT ISZERO PUSH2 0xF84 JUMPI DUP1 PUSH1 0x0 MSTORE PUSH1 0xC PUSH1 0x20 MSTORE PUSH1 0x1 PUSH1 0x40 PUSH1 0x0 KECCAK256 PUSH1 0xFF NOT SWAP1 DUP3 DUP3 DUP3 SLOAD AND OR SWAP1 SSTORE PUSH1 0x6 SLOAD AND OR PUSH1 0x6 SSTORE PUSH32 0x9F4A87E77DBAF5B55D5E6F62125B58988C5BEFB44FB876196DD62FFCA1362F21 PUSH1 0x0 DUP1 LOG2 PUSH32 0x47C82A599A82344A17A0B9FEFDA032175048E76D1D1BDF41E8BC686480FF204C PUSH1 0x0 DUP1 LOG1 PUSH1 0x1 PUSH1 0x0 DUP1 MLOAD PUSH1 0x20 PUSH2 0x1E7F DUP4 CODECOPY DUP2 MLOAD SWAP2 MSTORE SSTORE STOP JUMPDEST PUSH1 0x40 MLOAD PUSH3 0x461BCD PUSH1 0xE5 SHL DUP2 MSTORE PUSH1 0x20 PUSH1 0x4 DUP3 ADD MSTORE PUSH1 0x7 PUSH1 0x24 DUP3 ADD MSTORE PUSH7 0x115E1C1A5C9959 PUSH1 0xCA SHL PUSH1 0x44 DUP3 ADD MSTORE PUSH1 0x64 SWAP1 REVERT JUMPDEST PUSH1 0x40 MLOAD PUSH3 0x461BCD PUSH1 0xE5 SHL DUP2 MSTORE PUSH1 0x20 PUSH1 0x4 DUP3 ADD MSTORE PUSH1 0xB PUSH1 0x24 DUP3 ADD MSTORE PUSH11 0x4E6F742070656E64696E67 PUSH1 0xA8 SHL PUSH1 0x44 DUP3 ADD MSTORE PUSH1 0x64 SWAP1 REVERT JUMPDEST PUSH1 0x40 MLOAD PUSH3 0x461BCD PUSH1 0xE5 SHL DUP2 MSTORE PUSH1 0x20 PUSH1 0x4 DUP3 ADD MSTORE PUSH1 0x10 PUSH1 0x24 DUP3 ADD MSTORE PUSH16 0x4E6F7420636F756E7465727061727479 PUSH1 0x80 SHL PUSH1 0x44 DUP3 ADD MSTORE PUSH1 0x64 SWAP1 REVERT JUMPDEST CALLVALUE PUSH2 0x1B7 JUMPI PUSH1 0x0 CALLDATASIZE PUSH1 0x3 NOT ADD SLT PUSH2 0x1B7 JUMPI PUSH1 0x40 MLOAD PUSH1 0x0 PUSH1 0xF SLOAD PUSH2 0x1040 DUP2 PUSH2 0x1ACA JUMP JUMPDEST DUP1 DUP5 MSTORE SWAP1 PUSH1 0x1 SWAP1 DUP2 DUP2 AND SWAP1 DUP2 ISZERO PUSH2 0x10DD JUMPI POP PUSH1 0x1 EQ PUSH2 0x1082 JUMPI JUMPDEST PUSH2 0x107E DUP5 PUSH2 0x106A DUP2 DUP7 SUB DUP3 PUSH2 0x1B20 JUMP JUMPDEST PUSH1 0x40 MLOAD SWAP2 DUP3 SWAP2 PUSH1 0x20 DUP4 MSTORE PUSH1 0x20 DUP4 ADD SWAP1 PUSH2 0x1A5C JUMP JUMPDEST SUB SWAP1 RETURN JUMPDEST PUSH1 0xF PUSH1 0x0 SWAP1 DUP2 MSTORE SWAP3 POP PUSH32 0x8D1108E10BCB7C27DDDFC02ED9D693A074039D026CF4EA4240B40F7D581AC802 JUMPDEST DUP3 DUP5 LT PUSH2 0x10C5 JUMPI POP POP POP DUP2 ADD PUSH1 0x20 ADD PUSH2 0x106A DUP3 PUSH2 0x105A JUMP JUMPDEST DUP1 SLOAD PUSH1 0x20 DUP6 DUP8 ADD DUP2 ADD SWAP2 SWAP1 SWAP2 MSTORE SWAP1 SWAP4 ADD SWAP3 DUP2 ADD PUSH2 0x10AD JUMP JUMPDEST PUSH1 0xFF NOT AND PUSH1 0x20 DUP1 DUP8 ADD SWAP2 SWAP1 SWAP2 MSTORE SWAP3 ISZERO ISZERO PUSH1 0x5 SHL DUP6 ADD SWAP1 SWAP3 ADD SWAP3 POP PUSH2 0x106A SWAP2 POP DUP4 SWAP1 POP PUSH2 0x105A JUMP JUMPDEST CALLVALUE PUSH2 0x1B7 JUMPI PUSH1 0x20 DUP1 PUSH1 0x3 NOT CALLDATASIZE ADD SLT PUSH2 0x1B7 JUMPI PUSH8 0xFFFFFFFFFFFFFFFF PUSH1 0x4 CALLDATALOAD DUP2 DUP2 GT PUSH2 0x1B7 JUMPI PUSH2 0x1137 SWAP1 CALLDATASIZE SWAP1 PUSH1 0x4 ADD PUSH2 0x1A9C JUMP JUMPDEST SWAP3 SWAP1 PUSH1 0xFF PUSH1 0x0 SLOAD AND PUSH2 0xE05 JUMPI PUSH2 0x114B PUSH2 0x1C38 JUMP JUMPDEST PUSH2 0x1187 PUSH1 0x1 DUP1 PUSH1 0xA0 SHL SUB DUP1 PUSH32 0x0 AND CALLER EQ SWAP1 DUP2 ISZERO PUSH2 0x13A2 JUMPI POP PUSH2 0x1DA4 JUMP JUMPDEST PUSH1 0x6 SLOAD SWAP3 PUSH1 0xFF DUP5 AND SWAP4 PUSH1 0x7 DUP6 LT ISZERO PUSH2 0x348 JUMPI PUSH1 0x1 SWAP5 DUP6 DUP2 EQ SWAP1 DUP2 ISZERO PUSH2 0x1399 JUMPI JUMPDEST POP ISZERO PUSH2 0x1363 JUMPI PUSH1 0xFF NOT AND PUSH1 0x3 OR PUSH1 0x6 SSTORE DUP5 GT PUSH2 0xD9D JUMPI PUSH2 0x11C8 PUSH1 0xF SLOAD PUSH2 0x1ACA JUMP JUMPDEST PUSH1 0x1F DUP2 GT PUSH2 0x12FC JUMPI JUMPDEST POP PUSH1 0x0 SWAP4 PUSH1 0x1F DUP2 GT PUSH1 0x1 EQ PUSH2 0x125B JUMPI DUP1 PUSH32 0x28B099EB575E23E32BECD7C30DC8F9B2F98E370CDBF9841EA3338D9000402A25 SWAP4 SWAP5 SWAP6 PUSH1 0x0 SWAP2 PUSH2 0x1250 JUMPI JUMPDEST POP PUSH1 0x0 NOT PUSH1 0x3 DUP4 SWAP1 SHL SHR NOT AND DUP2 DUP7 SHL OR PUSH1 0xF SSTORE JUMPDEST TIMESTAMP PUSH1 0x10 SSTORE PUSH2 0x123B PUSH1 0x40 MLOAD SWAP3 DUP4 SWAP3 DUP7 DUP5 MSTORE CALLER SWAP7 DUP5 ADD SWAP2 PUSH2 0x1D13 JUMP JUMPDEST SUB SWAP1 LOG2 PUSH1 0x0 DUP1 MLOAD PUSH1 0x20 PUSH2 0x1E7F DUP4 CODECOPY DUP2 MLOAD SWAP2 MSTORE SSTORE STOP JUMPDEST SWAP1 POP DUP3 ADD CALLDATALOAD DUP7 PUSH2 0x120D JUMP JUMPDEST PUSH1 0x1F NOT DUP2 AND SWAP5 PUSH1 0xF PUSH1 0x0 MSTORE PUSH32 0x8D1108E10BCB7C27DDDFC02ED9D693A074039D026CF4EA4240B40F7D581AC802 SWAP1 PUSH1 0x0 JUMPDEST DUP8 DUP2 LT PUSH2 0x12E7 JUMPI POP DUP3 PUSH32 0x28B099EB575E23E32BECD7C30DC8F9B2F98E370CDBF9841EA3338D9000402A25 SWAP6 SWAP7 SWAP8 LT PUSH2 0x12CD JUMPI JUMPDEST POP POP DUP5 DUP2 DUP2 SHL ADD PUSH1 0xF SSTORE PUSH2 0x1221 JUMP JUMPDEST DUP4 ADD CALLDATALOAD PUSH1 0x0 NOT PUSH1 0x3 DUP5 SWAP1 SHL PUSH1 0xF8 AND SHR NOT AND SWAP1 SSTORE DUP6 DUP1 PUSH2 0x12BE JUMP JUMPDEST DUP5 DUP3 ADD CALLDATALOAD DUP4 SSTORE SWAP2 DUP7 ADD SWAP2 SWAP1 DUP6 ADD SWAP1 DUP6 ADD PUSH2 0x128B JUMP JUMPDEST PUSH1 0xF PUSH1 0x0 MSTORE PUSH32 0x8D1108E10BCB7C27DDDFC02ED9D693A074039D026CF4EA4240B40F7D581AC802 PUSH1 0x1F DUP7 ADD PUSH1 0x5 SHR DUP2 ADD SWAP2 DUP5 DUP8 LT PUSH2 0x1359 JUMPI JUMPDEST PUSH1 0x1F ADD PUSH1 0x5 SHR ADD SWAP1 DUP5 SWAP1 JUMPDEST DUP3 DUP2 LT PUSH2 0x134D JUMPI POP POP PUSH2 0x11D1 JUMP JUMPDEST PUSH1 0x0 DUP2 SSTORE ADD DUP5 SWAP1 PUSH2 0x133F JUMP JUMPDEST SWAP1 SWAP2 POP DUP2 SWAP1 PUSH2 0x1334 JUMP JUMPDEST PUSH1 0x40 MLOAD PUSH3 0x461BCD PUSH1 0xE5 SHL DUP2 MSTORE PUSH1 0x4 DUP2 ADD DUP6 SWAP1 MSTORE PUSH1 0xE PUSH1 0x24 DUP3 ADD MSTORE PUSH14 0x43616E6E6F742064697370757465 PUSH1 0x90 SHL PUSH1 0x44 DUP3 ADD MSTORE PUSH1 0x64 SWAP1 REVERT JUMPDEST SWAP1 POP ISZERO DUP8 PUSH2 0x11A7 JUMP JUMPDEST SWAP1 POP PUSH32 0x0 AND CALLER EQ DUP7 PUSH2 0x889 JUMP JUMPDEST CALLVALUE PUSH2 0x1B7 JUMPI PUSH1 0x20 DUP1 PUSH1 0x3 NOT CALLDATASIZE ADD SLT PUSH2 0x1B7 JUMPI PUSH1 0x4 CALLDATALOAD SWAP1 PUSH1 0xFF PUSH1 0x0 SLOAD AND PUSH2 0xE05 JUMPI PUSH2 0x13F6 PUSH2 0x1C38 JUMP JUMPDEST PUSH1 0x1 PUSH1 0x1 PUSH1 0xA0 SHL SUB PUSH2 0x142B CALLER PUSH32 0x0 DUP4 AND EQ PUSH2 0x1C68 JUMP JUMPDEST PUSH1 0xFF PUSH1 0x6 SLOAD AND PUSH1 0x7 DUP2 LT ISZERO PUSH2 0x348 JUMPI PUSH1 0x1 PUSH2 0x1446 SWAP2 EQ PUSH2 0x1CA4 JUMP JUMPDEST PUSH2 0x1453 PUSH1 0x7 SLOAD DUP5 LT PUSH2 0x1D34 JUMP JUMPDEST PUSH2 0x145C DUP4 PUSH2 0x1BE8 JUMP JUMPDEST POP PUSH1 0x2 DUP2 ADD DUP1 SLOAD PUSH1 0xFF DUP2 AND ISZERO PUSH2 0x1633 JUMPI PUSH1 0xFF DUP2 PUSH1 0x8 SHR AND PUSH2 0x15FF JUMPI PUSH2 0xFF00 NOT AND PUSH2 0x100 OR SWAP1 SSTORE PUSH1 0x1 ADD DUP1 SLOAD PUSH1 0x9 SLOAD PUSH2 0x1494 SWAP2 SWAP1 PUSH2 0x1D06 JUMP JUMPDEST PUSH1 0x9 SSTORE SLOAD PUSH1 0xB SLOAD DUP1 DUP3 MUL SWAP1 DUP3 DUP3 DIV EQ DUP3 ISZERO OR ISZERO PUSH2 0xCCA JUMPI PUSH1 0x0 DUP1 DUP1 SWAP4 PUSH2 0x14C0 PUSH2 0x2710 DUP4 SWAP6 DIV DUP1 SWAP3 PUSH2 0x1D06 JUMP JUMPDEST SWAP6 PUSH1 0xA SLOAD AND GAS CALL PUSH2 0x14CF PUSH2 0x1D74 JUMP JUMPDEST POP ISZERO PUSH2 0x15C4 JUMPI PUSH1 0x0 DUP1 DUP1 DUP1 DUP5 PUSH32 0x0 GAS CALL PUSH2 0x1506 PUSH2 0x1D74 JUMP JUMPDEST POP ISZERO PUSH2 0x158E JUMPI SWAP1 PUSH32 0x3AF368126E502ABC57FE61217A2E2FFC37E0753A9BC218AB9976A49A996E4449 SWAP2 PUSH1 0x40 MLOAD SWAP1 DUP2 MSTORE LOG2 PUSH2 0x153E PUSH2 0x1E39 JUMP JUMPDEST PUSH2 0x1557 JUMPI JUMPDEST PUSH1 0x1 PUSH1 0x0 DUP1 MLOAD PUSH1 0x20 PUSH2 0x1E7F DUP4 CODECOPY DUP2 MLOAD SWAP2 MSTORE SSTORE STOP JUMPDEST PUSH1 0x2 PUSH1 0xFF NOT PUSH1 0x6 SLOAD AND OR PUSH1 0x6 SSTORE PUSH32 0xBF1804DB3AF6B11F9D3CADCF0C65DF2BAD3A56D93C275062FDC655BEDF351F77 PUSH1 0x0 DUP1 LOG1 PUSH2 0x1543 JUMP JUMPDEST PUSH1 0x40 MLOAD PUSH3 0x461BCD PUSH1 0xE5 SHL DUP2 MSTORE PUSH1 0x4 DUP2 ADD DUP4 SWAP1 MSTORE PUSH1 0xE PUSH1 0x24 DUP3 ADD MSTORE PUSH14 0x14185E5B595B9D0819985A5B1959 PUSH1 0x92 SHL PUSH1 0x44 DUP3 ADD MSTORE PUSH1 0x64 SWAP1 REVERT JUMPDEST PUSH1 0x40 MLOAD PUSH3 0x461BCD PUSH1 0xE5 SHL DUP2 MSTORE PUSH1 0x4 DUP2 ADD DUP4 SWAP1 MSTORE PUSH1 0x13 PUSH1 0x24 DUP3 ADD MSTORE PUSH19 0x119959481D1C985B9CD9995C8819985A5B1959 PUSH1 0x6A SHL PUSH1 0x44 DUP3 ADD MSTORE PUSH1 0x64 SWAP1 REVERT JUMPDEST PUSH1 0x40 MLOAD PUSH3 0x461BCD PUSH1 0xE5 SHL DUP2 MSTORE PUSH1 0x4 DUP2 ADD DUP7 SWAP1 MSTORE PUSH1 0xC PUSH1 0x24 DUP3 ADD MSTORE PUSH12 0x105B1C9958591E481C185A59 PUSH1 0xA2 SHL PUSH1 0x44 DUP3 ADD MSTORE PUSH1 0x64 SWAP1 REVERT JUMPDEST PUSH1 0x40 MLOAD PUSH3 0x461BCD PUSH1 0xE5 SHL DUP2 MSTORE PUSH1 0x4 DUP2 ADD DUP7 SWAP1 MSTORE PUSH1 0xD PUSH1 0x24 DUP3 ADD MSTORE PUSH13 0x139BDD0818DBDB5C1B195D1959 PUSH1 0x9A SHL PUSH1 0x44 DUP3 ADD MSTORE PUSH1 0x64 SWAP1 REVERT JUMPDEST CALLVALUE PUSH2 0x1B7 JUMPI PUSH1 0x20 CALLDATASIZE PUSH1 0x3 NOT ADD SLT PUSH2 0x1B7 JUMPI PUSH1 0x4 CALLDATALOAD PUSH1 0x1 PUSH1 0x1 PUSH1 0xA0 SHL SUB DUP2 AND SWAP1 DUP2 SWAP1 SUB PUSH2 0x1B7 JUMPI PUSH1 0x0 MSTORE PUSH1 0xC PUSH1 0x20 MSTORE PUSH1 0x20 PUSH1 0xFF PUSH1 0x40 PUSH1 0x0 KECCAK256 SLOAD AND PUSH1 0x40 MLOAD SWAP1 ISZERO ISZERO DUP2 MSTORE RETURN JUMPDEST CALLVALUE PUSH2 0x1B7 JUMPI PUSH1 0x0 CALLDATASIZE PUSH1 0x3 NOT ADD SLT PUSH2 0x1B7 JUMPI PUSH1 0x20 PUSH1 0xFF PUSH1 0x0 SLOAD AND PUSH1 0x40 MLOAD SWAP1 ISZERO ISZERO DUP2 MSTORE RETURN JUMPDEST CALLVALUE PUSH2 0x1B7 JUMPI PUSH1 0x0 CALLDATASIZE PUSH1 0x3 NOT ADD SLT PUSH2 0x1B7 JUMPI PUSH1 0x40 MLOAD PUSH32 0x0 PUSH1 0x1 PUSH1 0x1 PUSH1 0xA0 SHL SUB AND DUP2 MSTORE PUSH1 0x20 SWAP1 RETURN JUMPDEST CALLVALUE PUSH2 0x1B7 JUMPI PUSH1 0x0 CALLDATASIZE PUSH1 0x3 NOT ADD SLT PUSH2 0x1B7 JUMPI PUSH1 0x20 PUSH1 0x8 SLOAD PUSH1 0x40 MLOAD SWAP1 DUP2 MSTORE RETURN JUMPDEST CALLVALUE PUSH2 0x1B7 JUMPI PUSH1 0x0 CALLDATASIZE PUSH1 0x3 NOT ADD SLT PUSH2 0x1B7 JUMPI PUSH1 0xA SLOAD PUSH1 0x40 MLOAD PUSH1 0x1 PUSH1 0x1 PUSH1 0xA0 SHL SUB SWAP1 SWAP2 AND DUP2 MSTORE PUSH1 0x20 SWAP1 RETURN JUMPDEST CALLVALUE PUSH2 0x1B7 JUMPI PUSH1 0x20 CALLDATASIZE PUSH1 0x3 NOT ADD SLT PUSH2 0x1B7 JUMPI PUSH1 0x1 PUSH1 0x1 PUSH1 0xA0 SHL SUB PUSH1 0x4 CALLDATALOAD DUP2 DUP2 AND SWAP2 DUP3 DUP3 SUB PUSH2 0x1B7 JUMPI PUSH1 0x0 SLOAD SWAP1 DUP2 PUSH1 0x8 SHR AND SWAP2 DUP3 CALLER SUB PUSH2 0xE7E JUMPI DUP4 ISZERO PUSH2 0x17E1 JUMPI PUSH2 0x100 PUSH1 0x1 PUSH1 0xA8 SHL SUB NOT SWAP1 SWAP2 AND PUSH1 0x8 SWAP2 SWAP1 SWAP2 SHL PUSH2 0x100 PUSH1 0x1 PUSH1 0xA8 SHL SUB AND OR PUSH1 0x0 SWAP1 DUP2 SSTORE PUSH32 0x51C4874E0F23F262E04A38C51751336DDE72126D67F53EB672AAFF02996B3EF6 SWAP1 DUP1 LOG3 STOP JUMPDEST PUSH1 0x40 MLOAD PUSH3 0x461BCD PUSH1 0xE5 SHL DUP2 MSTORE PUSH1 0x20 PUSH1 0x4 DUP3 ADD MSTORE PUSH1 0x16 PUSH1 0x24 DUP3 ADD MSTORE PUSH22 0x496E76616C6964207061757365722061646472657373 PUSH1 0x50 SHL PUSH1 0x44 DUP3 ADD MSTORE PUSH1 0x64 SWAP1 REVERT JUMPDEST CALLVALUE PUSH2 0x1B7 JUMPI PUSH1 0x0 CALLDATASIZE PUSH1 0x3 NOT ADD SLT PUSH2 0x1B7 JUMPI PUSH1 0x0 SLOAD PUSH1 0x8 DUP2 SWAP1 SHR PUSH1 0x1 PUSH1 0x1 PUSH1 0xA0 SHL SUB AND CALLER SUB PUSH2 0xE7E JUMPI PUSH1 0xFF DUP2 AND ISZERO PUSH2 0x1883 JUMPI PUSH1 0xFF NOT AND PUSH1 0x0 SSTORE PUSH32 0x5DB9EE0A495BF2E6FF9C91A7834C1BA4FDD244A5E8AA4E537BD38AEAE4B073AA PUSH1 0x20 PUSH1 0x40 MLOAD CALLER DUP2 MSTORE LOG1 STOP JUMPDEST PUSH1 0x40 MLOAD PUSH4 0xDCDDE9DD PUSH1 0xE0 SHL DUP2 MSTORE PUSH1 0x4 SWAP1 REVERT JUMPDEST CALLVALUE PUSH2 0x1B7 JUMPI PUSH1 0x20 CALLDATASIZE PUSH1 0x3 NOT ADD SLT PUSH2 0x1B7 JUMPI PUSH1 0x4 CALLDATALOAD PUSH1 0x1 PUSH1 0x1 PUSH1 0xA0 SHL SUB DUP2 AND SWAP1 DUP2 SWAP1 SUB PUSH2 0x1B7 JUMPI PUSH1 0x0 MSTORE PUSH1 0xD PUSH1 0x20 MSTORE PUSH1 0x20 PUSH1 0x40 PUSH1 0x0 KECCAK256 SLOAD PUSH1 0x40 MLOAD SWAP1 DUP2 MSTORE RETURN JUMPDEST CALLVALUE PUSH2 0x1B7 JUMPI PUSH1 0x0 CALLDATASIZE PUSH1 0x3 NOT ADD SLT PUSH2 0x1B7 JUMPI PUSH1 0x20 PUSH1 0xB SLOAD PUSH1 0x40 MLOAD SWAP1 DUP2 MSTORE RETURN JUMPDEST CALLVALUE PUSH2 0x1B7 JUMPI PUSH1 0x20 DUP1 PUSH1 0x3 NOT CALLDATASIZE ADD SLT PUSH2 0x1B7 JUMPI PUSH1 0x4 CALLDATALOAD SWAP1 PUSH1 0x0 PUSH1 0x80 PUSH1 0x40 MLOAD PUSH2 0x1917 DUP2 PUSH2 0x1B04 JUMP JUMPDEST PUSH1 0x60 DUP2 MSTORE DUP3 DUP5 DUP3 ADD MSTORE DUP3 PUSH1 0x40 DUP3 ADD MSTORE DUP3 PUSH1 0x60 DUP3 ADD MSTORE ADD MSTORE PUSH1 0x7 SLOAD DUP3 LT ISZERO PUSH2 0x19D2 JUMPI PUSH2 0x1943 PUSH1 0xA0 SWAP3 PUSH2 0x1BE8 JUMP JUMPDEST POP PUSH1 0x40 MLOAD SWAP2 PUSH2 0x1951 DUP4 PUSH2 0x1B04 JUMP JUMPDEST PUSH2 0x195A DUP3 PUSH2 0x1B42 JUMP JUMPDEST DUP4 MSTORE PUSH1 0x1 DUP3 ADD SLOAD SWAP2 DUP2 DUP5 ADD SWAP3 DUP4 MSTORE PUSH1 0x2 DUP2 ADD SLOAD SWAP1 PUSH2 0x19B1 PUSH1 0x3 PUSH1 0x40 DUP8 ADD SWAP3 PUSH1 0xFF DUP6 AND ISZERO ISZERO DUP5 MSTORE PUSH1 0xFF PUSH1 0x60 DUP10 ADD SWAP6 PUSH1 0x8 SHR AND ISZERO ISZERO DUP6 MSTORE ADD SLOAD SWAP4 PUSH1 0x80 DUP8 ADD SWAP5 DUP6 MSTORE PUSH1 0x40 MLOAD SWAP8 DUP9 SWAP8 DUP3 DUP10 MSTORE MLOAD SWAP2 DUP9 ADD MSTORE PUSH1 0xC0 DUP8 ADD SWAP1 PUSH2 0x1A5C JUMP JUMPDEST SWAP4 MLOAD PUSH1 0x40 DUP7 ADD MSTORE MLOAD ISZERO ISZERO PUSH1 0x60 DUP6 ADD MSTORE MLOAD ISZERO ISZERO PUSH1 0x80 DUP5 ADD MSTORE MLOAD PUSH1 0xA0 DUP4 ADD MSTORE SUB SWAP1 RETURN JUMPDEST PUSH1 0x64 SWAP1 PUSH1 0x40 MLOAD SWAP1 PUSH3 0x461BCD PUSH1 0xE5 SHL DUP3 MSTORE PUSH1 0x4 DUP3 ADD MSTORE PUSH1 0xD PUSH1 0x24 DUP3 ADD MSTORE PUSH13 0x92DCECC2D8D2C840D2DCC8CAF PUSH1 0x9B SHL PUSH1 0x44 DUP3 ADD MSTORE REVERT JUMPDEST CALLVALUE PUSH2 0x1B7 JUMPI PUSH1 0x0 CALLDATASIZE PUSH1 0x3 NOT ADD SLT PUSH2 0x1B7 JUMPI PUSH1 0xFF PUSH1 0x6 SLOAD AND PUSH1 0x7 DUP2 LT ISZERO PUSH2 0x348 JUMPI PUSH1 0x20 SWAP1 PUSH1 0x1 PUSH1 0x40 MLOAD SWAP2 EQ DUP2 MSTORE RETURN JUMPDEST CALLVALUE PUSH2 0x1B7 JUMPI PUSH1 0x0 CALLDATASIZE PUSH1 0x3 NOT ADD SLT PUSH2 0x1B7 JUMPI PUSH1 0xFF PUSH1 0x6 SLOAD AND SWAP1 PUSH1 0x7 DUP3 LT ISZERO PUSH2 0x348 JUMPI PUSH1 0x20 SWAP2 DUP2 MSTORE RETURN JUMPDEST SWAP2 SWAP1 DUP3 MLOAD SWAP3 DUP4 DUP3 MSTORE PUSH1 0x0 JUMPDEST DUP5 DUP2 LT PUSH2 0x1A88 JUMPI POP POP DUP3 PUSH1 0x0 PUSH1 0x20 DUP1 SWAP5 SWAP6 DUP5 ADD ADD MSTORE PUSH1 0x1F DUP1 NOT SWAP2 ADD AND ADD ADD SWAP1 JUMP JUMPDEST PUSH1 0x20 DUP2 DUP4 ADD DUP2 ADD MLOAD DUP5 DUP4 ADD DUP3 ADD MSTORE ADD PUSH2 0x1A67 JUMP JUMPDEST SWAP2 DUP2 PUSH1 0x1F DUP5 ADD SLT ISZERO PUSH2 0x1B7 JUMPI DUP3 CALLDATALOAD SWAP2 PUSH8 0xFFFFFFFFFFFFFFFF DUP4 GT PUSH2 0x1B7 JUMPI PUSH1 0x20 DUP4 DUP2 DUP7 ADD SWAP6 ADD ADD GT PUSH2 0x1B7 JUMPI JUMP JUMPDEST SWAP1 PUSH1 0x1 DUP3 DUP2 SHR SWAP3 AND DUP1 ISZERO PUSH2 0x1AFA JUMPI JUMPDEST PUSH1 0x20 DUP4 LT EQ PUSH2 0x1AE4 JUMPI JUMP JUMPDEST PUSH4 0x4E487B71 PUSH1 0xE0 SHL PUSH1 0x0 MSTORE PUSH1 0x22 PUSH1 0x4 MSTORE PUSH1 0x24 PUSH1 0x0 REVERT JUMPDEST SWAP2 PUSH1 0x7F AND SWAP2 PUSH2 0x1AD9 JUMP JUMPDEST PUSH1 0xA0 DUP2 ADD SWAP1 DUP2 LT PUSH8 0xFFFFFFFFFFFFFFFF DUP3 GT OR PUSH2 0xD9D JUMPI PUSH1 0x40 MSTORE JUMP JUMPDEST SWAP1 PUSH1 0x1F DUP1 NOT SWAP2 ADD AND DUP2 ADD SWAP1 DUP2 LT PUSH8 0xFFFFFFFFFFFFFFFF DUP3 GT OR PUSH2 0xD9D JUMPI PUSH1 0x40 MSTORE JUMP JUMPDEST SWAP1 PUSH1 0x40 MLOAD SWAP2 DUP3 PUSH1 0x0 DUP3 SLOAD SWAP3 PUSH2 0x1B56 DUP5 PUSH2 0x1ACA JUMP JUMPDEST SWAP1 DUP2 DUP5 MSTORE PUSH1 0x1 SWAP5 DUP6 DUP2 AND SWAP1 DUP2 PUSH1 0x0 EQ PUSH2 0x1BC5 JUMPI POP PUSH1 0x1 EQ PUSH2 0x1B82 JUMPI JUMPDEST POP POP PUSH2 0x1B80 SWAP3 POP SUB DUP4 PUSH2 0x1B20 JUMP JUMPDEST JUMP JUMPDEST SWAP1 SWAP4 SWAP2 POP PUSH1 0x0 MSTORE PUSH1 0x20 SWAP1 DUP2 PUSH1 0x0 KECCAK256 SWAP4 PUSH1 0x0 SWAP2 JUMPDEST DUP2 DUP4 LT PUSH2 0x1BAD JUMPI POP POP PUSH2 0x1B80 SWAP4 POP DUP3 ADD ADD CODESIZE DUP1 PUSH2 0x1B72 JUMP JUMPDEST DUP6 SLOAD DUP9 DUP5 ADD DUP6 ADD MSTORE SWAP5 DUP6 ADD SWAP5 DUP8 SWAP5 POP SWAP2 DUP4 ADD SWAP2 PUSH2 0x1B95 JUMP JUMPDEST SWAP2 POP POP PUSH2 0x1B80 SWAP5 POP PUSH1 0x20 SWAP3 POP PUSH1 0xFF NOT AND DUP3 DUP5 ADD MSTORE ISZERO ISZERO PUSH1 0x5 SHL DUP3 ADD ADD CODESIZE DUP1 PUSH2 0x1B72 JUMP JUMPDEST PUSH1 0x7 SLOAD DUP2 LT ISZERO PUSH2 0x1C22 JUMPI PUSH1 0x7 PUSH1 0x0 MSTORE PUSH1 0x2 SHL PUSH32 0xA66CC928B5EDB82AF9BD49922954155AB7B0942694BEA4CE44661D9A8736C688 ADD SWAP1 PUSH1 0x0 SWAP1 JUMP JUMPDEST PUSH4 0x4E487B71 PUSH1 0xE0 SHL PUSH1 0x0 MSTORE PUSH1 0x32 PUSH1 0x4 MSTORE PUSH1 0x24 PUSH1 0x0 REVERT JUMPDEST PUSH1 0x0 DUP1 MLOAD PUSH1 0x20 PUSH2 0x1E7F DUP4 CODECOPY DUP2 MLOAD SWAP2 MSTORE PUSH1 0x2 DUP2 SLOAD EQ PUSH2 0x1C56 JUMPI PUSH1 0x2 SWAP1 SSTORE JUMP JUMPDEST PUSH1 0x40 MLOAD PUSH4 0x3EE5AEB5 PUSH1 0xE0 SHL DUP2 MSTORE PUSH1 0x4 SWAP1 REVERT JUMPDEST ISZERO PUSH2 0x1C6F JUMPI JUMP JUMPDEST PUSH1 0x40 MLOAD PUSH3 0x461BCD PUSH1 0xE5 SHL DUP2 MSTORE PUSH1 0x20 PUSH1 0x4 DUP3 ADD MSTORE PUSH1 0xD PUSH1 0x24 DUP3 ADD MSTORE PUSH13 0x2737BA1034B734BA34B0BA37B9 PUSH1 0x99 SHL PUSH1 0x44 DUP3 ADD MSTORE PUSH1 0x64 SWAP1 REVERT JUMPDEST ISZERO PUSH2 0x1CAB JUMPI JUMP JUMPDEST PUSH1 0x40 MLOAD PUSH3 0x461BCD PUSH1 0xE5 SHL DUP2 MSTORE PUSH1 0x20 PUSH1 0x4 DUP3 ADD MSTORE PUSH1 0xA PUSH1 0x24 DUP3 ADD MSTORE PUSH10 0x4E6F7420616374697665 PUSH1 0xB0 SHL PUSH1 0x44 DUP3 ADD MSTORE PUSH1 0x64 SWAP1 REVERT JUMPDEST PUSH8 0xFFFFFFFFFFFFFFFF DUP2 GT PUSH2 0xD9D JUMPI PUSH1 0x1F ADD PUSH1 0x1F NOT AND PUSH1 0x20 ADD SWAP1 JUMP JUMPDEST SWAP2 SWAP1 DUP3 ADD DUP1 SWAP3 GT PUSH2 0xCCA JUMPI JUMP JUMPDEST SWAP2 SWAP1 DUP3 SUB SWAP2 DUP3 GT PUSH2 0xCCA JUMPI JUMP JUMPDEST SWAP1 DUP1 PUSH1 0x20 SWAP4 SWAP3 DUP2 DUP5 MSTORE DUP5 DUP5 ADD CALLDATACOPY PUSH1 0x0 DUP3 DUP3 ADD DUP5 ADD MSTORE PUSH1 0x1F ADD PUSH1 0x1F NOT AND ADD ADD SWAP1 JUMP JUMPDEST ISZERO PUSH2 0x1D3B JUMPI JUMP JUMPDEST PUSH1 0x40 MLOAD PUSH3 0x461BCD PUSH1 0xE5 SHL DUP2 MSTORE PUSH1 0x20 PUSH1 0x4 DUP3 ADD MSTORE PUSH1 0x11 PUSH1 0x24 DUP3 ADD MSTORE PUSH17 0x496E76616C6964206D696C6573746F6E65 PUSH1 0x78 SHL PUSH1 0x44 DUP3 ADD MSTORE PUSH1 0x64 SWAP1 REVERT JUMPDEST RETURNDATASIZE ISZERO PUSH2 0x1D9F JUMPI RETURNDATASIZE SWAP1 PUSH2 0x1D85 DUP3 PUSH2 0x1CDD JUMP JUMPDEST SWAP2 PUSH2 0x1D93 PUSH1 0x40 MLOAD SWAP4 DUP5 PUSH2 0x1B20 JUMP JUMPDEST DUP3 MSTORE RETURNDATASIZE PUSH1 0x0 PUSH1 0x20 DUP5 ADD RETURNDATACOPY JUMP JUMPDEST PUSH1 0x60 SWAP1 JUMP JUMPDEST ISZERO PUSH2 0x1DAB JUMPI JUMP JUMPDEST PUSH1 0x40 MLOAD PUSH3 0x461BCD PUSH1 0xE5 SHL DUP2 MSTORE PUSH1 0x20 PUSH1 0x4 DUP3 ADD MSTORE PUSH1 0xB PUSH1 0x24 DUP3 ADD MSTORE PUSH11 0x4E6F742061207061727479 PUSH1 0xA8 SHL PUSH1 0x44 DUP3 ADD MSTORE PUSH1 0x64 SWAP1 REVERT JUMPDEST ISZERO PUSH2 0x1DE5 JUMPI JUMP JUMPDEST PUSH1 0x40 MLOAD PUSH3 0x461BCD PUSH1 0xE5 SHL DUP2 MSTORE PUSH1 0x20 PUSH1 0x4 DUP3 ADD MSTORE PUSH1 0xD PUSH1 0x24 DUP3 ADD MSTORE PUSH13 0x1499599D5B990819985A5B1959 PUSH1 0x9A SHL PUSH1 0x44 DUP3 ADD MSTORE PUSH1 0x64 SWAP1 REVERT JUMPDEST PUSH1 0x4 SLOAD DUP1 TIMESTAMP LT ISZERO PUSH2 0x1E33 JUMPI PUSH2 0x1E30 SWAP1 TIMESTAMP SWAP1 PUSH2 0x1D06 JUMP JUMPDEST SWAP1 JUMP JUMPDEST POP PUSH1 0x0 SWAP1 JUMP JUMPDEST PUSH1 0x7 SLOAD PUSH1 0x0 JUMPDEST DUP2 DUP2 LT PUSH2 0x1E4D JUMPI POP POP PUSH1 0x1 SWAP1 JUMP JUMPDEST PUSH1 0xFF PUSH1 0x2 PUSH2 0x1E5A DUP4 PUSH2 0x1BE8 JUMP JUMPDEST POP ADD SLOAD PUSH1 0x8 SHR AND ISZERO PUSH2 0x1E77 JUMPI PUSH1 0x0 NOT DUP2 EQ PUSH2 0xCCA JUMPI PUSH1 0x1 ADD PUSH2 0x1E3F JUMP JUMPDEST POP POP PUSH1 0x0 SWAP1 JUMP INVALID SWAP12 PUSH24 0x9B17422D0DF92223018B32B4D1FA46E071723D6817E2486D STOP EXTCODESIZE 0xEC 0xC5 PUSH0 STOP LOG2 PUSH5 0x6970667358 0x22 SLT KECCAK256 0xB8 PUSH1 0x77 SWAP4 0x4D LOG4 COINBASE CALLDATASIZE NOT PUSH12 0x85D13963E1E2ED2FC37EB798 PUSH20 0x992DBE28A5B7AE0C8264736F6C63430008140033 LOG2 PUSH5 0x6970667358 0x22 SLT KECCAK256 0xA9 PUSH14 0x7C6E49F9DB32AD1518112E0BE877 CREATE GT JUMPI 0xEA DELEGATECALL SLOAD ADDRESS 0xDA 0xFC SLOAD 0x5E 0xD8 0x5D 0xE3 MSTORE8 PUSH30 0x64736F6C6343000814003300000000000000000000000000000000000000 "},"methodIdentifiers":{"agentPairToCovenant(bytes32)":"5d7a9d07","covenantCreationTime(address)":"d565d169","covenantExists(address,address)":"3ba85859","covenants(uint256)":"28f4ca31","createCovenant(address,bytes32,string,uint256)":"92d5388e","feeRecipient()":"46904840","getCovenantCount()":"ea50eb03","getCovenants(uint256,uint256)":"d9516baa","minimumStake()":"ec5ffac2","owner()":"8da5cb5b","pause()":"8456cb59","paused()":"5c975abb","pauser()":"9fd0506d","protocolFeeBps()":"35659fb8","setFeeRecipient(address)":"e74b981b","setMinimumStake(uint256)":"233e9903","setProtocolFee(uint256)":"787dce3d","transferOwnership(address)":"f2fde38b","transferPauser(address)":"4421ea21","unpause()":"3f4ba83a"}}}}}