{"contracts/TaskMarket.sol":{"TaskMarket":{"abi":[{"inputs":[{"internalType":"address","name":"_feeRecipient","type":"address"}],"stateMutability":"nonpayable","type":"constructor"},{"inputs":[],"name":"ContractNotPaused","type":"error"},{"inputs":[],"name":"ContractPaused","type":"error"},{"inputs":[],"name":"NotPauser","type":"error"},{"inputs":[],"name":"ReentrancyGuardReentrantCall","type":"error"},{"anonymous":false,"inputs":[{"indexed":true,"internalType":"uint256","name":"taskId","type":"uint256"},{"indexed":true,"internalType":"address","name":"bidder","type":"address"},{"indexed":false,"internalType":"uint256","name":"amount","type":"uint256"}],"name":"BidAccepted","type":"event"},{"anonymous":false,"inputs":[{"indexed":true,"internalType":"uint256","name":"taskId","type":"uint256"},{"indexed":true,"internalType":"address","name":"bidder","type":"address"},{"indexed":false,"internalType":"uint256","name":"amount","type":"uint256"},{"indexed":false,"internalType":"uint256","name":"estimatedTime","type":"uint256"}],"name":"BidSubmitted","type":"event"},{"anonymous":false,"inputs":[{"indexed":false,"internalType":"address","name":"account","type":"address"}],"name":"Paused","type":"event"},{"anonymous":false,"inputs":[{"indexed":true,"internalType":"address","name":"previousPauser","type":"address"},{"indexed":true,"internalType":"address","name":"newPauser","type":"address"}],"name":"PauserTransferred","type":"event"},{"anonymous":false,"inputs":[{"indexed":true,"internalType":"address","name":"agent","type":"address"},{"indexed":false,"internalType":"uint256","name":"newScore","type":"uint256"}],"name":"ReputationUpdated","type":"event"},{"anonymous":false,"inputs":[{"indexed":true,"internalType":"uint256","name":"taskId","type":"uint256"},{"indexed":true,"internalType":"address","name":"worker","type":"address"},{"indexed":false,"internalType":"uint256","name":"payment","type":"uint256"}],"name":"TaskApproved","type":"event"},{"anonymous":false,"inputs":[{"indexed":true,"internalType":"uint256","name":"taskId","type":"uint256"},{"indexed":false,"internalType":"uint256","name":"refundAmount","type":"uint256"}],"name":"TaskCancelled","type":"event"},{"anonymous":false,"inputs":[{"indexed":true,"internalType":"uint256","name":"taskId","type":"uint256"},{"indexed":true,"internalType":"address","name":"by","type":"address"},{"indexed":false,"internalType":"string","name":"reason","type":"string"}],"name":"TaskDisputed","type":"event"},{"anonymous":false,"inputs":[{"indexed":true,"internalType":"uint256","name":"taskId","type":"uint256"},{"indexed":true,"internalType":"address","name":"poster","type":"address"},{"indexed":false,"internalType":"string","name":"title","type":"string"},{"indexed":false,"internalType":"uint256","name":"reward","type":"uint256"},{"indexed":false,"internalType":"enum TaskMarket.TaskPriority","name":"priority","type":"uint8"},{"indexed":false,"internalType":"uint256","name":"deadline","type":"uint256"}],"name":"TaskPosted","type":"event"},{"anonymous":false,"inputs":[{"indexed":false,"internalType":"address","name":"account","type":"address"}],"name":"Unpaused","type":"event"},{"anonymous":false,"inputs":[{"indexed":true,"internalType":"uint256","name":"taskId","type":"uint256"},{"indexed":true,"internalType":"address","name":"worker","type":"address"},{"indexed":false,"internalType":"string","name":"resultIPFS","type":"string"}],"name":"WorkCompleted","type":"event"},{"anonymous":false,"inputs":[{"indexed":true,"internalType":"uint256","name":"taskId","type":"uint256"},{"indexed":true,"internalType":"address","name":"worker","type":"address"}],"name":"WorkStarted","type":"event"},{"inputs":[{"internalType":"uint256","name":"_taskId","type":"uint256"},{"internalType":"uint256","name":"_bidIndex","type":"uint256"}],"name":"acceptBid","outputs":[],"stateMutability":"nonpayable","type":"function"},{"inputs":[{"internalType":"address","name":"","type":"address"}],"name":"agentCompletedTasks","outputs":[{"internalType":"uint256","name":"","type":"uint256"}],"stateMutability":"view","type":"function"},{"inputs":[{"internalType":"address","name":"","type":"address"}],"name":"agentReputation","outputs":[{"internalType":"uint256","name":"","type":"uint256"}],"stateMutability":"view","type":"function"},{"inputs":[{"internalType":"address","name":"","type":"address"},{"internalType":"uint256","name":"","type":"uint256"}],"name":"agentTasks","outputs":[{"internalType":"uint256","name":"","type":"uint256"}],"stateMutability":"view","type":"function"},{"inputs":[{"internalType":"address","name":"","type":"address"}],"name":"agentTotalEarnings","outputs":[{"internalType":"uint256","name":"","type":"uint256"}],"stateMutability":"view","type":"function"},{"inputs":[{"internalType":"uint256","name":"_taskId","type":"uint256"}],"name":"approveWork","outputs":[],"stateMutability":"nonpayable","type":"function"},{"inputs":[{"internalType":"uint256","name":"_taskId","type":"uint256"},{"internalType":"uint256","name":"_amount","type":"uint256"},{"internalType":"uint256","name":"_estimatedTime","type":"uint256"},{"internalType":"string","name":"_proposalIPFS","type":"string"}],"name":"bidOnTask","outputs":[],"stateMutability":"nonpayable","type":"function"},{"inputs":[{"internalType":"uint256","name":"_taskId","type":"uint256"}],"name":"cancelTask","outputs":[],"stateMutability":"nonpayable","type":"function"},{"inputs":[],"name":"cancellationFeeBps","outputs":[{"internalType":"uint256","name":"","type":"uint256"}],"stateMutability":"view","type":"function"},{"inputs":[{"internalType":"uint256","name":"_taskId","type":"uint256"},{"internalType":"string","name":"_reason","type":"string"}],"name":"disputeTask","outputs":[],"stateMutability":"nonpayable","type":"function"},{"inputs":[],"name":"feeRecipient","outputs":[{"internalType":"address","name":"","type":"address"}],"stateMutability":"view","type":"function"},{"inputs":[{"internalType":"address","name":"_agent","type":"address"}],"name":"getAgentStats","outputs":[{"internalType":"uint256","name":"reputation","type":"uint256"},{"internalType":"uint256","name":"completed","type":"uint256"},{"internalType":"uint256","name":"earnings","type":"uint256"}],"stateMutability":"view","type":"function"},{"inputs":[{"internalType":"address","name":"_agent","type":"address"}],"name":"getAgentTasks","outputs":[{"internalType":"uint256[]","name":"","type":"uint256[]"}],"stateMutability":"view","type":"function"},{"inputs":[{"internalType":"uint256","name":"_taskId","type":"uint256"}],"name":"getBidCount","outputs":[{"internalType":"uint256","name":"","type":"uint256"}],"stateMutability":"view","type":"function"},{"inputs":[{"internalType":"uint256","name":"_taskId","type":"uint256"}],"name":"getBids","outputs":[{"components":[{"internalType":"address","name":"bidder","type":"address"},{"internalType":"uint256","name":"amount","type":"uint256"},{"internalType":"uint256","name":"estimatedTime","type":"uint256"},{"internalType":"string","name":"proposalIPFS","type":"string"},{"internalType":"uint256","name":"reputation","type":"uint256"},{"internalType":"uint256","name":"timestamp","type":"uint256"},{"internalType":"bool","name":"accepted","type":"bool"}],"internalType":"struct TaskMarket.Bid[]","name":"","type":"tuple[]"}],"stateMutability":"view","type":"function"},{"inputs":[{"internalType":"uint256","name":"_offset","type":"uint256"},{"internalType":"uint256","name":"_limit","type":"uint256"}],"name":"getOpenTasks","outputs":[{"internalType":"uint256[]","name":"","type":"uint256[]"}],"stateMutability":"view","type":"function"},{"inputs":[{"internalType":"uint256","name":"_taskId","type":"uint256"}],"name":"getTask","outputs":[{"components":[{"internalType":"uint256","name":"id","type":"uint256"},{"internalType":"address","name":"poster","type":"address"},{"internalType":"string","name":"title","type":"string"},{"internalType":"string","name":"description","type":"string"},{"internalType":"string","name":"requirementsIPFS","type":"string"},{"internalType":"uint256","name":"reward","type":"uint256"},{"internalType":"uint256","name":"collateral","type":"uint256"},{"internalType":"enum TaskMarket.TaskPriority","name":"priority","type":"uint8"},{"internalType":"enum TaskMarket.TaskStatus","name":"status","type":"uint8"},{"internalType":"uint256","name":"createdAt","type":"uint256"},{"internalType":"uint256","name":"deadline","type":"uint256"},{"internalType":"address","name":"assignedTo","type":"address"},{"internalType":"string","name":"resultIPFS","type":"string"},{"internalType":"uint256","name":"completedAt","type":"uint256"}],"internalType":"struct TaskMarket.Task","name":"","type":"tuple"}],"stateMutability":"view","type":"function"},{"inputs":[],"name":"minimumReward","outputs":[{"internalType":"uint256","name":"","type":"uint256"}],"stateMutability":"view","type":"function"},{"inputs":[],"name":"nextTaskId","outputs":[{"internalType":"uint256","name":"","type":"uint256"}],"stateMutability":"view","type":"function"},{"inputs":[],"name":"pause","outputs":[],"stateMutability":"nonpayable","type":"function"},{"inputs":[],"name":"paused","outputs":[{"internalType":"bool","name":"","type":"bool"}],"stateMutability":"view","type":"function"},{"inputs":[],"name":"pauser","outputs":[{"internalType":"address","name":"","type":"address"}],"stateMutability":"view","type":"function"},{"inputs":[{"internalType":"string","name":"_title","type":"string"},{"internalType":"string","name":"_description","type":"string"},{"internalType":"string","name":"_requirementsIPFS","type":"string"},{"internalType":"uint256","name":"_reward","type":"uint256"},{"internalType":"enum TaskMarket.TaskPriority","name":"_priority","type":"uint8"}],"name":"postTask","outputs":[{"internalType":"uint256","name":"taskId","type":"uint256"}],"stateMutability":"payable","type":"function"},{"inputs":[],"name":"protocolFeeBps","outputs":[{"internalType":"uint256","name":"","type":"uint256"}],"stateMutability":"view","type":"function"},{"inputs":[{"internalType":"uint256","name":"_taskId","type":"uint256"}],"name":"startWork","outputs":[],"stateMutability":"nonpayable","type":"function"},{"inputs":[{"internalType":"uint256","name":"_taskId","type":"uint256"},{"internalType":"string","name":"_resultIPFS","type":"string"}],"name":"submitWork","outputs":[],"stateMutability":"nonpayable","type":"function"},{"inputs":[{"internalType":"uint256","name":"","type":"uint256"},{"internalType":"uint256","name":"","type":"uint256"}],"name":"taskBids","outputs":[{"internalType":"address","name":"bidder","type":"address"},{"internalType":"uint256","name":"amount","type":"uint256"},{"internalType":"uint256","name":"estimatedTime","type":"uint256"},{"internalType":"string","name":"proposalIPFS","type":"string"},{"internalType":"uint256","name":"reputation","type":"uint256"},{"internalType":"uint256","name":"timestamp","type":"uint256"},{"internalType":"bool","name":"accepted","type":"bool"}],"stateMutability":"view","type":"function"},{"inputs":[{"internalType":"uint256","name":"","type":"uint256"}],"name":"tasks","outputs":[{"internalType":"uint256","name":"id","type":"uint256"},{"internalType":"address","name":"poster","type":"address"},{"internalType":"string","name":"title","type":"string"},{"internalType":"string","name":"description","type":"string"},{"internalType":"string","name":"requirementsIPFS","type":"string"},{"internalType":"uint256","name":"reward","type":"uint256"},{"internalType":"uint256","name":"collateral","type":"uint256"},{"internalType":"enum TaskMarket.TaskPriority","name":"priority","type":"uint8"},{"internalType":"enum TaskMarket.TaskStatus","name":"status","type":"uint8"},{"internalType":"uint256","name":"createdAt","type":"uint256"},{"internalType":"uint256","name":"deadline","type":"uint256"},{"internalType":"address","name":"assignedTo","type":"address"},{"internalType":"string","name":"resultIPFS","type":"string"},{"internalType":"uint256","name":"completedAt","type":"uint256"}],"stateMutability":"view","type":"function"},{"inputs":[],"name":"totalFeesCollected","outputs":[{"internalType":"uint256","name":"","type":"uint256"}],"stateMutability":"view","type":"function"},{"inputs":[],"name":"totalTasksCompleted","outputs":[{"internalType":"uint256","name":"","type":"uint256"}],"stateMutability":"view","type":"function"},{"inputs":[],"name":"totalTasksPosted","outputs":[{"internalType":"uint256","name":"","type":"uint256"}],"stateMutability":"view","type":"function"},{"inputs":[],"name":"totalValueLocked","outputs":[{"internalType":"uint256","name":"","type":"uint256"}],"stateMutability":"view","type":"function"},{"inputs":[{"internalType":"address","name":"newPauser","type":"address"}],"name":"transferPauser","outputs":[],"stateMutability":"nonpayable","type":"function"},{"inputs":[],"name":"unpause","outputs":[],"stateMutability":"nonpayable","type":"function"},{"stateMutability":"payable","type":"receive"}],"evm":{"bytecode":{"linkReferences":{},"object":"6080346100d757601f612a6f38819003918201601f19168301916001600160401b038311848410176100dc578084926020946040528339810103126100d757516001600160a01b038116908190036100d75760017f9b779b17422d0df92223018b32b4d1fa46e071723d6817e2486d003becc55f0081905560008054610100600160a81b03191633600890811b610100600160a81b03169190911790915590805560fa60095566038d7ea4c68000600a556101f4600b5580546001600160a01b03191691909117905560405161297c90816100f38239f35b600080fd5b634e487b7160e01b600052604160045260246000fdfe6080604052600436101561001b575b361561001957600080fd5b005b60003560e01c806302e9d5e41461023b57806303a250f91461023657806309529dc114610231578063108ab45e1461022c578063131d9a2714610227578063164bcc26146102225780631d65e77e1461021d5780632b42900a1461021857806335659fb8146102135780633d01e0fa1461020e5780633f4ba83a146102095780634421ea211461020457806346904840146101ff5780634bddd209146101fa5780635492b197146101f557806354de6e32146101f05780635c975abb146101eb57806360c6d8ae146101e6578063611f364a146101e1578063670ad782146101dc57806370efdfb1146101d7578063744d3411146101d25780637eec20a8146101cd578063803a29da146101c8578063813f8dc1146101c35780638456cb59146101be5780638d977672146101b957806395305683146101b45780639fd0506d146101af578063b5695b38146101aa578063d8ea6821146101a5578063da8accf9146101a0578063ec18154e1461019b5763fdc3d8d70361000e57611bc2565b611ba4565b611ae7565b611a63565b611a08565b6119db565b6119bd565b611903565b6117e0565b6117c2565b611732565b6115e1565b6115b5565b61157b565b611523565b6114ed565b6114cf565b6114ac565b611472565b6113f5565b61110f565b6110b2565b610fec565b610f61565b610c7d565b610c5f565b610a6c565b610999565b61076a565b610645565b610535565b6104fb565b610433565b3461042e57604036600319011261042e5760043560243560009160ff83541661041c57610266612211565b808352600260205261027d60408420541515612241565b80835260026020527f91a721693afff25f233ac308edbd2fa15ad7d4dfacdd164dd4e8c57ab72f4ae960018060a01b036102c1816001604088200154163314612468565b6103ee6102d8846000526002602052604060002090565b9461039f61033d60078801926103056102f6855460ff9060081c1690565b6102ff8161088a565b1561227e565b61032461031c896000526003602052604060002090565b5482106124a1565b610338886000526003602052604060002090565b61123a565b509161036d6006840161036061035b610357835460ff1690565b1590565b6124db565b805460ff19166001179055565b8254600a890180546001600160a01b0319166001600160a01b03909216919091179055805461ff001916610100179055565b6001810195600587549101556103e1856103dc6103c2845460018060a01b031690565b6001600160a01b0316600090815260046020526040902090565b61218a565b546001600160a01b031690565b935460405190815293169280602081015b0390a3610419600160008051602061292783398151915255565b80f35b60405163ab35696f60e01b8152600490fd5b600080fd5b3461042e57602036600319011261042e57600435600090808252600260205261046160408320541515612241565b808252600260205260076040832061048660018060a01b03600a83015416331461251a565b0160ff815460081c169060078210156104e0576104a860016104b7931461251a565b805461ff001916610200179055565b33907f4883666eff4707b2212b9bf824c3a2c47933345113365d6229f5ed21336049498380a380f35b61085d565b600435906001600160a01b038216820361042e57565b3461042e57602036600319011261042e576001600160a01b0361051c6104e5565b1660005260076020526020604060002054604051908152f35b3461042e57600036600319011261042e576020600d54604051908152f35b919082519283825260005b84811061057f575050826000602080949584010152601f8019910116010190565b60208183018101518483018201520161055e565b602080820190808352835180925260409283810182858560051b8401019601946000925b8584106105c8575050505050505090565b909192939495968580600192603f198582030187528a5190848060a01b038251168152828201518382015286820151878201526106146060808401519060e08091850152830190610553565b916080808201519083015260a0808201519083015260c08091015115159101529901940194019295949391906105b7565b3461042e5760208060031936011261042e576004803560005260038083526040928360002090815492610677846128fa565b94610684875196876112e9565b8486526000938452828420918387015b8686106106ac578851806106a88a82610593565b0390f35b6007856001928b516106bd816112ab565b875460a086901b869003166001600160a01b03168152848801548382015260028801548d8201526106ef86890161130b565b6060820152868801546080820152600588015460a082015261072161071860068a015460ff1690565b151560c0830152565b815201940195019492610694565b6020908160408183019282815285518094520193019160005b828110610756575050505090565b835185529381019392810192600101610748565b3461042e57604036600319011261042e5760243560043561078a826128fa565b9061079860405192836112e9565b828252601f196107a7846128fa565b0136602084013760009260019182810180911161085857825490835b6107d9575b858552604051806106a8878261072f565b8181108061084f575b1561084a5761080b6007610800836000526002602052604060002090565b015460081c60ff1690565b6108148161088a565b15610829575b61082390611e5b565b836107c3565b94610842818761083c6108239489612912565b52611e5b565b95905061081a565b6107c8565b508286106107e2565b611e45565b634e487b7160e01b600052602160045260246000fd5b600411156104e057565b9060048210156104e05752565b600711156104e057565b9060078210156104e05752565b60208082528251828201528201516001600160a01b0316604082015260408201516108da6101c0918260608501526101e0840190610553565b6109906109106108fc606087015193601f199485888303016080890152610553565b6080870151848783030160a0880152610553565b60a086015160c086015260c086015160e086015260e0860151610939610100918288019061087d565b86015161094c6101209182880190610894565b8601516101409081870152860151610160908187015286015161097c610180918288019060018060a01b03169052565b8601516101a0938683030184870152610553565b93015191015290565b3461042e57602036600319011261042e576040516109b6816112cc565b6101a060009182815282602082015260606040820152606080820152606060808201528260a08201528260c08201528260e082015282610100820152826101208201528261014082015282610160820152606061018082015201526106a8610a32610a2d6004356000526002602052604060002090565b612823565b604051918291826108a1565b9181601f8401121561042e5782359167ffffffffffffffff831161042e576020838186019501011161042e57565b3461042e57608036600319011261042e5760443560243560043560643567ffffffffffffffff811161042e57610aa6903690600401610a3e565b6000949160ff86541661041c57610abb612211565b8386526002602052610ad260408720541515612241565b610ae6846000526002602052604060002090565b6007810154610afa9060081c60ff166102f6565b610b09600982015442106122b5565b610b1960058201548711156122f3565b600190810154610b4590610b3d906001600160a01b03165b6001600160a01b031690565b331415612334565b86815b610bf7575b50503360009081526005602052604090207f71a5674c44b823bc0df08201dfeb2e8bdf698cd684fd2bbaa79adcf2c99fc186936103ff939092610bde92610baf905491610b98611e85565b338152938a60208601528660408601523691611ebb565b606083015260808201524260a08201528760c0820152610bd9866000526003602052604060002090565b6123b3565b6040805195865260208601919091523394918291820190565b610c0b866000526003602052604060002090565b54811015610c5a5780610c4f610c32610c54936103388a6000526003602052604060002090565b50543390610c48906001600160a01b0316610b31565b1415612379565b611e5b565b81610b48565b610b4d565b3461042e57600036600319011261042e576020600954604051908152f35b3461042e57602036600319011261042e5760ff6000541661041c57610ca0612211565b60043560005260026020526040600020541515610cbc90612241565b6004356000526002602052600160a01b60019003604060002060010154163314610ce590612468565b600435610cfc906000526002602052604060002090565b60078101805460081c60ff16610d118161088a565b600314610d1d90612664565b805461ff001916610500179055600581015490600954610d3d90836126a0565b61271090049182610d4d916126b3565b916006820154600e5490610d60916126b3565b600e5580600f5490610d7191611e78565b600f55600d54610d8090611e5b565b600d55600a8201546001600160a01b031660009081526005602052604090208054610daa90611e6a565b9055600a8201546001600160a01b031660009081526006602052604090208054610dd390611e5b565b9055600a8201546001600160a01b031660009081526007602052604090208054610dfe908590611e78565b9055600a82015483906001600160a01b03165a6000809381938293f1610e226126c0565b50610e2c906126f0565b6008546001600160a01b03165a6000809381938293f1610e4a6126c0565b50610e549061272d565b60068101546005820154610e67916126b3565b801515610ead600a7ffc577563f1b9a0461e24abef1e1fcc0d33d3d881f20b5df6dda59de4aae2c82194610f1594610f0494610f2f575b5001546001600160a01b031690565b6040519485526001600160a01b038116948590600435907f224350e49b29e656cb8c93d7379c7ddb4907c6009b64159a5e70d38092eae19790602090a36001600160a01b0316600090815260056020526040902090565b546040519081529081906020820190565b0390a2610019600160008051602061292783398151915255565b6000808080610f5b94610f4b600188015460018060a01b031690565b5af1610f556126c0565b5061276f565b38610e9e565b3461042e57600080600319360112610fe9578054600881901c6001600160a01b03163303610fd75760ff811615610fc55760ff191681557f5db9ee0a495bf2e6ff9c91a7834c1ba4fdd244a5e8aa4e537bd38aeae4b073aa6020604051338152a180f35b60405163dcdde9dd60e01b8152600490fd5b60405163492f678160e01b8152600490fd5b80fd5b3461042e57602036600319011261042e576110056104e5565b60005460081c6001600160a01b039081169033829003610fd75782169182156110745760008054610100600160a81b03191660089290921b610100600160a81b03169190911790557f51c4874e0f23f262e04a38c51751336dde72126d67f53eb672aaff02996b3ef6600080a3005b60405162461bcd60e51b8152602060048201526016602482015275496e76616c696420706175736572206164647265737360501b6044820152606490fd5b3461042e57600036600319011261042e576008546040516001600160a01b039091168152602090f35b90604060031983011261042e57600435916024359067ffffffffffffffff821161042e5761110b91600401610a3e565b9091565b3461042e577f2214f6a8b429291289d3afcdfccc59167b10f1d8ad1529e3959f9cd19f19af5f6111e6611141366110db565b826000959394929552600260205261115f6040600020541515612241565b6111d86007611178866000526002602052604060002090565b600181015461118f906001600160a01b0316610b31565b331480156111ff575b6111a1906127ab565b0180546111c99060081c60ff166111b78161088a565b600281149081156111eb575b506127e6565b805461ff001916610400179055565b604051918291339683612653565b0390a3005b600391506111f88161088a565b14386111c3565b50600a8101546111a19061121b906001600160a01b0316610b31565b33149050611198565b634e487b7160e01b600052603260045260246000fd5b8054821015611256576000526007602060002091020190600090565b611224565b90600182811c9216801561128b575b602083101461127557565b634e487b7160e01b600052602260045260246000fd5b91607f169161126a565b634e487b7160e01b600052604160045260246000fd5b60e0810190811067ffffffffffffffff8211176112c757604052565b611295565b6101c0810190811067ffffffffffffffff8211176112c757604052565b90601f8019910116810190811067ffffffffffffffff8211176112c757604052565b906040519182600082549261131f8461125b565b90818452600194858116908160001461138e575060011461134b575b5050611349925003836112e9565b565b9093915060005260209081600020936000915b8183106113765750506113499350820101388061133b565b8554888401850152948501948794509183019161135e565b91505061134994506020925060ff191682840152151560051b820101388061133b565b95926113e39260c0969998959260018060a01b031688526020880152604087015260e0606087015260e0860190610553565b95608085015260a08401521515910152565b3461042e57604036600319011261042e576024356004356000526003602052604060002090815481101561042e5761142c9161123a565b5060018060a01b038154166106a86001830154926002810154906114526003820161130b565b60048201549060ff600660058501549401541693604051978897886113b1565b3461042e57602036600319011261042e576001600160a01b036114936104e5565b1660005260056020526020604060002054604051908152f35b3461042e57600036600319011261042e57602060ff600054166040519015158152f35b3461042e57600036600319011261042e576020600f54604051908152f35b3461042e57600036600319011261042e576020600c54604051908152f35b80548210156112565760005260206000200190600090565b3461042e57604036600319011261042e5761153c6104e5565b6001600160a01b031660009081526004602052604090208054602435919082101561042e5760209161156d9161150b565b90546040519160031b1c8152f35b3461042e57602036600319011261042e576001600160a01b0361159c6104e5565b1660005260066020526020604060002054604051908152f35b3461042e57602036600319011261042e5760043560005260036020526020604060002054604051908152f35b3461042e57602036600319011261042e5760043560009080825260026020526040822054151561161090612241565b80825260026020526040822060010154611634906001600160a01b03163314612468565b611648816000526002602052604060002090565b60078101805460081c60ff1661165d8161088a565b156116679061227e565b805461ff001916610600179055828080806006850154600b5461168a90826126a0565b6127109004958280808061169e8b876126b3565b9a8b96600e54906116ae916126b3565b600e5580600f54906116bf91611e78565b600f556008546001600160a01b03165af16116d86126c0565b506116e29061272d565b600101546001600160a01b03165af16116f96126c0565b506117039061276f565b6040519081527f58716386e17644e69ff7358e3317a395f4523fcd0fb9cc227ee68d117ebbfbfc90602090a280f35b60a036600319011261042e5767ffffffffffffffff60043581811161042e5761175f903690600401610a3e565b9060243583811161042e57611778903690600401610a3e565b91909360443590811161042e57611793903690600401610a3e565b9060843593600485101561042e576106a8966117b29660643595611be0565b6040519081529081906020820190565b3461042e57600036600319011261042e576020600a54604051908152f35b3461042e57600080600319360112610fe9578054600881901c6001600160a01b03163303610fd75760ff811661041c5760019060ff19161781557f62e78cea01bee320cd4e420270b5ea74000d11b0c9f74754ebdbfc544b05a2586020604051338152a180f35b9e9d9c98928f6101a09d986118b66118fe9e999d986118a86118d39961189a6118f09f98976118896118c89b60e09a8a5260208a019060018060a01b03169052565b6101c08060408a0152880190610553565b908682036060880152610553565b908482036080860152610553565b9c60a083015260c0820152019061087d565b6101008d0190610894565b6101208b01526101408a01526001600160a01b0316610160890152565b868203610180880152610553565b930152565b3461042e57602036600319011261042e576004356000908152600260205260409020805460018201546106a8906001600160a01b0316916119466002850161130b565b936119536003820161130b565b916119606004830161130b565b90600583015490600684015490600785015490600886015492600987015494611992600a89015460018060a01b031690565b96600c6119a1600b8b0161130b565b990154996040519d8e9d8e9660ff808a60081c16991697611847565b3461042e57600036600319011261042e576020600b54604051908152f35b3461042e57600036600319011261042e5760005460405160089190911c6001600160a01b03168152602090f35b3461042e57602036600319011261042e576001600160a01b03611a296104e5565b1660005260056020526060604060002054600660205260406000205460076020526040600020549060405192835260208301526040820152f35b3461042e5760208060031936011261042e576001600160a01b03611a856104e5565b1660005260048152604060002090604051908181845491828152019360005281600020916000905b828210611ad0576106a885611ac4818903826112e9565b6040519182918261072f565b835486529485019460019384019390910190611aad565b3461042e57611af5366110db565b917f6fbd90f6b051dd2b74925fe39aef5391515a82ac6783676b36a54aa5221c6a4f611b9e6000948386526002602052611b3460408720541515612241565b83865260026020526111d860408720611b5a60018060a01b03600a83015416331461251a565b6007810190611b7b600260ff845460081c16611b758161088a565b14612555565b611b898489600b8401612593565b600c4291015561030061ff0019825416179055565b0390a380f35b3461042e57600036600319011261042e576020600e54604051908152f35b3461042e57600036600319011261042e576020600154604051908152f35b9190959296939660ff6000541661041c57611bf9612211565b611c07600a54851015611dc5565b611c1384341015611e02565b611c1c85610873565b84611d87576203f480915b600154988997611c3689611e5b565b600155611c438542611e78565b92611c4c611e92565b8a815233602082015294611c61368d8a611ebb565b60408701523690611c7192611ebb565b60608501523690611c8192611ebb565b608083015260a082018590523460c0830152611ca08660e08401611ef2565b61010082016000905242610120830152610140820152610160810160009052611cc7611f0a565b6101808201526101a0810160009052611cea866000526002602052604060002090565b90611cf491612088565b33600090815260046020526040902085611d0d9161218a565b600c54611d1990611e5b565b600c5534600e5490611d2a91611e78565b600e55611d379042611e78565b6040519384933397611d4994866121e0565b037f3e3dad351780e0c5d9667147ca353c4414b45bff35c16eab9cf5bf45f60d71ac91a3611d84600160008051602061292783398151915255565b90565b611d9085610873565b60018503611da2576201518091611c27565b611dab85610873565b60028503611dbc5761384091611c27565b610e1091611c27565b15611dcc57565b60405162461bcd60e51b815260206004820152600e60248201526d52657761726420746f6f206c6f7760901b6044820152606490fd5b15611e0957565b60405162461bcd60e51b8152602060048201526014602482015273125b9cdd59999a58da595b9d081c185e5b595b9d60621b6044820152606490fd5b634e487b7160e01b600052601160045260246000fd5b60001981146108585760010190565b90600a820180921161085857565b9190820180921161085857565b60405190611349826112ab565b60405190611349826112cc565b67ffffffffffffffff81116112c757601f01601f191660200190565b929192611ec782611e9f565b91611ed560405193846112e9565b82948184528183011161042e578281602093846000960137010152565b60048210156104e05752565b60078210156104e05752565b604051906020820182811067ffffffffffffffff8211176112c75760405260008252565b90601f8111611f3c57505050565b600091825260208220906020601f850160051c83019410611f78575b601f0160051c01915b828110611f6d57505050565b818155600101611f61565b9092508290611f58565b919091825167ffffffffffffffff81116112c757611faa81611fa4845461125b565b84611f2e565b602080601f8311600114611fe6575081929394600092611fdb575b50508160011b916000199060031b1c1916179055565b015190503880611fc5565b90601f19831695611ffc85600052602060002090565b926000905b88821061203957505083600195969710612020575b505050811b019055565b015160001960f88460031b161c19169055388080612016565b80600185968294968601518155019501930190612001565b9060048110156104e05760ff80198354169116179055565b9060078110156104e05761ff0082549160081b169061ff001916179055565b8151815560208201516001820180546001600160a01b0319166001600160a01b0390921691909117905590600c906101a0906120cb604082015160028601611f82565b6120dc606082015160038601611f82565b6120ed608082015160048601611f82565b60a0810151600585015560c081015160068501556121346007850161211f60e084015161211981610873565b82612051565b6101008301519061212f8261088a565b612069565b61012081015160088501556101408101516009850155610160810151600a850180546001600160a01b0319166001600160a01b03909216919091179055612183610180820151600b8601611f82565b0151910155565b8054600160401b8110156112c7576121a79160018201815561150b565b819291549060031b91821b91600019901b1916179055565b908060209392818452848401376000828201840152601f01601f1916010190565b91936121fd61220d926060959897966080865260808601916121bf565b966020840152604083019061087d565b0152565b600080516020612927833981519152600281541461222f5760029055565b604051633ee5aeb560e01b8152600490fd5b1561224857565b60405162461bcd60e51b815260206004820152600e60248201526d15185cdac81b9bdd08199bdd5b9960921b6044820152606490fd5b1561228557565b60405162461bcd60e51b81526020600482015260086024820152672737ba1037b832b760c11b6044820152606490fd5b156122bc57565b60405162461bcd60e51b815260206004820152600f60248201526e111958591b1a5b99481c185cdcd959608a1b6044820152606490fd5b156122fa57565b60405162461bcd60e51b8152602060048201526012602482015271109a5908195e18d959591cc81c995dd85c9960721b6044820152606490fd5b1561233b57565b60405162461bcd60e51b815260206004820152601660248201527543616e6e6f7420626964206f6e206f776e207461736b60501b6044820152606490fd5b1561238057565b60405162461bcd60e51b815260206004820152600b60248201526a105b1c9958591e48189a5960aa1b6044820152606490fd5b8054600160401b8110156112c7576123d09160018201815561123a565b61245257815181546001600160a01b0319166001600160a01b03919091161781556113499160069061243f9060c0906020810151600186015560408101516002860155612424606082015160038701611f82565b6080810151600486015560a081015160058601550151151590565b91019060ff801983541691151516179055565b634e487b7160e01b600052600060045260246000fd5b1561246f57565b60405162461bcd60e51b815260206004820152600a6024820152692737ba103837b9ba32b960b11b6044820152606490fd5b156124a857565b60405162461bcd60e51b815260206004820152600b60248201526a125b9d985b1a5908189a5960aa1b6044820152606490fd5b156124e257565b60405162461bcd60e51b815260206004820152601060248201526f105b1c9958591e481858d8d95c1d195960821b6044820152606490fd5b1561252157565b60405162461bcd60e51b815260206004820152600c60248201526b139bdd08185cdcda59db995960a21b6044820152606490fd5b1561255c57565b60405162461bcd60e51b815260206004820152600f60248201526e4e6f7420696e2070726f677265737360881b6044820152606490fd5b90929167ffffffffffffffff81116112c7576125b381611fa4845461125b565b6000601f82116001146125ec57819293946000926125e15750508160011b916000199060031b1c1916179055565b013590503880611fc5565b601f1982169461260184600052602060002090565b91805b87811061263b57508360019596971061262157505050811b019055565b0135600019600384901b60f8161c19169055388080612016565b90926020600181928686013581550194019101612604565b916020611d849381815201916121bf565b1561266b57565b60405162461bcd60e51b815260206004820152600d60248201526c139bdd0818dbdb5c1b195d1959609a1b6044820152606490fd5b8181029291811591840414171561085857565b9190820391821161085857565b3d156126eb573d906126d182611e9f565b916126df60405193846112e9565b82523d6000602084013e565b606090565b156126f757565b60405162461bcd60e51b815260206004820152600e60248201526d14185e5b595b9d0819985a5b195960921b6044820152606490fd5b1561273457565b60405162461bcd60e51b8152602060048201526013602482015272119959481d1c985b9cd9995c8819985a5b1959606a1b6044820152606490fd5b1561277657565b60405162461bcd60e51b815260206004820152600d60248201526c1499599d5b990819985a5b1959609a1b6044820152606490fd5b156127b257565b60405162461bcd60e51b815260206004820152600c60248201526b139bdd081a5b9d9bdb1d995960a21b6044820152606490fd5b156127ed57565b60405162461bcd60e51b815260206004820152600e60248201526d43616e6e6f74206469737075746560901b6044820152606490fd5b90600c61282e611e92565b8354815260018401546001600160a01b03166020820152926128526002820161130b565b60408501526128636003820161130b565b60608501526128746004820161130b565b6080850152600581015460a0850152600681015460c08501526128b460ff60078301546128a682821660e08901611ef2565b60081c166101008601611efe565b60088101546101208501526009810154610140850152600a8101546001600160a01b03166101608501526128ea600b820161130b565b61018085015201546101a0830152565b67ffffffffffffffff81116112c75760051b60200190565b80518210156112565760209160051b01019056fe9b779b17422d0df92223018b32b4d1fa46e071723d6817e2486d003becc55f00a2646970667358221220c87d51b4b1405e6ca8cb3e388de95e46df9003ebfe11ebfd820c94e79047e3a464736f6c63430008140033","opcodes":"PUSH1 0x80 CALLVALUE PUSH2 0xD7 JUMPI PUSH1 0x1F PUSH2 0x2A6F CODESIZE DUP2 SWAP1 SUB SWAP2 DUP3 ADD PUSH1 0x1F NOT AND DUP4 ADD SWAP2 PUSH1 0x1 PUSH1 0x1 PUSH1 0x40 SHL SUB DUP4 GT DUP5 DUP5 LT OR PUSH2 0xDC JUMPI DUP1 DUP5 SWAP3 PUSH1 0x20 SWAP5 PUSH1 0x40 MSTORE DUP4 CODECOPY DUP2 ADD SUB SLT PUSH2 0xD7 JUMPI MLOAD PUSH1 0x1 PUSH1 0x1 PUSH1 0xA0 SHL SUB DUP2 AND SWAP1 DUP2 SWAP1 SUB PUSH2 0xD7 JUMPI PUSH1 0x1 PUSH32 0x9B779B17422D0DF92223018B32B4D1FA46E071723D6817E2486D003BECC55F00 DUP2 SWAP1 SSTORE PUSH1 0x0 DUP1 SLOAD PUSH2 0x100 PUSH1 0x1 PUSH1 0xA8 SHL SUB NOT AND CALLER PUSH1 0x8 SWAP1 DUP2 SHL PUSH2 0x100 PUSH1 0x1 PUSH1 0xA8 SHL SUB AND SWAP2 SWAP1 SWAP2 OR SWAP1 SWAP2 SSTORE SWAP1 DUP1 SSTORE PUSH1 0xFA PUSH1 0x9 SSTORE PUSH7 0x38D7EA4C68000 PUSH1 0xA SSTORE PUSH2 0x1F4 PUSH1 0xB SSTORE DUP1 SLOAD PUSH1 0x1 PUSH1 0x1 PUSH1 0xA0 SHL SUB NOT AND SWAP2 SWAP1 SWAP2 OR SWAP1 SSTORE PUSH1 0x40 MLOAD PUSH2 0x297C SWAP1 DUP2 PUSH2 0xF3 DUP3 CODECOPY RETURN JUMPDEST PUSH1 0x0 DUP1 REVERT JUMPDEST PUSH4 0x4E487B71 PUSH1 0xE0 SHL PUSH1 0x0 MSTORE PUSH1 0x41 PUSH1 0x4 MSTORE PUSH1 0x24 PUSH1 0x0 REVERT INVALID PUSH1 0x80 PUSH1 0x40 MSTORE PUSH1 0x4 CALLDATASIZE LT ISZERO PUSH2 0x1B JUMPI JUMPDEST CALLDATASIZE ISZERO PUSH2 0x19 JUMPI PUSH1 0x0 DUP1 REVERT JUMPDEST STOP JUMPDEST PUSH1 0x0 CALLDATALOAD PUSH1 0xE0 SHR DUP1 PUSH4 0x2E9D5E4 EQ PUSH2 0x23B JUMPI DUP1 PUSH4 0x3A250F9 EQ PUSH2 0x236 JUMPI DUP1 PUSH4 0x9529DC1 EQ PUSH2 0x231 JUMPI DUP1 PUSH4 0x108AB45E EQ PUSH2 0x22C JUMPI DUP1 PUSH4 0x131D9A27 EQ PUSH2 0x227 JUMPI DUP1 PUSH4 0x164BCC26 EQ PUSH2 0x222 JUMPI DUP1 PUSH4 0x1D65E77E EQ PUSH2 0x21D JUMPI DUP1 PUSH4 0x2B42900A EQ PUSH2 0x218 JUMPI DUP1 PUSH4 0x35659FB8 EQ PUSH2 0x213 JUMPI DUP1 PUSH4 0x3D01E0FA EQ PUSH2 0x20E JUMPI DUP1 PUSH4 0x3F4BA83A EQ PUSH2 0x209 JUMPI DUP1 PUSH4 0x4421EA21 EQ PUSH2 0x204 JUMPI DUP1 PUSH4 0x46904840 EQ PUSH2 0x1FF JUMPI DUP1 PUSH4 0x4BDDD209 EQ PUSH2 0x1FA JUMPI DUP1 PUSH4 0x5492B197 EQ PUSH2 0x1F5 JUMPI DUP1 PUSH4 0x54DE6E32 EQ PUSH2 0x1F0 JUMPI DUP1 PUSH4 0x5C975ABB EQ PUSH2 0x1EB JUMPI DUP1 PUSH4 0x60C6D8AE EQ PUSH2 0x1E6 JUMPI DUP1 PUSH4 0x611F364A EQ PUSH2 0x1E1 JUMPI DUP1 PUSH4 0x670AD782 EQ PUSH2 0x1DC JUMPI DUP1 PUSH4 0x70EFDFB1 EQ PUSH2 0x1D7 JUMPI DUP1 PUSH4 0x744D3411 EQ PUSH2 0x1D2 JUMPI DUP1 PUSH4 0x7EEC20A8 EQ PUSH2 0x1CD JUMPI DUP1 PUSH4 0x803A29DA EQ PUSH2 0x1C8 JUMPI DUP1 PUSH4 0x813F8DC1 EQ PUSH2 0x1C3 JUMPI DUP1 PUSH4 0x8456CB59 EQ PUSH2 0x1BE JUMPI DUP1 PUSH4 0x8D977672 EQ PUSH2 0x1B9 JUMPI DUP1 PUSH4 0x95305683 EQ PUSH2 0x1B4 JUMPI DUP1 PUSH4 0x9FD0506D EQ PUSH2 0x1AF JUMPI DUP1 PUSH4 0xB5695B38 EQ PUSH2 0x1AA JUMPI DUP1 PUSH4 0xD8EA6821 EQ PUSH2 0x1A5 JUMPI DUP1 PUSH4 0xDA8ACCF9 EQ PUSH2 0x1A0 JUMPI DUP1 PUSH4 0xEC18154E EQ PUSH2 0x19B JUMPI PUSH4 0xFDC3D8D7 SUB PUSH2 0xE JUMPI PUSH2 0x1BC2 JUMP JUMPDEST PUSH2 0x1BA4 JUMP JUMPDEST PUSH2 0x1AE7 JUMP JUMPDEST PUSH2 0x1A63 JUMP JUMPDEST PUSH2 0x1A08 JUMP JUMPDEST PUSH2 0x19DB JUMP JUMPDEST PUSH2 0x19BD JUMP JUMPDEST PUSH2 0x1903 JUMP JUMPDEST PUSH2 0x17E0 JUMP JUMPDEST PUSH2 0x17C2 JUMP JUMPDEST PUSH2 0x1732 JUMP JUMPDEST PUSH2 0x15E1 JUMP JUMPDEST PUSH2 0x15B5 JUMP JUMPDEST PUSH2 0x157B JUMP JUMPDEST PUSH2 0x1523 JUMP JUMPDEST PUSH2 0x14ED JUMP JUMPDEST PUSH2 0x14CF JUMP JUMPDEST PUSH2 0x14AC JUMP JUMPDEST PUSH2 0x1472 JUMP JUMPDEST PUSH2 0x13F5 JUMP JUMPDEST PUSH2 0x110F JUMP JUMPDEST PUSH2 0x10B2 JUMP JUMPDEST PUSH2 0xFEC JUMP JUMPDEST PUSH2 0xF61 JUMP JUMPDEST PUSH2 0xC7D JUMP JUMPDEST PUSH2 0xC5F JUMP JUMPDEST PUSH2 0xA6C JUMP JUMPDEST PUSH2 0x999 JUMP JUMPDEST PUSH2 0x76A JUMP JUMPDEST PUSH2 0x645 JUMP JUMPDEST PUSH2 0x535 JUMP JUMPDEST PUSH2 0x4FB JUMP JUMPDEST PUSH2 0x433 JUMP JUMPDEST CALLVALUE PUSH2 0x42E JUMPI PUSH1 0x40 CALLDATASIZE PUSH1 0x3 NOT ADD SLT PUSH2 0x42E JUMPI PUSH1 0x4 CALLDATALOAD PUSH1 0x24 CALLDATALOAD PUSH1 0x0 SWAP2 PUSH1 0xFF DUP4 SLOAD AND PUSH2 0x41C JUMPI PUSH2 0x266 PUSH2 0x2211 JUMP JUMPDEST DUP1 DUP4 MSTORE PUSH1 0x2 PUSH1 0x20 MSTORE PUSH2 0x27D PUSH1 0x40 DUP5 KECCAK256 SLOAD ISZERO ISZERO PUSH2 0x2241 JUMP JUMPDEST DUP1 DUP4 MSTORE PUSH1 0x2 PUSH1 0x20 MSTORE PUSH32 0x91A721693AFFF25F233AC308EDBD2FA15AD7D4DFACDD164DD4E8C57AB72F4AE9 PUSH1 0x1 DUP1 PUSH1 0xA0 SHL SUB PUSH2 0x2C1 DUP2 PUSH1 0x1 PUSH1 0x40 DUP9 KECCAK256 ADD SLOAD AND CALLER EQ PUSH2 0x2468 JUMP JUMPDEST PUSH2 0x3EE PUSH2 0x2D8 DUP5 PUSH1 0x0 MSTORE PUSH1 0x2 PUSH1 0x20 MSTORE PUSH1 0x40 PUSH1 0x0 KECCAK256 SWAP1 JUMP JUMPDEST SWAP5 PUSH2 0x39F PUSH2 0x33D PUSH1 0x7 DUP9 ADD SWAP3 PUSH2 0x305 PUSH2 0x2F6 DUP6 SLOAD PUSH1 0xFF SWAP1 PUSH1 0x8 SHR AND SWAP1 JUMP JUMPDEST PUSH2 0x2FF DUP2 PUSH2 0x88A JUMP JUMPDEST ISZERO PUSH2 0x227E JUMP JUMPDEST PUSH2 0x324 PUSH2 0x31C DUP10 PUSH1 0x0 MSTORE PUSH1 0x3 PUSH1 0x20 MSTORE PUSH1 0x40 PUSH1 0x0 KECCAK256 SWAP1 JUMP JUMPDEST SLOAD DUP3 LT PUSH2 0x24A1 JUMP JUMPDEST PUSH2 0x338 DUP9 PUSH1 0x0 MSTORE PUSH1 0x3 PUSH1 0x20 MSTORE PUSH1 0x40 PUSH1 0x0 KECCAK256 SWAP1 JUMP JUMPDEST PUSH2 0x123A JUMP JUMPDEST POP SWAP2 PUSH2 0x36D PUSH1 0x6 DUP5 ADD PUSH2 0x360 PUSH2 0x35B PUSH2 0x357 DUP4 SLOAD PUSH1 0xFF AND SWAP1 JUMP JUMPDEST ISZERO SWAP1 JUMP JUMPDEST PUSH2 0x24DB JUMP JUMPDEST DUP1 SLOAD PUSH1 0xFF NOT AND PUSH1 0x1 OR SWAP1 SSTORE JUMP JUMPDEST DUP3 SLOAD PUSH1 0xA DUP10 ADD DUP1 SLOAD PUSH1 0x1 PUSH1 0x1 PUSH1 0xA0 SHL SUB NOT AND PUSH1 0x1 PUSH1 0x1 PUSH1 0xA0 SHL SUB SWAP1 SWAP3 AND SWAP2 SWAP1 SWAP2 OR SWAP1 SSTORE DUP1 SLOAD PUSH2 0xFF00 NOT AND PUSH2 0x100 OR SWAP1 SSTORE JUMP JUMPDEST PUSH1 0x1 DUP2 ADD SWAP6 PUSH1 0x5 DUP8 SLOAD SWAP2 ADD SSTORE PUSH2 0x3E1 DUP6 PUSH2 0x3DC PUSH2 0x3C2 DUP5 SLOAD PUSH1 0x1 DUP1 PUSH1 0xA0 SHL SUB AND SWAP1 JUMP JUMPDEST PUSH1 0x1 PUSH1 0x1 PUSH1 0xA0 SHL SUB AND PUSH1 0x0 SWAP1 DUP2 MSTORE PUSH1 0x4 PUSH1 0x20 MSTORE PUSH1 0x40 SWAP1 KECCAK256 SWAP1 JUMP JUMPDEST PUSH2 0x218A JUMP JUMPDEST SLOAD PUSH1 0x1 PUSH1 0x1 PUSH1 0xA0 SHL SUB AND SWAP1 JUMP JUMPDEST SWAP4 SLOAD PUSH1 0x40 MLOAD SWAP1 DUP2 MSTORE SWAP4 AND SWAP3 DUP1 PUSH1 0x20 DUP2 ADD JUMPDEST SUB SWAP1 LOG3 PUSH2 0x419 PUSH1 0x1 PUSH1 0x0 DUP1 MLOAD PUSH1 0x20 PUSH2 0x2927 DUP4 CODECOPY DUP2 MLOAD SWAP2 MSTORE SSTORE JUMP JUMPDEST DUP1 RETURN JUMPDEST PUSH1 0x40 MLOAD PUSH4 0xAB35696F PUSH1 0xE0 SHL DUP2 MSTORE PUSH1 0x4 SWAP1 REVERT JUMPDEST PUSH1 0x0 DUP1 REVERT JUMPDEST CALLVALUE PUSH2 0x42E JUMPI PUSH1 0x20 CALLDATASIZE PUSH1 0x3 NOT ADD SLT PUSH2 0x42E JUMPI PUSH1 0x4 CALLDATALOAD PUSH1 0x0 SWAP1 DUP1 DUP3 MSTORE PUSH1 0x2 PUSH1 0x20 MSTORE PUSH2 0x461 PUSH1 0x40 DUP4 KECCAK256 SLOAD ISZERO ISZERO PUSH2 0x2241 JUMP JUMPDEST DUP1 DUP3 MSTORE PUSH1 0x2 PUSH1 0x20 MSTORE PUSH1 0x7 PUSH1 0x40 DUP4 KECCAK256 PUSH2 0x486 PUSH1 0x1 DUP1 PUSH1 0xA0 SHL SUB PUSH1 0xA DUP4 ADD SLOAD AND CALLER EQ PUSH2 0x251A JUMP JUMPDEST ADD PUSH1 0xFF DUP2 SLOAD PUSH1 0x8 SHR AND SWAP1 PUSH1 0x7 DUP3 LT ISZERO PUSH2 0x4E0 JUMPI PUSH2 0x4A8 PUSH1 0x1 PUSH2 0x4B7 SWAP4 EQ PUSH2 0x251A JUMP JUMPDEST DUP1 SLOAD PUSH2 0xFF00 NOT AND PUSH2 0x200 OR SWAP1 SSTORE JUMP JUMPDEST CALLER SWAP1 PUSH32 0x4883666EFF4707B2212B9BF824C3A2C47933345113365D6229F5ED2133604949 DUP4 DUP1 LOG3 DUP1 RETURN JUMPDEST PUSH2 0x85D JUMP JUMPDEST PUSH1 0x4 CALLDATALOAD SWAP1 PUSH1 0x1 PUSH1 0x1 PUSH1 0xA0 SHL SUB DUP3 AND DUP3 SUB PUSH2 0x42E JUMPI JUMP JUMPDEST CALLVALUE PUSH2 0x42E JUMPI PUSH1 0x20 CALLDATASIZE PUSH1 0x3 NOT ADD SLT PUSH2 0x42E JUMPI PUSH1 0x1 PUSH1 0x1 PUSH1 0xA0 SHL SUB PUSH2 0x51C PUSH2 0x4E5 JUMP JUMPDEST AND PUSH1 0x0 MSTORE PUSH1 0x7 PUSH1 0x20 MSTORE PUSH1 0x20 PUSH1 0x40 PUSH1 0x0 KECCAK256 SLOAD PUSH1 0x40 MLOAD SWAP1 DUP2 MSTORE RETURN JUMPDEST CALLVALUE PUSH2 0x42E JUMPI PUSH1 0x0 CALLDATASIZE PUSH1 0x3 NOT ADD SLT PUSH2 0x42E JUMPI PUSH1 0x20 PUSH1 0xD SLOAD PUSH1 0x40 MLOAD SWAP1 DUP2 MSTORE RETURN JUMPDEST SWAP2 SWAP1 DUP3 MLOAD SWAP3 DUP4 DUP3 MSTORE PUSH1 0x0 JUMPDEST DUP5 DUP2 LT PUSH2 0x57F JUMPI POP POP DUP3 PUSH1 0x0 PUSH1 0x20 DUP1 SWAP5 SWAP6 DUP5 ADD ADD MSTORE PUSH1 0x1F DUP1 NOT SWAP2 ADD AND ADD ADD SWAP1 JUMP JUMPDEST PUSH1 0x20 DUP2 DUP4 ADD DUP2 ADD MLOAD DUP5 DUP4 ADD DUP3 ADD MSTORE ADD PUSH2 0x55E JUMP JUMPDEST PUSH1 0x20 DUP1 DUP3 ADD SWAP1 DUP1 DUP4 MSTORE DUP4 MLOAD DUP1 SWAP3 MSTORE PUSH1 0x40 SWAP3 DUP4 DUP2 ADD DUP3 DUP6 DUP6 PUSH1 0x5 SHL DUP5 ADD ADD SWAP7 ADD SWAP5 PUSH1 0x0 SWAP3 JUMPDEST DUP6 DUP5 LT PUSH2 0x5C8 JUMPI POP POP POP POP POP POP POP SWAP1 JUMP JUMPDEST SWAP1 SWAP2 SWAP3 SWAP4 SWAP5 SWAP6 SWAP7 DUP6 DUP1 PUSH1 0x1 SWAP3 PUSH1 0x3F NOT DUP6 DUP3 SUB ADD DUP8 MSTORE DUP11 MLOAD SWAP1 DUP5 DUP1 PUSH1 0xA0 SHL SUB DUP3 MLOAD AND DUP2 MSTORE DUP3 DUP3 ADD MLOAD DUP4 DUP3 ADD MSTORE DUP7 DUP3 ADD MLOAD DUP8 DUP3 ADD MSTORE PUSH2 0x614 PUSH1 0x60 DUP1 DUP5 ADD MLOAD SWAP1 PUSH1 0xE0 DUP1 SWAP2 DUP6 ADD MSTORE DUP4 ADD SWAP1 PUSH2 0x553 JUMP JUMPDEST SWAP2 PUSH1 0x80 DUP1 DUP3 ADD MLOAD SWAP1 DUP4 ADD MSTORE PUSH1 0xA0 DUP1 DUP3 ADD MLOAD SWAP1 DUP4 ADD MSTORE PUSH1 0xC0 DUP1 SWAP2 ADD MLOAD ISZERO ISZERO SWAP2 ADD MSTORE SWAP10 ADD SWAP5 ADD SWAP5 ADD SWAP3 SWAP6 SWAP5 SWAP4 SWAP2 SWAP1 PUSH2 0x5B7 JUMP JUMPDEST CALLVALUE PUSH2 0x42E JUMPI PUSH1 0x20 DUP1 PUSH1 0x3 NOT CALLDATASIZE ADD SLT PUSH2 0x42E JUMPI PUSH1 0x4 DUP1 CALLDATALOAD PUSH1 0x0 MSTORE PUSH1 0x3 DUP1 DUP4 MSTORE PUSH1 0x40 SWAP3 DUP4 PUSH1 0x0 KECCAK256 SWAP1 DUP2 SLOAD SWAP3 PUSH2 0x677 DUP5 PUSH2 0x28FA JUMP JUMPDEST SWAP5 PUSH2 0x684 DUP8 MLOAD SWAP7 DUP8 PUSH2 0x12E9 JUMP JUMPDEST DUP5 DUP7 MSTORE PUSH1 0x0 SWAP4 DUP5 MSTORE DUP3 DUP5 KECCAK256 SWAP2 DUP4 DUP8 ADD JUMPDEST DUP7 DUP7 LT PUSH2 0x6AC JUMPI DUP9 MLOAD DUP1 PUSH2 0x6A8 DUP11 DUP3 PUSH2 0x593 JUMP JUMPDEST SUB SWAP1 RETURN JUMPDEST PUSH1 0x7 DUP6 PUSH1 0x1 SWAP3 DUP12 MLOAD PUSH2 0x6BD DUP2 PUSH2 0x12AB JUMP JUMPDEST DUP8 SLOAD PUSH1 0xA0 DUP7 SWAP1 SHL DUP7 SWAP1 SUB AND PUSH1 0x1 PUSH1 0x1 PUSH1 0xA0 SHL SUB AND DUP2 MSTORE DUP5 DUP9 ADD SLOAD DUP4 DUP3 ADD MSTORE PUSH1 0x2 DUP9 ADD SLOAD DUP14 DUP3 ADD MSTORE PUSH2 0x6EF DUP7 DUP10 ADD PUSH2 0x130B JUMP JUMPDEST PUSH1 0x60 DUP3 ADD MSTORE DUP7 DUP9 ADD SLOAD PUSH1 0x80 DUP3 ADD MSTORE PUSH1 0x5 DUP9 ADD SLOAD PUSH1 0xA0 DUP3 ADD MSTORE PUSH2 0x721 PUSH2 0x718 PUSH1 0x6 DUP11 ADD SLOAD PUSH1 0xFF AND SWAP1 JUMP JUMPDEST ISZERO ISZERO PUSH1 0xC0 DUP4 ADD MSTORE JUMP JUMPDEST DUP2 MSTORE ADD SWAP5 ADD SWAP6 ADD SWAP5 SWAP3 PUSH2 0x694 JUMP JUMPDEST PUSH1 0x20 SWAP1 DUP2 PUSH1 0x40 DUP2 DUP4 ADD SWAP3 DUP3 DUP2 MSTORE DUP6 MLOAD DUP1 SWAP5 MSTORE ADD SWAP4 ADD SWAP2 PUSH1 0x0 JUMPDEST DUP3 DUP2 LT PUSH2 0x756 JUMPI POP POP POP POP SWAP1 JUMP JUMPDEST DUP4 MLOAD DUP6 MSTORE SWAP4 DUP2 ADD SWAP4 SWAP3 DUP2 ADD SWAP3 PUSH1 0x1 ADD PUSH2 0x748 JUMP JUMPDEST CALLVALUE PUSH2 0x42E JUMPI PUSH1 0x40 CALLDATASIZE PUSH1 0x3 NOT ADD SLT PUSH2 0x42E JUMPI PUSH1 0x24 CALLDATALOAD PUSH1 0x4 CALLDATALOAD PUSH2 0x78A DUP3 PUSH2 0x28FA JUMP JUMPDEST SWAP1 PUSH2 0x798 PUSH1 0x40 MLOAD SWAP3 DUP4 PUSH2 0x12E9 JUMP JUMPDEST DUP3 DUP3 MSTORE PUSH1 0x1F NOT PUSH2 0x7A7 DUP5 PUSH2 0x28FA JUMP JUMPDEST ADD CALLDATASIZE PUSH1 0x20 DUP5 ADD CALLDATACOPY PUSH1 0x0 SWAP3 PUSH1 0x1 SWAP2 DUP3 DUP2 ADD DUP1 SWAP2 GT PUSH2 0x858 JUMPI DUP3 SLOAD SWAP1 DUP4 JUMPDEST PUSH2 0x7D9 JUMPI JUMPDEST DUP6 DUP6 MSTORE PUSH1 0x40 MLOAD DUP1 PUSH2 0x6A8 DUP8 DUP3 PUSH2 0x72F JUMP JUMPDEST DUP2 DUP2 LT DUP1 PUSH2 0x84F JUMPI JUMPDEST ISZERO PUSH2 0x84A JUMPI PUSH2 0x80B PUSH1 0x7 PUSH2 0x800 DUP4 PUSH1 0x0 MSTORE PUSH1 0x2 PUSH1 0x20 MSTORE PUSH1 0x40 PUSH1 0x0 KECCAK256 SWAP1 JUMP JUMPDEST ADD SLOAD PUSH1 0x8 SHR PUSH1 0xFF AND SWAP1 JUMP JUMPDEST PUSH2 0x814 DUP2 PUSH2 0x88A JUMP JUMPDEST ISZERO PUSH2 0x829 JUMPI JUMPDEST PUSH2 0x823 SWAP1 PUSH2 0x1E5B JUMP JUMPDEST DUP4 PUSH2 0x7C3 JUMP JUMPDEST SWAP5 PUSH2 0x842 DUP2 DUP8 PUSH2 0x83C PUSH2 0x823 SWAP5 DUP10 PUSH2 0x2912 JUMP JUMPDEST MSTORE PUSH2 0x1E5B JUMP JUMPDEST SWAP6 SWAP1 POP PUSH2 0x81A JUMP JUMPDEST PUSH2 0x7C8 JUMP JUMPDEST POP DUP3 DUP7 LT PUSH2 0x7E2 JUMP JUMPDEST PUSH2 0x1E45 JUMP JUMPDEST PUSH4 0x4E487B71 PUSH1 0xE0 SHL PUSH1 0x0 MSTORE PUSH1 0x21 PUSH1 0x4 MSTORE PUSH1 0x24 PUSH1 0x0 REVERT JUMPDEST PUSH1 0x4 GT ISZERO PUSH2 0x4E0 JUMPI JUMP JUMPDEST SWAP1 PUSH1 0x4 DUP3 LT ISZERO PUSH2 0x4E0 JUMPI MSTORE JUMP JUMPDEST PUSH1 0x7 GT ISZERO PUSH2 0x4E0 JUMPI JUMP JUMPDEST SWAP1 PUSH1 0x7 DUP3 LT ISZERO PUSH2 0x4E0 JUMPI MSTORE JUMP JUMPDEST PUSH1 0x20 DUP1 DUP3 MSTORE DUP3 MLOAD DUP3 DUP3 ADD MSTORE DUP3 ADD MLOAD PUSH1 0x1 PUSH1 0x1 PUSH1 0xA0 SHL SUB AND PUSH1 0x40 DUP3 ADD MSTORE PUSH1 0x40 DUP3 ADD MLOAD PUSH2 0x8DA PUSH2 0x1C0 SWAP2 DUP3 PUSH1 0x60 DUP6 ADD MSTORE PUSH2 0x1E0 DUP5 ADD SWAP1 PUSH2 0x553 JUMP JUMPDEST PUSH2 0x990 PUSH2 0x910 PUSH2 0x8FC PUSH1 0x60 DUP8 ADD MLOAD SWAP4 PUSH1 0x1F NOT SWAP5 DUP6 DUP9 DUP4 SUB ADD PUSH1 0x80 DUP10 ADD MSTORE PUSH2 0x553 JUMP JUMPDEST PUSH1 0x80 DUP8 ADD MLOAD DUP5 DUP8 DUP4 SUB ADD PUSH1 0xA0 DUP9 ADD MSTORE PUSH2 0x553 JUMP JUMPDEST PUSH1 0xA0 DUP7 ADD MLOAD PUSH1 0xC0 DUP7 ADD MSTORE PUSH1 0xC0 DUP7 ADD MLOAD PUSH1 0xE0 DUP7 ADD MSTORE PUSH1 0xE0 DUP7 ADD MLOAD PUSH2 0x939 PUSH2 0x100 SWAP2 DUP3 DUP9 ADD SWAP1 PUSH2 0x87D JUMP JUMPDEST DUP7 ADD MLOAD PUSH2 0x94C PUSH2 0x120 SWAP2 DUP3 DUP9 ADD SWAP1 PUSH2 0x894 JUMP JUMPDEST DUP7 ADD MLOAD PUSH2 0x140 SWAP1 DUP2 DUP8 ADD MSTORE DUP7 ADD MLOAD PUSH2 0x160 SWAP1 DUP2 DUP8 ADD MSTORE DUP7 ADD MLOAD PUSH2 0x97C PUSH2 0x180 SWAP2 DUP3 DUP9 ADD SWAP1 PUSH1 0x1 DUP1 PUSH1 0xA0 SHL SUB AND SWAP1 MSTORE JUMP JUMPDEST DUP7 ADD MLOAD PUSH2 0x1A0 SWAP4 DUP7 DUP4 SUB ADD DUP5 DUP8 ADD MSTORE PUSH2 0x553 JUMP JUMPDEST SWAP4 ADD MLOAD SWAP2 ADD MSTORE SWAP1 JUMP JUMPDEST CALLVALUE PUSH2 0x42E JUMPI PUSH1 0x20 CALLDATASIZE PUSH1 0x3 NOT ADD SLT PUSH2 0x42E JUMPI PUSH1 0x40 MLOAD PUSH2 0x9B6 DUP2 PUSH2 0x12CC JUMP JUMPDEST PUSH2 0x1A0 PUSH1 0x0 SWAP2 DUP3 DUP2 MSTORE DUP3 PUSH1 0x20 DUP3 ADD MSTORE PUSH1 0x60 PUSH1 0x40 DUP3 ADD MSTORE PUSH1 0x60 DUP1 DUP3 ADD MSTORE PUSH1 0x60 PUSH1 0x80 DUP3 ADD MSTORE DUP3 PUSH1 0xA0 DUP3 ADD MSTORE DUP3 PUSH1 0xC0 DUP3 ADD MSTORE DUP3 PUSH1 0xE0 DUP3 ADD MSTORE DUP3 PUSH2 0x100 DUP3 ADD MSTORE DUP3 PUSH2 0x120 DUP3 ADD MSTORE DUP3 PUSH2 0x140 DUP3 ADD MSTORE DUP3 PUSH2 0x160 DUP3 ADD MSTORE PUSH1 0x60 PUSH2 0x180 DUP3 ADD MSTORE ADD MSTORE PUSH2 0x6A8 PUSH2 0xA32 PUSH2 0xA2D PUSH1 0x4 CALLDATALOAD PUSH1 0x0 MSTORE PUSH1 0x2 PUSH1 0x20 MSTORE PUSH1 0x40 PUSH1 0x0 KECCAK256 SWAP1 JUMP JUMPDEST PUSH2 0x2823 JUMP JUMPDEST PUSH1 0x40 MLOAD SWAP2 DUP3 SWAP2 DUP3 PUSH2 0x8A1 JUMP JUMPDEST SWAP2 DUP2 PUSH1 0x1F DUP5 ADD SLT ISZERO PUSH2 0x42E JUMPI DUP3 CALLDATALOAD SWAP2 PUSH8 0xFFFFFFFFFFFFFFFF DUP4 GT PUSH2 0x42E JUMPI PUSH1 0x20 DUP4 DUP2 DUP7 ADD SWAP6 ADD ADD GT PUSH2 0x42E JUMPI JUMP JUMPDEST CALLVALUE PUSH2 0x42E JUMPI PUSH1 0x80 CALLDATASIZE PUSH1 0x3 NOT ADD SLT PUSH2 0x42E JUMPI PUSH1 0x44 CALLDATALOAD PUSH1 0x24 CALLDATALOAD PUSH1 0x4 CALLDATALOAD PUSH1 0x64 CALLDATALOAD PUSH8 0xFFFFFFFFFFFFFFFF DUP2 GT PUSH2 0x42E JUMPI PUSH2 0xAA6 SWAP1 CALLDATASIZE SWAP1 PUSH1 0x4 ADD PUSH2 0xA3E JUMP JUMPDEST PUSH1 0x0 SWAP5 SWAP2 PUSH1 0xFF DUP7 SLOAD AND PUSH2 0x41C JUMPI PUSH2 0xABB PUSH2 0x2211 JUMP JUMPDEST DUP4 DUP7 MSTORE PUSH1 0x2 PUSH1 0x20 MSTORE PUSH2 0xAD2 PUSH1 0x40 DUP8 KECCAK256 SLOAD ISZERO ISZERO PUSH2 0x2241 JUMP JUMPDEST PUSH2 0xAE6 DUP5 PUSH1 0x0 MSTORE PUSH1 0x2 PUSH1 0x20 MSTORE PUSH1 0x40 PUSH1 0x0 KECCAK256 SWAP1 JUMP JUMPDEST PUSH1 0x7 DUP2 ADD SLOAD PUSH2 0xAFA SWAP1 PUSH1 0x8 SHR PUSH1 0xFF AND PUSH2 0x2F6 JUMP JUMPDEST PUSH2 0xB09 PUSH1 0x9 DUP3 ADD SLOAD TIMESTAMP LT PUSH2 0x22B5 JUMP JUMPDEST PUSH2 0xB19 PUSH1 0x5 DUP3 ADD SLOAD DUP8 GT ISZERO PUSH2 0x22F3 JUMP JUMPDEST PUSH1 0x1 SWAP1 DUP2 ADD SLOAD PUSH2 0xB45 SWAP1 PUSH2 0xB3D SWAP1 PUSH1 0x1 PUSH1 0x1 PUSH1 0xA0 SHL SUB AND JUMPDEST PUSH1 0x1 PUSH1 0x1 PUSH1 0xA0 SHL SUB AND SWAP1 JUMP JUMPDEST CALLER EQ ISZERO PUSH2 0x2334 JUMP JUMPDEST DUP7 DUP2 JUMPDEST PUSH2 0xBF7 JUMPI JUMPDEST POP POP CALLER PUSH1 0x0 SWAP1 DUP2 MSTORE PUSH1 0x5 PUSH1 0x20 MSTORE PUSH1 0x40 SWAP1 KECCAK256 PUSH32 0x71A5674C44B823BC0DF08201DFEB2E8BDF698CD684FD2BBAA79ADCF2C99FC186 SWAP4 PUSH2 0x3FF SWAP4 SWAP1 SWAP3 PUSH2 0xBDE SWAP3 PUSH2 0xBAF SWAP1 SLOAD SWAP2 PUSH2 0xB98 PUSH2 0x1E85 JUMP JUMPDEST CALLER DUP2 MSTORE SWAP4 DUP11 PUSH1 0x20 DUP7 ADD MSTORE DUP7 PUSH1 0x40 DUP7 ADD MSTORE CALLDATASIZE SWAP2 PUSH2 0x1EBB JUMP JUMPDEST PUSH1 0x60 DUP4 ADD MSTORE PUSH1 0x80 DUP3 ADD MSTORE TIMESTAMP PUSH1 0xA0 DUP3 ADD MSTORE DUP8 PUSH1 0xC0 DUP3 ADD MSTORE PUSH2 0xBD9 DUP7 PUSH1 0x0 MSTORE PUSH1 0x3 PUSH1 0x20 MSTORE PUSH1 0x40 PUSH1 0x0 KECCAK256 SWAP1 JUMP JUMPDEST PUSH2 0x23B3 JUMP JUMPDEST PUSH1 0x40 DUP1 MLOAD SWAP6 DUP7 MSTORE PUSH1 0x20 DUP7 ADD SWAP2 SWAP1 SWAP2 MSTORE CALLER SWAP5 SWAP2 DUP3 SWAP2 DUP3 ADD SWAP1 JUMP JUMPDEST PUSH2 0xC0B DUP7 PUSH1 0x0 MSTORE PUSH1 0x3 PUSH1 0x20 MSTORE PUSH1 0x40 PUSH1 0x0 KECCAK256 SWAP1 JUMP JUMPDEST SLOAD DUP2 LT ISZERO PUSH2 0xC5A JUMPI DUP1 PUSH2 0xC4F PUSH2 0xC32 PUSH2 0xC54 SWAP4 PUSH2 0x338 DUP11 PUSH1 0x0 MSTORE PUSH1 0x3 PUSH1 0x20 MSTORE PUSH1 0x40 PUSH1 0x0 KECCAK256 SWAP1 JUMP JUMPDEST POP SLOAD CALLER SWAP1 PUSH2 0xC48 SWAP1 PUSH1 0x1 PUSH1 0x1 PUSH1 0xA0 SHL SUB AND PUSH2 0xB31 JUMP JUMPDEST EQ ISZERO PUSH2 0x2379 JUMP JUMPDEST PUSH2 0x1E5B JUMP JUMPDEST DUP2 PUSH2 0xB48 JUMP JUMPDEST PUSH2 0xB4D JUMP JUMPDEST CALLVALUE PUSH2 0x42E JUMPI PUSH1 0x0 CALLDATASIZE PUSH1 0x3 NOT ADD SLT PUSH2 0x42E JUMPI PUSH1 0x20 PUSH1 0x9 SLOAD PUSH1 0x40 MLOAD SWAP1 DUP2 MSTORE RETURN JUMPDEST CALLVALUE PUSH2 0x42E JUMPI PUSH1 0x20 CALLDATASIZE PUSH1 0x3 NOT ADD SLT PUSH2 0x42E JUMPI PUSH1 0xFF PUSH1 0x0 SLOAD AND PUSH2 0x41C JUMPI PUSH2 0xCA0 PUSH2 0x2211 JUMP JUMPDEST PUSH1 0x4 CALLDATALOAD PUSH1 0x0 MSTORE PUSH1 0x2 PUSH1 0x20 MSTORE PUSH1 0x40 PUSH1 0x0 KECCAK256 SLOAD ISZERO ISZERO PUSH2 0xCBC SWAP1 PUSH2 0x2241 JUMP JUMPDEST PUSH1 0x4 CALLDATALOAD PUSH1 0x0 MSTORE PUSH1 0x2 PUSH1 0x20 MSTORE PUSH1 0x1 PUSH1 0xA0 SHL PUSH1 0x1 SWAP1 SUB PUSH1 0x40 PUSH1 0x0 KECCAK256 PUSH1 0x1 ADD SLOAD AND CALLER EQ PUSH2 0xCE5 SWAP1 PUSH2 0x2468 JUMP JUMPDEST PUSH1 0x4 CALLDATALOAD PUSH2 0xCFC SWAP1 PUSH1 0x0 MSTORE PUSH1 0x2 PUSH1 0x20 MSTORE PUSH1 0x40 PUSH1 0x0 KECCAK256 SWAP1 JUMP JUMPDEST PUSH1 0x7 DUP2 ADD DUP1 SLOAD PUSH1 0x8 SHR PUSH1 0xFF AND PUSH2 0xD11 DUP2 PUSH2 0x88A JUMP JUMPDEST PUSH1 0x3 EQ PUSH2 0xD1D SWAP1 PUSH2 0x2664 JUMP JUMPDEST DUP1 SLOAD PUSH2 0xFF00 NOT AND PUSH2 0x500 OR SWAP1 SSTORE PUSH1 0x5 DUP2 ADD SLOAD SWAP1 PUSH1 0x9 SLOAD PUSH2 0xD3D SWAP1 DUP4 PUSH2 0x26A0 JUMP JUMPDEST PUSH2 0x2710 SWAP1 DIV SWAP2 DUP3 PUSH2 0xD4D SWAP2 PUSH2 0x26B3 JUMP JUMPDEST SWAP2 PUSH1 0x6 DUP3 ADD SLOAD PUSH1 0xE SLOAD SWAP1 PUSH2 0xD60 SWAP2 PUSH2 0x26B3 JUMP JUMPDEST PUSH1 0xE SSTORE DUP1 PUSH1 0xF SLOAD SWAP1 PUSH2 0xD71 SWAP2 PUSH2 0x1E78 JUMP JUMPDEST PUSH1 0xF SSTORE PUSH1 0xD SLOAD PUSH2 0xD80 SWAP1 PUSH2 0x1E5B JUMP JUMPDEST PUSH1 0xD SSTORE PUSH1 0xA DUP3 ADD SLOAD PUSH1 0x1 PUSH1 0x1 PUSH1 0xA0 SHL SUB AND PUSH1 0x0 SWAP1 DUP2 MSTORE PUSH1 0x5 PUSH1 0x20 MSTORE PUSH1 0x40 SWAP1 KECCAK256 DUP1 SLOAD PUSH2 0xDAA SWAP1 PUSH2 0x1E6A JUMP JUMPDEST SWAP1 SSTORE PUSH1 0xA DUP3 ADD SLOAD PUSH1 0x1 PUSH1 0x1 PUSH1 0xA0 SHL SUB AND PUSH1 0x0 SWAP1 DUP2 MSTORE PUSH1 0x6 PUSH1 0x20 MSTORE PUSH1 0x40 SWAP1 KECCAK256 DUP1 SLOAD PUSH2 0xDD3 SWAP1 PUSH2 0x1E5B JUMP JUMPDEST SWAP1 SSTORE PUSH1 0xA DUP3 ADD SLOAD PUSH1 0x1 PUSH1 0x1 PUSH1 0xA0 SHL SUB AND PUSH1 0x0 SWAP1 DUP2 MSTORE PUSH1 0x7 PUSH1 0x20 MSTORE PUSH1 0x40 SWAP1 KECCAK256 DUP1 SLOAD PUSH2 0xDFE SWAP1 DUP6 SWAP1 PUSH2 0x1E78 JUMP JUMPDEST SWAP1 SSTORE PUSH1 0xA DUP3 ADD SLOAD DUP4 SWAP1 PUSH1 0x1 PUSH1 0x1 PUSH1 0xA0 SHL SUB AND GAS PUSH1 0x0 DUP1 SWAP4 DUP2 SWAP4 DUP3 SWAP4 CALL PUSH2 0xE22 PUSH2 0x26C0 JUMP JUMPDEST POP PUSH2 0xE2C SWAP1 PUSH2 0x26F0 JUMP JUMPDEST PUSH1 0x8 SLOAD PUSH1 0x1 PUSH1 0x1 PUSH1 0xA0 SHL SUB AND GAS PUSH1 0x0 DUP1 SWAP4 DUP2 SWAP4 DUP3 SWAP4 CALL PUSH2 0xE4A PUSH2 0x26C0 JUMP JUMPDEST POP PUSH2 0xE54 SWAP1 PUSH2 0x272D JUMP JUMPDEST PUSH1 0x6 DUP2 ADD SLOAD PUSH1 0x5 DUP3 ADD SLOAD PUSH2 0xE67 SWAP2 PUSH2 0x26B3 JUMP JUMPDEST DUP1 ISZERO ISZERO PUSH2 0xEAD PUSH1 0xA PUSH32 0xFC577563F1B9A0461E24ABEF1E1FCC0D33D3D881F20B5DF6DDA59DE4AAE2C821 SWAP5 PUSH2 0xF15 SWAP5 PUSH2 0xF04 SWAP5 PUSH2 0xF2F JUMPI JUMPDEST POP ADD SLOAD PUSH1 0x1 PUSH1 0x1 PUSH1 0xA0 SHL SUB AND SWAP1 JUMP JUMPDEST PUSH1 0x40 MLOAD SWAP5 DUP6 MSTORE PUSH1 0x1 PUSH1 0x1 PUSH1 0xA0 SHL SUB DUP2 AND SWAP5 DUP6 SWAP1 PUSH1 0x4 CALLDATALOAD SWAP1 PUSH32 0x224350E49B29E656CB8C93D7379C7DDB4907C6009B64159A5E70D38092EAE197 SWAP1 PUSH1 0x20 SWAP1 LOG3 PUSH1 0x1 PUSH1 0x1 PUSH1 0xA0 SHL SUB AND PUSH1 0x0 SWAP1 DUP2 MSTORE PUSH1 0x5 PUSH1 0x20 MSTORE PUSH1 0x40 SWAP1 KECCAK256 SWAP1 JUMP JUMPDEST SLOAD PUSH1 0x40 MLOAD SWAP1 DUP2 MSTORE SWAP1 DUP2 SWAP1 PUSH1 0x20 DUP3 ADD SWAP1 JUMP JUMPDEST SUB SWAP1 LOG2 PUSH2 0x19 PUSH1 0x1 PUSH1 0x0 DUP1 MLOAD PUSH1 0x20 PUSH2 0x2927 DUP4 CODECOPY DUP2 MLOAD SWAP2 MSTORE SSTORE JUMP JUMPDEST PUSH1 0x0 DUP1 DUP1 DUP1 PUSH2 0xF5B SWAP5 PUSH2 0xF4B PUSH1 0x1 DUP9 ADD SLOAD PUSH1 0x1 DUP1 PUSH1 0xA0 SHL SUB AND SWAP1 JUMP JUMPDEST GAS CALL PUSH2 0xF55 PUSH2 0x26C0 JUMP JUMPDEST POP PUSH2 0x276F JUMP JUMPDEST CODESIZE PUSH2 0xE9E JUMP JUMPDEST CALLVALUE PUSH2 0x42E JUMPI PUSH1 0x0 DUP1 PUSH1 0x3 NOT CALLDATASIZE ADD SLT PUSH2 0xFE9 JUMPI DUP1 SLOAD PUSH1 0x8 DUP2 SWAP1 SHR PUSH1 0x1 PUSH1 0x1 PUSH1 0xA0 SHL SUB AND CALLER SUB PUSH2 0xFD7 JUMPI PUSH1 0xFF DUP2 AND ISZERO PUSH2 0xFC5 JUMPI PUSH1 0xFF NOT AND DUP2 SSTORE PUSH32 0x5DB9EE0A495BF2E6FF9C91A7834C1BA4FDD244A5E8AA4E537BD38AEAE4B073AA PUSH1 0x20 PUSH1 0x40 MLOAD CALLER DUP2 MSTORE LOG1 DUP1 RETURN JUMPDEST PUSH1 0x40 MLOAD PUSH4 0xDCDDE9DD PUSH1 0xE0 SHL DUP2 MSTORE PUSH1 0x4 SWAP1 REVERT JUMPDEST PUSH1 0x40 MLOAD PUSH4 0x492F6781 PUSH1 0xE0 SHL DUP2 MSTORE PUSH1 0x4 SWAP1 REVERT JUMPDEST DUP1 REVERT JUMPDEST CALLVALUE PUSH2 0x42E JUMPI PUSH1 0x20 CALLDATASIZE PUSH1 0x3 NOT ADD SLT PUSH2 0x42E JUMPI PUSH2 0x1005 PUSH2 0x4E5 JUMP JUMPDEST PUSH1 0x0 SLOAD PUSH1 0x8 SHR PUSH1 0x1 PUSH1 0x1 PUSH1 0xA0 SHL SUB SWAP1 DUP2 AND SWAP1 CALLER DUP3 SWAP1 SUB PUSH2 0xFD7 JUMPI DUP3 AND SWAP2 DUP3 ISZERO PUSH2 0x1074 JUMPI PUSH1 0x0 DUP1 SLOAD PUSH2 0x100 PUSH1 0x1 PUSH1 0xA8 SHL SUB NOT AND PUSH1 0x8 SWAP3 SWAP1 SWAP3 SHL PUSH2 0x100 PUSH1 0x1 PUSH1 0xA8 SHL SUB AND SWAP2 SWAP1 SWAP2 OR SWAP1 SSTORE PUSH32 0x51C4874E0F23F262E04A38C51751336DDE72126D67F53EB672AAFF02996B3EF6 PUSH1 0x0 DUP1 LOG3 STOP JUMPDEST PUSH1 0x40 MLOAD PUSH3 0x461BCD PUSH1 0xE5 SHL DUP2 MSTORE PUSH1 0x20 PUSH1 0x4 DUP3 ADD MSTORE PUSH1 0x16 PUSH1 0x24 DUP3 ADD MSTORE PUSH22 0x496E76616C6964207061757365722061646472657373 PUSH1 0x50 SHL PUSH1 0x44 DUP3 ADD MSTORE PUSH1 0x64 SWAP1 REVERT JUMPDEST CALLVALUE PUSH2 0x42E JUMPI PUSH1 0x0 CALLDATASIZE PUSH1 0x3 NOT ADD SLT PUSH2 0x42E JUMPI PUSH1 0x8 SLOAD PUSH1 0x40 MLOAD PUSH1 0x1 PUSH1 0x1 PUSH1 0xA0 SHL SUB SWAP1 SWAP2 AND DUP2 MSTORE PUSH1 0x20 SWAP1 RETURN JUMPDEST SWAP1 PUSH1 0x40 PUSH1 0x3 NOT DUP4 ADD SLT PUSH2 0x42E JUMPI PUSH1 0x4 CALLDATALOAD SWAP2 PUSH1 0x24 CALLDATALOAD SWAP1 PUSH8 0xFFFFFFFFFFFFFFFF DUP3 GT PUSH2 0x42E JUMPI PUSH2 0x110B SWAP2 PUSH1 0x4 ADD PUSH2 0xA3E JUMP JUMPDEST SWAP1 SWAP2 JUMP JUMPDEST CALLVALUE PUSH2 0x42E JUMPI PUSH32 0x2214F6A8B429291289D3AFCDFCCC59167B10F1D8AD1529E3959F9CD19F19AF5F PUSH2 0x11E6 PUSH2 0x1141 CALLDATASIZE PUSH2 0x10DB JUMP JUMPDEST DUP3 PUSH1 0x0 SWAP6 SWAP4 SWAP5 SWAP3 SWAP6 MSTORE PUSH1 0x2 PUSH1 0x20 MSTORE PUSH2 0x115F PUSH1 0x40 PUSH1 0x0 KECCAK256 SLOAD ISZERO ISZERO PUSH2 0x2241 JUMP JUMPDEST PUSH2 0x11D8 PUSH1 0x7 PUSH2 0x1178 DUP7 PUSH1 0x0 MSTORE PUSH1 0x2 PUSH1 0x20 MSTORE PUSH1 0x40 PUSH1 0x0 KECCAK256 SWAP1 JUMP JUMPDEST PUSH1 0x1 DUP2 ADD SLOAD PUSH2 0x118F SWAP1 PUSH1 0x1 PUSH1 0x1 PUSH1 0xA0 SHL SUB AND PUSH2 0xB31 JUMP JUMPDEST CALLER EQ DUP1 ISZERO PUSH2 0x11FF JUMPI JUMPDEST PUSH2 0x11A1 SWAP1 PUSH2 0x27AB JUMP JUMPDEST ADD DUP1 SLOAD PUSH2 0x11C9 SWAP1 PUSH1 0x8 SHR PUSH1 0xFF AND PUSH2 0x11B7 DUP2 PUSH2 0x88A JUMP JUMPDEST PUSH1 0x2 DUP2 EQ SWAP1 DUP2 ISZERO PUSH2 0x11EB JUMPI JUMPDEST POP PUSH2 0x27E6 JUMP JUMPDEST DUP1 SLOAD PUSH2 0xFF00 NOT AND PUSH2 0x400 OR SWAP1 SSTORE JUMP JUMPDEST PUSH1 0x40 MLOAD SWAP2 DUP3 SWAP2 CALLER SWAP7 DUP4 PUSH2 0x2653 JUMP JUMPDEST SUB SWAP1 LOG3 STOP JUMPDEST PUSH1 0x3 SWAP2 POP PUSH2 0x11F8 DUP2 PUSH2 0x88A JUMP JUMPDEST EQ CODESIZE PUSH2 0x11C3 JUMP JUMPDEST POP PUSH1 0xA DUP2 ADD SLOAD PUSH2 0x11A1 SWAP1 PUSH2 0x121B SWAP1 PUSH1 0x1 PUSH1 0x1 PUSH1 0xA0 SHL SUB AND PUSH2 0xB31 JUMP JUMPDEST CALLER EQ SWAP1 POP PUSH2 0x1198 JUMP JUMPDEST PUSH4 0x4E487B71 PUSH1 0xE0 SHL PUSH1 0x0 MSTORE PUSH1 0x32 PUSH1 0x4 MSTORE PUSH1 0x24 PUSH1 0x0 REVERT JUMPDEST DUP1 SLOAD DUP3 LT ISZERO PUSH2 0x1256 JUMPI PUSH1 0x0 MSTORE PUSH1 0x7 PUSH1 0x20 PUSH1 0x0 KECCAK256 SWAP2 MUL ADD SWAP1 PUSH1 0x0 SWAP1 JUMP JUMPDEST PUSH2 0x1224 JUMP JUMPDEST SWAP1 PUSH1 0x1 DUP3 DUP2 SHR SWAP3 AND DUP1 ISZERO PUSH2 0x128B JUMPI JUMPDEST PUSH1 0x20 DUP4 LT EQ PUSH2 0x1275 JUMPI JUMP JUMPDEST PUSH4 0x4E487B71 PUSH1 0xE0 SHL PUSH1 0x0 MSTORE PUSH1 0x22 PUSH1 0x4 MSTORE PUSH1 0x24 PUSH1 0x0 REVERT JUMPDEST SWAP2 PUSH1 0x7F AND SWAP2 PUSH2 0x126A JUMP JUMPDEST PUSH4 0x4E487B71 PUSH1 0xE0 SHL PUSH1 0x0 MSTORE PUSH1 0x41 PUSH1 0x4 MSTORE PUSH1 0x24 PUSH1 0x0 REVERT JUMPDEST PUSH1 0xE0 DUP2 ADD SWAP1 DUP2 LT PUSH8 0xFFFFFFFFFFFFFFFF DUP3 GT OR PUSH2 0x12C7 JUMPI PUSH1 0x40 MSTORE JUMP JUMPDEST PUSH2 0x1295 JUMP JUMPDEST PUSH2 0x1C0 DUP2 ADD SWAP1 DUP2 LT PUSH8 0xFFFFFFFFFFFFFFFF DUP3 GT OR PUSH2 0x12C7 JUMPI PUSH1 0x40 MSTORE JUMP JUMPDEST SWAP1 PUSH1 0x1F DUP1 NOT SWAP2 ADD AND DUP2 ADD SWAP1 DUP2 LT PUSH8 0xFFFFFFFFFFFFFFFF DUP3 GT OR PUSH2 0x12C7 JUMPI PUSH1 0x40 MSTORE JUMP JUMPDEST SWAP1 PUSH1 0x40 MLOAD SWAP2 DUP3 PUSH1 0x0 DUP3 SLOAD SWAP3 PUSH2 0x131F DUP5 PUSH2 0x125B JUMP JUMPDEST SWAP1 DUP2 DUP5 MSTORE PUSH1 0x1 SWAP5 DUP6 DUP2 AND SWAP1 DUP2 PUSH1 0x0 EQ PUSH2 0x138E JUMPI POP PUSH1 0x1 EQ PUSH2 0x134B JUMPI JUMPDEST POP POP PUSH2 0x1349 SWAP3 POP SUB DUP4 PUSH2 0x12E9 JUMP JUMPDEST JUMP JUMPDEST SWAP1 SWAP4 SWAP2 POP PUSH1 0x0 MSTORE PUSH1 0x20 SWAP1 DUP2 PUSH1 0x0 KECCAK256 SWAP4 PUSH1 0x0 SWAP2 JUMPDEST DUP2 DUP4 LT PUSH2 0x1376 JUMPI POP POP PUSH2 0x1349 SWAP4 POP DUP3 ADD ADD CODESIZE DUP1 PUSH2 0x133B JUMP JUMPDEST DUP6 SLOAD DUP9 DUP5 ADD DUP6 ADD MSTORE SWAP5 DUP6 ADD SWAP5 DUP8 SWAP5 POP SWAP2 DUP4 ADD SWAP2 PUSH2 0x135E JUMP JUMPDEST SWAP2 POP POP PUSH2 0x1349 SWAP5 POP PUSH1 0x20 SWAP3 POP PUSH1 0xFF NOT AND DUP3 DUP5 ADD MSTORE ISZERO ISZERO PUSH1 0x5 SHL DUP3 ADD ADD CODESIZE DUP1 PUSH2 0x133B JUMP JUMPDEST SWAP6 SWAP3 PUSH2 0x13E3 SWAP3 PUSH1 0xC0 SWAP7 SWAP10 SWAP9 SWAP6 SWAP3 PUSH1 0x1 DUP1 PUSH1 0xA0 SHL SUB AND DUP9 MSTORE PUSH1 0x20 DUP9 ADD MSTORE PUSH1 0x40 DUP8 ADD MSTORE PUSH1 0xE0 PUSH1 0x60 DUP8 ADD MSTORE PUSH1 0xE0 DUP7 ADD SWAP1 PUSH2 0x553 JUMP JUMPDEST SWAP6 PUSH1 0x80 DUP6 ADD MSTORE PUSH1 0xA0 DUP5 ADD MSTORE ISZERO ISZERO SWAP2 ADD MSTORE JUMP JUMPDEST CALLVALUE PUSH2 0x42E JUMPI PUSH1 0x40 CALLDATASIZE PUSH1 0x3 NOT ADD SLT PUSH2 0x42E JUMPI PUSH1 0x24 CALLDATALOAD PUSH1 0x4 CALLDATALOAD PUSH1 0x0 MSTORE PUSH1 0x3 PUSH1 0x20 MSTORE PUSH1 0x40 PUSH1 0x0 KECCAK256 SWAP1 DUP2 SLOAD DUP2 LT ISZERO PUSH2 0x42E JUMPI PUSH2 0x142C SWAP2 PUSH2 0x123A JUMP JUMPDEST POP PUSH1 0x1 DUP1 PUSH1 0xA0 SHL SUB DUP2 SLOAD AND PUSH2 0x6A8 PUSH1 0x1 DUP4 ADD SLOAD SWAP3 PUSH1 0x2 DUP2 ADD SLOAD SWAP1 PUSH2 0x1452 PUSH1 0x3 DUP3 ADD PUSH2 0x130B JUMP JUMPDEST PUSH1 0x4 DUP3 ADD SLOAD SWAP1 PUSH1 0xFF PUSH1 0x6 PUSH1 0x5 DUP6 ADD SLOAD SWAP5 ADD SLOAD AND SWAP4 PUSH1 0x40 MLOAD SWAP8 DUP9 SWAP8 DUP9 PUSH2 0x13B1 JUMP JUMPDEST CALLVALUE PUSH2 0x42E JUMPI PUSH1 0x20 CALLDATASIZE PUSH1 0x3 NOT ADD SLT PUSH2 0x42E JUMPI PUSH1 0x1 PUSH1 0x1 PUSH1 0xA0 SHL SUB PUSH2 0x1493 PUSH2 0x4E5 JUMP JUMPDEST AND PUSH1 0x0 MSTORE PUSH1 0x5 PUSH1 0x20 MSTORE PUSH1 0x20 PUSH1 0x40 PUSH1 0x0 KECCAK256 SLOAD PUSH1 0x40 MLOAD SWAP1 DUP2 MSTORE RETURN JUMPDEST CALLVALUE PUSH2 0x42E JUMPI PUSH1 0x0 CALLDATASIZE PUSH1 0x3 NOT ADD SLT PUSH2 0x42E JUMPI PUSH1 0x20 PUSH1 0xFF PUSH1 0x0 SLOAD AND PUSH1 0x40 MLOAD SWAP1 ISZERO ISZERO DUP2 MSTORE RETURN JUMPDEST CALLVALUE PUSH2 0x42E JUMPI PUSH1 0x0 CALLDATASIZE PUSH1 0x3 NOT ADD SLT PUSH2 0x42E JUMPI PUSH1 0x20 PUSH1 0xF SLOAD PUSH1 0x40 MLOAD SWAP1 DUP2 MSTORE RETURN JUMPDEST CALLVALUE PUSH2 0x42E JUMPI PUSH1 0x0 CALLDATASIZE PUSH1 0x3 NOT ADD SLT PUSH2 0x42E JUMPI PUSH1 0x20 PUSH1 0xC SLOAD PUSH1 0x40 MLOAD SWAP1 DUP2 MSTORE RETURN JUMPDEST DUP1 SLOAD DUP3 LT ISZERO PUSH2 0x1256 JUMPI PUSH1 0x0 MSTORE PUSH1 0x20 PUSH1 0x0 KECCAK256 ADD SWAP1 PUSH1 0x0 SWAP1 JUMP JUMPDEST CALLVALUE PUSH2 0x42E JUMPI PUSH1 0x40 CALLDATASIZE PUSH1 0x3 NOT ADD SLT PUSH2 0x42E JUMPI PUSH2 0x153C PUSH2 0x4E5 JUMP JUMPDEST PUSH1 0x1 PUSH1 0x1 PUSH1 0xA0 SHL SUB AND PUSH1 0x0 SWAP1 DUP2 MSTORE PUSH1 0x4 PUSH1 0x20 MSTORE PUSH1 0x40 SWAP1 KECCAK256 DUP1 SLOAD PUSH1 0x24 CALLDATALOAD SWAP2 SWAP1 DUP3 LT ISZERO PUSH2 0x42E JUMPI PUSH1 0x20 SWAP2 PUSH2 0x156D SWAP2 PUSH2 0x150B JUMP JUMPDEST SWAP1 SLOAD PUSH1 0x40 MLOAD SWAP2 PUSH1 0x3 SHL SHR DUP2 MSTORE RETURN JUMPDEST CALLVALUE PUSH2 0x42E JUMPI PUSH1 0x20 CALLDATASIZE PUSH1 0x3 NOT ADD SLT PUSH2 0x42E JUMPI PUSH1 0x1 PUSH1 0x1 PUSH1 0xA0 SHL SUB PUSH2 0x159C PUSH2 0x4E5 JUMP JUMPDEST AND PUSH1 0x0 MSTORE PUSH1 0x6 PUSH1 0x20 MSTORE PUSH1 0x20 PUSH1 0x40 PUSH1 0x0 KECCAK256 SLOAD PUSH1 0x40 MLOAD SWAP1 DUP2 MSTORE RETURN JUMPDEST CALLVALUE PUSH2 0x42E JUMPI PUSH1 0x20 CALLDATASIZE PUSH1 0x3 NOT ADD SLT PUSH2 0x42E JUMPI PUSH1 0x4 CALLDATALOAD PUSH1 0x0 MSTORE PUSH1 0x3 PUSH1 0x20 MSTORE PUSH1 0x20 PUSH1 0x40 PUSH1 0x0 KECCAK256 SLOAD PUSH1 0x40 MLOAD SWAP1 DUP2 MSTORE RETURN JUMPDEST CALLVALUE PUSH2 0x42E JUMPI PUSH1 0x20 CALLDATASIZE PUSH1 0x3 NOT ADD SLT PUSH2 0x42E JUMPI PUSH1 0x4 CALLDATALOAD PUSH1 0x0 SWAP1 DUP1 DUP3 MSTORE PUSH1 0x2 PUSH1 0x20 MSTORE PUSH1 0x40 DUP3 KECCAK256 SLOAD ISZERO ISZERO PUSH2 0x1610 SWAP1 PUSH2 0x2241 JUMP JUMPDEST DUP1 DUP3 MSTORE PUSH1 0x2 PUSH1 0x20 MSTORE PUSH1 0x40 DUP3 KECCAK256 PUSH1 0x1 ADD SLOAD PUSH2 0x1634 SWAP1 PUSH1 0x1 PUSH1 0x1 PUSH1 0xA0 SHL SUB AND CALLER EQ PUSH2 0x2468 JUMP JUMPDEST PUSH2 0x1648 DUP2 PUSH1 0x0 MSTORE PUSH1 0x2 PUSH1 0x20 MSTORE PUSH1 0x40 PUSH1 0x0 KECCAK256 SWAP1 JUMP JUMPDEST PUSH1 0x7 DUP2 ADD DUP1 SLOAD PUSH1 0x8 SHR PUSH1 0xFF AND PUSH2 0x165D DUP2 PUSH2 0x88A JUMP JUMPDEST ISZERO PUSH2 0x1667 SWAP1 PUSH2 0x227E JUMP JUMPDEST DUP1 SLOAD PUSH2 0xFF00 NOT AND PUSH2 0x600 OR SWAP1 SSTORE DUP3 DUP1 DUP1 DUP1 PUSH1 0x6 DUP6 ADD SLOAD PUSH1 0xB SLOAD PUSH2 0x168A SWAP1 DUP3 PUSH2 0x26A0 JUMP JUMPDEST PUSH2 0x2710 SWAP1 DIV SWAP6 DUP3 DUP1 DUP1 DUP1 PUSH2 0x169E DUP12 DUP8 PUSH2 0x26B3 JUMP JUMPDEST SWAP11 DUP12 SWAP7 PUSH1 0xE SLOAD SWAP1 PUSH2 0x16AE SWAP2 PUSH2 0x26B3 JUMP JUMPDEST PUSH1 0xE SSTORE DUP1 PUSH1 0xF SLOAD SWAP1 PUSH2 0x16BF SWAP2 PUSH2 0x1E78 JUMP JUMPDEST PUSH1 0xF SSTORE PUSH1 0x8 SLOAD PUSH1 0x1 PUSH1 0x1 PUSH1 0xA0 SHL SUB AND GAS CALL PUSH2 0x16D8 PUSH2 0x26C0 JUMP JUMPDEST POP PUSH2 0x16E2 SWAP1 PUSH2 0x272D JUMP JUMPDEST PUSH1 0x1 ADD SLOAD PUSH1 0x1 PUSH1 0x1 PUSH1 0xA0 SHL SUB AND GAS CALL PUSH2 0x16F9 PUSH2 0x26C0 JUMP JUMPDEST POP PUSH2 0x1703 SWAP1 PUSH2 0x276F JUMP JUMPDEST PUSH1 0x40 MLOAD SWAP1 DUP2 MSTORE PUSH32 0x58716386E17644E69FF7358E3317A395F4523FCD0FB9CC227EE68D117EBBFBFC SWAP1 PUSH1 0x20 SWAP1 LOG2 DUP1 RETURN JUMPDEST PUSH1 0xA0 CALLDATASIZE PUSH1 0x3 NOT ADD SLT PUSH2 0x42E JUMPI PUSH8 0xFFFFFFFFFFFFFFFF PUSH1 0x4 CALLDATALOAD DUP2 DUP2 GT PUSH2 0x42E JUMPI PUSH2 0x175F SWAP1 CALLDATASIZE SWAP1 PUSH1 0x4 ADD PUSH2 0xA3E JUMP JUMPDEST SWAP1 PUSH1 0x24 CALLDATALOAD DUP4 DUP2 GT PUSH2 0x42E JUMPI PUSH2 0x1778 SWAP1 CALLDATASIZE SWAP1 PUSH1 0x4 ADD PUSH2 0xA3E JUMP JUMPDEST SWAP2 SWAP1 SWAP4 PUSH1 0x44 CALLDATALOAD SWAP1 DUP2 GT PUSH2 0x42E JUMPI PUSH2 0x1793 SWAP1 CALLDATASIZE SWAP1 PUSH1 0x4 ADD PUSH2 0xA3E JUMP JUMPDEST SWAP1 PUSH1 0x84 CALLDATALOAD SWAP4 PUSH1 0x4 DUP6 LT ISZERO PUSH2 0x42E JUMPI PUSH2 0x6A8 SWAP7 PUSH2 0x17B2 SWAP7 PUSH1 0x64 CALLDATALOAD SWAP6 PUSH2 0x1BE0 JUMP JUMPDEST PUSH1 0x40 MLOAD SWAP1 DUP2 MSTORE SWAP1 DUP2 SWAP1 PUSH1 0x20 DUP3 ADD SWAP1 JUMP JUMPDEST CALLVALUE PUSH2 0x42E JUMPI PUSH1 0x0 CALLDATASIZE PUSH1 0x3 NOT ADD SLT PUSH2 0x42E JUMPI PUSH1 0x20 PUSH1 0xA SLOAD PUSH1 0x40 MLOAD SWAP1 DUP2 MSTORE RETURN JUMPDEST CALLVALUE PUSH2 0x42E JUMPI PUSH1 0x0 DUP1 PUSH1 0x3 NOT CALLDATASIZE ADD SLT PUSH2 0xFE9 JUMPI DUP1 SLOAD PUSH1 0x8 DUP2 SWAP1 SHR PUSH1 0x1 PUSH1 0x1 PUSH1 0xA0 SHL SUB AND CALLER SUB PUSH2 0xFD7 JUMPI PUSH1 0xFF DUP2 AND PUSH2 0x41C JUMPI PUSH1 0x1 SWAP1 PUSH1 0xFF NOT AND OR DUP2 SSTORE PUSH32 0x62E78CEA01BEE320CD4E420270B5EA74000D11B0C9F74754EBDBFC544B05A258 PUSH1 0x20 PUSH1 0x40 MLOAD CALLER DUP2 MSTORE LOG1 DUP1 RETURN JUMPDEST SWAP15 SWAP14 SWAP13 SWAP9 SWAP3 DUP16 PUSH2 0x1A0 SWAP14 SWAP9 PUSH2 0x18B6 PUSH2 0x18FE SWAP15 SWAP10 SWAP14 SWAP9 PUSH2 0x18A8 PUSH2 0x18D3 SWAP10 PUSH2 0x189A PUSH2 0x18F0 SWAP16 SWAP9 SWAP8 PUSH2 0x1889 PUSH2 0x18C8 SWAP12 PUSH1 0xE0 SWAP11 DUP11 MSTORE PUSH1 0x20 DUP11 ADD SWAP1 PUSH1 0x1 DUP1 PUSH1 0xA0 SHL SUB AND SWAP1 MSTORE JUMP JUMPDEST PUSH2 0x1C0 DUP1 PUSH1 0x40 DUP11 ADD MSTORE DUP9 ADD SWAP1 PUSH2 0x553 JUMP JUMPDEST SWAP1 DUP7 DUP3 SUB PUSH1 0x60 DUP9 ADD MSTORE PUSH2 0x553 JUMP JUMPDEST SWAP1 DUP5 DUP3 SUB PUSH1 0x80 DUP7 ADD MSTORE PUSH2 0x553 JUMP JUMPDEST SWAP13 PUSH1 0xA0 DUP4 ADD MSTORE PUSH1 0xC0 DUP3 ADD MSTORE ADD SWAP1 PUSH2 0x87D JUMP JUMPDEST PUSH2 0x100 DUP14 ADD SWAP1 PUSH2 0x894 JUMP JUMPDEST PUSH2 0x120 DUP12 ADD MSTORE PUSH2 0x140 DUP11 ADD MSTORE PUSH1 0x1 PUSH1 0x1 PUSH1 0xA0 SHL SUB AND PUSH2 0x160 DUP10 ADD MSTORE JUMP JUMPDEST DUP7 DUP3 SUB PUSH2 0x180 DUP9 ADD MSTORE PUSH2 0x553 JUMP JUMPDEST SWAP4 ADD MSTORE JUMP JUMPDEST CALLVALUE PUSH2 0x42E JUMPI PUSH1 0x20 CALLDATASIZE PUSH1 0x3 NOT ADD SLT PUSH2 0x42E JUMPI PUSH1 0x4 CALLDATALOAD PUSH1 0x0 SWAP1 DUP2 MSTORE PUSH1 0x2 PUSH1 0x20 MSTORE PUSH1 0x40 SWAP1 KECCAK256 DUP1 SLOAD PUSH1 0x1 DUP3 ADD SLOAD PUSH2 0x6A8 SWAP1 PUSH1 0x1 PUSH1 0x1 PUSH1 0xA0 SHL SUB AND SWAP2 PUSH2 0x1946 PUSH1 0x2 DUP6 ADD PUSH2 0x130B JUMP JUMPDEST SWAP4 PUSH2 0x1953 PUSH1 0x3 DUP3 ADD PUSH2 0x130B JUMP JUMPDEST SWAP2 PUSH2 0x1960 PUSH1 0x4 DUP4 ADD PUSH2 0x130B JUMP JUMPDEST SWAP1 PUSH1 0x5 DUP4 ADD SLOAD SWAP1 PUSH1 0x6 DUP5 ADD SLOAD SWAP1 PUSH1 0x7 DUP6 ADD SLOAD SWAP1 PUSH1 0x8 DUP7 ADD SLOAD SWAP3 PUSH1 0x9 DUP8 ADD SLOAD SWAP5 PUSH2 0x1992 PUSH1 0xA DUP10 ADD SLOAD PUSH1 0x1 DUP1 PUSH1 0xA0 SHL SUB AND SWAP1 JUMP JUMPDEST SWAP7 PUSH1 0xC PUSH2 0x19A1 PUSH1 0xB DUP12 ADD PUSH2 0x130B JUMP JUMPDEST SWAP10 ADD SLOAD SWAP10 PUSH1 0x40 MLOAD SWAP14 DUP15 SWAP14 DUP15 SWAP7 PUSH1 0xFF DUP1 DUP11 PUSH1 0x8 SHR AND SWAP10 AND SWAP8 PUSH2 0x1847 JUMP JUMPDEST CALLVALUE PUSH2 0x42E JUMPI PUSH1 0x0 CALLDATASIZE PUSH1 0x3 NOT ADD SLT PUSH2 0x42E JUMPI PUSH1 0x20 PUSH1 0xB SLOAD PUSH1 0x40 MLOAD SWAP1 DUP2 MSTORE RETURN JUMPDEST CALLVALUE PUSH2 0x42E JUMPI PUSH1 0x0 CALLDATASIZE PUSH1 0x3 NOT ADD SLT PUSH2 0x42E JUMPI PUSH1 0x0 SLOAD PUSH1 0x40 MLOAD PUSH1 0x8 SWAP2 SWAP1 SWAP2 SHR PUSH1 0x1 PUSH1 0x1 PUSH1 0xA0 SHL SUB AND DUP2 MSTORE PUSH1 0x20 SWAP1 RETURN JUMPDEST CALLVALUE PUSH2 0x42E JUMPI PUSH1 0x20 CALLDATASIZE PUSH1 0x3 NOT ADD SLT PUSH2 0x42E JUMPI PUSH1 0x1 PUSH1 0x1 PUSH1 0xA0 SHL SUB PUSH2 0x1A29 PUSH2 0x4E5 JUMP JUMPDEST AND PUSH1 0x0 MSTORE PUSH1 0x5 PUSH1 0x20 MSTORE PUSH1 0x60 PUSH1 0x40 PUSH1 0x0 KECCAK256 SLOAD PUSH1 0x6 PUSH1 0x20 MSTORE PUSH1 0x40 PUSH1 0x0 KECCAK256 SLOAD PUSH1 0x7 PUSH1 0x20 MSTORE PUSH1 0x40 PUSH1 0x0 KECCAK256 SLOAD SWAP1 PUSH1 0x40 MLOAD SWAP3 DUP4 MSTORE PUSH1 0x20 DUP4 ADD MSTORE PUSH1 0x40 DUP3 ADD MSTORE RETURN JUMPDEST CALLVALUE PUSH2 0x42E JUMPI PUSH1 0x20 DUP1 PUSH1 0x3 NOT CALLDATASIZE ADD SLT PUSH2 0x42E JUMPI PUSH1 0x1 PUSH1 0x1 PUSH1 0xA0 SHL SUB PUSH2 0x1A85 PUSH2 0x4E5 JUMP JUMPDEST AND PUSH1 0x0 MSTORE PUSH1 0x4 DUP2 MSTORE PUSH1 0x40 PUSH1 0x0 KECCAK256 SWAP1 PUSH1 0x40 MLOAD SWAP1 DUP2 DUP2 DUP5 SLOAD SWAP2 DUP3 DUP2 MSTORE ADD SWAP4 PUSH1 0x0 MSTORE DUP2 PUSH1 0x0 KECCAK256 SWAP2 PUSH1 0x0 SWAP1 JUMPDEST DUP3 DUP3 LT PUSH2 0x1AD0 JUMPI PUSH2 0x6A8 DUP6 PUSH2 0x1AC4 DUP2 DUP10 SUB DUP3 PUSH2 0x12E9 JUMP JUMPDEST PUSH1 0x40 MLOAD SWAP2 DUP3 SWAP2 DUP3 PUSH2 0x72F JUMP JUMPDEST DUP4 SLOAD DUP7 MSTORE SWAP5 DUP6 ADD SWAP5 PUSH1 0x1 SWAP4 DUP5 ADD SWAP4 SWAP1 SWAP2 ADD SWAP1 PUSH2 0x1AAD JUMP JUMPDEST CALLVALUE PUSH2 0x42E JUMPI PUSH2 0x1AF5 CALLDATASIZE PUSH2 0x10DB JUMP JUMPDEST SWAP2 PUSH32 0x6FBD90F6B051DD2B74925FE39AEF5391515A82AC6783676B36A54AA5221C6A4F PUSH2 0x1B9E PUSH1 0x0 SWAP5 DUP4 DUP7 MSTORE PUSH1 0x2 PUSH1 0x20 MSTORE PUSH2 0x1B34 PUSH1 0x40 DUP8 KECCAK256 SLOAD ISZERO ISZERO PUSH2 0x2241 JUMP JUMPDEST DUP4 DUP7 MSTORE PUSH1 0x2 PUSH1 0x20 MSTORE PUSH2 0x11D8 PUSH1 0x40 DUP8 KECCAK256 PUSH2 0x1B5A PUSH1 0x1 DUP1 PUSH1 0xA0 SHL SUB PUSH1 0xA DUP4 ADD SLOAD AND CALLER EQ PUSH2 0x251A JUMP JUMPDEST PUSH1 0x7 DUP2 ADD SWAP1 PUSH2 0x1B7B PUSH1 0x2 PUSH1 0xFF DUP5 SLOAD PUSH1 0x8 SHR AND PUSH2 0x1B75 DUP2 PUSH2 0x88A JUMP JUMPDEST EQ PUSH2 0x2555 JUMP JUMPDEST PUSH2 0x1B89 DUP5 DUP10 PUSH1 0xB DUP5 ADD PUSH2 0x2593 JUMP JUMPDEST PUSH1 0xC TIMESTAMP SWAP2 ADD SSTORE PUSH2 0x300 PUSH2 0xFF00 NOT DUP3 SLOAD AND OR SWAP1 SSTORE JUMP JUMPDEST SUB SWAP1 LOG3 DUP1 RETURN JUMPDEST CALLVALUE PUSH2 0x42E JUMPI PUSH1 0x0 CALLDATASIZE PUSH1 0x3 NOT ADD SLT PUSH2 0x42E JUMPI PUSH1 0x20 PUSH1 0xE SLOAD PUSH1 0x40 MLOAD SWAP1 DUP2 MSTORE RETURN JUMPDEST CALLVALUE PUSH2 0x42E JUMPI PUSH1 0x0 CALLDATASIZE PUSH1 0x3 NOT ADD SLT PUSH2 0x42E JUMPI PUSH1 0x20 PUSH1 0x1 SLOAD PUSH1 0x40 MLOAD SWAP1 DUP2 MSTORE RETURN JUMPDEST SWAP2 SWAP1 SWAP6 SWAP3 SWAP7 SWAP4 SWAP7 PUSH1 0xFF PUSH1 0x0 SLOAD AND PUSH2 0x41C JUMPI PUSH2 0x1BF9 PUSH2 0x2211 JUMP JUMPDEST PUSH2 0x1C07 PUSH1 0xA SLOAD DUP6 LT ISZERO PUSH2 0x1DC5 JUMP JUMPDEST PUSH2 0x1C13 DUP5 CALLVALUE LT ISZERO PUSH2 0x1E02 JUMP JUMPDEST PUSH2 0x1C1C DUP6 PUSH2 0x873 JUMP JUMPDEST DUP5 PUSH2 0x1D87 JUMPI PUSH3 0x3F480 SWAP2 JUMPDEST PUSH1 0x1 SLOAD SWAP9 DUP10 SWAP8 PUSH2 0x1C36 DUP10 PUSH2 0x1E5B JUMP JUMPDEST PUSH1 0x1 SSTORE PUSH2 0x1C43 DUP6 TIMESTAMP PUSH2 0x1E78 JUMP JUMPDEST SWAP3 PUSH2 0x1C4C PUSH2 0x1E92 JUMP JUMPDEST DUP11 DUP2 MSTORE CALLER PUSH1 0x20 DUP3 ADD MSTORE SWAP5 PUSH2 0x1C61 CALLDATASIZE DUP14 DUP11 PUSH2 0x1EBB JUMP JUMPDEST PUSH1 0x40 DUP8 ADD MSTORE CALLDATASIZE SWAP1 PUSH2 0x1C71 SWAP3 PUSH2 0x1EBB JUMP JUMPDEST PUSH1 0x60 DUP6 ADD MSTORE CALLDATASIZE SWAP1 PUSH2 0x1C81 SWAP3 PUSH2 0x1EBB JUMP JUMPDEST PUSH1 0x80 DUP4 ADD MSTORE PUSH1 0xA0 DUP3 ADD DUP6 SWAP1 MSTORE CALLVALUE PUSH1 0xC0 DUP4 ADD MSTORE PUSH2 0x1CA0 DUP7 PUSH1 0xE0 DUP5 ADD PUSH2 0x1EF2 JUMP JUMPDEST PUSH2 0x100 DUP3 ADD PUSH1 0x0 SWAP1 MSTORE TIMESTAMP PUSH2 0x120 DUP4 ADD MSTORE PUSH2 0x140 DUP3 ADD MSTORE PUSH2 0x160 DUP2 ADD PUSH1 0x0 SWAP1 MSTORE PUSH2 0x1CC7 PUSH2 0x1F0A JUMP JUMPDEST PUSH2 0x180 DUP3 ADD MSTORE PUSH2 0x1A0 DUP2 ADD PUSH1 0x0 SWAP1 MSTORE PUSH2 0x1CEA DUP7 PUSH1 0x0 MSTORE PUSH1 0x2 PUSH1 0x20 MSTORE PUSH1 0x40 PUSH1 0x0 KECCAK256 SWAP1 JUMP JUMPDEST SWAP1 PUSH2 0x1CF4 SWAP2 PUSH2 0x2088 JUMP JUMPDEST CALLER PUSH1 0x0 SWAP1 DUP2 MSTORE PUSH1 0x4 PUSH1 0x20 MSTORE PUSH1 0x40 SWAP1 KECCAK256 DUP6 PUSH2 0x1D0D SWAP2 PUSH2 0x218A JUMP JUMPDEST PUSH1 0xC SLOAD PUSH2 0x1D19 SWAP1 PUSH2 0x1E5B JUMP JUMPDEST PUSH1 0xC SSTORE CALLVALUE PUSH1 0xE SLOAD SWAP1 PUSH2 0x1D2A SWAP2 PUSH2 0x1E78 JUMP JUMPDEST PUSH1 0xE SSTORE PUSH2 0x1D37 SWAP1 TIMESTAMP PUSH2 0x1E78 JUMP JUMPDEST PUSH1 0x40 MLOAD SWAP4 DUP5 SWAP4 CALLER SWAP8 PUSH2 0x1D49 SWAP5 DUP7 PUSH2 0x21E0 JUMP JUMPDEST SUB PUSH32 0x3E3DAD351780E0C5D9667147CA353C4414B45BFF35C16EAB9CF5BF45F60D71AC SWAP2 LOG3 PUSH2 0x1D84 PUSH1 0x1 PUSH1 0x0 DUP1 MLOAD PUSH1 0x20 PUSH2 0x2927 DUP4 CODECOPY DUP2 MLOAD SWAP2 MSTORE SSTORE JUMP JUMPDEST SWAP1 JUMP JUMPDEST PUSH2 0x1D90 DUP6 PUSH2 0x873 JUMP JUMPDEST PUSH1 0x1 DUP6 SUB PUSH2 0x1DA2 JUMPI PUSH3 0x15180 SWAP2 PUSH2 0x1C27 JUMP JUMPDEST PUSH2 0x1DAB DUP6 PUSH2 0x873 JUMP JUMPDEST PUSH1 0x2 DUP6 SUB PUSH2 0x1DBC JUMPI PUSH2 0x3840 SWAP2 PUSH2 0x1C27 JUMP JUMPDEST PUSH2 0xE10 SWAP2 PUSH2 0x1C27 JUMP JUMPDEST ISZERO PUSH2 0x1DCC JUMPI JUMP JUMPDEST PUSH1 0x40 MLOAD PUSH3 0x461BCD PUSH1 0xE5 SHL DUP2 MSTORE PUSH1 0x20 PUSH1 0x4 DUP3 ADD MSTORE PUSH1 0xE PUSH1 0x24 DUP3 ADD MSTORE PUSH14 0x52657761726420746F6F206C6F77 PUSH1 0x90 SHL PUSH1 0x44 DUP3 ADD MSTORE PUSH1 0x64 SWAP1 REVERT JUMPDEST ISZERO PUSH2 0x1E09 JUMPI JUMP JUMPDEST PUSH1 0x40 MLOAD PUSH3 0x461BCD PUSH1 0xE5 SHL DUP2 MSTORE PUSH1 0x20 PUSH1 0x4 DUP3 ADD MSTORE PUSH1 0x14 PUSH1 0x24 DUP3 ADD MSTORE PUSH20 0x125B9CDD59999A58DA595B9D081C185E5B595B9D PUSH1 0x62 SHL PUSH1 0x44 DUP3 ADD MSTORE PUSH1 0x64 SWAP1 REVERT JUMPDEST PUSH4 0x4E487B71 PUSH1 0xE0 SHL PUSH1 0x0 MSTORE PUSH1 0x11 PUSH1 0x4 MSTORE PUSH1 0x24 PUSH1 0x0 REVERT JUMPDEST PUSH1 0x0 NOT DUP2 EQ PUSH2 0x858 JUMPI PUSH1 0x1 ADD SWAP1 JUMP JUMPDEST SWAP1 PUSH1 0xA DUP3 ADD DUP1 SWAP3 GT PUSH2 0x858 JUMPI JUMP JUMPDEST SWAP2 SWAP1 DUP3 ADD DUP1 SWAP3 GT PUSH2 0x858 JUMPI JUMP JUMPDEST PUSH1 0x40 MLOAD SWAP1 PUSH2 0x1349 DUP3 PUSH2 0x12AB JUMP JUMPDEST PUSH1 0x40 MLOAD SWAP1 PUSH2 0x1349 DUP3 PUSH2 0x12CC JUMP JUMPDEST PUSH8 0xFFFFFFFFFFFFFFFF DUP2 GT PUSH2 0x12C7 JUMPI PUSH1 0x1F ADD PUSH1 0x1F NOT AND PUSH1 0x20 ADD SWAP1 JUMP JUMPDEST SWAP3 SWAP2 SWAP3 PUSH2 0x1EC7 DUP3 PUSH2 0x1E9F JUMP JUMPDEST SWAP2 PUSH2 0x1ED5 PUSH1 0x40 MLOAD SWAP4 DUP5 PUSH2 0x12E9 JUMP JUMPDEST DUP3 SWAP5 DUP2 DUP5 MSTORE DUP2 DUP4 ADD GT PUSH2 0x42E JUMPI DUP3 DUP2 PUSH1 0x20 SWAP4 DUP5 PUSH1 0x0 SWAP7 ADD CALLDATACOPY ADD ADD MSTORE JUMP JUMPDEST PUSH1 0x4 DUP3 LT ISZERO PUSH2 0x4E0 JUMPI MSTORE JUMP JUMPDEST PUSH1 0x7 DUP3 LT ISZERO PUSH2 0x4E0 JUMPI MSTORE JUMP JUMPDEST PUSH1 0x40 MLOAD SWAP1 PUSH1 0x20 DUP3 ADD DUP3 DUP2 LT PUSH8 0xFFFFFFFFFFFFFFFF DUP3 GT OR PUSH2 0x12C7 JUMPI PUSH1 0x40 MSTORE PUSH1 0x0 DUP3 MSTORE JUMP JUMPDEST SWAP1 PUSH1 0x1F DUP2 GT PUSH2 0x1F3C JUMPI POP POP POP JUMP JUMPDEST PUSH1 0x0 SWAP2 DUP3 MSTORE PUSH1 0x20 DUP3 KECCAK256 SWAP1 PUSH1 0x20 PUSH1 0x1F DUP6 ADD PUSH1 0x5 SHR DUP4 ADD SWAP5 LT PUSH2 0x1F78 JUMPI JUMPDEST PUSH1 0x1F ADD PUSH1 0x5 SHR ADD SWAP2 JUMPDEST DUP3 DUP2 LT PUSH2 0x1F6D JUMPI POP POP POP JUMP JUMPDEST DUP2 DUP2 SSTORE PUSH1 0x1 ADD PUSH2 0x1F61 JUMP JUMPDEST SWAP1 SWAP3 POP DUP3 SWAP1 PUSH2 0x1F58 JUMP JUMPDEST SWAP2 SWAP1 SWAP2 DUP3 MLOAD PUSH8 0xFFFFFFFFFFFFFFFF DUP2 GT PUSH2 0x12C7 JUMPI PUSH2 0x1FAA DUP2 PUSH2 0x1FA4 DUP5 SLOAD PUSH2 0x125B JUMP JUMPDEST DUP5 PUSH2 0x1F2E JUMP JUMPDEST PUSH1 0x20 DUP1 PUSH1 0x1F DUP4 GT PUSH1 0x1 EQ PUSH2 0x1FE6 JUMPI POP DUP2 SWAP3 SWAP4 SWAP5 PUSH1 0x0 SWAP3 PUSH2 0x1FDB JUMPI JUMPDEST POP POP DUP2 PUSH1 0x1 SHL SWAP2 PUSH1 0x0 NOT SWAP1 PUSH1 0x3 SHL SHR NOT AND OR SWAP1 SSTORE JUMP JUMPDEST ADD MLOAD SWAP1 POP CODESIZE DUP1 PUSH2 0x1FC5 JUMP JUMPDEST SWAP1 PUSH1 0x1F NOT DUP4 AND SWAP6 PUSH2 0x1FFC DUP6 PUSH1 0x0 MSTORE PUSH1 0x20 PUSH1 0x0 KECCAK256 SWAP1 JUMP JUMPDEST SWAP3 PUSH1 0x0 SWAP1 JUMPDEST DUP9 DUP3 LT PUSH2 0x2039 JUMPI POP POP DUP4 PUSH1 0x1 SWAP6 SWAP7 SWAP8 LT PUSH2 0x2020 JUMPI JUMPDEST POP POP POP DUP2 SHL ADD SWAP1 SSTORE JUMP JUMPDEST ADD MLOAD PUSH1 0x0 NOT PUSH1 0xF8 DUP5 PUSH1 0x3 SHL AND SHR NOT AND SWAP1 SSTORE CODESIZE DUP1 DUP1 PUSH2 0x2016 JUMP JUMPDEST DUP1 PUSH1 0x1 DUP6 SWAP7 DUP3 SWAP5 SWAP7 DUP7 ADD MLOAD DUP2 SSTORE ADD SWAP6 ADD SWAP4 ADD SWAP1 PUSH2 0x2001 JUMP JUMPDEST SWAP1 PUSH1 0x4 DUP2 LT ISZERO PUSH2 0x4E0 JUMPI PUSH1 0xFF DUP1 NOT DUP4 SLOAD AND SWAP2 AND OR SWAP1 SSTORE JUMP JUMPDEST SWAP1 PUSH1 0x7 DUP2 LT ISZERO PUSH2 0x4E0 JUMPI PUSH2 0xFF00 DUP3 SLOAD SWAP2 PUSH1 0x8 SHL AND SWAP1 PUSH2 0xFF00 NOT AND OR SWAP1 SSTORE JUMP JUMPDEST DUP2 MLOAD DUP2 SSTORE PUSH1 0x20 DUP3 ADD MLOAD PUSH1 0x1 DUP3 ADD DUP1 SLOAD PUSH1 0x1 PUSH1 0x1 PUSH1 0xA0 SHL SUB NOT AND PUSH1 0x1 PUSH1 0x1 PUSH1 0xA0 SHL SUB SWAP1 SWAP3 AND SWAP2 SWAP1 SWAP2 OR SWAP1 SSTORE SWAP1 PUSH1 0xC SWAP1 PUSH2 0x1A0 SWAP1 PUSH2 0x20CB PUSH1 0x40 DUP3 ADD MLOAD PUSH1 0x2 DUP7 ADD PUSH2 0x1F82 JUMP JUMPDEST PUSH2 0x20DC PUSH1 0x60 DUP3 ADD MLOAD PUSH1 0x3 DUP7 ADD PUSH2 0x1F82 JUMP JUMPDEST PUSH2 0x20ED PUSH1 0x80 DUP3 ADD MLOAD PUSH1 0x4 DUP7 ADD PUSH2 0x1F82 JUMP JUMPDEST PUSH1 0xA0 DUP2 ADD MLOAD PUSH1 0x5 DUP6 ADD SSTORE PUSH1 0xC0 DUP2 ADD MLOAD PUSH1 0x6 DUP6 ADD SSTORE PUSH2 0x2134 PUSH1 0x7 DUP6 ADD PUSH2 0x211F PUSH1 0xE0 DUP5 ADD MLOAD PUSH2 0x2119 DUP2 PUSH2 0x873 JUMP JUMPDEST DUP3 PUSH2 0x2051 JUMP JUMPDEST PUSH2 0x100 DUP4 ADD MLOAD SWAP1 PUSH2 0x212F DUP3 PUSH2 0x88A JUMP JUMPDEST PUSH2 0x2069 JUMP JUMPDEST PUSH2 0x120 DUP2 ADD MLOAD PUSH1 0x8 DUP6 ADD SSTORE PUSH2 0x140 DUP2 ADD MLOAD PUSH1 0x9 DUP6 ADD SSTORE PUSH2 0x160 DUP2 ADD MLOAD PUSH1 0xA DUP6 ADD DUP1 SLOAD PUSH1 0x1 PUSH1 0x1 PUSH1 0xA0 SHL SUB NOT AND PUSH1 0x1 PUSH1 0x1 PUSH1 0xA0 SHL SUB SWAP1 SWAP3 AND SWAP2 SWAP1 SWAP2 OR SWAP1 SSTORE PUSH2 0x2183 PUSH2 0x180 DUP3 ADD MLOAD PUSH1 0xB DUP7 ADD PUSH2 0x1F82 JUMP JUMPDEST ADD MLOAD SWAP2 ADD SSTORE JUMP JUMPDEST DUP1 SLOAD PUSH1 0x1 PUSH1 0x40 SHL DUP2 LT ISZERO PUSH2 0x12C7 JUMPI PUSH2 0x21A7 SWAP2 PUSH1 0x1 DUP3 ADD DUP2 SSTORE PUSH2 0x150B JUMP JUMPDEST DUP2 SWAP3 SWAP2 SLOAD SWAP1 PUSH1 0x3 SHL SWAP2 DUP3 SHL SWAP2 PUSH1 0x0 NOT SWAP1 SHL NOT AND OR SWAP1 SSTORE JUMP JUMPDEST SWAP1 DUP1 PUSH1 0x20 SWAP4 SWAP3 DUP2 DUP5 MSTORE DUP5 DUP5 ADD CALLDATACOPY PUSH1 0x0 DUP3 DUP3 ADD DUP5 ADD MSTORE PUSH1 0x1F ADD PUSH1 0x1F NOT AND ADD ADD SWAP1 JUMP JUMPDEST SWAP2 SWAP4 PUSH2 0x21FD PUSH2 0x220D SWAP3 PUSH1 0x60 SWAP6 SWAP9 SWAP8 SWAP7 PUSH1 0x80 DUP7 MSTORE PUSH1 0x80 DUP7 ADD SWAP2 PUSH2 0x21BF JUMP JUMPDEST SWAP7 PUSH1 0x20 DUP5 ADD MSTORE PUSH1 0x40 DUP4 ADD SWAP1 PUSH2 0x87D JUMP JUMPDEST ADD MSTORE JUMP JUMPDEST PUSH1 0x0 DUP1 MLOAD PUSH1 0x20 PUSH2 0x2927 DUP4 CODECOPY DUP2 MLOAD SWAP2 MSTORE PUSH1 0x2 DUP2 SLOAD EQ PUSH2 0x222F JUMPI PUSH1 0x2 SWAP1 SSTORE JUMP JUMPDEST PUSH1 0x40 MLOAD PUSH4 0x3EE5AEB5 PUSH1 0xE0 SHL DUP2 MSTORE PUSH1 0x4 SWAP1 REVERT JUMPDEST ISZERO PUSH2 0x2248 JUMPI JUMP JUMPDEST PUSH1 0x40 MLOAD PUSH3 0x461BCD PUSH1 0xE5 SHL DUP2 MSTORE PUSH1 0x20 PUSH1 0x4 DUP3 ADD MSTORE PUSH1 0xE PUSH1 0x24 DUP3 ADD MSTORE PUSH14 0x15185CDAC81B9BDD08199BDD5B99 PUSH1 0x92 SHL PUSH1 0x44 DUP3 ADD MSTORE PUSH1 0x64 SWAP1 REVERT JUMPDEST ISZERO PUSH2 0x2285 JUMPI JUMP JUMPDEST PUSH1 0x40 MLOAD PUSH3 0x461BCD PUSH1 0xE5 SHL DUP2 MSTORE PUSH1 0x20 PUSH1 0x4 DUP3 ADD MSTORE PUSH1 0x8 PUSH1 0x24 DUP3 ADD MSTORE PUSH8 0x2737BA1037B832B7 PUSH1 0xC1 SHL PUSH1 0x44 DUP3 ADD MSTORE PUSH1 0x64 SWAP1 REVERT JUMPDEST ISZERO PUSH2 0x22BC JUMPI JUMP JUMPDEST PUSH1 0x40 MLOAD PUSH3 0x461BCD PUSH1 0xE5 SHL DUP2 MSTORE PUSH1 0x20 PUSH1 0x4 DUP3 ADD MSTORE PUSH1 0xF PUSH1 0x24 DUP3 ADD MSTORE PUSH15 0x111958591B1A5B99481C185CDCD959 PUSH1 0x8A SHL PUSH1 0x44 DUP3 ADD MSTORE PUSH1 0x64 SWAP1 REVERT JUMPDEST ISZERO PUSH2 0x22FA JUMPI JUMP JUMPDEST PUSH1 0x40 MLOAD PUSH3 0x461BCD PUSH1 0xE5 SHL DUP2 MSTORE PUSH1 0x20 PUSH1 0x4 DUP3 ADD MSTORE PUSH1 0x12 PUSH1 0x24 DUP3 ADD MSTORE PUSH18 0x109A5908195E18D959591CC81C995DD85C99 PUSH1 0x72 SHL PUSH1 0x44 DUP3 ADD MSTORE PUSH1 0x64 SWAP1 REVERT JUMPDEST ISZERO PUSH2 0x233B JUMPI JUMP JUMPDEST PUSH1 0x40 MLOAD PUSH3 0x461BCD PUSH1 0xE5 SHL DUP2 MSTORE PUSH1 0x20 PUSH1 0x4 DUP3 ADD MSTORE PUSH1 0x16 PUSH1 0x24 DUP3 ADD MSTORE PUSH22 0x43616E6E6F7420626964206F6E206F776E207461736B PUSH1 0x50 SHL PUSH1 0x44 DUP3 ADD MSTORE PUSH1 0x64 SWAP1 REVERT JUMPDEST ISZERO PUSH2 0x2380 JUMPI JUMP JUMPDEST PUSH1 0x40 MLOAD PUSH3 0x461BCD PUSH1 0xE5 SHL DUP2 MSTORE PUSH1 0x20 PUSH1 0x4 DUP3 ADD MSTORE PUSH1 0xB PUSH1 0x24 DUP3 ADD MSTORE PUSH11 0x105B1C9958591E48189A59 PUSH1 0xAA SHL PUSH1 0x44 DUP3 ADD MSTORE PUSH1 0x64 SWAP1 REVERT JUMPDEST DUP1 SLOAD PUSH1 0x1 PUSH1 0x40 SHL DUP2 LT ISZERO PUSH2 0x12C7 JUMPI PUSH2 0x23D0 SWAP2 PUSH1 0x1 DUP3 ADD DUP2 SSTORE PUSH2 0x123A JUMP JUMPDEST PUSH2 0x2452 JUMPI DUP2 MLOAD DUP2 SLOAD PUSH1 0x1 PUSH1 0x1 PUSH1 0xA0 SHL SUB NOT AND PUSH1 0x1 PUSH1 0x1 PUSH1 0xA0 SHL SUB SWAP2 SWAP1 SWAP2 AND OR DUP2 SSTORE PUSH2 0x1349 SWAP2 PUSH1 0x6 SWAP1 PUSH2 0x243F SWAP1 PUSH1 0xC0 SWAP1 PUSH1 0x20 DUP2 ADD MLOAD PUSH1 0x1 DUP7 ADD SSTORE PUSH1 0x40 DUP2 ADD MLOAD PUSH1 0x2 DUP7 ADD SSTORE PUSH2 0x2424 PUSH1 0x60 DUP3 ADD MLOAD PUSH1 0x3 DUP8 ADD PUSH2 0x1F82 JUMP JUMPDEST PUSH1 0x80 DUP2 ADD MLOAD PUSH1 0x4 DUP7 ADD SSTORE PUSH1 0xA0 DUP2 ADD MLOAD PUSH1 0x5 DUP7 ADD SSTORE ADD MLOAD ISZERO ISZERO SWAP1 JUMP JUMPDEST SWAP2 ADD SWAP1 PUSH1 0xFF DUP1 NOT DUP4 SLOAD AND SWAP2 ISZERO ISZERO AND OR SWAP1 SSTORE JUMP JUMPDEST PUSH4 0x4E487B71 PUSH1 0xE0 SHL PUSH1 0x0 MSTORE PUSH1 0x0 PUSH1 0x4 MSTORE PUSH1 0x24 PUSH1 0x0 REVERT JUMPDEST ISZERO PUSH2 0x246F JUMPI JUMP JUMPDEST PUSH1 0x40 MLOAD PUSH3 0x461BCD PUSH1 0xE5 SHL DUP2 MSTORE PUSH1 0x20 PUSH1 0x4 DUP3 ADD MSTORE PUSH1 0xA PUSH1 0x24 DUP3 ADD MSTORE PUSH10 0x2737BA103837B9BA32B9 PUSH1 0xB1 SHL PUSH1 0x44 DUP3 ADD MSTORE PUSH1 0x64 SWAP1 REVERT JUMPDEST ISZERO PUSH2 0x24A8 JUMPI JUMP JUMPDEST PUSH1 0x40 MLOAD PUSH3 0x461BCD PUSH1 0xE5 SHL DUP2 MSTORE PUSH1 0x20 PUSH1 0x4 DUP3 ADD MSTORE PUSH1 0xB PUSH1 0x24 DUP3 ADD MSTORE PUSH11 0x125B9D985B1A5908189A59 PUSH1 0xAA SHL PUSH1 0x44 DUP3 ADD MSTORE PUSH1 0x64 SWAP1 REVERT JUMPDEST ISZERO PUSH2 0x24E2 JUMPI JUMP JUMPDEST PUSH1 0x40 MLOAD PUSH3 0x461BCD PUSH1 0xE5 SHL DUP2 MSTORE PUSH1 0x20 PUSH1 0x4 DUP3 ADD MSTORE PUSH1 0x10 PUSH1 0x24 DUP3 ADD MSTORE PUSH16 0x105B1C9958591E481858D8D95C1D1959 PUSH1 0x82 SHL PUSH1 0x44 DUP3 ADD MSTORE PUSH1 0x64 SWAP1 REVERT JUMPDEST ISZERO PUSH2 0x2521 JUMPI JUMP JUMPDEST PUSH1 0x40 MLOAD PUSH3 0x461BCD PUSH1 0xE5 SHL DUP2 MSTORE PUSH1 0x20 PUSH1 0x4 DUP3 ADD MSTORE PUSH1 0xC PUSH1 0x24 DUP3 ADD MSTORE PUSH12 0x139BDD08185CDCDA59DB9959 PUSH1 0xA2 SHL PUSH1 0x44 DUP3 ADD MSTORE PUSH1 0x64 SWAP1 REVERT JUMPDEST ISZERO PUSH2 0x255C JUMPI JUMP JUMPDEST PUSH1 0x40 MLOAD PUSH3 0x461BCD PUSH1 0xE5 SHL DUP2 MSTORE PUSH1 0x20 PUSH1 0x4 DUP3 ADD MSTORE PUSH1 0xF PUSH1 0x24 DUP3 ADD MSTORE PUSH15 0x4E6F7420696E2070726F6772657373 PUSH1 0x88 SHL PUSH1 0x44 DUP3 ADD MSTORE PUSH1 0x64 SWAP1 REVERT JUMPDEST SWAP1 SWAP3 SWAP2 PUSH8 0xFFFFFFFFFFFFFFFF DUP2 GT PUSH2 0x12C7 JUMPI PUSH2 0x25B3 DUP2 PUSH2 0x1FA4 DUP5 SLOAD PUSH2 0x125B JUMP JUMPDEST PUSH1 0x0 PUSH1 0x1F DUP3 GT PUSH1 0x1 EQ PUSH2 0x25EC JUMPI DUP2 SWAP3 SWAP4 SWAP5 PUSH1 0x0 SWAP3 PUSH2 0x25E1 JUMPI POP POP DUP2 PUSH1 0x1 SHL SWAP2 PUSH1 0x0 NOT SWAP1 PUSH1 0x3 SHL SHR NOT AND OR SWAP1 SSTORE JUMP JUMPDEST ADD CALLDATALOAD SWAP1 POP CODESIZE DUP1 PUSH2 0x1FC5 JUMP JUMPDEST PUSH1 0x1F NOT DUP3 AND SWAP5 PUSH2 0x2601 DUP5 PUSH1 0x0 MSTORE PUSH1 0x20 PUSH1 0x0 KECCAK256 SWAP1 JUMP JUMPDEST SWAP2 DUP1 JUMPDEST DUP8 DUP2 LT PUSH2 0x263B JUMPI POP DUP4 PUSH1 0x1 SWAP6 SWAP7 SWAP8 LT PUSH2 0x2621 JUMPI POP POP POP DUP2 SHL ADD SWAP1 SSTORE JUMP JUMPDEST ADD CALLDATALOAD PUSH1 0x0 NOT PUSH1 0x3 DUP5 SWAP1 SHL PUSH1 0xF8 AND SHR NOT AND SWAP1 SSTORE CODESIZE DUP1 DUP1 PUSH2 0x2016 JUMP JUMPDEST SWAP1 SWAP3 PUSH1 0x20 PUSH1 0x1 DUP2 SWAP3 DUP7 DUP7 ADD CALLDATALOAD DUP2 SSTORE ADD SWAP5 ADD SWAP2 ADD PUSH2 0x2604 JUMP JUMPDEST SWAP2 PUSH1 0x20 PUSH2 0x1D84 SWAP4 DUP2 DUP2 MSTORE ADD SWAP2 PUSH2 0x21BF JUMP JUMPDEST ISZERO PUSH2 0x266B JUMPI JUMP JUMPDEST PUSH1 0x40 MLOAD PUSH3 0x461BCD PUSH1 0xE5 SHL DUP2 MSTORE PUSH1 0x20 PUSH1 0x4 DUP3 ADD MSTORE PUSH1 0xD PUSH1 0x24 DUP3 ADD MSTORE PUSH13 0x139BDD0818DBDB5C1B195D1959 PUSH1 0x9A SHL PUSH1 0x44 DUP3 ADD MSTORE PUSH1 0x64 SWAP1 REVERT JUMPDEST DUP2 DUP2 MUL SWAP3 SWAP2 DUP2 ISZERO SWAP2 DUP5 DIV EQ OR ISZERO PUSH2 0x858 JUMPI JUMP JUMPDEST SWAP2 SWAP1 DUP3 SUB SWAP2 DUP3 GT PUSH2 0x858 JUMPI JUMP JUMPDEST RETURNDATASIZE ISZERO PUSH2 0x26EB JUMPI RETURNDATASIZE SWAP1 PUSH2 0x26D1 DUP3 PUSH2 0x1E9F JUMP JUMPDEST SWAP2 PUSH2 0x26DF PUSH1 0x40 MLOAD SWAP4 DUP5 PUSH2 0x12E9 JUMP JUMPDEST DUP3 MSTORE RETURNDATASIZE PUSH1 0x0 PUSH1 0x20 DUP5 ADD RETURNDATACOPY JUMP JUMPDEST PUSH1 0x60 SWAP1 JUMP JUMPDEST ISZERO PUSH2 0x26F7 JUMPI JUMP JUMPDEST PUSH1 0x40 MLOAD PUSH3 0x461BCD PUSH1 0xE5 SHL DUP2 MSTORE PUSH1 0x20 PUSH1 0x4 DUP3 ADD MSTORE PUSH1 0xE PUSH1 0x24 DUP3 ADD MSTORE PUSH14 0x14185E5B595B9D0819985A5B1959 PUSH1 0x92 SHL PUSH1 0x44 DUP3 ADD MSTORE PUSH1 0x64 SWAP1 REVERT JUMPDEST ISZERO PUSH2 0x2734 JUMPI JUMP JUMPDEST PUSH1 0x40 MLOAD PUSH3 0x461BCD PUSH1 0xE5 SHL DUP2 MSTORE PUSH1 0x20 PUSH1 0x4 DUP3 ADD MSTORE PUSH1 0x13 PUSH1 0x24 DUP3 ADD MSTORE PUSH19 0x119959481D1C985B9CD9995C8819985A5B1959 PUSH1 0x6A SHL PUSH1 0x44 DUP3 ADD MSTORE PUSH1 0x64 SWAP1 REVERT JUMPDEST ISZERO PUSH2 0x2776 JUMPI JUMP JUMPDEST PUSH1 0x40 MLOAD PUSH3 0x461BCD PUSH1 0xE5 SHL DUP2 MSTORE PUSH1 0x20 PUSH1 0x4 DUP3 ADD MSTORE PUSH1 0xD PUSH1 0x24 DUP3 ADD MSTORE PUSH13 0x1499599D5B990819985A5B1959 PUSH1 0x9A SHL PUSH1 0x44 DUP3 ADD MSTORE PUSH1 0x64 SWAP1 REVERT JUMPDEST ISZERO PUSH2 0x27B2 JUMPI JUMP JUMPDEST PUSH1 0x40 MLOAD PUSH3 0x461BCD PUSH1 0xE5 SHL DUP2 MSTORE PUSH1 0x20 PUSH1 0x4 DUP3 ADD MSTORE PUSH1 0xC PUSH1 0x24 DUP3 ADD MSTORE PUSH12 0x139BDD081A5B9D9BDB1D9959 PUSH1 0xA2 SHL PUSH1 0x44 DUP3 ADD MSTORE PUSH1 0x64 SWAP1 REVERT JUMPDEST ISZERO PUSH2 0x27ED JUMPI JUMP JUMPDEST PUSH1 0x40 MLOAD PUSH3 0x461BCD PUSH1 0xE5 SHL DUP2 MSTORE PUSH1 0x20 PUSH1 0x4 DUP3 ADD MSTORE PUSH1 0xE PUSH1 0x24 DUP3 ADD MSTORE PUSH14 0x43616E6E6F742064697370757465 PUSH1 0x90 SHL PUSH1 0x44 DUP3 ADD MSTORE PUSH1 0x64 SWAP1 REVERT JUMPDEST SWAP1 PUSH1 0xC PUSH2 0x282E PUSH2 0x1E92 JUMP JUMPDEST DUP4 SLOAD DUP2 MSTORE PUSH1 0x1 DUP5 ADD SLOAD PUSH1 0x1 PUSH1 0x1 PUSH1 0xA0 SHL SUB AND PUSH1 0x20 DUP3 ADD MSTORE SWAP3 PUSH2 0x2852 PUSH1 0x2 DUP3 ADD PUSH2 0x130B JUMP JUMPDEST PUSH1 0x40 DUP6 ADD MSTORE PUSH2 0x2863 PUSH1 0x3 DUP3 ADD PUSH2 0x130B JUMP JUMPDEST PUSH1 0x60 DUP6 ADD MSTORE PUSH2 0x2874 PUSH1 0x4 DUP3 ADD PUSH2 0x130B JUMP JUMPDEST PUSH1 0x80 DUP6 ADD MSTORE PUSH1 0x5 DUP2 ADD SLOAD PUSH1 0xA0 DUP6 ADD MSTORE PUSH1 0x6 DUP2 ADD SLOAD PUSH1 0xC0 DUP6 ADD MSTORE PUSH2 0x28B4 PUSH1 0xFF PUSH1 0x7 DUP4 ADD SLOAD PUSH2 0x28A6 DUP3 DUP3 AND PUSH1 0xE0 DUP10 ADD PUSH2 0x1EF2 JUMP JUMPDEST PUSH1 0x8 SHR AND PUSH2 0x100 DUP7 ADD PUSH2 0x1EFE JUMP JUMPDEST PUSH1 0x8 DUP2 ADD SLOAD PUSH2 0x120 DUP6 ADD MSTORE PUSH1 0x9 DUP2 ADD SLOAD PUSH2 0x140 DUP6 ADD MSTORE PUSH1 0xA DUP2 ADD SLOAD PUSH1 0x1 PUSH1 0x1 PUSH1 0xA0 SHL SUB AND PUSH2 0x160 DUP6 ADD MSTORE PUSH2 0x28EA PUSH1 0xB DUP3 ADD PUSH2 0x130B JUMP JUMPDEST PUSH2 0x180 DUP6 ADD MSTORE ADD SLOAD PUSH2 0x1A0 DUP4 ADD MSTORE JUMP JUMPDEST PUSH8 0xFFFFFFFFFFFFFFFF DUP2 GT PUSH2 0x12C7 JUMPI PUSH1 0x5 SHL PUSH1 0x20 ADD SWAP1 JUMP JUMPDEST DUP1 MLOAD DUP3 LT ISZERO PUSH2 0x1256 JUMPI PUSH1 0x20 SWAP2 PUSH1 0x5 SHL ADD ADD SWAP1 JUMP INVALID SWAP12 PUSH24 0x9B17422D0DF92223018B32B4D1FA46E071723D6817E2486D STOP EXTCODESIZE 0xEC 0xC5 PUSH0 STOP LOG2 PUSH5 0x6970667358 0x22 SLT KECCAK256 0xC8 PUSH30 0x51B4B1405E6CA8CB3E388DE95E46DF9003EBFE11EBFD820C94E79047E3A4 PUSH5 0x736F6C6343 STOP ADDMOD EQ STOP CALLER "},"methodIdentifiers":{"acceptBid(uint256,uint256)":"02e9d5e4","agentCompletedTasks(address)":"70efdfb1","agentReputation(address)":"54de6e32","agentTasks(address,uint256)":"670ad782","agentTotalEarnings(address)":"09529dc1","approveWork(uint256)":"3d01e0fa","bidOnTask(uint256,uint256,uint256,string)":"2b42900a","cancelTask(uint256)":"7eec20a8","cancellationFeeBps()":"95305683","disputeTask(uint256,string)":"4bddd209","feeRecipient()":"46904840","getAgentStats(address)":"b5695b38","getAgentTasks(address)":"d8ea6821","getBidCount(uint256)":"744d3411","getBids(uint256)":"131d9a27","getOpenTasks(uint256,uint256)":"164bcc26","getTask(uint256)":"1d65e77e","minimumReward()":"813f8dc1","nextTaskId()":"fdc3d8d7","pause()":"8456cb59","paused()":"5c975abb","pauser()":"9fd0506d","postTask(string,string,string,uint256,uint8)":"803a29da","protocolFeeBps()":"35659fb8","startWork(uint256)":"03a250f9","submitWork(uint256,string)":"da8accf9","taskBids(uint256,uint256)":"5492b197","tasks(uint256)":"8d977672","totalFeesCollected()":"60c6d8ae","totalTasksCompleted()":"108ab45e","totalTasksPosted()":"611f364a","totalValueLocked()":"ec18154e","transferPauser(address)":"4421ea21","unpause()":"3f4ba83a"}}}}}