{"contracts/AgentRegistry.sol":{"AgentRegistry":{"abi":[{"inputs":[],"stateMutability":"nonpayable","type":"constructor"},{"inputs":[],"name":"ContractNotPaused","type":"error"},{"inputs":[],"name":"ContractPaused","type":"error"},{"inputs":[],"name":"NotPauser","type":"error"},{"inputs":[],"name":"ReentrancyGuardReentrantCall","type":"error"},{"anonymous":false,"inputs":[{"indexed":true,"internalType":"address","name":"agent","type":"address"},{"indexed":false,"internalType":"uint256","name":"covenantsCompleted","type":"uint256"},{"indexed":false,"internalType":"uint256","name":"tasksCompleted","type":"uint256"},{"indexed":false,"internalType":"uint256","name":"totalEarned","type":"uint256"}],"name":"ActivityRecorded","type":"event"},{"anonymous":false,"inputs":[{"indexed":true,"internalType":"address","name":"agent","type":"address"},{"indexed":false,"internalType":"uint256","name":"timestamp","type":"uint256"}],"name":"AgentDeactivated","type":"event"},{"anonymous":false,"inputs":[{"indexed":true,"internalType":"address","name":"agent","type":"address"},{"indexed":false,"internalType":"uint256","name":"timestamp","type":"uint256"}],"name":"AgentReactivated","type":"event"},{"anonymous":false,"inputs":[{"indexed":true,"internalType":"address","name":"agent","type":"address"},{"indexed":false,"internalType":"string","name":"metadataURI","type":"string"},{"indexed":false,"internalType":"uint256[]","name":"skills","type":"uint256[]"},{"indexed":false,"internalType":"uint256","name":"timestamp","type":"uint256"}],"name":"AgentRegistered","type":"event"},{"anonymous":false,"inputs":[{"indexed":true,"internalType":"address","name":"agent","type":"address"},{"indexed":false,"internalType":"string","name":"metadataURI","type":"string"},{"indexed":false,"internalType":"uint256[]","name":"skills","type":"uint256[]"},{"indexed":false,"internalType":"uint256","name":"timestamp","type":"uint256"}],"name":"AgentUpdated","type":"event"},{"anonymous":false,"inputs":[{"indexed":false,"internalType":"address","name":"account","type":"address"}],"name":"Paused","type":"event"},{"anonymous":false,"inputs":[{"indexed":true,"internalType":"address","name":"previousPauser","type":"address"},{"indexed":true,"internalType":"address","name":"newPauser","type":"address"}],"name":"PauserTransferred","type":"event"},{"anonymous":false,"inputs":[{"indexed":true,"internalType":"uint256","name":"skillId","type":"uint256"},{"indexed":false,"internalType":"string","name":"name","type":"string"},{"indexed":false,"internalType":"string","name":"description","type":"string"}],"name":"SkillAdded","type":"event"},{"anonymous":false,"inputs":[{"indexed":true,"internalType":"address","name":"agent","type":"address"},{"indexed":true,"internalType":"uint256","name":"skillId","type":"uint256"}],"name":"SkillAssigned","type":"event"},{"anonymous":false,"inputs":[{"indexed":false,"internalType":"address","name":"account","type":"address"}],"name":"Unpaused","type":"event"},{"inputs":[],"name":"MAX_METADATA_LENGTH","outputs":[{"internalType":"uint256","name":"","type":"uint256"}],"stateMutability":"view","type":"function"},{"inputs":[],"name":"MAX_SKILLS_PER_AGENT","outputs":[{"internalType":"uint256","name":"","type":"uint256"}],"stateMutability":"view","type":"function"},{"inputs":[],"name":"MIN_METADATA_LENGTH","outputs":[{"internalType":"uint256","name":"","type":"uint256"}],"stateMutability":"view","type":"function"},{"inputs":[],"name":"REGISTRATION_FEE","outputs":[{"internalType":"uint256","name":"","type":"uint256"}],"stateMutability":"view","type":"function"},{"inputs":[{"internalType":"string","name":"_name","type":"string"},{"internalType":"string","name":"_description","type":"string"}],"name":"addSkill","outputs":[],"stateMutability":"nonpayable","type":"function"},{"inputs":[{"internalType":"address","name":"","type":"address"}],"name":"agents","outputs":[{"internalType":"address","name":"agentAddress","type":"address"},{"internalType":"string","name":"metadataURI","type":"string"},{"internalType":"uint256","name":"reputationScore","type":"uint256"},{"internalType":"bool","name":"isActive","type":"bool"},{"internalType":"uint256","name":"registeredAt","type":"uint256"},{"internalType":"uint256","name":"lastActive","type":"uint256"},{"internalType":"uint256","name":"covenantsCompleted","type":"uint256"},{"internalType":"uint256","name":"tasksCompleted","type":"uint256"},{"internalType":"uint256","name":"totalEarned","type":"uint256"}],"stateMutability":"view","type":"function"},{"inputs":[{"internalType":"uint256","name":"","type":"uint256"}],"name":"allAgents","outputs":[{"internalType":"address","name":"","type":"address"}],"stateMutability":"view","type":"function"},{"inputs":[],"name":"deactivate","outputs":[],"stateMutability":"nonpayable","type":"function"},{"inputs":[{"internalType":"uint256","name":"_skillId","type":"uint256"}],"name":"findAgentsBySkill","outputs":[{"internalType":"address[]","name":"","type":"address[]"}],"stateMutability":"view","type":"function"},{"inputs":[{"internalType":"uint256[]","name":"_skillIds","type":"uint256[]"}],"name":"findAgentsBySkills","outputs":[{"internalType":"address[]","name":"","type":"address[]"}],"stateMutability":"view","type":"function"},{"inputs":[{"internalType":"address","name":"_agent","type":"address"}],"name":"getAgent","outputs":[{"components":[{"internalType":"address","name":"agentAddress","type":"address"},{"internalType":"string","name":"metadataURI","type":"string"},{"internalType":"uint256[]","name":"skills","type":"uint256[]"},{"internalType":"string[]","name":"skillNames","type":"string[]"},{"internalType":"uint256","name":"reputationScore","type":"uint256"},{"internalType":"bool","name":"isActive","type":"bool"},{"internalType":"uint256","name":"registeredAt","type":"uint256"},{"internalType":"uint256","name":"lastActive","type":"uint256"},{"internalType":"uint256","name":"covenantsCompleted","type":"uint256"},{"internalType":"uint256","name":"tasksCompleted","type":"uint256"},{"internalType":"uint256","name":"totalEarned","type":"uint256"}],"internalType":"struct AgentRegistry.AgentProfile","name":"","type":"tuple"}],"stateMutability":"view","type":"function"},{"inputs":[],"name":"getAgentCount","outputs":[{"internalType":"uint256","name":"","type":"uint256"}],"stateMutability":"view","type":"function"},{"inputs":[{"internalType":"address","name":"_agent","type":"address"}],"name":"getAgentSkills","outputs":[{"internalType":"uint256[]","name":"","type":"uint256[]"}],"stateMutability":"view","type":"function"},{"inputs":[],"name":"getAllSkills","outputs":[{"components":[{"internalType":"uint256","name":"id","type":"uint256"},{"internalType":"string","name":"name","type":"string"},{"internalType":"string","name":"description","type":"string"},{"internalType":"uint256","name":"agentCount","type":"uint256"}],"internalType":"struct AgentRegistry.Skill[]","name":"","type":"tuple[]"}],"stateMutability":"view","type":"function"},{"inputs":[{"internalType":"uint256","name":"_limit","type":"uint256"},{"internalType":"uint256","name":"_withinSeconds","type":"uint256"}],"name":"getRecentlyActive","outputs":[{"internalType":"address[]","name":"","type":"address[]"}],"stateMutability":"view","type":"function"},{"inputs":[{"internalType":"uint256","name":"_limit","type":"uint256"}],"name":"getTopAgents","outputs":[{"internalType":"address[]","name":"","type":"address[]"}],"stateMutability":"view","type":"function"},{"inputs":[{"internalType":"address","name":"_agent","type":"address"}],"name":"isRegistered","outputs":[{"internalType":"bool","name":"","type":"bool"}],"stateMutability":"view","type":"function"},{"inputs":[],"name":"nextSkillId","outputs":[{"internalType":"uint256","name":"","type":"uint256"}],"stateMutability":"view","type":"function"},{"inputs":[],"name":"owner","outputs":[{"internalType":"address","name":"","type":"address"}],"stateMutability":"view","type":"function"},{"inputs":[],"name":"pause","outputs":[],"stateMutability":"nonpayable","type":"function"},{"inputs":[],"name":"paused","outputs":[{"internalType":"bool","name":"","type":"bool"}],"stateMutability":"view","type":"function"},{"inputs":[],"name":"pauser","outputs":[{"internalType":"address","name":"","type":"address"}],"stateMutability":"view","type":"function"},{"inputs":[],"name":"reactivate","outputs":[],"stateMutability":"nonpayable","type":"function"},{"inputs":[{"internalType":"address","name":"_agent","type":"address"},{"internalType":"uint256","name":"_covenantsCompleted","type":"uint256"},{"internalType":"uint256","name":"_tasksCompleted","type":"uint256"},{"internalType":"uint256","name":"_totalEarned","type":"uint256"}],"name":"recordActivity","outputs":[],"stateMutability":"nonpayable","type":"function"},{"inputs":[{"internalType":"string","name":"_metadataURI","type":"string"},{"internalType":"uint256[]","name":"_skillIds","type":"uint256[]"}],"name":"registerAgent","outputs":[],"stateMutability":"payable","type":"function"},{"inputs":[],"name":"registrationFee","outputs":[{"internalType":"uint256","name":"","type":"uint256"}],"stateMutability":"view","type":"function"},{"inputs":[{"internalType":"uint256","name":"_newFee","type":"uint256"}],"name":"setRegistrationFee","outputs":[],"stateMutability":"nonpayable","type":"function"},{"inputs":[{"internalType":"string","name":"","type":"string"}],"name":"skillNameToId","outputs":[{"internalType":"uint256","name":"","type":"uint256"}],"stateMutability":"view","type":"function"},{"inputs":[{"internalType":"uint256","name":"","type":"uint256"},{"internalType":"uint256","name":"","type":"uint256"}],"name":"skillToAgents","outputs":[{"internalType":"address","name":"","type":"address"}],"stateMutability":"view","type":"function"},{"inputs":[{"internalType":"uint256","name":"","type":"uint256"}],"name":"skills","outputs":[{"internalType":"uint256","name":"id","type":"uint256"},{"internalType":"string","name":"name","type":"string"},{"internalType":"string","name":"description","type":"string"},{"internalType":"uint256","name":"agentCount","type":"uint256"}],"stateMutability":"view","type":"function"},{"inputs":[],"name":"totalAgents","outputs":[{"internalType":"uint256","name":"","type":"uint256"}],"stateMutability":"view","type":"function"},{"inputs":[{"internalType":"address","name":"newPauser","type":"address"}],"name":"transferPauser","outputs":[],"stateMutability":"nonpayable","type":"function"},{"inputs":[],"name":"unpause","outputs":[],"stateMutability":"nonpayable","type":"function"},{"inputs":[{"internalType":"string","name":"_metadataURI","type":"string"},{"internalType":"uint256[]","name":"_skillIds","type":"uint256[]"}],"name":"updateProfile","outputs":[],"stateMutability":"nonpayable","type":"function"},{"inputs":[],"name":"withdrawFees","outputs":[],"stateMutability":"nonpayable","type":"function"},{"stateMutability":"payable","type":"receive"}],"evm":{"bytecode":{"linkReferences":{},"object":"60406080815234620003f35760017f9b779b17422d0df92223018b32b4d1fa46e071723d6817e2486d003becc55f0081905560008054610100600160a81b03191633600881811b610100600160a81b031692909217835560069390935560079190915566038d7ea4c6800060095580546001600160a01b0319169091179055620003e56200008c620003f8565b601a8152620001056020917f536d61727420436f6e747261637420446576656c6f706d656e7400000000000083820152620000c66200042e565b90602782527f57726974696e6720616e64206175646974696e6720536f6c696469747920636f84830152666e74726163747360c81b868301526200049a565b6200017262000113620003f8565b600d81526c4461746120416e616c7973697360981b83820152620001366200042e565b90602482527f4f6e2d636861696e20616e64206f66662d636861696e206461746120616e616c84830152637973697360e01b868301526200049a565b620001da62000180620003f8565b600781526654726164696e6760c81b838201526200019d6200042e565b90602582527f446546692074726164696e6720616e64206172626974726167652073747261748483015264656769657360d81b868301526200049a565b6200024c620001e8620003f8565b601081526f21b7b73a32b73a1021b932b0ba34b7b760811b838201526200020e6200042e565b90602682527f446f63756d656e746174696f6e2c20736f6369616c206d656469612c206d617284830152656b6574696e6760d01b868301526200049a565b620002b16200025a620003f8565b60118152705365637572697479204175646974696e6760781b8382015262000281620003f8565b90601f82527f536d61727420636f6e7472616374207365637572697479207265766965777300848301526200049a565b6200031f620002bf620003f8565b601081526f4d616368696e65204c6561726e696e6760801b83820152620002e56200042e565b90602282527f41492f4d4c206d6f64656c20747261696e696e6720616e6420696e666572656e8483015261636560f01b868301526200049a565b620003796200032d620003f8565b60068152654465764f707360d01b8382015262000349620003f8565b90601d82527f496e66726173747275637475726520616e64206465706c6f796d656e74000000848301526200049a565b62000383620003f8565b601481527f436f6d6d756e697479204d616e6167656d656e74000000000000000000000000828201527f446973636f72642c20666f72756d732c20676f7665726e616e63650000000000620003d7620003f8565b92601b84528301526200049a565b51612b199081620008428239f35b600080fd5b60408051919082016001600160401b038111838210176200041857604052565b634e487b7160e01b600052604160045260246000fd5b60405190606082016001600160401b038111838210176200041857604052565b60005b838110620004625750506000910152565b818101518382015260200162000451565b906020916200048e815180928185528580860191016200044e565b601f01601f1916010190565b6006549192919060001982146200082b57600182016006556040805194608086016001600160401b03811187821017620004185782528386526020860183815282870196828852600060608201528560005260026020528360002091815183555197885160018060401b038111620004185760018401549960018b811c9b16801562000820575b60208c101462000723578190601f9b8c8111620007c7575b506020908c8311600114620007505760009262000744575b50508160011b916000199060031b1c19161760018401555b51805190986002840191906001600160401b03821162000418578254600181811c9116801562000739575b60208210146200072357818111620006d9575b506020908211600114620006505792600392826060936200063f9897966000805160206200335b8339815191529c9d9e60009262000644575b50508160011b9160001990871b1c19161790555b01519101558583516020818751620006108183858c016200044e565b810160048152030190205562000630835194848695865285019062000473565b90838203602085015262000473565b0390a2565b015190503880620005e0565b601f1982169a8360005260206000209b60005b818110620006c05750836000805160206200335b8339815191529b9c9d6200063f999897946003979460609760019510620006a7575b505050811b019055620005f4565b015160001983891b60f8161c1916905538808062000699565b838301518e556001909d019c6020938401930162000663565b8360005260206000208280850160051c8201926020861062000719575b0160051c01905b8181106200070c5750620005a7565b60008155600101620006fd565b92508192620006f6565b634e487b7160e01b600052602260045260246000fd5b90607f169062000594565b01519050388062000551565b9250600186016000526020600020906000935b601f1984168510620007ab576001945083601f1981161062000791575b505050811b01600184015562000569565b015160001960f88460031b161c1916905538808062000780565b8181015183556020948501946001909301929091019062000763565b9091506001860160005260206000208c80850160051c8201926020861062000816575b9085949392910160051c01905b81811062000806575062000539565b60008155849350600101620007f7565b92508192620007ea565b9a607f169a62000521565b634e487b7160e01b600052601160045260246000fdfe6080604052600436101561001b575b361561001957600080fd5b005b60003560e01c806308edbd1414611d0a5780631295c6a914611cee57806314c44e0914611cd05780633421ebfd14611c7457806334306d2514611c56578063346945fd14611b115780633f4ba83a14611a9b5780634421ea21146119d6578063476343ee1461195f57806350d15fbe146118e657806351b42b00146118715780635c975abb1461184e5780635d3aa8131461172857806364b4f7511461170657806375ae1fef14610ee55780638456cb5914610e5a5780638da5cb5b14610e3157806391cab63e14610aac5780639fd0506d14610e04578063a113938f14610dd3578063b1e29ea414610c4a578063b2bdc75f14610c0e578063b47172da14610bbd578063b6ef504e14610b3a578063c320c72714610b0c578063c3c5a54714610aca578063c505371214610aac578063ccc3bba8146108ed578063d18611d614610818578063d1bca73d146107fc578063d862ae871461051c578063e0bb12f7146104da578063e8868e9f146104bd578063fb3551ff146102585763fd66091e0361000e5734610253576020366003190112610253576001600160a01b03806101c36123b3565b1660005260016020526040600020908154166101e160018301612403565b9160048101549060ff6005820154169060068101546007820154600883015491600a600985015494015494610228604051998a998a526101208060208c01528a01906124a9565b96604089015215156060880152608087015260a086015260c085015260e08401526101008301520390f35b600080fd5b34610253576020366003190112610253576102716123b3565b6000610140604051610282816122c8565b82815260606020820152606060408201526060808201528260808201528260a08201528260c08201528260e08201528261010082015282610120820152015260018060a01b031660005260016020526040600020604051906102e3826122c8565b80546001600160a01b031682526102fc60018201612403565b602083015261030d60028201612a34565b604083015260038101546103208161264f565b9061032e60405192836122ff565b808252602082016003840160005260206000206000915b8383106104a05786600a878760608401526004810154608084015260ff600582015416151560a0840152600681015460c0840152600781015460e08401526008810154610100840152600981015461012084015201546101408201526040516020815260018060a01b0382511660208201526103eb6103d5602084015161016060408501526101808401906124a9565b6040840151838203601f1901606085015261258d565b606083015190601f19838203016080840152815180825260208201916020808360051b8301019401926000915b838310610473578680876101408b608081015160a085015260a0810151151560c085015260c081015160e085015260e08101516101008501526101008101516101208501526101208101518285015201516101608301520390f35b9091929394602080610491600193601f1986820301875289516124a9565b97019301930191939290610418565b6001602081926104af85612403565b815201920192019190610345565b346102535760003660031901126102535760206040516101f48152f35b346102535760203660031901126102535760043560055481101561025357610503602091612528565b905460405160039290921b1c6001600160a01b03168152f35b34610253576040366003190112610253576001600160401b036004358181116102535761054d903690600401612372565b60243582811161025357610565903690600401612372565b9161057b60018060a01b036008541633146129fc565b60065492610588846125c1565b600655604051610597816122e4565b848152602092838201908582526040830190848252606084019260008452886000526002875260406000209451855560019081860190518051908482116107785781906105ee826105e886546123c9565b866126fe565b8a90601f83116001146107995760009261078e575b5050600019600383901b1c191690831b1790555b600285019251805192831161077857610634836105e886546123c9565b8790601f84116001146106e4579383806106d498956003956106c79c99957f05991bfaa80c5f743d433bd10462fc1453a7c566aa9c81582e3dbab915dca4ff9e9c996000946106d9575b50501b9160001990861b1c19161790555b5191015586604051838187516106a88183858c01612390565b81016004815203019020556040519485946040865260408601906124a9565b91848303908501526124a9565b0390a2005b015192508f8061067e565b90601f9392931983169185600052896000209260005b8181106107635750936106c79a97937f05991bfaa80c5f743d433bd10462fc1453a7c566aa9c81582e3dbab915dca4ff9c9a97936106d49a9793836003981061074b575b505050811b01905561068f565b015160001983881b60f8161c191690558d808061073e565b82840151855593860193928b01928b016106fa565b634e487b7160e01b600052604160045260246000fd5b015190508c80610603565b60008581528c8120879550929190601f198516908e5b8282106107e557505084116107cc575b505050811b019055610617565b015160001960f88460031b161c191690558c80806107bf565b83850151865589979095019493840193018e6107af565b3461025357600036600319011261025357602060405160148152f35b34610253576000366003190112610253573360009081526001602052604090205461084d906001600160a01b031615156127d3565b33600052600160205260ff600560406000200154166108b757336000526001602052604060002060058101600160ff198254161790556007429101556040514281527f72fa502a711d31da2101a8152ede15f4f332c7bef579c13ca9f8ef603a4480e660203392a2005b60405162461bcd60e51b815260206004820152600e60248201526d416c72656164792061637469766560901b6044820152606490fd5b346102535760003660031901126102535760065460001980820190828211610a64576109188261264f565b9161092660405193846122ff565b808352610935601f199161264f565b0160005b818110610a7a575050600192835b8181106109ea578385604051918291602090818401828552835180915260408501928060408360051b8801019501936000905b8382106109875787870388f35b918496819592949698508190603f198b8203018552895190815181526109ce6109bc84840151608080878601528401906124a9565b604084015183820360408501526124a9565b916060809101519101529801920192018796959391949261097a565b80600052600290602082815260406000209085830190838211610a64576003610a5993610a3c610a5f978c94610a3160405196610a26886122e4565b855488528501612403565b908601528201612403565b604084015201546060820152610a5282896126b0565b52866126b0565b506125c1565b610947565b634e487b7160e01b600052601160045260246000fd5b602090604051610a89816122e4565b600081526060600084918083850152806040850152830152828701015201610939565b34610253576000366003190112610253576020600754604051908152f35b34610253576020366003190112610253576001600160a01b03610aeb6123b3565b166000526001602052602060ff600560406000200154166040519015158152f35b3461025357602036600319011261025357610b3260018060a01b036008541633146129fc565b600435600955005b34610253576020806003193601126102535760043560005260038152604060002090604051908181845491828152019360005281600020916000905b828210610b9d57610b9985610b8d818903826122ff565b604051918291826124e4565b0390f35b83546001600160a01b031686529485019460019384019390910190610b76565b34610253576020366003190112610253576001600160a01b03610bde6123b3565b166000526001602052610b99610bfa6002604060002001612a34565b60405191829160208352602083019061258d565b34610253576020366003190112610253576004356001600160401b03811161025357610b8d610c44610b99923690600401612236565b9061284f565b34610253576020806003193601126102535760055460043581811115610dcd575080915b610c778261281d565b9160005b818110610d9f57505060005b8251811015610d4e576001808201808311610a6457815b610cb3575b5050610cae906125c1565b610c87565b8451811015610d49578190610d0d906001600160a01b0380610cd5838a6126b0565b511660005283875260046040600020015481610cf1888b6126b0565b511660005284885260046040600020015410610d1357506125c1565b90610c9e565b80610d1e878a6126b0565b511690610d2b838a6126b0565b5116610d37878a6126b0565b52610d4282896126b0565b5288610a59565b610ca3565b8284610d598161281d565b9160005b828110610d725760405180610b9986826124e4565b610d9a906001600160a01b03610d8882856126b0565b5116610d9482876126b0565b526125c1565b610d5d565b80610dac610dc892612528565b905460039190911b1c6001600160a01b0316610d9482876126b0565b610c7b565b91610c6e565b3461025357610de1366124ce565b906000526003602052604060002080548210156102535760209161050391612575565b346102535760003660031901126102535760005460405160089190911c6001600160a01b03168152602090f35b34610253576000366003190112610253576008546040516001600160a01b039091168152602090f35b3461025357600036600319011261025357600054600881901c6001600160a01b03163303610ed35760ff8116610ec15760019060ff1916176000557f62e78cea01bee320cd4e420270b5ea74000d11b0c9f74754ebdbfc544b05a2586020604051338152a1005b60405163ab35696f60e01b8152600490fd5b60405163492f678160e01b8152600490fd5b610eee36612266565b9060ff60009493945416610ec15760027f9b779b17422d0df92223018b32b4d1fa46e071723d6817e2486d003becc55f0054146116f45760027f9b779b17422d0df92223018b32b4d1fa46e071723d6817e2486d003becc55f005560005b8281106116ae575033600052600160205260ff600560406000200154166116745766038d7ea4c6800080341061163c5782156115f757601483116115c057600a8510611586576101f4851161154d5734116114f0575b610fab82612666565b60005b83811061145f575060405190610fc3826122c8565b338252610fd136878761233b565b6020830152610fdf8461264f565b610fec60405191826122ff565b84815260208101368660051b8601116102535784905b8660051b8601821061144f5750506040830152606082015260006080820152600160a08201524260c08201524260e082015260006101008201526000610120820152600061014082015233600052600160205260406000209060018060a01b038151166bffffffffffffffffffffffff60a01b83541617825560208101518051906001600160401b0382116107785781906110ad826110a460018801546123c9565b600188016126fe565b602090601f83116001146113dd576000926113d2575b50508160011b916000199060031b1c19161760018301555b60408101518051906001600160401b03821161077857602060028501916111028484612743565b0190600052602060002060005b8381106113be57505050506060810151805190600160401b8211610778576003840154826003860155808310611346575b5060200190600384016000526020600020916000905b8282106112635750505050610140816080600a93015160048501556005840160a0820151151560ff8019835416911617905560c0810151600685015560e08101516007850155610100810151600885015561012081015160098501550151910155600554600160401b811015610778577fdf1275f67e995789184a7a608f6c1b71953a305670459d1bb1f05956db47c05d9361121c6111fe83600161123a9501600555612528565b81546001600160a01b0360039290921b91821b19163390911b179055565b6112276007546125c1565b6007556040519384933397429386612777565b0390a260017f9b779b17422d0df92223018b32b4d1fa46e071723d6817e2486d003becc55f0055005b80518051906001600160401b0382116107785761128a8261128488546123c9565b886126fe565b602090601f83116001146112d65792826001949360209386956000926112cb575b5050600019600383901b1c191690841b1787555b01940191019092611156565b015190508f806112ab565b908660005260206000209160005b601f198516811061132e575083602093600196938796938794601f19811610611315575b505050811b0187556112bf565b015160001960f88460031b161c191690558f8080611308565b919260206001819286850151815501940192016112e4565b600385016000526020600020908382015b8183018110611367575050611140565b80611374600192546123c9565b80611381575b5001611357565b601f811183146113975750600081555b8c61137a565b6000908282526113b5601f60208420920160051c82018583016126e7565b81835555611391565b60019060208451940193818401550161110f565b0151905088806110c3565b9250600185016000526020600020906000935b601f1984168510611434576001945083601f1981161061141b575b505050811b0160018301556110db565b015160001960f88460031b161c1916905588808061140b565b818101518355602094850194600190930192909101906113f0565b8135815260209182019101611002565b8061146e6114eb9286866125d0565b3560005260026020526114876001604060002001612403565b61149182856126b0565b5261149c81846126b0565b506114a88186866125d0565b356000526003806020526114c03360406000206126c4565b6114cb8287876125d0565b3560005260026020526040600020016114e481546125c1565b90556125c1565b610fae565b66038d7ea4c67fff193401348111610a6457600080808093335af161151361261f565b50610fa25760405162461bcd60e51b815260206004820152600d60248201526c1499599d5b990819985a5b1959609a1b6044820152606490fd5b60405162461bcd60e51b81526020600482015260116024820152704d6574616461746120746f6f206c6f6e6760781b6044820152606490fd5b60405162461bcd60e51b815260206004820152601260248201527113595d1859185d18481d1bdbc81cda1bdc9d60721b6044820152606490fd5b60405162461bcd60e51b815260206004820152600f60248201526e546f6f206d616e7920736b696c6c7360881b6044820152606490fd5b60405162461bcd60e51b815260206004820152601c60248201527f4d7573742068617665206174206c65617374206f6e6520736b696c6c000000006044820152606490fd5b60405162461bcd60e51b815260206004820152601060248201526f496e73756666696369656e742066656560801b6044820152606490fd5b60405162461bcd60e51b8152602060048201526012602482015271105b1c9958591e481c9959da5cdd195c995960721b6044820152606490fd5b806116bd6116d49285856125d0565b351515806116d9575b6116cf906125e0565b6125c1565b610f4c565b506116cf6116e88286866125d0565b356006541190506116c6565b604051633ee5aeb560e01b8152600490fd5b3461025357600036600319011261025357602060405166038d7ea4c680008152f35b3461025357611736366124ce565b6005918254906117458261281d565b93600093420390428211610a645760005b8481106117a0575b505050505061176c8161281d565b9160005b8281106117855760405180610b9986826124e4565b61179b906001600160a01b03610d8882856126b0565b611770565b6117a981612528565b60018060a01b03809254600392831b1c16600052600160209080825260ff8660406000200154169182611823575b50506117ee575b50506117e9906125c1565b611756565b908297916117fe61180e94612528565b9054911b1c16610d94828a6126b0565b948386101561181e5787806117de565b61175e565b9091508361183086612528565b905490851b1c16600052528460076040600020015410158a806117d7565b3461025357600036600319011261025357602060ff600054166040519015158152f35b346102535760003660031901126102535733600052600160205261189f60ff600560406000200154166127d3565b336000526001602052600560406000200160ff1981541690556040514281527f0908d0024a3278cb165ed9b5e370dfd4b2c566122efebb355afb5b56e224915860203392a2005b346102535760203660031901126102535760043560005260026020526040600020805461191560018301612403565b91611955600361192760028401612403565b9201549161194760405195869586526080602087015260808601906124a9565b9084820360408601526124a9565b9060608301520390f35b3461025357600036600319011261025357600080808060018060a01b036008541661198b8133146129fc565b47905af161199761261f565b501561199f57005b60405162461bcd60e51b815260206004820152600f60248201526e15da5d1a191c985dc819985a5b1959608a1b6044820152606490fd5b34610253576020366003190112610253576119ef6123b3565b6000546001600160a01b03600882901c8116919033839003610ed3578316928315611a5d57610100600160a81b031990911660089190911b610100600160a81b03161760009081557f51c4874e0f23f262e04a38c51751336dde72126d67f53eb672aaff02996b3ef69080a3005b60405162461bcd60e51b8152602060048201526016602482015275496e76616c696420706175736572206164647265737360501b6044820152606490fd5b3461025357600036600319011261025357600054600881901c6001600160a01b03163303610ed35760ff811615611aff5760ff19166000557f5db9ee0a495bf2e6ff9c91a7834c1ba4fdd244a5e8aa4e537bd38aeae4b073aa6020604051338152a1005b60405163dcdde9dd60e01b8152600490fd5b34610253576080366003190112610253576001600160a01b03611b326123b3565b1680600052600160205260ff6005604060002001541615611c1e5780600052600160205260406000206008810190611b6d6024358354612810565b8092556009810191611b826044358454612810565b809355600a8201611b966064358254612810565b809155426007840155600a820293828504600a1483151715610a6457600581029381850460051482151715610a64576004611c08611bf76060977fac3c2beb7724a927c9efcb9aa36d9cc3215467ad97652337ec58c5527ba70e5399612810565b670de0b6b3a7640000860490612810565b91015560405192835260208301526040820152a2005b60405162461bcd60e51b815260206004820152601060248201526f4167656e74206e6f742061637469766560801b6044820152606490fd5b34610253576000366003190112610253576020600654604051908152f35b34610253576020366003190112610253576004356001600160401b03811161025357611cbd6020611caa81933690600401612372565b8160405193828580945193849201612390565b8101600481520301902054604051908152f35b34610253576000366003190112610253576020600954604051908152f35b34610253576000366003190112610253576020604051600a8152f35b3461025357611d1836612266565b9190336000526001602052611d3760ff600560406000200154166127d3565b60005b8381106121fb5750336000526001602052604060002060009460028201905b8154871015611e9b57611d6c8783612575565b90549060031b1c9485600052600360205260406000209660005b885480821015611e8757611d9a828b612575565b90546001600160a01b03929160031b1c82163314611dc2575050611dbd906125c1565b611d86565b9092969a949893979599916000198201918211610a6457611df984611dea611e189486612575565b90549060031b1c169184612575565b90919082549060031b9160018060a01b03809116831b921b1916179055565b80548015611e71576000190191611e2f8383612575565b909182549160031b1b191690555560005260026020526003604060002001908154918215610a6457611e66926000190190556125c1565b959194909293611d59565b634e487b7160e01b600052603160045260246000fd5b505093979094929650611e669195506125c1565b94929190611ea884612666565b9060005b85811061218a57506001600160401b0386116107785760018301611eda87611ed483546123c9565b836126fe565b866000601f821160011461212357600091612118575b508760011b906000198960031b1c19161790555b6001600160401b03851161077857611f1c8582612743565b839060005260206000209060005b86811061210457505050805190600160401b821161077857600383015482600385015580831061208c575b5060200190600383016000526020600020916000905b828210611fb157877f4343b17cbad9b3255be7285fe10f12ee275fa867fad18ab3297ac8456cc99f7c88886106d48d8a6007429101556040519384933397429386612777565b80518051906001600160401b03821161077857611fd28261128488546123c9565b602090601f831160011461201e579282600194936020938695600092612013575b5050600019600383901b1c191690841b1787555b01940191019092611f6b565b015190508e80611ff3565b90601f198316918760005260206000209260005b818110612074575093602093600196938796938388951061205b575b505050811b018755612007565b015160001960f88460031b161c191690558e808061204e565b92936020600181928786015181550195019301612032565b600384016000526020600020908382015b81830181106120ad575050611f55565b806120ba600192546123c9565b806120c7575b500161209d565b601f811183146120dd5750600081555b8b6120c0565b6000908282526120fb601f60208420920160051c82018583016126e7565b818355556120d7565b600190602083359301928185015501611f2a565b905088013589611ef0565b60008381526020812092505b8a601f198b16821061217257505088601f19811610612158575b5050600187811b019055611f04565b89013560001960038a901b60f8161c191690558880612149565b6001839460209394849301358155019301910161212f565b806121996121f69288886125d0565b3560005260026020526121b26001604060002001612403565b6121bc82866126b0565b526121c781856126b0565b506121d38188886125d0565b356000526003806020526121eb3360406000206126c4565b6114cb8289896125d0565b611eac565b8061220d61221e9286859896956125d0565b35151580612227576116cf906125e0565b93909193611d3a565b506116cf6116e88287896125d0565b9181601f84011215610253578235916001600160401b038311610253576020808501948460051b01011161025357565b604060031982011261025357600435916001600160401b03808411610253578260238501121561025357836004013593818511610253578360248683010111610253576024019392602435918211610253576122c491600401612236565b9091565b61016081019081106001600160401b0382111761077857604052565b608081019081106001600160401b0382111761077857604052565b90601f801991011681019081106001600160401b0382111761077857604052565b6001600160401b03811161077857601f01601f191660200190565b92919261234782612320565b9161235560405193846122ff565b829481845281830111610253578281602093846000960137010152565b9080601f830112156102535781602061238d9335910161233b565b90565b60005b8381106123a35750506000910152565b8181015183820152602001612393565b600435906001600160a01b038216820361025357565b90600182811c921680156123f9575b60208310146123e357565b634e487b7160e01b600052602260045260246000fd5b91607f16916123d8565b9060405191826000825492612417846123c9565b9081845260019485811690816000146124865750600114612443575b5050612441925003836122ff565b565b9093915060005260209081600020936000915b81831061246e57505061244193508201013880612433565b85548884018501529485019487945091830191612456565b91505061244194506020925060ff191682840152151560051b8201013880612433565b906020916124c281518092818552858086019101612390565b601f01601f1916010190565b6040906003190112610253576004359060243590565b6020908160408183019282815285518094520193019160005b82811061250b575050505090565b83516001600160a01b0316855293810193928101926001016124fd565b60055481101561255f5760056000527f036b6384b5eca791c62761152d0c79bb0604c104a5fb6f4eb0703f3154bb3db00190600090565b634e487b7160e01b600052603260045260246000fd5b805482101561255f5760005260206000200190600090565b90815180825260208080930193019160005b8281106125ad575050505090565b83518552938101939281019260010161259f565b6000198114610a645760010190565b919081101561255f5760051b0190565b156125e757565b60405162461bcd60e51b815260206004820152601060248201526f125b9d985b1a59081cdada5b1b08125160821b6044820152606490fd5b3d1561264a573d9061263082612320565b9161263e60405193846122ff565b82523d6000602084013e565b606090565b6001600160401b0381116107785760051b60200190565b906126708261264f565b61267d60405191826122ff565b828152809261268e601f199161264f565b019060005b82811061269f57505050565b806060602080938501015201612693565b805182101561255f5760209160051b010190565b90815491600160401b8310156107785782611df991600161244195018155612575565b8181106126f2575050565b600081556001016126e7565b9190601f811161270d57505050565b612441926000526020600020906020601f840160051c83019310612739575b601f0160051c01906126e7565b909150819061272c565b90600160401b81116107785781549080835581811061276157505050565b61244192600052602060002091820191016126e7565b959493918091606088528160608901526080880137600060808288010152601f8019910116850191608086840301602087015281608084015260018060fb1b0382116102535760409260a09260051b8092848301370101930152565b156127da57565b60405162461bcd60e51b815260206004820152600e60248201526d139bdd081c9959da5cdd195c995960921b6044820152606490fd5b91908201809211610a6457565b906128278261264f565b61283460405191826122ff565b8281528092612845601f199161264f565b0190602036910137565b919080156129d1576000928035845260209360038552604092838220908451808389829554938481520190865289862092865b8b8282106129b257505050612899925003836122ff565b6128a3825161281d565b928094815b845181101561296a576001600160a01b03806128c483886126b0565b511684526001808c5260ff60058b87200154161561295f57805b868110612921575b506128fb575b506128f6906125c1565b6128a8565b819761291a9161290e6128f694896126b0565b5116610d94828a6126b0565b96906128ec565b6129438361292f868b6126b0565b511661293c838a896125d0565b3590612a83565b1561295657612951906125c1565b6128de565b505083386128e6565b50506128f6906125c1565b505094505050935061297b8161281d565b915b81811061298b575090925050565b6129ad906001600160a01b036129a182886126b0565b5116610d9482866126b0565b61297d565b85546001600160a01b0316845260019586019588955093019201612882565b509050604051602081018181106001600160401b038211176107785760405260008152600036813790565b15612a0357565b60405162461bcd60e51b81526020600482015260096024820152682737ba1037bbb732b960b91b6044820152606490fd5b9060405191828154918282526020928383019160005283600020936000905b828210612a6957505050612441925003836122ff565b855484526001958601958895509381019390910190612a53565b6001600160a01b03166000908152600160208190526040822060020180549391925b848110612ab6575050505050600090565b82612ac18284612575565b90549060031b1c14612adb57612ad6906125c1565b612aa5565b50505090509056fea264697066735822122081b0b545d6dd9d25857181b2f4956a3b57290aad8c0589eb9d60867e4552ac9464736f6c6343000814003305991bfaa80c5f743d433bd10462fc1453a7c566aa9c81582e3dbab915dca4ff","opcodes":"PUSH1 0x40 PUSH1 0x80 DUP2 MSTORE CALLVALUE PUSH3 0x3F3 JUMPI PUSH1 0x1 PUSH32 0x9B779B17422D0DF92223018B32B4D1FA46E071723D6817E2486D003BECC55F00 DUP2 SWAP1 SSTORE PUSH1 0x0 DUP1 SLOAD PUSH2 0x100 PUSH1 0x1 PUSH1 0xA8 SHL SUB NOT AND CALLER PUSH1 0x8 DUP2 DUP2 SHL PUSH2 0x100 PUSH1 0x1 PUSH1 0xA8 SHL SUB AND SWAP3 SWAP1 SWAP3 OR DUP4 SSTORE PUSH1 0x6 SWAP4 SWAP1 SWAP4 SSTORE PUSH1 0x7 SWAP2 SWAP1 SWAP2 SSTORE PUSH7 0x38D7EA4C68000 PUSH1 0x9 SSTORE DUP1 SLOAD PUSH1 0x1 PUSH1 0x1 PUSH1 0xA0 SHL SUB NOT AND SWAP1 SWAP2 OR SWAP1 SSTORE PUSH3 0x3E5 PUSH3 0x8C PUSH3 0x3F8 JUMP JUMPDEST PUSH1 0x1A DUP2 MSTORE PUSH3 0x105 PUSH1 0x20 SWAP2 PUSH32 0x536D61727420436F6E747261637420446576656C6F706D656E74000000000000 DUP4 DUP3 ADD MSTORE PUSH3 0xC6 PUSH3 0x42E JUMP JUMPDEST SWAP1 PUSH1 0x27 DUP3 MSTORE PUSH32 0x57726974696E6720616E64206175646974696E6720536F6C696469747920636F DUP5 DUP4 ADD MSTORE PUSH7 0x6E747261637473 PUSH1 0xC8 SHL DUP7 DUP4 ADD MSTORE PUSH3 0x49A JUMP JUMPDEST PUSH3 0x172 PUSH3 0x113 PUSH3 0x3F8 JUMP JUMPDEST PUSH1 0xD DUP2 MSTORE PUSH13 0x4461746120416E616C79736973 PUSH1 0x98 SHL DUP4 DUP3 ADD MSTORE PUSH3 0x136 PUSH3 0x42E JUMP JUMPDEST SWAP1 PUSH1 0x24 DUP3 MSTORE PUSH32 0x4F6E2D636861696E20616E64206F66662D636861696E206461746120616E616C DUP5 DUP4 ADD MSTORE PUSH4 0x79736973 PUSH1 0xE0 SHL DUP7 DUP4 ADD MSTORE PUSH3 0x49A JUMP JUMPDEST PUSH3 0x1DA PUSH3 0x180 PUSH3 0x3F8 JUMP JUMPDEST PUSH1 0x7 DUP2 MSTORE PUSH7 0x54726164696E67 PUSH1 0xC8 SHL DUP4 DUP3 ADD MSTORE PUSH3 0x19D PUSH3 0x42E JUMP JUMPDEST SWAP1 PUSH1 0x25 DUP3 MSTORE PUSH32 0x446546692074726164696E6720616E6420617262697472616765207374726174 DUP5 DUP4 ADD MSTORE PUSH5 0x6567696573 PUSH1 0xD8 SHL DUP7 DUP4 ADD MSTORE PUSH3 0x49A JUMP JUMPDEST PUSH3 0x24C PUSH3 0x1E8 PUSH3 0x3F8 JUMP JUMPDEST PUSH1 0x10 DUP2 MSTORE PUSH16 0x21B7B73A32B73A1021B932B0BA34B7B7 PUSH1 0x81 SHL DUP4 DUP3 ADD MSTORE PUSH3 0x20E PUSH3 0x42E JUMP JUMPDEST SWAP1 PUSH1 0x26 DUP3 MSTORE PUSH32 0x446F63756D656E746174696F6E2C20736F6369616C206D656469612C206D6172 DUP5 DUP4 ADD MSTORE PUSH6 0x6B6574696E67 PUSH1 0xD0 SHL DUP7 DUP4 ADD MSTORE PUSH3 0x49A JUMP JUMPDEST PUSH3 0x2B1 PUSH3 0x25A PUSH3 0x3F8 JUMP JUMPDEST PUSH1 0x11 DUP2 MSTORE PUSH17 0x5365637572697479204175646974696E67 PUSH1 0x78 SHL DUP4 DUP3 ADD MSTORE PUSH3 0x281 PUSH3 0x3F8 JUMP JUMPDEST SWAP1 PUSH1 0x1F DUP3 MSTORE PUSH32 0x536D61727420636F6E7472616374207365637572697479207265766965777300 DUP5 DUP4 ADD MSTORE PUSH3 0x49A JUMP JUMPDEST PUSH3 0x31F PUSH3 0x2BF PUSH3 0x3F8 JUMP JUMPDEST PUSH1 0x10 DUP2 MSTORE PUSH16 0x4D616368696E65204C6561726E696E67 PUSH1 0x80 SHL DUP4 DUP3 ADD MSTORE PUSH3 0x2E5 PUSH3 0x42E JUMP JUMPDEST SWAP1 PUSH1 0x22 DUP3 MSTORE PUSH32 0x41492F4D4C206D6F64656C20747261696E696E6720616E6420696E666572656E DUP5 DUP4 ADD MSTORE PUSH2 0x6365 PUSH1 0xF0 SHL DUP7 DUP4 ADD MSTORE PUSH3 0x49A JUMP JUMPDEST PUSH3 0x379 PUSH3 0x32D PUSH3 0x3F8 JUMP JUMPDEST PUSH1 0x6 DUP2 MSTORE PUSH6 0x4465764F7073 PUSH1 0xD0 SHL DUP4 DUP3 ADD MSTORE PUSH3 0x349 PUSH3 0x3F8 JUMP JUMPDEST SWAP1 PUSH1 0x1D DUP3 MSTORE PUSH32 0x496E66726173747275637475726520616E64206465706C6F796D656E74000000 DUP5 DUP4 ADD MSTORE PUSH3 0x49A JUMP JUMPDEST PUSH3 0x383 PUSH3 0x3F8 JUMP JUMPDEST PUSH1 0x14 DUP2 MSTORE PUSH32 0x436F6D6D756E697479204D616E6167656D656E74000000000000000000000000 DUP3 DUP3 ADD MSTORE PUSH32 0x446973636F72642C20666F72756D732C20676F7665726E616E63650000000000 PUSH3 0x3D7 PUSH3 0x3F8 JUMP JUMPDEST SWAP3 PUSH1 0x1B DUP5 MSTORE DUP4 ADD MSTORE PUSH3 0x49A JUMP JUMPDEST MLOAD PUSH2 0x2B19 SWAP1 DUP2 PUSH3 0x842 DUP3 CODECOPY RETURN JUMPDEST PUSH1 0x0 DUP1 REVERT JUMPDEST PUSH1 0x40 DUP1 MLOAD SWAP2 SWAP1 DUP3 ADD PUSH1 0x1 PUSH1 0x1 PUSH1 0x40 SHL SUB DUP2 GT DUP4 DUP3 LT OR PUSH3 0x418 JUMPI PUSH1 0x40 MSTORE JUMP JUMPDEST PUSH4 0x4E487B71 PUSH1 0xE0 SHL PUSH1 0x0 MSTORE PUSH1 0x41 PUSH1 0x4 MSTORE PUSH1 0x24 PUSH1 0x0 REVERT JUMPDEST PUSH1 0x40 MLOAD SWAP1 PUSH1 0x60 DUP3 ADD PUSH1 0x1 PUSH1 0x1 PUSH1 0x40 SHL SUB DUP2 GT DUP4 DUP3 LT OR PUSH3 0x418 JUMPI PUSH1 0x40 MSTORE JUMP JUMPDEST PUSH1 0x0 JUMPDEST DUP4 DUP2 LT PUSH3 0x462 JUMPI POP POP PUSH1 0x0 SWAP2 ADD MSTORE JUMP JUMPDEST DUP2 DUP2 ADD MLOAD DUP4 DUP3 ADD MSTORE PUSH1 0x20 ADD PUSH3 0x451 JUMP JUMPDEST SWAP1 PUSH1 0x20 SWAP2 PUSH3 0x48E DUP2 MLOAD DUP1 SWAP3 DUP2 DUP6 MSTORE DUP6 DUP1 DUP7 ADD SWAP2 ADD PUSH3 0x44E JUMP JUMPDEST PUSH1 0x1F ADD PUSH1 0x1F NOT AND ADD ADD SWAP1 JUMP JUMPDEST PUSH1 0x6 SLOAD SWAP2 SWAP3 SWAP2 SWAP1 PUSH1 0x0 NOT DUP3 EQ PUSH3 0x82B JUMPI PUSH1 0x1 DUP3 ADD PUSH1 0x6 SSTORE PUSH1 0x40 DUP1 MLOAD SWAP5 PUSH1 0x80 DUP7 ADD PUSH1 0x1 PUSH1 0x1 PUSH1 0x40 SHL SUB DUP2 GT DUP8 DUP3 LT OR PUSH3 0x418 JUMPI DUP3 MSTORE DUP4 DUP7 MSTORE PUSH1 0x20 DUP7 ADD DUP4 DUP2 MSTORE DUP3 DUP8 ADD SWAP7 DUP3 DUP9 MSTORE PUSH1 0x0 PUSH1 0x60 DUP3 ADD MSTORE DUP6 PUSH1 0x0 MSTORE PUSH1 0x2 PUSH1 0x20 MSTORE DUP4 PUSH1 0x0 KECCAK256 SWAP2 DUP2 MLOAD DUP4 SSTORE MLOAD SWAP8 DUP9 MLOAD PUSH1 0x1 DUP1 PUSH1 0x40 SHL SUB DUP2 GT PUSH3 0x418 JUMPI PUSH1 0x1 DUP5 ADD SLOAD SWAP10 PUSH1 0x1 DUP12 DUP2 SHR SWAP12 AND DUP1 ISZERO PUSH3 0x820 JUMPI JUMPDEST PUSH1 0x20 DUP13 LT EQ PUSH3 0x723 JUMPI DUP2 SWAP1 PUSH1 0x1F SWAP12 DUP13 DUP2 GT PUSH3 0x7C7 JUMPI JUMPDEST POP PUSH1 0x20 SWAP1 DUP13 DUP4 GT PUSH1 0x1 EQ PUSH3 0x750 JUMPI PUSH1 0x0 SWAP3 PUSH3 0x744 JUMPI JUMPDEST POP POP DUP2 PUSH1 0x1 SHL SWAP2 PUSH1 0x0 NOT SWAP1 PUSH1 0x3 SHL SHR NOT AND OR PUSH1 0x1 DUP5 ADD SSTORE JUMPDEST MLOAD DUP1 MLOAD SWAP1 SWAP9 PUSH1 0x2 DUP5 ADD SWAP2 SWAP1 PUSH1 0x1 PUSH1 0x1 PUSH1 0x40 SHL SUB DUP3 GT PUSH3 0x418 JUMPI DUP3 SLOAD PUSH1 0x1 DUP2 DUP2 SHR SWAP2 AND DUP1 ISZERO PUSH3 0x739 JUMPI JUMPDEST PUSH1 0x20 DUP3 LT EQ PUSH3 0x723 JUMPI DUP2 DUP2 GT PUSH3 0x6D9 JUMPI JUMPDEST POP PUSH1 0x20 SWAP1 DUP3 GT PUSH1 0x1 EQ PUSH3 0x650 JUMPI SWAP3 PUSH1 0x3 SWAP3 DUP3 PUSH1 0x60 SWAP4 PUSH3 0x63F SWAP9 SWAP8 SWAP7 PUSH1 0x0 DUP1 MLOAD PUSH1 0x20 PUSH3 0x335B DUP4 CODECOPY DUP2 MLOAD SWAP2 MSTORE SWAP13 SWAP14 SWAP15 PUSH1 0x0 SWAP3 PUSH3 0x644 JUMPI JUMPDEST POP POP DUP2 PUSH1 0x1 SHL SWAP2 PUSH1 0x0 NOT SWAP1 DUP8 SHL SHR NOT AND OR SWAP1 SSTORE JUMPDEST ADD MLOAD SWAP2 ADD SSTORE DUP6 DUP4 MLOAD PUSH1 0x20 DUP2 DUP8 MLOAD PUSH3 0x610 DUP2 DUP4 DUP6 DUP13 ADD PUSH3 0x44E JUMP JUMPDEST DUP2 ADD PUSH1 0x4 DUP2 MSTORE SUB ADD SWAP1 KECCAK256 SSTORE PUSH3 0x630 DUP4 MLOAD SWAP5 DUP5 DUP7 SWAP6 DUP7 MSTORE DUP6 ADD SWAP1 PUSH3 0x473 JUMP JUMPDEST SWAP1 DUP4 DUP3 SUB PUSH1 0x20 DUP6 ADD MSTORE PUSH3 0x473 JUMP JUMPDEST SUB SWAP1 LOG2 JUMP JUMPDEST ADD MLOAD SWAP1 POP CODESIZE DUP1 PUSH3 0x5E0 JUMP JUMPDEST PUSH1 0x1F NOT DUP3 AND SWAP11 DUP4 PUSH1 0x0 MSTORE PUSH1 0x20 PUSH1 0x0 KECCAK256 SWAP12 PUSH1 0x0 JUMPDEST DUP2 DUP2 LT PUSH3 0x6C0 JUMPI POP DUP4 PUSH1 0x0 DUP1 MLOAD PUSH1 0x20 PUSH3 0x335B DUP4 CODECOPY DUP2 MLOAD SWAP2 MSTORE SWAP12 SWAP13 SWAP14 PUSH3 0x63F SWAP10 SWAP9 SWAP8 SWAP5 PUSH1 0x3 SWAP8 SWAP5 PUSH1 0x60 SWAP8 PUSH1 0x1 SWAP6 LT PUSH3 0x6A7 JUMPI JUMPDEST POP POP POP DUP2 SHL ADD SWAP1 SSTORE PUSH3 0x5F4 JUMP JUMPDEST ADD MLOAD PUSH1 0x0 NOT DUP4 DUP10 SHL PUSH1 0xF8 AND SHR NOT AND SWAP1 SSTORE CODESIZE DUP1 DUP1 PUSH3 0x699 JUMP JUMPDEST DUP4 DUP4 ADD MLOAD DUP15 SSTORE PUSH1 0x1 SWAP1 SWAP14 ADD SWAP13 PUSH1 0x20 SWAP4 DUP5 ADD SWAP4 ADD PUSH3 0x663 JUMP JUMPDEST DUP4 PUSH1 0x0 MSTORE PUSH1 0x20 PUSH1 0x0 KECCAK256 DUP3 DUP1 DUP6 ADD PUSH1 0x5 SHR DUP3 ADD SWAP3 PUSH1 0x20 DUP7 LT PUSH3 0x719 JUMPI JUMPDEST ADD PUSH1 0x5 SHR ADD SWAP1 JUMPDEST DUP2 DUP2 LT PUSH3 0x70C JUMPI POP PUSH3 0x5A7 JUMP JUMPDEST PUSH1 0x0 DUP2 SSTORE PUSH1 0x1 ADD PUSH3 0x6FD JUMP JUMPDEST SWAP3 POP DUP2 SWAP3 PUSH3 0x6F6 JUMP JUMPDEST PUSH4 0x4E487B71 PUSH1 0xE0 SHL PUSH1 0x0 MSTORE PUSH1 0x22 PUSH1 0x4 MSTORE PUSH1 0x24 PUSH1 0x0 REVERT JUMPDEST SWAP1 PUSH1 0x7F AND SWAP1 PUSH3 0x594 JUMP JUMPDEST ADD MLOAD SWAP1 POP CODESIZE DUP1 PUSH3 0x551 JUMP JUMPDEST SWAP3 POP PUSH1 0x1 DUP7 ADD PUSH1 0x0 MSTORE PUSH1 0x20 PUSH1 0x0 KECCAK256 SWAP1 PUSH1 0x0 SWAP4 JUMPDEST PUSH1 0x1F NOT DUP5 AND DUP6 LT PUSH3 0x7AB JUMPI PUSH1 0x1 SWAP5 POP DUP4 PUSH1 0x1F NOT DUP2 AND LT PUSH3 0x791 JUMPI JUMPDEST POP POP POP DUP2 SHL ADD PUSH1 0x1 DUP5 ADD SSTORE PUSH3 0x569 JUMP JUMPDEST ADD MLOAD PUSH1 0x0 NOT PUSH1 0xF8 DUP5 PUSH1 0x3 SHL AND SHR NOT AND SWAP1 SSTORE CODESIZE DUP1 DUP1 PUSH3 0x780 JUMP JUMPDEST DUP2 DUP2 ADD MLOAD DUP4 SSTORE PUSH1 0x20 SWAP5 DUP6 ADD SWAP5 PUSH1 0x1 SWAP1 SWAP4 ADD SWAP3 SWAP1 SWAP2 ADD SWAP1 PUSH3 0x763 JUMP JUMPDEST SWAP1 SWAP2 POP PUSH1 0x1 DUP7 ADD PUSH1 0x0 MSTORE PUSH1 0x20 PUSH1 0x0 KECCAK256 DUP13 DUP1 DUP6 ADD PUSH1 0x5 SHR DUP3 ADD SWAP3 PUSH1 0x20 DUP7 LT PUSH3 0x816 JUMPI JUMPDEST SWAP1 DUP6 SWAP5 SWAP4 SWAP3 SWAP2 ADD PUSH1 0x5 SHR ADD SWAP1 JUMPDEST DUP2 DUP2 LT PUSH3 0x806 JUMPI POP PUSH3 0x539 JUMP JUMPDEST PUSH1 0x0 DUP2 SSTORE DUP5 SWAP4 POP PUSH1 0x1 ADD PUSH3 0x7F7 JUMP JUMPDEST SWAP3 POP DUP2 SWAP3 PUSH3 0x7EA JUMP JUMPDEST SWAP11 PUSH1 0x7F AND SWAP11 PUSH3 0x521 JUMP JUMPDEST PUSH4 0x4E487B71 PUSH1 0xE0 SHL PUSH1 0x0 MSTORE PUSH1 0x11 PUSH1 0x4 MSTORE PUSH1 0x24 PUSH1 0x0 REVERT INVALID PUSH1 0x80 PUSH1 0x40 MSTORE PUSH1 0x4 CALLDATASIZE LT ISZERO PUSH2 0x1B JUMPI JUMPDEST CALLDATASIZE ISZERO PUSH2 0x19 JUMPI PUSH1 0x0 DUP1 REVERT JUMPDEST STOP JUMPDEST PUSH1 0x0 CALLDATALOAD PUSH1 0xE0 SHR DUP1 PUSH4 0x8EDBD14 EQ PUSH2 0x1D0A JUMPI DUP1 PUSH4 0x1295C6A9 EQ PUSH2 0x1CEE JUMPI DUP1 PUSH4 0x14C44E09 EQ PUSH2 0x1CD0 JUMPI DUP1 PUSH4 0x3421EBFD EQ PUSH2 0x1C74 JUMPI DUP1 PUSH4 0x34306D25 EQ PUSH2 0x1C56 JUMPI DUP1 PUSH4 0x346945FD EQ PUSH2 0x1B11 JUMPI DUP1 PUSH4 0x3F4BA83A EQ PUSH2 0x1A9B JUMPI DUP1 PUSH4 0x4421EA21 EQ PUSH2 0x19D6 JUMPI DUP1 PUSH4 0x476343EE EQ PUSH2 0x195F JUMPI DUP1 PUSH4 0x50D15FBE EQ PUSH2 0x18E6 JUMPI DUP1 PUSH4 0x51B42B00 EQ PUSH2 0x1871 JUMPI DUP1 PUSH4 0x5C975ABB EQ PUSH2 0x184E JUMPI DUP1 PUSH4 0x5D3AA813 EQ PUSH2 0x1728 JUMPI DUP1 PUSH4 0x64B4F751 EQ PUSH2 0x1706 JUMPI DUP1 PUSH4 0x75AE1FEF EQ PUSH2 0xEE5 JUMPI DUP1 PUSH4 0x8456CB59 EQ PUSH2 0xE5A JUMPI DUP1 PUSH4 0x8DA5CB5B EQ PUSH2 0xE31 JUMPI DUP1 PUSH4 0x91CAB63E EQ PUSH2 0xAAC JUMPI DUP1 PUSH4 0x9FD0506D EQ PUSH2 0xE04 JUMPI DUP1 PUSH4 0xA113938F EQ PUSH2 0xDD3 JUMPI DUP1 PUSH4 0xB1E29EA4 EQ PUSH2 0xC4A JUMPI DUP1 PUSH4 0xB2BDC75F EQ PUSH2 0xC0E JUMPI DUP1 PUSH4 0xB47172DA EQ PUSH2 0xBBD JUMPI DUP1 PUSH4 0xB6EF504E EQ PUSH2 0xB3A JUMPI DUP1 PUSH4 0xC320C727 EQ PUSH2 0xB0C JUMPI DUP1 PUSH4 0xC3C5A547 EQ PUSH2 0xACA JUMPI DUP1 PUSH4 0xC5053712 EQ PUSH2 0xAAC JUMPI DUP1 PUSH4 0xCCC3BBA8 EQ PUSH2 0x8ED JUMPI DUP1 PUSH4 0xD18611D6 EQ PUSH2 0x818 JUMPI DUP1 PUSH4 0xD1BCA73D EQ PUSH2 0x7FC JUMPI DUP1 PUSH4 0xD862AE87 EQ PUSH2 0x51C JUMPI DUP1 PUSH4 0xE0BB12F7 EQ PUSH2 0x4DA JUMPI DUP1 PUSH4 0xE8868E9F EQ PUSH2 0x4BD JUMPI DUP1 PUSH4 0xFB3551FF EQ PUSH2 0x258 JUMPI PUSH4 0xFD66091E SUB PUSH2 0xE JUMPI CALLVALUE PUSH2 0x253 JUMPI PUSH1 0x20 CALLDATASIZE PUSH1 0x3 NOT ADD SLT PUSH2 0x253 JUMPI PUSH1 0x1 PUSH1 0x1 PUSH1 0xA0 SHL SUB DUP1 PUSH2 0x1C3 PUSH2 0x23B3 JUMP JUMPDEST AND PUSH1 0x0 MSTORE PUSH1 0x1 PUSH1 0x20 MSTORE PUSH1 0x40 PUSH1 0x0 KECCAK256 SWAP1 DUP2 SLOAD AND PUSH2 0x1E1 PUSH1 0x1 DUP4 ADD PUSH2 0x2403 JUMP JUMPDEST SWAP2 PUSH1 0x4 DUP2 ADD SLOAD SWAP1 PUSH1 0xFF PUSH1 0x5 DUP3 ADD SLOAD AND SWAP1 PUSH1 0x6 DUP2 ADD SLOAD PUSH1 0x7 DUP3 ADD SLOAD PUSH1 0x8 DUP4 ADD SLOAD SWAP2 PUSH1 0xA PUSH1 0x9 DUP6 ADD SLOAD SWAP5 ADD SLOAD SWAP5 PUSH2 0x228 PUSH1 0x40 MLOAD SWAP10 DUP11 SWAP10 DUP11 MSTORE PUSH2 0x120 DUP1 PUSH1 0x20 DUP13 ADD MSTORE DUP11 ADD SWAP1 PUSH2 0x24A9 JUMP JUMPDEST SWAP7 PUSH1 0x40 DUP10 ADD MSTORE ISZERO ISZERO PUSH1 0x60 DUP9 ADD MSTORE PUSH1 0x80 DUP8 ADD MSTORE PUSH1 0xA0 DUP7 ADD MSTORE PUSH1 0xC0 DUP6 ADD MSTORE PUSH1 0xE0 DUP5 ADD MSTORE PUSH2 0x100 DUP4 ADD MSTORE SUB SWAP1 RETURN JUMPDEST PUSH1 0x0 DUP1 REVERT JUMPDEST CALLVALUE PUSH2 0x253 JUMPI PUSH1 0x20 CALLDATASIZE PUSH1 0x3 NOT ADD SLT PUSH2 0x253 JUMPI PUSH2 0x271 PUSH2 0x23B3 JUMP JUMPDEST PUSH1 0x0 PUSH2 0x140 PUSH1 0x40 MLOAD PUSH2 0x282 DUP2 PUSH2 0x22C8 JUMP JUMPDEST DUP3 DUP2 MSTORE PUSH1 0x60 PUSH1 0x20 DUP3 ADD MSTORE PUSH1 0x60 PUSH1 0x40 DUP3 ADD MSTORE PUSH1 0x60 DUP1 DUP3 ADD MSTORE DUP3 PUSH1 0x80 DUP3 ADD MSTORE DUP3 PUSH1 0xA0 DUP3 ADD MSTORE DUP3 PUSH1 0xC0 DUP3 ADD MSTORE DUP3 PUSH1 0xE0 DUP3 ADD MSTORE DUP3 PUSH2 0x100 DUP3 ADD MSTORE DUP3 PUSH2 0x120 DUP3 ADD MSTORE ADD MSTORE PUSH1 0x1 DUP1 PUSH1 0xA0 SHL SUB AND PUSH1 0x0 MSTORE PUSH1 0x1 PUSH1 0x20 MSTORE PUSH1 0x40 PUSH1 0x0 KECCAK256 PUSH1 0x40 MLOAD SWAP1 PUSH2 0x2E3 DUP3 PUSH2 0x22C8 JUMP JUMPDEST DUP1 SLOAD PUSH1 0x1 PUSH1 0x1 PUSH1 0xA0 SHL SUB AND DUP3 MSTORE PUSH2 0x2FC PUSH1 0x1 DUP3 ADD PUSH2 0x2403 JUMP JUMPDEST PUSH1 0x20 DUP4 ADD MSTORE PUSH2 0x30D PUSH1 0x2 DUP3 ADD PUSH2 0x2A34 JUMP JUMPDEST PUSH1 0x40 DUP4 ADD MSTORE PUSH1 0x3 DUP2 ADD SLOAD PUSH2 0x320 DUP2 PUSH2 0x264F JUMP JUMPDEST SWAP1 PUSH2 0x32E PUSH1 0x40 MLOAD SWAP3 DUP4 PUSH2 0x22FF JUMP JUMPDEST DUP1 DUP3 MSTORE PUSH1 0x20 DUP3 ADD PUSH1 0x3 DUP5 ADD PUSH1 0x0 MSTORE PUSH1 0x20 PUSH1 0x0 KECCAK256 PUSH1 0x0 SWAP2 JUMPDEST DUP4 DUP4 LT PUSH2 0x4A0 JUMPI DUP7 PUSH1 0xA DUP8 DUP8 PUSH1 0x60 DUP5 ADD MSTORE PUSH1 0x4 DUP2 ADD SLOAD PUSH1 0x80 DUP5 ADD MSTORE PUSH1 0xFF PUSH1 0x5 DUP3 ADD SLOAD AND ISZERO ISZERO PUSH1 0xA0 DUP5 ADD MSTORE PUSH1 0x6 DUP2 ADD SLOAD PUSH1 0xC0 DUP5 ADD MSTORE PUSH1 0x7 DUP2 ADD SLOAD PUSH1 0xE0 DUP5 ADD MSTORE PUSH1 0x8 DUP2 ADD SLOAD PUSH2 0x100 DUP5 ADD MSTORE PUSH1 0x9 DUP2 ADD SLOAD PUSH2 0x120 DUP5 ADD MSTORE ADD SLOAD PUSH2 0x140 DUP3 ADD MSTORE PUSH1 0x40 MLOAD PUSH1 0x20 DUP2 MSTORE PUSH1 0x1 DUP1 PUSH1 0xA0 SHL SUB DUP3 MLOAD AND PUSH1 0x20 DUP3 ADD MSTORE PUSH2 0x3EB PUSH2 0x3D5 PUSH1 0x20 DUP5 ADD MLOAD PUSH2 0x160 PUSH1 0x40 DUP6 ADD MSTORE PUSH2 0x180 DUP5 ADD SWAP1 PUSH2 0x24A9 JUMP JUMPDEST PUSH1 0x40 DUP5 ADD MLOAD DUP4 DUP3 SUB PUSH1 0x1F NOT ADD PUSH1 0x60 DUP6 ADD MSTORE PUSH2 0x258D JUMP JUMPDEST PUSH1 0x60 DUP4 ADD MLOAD SWAP1 PUSH1 0x1F NOT DUP4 DUP3 SUB ADD PUSH1 0x80 DUP5 ADD MSTORE DUP2 MLOAD DUP1 DUP3 MSTORE PUSH1 0x20 DUP3 ADD SWAP2 PUSH1 0x20 DUP1 DUP4 PUSH1 0x5 SHL DUP4 ADD ADD SWAP5 ADD SWAP3 PUSH1 0x0 SWAP2 JUMPDEST DUP4 DUP4 LT PUSH2 0x473 JUMPI DUP7 DUP1 DUP8 PUSH2 0x140 DUP12 PUSH1 0x80 DUP2 ADD MLOAD PUSH1 0xA0 DUP6 ADD MSTORE PUSH1 0xA0 DUP2 ADD MLOAD ISZERO ISZERO PUSH1 0xC0 DUP6 ADD MSTORE PUSH1 0xC0 DUP2 ADD MLOAD PUSH1 0xE0 DUP6 ADD MSTORE PUSH1 0xE0 DUP2 ADD MLOAD PUSH2 0x100 DUP6 ADD MSTORE PUSH2 0x100 DUP2 ADD MLOAD PUSH2 0x120 DUP6 ADD MSTORE PUSH2 0x120 DUP2 ADD MLOAD DUP3 DUP6 ADD MSTORE ADD MLOAD PUSH2 0x160 DUP4 ADD MSTORE SUB SWAP1 RETURN JUMPDEST SWAP1 SWAP2 SWAP3 SWAP4 SWAP5 PUSH1 0x20 DUP1 PUSH2 0x491 PUSH1 0x1 SWAP4 PUSH1 0x1F NOT DUP7 DUP3 SUB ADD DUP8 MSTORE DUP10 MLOAD PUSH2 0x24A9 JUMP JUMPDEST SWAP8 ADD SWAP4 ADD SWAP4 ADD SWAP2 SWAP4 SWAP3 SWAP1 PUSH2 0x418 JUMP JUMPDEST PUSH1 0x1 PUSH1 0x20 DUP2 SWAP3 PUSH2 0x4AF DUP6 PUSH2 0x2403 JUMP JUMPDEST DUP2 MSTORE ADD SWAP3 ADD SWAP3 ADD SWAP2 SWAP1 PUSH2 0x345 JUMP JUMPDEST CALLVALUE PUSH2 0x253 JUMPI PUSH1 0x0 CALLDATASIZE PUSH1 0x3 NOT ADD SLT PUSH2 0x253 JUMPI PUSH1 0x20 PUSH1 0x40 MLOAD PUSH2 0x1F4 DUP2 MSTORE RETURN JUMPDEST CALLVALUE PUSH2 0x253 JUMPI PUSH1 0x20 CALLDATASIZE PUSH1 0x3 NOT ADD SLT PUSH2 0x253 JUMPI PUSH1 0x4 CALLDATALOAD PUSH1 0x5 SLOAD DUP2 LT ISZERO PUSH2 0x253 JUMPI PUSH2 0x503 PUSH1 0x20 SWAP2 PUSH2 0x2528 JUMP JUMPDEST SWAP1 SLOAD PUSH1 0x40 MLOAD PUSH1 0x3 SWAP3 SWAP1 SWAP3 SHL SHR PUSH1 0x1 PUSH1 0x1 PUSH1 0xA0 SHL SUB AND DUP2 MSTORE RETURN JUMPDEST CALLVALUE PUSH2 0x253 JUMPI PUSH1 0x40 CALLDATASIZE PUSH1 0x3 NOT ADD SLT PUSH2 0x253 JUMPI PUSH1 0x1 PUSH1 0x1 PUSH1 0x40 SHL SUB PUSH1 0x4 CALLDATALOAD DUP2 DUP2 GT PUSH2 0x253 JUMPI PUSH2 0x54D SWAP1 CALLDATASIZE SWAP1 PUSH1 0x4 ADD PUSH2 0x2372 JUMP JUMPDEST PUSH1 0x24 CALLDATALOAD DUP3 DUP2 GT PUSH2 0x253 JUMPI PUSH2 0x565 SWAP1 CALLDATASIZE SWAP1 PUSH1 0x4 ADD PUSH2 0x2372 JUMP JUMPDEST SWAP2 PUSH2 0x57B PUSH1 0x1 DUP1 PUSH1 0xA0 SHL SUB PUSH1 0x8 SLOAD AND CALLER EQ PUSH2 0x29FC JUMP JUMPDEST PUSH1 0x6 SLOAD SWAP3 PUSH2 0x588 DUP5 PUSH2 0x25C1 JUMP JUMPDEST PUSH1 0x6 SSTORE PUSH1 0x40 MLOAD PUSH2 0x597 DUP2 PUSH2 0x22E4 JUMP JUMPDEST DUP5 DUP2 MSTORE PUSH1 0x20 SWAP3 DUP4 DUP3 ADD SWAP1 DUP6 DUP3 MSTORE PUSH1 0x40 DUP4 ADD SWAP1 DUP5 DUP3 MSTORE PUSH1 0x60 DUP5 ADD SWAP3 PUSH1 0x0 DUP5 MSTORE DUP9 PUSH1 0x0 MSTORE PUSH1 0x2 DUP8 MSTORE PUSH1 0x40 PUSH1 0x0 KECCAK256 SWAP5 MLOAD DUP6 SSTORE PUSH1 0x1 SWAP1 DUP2 DUP7 ADD SWAP1 MLOAD DUP1 MLOAD SWAP1 DUP5 DUP3 GT PUSH2 0x778 JUMPI DUP2 SWAP1 PUSH2 0x5EE DUP3 PUSH2 0x5E8 DUP7 SLOAD PUSH2 0x23C9 JUMP JUMPDEST DUP7 PUSH2 0x26FE JUMP JUMPDEST DUP11 SWAP1 PUSH1 0x1F DUP4 GT PUSH1 0x1 EQ PUSH2 0x799 JUMPI PUSH1 0x0 SWAP3 PUSH2 0x78E JUMPI JUMPDEST POP POP PUSH1 0x0 NOT PUSH1 0x3 DUP4 SWAP1 SHL SHR NOT AND SWAP1 DUP4 SHL OR SWAP1 SSTORE JUMPDEST PUSH1 0x2 DUP6 ADD SWAP3 MLOAD DUP1 MLOAD SWAP3 DUP4 GT PUSH2 0x778 JUMPI PUSH2 0x634 DUP4 PUSH2 0x5E8 DUP7 SLOAD PUSH2 0x23C9 JUMP JUMPDEST DUP8 SWAP1 PUSH1 0x1F DUP5 GT PUSH1 0x1 EQ PUSH2 0x6E4 JUMPI SWAP4 DUP4 DUP1 PUSH2 0x6D4 SWAP9 SWAP6 PUSH1 0x3 SWAP6 PUSH2 0x6C7 SWAP13 SWAP10 SWAP6 PUSH32 0x5991BFAA80C5F743D433BD10462FC1453A7C566AA9C81582E3DBAB915DCA4FF SWAP15 SWAP13 SWAP10 PUSH1 0x0 SWAP5 PUSH2 0x6D9 JUMPI JUMPDEST POP POP SHL SWAP2 PUSH1 0x0 NOT SWAP1 DUP7 SHL SHR NOT AND OR SWAP1 SSTORE JUMPDEST MLOAD SWAP2 ADD SSTORE DUP7 PUSH1 0x40 MLOAD DUP4 DUP2 DUP8 MLOAD PUSH2 0x6A8 DUP2 DUP4 DUP6 DUP13 ADD PUSH2 0x2390 JUMP JUMPDEST DUP2 ADD PUSH1 0x4 DUP2 MSTORE SUB ADD SWAP1 KECCAK256 SSTORE PUSH1 0x40 MLOAD SWAP5 DUP6 SWAP5 PUSH1 0x40 DUP7 MSTORE PUSH1 0x40 DUP7 ADD SWAP1 PUSH2 0x24A9 JUMP JUMPDEST SWAP2 DUP5 DUP4 SUB SWAP1 DUP6 ADD MSTORE PUSH2 0x24A9 JUMP JUMPDEST SUB SWAP1 LOG2 STOP JUMPDEST ADD MLOAD SWAP3 POP DUP16 DUP1 PUSH2 0x67E JUMP JUMPDEST SWAP1 PUSH1 0x1F SWAP4 SWAP3 SWAP4 NOT DUP4 AND SWAP2 DUP6 PUSH1 0x0 MSTORE DUP10 PUSH1 0x0 KECCAK256 SWAP3 PUSH1 0x0 JUMPDEST DUP2 DUP2 LT PUSH2 0x763 JUMPI POP SWAP4 PUSH2 0x6C7 SWAP11 SWAP8 SWAP4 PUSH32 0x5991BFAA80C5F743D433BD10462FC1453A7C566AA9C81582E3DBAB915DCA4FF SWAP13 SWAP11 SWAP8 SWAP4 PUSH2 0x6D4 SWAP11 SWAP8 SWAP4 DUP4 PUSH1 0x3 SWAP9 LT PUSH2 0x74B JUMPI JUMPDEST POP POP POP DUP2 SHL ADD SWAP1 SSTORE PUSH2 0x68F JUMP JUMPDEST ADD MLOAD PUSH1 0x0 NOT DUP4 DUP9 SHL PUSH1 0xF8 AND SHR NOT AND SWAP1 SSTORE DUP14 DUP1 DUP1 PUSH2 0x73E JUMP JUMPDEST DUP3 DUP5 ADD MLOAD DUP6 SSTORE SWAP4 DUP7 ADD SWAP4 SWAP3 DUP12 ADD SWAP3 DUP12 ADD PUSH2 0x6FA JUMP JUMPDEST PUSH4 0x4E487B71 PUSH1 0xE0 SHL PUSH1 0x0 MSTORE PUSH1 0x41 PUSH1 0x4 MSTORE PUSH1 0x24 PUSH1 0x0 REVERT JUMPDEST ADD MLOAD SWAP1 POP DUP13 DUP1 PUSH2 0x603 JUMP JUMPDEST PUSH1 0x0 DUP6 DUP2 MSTORE DUP13 DUP2 KECCAK256 DUP8 SWAP6 POP SWAP3 SWAP2 SWAP1 PUSH1 0x1F NOT DUP6 AND SWAP1 DUP15 JUMPDEST DUP3 DUP3 LT PUSH2 0x7E5 JUMPI POP POP DUP5 GT PUSH2 0x7CC JUMPI JUMPDEST POP POP POP DUP2 SHL ADD SWAP1 SSTORE PUSH2 0x617 JUMP JUMPDEST ADD MLOAD PUSH1 0x0 NOT PUSH1 0xF8 DUP5 PUSH1 0x3 SHL AND SHR NOT AND SWAP1 SSTORE DUP13 DUP1 DUP1 PUSH2 0x7BF JUMP JUMPDEST DUP4 DUP6 ADD MLOAD DUP7 SSTORE DUP10 SWAP8 SWAP1 SWAP6 ADD SWAP5 SWAP4 DUP5 ADD SWAP4 ADD DUP15 PUSH2 0x7AF JUMP JUMPDEST CALLVALUE PUSH2 0x253 JUMPI PUSH1 0x0 CALLDATASIZE PUSH1 0x3 NOT ADD SLT PUSH2 0x253 JUMPI PUSH1 0x20 PUSH1 0x40 MLOAD PUSH1 0x14 DUP2 MSTORE RETURN JUMPDEST CALLVALUE PUSH2 0x253 JUMPI PUSH1 0x0 CALLDATASIZE PUSH1 0x3 NOT ADD SLT PUSH2 0x253 JUMPI CALLER PUSH1 0x0 SWAP1 DUP2 MSTORE PUSH1 0x1 PUSH1 0x20 MSTORE PUSH1 0x40 SWAP1 KECCAK256 SLOAD PUSH2 0x84D SWAP1 PUSH1 0x1 PUSH1 0x1 PUSH1 0xA0 SHL SUB AND ISZERO ISZERO PUSH2 0x27D3 JUMP JUMPDEST CALLER PUSH1 0x0 MSTORE PUSH1 0x1 PUSH1 0x20 MSTORE PUSH1 0xFF PUSH1 0x5 PUSH1 0x40 PUSH1 0x0 KECCAK256 ADD SLOAD AND PUSH2 0x8B7 JUMPI CALLER PUSH1 0x0 MSTORE PUSH1 0x1 PUSH1 0x20 MSTORE PUSH1 0x40 PUSH1 0x0 KECCAK256 PUSH1 0x5 DUP2 ADD PUSH1 0x1 PUSH1 0xFF NOT DUP3 SLOAD AND OR SWAP1 SSTORE PUSH1 0x7 TIMESTAMP SWAP2 ADD SSTORE PUSH1 0x40 MLOAD TIMESTAMP DUP2 MSTORE PUSH32 0x72FA502A711D31DA2101A8152EDE15F4F332C7BEF579C13CA9F8EF603A4480E6 PUSH1 0x20 CALLER SWAP3 LOG2 STOP JUMPDEST PUSH1 0x40 MLOAD PUSH3 0x461BCD PUSH1 0xE5 SHL DUP2 MSTORE PUSH1 0x20 PUSH1 0x4 DUP3 ADD MSTORE PUSH1 0xE PUSH1 0x24 DUP3 ADD MSTORE PUSH14 0x416C726561647920616374697665 PUSH1 0x90 SHL PUSH1 0x44 DUP3 ADD MSTORE PUSH1 0x64 SWAP1 REVERT JUMPDEST CALLVALUE PUSH2 0x253 JUMPI PUSH1 0x0 CALLDATASIZE PUSH1 0x3 NOT ADD SLT PUSH2 0x253 JUMPI PUSH1 0x6 SLOAD PUSH1 0x0 NOT DUP1 DUP3 ADD SWAP1 DUP3 DUP3 GT PUSH2 0xA64 JUMPI PUSH2 0x918 DUP3 PUSH2 0x264F JUMP JUMPDEST SWAP2 PUSH2 0x926 PUSH1 0x40 MLOAD SWAP4 DUP5 PUSH2 0x22FF JUMP JUMPDEST DUP1 DUP4 MSTORE PUSH2 0x935 PUSH1 0x1F NOT SWAP2 PUSH2 0x264F JUMP JUMPDEST ADD PUSH1 0x0 JUMPDEST DUP2 DUP2 LT PUSH2 0xA7A JUMPI POP POP PUSH1 0x1 SWAP3 DUP4 JUMPDEST DUP2 DUP2 LT PUSH2 0x9EA JUMPI DUP4 DUP6 PUSH1 0x40 MLOAD SWAP2 DUP3 SWAP2 PUSH1 0x20 SWAP1 DUP2 DUP5 ADD DUP3 DUP6 MSTORE DUP4 MLOAD DUP1 SWAP2 MSTORE PUSH1 0x40 DUP6 ADD SWAP3 DUP1 PUSH1 0x40 DUP4 PUSH1 0x5 SHL DUP9 ADD ADD SWAP6 ADD SWAP4 PUSH1 0x0 SWAP1 JUMPDEST DUP4 DUP3 LT PUSH2 0x987 JUMPI DUP8 DUP8 SUB DUP9 RETURN JUMPDEST SWAP2 DUP5 SWAP7 DUP2 SWAP6 SWAP3 SWAP5 SWAP7 SWAP9 POP DUP2 SWAP1 PUSH1 0x3F NOT DUP12 DUP3 SUB ADD DUP6 MSTORE DUP10 MLOAD SWAP1 DUP2 MLOAD DUP2 MSTORE PUSH2 0x9CE PUSH2 0x9BC DUP5 DUP5 ADD MLOAD PUSH1 0x80 DUP1 DUP8 DUP7 ADD MSTORE DUP5 ADD SWAP1 PUSH2 0x24A9 JUMP JUMPDEST PUSH1 0x40 DUP5 ADD MLOAD DUP4 DUP3 SUB PUSH1 0x40 DUP6 ADD MSTORE PUSH2 0x24A9 JUMP JUMPDEST SWAP2 PUSH1 0x60 DUP1 SWAP2 ADD MLOAD SWAP2 ADD MSTORE SWAP9 ADD SWAP3 ADD SWAP3 ADD DUP8 SWAP7 SWAP6 SWAP4 SWAP2 SWAP5 SWAP3 PUSH2 0x97A JUMP JUMPDEST DUP1 PUSH1 0x0 MSTORE PUSH1 0x2 SWAP1 PUSH1 0x20 DUP3 DUP2 MSTORE PUSH1 0x40 PUSH1 0x0 KECCAK256 SWAP1 DUP6 DUP4 ADD SWAP1 DUP4 DUP3 GT PUSH2 0xA64 JUMPI PUSH1 0x3 PUSH2 0xA59 SWAP4 PUSH2 0xA3C PUSH2 0xA5F SWAP8 DUP13 SWAP5 PUSH2 0xA31 PUSH1 0x40 MLOAD SWAP7 PUSH2 0xA26 DUP9 PUSH2 0x22E4 JUMP JUMPDEST DUP6 SLOAD DUP9 MSTORE DUP6 ADD PUSH2 0x2403 JUMP JUMPDEST SWAP1 DUP7 ADD MSTORE DUP3 ADD PUSH2 0x2403 JUMP JUMPDEST PUSH1 0x40 DUP5 ADD MSTORE ADD SLOAD PUSH1 0x60 DUP3 ADD MSTORE PUSH2 0xA52 DUP3 DUP10 PUSH2 0x26B0 JUMP JUMPDEST MSTORE DUP7 PUSH2 0x26B0 JUMP JUMPDEST POP PUSH2 0x25C1 JUMP JUMPDEST PUSH2 0x947 JUMP JUMPDEST PUSH4 0x4E487B71 PUSH1 0xE0 SHL PUSH1 0x0 MSTORE PUSH1 0x11 PUSH1 0x4 MSTORE PUSH1 0x24 PUSH1 0x0 REVERT JUMPDEST PUSH1 0x20 SWAP1 PUSH1 0x40 MLOAD PUSH2 0xA89 DUP2 PUSH2 0x22E4 JUMP JUMPDEST PUSH1 0x0 DUP2 MSTORE PUSH1 0x60 PUSH1 0x0 DUP5 SWAP2 DUP1 DUP4 DUP6 ADD MSTORE DUP1 PUSH1 0x40 DUP6 ADD MSTORE DUP4 ADD MSTORE DUP3 DUP8 ADD ADD MSTORE ADD PUSH2 0x939 JUMP JUMPDEST CALLVALUE PUSH2 0x253 JUMPI PUSH1 0x0 CALLDATASIZE PUSH1 0x3 NOT ADD SLT PUSH2 0x253 JUMPI PUSH1 0x20 PUSH1 0x7 SLOAD PUSH1 0x40 MLOAD SWAP1 DUP2 MSTORE RETURN JUMPDEST CALLVALUE PUSH2 0x253 JUMPI PUSH1 0x20 CALLDATASIZE PUSH1 0x3 NOT ADD SLT PUSH2 0x253 JUMPI PUSH1 0x1 PUSH1 0x1 PUSH1 0xA0 SHL SUB PUSH2 0xAEB PUSH2 0x23B3 JUMP JUMPDEST AND PUSH1 0x0 MSTORE PUSH1 0x1 PUSH1 0x20 MSTORE PUSH1 0x20 PUSH1 0xFF PUSH1 0x5 PUSH1 0x40 PUSH1 0x0 KECCAK256 ADD SLOAD AND PUSH1 0x40 MLOAD SWAP1 ISZERO ISZERO DUP2 MSTORE RETURN JUMPDEST CALLVALUE PUSH2 0x253 JUMPI PUSH1 0x20 CALLDATASIZE PUSH1 0x3 NOT ADD SLT PUSH2 0x253 JUMPI PUSH2 0xB32 PUSH1 0x1 DUP1 PUSH1 0xA0 SHL SUB PUSH1 0x8 SLOAD AND CALLER EQ PUSH2 0x29FC JUMP JUMPDEST PUSH1 0x4 CALLDATALOAD PUSH1 0x9 SSTORE STOP JUMPDEST CALLVALUE PUSH2 0x253 JUMPI PUSH1 0x20 DUP1 PUSH1 0x3 NOT CALLDATASIZE ADD SLT PUSH2 0x253 JUMPI PUSH1 0x4 CALLDATALOAD PUSH1 0x0 MSTORE PUSH1 0x3 DUP2 MSTORE PUSH1 0x40 PUSH1 0x0 KECCAK256 SWAP1 PUSH1 0x40 MLOAD SWAP1 DUP2 DUP2 DUP5 SLOAD SWAP2 DUP3 DUP2 MSTORE ADD SWAP4 PUSH1 0x0 MSTORE DUP2 PUSH1 0x0 KECCAK256 SWAP2 PUSH1 0x0 SWAP1 JUMPDEST DUP3 DUP3 LT PUSH2 0xB9D JUMPI PUSH2 0xB99 DUP6 PUSH2 0xB8D DUP2 DUP10 SUB DUP3 PUSH2 0x22FF JUMP JUMPDEST PUSH1 0x40 MLOAD SWAP2 DUP3 SWAP2 DUP3 PUSH2 0x24E4 JUMP JUMPDEST SUB SWAP1 RETURN JUMPDEST DUP4 SLOAD PUSH1 0x1 PUSH1 0x1 PUSH1 0xA0 SHL SUB AND DUP7 MSTORE SWAP5 DUP6 ADD SWAP5 PUSH1 0x1 SWAP4 DUP5 ADD SWAP4 SWAP1 SWAP2 ADD SWAP1 PUSH2 0xB76 JUMP JUMPDEST CALLVALUE PUSH2 0x253 JUMPI PUSH1 0x20 CALLDATASIZE PUSH1 0x3 NOT ADD SLT PUSH2 0x253 JUMPI PUSH1 0x1 PUSH1 0x1 PUSH1 0xA0 SHL SUB PUSH2 0xBDE PUSH2 0x23B3 JUMP JUMPDEST AND PUSH1 0x0 MSTORE PUSH1 0x1 PUSH1 0x20 MSTORE PUSH2 0xB99 PUSH2 0xBFA PUSH1 0x2 PUSH1 0x40 PUSH1 0x0 KECCAK256 ADD PUSH2 0x2A34 JUMP JUMPDEST PUSH1 0x40 MLOAD SWAP2 DUP3 SWAP2 PUSH1 0x20 DUP4 MSTORE PUSH1 0x20 DUP4 ADD SWAP1 PUSH2 0x258D JUMP JUMPDEST CALLVALUE PUSH2 0x253 JUMPI PUSH1 0x20 CALLDATASIZE PUSH1 0x3 NOT ADD SLT PUSH2 0x253 JUMPI PUSH1 0x4 CALLDATALOAD PUSH1 0x1 PUSH1 0x1 PUSH1 0x40 SHL SUB DUP2 GT PUSH2 0x253 JUMPI PUSH2 0xB8D PUSH2 0xC44 PUSH2 0xB99 SWAP3 CALLDATASIZE SWAP1 PUSH1 0x4 ADD PUSH2 0x2236 JUMP JUMPDEST SWAP1 PUSH2 0x284F JUMP JUMPDEST CALLVALUE PUSH2 0x253 JUMPI PUSH1 0x20 DUP1 PUSH1 0x3 NOT CALLDATASIZE ADD SLT PUSH2 0x253 JUMPI PUSH1 0x5 SLOAD PUSH1 0x4 CALLDATALOAD DUP2 DUP2 GT ISZERO PUSH2 0xDCD JUMPI POP DUP1 SWAP2 JUMPDEST PUSH2 0xC77 DUP3 PUSH2 0x281D JUMP JUMPDEST SWAP2 PUSH1 0x0 JUMPDEST DUP2 DUP2 LT PUSH2 0xD9F JUMPI POP POP PUSH1 0x0 JUMPDEST DUP3 MLOAD DUP2 LT ISZERO PUSH2 0xD4E JUMPI PUSH1 0x1 DUP1 DUP3 ADD DUP1 DUP4 GT PUSH2 0xA64 JUMPI DUP2 JUMPDEST PUSH2 0xCB3 JUMPI JUMPDEST POP POP PUSH2 0xCAE SWAP1 PUSH2 0x25C1 JUMP JUMPDEST PUSH2 0xC87 JUMP JUMPDEST DUP5 MLOAD DUP2 LT ISZERO PUSH2 0xD49 JUMPI DUP2 SWAP1 PUSH2 0xD0D SWAP1 PUSH1 0x1 PUSH1 0x1 PUSH1 0xA0 SHL SUB DUP1 PUSH2 0xCD5 DUP4 DUP11 PUSH2 0x26B0 JUMP JUMPDEST MLOAD AND PUSH1 0x0 MSTORE DUP4 DUP8 MSTORE PUSH1 0x4 PUSH1 0x40 PUSH1 0x0 KECCAK256 ADD SLOAD DUP2 PUSH2 0xCF1 DUP9 DUP12 PUSH2 0x26B0 JUMP JUMPDEST MLOAD AND PUSH1 0x0 MSTORE DUP5 DUP9 MSTORE PUSH1 0x4 PUSH1 0x40 PUSH1 0x0 KECCAK256 ADD SLOAD LT PUSH2 0xD13 JUMPI POP PUSH2 0x25C1 JUMP JUMPDEST SWAP1 PUSH2 0xC9E JUMP JUMPDEST DUP1 PUSH2 0xD1E DUP8 DUP11 PUSH2 0x26B0 JUMP JUMPDEST MLOAD AND SWAP1 PUSH2 0xD2B DUP4 DUP11 PUSH2 0x26B0 JUMP JUMPDEST MLOAD AND PUSH2 0xD37 DUP8 DUP11 PUSH2 0x26B0 JUMP JUMPDEST MSTORE PUSH2 0xD42 DUP3 DUP10 PUSH2 0x26B0 JUMP JUMPDEST MSTORE DUP9 PUSH2 0xA59 JUMP JUMPDEST PUSH2 0xCA3 JUMP JUMPDEST DUP3 DUP5 PUSH2 0xD59 DUP2 PUSH2 0x281D JUMP JUMPDEST SWAP2 PUSH1 0x0 JUMPDEST DUP3 DUP2 LT PUSH2 0xD72 JUMPI PUSH1 0x40 MLOAD DUP1 PUSH2 0xB99 DUP7 DUP3 PUSH2 0x24E4 JUMP JUMPDEST PUSH2 0xD9A SWAP1 PUSH1 0x1 PUSH1 0x1 PUSH1 0xA0 SHL SUB PUSH2 0xD88 DUP3 DUP6 PUSH2 0x26B0 JUMP JUMPDEST MLOAD AND PUSH2 0xD94 DUP3 DUP8 PUSH2 0x26B0 JUMP JUMPDEST MSTORE PUSH2 0x25C1 JUMP JUMPDEST PUSH2 0xD5D JUMP JUMPDEST DUP1 PUSH2 0xDAC PUSH2 0xDC8 SWAP3 PUSH2 0x2528 JUMP JUMPDEST SWAP1 SLOAD PUSH1 0x3 SWAP2 SWAP1 SWAP2 SHL SHR PUSH1 0x1 PUSH1 0x1 PUSH1 0xA0 SHL SUB AND PUSH2 0xD94 DUP3 DUP8 PUSH2 0x26B0 JUMP JUMPDEST PUSH2 0xC7B JUMP JUMPDEST SWAP2 PUSH2 0xC6E JUMP JUMPDEST CALLVALUE PUSH2 0x253 JUMPI PUSH2 0xDE1 CALLDATASIZE PUSH2 0x24CE JUMP JUMPDEST SWAP1 PUSH1 0x0 MSTORE PUSH1 0x3 PUSH1 0x20 MSTORE PUSH1 0x40 PUSH1 0x0 KECCAK256 DUP1 SLOAD DUP3 LT ISZERO PUSH2 0x253 JUMPI PUSH1 0x20 SWAP2 PUSH2 0x503 SWAP2 PUSH2 0x2575 JUMP JUMPDEST CALLVALUE PUSH2 0x253 JUMPI PUSH1 0x0 CALLDATASIZE PUSH1 0x3 NOT ADD SLT PUSH2 0x253 JUMPI PUSH1 0x0 SLOAD PUSH1 0x40 MLOAD PUSH1 0x8 SWAP2 SWAP1 SWAP2 SHR PUSH1 0x1 PUSH1 0x1 PUSH1 0xA0 SHL SUB AND DUP2 MSTORE PUSH1 0x20 SWAP1 RETURN JUMPDEST CALLVALUE PUSH2 0x253 JUMPI PUSH1 0x0 CALLDATASIZE PUSH1 0x3 NOT ADD SLT PUSH2 0x253 JUMPI PUSH1 0x8 SLOAD PUSH1 0x40 MLOAD PUSH1 0x1 PUSH1 0x1 PUSH1 0xA0 SHL SUB SWAP1 SWAP2 AND DUP2 MSTORE PUSH1 0x20 SWAP1 RETURN JUMPDEST CALLVALUE PUSH2 0x253 JUMPI PUSH1 0x0 CALLDATASIZE PUSH1 0x3 NOT ADD SLT PUSH2 0x253 JUMPI PUSH1 0x0 SLOAD PUSH1 0x8 DUP2 SWAP1 SHR PUSH1 0x1 PUSH1 0x1 PUSH1 0xA0 SHL SUB AND CALLER SUB PUSH2 0xED3 JUMPI PUSH1 0xFF DUP2 AND PUSH2 0xEC1 JUMPI PUSH1 0x1 SWAP1 PUSH1 0xFF NOT AND OR PUSH1 0x0 SSTORE PUSH32 0x62E78CEA01BEE320CD4E420270B5EA74000D11B0C9F74754EBDBFC544B05A258 PUSH1 0x20 PUSH1 0x40 MLOAD CALLER DUP2 MSTORE LOG1 STOP JUMPDEST PUSH1 0x40 MLOAD PUSH4 0xAB35696F PUSH1 0xE0 SHL DUP2 MSTORE PUSH1 0x4 SWAP1 REVERT JUMPDEST PUSH1 0x40 MLOAD PUSH4 0x492F6781 PUSH1 0xE0 SHL DUP2 MSTORE PUSH1 0x4 SWAP1 REVERT JUMPDEST PUSH2 0xEEE CALLDATASIZE PUSH2 0x2266 JUMP JUMPDEST SWAP1 PUSH1 0xFF PUSH1 0x0 SWAP5 SWAP4 SWAP5 SLOAD AND PUSH2 0xEC1 JUMPI PUSH1 0x2 PUSH32 0x9B779B17422D0DF92223018B32B4D1FA46E071723D6817E2486D003BECC55F00 SLOAD EQ PUSH2 0x16F4 JUMPI PUSH1 0x2 PUSH32 0x9B779B17422D0DF92223018B32B4D1FA46E071723D6817E2486D003BECC55F00 SSTORE PUSH1 0x0 JUMPDEST DUP3 DUP2 LT PUSH2 0x16AE JUMPI POP CALLER PUSH1 0x0 MSTORE PUSH1 0x1 PUSH1 0x20 MSTORE PUSH1 0xFF PUSH1 0x5 PUSH1 0x40 PUSH1 0x0 KECCAK256 ADD SLOAD AND PUSH2 0x1674 JUMPI PUSH7 0x38D7EA4C68000 DUP1 CALLVALUE LT PUSH2 0x163C JUMPI DUP3 ISZERO PUSH2 0x15F7 JUMPI PUSH1 0x14 DUP4 GT PUSH2 0x15C0 JUMPI PUSH1 0xA DUP6 LT PUSH2 0x1586 JUMPI PUSH2 0x1F4 DUP6 GT PUSH2 0x154D JUMPI CALLVALUE GT PUSH2 0x14F0 JUMPI JUMPDEST PUSH2 0xFAB DUP3 PUSH2 0x2666 JUMP JUMPDEST PUSH1 0x0 JUMPDEST DUP4 DUP2 LT PUSH2 0x145F JUMPI POP PUSH1 0x40 MLOAD SWAP1 PUSH2 0xFC3 DUP3 PUSH2 0x22C8 JUMP JUMPDEST CALLER DUP3 MSTORE PUSH2 0xFD1 CALLDATASIZE DUP8 DUP8 PUSH2 0x233B JUMP JUMPDEST PUSH1 0x20 DUP4 ADD MSTORE PUSH2 0xFDF DUP5 PUSH2 0x264F JUMP JUMPDEST PUSH2 0xFEC PUSH1 0x40 MLOAD SWAP2 DUP3 PUSH2 0x22FF JUMP JUMPDEST DUP5 DUP2 MSTORE PUSH1 0x20 DUP2 ADD CALLDATASIZE DUP7 PUSH1 0x5 SHL DUP7 ADD GT PUSH2 0x253 JUMPI DUP5 SWAP1 JUMPDEST DUP7 PUSH1 0x5 SHL DUP7 ADD DUP3 LT PUSH2 0x144F JUMPI POP POP PUSH1 0x40 DUP4 ADD MSTORE PUSH1 0x60 DUP3 ADD MSTORE PUSH1 0x0 PUSH1 0x80 DUP3 ADD MSTORE PUSH1 0x1 PUSH1 0xA0 DUP3 ADD MSTORE TIMESTAMP PUSH1 0xC0 DUP3 ADD MSTORE TIMESTAMP PUSH1 0xE0 DUP3 ADD MSTORE PUSH1 0x0 PUSH2 0x100 DUP3 ADD MSTORE PUSH1 0x0 PUSH2 0x120 DUP3 ADD MSTORE PUSH1 0x0 PUSH2 0x140 DUP3 ADD MSTORE CALLER PUSH1 0x0 MSTORE PUSH1 0x1 PUSH1 0x20 MSTORE PUSH1 0x40 PUSH1 0x0 KECCAK256 SWAP1 PUSH1 0x1 DUP1 PUSH1 0xA0 SHL SUB DUP2 MLOAD AND PUSH12 0xFFFFFFFFFFFFFFFFFFFFFFFF PUSH1 0xA0 SHL DUP4 SLOAD AND OR DUP3 SSTORE PUSH1 0x20 DUP2 ADD MLOAD DUP1 MLOAD SWAP1 PUSH1 0x1 PUSH1 0x1 PUSH1 0x40 SHL SUB DUP3 GT PUSH2 0x778 JUMPI DUP2 SWAP1 PUSH2 0x10AD DUP3 PUSH2 0x10A4 PUSH1 0x1 DUP9 ADD SLOAD PUSH2 0x23C9 JUMP JUMPDEST PUSH1 0x1 DUP9 ADD PUSH2 0x26FE JUMP JUMPDEST PUSH1 0x20 SWAP1 PUSH1 0x1F DUP4 GT PUSH1 0x1 EQ PUSH2 0x13DD JUMPI PUSH1 0x0 SWAP3 PUSH2 0x13D2 JUMPI JUMPDEST POP POP DUP2 PUSH1 0x1 SHL SWAP2 PUSH1 0x0 NOT SWAP1 PUSH1 0x3 SHL SHR NOT AND OR PUSH1 0x1 DUP4 ADD SSTORE JUMPDEST PUSH1 0x40 DUP2 ADD MLOAD DUP1 MLOAD SWAP1 PUSH1 0x1 PUSH1 0x1 PUSH1 0x40 SHL SUB DUP3 GT PUSH2 0x778 JUMPI PUSH1 0x20 PUSH1 0x2 DUP6 ADD SWAP2 PUSH2 0x1102 DUP5 DUP5 PUSH2 0x2743 JUMP JUMPDEST ADD SWAP1 PUSH1 0x0 MSTORE PUSH1 0x20 PUSH1 0x0 KECCAK256 PUSH1 0x0 JUMPDEST DUP4 DUP2 LT PUSH2 0x13BE JUMPI POP POP POP POP PUSH1 0x60 DUP2 ADD MLOAD DUP1 MLOAD SWAP1 PUSH1 0x1 PUSH1 0x40 SHL DUP3 GT PUSH2 0x778 JUMPI PUSH1 0x3 DUP5 ADD SLOAD DUP3 PUSH1 0x3 DUP7 ADD SSTORE DUP1 DUP4 LT PUSH2 0x1346 JUMPI JUMPDEST POP PUSH1 0x20 ADD SWAP1 PUSH1 0x3 DUP5 ADD PUSH1 0x0 MSTORE PUSH1 0x20 PUSH1 0x0 KECCAK256 SWAP2 PUSH1 0x0 SWAP1 JUMPDEST DUP3 DUP3 LT PUSH2 0x1263 JUMPI POP POP POP POP PUSH2 0x140 DUP2 PUSH1 0x80 PUSH1 0xA SWAP4 ADD MLOAD PUSH1 0x4 DUP6 ADD SSTORE PUSH1 0x5 DUP5 ADD PUSH1 0xA0 DUP3 ADD MLOAD ISZERO ISZERO PUSH1 0xFF DUP1 NOT DUP4 SLOAD AND SWAP2 AND OR SWAP1 SSTORE PUSH1 0xC0 DUP2 ADD MLOAD PUSH1 0x6 DUP6 ADD SSTORE PUSH1 0xE0 DUP2 ADD MLOAD PUSH1 0x7 DUP6 ADD SSTORE PUSH2 0x100 DUP2 ADD MLOAD PUSH1 0x8 DUP6 ADD SSTORE PUSH2 0x120 DUP2 ADD MLOAD PUSH1 0x9 DUP6 ADD SSTORE ADD MLOAD SWAP2 ADD SSTORE PUSH1 0x5 SLOAD PUSH1 0x1 PUSH1 0x40 SHL DUP2 LT ISZERO PUSH2 0x778 JUMPI PUSH32 0xDF1275F67E995789184A7A608F6C1B71953A305670459D1BB1F05956DB47C05D SWAP4 PUSH2 0x121C PUSH2 0x11FE DUP4 PUSH1 0x1 PUSH2 0x123A SWAP6 ADD PUSH1 0x5 SSTORE PUSH2 0x2528 JUMP JUMPDEST DUP2 SLOAD PUSH1 0x1 PUSH1 0x1 PUSH1 0xA0 SHL SUB PUSH1 0x3 SWAP3 SWAP1 SWAP3 SHL SWAP2 DUP3 SHL NOT AND CALLER SWAP1 SWAP2 SHL OR SWAP1 SSTORE JUMP JUMPDEST PUSH2 0x1227 PUSH1 0x7 SLOAD PUSH2 0x25C1 JUMP JUMPDEST PUSH1 0x7 SSTORE PUSH1 0x40 MLOAD SWAP4 DUP5 SWAP4 CALLER SWAP8 TIMESTAMP SWAP4 DUP7 PUSH2 0x2777 JUMP JUMPDEST SUB SWAP1 LOG2 PUSH1 0x1 PUSH32 0x9B779B17422D0DF92223018B32B4D1FA46E071723D6817E2486D003BECC55F00 SSTORE STOP JUMPDEST DUP1 MLOAD DUP1 MLOAD SWAP1 PUSH1 0x1 PUSH1 0x1 PUSH1 0x40 SHL SUB DUP3 GT PUSH2 0x778 JUMPI PUSH2 0x128A DUP3 PUSH2 0x1284 DUP9 SLOAD PUSH2 0x23C9 JUMP JUMPDEST DUP9 PUSH2 0x26FE JUMP JUMPDEST PUSH1 0x20 SWAP1 PUSH1 0x1F DUP4 GT PUSH1 0x1 EQ PUSH2 0x12D6 JUMPI SWAP3 DUP3 PUSH1 0x1 SWAP5 SWAP4 PUSH1 0x20 SWAP4 DUP7 SWAP6 PUSH1 0x0 SWAP3 PUSH2 0x12CB JUMPI JUMPDEST POP POP PUSH1 0x0 NOT PUSH1 0x3 DUP4 SWAP1 SHL SHR NOT AND SWAP1 DUP5 SHL OR DUP8 SSTORE JUMPDEST ADD SWAP5 ADD SWAP2 ADD SWAP1 SWAP3 PUSH2 0x1156 JUMP JUMPDEST ADD MLOAD SWAP1 POP DUP16 DUP1 PUSH2 0x12AB JUMP JUMPDEST SWAP1 DUP7 PUSH1 0x0 MSTORE PUSH1 0x20 PUSH1 0x0 KECCAK256 SWAP2 PUSH1 0x0 JUMPDEST PUSH1 0x1F NOT DUP6 AND DUP2 LT PUSH2 0x132E JUMPI POP DUP4 PUSH1 0x20 SWAP4 PUSH1 0x1 SWAP7 SWAP4 DUP8 SWAP7 SWAP4 DUP8 SWAP5 PUSH1 0x1F NOT DUP2 AND LT PUSH2 0x1315 JUMPI JUMPDEST POP POP POP DUP2 SHL ADD DUP8 SSTORE PUSH2 0x12BF JUMP JUMPDEST ADD MLOAD PUSH1 0x0 NOT PUSH1 0xF8 DUP5 PUSH1 0x3 SHL AND SHR NOT AND SWAP1 SSTORE DUP16 DUP1 DUP1 PUSH2 0x1308 JUMP JUMPDEST SWAP2 SWAP3 PUSH1 0x20 PUSH1 0x1 DUP2 SWAP3 DUP7 DUP6 ADD MLOAD DUP2 SSTORE ADD SWAP5 ADD SWAP3 ADD PUSH2 0x12E4 JUMP JUMPDEST PUSH1 0x3 DUP6 ADD PUSH1 0x0 MSTORE PUSH1 0x20 PUSH1 0x0 KECCAK256 SWAP1 DUP4 DUP3 ADD JUMPDEST DUP2 DUP4 ADD DUP2 LT PUSH2 0x1367 JUMPI POP POP PUSH2 0x1140 JUMP JUMPDEST DUP1 PUSH2 0x1374 PUSH1 0x1 SWAP3 SLOAD PUSH2 0x23C9 JUMP JUMPDEST DUP1 PUSH2 0x1381 JUMPI JUMPDEST POP ADD PUSH2 0x1357 JUMP JUMPDEST PUSH1 0x1F DUP2 GT DUP4 EQ PUSH2 0x1397 JUMPI POP PUSH1 0x0 DUP2 SSTORE JUMPDEST DUP13 PUSH2 0x137A JUMP JUMPDEST PUSH1 0x0 SWAP1 DUP3 DUP3 MSTORE PUSH2 0x13B5 PUSH1 0x1F PUSH1 0x20 DUP5 KECCAK256 SWAP3 ADD PUSH1 0x5 SHR DUP3 ADD DUP6 DUP4 ADD PUSH2 0x26E7 JUMP JUMPDEST DUP2 DUP4 SSTORE SSTORE PUSH2 0x1391 JUMP JUMPDEST PUSH1 0x1 SWAP1 PUSH1 0x20 DUP5 MLOAD SWAP5 ADD SWAP4 DUP2 DUP5 ADD SSTORE ADD PUSH2 0x110F JUMP JUMPDEST ADD MLOAD SWAP1 POP DUP9 DUP1 PUSH2 0x10C3 JUMP JUMPDEST SWAP3 POP PUSH1 0x1 DUP6 ADD PUSH1 0x0 MSTORE PUSH1 0x20 PUSH1 0x0 KECCAK256 SWAP1 PUSH1 0x0 SWAP4 JUMPDEST PUSH1 0x1F NOT DUP5 AND DUP6 LT PUSH2 0x1434 JUMPI PUSH1 0x1 SWAP5 POP DUP4 PUSH1 0x1F NOT DUP2 AND LT PUSH2 0x141B JUMPI JUMPDEST POP POP POP DUP2 SHL ADD PUSH1 0x1 DUP4 ADD SSTORE PUSH2 0x10DB JUMP JUMPDEST ADD MLOAD PUSH1 0x0 NOT PUSH1 0xF8 DUP5 PUSH1 0x3 SHL AND SHR NOT AND SWAP1 SSTORE DUP9 DUP1 DUP1 PUSH2 0x140B JUMP JUMPDEST DUP2 DUP2 ADD MLOAD DUP4 SSTORE PUSH1 0x20 SWAP5 DUP6 ADD SWAP5 PUSH1 0x1 SWAP1 SWAP4 ADD SWAP3 SWAP1 SWAP2 ADD SWAP1 PUSH2 0x13F0 JUMP JUMPDEST DUP2 CALLDATALOAD DUP2 MSTORE PUSH1 0x20 SWAP2 DUP3 ADD SWAP2 ADD PUSH2 0x1002 JUMP JUMPDEST DUP1 PUSH2 0x146E PUSH2 0x14EB SWAP3 DUP7 DUP7 PUSH2 0x25D0 JUMP JUMPDEST CALLDATALOAD PUSH1 0x0 MSTORE PUSH1 0x2 PUSH1 0x20 MSTORE PUSH2 0x1487 PUSH1 0x1 PUSH1 0x40 PUSH1 0x0 KECCAK256 ADD PUSH2 0x2403 JUMP JUMPDEST PUSH2 0x1491 DUP3 DUP6 PUSH2 0x26B0 JUMP JUMPDEST MSTORE PUSH2 0x149C DUP2 DUP5 PUSH2 0x26B0 JUMP JUMPDEST POP PUSH2 0x14A8 DUP2 DUP7 DUP7 PUSH2 0x25D0 JUMP JUMPDEST CALLDATALOAD PUSH1 0x0 MSTORE PUSH1 0x3 DUP1 PUSH1 0x20 MSTORE PUSH2 0x14C0 CALLER PUSH1 0x40 PUSH1 0x0 KECCAK256 PUSH2 0x26C4 JUMP JUMPDEST PUSH2 0x14CB DUP3 DUP8 DUP8 PUSH2 0x25D0 JUMP JUMPDEST CALLDATALOAD PUSH1 0x0 MSTORE PUSH1 0x2 PUSH1 0x20 MSTORE PUSH1 0x40 PUSH1 0x0 KECCAK256 ADD PUSH2 0x14E4 DUP2 SLOAD PUSH2 0x25C1 JUMP JUMPDEST SWAP1 SSTORE PUSH2 0x25C1 JUMP JUMPDEST PUSH2 0xFAE JUMP JUMPDEST PUSH7 0x38D7EA4C67FFF NOT CALLVALUE ADD CALLVALUE DUP2 GT PUSH2 0xA64 JUMPI PUSH1 0x0 DUP1 DUP1 DUP1 SWAP4 CALLER GAS CALL PUSH2 0x1513 PUSH2 0x261F JUMP JUMPDEST POP PUSH2 0xFA2 JUMPI PUSH1 0x40 MLOAD PUSH3 0x461BCD PUSH1 0xE5 SHL DUP2 MSTORE PUSH1 0x20 PUSH1 0x4 DUP3 ADD MSTORE PUSH1 0xD PUSH1 0x24 DUP3 ADD MSTORE PUSH13 0x1499599D5B990819985A5B1959 PUSH1 0x9A SHL PUSH1 0x44 DUP3 ADD MSTORE PUSH1 0x64 SWAP1 REVERT JUMPDEST PUSH1 0x40 MLOAD PUSH3 0x461BCD PUSH1 0xE5 SHL DUP2 MSTORE PUSH1 0x20 PUSH1 0x4 DUP3 ADD MSTORE PUSH1 0x11 PUSH1 0x24 DUP3 ADD MSTORE PUSH17 0x4D6574616461746120746F6F206C6F6E67 PUSH1 0x78 SHL PUSH1 0x44 DUP3 ADD MSTORE PUSH1 0x64 SWAP1 REVERT JUMPDEST PUSH1 0x40 MLOAD PUSH3 0x461BCD PUSH1 0xE5 SHL DUP2 MSTORE PUSH1 0x20 PUSH1 0x4 DUP3 ADD MSTORE PUSH1 0x12 PUSH1 0x24 DUP3 ADD MSTORE PUSH18 0x13595D1859185D18481D1BDBC81CDA1BDC9D PUSH1 0x72 SHL PUSH1 0x44 DUP3 ADD MSTORE PUSH1 0x64 SWAP1 REVERT JUMPDEST PUSH1 0x40 MLOAD PUSH3 0x461BCD PUSH1 0xE5 SHL DUP2 MSTORE PUSH1 0x20 PUSH1 0x4 DUP3 ADD MSTORE PUSH1 0xF PUSH1 0x24 DUP3 ADD MSTORE PUSH15 0x546F6F206D616E7920736B696C6C73 PUSH1 0x88 SHL PUSH1 0x44 DUP3 ADD MSTORE PUSH1 0x64 SWAP1 REVERT JUMPDEST PUSH1 0x40 MLOAD PUSH3 0x461BCD PUSH1 0xE5 SHL DUP2 MSTORE PUSH1 0x20 PUSH1 0x4 DUP3 ADD MSTORE PUSH1 0x1C PUSH1 0x24 DUP3 ADD MSTORE PUSH32 0x4D7573742068617665206174206C65617374206F6E6520736B696C6C00000000 PUSH1 0x44 DUP3 ADD MSTORE PUSH1 0x64 SWAP1 REVERT JUMPDEST PUSH1 0x40 MLOAD PUSH3 0x461BCD PUSH1 0xE5 SHL DUP2 MSTORE PUSH1 0x20 PUSH1 0x4 DUP3 ADD MSTORE PUSH1 0x10 PUSH1 0x24 DUP3 ADD MSTORE PUSH16 0x496E73756666696369656E7420666565 PUSH1 0x80 SHL PUSH1 0x44 DUP3 ADD MSTORE PUSH1 0x64 SWAP1 REVERT JUMPDEST PUSH1 0x40 MLOAD PUSH3 0x461BCD PUSH1 0xE5 SHL DUP2 MSTORE PUSH1 0x20 PUSH1 0x4 DUP3 ADD MSTORE PUSH1 0x12 PUSH1 0x24 DUP3 ADD MSTORE PUSH18 0x105B1C9958591E481C9959DA5CDD195C9959 PUSH1 0x72 SHL PUSH1 0x44 DUP3 ADD MSTORE PUSH1 0x64 SWAP1 REVERT JUMPDEST DUP1 PUSH2 0x16BD PUSH2 0x16D4 SWAP3 DUP6 DUP6 PUSH2 0x25D0 JUMP JUMPDEST CALLDATALOAD ISZERO ISZERO DUP1 PUSH2 0x16D9 JUMPI JUMPDEST PUSH2 0x16CF SWAP1 PUSH2 0x25E0 JUMP JUMPDEST PUSH2 0x25C1 JUMP JUMPDEST PUSH2 0xF4C JUMP JUMPDEST POP PUSH2 0x16CF PUSH2 0x16E8 DUP3 DUP7 DUP7 PUSH2 0x25D0 JUMP JUMPDEST CALLDATALOAD PUSH1 0x6 SLOAD GT SWAP1 POP PUSH2 0x16C6 JUMP JUMPDEST PUSH1 0x40 MLOAD PUSH4 0x3EE5AEB5 PUSH1 0xE0 SHL DUP2 MSTORE PUSH1 0x4 SWAP1 REVERT JUMPDEST CALLVALUE PUSH2 0x253 JUMPI PUSH1 0x0 CALLDATASIZE PUSH1 0x3 NOT ADD SLT PUSH2 0x253 JUMPI PUSH1 0x20 PUSH1 0x40 MLOAD PUSH7 0x38D7EA4C68000 DUP2 MSTORE RETURN JUMPDEST CALLVALUE PUSH2 0x253 JUMPI PUSH2 0x1736 CALLDATASIZE PUSH2 0x24CE JUMP JUMPDEST PUSH1 0x5 SWAP2 DUP3 SLOAD SWAP1 PUSH2 0x1745 DUP3 PUSH2 0x281D JUMP JUMPDEST SWAP4 PUSH1 0x0 SWAP4 TIMESTAMP SUB SWAP1 TIMESTAMP DUP3 GT PUSH2 0xA64 JUMPI PUSH1 0x0 JUMPDEST DUP5 DUP2 LT PUSH2 0x17A0 JUMPI JUMPDEST POP POP POP POP POP PUSH2 0x176C DUP2 PUSH2 0x281D JUMP JUMPDEST SWAP2 PUSH1 0x0 JUMPDEST DUP3 DUP2 LT PUSH2 0x1785 JUMPI PUSH1 0x40 MLOAD DUP1 PUSH2 0xB99 DUP7 DUP3 PUSH2 0x24E4 JUMP JUMPDEST PUSH2 0x179B SWAP1 PUSH1 0x1 PUSH1 0x1 PUSH1 0xA0 SHL SUB PUSH2 0xD88 DUP3 DUP6 PUSH2 0x26B0 JUMP JUMPDEST PUSH2 0x1770 JUMP JUMPDEST PUSH2 0x17A9 DUP2 PUSH2 0x2528 JUMP JUMPDEST PUSH1 0x1 DUP1 PUSH1 0xA0 SHL SUB DUP1 SWAP3 SLOAD PUSH1 0x3 SWAP3 DUP4 SHL SHR AND PUSH1 0x0 MSTORE PUSH1 0x1 PUSH1 0x20 SWAP1 DUP1 DUP3 MSTORE PUSH1 0xFF DUP7 PUSH1 0x40 PUSH1 0x0 KECCAK256 ADD SLOAD AND SWAP2 DUP3 PUSH2 0x1823 JUMPI JUMPDEST POP POP PUSH2 0x17EE JUMPI JUMPDEST POP POP PUSH2 0x17E9 SWAP1 PUSH2 0x25C1 JUMP JUMPDEST PUSH2 0x1756 JUMP JUMPDEST SWAP1 DUP3 SWAP8 SWAP2 PUSH2 0x17FE PUSH2 0x180E SWAP5 PUSH2 0x2528 JUMP JUMPDEST SWAP1 SLOAD SWAP2 SHL SHR AND PUSH2 0xD94 DUP3 DUP11 PUSH2 0x26B0 JUMP JUMPDEST SWAP5 DUP4 DUP7 LT ISZERO PUSH2 0x181E JUMPI DUP8 DUP1 PUSH2 0x17DE JUMP JUMPDEST PUSH2 0x175E JUMP JUMPDEST SWAP1 SWAP2 POP DUP4 PUSH2 0x1830 DUP7 PUSH2 0x2528 JUMP JUMPDEST SWAP1 SLOAD SWAP1 DUP6 SHL SHR AND PUSH1 0x0 MSTORE MSTORE DUP5 PUSH1 0x7 PUSH1 0x40 PUSH1 0x0 KECCAK256 ADD SLOAD LT ISZERO DUP11 DUP1 PUSH2 0x17D7 JUMP JUMPDEST CALLVALUE PUSH2 0x253 JUMPI PUSH1 0x0 CALLDATASIZE PUSH1 0x3 NOT ADD SLT PUSH2 0x253 JUMPI PUSH1 0x20 PUSH1 0xFF PUSH1 0x0 SLOAD AND PUSH1 0x40 MLOAD SWAP1 ISZERO ISZERO DUP2 MSTORE RETURN JUMPDEST CALLVALUE PUSH2 0x253 JUMPI PUSH1 0x0 CALLDATASIZE PUSH1 0x3 NOT ADD SLT PUSH2 0x253 JUMPI CALLER PUSH1 0x0 MSTORE PUSH1 0x1 PUSH1 0x20 MSTORE PUSH2 0x189F PUSH1 0xFF PUSH1 0x5 PUSH1 0x40 PUSH1 0x0 KECCAK256 ADD SLOAD AND PUSH2 0x27D3 JUMP JUMPDEST CALLER PUSH1 0x0 MSTORE PUSH1 0x1 PUSH1 0x20 MSTORE PUSH1 0x5 PUSH1 0x40 PUSH1 0x0 KECCAK256 ADD PUSH1 0xFF NOT DUP2 SLOAD AND SWAP1 SSTORE PUSH1 0x40 MLOAD TIMESTAMP DUP2 MSTORE PUSH32 0x908D0024A3278CB165ED9B5E370DFD4B2C566122EFEBB355AFB5B56E2249158 PUSH1 0x20 CALLER SWAP3 LOG2 STOP JUMPDEST CALLVALUE PUSH2 0x253 JUMPI PUSH1 0x20 CALLDATASIZE PUSH1 0x3 NOT ADD SLT PUSH2 0x253 JUMPI PUSH1 0x4 CALLDATALOAD PUSH1 0x0 MSTORE PUSH1 0x2 PUSH1 0x20 MSTORE PUSH1 0x40 PUSH1 0x0 KECCAK256 DUP1 SLOAD PUSH2 0x1915 PUSH1 0x1 DUP4 ADD PUSH2 0x2403 JUMP JUMPDEST SWAP2 PUSH2 0x1955 PUSH1 0x3 PUSH2 0x1927 PUSH1 0x2 DUP5 ADD PUSH2 0x2403 JUMP JUMPDEST SWAP3 ADD SLOAD SWAP2 PUSH2 0x1947 PUSH1 0x40 MLOAD SWAP6 DUP7 SWAP6 DUP7 MSTORE PUSH1 0x80 PUSH1 0x20 DUP8 ADD MSTORE PUSH1 0x80 DUP7 ADD SWAP1 PUSH2 0x24A9 JUMP JUMPDEST SWAP1 DUP5 DUP3 SUB PUSH1 0x40 DUP7 ADD MSTORE PUSH2 0x24A9 JUMP JUMPDEST SWAP1 PUSH1 0x60 DUP4 ADD MSTORE SUB SWAP1 RETURN JUMPDEST CALLVALUE PUSH2 0x253 JUMPI PUSH1 0x0 CALLDATASIZE PUSH1 0x3 NOT ADD SLT PUSH2 0x253 JUMPI PUSH1 0x0 DUP1 DUP1 DUP1 PUSH1 0x1 DUP1 PUSH1 0xA0 SHL SUB PUSH1 0x8 SLOAD AND PUSH2 0x198B DUP2 CALLER EQ PUSH2 0x29FC JUMP JUMPDEST SELFBALANCE SWAP1 GAS CALL PUSH2 0x1997 PUSH2 0x261F JUMP JUMPDEST POP ISZERO PUSH2 0x199F JUMPI STOP JUMPDEST PUSH1 0x40 MLOAD PUSH3 0x461BCD PUSH1 0xE5 SHL DUP2 MSTORE PUSH1 0x20 PUSH1 0x4 DUP3 ADD MSTORE PUSH1 0xF PUSH1 0x24 DUP3 ADD MSTORE PUSH15 0x15DA5D1A191C985DC819985A5B1959 PUSH1 0x8A SHL PUSH1 0x44 DUP3 ADD MSTORE PUSH1 0x64 SWAP1 REVERT JUMPDEST CALLVALUE PUSH2 0x253 JUMPI PUSH1 0x20 CALLDATASIZE PUSH1 0x3 NOT ADD SLT PUSH2 0x253 JUMPI PUSH2 0x19EF PUSH2 0x23B3 JUMP JUMPDEST PUSH1 0x0 SLOAD PUSH1 0x1 PUSH1 0x1 PUSH1 0xA0 SHL SUB PUSH1 0x8 DUP3 SWAP1 SHR DUP2 AND SWAP2 SWAP1 CALLER DUP4 SWAP1 SUB PUSH2 0xED3 JUMPI DUP4 AND SWAP3 DUP4 ISZERO PUSH2 0x1A5D JUMPI PUSH2 0x100 PUSH1 0x1 PUSH1 0xA8 SHL SUB NOT SWAP1 SWAP2 AND PUSH1 0x8 SWAP2 SWAP1 SWAP2 SHL PUSH2 0x100 PUSH1 0x1 PUSH1 0xA8 SHL SUB AND OR PUSH1 0x0 SWAP1 DUP2 SSTORE PUSH32 0x51C4874E0F23F262E04A38C51751336DDE72126D67F53EB672AAFF02996B3EF6 SWAP1 DUP1 LOG3 STOP JUMPDEST PUSH1 0x40 MLOAD PUSH3 0x461BCD PUSH1 0xE5 SHL DUP2 MSTORE PUSH1 0x20 PUSH1 0x4 DUP3 ADD MSTORE PUSH1 0x16 PUSH1 0x24 DUP3 ADD MSTORE PUSH22 0x496E76616C6964207061757365722061646472657373 PUSH1 0x50 SHL PUSH1 0x44 DUP3 ADD MSTORE PUSH1 0x64 SWAP1 REVERT JUMPDEST CALLVALUE PUSH2 0x253 JUMPI PUSH1 0x0 CALLDATASIZE PUSH1 0x3 NOT ADD SLT PUSH2 0x253 JUMPI PUSH1 0x0 SLOAD PUSH1 0x8 DUP2 SWAP1 SHR PUSH1 0x1 PUSH1 0x1 PUSH1 0xA0 SHL SUB AND CALLER SUB PUSH2 0xED3 JUMPI PUSH1 0xFF DUP2 AND ISZERO PUSH2 0x1AFF JUMPI PUSH1 0xFF NOT AND PUSH1 0x0 SSTORE PUSH32 0x5DB9EE0A495BF2E6FF9C91A7834C1BA4FDD244A5E8AA4E537BD38AEAE4B073AA PUSH1 0x20 PUSH1 0x40 MLOAD CALLER DUP2 MSTORE LOG1 STOP JUMPDEST PUSH1 0x40 MLOAD PUSH4 0xDCDDE9DD PUSH1 0xE0 SHL DUP2 MSTORE PUSH1 0x4 SWAP1 REVERT JUMPDEST CALLVALUE PUSH2 0x253 JUMPI PUSH1 0x80 CALLDATASIZE PUSH1 0x3 NOT ADD SLT PUSH2 0x253 JUMPI PUSH1 0x1 PUSH1 0x1 PUSH1 0xA0 SHL SUB PUSH2 0x1B32 PUSH2 0x23B3 JUMP JUMPDEST AND DUP1 PUSH1 0x0 MSTORE PUSH1 0x1 PUSH1 0x20 MSTORE PUSH1 0xFF PUSH1 0x5 PUSH1 0x40 PUSH1 0x0 KECCAK256 ADD SLOAD AND ISZERO PUSH2 0x1C1E JUMPI DUP1 PUSH1 0x0 MSTORE PUSH1 0x1 PUSH1 0x20 MSTORE PUSH1 0x40 PUSH1 0x0 KECCAK256 PUSH1 0x8 DUP2 ADD SWAP1 PUSH2 0x1B6D PUSH1 0x24 CALLDATALOAD DUP4 SLOAD PUSH2 0x2810 JUMP JUMPDEST DUP1 SWAP3 SSTORE PUSH1 0x9 DUP2 ADD SWAP2 PUSH2 0x1B82 PUSH1 0x44 CALLDATALOAD DUP5 SLOAD PUSH2 0x2810 JUMP JUMPDEST DUP1 SWAP4 SSTORE PUSH1 0xA DUP3 ADD PUSH2 0x1B96 PUSH1 0x64 CALLDATALOAD DUP3 SLOAD PUSH2 0x2810 JUMP JUMPDEST DUP1 SWAP2 SSTORE TIMESTAMP PUSH1 0x7 DUP5 ADD SSTORE PUSH1 0xA DUP3 MUL SWAP4 DUP3 DUP6 DIV PUSH1 0xA EQ DUP4 ISZERO OR ISZERO PUSH2 0xA64 JUMPI PUSH1 0x5 DUP2 MUL SWAP4 DUP2 DUP6 DIV PUSH1 0x5 EQ DUP3 ISZERO OR ISZERO PUSH2 0xA64 JUMPI PUSH1 0x4 PUSH2 0x1C08 PUSH2 0x1BF7 PUSH1 0x60 SWAP8 PUSH32 0xAC3C2BEB7724A927C9EFCB9AA36D9CC3215467AD97652337EC58C5527BA70E53 SWAP10 PUSH2 0x2810 JUMP JUMPDEST PUSH8 0xDE0B6B3A7640000 DUP7 DIV SWAP1 PUSH2 0x2810 JUMP JUMPDEST SWAP2 ADD SSTORE PUSH1 0x40 MLOAD SWAP3 DUP4 MSTORE PUSH1 0x20 DUP4 ADD MSTORE PUSH1 0x40 DUP3 ADD MSTORE LOG2 STOP JUMPDEST PUSH1 0x40 MLOAD PUSH3 0x461BCD PUSH1 0xE5 SHL DUP2 MSTORE PUSH1 0x20 PUSH1 0x4 DUP3 ADD MSTORE PUSH1 0x10 PUSH1 0x24 DUP3 ADD MSTORE PUSH16 0x4167656E74206E6F7420616374697665 PUSH1 0x80 SHL PUSH1 0x44 DUP3 ADD MSTORE PUSH1 0x64 SWAP1 REVERT JUMPDEST CALLVALUE PUSH2 0x253 JUMPI PUSH1 0x0 CALLDATASIZE PUSH1 0x3 NOT ADD SLT PUSH2 0x253 JUMPI PUSH1 0x20 PUSH1 0x6 SLOAD PUSH1 0x40 MLOAD SWAP1 DUP2 MSTORE RETURN JUMPDEST CALLVALUE PUSH2 0x253 JUMPI PUSH1 0x20 CALLDATASIZE PUSH1 0x3 NOT ADD SLT PUSH2 0x253 JUMPI PUSH1 0x4 CALLDATALOAD PUSH1 0x1 PUSH1 0x1 PUSH1 0x40 SHL SUB DUP2 GT PUSH2 0x253 JUMPI PUSH2 0x1CBD PUSH1 0x20 PUSH2 0x1CAA DUP2 SWAP4 CALLDATASIZE SWAP1 PUSH1 0x4 ADD PUSH2 0x2372 JUMP JUMPDEST DUP2 PUSH1 0x40 MLOAD SWAP4 DUP3 DUP6 DUP1 SWAP5 MLOAD SWAP4 DUP5 SWAP3 ADD PUSH2 0x2390 JUMP JUMPDEST DUP2 ADD PUSH1 0x4 DUP2 MSTORE SUB ADD SWAP1 KECCAK256 SLOAD PUSH1 0x40 MLOAD SWAP1 DUP2 MSTORE RETURN JUMPDEST CALLVALUE PUSH2 0x253 JUMPI PUSH1 0x0 CALLDATASIZE PUSH1 0x3 NOT ADD SLT PUSH2 0x253 JUMPI PUSH1 0x20 PUSH1 0x9 SLOAD PUSH1 0x40 MLOAD SWAP1 DUP2 MSTORE RETURN JUMPDEST CALLVALUE PUSH2 0x253 JUMPI PUSH1 0x0 CALLDATASIZE PUSH1 0x3 NOT ADD SLT PUSH2 0x253 JUMPI PUSH1 0x20 PUSH1 0x40 MLOAD PUSH1 0xA DUP2 MSTORE RETURN JUMPDEST CALLVALUE PUSH2 0x253 JUMPI PUSH2 0x1D18 CALLDATASIZE PUSH2 0x2266 JUMP JUMPDEST SWAP2 SWAP1 CALLER PUSH1 0x0 MSTORE PUSH1 0x1 PUSH1 0x20 MSTORE PUSH2 0x1D37 PUSH1 0xFF PUSH1 0x5 PUSH1 0x40 PUSH1 0x0 KECCAK256 ADD SLOAD AND PUSH2 0x27D3 JUMP JUMPDEST PUSH1 0x0 JUMPDEST DUP4 DUP2 LT PUSH2 0x21FB JUMPI POP CALLER PUSH1 0x0 MSTORE PUSH1 0x1 PUSH1 0x20 MSTORE PUSH1 0x40 PUSH1 0x0 KECCAK256 PUSH1 0x0 SWAP5 PUSH1 0x2 DUP3 ADD SWAP1 JUMPDEST DUP2 SLOAD DUP8 LT ISZERO PUSH2 0x1E9B JUMPI PUSH2 0x1D6C DUP8 DUP4 PUSH2 0x2575 JUMP JUMPDEST SWAP1 SLOAD SWAP1 PUSH1 0x3 SHL SHR SWAP5 DUP6 PUSH1 0x0 MSTORE PUSH1 0x3 PUSH1 0x20 MSTORE PUSH1 0x40 PUSH1 0x0 KECCAK256 SWAP7 PUSH1 0x0 JUMPDEST DUP9 SLOAD DUP1 DUP3 LT ISZERO PUSH2 0x1E87 JUMPI PUSH2 0x1D9A DUP3 DUP12 PUSH2 0x2575 JUMP JUMPDEST SWAP1 SLOAD PUSH1 0x1 PUSH1 0x1 PUSH1 0xA0 SHL SUB SWAP3 SWAP2 PUSH1 0x3 SHL SHR DUP3 AND CALLER EQ PUSH2 0x1DC2 JUMPI POP POP PUSH2 0x1DBD SWAP1 PUSH2 0x25C1 JUMP JUMPDEST PUSH2 0x1D86 JUMP JUMPDEST SWAP1 SWAP3 SWAP7 SWAP11 SWAP5 SWAP9 SWAP4 SWAP8 SWAP6 SWAP10 SWAP2 PUSH1 0x0 NOT DUP3 ADD SWAP2 DUP3 GT PUSH2 0xA64 JUMPI PUSH2 0x1DF9 DUP5 PUSH2 0x1DEA PUSH2 0x1E18 SWAP5 DUP7 PUSH2 0x2575 JUMP JUMPDEST SWAP1 SLOAD SWAP1 PUSH1 0x3 SHL SHR AND SWAP2 DUP5 PUSH2 0x2575 JUMP JUMPDEST SWAP1 SWAP2 SWAP1 DUP3 SLOAD SWAP1 PUSH1 0x3 SHL SWAP2 PUSH1 0x1 DUP1 PUSH1 0xA0 SHL SUB DUP1 SWAP2 AND DUP4 SHL SWAP3 SHL NOT AND OR SWAP1 SSTORE JUMP JUMPDEST DUP1 SLOAD DUP1 ISZERO PUSH2 0x1E71 JUMPI PUSH1 0x0 NOT ADD SWAP2 PUSH2 0x1E2F DUP4 DUP4 PUSH2 0x2575 JUMP JUMPDEST SWAP1 SWAP2 DUP3 SLOAD SWAP2 PUSH1 0x3 SHL SHL NOT AND SWAP1 SSTORE SSTORE PUSH1 0x0 MSTORE PUSH1 0x2 PUSH1 0x20 MSTORE PUSH1 0x3 PUSH1 0x40 PUSH1 0x0 KECCAK256 ADD SWAP1 DUP2 SLOAD SWAP2 DUP3 ISZERO PUSH2 0xA64 JUMPI PUSH2 0x1E66 SWAP3 PUSH1 0x0 NOT ADD SWAP1 SSTORE PUSH2 0x25C1 JUMP JUMPDEST SWAP6 SWAP2 SWAP5 SWAP1 SWAP3 SWAP4 PUSH2 0x1D59 JUMP JUMPDEST PUSH4 0x4E487B71 PUSH1 0xE0 SHL PUSH1 0x0 MSTORE PUSH1 0x31 PUSH1 0x4 MSTORE PUSH1 0x24 PUSH1 0x0 REVERT JUMPDEST POP POP SWAP4 SWAP8 SWAP1 SWAP5 SWAP3 SWAP7 POP PUSH2 0x1E66 SWAP2 SWAP6 POP PUSH2 0x25C1 JUMP JUMPDEST SWAP5 SWAP3 SWAP2 SWAP1 PUSH2 0x1EA8 DUP5 PUSH2 0x2666 JUMP JUMPDEST SWAP1 PUSH1 0x0 JUMPDEST DUP6 DUP2 LT PUSH2 0x218A JUMPI POP PUSH1 0x1 PUSH1 0x1 PUSH1 0x40 SHL SUB DUP7 GT PUSH2 0x778 JUMPI PUSH1 0x1 DUP4 ADD PUSH2 0x1EDA DUP8 PUSH2 0x1ED4 DUP4 SLOAD PUSH2 0x23C9 JUMP JUMPDEST DUP4 PUSH2 0x26FE JUMP JUMPDEST DUP7 PUSH1 0x0 PUSH1 0x1F DUP3 GT PUSH1 0x1 EQ PUSH2 0x2123 JUMPI PUSH1 0x0 SWAP2 PUSH2 0x2118 JUMPI JUMPDEST POP DUP8 PUSH1 0x1 SHL SWAP1 PUSH1 0x0 NOT DUP10 PUSH1 0x3 SHL SHR NOT AND OR SWAP1 SSTORE JUMPDEST PUSH1 0x1 PUSH1 0x1 PUSH1 0x40 SHL SUB DUP6 GT PUSH2 0x778 JUMPI PUSH2 0x1F1C DUP6 DUP3 PUSH2 0x2743 JUMP JUMPDEST DUP4 SWAP1 PUSH1 0x0 MSTORE PUSH1 0x20 PUSH1 0x0 KECCAK256 SWAP1 PUSH1 0x0 JUMPDEST DUP7 DUP2 LT PUSH2 0x2104 JUMPI POP POP POP DUP1 MLOAD SWAP1 PUSH1 0x1 PUSH1 0x40 SHL DUP3 GT PUSH2 0x778 JUMPI PUSH1 0x3 DUP4 ADD SLOAD DUP3 PUSH1 0x3 DUP6 ADD SSTORE DUP1 DUP4 LT PUSH2 0x208C JUMPI JUMPDEST POP PUSH1 0x20 ADD SWAP1 PUSH1 0x3 DUP4 ADD PUSH1 0x0 MSTORE PUSH1 0x20 PUSH1 0x0 KECCAK256 SWAP2 PUSH1 0x0 SWAP1 JUMPDEST DUP3 DUP3 LT PUSH2 0x1FB1 JUMPI DUP8 PUSH32 0x4343B17CBAD9B3255BE7285FE10F12EE275FA867FAD18AB3297AC8456CC99F7C DUP9 DUP9 PUSH2 0x6D4 DUP14 DUP11 PUSH1 0x7 TIMESTAMP SWAP2 ADD SSTORE PUSH1 0x40 MLOAD SWAP4 DUP5 SWAP4 CALLER SWAP8 TIMESTAMP SWAP4 DUP7 PUSH2 0x2777 JUMP JUMPDEST DUP1 MLOAD DUP1 MLOAD SWAP1 PUSH1 0x1 PUSH1 0x1 PUSH1 0x40 SHL SUB DUP3 GT PUSH2 0x778 JUMPI PUSH2 0x1FD2 DUP3 PUSH2 0x1284 DUP9 SLOAD PUSH2 0x23C9 JUMP JUMPDEST PUSH1 0x20 SWAP1 PUSH1 0x1F DUP4 GT PUSH1 0x1 EQ PUSH2 0x201E JUMPI SWAP3 DUP3 PUSH1 0x1 SWAP5 SWAP4 PUSH1 0x20 SWAP4 DUP7 SWAP6 PUSH1 0x0 SWAP3 PUSH2 0x2013 JUMPI JUMPDEST POP POP PUSH1 0x0 NOT PUSH1 0x3 DUP4 SWAP1 SHL SHR NOT AND SWAP1 DUP5 SHL OR DUP8 SSTORE JUMPDEST ADD SWAP5 ADD SWAP2 ADD SWAP1 SWAP3 PUSH2 0x1F6B JUMP JUMPDEST ADD MLOAD SWAP1 POP DUP15 DUP1 PUSH2 0x1FF3 JUMP JUMPDEST SWAP1 PUSH1 0x1F NOT DUP4 AND SWAP2 DUP8 PUSH1 0x0 MSTORE PUSH1 0x20 PUSH1 0x0 KECCAK256 SWAP3 PUSH1 0x0 JUMPDEST DUP2 DUP2 LT PUSH2 0x2074 JUMPI POP SWAP4 PUSH1 0x20 SWAP4 PUSH1 0x1 SWAP7 SWAP4 DUP8 SWAP7 SWAP4 DUP4 DUP9 SWAP6 LT PUSH2 0x205B JUMPI JUMPDEST POP POP POP DUP2 SHL ADD DUP8 SSTORE PUSH2 0x2007 JUMP JUMPDEST ADD MLOAD PUSH1 0x0 NOT PUSH1 0xF8 DUP5 PUSH1 0x3 SHL AND SHR NOT AND SWAP1 SSTORE DUP15 DUP1 DUP1 PUSH2 0x204E JUMP JUMPDEST SWAP3 SWAP4 PUSH1 0x20 PUSH1 0x1 DUP2 SWAP3 DUP8 DUP7 ADD MLOAD DUP2 SSTORE ADD SWAP6 ADD SWAP4 ADD PUSH2 0x2032 JUMP JUMPDEST PUSH1 0x3 DUP5 ADD PUSH1 0x0 MSTORE PUSH1 0x20 PUSH1 0x0 KECCAK256 SWAP1 DUP4 DUP3 ADD JUMPDEST DUP2 DUP4 ADD DUP2 LT PUSH2 0x20AD JUMPI POP POP PUSH2 0x1F55 JUMP JUMPDEST DUP1 PUSH2 0x20BA PUSH1 0x1 SWAP3 SLOAD PUSH2 0x23C9 JUMP JUMPDEST DUP1 PUSH2 0x20C7 JUMPI JUMPDEST POP ADD PUSH2 0x209D JUMP JUMPDEST PUSH1 0x1F DUP2 GT DUP4 EQ PUSH2 0x20DD JUMPI POP PUSH1 0x0 DUP2 SSTORE JUMPDEST DUP12 PUSH2 0x20C0 JUMP JUMPDEST PUSH1 0x0 SWAP1 DUP3 DUP3 MSTORE PUSH2 0x20FB PUSH1 0x1F PUSH1 0x20 DUP5 KECCAK256 SWAP3 ADD PUSH1 0x5 SHR DUP3 ADD DUP6 DUP4 ADD PUSH2 0x26E7 JUMP JUMPDEST DUP2 DUP4 SSTORE SSTORE PUSH2 0x20D7 JUMP JUMPDEST PUSH1 0x1 SWAP1 PUSH1 0x20 DUP4 CALLDATALOAD SWAP4 ADD SWAP3 DUP2 DUP6 ADD SSTORE ADD PUSH2 0x1F2A JUMP JUMPDEST SWAP1 POP DUP9 ADD CALLDATALOAD DUP10 PUSH2 0x1EF0 JUMP JUMPDEST PUSH1 0x0 DUP4 DUP2 MSTORE PUSH1 0x20 DUP2 KECCAK256 SWAP3 POP JUMPDEST DUP11 PUSH1 0x1F NOT DUP12 AND DUP3 LT PUSH2 0x2172 JUMPI POP POP DUP9 PUSH1 0x1F NOT DUP2 AND LT PUSH2 0x2158 JUMPI JUMPDEST POP POP PUSH1 0x1 DUP8 DUP2 SHL ADD SWAP1 SSTORE PUSH2 0x1F04 JUMP JUMPDEST DUP10 ADD CALLDATALOAD PUSH1 0x0 NOT PUSH1 0x3 DUP11 SWAP1 SHL PUSH1 0xF8 AND SHR NOT AND SWAP1 SSTORE DUP9 DUP1 PUSH2 0x2149 JUMP JUMPDEST PUSH1 0x1 DUP4 SWAP5 PUSH1 0x20 SWAP4 SWAP5 DUP5 SWAP4 ADD CALLDATALOAD DUP2 SSTORE ADD SWAP4 ADD SWAP2 ADD PUSH2 0x212F JUMP JUMPDEST DUP1 PUSH2 0x2199 PUSH2 0x21F6 SWAP3 DUP9 DUP9 PUSH2 0x25D0 JUMP JUMPDEST CALLDATALOAD PUSH1 0x0 MSTORE PUSH1 0x2 PUSH1 0x20 MSTORE PUSH2 0x21B2 PUSH1 0x1 PUSH1 0x40 PUSH1 0x0 KECCAK256 ADD PUSH2 0x2403 JUMP JUMPDEST PUSH2 0x21BC DUP3 DUP7 PUSH2 0x26B0 JUMP JUMPDEST MSTORE PUSH2 0x21C7 DUP2 DUP6 PUSH2 0x26B0 JUMP JUMPDEST POP PUSH2 0x21D3 DUP2 DUP9 DUP9 PUSH2 0x25D0 JUMP JUMPDEST CALLDATALOAD PUSH1 0x0 MSTORE PUSH1 0x3 DUP1 PUSH1 0x20 MSTORE PUSH2 0x21EB CALLER PUSH1 0x40 PUSH1 0x0 KECCAK256 PUSH2 0x26C4 JUMP JUMPDEST PUSH2 0x14CB DUP3 DUP10 DUP10 PUSH2 0x25D0 JUMP JUMPDEST PUSH2 0x1EAC JUMP JUMPDEST DUP1 PUSH2 0x220D PUSH2 0x221E SWAP3 DUP7 DUP6 SWAP9 SWAP7 SWAP6 PUSH2 0x25D0 JUMP JUMPDEST CALLDATALOAD ISZERO ISZERO DUP1 PUSH2 0x2227 JUMPI PUSH2 0x16CF SWAP1 PUSH2 0x25E0 JUMP JUMPDEST SWAP4 SWAP1 SWAP2 SWAP4 PUSH2 0x1D3A JUMP JUMPDEST POP PUSH2 0x16CF PUSH2 0x16E8 DUP3 DUP8 DUP10 PUSH2 0x25D0 JUMP JUMPDEST SWAP2 DUP2 PUSH1 0x1F DUP5 ADD SLT ISZERO PUSH2 0x253 JUMPI DUP3 CALLDATALOAD SWAP2 PUSH1 0x1 PUSH1 0x1 PUSH1 0x40 SHL SUB DUP4 GT PUSH2 0x253 JUMPI PUSH1 0x20 DUP1 DUP6 ADD SWAP5 DUP5 PUSH1 0x5 SHL ADD ADD GT PUSH2 0x253 JUMPI JUMP JUMPDEST PUSH1 0x40 PUSH1 0x3 NOT DUP3 ADD SLT PUSH2 0x253 JUMPI PUSH1 0x4 CALLDATALOAD SWAP2 PUSH1 0x1 PUSH1 0x1 PUSH1 0x40 SHL SUB DUP1 DUP5 GT PUSH2 0x253 JUMPI DUP3 PUSH1 0x23 DUP6 ADD SLT ISZERO PUSH2 0x253 JUMPI DUP4 PUSH1 0x4 ADD CALLDATALOAD SWAP4 DUP2 DUP6 GT PUSH2 0x253 JUMPI DUP4 PUSH1 0x24 DUP7 DUP4 ADD ADD GT PUSH2 0x253 JUMPI PUSH1 0x24 ADD SWAP4 SWAP3 PUSH1 0x24 CALLDATALOAD SWAP2 DUP3 GT PUSH2 0x253 JUMPI PUSH2 0x22C4 SWAP2 PUSH1 0x4 ADD PUSH2 0x2236 JUMP JUMPDEST SWAP1 SWAP2 JUMP JUMPDEST PUSH2 0x160 DUP2 ADD SWAP1 DUP2 LT PUSH1 0x1 PUSH1 0x1 PUSH1 0x40 SHL SUB DUP3 GT OR PUSH2 0x778 JUMPI PUSH1 0x40 MSTORE JUMP JUMPDEST PUSH1 0x80 DUP2 ADD SWAP1 DUP2 LT PUSH1 0x1 PUSH1 0x1 PUSH1 0x40 SHL SUB DUP3 GT OR PUSH2 0x778 JUMPI PUSH1 0x40 MSTORE JUMP JUMPDEST SWAP1 PUSH1 0x1F DUP1 NOT SWAP2 ADD AND DUP2 ADD SWAP1 DUP2 LT PUSH1 0x1 PUSH1 0x1 PUSH1 0x40 SHL SUB DUP3 GT OR PUSH2 0x778 JUMPI PUSH1 0x40 MSTORE JUMP JUMPDEST PUSH1 0x1 PUSH1 0x1 PUSH1 0x40 SHL SUB DUP2 GT PUSH2 0x778 JUMPI PUSH1 0x1F ADD PUSH1 0x1F NOT AND PUSH1 0x20 ADD SWAP1 JUMP JUMPDEST SWAP3 SWAP2 SWAP3 PUSH2 0x2347 DUP3 PUSH2 0x2320 JUMP JUMPDEST SWAP2 PUSH2 0x2355 PUSH1 0x40 MLOAD SWAP4 DUP5 PUSH2 0x22FF JUMP JUMPDEST DUP3 SWAP5 DUP2 DUP5 MSTORE DUP2 DUP4 ADD GT PUSH2 0x253 JUMPI DUP3 DUP2 PUSH1 0x20 SWAP4 DUP5 PUSH1 0x0 SWAP7 ADD CALLDATACOPY ADD ADD MSTORE JUMP JUMPDEST SWAP1 DUP1 PUSH1 0x1F DUP4 ADD SLT ISZERO PUSH2 0x253 JUMPI DUP2 PUSH1 0x20 PUSH2 0x238D SWAP4 CALLDATALOAD SWAP2 ADD PUSH2 0x233B JUMP JUMPDEST SWAP1 JUMP JUMPDEST PUSH1 0x0 JUMPDEST DUP4 DUP2 LT PUSH2 0x23A3 JUMPI POP POP PUSH1 0x0 SWAP2 ADD MSTORE JUMP JUMPDEST DUP2 DUP2 ADD MLOAD DUP4 DUP3 ADD MSTORE PUSH1 0x20 ADD PUSH2 0x2393 JUMP JUMPDEST PUSH1 0x4 CALLDATALOAD SWAP1 PUSH1 0x1 PUSH1 0x1 PUSH1 0xA0 SHL SUB DUP3 AND DUP3 SUB PUSH2 0x253 JUMPI JUMP JUMPDEST SWAP1 PUSH1 0x1 DUP3 DUP2 SHR SWAP3 AND DUP1 ISZERO PUSH2 0x23F9 JUMPI JUMPDEST PUSH1 0x20 DUP4 LT EQ PUSH2 0x23E3 JUMPI JUMP JUMPDEST PUSH4 0x4E487B71 PUSH1 0xE0 SHL PUSH1 0x0 MSTORE PUSH1 0x22 PUSH1 0x4 MSTORE PUSH1 0x24 PUSH1 0x0 REVERT JUMPDEST SWAP2 PUSH1 0x7F AND SWAP2 PUSH2 0x23D8 JUMP JUMPDEST SWAP1 PUSH1 0x40 MLOAD SWAP2 DUP3 PUSH1 0x0 DUP3 SLOAD SWAP3 PUSH2 0x2417 DUP5 PUSH2 0x23C9 JUMP JUMPDEST SWAP1 DUP2 DUP5 MSTORE PUSH1 0x1 SWAP5 DUP6 DUP2 AND SWAP1 DUP2 PUSH1 0x0 EQ PUSH2 0x2486 JUMPI POP PUSH1 0x1 EQ PUSH2 0x2443 JUMPI JUMPDEST POP POP PUSH2 0x2441 SWAP3 POP SUB DUP4 PUSH2 0x22FF JUMP JUMPDEST JUMP JUMPDEST SWAP1 SWAP4 SWAP2 POP PUSH1 0x0 MSTORE PUSH1 0x20 SWAP1 DUP2 PUSH1 0x0 KECCAK256 SWAP4 PUSH1 0x0 SWAP2 JUMPDEST DUP2 DUP4 LT PUSH2 0x246E JUMPI POP POP PUSH2 0x2441 SWAP4 POP DUP3 ADD ADD CODESIZE DUP1 PUSH2 0x2433 JUMP JUMPDEST DUP6 SLOAD DUP9 DUP5 ADD DUP6 ADD MSTORE SWAP5 DUP6 ADD SWAP5 DUP8 SWAP5 POP SWAP2 DUP4 ADD SWAP2 PUSH2 0x2456 JUMP JUMPDEST SWAP2 POP POP PUSH2 0x2441 SWAP5 POP PUSH1 0x20 SWAP3 POP PUSH1 0xFF NOT AND DUP3 DUP5 ADD MSTORE ISZERO ISZERO PUSH1 0x5 SHL DUP3 ADD ADD CODESIZE DUP1 PUSH2 0x2433 JUMP JUMPDEST SWAP1 PUSH1 0x20 SWAP2 PUSH2 0x24C2 DUP2 MLOAD DUP1 SWAP3 DUP2 DUP6 MSTORE DUP6 DUP1 DUP7 ADD SWAP2 ADD PUSH2 0x2390 JUMP JUMPDEST PUSH1 0x1F ADD PUSH1 0x1F NOT AND ADD ADD SWAP1 JUMP JUMPDEST PUSH1 0x40 SWAP1 PUSH1 0x3 NOT ADD SLT PUSH2 0x253 JUMPI PUSH1 0x4 CALLDATALOAD SWAP1 PUSH1 0x24 CALLDATALOAD SWAP1 JUMP JUMPDEST PUSH1 0x20 SWAP1 DUP2 PUSH1 0x40 DUP2 DUP4 ADD SWAP3 DUP3 DUP2 MSTORE DUP6 MLOAD DUP1 SWAP5 MSTORE ADD SWAP4 ADD SWAP2 PUSH1 0x0 JUMPDEST DUP3 DUP2 LT PUSH2 0x250B JUMPI POP POP POP POP SWAP1 JUMP JUMPDEST DUP4 MLOAD PUSH1 0x1 PUSH1 0x1 PUSH1 0xA0 SHL SUB AND DUP6 MSTORE SWAP4 DUP2 ADD SWAP4 SWAP3 DUP2 ADD SWAP3 PUSH1 0x1 ADD PUSH2 0x24FD JUMP JUMPDEST PUSH1 0x5 SLOAD DUP2 LT ISZERO PUSH2 0x255F JUMPI PUSH1 0x5 PUSH1 0x0 MSTORE PUSH32 0x36B6384B5ECA791C62761152D0C79BB0604C104A5FB6F4EB0703F3154BB3DB0 ADD SWAP1 PUSH1 0x0 SWAP1 JUMP JUMPDEST PUSH4 0x4E487B71 PUSH1 0xE0 SHL PUSH1 0x0 MSTORE PUSH1 0x32 PUSH1 0x4 MSTORE PUSH1 0x24 PUSH1 0x0 REVERT JUMPDEST DUP1 SLOAD DUP3 LT ISZERO PUSH2 0x255F JUMPI PUSH1 0x0 MSTORE PUSH1 0x20 PUSH1 0x0 KECCAK256 ADD SWAP1 PUSH1 0x0 SWAP1 JUMP JUMPDEST SWAP1 DUP2 MLOAD DUP1 DUP3 MSTORE PUSH1 0x20 DUP1 DUP1 SWAP4 ADD SWAP4 ADD SWAP2 PUSH1 0x0 JUMPDEST DUP3 DUP2 LT PUSH2 0x25AD JUMPI POP POP POP POP SWAP1 JUMP JUMPDEST DUP4 MLOAD DUP6 MSTORE SWAP4 DUP2 ADD SWAP4 SWAP3 DUP2 ADD SWAP3 PUSH1 0x1 ADD PUSH2 0x259F JUMP JUMPDEST PUSH1 0x0 NOT DUP2 EQ PUSH2 0xA64 JUMPI PUSH1 0x1 ADD SWAP1 JUMP JUMPDEST SWAP2 SWAP1 DUP2 LT ISZERO PUSH2 0x255F JUMPI PUSH1 0x5 SHL ADD SWAP1 JUMP JUMPDEST ISZERO PUSH2 0x25E7 JUMPI JUMP JUMPDEST PUSH1 0x40 MLOAD PUSH3 0x461BCD PUSH1 0xE5 SHL DUP2 MSTORE PUSH1 0x20 PUSH1 0x4 DUP3 ADD MSTORE PUSH1 0x10 PUSH1 0x24 DUP3 ADD MSTORE PUSH16 0x125B9D985B1A59081CDADA5B1B081251 PUSH1 0x82 SHL PUSH1 0x44 DUP3 ADD MSTORE PUSH1 0x64 SWAP1 REVERT JUMPDEST RETURNDATASIZE ISZERO PUSH2 0x264A JUMPI RETURNDATASIZE SWAP1 PUSH2 0x2630 DUP3 PUSH2 0x2320 JUMP JUMPDEST SWAP2 PUSH2 0x263E PUSH1 0x40 MLOAD SWAP4 DUP5 PUSH2 0x22FF JUMP JUMPDEST DUP3 MSTORE RETURNDATASIZE PUSH1 0x0 PUSH1 0x20 DUP5 ADD RETURNDATACOPY JUMP JUMPDEST PUSH1 0x60 SWAP1 JUMP JUMPDEST PUSH1 0x1 PUSH1 0x1 PUSH1 0x40 SHL SUB DUP2 GT PUSH2 0x778 JUMPI PUSH1 0x5 SHL PUSH1 0x20 ADD SWAP1 JUMP JUMPDEST SWAP1 PUSH2 0x2670 DUP3 PUSH2 0x264F JUMP JUMPDEST PUSH2 0x267D PUSH1 0x40 MLOAD SWAP2 DUP3 PUSH2 0x22FF JUMP JUMPDEST DUP3 DUP2 MSTORE DUP1 SWAP3 PUSH2 0x268E PUSH1 0x1F NOT SWAP2 PUSH2 0x264F JUMP JUMPDEST ADD SWAP1 PUSH1 0x0 JUMPDEST DUP3 DUP2 LT PUSH2 0x269F JUMPI POP POP POP JUMP JUMPDEST DUP1 PUSH1 0x60 PUSH1 0x20 DUP1 SWAP4 DUP6 ADD ADD MSTORE ADD PUSH2 0x2693 JUMP JUMPDEST DUP1 MLOAD DUP3 LT ISZERO PUSH2 0x255F JUMPI PUSH1 0x20 SWAP2 PUSH1 0x5 SHL ADD ADD SWAP1 JUMP JUMPDEST SWAP1 DUP2 SLOAD SWAP2 PUSH1 0x1 PUSH1 0x40 SHL DUP4 LT ISZERO PUSH2 0x778 JUMPI DUP3 PUSH2 0x1DF9 SWAP2 PUSH1 0x1 PUSH2 0x2441 SWAP6 ADD DUP2 SSTORE PUSH2 0x2575 JUMP JUMPDEST DUP2 DUP2 LT PUSH2 0x26F2 JUMPI POP POP JUMP JUMPDEST PUSH1 0x0 DUP2 SSTORE PUSH1 0x1 ADD PUSH2 0x26E7 JUMP JUMPDEST SWAP2 SWAP1 PUSH1 0x1F DUP2 GT PUSH2 0x270D JUMPI POP POP POP JUMP JUMPDEST PUSH2 0x2441 SWAP3 PUSH1 0x0 MSTORE PUSH1 0x20 PUSH1 0x0 KECCAK256 SWAP1 PUSH1 0x20 PUSH1 0x1F DUP5 ADD PUSH1 0x5 SHR DUP4 ADD SWAP4 LT PUSH2 0x2739 JUMPI JUMPDEST PUSH1 0x1F ADD PUSH1 0x5 SHR ADD SWAP1 PUSH2 0x26E7 JUMP JUMPDEST SWAP1 SWAP2 POP DUP2 SWAP1 PUSH2 0x272C JUMP JUMPDEST SWAP1 PUSH1 0x1 PUSH1 0x40 SHL DUP2 GT PUSH2 0x778 JUMPI DUP2 SLOAD SWAP1 DUP1 DUP4 SSTORE DUP2 DUP2 LT PUSH2 0x2761 JUMPI POP POP POP JUMP JUMPDEST PUSH2 0x2441 SWAP3 PUSH1 0x0 MSTORE PUSH1 0x20 PUSH1 0x0 KECCAK256 SWAP2 DUP3 ADD SWAP2 ADD PUSH2 0x26E7 JUMP JUMPDEST SWAP6 SWAP5 SWAP4 SWAP2 DUP1 SWAP2 PUSH1 0x60 DUP9 MSTORE DUP2 PUSH1 0x60 DUP10 ADD MSTORE PUSH1 0x80 DUP9 ADD CALLDATACOPY PUSH1 0x0 PUSH1 0x80 DUP3 DUP9 ADD ADD MSTORE PUSH1 0x1F DUP1 NOT SWAP2 ADD AND DUP6 ADD SWAP2 PUSH1 0x80 DUP7 DUP5 SUB ADD PUSH1 0x20 DUP8 ADD MSTORE DUP2 PUSH1 0x80 DUP5 ADD MSTORE PUSH1 0x1 DUP1 PUSH1 0xFB SHL SUB DUP3 GT PUSH2 0x253 JUMPI PUSH1 0x40 SWAP3 PUSH1 0xA0 SWAP3 PUSH1 0x5 SHL DUP1 SWAP3 DUP5 DUP4 ADD CALLDATACOPY ADD ADD SWAP4 ADD MSTORE JUMP JUMPDEST ISZERO PUSH2 0x27DA JUMPI JUMP JUMPDEST PUSH1 0x40 MLOAD PUSH3 0x461BCD PUSH1 0xE5 SHL DUP2 MSTORE PUSH1 0x20 PUSH1 0x4 DUP3 ADD MSTORE PUSH1 0xE PUSH1 0x24 DUP3 ADD MSTORE PUSH14 0x139BDD081C9959DA5CDD195C9959 PUSH1 0x92 SHL PUSH1 0x44 DUP3 ADD MSTORE PUSH1 0x64 SWAP1 REVERT JUMPDEST SWAP2 SWAP1 DUP3 ADD DUP1 SWAP3 GT PUSH2 0xA64 JUMPI JUMP JUMPDEST SWAP1 PUSH2 0x2827 DUP3 PUSH2 0x264F JUMP JUMPDEST PUSH2 0x2834 PUSH1 0x40 MLOAD SWAP2 DUP3 PUSH2 0x22FF JUMP JUMPDEST DUP3 DUP2 MSTORE DUP1 SWAP3 PUSH2 0x2845 PUSH1 0x1F NOT SWAP2 PUSH2 0x264F JUMP JUMPDEST ADD SWAP1 PUSH1 0x20 CALLDATASIZE SWAP2 ADD CALLDATACOPY JUMP JUMPDEST SWAP2 SWAP1 DUP1 ISZERO PUSH2 0x29D1 JUMPI PUSH1 0x0 SWAP3 DUP1 CALLDATALOAD DUP5 MSTORE PUSH1 0x20 SWAP4 PUSH1 0x3 DUP6 MSTORE PUSH1 0x40 SWAP3 DUP4 DUP3 KECCAK256 SWAP1 DUP5 MLOAD DUP1 DUP4 DUP10 DUP3 SWAP6 SLOAD SWAP4 DUP5 DUP2 MSTORE ADD SWAP1 DUP7 MSTORE DUP10 DUP7 KECCAK256 SWAP3 DUP7 JUMPDEST DUP12 DUP3 DUP3 LT PUSH2 0x29B2 JUMPI POP POP POP PUSH2 0x2899 SWAP3 POP SUB DUP4 PUSH2 0x22FF JUMP JUMPDEST PUSH2 0x28A3 DUP3 MLOAD PUSH2 0x281D JUMP JUMPDEST SWAP3 DUP1 SWAP5 DUP2 JUMPDEST DUP5 MLOAD DUP2 LT ISZERO PUSH2 0x296A JUMPI PUSH1 0x1 PUSH1 0x1 PUSH1 0xA0 SHL SUB DUP1 PUSH2 0x28C4 DUP4 DUP9 PUSH2 0x26B0 JUMP JUMPDEST MLOAD AND DUP5 MSTORE PUSH1 0x1 DUP1 DUP13 MSTORE PUSH1 0xFF PUSH1 0x5 DUP12 DUP8 KECCAK256 ADD SLOAD AND ISZERO PUSH2 0x295F JUMPI DUP1 JUMPDEST DUP7 DUP2 LT PUSH2 0x2921 JUMPI JUMPDEST POP PUSH2 0x28FB JUMPI JUMPDEST POP PUSH2 0x28F6 SWAP1 PUSH2 0x25C1 JUMP JUMPDEST PUSH2 0x28A8 JUMP JUMPDEST DUP2 SWAP8 PUSH2 0x291A SWAP2 PUSH2 0x290E PUSH2 0x28F6 SWAP5 DUP10 PUSH2 0x26B0 JUMP JUMPDEST MLOAD AND PUSH2 0xD94 DUP3 DUP11 PUSH2 0x26B0 JUMP JUMPDEST SWAP7 SWAP1 PUSH2 0x28EC JUMP JUMPDEST PUSH2 0x2943 DUP4 PUSH2 0x292F DUP7 DUP12 PUSH2 0x26B0 JUMP JUMPDEST MLOAD AND PUSH2 0x293C DUP4 DUP11 DUP10 PUSH2 0x25D0 JUMP JUMPDEST CALLDATALOAD SWAP1 PUSH2 0x2A83 JUMP JUMPDEST ISZERO PUSH2 0x2956 JUMPI PUSH2 0x2951 SWAP1 PUSH2 0x25C1 JUMP JUMPDEST PUSH2 0x28DE JUMP JUMPDEST POP POP DUP4 CODESIZE PUSH2 0x28E6 JUMP JUMPDEST POP POP PUSH2 0x28F6 SWAP1 PUSH2 0x25C1 JUMP JUMPDEST POP POP SWAP5 POP POP POP SWAP4 POP PUSH2 0x297B DUP2 PUSH2 0x281D JUMP JUMPDEST SWAP2 JUMPDEST DUP2 DUP2 LT PUSH2 0x298B JUMPI POP SWAP1 SWAP3 POP POP JUMP JUMPDEST PUSH2 0x29AD SWAP1 PUSH1 0x1 PUSH1 0x1 PUSH1 0xA0 SHL SUB PUSH2 0x29A1 DUP3 DUP9 PUSH2 0x26B0 JUMP JUMPDEST MLOAD AND PUSH2 0xD94 DUP3 DUP7 PUSH2 0x26B0 JUMP JUMPDEST PUSH2 0x297D JUMP JUMPDEST DUP6 SLOAD PUSH1 0x1 PUSH1 0x1 PUSH1 0xA0 SHL SUB AND DUP5 MSTORE PUSH1 0x1 SWAP6 DUP7 ADD SWAP6 DUP9 SWAP6 POP SWAP4 ADD SWAP3 ADD PUSH2 0x2882 JUMP JUMPDEST POP SWAP1 POP PUSH1 0x40 MLOAD PUSH1 0x20 DUP2 ADD DUP2 DUP2 LT PUSH1 0x1 PUSH1 0x1 PUSH1 0x40 SHL SUB DUP3 GT OR PUSH2 0x778 JUMPI PUSH1 0x40 MSTORE PUSH1 0x0 DUP2 MSTORE PUSH1 0x0 CALLDATASIZE DUP2 CALLDATACOPY SWAP1 JUMP JUMPDEST ISZERO PUSH2 0x2A03 JUMPI JUMP JUMPDEST PUSH1 0x40 MLOAD PUSH3 0x461BCD PUSH1 0xE5 SHL DUP2 MSTORE PUSH1 0x20 PUSH1 0x4 DUP3 ADD MSTORE PUSH1 0x9 PUSH1 0x24 DUP3 ADD MSTORE PUSH9 0x2737BA1037BBB732B9 PUSH1 0xB9 SHL PUSH1 0x44 DUP3 ADD MSTORE PUSH1 0x64 SWAP1 REVERT JUMPDEST SWAP1 PUSH1 0x40 MLOAD SWAP2 DUP3 DUP2 SLOAD SWAP2 DUP3 DUP3 MSTORE PUSH1 0x20 SWAP3 DUP4 DUP4 ADD SWAP2 PUSH1 0x0 MSTORE DUP4 PUSH1 0x0 KECCAK256 SWAP4 PUSH1 0x0 SWAP1 JUMPDEST DUP3 DUP3 LT PUSH2 0x2A69 JUMPI POP POP POP PUSH2 0x2441 SWAP3 POP SUB DUP4 PUSH2 0x22FF JUMP JUMPDEST DUP6 SLOAD DUP5 MSTORE PUSH1 0x1 SWAP6 DUP7 ADD SWAP6 DUP9 SWAP6 POP SWAP4 DUP2 ADD SWAP4 SWAP1 SWAP2 ADD SWAP1 PUSH2 0x2A53 JUMP JUMPDEST PUSH1 0x1 PUSH1 0x1 PUSH1 0xA0 SHL SUB AND PUSH1 0x0 SWAP1 DUP2 MSTORE PUSH1 0x1 PUSH1 0x20 DUP2 SWAP1 MSTORE PUSH1 0x40 DUP3 KECCAK256 PUSH1 0x2 ADD DUP1 SLOAD SWAP4 SWAP2 SWAP3 JUMPDEST DUP5 DUP2 LT PUSH2 0x2AB6 JUMPI POP POP POP POP POP PUSH1 0x0 SWAP1 JUMP JUMPDEST DUP3 PUSH2 0x2AC1 DUP3 DUP5 PUSH2 0x2575 JUMP JUMPDEST SWAP1 SLOAD SWAP1 PUSH1 0x3 SHL SHR EQ PUSH2 0x2ADB JUMPI PUSH2 0x2AD6 SWAP1 PUSH2 0x25C1 JUMP JUMPDEST PUSH2 0x2AA5 JUMP JUMPDEST POP POP POP SWAP1 POP SWAP1 JUMP INVALID LOG2 PUSH5 0x6970667358 0x22 SLT KECCAK256 DUP2 0xB0 0xB5 GASLIMIT 0xD6 0xDD SWAP14 0x25 DUP6 PUSH18 0x81B2F4956A3B57290AAD8C0589EB9D60867E GASLIMIT MSTORE 0xAC SWAP5 PUSH5 0x736F6C6343 STOP ADDMOD EQ STOP CALLER SDIV SWAP10 SHL STATICCALL 0xA8 0xC PUSH0 PUSH21 0x3D433BD10462FC1453A7C566AA9C81582E3DBAB915 0xDC LOG4 SELFDESTRUCT "},"methodIdentifiers":{"MAX_METADATA_LENGTH()":"e8868e9f","MAX_SKILLS_PER_AGENT()":"d1bca73d","MIN_METADATA_LENGTH()":"1295c6a9","REGISTRATION_FEE()":"64b4f751","addSkill(string,string)":"d862ae87","agents(address)":"fd66091e","allAgents(uint256)":"e0bb12f7","deactivate()":"51b42b00","findAgentsBySkill(uint256)":"b6ef504e","findAgentsBySkills(uint256[])":"b2bdc75f","getAgent(address)":"fb3551ff","getAgentCount()":"91cab63e","getAgentSkills(address)":"b47172da","getAllSkills()":"ccc3bba8","getRecentlyActive(uint256,uint256)":"5d3aa813","getTopAgents(uint256)":"b1e29ea4","isRegistered(address)":"c3c5a547","nextSkillId()":"34306d25","owner()":"8da5cb5b","pause()":"8456cb59","paused()":"5c975abb","pauser()":"9fd0506d","reactivate()":"d18611d6","recordActivity(address,uint256,uint256,uint256)":"346945fd","registerAgent(string,uint256[])":"75ae1fef","registrationFee()":"14c44e09","setRegistrationFee(uint256)":"c320c727","skillNameToId(string)":"3421ebfd","skillToAgents(uint256,uint256)":"a113938f","skills(uint256)":"50d15fbe","totalAgents()":"c5053712","transferPauser(address)":"4421ea21","unpause()":"3f4ba83a","updateProfile(string,uint256[])":"08edbd14","withdrawFees()":"476343ee"}}}}}