{"contracts/TaskMarket.sol":{"TaskMarket":{"abi":[{"inputs":[{"internalType":"address","name":"_feeRecipient","type":"address"}],"stateMutability":"nonpayable","type":"constructor"},{"inputs":[],"name":"ContractNotPaused","type":"error"},{"inputs":[],"name":"ContractPaused","type":"error"},{"inputs":[],"name":"NotPauser","type":"error"},{"inputs":[],"name":"ReentrancyGuardReentrantCall","type":"error"},{"anonymous":false,"inputs":[{"indexed":true,"internalType":"uint256","name":"taskId","type":"uint256"},{"indexed":true,"internalType":"address","name":"bidder","type":"address"},{"indexed":false,"internalType":"uint256","name":"amount","type":"uint256"}],"name":"BidAccepted","type":"event"},{"anonymous":false,"inputs":[{"indexed":true,"internalType":"uint256","name":"taskId","type":"uint256"},{"indexed":true,"internalType":"address","name":"bidder","type":"address"},{"indexed":false,"internalType":"uint256","name":"amount","type":"uint256"},{"indexed":false,"internalType":"uint256","name":"estimatedTime","type":"uint256"}],"name":"BidSubmitted","type":"event"},{"anonymous":false,"inputs":[{"indexed":false,"internalType":"address","name":"account","type":"address"}],"name":"Paused","type":"event"},{"anonymous":false,"inputs":[{"indexed":true,"internalType":"address","name":"previousPauser","type":"address"},{"indexed":true,"internalType":"address","name":"newPauser","type":"address"}],"name":"PauserTransferred","type":"event"},{"anonymous":false,"inputs":[{"indexed":true,"internalType":"address","name":"agent","type":"address"},{"indexed":false,"internalType":"uint256","name":"newScore","type":"uint256"}],"name":"ReputationUpdated","type":"event"},{"anonymous":false,"inputs":[{"indexed":true,"internalType":"uint256","name":"taskId","type":"uint256"},{"indexed":true,"internalType":"address","name":"worker","type":"address"},{"indexed":false,"internalType":"uint256","name":"payment","type":"uint256"}],"name":"TaskApproved","type":"event"},{"anonymous":false,"inputs":[{"indexed":true,"internalType":"uint256","name":"taskId","type":"uint256"},{"indexed":false,"internalType":"uint256","name":"refundAmount","type":"uint256"}],"name":"TaskCancelled","type":"event"},{"anonymous":false,"inputs":[{"indexed":true,"internalType":"uint256","name":"taskId","type":"uint256"},{"indexed":true,"internalType":"address","name":"by","type":"address"},{"indexed":false,"internalType":"string","name":"reason","type":"string"}],"name":"TaskDisputed","type":"event"},{"anonymous":false,"inputs":[{"indexed":true,"internalType":"uint256","name":"taskId","type":"uint256"},{"indexed":true,"internalType":"address","name":"poster","type":"address"},{"indexed":false,"internalType":"string","name":"title","type":"string"},{"indexed":false,"internalType":"uint256","name":"reward","type":"uint256"},{"indexed":false,"internalType":"enum TaskMarket.TaskPriority","name":"priority","type":"uint8"},{"indexed":false,"internalType":"uint256","name":"deadline","type":"uint256"}],"name":"TaskPosted","type":"event"},{"anonymous":false,"inputs":[{"indexed":false,"internalType":"address","name":"account","type":"address"}],"name":"Unpaused","type":"event"},{"anonymous":false,"inputs":[{"indexed":true,"internalType":"uint256","name":"taskId","type":"uint256"},{"indexed":true,"internalType":"address","name":"worker","type":"address"},{"indexed":false,"internalType":"string","name":"resultIPFS","type":"string"}],"name":"WorkCompleted","type":"event"},{"anonymous":false,"inputs":[{"indexed":true,"internalType":"uint256","name":"taskId","type":"uint256"},{"indexed":true,"internalType":"address","name":"worker","type":"address"}],"name":"WorkStarted","type":"event"},{"inputs":[],"name":"BPS_DENOMINATOR","outputs":[{"internalType":"uint256","name":"","type":"uint256"}],"stateMutability":"view","type":"function"},{"inputs":[],"name":"MAX_BIDS_PER_TASK","outputs":[{"internalType":"uint256","name":"","type":"uint256"}],"stateMutability":"view","type":"function"},{"inputs":[],"name":"MAX_TASK_DURATION","outputs":[{"internalType":"uint256","name":"","type":"uint256"}],"stateMutability":"view","type":"function"},{"inputs":[],"name":"MIN_TASK_DURATION","outputs":[{"internalType":"uint256","name":"","type":"uint256"}],"stateMutability":"view","type":"function"},{"inputs":[],"name":"PLATFORM_FEE_BPS","outputs":[{"internalType":"uint256","name":"","type":"uint256"}],"stateMutability":"view","type":"function"},{"inputs":[{"internalType":"uint256","name":"_taskId","type":"uint256"},{"internalType":"uint256","name":"_bidIndex","type":"uint256"}],"name":"acceptBid","outputs":[],"stateMutability":"nonpayable","type":"function"},{"inputs":[{"internalType":"address","name":"","type":"address"}],"name":"agentCompletedTasks","outputs":[{"internalType":"uint256","name":"","type":"uint256"}],"stateMutability":"view","type":"function"},{"inputs":[{"internalType":"address","name":"","type":"address"}],"name":"agentReputation","outputs":[{"internalType":"uint256","name":"","type":"uint256"}],"stateMutability":"view","type":"function"},{"inputs":[{"internalType":"address","name":"","type":"address"},{"internalType":"uint256","name":"","type":"uint256"}],"name":"agentTasks","outputs":[{"internalType":"uint256","name":"","type":"uint256"}],"stateMutability":"view","type":"function"},{"inputs":[{"internalType":"address","name":"","type":"address"}],"name":"agentTotalEarnings","outputs":[{"internalType":"uint256","name":"","type":"uint256"}],"stateMutability":"view","type":"function"},{"inputs":[{"internalType":"uint256","name":"_taskId","type":"uint256"}],"name":"approveWork","outputs":[],"stateMutability":"nonpayable","type":"function"},{"inputs":[{"internalType":"uint256","name":"_taskId","type":"uint256"},{"internalType":"uint256","name":"_amount","type":"uint256"},{"internalType":"uint256","name":"_estimatedTime","type":"uint256"},{"internalType":"string","name":"_proposalIPFS","type":"string"}],"name":"bidOnTask","outputs":[],"stateMutability":"nonpayable","type":"function"},{"inputs":[{"internalType":"uint256","name":"_taskId","type":"uint256"}],"name":"cancelTask","outputs":[],"stateMutability":"nonpayable","type":"function"},{"inputs":[],"name":"cancellationFeeBps","outputs":[{"internalType":"uint256","name":"","type":"uint256"}],"stateMutability":"view","type":"function"},{"inputs":[{"internalType":"uint256","name":"_taskId","type":"uint256"},{"internalType":"string","name":"_reason","type":"string"}],"name":"disputeTask","outputs":[],"stateMutability":"nonpayable","type":"function"},{"inputs":[],"name":"feeRecipient","outputs":[{"internalType":"address","name":"","type":"address"}],"stateMutability":"view","type":"function"},{"inputs":[{"internalType":"address","name":"_agent","type":"address"}],"name":"getAgentStats","outputs":[{"internalType":"uint256","name":"reputation","type":"uint256"},{"internalType":"uint256","name":"completed","type":"uint256"},{"internalType":"uint256","name":"earnings","type":"uint256"}],"stateMutability":"view","type":"function"},{"inputs":[{"internalType":"address","name":"_agent","type":"address"}],"name":"getAgentTasks","outputs":[{"internalType":"uint256[]","name":"","type":"uint256[]"}],"stateMutability":"view","type":"function"},{"inputs":[{"internalType":"uint256","name":"_taskId","type":"uint256"}],"name":"getBidCount","outputs":[{"internalType":"uint256","name":"","type":"uint256"}],"stateMutability":"view","type":"function"},{"inputs":[{"internalType":"uint256","name":"_taskId","type":"uint256"}],"name":"getBids","outputs":[{"components":[{"internalType":"address","name":"bidder","type":"address"},{"internalType":"uint256","name":"amount","type":"uint256"},{"internalType":"uint256","name":"estimatedTime","type":"uint256"},{"internalType":"string","name":"proposalIPFS","type":"string"},{"internalType":"uint256","name":"reputation","type":"uint256"},{"internalType":"uint256","name":"timestamp","type":"uint256"},{"internalType":"bool","name":"accepted","type":"bool"}],"internalType":"struct TaskMarket.Bid[]","name":"","type":"tuple[]"}],"stateMutability":"view","type":"function"},{"inputs":[{"internalType":"uint256","name":"_offset","type":"uint256"},{"internalType":"uint256","name":"_limit","type":"uint256"}],"name":"getOpenTasks","outputs":[{"internalType":"uint256[]","name":"","type":"uint256[]"}],"stateMutability":"view","type":"function"},{"inputs":[{"internalType":"uint256","name":"_taskId","type":"uint256"}],"name":"getTask","outputs":[{"components":[{"internalType":"uint256","name":"id","type":"uint256"},{"internalType":"address","name":"poster","type":"address"},{"internalType":"string","name":"title","type":"string"},{"internalType":"string","name":"description","type":"string"},{"internalType":"string","name":"requirementsIPFS","type":"string"},{"internalType":"uint256","name":"reward","type":"uint256"},{"internalType":"uint256","name":"collateral","type":"uint256"},{"internalType":"enum TaskMarket.TaskPriority","name":"priority","type":"uint8"},{"internalType":"enum TaskMarket.TaskStatus","name":"status","type":"uint8"},{"internalType":"uint256","name":"createdAt","type":"uint256"},{"internalType":"uint256","name":"deadline","type":"uint256"},{"internalType":"address","name":"assignedTo","type":"address"},{"internalType":"string","name":"resultIPFS","type":"string"},{"internalType":"uint256","name":"completedAt","type":"uint256"}],"internalType":"struct TaskMarket.Task","name":"","type":"tuple"}],"stateMutability":"view","type":"function"},{"inputs":[],"name":"minimumReward","outputs":[{"internalType":"uint256","name":"","type":"uint256"}],"stateMutability":"view","type":"function"},{"inputs":[],"name":"nextTaskId","outputs":[{"internalType":"uint256","name":"","type":"uint256"}],"stateMutability":"view","type":"function"},{"inputs":[],"name":"pause","outputs":[],"stateMutability":"nonpayable","type":"function"},{"inputs":[],"name":"paused","outputs":[{"internalType":"bool","name":"","type":"bool"}],"stateMutability":"view","type":"function"},{"inputs":[],"name":"pauser","outputs":[{"internalType":"address","name":"","type":"address"}],"stateMutability":"view","type":"function"},{"inputs":[{"internalType":"string","name":"_title","type":"string"},{"internalType":"string","name":"_description","type":"string"},{"internalType":"string","name":"_requirementsIPFS","type":"string"},{"internalType":"uint256","name":"_reward","type":"uint256"},{"internalType":"enum TaskMarket.TaskPriority","name":"_priority","type":"uint8"}],"name":"postTask","outputs":[{"internalType":"uint256","name":"taskId","type":"uint256"}],"stateMutability":"payable","type":"function"},{"inputs":[],"name":"protocolFeeBps","outputs":[{"internalType":"uint256","name":"","type":"uint256"}],"stateMutability":"view","type":"function"},{"inputs":[{"internalType":"uint256","name":"_taskId","type":"uint256"}],"name":"startWork","outputs":[],"stateMutability":"nonpayable","type":"function"},{"inputs":[{"internalType":"uint256","name":"_taskId","type":"uint256"},{"internalType":"string","name":"_resultIPFS","type":"string"}],"name":"submitWork","outputs":[],"stateMutability":"nonpayable","type":"function"},{"inputs":[{"internalType":"uint256","name":"","type":"uint256"},{"internalType":"uint256","name":"","type":"uint256"}],"name":"taskBids","outputs":[{"internalType":"address","name":"bidder","type":"address"},{"internalType":"uint256","name":"amount","type":"uint256"},{"internalType":"uint256","name":"estimatedTime","type":"uint256"},{"internalType":"string","name":"proposalIPFS","type":"string"},{"internalType":"uint256","name":"reputation","type":"uint256"},{"internalType":"uint256","name":"timestamp","type":"uint256"},{"internalType":"bool","name":"accepted","type":"bool"}],"stateMutability":"view","type":"function"},{"inputs":[{"internalType":"uint256","name":"","type":"uint256"}],"name":"tasks","outputs":[{"internalType":"uint256","name":"id","type":"uint256"},{"internalType":"address","name":"poster","type":"address"},{"internalType":"string","name":"title","type":"string"},{"internalType":"string","name":"description","type":"string"},{"internalType":"string","name":"requirementsIPFS","type":"string"},{"internalType":"uint256","name":"reward","type":"uint256"},{"internalType":"uint256","name":"collateral","type":"uint256"},{"internalType":"enum TaskMarket.TaskPriority","name":"priority","type":"uint8"},{"internalType":"enum TaskMarket.TaskStatus","name":"status","type":"uint8"},{"internalType":"uint256","name":"createdAt","type":"uint256"},{"internalType":"uint256","name":"deadline","type":"uint256"},{"internalType":"address","name":"assignedTo","type":"address"},{"internalType":"string","name":"resultIPFS","type":"string"},{"internalType":"uint256","name":"completedAt","type":"uint256"}],"stateMutability":"view","type":"function"},{"inputs":[],"name":"totalFeesCollected","outputs":[{"internalType":"uint256","name":"","type":"uint256"}],"stateMutability":"view","type":"function"},{"inputs":[],"name":"totalTasksCompleted","outputs":[{"internalType":"uint256","name":"","type":"uint256"}],"stateMutability":"view","type":"function"},{"inputs":[],"name":"totalTasksPosted","outputs":[{"internalType":"uint256","name":"","type":"uint256"}],"stateMutability":"view","type":"function"},{"inputs":[],"name":"totalValueLocked","outputs":[{"internalType":"uint256","name":"","type":"uint256"}],"stateMutability":"view","type":"function"},{"inputs":[{"internalType":"address","name":"newPauser","type":"address"}],"name":"transferPauser","outputs":[],"stateMutability":"nonpayable","type":"function"},{"inputs":[],"name":"unpause","outputs":[],"stateMutability":"nonpayable","type":"function"},{"stateMutability":"payable","type":"receive"}],"evm":{"bytecode":{"linkReferences":{},"object":"6080346100d957601f62002cb738819003918201601f19168301916001600160401b038311848410176100de578084926020946040528339810103126100d957516001600160a01b038116908190036100d95760017f9b779b17422d0df92223018b32b4d1fa46e071723d6817e2486d003becc55f0081905560008054610100600160a81b03191633600890811b610100600160a81b03169190911790915590805560fa60095566038d7ea4c68000600a556101f4600b5580546001600160a01b031916919091179055604051612bc29081620000f58239f35b600080fd5b634e487b7160e01b600052604160045260246000fdfe6080604052600436101561001b575b361561001957600080fd5b005b60003560e01c806302e9d5e41461028b57806303a250f91461028657806309529dc1146102815780630f0ef7fe1461027c578063108ab45e14610277578063131d9a2714610272578063164bcc261461026d5780631d65e77e146102685780632b42900a1461026357806335659fb81461025e5780633d01e0fa146102595780633f4ba83a146102545780634421ea211461024f578063469048401461024a5780634bddd20914610245578063539aa77f146102405780635492b1971461023b57806354de6e32146102365780635c975abb146102315780635f08bb531461022c57806360c6d8ae14610227578063611f364a14610222578063670ad7821461021d5780636b4e89a21461021857806370efdfb114610213578063744d34111461020e5780637eec20a814610209578063803a29da14610204578063813f8dc1146101ff5780638456cb59146101fa5780638d977672146101f557806395305683146101f05780639fd0506d146101eb578063b5695b38146101e6578063d8ea6821146101e1578063da8accf9146101dc578063e1a45218146101d7578063ec18154e146101d25763fdc3d8d70361000e57611cbf565b611ca1565b611c84565b611bc7565b611b43565b611ae8565b611abb565b611a9d565b6119e3565b6118c0565b6118a2565b611812565b6116c1565b611695565b61165b565b61163c565b6115e4565b6115ae565b611590565b611573565b611550565b611516565b611499565b6112ac565b611197565b61113a565b611074565b610fe9565b610d09565b610ceb565b610ad8565b610a05565b6107d6565b6106b1565b6105a1565b610585565b61054b565b610483565b3461047e57604036600319011261047e5760043560243560009160ff83541661046c576102b6612402565b80835260026020526102cd60408420541515612432565b80835260026020527f91a721693afff25f233ac308edbd2fa15ad7d4dfacdd164dd4e8c57ab72f4ae960018060a01b03610311816001604088200154163314612698565b61043e610328846000526002602052604060002090565b946103ef61038d6007880192610355610346855460ff9060081c1690565b61034f816108f6565b1561246f565b61037461036c896000526003602052604060002090565b5482106126d1565b610388886000526003602052604060002090565b6112de565b50916103bd600684016103b06103ab6103a7835460ff1690565b1590565b61270b565b805460ff19166001179055565b8254600a890180546001600160a01b0319166001600160a01b03909216919091179055805461ff001916610100179055565b6001810195600587549101556104318561042c610412845460018060a01b031690565b6001600160a01b0316600090815260046020526040902090565b61237b565b546001600160a01b031690565b935460405190815293169280602081015b0390a36104696001600080516020612b6d83398151915255565b80f35b60405163ab35696f60e01b8152600490fd5b600080fd5b3461047e57602036600319011261047e5760043560009080825260026020526104b160408320541515612432565b80825260026020526007604083206104d660018060a01b03600a83015416331461274a565b0160ff815460081c16906007821015610530576104f86001610507931461274a565b805461ff001916610200179055565b33907f4883666eff4707b2212b9bf824c3a2c47933345113365d6229f5ed21336049498380a380f35b6108c9565b600435906001600160a01b038216820361047e57565b3461047e57602036600319011261047e576001600160a01b0361056c610535565b1660005260076020526020604060002054604051908152f35b3461047e57600036600319011261047e57602060405160328152f35b3461047e57600036600319011261047e576020600d54604051908152f35b919082519283825260005b8481106105eb575050826000602080949584010152601f8019910116010190565b6020818301810151848301820152016105ca565b602080820190808352835180925260409283810182858560051b8401019601946000925b858410610634575050505050505090565b909192939495968580600192603f198582030187528a5190848060a01b038251168152828201518382015286820151878201526106806060808401519060e080918501528301906105bf565b916080808201519083015260a0808201519083015260c0809101511515910152990194019401929594939190610623565b3461047e5760208060031936011261047e5760048035600052600380835260409283600020908154926106e384612b40565b946106f08751968761138d565b8486526000938452828420918387015b868610610718578851806107148a826105ff565b0390f35b6007856001928b516107298161134f565b875460a086901b869003166001600160a01b03168152848801548382015260028801548d82015261075b8689016113af565b6060820152868801546080820152600588015460a082015261078d61078460068a015460ff1690565b151560c0830152565b815201940195019492610700565b6020908160408183019282815285518094520193019160005b8281106107c2575050505090565b8351855293810193928101926001016107b4565b3461047e57604036600319011261047e576024356004356107f682612b40565b90610804604051928361138d565b828252601f1961081384612b40565b013660208401376000926001918281018091116108c457825490835b610845575b85855260405180610714878261079b565b818110806108bb575b156108b657610877600761086c836000526002602052604060002090565b015460081c60ff1690565b610880816108f6565b15610895575b61088f9061204c565b8361082f565b946108ae81876108a861088f9489612b58565b5261204c565b959050610886565b610834565b5082861061084e565b612036565b634e487b7160e01b600052602160045260246000fd5b6004111561053057565b9060048210156105305752565b6007111561053057565b9060078210156105305752565b60208082528251828201528201516001600160a01b0316604082015260408201516109466101c0918260608501526101e08401906105bf565b6109fc61097c610968606087015193601f1994858883030160808901526105bf565b6080870151848783030160a08801526105bf565b60a086015160c086015260c086015160e086015260e08601516109a561010091828801906108e9565b8601516109b86101209182880190610900565b860151610140908187015286015161016090818701528601516109e8610180918288019060018060a01b03169052565b8601516101a09386830301848701526105bf565b93015191015290565b3461047e57602036600319011261047e57604051610a2281611370565b6101a060009182815282602082015260606040820152606080820152606060808201528260a08201528260c08201528260e08201528261010082015282610120820152826101408201528261016082015260606101808201520152610714610a9e610a996004356000526002602052604060002090565b612a69565b6040519182918261090d565b9181601f8401121561047e5782359167ffffffffffffffff831161047e576020838186019501011161047e57565b3461047e57608036600319011261047e5760443560243560043560643567ffffffffffffffff811161047e57610b12903690600401610aaa565b6000949160ff86541661046c57610b27612402565b8386526002602052610b3e60408720541515612432565b610b52846000526002602052604060002090565b6007810154610b669060081c60ff16610346565b610b75600982015442106124a6565b610b8560058201548711156124e4565b600190810154610bb190610ba9906001600160a01b03165b6001600160a01b031690565b331415612525565b610bd16032610bca876000526003602052604060002090565b541061256a565b86815b610c83575b50503360009081526005602052604090207f71a5674c44b823bc0df08201dfeb2e8bdf698cd684fd2bbaa79adcf2c99fc1869361044f939092610c6a92610c3b905491610c24612076565b338152938a602086015286604086015236916120ac565b606083015260808201524260a08201528760c0820152610c65866000526003602052604060002090565b6125e3565b6040805195865260208601919091523394918291820190565b610c97866000526003602052604060002090565b54811015610ce65780610cdb610cbe610ce0936103888a6000526003602052604060002090565b50543390610cd4906001600160a01b0316610b9d565b14156125a9565b61204c565b81610bd4565b610bd9565b3461047e57600036600319011261047e576020600954604051908152f35b3461047e57602036600319011261047e5760ff6000541661046c57610d2c612402565b60043560005260026020526040600020541515610d4890612432565b6004356000526002602052600160a01b60019003604060002060010154163314610d7190612698565b600435610d88906000526002602052604060002090565b60078101805460081c60ff16610d9d816108f6565b600314610da990612894565b805461ff001916610500179055600581015490610dc5826128d0565b61271090049182610dd5916128f9565b916006820154600e5490610de8916128f9565b600e5580600f5490610df991612069565b600f55600d54610e089061204c565b600d55600a8201546001600160a01b031660009081526005602052604090208054610e329061205b565b9055600a8201546001600160a01b031660009081526006602052604090208054610e5b9061204c565b9055600a8201546001600160a01b031660009081526007602052604090208054610e86908590612069565b9055600a82015483906001600160a01b03165a6000809381938293f1610eaa612906565b50610eb490612936565b6008546001600160a01b03165a6000809381938293f1610ed2612906565b50610edc90612973565b60068101546005820154610eef916128f9565b801515610f35600a7ffc577563f1b9a0461e24abef1e1fcc0d33d3d881f20b5df6dda59de4aae2c82194610f9d94610f8c94610fb7575b5001546001600160a01b031690565b6040519485526001600160a01b038116948590600435907f224350e49b29e656cb8c93d7379c7ddb4907c6009b64159a5e70d38092eae19790602090a36001600160a01b0316600090815260056020526040902090565b546040519081529081906020820190565b0390a26100196001600080516020612b6d83398151915255565b6000808080610fe394610fd3600188015460018060a01b031690565b5af1610fdd612906565b506129b5565b38610f26565b3461047e57600080600319360112611071578054600881901c6001600160a01b0316330361105f5760ff81161561104d5760ff191681557f5db9ee0a495bf2e6ff9c91a7834c1ba4fdd244a5e8aa4e537bd38aeae4b073aa6020604051338152a180f35b60405163dcdde9dd60e01b8152600490fd5b60405163492f678160e01b8152600490fd5b80fd5b3461047e57602036600319011261047e5761108d610535565b60005460081c6001600160a01b03908116903382900361105f5782169182156110fc5760008054610100600160a81b03191660089290921b610100600160a81b03169190911790557f51c4874e0f23f262e04a38c51751336dde72126d67f53eb672aaff02996b3ef6600080a3005b60405162461bcd60e51b8152602060048201526016602482015275496e76616c696420706175736572206164647265737360501b6044820152606490fd5b3461047e57600036600319011261047e576008546040516001600160a01b039091168152602090f35b90604060031983011261047e57600435916024359067ffffffffffffffff821161047e5761119391600401610aaa565b9091565b3461047e577f2214f6a8b429291289d3afcdfccc59167b10f1d8ad1529e3959f9cd19f19af5f61126e6111c936611163565b82600095939492955260026020526111e76040600020541515612432565b6112606007611200866000526002602052604060002090565b6001810154611217906001600160a01b0316610b9d565b33148015611287575b611229906129f1565b0180546112519060081c60ff1661123f816108f6565b60028114908115611273575b50612a2c565b805461ff001916610400179055565b604051918291339683612883565b0390a3005b60039150611280816108f6565b143861124b565b50600a810154611229906112a3906001600160a01b0316610b9d565b33149050611220565b3461047e57600036600319011261047e57602060405160648152f35b634e487b7160e01b600052603260045260246000fd5b80548210156112fa576000526007602060002091020190600090565b6112c8565b90600182811c9216801561132f575b602083101461131957565b634e487b7160e01b600052602260045260246000fd5b91607f169161130e565b634e487b7160e01b600052604160045260246000fd5b60e0810190811067ffffffffffffffff82111761136b57604052565b611339565b6101c0810190811067ffffffffffffffff82111761136b57604052565b90601f8019910116810190811067ffffffffffffffff82111761136b57604052565b90604051918260008254926113c3846112ff565b90818452600194858116908160001461143257506001146113ef575b50506113ed9250038361138d565b565b9093915060005260209081600020936000915b81831061141a5750506113ed935082010138806113df565b85548884018501529485019487945091830191611402565b9150506113ed94506020925060ff191682840152151560051b82010138806113df565b95926114879260c0969998959260018060a01b031688526020880152604087015260e0606087015260e08601906105bf565b95608085015260a08401521515910152565b3461047e57604036600319011261047e576024356004356000526003602052604060002090815481101561047e576114d0916112de565b5060018060a01b038154166107146001830154926002810154906114f6600382016113af565b60048201549060ff60066005850154940154169360405197889788611455565b3461047e57602036600319011261047e576001600160a01b03611537610535565b1660005260056020526020604060002054604051908152f35b3461047e57600036600319011261047e57602060ff600054166040519015158152f35b3461047e57600036600319011261047e576020604051610e108152f35b3461047e57600036600319011261047e576020600f54604051908152f35b3461047e57600036600319011261047e576020600c54604051908152f35b80548210156112fa5760005260206000200190600090565b3461047e57604036600319011261047e576115fd610535565b6001600160a01b031660009081526004602052604090208054602435919082101561047e5760209161162e916115cc565b90546040519160031b1c8152f35b3461047e57600036600319011261047e5760206040516301e133808152f35b3461047e57602036600319011261047e576001600160a01b0361167c610535565b1660005260066020526020604060002054604051908152f35b3461047e57602036600319011261047e5760043560005260036020526020604060002054604051908152f35b3461047e57602036600319011261047e576004356000908082526002602052604082205415156116f090612432565b80825260026020526040822060010154611714906001600160a01b03163314612698565b611728816000526002602052604060002090565b60078101805460081c60ff1661173d816108f6565b156117479061246f565b805461ff001916610600179055828080806006850154600b5461176a90826128e6565b6127109004958280808061177e8b876128f9565b9a8b96600e549061178e916128f9565b600e5580600f549061179f91612069565b600f556008546001600160a01b03165af16117b8612906565b506117c290612973565b600101546001600160a01b03165af16117d9612906565b506117e3906129b5565b6040519081527f58716386e17644e69ff7358e3317a395f4523fcd0fb9cc227ee68d117ebbfbfc90602090a280f35b60a036600319011261047e5767ffffffffffffffff60043581811161047e5761183f903690600401610aaa565b9060243583811161047e57611858903690600401610aaa565b91909360443590811161047e57611873903690600401610aaa565b9060843593600485101561047e57610714966118929660643595611cdd565b6040519081529081906020820190565b3461047e57600036600319011261047e576020600a54604051908152f35b3461047e57600080600319360112611071578054600881901c6001600160a01b0316330361105f5760ff811661046c5760019060ff19161781557f62e78cea01bee320cd4e420270b5ea74000d11b0c9f74754ebdbfc544b05a2586020604051338152a180f35b9e9d9c98928f6101a09d986119966119de9e999d986119886119b39961197a6119d09f98976119696119a89b60e09a8a5260208a019060018060a01b03169052565b6101c08060408a01528801906105bf565b9086820360608801526105bf565b9084820360808601526105bf565b9c60a083015260c082015201906108e9565b6101008d0190610900565b6101208b01526101408a01526001600160a01b0316610160890152565b8682036101808801526105bf565b930152565b3461047e57602036600319011261047e57600435600090815260026020526040902080546001820154610714906001600160a01b031691611a26600285016113af565b93611a33600382016113af565b91611a40600483016113af565b90600583015490600684015490600785015490600886015492600987015494611a72600a89015460018060a01b031690565b96600c611a81600b8b016113af565b990154996040519d8e9d8e9660ff808a60081c16991697611927565b3461047e57600036600319011261047e576020600b54604051908152f35b3461047e57600036600319011261047e5760005460405160089190911c6001600160a01b03168152602090f35b3461047e57602036600319011261047e576001600160a01b03611b09610535565b1660005260056020526060604060002054600660205260406000205460076020526040600020549060405192835260208301526040820152f35b3461047e5760208060031936011261047e576001600160a01b03611b65610535565b1660005260048152604060002090604051908181845491828152019360005281600020916000905b828210611bb05761071485611ba48189038261138d565b6040519182918261079b565b835486529485019460019384019390910190611b8d565b3461047e57611bd536611163565b917f6fbd90f6b051dd2b74925fe39aef5391515a82ac6783676b36a54aa5221c6a4f611c7e6000948386526002602052611c1460408720541515612432565b838652600260205261126060408720611c3a60018060a01b03600a83015416331461274a565b6007810190611c5b600260ff845460081c16611c55816108f6565b14612785565b611c698489600b84016127c3565b600c4291015561030061ff0019825416179055565b0390a380f35b3461047e57600036600319011261047e5760206040516127108152f35b3461047e57600036600319011261047e576020600e54604051908152f35b3461047e57600036600319011261047e576020600154604051908152f35b9190959296939660ff6000541661046c57611cf6612402565b611d01871515611efd565b611d0e6064881115611f3a565b611d1c600a54851015611f77565b611d2884341015611fb4565b611d31856108df565b84611ebf576203f480915b610e1083101580611eb1575b611d5190611ff7565b600154988997611d608961204c565b600155611d6d8542612069565b92611d76612083565b8a815233602082015294611d8b368d8a6120ac565b60408701523690611d9b926120ac565b60608501523690611dab926120ac565b608083015260a082018590523460c0830152611dca8660e084016120e3565b61010082016000905242610120830152610140820152610160810160009052611df16120fb565b6101808201526101a0810160009052611e14866000526002602052604060002090565b90611e1e91612279565b33600090815260046020526040902085611e379161237b565b600c54611e439061204c565b600c5534600e5490611e5491612069565b600e55611e619042612069565b6040519384933397611e7394866123d1565b037f3e3dad351780e0c5d9667147ca353c4414b45bff35c16eab9cf5bf45f60d71ac91a3611eae6001600080516020612b6d83398151915255565b90565b506301e13380831115611d48565b611ec8856108df565b60018503611eda576201518091611d3c565b611ee3856108df565b60028503611ef45761384091611d3c565b610e1091611d3c565b15611f0457565b60405162461bcd60e51b815260206004820152600e60248201526d151a5d1b19481c995c5d5a5c995960921b6044820152606490fd5b15611f4157565b60405162461bcd60e51b815260206004820152600e60248201526d5469746c6520746f6f206c6f6e6760901b6044820152606490fd5b15611f7e57565b60405162461bcd60e51b815260206004820152600e60248201526d52657761726420746f6f206c6f7760901b6044820152606490fd5b15611fbb57565b60405162461bcd60e51b8152602060048201526014602482015273125b9cdd59999a58da595b9d081c185e5b595b9d60621b6044820152606490fd5b15611ffe57565b60405162461bcd60e51b815260206004820152601060248201526f24b73b30b634b210323ab930ba34b7b760811b6044820152606490fd5b634e487b7160e01b600052601160045260246000fd5b60001981146108c45760010190565b90600a82018092116108c457565b919082018092116108c457565b604051906113ed8261134f565b604051906113ed82611370565b67ffffffffffffffff811161136b57601f01601f191660200190565b9291926120b882612090565b916120c6604051938461138d565b82948184528183011161047e578281602093846000960137010152565b60048210156105305752565b60078210156105305752565b604051906020820182811067ffffffffffffffff82111761136b5760405260008252565b90601f811161212d57505050565b600091825260208220906020601f850160051c83019410612169575b601f0160051c01915b82811061215e57505050565b818155600101612152565b9092508290612149565b919091825167ffffffffffffffff811161136b5761219b8161219584546112ff565b8461211f565b602080601f83116001146121d75750819293946000926121cc575b50508160011b916000199060031b1c1916179055565b0151905038806121b6565b90601f198316956121ed85600052602060002090565b926000905b88821061222a57505083600195969710612211575b505050811b019055565b015160001960f88460031b161c19169055388080612207565b806001859682949686015181550195019301906121f2565b9060048110156105305760ff80198354169116179055565b9060078110156105305761ff0082549160081b169061ff001916179055565b8151815560208201516001820180546001600160a01b0319166001600160a01b0390921691909117905590600c906101a0906122bc604082015160028601612173565b6122cd606082015160038601612173565b6122de608082015160048601612173565b60a0810151600585015560c081015160068501556123256007850161231060e084015161230a816108df565b82612242565b61010083015190612320826108f6565b61225a565b61012081015160088501556101408101516009850155610160810151600a850180546001600160a01b0319166001600160a01b03909216919091179055612374610180820151600b8601612173565b0151910155565b8054600160401b81101561136b57612398916001820181556115cc565b819291549060031b91821b91600019901b1916179055565b908060209392818452848401376000828201840152601f01601f1916010190565b91936123ee6123fe926060959897966080865260808601916123b0565b96602084015260408301906108e9565b0152565b600080516020612b6d83398151915260028154146124205760029055565b604051633ee5aeb560e01b8152600490fd5b1561243957565b60405162461bcd60e51b815260206004820152600e60248201526d15185cdac81b9bdd08199bdd5b9960921b6044820152606490fd5b1561247657565b60405162461bcd60e51b81526020600482015260086024820152672737ba1037b832b760c11b6044820152606490fd5b156124ad57565b60405162461bcd60e51b815260206004820152600f60248201526e111958591b1a5b99481c185cdcd959608a1b6044820152606490fd5b156124eb57565b60405162461bcd60e51b8152602060048201526012602482015271109a5908195e18d959591cc81c995dd85c9960721b6044820152606490fd5b1561252c57565b60405162461bcd60e51b815260206004820152601660248201527543616e6e6f7420626964206f6e206f776e207461736b60501b6044820152606490fd5b1561257157565b60405162461bcd60e51b815260206004820152601060248201526f13585e08189a591cc81c995858da195960821b6044820152606490fd5b156125b057565b60405162461bcd60e51b815260206004820152600b60248201526a105b1c9958591e48189a5960aa1b6044820152606490fd5b8054600160401b81101561136b57612600916001820181556112de565b61268257815181546001600160a01b0319166001600160a01b03919091161781556113ed9160069061266f9060c0906020810151600186015560408101516002860155612654606082015160038701612173565b6080810151600486015560a081015160058601550151151590565b91019060ff801983541691151516179055565b634e487b7160e01b600052600060045260246000fd5b1561269f57565b60405162461bcd60e51b815260206004820152600a6024820152692737ba103837b9ba32b960b11b6044820152606490fd5b156126d857565b60405162461bcd60e51b815260206004820152600b60248201526a125b9d985b1a5908189a5960aa1b6044820152606490fd5b1561271257565b60405162461bcd60e51b815260206004820152601060248201526f105b1c9958591e481858d8d95c1d195960821b6044820152606490fd5b1561275157565b60405162461bcd60e51b815260206004820152600c60248201526b139bdd08185cdcda59db995960a21b6044820152606490fd5b1561278c57565b60405162461bcd60e51b815260206004820152600f60248201526e4e6f7420696e2070726f677265737360881b6044820152606490fd5b90929167ffffffffffffffff811161136b576127e38161219584546112ff565b6000601f821160011461281c57819293946000926128115750508160011b916000199060031b1c1916179055565b0135905038806121b6565b601f1982169461283184600052602060002090565b91805b87811061286b57508360019596971061285157505050811b019055565b0135600019600384901b60f8161c19169055388080612207565b90926020600181928686013581550194019101612834565b916020611eae9381815201916123b0565b1561289b57565b60405162461bcd60e51b815260206004820152600d60248201526c139bdd0818dbdb5c1b195d1959609a1b6044820152606490fd5b906064820291808304606414901517156108c457565b818102929181159184041417156108c457565b919082039182116108c457565b3d15612931573d9061291782612090565b91612925604051938461138d565b82523d6000602084013e565b606090565b1561293d57565b60405162461bcd60e51b815260206004820152600e60248201526d14185e5b595b9d0819985a5b195960921b6044820152606490fd5b1561297a57565b60405162461bcd60e51b8152602060048201526013602482015272119959481d1c985b9cd9995c8819985a5b1959606a1b6044820152606490fd5b156129bc57565b60405162461bcd60e51b815260206004820152600d60248201526c1499599d5b990819985a5b1959609a1b6044820152606490fd5b156129f857565b60405162461bcd60e51b815260206004820152600c60248201526b139bdd081a5b9d9bdb1d995960a21b6044820152606490fd5b15612a3357565b60405162461bcd60e51b815260206004820152600e60248201526d43616e6e6f74206469737075746560901b6044820152606490fd5b90600c612a74612083565b8354815260018401546001600160a01b0316602082015292612a98600282016113af565b6040850152612aa9600382016113af565b6060850152612aba600482016113af565b6080850152600581015460a0850152600681015460c0850152612afa60ff6007830154612aec82821660e089016120e3565b60081c1661010086016120ef565b60088101546101208501526009810154610140850152600a8101546001600160a01b0316610160850152612b30600b82016113af565b61018085015201546101a0830152565b67ffffffffffffffff811161136b5760051b60200190565b80518210156112fa5760209160051b01019056fe9b779b17422d0df92223018b32b4d1fa46e071723d6817e2486d003becc55f00a264697066735822122063c22468a87317005f01136ced0199421fc0785e2756d4bb39fdf7549366465164736f6c63430008140033","opcodes":"PUSH1 0x80 CALLVALUE PUSH2 0xD9 JUMPI PUSH1 0x1F PUSH3 0x2CB7 CODESIZE DUP2 SWAP1 SUB SWAP2 DUP3 ADD PUSH1 0x1F NOT AND DUP4 ADD SWAP2 PUSH1 0x1 PUSH1 0x1 PUSH1 0x40 SHL SUB DUP4 GT DUP5 DUP5 LT OR PUSH2 0xDE JUMPI DUP1 DUP5 SWAP3 PUSH1 0x20 SWAP5 PUSH1 0x40 MSTORE DUP4 CODECOPY DUP2 ADD SUB SLT PUSH2 0xD9 JUMPI MLOAD PUSH1 0x1 PUSH1 0x1 PUSH1 0xA0 SHL SUB DUP2 AND SWAP1 DUP2 SWAP1 SUB PUSH2 0xD9 JUMPI PUSH1 0x1 PUSH32 0x9B779B17422D0DF92223018B32B4D1FA46E071723D6817E2486D003BECC55F00 DUP2 SWAP1 SSTORE PUSH1 0x0 DUP1 SLOAD PUSH2 0x100 PUSH1 0x1 PUSH1 0xA8 SHL SUB NOT AND CALLER PUSH1 0x8 SWAP1 DUP2 SHL PUSH2 0x100 PUSH1 0x1 PUSH1 0xA8 SHL SUB AND SWAP2 SWAP1 SWAP2 OR SWAP1 SWAP2 SSTORE SWAP1 DUP1 SSTORE PUSH1 0xFA PUSH1 0x9 SSTORE PUSH7 0x38D7EA4C68000 PUSH1 0xA SSTORE PUSH2 0x1F4 PUSH1 0xB SSTORE DUP1 SLOAD PUSH1 0x1 PUSH1 0x1 PUSH1 0xA0 SHL SUB NOT AND SWAP2 SWAP1 SWAP2 OR SWAP1 SSTORE PUSH1 0x40 MLOAD PUSH2 0x2BC2 SWAP1 DUP2 PUSH3 0xF5 DUP3 CODECOPY RETURN JUMPDEST PUSH1 0x0 DUP1 REVERT JUMPDEST PUSH4 0x4E487B71 PUSH1 0xE0 SHL PUSH1 0x0 MSTORE PUSH1 0x41 PUSH1 0x4 MSTORE PUSH1 0x24 PUSH1 0x0 REVERT INVALID PUSH1 0x80 PUSH1 0x40 MSTORE PUSH1 0x4 CALLDATASIZE LT ISZERO PUSH2 0x1B JUMPI JUMPDEST CALLDATASIZE ISZERO PUSH2 0x19 JUMPI PUSH1 0x0 DUP1 REVERT JUMPDEST STOP JUMPDEST PUSH1 0x0 CALLDATALOAD PUSH1 0xE0 SHR DUP1 PUSH4 0x2E9D5E4 EQ PUSH2 0x28B JUMPI DUP1 PUSH4 0x3A250F9 EQ PUSH2 0x286 JUMPI DUP1 PUSH4 0x9529DC1 EQ PUSH2 0x281 JUMPI DUP1 PUSH4 0xF0EF7FE EQ PUSH2 0x27C JUMPI DUP1 PUSH4 0x108AB45E EQ PUSH2 0x277 JUMPI DUP1 PUSH4 0x131D9A27 EQ PUSH2 0x272 JUMPI DUP1 PUSH4 0x164BCC26 EQ PUSH2 0x26D JUMPI DUP1 PUSH4 0x1D65E77E EQ PUSH2 0x268 JUMPI DUP1 PUSH4 0x2B42900A EQ PUSH2 0x263 JUMPI DUP1 PUSH4 0x35659FB8 EQ PUSH2 0x25E JUMPI DUP1 PUSH4 0x3D01E0FA EQ PUSH2 0x259 JUMPI DUP1 PUSH4 0x3F4BA83A EQ PUSH2 0x254 JUMPI DUP1 PUSH4 0x4421EA21 EQ PUSH2 0x24F JUMPI DUP1 PUSH4 0x46904840 EQ PUSH2 0x24A JUMPI DUP1 PUSH4 0x4BDDD209 EQ PUSH2 0x245 JUMPI DUP1 PUSH4 0x539AA77F EQ PUSH2 0x240 JUMPI DUP1 PUSH4 0x5492B197 EQ PUSH2 0x23B JUMPI DUP1 PUSH4 0x54DE6E32 EQ PUSH2 0x236 JUMPI DUP1 PUSH4 0x5C975ABB EQ PUSH2 0x231 JUMPI DUP1 PUSH4 0x5F08BB53 EQ PUSH2 0x22C JUMPI DUP1 PUSH4 0x60C6D8AE EQ PUSH2 0x227 JUMPI DUP1 PUSH4 0x611F364A EQ PUSH2 0x222 JUMPI DUP1 PUSH4 0x670AD782 EQ PUSH2 0x21D JUMPI DUP1 PUSH4 0x6B4E89A2 EQ PUSH2 0x218 JUMPI DUP1 PUSH4 0x70EFDFB1 EQ PUSH2 0x213 JUMPI DUP1 PUSH4 0x744D3411 EQ PUSH2 0x20E JUMPI DUP1 PUSH4 0x7EEC20A8 EQ PUSH2 0x209 JUMPI DUP1 PUSH4 0x803A29DA EQ PUSH2 0x204 JUMPI DUP1 PUSH4 0x813F8DC1 EQ PUSH2 0x1FF JUMPI DUP1 PUSH4 0x8456CB59 EQ PUSH2 0x1FA JUMPI DUP1 PUSH4 0x8D977672 EQ PUSH2 0x1F5 JUMPI DUP1 PUSH4 0x95305683 EQ PUSH2 0x1F0 JUMPI DUP1 PUSH4 0x9FD0506D EQ PUSH2 0x1EB JUMPI DUP1 PUSH4 0xB5695B38 EQ PUSH2 0x1E6 JUMPI DUP1 PUSH4 0xD8EA6821 EQ PUSH2 0x1E1 JUMPI DUP1 PUSH4 0xDA8ACCF9 EQ PUSH2 0x1DC JUMPI DUP1 PUSH4 0xE1A45218 EQ PUSH2 0x1D7 JUMPI DUP1 PUSH4 0xEC18154E EQ PUSH2 0x1D2 JUMPI PUSH4 0xFDC3D8D7 SUB PUSH2 0xE JUMPI PUSH2 0x1CBF JUMP JUMPDEST PUSH2 0x1CA1 JUMP JUMPDEST PUSH2 0x1C84 JUMP JUMPDEST PUSH2 0x1BC7 JUMP JUMPDEST PUSH2 0x1B43 JUMP JUMPDEST PUSH2 0x1AE8 JUMP JUMPDEST PUSH2 0x1ABB JUMP JUMPDEST PUSH2 0x1A9D JUMP JUMPDEST PUSH2 0x19E3 JUMP JUMPDEST PUSH2 0x18C0 JUMP JUMPDEST PUSH2 0x18A2 JUMP JUMPDEST PUSH2 0x1812 JUMP JUMPDEST PUSH2 0x16C1 JUMP JUMPDEST PUSH2 0x1695 JUMP JUMPDEST PUSH2 0x165B JUMP JUMPDEST PUSH2 0x163C JUMP JUMPDEST PUSH2 0x15E4 JUMP JUMPDEST PUSH2 0x15AE JUMP JUMPDEST PUSH2 0x1590 JUMP JUMPDEST PUSH2 0x1573 JUMP JUMPDEST PUSH2 0x1550 JUMP JUMPDEST PUSH2 0x1516 JUMP JUMPDEST PUSH2 0x1499 JUMP JUMPDEST PUSH2 0x12AC JUMP JUMPDEST PUSH2 0x1197 JUMP JUMPDEST PUSH2 0x113A JUMP JUMPDEST PUSH2 0x1074 JUMP JUMPDEST PUSH2 0xFE9 JUMP JUMPDEST PUSH2 0xD09 JUMP JUMPDEST PUSH2 0xCEB JUMP JUMPDEST PUSH2 0xAD8 JUMP JUMPDEST PUSH2 0xA05 JUMP JUMPDEST PUSH2 0x7D6 JUMP JUMPDEST PUSH2 0x6B1 JUMP JUMPDEST PUSH2 0x5A1 JUMP JUMPDEST PUSH2 0x585 JUMP JUMPDEST PUSH2 0x54B JUMP JUMPDEST PUSH2 0x483 JUMP JUMPDEST CALLVALUE PUSH2 0x47E JUMPI PUSH1 0x40 CALLDATASIZE PUSH1 0x3 NOT ADD SLT PUSH2 0x47E JUMPI PUSH1 0x4 CALLDATALOAD PUSH1 0x24 CALLDATALOAD PUSH1 0x0 SWAP2 PUSH1 0xFF DUP4 SLOAD AND PUSH2 0x46C JUMPI PUSH2 0x2B6 PUSH2 0x2402 JUMP JUMPDEST DUP1 DUP4 MSTORE PUSH1 0x2 PUSH1 0x20 MSTORE PUSH2 0x2CD PUSH1 0x40 DUP5 KECCAK256 SLOAD ISZERO ISZERO PUSH2 0x2432 JUMP JUMPDEST DUP1 DUP4 MSTORE PUSH1 0x2 PUSH1 0x20 MSTORE PUSH32 0x91A721693AFFF25F233AC308EDBD2FA15AD7D4DFACDD164DD4E8C57AB72F4AE9 PUSH1 0x1 DUP1 PUSH1 0xA0 SHL SUB PUSH2 0x311 DUP2 PUSH1 0x1 PUSH1 0x40 DUP9 KECCAK256 ADD SLOAD AND CALLER EQ PUSH2 0x2698 JUMP JUMPDEST PUSH2 0x43E PUSH2 0x328 DUP5 PUSH1 0x0 MSTORE PUSH1 0x2 PUSH1 0x20 MSTORE PUSH1 0x40 PUSH1 0x0 KECCAK256 SWAP1 JUMP JUMPDEST SWAP5 PUSH2 0x3EF PUSH2 0x38D PUSH1 0x7 DUP9 ADD SWAP3 PUSH2 0x355 PUSH2 0x346 DUP6 SLOAD PUSH1 0xFF SWAP1 PUSH1 0x8 SHR AND SWAP1 JUMP JUMPDEST PUSH2 0x34F DUP2 PUSH2 0x8F6 JUMP JUMPDEST ISZERO PUSH2 0x246F JUMP JUMPDEST PUSH2 0x374 PUSH2 0x36C DUP10 PUSH1 0x0 MSTORE PUSH1 0x3 PUSH1 0x20 MSTORE PUSH1 0x40 PUSH1 0x0 KECCAK256 SWAP1 JUMP JUMPDEST SLOAD DUP3 LT PUSH2 0x26D1 JUMP JUMPDEST PUSH2 0x388 DUP9 PUSH1 0x0 MSTORE PUSH1 0x3 PUSH1 0x20 MSTORE PUSH1 0x40 PUSH1 0x0 KECCAK256 SWAP1 JUMP JUMPDEST PUSH2 0x12DE JUMP JUMPDEST POP SWAP2 PUSH2 0x3BD PUSH1 0x6 DUP5 ADD PUSH2 0x3B0 PUSH2 0x3AB PUSH2 0x3A7 DUP4 SLOAD PUSH1 0xFF AND SWAP1 JUMP JUMPDEST ISZERO SWAP1 JUMP JUMPDEST PUSH2 0x270B JUMP JUMPDEST DUP1 SLOAD PUSH1 0xFF NOT AND PUSH1 0x1 OR SWAP1 SSTORE JUMP JUMPDEST DUP3 SLOAD PUSH1 0xA DUP10 ADD DUP1 SLOAD PUSH1 0x1 PUSH1 0x1 PUSH1 0xA0 SHL SUB NOT AND PUSH1 0x1 PUSH1 0x1 PUSH1 0xA0 SHL SUB SWAP1 SWAP3 AND SWAP2 SWAP1 SWAP2 OR SWAP1 SSTORE DUP1 SLOAD PUSH2 0xFF00 NOT AND PUSH2 0x100 OR SWAP1 SSTORE JUMP JUMPDEST PUSH1 0x1 DUP2 ADD SWAP6 PUSH1 0x5 DUP8 SLOAD SWAP2 ADD SSTORE PUSH2 0x431 DUP6 PUSH2 0x42C PUSH2 0x412 DUP5 SLOAD PUSH1 0x1 DUP1 PUSH1 0xA0 SHL SUB AND SWAP1 JUMP JUMPDEST PUSH1 0x1 PUSH1 0x1 PUSH1 0xA0 SHL SUB AND PUSH1 0x0 SWAP1 DUP2 MSTORE PUSH1 0x4 PUSH1 0x20 MSTORE PUSH1 0x40 SWAP1 KECCAK256 SWAP1 JUMP JUMPDEST PUSH2 0x237B JUMP JUMPDEST SLOAD PUSH1 0x1 PUSH1 0x1 PUSH1 0xA0 SHL SUB AND SWAP1 JUMP JUMPDEST SWAP4 SLOAD PUSH1 0x40 MLOAD SWAP1 DUP2 MSTORE SWAP4 AND SWAP3 DUP1 PUSH1 0x20 DUP2 ADD JUMPDEST SUB SWAP1 LOG3 PUSH2 0x469 PUSH1 0x1 PUSH1 0x0 DUP1 MLOAD PUSH1 0x20 PUSH2 0x2B6D DUP4 CODECOPY DUP2 MLOAD SWAP2 MSTORE SSTORE JUMP JUMPDEST DUP1 RETURN JUMPDEST PUSH1 0x40 MLOAD PUSH4 0xAB35696F PUSH1 0xE0 SHL DUP2 MSTORE PUSH1 0x4 SWAP1 REVERT JUMPDEST PUSH1 0x0 DUP1 REVERT JUMPDEST CALLVALUE PUSH2 0x47E JUMPI PUSH1 0x20 CALLDATASIZE PUSH1 0x3 NOT ADD SLT PUSH2 0x47E JUMPI PUSH1 0x4 CALLDATALOAD PUSH1 0x0 SWAP1 DUP1 DUP3 MSTORE PUSH1 0x2 PUSH1 0x20 MSTORE PUSH2 0x4B1 PUSH1 0x40 DUP4 KECCAK256 SLOAD ISZERO ISZERO PUSH2 0x2432 JUMP JUMPDEST DUP1 DUP3 MSTORE PUSH1 0x2 PUSH1 0x20 MSTORE PUSH1 0x7 PUSH1 0x40 DUP4 KECCAK256 PUSH2 0x4D6 PUSH1 0x1 DUP1 PUSH1 0xA0 SHL SUB PUSH1 0xA DUP4 ADD SLOAD AND CALLER EQ PUSH2 0x274A JUMP JUMPDEST ADD PUSH1 0xFF DUP2 SLOAD PUSH1 0x8 SHR AND SWAP1 PUSH1 0x7 DUP3 LT ISZERO PUSH2 0x530 JUMPI PUSH2 0x4F8 PUSH1 0x1 PUSH2 0x507 SWAP4 EQ PUSH2 0x274A JUMP JUMPDEST DUP1 SLOAD PUSH2 0xFF00 NOT AND PUSH2 0x200 OR SWAP1 SSTORE JUMP JUMPDEST CALLER SWAP1 PUSH32 0x4883666EFF4707B2212B9BF824C3A2C47933345113365D6229F5ED2133604949 DUP4 DUP1 LOG3 DUP1 RETURN JUMPDEST PUSH2 0x8C9 JUMP JUMPDEST PUSH1 0x4 CALLDATALOAD SWAP1 PUSH1 0x1 PUSH1 0x1 PUSH1 0xA0 SHL SUB DUP3 AND DUP3 SUB PUSH2 0x47E JUMPI JUMP JUMPDEST CALLVALUE PUSH2 0x47E JUMPI PUSH1 0x20 CALLDATASIZE PUSH1 0x3 NOT ADD SLT PUSH2 0x47E JUMPI PUSH1 0x1 PUSH1 0x1 PUSH1 0xA0 SHL SUB PUSH2 0x56C PUSH2 0x535 JUMP JUMPDEST AND PUSH1 0x0 MSTORE PUSH1 0x7 PUSH1 0x20 MSTORE PUSH1 0x20 PUSH1 0x40 PUSH1 0x0 KECCAK256 SLOAD PUSH1 0x40 MLOAD SWAP1 DUP2 MSTORE RETURN JUMPDEST CALLVALUE PUSH2 0x47E JUMPI PUSH1 0x0 CALLDATASIZE PUSH1 0x3 NOT ADD SLT PUSH2 0x47E JUMPI PUSH1 0x20 PUSH1 0x40 MLOAD PUSH1 0x32 DUP2 MSTORE RETURN JUMPDEST CALLVALUE PUSH2 0x47E JUMPI PUSH1 0x0 CALLDATASIZE PUSH1 0x3 NOT ADD SLT PUSH2 0x47E JUMPI PUSH1 0x20 PUSH1 0xD SLOAD PUSH1 0x40 MLOAD SWAP1 DUP2 MSTORE RETURN JUMPDEST SWAP2 SWAP1 DUP3 MLOAD SWAP3 DUP4 DUP3 MSTORE PUSH1 0x0 JUMPDEST DUP5 DUP2 LT PUSH2 0x5EB JUMPI POP POP DUP3 PUSH1 0x0 PUSH1 0x20 DUP1 SWAP5 SWAP6 DUP5 ADD ADD MSTORE PUSH1 0x1F DUP1 NOT SWAP2 ADD AND ADD ADD SWAP1 JUMP JUMPDEST PUSH1 0x20 DUP2 DUP4 ADD DUP2 ADD MLOAD DUP5 DUP4 ADD DUP3 ADD MSTORE ADD PUSH2 0x5CA JUMP JUMPDEST PUSH1 0x20 DUP1 DUP3 ADD SWAP1 DUP1 DUP4 MSTORE DUP4 MLOAD DUP1 SWAP3 MSTORE PUSH1 0x40 SWAP3 DUP4 DUP2 ADD DUP3 DUP6 DUP6 PUSH1 0x5 SHL DUP5 ADD ADD SWAP7 ADD SWAP5 PUSH1 0x0 SWAP3 JUMPDEST DUP6 DUP5 LT PUSH2 0x634 JUMPI POP POP POP POP POP POP POP SWAP1 JUMP JUMPDEST SWAP1 SWAP2 SWAP3 SWAP4 SWAP5 SWAP6 SWAP7 DUP6 DUP1 PUSH1 0x1 SWAP3 PUSH1 0x3F NOT DUP6 DUP3 SUB ADD DUP8 MSTORE DUP11 MLOAD SWAP1 DUP5 DUP1 PUSH1 0xA0 SHL SUB DUP3 MLOAD AND DUP2 MSTORE DUP3 DUP3 ADD MLOAD DUP4 DUP3 ADD MSTORE DUP7 DUP3 ADD MLOAD DUP8 DUP3 ADD MSTORE PUSH2 0x680 PUSH1 0x60 DUP1 DUP5 ADD MLOAD SWAP1 PUSH1 0xE0 DUP1 SWAP2 DUP6 ADD MSTORE DUP4 ADD SWAP1 PUSH2 0x5BF JUMP JUMPDEST SWAP2 PUSH1 0x80 DUP1 DUP3 ADD MLOAD SWAP1 DUP4 ADD MSTORE PUSH1 0xA0 DUP1 DUP3 ADD MLOAD SWAP1 DUP4 ADD MSTORE PUSH1 0xC0 DUP1 SWAP2 ADD MLOAD ISZERO ISZERO SWAP2 ADD MSTORE SWAP10 ADD SWAP5 ADD SWAP5 ADD SWAP3 SWAP6 SWAP5 SWAP4 SWAP2 SWAP1 PUSH2 0x623 JUMP JUMPDEST CALLVALUE PUSH2 0x47E JUMPI PUSH1 0x20 DUP1 PUSH1 0x3 NOT CALLDATASIZE ADD SLT PUSH2 0x47E JUMPI PUSH1 0x4 DUP1 CALLDATALOAD PUSH1 0x0 MSTORE PUSH1 0x3 DUP1 DUP4 MSTORE PUSH1 0x40 SWAP3 DUP4 PUSH1 0x0 KECCAK256 SWAP1 DUP2 SLOAD SWAP3 PUSH2 0x6E3 DUP5 PUSH2 0x2B40 JUMP JUMPDEST SWAP5 PUSH2 0x6F0 DUP8 MLOAD SWAP7 DUP8 PUSH2 0x138D JUMP JUMPDEST DUP5 DUP7 MSTORE PUSH1 0x0 SWAP4 DUP5 MSTORE DUP3 DUP5 KECCAK256 SWAP2 DUP4 DUP8 ADD JUMPDEST DUP7 DUP7 LT PUSH2 0x718 JUMPI DUP9 MLOAD DUP1 PUSH2 0x714 DUP11 DUP3 PUSH2 0x5FF JUMP JUMPDEST SUB SWAP1 RETURN JUMPDEST PUSH1 0x7 DUP6 PUSH1 0x1 SWAP3 DUP12 MLOAD PUSH2 0x729 DUP2 PUSH2 0x134F JUMP JUMPDEST DUP8 SLOAD PUSH1 0xA0 DUP7 SWAP1 SHL DUP7 SWAP1 SUB AND PUSH1 0x1 PUSH1 0x1 PUSH1 0xA0 SHL SUB AND DUP2 MSTORE DUP5 DUP9 ADD SLOAD DUP4 DUP3 ADD MSTORE PUSH1 0x2 DUP9 ADD SLOAD DUP14 DUP3 ADD MSTORE PUSH2 0x75B DUP7 DUP10 ADD PUSH2 0x13AF JUMP JUMPDEST PUSH1 0x60 DUP3 ADD MSTORE DUP7 DUP9 ADD SLOAD PUSH1 0x80 DUP3 ADD MSTORE PUSH1 0x5 DUP9 ADD SLOAD PUSH1 0xA0 DUP3 ADD MSTORE PUSH2 0x78D PUSH2 0x784 PUSH1 0x6 DUP11 ADD SLOAD PUSH1 0xFF AND SWAP1 JUMP JUMPDEST ISZERO ISZERO PUSH1 0xC0 DUP4 ADD MSTORE JUMP JUMPDEST DUP2 MSTORE ADD SWAP5 ADD SWAP6 ADD SWAP5 SWAP3 PUSH2 0x700 JUMP JUMPDEST PUSH1 0x20 SWAP1 DUP2 PUSH1 0x40 DUP2 DUP4 ADD SWAP3 DUP3 DUP2 MSTORE DUP6 MLOAD DUP1 SWAP5 MSTORE ADD SWAP4 ADD SWAP2 PUSH1 0x0 JUMPDEST DUP3 DUP2 LT PUSH2 0x7C2 JUMPI POP POP POP POP SWAP1 JUMP JUMPDEST DUP4 MLOAD DUP6 MSTORE SWAP4 DUP2 ADD SWAP4 SWAP3 DUP2 ADD SWAP3 PUSH1 0x1 ADD PUSH2 0x7B4 JUMP JUMPDEST CALLVALUE PUSH2 0x47E JUMPI PUSH1 0x40 CALLDATASIZE PUSH1 0x3 NOT ADD SLT PUSH2 0x47E JUMPI PUSH1 0x24 CALLDATALOAD PUSH1 0x4 CALLDATALOAD PUSH2 0x7F6 DUP3 PUSH2 0x2B40 JUMP JUMPDEST SWAP1 PUSH2 0x804 PUSH1 0x40 MLOAD SWAP3 DUP4 PUSH2 0x138D JUMP JUMPDEST DUP3 DUP3 MSTORE PUSH1 0x1F NOT PUSH2 0x813 DUP5 PUSH2 0x2B40 JUMP JUMPDEST ADD CALLDATASIZE PUSH1 0x20 DUP5 ADD CALLDATACOPY PUSH1 0x0 SWAP3 PUSH1 0x1 SWAP2 DUP3 DUP2 ADD DUP1 SWAP2 GT PUSH2 0x8C4 JUMPI DUP3 SLOAD SWAP1 DUP4 JUMPDEST PUSH2 0x845 JUMPI JUMPDEST DUP6 DUP6 MSTORE PUSH1 0x40 MLOAD DUP1 PUSH2 0x714 DUP8 DUP3 PUSH2 0x79B JUMP JUMPDEST DUP2 DUP2 LT DUP1 PUSH2 0x8BB JUMPI JUMPDEST ISZERO PUSH2 0x8B6 JUMPI PUSH2 0x877 PUSH1 0x7 PUSH2 0x86C DUP4 PUSH1 0x0 MSTORE PUSH1 0x2 PUSH1 0x20 MSTORE PUSH1 0x40 PUSH1 0x0 KECCAK256 SWAP1 JUMP JUMPDEST ADD SLOAD PUSH1 0x8 SHR PUSH1 0xFF AND SWAP1 JUMP JUMPDEST PUSH2 0x880 DUP2 PUSH2 0x8F6 JUMP JUMPDEST ISZERO PUSH2 0x895 JUMPI JUMPDEST PUSH2 0x88F SWAP1 PUSH2 0x204C JUMP JUMPDEST DUP4 PUSH2 0x82F JUMP JUMPDEST SWAP5 PUSH2 0x8AE DUP2 DUP8 PUSH2 0x8A8 PUSH2 0x88F SWAP5 DUP10 PUSH2 0x2B58 JUMP JUMPDEST MSTORE PUSH2 0x204C JUMP JUMPDEST SWAP6 SWAP1 POP PUSH2 0x886 JUMP JUMPDEST PUSH2 0x834 JUMP JUMPDEST POP DUP3 DUP7 LT PUSH2 0x84E JUMP JUMPDEST PUSH2 0x2036 JUMP JUMPDEST PUSH4 0x4E487B71 PUSH1 0xE0 SHL PUSH1 0x0 MSTORE PUSH1 0x21 PUSH1 0x4 MSTORE PUSH1 0x24 PUSH1 0x0 REVERT JUMPDEST PUSH1 0x4 GT ISZERO PUSH2 0x530 JUMPI JUMP JUMPDEST SWAP1 PUSH1 0x4 DUP3 LT ISZERO PUSH2 0x530 JUMPI MSTORE JUMP JUMPDEST PUSH1 0x7 GT ISZERO PUSH2 0x530 JUMPI JUMP JUMPDEST SWAP1 PUSH1 0x7 DUP3 LT ISZERO PUSH2 0x530 JUMPI MSTORE JUMP JUMPDEST PUSH1 0x20 DUP1 DUP3 MSTORE DUP3 MLOAD DUP3 DUP3 ADD MSTORE DUP3 ADD MLOAD PUSH1 0x1 PUSH1 0x1 PUSH1 0xA0 SHL SUB AND PUSH1 0x40 DUP3 ADD MSTORE PUSH1 0x40 DUP3 ADD MLOAD PUSH2 0x946 PUSH2 0x1C0 SWAP2 DUP3 PUSH1 0x60 DUP6 ADD MSTORE PUSH2 0x1E0 DUP5 ADD SWAP1 PUSH2 0x5BF JUMP JUMPDEST PUSH2 0x9FC PUSH2 0x97C PUSH2 0x968 PUSH1 0x60 DUP8 ADD MLOAD SWAP4 PUSH1 0x1F NOT SWAP5 DUP6 DUP9 DUP4 SUB ADD PUSH1 0x80 DUP10 ADD MSTORE PUSH2 0x5BF JUMP JUMPDEST PUSH1 0x80 DUP8 ADD MLOAD DUP5 DUP8 DUP4 SUB ADD PUSH1 0xA0 DUP9 ADD MSTORE PUSH2 0x5BF JUMP JUMPDEST PUSH1 0xA0 DUP7 ADD MLOAD PUSH1 0xC0 DUP7 ADD MSTORE PUSH1 0xC0 DUP7 ADD MLOAD PUSH1 0xE0 DUP7 ADD MSTORE PUSH1 0xE0 DUP7 ADD MLOAD PUSH2 0x9A5 PUSH2 0x100 SWAP2 DUP3 DUP9 ADD SWAP1 PUSH2 0x8E9 JUMP JUMPDEST DUP7 ADD MLOAD PUSH2 0x9B8 PUSH2 0x120 SWAP2 DUP3 DUP9 ADD SWAP1 PUSH2 0x900 JUMP JUMPDEST DUP7 ADD MLOAD PUSH2 0x140 SWAP1 DUP2 DUP8 ADD MSTORE DUP7 ADD MLOAD PUSH2 0x160 SWAP1 DUP2 DUP8 ADD MSTORE DUP7 ADD MLOAD PUSH2 0x9E8 PUSH2 0x180 SWAP2 DUP3 DUP9 ADD SWAP1 PUSH1 0x1 DUP1 PUSH1 0xA0 SHL SUB AND SWAP1 MSTORE JUMP JUMPDEST DUP7 ADD MLOAD PUSH2 0x1A0 SWAP4 DUP7 DUP4 SUB ADD DUP5 DUP8 ADD MSTORE PUSH2 0x5BF JUMP JUMPDEST SWAP4 ADD MLOAD SWAP2 ADD MSTORE SWAP1 JUMP JUMPDEST CALLVALUE PUSH2 0x47E JUMPI PUSH1 0x20 CALLDATASIZE PUSH1 0x3 NOT ADD SLT PUSH2 0x47E JUMPI PUSH1 0x40 MLOAD PUSH2 0xA22 DUP2 PUSH2 0x1370 JUMP JUMPDEST PUSH2 0x1A0 PUSH1 0x0 SWAP2 DUP3 DUP2 MSTORE DUP3 PUSH1 0x20 DUP3 ADD MSTORE PUSH1 0x60 PUSH1 0x40 DUP3 ADD MSTORE PUSH1 0x60 DUP1 DUP3 ADD MSTORE PUSH1 0x60 PUSH1 0x80 DUP3 ADD MSTORE DUP3 PUSH1 0xA0 DUP3 ADD MSTORE DUP3 PUSH1 0xC0 DUP3 ADD MSTORE DUP3 PUSH1 0xE0 DUP3 ADD MSTORE DUP3 PUSH2 0x100 DUP3 ADD MSTORE DUP3 PUSH2 0x120 DUP3 ADD MSTORE DUP3 PUSH2 0x140 DUP3 ADD MSTORE DUP3 PUSH2 0x160 DUP3 ADD MSTORE PUSH1 0x60 PUSH2 0x180 DUP3 ADD MSTORE ADD MSTORE PUSH2 0x714 PUSH2 0xA9E PUSH2 0xA99 PUSH1 0x4 CALLDATALOAD PUSH1 0x0 MSTORE PUSH1 0x2 PUSH1 0x20 MSTORE PUSH1 0x40 PUSH1 0x0 KECCAK256 SWAP1 JUMP JUMPDEST PUSH2 0x2A69 JUMP JUMPDEST PUSH1 0x40 MLOAD SWAP2 DUP3 SWAP2 DUP3 PUSH2 0x90D JUMP JUMPDEST SWAP2 DUP2 PUSH1 0x1F DUP5 ADD SLT ISZERO PUSH2 0x47E JUMPI DUP3 CALLDATALOAD SWAP2 PUSH8 0xFFFFFFFFFFFFFFFF DUP4 GT PUSH2 0x47E JUMPI PUSH1 0x20 DUP4 DUP2 DUP7 ADD SWAP6 ADD ADD GT PUSH2 0x47E JUMPI JUMP JUMPDEST CALLVALUE PUSH2 0x47E JUMPI PUSH1 0x80 CALLDATASIZE PUSH1 0x3 NOT ADD SLT PUSH2 0x47E JUMPI PUSH1 0x44 CALLDATALOAD PUSH1 0x24 CALLDATALOAD PUSH1 0x4 CALLDATALOAD PUSH1 0x64 CALLDATALOAD PUSH8 0xFFFFFFFFFFFFFFFF DUP2 GT PUSH2 0x47E JUMPI PUSH2 0xB12 SWAP1 CALLDATASIZE SWAP1 PUSH1 0x4 ADD PUSH2 0xAAA JUMP JUMPDEST PUSH1 0x0 SWAP5 SWAP2 PUSH1 0xFF DUP7 SLOAD AND PUSH2 0x46C JUMPI PUSH2 0xB27 PUSH2 0x2402 JUMP JUMPDEST DUP4 DUP7 MSTORE PUSH1 0x2 PUSH1 0x20 MSTORE PUSH2 0xB3E PUSH1 0x40 DUP8 KECCAK256 SLOAD ISZERO ISZERO PUSH2 0x2432 JUMP JUMPDEST PUSH2 0xB52 DUP5 PUSH1 0x0 MSTORE PUSH1 0x2 PUSH1 0x20 MSTORE PUSH1 0x40 PUSH1 0x0 KECCAK256 SWAP1 JUMP JUMPDEST PUSH1 0x7 DUP2 ADD SLOAD PUSH2 0xB66 SWAP1 PUSH1 0x8 SHR PUSH1 0xFF AND PUSH2 0x346 JUMP JUMPDEST PUSH2 0xB75 PUSH1 0x9 DUP3 ADD SLOAD TIMESTAMP LT PUSH2 0x24A6 JUMP JUMPDEST PUSH2 0xB85 PUSH1 0x5 DUP3 ADD SLOAD DUP8 GT ISZERO PUSH2 0x24E4 JUMP JUMPDEST PUSH1 0x1 SWAP1 DUP2 ADD SLOAD PUSH2 0xBB1 SWAP1 PUSH2 0xBA9 SWAP1 PUSH1 0x1 PUSH1 0x1 PUSH1 0xA0 SHL SUB AND JUMPDEST PUSH1 0x1 PUSH1 0x1 PUSH1 0xA0 SHL SUB AND SWAP1 JUMP JUMPDEST CALLER EQ ISZERO PUSH2 0x2525 JUMP JUMPDEST PUSH2 0xBD1 PUSH1 0x32 PUSH2 0xBCA DUP8 PUSH1 0x0 MSTORE PUSH1 0x3 PUSH1 0x20 MSTORE PUSH1 0x40 PUSH1 0x0 KECCAK256 SWAP1 JUMP JUMPDEST SLOAD LT PUSH2 0x256A JUMP JUMPDEST DUP7 DUP2 JUMPDEST PUSH2 0xC83 JUMPI JUMPDEST POP POP CALLER PUSH1 0x0 SWAP1 DUP2 MSTORE PUSH1 0x5 PUSH1 0x20 MSTORE PUSH1 0x40 SWAP1 KECCAK256 PUSH32 0x71A5674C44B823BC0DF08201DFEB2E8BDF698CD684FD2BBAA79ADCF2C99FC186 SWAP4 PUSH2 0x44F SWAP4 SWAP1 SWAP3 PUSH2 0xC6A SWAP3 PUSH2 0xC3B SWAP1 SLOAD SWAP2 PUSH2 0xC24 PUSH2 0x2076 JUMP JUMPDEST CALLER DUP2 MSTORE SWAP4 DUP11 PUSH1 0x20 DUP7 ADD MSTORE DUP7 PUSH1 0x40 DUP7 ADD MSTORE CALLDATASIZE SWAP2 PUSH2 0x20AC JUMP JUMPDEST PUSH1 0x60 DUP4 ADD MSTORE PUSH1 0x80 DUP3 ADD MSTORE TIMESTAMP PUSH1 0xA0 DUP3 ADD MSTORE DUP8 PUSH1 0xC0 DUP3 ADD MSTORE PUSH2 0xC65 DUP7 PUSH1 0x0 MSTORE PUSH1 0x3 PUSH1 0x20 MSTORE PUSH1 0x40 PUSH1 0x0 KECCAK256 SWAP1 JUMP JUMPDEST PUSH2 0x25E3 JUMP JUMPDEST PUSH1 0x40 DUP1 MLOAD SWAP6 DUP7 MSTORE PUSH1 0x20 DUP7 ADD SWAP2 SWAP1 SWAP2 MSTORE CALLER SWAP5 SWAP2 DUP3 SWAP2 DUP3 ADD SWAP1 JUMP JUMPDEST PUSH2 0xC97 DUP7 PUSH1 0x0 MSTORE PUSH1 0x3 PUSH1 0x20 MSTORE PUSH1 0x40 PUSH1 0x0 KECCAK256 SWAP1 JUMP JUMPDEST SLOAD DUP2 LT ISZERO PUSH2 0xCE6 JUMPI DUP1 PUSH2 0xCDB PUSH2 0xCBE PUSH2 0xCE0 SWAP4 PUSH2 0x388 DUP11 PUSH1 0x0 MSTORE PUSH1 0x3 PUSH1 0x20 MSTORE PUSH1 0x40 PUSH1 0x0 KECCAK256 SWAP1 JUMP JUMPDEST POP SLOAD CALLER SWAP1 PUSH2 0xCD4 SWAP1 PUSH1 0x1 PUSH1 0x1 PUSH1 0xA0 SHL SUB AND PUSH2 0xB9D JUMP JUMPDEST EQ ISZERO PUSH2 0x25A9 JUMP JUMPDEST PUSH2 0x204C JUMP JUMPDEST DUP2 PUSH2 0xBD4 JUMP JUMPDEST PUSH2 0xBD9 JUMP JUMPDEST CALLVALUE PUSH2 0x47E JUMPI PUSH1 0x0 CALLDATASIZE PUSH1 0x3 NOT ADD SLT PUSH2 0x47E JUMPI PUSH1 0x20 PUSH1 0x9 SLOAD PUSH1 0x40 MLOAD SWAP1 DUP2 MSTORE RETURN JUMPDEST CALLVALUE PUSH2 0x47E JUMPI PUSH1 0x20 CALLDATASIZE PUSH1 0x3 NOT ADD SLT PUSH2 0x47E JUMPI PUSH1 0xFF PUSH1 0x0 SLOAD AND PUSH2 0x46C JUMPI PUSH2 0xD2C PUSH2 0x2402 JUMP JUMPDEST PUSH1 0x4 CALLDATALOAD PUSH1 0x0 MSTORE PUSH1 0x2 PUSH1 0x20 MSTORE PUSH1 0x40 PUSH1 0x0 KECCAK256 SLOAD ISZERO ISZERO PUSH2 0xD48 SWAP1 PUSH2 0x2432 JUMP JUMPDEST PUSH1 0x4 CALLDATALOAD PUSH1 0x0 MSTORE PUSH1 0x2 PUSH1 0x20 MSTORE PUSH1 0x1 PUSH1 0xA0 SHL PUSH1 0x1 SWAP1 SUB PUSH1 0x40 PUSH1 0x0 KECCAK256 PUSH1 0x1 ADD SLOAD AND CALLER EQ PUSH2 0xD71 SWAP1 PUSH2 0x2698 JUMP JUMPDEST PUSH1 0x4 CALLDATALOAD PUSH2 0xD88 SWAP1 PUSH1 0x0 MSTORE PUSH1 0x2 PUSH1 0x20 MSTORE PUSH1 0x40 PUSH1 0x0 KECCAK256 SWAP1 JUMP JUMPDEST PUSH1 0x7 DUP2 ADD DUP1 SLOAD PUSH1 0x8 SHR PUSH1 0xFF AND PUSH2 0xD9D DUP2 PUSH2 0x8F6 JUMP JUMPDEST PUSH1 0x3 EQ PUSH2 0xDA9 SWAP1 PUSH2 0x2894 JUMP JUMPDEST DUP1 SLOAD PUSH2 0xFF00 NOT AND PUSH2 0x500 OR SWAP1 SSTORE PUSH1 0x5 DUP2 ADD SLOAD SWAP1 PUSH2 0xDC5 DUP3 PUSH2 0x28D0 JUMP JUMPDEST PUSH2 0x2710 SWAP1 DIV SWAP2 DUP3 PUSH2 0xDD5 SWAP2 PUSH2 0x28F9 JUMP JUMPDEST SWAP2 PUSH1 0x6 DUP3 ADD SLOAD PUSH1 0xE SLOAD SWAP1 PUSH2 0xDE8 SWAP2 PUSH2 0x28F9 JUMP JUMPDEST PUSH1 0xE SSTORE DUP1 PUSH1 0xF SLOAD SWAP1 PUSH2 0xDF9 SWAP2 PUSH2 0x2069 JUMP JUMPDEST PUSH1 0xF SSTORE PUSH1 0xD SLOAD PUSH2 0xE08 SWAP1 PUSH2 0x204C JUMP JUMPDEST PUSH1 0xD SSTORE PUSH1 0xA DUP3 ADD SLOAD PUSH1 0x1 PUSH1 0x1 PUSH1 0xA0 SHL SUB AND PUSH1 0x0 SWAP1 DUP2 MSTORE PUSH1 0x5 PUSH1 0x20 MSTORE PUSH1 0x40 SWAP1 KECCAK256 DUP1 SLOAD PUSH2 0xE32 SWAP1 PUSH2 0x205B JUMP JUMPDEST SWAP1 SSTORE PUSH1 0xA DUP3 ADD SLOAD PUSH1 0x1 PUSH1 0x1 PUSH1 0xA0 SHL SUB AND PUSH1 0x0 SWAP1 DUP2 MSTORE PUSH1 0x6 PUSH1 0x20 MSTORE PUSH1 0x40 SWAP1 KECCAK256 DUP1 SLOAD PUSH2 0xE5B SWAP1 PUSH2 0x204C JUMP JUMPDEST SWAP1 SSTORE PUSH1 0xA DUP3 ADD SLOAD PUSH1 0x1 PUSH1 0x1 PUSH1 0xA0 SHL SUB AND PUSH1 0x0 SWAP1 DUP2 MSTORE PUSH1 0x7 PUSH1 0x20 MSTORE PUSH1 0x40 SWAP1 KECCAK256 DUP1 SLOAD PUSH2 0xE86 SWAP1 DUP6 SWAP1 PUSH2 0x2069 JUMP JUMPDEST SWAP1 SSTORE PUSH1 0xA DUP3 ADD SLOAD DUP4 SWAP1 PUSH1 0x1 PUSH1 0x1 PUSH1 0xA0 SHL SUB AND GAS PUSH1 0x0 DUP1 SWAP4 DUP2 SWAP4 DUP3 SWAP4 CALL PUSH2 0xEAA PUSH2 0x2906 JUMP JUMPDEST POP PUSH2 0xEB4 SWAP1 PUSH2 0x2936 JUMP JUMPDEST PUSH1 0x8 SLOAD PUSH1 0x1 PUSH1 0x1 PUSH1 0xA0 SHL SUB AND GAS PUSH1 0x0 DUP1 SWAP4 DUP2 SWAP4 DUP3 SWAP4 CALL PUSH2 0xED2 PUSH2 0x2906 JUMP JUMPDEST POP PUSH2 0xEDC SWAP1 PUSH2 0x2973 JUMP JUMPDEST PUSH1 0x6 DUP2 ADD SLOAD PUSH1 0x5 DUP3 ADD SLOAD PUSH2 0xEEF SWAP2 PUSH2 0x28F9 JUMP JUMPDEST DUP1 ISZERO ISZERO PUSH2 0xF35 PUSH1 0xA PUSH32 0xFC577563F1B9A0461E24ABEF1E1FCC0D33D3D881F20B5DF6DDA59DE4AAE2C821 SWAP5 PUSH2 0xF9D SWAP5 PUSH2 0xF8C SWAP5 PUSH2 0xFB7 JUMPI JUMPDEST POP ADD SLOAD PUSH1 0x1 PUSH1 0x1 PUSH1 0xA0 SHL SUB AND SWAP1 JUMP JUMPDEST PUSH1 0x40 MLOAD SWAP5 DUP6 MSTORE PUSH1 0x1 PUSH1 0x1 PUSH1 0xA0 SHL SUB DUP2 AND SWAP5 DUP6 SWAP1 PUSH1 0x4 CALLDATALOAD SWAP1 PUSH32 0x224350E49B29E656CB8C93D7379C7DDB4907C6009B64159A5E70D38092EAE197 SWAP1 PUSH1 0x20 SWAP1 LOG3 PUSH1 0x1 PUSH1 0x1 PUSH1 0xA0 SHL SUB AND PUSH1 0x0 SWAP1 DUP2 MSTORE PUSH1 0x5 PUSH1 0x20 MSTORE PUSH1 0x40 SWAP1 KECCAK256 SWAP1 JUMP JUMPDEST SLOAD PUSH1 0x40 MLOAD SWAP1 DUP2 MSTORE SWAP1 DUP2 SWAP1 PUSH1 0x20 DUP3 ADD SWAP1 JUMP JUMPDEST SUB SWAP1 LOG2 PUSH2 0x19 PUSH1 0x1 PUSH1 0x0 DUP1 MLOAD PUSH1 0x20 PUSH2 0x2B6D DUP4 CODECOPY DUP2 MLOAD SWAP2 MSTORE SSTORE JUMP JUMPDEST PUSH1 0x0 DUP1 DUP1 DUP1 PUSH2 0xFE3 SWAP5 PUSH2 0xFD3 PUSH1 0x1 DUP9 ADD SLOAD PUSH1 0x1 DUP1 PUSH1 0xA0 SHL SUB AND SWAP1 JUMP JUMPDEST GAS CALL PUSH2 0xFDD PUSH2 0x2906 JUMP JUMPDEST POP PUSH2 0x29B5 JUMP JUMPDEST CODESIZE PUSH2 0xF26 JUMP JUMPDEST CALLVALUE PUSH2 0x47E JUMPI PUSH1 0x0 DUP1 PUSH1 0x3 NOT CALLDATASIZE ADD SLT PUSH2 0x1071 JUMPI DUP1 SLOAD PUSH1 0x8 DUP2 SWAP1 SHR PUSH1 0x1 PUSH1 0x1 PUSH1 0xA0 SHL SUB AND CALLER SUB PUSH2 0x105F JUMPI PUSH1 0xFF DUP2 AND ISZERO PUSH2 0x104D JUMPI PUSH1 0xFF NOT AND DUP2 SSTORE PUSH32 0x5DB9EE0A495BF2E6FF9C91A7834C1BA4FDD244A5E8AA4E537BD38AEAE4B073AA PUSH1 0x20 PUSH1 0x40 MLOAD CALLER DUP2 MSTORE LOG1 DUP1 RETURN JUMPDEST PUSH1 0x40 MLOAD PUSH4 0xDCDDE9DD PUSH1 0xE0 SHL DUP2 MSTORE PUSH1 0x4 SWAP1 REVERT JUMPDEST PUSH1 0x40 MLOAD PUSH4 0x492F6781 PUSH1 0xE0 SHL DUP2 MSTORE PUSH1 0x4 SWAP1 REVERT JUMPDEST DUP1 REVERT JUMPDEST CALLVALUE PUSH2 0x47E JUMPI PUSH1 0x20 CALLDATASIZE PUSH1 0x3 NOT ADD SLT PUSH2 0x47E JUMPI PUSH2 0x108D PUSH2 0x535 JUMP JUMPDEST PUSH1 0x0 SLOAD PUSH1 0x8 SHR PUSH1 0x1 PUSH1 0x1 PUSH1 0xA0 SHL SUB SWAP1 DUP2 AND SWAP1 CALLER DUP3 SWAP1 SUB PUSH2 0x105F JUMPI DUP3 AND SWAP2 DUP3 ISZERO PUSH2 0x10FC JUMPI PUSH1 0x0 DUP1 SLOAD PUSH2 0x100 PUSH1 0x1 PUSH1 0xA8 SHL SUB NOT AND PUSH1 0x8 SWAP3 SWAP1 SWAP3 SHL PUSH2 0x100 PUSH1 0x1 PUSH1 0xA8 SHL SUB AND SWAP2 SWAP1 SWAP2 OR SWAP1 SSTORE PUSH32 0x51C4874E0F23F262E04A38C51751336DDE72126D67F53EB672AAFF02996B3EF6 PUSH1 0x0 DUP1 LOG3 STOP JUMPDEST PUSH1 0x40 MLOAD PUSH3 0x461BCD PUSH1 0xE5 SHL DUP2 MSTORE PUSH1 0x20 PUSH1 0x4 DUP3 ADD MSTORE PUSH1 0x16 PUSH1 0x24 DUP3 ADD MSTORE PUSH22 0x496E76616C6964207061757365722061646472657373 PUSH1 0x50 SHL PUSH1 0x44 DUP3 ADD MSTORE PUSH1 0x64 SWAP1 REVERT JUMPDEST CALLVALUE PUSH2 0x47E JUMPI PUSH1 0x0 CALLDATASIZE PUSH1 0x3 NOT ADD SLT PUSH2 0x47E JUMPI PUSH1 0x8 SLOAD PUSH1 0x40 MLOAD PUSH1 0x1 PUSH1 0x1 PUSH1 0xA0 SHL SUB SWAP1 SWAP2 AND DUP2 MSTORE PUSH1 0x20 SWAP1 RETURN JUMPDEST SWAP1 PUSH1 0x40 PUSH1 0x3 NOT DUP4 ADD SLT PUSH2 0x47E JUMPI PUSH1 0x4 CALLDATALOAD SWAP2 PUSH1 0x24 CALLDATALOAD SWAP1 PUSH8 0xFFFFFFFFFFFFFFFF DUP3 GT PUSH2 0x47E JUMPI PUSH2 0x1193 SWAP2 PUSH1 0x4 ADD PUSH2 0xAAA JUMP JUMPDEST SWAP1 SWAP2 JUMP JUMPDEST CALLVALUE PUSH2 0x47E JUMPI PUSH32 0x2214F6A8B429291289D3AFCDFCCC59167B10F1D8AD1529E3959F9CD19F19AF5F PUSH2 0x126E PUSH2 0x11C9 CALLDATASIZE PUSH2 0x1163 JUMP JUMPDEST DUP3 PUSH1 0x0 SWAP6 SWAP4 SWAP5 SWAP3 SWAP6 MSTORE PUSH1 0x2 PUSH1 0x20 MSTORE PUSH2 0x11E7 PUSH1 0x40 PUSH1 0x0 KECCAK256 SLOAD ISZERO ISZERO PUSH2 0x2432 JUMP JUMPDEST PUSH2 0x1260 PUSH1 0x7 PUSH2 0x1200 DUP7 PUSH1 0x0 MSTORE PUSH1 0x2 PUSH1 0x20 MSTORE PUSH1 0x40 PUSH1 0x0 KECCAK256 SWAP1 JUMP JUMPDEST PUSH1 0x1 DUP2 ADD SLOAD PUSH2 0x1217 SWAP1 PUSH1 0x1 PUSH1 0x1 PUSH1 0xA0 SHL SUB AND PUSH2 0xB9D JUMP JUMPDEST CALLER EQ DUP1 ISZERO PUSH2 0x1287 JUMPI JUMPDEST PUSH2 0x1229 SWAP1 PUSH2 0x29F1 JUMP JUMPDEST ADD DUP1 SLOAD PUSH2 0x1251 SWAP1 PUSH1 0x8 SHR PUSH1 0xFF AND PUSH2 0x123F DUP2 PUSH2 0x8F6 JUMP JUMPDEST PUSH1 0x2 DUP2 EQ SWAP1 DUP2 ISZERO PUSH2 0x1273 JUMPI JUMPDEST POP PUSH2 0x2A2C JUMP JUMPDEST DUP1 SLOAD PUSH2 0xFF00 NOT AND PUSH2 0x400 OR SWAP1 SSTORE JUMP JUMPDEST PUSH1 0x40 MLOAD SWAP2 DUP3 SWAP2 CALLER SWAP7 DUP4 PUSH2 0x2883 JUMP JUMPDEST SUB SWAP1 LOG3 STOP JUMPDEST PUSH1 0x3 SWAP2 POP PUSH2 0x1280 DUP2 PUSH2 0x8F6 JUMP JUMPDEST EQ CODESIZE PUSH2 0x124B JUMP JUMPDEST POP PUSH1 0xA DUP2 ADD SLOAD PUSH2 0x1229 SWAP1 PUSH2 0x12A3 SWAP1 PUSH1 0x1 PUSH1 0x1 PUSH1 0xA0 SHL SUB AND PUSH2 0xB9D JUMP JUMPDEST CALLER EQ SWAP1 POP PUSH2 0x1220 JUMP JUMPDEST CALLVALUE PUSH2 0x47E JUMPI PUSH1 0x0 CALLDATASIZE PUSH1 0x3 NOT ADD SLT PUSH2 0x47E JUMPI PUSH1 0x20 PUSH1 0x40 MLOAD PUSH1 0x64 DUP2 MSTORE RETURN JUMPDEST PUSH4 0x4E487B71 PUSH1 0xE0 SHL PUSH1 0x0 MSTORE PUSH1 0x32 PUSH1 0x4 MSTORE PUSH1 0x24 PUSH1 0x0 REVERT JUMPDEST DUP1 SLOAD DUP3 LT ISZERO PUSH2 0x12FA JUMPI PUSH1 0x0 MSTORE PUSH1 0x7 PUSH1 0x20 PUSH1 0x0 KECCAK256 SWAP2 MUL ADD SWAP1 PUSH1 0x0 SWAP1 JUMP JUMPDEST PUSH2 0x12C8 JUMP JUMPDEST SWAP1 PUSH1 0x1 DUP3 DUP2 SHR SWAP3 AND DUP1 ISZERO PUSH2 0x132F JUMPI JUMPDEST PUSH1 0x20 DUP4 LT EQ PUSH2 0x1319 JUMPI JUMP JUMPDEST PUSH4 0x4E487B71 PUSH1 0xE0 SHL PUSH1 0x0 MSTORE PUSH1 0x22 PUSH1 0x4 MSTORE PUSH1 0x24 PUSH1 0x0 REVERT JUMPDEST SWAP2 PUSH1 0x7F AND SWAP2 PUSH2 0x130E JUMP JUMPDEST PUSH4 0x4E487B71 PUSH1 0xE0 SHL PUSH1 0x0 MSTORE PUSH1 0x41 PUSH1 0x4 MSTORE PUSH1 0x24 PUSH1 0x0 REVERT JUMPDEST PUSH1 0xE0 DUP2 ADD SWAP1 DUP2 LT PUSH8 0xFFFFFFFFFFFFFFFF DUP3 GT OR PUSH2 0x136B JUMPI PUSH1 0x40 MSTORE JUMP JUMPDEST PUSH2 0x1339 JUMP JUMPDEST PUSH2 0x1C0 DUP2 ADD SWAP1 DUP2 LT PUSH8 0xFFFFFFFFFFFFFFFF DUP3 GT OR PUSH2 0x136B JUMPI PUSH1 0x40 MSTORE JUMP JUMPDEST SWAP1 PUSH1 0x1F DUP1 NOT SWAP2 ADD AND DUP2 ADD SWAP1 DUP2 LT PUSH8 0xFFFFFFFFFFFFFFFF DUP3 GT OR PUSH2 0x136B JUMPI PUSH1 0x40 MSTORE JUMP JUMPDEST SWAP1 PUSH1 0x40 MLOAD SWAP2 DUP3 PUSH1 0x0 DUP3 SLOAD SWAP3 PUSH2 0x13C3 DUP5 PUSH2 0x12FF JUMP JUMPDEST SWAP1 DUP2 DUP5 MSTORE PUSH1 0x1 SWAP5 DUP6 DUP2 AND SWAP1 DUP2 PUSH1 0x0 EQ PUSH2 0x1432 JUMPI POP PUSH1 0x1 EQ PUSH2 0x13EF JUMPI JUMPDEST POP POP PUSH2 0x13ED SWAP3 POP SUB DUP4 PUSH2 0x138D JUMP JUMPDEST JUMP JUMPDEST SWAP1 SWAP4 SWAP2 POP PUSH1 0x0 MSTORE PUSH1 0x20 SWAP1 DUP2 PUSH1 0x0 KECCAK256 SWAP4 PUSH1 0x0 SWAP2 JUMPDEST DUP2 DUP4 LT PUSH2 0x141A JUMPI POP POP PUSH2 0x13ED SWAP4 POP DUP3 ADD ADD CODESIZE DUP1 PUSH2 0x13DF JUMP JUMPDEST DUP6 SLOAD DUP9 DUP5 ADD DUP6 ADD MSTORE SWAP5 DUP6 ADD SWAP5 DUP8 SWAP5 POP SWAP2 DUP4 ADD SWAP2 PUSH2 0x1402 JUMP JUMPDEST SWAP2 POP POP PUSH2 0x13ED SWAP5 POP PUSH1 0x20 SWAP3 POP PUSH1 0xFF NOT AND DUP3 DUP5 ADD MSTORE ISZERO ISZERO PUSH1 0x5 SHL DUP3 ADD ADD CODESIZE DUP1 PUSH2 0x13DF JUMP JUMPDEST SWAP6 SWAP3 PUSH2 0x1487 SWAP3 PUSH1 0xC0 SWAP7 SWAP10 SWAP9 SWAP6 SWAP3 PUSH1 0x1 DUP1 PUSH1 0xA0 SHL SUB AND DUP9 MSTORE PUSH1 0x20 DUP9 ADD MSTORE PUSH1 0x40 DUP8 ADD MSTORE PUSH1 0xE0 PUSH1 0x60 DUP8 ADD MSTORE PUSH1 0xE0 DUP7 ADD SWAP1 PUSH2 0x5BF JUMP JUMPDEST SWAP6 PUSH1 0x80 DUP6 ADD MSTORE PUSH1 0xA0 DUP5 ADD MSTORE ISZERO ISZERO SWAP2 ADD MSTORE JUMP JUMPDEST CALLVALUE PUSH2 0x47E JUMPI PUSH1 0x40 CALLDATASIZE PUSH1 0x3 NOT ADD SLT PUSH2 0x47E JUMPI PUSH1 0x24 CALLDATALOAD PUSH1 0x4 CALLDATALOAD PUSH1 0x0 MSTORE PUSH1 0x3 PUSH1 0x20 MSTORE PUSH1 0x40 PUSH1 0x0 KECCAK256 SWAP1 DUP2 SLOAD DUP2 LT ISZERO PUSH2 0x47E JUMPI PUSH2 0x14D0 SWAP2 PUSH2 0x12DE JUMP JUMPDEST POP PUSH1 0x1 DUP1 PUSH1 0xA0 SHL SUB DUP2 SLOAD AND PUSH2 0x714 PUSH1 0x1 DUP4 ADD SLOAD SWAP3 PUSH1 0x2 DUP2 ADD SLOAD SWAP1 PUSH2 0x14F6 PUSH1 0x3 DUP3 ADD PUSH2 0x13AF JUMP JUMPDEST PUSH1 0x4 DUP3 ADD SLOAD SWAP1 PUSH1 0xFF PUSH1 0x6 PUSH1 0x5 DUP6 ADD SLOAD SWAP5 ADD SLOAD AND SWAP4 PUSH1 0x40 MLOAD SWAP8 DUP9 SWAP8 DUP9 PUSH2 0x1455 JUMP JUMPDEST CALLVALUE PUSH2 0x47E JUMPI PUSH1 0x20 CALLDATASIZE PUSH1 0x3 NOT ADD SLT PUSH2 0x47E JUMPI PUSH1 0x1 PUSH1 0x1 PUSH1 0xA0 SHL SUB PUSH2 0x1537 PUSH2 0x535 JUMP JUMPDEST AND PUSH1 0x0 MSTORE PUSH1 0x5 PUSH1 0x20 MSTORE PUSH1 0x20 PUSH1 0x40 PUSH1 0x0 KECCAK256 SLOAD PUSH1 0x40 MLOAD SWAP1 DUP2 MSTORE RETURN JUMPDEST CALLVALUE PUSH2 0x47E JUMPI PUSH1 0x0 CALLDATASIZE PUSH1 0x3 NOT ADD SLT PUSH2 0x47E JUMPI PUSH1 0x20 PUSH1 0xFF PUSH1 0x0 SLOAD AND PUSH1 0x40 MLOAD SWAP1 ISZERO ISZERO DUP2 MSTORE RETURN JUMPDEST CALLVALUE PUSH2 0x47E JUMPI PUSH1 0x0 CALLDATASIZE PUSH1 0x3 NOT ADD SLT PUSH2 0x47E JUMPI PUSH1 0x20 PUSH1 0x40 MLOAD PUSH2 0xE10 DUP2 MSTORE RETURN JUMPDEST CALLVALUE PUSH2 0x47E JUMPI PUSH1 0x0 CALLDATASIZE PUSH1 0x3 NOT ADD SLT PUSH2 0x47E JUMPI PUSH1 0x20 PUSH1 0xF SLOAD PUSH1 0x40 MLOAD SWAP1 DUP2 MSTORE RETURN JUMPDEST CALLVALUE PUSH2 0x47E JUMPI PUSH1 0x0 CALLDATASIZE PUSH1 0x3 NOT ADD SLT PUSH2 0x47E JUMPI PUSH1 0x20 PUSH1 0xC SLOAD PUSH1 0x40 MLOAD SWAP1 DUP2 MSTORE RETURN JUMPDEST DUP1 SLOAD DUP3 LT ISZERO PUSH2 0x12FA JUMPI PUSH1 0x0 MSTORE PUSH1 0x20 PUSH1 0x0 KECCAK256 ADD SWAP1 PUSH1 0x0 SWAP1 JUMP JUMPDEST CALLVALUE PUSH2 0x47E JUMPI PUSH1 0x40 CALLDATASIZE PUSH1 0x3 NOT ADD SLT PUSH2 0x47E JUMPI PUSH2 0x15FD PUSH2 0x535 JUMP JUMPDEST PUSH1 0x1 PUSH1 0x1 PUSH1 0xA0 SHL SUB AND PUSH1 0x0 SWAP1 DUP2 MSTORE PUSH1 0x4 PUSH1 0x20 MSTORE PUSH1 0x40 SWAP1 KECCAK256 DUP1 SLOAD PUSH1 0x24 CALLDATALOAD SWAP2 SWAP1 DUP3 LT ISZERO PUSH2 0x47E JUMPI PUSH1 0x20 SWAP2 PUSH2 0x162E SWAP2 PUSH2 0x15CC JUMP JUMPDEST SWAP1 SLOAD PUSH1 0x40 MLOAD SWAP2 PUSH1 0x3 SHL SHR DUP2 MSTORE RETURN JUMPDEST CALLVALUE PUSH2 0x47E JUMPI PUSH1 0x0 CALLDATASIZE PUSH1 0x3 NOT ADD SLT PUSH2 0x47E JUMPI PUSH1 0x20 PUSH1 0x40 MLOAD PUSH4 0x1E13380 DUP2 MSTORE RETURN JUMPDEST CALLVALUE PUSH2 0x47E JUMPI PUSH1 0x20 CALLDATASIZE PUSH1 0x3 NOT ADD SLT PUSH2 0x47E JUMPI PUSH1 0x1 PUSH1 0x1 PUSH1 0xA0 SHL SUB PUSH2 0x167C PUSH2 0x535 JUMP JUMPDEST AND PUSH1 0x0 MSTORE PUSH1 0x6 PUSH1 0x20 MSTORE PUSH1 0x20 PUSH1 0x40 PUSH1 0x0 KECCAK256 SLOAD PUSH1 0x40 MLOAD SWAP1 DUP2 MSTORE RETURN JUMPDEST CALLVALUE PUSH2 0x47E JUMPI PUSH1 0x20 CALLDATASIZE PUSH1 0x3 NOT ADD SLT PUSH2 0x47E JUMPI PUSH1 0x4 CALLDATALOAD PUSH1 0x0 MSTORE PUSH1 0x3 PUSH1 0x20 MSTORE PUSH1 0x20 PUSH1 0x40 PUSH1 0x0 KECCAK256 SLOAD PUSH1 0x40 MLOAD SWAP1 DUP2 MSTORE RETURN JUMPDEST CALLVALUE PUSH2 0x47E JUMPI PUSH1 0x20 CALLDATASIZE PUSH1 0x3 NOT ADD SLT PUSH2 0x47E JUMPI PUSH1 0x4 CALLDATALOAD PUSH1 0x0 SWAP1 DUP1 DUP3 MSTORE PUSH1 0x2 PUSH1 0x20 MSTORE PUSH1 0x40 DUP3 KECCAK256 SLOAD ISZERO ISZERO PUSH2 0x16F0 SWAP1 PUSH2 0x2432 JUMP JUMPDEST DUP1 DUP3 MSTORE PUSH1 0x2 PUSH1 0x20 MSTORE PUSH1 0x40 DUP3 KECCAK256 PUSH1 0x1 ADD SLOAD PUSH2 0x1714 SWAP1 PUSH1 0x1 PUSH1 0x1 PUSH1 0xA0 SHL SUB AND CALLER EQ PUSH2 0x2698 JUMP JUMPDEST PUSH2 0x1728 DUP2 PUSH1 0x0 MSTORE PUSH1 0x2 PUSH1 0x20 MSTORE PUSH1 0x40 PUSH1 0x0 KECCAK256 SWAP1 JUMP JUMPDEST PUSH1 0x7 DUP2 ADD DUP1 SLOAD PUSH1 0x8 SHR PUSH1 0xFF AND PUSH2 0x173D DUP2 PUSH2 0x8F6 JUMP JUMPDEST ISZERO PUSH2 0x1747 SWAP1 PUSH2 0x246F JUMP JUMPDEST DUP1 SLOAD PUSH2 0xFF00 NOT AND PUSH2 0x600 OR SWAP1 SSTORE DUP3 DUP1 DUP1 DUP1 PUSH1 0x6 DUP6 ADD SLOAD PUSH1 0xB SLOAD PUSH2 0x176A SWAP1 DUP3 PUSH2 0x28E6 JUMP JUMPDEST PUSH2 0x2710 SWAP1 DIV SWAP6 DUP3 DUP1 DUP1 DUP1 PUSH2 0x177E DUP12 DUP8 PUSH2 0x28F9 JUMP JUMPDEST SWAP11 DUP12 SWAP7 PUSH1 0xE SLOAD SWAP1 PUSH2 0x178E SWAP2 PUSH2 0x28F9 JUMP JUMPDEST PUSH1 0xE SSTORE DUP1 PUSH1 0xF SLOAD SWAP1 PUSH2 0x179F SWAP2 PUSH2 0x2069 JUMP JUMPDEST PUSH1 0xF SSTORE PUSH1 0x8 SLOAD PUSH1 0x1 PUSH1 0x1 PUSH1 0xA0 SHL SUB AND GAS CALL PUSH2 0x17B8 PUSH2 0x2906 JUMP JUMPDEST POP PUSH2 0x17C2 SWAP1 PUSH2 0x2973 JUMP JUMPDEST PUSH1 0x1 ADD SLOAD PUSH1 0x1 PUSH1 0x1 PUSH1 0xA0 SHL SUB AND GAS CALL PUSH2 0x17D9 PUSH2 0x2906 JUMP JUMPDEST POP PUSH2 0x17E3 SWAP1 PUSH2 0x29B5 JUMP JUMPDEST PUSH1 0x40 MLOAD SWAP1 DUP2 MSTORE PUSH32 0x58716386E17644E69FF7358E3317A395F4523FCD0FB9CC227EE68D117EBBFBFC SWAP1 PUSH1 0x20 SWAP1 LOG2 DUP1 RETURN JUMPDEST PUSH1 0xA0 CALLDATASIZE PUSH1 0x3 NOT ADD SLT PUSH2 0x47E JUMPI PUSH8 0xFFFFFFFFFFFFFFFF PUSH1 0x4 CALLDATALOAD DUP2 DUP2 GT PUSH2 0x47E JUMPI PUSH2 0x183F SWAP1 CALLDATASIZE SWAP1 PUSH1 0x4 ADD PUSH2 0xAAA JUMP JUMPDEST SWAP1 PUSH1 0x24 CALLDATALOAD DUP4 DUP2 GT PUSH2 0x47E JUMPI PUSH2 0x1858 SWAP1 CALLDATASIZE SWAP1 PUSH1 0x4 ADD PUSH2 0xAAA JUMP JUMPDEST SWAP2 SWAP1 SWAP4 PUSH1 0x44 CALLDATALOAD SWAP1 DUP2 GT PUSH2 0x47E JUMPI PUSH2 0x1873 SWAP1 CALLDATASIZE SWAP1 PUSH1 0x4 ADD PUSH2 0xAAA JUMP JUMPDEST SWAP1 PUSH1 0x84 CALLDATALOAD SWAP4 PUSH1 0x4 DUP6 LT ISZERO PUSH2 0x47E JUMPI PUSH2 0x714 SWAP7 PUSH2 0x1892 SWAP7 PUSH1 0x64 CALLDATALOAD SWAP6 PUSH2 0x1CDD JUMP JUMPDEST PUSH1 0x40 MLOAD SWAP1 DUP2 MSTORE SWAP1 DUP2 SWAP1 PUSH1 0x20 DUP3 ADD SWAP1 JUMP JUMPDEST CALLVALUE PUSH2 0x47E JUMPI PUSH1 0x0 CALLDATASIZE PUSH1 0x3 NOT ADD SLT PUSH2 0x47E JUMPI PUSH1 0x20 PUSH1 0xA SLOAD PUSH1 0x40 MLOAD SWAP1 DUP2 MSTORE RETURN JUMPDEST CALLVALUE PUSH2 0x47E JUMPI PUSH1 0x0 DUP1 PUSH1 0x3 NOT CALLDATASIZE ADD SLT PUSH2 0x1071 JUMPI DUP1 SLOAD PUSH1 0x8 DUP2 SWAP1 SHR PUSH1 0x1 PUSH1 0x1 PUSH1 0xA0 SHL SUB AND CALLER SUB PUSH2 0x105F JUMPI PUSH1 0xFF DUP2 AND PUSH2 0x46C JUMPI PUSH1 0x1 SWAP1 PUSH1 0xFF NOT AND OR DUP2 SSTORE PUSH32 0x62E78CEA01BEE320CD4E420270B5EA74000D11B0C9F74754EBDBFC544B05A258 PUSH1 0x20 PUSH1 0x40 MLOAD CALLER DUP2 MSTORE LOG1 DUP1 RETURN JUMPDEST SWAP15 SWAP14 SWAP13 SWAP9 SWAP3 DUP16 PUSH2 0x1A0 SWAP14 SWAP9 PUSH2 0x1996 PUSH2 0x19DE SWAP15 SWAP10 SWAP14 SWAP9 PUSH2 0x1988 PUSH2 0x19B3 SWAP10 PUSH2 0x197A PUSH2 0x19D0 SWAP16 SWAP9 SWAP8 PUSH2 0x1969 PUSH2 0x19A8 SWAP12 PUSH1 0xE0 SWAP11 DUP11 MSTORE PUSH1 0x20 DUP11 ADD SWAP1 PUSH1 0x1 DUP1 PUSH1 0xA0 SHL SUB AND SWAP1 MSTORE JUMP JUMPDEST PUSH2 0x1C0 DUP1 PUSH1 0x40 DUP11 ADD MSTORE DUP9 ADD SWAP1 PUSH2 0x5BF JUMP JUMPDEST SWAP1 DUP7 DUP3 SUB PUSH1 0x60 DUP9 ADD MSTORE PUSH2 0x5BF JUMP JUMPDEST SWAP1 DUP5 DUP3 SUB PUSH1 0x80 DUP7 ADD MSTORE PUSH2 0x5BF JUMP JUMPDEST SWAP13 PUSH1 0xA0 DUP4 ADD MSTORE PUSH1 0xC0 DUP3 ADD MSTORE ADD SWAP1 PUSH2 0x8E9 JUMP JUMPDEST PUSH2 0x100 DUP14 ADD SWAP1 PUSH2 0x900 JUMP JUMPDEST PUSH2 0x120 DUP12 ADD MSTORE PUSH2 0x140 DUP11 ADD MSTORE PUSH1 0x1 PUSH1 0x1 PUSH1 0xA0 SHL SUB AND PUSH2 0x160 DUP10 ADD MSTORE JUMP JUMPDEST DUP7 DUP3 SUB PUSH2 0x180 DUP9 ADD MSTORE PUSH2 0x5BF JUMP JUMPDEST SWAP4 ADD MSTORE JUMP JUMPDEST CALLVALUE PUSH2 0x47E JUMPI PUSH1 0x20 CALLDATASIZE PUSH1 0x3 NOT ADD SLT PUSH2 0x47E JUMPI PUSH1 0x4 CALLDATALOAD PUSH1 0x0 SWAP1 DUP2 MSTORE PUSH1 0x2 PUSH1 0x20 MSTORE PUSH1 0x40 SWAP1 KECCAK256 DUP1 SLOAD PUSH1 0x1 DUP3 ADD SLOAD PUSH2 0x714 SWAP1 PUSH1 0x1 PUSH1 0x1 PUSH1 0xA0 SHL SUB AND SWAP2 PUSH2 0x1A26 PUSH1 0x2 DUP6 ADD PUSH2 0x13AF JUMP JUMPDEST SWAP4 PUSH2 0x1A33 PUSH1 0x3 DUP3 ADD PUSH2 0x13AF JUMP JUMPDEST SWAP2 PUSH2 0x1A40 PUSH1 0x4 DUP4 ADD PUSH2 0x13AF JUMP JUMPDEST SWAP1 PUSH1 0x5 DUP4 ADD SLOAD SWAP1 PUSH1 0x6 DUP5 ADD SLOAD SWAP1 PUSH1 0x7 DUP6 ADD SLOAD SWAP1 PUSH1 0x8 DUP7 ADD SLOAD SWAP3 PUSH1 0x9 DUP8 ADD SLOAD SWAP5 PUSH2 0x1A72 PUSH1 0xA DUP10 ADD SLOAD PUSH1 0x1 DUP1 PUSH1 0xA0 SHL SUB AND SWAP1 JUMP JUMPDEST SWAP7 PUSH1 0xC PUSH2 0x1A81 PUSH1 0xB DUP12 ADD PUSH2 0x13AF JUMP JUMPDEST SWAP10 ADD SLOAD SWAP10 PUSH1 0x40 MLOAD SWAP14 DUP15 SWAP14 DUP15 SWAP7 PUSH1 0xFF DUP1 DUP11 PUSH1 0x8 SHR AND SWAP10 AND SWAP8 PUSH2 0x1927 JUMP JUMPDEST CALLVALUE PUSH2 0x47E JUMPI PUSH1 0x0 CALLDATASIZE PUSH1 0x3 NOT ADD SLT PUSH2 0x47E JUMPI PUSH1 0x20 PUSH1 0xB SLOAD PUSH1 0x40 MLOAD SWAP1 DUP2 MSTORE RETURN JUMPDEST CALLVALUE PUSH2 0x47E JUMPI PUSH1 0x0 CALLDATASIZE PUSH1 0x3 NOT ADD SLT PUSH2 0x47E JUMPI PUSH1 0x0 SLOAD PUSH1 0x40 MLOAD PUSH1 0x8 SWAP2 SWAP1 SWAP2 SHR PUSH1 0x1 PUSH1 0x1 PUSH1 0xA0 SHL SUB AND DUP2 MSTORE PUSH1 0x20 SWAP1 RETURN JUMPDEST CALLVALUE PUSH2 0x47E JUMPI PUSH1 0x20 CALLDATASIZE PUSH1 0x3 NOT ADD SLT PUSH2 0x47E JUMPI PUSH1 0x1 PUSH1 0x1 PUSH1 0xA0 SHL SUB PUSH2 0x1B09 PUSH2 0x535 JUMP JUMPDEST AND PUSH1 0x0 MSTORE PUSH1 0x5 PUSH1 0x20 MSTORE PUSH1 0x60 PUSH1 0x40 PUSH1 0x0 KECCAK256 SLOAD PUSH1 0x6 PUSH1 0x20 MSTORE PUSH1 0x40 PUSH1 0x0 KECCAK256 SLOAD PUSH1 0x7 PUSH1 0x20 MSTORE PUSH1 0x40 PUSH1 0x0 KECCAK256 SLOAD SWAP1 PUSH1 0x40 MLOAD SWAP3 DUP4 MSTORE PUSH1 0x20 DUP4 ADD MSTORE PUSH1 0x40 DUP3 ADD MSTORE RETURN JUMPDEST CALLVALUE PUSH2 0x47E JUMPI PUSH1 0x20 DUP1 PUSH1 0x3 NOT CALLDATASIZE ADD SLT PUSH2 0x47E JUMPI PUSH1 0x1 PUSH1 0x1 PUSH1 0xA0 SHL SUB PUSH2 0x1B65 PUSH2 0x535 JUMP JUMPDEST AND PUSH1 0x0 MSTORE PUSH1 0x4 DUP2 MSTORE PUSH1 0x40 PUSH1 0x0 KECCAK256 SWAP1 PUSH1 0x40 MLOAD SWAP1 DUP2 DUP2 DUP5 SLOAD SWAP2 DUP3 DUP2 MSTORE ADD SWAP4 PUSH1 0x0 MSTORE DUP2 PUSH1 0x0 KECCAK256 SWAP2 PUSH1 0x0 SWAP1 JUMPDEST DUP3 DUP3 LT PUSH2 0x1BB0 JUMPI PUSH2 0x714 DUP6 PUSH2 0x1BA4 DUP2 DUP10 SUB DUP3 PUSH2 0x138D JUMP JUMPDEST PUSH1 0x40 MLOAD SWAP2 DUP3 SWAP2 DUP3 PUSH2 0x79B JUMP JUMPDEST DUP4 SLOAD DUP7 MSTORE SWAP5 DUP6 ADD SWAP5 PUSH1 0x1 SWAP4 DUP5 ADD SWAP4 SWAP1 SWAP2 ADD SWAP1 PUSH2 0x1B8D JUMP JUMPDEST CALLVALUE PUSH2 0x47E JUMPI PUSH2 0x1BD5 CALLDATASIZE PUSH2 0x1163 JUMP JUMPDEST SWAP2 PUSH32 0x6FBD90F6B051DD2B74925FE39AEF5391515A82AC6783676B36A54AA5221C6A4F PUSH2 0x1C7E PUSH1 0x0 SWAP5 DUP4 DUP7 MSTORE PUSH1 0x2 PUSH1 0x20 MSTORE PUSH2 0x1C14 PUSH1 0x40 DUP8 KECCAK256 SLOAD ISZERO ISZERO PUSH2 0x2432 JUMP JUMPDEST DUP4 DUP7 MSTORE PUSH1 0x2 PUSH1 0x20 MSTORE PUSH2 0x1260 PUSH1 0x40 DUP8 KECCAK256 PUSH2 0x1C3A PUSH1 0x1 DUP1 PUSH1 0xA0 SHL SUB PUSH1 0xA DUP4 ADD SLOAD AND CALLER EQ PUSH2 0x274A JUMP JUMPDEST PUSH1 0x7 DUP2 ADD SWAP1 PUSH2 0x1C5B PUSH1 0x2 PUSH1 0xFF DUP5 SLOAD PUSH1 0x8 SHR AND PUSH2 0x1C55 DUP2 PUSH2 0x8F6 JUMP JUMPDEST EQ PUSH2 0x2785 JUMP JUMPDEST PUSH2 0x1C69 DUP5 DUP10 PUSH1 0xB DUP5 ADD PUSH2 0x27C3 JUMP JUMPDEST PUSH1 0xC TIMESTAMP SWAP2 ADD SSTORE PUSH2 0x300 PUSH2 0xFF00 NOT DUP3 SLOAD AND OR SWAP1 SSTORE JUMP JUMPDEST SUB SWAP1 LOG3 DUP1 RETURN JUMPDEST CALLVALUE PUSH2 0x47E JUMPI PUSH1 0x0 CALLDATASIZE PUSH1 0x3 NOT ADD SLT PUSH2 0x47E JUMPI PUSH1 0x20 PUSH1 0x40 MLOAD PUSH2 0x2710 DUP2 MSTORE RETURN JUMPDEST CALLVALUE PUSH2 0x47E JUMPI PUSH1 0x0 CALLDATASIZE PUSH1 0x3 NOT ADD SLT PUSH2 0x47E JUMPI PUSH1 0x20 PUSH1 0xE SLOAD PUSH1 0x40 MLOAD SWAP1 DUP2 MSTORE RETURN JUMPDEST CALLVALUE PUSH2 0x47E JUMPI PUSH1 0x0 CALLDATASIZE PUSH1 0x3 NOT ADD SLT PUSH2 0x47E JUMPI PUSH1 0x20 PUSH1 0x1 SLOAD PUSH1 0x40 MLOAD SWAP1 DUP2 MSTORE RETURN JUMPDEST SWAP2 SWAP1 SWAP6 SWAP3 SWAP7 SWAP4 SWAP7 PUSH1 0xFF PUSH1 0x0 SLOAD AND PUSH2 0x46C JUMPI PUSH2 0x1CF6 PUSH2 0x2402 JUMP JUMPDEST PUSH2 0x1D01 DUP8 ISZERO ISZERO PUSH2 0x1EFD JUMP JUMPDEST PUSH2 0x1D0E PUSH1 0x64 DUP9 GT ISZERO PUSH2 0x1F3A JUMP JUMPDEST PUSH2 0x1D1C PUSH1 0xA SLOAD DUP6 LT ISZERO PUSH2 0x1F77 JUMP JUMPDEST PUSH2 0x1D28 DUP5 CALLVALUE LT ISZERO PUSH2 0x1FB4 JUMP JUMPDEST PUSH2 0x1D31 DUP6 PUSH2 0x8DF JUMP JUMPDEST DUP5 PUSH2 0x1EBF JUMPI PUSH3 0x3F480 SWAP2 JUMPDEST PUSH2 0xE10 DUP4 LT ISZERO DUP1 PUSH2 0x1EB1 JUMPI JUMPDEST PUSH2 0x1D51 SWAP1 PUSH2 0x1FF7 JUMP JUMPDEST PUSH1 0x1 SLOAD SWAP9 DUP10 SWAP8 PUSH2 0x1D60 DUP10 PUSH2 0x204C JUMP JUMPDEST PUSH1 0x1 SSTORE PUSH2 0x1D6D DUP6 TIMESTAMP PUSH2 0x2069 JUMP JUMPDEST SWAP3 PUSH2 0x1D76 PUSH2 0x2083 JUMP JUMPDEST DUP11 DUP2 MSTORE CALLER PUSH1 0x20 DUP3 ADD MSTORE SWAP5 PUSH2 0x1D8B CALLDATASIZE DUP14 DUP11 PUSH2 0x20AC JUMP JUMPDEST PUSH1 0x40 DUP8 ADD MSTORE CALLDATASIZE SWAP1 PUSH2 0x1D9B SWAP3 PUSH2 0x20AC JUMP JUMPDEST PUSH1 0x60 DUP6 ADD MSTORE CALLDATASIZE SWAP1 PUSH2 0x1DAB SWAP3 PUSH2 0x20AC JUMP JUMPDEST PUSH1 0x80 DUP4 ADD MSTORE PUSH1 0xA0 DUP3 ADD DUP6 SWAP1 MSTORE CALLVALUE PUSH1 0xC0 DUP4 ADD MSTORE PUSH2 0x1DCA DUP7 PUSH1 0xE0 DUP5 ADD PUSH2 0x20E3 JUMP JUMPDEST PUSH2 0x100 DUP3 ADD PUSH1 0x0 SWAP1 MSTORE TIMESTAMP PUSH2 0x120 DUP4 ADD MSTORE PUSH2 0x140 DUP3 ADD MSTORE PUSH2 0x160 DUP2 ADD PUSH1 0x0 SWAP1 MSTORE PUSH2 0x1DF1 PUSH2 0x20FB JUMP JUMPDEST PUSH2 0x180 DUP3 ADD MSTORE PUSH2 0x1A0 DUP2 ADD PUSH1 0x0 SWAP1 MSTORE PUSH2 0x1E14 DUP7 PUSH1 0x0 MSTORE PUSH1 0x2 PUSH1 0x20 MSTORE PUSH1 0x40 PUSH1 0x0 KECCAK256 SWAP1 JUMP JUMPDEST SWAP1 PUSH2 0x1E1E SWAP2 PUSH2 0x2279 JUMP JUMPDEST CALLER PUSH1 0x0 SWAP1 DUP2 MSTORE PUSH1 0x4 PUSH1 0x20 MSTORE PUSH1 0x40 SWAP1 KECCAK256 DUP6 PUSH2 0x1E37 SWAP2 PUSH2 0x237B JUMP JUMPDEST PUSH1 0xC SLOAD PUSH2 0x1E43 SWAP1 PUSH2 0x204C JUMP JUMPDEST PUSH1 0xC SSTORE CALLVALUE PUSH1 0xE SLOAD SWAP1 PUSH2 0x1E54 SWAP2 PUSH2 0x2069 JUMP JUMPDEST PUSH1 0xE SSTORE PUSH2 0x1E61 SWAP1 TIMESTAMP PUSH2 0x2069 JUMP JUMPDEST PUSH1 0x40 MLOAD SWAP4 DUP5 SWAP4 CALLER SWAP8 PUSH2 0x1E73 SWAP5 DUP7 PUSH2 0x23D1 JUMP JUMPDEST SUB PUSH32 0x3E3DAD351780E0C5D9667147CA353C4414B45BFF35C16EAB9CF5BF45F60D71AC SWAP2 LOG3 PUSH2 0x1EAE PUSH1 0x1 PUSH1 0x0 DUP1 MLOAD PUSH1 0x20 PUSH2 0x2B6D DUP4 CODECOPY DUP2 MLOAD SWAP2 MSTORE SSTORE JUMP JUMPDEST SWAP1 JUMP JUMPDEST POP PUSH4 0x1E13380 DUP4 GT ISZERO PUSH2 0x1D48 JUMP JUMPDEST PUSH2 0x1EC8 DUP6 PUSH2 0x8DF JUMP JUMPDEST PUSH1 0x1 DUP6 SUB PUSH2 0x1EDA JUMPI PUSH3 0x15180 SWAP2 PUSH2 0x1D3C JUMP JUMPDEST PUSH2 0x1EE3 DUP6 PUSH2 0x8DF JUMP JUMPDEST PUSH1 0x2 DUP6 SUB PUSH2 0x1EF4 JUMPI PUSH2 0x3840 SWAP2 PUSH2 0x1D3C JUMP JUMPDEST PUSH2 0xE10 SWAP2 PUSH2 0x1D3C JUMP JUMPDEST ISZERO PUSH2 0x1F04 JUMPI JUMP JUMPDEST PUSH1 0x40 MLOAD PUSH3 0x461BCD PUSH1 0xE5 SHL DUP2 MSTORE PUSH1 0x20 PUSH1 0x4 DUP3 ADD MSTORE PUSH1 0xE PUSH1 0x24 DUP3 ADD MSTORE PUSH14 0x151A5D1B19481C995C5D5A5C9959 PUSH1 0x92 SHL PUSH1 0x44 DUP3 ADD MSTORE PUSH1 0x64 SWAP1 REVERT JUMPDEST ISZERO PUSH2 0x1F41 JUMPI JUMP JUMPDEST PUSH1 0x40 MLOAD PUSH3 0x461BCD PUSH1 0xE5 SHL DUP2 MSTORE PUSH1 0x20 PUSH1 0x4 DUP3 ADD MSTORE PUSH1 0xE PUSH1 0x24 DUP3 ADD MSTORE PUSH14 0x5469746C6520746F6F206C6F6E67 PUSH1 0x90 SHL PUSH1 0x44 DUP3 ADD MSTORE PUSH1 0x64 SWAP1 REVERT JUMPDEST ISZERO PUSH2 0x1F7E JUMPI JUMP JUMPDEST PUSH1 0x40 MLOAD PUSH3 0x461BCD PUSH1 0xE5 SHL DUP2 MSTORE PUSH1 0x20 PUSH1 0x4 DUP3 ADD MSTORE PUSH1 0xE PUSH1 0x24 DUP3 ADD MSTORE PUSH14 0x52657761726420746F6F206C6F77 PUSH1 0x90 SHL PUSH1 0x44 DUP3 ADD MSTORE PUSH1 0x64 SWAP1 REVERT JUMPDEST ISZERO PUSH2 0x1FBB JUMPI JUMP JUMPDEST PUSH1 0x40 MLOAD PUSH3 0x461BCD PUSH1 0xE5 SHL DUP2 MSTORE PUSH1 0x20 PUSH1 0x4 DUP3 ADD MSTORE PUSH1 0x14 PUSH1 0x24 DUP3 ADD MSTORE PUSH20 0x125B9CDD59999A58DA595B9D081C185E5B595B9D PUSH1 0x62 SHL PUSH1 0x44 DUP3 ADD MSTORE PUSH1 0x64 SWAP1 REVERT JUMPDEST ISZERO PUSH2 0x1FFE JUMPI JUMP JUMPDEST PUSH1 0x40 MLOAD PUSH3 0x461BCD PUSH1 0xE5 SHL DUP2 MSTORE PUSH1 0x20 PUSH1 0x4 DUP3 ADD MSTORE PUSH1 0x10 PUSH1 0x24 DUP3 ADD MSTORE PUSH16 0x24B73B30B634B210323AB930BA34B7B7 PUSH1 0x81 SHL PUSH1 0x44 DUP3 ADD MSTORE PUSH1 0x64 SWAP1 REVERT JUMPDEST PUSH4 0x4E487B71 PUSH1 0xE0 SHL PUSH1 0x0 MSTORE PUSH1 0x11 PUSH1 0x4 MSTORE PUSH1 0x24 PUSH1 0x0 REVERT JUMPDEST PUSH1 0x0 NOT DUP2 EQ PUSH2 0x8C4 JUMPI PUSH1 0x1 ADD SWAP1 JUMP JUMPDEST SWAP1 PUSH1 0xA DUP3 ADD DUP1 SWAP3 GT PUSH2 0x8C4 JUMPI JUMP JUMPDEST SWAP2 SWAP1 DUP3 ADD DUP1 SWAP3 GT PUSH2 0x8C4 JUMPI JUMP JUMPDEST PUSH1 0x40 MLOAD SWAP1 PUSH2 0x13ED DUP3 PUSH2 0x134F JUMP JUMPDEST PUSH1 0x40 MLOAD SWAP1 PUSH2 0x13ED DUP3 PUSH2 0x1370 JUMP JUMPDEST PUSH8 0xFFFFFFFFFFFFFFFF DUP2 GT PUSH2 0x136B JUMPI PUSH1 0x1F ADD PUSH1 0x1F NOT AND PUSH1 0x20 ADD SWAP1 JUMP JUMPDEST SWAP3 SWAP2 SWAP3 PUSH2 0x20B8 DUP3 PUSH2 0x2090 JUMP JUMPDEST SWAP2 PUSH2 0x20C6 PUSH1 0x40 MLOAD SWAP4 DUP5 PUSH2 0x138D JUMP JUMPDEST DUP3 SWAP5 DUP2 DUP5 MSTORE DUP2 DUP4 ADD GT PUSH2 0x47E JUMPI DUP3 DUP2 PUSH1 0x20 SWAP4 DUP5 PUSH1 0x0 SWAP7 ADD CALLDATACOPY ADD ADD MSTORE JUMP JUMPDEST PUSH1 0x4 DUP3 LT ISZERO PUSH2 0x530 JUMPI MSTORE JUMP JUMPDEST PUSH1 0x7 DUP3 LT ISZERO PUSH2 0x530 JUMPI MSTORE JUMP JUMPDEST PUSH1 0x40 MLOAD SWAP1 PUSH1 0x20 DUP3 ADD DUP3 DUP2 LT PUSH8 0xFFFFFFFFFFFFFFFF DUP3 GT OR PUSH2 0x136B JUMPI PUSH1 0x40 MSTORE PUSH1 0x0 DUP3 MSTORE JUMP JUMPDEST SWAP1 PUSH1 0x1F DUP2 GT PUSH2 0x212D JUMPI POP POP POP JUMP JUMPDEST PUSH1 0x0 SWAP2 DUP3 MSTORE PUSH1 0x20 DUP3 KECCAK256 SWAP1 PUSH1 0x20 PUSH1 0x1F DUP6 ADD PUSH1 0x5 SHR DUP4 ADD SWAP5 LT PUSH2 0x2169 JUMPI JUMPDEST PUSH1 0x1F ADD PUSH1 0x5 SHR ADD SWAP2 JUMPDEST DUP3 DUP2 LT PUSH2 0x215E JUMPI POP POP POP JUMP JUMPDEST DUP2 DUP2 SSTORE PUSH1 0x1 ADD PUSH2 0x2152 JUMP JUMPDEST SWAP1 SWAP3 POP DUP3 SWAP1 PUSH2 0x2149 JUMP JUMPDEST SWAP2 SWAP1 SWAP2 DUP3 MLOAD PUSH8 0xFFFFFFFFFFFFFFFF DUP2 GT PUSH2 0x136B JUMPI PUSH2 0x219B DUP2 PUSH2 0x2195 DUP5 SLOAD PUSH2 0x12FF JUMP JUMPDEST DUP5 PUSH2 0x211F JUMP JUMPDEST PUSH1 0x20 DUP1 PUSH1 0x1F DUP4 GT PUSH1 0x1 EQ PUSH2 0x21D7 JUMPI POP DUP2 SWAP3 SWAP4 SWAP5 PUSH1 0x0 SWAP3 PUSH2 0x21CC JUMPI JUMPDEST POP POP DUP2 PUSH1 0x1 SHL SWAP2 PUSH1 0x0 NOT SWAP1 PUSH1 0x3 SHL SHR NOT AND OR SWAP1 SSTORE JUMP JUMPDEST ADD MLOAD SWAP1 POP CODESIZE DUP1 PUSH2 0x21B6 JUMP JUMPDEST SWAP1 PUSH1 0x1F NOT DUP4 AND SWAP6 PUSH2 0x21ED DUP6 PUSH1 0x0 MSTORE PUSH1 0x20 PUSH1 0x0 KECCAK256 SWAP1 JUMP JUMPDEST SWAP3 PUSH1 0x0 SWAP1 JUMPDEST DUP9 DUP3 LT PUSH2 0x222A JUMPI POP POP DUP4 PUSH1 0x1 SWAP6 SWAP7 SWAP8 LT PUSH2 0x2211 JUMPI JUMPDEST POP POP POP DUP2 SHL ADD SWAP1 SSTORE JUMP JUMPDEST ADD MLOAD PUSH1 0x0 NOT PUSH1 0xF8 DUP5 PUSH1 0x3 SHL AND SHR NOT AND SWAP1 SSTORE CODESIZE DUP1 DUP1 PUSH2 0x2207 JUMP JUMPDEST DUP1 PUSH1 0x1 DUP6 SWAP7 DUP3 SWAP5 SWAP7 DUP7 ADD MLOAD DUP2 SSTORE ADD SWAP6 ADD SWAP4 ADD SWAP1 PUSH2 0x21F2 JUMP JUMPDEST SWAP1 PUSH1 0x4 DUP2 LT ISZERO PUSH2 0x530 JUMPI PUSH1 0xFF DUP1 NOT DUP4 SLOAD AND SWAP2 AND OR SWAP1 SSTORE JUMP JUMPDEST SWAP1 PUSH1 0x7 DUP2 LT ISZERO PUSH2 0x530 JUMPI PUSH2 0xFF00 DUP3 SLOAD SWAP2 PUSH1 0x8 SHL AND SWAP1 PUSH2 0xFF00 NOT AND OR SWAP1 SSTORE JUMP JUMPDEST DUP2 MLOAD DUP2 SSTORE PUSH1 0x20 DUP3 ADD MLOAD PUSH1 0x1 DUP3 ADD DUP1 SLOAD PUSH1 0x1 PUSH1 0x1 PUSH1 0xA0 SHL SUB NOT AND PUSH1 0x1 PUSH1 0x1 PUSH1 0xA0 SHL SUB SWAP1 SWAP3 AND SWAP2 SWAP1 SWAP2 OR SWAP1 SSTORE SWAP1 PUSH1 0xC SWAP1 PUSH2 0x1A0 SWAP1 PUSH2 0x22BC PUSH1 0x40 DUP3 ADD MLOAD PUSH1 0x2 DUP7 ADD PUSH2 0x2173 JUMP JUMPDEST PUSH2 0x22CD PUSH1 0x60 DUP3 ADD MLOAD PUSH1 0x3 DUP7 ADD PUSH2 0x2173 JUMP JUMPDEST PUSH2 0x22DE PUSH1 0x80 DUP3 ADD MLOAD PUSH1 0x4 DUP7 ADD PUSH2 0x2173 JUMP JUMPDEST PUSH1 0xA0 DUP2 ADD MLOAD PUSH1 0x5 DUP6 ADD SSTORE PUSH1 0xC0 DUP2 ADD MLOAD PUSH1 0x6 DUP6 ADD SSTORE PUSH2 0x2325 PUSH1 0x7 DUP6 ADD PUSH2 0x2310 PUSH1 0xE0 DUP5 ADD MLOAD PUSH2 0x230A DUP2 PUSH2 0x8DF JUMP JUMPDEST DUP3 PUSH2 0x2242 JUMP JUMPDEST PUSH2 0x100 DUP4 ADD MLOAD SWAP1 PUSH2 0x2320 DUP3 PUSH2 0x8F6 JUMP JUMPDEST PUSH2 0x225A JUMP JUMPDEST PUSH2 0x120 DUP2 ADD MLOAD PUSH1 0x8 DUP6 ADD SSTORE PUSH2 0x140 DUP2 ADD MLOAD PUSH1 0x9 DUP6 ADD SSTORE PUSH2 0x160 DUP2 ADD MLOAD PUSH1 0xA DUP6 ADD DUP1 SLOAD PUSH1 0x1 PUSH1 0x1 PUSH1 0xA0 SHL SUB NOT AND PUSH1 0x1 PUSH1 0x1 PUSH1 0xA0 SHL SUB SWAP1 SWAP3 AND SWAP2 SWAP1 SWAP2 OR SWAP1 SSTORE PUSH2 0x2374 PUSH2 0x180 DUP3 ADD MLOAD PUSH1 0xB DUP7 ADD PUSH2 0x2173 JUMP JUMPDEST ADD MLOAD SWAP2 ADD SSTORE JUMP JUMPDEST DUP1 SLOAD PUSH1 0x1 PUSH1 0x40 SHL DUP2 LT ISZERO PUSH2 0x136B JUMPI PUSH2 0x2398 SWAP2 PUSH1 0x1 DUP3 ADD DUP2 SSTORE PUSH2 0x15CC JUMP JUMPDEST DUP2 SWAP3 SWAP2 SLOAD SWAP1 PUSH1 0x3 SHL SWAP2 DUP3 SHL SWAP2 PUSH1 0x0 NOT SWAP1 SHL NOT AND OR SWAP1 SSTORE JUMP JUMPDEST SWAP1 DUP1 PUSH1 0x20 SWAP4 SWAP3 DUP2 DUP5 MSTORE DUP5 DUP5 ADD CALLDATACOPY PUSH1 0x0 DUP3 DUP3 ADD DUP5 ADD MSTORE PUSH1 0x1F ADD PUSH1 0x1F NOT AND ADD ADD SWAP1 JUMP JUMPDEST SWAP2 SWAP4 PUSH2 0x23EE PUSH2 0x23FE SWAP3 PUSH1 0x60 SWAP6 SWAP9 SWAP8 SWAP7 PUSH1 0x80 DUP7 MSTORE PUSH1 0x80 DUP7 ADD SWAP2 PUSH2 0x23B0 JUMP JUMPDEST SWAP7 PUSH1 0x20 DUP5 ADD MSTORE PUSH1 0x40 DUP4 ADD SWAP1 PUSH2 0x8E9 JUMP JUMPDEST ADD MSTORE JUMP JUMPDEST PUSH1 0x0 DUP1 MLOAD PUSH1 0x20 PUSH2 0x2B6D DUP4 CODECOPY DUP2 MLOAD SWAP2 MSTORE PUSH1 0x2 DUP2 SLOAD EQ PUSH2 0x2420 JUMPI PUSH1 0x2 SWAP1 SSTORE JUMP JUMPDEST PUSH1 0x40 MLOAD PUSH4 0x3EE5AEB5 PUSH1 0xE0 SHL DUP2 MSTORE PUSH1 0x4 SWAP1 REVERT JUMPDEST ISZERO PUSH2 0x2439 JUMPI JUMP JUMPDEST PUSH1 0x40 MLOAD PUSH3 0x461BCD PUSH1 0xE5 SHL DUP2 MSTORE PUSH1 0x20 PUSH1 0x4 DUP3 ADD MSTORE PUSH1 0xE PUSH1 0x24 DUP3 ADD MSTORE PUSH14 0x15185CDAC81B9BDD08199BDD5B99 PUSH1 0x92 SHL PUSH1 0x44 DUP3 ADD MSTORE PUSH1 0x64 SWAP1 REVERT JUMPDEST ISZERO PUSH2 0x2476 JUMPI JUMP JUMPDEST PUSH1 0x40 MLOAD PUSH3 0x461BCD PUSH1 0xE5 SHL DUP2 MSTORE PUSH1 0x20 PUSH1 0x4 DUP3 ADD MSTORE PUSH1 0x8 PUSH1 0x24 DUP3 ADD MSTORE PUSH8 0x2737BA1037B832B7 PUSH1 0xC1 SHL PUSH1 0x44 DUP3 ADD MSTORE PUSH1 0x64 SWAP1 REVERT JUMPDEST ISZERO PUSH2 0x24AD JUMPI JUMP JUMPDEST PUSH1 0x40 MLOAD PUSH3 0x461BCD PUSH1 0xE5 SHL DUP2 MSTORE PUSH1 0x20 PUSH1 0x4 DUP3 ADD MSTORE PUSH1 0xF PUSH1 0x24 DUP3 ADD MSTORE PUSH15 0x111958591B1A5B99481C185CDCD959 PUSH1 0x8A SHL PUSH1 0x44 DUP3 ADD MSTORE PUSH1 0x64 SWAP1 REVERT JUMPDEST ISZERO PUSH2 0x24EB JUMPI JUMP JUMPDEST PUSH1 0x40 MLOAD PUSH3 0x461BCD PUSH1 0xE5 SHL DUP2 MSTORE PUSH1 0x20 PUSH1 0x4 DUP3 ADD MSTORE PUSH1 0x12 PUSH1 0x24 DUP3 ADD MSTORE PUSH18 0x109A5908195E18D959591CC81C995DD85C99 PUSH1 0x72 SHL PUSH1 0x44 DUP3 ADD MSTORE PUSH1 0x64 SWAP1 REVERT JUMPDEST ISZERO PUSH2 0x252C JUMPI JUMP JUMPDEST PUSH1 0x40 MLOAD PUSH3 0x461BCD PUSH1 0xE5 SHL DUP2 MSTORE PUSH1 0x20 PUSH1 0x4 DUP3 ADD MSTORE PUSH1 0x16 PUSH1 0x24 DUP3 ADD MSTORE PUSH22 0x43616E6E6F7420626964206F6E206F776E207461736B PUSH1 0x50 SHL PUSH1 0x44 DUP3 ADD MSTORE PUSH1 0x64 SWAP1 REVERT JUMPDEST ISZERO PUSH2 0x2571 JUMPI JUMP JUMPDEST PUSH1 0x40 MLOAD PUSH3 0x461BCD PUSH1 0xE5 SHL DUP2 MSTORE PUSH1 0x20 PUSH1 0x4 DUP3 ADD MSTORE PUSH1 0x10 PUSH1 0x24 DUP3 ADD MSTORE PUSH16 0x13585E08189A591CC81C995858DA1959 PUSH1 0x82 SHL PUSH1 0x44 DUP3 ADD MSTORE PUSH1 0x64 SWAP1 REVERT JUMPDEST ISZERO PUSH2 0x25B0 JUMPI JUMP JUMPDEST PUSH1 0x40 MLOAD PUSH3 0x461BCD PUSH1 0xE5 SHL DUP2 MSTORE PUSH1 0x20 PUSH1 0x4 DUP3 ADD MSTORE PUSH1 0xB PUSH1 0x24 DUP3 ADD MSTORE PUSH11 0x105B1C9958591E48189A59 PUSH1 0xAA SHL PUSH1 0x44 DUP3 ADD MSTORE PUSH1 0x64 SWAP1 REVERT JUMPDEST DUP1 SLOAD PUSH1 0x1 PUSH1 0x40 SHL DUP2 LT ISZERO PUSH2 0x136B JUMPI PUSH2 0x2600 SWAP2 PUSH1 0x1 DUP3 ADD DUP2 SSTORE PUSH2 0x12DE JUMP JUMPDEST PUSH2 0x2682 JUMPI DUP2 MLOAD DUP2 SLOAD PUSH1 0x1 PUSH1 0x1 PUSH1 0xA0 SHL SUB NOT AND PUSH1 0x1 PUSH1 0x1 PUSH1 0xA0 SHL SUB SWAP2 SWAP1 SWAP2 AND OR DUP2 SSTORE PUSH2 0x13ED SWAP2 PUSH1 0x6 SWAP1 PUSH2 0x266F SWAP1 PUSH1 0xC0 SWAP1 PUSH1 0x20 DUP2 ADD MLOAD PUSH1 0x1 DUP7 ADD SSTORE PUSH1 0x40 DUP2 ADD MLOAD PUSH1 0x2 DUP7 ADD SSTORE PUSH2 0x2654 PUSH1 0x60 DUP3 ADD MLOAD PUSH1 0x3 DUP8 ADD PUSH2 0x2173 JUMP JUMPDEST PUSH1 0x80 DUP2 ADD MLOAD PUSH1 0x4 DUP7 ADD SSTORE PUSH1 0xA0 DUP2 ADD MLOAD PUSH1 0x5 DUP7 ADD SSTORE ADD MLOAD ISZERO ISZERO SWAP1 JUMP JUMPDEST SWAP2 ADD SWAP1 PUSH1 0xFF DUP1 NOT DUP4 SLOAD AND SWAP2 ISZERO ISZERO AND OR SWAP1 SSTORE JUMP JUMPDEST PUSH4 0x4E487B71 PUSH1 0xE0 SHL PUSH1 0x0 MSTORE PUSH1 0x0 PUSH1 0x4 MSTORE PUSH1 0x24 PUSH1 0x0 REVERT JUMPDEST ISZERO PUSH2 0x269F JUMPI JUMP JUMPDEST PUSH1 0x40 MLOAD PUSH3 0x461BCD PUSH1 0xE5 SHL DUP2 MSTORE PUSH1 0x20 PUSH1 0x4 DUP3 ADD MSTORE PUSH1 0xA PUSH1 0x24 DUP3 ADD MSTORE PUSH10 0x2737BA103837B9BA32B9 PUSH1 0xB1 SHL PUSH1 0x44 DUP3 ADD MSTORE PUSH1 0x64 SWAP1 REVERT JUMPDEST ISZERO PUSH2 0x26D8 JUMPI JUMP JUMPDEST PUSH1 0x40 MLOAD PUSH3 0x461BCD PUSH1 0xE5 SHL DUP2 MSTORE PUSH1 0x20 PUSH1 0x4 DUP3 ADD MSTORE PUSH1 0xB PUSH1 0x24 DUP3 ADD MSTORE PUSH11 0x125B9D985B1A5908189A59 PUSH1 0xAA SHL PUSH1 0x44 DUP3 ADD MSTORE PUSH1 0x64 SWAP1 REVERT JUMPDEST ISZERO PUSH2 0x2712 JUMPI JUMP JUMPDEST PUSH1 0x40 MLOAD PUSH3 0x461BCD PUSH1 0xE5 SHL DUP2 MSTORE PUSH1 0x20 PUSH1 0x4 DUP3 ADD MSTORE PUSH1 0x10 PUSH1 0x24 DUP3 ADD MSTORE PUSH16 0x105B1C9958591E481858D8D95C1D1959 PUSH1 0x82 SHL PUSH1 0x44 DUP3 ADD MSTORE PUSH1 0x64 SWAP1 REVERT JUMPDEST ISZERO PUSH2 0x2751 JUMPI JUMP JUMPDEST PUSH1 0x40 MLOAD PUSH3 0x461BCD PUSH1 0xE5 SHL DUP2 MSTORE PUSH1 0x20 PUSH1 0x4 DUP3 ADD MSTORE PUSH1 0xC PUSH1 0x24 DUP3 ADD MSTORE PUSH12 0x139BDD08185CDCDA59DB9959 PUSH1 0xA2 SHL PUSH1 0x44 DUP3 ADD MSTORE PUSH1 0x64 SWAP1 REVERT JUMPDEST ISZERO PUSH2 0x278C JUMPI JUMP JUMPDEST PUSH1 0x40 MLOAD PUSH3 0x461BCD PUSH1 0xE5 SHL DUP2 MSTORE PUSH1 0x20 PUSH1 0x4 DUP3 ADD MSTORE PUSH1 0xF PUSH1 0x24 DUP3 ADD MSTORE PUSH15 0x4E6F7420696E2070726F6772657373 PUSH1 0x88 SHL PUSH1 0x44 DUP3 ADD MSTORE PUSH1 0x64 SWAP1 REVERT JUMPDEST SWAP1 SWAP3 SWAP2 PUSH8 0xFFFFFFFFFFFFFFFF DUP2 GT PUSH2 0x136B JUMPI PUSH2 0x27E3 DUP2 PUSH2 0x2195 DUP5 SLOAD PUSH2 0x12FF JUMP JUMPDEST PUSH1 0x0 PUSH1 0x1F DUP3 GT PUSH1 0x1 EQ PUSH2 0x281C JUMPI DUP2 SWAP3 SWAP4 SWAP5 PUSH1 0x0 SWAP3 PUSH2 0x2811 JUMPI POP POP DUP2 PUSH1 0x1 SHL SWAP2 PUSH1 0x0 NOT SWAP1 PUSH1 0x3 SHL SHR NOT AND OR SWAP1 SSTORE JUMP JUMPDEST ADD CALLDATALOAD SWAP1 POP CODESIZE DUP1 PUSH2 0x21B6 JUMP JUMPDEST PUSH1 0x1F NOT DUP3 AND SWAP5 PUSH2 0x2831 DUP5 PUSH1 0x0 MSTORE PUSH1 0x20 PUSH1 0x0 KECCAK256 SWAP1 JUMP JUMPDEST SWAP2 DUP1 JUMPDEST DUP8 DUP2 LT PUSH2 0x286B JUMPI POP DUP4 PUSH1 0x1 SWAP6 SWAP7 SWAP8 LT PUSH2 0x2851 JUMPI POP POP POP DUP2 SHL ADD SWAP1 SSTORE JUMP JUMPDEST ADD CALLDATALOAD PUSH1 0x0 NOT PUSH1 0x3 DUP5 SWAP1 SHL PUSH1 0xF8 AND SHR NOT AND SWAP1 SSTORE CODESIZE DUP1 DUP1 PUSH2 0x2207 JUMP JUMPDEST SWAP1 SWAP3 PUSH1 0x20 PUSH1 0x1 DUP2 SWAP3 DUP7 DUP7 ADD CALLDATALOAD DUP2 SSTORE ADD SWAP5 ADD SWAP2 ADD PUSH2 0x2834 JUMP JUMPDEST SWAP2 PUSH1 0x20 PUSH2 0x1EAE SWAP4 DUP2 DUP2 MSTORE ADD SWAP2 PUSH2 0x23B0 JUMP JUMPDEST ISZERO PUSH2 0x289B JUMPI JUMP JUMPDEST PUSH1 0x40 MLOAD PUSH3 0x461BCD PUSH1 0xE5 SHL DUP2 MSTORE PUSH1 0x20 PUSH1 0x4 DUP3 ADD MSTORE PUSH1 0xD PUSH1 0x24 DUP3 ADD MSTORE PUSH13 0x139BDD0818DBDB5C1B195D1959 PUSH1 0x9A SHL PUSH1 0x44 DUP3 ADD MSTORE PUSH1 0x64 SWAP1 REVERT JUMPDEST SWAP1 PUSH1 0x64 DUP3 MUL SWAP2 DUP1 DUP4 DIV PUSH1 0x64 EQ SWAP1 ISZERO OR ISZERO PUSH2 0x8C4 JUMPI JUMP JUMPDEST DUP2 DUP2 MUL SWAP3 SWAP2 DUP2 ISZERO SWAP2 DUP5 DIV EQ OR ISZERO PUSH2 0x8C4 JUMPI JUMP JUMPDEST SWAP2 SWAP1 DUP3 SUB SWAP2 DUP3 GT PUSH2 0x8C4 JUMPI JUMP JUMPDEST RETURNDATASIZE ISZERO PUSH2 0x2931 JUMPI RETURNDATASIZE SWAP1 PUSH2 0x2917 DUP3 PUSH2 0x2090 JUMP JUMPDEST SWAP2 PUSH2 0x2925 PUSH1 0x40 MLOAD SWAP4 DUP5 PUSH2 0x138D JUMP JUMPDEST DUP3 MSTORE RETURNDATASIZE PUSH1 0x0 PUSH1 0x20 DUP5 ADD RETURNDATACOPY JUMP JUMPDEST PUSH1 0x60 SWAP1 JUMP JUMPDEST ISZERO PUSH2 0x293D JUMPI JUMP JUMPDEST PUSH1 0x40 MLOAD PUSH3 0x461BCD PUSH1 0xE5 SHL DUP2 MSTORE PUSH1 0x20 PUSH1 0x4 DUP3 ADD MSTORE PUSH1 0xE PUSH1 0x24 DUP3 ADD MSTORE PUSH14 0x14185E5B595B9D0819985A5B1959 PUSH1 0x92 SHL PUSH1 0x44 DUP3 ADD MSTORE PUSH1 0x64 SWAP1 REVERT JUMPDEST ISZERO PUSH2 0x297A JUMPI JUMP JUMPDEST PUSH1 0x40 MLOAD PUSH3 0x461BCD PUSH1 0xE5 SHL DUP2 MSTORE PUSH1 0x20 PUSH1 0x4 DUP3 ADD MSTORE PUSH1 0x13 PUSH1 0x24 DUP3 ADD MSTORE PUSH19 0x119959481D1C985B9CD9995C8819985A5B1959 PUSH1 0x6A SHL PUSH1 0x44 DUP3 ADD MSTORE PUSH1 0x64 SWAP1 REVERT JUMPDEST ISZERO PUSH2 0x29BC JUMPI JUMP JUMPDEST PUSH1 0x40 MLOAD PUSH3 0x461BCD PUSH1 0xE5 SHL DUP2 MSTORE PUSH1 0x20 PUSH1 0x4 DUP3 ADD MSTORE PUSH1 0xD PUSH1 0x24 DUP3 ADD MSTORE PUSH13 0x1499599D5B990819985A5B1959 PUSH1 0x9A SHL PUSH1 0x44 DUP3 ADD MSTORE PUSH1 0x64 SWAP1 REVERT JUMPDEST ISZERO PUSH2 0x29F8 JUMPI JUMP JUMPDEST PUSH1 0x40 MLOAD PUSH3 0x461BCD PUSH1 0xE5 SHL DUP2 MSTORE PUSH1 0x20 PUSH1 0x4 DUP3 ADD MSTORE PUSH1 0xC PUSH1 0x24 DUP3 ADD MSTORE PUSH12 0x139BDD081A5B9D9BDB1D9959 PUSH1 0xA2 SHL PUSH1 0x44 DUP3 ADD MSTORE PUSH1 0x64 SWAP1 REVERT JUMPDEST ISZERO PUSH2 0x2A33 JUMPI JUMP JUMPDEST PUSH1 0x40 MLOAD PUSH3 0x461BCD PUSH1 0xE5 SHL DUP2 MSTORE PUSH1 0x20 PUSH1 0x4 DUP3 ADD MSTORE PUSH1 0xE PUSH1 0x24 DUP3 ADD MSTORE PUSH14 0x43616E6E6F742064697370757465 PUSH1 0x90 SHL PUSH1 0x44 DUP3 ADD MSTORE PUSH1 0x64 SWAP1 REVERT JUMPDEST SWAP1 PUSH1 0xC PUSH2 0x2A74 PUSH2 0x2083 JUMP JUMPDEST DUP4 SLOAD DUP2 MSTORE PUSH1 0x1 DUP5 ADD SLOAD PUSH1 0x1 PUSH1 0x1 PUSH1 0xA0 SHL SUB AND PUSH1 0x20 DUP3 ADD MSTORE SWAP3 PUSH2 0x2A98 PUSH1 0x2 DUP3 ADD PUSH2 0x13AF JUMP JUMPDEST PUSH1 0x40 DUP6 ADD MSTORE PUSH2 0x2AA9 PUSH1 0x3 DUP3 ADD PUSH2 0x13AF JUMP JUMPDEST PUSH1 0x60 DUP6 ADD MSTORE PUSH2 0x2ABA PUSH1 0x4 DUP3 ADD PUSH2 0x13AF JUMP JUMPDEST PUSH1 0x80 DUP6 ADD MSTORE PUSH1 0x5 DUP2 ADD SLOAD PUSH1 0xA0 DUP6 ADD MSTORE PUSH1 0x6 DUP2 ADD SLOAD PUSH1 0xC0 DUP6 ADD MSTORE PUSH2 0x2AFA PUSH1 0xFF PUSH1 0x7 DUP4 ADD SLOAD PUSH2 0x2AEC DUP3 DUP3 AND PUSH1 0xE0 DUP10 ADD PUSH2 0x20E3 JUMP JUMPDEST PUSH1 0x8 SHR AND PUSH2 0x100 DUP7 ADD PUSH2 0x20EF JUMP JUMPDEST PUSH1 0x8 DUP2 ADD SLOAD PUSH2 0x120 DUP6 ADD MSTORE PUSH1 0x9 DUP2 ADD SLOAD PUSH2 0x140 DUP6 ADD MSTORE PUSH1 0xA DUP2 ADD SLOAD PUSH1 0x1 PUSH1 0x1 PUSH1 0xA0 SHL SUB AND PUSH2 0x160 DUP6 ADD MSTORE PUSH2 0x2B30 PUSH1 0xB DUP3 ADD PUSH2 0x13AF JUMP JUMPDEST PUSH2 0x180 DUP6 ADD MSTORE ADD SLOAD PUSH2 0x1A0 DUP4 ADD MSTORE JUMP JUMPDEST PUSH8 0xFFFFFFFFFFFFFFFF DUP2 GT PUSH2 0x136B JUMPI PUSH1 0x5 SHL PUSH1 0x20 ADD SWAP1 JUMP JUMPDEST DUP1 MLOAD DUP3 LT ISZERO PUSH2 0x12FA JUMPI PUSH1 0x20 SWAP2 PUSH1 0x5 SHL ADD ADD SWAP1 JUMP INVALID SWAP12 PUSH24 0x9B17422D0DF92223018B32B4D1FA46E071723D6817E2486D STOP EXTCODESIZE 0xEC 0xC5 PUSH0 STOP LOG2 PUSH5 0x6970667358 0x22 SLT KECCAK256 PUSH4 0xC22468A8 PUSH20 0x17005F01136CED0199421FC0785E2756D4BB39FD 0xF7 SLOAD SWAP4 PUSH7 0x465164736F6C63 NUMBER STOP ADDMOD EQ STOP CALLER "},"methodIdentifiers":{"BPS_DENOMINATOR()":"e1a45218","MAX_BIDS_PER_TASK()":"0f0ef7fe","MAX_TASK_DURATION()":"6b4e89a2","MIN_TASK_DURATION()":"5f08bb53","PLATFORM_FEE_BPS()":"539aa77f","acceptBid(uint256,uint256)":"02e9d5e4","agentCompletedTasks(address)":"70efdfb1","agentReputation(address)":"54de6e32","agentTasks(address,uint256)":"670ad782","agentTotalEarnings(address)":"09529dc1","approveWork(uint256)":"3d01e0fa","bidOnTask(uint256,uint256,uint256,string)":"2b42900a","cancelTask(uint256)":"7eec20a8","cancellationFeeBps()":"95305683","disputeTask(uint256,string)":"4bddd209","feeRecipient()":"46904840","getAgentStats(address)":"b5695b38","getAgentTasks(address)":"d8ea6821","getBidCount(uint256)":"744d3411","getBids(uint256)":"131d9a27","getOpenTasks(uint256,uint256)":"164bcc26","getTask(uint256)":"1d65e77e","minimumReward()":"813f8dc1","nextTaskId()":"fdc3d8d7","pause()":"8456cb59","paused()":"5c975abb","pauser()":"9fd0506d","postTask(string,string,string,uint256,uint8)":"803a29da","protocolFeeBps()":"35659fb8","startWork(uint256)":"03a250f9","submitWork(uint256,string)":"da8accf9","taskBids(uint256,uint256)":"5492b197","tasks(uint256)":"8d977672","totalFeesCollected()":"60c6d8ae","totalTasksCompleted()":"108ab45e","totalTasksPosted()":"611f364a","totalValueLocked()":"ec18154e","transferPauser(address)":"4421ea21","unpause()":"3f4ba83a"}}}}}