{"contracts/core/DisputeDAO.sol":{"DisputeDAO":{"abi":[{"inputs":[{"internalType":"address","name":"_stakingToken","type":"address"},{"internalType":"address","name":"_reputationStake","type":"address"}],"stateMutability":"nonpayable","type":"constructor"},{"inputs":[],"name":"ReentrancyGuardReentrantCall","type":"error"},{"anonymous":false,"inputs":[{"indexed":true,"internalType":"uint256","name":"disputeId","type":"uint256"},{"indexed":false,"internalType":"uint256","name":"appealCount","type":"uint256"}],"name":"AppealFiled","type":"event"},{"anonymous":false,"inputs":[{"indexed":true,"internalType":"uint256","name":"disputeId","type":"uint256"},{"indexed":true,"internalType":"address","name":"covenant","type":"address"},{"indexed":true,"internalType":"address","name":"initiator","type":"address"},{"indexed":false,"internalType":"uint256","name":"stakeAmount","type":"uint256"}],"name":"DisputeCreated","type":"event"},{"anonymous":false,"inputs":[{"indexed":true,"internalType":"uint256","name":"disputeId","type":"uint256"},{"indexed":false,"internalType":"uint256","name":"initiatorAward","type":"uint256"},{"indexed":false,"internalType":"uint256","name":"counterpartyAward","type":"uint256"},{"indexed":false,"internalType":"uint256","name":"totalVotingPower","type":"uint256"}],"name":"DisputeResolved","type":"event"},{"anonymous":false,"inputs":[{"indexed":true,"internalType":"uint256","name":"disputeId","type":"uint256"},{"indexed":true,"internalType":"address","name":"by","type":"address"},{"indexed":false,"internalType":"string","name":"ipfsHash","type":"string"}],"name":"EvidenceSubmitted","type":"event"},{"anonymous":false,"inputs":[{"indexed":true,"internalType":"uint256","name":"disputeId","type":"uint256"},{"indexed":true,"internalType":"address","name":"juror","type":"address"},{"indexed":false,"internalType":"uint256","name":"amount","type":"uint256"},{"indexed":false,"internalType":"string","name":"reason","type":"string"}],"name":"JurorPenalized","type":"event"},{"anonymous":false,"inputs":[{"indexed":true,"internalType":"uint256","name":"disputeId","type":"uint256"},{"indexed":true,"internalType":"address","name":"juror","type":"address"},{"indexed":false,"internalType":"uint256","name":"amount","type":"uint256"}],"name":"JurorRewarded","type":"event"},{"anonymous":false,"inputs":[{"indexed":true,"internalType":"uint256","name":"disputeId","type":"uint256"},{"indexed":true,"internalType":"address","name":"juror","type":"address"}],"name":"JurorSelected","type":"event"},{"anonymous":false,"inputs":[{"indexed":true,"internalType":"uint256","name":"disputeId","type":"uint256"},{"indexed":true,"internalType":"address","name":"juror","type":"address"}],"name":"VoteCommitted","type":"event"},{"anonymous":false,"inputs":[{"indexed":true,"internalType":"uint256","name":"disputeId","type":"uint256"},{"indexed":true,"internalType":"address","name":"juror","type":"address"},{"indexed":false,"internalType":"enum DisputeDAO.VoteOption","name":"vote","type":"uint8"}],"name":"VoteRevealed","type":"event"},{"inputs":[{"internalType":"uint256","name":"_disputeId","type":"uint256"}],"name":"advanceToCommitPhase","outputs":[],"stateMutability":"nonpayable","type":"function"},{"inputs":[],"name":"appealPeriod","outputs":[{"internalType":"uint256","name":"","type":"uint256"}],"stateMutability":"view","type":"function"},{"inputs":[],"name":"commitPeriod","outputs":[{"internalType":"uint256","name":"","type":"uint256"}],"stateMutability":"view","type":"function"},{"inputs":[{"internalType":"uint256","name":"_disputeId","type":"uint256"},{"internalType":"bytes32","name":"_commitHash","type":"bytes32"}],"name":"commitVote","outputs":[],"stateMutability":"nonpayable","type":"function"},{"inputs":[{"internalType":"address","name":"_covenant","type":"address"},{"internalType":"string","name":"_reason","type":"string"},{"internalType":"string","name":"_evidenceIPFS","type":"string"}],"name":"createDispute","outputs":[{"internalType":"uint256","name":"disputeId","type":"uint256"}],"stateMutability":"payable","type":"function"},{"inputs":[],"name":"disputeFee","outputs":[{"internalType":"uint256","name":"","type":"uint256"}],"stateMutability":"view","type":"function"},{"inputs":[{"internalType":"uint256","name":"","type":"uint256"}],"name":"disputes","outputs":[{"internalType":"uint256","name":"id","type":"uint256"},{"internalType":"address","name":"covenant","type":"address"},{"internalType":"address","name":"initiator","type":"address"},{"internalType":"address","name":"counterparty","type":"address"},{"internalType":"uint256","name":"stakeAmount","type":"uint256"},{"internalType":"string","name":"reason","type":"string"},{"internalType":"string","name":"evidenceIPFS","type":"string"},{"internalType":"enum DisputeDAO.DisputeStatus","name":"status","type":"uint8"},{"internalType":"uint256","name":"createdAt","type":"uint256"},{"internalType":"uint256","name":"evidenceEndTime","type":"uint256"},{"internalType":"uint256","name":"commitEndTime","type":"uint256"},{"internalType":"uint256","name":"revealEndTime","type":"uint256"},{"internalType":"uint256","name":"resolutionTime","type":"uint256"},{"internalType":"uint256","name":"initiatorAward","type":"uint256"},{"internalType":"uint256","name":"counterpartyAward","type":"uint256"},{"internalType":"uint256","name":"totalReputationVoted","type":"uint256"},{"internalType":"bool","name":"appealed","type":"bool"},{"internalType":"uint256","name":"appealCount","type":"uint256"}],"stateMutability":"view","type":"function"},{"inputs":[],"name":"evidencePeriod","outputs":[{"internalType":"uint256","name":"","type":"uint256"}],"stateMutability":"view","type":"function"},{"inputs":[{"internalType":"uint256","name":"_disputeId","type":"uint256"}],"name":"executeResolution","outputs":[],"stateMutability":"nonpayable","type":"function"},{"inputs":[{"internalType":"uint256","name":"_disputeId","type":"uint256"},{"internalType":"string","name":"_reason","type":"string"}],"name":"fileAppeal","outputs":[],"stateMutability":"payable","type":"function"},{"inputs":[{"internalType":"uint256","name":"_disputeId","type":"uint256"}],"name":"getDispute","outputs":[{"internalType":"address","name":"covenant","type":"address"},{"internalType":"enum DisputeDAO.DisputeStatus","name":"status","type":"uint8"},{"internalType":"uint256","name":"stakeAmount","type":"uint256"},{"internalType":"uint256","name":"selectedJurorCount","type":"uint256"},{"internalType":"bool","name":"canAppeal","type":"bool"}],"stateMutability":"view","type":"function"},{"inputs":[{"internalType":"uint256","name":"_disputeId","type":"uint256"}],"name":"getJurors","outputs":[{"internalType":"address[]","name":"","type":"address[]"}],"stateMutability":"view","type":"function"},{"inputs":[{"internalType":"uint256","name":"_disputeId","type":"uint256"},{"internalType":"address","name":"_juror","type":"address"}],"name":"hasCommitted","outputs":[{"internalType":"bool","name":"","type":"bool"}],"stateMutability":"view","type":"function"},{"inputs":[{"internalType":"uint256","name":"_disputeId","type":"uint256"},{"internalType":"address","name":"_juror","type":"address"}],"name":"hasRevealed","outputs":[{"internalType":"bool","name":"","type":"bool"}],"stateMutability":"view","type":"function"},{"inputs":[{"internalType":"address","name":"","type":"address"},{"internalType":"uint256","name":"","type":"uint256"}],"name":"jurorCases","outputs":[{"internalType":"uint256","name":"","type":"uint256"}],"stateMutability":"view","type":"function"},{"inputs":[],"name":"jurorCount","outputs":[{"internalType":"uint256","name":"","type":"uint256"}],"stateMutability":"view","type":"function"},{"inputs":[],"name":"jurorRewardRate","outputs":[{"internalType":"uint256","name":"","type":"uint256"}],"stateMutability":"view","type":"function"},{"inputs":[{"internalType":"address","name":"","type":"address"}],"name":"jurors","outputs":[{"internalType":"bool","name":"isActive","type":"bool"},{"internalType":"uint256","name":"totalCases","type":"uint256"},{"internalType":"uint256","name":"correctVotes","type":"uint256"},{"internalType":"uint256","name":"reputation","type":"uint256"},{"internalType":"uint256","name":"stakedAmount","type":"uint256"},{"internalType":"uint256","name":"rewardsEarned","type":"uint256"},{"internalType":"uint256","name":"lastActivity","type":"uint256"}],"stateMutability":"view","type":"function"},{"inputs":[],"name":"minJurorStake","outputs":[{"internalType":"uint256","name":"","type":"uint256"}],"stateMutability":"view","type":"function"},{"inputs":[],"name":"minReputationToServe","outputs":[{"internalType":"uint256","name":"","type":"uint256"}],"stateMutability":"view","type":"function"},{"inputs":[],"name":"missedVotePenalty","outputs":[{"internalType":"uint256","name":"","type":"uint256"}],"stateMutability":"view","type":"function"},{"inputs":[],"name":"nextDisputeId","outputs":[{"internalType":"uint256","name":"","type":"uint256"}],"stateMutability":"view","type":"function"},{"inputs":[{"internalType":"uint256","name":"_stakeAmount","type":"uint256"}],"name":"registerAsJuror","outputs":[],"stateMutability":"nonpayable","type":"function"},{"inputs":[],"name":"reputationStake","outputs":[{"internalType":"contract IReputationStake","name":"","type":"address"}],"stateMutability":"view","type":"function"},{"inputs":[{"internalType":"uint256","name":"_disputeId","type":"uint256"}],"name":"resolveDispute","outputs":[],"stateMutability":"nonpayable","type":"function"},{"inputs":[],"name":"revealPeriod","outputs":[{"internalType":"uint256","name":"","type":"uint256"}],"stateMutability":"view","type":"function"},{"inputs":[{"internalType":"uint256","name":"_disputeId","type":"uint256"},{"internalType":"enum DisputeDAO.VoteOption","name":"_vote","type":"uint8"},{"internalType":"uint256","name":"_salt","type":"uint256"}],"name":"revealVote","outputs":[],"stateMutability":"nonpayable","type":"function"},{"inputs":[],"name":"stakingToken","outputs":[{"internalType":"contract IERC20","name":"","type":"address"}],"stateMutability":"view","type":"function"},{"inputs":[{"internalType":"uint256","name":"_disputeId","type":"uint256"},{"internalType":"string","name":"_evidenceIPFS","type":"string"}],"name":"submitEvidence","outputs":[],"stateMutability":"nonpayable","type":"function"},{"inputs":[],"name":"unstakeAsJuror","outputs":[],"stateMutability":"nonpayable","type":"function"},{"inputs":[],"name":"wrongVotePenalty","outputs":[{"internalType":"uint256","name":"","type":"uint256"}],"stateMutability":"view","type":"function"}],"evm":{"bytecode":{"linkReferences":{},"object":"6080346200010257601f620028fd38819003918201601f19168301916001600160401b038311848410176200010757808492604094855283398101031262000102576200005a602062000052836200011d565b92016200011d565b60017f9b779b17422d0df92223018b32b4d1fa46e071723d6817e2486d003becc55f00556001600255683635c9adc5dea00000600655600780556203f4806008556202a3006009556201518080600a55600b556064600c5566b1a2bc2ec50000600d556064600e556032600f55601960105560018060a01b03908160018060a01b03199316836000541617600055169060015416176001556040516127ca9081620001338239f35b600080fd5b634e487b7160e01b600052604160045260246000fd5b51906001600160a01b0382168203620001025756fe61012080604052600436101561001457600080fd5b600090813560e01c9081630db399341461209c575080630f11132414611e2e57806316b5551d14611dc25780631a7d135214611d99578063276ae81114611d7b5780632aeeccb314611d255780632afce44f14611d07578063309a1b5314611ad75780633188219814611530578063336ebdfa146114905780633bc70ec0146111f05780634206ea4c146111d2578063564a565d146110525780636a20625814610e6d5780636a5b745614610e4f5780636d2404ac14610e315780636d8acf4514610d7857806372f702f314610d515780637cbf3b6b14610bf25780639da6918014610aa15780639e4f272d14610a83578063a6a7f0eb14610971578063a99ef9f514610925578063b9ce896b14610907578063c2b7b86814610314578063d209d03e146102f6578063dca5f6b014610276578063e1398c0c14610258578063e3a96cbd146101b5578063f713b052146101975763f96046811461017757600080fd5b346101945780600319360112610194576020600a54604051908152f35b80fd5b50346101945780600319360112610194576020600954604051908152f35b503461019457602036600319011261019457604060a0916004358152600360205220600180831b036001820154169060ff6007820154166004820154600f830154916102008161229d565b600581149384610248575b84610239575b506040519485526102218161229d565b60208501526040840152606083015215156080820152f35b60150154600211935038610211565b601481015460ff1615945061020b565b50346101945780600319360112610194576020601054604051908152f35b50346101945760203660031901126101945760e0906040906001600160a01b0361029e6120d3565b16815260046020522060ff815416906001810154906002810154600382015460048301549160066005850154940154946040519615158752602087015260408601526060850152608084015260a083015260c0820152f35b50346101945780600319360112610194576020600854604051908152f35b50346101945760203660031901126101945761032e612347565b6004358152600360205260408120610358600360ff6007840154166103528161229d565b1461267e565b600b8101544211156108cb5781828384600f8501545b8082106107c95750508183119283806107c0575b15610779575050506004820154600d83015582600e8301555b600560ff1960078401541617600783015542600c8301556004358352600360205260408320906127106103d56004840154600e54906126c0565b04600f83015490811561076357855b600f850154811015610703576103fd81600f87016120e9565b60018060a01b0391549060031b1c168088526004602052604088209080600052601187016020528560ff60406000205416816106ee575b81156106b7575b60048110156106a35761050057506003820154600f54612710039061271082116104ec576104726104e795949392612710926126c0565b046003830155600f5460405190815260406020820152600b60408201526a4d697373656420766f746560a81b60608201527f7076793ebd4b1d036042d7ad0bbbb52e2b841612a9d6ed8ded45ce66f0bd90e0608060043592a35b600181016104da8154612377565b9055600642910155612377565b6103e4565b634e487b7160e01b8b52601160045260248bfd5b61058a576003820154601054612710039061271082116104ec5761052d6104e795949392612710926126c0565b04600383015560105460405190815260406020820152600a60408201526957726f6e6720766f746560b01b60608201527f7076793ebd4b1d036042d7ad0bbbb52e2b841612a9d6ed8ded45ce66f0bd90e0608060043592a36104cc565b91906002810161059a8154612377565b9055600581016105ad86860482546123d2565b9055885460405163a9059cbb60e01b81526001600160a01b03858116600483015287870460248301529091602091839160449183918f91165af1908115610698578a91610669575b5015610634576104e79260405186860481527f38fef0e2638c7bfd9820a74741bd8d5b75996df52983ee3195e0e6db53b4fec4602060043592a36104cc565b60405162461bcd60e51b815260206004820152600d60248201526c14995dd85c990819985a5b1959609a1b6044820152606490fd5b61068b915060203d602011610691575b610683818361217f565b8101906122f1565b386105f5565b503d610679565b6040513d8c823e3d90fd5b634e487b7160e01b8b52602160045260248bfd5b90508615806106c7575b9061043b565b5060048110156106da57600281146106c1565b634e487b7160e01b8a52602160045260248afd5b905060048110156106da576001811490610434565b8686600d810154906013600e82015491015490604051928352602083015260408201527f43c6fe16c1e88a9b3bceaf30a2ae3d7e9ad9533f87698ebb2b628263771ae0e6606060043592a260016000805160206127758339815191525580f35b634e487b7160e01b600052601260045260246000fd5b821191826107b6575b50501561079e5782600d8301556004820154600e83015561039b565b600482015460011c80600d840155600e83015561039b565b1190503880610782565b50818111610382565b90936107d885600f88016120e9565b60018060a01b0391549060031b1c16908160005260128701602052604060002054916011880160205260ff6040600020541660048110156106da57600103610834575061082e91610828916123d2565b94612377565b9061036e565b80600097969297526011880160205260ff6040600020541660048110156106da57600203610870575061082e9161086a916123d2565b93612377565b600095929195526011870160205260ff6040600020541660048110156108b7576003146108a2575b5061082e90612377565b6108b09061082e92946123d2565b9290610898565b634e487b7160e01b89526021600452602489fd5b60405162461bcd60e51b815260206004820152601460248201527352657665616c20706572696f642061637469766560601b6044820152606490fd5b50346101945780600319360112610194576020600d54604051908152f35b503461019457604036600319011261019457601060406109436120b8565b926004358152600360205220019060018060a01b031660005260205260206040600020541515604051908152f35b503461019457610980366122bd565b919081845260036020526109b06040852060018060a01b03806002830154163314918215610a72575b50506125c6565b81845260036020526009604085206109da600160ff6007840154166109d48161229d565b14612600565b01544211610a35577fa49e7517d2b5714f7812f718444c5a2931d4fc670ed2d2aa2426ff2f42c5b44d90836040519160208352816020840152604083013784604085830101526040813395601f80199101168101030190a380f35b60405162461bcd60e51b8152602060048201526015602482015274115d9a59195b98d9481c195c9a5bd908195b991959605a1b6044820152606490fd5b6003919250015416331438806109a9565b50346101945780600319360112610194576020600b54604051908152f35b503461019457604036600319011261019457600435610ac8610ac3338361270e565b612644565b80825260206003815260408320600260ff600783015416610ae88161229d565b03610bb757600a8101544211610b7c576010019033600052818152604060002054610b4457336000525260243560406000205533907f3834a2c8ea101e1468b529270d35fbff0a12de32a5a7e5729b8b4dad6fb32c018380a380f35b6064906040519062461bcd60e51b825260048201526011602482015270105b1c9958591e4818dbdb5b5a5d1d1959607a1b6044820152fd5b60405162461bcd60e51b815260048101839052601360248201527210dbdb5b5a5d081c195c9a5bd908195b991959606a1b6044820152606490fd5b60405162461bcd60e51b81526004810183905260136024820152724e6f7420696e20636f6d6d697420706861736560681b6044820152606490fd5b503461019457602036600319011261019457610c0c612347565b6004358152600360205260408120906007820191610c39600560ff855416610c338161229d565b146126d3565b610c4a600c820154600b54906123d2565b42118015610d43575b15610d07576001810154600d820154600e909201546001600160a01b0390911691823b15610d0357906044849283604051958694859363bdc84ac360e01b8552600485015260248401525af18015610cf857610ccc575b50815460ff191660061790915560016000805160206127758339815191525580f35b67ffffffffffffffff8111610ce45760405238610caa565b634e487b7160e01b82526041600452602482fd5b6040513d84823e3d90fd5b8380fd5b60405162461bcd60e51b815260206004820152601460248201527341707065616c20706572696f642061637469766560601b6044820152606490fd5b5060ff601482015416610c53565b5034610194578060031936011261019457546040516001600160a01b039091168152602090f35b503461019457602080600319360112610e2d57600435825260038152600f604083200160405192838383549182815201908193835284832090835b818110610e105750505084610dc991038561217f565b60405193838594850191818652518092526040850193925b828110610df057505050500390f35b83516001600160a01b031685528695509381019392810192600101610de1565b82546001600160a01b031684529286019260019283019201610db3565b5080fd5b50346101945780600319360112610194576020600c54604051908152f35b50346101945780600319360112610194576020600f54604051908152f35b50610e77366122bd565b5050808252602060038152610ea76040842060018060a01b03806002830154163314918215610a725750506125c6565b600d548060011b908082046002149015171561103e573410610ffa5781835260038152604083206007810190815491610ee8600560ff8516610c338161229d565b601482019283549060ff8216610fc25760158401948554906002821015610f875791610f477f3c38c919bdd44374f95e247e400f505a9fb708fe987d5a077f6d54a13ae817379897969492600f9694600160ff19809616179055612377565b865516905501805486825580610f6e575b5050610f63846123df565b54604051908152a280f35b610f80918752838720908101906123bb565b3880610f58565b60405162461bcd60e51b815260048101899052601360248201527213585e08185c1c19585b1cc81c995858da1959606a1b6044820152606490fd5b60405162461bcd60e51b815260048101879052601060248201526f105b1c9958591e48185c1c19585b195960821b6044820152606490fd5b6064906040519062461bcd60e51b82526004820152601760248201527f496e73756666696369656e742061707065616c206665650000000000000000006044820152fd5b634e487b7160e01b84526011600452602484fd5b5034610194576020366003190112610194576004358152600360205260409020805490600160a01b600190039182600183015416928060028401541660e05260038301541661010052600482015492600583016110ae906121b7565b936110bb600685016121b7565b94600785015460ff1660c0526008850154956009860154600a87015490600b88015492600c89015494600d8a015496600e8b01549860138c01549a60148d015460ff169c6015015460a05260405180608052526080516020015260e051608051604001526101005160805160600152608051608001526102408060805160a00152608051016111499161225d565b6080518082039060c0015261115d9161225d565b9860c05161116a9061229d565b60c05160805160e00152608051610100015260805161012001526080516101400152608051610160015260805161018001526080516101a001526080516101c001526080516101e001521515608051610200015260a051608051610220015260805180910390f35b50346101945780600319360112610194576020600754604051908152f35b503461019457602080600319360112610e2d576004359061120f612347565b6006548210611457573383526004815260ff60408420541661141e576001546040516327c06fd560e01b81523360048201526001600160a01b039183908290602490829086165afa9081156114135785916113e2575b50600c541161139d578184918254166064604051809481936323b872dd60e01b83523360048401523060248401528860448401525af18015611392576112b2918591611375575b50612309565b6040519160e0830183811067ffffffffffffffff8211176113615790600692916040526001845281840190858252604085018681526060860190670de0b6b3a7640000830482526080870192835260a0870193888552600460c0890196428852338b5252604089209751151560ff80198a541691161788555160018801555160028701555160038601555160048501555160058401555191015560016000805160206127758339815191525580f35b634e487b7160e01b85526041600452602485fd5b61138c9150833d851161069157610683818361217f565b386112ac565b6040513d86823e3d90fd5b60405162461bcd60e51b815260048101839052601760248201527f496e73756666696369656e742072657075746174696f6e0000000000000000006044820152606490fd5b90508281813d831161140c575b6113f9818361217f565b81010312611408575138611265565b8480fd5b503d6113ef565b6040513d87823e3d90fd5b6064906040519062461bcd60e51b825260048201526012602482015271105b1c9958591e481c9959da5cdd195c995960721b6044820152fd5b6064906040519062461bcd60e51b825260048201526012602482015271496e73756666696369656e74207374616b6560701b6044820152fd5b50346101945760203660031901126101945760043581526003602052604081206007810180546114c8600160ff83166109d48161229d565b60098301544211156114f25760029060ff1916179055600a6114ec600954426123d2565b91015580f35b60405162461bcd60e51b815260206004820152601660248201527545766964656e636520706572696f642061637469766560501b6044820152606490fd5b506060366003190112610194576115456120d3565b60243567ffffffffffffffff8111611ad357611565903690600401612117565b9160443567ffffffffffffffff811161140857611586903690600401612117565b61158e612347565b600d543410611a9b57604051631006976960e11b81526020816004816001600160a01b0388165afa8015611a90578790611a50575b600391506115d08161229d565b03611a1357600254946115e286612377565b6002558587526003602090815260408089208881556001810180546001600160a01b0319166001600160a01b0389169081179091559151635c39fcc160e01b81529097929091829060049082905afa9081156119ba5789916119f4575b506002870180546001600160a01b0319166001600160a01b039283161790556040516361efb2a360e11b815290602090829060049082908a165afa9081156119ba5789916119c5575b506003870180546001600160a01b0319166001600160a01b03928316179055604051633689778f60e21b815290602090829060049082908a165afa9081156119ba578991611984575b50600487015567ffffffffffffffff82116119705781906116f56005880154612145565b601f811161193d575b508890601f83116001146118d15789926118c6575b50508160011b916000199060031b1c19161760058501555b67ffffffffffffffff81116118b25780602096600686019361174d8554612145565b601f8111611879575b5081601f8411600114611815579261180a575b50508160011b916000199060031b1c19161790555b6007820160ff19815416905542600883015561179c600854426123d2565b60098301556117aa836123df565b827f3854fefc4ebe91a685ab0a9689bb3eda28d3cc5373aa8e87ee52f597bd1b907685600460018060a01b036002870154169501549360405194855260018060a01b031693a4600160008051602061277583398151915255604051908152f35b013590503880611769565b858152898120909450915b601f1984168510611862576001945083601f19811610611848575b505050811b01905561177e565b0135600019600384901b60f8161c1916905538808061183b565b818101358355938901936001909201918901611820565b6118a2908684528a8420601f860160051c8101918c87106118a8575b601f0160051c01906123bb565b38611756565b9091508190611895565b634e487b7160e01b86526041600452602486fd5b013590503880611713565b600588018a5260208a208a9450915b601f1984168510611925576001945083601f1981161061190b575b505050811b01600585015561172b565b0135600019600384901b60f8161c191690553880806118fb565b818101358355602094850194600190930192016118e0565b61196a90600589018b5260208b20601f850160051c810191602086106118a857601f0160051c01906123bb565b386116fe565b634e487b7160e01b88526041600452602488fd5b90506020813d6020116119b2575b8161199f6020938361217f565b810103126119ae5751386116d1565b8880fd5b3d9150611992565b6040513d8b823e3d90fd5b6119e7915060203d6020116119ed575b6119df818361217f565b81019061239c565b38611688565b503d6119d5565b611a0d915060203d6020116119ed576119df818361217f565b3861163f565b60405162461bcd60e51b815260206004820152601560248201527410dbdd995b985b9d081b9bdd08191a5cdc1d5d1959605a1b6044820152606490fd5b506020813d602011611a88575b81611a6a6020938361217f565b81010312611a8457516007811015611a84576003906115c3565b8680fd5b3d9150611a5d565b6040513d89823e3d90fd5b60405162461bcd60e51b815260206004820152601060248201526f496e73756666696369656e742066656560801b6044820152606490fd5b8280fd5b5034610194578060031936011261019457611af0612347565b33815260206004815260408220805460ff9182821615611cd15760048101918254938415611ca15791859391879593338752600590818752604088209088928254935b848110611bd3575050505060ff199190911690915550839055825460405163a9059cbb60e01b815233600482015260248101929092529092839160449183916001600160a01b03165af1908115611bc857611b96928492611bab575b5050612309565b60016000805160206127758339815191525580f35b611bc19250803d1061069157610683818361217f565b3880611b8f565b6040513d85823e3d90fd5b91809496989a611be88486989a9c94966120e9565b919054600392831b1c90528083528d60079186848460408520015416611c0d8161229d565b14948515611c6d575b505050505015611c3957611c2990612377565b9189979593918b99979593611b33565b60405162461bcd60e51b8152600481018b9052600c60248201526b41637469766520636173657360a01b6044820152606490fd5b600695509060409291611c80888c6120e9565b905490831b1c83525220015416611c968161229d565b1483388d818e611c16565b60405162461bcd60e51b81526004810187905260086024820152674e6f207374616b6560c01b6044820152606490fd5b60405162461bcd60e51b815260048101859052600e60248201526d139bdd081c9959da5cdd195c995960921b6044820152606490fd5b50346101945780600319360112610194576020600e54604051908152f35b503461019457604036600319011261019457611d3f6120d3565b6001600160a01b0316815260056020526040812080546024359290831015610194576020611d6d84846120e9565b90546040519160031b1c8152f35b50346101945780600319360112610194576020600654604051908152f35b50346101945780600319360112610194576001546040516001600160a01b039091168152602090f35b503461019457604036600319011261019457611ddc6120b8565b60043582526003602052601160408320019060018060a01b0316825260205260ff604082205416906004821015611e1a576020826040519015158152f35b634e487b7160e01b81526021600452602490fd5b503461019457606036600319011261019457600435602435906004821015611ad357611e5d610ac3338361270e565b80835260206003815260408420611eb8600360ff600784018054828116611e838161229d565b611ea1600282149182801561208a575b611e9c9061267e565b61229d565b8061207d575b61205e575b5054166103528161229d565b600b8101544211612023576011810133865280835260ff604087205416600481101561200f57611fd757604051838101908660f81b8252604435602182015260218152606081019181831067ffffffffffffffff841117611fc3578260405281519020338952601085018652604089205403611f92575050907ffb0a2a4b906424480a54d601db26ad920592115a97358d199495345723df34cb929133875282526040862060ff1981541660ff8716179055601281018252611f846013604088205492019182546123d2565b90556040519384523393a380f35b906d125b9d985b1a59081c995d99585b60921b60a46064938762461bcd60e51b855285820152600e60848201520152fd5b634e487b7160e01b89526041600452602489fd5b60405162461bcd60e51b815260048101849052601060248201526f105b1c9958591e481c995d99585b195960821b6044820152606490fd5b634e487b7160e01b87526021600452602487fd5b60405162461bcd60e51b815260048101839052601360248201527214995d99585b081c195c9a5bd908195b991959606a1b6044820152606490fd5b8390831916178155612072600a54426123d2565b600b86015538611eac565b50600a8601544211611ea7565b506120948161229d565b808714611e93565b905034610e2d5781600319360112610e2d576020906002548152f35b602435906001600160a01b03821682036120ce57565b600080fd5b600435906001600160a01b03821682036120ce57565b80548210156121015760005260206000200190600090565b634e487b7160e01b600052603260045260246000fd5b9181601f840112156120ce5782359167ffffffffffffffff83116120ce57602083818601950101116120ce57565b90600182811c92168015612175575b602083101461215f57565b634e487b7160e01b600052602260045260246000fd5b91607f1691612154565b90601f8019910116810190811067ffffffffffffffff8211176121a157604052565b634e487b7160e01b600052604160045260246000fd5b90604051918260008254926121cb84612145565b90818452600194858116908160001461223a57506001146121f7575b50506121f59250038361217f565b565b9093915060005260209081600020936000915b8183106122225750506121f5935082010138806121e7565b8554888401850152948501948794509183019161220a565b9150506121f594506020925060ff191682840152151560051b82010138806121e7565b919082519283825260005b848110612289575050826000602080949584010152601f8019910116010190565b602081830181015184830182015201612268565b600711156122a757565b634e487b7160e01b600052602160045260246000fd5b9060406003198301126120ce57600435916024359067ffffffffffffffff82116120ce576122ed91600401612117565b9091565b908160209103126120ce575180151581036120ce5790565b1561231057565b60405162461bcd60e51b815260206004820152600f60248201526e151c985b9cd9995c8819985a5b1959608a1b6044820152606490fd5b60008051602061277583398151915260028154146123655760029055565b604051633ee5aeb560e01b8152600490fd5b60001981146123865760010190565b634e487b7160e01b600052601160045260246000fd5b908160209103126120ce57516001600160a01b03811681036120ce5790565b8181106123c6575050565b600081556001016123bb565b9190820180921161238657565b90600091808352600390602082815260408086209186946000198043014381119040975b60075481101561256657816104ec578551858101908a8252898882015282606082015260804281830152815260a0810181811067ffffffffffffffff8211176125525788525190206001600160a01b03908116908161246d575b505061246890612377565b612403565b600f890180549168010000000000000000928381101561253d578f909161249c8c9360019586820181556120e9565b81929154908c1b9188831b921b191617905584815260058a522090815492831015612529578e6124f8848e947f6a547857424ddf8f94427bf9c458627075464dcf7326c192e44abf6aea499fb4946124689998970181556120e9565b8154908b1b908a86831b921b191617905583815260048a52888b8220015460128d018b528b82205580a3903861245d565b634e487b7160e01b8f52604160045260248ffd5b50634e487b7160e01b8f52604160045260248ffd5b634e487b7160e01b8e52604160045260248efd5b5050509295965093509150600f8401541061258d575050600701805460ff19166001179055565b60649250519062461bcd60e51b825260048201526013602482015272496e73756666696369656e74206a75726f727360681b6044820152fd5b156125cd57565b60405162461bcd60e51b815260206004820152600b60248201526a4e6f74206120706172747960a81b6044820152606490fd5b1561260757565b60405162461bcd60e51b81526020600482015260156024820152744e6f7420696e2065766964656e636520706861736560581b6044820152606490fd5b1561264b57565b60405162461bcd60e51b815260206004820152600b60248201526a2737ba103090353ab937b960a91b6044820152606490fd5b1561268557565b60405162461bcd60e51b81526020600482015260136024820152724e6f7420696e2072657665616c20706861736560681b6044820152606490fd5b8181029291811591840414171561238657565b156126da57565b60405162461bcd60e51b815260206004820152600c60248201526b139bdd081c995cdbdb1d995960a21b6044820152606490fd5b60005260039081602052604060002091600f600093018054935b848110612739575050505050600090565b61274381836120e9565b905490841b1c6001600160a01b039081169085161461276a5761276590612377565b612728565b505050505060019056fe9b779b17422d0df92223018b32b4d1fa46e071723d6817e2486d003becc55f00a2646970667358221220b744286b3213d8f1c9e3dae482d4798d4d7d2e525cacb610aa6c6fd336c8269d64736f6c63430008140033","opcodes":"PUSH1 0x80 CALLVALUE PUSH3 0x102 JUMPI PUSH1 0x1F PUSH3 0x28FD CODESIZE DUP2 SWAP1 SUB SWAP2 DUP3 ADD PUSH1 0x1F NOT AND DUP4 ADD SWAP2 PUSH1 0x1 PUSH1 0x1 PUSH1 0x40 SHL SUB DUP4 GT DUP5 DUP5 LT OR PUSH3 0x107 JUMPI DUP1 DUP5 SWAP3 PUSH1 0x40 SWAP5 DUP6 MSTORE DUP4 CODECOPY DUP2 ADD SUB SLT PUSH3 0x102 JUMPI PUSH3 0x5A PUSH1 0x20 PUSH3 0x52 DUP4 PUSH3 0x11D JUMP JUMPDEST SWAP3 ADD PUSH3 0x11D JUMP JUMPDEST PUSH1 0x1 PUSH32 0x9B779B17422D0DF92223018B32B4D1FA46E071723D6817E2486D003BECC55F00 SSTORE PUSH1 0x1 PUSH1 0x2 SSTORE PUSH9 0x3635C9ADC5DEA00000 PUSH1 0x6 SSTORE PUSH1 0x7 DUP1 SSTORE PUSH3 0x3F480 PUSH1 0x8 SSTORE PUSH3 0x2A300 PUSH1 0x9 SSTORE PUSH3 0x15180 DUP1 PUSH1 0xA SSTORE PUSH1 0xB SSTORE PUSH1 0x64 PUSH1 0xC SSTORE PUSH7 0xB1A2BC2EC50000 PUSH1 0xD SSTORE PUSH1 0x64 PUSH1 0xE SSTORE PUSH1 0x32 PUSH1 0xF SSTORE PUSH1 0x19 PUSH1 0x10 SSTORE PUSH1 0x1 DUP1 PUSH1 0xA0 SHL SUB SWAP1 DUP2 PUSH1 0x1 DUP1 PUSH1 0xA0 SHL SUB NOT SWAP4 AND DUP4 PUSH1 0x0 SLOAD AND OR PUSH1 0x0 SSTORE AND SWAP1 PUSH1 0x1 SLOAD AND OR PUSH1 0x1 SSTORE PUSH1 0x40 MLOAD PUSH2 0x27CA SWAP1 DUP2 PUSH3 0x133 DUP3 CODECOPY RETURN JUMPDEST PUSH1 0x0 DUP1 REVERT JUMPDEST PUSH4 0x4E487B71 PUSH1 0xE0 SHL PUSH1 0x0 MSTORE PUSH1 0x41 PUSH1 0x4 MSTORE PUSH1 0x24 PUSH1 0x0 REVERT JUMPDEST MLOAD SWAP1 PUSH1 0x1 PUSH1 0x1 PUSH1 0xA0 SHL SUB DUP3 AND DUP3 SUB PUSH3 0x102 JUMPI JUMP INVALID PUSH2 0x120 DUP1 PUSH1 0x40 MSTORE PUSH1 0x4 CALLDATASIZE LT ISZERO PUSH2 0x14 JUMPI PUSH1 0x0 DUP1 REVERT JUMPDEST PUSH1 0x0 SWAP1 DUP2 CALLDATALOAD PUSH1 0xE0 SHR SWAP1 DUP2 PUSH4 0xDB39934 EQ PUSH2 0x209C JUMPI POP DUP1 PUSH4 0xF111324 EQ PUSH2 0x1E2E JUMPI DUP1 PUSH4 0x16B5551D EQ PUSH2 0x1DC2 JUMPI DUP1 PUSH4 0x1A7D1352 EQ PUSH2 0x1D99 JUMPI DUP1 PUSH4 0x276AE811 EQ PUSH2 0x1D7B JUMPI DUP1 PUSH4 0x2AEECCB3 EQ PUSH2 0x1D25 JUMPI DUP1 PUSH4 0x2AFCE44F EQ PUSH2 0x1D07 JUMPI DUP1 PUSH4 0x309A1B53 EQ PUSH2 0x1AD7 JUMPI DUP1 PUSH4 0x31882198 EQ PUSH2 0x1530 JUMPI DUP1 PUSH4 0x336EBDFA EQ PUSH2 0x1490 JUMPI DUP1 PUSH4 0x3BC70EC0 EQ PUSH2 0x11F0 JUMPI DUP1 PUSH4 0x4206EA4C EQ PUSH2 0x11D2 JUMPI DUP1 PUSH4 0x564A565D EQ PUSH2 0x1052 JUMPI DUP1 PUSH4 0x6A206258 EQ PUSH2 0xE6D JUMPI DUP1 PUSH4 0x6A5B7456 EQ PUSH2 0xE4F JUMPI DUP1 PUSH4 0x6D2404AC EQ PUSH2 0xE31 JUMPI DUP1 PUSH4 0x6D8ACF45 EQ PUSH2 0xD78 JUMPI DUP1 PUSH4 0x72F702F3 EQ PUSH2 0xD51 JUMPI DUP1 PUSH4 0x7CBF3B6B EQ PUSH2 0xBF2 JUMPI DUP1 PUSH4 0x9DA69180 EQ PUSH2 0xAA1 JUMPI DUP1 PUSH4 0x9E4F272D EQ PUSH2 0xA83 JUMPI DUP1 PUSH4 0xA6A7F0EB EQ PUSH2 0x971 JUMPI DUP1 PUSH4 0xA99EF9F5 EQ PUSH2 0x925 JUMPI DUP1 PUSH4 0xB9CE896B EQ PUSH2 0x907 JUMPI DUP1 PUSH4 0xC2B7B868 EQ PUSH2 0x314 JUMPI DUP1 PUSH4 0xD209D03E EQ PUSH2 0x2F6 JUMPI DUP1 PUSH4 0xDCA5F6B0 EQ PUSH2 0x276 JUMPI DUP1 PUSH4 0xE1398C0C EQ PUSH2 0x258 JUMPI DUP1 PUSH4 0xE3A96CBD EQ PUSH2 0x1B5 JUMPI DUP1 PUSH4 0xF713B052 EQ PUSH2 0x197 JUMPI PUSH4 0xF9604681 EQ PUSH2 0x177 JUMPI PUSH1 0x0 DUP1 REVERT JUMPDEST CALLVALUE PUSH2 0x194 JUMPI DUP1 PUSH1 0x3 NOT CALLDATASIZE ADD SLT PUSH2 0x194 JUMPI PUSH1 0x20 PUSH1 0xA SLOAD PUSH1 0x40 MLOAD SWAP1 DUP2 MSTORE RETURN JUMPDEST DUP1 REVERT JUMPDEST POP CALLVALUE PUSH2 0x194 JUMPI DUP1 PUSH1 0x3 NOT CALLDATASIZE ADD SLT PUSH2 0x194 JUMPI PUSH1 0x20 PUSH1 0x9 SLOAD PUSH1 0x40 MLOAD SWAP1 DUP2 MSTORE RETURN JUMPDEST POP CALLVALUE PUSH2 0x194 JUMPI PUSH1 0x20 CALLDATASIZE PUSH1 0x3 NOT ADD SLT PUSH2 0x194 JUMPI PUSH1 0x40 PUSH1 0xA0 SWAP2 PUSH1 0x4 CALLDATALOAD DUP2 MSTORE PUSH1 0x3 PUSH1 0x20 MSTORE KECCAK256 PUSH1 0x1 DUP1 DUP4 SHL SUB PUSH1 0x1 DUP3 ADD SLOAD AND SWAP1 PUSH1 0xFF PUSH1 0x7 DUP3 ADD SLOAD AND PUSH1 0x4 DUP3 ADD SLOAD PUSH1 0xF DUP4 ADD SLOAD SWAP2 PUSH2 0x200 DUP2 PUSH2 0x229D JUMP JUMPDEST PUSH1 0x5 DUP2 EQ SWAP4 DUP5 PUSH2 0x248 JUMPI JUMPDEST DUP5 PUSH2 0x239 JUMPI JUMPDEST POP PUSH1 0x40 MLOAD SWAP5 DUP6 MSTORE PUSH2 0x221 DUP2 PUSH2 0x229D JUMP JUMPDEST PUSH1 0x20 DUP6 ADD MSTORE PUSH1 0x40 DUP5 ADD MSTORE PUSH1 0x60 DUP4 ADD MSTORE ISZERO ISZERO PUSH1 0x80 DUP3 ADD MSTORE RETURN JUMPDEST PUSH1 0x15 ADD SLOAD PUSH1 0x2 GT SWAP4 POP CODESIZE PUSH2 0x211 JUMP JUMPDEST PUSH1 0x14 DUP2 ADD SLOAD PUSH1 0xFF AND ISZERO SWAP5 POP PUSH2 0x20B JUMP JUMPDEST POP CALLVALUE PUSH2 0x194 JUMPI DUP1 PUSH1 0x3 NOT CALLDATASIZE ADD SLT PUSH2 0x194 JUMPI PUSH1 0x20 PUSH1 0x10 SLOAD PUSH1 0x40 MLOAD SWAP1 DUP2 MSTORE RETURN JUMPDEST POP CALLVALUE PUSH2 0x194 JUMPI PUSH1 0x20 CALLDATASIZE PUSH1 0x3 NOT ADD SLT PUSH2 0x194 JUMPI PUSH1 0xE0 SWAP1 PUSH1 0x40 SWAP1 PUSH1 0x1 PUSH1 0x1 PUSH1 0xA0 SHL SUB PUSH2 0x29E PUSH2 0x20D3 JUMP JUMPDEST AND DUP2 MSTORE PUSH1 0x4 PUSH1 0x20 MSTORE KECCAK256 PUSH1 0xFF DUP2 SLOAD AND SWAP1 PUSH1 0x1 DUP2 ADD SLOAD SWAP1 PUSH1 0x2 DUP2 ADD SLOAD PUSH1 0x3 DUP3 ADD SLOAD PUSH1 0x4 DUP4 ADD SLOAD SWAP2 PUSH1 0x6 PUSH1 0x5 DUP6 ADD SLOAD SWAP5 ADD SLOAD SWAP5 PUSH1 0x40 MLOAD SWAP7 ISZERO ISZERO DUP8 MSTORE PUSH1 0x20 DUP8 ADD MSTORE PUSH1 0x40 DUP7 ADD MSTORE PUSH1 0x60 DUP6 ADD MSTORE PUSH1 0x80 DUP5 ADD MSTORE PUSH1 0xA0 DUP4 ADD MSTORE PUSH1 0xC0 DUP3 ADD MSTORE RETURN JUMPDEST POP CALLVALUE PUSH2 0x194 JUMPI DUP1 PUSH1 0x3 NOT CALLDATASIZE ADD SLT PUSH2 0x194 JUMPI PUSH1 0x20 PUSH1 0x8 SLOAD PUSH1 0x40 MLOAD SWAP1 DUP2 MSTORE RETURN JUMPDEST POP CALLVALUE PUSH2 0x194 JUMPI PUSH1 0x20 CALLDATASIZE PUSH1 0x3 NOT ADD SLT PUSH2 0x194 JUMPI PUSH2 0x32E PUSH2 0x2347 JUMP JUMPDEST PUSH1 0x4 CALLDATALOAD DUP2 MSTORE PUSH1 0x3 PUSH1 0x20 MSTORE PUSH1 0x40 DUP2 KECCAK256 PUSH2 0x358 PUSH1 0x3 PUSH1 0xFF PUSH1 0x7 DUP5 ADD SLOAD AND PUSH2 0x352 DUP2 PUSH2 0x229D JUMP JUMPDEST EQ PUSH2 0x267E JUMP JUMPDEST PUSH1 0xB DUP2 ADD SLOAD TIMESTAMP GT ISZERO PUSH2 0x8CB JUMPI DUP2 DUP3 DUP4 DUP5 PUSH1 0xF DUP6 ADD SLOAD JUMPDEST DUP1 DUP3 LT PUSH2 0x7C9 JUMPI POP POP DUP2 DUP4 GT SWAP3 DUP4 DUP1 PUSH2 0x7C0 JUMPI JUMPDEST ISZERO PUSH2 0x779 JUMPI POP POP POP PUSH1 0x4 DUP3 ADD SLOAD PUSH1 0xD DUP4 ADD SSTORE DUP3 PUSH1 0xE DUP4 ADD SSTORE JUMPDEST PUSH1 0x5 PUSH1 0xFF NOT PUSH1 0x7 DUP5 ADD SLOAD AND OR PUSH1 0x7 DUP4 ADD SSTORE TIMESTAMP PUSH1 0xC DUP4 ADD SSTORE PUSH1 0x4 CALLDATALOAD DUP4 MSTORE PUSH1 0x3 PUSH1 0x20 MSTORE PUSH1 0x40 DUP4 KECCAK256 SWAP1 PUSH2 0x2710 PUSH2 0x3D5 PUSH1 0x4 DUP5 ADD SLOAD PUSH1 0xE SLOAD SWAP1 PUSH2 0x26C0 JUMP JUMPDEST DIV PUSH1 0xF DUP4 ADD SLOAD SWAP1 DUP2 ISZERO PUSH2 0x763 JUMPI DUP6 JUMPDEST PUSH1 0xF DUP6 ADD SLOAD DUP2 LT ISZERO PUSH2 0x703 JUMPI PUSH2 0x3FD DUP2 PUSH1 0xF DUP8 ADD PUSH2 0x20E9 JUMP JUMPDEST PUSH1 0x1 DUP1 PUSH1 0xA0 SHL SUB SWAP2 SLOAD SWAP1 PUSH1 0x3 SHL SHR AND DUP1 DUP9 MSTORE PUSH1 0x4 PUSH1 0x20 MSTORE PUSH1 0x40 DUP9 KECCAK256 SWAP1 DUP1 PUSH1 0x0 MSTORE PUSH1 0x11 DUP8 ADD PUSH1 0x20 MSTORE DUP6 PUSH1 0xFF PUSH1 0x40 PUSH1 0x0 KECCAK256 SLOAD AND DUP2 PUSH2 0x6EE JUMPI JUMPDEST DUP2 ISZERO PUSH2 0x6B7 JUMPI JUMPDEST PUSH1 0x4 DUP2 LT ISZERO PUSH2 0x6A3 JUMPI PUSH2 0x500 JUMPI POP PUSH1 0x3 DUP3 ADD SLOAD PUSH1 0xF SLOAD PUSH2 0x2710 SUB SWAP1 PUSH2 0x2710 DUP3 GT PUSH2 0x4EC JUMPI PUSH2 0x472 PUSH2 0x4E7 SWAP6 SWAP5 SWAP4 SWAP3 PUSH2 0x2710 SWAP3 PUSH2 0x26C0 JUMP JUMPDEST DIV PUSH1 0x3 DUP4 ADD SSTORE PUSH1 0xF SLOAD PUSH1 0x40 MLOAD SWAP1 DUP2 MSTORE PUSH1 0x40 PUSH1 0x20 DUP3 ADD MSTORE PUSH1 0xB PUSH1 0x40 DUP3 ADD MSTORE PUSH11 0x4D697373656420766F7465 PUSH1 0xA8 SHL PUSH1 0x60 DUP3 ADD MSTORE PUSH32 0x7076793EBD4B1D036042D7AD0BBBB52E2B841612A9D6ED8DED45CE66F0BD90E0 PUSH1 0x80 PUSH1 0x4 CALLDATALOAD SWAP3 LOG3 JUMPDEST PUSH1 0x1 DUP2 ADD PUSH2 0x4DA DUP2 SLOAD PUSH2 0x2377 JUMP JUMPDEST SWAP1 SSTORE PUSH1 0x6 TIMESTAMP SWAP2 ADD SSTORE PUSH2 0x2377 JUMP JUMPDEST PUSH2 0x3E4 JUMP JUMPDEST PUSH4 0x4E487B71 PUSH1 0xE0 SHL DUP12 MSTORE PUSH1 0x11 PUSH1 0x4 MSTORE PUSH1 0x24 DUP12 REVERT JUMPDEST PUSH2 0x58A JUMPI PUSH1 0x3 DUP3 ADD SLOAD PUSH1 0x10 SLOAD PUSH2 0x2710 SUB SWAP1 PUSH2 0x2710 DUP3 GT PUSH2 0x4EC JUMPI PUSH2 0x52D PUSH2 0x4E7 SWAP6 SWAP5 SWAP4 SWAP3 PUSH2 0x2710 SWAP3 PUSH2 0x26C0 JUMP JUMPDEST DIV PUSH1 0x3 DUP4 ADD SSTORE PUSH1 0x10 SLOAD PUSH1 0x40 MLOAD SWAP1 DUP2 MSTORE PUSH1 0x40 PUSH1 0x20 DUP3 ADD MSTORE PUSH1 0xA PUSH1 0x40 DUP3 ADD MSTORE PUSH10 0x57726F6E6720766F7465 PUSH1 0xB0 SHL PUSH1 0x60 DUP3 ADD MSTORE PUSH32 0x7076793EBD4B1D036042D7AD0BBBB52E2B841612A9D6ED8DED45CE66F0BD90E0 PUSH1 0x80 PUSH1 0x4 CALLDATALOAD SWAP3 LOG3 PUSH2 0x4CC JUMP JUMPDEST SWAP2 SWAP1 PUSH1 0x2 DUP2 ADD PUSH2 0x59A DUP2 SLOAD PUSH2 0x2377 JUMP JUMPDEST SWAP1 SSTORE PUSH1 0x5 DUP2 ADD PUSH2 0x5AD DUP7 DUP7 DIV DUP3 SLOAD PUSH2 0x23D2 JUMP JUMPDEST SWAP1 SSTORE DUP9 SLOAD PUSH1 0x40 MLOAD PUSH4 0xA9059CBB PUSH1 0xE0 SHL DUP2 MSTORE PUSH1 0x1 PUSH1 0x1 PUSH1 0xA0 SHL SUB DUP6 DUP2 AND PUSH1 0x4 DUP4 ADD MSTORE DUP8 DUP8 DIV PUSH1 0x24 DUP4 ADD MSTORE SWAP1 SWAP2 PUSH1 0x20 SWAP2 DUP4 SWAP2 PUSH1 0x44 SWAP2 DUP4 SWAP2 DUP16 SWAP2 AND GAS CALL SWAP1 DUP2 ISZERO PUSH2 0x698 JUMPI DUP11 SWAP2 PUSH2 0x669 JUMPI JUMPDEST POP ISZERO PUSH2 0x634 JUMPI PUSH2 0x4E7 SWAP3 PUSH1 0x40 MLOAD DUP7 DUP7 DIV DUP2 MSTORE PUSH32 0x38FEF0E2638C7BFD9820A74741BD8D5B75996DF52983EE3195E0E6DB53B4FEC4 PUSH1 0x20 PUSH1 0x4 CALLDATALOAD SWAP3 LOG3 PUSH2 0x4CC JUMP JUMPDEST PUSH1 0x40 MLOAD PUSH3 0x461BCD PUSH1 0xE5 SHL DUP2 MSTORE PUSH1 0x20 PUSH1 0x4 DUP3 ADD MSTORE PUSH1 0xD PUSH1 0x24 DUP3 ADD MSTORE PUSH13 0x14995DD85C990819985A5B1959 PUSH1 0x9A SHL PUSH1 0x44 DUP3 ADD MSTORE PUSH1 0x64 SWAP1 REVERT JUMPDEST PUSH2 0x68B SWAP2 POP PUSH1 0x20 RETURNDATASIZE PUSH1 0x20 GT PUSH2 0x691 JUMPI JUMPDEST PUSH2 0x683 DUP2 DUP4 PUSH2 0x217F JUMP JUMPDEST DUP2 ADD SWAP1 PUSH2 0x22F1 JUMP JUMPDEST CODESIZE PUSH2 0x5F5 JUMP JUMPDEST POP RETURNDATASIZE PUSH2 0x679 JUMP JUMPDEST PUSH1 0x40 MLOAD RETURNDATASIZE DUP13 DUP3 RETURNDATACOPY RETURNDATASIZE SWAP1 REVERT JUMPDEST PUSH4 0x4E487B71 PUSH1 0xE0 SHL DUP12 MSTORE PUSH1 0x21 PUSH1 0x4 MSTORE PUSH1 0x24 DUP12 REVERT JUMPDEST SWAP1 POP DUP7 ISZERO DUP1 PUSH2 0x6C7 JUMPI JUMPDEST SWAP1 PUSH2 0x43B JUMP JUMPDEST POP PUSH1 0x4 DUP2 LT ISZERO PUSH2 0x6DA JUMPI PUSH1 0x2 DUP2 EQ PUSH2 0x6C1 JUMP JUMPDEST PUSH4 0x4E487B71 PUSH1 0xE0 SHL DUP11 MSTORE PUSH1 0x21 PUSH1 0x4 MSTORE PUSH1 0x24 DUP11 REVERT JUMPDEST SWAP1 POP PUSH1 0x4 DUP2 LT ISZERO PUSH2 0x6DA JUMPI PUSH1 0x1 DUP2 EQ SWAP1 PUSH2 0x434 JUMP JUMPDEST DUP7 DUP7 PUSH1 0xD DUP2 ADD SLOAD SWAP1 PUSH1 0x13 PUSH1 0xE DUP3 ADD SLOAD SWAP2 ADD SLOAD SWAP1 PUSH1 0x40 MLOAD SWAP3 DUP4 MSTORE PUSH1 0x20 DUP4 ADD MSTORE PUSH1 0x40 DUP3 ADD MSTORE PUSH32 0x43C6FE16C1E88A9B3BCEAF30A2AE3D7E9AD9533F87698EBB2B628263771AE0E6 PUSH1 0x60 PUSH1 0x4 CALLDATALOAD SWAP3 LOG2 PUSH1 0x1 PUSH1 0x0 DUP1 MLOAD PUSH1 0x20 PUSH2 0x2775 DUP4 CODECOPY DUP2 MLOAD SWAP2 MSTORE SSTORE DUP1 RETURN JUMPDEST PUSH4 0x4E487B71 PUSH1 0xE0 SHL PUSH1 0x0 MSTORE PUSH1 0x12 PUSH1 0x4 MSTORE PUSH1 0x24 PUSH1 0x0 REVERT JUMPDEST DUP3 GT SWAP2 DUP3 PUSH2 0x7B6 JUMPI JUMPDEST POP POP ISZERO PUSH2 0x79E JUMPI DUP3 PUSH1 0xD DUP4 ADD SSTORE PUSH1 0x4 DUP3 ADD SLOAD PUSH1 0xE DUP4 ADD SSTORE PUSH2 0x39B JUMP JUMPDEST PUSH1 0x4 DUP3 ADD SLOAD PUSH1 0x1 SHR DUP1 PUSH1 0xD DUP5 ADD SSTORE PUSH1 0xE DUP4 ADD SSTORE PUSH2 0x39B JUMP JUMPDEST GT SWAP1 POP CODESIZE DUP1 PUSH2 0x782 JUMP JUMPDEST POP DUP2 DUP2 GT PUSH2 0x382 JUMP JUMPDEST SWAP1 SWAP4 PUSH2 0x7D8 DUP6 PUSH1 0xF DUP9 ADD PUSH2 0x20E9 JUMP JUMPDEST PUSH1 0x1 DUP1 PUSH1 0xA0 SHL SUB SWAP2 SLOAD SWAP1 PUSH1 0x3 SHL SHR AND SWAP1 DUP2 PUSH1 0x0 MSTORE PUSH1 0x12 DUP8 ADD PUSH1 0x20 MSTORE PUSH1 0x40 PUSH1 0x0 KECCAK256 SLOAD SWAP2 PUSH1 0x11 DUP9 ADD PUSH1 0x20 MSTORE PUSH1 0xFF PUSH1 0x40 PUSH1 0x0 KECCAK256 SLOAD AND PUSH1 0x4 DUP2 LT ISZERO PUSH2 0x6DA JUMPI PUSH1 0x1 SUB PUSH2 0x834 JUMPI POP PUSH2 0x82E SWAP2 PUSH2 0x828 SWAP2 PUSH2 0x23D2 JUMP JUMPDEST SWAP5 PUSH2 0x2377 JUMP JUMPDEST SWAP1 PUSH2 0x36E JUMP JUMPDEST DUP1 PUSH1 0x0 SWAP8 SWAP7 SWAP3 SWAP8 MSTORE PUSH1 0x11 DUP9 ADD PUSH1 0x20 MSTORE PUSH1 0xFF PUSH1 0x40 PUSH1 0x0 KECCAK256 SLOAD AND PUSH1 0x4 DUP2 LT ISZERO PUSH2 0x6DA JUMPI PUSH1 0x2 SUB PUSH2 0x870 JUMPI POP PUSH2 0x82E SWAP2 PUSH2 0x86A SWAP2 PUSH2 0x23D2 JUMP JUMPDEST SWAP4 PUSH2 0x2377 JUMP JUMPDEST PUSH1 0x0 SWAP6 SWAP3 SWAP2 SWAP6 MSTORE PUSH1 0x11 DUP8 ADD PUSH1 0x20 MSTORE PUSH1 0xFF PUSH1 0x40 PUSH1 0x0 KECCAK256 SLOAD AND PUSH1 0x4 DUP2 LT ISZERO PUSH2 0x8B7 JUMPI PUSH1 0x3 EQ PUSH2 0x8A2 JUMPI JUMPDEST POP PUSH2 0x82E SWAP1 PUSH2 0x2377 JUMP JUMPDEST PUSH2 0x8B0 SWAP1 PUSH2 0x82E SWAP3 SWAP5 PUSH2 0x23D2 JUMP JUMPDEST SWAP3 SWAP1 PUSH2 0x898 JUMP JUMPDEST PUSH4 0x4E487B71 PUSH1 0xE0 SHL DUP10 MSTORE PUSH1 0x21 PUSH1 0x4 MSTORE PUSH1 0x24 DUP10 REVERT JUMPDEST PUSH1 0x40 MLOAD PUSH3 0x461BCD PUSH1 0xE5 SHL DUP2 MSTORE PUSH1 0x20 PUSH1 0x4 DUP3 ADD MSTORE PUSH1 0x14 PUSH1 0x24 DUP3 ADD MSTORE PUSH20 0x52657665616C20706572696F6420616374697665 PUSH1 0x60 SHL PUSH1 0x44 DUP3 ADD MSTORE PUSH1 0x64 SWAP1 REVERT JUMPDEST POP CALLVALUE PUSH2 0x194 JUMPI DUP1 PUSH1 0x3 NOT CALLDATASIZE ADD SLT PUSH2 0x194 JUMPI PUSH1 0x20 PUSH1 0xD SLOAD PUSH1 0x40 MLOAD SWAP1 DUP2 MSTORE RETURN JUMPDEST POP CALLVALUE PUSH2 0x194 JUMPI PUSH1 0x40 CALLDATASIZE PUSH1 0x3 NOT ADD SLT PUSH2 0x194 JUMPI PUSH1 0x10 PUSH1 0x40 PUSH2 0x943 PUSH2 0x20B8 JUMP JUMPDEST SWAP3 PUSH1 0x4 CALLDATALOAD DUP2 MSTORE PUSH1 0x3 PUSH1 0x20 MSTORE KECCAK256 ADD SWAP1 PUSH1 0x1 DUP1 PUSH1 0xA0 SHL SUB AND PUSH1 0x0 MSTORE PUSH1 0x20 MSTORE PUSH1 0x20 PUSH1 0x40 PUSH1 0x0 KECCAK256 SLOAD ISZERO ISZERO PUSH1 0x40 MLOAD SWAP1 DUP2 MSTORE RETURN JUMPDEST POP CALLVALUE PUSH2 0x194 JUMPI PUSH2 0x980 CALLDATASIZE PUSH2 0x22BD JUMP JUMPDEST SWAP2 SWAP1 DUP2 DUP5 MSTORE PUSH1 0x3 PUSH1 0x20 MSTORE PUSH2 0x9B0 PUSH1 0x40 DUP6 KECCAK256 PUSH1 0x1 DUP1 PUSH1 0xA0 SHL SUB DUP1 PUSH1 0x2 DUP4 ADD SLOAD AND CALLER EQ SWAP2 DUP3 ISZERO PUSH2 0xA72 JUMPI JUMPDEST POP POP PUSH2 0x25C6 JUMP JUMPDEST DUP2 DUP5 MSTORE PUSH1 0x3 PUSH1 0x20 MSTORE PUSH1 0x9 PUSH1 0x40 DUP6 KECCAK256 PUSH2 0x9DA PUSH1 0x1 PUSH1 0xFF PUSH1 0x7 DUP5 ADD SLOAD AND PUSH2 0x9D4 DUP2 PUSH2 0x229D JUMP JUMPDEST EQ PUSH2 0x2600 JUMP JUMPDEST ADD SLOAD TIMESTAMP GT PUSH2 0xA35 JUMPI PUSH32 0xA49E7517D2B5714F7812F718444C5A2931D4FC670ED2D2AA2426FF2F42C5B44D SWAP1 DUP4 PUSH1 0x40 MLOAD SWAP2 PUSH1 0x20 DUP4 MSTORE DUP2 PUSH1 0x20 DUP5 ADD MSTORE PUSH1 0x40 DUP4 ADD CALLDATACOPY DUP5 PUSH1 0x40 DUP6 DUP4 ADD ADD MSTORE PUSH1 0x40 DUP2 CALLER SWAP6 PUSH1 0x1F DUP1 NOT SWAP2 ADD AND DUP2 ADD SUB ADD SWAP1 LOG3 DUP1 RETURN JUMPDEST PUSH1 0x40 MLOAD PUSH3 0x461BCD PUSH1 0xE5 SHL DUP2 MSTORE PUSH1 0x20 PUSH1 0x4 DUP3 ADD MSTORE PUSH1 0x15 PUSH1 0x24 DUP3 ADD MSTORE PUSH21 0x115D9A59195B98D9481C195C9A5BD908195B991959 PUSH1 0x5A SHL PUSH1 0x44 DUP3 ADD MSTORE PUSH1 0x64 SWAP1 REVERT JUMPDEST PUSH1 0x3 SWAP2 SWAP3 POP ADD SLOAD AND CALLER EQ CODESIZE DUP1 PUSH2 0x9A9 JUMP JUMPDEST POP CALLVALUE PUSH2 0x194 JUMPI DUP1 PUSH1 0x3 NOT CALLDATASIZE ADD SLT PUSH2 0x194 JUMPI PUSH1 0x20 PUSH1 0xB SLOAD PUSH1 0x40 MLOAD SWAP1 DUP2 MSTORE RETURN JUMPDEST POP CALLVALUE PUSH2 0x194 JUMPI PUSH1 0x40 CALLDATASIZE PUSH1 0x3 NOT ADD SLT PUSH2 0x194 JUMPI PUSH1 0x4 CALLDATALOAD PUSH2 0xAC8 PUSH2 0xAC3 CALLER DUP4 PUSH2 0x270E JUMP JUMPDEST PUSH2 0x2644 JUMP JUMPDEST DUP1 DUP3 MSTORE PUSH1 0x20 PUSH1 0x3 DUP2 MSTORE PUSH1 0x40 DUP4 KECCAK256 PUSH1 0x2 PUSH1 0xFF PUSH1 0x7 DUP4 ADD SLOAD AND PUSH2 0xAE8 DUP2 PUSH2 0x229D JUMP JUMPDEST SUB PUSH2 0xBB7 JUMPI PUSH1 0xA DUP2 ADD SLOAD TIMESTAMP GT PUSH2 0xB7C JUMPI PUSH1 0x10 ADD SWAP1 CALLER PUSH1 0x0 MSTORE DUP2 DUP2 MSTORE PUSH1 0x40 PUSH1 0x0 KECCAK256 SLOAD PUSH2 0xB44 JUMPI CALLER PUSH1 0x0 MSTORE MSTORE PUSH1 0x24 CALLDATALOAD PUSH1 0x40 PUSH1 0x0 KECCAK256 SSTORE CALLER SWAP1 PUSH32 0x3834A2C8EA101E1468B529270D35FBFF0A12DE32A5A7E5729B8B4DAD6FB32C01 DUP4 DUP1 LOG3 DUP1 RETURN JUMPDEST PUSH1 0x64 SWAP1 PUSH1 0x40 MLOAD SWAP1 PUSH3 0x461BCD PUSH1 0xE5 SHL DUP3 MSTORE PUSH1 0x4 DUP3 ADD MSTORE PUSH1 0x11 PUSH1 0x24 DUP3 ADD MSTORE PUSH17 0x105B1C9958591E4818DBDB5B5A5D1D1959 PUSH1 0x7A SHL PUSH1 0x44 DUP3 ADD MSTORE REVERT JUMPDEST PUSH1 0x40 MLOAD PUSH3 0x461BCD PUSH1 0xE5 SHL DUP2 MSTORE PUSH1 0x4 DUP2 ADD DUP4 SWAP1 MSTORE PUSH1 0x13 PUSH1 0x24 DUP3 ADD MSTORE PUSH19 0x10DBDB5B5A5D081C195C9A5BD908195B991959 PUSH1 0x6A SHL PUSH1 0x44 DUP3 ADD MSTORE PUSH1 0x64 SWAP1 REVERT JUMPDEST PUSH1 0x40 MLOAD PUSH3 0x461BCD PUSH1 0xE5 SHL DUP2 MSTORE PUSH1 0x4 DUP2 ADD DUP4 SWAP1 MSTORE PUSH1 0x13 PUSH1 0x24 DUP3 ADD MSTORE PUSH19 0x4E6F7420696E20636F6D6D6974207068617365 PUSH1 0x68 SHL PUSH1 0x44 DUP3 ADD MSTORE PUSH1 0x64 SWAP1 REVERT JUMPDEST POP CALLVALUE PUSH2 0x194 JUMPI PUSH1 0x20 CALLDATASIZE PUSH1 0x3 NOT ADD SLT PUSH2 0x194 JUMPI PUSH2 0xC0C PUSH2 0x2347 JUMP JUMPDEST PUSH1 0x4 CALLDATALOAD DUP2 MSTORE PUSH1 0x3 PUSH1 0x20 MSTORE PUSH1 0x40 DUP2 KECCAK256 SWAP1 PUSH1 0x7 DUP3 ADD SWAP2 PUSH2 0xC39 PUSH1 0x5 PUSH1 0xFF DUP6 SLOAD AND PUSH2 0xC33 DUP2 PUSH2 0x229D JUMP JUMPDEST EQ PUSH2 0x26D3 JUMP JUMPDEST PUSH2 0xC4A PUSH1 0xC DUP3 ADD SLOAD PUSH1 0xB SLOAD SWAP1 PUSH2 0x23D2 JUMP JUMPDEST TIMESTAMP GT DUP1 ISZERO PUSH2 0xD43 JUMPI JUMPDEST ISZERO PUSH2 0xD07 JUMPI PUSH1 0x1 DUP2 ADD SLOAD PUSH1 0xD DUP3 ADD SLOAD PUSH1 0xE SWAP1 SWAP3 ADD SLOAD PUSH1 0x1 PUSH1 0x1 PUSH1 0xA0 SHL SUB SWAP1 SWAP2 AND SWAP2 DUP3 EXTCODESIZE ISZERO PUSH2 0xD03 JUMPI SWAP1 PUSH1 0x44 DUP5 SWAP3 DUP4 PUSH1 0x40 MLOAD SWAP6 DUP7 SWAP5 DUP6 SWAP4 PUSH4 0xBDC84AC3 PUSH1 0xE0 SHL DUP6 MSTORE PUSH1 0x4 DUP6 ADD MSTORE PUSH1 0x24 DUP5 ADD MSTORE GAS CALL DUP1 ISZERO PUSH2 0xCF8 JUMPI PUSH2 0xCCC JUMPI JUMPDEST POP DUP2 SLOAD PUSH1 0xFF NOT AND PUSH1 0x6 OR SWAP1 SWAP2 SSTORE PUSH1 0x1 PUSH1 0x0 DUP1 MLOAD PUSH1 0x20 PUSH2 0x2775 DUP4 CODECOPY DUP2 MLOAD SWAP2 MSTORE SSTORE DUP1 RETURN JUMPDEST PUSH8 0xFFFFFFFFFFFFFFFF DUP2 GT PUSH2 0xCE4 JUMPI PUSH1 0x40 MSTORE CODESIZE PUSH2 0xCAA JUMP JUMPDEST PUSH4 0x4E487B71 PUSH1 0xE0 SHL DUP3 MSTORE PUSH1 0x41 PUSH1 0x4 MSTORE PUSH1 0x24 DUP3 REVERT JUMPDEST PUSH1 0x40 MLOAD RETURNDATASIZE DUP5 DUP3 RETURNDATACOPY RETURNDATASIZE SWAP1 REVERT JUMPDEST DUP4 DUP1 REVERT JUMPDEST PUSH1 0x40 MLOAD PUSH3 0x461BCD PUSH1 0xE5 SHL DUP2 MSTORE PUSH1 0x20 PUSH1 0x4 DUP3 ADD MSTORE PUSH1 0x14 PUSH1 0x24 DUP3 ADD MSTORE PUSH20 0x41707065616C20706572696F6420616374697665 PUSH1 0x60 SHL PUSH1 0x44 DUP3 ADD MSTORE PUSH1 0x64 SWAP1 REVERT JUMPDEST POP PUSH1 0xFF PUSH1 0x14 DUP3 ADD SLOAD AND PUSH2 0xC53 JUMP JUMPDEST POP CALLVALUE PUSH2 0x194 JUMPI DUP1 PUSH1 0x3 NOT CALLDATASIZE ADD SLT PUSH2 0x194 JUMPI SLOAD PUSH1 0x40 MLOAD PUSH1 0x1 PUSH1 0x1 PUSH1 0xA0 SHL SUB SWAP1 SWAP2 AND DUP2 MSTORE PUSH1 0x20 SWAP1 RETURN JUMPDEST POP CALLVALUE PUSH2 0x194 JUMPI PUSH1 0x20 DUP1 PUSH1 0x3 NOT CALLDATASIZE ADD SLT PUSH2 0xE2D JUMPI PUSH1 0x4 CALLDATALOAD DUP3 MSTORE PUSH1 0x3 DUP2 MSTORE PUSH1 0xF PUSH1 0x40 DUP4 KECCAK256 ADD PUSH1 0x40 MLOAD SWAP3 DUP4 DUP4 DUP4 SLOAD SWAP2 DUP3 DUP2 MSTORE ADD SWAP1 DUP2 SWAP4 DUP4 MSTORE DUP5 DUP4 KECCAK256 SWAP1 DUP4 JUMPDEST DUP2 DUP2 LT PUSH2 0xE10 JUMPI POP POP POP DUP5 PUSH2 0xDC9 SWAP2 SUB DUP6 PUSH2 0x217F JUMP JUMPDEST PUSH1 0x40 MLOAD SWAP4 DUP4 DUP6 SWAP5 DUP6 ADD SWAP2 DUP2 DUP7 MSTORE MLOAD DUP1 SWAP3 MSTORE PUSH1 0x40 DUP6 ADD SWAP4 SWAP3 JUMPDEST DUP3 DUP2 LT PUSH2 0xDF0 JUMPI POP POP POP POP SUB SWAP1 RETURN JUMPDEST DUP4 MLOAD PUSH1 0x1 PUSH1 0x1 PUSH1 0xA0 SHL SUB AND DUP6 MSTORE DUP7 SWAP6 POP SWAP4 DUP2 ADD SWAP4 SWAP3 DUP2 ADD SWAP3 PUSH1 0x1 ADD PUSH2 0xDE1 JUMP JUMPDEST DUP3 SLOAD PUSH1 0x1 PUSH1 0x1 PUSH1 0xA0 SHL SUB AND DUP5 MSTORE SWAP3 DUP7 ADD SWAP3 PUSH1 0x1 SWAP3 DUP4 ADD SWAP3 ADD PUSH2 0xDB3 JUMP JUMPDEST POP DUP1 REVERT JUMPDEST POP CALLVALUE PUSH2 0x194 JUMPI DUP1 PUSH1 0x3 NOT CALLDATASIZE ADD SLT PUSH2 0x194 JUMPI PUSH1 0x20 PUSH1 0xC SLOAD PUSH1 0x40 MLOAD SWAP1 DUP2 MSTORE RETURN JUMPDEST POP CALLVALUE PUSH2 0x194 JUMPI DUP1 PUSH1 0x3 NOT CALLDATASIZE ADD SLT PUSH2 0x194 JUMPI PUSH1 0x20 PUSH1 0xF SLOAD PUSH1 0x40 MLOAD SWAP1 DUP2 MSTORE RETURN JUMPDEST POP PUSH2 0xE77 CALLDATASIZE PUSH2 0x22BD JUMP JUMPDEST POP POP DUP1 DUP3 MSTORE PUSH1 0x20 PUSH1 0x3 DUP2 MSTORE PUSH2 0xEA7 PUSH1 0x40 DUP5 KECCAK256 PUSH1 0x1 DUP1 PUSH1 0xA0 SHL SUB DUP1 PUSH1 0x2 DUP4 ADD SLOAD AND CALLER EQ SWAP2 DUP3 ISZERO PUSH2 0xA72 JUMPI POP POP PUSH2 0x25C6 JUMP JUMPDEST PUSH1 0xD SLOAD DUP1 PUSH1 0x1 SHL SWAP1 DUP1 DUP3 DIV PUSH1 0x2 EQ SWAP1 ISZERO OR ISZERO PUSH2 0x103E JUMPI CALLVALUE LT PUSH2 0xFFA JUMPI DUP2 DUP4 MSTORE PUSH1 0x3 DUP2 MSTORE PUSH1 0x40 DUP4 KECCAK256 PUSH1 0x7 DUP2 ADD SWAP1 DUP2 SLOAD SWAP2 PUSH2 0xEE8 PUSH1 0x5 PUSH1 0xFF DUP6 AND PUSH2 0xC33 DUP2 PUSH2 0x229D JUMP JUMPDEST PUSH1 0x14 DUP3 ADD SWAP3 DUP4 SLOAD SWAP1 PUSH1 0xFF DUP3 AND PUSH2 0xFC2 JUMPI PUSH1 0x15 DUP5 ADD SWAP5 DUP6 SLOAD SWAP1 PUSH1 0x2 DUP3 LT ISZERO PUSH2 0xF87 JUMPI SWAP2 PUSH2 0xF47 PUSH32 0x3C38C919BDD44374F95E247E400F505A9FB708FE987D5A077F6D54A13AE81737 SWAP9 SWAP8 SWAP7 SWAP5 SWAP3 PUSH1 0xF SWAP7 SWAP5 PUSH1 0x1 PUSH1 0xFF NOT DUP1 SWAP7 AND OR SWAP1 SSTORE PUSH2 0x2377 JUMP JUMPDEST DUP7 SSTORE AND SWAP1 SSTORE ADD DUP1 SLOAD DUP7 DUP3 SSTORE DUP1 PUSH2 0xF6E JUMPI JUMPDEST POP POP PUSH2 0xF63 DUP5 PUSH2 0x23DF JUMP JUMPDEST SLOAD PUSH1 0x40 MLOAD SWAP1 DUP2 MSTORE LOG2 DUP1 RETURN JUMPDEST PUSH2 0xF80 SWAP2 DUP8 MSTORE DUP4 DUP8 KECCAK256 SWAP1 DUP2 ADD SWAP1 PUSH2 0x23BB JUMP JUMPDEST CODESIZE DUP1 PUSH2 0xF58 JUMP JUMPDEST PUSH1 0x40 MLOAD PUSH3 0x461BCD PUSH1 0xE5 SHL DUP2 MSTORE PUSH1 0x4 DUP2 ADD DUP10 SWAP1 MSTORE PUSH1 0x13 PUSH1 0x24 DUP3 ADD MSTORE PUSH19 0x13585E08185C1C19585B1CC81C995858DA1959 PUSH1 0x6A SHL PUSH1 0x44 DUP3 ADD MSTORE PUSH1 0x64 SWAP1 REVERT JUMPDEST PUSH1 0x40 MLOAD PUSH3 0x461BCD PUSH1 0xE5 SHL DUP2 MSTORE PUSH1 0x4 DUP2 ADD DUP8 SWAP1 MSTORE PUSH1 0x10 PUSH1 0x24 DUP3 ADD MSTORE PUSH16 0x105B1C9958591E48185C1C19585B1959 PUSH1 0x82 SHL PUSH1 0x44 DUP3 ADD MSTORE PUSH1 0x64 SWAP1 REVERT JUMPDEST PUSH1 0x64 SWAP1 PUSH1 0x40 MLOAD SWAP1 PUSH3 0x461BCD PUSH1 0xE5 SHL DUP3 MSTORE PUSH1 0x4 DUP3 ADD MSTORE PUSH1 0x17 PUSH1 0x24 DUP3 ADD MSTORE PUSH32 0x496E73756666696369656E742061707065616C20666565000000000000000000 PUSH1 0x44 DUP3 ADD MSTORE REVERT JUMPDEST PUSH4 0x4E487B71 PUSH1 0xE0 SHL DUP5 MSTORE PUSH1 0x11 PUSH1 0x4 MSTORE PUSH1 0x24 DUP5 REVERT JUMPDEST POP CALLVALUE PUSH2 0x194 JUMPI PUSH1 0x20 CALLDATASIZE PUSH1 0x3 NOT ADD SLT PUSH2 0x194 JUMPI PUSH1 0x4 CALLDATALOAD DUP2 MSTORE PUSH1 0x3 PUSH1 0x20 MSTORE PUSH1 0x40 SWAP1 KECCAK256 DUP1 SLOAD SWAP1 PUSH1 0x1 PUSH1 0xA0 SHL PUSH1 0x1 SWAP1 SUB SWAP2 DUP3 PUSH1 0x1 DUP4 ADD SLOAD AND SWAP3 DUP1 PUSH1 0x2 DUP5 ADD SLOAD AND PUSH1 0xE0 MSTORE PUSH1 0x3 DUP4 ADD SLOAD AND PUSH2 0x100 MSTORE PUSH1 0x4 DUP3 ADD SLOAD SWAP3 PUSH1 0x5 DUP4 ADD PUSH2 0x10AE SWAP1 PUSH2 0x21B7 JUMP JUMPDEST SWAP4 PUSH2 0x10BB PUSH1 0x6 DUP6 ADD PUSH2 0x21B7 JUMP JUMPDEST SWAP5 PUSH1 0x7 DUP6 ADD SLOAD PUSH1 0xFF AND PUSH1 0xC0 MSTORE PUSH1 0x8 DUP6 ADD SLOAD SWAP6 PUSH1 0x9 DUP7 ADD SLOAD PUSH1 0xA DUP8 ADD SLOAD SWAP1 PUSH1 0xB DUP9 ADD SLOAD SWAP3 PUSH1 0xC DUP10 ADD SLOAD SWAP5 PUSH1 0xD DUP11 ADD SLOAD SWAP7 PUSH1 0xE DUP12 ADD SLOAD SWAP9 PUSH1 0x13 DUP13 ADD SLOAD SWAP11 PUSH1 0x14 DUP14 ADD SLOAD PUSH1 0xFF AND SWAP13 PUSH1 0x15 ADD SLOAD PUSH1 0xA0 MSTORE PUSH1 0x40 MLOAD DUP1 PUSH1 0x80 MSTORE MSTORE PUSH1 0x80 MLOAD PUSH1 0x20 ADD MSTORE PUSH1 0xE0 MLOAD PUSH1 0x80 MLOAD PUSH1 0x40 ADD MSTORE PUSH2 0x100 MLOAD PUSH1 0x80 MLOAD PUSH1 0x60 ADD MSTORE PUSH1 0x80 MLOAD PUSH1 0x80 ADD MSTORE PUSH2 0x240 DUP1 PUSH1 0x80 MLOAD PUSH1 0xA0 ADD MSTORE PUSH1 0x80 MLOAD ADD PUSH2 0x1149 SWAP2 PUSH2 0x225D JUMP JUMPDEST PUSH1 0x80 MLOAD DUP1 DUP3 SUB SWAP1 PUSH1 0xC0 ADD MSTORE PUSH2 0x115D SWAP2 PUSH2 0x225D JUMP JUMPDEST SWAP9 PUSH1 0xC0 MLOAD PUSH2 0x116A SWAP1 PUSH2 0x229D JUMP JUMPDEST PUSH1 0xC0 MLOAD PUSH1 0x80 MLOAD PUSH1 0xE0 ADD MSTORE PUSH1 0x80 MLOAD PUSH2 0x100 ADD MSTORE PUSH1 0x80 MLOAD PUSH2 0x120 ADD MSTORE PUSH1 0x80 MLOAD PUSH2 0x140 ADD MSTORE PUSH1 0x80 MLOAD PUSH2 0x160 ADD MSTORE PUSH1 0x80 MLOAD PUSH2 0x180 ADD MSTORE PUSH1 0x80 MLOAD PUSH2 0x1A0 ADD MSTORE PUSH1 0x80 MLOAD PUSH2 0x1C0 ADD MSTORE PUSH1 0x80 MLOAD PUSH2 0x1E0 ADD MSTORE ISZERO ISZERO PUSH1 0x80 MLOAD PUSH2 0x200 ADD MSTORE PUSH1 0xA0 MLOAD PUSH1 0x80 MLOAD PUSH2 0x220 ADD MSTORE PUSH1 0x80 MLOAD DUP1 SWAP2 SUB SWAP1 RETURN JUMPDEST POP CALLVALUE PUSH2 0x194 JUMPI DUP1 PUSH1 0x3 NOT CALLDATASIZE ADD SLT PUSH2 0x194 JUMPI PUSH1 0x20 PUSH1 0x7 SLOAD PUSH1 0x40 MLOAD SWAP1 DUP2 MSTORE RETURN JUMPDEST POP CALLVALUE PUSH2 0x194 JUMPI PUSH1 0x20 DUP1 PUSH1 0x3 NOT CALLDATASIZE ADD SLT PUSH2 0xE2D JUMPI PUSH1 0x4 CALLDATALOAD SWAP1 PUSH2 0x120F PUSH2 0x2347 JUMP JUMPDEST PUSH1 0x6 SLOAD DUP3 LT PUSH2 0x1457 JUMPI CALLER DUP4 MSTORE PUSH1 0x4 DUP2 MSTORE PUSH1 0xFF PUSH1 0x40 DUP5 KECCAK256 SLOAD AND PUSH2 0x141E JUMPI PUSH1 0x1 SLOAD PUSH1 0x40 MLOAD PUSH4 0x27C06FD5 PUSH1 0xE0 SHL DUP2 MSTORE CALLER PUSH1 0x4 DUP3 ADD MSTORE PUSH1 0x1 PUSH1 0x1 PUSH1 0xA0 SHL SUB SWAP2 DUP4 SWAP1 DUP3 SWAP1 PUSH1 0x24 SWAP1 DUP3 SWAP1 DUP7 AND GAS STATICCALL SWAP1 DUP2 ISZERO PUSH2 0x1413 JUMPI DUP6 SWAP2 PUSH2 0x13E2 JUMPI JUMPDEST POP PUSH1 0xC SLOAD GT PUSH2 0x139D JUMPI DUP2 DUP5 SWAP2 DUP3 SLOAD AND PUSH1 0x64 PUSH1 0x40 MLOAD DUP1 SWAP5 DUP2 SWAP4 PUSH4 0x23B872DD PUSH1 0xE0 SHL DUP4 MSTORE CALLER PUSH1 0x4 DUP5 ADD MSTORE ADDRESS PUSH1 0x24 DUP5 ADD MSTORE DUP9 PUSH1 0x44 DUP5 ADD MSTORE GAS CALL DUP1 ISZERO PUSH2 0x1392 JUMPI PUSH2 0x12B2 SWAP2 DUP6 SWAP2 PUSH2 0x1375 JUMPI JUMPDEST POP PUSH2 0x2309 JUMP JUMPDEST PUSH1 0x40 MLOAD SWAP2 PUSH1 0xE0 DUP4 ADD DUP4 DUP2 LT PUSH8 0xFFFFFFFFFFFFFFFF DUP3 GT OR PUSH2 0x1361 JUMPI SWAP1 PUSH1 0x6 SWAP3 SWAP2 PUSH1 0x40 MSTORE PUSH1 0x1 DUP5 MSTORE DUP2 DUP5 ADD SWAP1 DUP6 DUP3 MSTORE PUSH1 0x40 DUP6 ADD DUP7 DUP2 MSTORE PUSH1 0x60 DUP7 ADD SWAP1 PUSH8 0xDE0B6B3A7640000 DUP4 DIV DUP3 MSTORE PUSH1 0x80 DUP8 ADD SWAP3 DUP4 MSTORE PUSH1 0xA0 DUP8 ADD SWAP4 DUP9 DUP6 MSTORE PUSH1 0x4 PUSH1 0xC0 DUP10 ADD SWAP7 TIMESTAMP DUP9 MSTORE CALLER DUP12 MSTORE MSTORE PUSH1 0x40 DUP10 KECCAK256 SWAP8 MLOAD ISZERO ISZERO PUSH1 0xFF DUP1 NOT DUP11 SLOAD AND SWAP2 AND OR DUP9 SSTORE MLOAD PUSH1 0x1 DUP9 ADD SSTORE MLOAD PUSH1 0x2 DUP8 ADD SSTORE MLOAD PUSH1 0x3 DUP7 ADD SSTORE MLOAD PUSH1 0x4 DUP6 ADD SSTORE MLOAD PUSH1 0x5 DUP5 ADD SSTORE MLOAD SWAP2 ADD SSTORE PUSH1 0x1 PUSH1 0x0 DUP1 MLOAD PUSH1 0x20 PUSH2 0x2775 DUP4 CODECOPY DUP2 MLOAD SWAP2 MSTORE SSTORE DUP1 RETURN JUMPDEST PUSH4 0x4E487B71 PUSH1 0xE0 SHL DUP6 MSTORE PUSH1 0x41 PUSH1 0x4 MSTORE PUSH1 0x24 DUP6 REVERT JUMPDEST PUSH2 0x138C SWAP2 POP DUP4 RETURNDATASIZE DUP6 GT PUSH2 0x691 JUMPI PUSH2 0x683 DUP2 DUP4 PUSH2 0x217F JUMP JUMPDEST CODESIZE PUSH2 0x12AC JUMP JUMPDEST PUSH1 0x40 MLOAD RETURNDATASIZE DUP7 DUP3 RETURNDATACOPY RETURNDATASIZE SWAP1 REVERT JUMPDEST PUSH1 0x40 MLOAD PUSH3 0x461BCD PUSH1 0xE5 SHL DUP2 MSTORE PUSH1 0x4 DUP2 ADD DUP4 SWAP1 MSTORE PUSH1 0x17 PUSH1 0x24 DUP3 ADD MSTORE PUSH32 0x496E73756666696369656E742072657075746174696F6E000000000000000000 PUSH1 0x44 DUP3 ADD MSTORE PUSH1 0x64 SWAP1 REVERT JUMPDEST SWAP1 POP DUP3 DUP2 DUP2 RETURNDATASIZE DUP4 GT PUSH2 0x140C JUMPI JUMPDEST PUSH2 0x13F9 DUP2 DUP4 PUSH2 0x217F JUMP JUMPDEST DUP2 ADD SUB SLT PUSH2 0x1408 JUMPI MLOAD CODESIZE PUSH2 0x1265 JUMP JUMPDEST DUP5 DUP1 REVERT JUMPDEST POP RETURNDATASIZE PUSH2 0x13EF JUMP JUMPDEST PUSH1 0x40 MLOAD RETURNDATASIZE DUP8 DUP3 RETURNDATACOPY RETURNDATASIZE SWAP1 REVERT JUMPDEST PUSH1 0x64 SWAP1 PUSH1 0x40 MLOAD SWAP1 PUSH3 0x461BCD PUSH1 0xE5 SHL DUP3 MSTORE PUSH1 0x4 DUP3 ADD MSTORE PUSH1 0x12 PUSH1 0x24 DUP3 ADD MSTORE PUSH18 0x105B1C9958591E481C9959DA5CDD195C9959 PUSH1 0x72 SHL PUSH1 0x44 DUP3 ADD MSTORE REVERT JUMPDEST PUSH1 0x64 SWAP1 PUSH1 0x40 MLOAD SWAP1 PUSH3 0x461BCD PUSH1 0xE5 SHL DUP3 MSTORE PUSH1 0x4 DUP3 ADD MSTORE PUSH1 0x12 PUSH1 0x24 DUP3 ADD MSTORE PUSH18 0x496E73756666696369656E74207374616B65 PUSH1 0x70 SHL PUSH1 0x44 DUP3 ADD MSTORE REVERT JUMPDEST POP CALLVALUE PUSH2 0x194 JUMPI PUSH1 0x20 CALLDATASIZE PUSH1 0x3 NOT ADD SLT PUSH2 0x194 JUMPI PUSH1 0x4 CALLDATALOAD DUP2 MSTORE PUSH1 0x3 PUSH1 0x20 MSTORE PUSH1 0x40 DUP2 KECCAK256 PUSH1 0x7 DUP2 ADD DUP1 SLOAD PUSH2 0x14C8 PUSH1 0x1 PUSH1 0xFF DUP4 AND PUSH2 0x9D4 DUP2 PUSH2 0x229D JUMP JUMPDEST PUSH1 0x9 DUP4 ADD SLOAD TIMESTAMP GT ISZERO PUSH2 0x14F2 JUMPI PUSH1 0x2 SWAP1 PUSH1 0xFF NOT AND OR SWAP1 SSTORE PUSH1 0xA PUSH2 0x14EC PUSH1 0x9 SLOAD TIMESTAMP PUSH2 0x23D2 JUMP JUMPDEST SWAP2 ADD SSTORE DUP1 RETURN JUMPDEST PUSH1 0x40 MLOAD PUSH3 0x461BCD PUSH1 0xE5 SHL DUP2 MSTORE PUSH1 0x20 PUSH1 0x4 DUP3 ADD MSTORE PUSH1 0x16 PUSH1 0x24 DUP3 ADD MSTORE PUSH22 0x45766964656E636520706572696F6420616374697665 PUSH1 0x50 SHL PUSH1 0x44 DUP3 ADD MSTORE PUSH1 0x64 SWAP1 REVERT JUMPDEST POP PUSH1 0x60 CALLDATASIZE PUSH1 0x3 NOT ADD SLT PUSH2 0x194 JUMPI PUSH2 0x1545 PUSH2 0x20D3 JUMP JUMPDEST PUSH1 0x24 CALLDATALOAD PUSH8 0xFFFFFFFFFFFFFFFF DUP2 GT PUSH2 0x1AD3 JUMPI PUSH2 0x1565 SWAP1 CALLDATASIZE SWAP1 PUSH1 0x4 ADD PUSH2 0x2117 JUMP JUMPDEST SWAP2 PUSH1 0x44 CALLDATALOAD PUSH8 0xFFFFFFFFFFFFFFFF DUP2 GT PUSH2 0x1408 JUMPI PUSH2 0x1586 SWAP1 CALLDATASIZE SWAP1 PUSH1 0x4 ADD PUSH2 0x2117 JUMP JUMPDEST PUSH2 0x158E PUSH2 0x2347 JUMP JUMPDEST PUSH1 0xD SLOAD CALLVALUE LT PUSH2 0x1A9B JUMPI PUSH1 0x40 MLOAD PUSH4 0x10069769 PUSH1 0xE1 SHL DUP2 MSTORE PUSH1 0x20 DUP2 PUSH1 0x4 DUP2 PUSH1 0x1 PUSH1 0x1 PUSH1 0xA0 SHL SUB DUP9 AND GAS STATICCALL DUP1 ISZERO PUSH2 0x1A90 JUMPI DUP8 SWAP1 PUSH2 0x1A50 JUMPI JUMPDEST PUSH1 0x3 SWAP2 POP PUSH2 0x15D0 DUP2 PUSH2 0x229D JUMP JUMPDEST SUB PUSH2 0x1A13 JUMPI PUSH1 0x2 SLOAD SWAP5 PUSH2 0x15E2 DUP7 PUSH2 0x2377 JUMP JUMPDEST PUSH1 0x2 SSTORE DUP6 DUP8 MSTORE PUSH1 0x3 PUSH1 0x20 SWAP1 DUP2 MSTORE PUSH1 0x40 DUP1 DUP10 KECCAK256 DUP9 DUP2 SSTORE PUSH1 0x1 DUP2 ADD DUP1 SLOAD PUSH1 0x1 PUSH1 0x1 PUSH1 0xA0 SHL SUB NOT AND PUSH1 0x1 PUSH1 0x1 PUSH1 0xA0 SHL SUB DUP10 AND SWAP1 DUP2 OR SWAP1 SWAP2 SSTORE SWAP2 MLOAD PUSH4 0x5C39FCC1 PUSH1 0xE0 SHL DUP2 MSTORE SWAP1 SWAP8 SWAP3 SWAP1 SWAP2 DUP3 SWAP1 PUSH1 0x4 SWAP1 DUP3 SWAP1 GAS STATICCALL SWAP1 DUP2 ISZERO PUSH2 0x19BA JUMPI DUP10 SWAP2 PUSH2 0x19F4 JUMPI JUMPDEST POP PUSH1 0x2 DUP8 ADD DUP1 SLOAD PUSH1 0x1 PUSH1 0x1 PUSH1 0xA0 SHL SUB NOT AND PUSH1 0x1 PUSH1 0x1 PUSH1 0xA0 SHL SUB SWAP3 DUP4 AND OR SWAP1 SSTORE PUSH1 0x40 MLOAD PUSH4 0x61EFB2A3 PUSH1 0xE1 SHL DUP2 MSTORE SWAP1 PUSH1 0x20 SWAP1 DUP3 SWAP1 PUSH1 0x4 SWAP1 DUP3 SWAP1 DUP11 AND GAS STATICCALL SWAP1 DUP2 ISZERO PUSH2 0x19BA JUMPI DUP10 SWAP2 PUSH2 0x19C5 JUMPI JUMPDEST POP PUSH1 0x3 DUP8 ADD DUP1 SLOAD PUSH1 0x1 PUSH1 0x1 PUSH1 0xA0 SHL SUB NOT AND PUSH1 0x1 PUSH1 0x1 PUSH1 0xA0 SHL SUB SWAP3 DUP4 AND OR SWAP1 SSTORE PUSH1 0x40 MLOAD PUSH4 0x3689778F PUSH1 0xE2 SHL DUP2 MSTORE SWAP1 PUSH1 0x20 SWAP1 DUP3 SWAP1 PUSH1 0x4 SWAP1 DUP3 SWAP1 DUP11 AND GAS STATICCALL SWAP1 DUP2 ISZERO PUSH2 0x19BA JUMPI DUP10 SWAP2 PUSH2 0x1984 JUMPI JUMPDEST POP PUSH1 0x4 DUP8 ADD SSTORE PUSH8 0xFFFFFFFFFFFFFFFF DUP3 GT PUSH2 0x1970 JUMPI DUP2 SWAP1 PUSH2 0x16F5 PUSH1 0x5 DUP9 ADD SLOAD PUSH2 0x2145 JUMP JUMPDEST PUSH1 0x1F DUP2 GT PUSH2 0x193D JUMPI JUMPDEST POP DUP9 SWAP1 PUSH1 0x1F DUP4 GT PUSH1 0x1 EQ PUSH2 0x18D1 JUMPI DUP10 SWAP3 PUSH2 0x18C6 JUMPI JUMPDEST POP POP DUP2 PUSH1 0x1 SHL SWAP2 PUSH1 0x0 NOT SWAP1 PUSH1 0x3 SHL SHR NOT AND OR PUSH1 0x5 DUP6 ADD SSTORE JUMPDEST PUSH8 0xFFFFFFFFFFFFFFFF DUP2 GT PUSH2 0x18B2 JUMPI DUP1 PUSH1 0x20 SWAP7 PUSH1 0x6 DUP7 ADD SWAP4 PUSH2 0x174D DUP6 SLOAD PUSH2 0x2145 JUMP JUMPDEST PUSH1 0x1F DUP2 GT PUSH2 0x1879 JUMPI JUMPDEST POP DUP2 PUSH1 0x1F DUP5 GT PUSH1 0x1 EQ PUSH2 0x1815 JUMPI SWAP3 PUSH2 0x180A JUMPI JUMPDEST POP POP DUP2 PUSH1 0x1 SHL SWAP2 PUSH1 0x0 NOT SWAP1 PUSH1 0x3 SHL SHR NOT AND OR SWAP1 SSTORE JUMPDEST PUSH1 0x7 DUP3 ADD PUSH1 0xFF NOT DUP2 SLOAD AND SWAP1 SSTORE TIMESTAMP PUSH1 0x8 DUP4 ADD SSTORE PUSH2 0x179C PUSH1 0x8 SLOAD TIMESTAMP PUSH2 0x23D2 JUMP JUMPDEST PUSH1 0x9 DUP4 ADD SSTORE PUSH2 0x17AA DUP4 PUSH2 0x23DF JUMP JUMPDEST DUP3 PUSH32 0x3854FEFC4EBE91A685AB0A9689BB3EDA28D3CC5373AA8E87EE52F597BD1B9076 DUP6 PUSH1 0x4 PUSH1 0x1 DUP1 PUSH1 0xA0 SHL SUB PUSH1 0x2 DUP8 ADD SLOAD AND SWAP6 ADD SLOAD SWAP4 PUSH1 0x40 MLOAD SWAP5 DUP6 MSTORE PUSH1 0x1 DUP1 PUSH1 0xA0 SHL SUB AND SWAP4 LOG4 PUSH1 0x1 PUSH1 0x0 DUP1 MLOAD PUSH1 0x20 PUSH2 0x2775 DUP4 CODECOPY DUP2 MLOAD SWAP2 MSTORE SSTORE PUSH1 0x40 MLOAD SWAP1 DUP2 MSTORE RETURN JUMPDEST ADD CALLDATALOAD SWAP1 POP CODESIZE DUP1 PUSH2 0x1769 JUMP JUMPDEST DUP6 DUP2 MSTORE DUP10 DUP2 KECCAK256 SWAP1 SWAP5 POP SWAP2 JUMPDEST PUSH1 0x1F NOT DUP5 AND DUP6 LT PUSH2 0x1862 JUMPI PUSH1 0x1 SWAP5 POP DUP4 PUSH1 0x1F NOT DUP2 AND LT PUSH2 0x1848 JUMPI JUMPDEST POP POP POP DUP2 SHL ADD SWAP1 SSTORE PUSH2 0x177E JUMP JUMPDEST ADD CALLDATALOAD PUSH1 0x0 NOT PUSH1 0x3 DUP5 SWAP1 SHL PUSH1 0xF8 AND SHR NOT AND SWAP1 SSTORE CODESIZE DUP1 DUP1 PUSH2 0x183B JUMP JUMPDEST DUP2 DUP2 ADD CALLDATALOAD DUP4 SSTORE SWAP4 DUP10 ADD SWAP4 PUSH1 0x1 SWAP1 SWAP3 ADD SWAP2 DUP10 ADD PUSH2 0x1820 JUMP JUMPDEST PUSH2 0x18A2 SWAP1 DUP7 DUP5 MSTORE DUP11 DUP5 KECCAK256 PUSH1 0x1F DUP7 ADD PUSH1 0x5 SHR DUP2 ADD SWAP2 DUP13 DUP8 LT PUSH2 0x18A8 JUMPI JUMPDEST PUSH1 0x1F ADD PUSH1 0x5 SHR ADD SWAP1 PUSH2 0x23BB JUMP JUMPDEST CODESIZE PUSH2 0x1756 JUMP JUMPDEST SWAP1 SWAP2 POP DUP2 SWAP1 PUSH2 0x1895 JUMP JUMPDEST PUSH4 0x4E487B71 PUSH1 0xE0 SHL DUP7 MSTORE PUSH1 0x41 PUSH1 0x4 MSTORE PUSH1 0x24 DUP7 REVERT JUMPDEST ADD CALLDATALOAD SWAP1 POP CODESIZE DUP1 PUSH2 0x1713 JUMP JUMPDEST PUSH1 0x5 DUP9 ADD DUP11 MSTORE PUSH1 0x20 DUP11 KECCAK256 DUP11 SWAP5 POP SWAP2 JUMPDEST PUSH1 0x1F NOT DUP5 AND DUP6 LT PUSH2 0x1925 JUMPI PUSH1 0x1 SWAP5 POP DUP4 PUSH1 0x1F NOT DUP2 AND LT PUSH2 0x190B JUMPI JUMPDEST POP POP POP DUP2 SHL ADD PUSH1 0x5 DUP6 ADD SSTORE PUSH2 0x172B JUMP JUMPDEST ADD CALLDATALOAD PUSH1 0x0 NOT PUSH1 0x3 DUP5 SWAP1 SHL PUSH1 0xF8 AND SHR NOT AND SWAP1 SSTORE CODESIZE DUP1 DUP1 PUSH2 0x18FB JUMP JUMPDEST DUP2 DUP2 ADD CALLDATALOAD DUP4 SSTORE PUSH1 0x20 SWAP5 DUP6 ADD SWAP5 PUSH1 0x1 SWAP1 SWAP4 ADD SWAP3 ADD PUSH2 0x18E0 JUMP JUMPDEST PUSH2 0x196A SWAP1 PUSH1 0x5 DUP10 ADD DUP12 MSTORE PUSH1 0x20 DUP12 KECCAK256 PUSH1 0x1F DUP6 ADD PUSH1 0x5 SHR DUP2 ADD SWAP2 PUSH1 0x20 DUP7 LT PUSH2 0x18A8 JUMPI PUSH1 0x1F ADD PUSH1 0x5 SHR ADD SWAP1 PUSH2 0x23BB JUMP JUMPDEST CODESIZE PUSH2 0x16FE JUMP JUMPDEST PUSH4 0x4E487B71 PUSH1 0xE0 SHL DUP9 MSTORE PUSH1 0x41 PUSH1 0x4 MSTORE PUSH1 0x24 DUP9 REVERT JUMPDEST SWAP1 POP PUSH1 0x20 DUP2 RETURNDATASIZE PUSH1 0x20 GT PUSH2 0x19B2 JUMPI JUMPDEST DUP2 PUSH2 0x199F PUSH1 0x20 SWAP4 DUP4 PUSH2 0x217F JUMP JUMPDEST DUP2 ADD SUB SLT PUSH2 0x19AE JUMPI MLOAD CODESIZE PUSH2 0x16D1 JUMP JUMPDEST DUP9 DUP1 REVERT JUMPDEST RETURNDATASIZE SWAP2 POP PUSH2 0x1992 JUMP JUMPDEST PUSH1 0x40 MLOAD RETURNDATASIZE DUP12 DUP3 RETURNDATACOPY RETURNDATASIZE SWAP1 REVERT JUMPDEST PUSH2 0x19E7 SWAP2 POP PUSH1 0x20 RETURNDATASIZE PUSH1 0x20 GT PUSH2 0x19ED JUMPI JUMPDEST PUSH2 0x19DF DUP2 DUP4 PUSH2 0x217F JUMP JUMPDEST DUP2 ADD SWAP1 PUSH2 0x239C JUMP JUMPDEST CODESIZE PUSH2 0x1688 JUMP JUMPDEST POP RETURNDATASIZE PUSH2 0x19D5 JUMP JUMPDEST PUSH2 0x1A0D SWAP2 POP PUSH1 0x20 RETURNDATASIZE PUSH1 0x20 GT PUSH2 0x19ED JUMPI PUSH2 0x19DF DUP2 DUP4 PUSH2 0x217F JUMP JUMPDEST CODESIZE PUSH2 0x163F JUMP JUMPDEST PUSH1 0x40 MLOAD PUSH3 0x461BCD PUSH1 0xE5 SHL DUP2 MSTORE PUSH1 0x20 PUSH1 0x4 DUP3 ADD MSTORE PUSH1 0x15 PUSH1 0x24 DUP3 ADD MSTORE PUSH21 0x10DBDD995B985B9D081B9BDD08191A5CDC1D5D1959 PUSH1 0x5A SHL PUSH1 0x44 DUP3 ADD MSTORE PUSH1 0x64 SWAP1 REVERT JUMPDEST POP PUSH1 0x20 DUP2 RETURNDATASIZE PUSH1 0x20 GT PUSH2 0x1A88 JUMPI JUMPDEST DUP2 PUSH2 0x1A6A PUSH1 0x20 SWAP4 DUP4 PUSH2 0x217F JUMP JUMPDEST DUP2 ADD SUB SLT PUSH2 0x1A84 JUMPI MLOAD PUSH1 0x7 DUP2 LT ISZERO PUSH2 0x1A84 JUMPI PUSH1 0x3 SWAP1 PUSH2 0x15C3 JUMP JUMPDEST DUP7 DUP1 REVERT JUMPDEST RETURNDATASIZE SWAP2 POP PUSH2 0x1A5D JUMP JUMPDEST PUSH1 0x40 MLOAD RETURNDATASIZE DUP10 DUP3 RETURNDATACOPY RETURNDATASIZE SWAP1 REVERT JUMPDEST PUSH1 0x40 MLOAD PUSH3 0x461BCD PUSH1 0xE5 SHL DUP2 MSTORE PUSH1 0x20 PUSH1 0x4 DUP3 ADD MSTORE PUSH1 0x10 PUSH1 0x24 DUP3 ADD MSTORE PUSH16 0x496E73756666696369656E7420666565 PUSH1 0x80 SHL PUSH1 0x44 DUP3 ADD MSTORE PUSH1 0x64 SWAP1 REVERT JUMPDEST DUP3 DUP1 REVERT JUMPDEST POP CALLVALUE PUSH2 0x194 JUMPI DUP1 PUSH1 0x3 NOT CALLDATASIZE ADD SLT PUSH2 0x194 JUMPI PUSH2 0x1AF0 PUSH2 0x2347 JUMP JUMPDEST CALLER DUP2 MSTORE PUSH1 0x20 PUSH1 0x4 DUP2 MSTORE PUSH1 0x40 DUP3 KECCAK256 DUP1 SLOAD PUSH1 0xFF SWAP2 DUP3 DUP3 AND ISZERO PUSH2 0x1CD1 JUMPI PUSH1 0x4 DUP2 ADD SWAP2 DUP3 SLOAD SWAP4 DUP5 ISZERO PUSH2 0x1CA1 JUMPI SWAP2 DUP6 SWAP4 SWAP2 DUP8 SWAP6 SWAP4 CALLER DUP8 MSTORE PUSH1 0x5 SWAP1 DUP2 DUP8 MSTORE PUSH1 0x40 DUP9 KECCAK256 SWAP1 DUP9 SWAP3 DUP3 SLOAD SWAP4 JUMPDEST DUP5 DUP2 LT PUSH2 0x1BD3 JUMPI POP POP POP POP PUSH1 0xFF NOT SWAP2 SWAP1 SWAP2 AND SWAP1 SWAP2 SSTORE POP DUP4 SWAP1 SSTORE DUP3 SLOAD PUSH1 0x40 MLOAD PUSH4 0xA9059CBB PUSH1 0xE0 SHL DUP2 MSTORE CALLER PUSH1 0x4 DUP3 ADD MSTORE PUSH1 0x24 DUP2 ADD SWAP3 SWAP1 SWAP3 MSTORE SWAP1 SWAP3 DUP4 SWAP2 PUSH1 0x44 SWAP2 DUP4 SWAP2 PUSH1 0x1 PUSH1 0x1 PUSH1 0xA0 SHL SUB AND GAS CALL SWAP1 DUP2 ISZERO PUSH2 0x1BC8 JUMPI PUSH2 0x1B96 SWAP3 DUP5 SWAP3 PUSH2 0x1BAB JUMPI JUMPDEST POP POP PUSH2 0x2309 JUMP JUMPDEST PUSH1 0x1 PUSH1 0x0 DUP1 MLOAD PUSH1 0x20 PUSH2 0x2775 DUP4 CODECOPY DUP2 MLOAD SWAP2 MSTORE SSTORE DUP1 RETURN JUMPDEST PUSH2 0x1BC1 SWAP3 POP DUP1 RETURNDATASIZE LT PUSH2 0x691 JUMPI PUSH2 0x683 DUP2 DUP4 PUSH2 0x217F JUMP JUMPDEST CODESIZE DUP1 PUSH2 0x1B8F JUMP JUMPDEST PUSH1 0x40 MLOAD RETURNDATASIZE DUP6 DUP3 RETURNDATACOPY RETURNDATASIZE SWAP1 REVERT JUMPDEST SWAP2 DUP1 SWAP5 SWAP7 SWAP9 SWAP11 PUSH2 0x1BE8 DUP5 DUP7 SWAP9 SWAP11 SWAP13 SWAP5 SWAP7 PUSH2 0x20E9 JUMP JUMPDEST SWAP2 SWAP1 SLOAD PUSH1 0x3 SWAP3 DUP4 SHL SHR SWAP1 MSTORE DUP1 DUP4 MSTORE DUP14 PUSH1 0x7 SWAP2 DUP7 DUP5 DUP5 PUSH1 0x40 DUP6 KECCAK256 ADD SLOAD AND PUSH2 0x1C0D DUP2 PUSH2 0x229D JUMP JUMPDEST EQ SWAP5 DUP6 ISZERO PUSH2 0x1C6D JUMPI JUMPDEST POP POP POP POP POP ISZERO PUSH2 0x1C39 JUMPI PUSH2 0x1C29 SWAP1 PUSH2 0x2377 JUMP JUMPDEST SWAP2 DUP10 SWAP8 SWAP6 SWAP4 SWAP2 DUP12 SWAP10 SWAP8 SWAP6 SWAP4 PUSH2 0x1B33 JUMP JUMPDEST PUSH1 0x40 MLOAD PUSH3 0x461BCD PUSH1 0xE5 SHL DUP2 MSTORE PUSH1 0x4 DUP2 ADD DUP12 SWAP1 MSTORE PUSH1 0xC PUSH1 0x24 DUP3 ADD MSTORE PUSH12 0x416374697665206361736573 PUSH1 0xA0 SHL PUSH1 0x44 DUP3 ADD MSTORE PUSH1 0x64 SWAP1 REVERT JUMPDEST PUSH1 0x6 SWAP6 POP SWAP1 PUSH1 0x40 SWAP3 SWAP2 PUSH2 0x1C80 DUP9 DUP13 PUSH2 0x20E9 JUMP JUMPDEST SWAP1 SLOAD SWAP1 DUP4 SHL SHR DUP4 MSTORE MSTORE KECCAK256 ADD SLOAD AND PUSH2 0x1C96 DUP2 PUSH2 0x229D JUMP JUMPDEST EQ DUP4 CODESIZE DUP14 DUP2 DUP15 PUSH2 0x1C16 JUMP JUMPDEST PUSH1 0x40 MLOAD PUSH3 0x461BCD PUSH1 0xE5 SHL DUP2 MSTORE PUSH1 0x4 DUP2 ADD DUP8 SWAP1 MSTORE PUSH1 0x8 PUSH1 0x24 DUP3 ADD MSTORE PUSH8 0x4E6F207374616B65 PUSH1 0xC0 SHL PUSH1 0x44 DUP3 ADD MSTORE PUSH1 0x64 SWAP1 REVERT JUMPDEST PUSH1 0x40 MLOAD PUSH3 0x461BCD PUSH1 0xE5 SHL DUP2 MSTORE PUSH1 0x4 DUP2 ADD DUP6 SWAP1 MSTORE PUSH1 0xE PUSH1 0x24 DUP3 ADD MSTORE PUSH14 0x139BDD081C9959DA5CDD195C9959 PUSH1 0x92 SHL PUSH1 0x44 DUP3 ADD MSTORE PUSH1 0x64 SWAP1 REVERT JUMPDEST POP CALLVALUE PUSH2 0x194 JUMPI DUP1 PUSH1 0x3 NOT CALLDATASIZE ADD SLT PUSH2 0x194 JUMPI PUSH1 0x20 PUSH1 0xE SLOAD PUSH1 0x40 MLOAD SWAP1 DUP2 MSTORE RETURN JUMPDEST POP CALLVALUE PUSH2 0x194 JUMPI PUSH1 0x40 CALLDATASIZE PUSH1 0x3 NOT ADD SLT PUSH2 0x194 JUMPI PUSH2 0x1D3F PUSH2 0x20D3 JUMP JUMPDEST PUSH1 0x1 PUSH1 0x1 PUSH1 0xA0 SHL SUB AND DUP2 MSTORE PUSH1 0x5 PUSH1 0x20 MSTORE PUSH1 0x40 DUP2 KECCAK256 DUP1 SLOAD PUSH1 0x24 CALLDATALOAD SWAP3 SWAP1 DUP4 LT ISZERO PUSH2 0x194 JUMPI PUSH1 0x20 PUSH2 0x1D6D DUP5 DUP5 PUSH2 0x20E9 JUMP JUMPDEST SWAP1 SLOAD PUSH1 0x40 MLOAD SWAP2 PUSH1 0x3 SHL SHR DUP2 MSTORE RETURN JUMPDEST POP CALLVALUE PUSH2 0x194 JUMPI DUP1 PUSH1 0x3 NOT CALLDATASIZE ADD SLT PUSH2 0x194 JUMPI PUSH1 0x20 PUSH1 0x6 SLOAD PUSH1 0x40 MLOAD SWAP1 DUP2 MSTORE RETURN JUMPDEST POP CALLVALUE PUSH2 0x194 JUMPI DUP1 PUSH1 0x3 NOT CALLDATASIZE ADD SLT PUSH2 0x194 JUMPI PUSH1 0x1 SLOAD PUSH1 0x40 MLOAD PUSH1 0x1 PUSH1 0x1 PUSH1 0xA0 SHL SUB SWAP1 SWAP2 AND DUP2 MSTORE PUSH1 0x20 SWAP1 RETURN JUMPDEST POP CALLVALUE PUSH2 0x194 JUMPI PUSH1 0x40 CALLDATASIZE PUSH1 0x3 NOT ADD SLT PUSH2 0x194 JUMPI PUSH2 0x1DDC PUSH2 0x20B8 JUMP JUMPDEST PUSH1 0x4 CALLDATALOAD DUP3 MSTORE PUSH1 0x3 PUSH1 0x20 MSTORE PUSH1 0x11 PUSH1 0x40 DUP4 KECCAK256 ADD SWAP1 PUSH1 0x1 DUP1 PUSH1 0xA0 SHL SUB AND DUP3 MSTORE PUSH1 0x20 MSTORE PUSH1 0xFF PUSH1 0x40 DUP3 KECCAK256 SLOAD AND SWAP1 PUSH1 0x4 DUP3 LT ISZERO PUSH2 0x1E1A JUMPI PUSH1 0x20 DUP3 PUSH1 0x40 MLOAD SWAP1 ISZERO ISZERO DUP2 MSTORE RETURN JUMPDEST PUSH4 0x4E487B71 PUSH1 0xE0 SHL DUP2 MSTORE PUSH1 0x21 PUSH1 0x4 MSTORE PUSH1 0x24 SWAP1 REVERT JUMPDEST POP CALLVALUE PUSH2 0x194 JUMPI PUSH1 0x60 CALLDATASIZE PUSH1 0x3 NOT ADD SLT PUSH2 0x194 JUMPI PUSH1 0x4 CALLDATALOAD PUSH1 0x24 CALLDATALOAD SWAP1 PUSH1 0x4 DUP3 LT ISZERO PUSH2 0x1AD3 JUMPI PUSH2 0x1E5D PUSH2 0xAC3 CALLER DUP4 PUSH2 0x270E JUMP JUMPDEST DUP1 DUP4 MSTORE PUSH1 0x20 PUSH1 0x3 DUP2 MSTORE PUSH1 0x40 DUP5 KECCAK256 PUSH2 0x1EB8 PUSH1 0x3 PUSH1 0xFF PUSH1 0x7 DUP5 ADD DUP1 SLOAD DUP3 DUP2 AND PUSH2 0x1E83 DUP2 PUSH2 0x229D JUMP JUMPDEST PUSH2 0x1EA1 PUSH1 0x2 DUP3 EQ SWAP2 DUP3 DUP1 ISZERO PUSH2 0x208A JUMPI JUMPDEST PUSH2 0x1E9C SWAP1 PUSH2 0x267E JUMP JUMPDEST PUSH2 0x229D JUMP JUMPDEST DUP1 PUSH2 0x207D JUMPI JUMPDEST PUSH2 0x205E JUMPI JUMPDEST POP SLOAD AND PUSH2 0x352 DUP2 PUSH2 0x229D JUMP JUMPDEST PUSH1 0xB DUP2 ADD SLOAD TIMESTAMP GT PUSH2 0x2023 JUMPI PUSH1 0x11 DUP2 ADD CALLER DUP7 MSTORE DUP1 DUP4 MSTORE PUSH1 0xFF PUSH1 0x40 DUP8 KECCAK256 SLOAD AND PUSH1 0x4 DUP2 LT ISZERO PUSH2 0x200F JUMPI PUSH2 0x1FD7 JUMPI PUSH1 0x40 MLOAD DUP4 DUP2 ADD SWAP1 DUP7 PUSH1 0xF8 SHL DUP3 MSTORE PUSH1 0x44 CALLDATALOAD PUSH1 0x21 DUP3 ADD MSTORE PUSH1 0x21 DUP2 MSTORE PUSH1 0x60 DUP2 ADD SWAP2 DUP2 DUP4 LT PUSH8 0xFFFFFFFFFFFFFFFF DUP5 GT OR PUSH2 0x1FC3 JUMPI DUP3 PUSH1 0x40 MSTORE DUP2 MLOAD SWAP1 KECCAK256 CALLER DUP10 MSTORE PUSH1 0x10 DUP6 ADD DUP7 MSTORE PUSH1 0x40 DUP10 KECCAK256 SLOAD SUB PUSH2 0x1F92 JUMPI POP POP SWAP1 PUSH32 0xFB0A2A4B906424480A54D601DB26AD920592115A97358D199495345723DF34CB SWAP3 SWAP2 CALLER DUP8 MSTORE DUP3 MSTORE PUSH1 0x40 DUP7 KECCAK256 PUSH1 0xFF NOT DUP2 SLOAD AND PUSH1 0xFF DUP8 AND OR SWAP1 SSTORE PUSH1 0x12 DUP2 ADD DUP3 MSTORE PUSH2 0x1F84 PUSH1 0x13 PUSH1 0x40 DUP9 KECCAK256 SLOAD SWAP3 ADD SWAP2 DUP3 SLOAD PUSH2 0x23D2 JUMP JUMPDEST SWAP1 SSTORE PUSH1 0x40 MLOAD SWAP4 DUP5 MSTORE CALLER SWAP4 LOG3 DUP1 RETURN JUMPDEST SWAP1 PUSH14 0x125B9D985B1A59081C995D99585B PUSH1 0x92 SHL PUSH1 0xA4 PUSH1 0x64 SWAP4 DUP8 PUSH3 0x461BCD PUSH1 0xE5 SHL DUP6 MSTORE DUP6 DUP3 ADD MSTORE PUSH1 0xE PUSH1 0x84 DUP3 ADD MSTORE ADD MSTORE REVERT JUMPDEST PUSH4 0x4E487B71 PUSH1 0xE0 SHL DUP10 MSTORE PUSH1 0x41 PUSH1 0x4 MSTORE PUSH1 0x24 DUP10 REVERT JUMPDEST PUSH1 0x40 MLOAD PUSH3 0x461BCD PUSH1 0xE5 SHL DUP2 MSTORE PUSH1 0x4 DUP2 ADD DUP5 SWAP1 MSTORE PUSH1 0x10 PUSH1 0x24 DUP3 ADD MSTORE PUSH16 0x105B1C9958591E481C995D99585B1959 PUSH1 0x82 SHL PUSH1 0x44 DUP3 ADD MSTORE PUSH1 0x64 SWAP1 REVERT JUMPDEST PUSH4 0x4E487B71 PUSH1 0xE0 SHL DUP8 MSTORE PUSH1 0x21 PUSH1 0x4 MSTORE PUSH1 0x24 DUP8 REVERT JUMPDEST PUSH1 0x40 MLOAD PUSH3 0x461BCD PUSH1 0xE5 SHL DUP2 MSTORE PUSH1 0x4 DUP2 ADD DUP4 SWAP1 MSTORE PUSH1 0x13 PUSH1 0x24 DUP3 ADD MSTORE PUSH19 0x14995D99585B081C195C9A5BD908195B991959 PUSH1 0x6A SHL PUSH1 0x44 DUP3 ADD MSTORE PUSH1 0x64 SWAP1 REVERT JUMPDEST DUP4 SWAP1 DUP4 NOT AND OR DUP2 SSTORE PUSH2 0x2072 PUSH1 0xA SLOAD TIMESTAMP PUSH2 0x23D2 JUMP JUMPDEST PUSH1 0xB DUP7 ADD SSTORE CODESIZE PUSH2 0x1EAC JUMP JUMPDEST POP PUSH1 0xA DUP7 ADD SLOAD TIMESTAMP GT PUSH2 0x1EA7 JUMP JUMPDEST POP PUSH2 0x2094 DUP2 PUSH2 0x229D JUMP JUMPDEST DUP1 DUP8 EQ PUSH2 0x1E93 JUMP JUMPDEST SWAP1 POP CALLVALUE PUSH2 0xE2D JUMPI DUP2 PUSH1 0x3 NOT CALLDATASIZE ADD SLT PUSH2 0xE2D JUMPI PUSH1 0x20 SWAP1 PUSH1 0x2 SLOAD DUP2 MSTORE RETURN JUMPDEST PUSH1 0x24 CALLDATALOAD SWAP1 PUSH1 0x1 PUSH1 0x1 PUSH1 0xA0 SHL SUB DUP3 AND DUP3 SUB PUSH2 0x20CE JUMPI JUMP JUMPDEST PUSH1 0x0 DUP1 REVERT JUMPDEST PUSH1 0x4 CALLDATALOAD SWAP1 PUSH1 0x1 PUSH1 0x1 PUSH1 0xA0 SHL SUB DUP3 AND DUP3 SUB PUSH2 0x20CE JUMPI JUMP JUMPDEST DUP1 SLOAD DUP3 LT ISZERO PUSH2 0x2101 JUMPI PUSH1 0x0 MSTORE PUSH1 0x20 PUSH1 0x0 KECCAK256 ADD SWAP1 PUSH1 0x0 SWAP1 JUMP JUMPDEST PUSH4 0x4E487B71 PUSH1 0xE0 SHL PUSH1 0x0 MSTORE PUSH1 0x32 PUSH1 0x4 MSTORE PUSH1 0x24 PUSH1 0x0 REVERT JUMPDEST SWAP2 DUP2 PUSH1 0x1F DUP5 ADD SLT ISZERO PUSH2 0x20CE JUMPI DUP3 CALLDATALOAD SWAP2 PUSH8 0xFFFFFFFFFFFFFFFF DUP4 GT PUSH2 0x20CE JUMPI PUSH1 0x20 DUP4 DUP2 DUP7 ADD SWAP6 ADD ADD GT PUSH2 0x20CE JUMPI JUMP JUMPDEST SWAP1 PUSH1 0x1 DUP3 DUP2 SHR SWAP3 AND DUP1 ISZERO PUSH2 0x2175 JUMPI JUMPDEST PUSH1 0x20 DUP4 LT EQ PUSH2 0x215F JUMPI JUMP JUMPDEST PUSH4 0x4E487B71 PUSH1 0xE0 SHL PUSH1 0x0 MSTORE PUSH1 0x22 PUSH1 0x4 MSTORE PUSH1 0x24 PUSH1 0x0 REVERT JUMPDEST SWAP2 PUSH1 0x7F AND SWAP2 PUSH2 0x2154 JUMP JUMPDEST SWAP1 PUSH1 0x1F DUP1 NOT SWAP2 ADD AND DUP2 ADD SWAP1 DUP2 LT PUSH8 0xFFFFFFFFFFFFFFFF DUP3 GT OR PUSH2 0x21A1 JUMPI PUSH1 0x40 MSTORE JUMP JUMPDEST PUSH4 0x4E487B71 PUSH1 0xE0 SHL PUSH1 0x0 MSTORE PUSH1 0x41 PUSH1 0x4 MSTORE PUSH1 0x24 PUSH1 0x0 REVERT JUMPDEST SWAP1 PUSH1 0x40 MLOAD SWAP2 DUP3 PUSH1 0x0 DUP3 SLOAD SWAP3 PUSH2 0x21CB DUP5 PUSH2 0x2145 JUMP JUMPDEST SWAP1 DUP2 DUP5 MSTORE PUSH1 0x1 SWAP5 DUP6 DUP2 AND SWAP1 DUP2 PUSH1 0x0 EQ PUSH2 0x223A JUMPI POP PUSH1 0x1 EQ PUSH2 0x21F7 JUMPI JUMPDEST POP POP PUSH2 0x21F5 SWAP3 POP SUB DUP4 PUSH2 0x217F JUMP JUMPDEST JUMP JUMPDEST SWAP1 SWAP4 SWAP2 POP PUSH1 0x0 MSTORE PUSH1 0x20 SWAP1 DUP2 PUSH1 0x0 KECCAK256 SWAP4 PUSH1 0x0 SWAP2 JUMPDEST DUP2 DUP4 LT PUSH2 0x2222 JUMPI POP POP PUSH2 0x21F5 SWAP4 POP DUP3 ADD ADD CODESIZE DUP1 PUSH2 0x21E7 JUMP JUMPDEST DUP6 SLOAD DUP9 DUP5 ADD DUP6 ADD MSTORE SWAP5 DUP6 ADD SWAP5 DUP8 SWAP5 POP SWAP2 DUP4 ADD SWAP2 PUSH2 0x220A JUMP JUMPDEST SWAP2 POP POP PUSH2 0x21F5 SWAP5 POP PUSH1 0x20 SWAP3 POP PUSH1 0xFF NOT AND DUP3 DUP5 ADD MSTORE ISZERO ISZERO PUSH1 0x5 SHL DUP3 ADD ADD CODESIZE DUP1 PUSH2 0x21E7 JUMP JUMPDEST SWAP2 SWAP1 DUP3 MLOAD SWAP3 DUP4 DUP3 MSTORE PUSH1 0x0 JUMPDEST DUP5 DUP2 LT PUSH2 0x2289 JUMPI POP POP DUP3 PUSH1 0x0 PUSH1 0x20 DUP1 SWAP5 SWAP6 DUP5 ADD ADD MSTORE PUSH1 0x1F DUP1 NOT SWAP2 ADD AND ADD ADD SWAP1 JUMP JUMPDEST PUSH1 0x20 DUP2 DUP4 ADD DUP2 ADD MLOAD DUP5 DUP4 ADD DUP3 ADD MSTORE ADD PUSH2 0x2268 JUMP JUMPDEST PUSH1 0x7 GT ISZERO PUSH2 0x22A7 JUMPI JUMP JUMPDEST PUSH4 0x4E487B71 PUSH1 0xE0 SHL PUSH1 0x0 MSTORE PUSH1 0x21 PUSH1 0x4 MSTORE PUSH1 0x24 PUSH1 0x0 REVERT JUMPDEST SWAP1 PUSH1 0x40 PUSH1 0x3 NOT DUP4 ADD SLT PUSH2 0x20CE JUMPI PUSH1 0x4 CALLDATALOAD SWAP2 PUSH1 0x24 CALLDATALOAD SWAP1 PUSH8 0xFFFFFFFFFFFFFFFF DUP3 GT PUSH2 0x20CE JUMPI PUSH2 0x22ED SWAP2 PUSH1 0x4 ADD PUSH2 0x2117 JUMP JUMPDEST SWAP1 SWAP2 JUMP JUMPDEST SWAP1 DUP2 PUSH1 0x20 SWAP2 SUB SLT PUSH2 0x20CE JUMPI MLOAD DUP1 ISZERO ISZERO DUP2 SUB PUSH2 0x20CE JUMPI SWAP1 JUMP JUMPDEST ISZERO PUSH2 0x2310 JUMPI JUMP JUMPDEST PUSH1 0x40 MLOAD PUSH3 0x461BCD PUSH1 0xE5 SHL DUP2 MSTORE PUSH1 0x20 PUSH1 0x4 DUP3 ADD MSTORE PUSH1 0xF PUSH1 0x24 DUP3 ADD MSTORE PUSH15 0x151C985B9CD9995C8819985A5B1959 PUSH1 0x8A SHL PUSH1 0x44 DUP3 ADD MSTORE PUSH1 0x64 SWAP1 REVERT JUMPDEST PUSH1 0x0 DUP1 MLOAD PUSH1 0x20 PUSH2 0x2775 DUP4 CODECOPY DUP2 MLOAD SWAP2 MSTORE PUSH1 0x2 DUP2 SLOAD EQ PUSH2 0x2365 JUMPI PUSH1 0x2 SWAP1 SSTORE JUMP JUMPDEST PUSH1 0x40 MLOAD PUSH4 0x3EE5AEB5 PUSH1 0xE0 SHL DUP2 MSTORE PUSH1 0x4 SWAP1 REVERT JUMPDEST PUSH1 0x0 NOT DUP2 EQ PUSH2 0x2386 JUMPI PUSH1 0x1 ADD SWAP1 JUMP JUMPDEST PUSH4 0x4E487B71 PUSH1 0xE0 SHL PUSH1 0x0 MSTORE PUSH1 0x11 PUSH1 0x4 MSTORE PUSH1 0x24 PUSH1 0x0 REVERT JUMPDEST SWAP1 DUP2 PUSH1 0x20 SWAP2 SUB SLT PUSH2 0x20CE JUMPI MLOAD PUSH1 0x1 PUSH1 0x1 PUSH1 0xA0 SHL SUB DUP2 AND DUP2 SUB PUSH2 0x20CE JUMPI SWAP1 JUMP JUMPDEST DUP2 DUP2 LT PUSH2 0x23C6 JUMPI POP POP JUMP JUMPDEST PUSH1 0x0 DUP2 SSTORE PUSH1 0x1 ADD PUSH2 0x23BB JUMP JUMPDEST SWAP2 SWAP1 DUP3 ADD DUP1 SWAP3 GT PUSH2 0x2386 JUMPI JUMP JUMPDEST SWAP1 PUSH1 0x0 SWAP2 DUP1 DUP4 MSTORE PUSH1 0x3 SWAP1 PUSH1 0x20 DUP3 DUP2 MSTORE PUSH1 0x40 DUP1 DUP7 KECCAK256 SWAP2 DUP7 SWAP5 PUSH1 0x0 NOT DUP1 NUMBER ADD NUMBER DUP2 GT SWAP1 BLOCKHASH SWAP8 JUMPDEST PUSH1 0x7 SLOAD DUP2 LT ISZERO PUSH2 0x2566 JUMPI DUP2 PUSH2 0x4EC JUMPI DUP6 MLOAD DUP6 DUP2 ADD SWAP1 DUP11 DUP3 MSTORE DUP10 DUP9 DUP3 ADD MSTORE DUP3 PUSH1 0x60 DUP3 ADD MSTORE PUSH1 0x80 TIMESTAMP DUP2 DUP4 ADD MSTORE DUP2 MSTORE PUSH1 0xA0 DUP2 ADD DUP2 DUP2 LT PUSH8 0xFFFFFFFFFFFFFFFF DUP3 GT OR PUSH2 0x2552 JUMPI DUP9 MSTORE MLOAD SWAP1 KECCAK256 PUSH1 0x1 PUSH1 0x1 PUSH1 0xA0 SHL SUB SWAP1 DUP2 AND SWAP1 DUP2 PUSH2 0x246D JUMPI JUMPDEST POP POP PUSH2 0x2468 SWAP1 PUSH2 0x2377 JUMP JUMPDEST PUSH2 0x2403 JUMP JUMPDEST PUSH1 0xF DUP10 ADD DUP1 SLOAD SWAP2 PUSH9 0x10000000000000000 SWAP3 DUP4 DUP2 LT ISZERO PUSH2 0x253D JUMPI DUP16 SWAP1 SWAP2 PUSH2 0x249C DUP13 SWAP4 PUSH1 0x1 SWAP6 DUP7 DUP3 ADD DUP2 SSTORE PUSH2 0x20E9 JUMP JUMPDEST DUP2 SWAP3 SWAP2 SLOAD SWAP1 DUP13 SHL SWAP2 DUP9 DUP4 SHL SWAP3 SHL NOT AND OR SWAP1 SSTORE DUP5 DUP2 MSTORE PUSH1 0x5 DUP11 MSTORE KECCAK256 SWAP1 DUP2 SLOAD SWAP3 DUP4 LT ISZERO PUSH2 0x2529 JUMPI DUP15 PUSH2 0x24F8 DUP5 DUP15 SWAP5 PUSH32 0x6A547857424DDF8F94427BF9C458627075464DCF7326C192E44ABF6AEA499FB4 SWAP5 PUSH2 0x2468 SWAP10 SWAP9 SWAP8 ADD DUP2 SSTORE PUSH2 0x20E9 JUMP JUMPDEST DUP2 SLOAD SWAP1 DUP12 SHL SWAP1 DUP11 DUP7 DUP4 SHL SWAP3 SHL NOT AND OR SWAP1 SSTORE DUP4 DUP2 MSTORE PUSH1 0x4 DUP11 MSTORE DUP9 DUP12 DUP3 KECCAK256 ADD SLOAD PUSH1 0x12 DUP14 ADD DUP12 MSTORE DUP12 DUP3 KECCAK256 SSTORE DUP1 LOG3 SWAP1 CODESIZE PUSH2 0x245D JUMP JUMPDEST PUSH4 0x4E487B71 PUSH1 0xE0 SHL DUP16 MSTORE PUSH1 0x41 PUSH1 0x4 MSTORE PUSH1 0x24 DUP16 REVERT JUMPDEST POP PUSH4 0x4E487B71 PUSH1 0xE0 SHL DUP16 MSTORE PUSH1 0x41 PUSH1 0x4 MSTORE PUSH1 0x24 DUP16 REVERT JUMPDEST PUSH4 0x4E487B71 PUSH1 0xE0 SHL DUP15 MSTORE PUSH1 0x41 PUSH1 0x4 MSTORE PUSH1 0x24 DUP15 REVERT JUMPDEST POP POP POP SWAP3 SWAP6 SWAP7 POP SWAP4 POP SWAP2 POP PUSH1 0xF DUP5 ADD SLOAD LT PUSH2 0x258D JUMPI POP POP PUSH1 0x7 ADD DUP1 SLOAD PUSH1 0xFF NOT AND PUSH1 0x1 OR SWAP1 SSTORE JUMP JUMPDEST PUSH1 0x64 SWAP3 POP MLOAD SWAP1 PUSH3 0x461BCD PUSH1 0xE5 SHL DUP3 MSTORE PUSH1 0x4 DUP3 ADD MSTORE PUSH1 0x13 PUSH1 0x24 DUP3 ADD MSTORE PUSH19 0x496E73756666696369656E74206A75726F7273 PUSH1 0x68 SHL PUSH1 0x44 DUP3 ADD MSTORE REVERT JUMPDEST ISZERO PUSH2 0x25CD JUMPI JUMP JUMPDEST PUSH1 0x40 MLOAD PUSH3 0x461BCD PUSH1 0xE5 SHL DUP2 MSTORE PUSH1 0x20 PUSH1 0x4 DUP3 ADD MSTORE PUSH1 0xB PUSH1 0x24 DUP3 ADD MSTORE PUSH11 0x4E6F742061207061727479 PUSH1 0xA8 SHL PUSH1 0x44 DUP3 ADD MSTORE PUSH1 0x64 SWAP1 REVERT JUMPDEST ISZERO PUSH2 0x2607 JUMPI JUMP JUMPDEST PUSH1 0x40 MLOAD PUSH3 0x461BCD PUSH1 0xE5 SHL DUP2 MSTORE PUSH1 0x20 PUSH1 0x4 DUP3 ADD MSTORE PUSH1 0x15 PUSH1 0x24 DUP3 ADD MSTORE PUSH21 0x4E6F7420696E2065766964656E6365207068617365 PUSH1 0x58 SHL PUSH1 0x44 DUP3 ADD MSTORE PUSH1 0x64 SWAP1 REVERT JUMPDEST ISZERO PUSH2 0x264B JUMPI JUMP JUMPDEST PUSH1 0x40 MLOAD PUSH3 0x461BCD PUSH1 0xE5 SHL DUP2 MSTORE PUSH1 0x20 PUSH1 0x4 DUP3 ADD MSTORE PUSH1 0xB PUSH1 0x24 DUP3 ADD MSTORE PUSH11 0x2737BA103090353AB937B9 PUSH1 0xA9 SHL PUSH1 0x44 DUP3 ADD MSTORE PUSH1 0x64 SWAP1 REVERT JUMPDEST ISZERO PUSH2 0x2685 JUMPI JUMP JUMPDEST PUSH1 0x40 MLOAD PUSH3 0x461BCD PUSH1 0xE5 SHL DUP2 MSTORE PUSH1 0x20 PUSH1 0x4 DUP3 ADD MSTORE PUSH1 0x13 PUSH1 0x24 DUP3 ADD MSTORE PUSH19 0x4E6F7420696E2072657665616C207068617365 PUSH1 0x68 SHL PUSH1 0x44 DUP3 ADD MSTORE PUSH1 0x64 SWAP1 REVERT JUMPDEST DUP2 DUP2 MUL SWAP3 SWAP2 DUP2 ISZERO SWAP2 DUP5 DIV EQ OR ISZERO PUSH2 0x2386 JUMPI JUMP JUMPDEST ISZERO PUSH2 0x26DA JUMPI JUMP JUMPDEST PUSH1 0x40 MLOAD PUSH3 0x461BCD PUSH1 0xE5 SHL DUP2 MSTORE PUSH1 0x20 PUSH1 0x4 DUP3 ADD MSTORE PUSH1 0xC PUSH1 0x24 DUP3 ADD MSTORE PUSH12 0x139BDD081C995CDBDB1D9959 PUSH1 0xA2 SHL PUSH1 0x44 DUP3 ADD MSTORE PUSH1 0x64 SWAP1 REVERT JUMPDEST PUSH1 0x0 MSTORE PUSH1 0x3 SWAP1 DUP2 PUSH1 0x20 MSTORE PUSH1 0x40 PUSH1 0x0 KECCAK256 SWAP2 PUSH1 0xF PUSH1 0x0 SWAP4 ADD DUP1 SLOAD SWAP4 JUMPDEST DUP5 DUP2 LT PUSH2 0x2739 JUMPI POP POP POP POP POP PUSH1 0x0 SWAP1 JUMP JUMPDEST PUSH2 0x2743 DUP2 DUP4 PUSH2 0x20E9 JUMP JUMPDEST SWAP1 SLOAD SWAP1 DUP5 SHL SHR PUSH1 0x1 PUSH1 0x1 PUSH1 0xA0 SHL SUB SWAP1 DUP2 AND SWAP1 DUP6 AND EQ PUSH2 0x276A JUMPI PUSH2 0x2765 SWAP1 PUSH2 0x2377 JUMP JUMPDEST PUSH2 0x2728 JUMP JUMPDEST POP POP POP POP POP PUSH1 0x1 SWAP1 JUMP INVALID SWAP12 PUSH24 0x9B17422D0DF92223018B32B4D1FA46E071723D6817E2486D STOP EXTCODESIZE 0xEC 0xC5 PUSH0 STOP LOG2 PUSH5 0x6970667358 0x22 SLT KECCAK256 0xB7 PREVRANDAO 0x28 PUSH12 0x3213D8F1C9E3DAE482D4798D 0x4D PUSH30 0x2E525CACB610AA6C6FD336C8269D64736F6C634300081400330000000000 "},"methodIdentifiers":{"advanceToCommitPhase(uint256)":"336ebdfa","appealPeriod()":"9e4f272d","commitPeriod()":"f713b052","commitVote(uint256,bytes32)":"9da69180","createDispute(address,string,string)":"31882198","disputeFee()":"b9ce896b","disputes(uint256)":"564a565d","evidencePeriod()":"d209d03e","executeResolution(uint256)":"7cbf3b6b","fileAppeal(uint256,string)":"6a206258","getDispute(uint256)":"e3a96cbd","getJurors(uint256)":"6d8acf45","hasCommitted(uint256,address)":"a99ef9f5","hasRevealed(uint256,address)":"16b5551d","jurorCases(address,uint256)":"2aeeccb3","jurorCount()":"4206ea4c","jurorRewardRate()":"2afce44f","jurors(address)":"dca5f6b0","minJurorStake()":"276ae811","minReputationToServe()":"6d2404ac","missedVotePenalty()":"6a5b7456","nextDisputeId()":"0db39934","registerAsJuror(uint256)":"3bc70ec0","reputationStake()":"1a7d1352","resolveDispute(uint256)":"c2b7b868","revealPeriod()":"f9604681","revealVote(uint256,uint8,uint256)":"0f111324","stakingToken()":"72f702f3","submitEvidence(uint256,string)":"a6a7f0eb","unstakeAsJuror()":"309a1b53","wrongVotePenalty()":"e1398c0c"}}}}}