{"contracts/TaskMarket.sol":{"TaskMarket":{"abi":[{"inputs":[{"internalType":"address","name":"_feeRecipient","type":"address"}],"stateMutability":"nonpayable","type":"constructor"},{"anonymous":false,"inputs":[{"indexed":true,"internalType":"uint256","name":"taskId","type":"uint256"},{"indexed":true,"internalType":"address","name":"bidder","type":"address"},{"indexed":false,"internalType":"uint256","name":"amount","type":"uint256"}],"name":"BidAccepted","type":"event"},{"anonymous":false,"inputs":[{"indexed":true,"internalType":"uint256","name":"taskId","type":"uint256"},{"indexed":true,"internalType":"address","name":"bidder","type":"address"},{"indexed":false,"internalType":"uint256","name":"amount","type":"uint256"},{"indexed":false,"internalType":"uint256","name":"estimatedTime","type":"uint256"}],"name":"BidSubmitted","type":"event"},{"anonymous":false,"inputs":[{"indexed":true,"internalType":"address","name":"agent","type":"address"},{"indexed":false,"internalType":"uint256","name":"newScore","type":"uint256"}],"name":"ReputationUpdated","type":"event"},{"anonymous":false,"inputs":[{"indexed":true,"internalType":"uint256","name":"taskId","type":"uint256"},{"indexed":true,"internalType":"address","name":"worker","type":"address"},{"indexed":false,"internalType":"uint256","name":"payment","type":"uint256"}],"name":"TaskApproved","type":"event"},{"anonymous":false,"inputs":[{"indexed":true,"internalType":"uint256","name":"taskId","type":"uint256"},{"indexed":false,"internalType":"uint256","name":"refundAmount","type":"uint256"}],"name":"TaskCancelled","type":"event"},{"anonymous":false,"inputs":[{"indexed":true,"internalType":"uint256","name":"taskId","type":"uint256"},{"indexed":true,"internalType":"address","name":"by","type":"address"},{"indexed":false,"internalType":"string","name":"reason","type":"string"}],"name":"TaskDisputed","type":"event"},{"anonymous":false,"inputs":[{"indexed":true,"internalType":"uint256","name":"taskId","type":"uint256"},{"indexed":true,"internalType":"address","name":"poster","type":"address"},{"indexed":false,"internalType":"string","name":"title","type":"string"},{"indexed":false,"internalType":"uint256","name":"reward","type":"uint256"},{"indexed":false,"internalType":"enum TaskMarket.TaskPriority","name":"priority","type":"uint8"},{"indexed":false,"internalType":"uint256","name":"deadline","type":"uint256"}],"name":"TaskPosted","type":"event"},{"anonymous":false,"inputs":[{"indexed":true,"internalType":"uint256","name":"taskId","type":"uint256"},{"indexed":true,"internalType":"address","name":"worker","type":"address"},{"indexed":false,"internalType":"string","name":"resultIPFS","type":"string"}],"name":"WorkCompleted","type":"event"},{"anonymous":false,"inputs":[{"indexed":true,"internalType":"uint256","name":"taskId","type":"uint256"},{"indexed":true,"internalType":"address","name":"worker","type":"address"}],"name":"WorkStarted","type":"event"},{"inputs":[{"internalType":"uint256","name":"_taskId","type":"uint256"},{"internalType":"uint256","name":"_bidIndex","type":"uint256"}],"name":"acceptBid","outputs":[],"stateMutability":"nonpayable","type":"function"},{"inputs":[{"internalType":"address","name":"","type":"address"}],"name":"agentCompletedTasks","outputs":[{"internalType":"uint256","name":"","type":"uint256"}],"stateMutability":"view","type":"function"},{"inputs":[{"internalType":"address","name":"","type":"address"}],"name":"agentReputation","outputs":[{"internalType":"uint256","name":"","type":"uint256"}],"stateMutability":"view","type":"function"},{"inputs":[{"internalType":"address","name":"","type":"address"},{"internalType":"uint256","name":"","type":"uint256"}],"name":"agentTasks","outputs":[{"internalType":"uint256","name":"","type":"uint256"}],"stateMutability":"view","type":"function"},{"inputs":[{"internalType":"address","name":"","type":"address"}],"name":"agentTotalEarnings","outputs":[{"internalType":"uint256","name":"","type":"uint256"}],"stateMutability":"view","type":"function"},{"inputs":[{"internalType":"uint256","name":"_taskId","type":"uint256"}],"name":"approveWork","outputs":[],"stateMutability":"nonpayable","type":"function"},{"inputs":[{"internalType":"uint256","name":"_taskId","type":"uint256"},{"internalType":"uint256","name":"_amount","type":"uint256"},{"internalType":"uint256","name":"_estimatedTime","type":"uint256"},{"internalType":"string","name":"_proposalIPFS","type":"string"}],"name":"bidOnTask","outputs":[],"stateMutability":"nonpayable","type":"function"},{"inputs":[{"internalType":"uint256","name":"_taskId","type":"uint256"}],"name":"cancelTask","outputs":[],"stateMutability":"nonpayable","type":"function"},{"inputs":[],"name":"cancellationFeeBps","outputs":[{"internalType":"uint256","name":"","type":"uint256"}],"stateMutability":"view","type":"function"},{"inputs":[{"internalType":"uint256","name":"_taskId","type":"uint256"},{"internalType":"string","name":"_reason","type":"string"}],"name":"disputeTask","outputs":[],"stateMutability":"nonpayable","type":"function"},{"inputs":[],"name":"feeRecipient","outputs":[{"internalType":"address","name":"","type":"address"}],"stateMutability":"view","type":"function"},{"inputs":[{"internalType":"address","name":"_agent","type":"address"}],"name":"getAgentStats","outputs":[{"internalType":"uint256","name":"reputation","type":"uint256"},{"internalType":"uint256","name":"completed","type":"uint256"},{"internalType":"uint256","name":"earnings","type":"uint256"}],"stateMutability":"view","type":"function"},{"inputs":[{"internalType":"address","name":"_agent","type":"address"}],"name":"getAgentTasks","outputs":[{"internalType":"uint256[]","name":"","type":"uint256[]"}],"stateMutability":"view","type":"function"},{"inputs":[{"internalType":"uint256","name":"_taskId","type":"uint256"}],"name":"getBidCount","outputs":[{"internalType":"uint256","name":"","type":"uint256"}],"stateMutability":"view","type":"function"},{"inputs":[{"internalType":"uint256","name":"_taskId","type":"uint256"}],"name":"getBids","outputs":[{"components":[{"internalType":"address","name":"bidder","type":"address"},{"internalType":"uint256","name":"amount","type":"uint256"},{"internalType":"uint256","name":"estimatedTime","type":"uint256"},{"internalType":"string","name":"proposalIPFS","type":"string"},{"internalType":"uint256","name":"reputation","type":"uint256"},{"internalType":"uint256","name":"timestamp","type":"uint256"},{"internalType":"bool","name":"accepted","type":"bool"}],"internalType":"struct TaskMarket.Bid[]","name":"","type":"tuple[]"}],"stateMutability":"view","type":"function"},{"inputs":[{"internalType":"uint256","name":"_offset","type":"uint256"},{"internalType":"uint256","name":"_limit","type":"uint256"}],"name":"getOpenTasks","outputs":[{"internalType":"uint256[]","name":"","type":"uint256[]"}],"stateMutability":"view","type":"function"},{"inputs":[{"internalType":"uint256","name":"_taskId","type":"uint256"}],"name":"getTask","outputs":[{"components":[{"internalType":"uint256","name":"id","type":"uint256"},{"internalType":"address","name":"poster","type":"address"},{"internalType":"string","name":"title","type":"string"},{"internalType":"string","name":"description","type":"string"},{"internalType":"string","name":"requirementsIPFS","type":"string"},{"internalType":"uint256","name":"reward","type":"uint256"},{"internalType":"uint256","name":"collateral","type":"uint256"},{"internalType":"enum TaskMarket.TaskPriority","name":"priority","type":"uint8"},{"internalType":"enum TaskMarket.TaskStatus","name":"status","type":"uint8"},{"internalType":"uint256","name":"createdAt","type":"uint256"},{"internalType":"uint256","name":"deadline","type":"uint256"},{"internalType":"address","name":"assignedTo","type":"address"},{"internalType":"string","name":"resultIPFS","type":"string"},{"internalType":"uint256","name":"completedAt","type":"uint256"}],"internalType":"struct TaskMarket.Task","name":"","type":"tuple"}],"stateMutability":"view","type":"function"},{"inputs":[],"name":"minimumReward","outputs":[{"internalType":"uint256","name":"","type":"uint256"}],"stateMutability":"view","type":"function"},{"inputs":[],"name":"nextTaskId","outputs":[{"internalType":"uint256","name":"","type":"uint256"}],"stateMutability":"view","type":"function"},{"inputs":[{"internalType":"string","name":"_title","type":"string"},{"internalType":"string","name":"_description","type":"string"},{"internalType":"string","name":"_requirementsIPFS","type":"string"},{"internalType":"uint256","name":"_reward","type":"uint256"},{"internalType":"enum TaskMarket.TaskPriority","name":"_priority","type":"uint8"}],"name":"postTask","outputs":[{"internalType":"uint256","name":"taskId","type":"uint256"}],"stateMutability":"payable","type":"function"},{"inputs":[],"name":"protocolFeeBps","outputs":[{"internalType":"uint256","name":"","type":"uint256"}],"stateMutability":"view","type":"function"},{"inputs":[{"internalType":"uint256","name":"_taskId","type":"uint256"}],"name":"startWork","outputs":[],"stateMutability":"nonpayable","type":"function"},{"inputs":[{"internalType":"uint256","name":"_taskId","type":"uint256"},{"internalType":"string","name":"_resultIPFS","type":"string"}],"name":"submitWork","outputs":[],"stateMutability":"nonpayable","type":"function"},{"inputs":[{"internalType":"uint256","name":"","type":"uint256"},{"internalType":"uint256","name":"","type":"uint256"}],"name":"taskBids","outputs":[{"internalType":"address","name":"bidder","type":"address"},{"internalType":"uint256","name":"amount","type":"uint256"},{"internalType":"uint256","name":"estimatedTime","type":"uint256"},{"internalType":"string","name":"proposalIPFS","type":"string"},{"internalType":"uint256","name":"reputation","type":"uint256"},{"internalType":"uint256","name":"timestamp","type":"uint256"},{"internalType":"bool","name":"accepted","type":"bool"}],"stateMutability":"view","type":"function"},{"inputs":[{"internalType":"uint256","name":"","type":"uint256"}],"name":"tasks","outputs":[{"internalType":"uint256","name":"id","type":"uint256"},{"internalType":"address","name":"poster","type":"address"},{"internalType":"string","name":"title","type":"string"},{"internalType":"string","name":"description","type":"string"},{"internalType":"string","name":"requirementsIPFS","type":"string"},{"internalType":"uint256","name":"reward","type":"uint256"},{"internalType":"uint256","name":"collateral","type":"uint256"},{"internalType":"enum TaskMarket.TaskPriority","name":"priority","type":"uint8"},{"internalType":"enum TaskMarket.TaskStatus","name":"status","type":"uint8"},{"internalType":"uint256","name":"createdAt","type":"uint256"},{"internalType":"uint256","name":"deadline","type":"uint256"},{"internalType":"address","name":"assignedTo","type":"address"},{"internalType":"string","name":"resultIPFS","type":"string"},{"internalType":"uint256","name":"completedAt","type":"uint256"}],"stateMutability":"view","type":"function"},{"inputs":[],"name":"totalFeesCollected","outputs":[{"internalType":"uint256","name":"","type":"uint256"}],"stateMutability":"view","type":"function"},{"inputs":[],"name":"totalTasksCompleted","outputs":[{"internalType":"uint256","name":"","type":"uint256"}],"stateMutability":"view","type":"function"},{"inputs":[],"name":"totalTasksPosted","outputs":[{"internalType":"uint256","name":"","type":"uint256"}],"stateMutability":"view","type":"function"},{"inputs":[],"name":"totalValueLocked","outputs":[{"internalType":"uint256","name":"","type":"uint256"}],"stateMutability":"view","type":"function"},{"stateMutability":"payable","type":"receive"}],"evm":{"bytecode":{"linkReferences":{},"object":"60803461008f57601f6126e738819003918201601f19168301916001600160401b038311848410176100945780849260209460405283398101031261008f57516001600160a01b0381169081900361008f57600160005560fa60085566038d7ea4c680006009556101f4600a55600780546001600160a01b03191691909117905560405161263c90816100ab8239f35b600080fd5b634e487b7160e01b600052604160045260246000fdfe6080604052600436101561001b575b361561001957600080fd5b005b60003560e01c806302e9d5e4146101eb57806303a250f9146101e657806309529dc1146101e1578063108ab45e146101dc578063131d9a27146101d7578063164bcc26146101d25780631d65e77e146101cd5780632b42900a146101c857806335659fb8146101c35780633d01e0fa146101be57806346904840146101b95780634bddd209146101b45780635492b197146101af57806354de6e32146101aa57806360c6d8ae146101a5578063611f364a146101a0578063670ad7821461019b57806370efdfb114610196578063744d3411146101915780637eec20a81461018c578063803a29da14610187578063813f8dc1146101825780638d9776721461017d5780639530568314610178578063b5695b3814610173578063d8ea68211461016e578063da8accf914610169578063ec18154e146101645763fdc3d8d70361000e576118f8565b6118da565b611823565b61179f565b611744565b611726565b611669565b61158f565b6114ff565b6113ae565b611382565b611348565b6112ef565b6112b9565b61129b565b611261565b6111e4565b610efe565b610ea1565b610be4565b610bc6565b6109e3565b610910565b6106e1565b6105bb565b6104ab565b610471565b6103a9565b346103a45760403660031901126103a457600435602435600091808352600160205261021c60408420541515611f1e565b80835260016020527f91a721693afff25f233ac308edbd2fa15ad7d4dfacdd164dd4e8c57ab72f4ae960018060a01b03610260816001604088200154163314612145565b61038d610277846000526001602052604060002090565b9461033e6102dc60078801926102a4610295855460ff9060081c1690565b61029e81610801565b15611f5b565b6102c36102bb896000526002602052604060002090565b54821061217e565b6102d7886000526002602052604060002090565b611029565b509161030c600684016102ff6102fa6102f6835460ff1690565b1590565b6121b8565b805460ff19166001179055565b8254600a890180546001600160a01b0319166001600160a01b03909216919091179055805461ff001916610100179055565b6001810195600587549101556103808561037b610361845460018060a01b031690565b6001600160a01b0316600090815260036020526040902090565b611cdb565b546001600160a01b031690565b935460405190815293169280602081015b0390a380f35b600080fd5b346103a45760203660031901126103a45760043560009080825260016020526103d760408320541515611f1e565b80825260016020526007604083206103fc60018060a01b03600a8301541633146121f7565b0160ff815460081c169060078210156104565761041e600161042d93146121f7565b805461ff001916610200179055565b33907f4883666eff4707b2212b9bf824c3a2c47933345113365d6229f5ed21336049498380a380f35b6107d4565b600435906001600160a01b03821682036103a457565b346103a45760203660031901126103a4576001600160a01b0361049261045b565b1660005260066020526020604060002054604051908152f35b346103a45760003660031901126103a4576020600c54604051908152f35b919082519283825260005b8481106104f5575050826000602080949584010152601f8019910116010190565b6020818301810151848301820152016104d4565b602080820190808352835180925260409283810182858560051b8401019601946000925b85841061053e575050505050505090565b909192939495968580600192603f198582030187528a5190848060a01b0382511681528282015183820152868201518782015261058a6060808401519060e080918501528301906104c9565b916080808201519083015260a0808201519083015260c080910151151591015299019401940192959493919061052d565b346103a4576020806003193601126103a4576004803560005260029081835260409283600020908154926105ee846125da565b946105fb875196876110d8565b8486526000938452828420918387015b8686106106235788518061061f8a82610509565b0390f35b6007856001928b516106348161109a565b875460a086901b869003166001600160a01b031681528488015483820152868801548d820152610666600389016110fa565b6060820152858801546080820152600588015460a082015261069861068f60068a015460ff1690565b151560c0830152565b81520194019501949261060b565b6020908160408183019282815285518094520193019160005b8281106106cd575050505090565b8351855293810193928101926001016106bf565b346103a45760403660031901126103a457602435600435610701826125da565b9061070f60405192836110d8565b828252601f1961071e846125da565b013660208401376000926001918281018091116107cf57845490835b610750575b8585526040518061061f87826106a6565b818110806107c6575b156107c1576107826007610777836000526001602052604060002090565b015460081c60ff1690565b61078b81610801565b156107a0575b61079a906119ac565b8361073a565b946107b981876107b361079a94896125f2565b526119ac565b959050610791565b61073f565b50828610610759565b611996565b634e487b7160e01b600052602160045260246000fd5b6004111561045657565b9060048210156104565752565b6007111561045657565b9060078210156104565752565b60208082528251828201528201516001600160a01b0316604082015260408201516108516101c0918260608501526101e08401906104c9565b610907610887610873606087015193601f1994858883030160808901526104c9565b6080870151848783030160a08801526104c9565b60a086015160c086015260c086015160e086015260e08601516108b061010091828801906107f4565b8601516108c3610120918288019061080b565b860151610140908187015286015161016090818701528601516108f3610180918288019060018060a01b03169052565b8601516101a09386830301848701526104c9565b93015191015290565b346103a45760203660031901126103a45760405161092d816110bb565b6101a060009182815282602082015260606040820152606080820152606060808201528260a08201528260c08201528260e0820152826101008201528261012082015282610140820152826101608201526060610180820152015261061f6109a96109a46004356000526001602052604060002090565b612503565b60405191829182610818565b9181601f840112156103a45782359167ffffffffffffffff83116103a457602083818601950101116103a457565b346103a45760803660031901126103a45760443560243560043560643567ffffffffffffffff81116103a457610a1d9036906004016109b5565b60009491838652600180602052610a3960408820541515611f1e565b610aac610aa4610a9883610a57896000526001602052604060002090565b6007810154610a6b9060081c60ff16610295565b610a7a60098201544210611f92565b610a8a60058201548c1115611fd0565b01546001600160a01b031690565b6001600160a01b031690565b331415612011565b86815b610b5e575b50503360009081526004602052604090207f71a5674c44b823bc0df08201dfeb2e8bdf698cd684fd2bbaa79adcf2c99fc1869361039e939092610b4592610b16905491610aff6119d6565b338152938a60208601528660408601523691611a0c565b606083015260808201524260a08201528760c0820152610b40866000526002602052604060002090565b612090565b6040805195865260208601919091523394918291820190565b610b72866000526002602052604060002090565b54811015610bc15780610bb6610b99610bbb936102d78a6000526002602052604060002090565b50543390610baf906001600160a01b0316610a98565b1415612056565b6119ac565b81610aaf565b610ab4565b346103a45760003660031901126103a4576020600854604051908152f35b346103a45760203660031901126103a45760043560005260016020526040600020541515610c1190611f1e565b6004356000526001602052600160a01b60019003604060002060010154163314610c3a90612145565b600435610c51906000526001602052604060002090565b60078101805460081c60ff16610c6681610801565b600314610c7290612344565b805461ff001916610500179055600581015490600854610c929083612380565b61271090049182610ca291612393565b916006820154600d5490610cb591612393565b600d5580600e5490610cc6916119c9565b600e55600c54610cd5906119ac565b600c55600a8201546001600160a01b031660009081526004602052604090208054610cff906119bb565b9055600a8201546001600160a01b031660009081526005602052604090208054610d28906119ac565b9055600a8201546001600160a01b031660009081526006602052604090208054610d539085906119c9565b9055600a82015483906001600160a01b03165a6000809381938293f1610d776123a0565b50610d81906123d0565b6007546001600160a01b03165a6000809381938293f1610d9f6123a0565b50610da99061240d565b60068101546005820154610dbc91612393565b801515610e02600a7ffc577563f1b9a0461e24abef1e1fcc0d33d3d881f20b5df6dda59de4aae2c82194610e6a94610e5994610e6f575b5001546001600160a01b031690565b6040519485526001600160a01b038116948590600435907f224350e49b29e656cb8c93d7379c7ddb4907c6009b64159a5e70d38092eae19790602090a36001600160a01b0316600090815260046020526040902090565b546040519081529081906020820190565b0390a2005b6000808080610e9b94610e8b600188015460018060a01b031690565b5af1610e956123a0565b5061244f565b38610df3565b346103a45760003660031901126103a4576007546040516001600160a01b039091168152602090f35b9060406003198301126103a457600435916024359067ffffffffffffffff82116103a457610efa916004016109b5565b9091565b346103a4577f2214f6a8b429291289d3afcdfccc59167b10f1d8ad1529e3959f9cd19f19af5f610fd5610f3036610eca565b8260009593949295526001602052610f4e6040600020541515611f1e565b610fc76007610f67866000526001602052604060002090565b6001810154610f7e906001600160a01b0316610a98565b33148015610fee575b610f909061248b565b018054610fb89060081c60ff16610fa681610801565b60028114908115610fda575b506124c6565b805461ff001916610400179055565b604051918291339683612330565b0390a3005b60039150610fe781610801565b1438610fb2565b50600a810154610f909061100a906001600160a01b0316610a98565b33149050610f87565b634e487b7160e01b600052603260045260246000fd5b8054821015611045576000526007602060002091020190600090565b611013565b90600182811c9216801561107a575b602083101461106457565b634e487b7160e01b600052602260045260246000fd5b91607f1691611059565b634e487b7160e01b600052604160045260246000fd5b60e0810190811067ffffffffffffffff8211176110b657604052565b611084565b6101c0810190811067ffffffffffffffff8211176110b657604052565b90601f8019910116810190811067ffffffffffffffff8211176110b657604052565b906040519182600082549261110e8461104a565b90818452600194858116908160001461117d575060011461113a575b5050611138925003836110d8565b565b9093915060005260209081600020936000915b8183106111655750506111389350820101388061112a565b8554888401850152948501948794509183019161114d565b91505061113894506020925060ff191682840152151560051b820101388061112a565b95926111d29260c0969998959260018060a01b031688526020880152604087015260e0606087015260e08601906104c9565b95608085015260a08401521515910152565b346103a45760403660031901126103a457602435600435600052600260205260406000209081548110156103a45761121b91611029565b5060018060a01b0381541661061f600183015492600281015490611241600382016110fa565b60048201549060ff600660058501549401541693604051978897886111a0565b346103a45760203660031901126103a4576001600160a01b0361128261045b565b1660005260046020526020604060002054604051908152f35b346103a45760003660031901126103a4576020600e54604051908152f35b346103a45760003660031901126103a4576020600b54604051908152f35b80548210156110455760005260206000200190600090565b346103a45760403660031901126103a45761130861045b565b6001600160a01b03166000908152600360205260409020805460243591908210156103a457602091611339916112d7565b90549060031b1c604051908152f35b346103a45760203660031901126103a4576001600160a01b0361136961045b565b1660005260056020526020604060002054604051908152f35b346103a45760203660031901126103a45760043560005260026020526020604060002054604051908152f35b346103a45760203660031901126103a4576004356000908082526001602052604082205415156113dd90611f1e565b80825260016020819052604083200154611401906001600160a01b03163314612145565b611415816000526001602052604060002090565b60078101805460081c60ff1661142a81610801565b1561143490611f5b565b805461ff001916610600179055828080806006850154600a546114579082612380565b6127109004958280808061146b8b87612393565b9a8b96600d549061147b91612393565b600d5580600e549061148c916119c9565b600e556007546001600160a01b03165af16114a56123a0565b506114af9061240d565b600101546001600160a01b03165af16114c66123a0565b506114d09061244f565b6040519081527f58716386e17644e69ff7358e3317a395f4523fcd0fb9cc227ee68d117ebbfbfc90602090a280f35b60a03660031901126103a45767ffffffffffffffff6004358181116103a45761152c9036906004016109b5565b906024358381116103a4576115459036906004016109b5565b9190936044359081116103a4576115609036906004016109b5565b906084359360048510156103a45761061f9661157f9660643595611d62565b6040519081529081906020820190565b346103a45760003660031901126103a4576020600954604051908152f35b9e9d9c98928f6101a09d9861161c6116649e999d9861160e611639996116006116569f98976115ef61162e9b60e09a8a5260208a019060018060a01b03169052565b6101c08060408a01528801906104c9565b9086820360608801526104c9565b9084820360808601526104c9565b9c60a083015260c082015201906107f4565b6101008d019061080b565b6101208b01526101408a01526001600160a01b0316610160890152565b8682036101808801526104c9565b930152565b346103a45760203660031901126103a45760043560005260016020526040600020805461061f6116a2600184015460018060a01b031690565b916116af600285016110fa565b936116bc600382016110fa565b916116c9600483016110fa565b906005830154906006840154906007850154906008860154926009870154946116fb600a89015460018060a01b031690565b96600c61170a600b8b016110fa565b990154996040519d8e9d8e9660ff808a60081c169916976115ad565b346103a45760003660031901126103a4576020600a54604051908152f35b346103a45760203660031901126103a4576001600160a01b0361176561045b565b1660005260046020526060604060002054600560205260406000205460066020526040600020549060405192835260208301526040820152f35b346103a4576020806003193601126103a4576001600160a01b036117c161045b565b1660005260038152604060002090604051908181845491828152019360005281600020916000905b82821061180c5761061f85611800818903826110d8565b604051918291826106a6565b8354865294850194600193840193909101906117e9565b346103a45761183136610eca565b917f6fbd90f6b051dd2b74925fe39aef5391515a82ac6783676b36a54aa5221c6a4f61039e600094838652600160205261187060408720541515611f1e565b8386526001602052610fc76040872061189660018060a01b03600a8301541633146121f7565b60078101906118b7600260ff845460081c166118b181610801565b14612232565b6118c58489600b8401612270565b600c4291015561030061ff0019825416179055565b346103a45760003660031901126103a4576020600d54604051908152f35b346103a45760003660031901126103a4576020600054604051908152f35b1561191d57565b60405162461bcd60e51b815260206004820152600e60248201526d52657761726420746f6f206c6f7760901b6044820152606490fd5b1561195a57565b60405162461bcd60e51b8152602060048201526014602482015273125b9cdd59999a58da595b9d081c185e5b595b9d60621b6044820152606490fd5b634e487b7160e01b600052601160045260246000fd5b60001981146107cf5760010190565b90600a82018092116107cf57565b919082018092116107cf57565b604051906111388261109a565b60405190611138826110bb565b67ffffffffffffffff81116110b657601f01601f191660200190565b929192611a18826119f0565b91611a2660405193846110d8565b8294818452818301116103a4578281602093846000960137010152565b60048210156104565752565b60078210156104565752565b604051906020820182811067ffffffffffffffff8211176110b65760405260008252565b90601f8111611a8d57505050565b600091825260208220906020601f850160051c83019410611ac9575b601f0160051c01915b828110611abe57505050565b818155600101611ab2565b9092508290611aa9565b919091825167ffffffffffffffff81116110b657611afb81611af5845461104a565b84611a7f565b602080601f8311600114611b37575081929394600092611b2c575b50508160011b916000199060031b1c1916179055565b015190503880611b16565b90601f19831695611b4d85600052602060002090565b926000905b888210611b8a57505083600195969710611b71575b505050811b019055565b015160001960f88460031b161c19169055388080611b67565b80600185968294968601518155019501930190611b52565b9060048110156104565760ff80198354169116179055565b9060078110156104565761ff0082549160081b169061ff001916179055565b8151815560208201516001820180546001600160a01b0319166001600160a01b0390921691909117905590600c906101a090611c1c604082015160028601611ad3565b611c2d606082015160038601611ad3565b611c3e608082015160048601611ad3565b60a0810151600585015560c08101516006850155611c8560078501611c7060e0840151611c6a816107ea565b82611ba2565b61010083015190611c8082610801565b611bba565b61012081015160088501556101408101516009850155610160810151600a850180546001600160a01b0319166001600160a01b03909216919091179055611cd4610180820151600b8601611ad3565b0151910155565b8054600160401b8110156110b657611cf8916001820181556112d7565b819291549060031b91821b91600019901b1916179055565b908060209392818452848401376000828201840152601f01601f1916010190565b9193611d4e611d5e92606095989796608086526080860191611d10565b96602084015260408301906107f4565b0152565b91909592969396611d77600954851015611916565b611d8384341015611953565b611d8c856107ea565b84611ee0576203f480915b600054988997611da6896119ac565b600055611db385426119c9565b92611dbc6119e3565b8a815233602082015294611dd1368d8a611a0c565b60408701523690611de192611a0c565b60608501523690611df192611a0c565b608083015260a082018590523460c0830152611e108660e08401611a43565b61010082016000905242610120830152610140820152610160810160009052611e37611a5b565b6101808201526101a0810160009052611e5a866000526001602052604060002090565b90611e6491611bd9565b33600090815260036020526040902085611e7d91611cdb565b600b54611e89906119ac565b600b5534600d5490611e9a916119c9565b600d55611ea790426119c9565b6040519384933397611eb99486611d31565b037f3e3dad351780e0c5d9667147ca353c4414b45bff35c16eab9cf5bf45f60d71ac91a390565b611ee9856107ea565b60018503611efb576201518091611d97565b611f04856107ea565b60028503611f155761384091611d97565b610e1091611d97565b15611f2557565b60405162461bcd60e51b815260206004820152600e60248201526d15185cdac81b9bdd08199bdd5b9960921b6044820152606490fd5b15611f6257565b60405162461bcd60e51b81526020600482015260086024820152672737ba1037b832b760c11b6044820152606490fd5b15611f9957565b60405162461bcd60e51b815260206004820152600f60248201526e111958591b1a5b99481c185cdcd959608a1b6044820152606490fd5b15611fd757565b60405162461bcd60e51b8152602060048201526012602482015271109a5908195e18d959591cc81c995dd85c9960721b6044820152606490fd5b1561201857565b60405162461bcd60e51b815260206004820152601660248201527543616e6e6f7420626964206f6e206f776e207461736b60501b6044820152606490fd5b1561205d57565b60405162461bcd60e51b815260206004820152600b60248201526a105b1c9958591e48189a5960aa1b6044820152606490fd5b8054600160401b8110156110b6576120ad91600182018155611029565b61212f57815181546001600160a01b0319166001600160a01b03919091161781556111389160069061211c9060c0906020810151600186015560408101516002860155612101606082015160038701611ad3565b6080810151600486015560a081015160058601550151151590565b91019060ff801983541691151516179055565b634e487b7160e01b600052600060045260246000fd5b1561214c57565b60405162461bcd60e51b815260206004820152600a6024820152692737ba103837b9ba32b960b11b6044820152606490fd5b1561218557565b60405162461bcd60e51b815260206004820152600b60248201526a125b9d985b1a5908189a5960aa1b6044820152606490fd5b156121bf57565b60405162461bcd60e51b815260206004820152601060248201526f105b1c9958591e481858d8d95c1d195960821b6044820152606490fd5b156121fe57565b60405162461bcd60e51b815260206004820152600c60248201526b139bdd08185cdcda59db995960a21b6044820152606490fd5b1561223957565b60405162461bcd60e51b815260206004820152600f60248201526e4e6f7420696e2070726f677265737360881b6044820152606490fd5b90929167ffffffffffffffff81116110b65761229081611af5845461104a565b6000601f82116001146122c957819293946000926122be5750508160011b916000199060031b1c1916179055565b013590503880611b16565b601f198216946122de84600052602060002090565b91805b8781106123185750836001959697106122fe57505050811b019055565b0135600019600384901b60f8161c19169055388080611b67565b909260206001819286860135815501940191016122e1565b916020612341938181520191611d10565b90565b1561234b57565b60405162461bcd60e51b815260206004820152600d60248201526c139bdd0818dbdb5c1b195d1959609a1b6044820152606490fd5b818102929181159184041417156107cf57565b919082039182116107cf57565b3d156123cb573d906123b1826119f0565b916123bf60405193846110d8565b82523d6000602084013e565b606090565b156123d757565b60405162461bcd60e51b815260206004820152600e60248201526d14185e5b595b9d0819985a5b195960921b6044820152606490fd5b1561241457565b60405162461bcd60e51b8152602060048201526013602482015272119959481d1c985b9cd9995c8819985a5b1959606a1b6044820152606490fd5b1561245657565b60405162461bcd60e51b815260206004820152600d60248201526c1499599d5b990819985a5b1959609a1b6044820152606490fd5b1561249257565b60405162461bcd60e51b815260206004820152600c60248201526b139bdd081a5b9d9bdb1d995960a21b6044820152606490fd5b156124cd57565b60405162461bcd60e51b815260206004820152600e60248201526d43616e6e6f74206469737075746560901b6044820152606490fd5b90600c61250e6119e3565b8354815260018401546001600160a01b0316602082015292612532600282016110fa565b6040850152612543600382016110fa565b6060850152612554600482016110fa565b6080850152600581015460a0850152600681015460c085015261259460ff600783015461258682821660e08901611a43565b60081c166101008601611a4f565b60088101546101208501526009810154610140850152600a8101546001600160a01b03166101608501526125ca600b82016110fa565b61018085015201546101a0830152565b67ffffffffffffffff81116110b65760051b60200190565b80518210156110455760209160051b01019056fea2646970667358221220772570354b02f551ec48793cb2a6284cbf268008dce0f07dadf0173ee871e9d664736f6c63430008140033","opcodes":"PUSH1 0x80 CALLVALUE PUSH2 0x8F JUMPI PUSH1 0x1F PUSH2 0x26E7 CODESIZE DUP2 SWAP1 SUB SWAP2 DUP3 ADD PUSH1 0x1F NOT AND DUP4 ADD SWAP2 PUSH1 0x1 PUSH1 0x1 PUSH1 0x40 SHL SUB DUP4 GT DUP5 DUP5 LT OR PUSH2 0x94 JUMPI DUP1 DUP5 SWAP3 PUSH1 0x20 SWAP5 PUSH1 0x40 MSTORE DUP4 CODECOPY DUP2 ADD SUB SLT PUSH2 0x8F JUMPI MLOAD PUSH1 0x1 PUSH1 0x1 PUSH1 0xA0 SHL SUB DUP2 AND SWAP1 DUP2 SWAP1 SUB PUSH2 0x8F JUMPI PUSH1 0x1 PUSH1 0x0 SSTORE PUSH1 0xFA PUSH1 0x8 SSTORE PUSH7 0x38D7EA4C68000 PUSH1 0x9 SSTORE PUSH2 0x1F4 PUSH1 0xA SSTORE PUSH1 0x7 DUP1 SLOAD PUSH1 0x1 PUSH1 0x1 PUSH1 0xA0 SHL SUB NOT AND SWAP2 SWAP1 SWAP2 OR SWAP1 SSTORE PUSH1 0x40 MLOAD PUSH2 0x263C SWAP1 DUP2 PUSH2 0xAB DUP3 CODECOPY RETURN JUMPDEST PUSH1 0x0 DUP1 REVERT JUMPDEST PUSH4 0x4E487B71 PUSH1 0xE0 SHL PUSH1 0x0 MSTORE PUSH1 0x41 PUSH1 0x4 MSTORE PUSH1 0x24 PUSH1 0x0 REVERT INVALID PUSH1 0x80 PUSH1 0x40 MSTORE PUSH1 0x4 CALLDATASIZE LT ISZERO PUSH2 0x1B JUMPI JUMPDEST CALLDATASIZE ISZERO PUSH2 0x19 JUMPI PUSH1 0x0 DUP1 REVERT JUMPDEST STOP JUMPDEST PUSH1 0x0 CALLDATALOAD PUSH1 0xE0 SHR DUP1 PUSH4 0x2E9D5E4 EQ PUSH2 0x1EB JUMPI DUP1 PUSH4 0x3A250F9 EQ PUSH2 0x1E6 JUMPI DUP1 PUSH4 0x9529DC1 EQ PUSH2 0x1E1 JUMPI DUP1 PUSH4 0x108AB45E EQ PUSH2 0x1DC JUMPI DUP1 PUSH4 0x131D9A27 EQ PUSH2 0x1D7 JUMPI DUP1 PUSH4 0x164BCC26 EQ PUSH2 0x1D2 JUMPI DUP1 PUSH4 0x1D65E77E EQ PUSH2 0x1CD JUMPI DUP1 PUSH4 0x2B42900A EQ PUSH2 0x1C8 JUMPI DUP1 PUSH4 0x35659FB8 EQ PUSH2 0x1C3 JUMPI DUP1 PUSH4 0x3D01E0FA EQ PUSH2 0x1BE JUMPI DUP1 PUSH4 0x46904840 EQ PUSH2 0x1B9 JUMPI DUP1 PUSH4 0x4BDDD209 EQ PUSH2 0x1B4 JUMPI DUP1 PUSH4 0x5492B197 EQ PUSH2 0x1AF JUMPI DUP1 PUSH4 0x54DE6E32 EQ PUSH2 0x1AA JUMPI DUP1 PUSH4 0x60C6D8AE EQ PUSH2 0x1A5 JUMPI DUP1 PUSH4 0x611F364A EQ PUSH2 0x1A0 JUMPI DUP1 PUSH4 0x670AD782 EQ PUSH2 0x19B JUMPI DUP1 PUSH4 0x70EFDFB1 EQ PUSH2 0x196 JUMPI DUP1 PUSH4 0x744D3411 EQ PUSH2 0x191 JUMPI DUP1 PUSH4 0x7EEC20A8 EQ PUSH2 0x18C JUMPI DUP1 PUSH4 0x803A29DA EQ PUSH2 0x187 JUMPI DUP1 PUSH4 0x813F8DC1 EQ PUSH2 0x182 JUMPI DUP1 PUSH4 0x8D977672 EQ PUSH2 0x17D JUMPI DUP1 PUSH4 0x95305683 EQ PUSH2 0x178 JUMPI DUP1 PUSH4 0xB5695B38 EQ PUSH2 0x173 JUMPI DUP1 PUSH4 0xD8EA6821 EQ PUSH2 0x16E JUMPI DUP1 PUSH4 0xDA8ACCF9 EQ PUSH2 0x169 JUMPI DUP1 PUSH4 0xEC18154E EQ PUSH2 0x164 JUMPI PUSH4 0xFDC3D8D7 SUB PUSH2 0xE JUMPI PUSH2 0x18F8 JUMP JUMPDEST PUSH2 0x18DA JUMP JUMPDEST PUSH2 0x1823 JUMP JUMPDEST PUSH2 0x179F JUMP JUMPDEST PUSH2 0x1744 JUMP JUMPDEST PUSH2 0x1726 JUMP JUMPDEST PUSH2 0x1669 JUMP JUMPDEST PUSH2 0x158F JUMP JUMPDEST PUSH2 0x14FF JUMP JUMPDEST PUSH2 0x13AE JUMP JUMPDEST PUSH2 0x1382 JUMP JUMPDEST PUSH2 0x1348 JUMP JUMPDEST PUSH2 0x12EF JUMP JUMPDEST PUSH2 0x12B9 JUMP JUMPDEST PUSH2 0x129B JUMP JUMPDEST PUSH2 0x1261 JUMP JUMPDEST PUSH2 0x11E4 JUMP JUMPDEST PUSH2 0xEFE JUMP JUMPDEST PUSH2 0xEA1 JUMP JUMPDEST PUSH2 0xBE4 JUMP JUMPDEST PUSH2 0xBC6 JUMP JUMPDEST PUSH2 0x9E3 JUMP JUMPDEST PUSH2 0x910 JUMP JUMPDEST PUSH2 0x6E1 JUMP JUMPDEST PUSH2 0x5BB JUMP JUMPDEST PUSH2 0x4AB JUMP JUMPDEST PUSH2 0x471 JUMP JUMPDEST PUSH2 0x3A9 JUMP JUMPDEST CALLVALUE PUSH2 0x3A4 JUMPI PUSH1 0x40 CALLDATASIZE PUSH1 0x3 NOT ADD SLT PUSH2 0x3A4 JUMPI PUSH1 0x4 CALLDATALOAD PUSH1 0x24 CALLDATALOAD PUSH1 0x0 SWAP2 DUP1 DUP4 MSTORE PUSH1 0x1 PUSH1 0x20 MSTORE PUSH2 0x21C PUSH1 0x40 DUP5 KECCAK256 SLOAD ISZERO ISZERO PUSH2 0x1F1E JUMP JUMPDEST DUP1 DUP4 MSTORE PUSH1 0x1 PUSH1 0x20 MSTORE PUSH32 0x91A721693AFFF25F233AC308EDBD2FA15AD7D4DFACDD164DD4E8C57AB72F4AE9 PUSH1 0x1 DUP1 PUSH1 0xA0 SHL SUB PUSH2 0x260 DUP2 PUSH1 0x1 PUSH1 0x40 DUP9 KECCAK256 ADD SLOAD AND CALLER EQ PUSH2 0x2145 JUMP JUMPDEST PUSH2 0x38D PUSH2 0x277 DUP5 PUSH1 0x0 MSTORE PUSH1 0x1 PUSH1 0x20 MSTORE PUSH1 0x40 PUSH1 0x0 KECCAK256 SWAP1 JUMP JUMPDEST SWAP5 PUSH2 0x33E PUSH2 0x2DC PUSH1 0x7 DUP9 ADD SWAP3 PUSH2 0x2A4 PUSH2 0x295 DUP6 SLOAD PUSH1 0xFF SWAP1 PUSH1 0x8 SHR AND SWAP1 JUMP JUMPDEST PUSH2 0x29E DUP2 PUSH2 0x801 JUMP JUMPDEST ISZERO PUSH2 0x1F5B JUMP JUMPDEST PUSH2 0x2C3 PUSH2 0x2BB DUP10 PUSH1 0x0 MSTORE PUSH1 0x2 PUSH1 0x20 MSTORE PUSH1 0x40 PUSH1 0x0 KECCAK256 SWAP1 JUMP JUMPDEST SLOAD DUP3 LT PUSH2 0x217E JUMP JUMPDEST PUSH2 0x2D7 DUP9 PUSH1 0x0 MSTORE PUSH1 0x2 PUSH1 0x20 MSTORE PUSH1 0x40 PUSH1 0x0 KECCAK256 SWAP1 JUMP JUMPDEST PUSH2 0x1029 JUMP JUMPDEST POP SWAP2 PUSH2 0x30C PUSH1 0x6 DUP5 ADD PUSH2 0x2FF PUSH2 0x2FA PUSH2 0x2F6 DUP4 SLOAD PUSH1 0xFF AND SWAP1 JUMP JUMPDEST ISZERO SWAP1 JUMP JUMPDEST PUSH2 0x21B8 JUMP JUMPDEST DUP1 SLOAD PUSH1 0xFF NOT AND PUSH1 0x1 OR SWAP1 SSTORE JUMP JUMPDEST DUP3 SLOAD PUSH1 0xA DUP10 ADD DUP1 SLOAD PUSH1 0x1 PUSH1 0x1 PUSH1 0xA0 SHL SUB NOT AND PUSH1 0x1 PUSH1 0x1 PUSH1 0xA0 SHL SUB SWAP1 SWAP3 AND SWAP2 SWAP1 SWAP2 OR SWAP1 SSTORE DUP1 SLOAD PUSH2 0xFF00 NOT AND PUSH2 0x100 OR SWAP1 SSTORE JUMP JUMPDEST PUSH1 0x1 DUP2 ADD SWAP6 PUSH1 0x5 DUP8 SLOAD SWAP2 ADD SSTORE PUSH2 0x380 DUP6 PUSH2 0x37B PUSH2 0x361 DUP5 SLOAD PUSH1 0x1 DUP1 PUSH1 0xA0 SHL SUB AND SWAP1 JUMP JUMPDEST PUSH1 0x1 PUSH1 0x1 PUSH1 0xA0 SHL SUB AND PUSH1 0x0 SWAP1 DUP2 MSTORE PUSH1 0x3 PUSH1 0x20 MSTORE PUSH1 0x40 SWAP1 KECCAK256 SWAP1 JUMP JUMPDEST PUSH2 0x1CDB JUMP JUMPDEST SLOAD PUSH1 0x1 PUSH1 0x1 PUSH1 0xA0 SHL SUB AND SWAP1 JUMP JUMPDEST SWAP4 SLOAD PUSH1 0x40 MLOAD SWAP1 DUP2 MSTORE SWAP4 AND SWAP3 DUP1 PUSH1 0x20 DUP2 ADD JUMPDEST SUB SWAP1 LOG3 DUP1 RETURN JUMPDEST PUSH1 0x0 DUP1 REVERT JUMPDEST CALLVALUE PUSH2 0x3A4 JUMPI PUSH1 0x20 CALLDATASIZE PUSH1 0x3 NOT ADD SLT PUSH2 0x3A4 JUMPI PUSH1 0x4 CALLDATALOAD PUSH1 0x0 SWAP1 DUP1 DUP3 MSTORE PUSH1 0x1 PUSH1 0x20 MSTORE PUSH2 0x3D7 PUSH1 0x40 DUP4 KECCAK256 SLOAD ISZERO ISZERO PUSH2 0x1F1E JUMP JUMPDEST DUP1 DUP3 MSTORE PUSH1 0x1 PUSH1 0x20 MSTORE PUSH1 0x7 PUSH1 0x40 DUP4 KECCAK256 PUSH2 0x3FC PUSH1 0x1 DUP1 PUSH1 0xA0 SHL SUB PUSH1 0xA DUP4 ADD SLOAD AND CALLER EQ PUSH2 0x21F7 JUMP JUMPDEST ADD PUSH1 0xFF DUP2 SLOAD PUSH1 0x8 SHR AND SWAP1 PUSH1 0x7 DUP3 LT ISZERO PUSH2 0x456 JUMPI PUSH2 0x41E PUSH1 0x1 PUSH2 0x42D SWAP4 EQ PUSH2 0x21F7 JUMP JUMPDEST DUP1 SLOAD PUSH2 0xFF00 NOT AND PUSH2 0x200 OR SWAP1 SSTORE JUMP JUMPDEST CALLER SWAP1 PUSH32 0x4883666EFF4707B2212B9BF824C3A2C47933345113365D6229F5ED2133604949 DUP4 DUP1 LOG3 DUP1 RETURN JUMPDEST PUSH2 0x7D4 JUMP JUMPDEST PUSH1 0x4 CALLDATALOAD SWAP1 PUSH1 0x1 PUSH1 0x1 PUSH1 0xA0 SHL SUB DUP3 AND DUP3 SUB PUSH2 0x3A4 JUMPI JUMP JUMPDEST CALLVALUE PUSH2 0x3A4 JUMPI PUSH1 0x20 CALLDATASIZE PUSH1 0x3 NOT ADD SLT PUSH2 0x3A4 JUMPI PUSH1 0x1 PUSH1 0x1 PUSH1 0xA0 SHL SUB PUSH2 0x492 PUSH2 0x45B JUMP JUMPDEST AND PUSH1 0x0 MSTORE PUSH1 0x6 PUSH1 0x20 MSTORE PUSH1 0x20 PUSH1 0x40 PUSH1 0x0 KECCAK256 SLOAD PUSH1 0x40 MLOAD SWAP1 DUP2 MSTORE RETURN JUMPDEST CALLVALUE PUSH2 0x3A4 JUMPI PUSH1 0x0 CALLDATASIZE PUSH1 0x3 NOT ADD SLT PUSH2 0x3A4 JUMPI PUSH1 0x20 PUSH1 0xC SLOAD PUSH1 0x40 MLOAD SWAP1 DUP2 MSTORE RETURN JUMPDEST SWAP2 SWAP1 DUP3 MLOAD SWAP3 DUP4 DUP3 MSTORE PUSH1 0x0 JUMPDEST DUP5 DUP2 LT PUSH2 0x4F5 JUMPI POP POP DUP3 PUSH1 0x0 PUSH1 0x20 DUP1 SWAP5 SWAP6 DUP5 ADD ADD MSTORE PUSH1 0x1F DUP1 NOT SWAP2 ADD AND ADD ADD SWAP1 JUMP JUMPDEST PUSH1 0x20 DUP2 DUP4 ADD DUP2 ADD MLOAD DUP5 DUP4 ADD DUP3 ADD MSTORE ADD PUSH2 0x4D4 JUMP JUMPDEST PUSH1 0x20 DUP1 DUP3 ADD SWAP1 DUP1 DUP4 MSTORE DUP4 MLOAD DUP1 SWAP3 MSTORE PUSH1 0x40 SWAP3 DUP4 DUP2 ADD DUP3 DUP6 DUP6 PUSH1 0x5 SHL DUP5 ADD ADD SWAP7 ADD SWAP5 PUSH1 0x0 SWAP3 JUMPDEST DUP6 DUP5 LT PUSH2 0x53E JUMPI POP POP POP POP POP POP POP SWAP1 JUMP JUMPDEST SWAP1 SWAP2 SWAP3 SWAP4 SWAP5 SWAP6 SWAP7 DUP6 DUP1 PUSH1 0x1 SWAP3 PUSH1 0x3F NOT DUP6 DUP3 SUB ADD DUP8 MSTORE DUP11 MLOAD SWAP1 DUP5 DUP1 PUSH1 0xA0 SHL SUB DUP3 MLOAD AND DUP2 MSTORE DUP3 DUP3 ADD MLOAD DUP4 DUP3 ADD MSTORE DUP7 DUP3 ADD MLOAD DUP8 DUP3 ADD MSTORE PUSH2 0x58A PUSH1 0x60 DUP1 DUP5 ADD MLOAD SWAP1 PUSH1 0xE0 DUP1 SWAP2 DUP6 ADD MSTORE DUP4 ADD SWAP1 PUSH2 0x4C9 JUMP JUMPDEST SWAP2 PUSH1 0x80 DUP1 DUP3 ADD MLOAD SWAP1 DUP4 ADD MSTORE PUSH1 0xA0 DUP1 DUP3 ADD MLOAD SWAP1 DUP4 ADD MSTORE PUSH1 0xC0 DUP1 SWAP2 ADD MLOAD ISZERO ISZERO SWAP2 ADD MSTORE SWAP10 ADD SWAP5 ADD SWAP5 ADD SWAP3 SWAP6 SWAP5 SWAP4 SWAP2 SWAP1 PUSH2 0x52D JUMP JUMPDEST CALLVALUE PUSH2 0x3A4 JUMPI PUSH1 0x20 DUP1 PUSH1 0x3 NOT CALLDATASIZE ADD SLT PUSH2 0x3A4 JUMPI PUSH1 0x4 DUP1 CALLDATALOAD PUSH1 0x0 MSTORE PUSH1 0x2 SWAP1 DUP2 DUP4 MSTORE PUSH1 0x40 SWAP3 DUP4 PUSH1 0x0 KECCAK256 SWAP1 DUP2 SLOAD SWAP3 PUSH2 0x5EE DUP5 PUSH2 0x25DA JUMP JUMPDEST SWAP5 PUSH2 0x5FB DUP8 MLOAD SWAP7 DUP8 PUSH2 0x10D8 JUMP JUMPDEST DUP5 DUP7 MSTORE PUSH1 0x0 SWAP4 DUP5 MSTORE DUP3 DUP5 KECCAK256 SWAP2 DUP4 DUP8 ADD JUMPDEST DUP7 DUP7 LT PUSH2 0x623 JUMPI DUP9 MLOAD DUP1 PUSH2 0x61F DUP11 DUP3 PUSH2 0x509 JUMP JUMPDEST SUB SWAP1 RETURN JUMPDEST PUSH1 0x7 DUP6 PUSH1 0x1 SWAP3 DUP12 MLOAD PUSH2 0x634 DUP2 PUSH2 0x109A JUMP JUMPDEST DUP8 SLOAD PUSH1 0xA0 DUP7 SWAP1 SHL DUP7 SWAP1 SUB AND PUSH1 0x1 PUSH1 0x1 PUSH1 0xA0 SHL SUB AND DUP2 MSTORE DUP5 DUP9 ADD SLOAD DUP4 DUP3 ADD MSTORE DUP7 DUP9 ADD SLOAD DUP14 DUP3 ADD MSTORE PUSH2 0x666 PUSH1 0x3 DUP10 ADD PUSH2 0x10FA JUMP JUMPDEST PUSH1 0x60 DUP3 ADD MSTORE DUP6 DUP9 ADD SLOAD PUSH1 0x80 DUP3 ADD MSTORE PUSH1 0x5 DUP9 ADD SLOAD PUSH1 0xA0 DUP3 ADD MSTORE PUSH2 0x698 PUSH2 0x68F PUSH1 0x6 DUP11 ADD SLOAD PUSH1 0xFF AND SWAP1 JUMP JUMPDEST ISZERO ISZERO PUSH1 0xC0 DUP4 ADD MSTORE JUMP JUMPDEST DUP2 MSTORE ADD SWAP5 ADD SWAP6 ADD SWAP5 SWAP3 PUSH2 0x60B JUMP JUMPDEST PUSH1 0x20 SWAP1 DUP2 PUSH1 0x40 DUP2 DUP4 ADD SWAP3 DUP3 DUP2 MSTORE DUP6 MLOAD DUP1 SWAP5 MSTORE ADD SWAP4 ADD SWAP2 PUSH1 0x0 JUMPDEST DUP3 DUP2 LT PUSH2 0x6CD JUMPI POP POP POP POP SWAP1 JUMP JUMPDEST DUP4 MLOAD DUP6 MSTORE SWAP4 DUP2 ADD SWAP4 SWAP3 DUP2 ADD SWAP3 PUSH1 0x1 ADD PUSH2 0x6BF JUMP JUMPDEST CALLVALUE PUSH2 0x3A4 JUMPI PUSH1 0x40 CALLDATASIZE PUSH1 0x3 NOT ADD SLT PUSH2 0x3A4 JUMPI PUSH1 0x24 CALLDATALOAD PUSH1 0x4 CALLDATALOAD PUSH2 0x701 DUP3 PUSH2 0x25DA JUMP JUMPDEST SWAP1 PUSH2 0x70F PUSH1 0x40 MLOAD SWAP3 DUP4 PUSH2 0x10D8 JUMP JUMPDEST DUP3 DUP3 MSTORE PUSH1 0x1F NOT PUSH2 0x71E DUP5 PUSH2 0x25DA JUMP JUMPDEST ADD CALLDATASIZE PUSH1 0x20 DUP5 ADD CALLDATACOPY PUSH1 0x0 SWAP3 PUSH1 0x1 SWAP2 DUP3 DUP2 ADD DUP1 SWAP2 GT PUSH2 0x7CF JUMPI DUP5 SLOAD SWAP1 DUP4 JUMPDEST PUSH2 0x750 JUMPI JUMPDEST DUP6 DUP6 MSTORE PUSH1 0x40 MLOAD DUP1 PUSH2 0x61F DUP8 DUP3 PUSH2 0x6A6 JUMP JUMPDEST DUP2 DUP2 LT DUP1 PUSH2 0x7C6 JUMPI JUMPDEST ISZERO PUSH2 0x7C1 JUMPI PUSH2 0x782 PUSH1 0x7 PUSH2 0x777 DUP4 PUSH1 0x0 MSTORE PUSH1 0x1 PUSH1 0x20 MSTORE PUSH1 0x40 PUSH1 0x0 KECCAK256 SWAP1 JUMP JUMPDEST ADD SLOAD PUSH1 0x8 SHR PUSH1 0xFF AND SWAP1 JUMP JUMPDEST PUSH2 0x78B DUP2 PUSH2 0x801 JUMP JUMPDEST ISZERO PUSH2 0x7A0 JUMPI JUMPDEST PUSH2 0x79A SWAP1 PUSH2 0x19AC JUMP JUMPDEST DUP4 PUSH2 0x73A JUMP JUMPDEST SWAP5 PUSH2 0x7B9 DUP2 DUP8 PUSH2 0x7B3 PUSH2 0x79A SWAP5 DUP10 PUSH2 0x25F2 JUMP JUMPDEST MSTORE PUSH2 0x19AC JUMP JUMPDEST SWAP6 SWAP1 POP PUSH2 0x791 JUMP JUMPDEST PUSH2 0x73F JUMP JUMPDEST POP DUP3 DUP7 LT PUSH2 0x759 JUMP JUMPDEST PUSH2 0x1996 JUMP JUMPDEST PUSH4 0x4E487B71 PUSH1 0xE0 SHL PUSH1 0x0 MSTORE PUSH1 0x21 PUSH1 0x4 MSTORE PUSH1 0x24 PUSH1 0x0 REVERT JUMPDEST PUSH1 0x4 GT ISZERO PUSH2 0x456 JUMPI JUMP JUMPDEST SWAP1 PUSH1 0x4 DUP3 LT ISZERO PUSH2 0x456 JUMPI MSTORE JUMP JUMPDEST PUSH1 0x7 GT ISZERO PUSH2 0x456 JUMPI JUMP JUMPDEST SWAP1 PUSH1 0x7 DUP3 LT ISZERO PUSH2 0x456 JUMPI MSTORE JUMP JUMPDEST PUSH1 0x20 DUP1 DUP3 MSTORE DUP3 MLOAD DUP3 DUP3 ADD MSTORE DUP3 ADD MLOAD PUSH1 0x1 PUSH1 0x1 PUSH1 0xA0 SHL SUB AND PUSH1 0x40 DUP3 ADD MSTORE PUSH1 0x40 DUP3 ADD MLOAD PUSH2 0x851 PUSH2 0x1C0 SWAP2 DUP3 PUSH1 0x60 DUP6 ADD MSTORE PUSH2 0x1E0 DUP5 ADD SWAP1 PUSH2 0x4C9 JUMP JUMPDEST PUSH2 0x907 PUSH2 0x887 PUSH2 0x873 PUSH1 0x60 DUP8 ADD MLOAD SWAP4 PUSH1 0x1F NOT SWAP5 DUP6 DUP9 DUP4 SUB ADD PUSH1 0x80 DUP10 ADD MSTORE PUSH2 0x4C9 JUMP JUMPDEST PUSH1 0x80 DUP8 ADD MLOAD DUP5 DUP8 DUP4 SUB ADD PUSH1 0xA0 DUP9 ADD MSTORE PUSH2 0x4C9 JUMP JUMPDEST PUSH1 0xA0 DUP7 ADD MLOAD PUSH1 0xC0 DUP7 ADD MSTORE PUSH1 0xC0 DUP7 ADD MLOAD PUSH1 0xE0 DUP7 ADD MSTORE PUSH1 0xE0 DUP7 ADD MLOAD PUSH2 0x8B0 PUSH2 0x100 SWAP2 DUP3 DUP9 ADD SWAP1 PUSH2 0x7F4 JUMP JUMPDEST DUP7 ADD MLOAD PUSH2 0x8C3 PUSH2 0x120 SWAP2 DUP3 DUP9 ADD SWAP1 PUSH2 0x80B JUMP JUMPDEST DUP7 ADD MLOAD PUSH2 0x140 SWAP1 DUP2 DUP8 ADD MSTORE DUP7 ADD MLOAD PUSH2 0x160 SWAP1 DUP2 DUP8 ADD MSTORE DUP7 ADD MLOAD PUSH2 0x8F3 PUSH2 0x180 SWAP2 DUP3 DUP9 ADD SWAP1 PUSH1 0x1 DUP1 PUSH1 0xA0 SHL SUB AND SWAP1 MSTORE JUMP JUMPDEST DUP7 ADD MLOAD PUSH2 0x1A0 SWAP4 DUP7 DUP4 SUB ADD DUP5 DUP8 ADD MSTORE PUSH2 0x4C9 JUMP JUMPDEST SWAP4 ADD MLOAD SWAP2 ADD MSTORE SWAP1 JUMP JUMPDEST CALLVALUE PUSH2 0x3A4 JUMPI PUSH1 0x20 CALLDATASIZE PUSH1 0x3 NOT ADD SLT PUSH2 0x3A4 JUMPI PUSH1 0x40 MLOAD PUSH2 0x92D DUP2 PUSH2 0x10BB JUMP JUMPDEST PUSH2 0x1A0 PUSH1 0x0 SWAP2 DUP3 DUP2 MSTORE DUP3 PUSH1 0x20 DUP3 ADD MSTORE PUSH1 0x60 PUSH1 0x40 DUP3 ADD MSTORE PUSH1 0x60 DUP1 DUP3 ADD MSTORE PUSH1 0x60 PUSH1 0x80 DUP3 ADD MSTORE DUP3 PUSH1 0xA0 DUP3 ADD MSTORE DUP3 PUSH1 0xC0 DUP3 ADD MSTORE DUP3 PUSH1 0xE0 DUP3 ADD MSTORE DUP3 PUSH2 0x100 DUP3 ADD MSTORE DUP3 PUSH2 0x120 DUP3 ADD MSTORE DUP3 PUSH2 0x140 DUP3 ADD MSTORE DUP3 PUSH2 0x160 DUP3 ADD MSTORE PUSH1 0x60 PUSH2 0x180 DUP3 ADD MSTORE ADD MSTORE PUSH2 0x61F PUSH2 0x9A9 PUSH2 0x9A4 PUSH1 0x4 CALLDATALOAD PUSH1 0x0 MSTORE PUSH1 0x1 PUSH1 0x20 MSTORE PUSH1 0x40 PUSH1 0x0 KECCAK256 SWAP1 JUMP JUMPDEST PUSH2 0x2503 JUMP JUMPDEST PUSH1 0x40 MLOAD SWAP2 DUP3 SWAP2 DUP3 PUSH2 0x818 JUMP JUMPDEST SWAP2 DUP2 PUSH1 0x1F DUP5 ADD SLT ISZERO PUSH2 0x3A4 JUMPI DUP3 CALLDATALOAD SWAP2 PUSH8 0xFFFFFFFFFFFFFFFF DUP4 GT PUSH2 0x3A4 JUMPI PUSH1 0x20 DUP4 DUP2 DUP7 ADD SWAP6 ADD ADD GT PUSH2 0x3A4 JUMPI JUMP JUMPDEST CALLVALUE PUSH2 0x3A4 JUMPI PUSH1 0x80 CALLDATASIZE PUSH1 0x3 NOT ADD SLT PUSH2 0x3A4 JUMPI PUSH1 0x44 CALLDATALOAD PUSH1 0x24 CALLDATALOAD PUSH1 0x4 CALLDATALOAD PUSH1 0x64 CALLDATALOAD PUSH8 0xFFFFFFFFFFFFFFFF DUP2 GT PUSH2 0x3A4 JUMPI PUSH2 0xA1D SWAP1 CALLDATASIZE SWAP1 PUSH1 0x4 ADD PUSH2 0x9B5 JUMP JUMPDEST PUSH1 0x0 SWAP5 SWAP2 DUP4 DUP7 MSTORE PUSH1 0x1 DUP1 PUSH1 0x20 MSTORE PUSH2 0xA39 PUSH1 0x40 DUP9 KECCAK256 SLOAD ISZERO ISZERO PUSH2 0x1F1E JUMP JUMPDEST PUSH2 0xAAC PUSH2 0xAA4 PUSH2 0xA98 DUP4 PUSH2 0xA57 DUP10 PUSH1 0x0 MSTORE PUSH1 0x1 PUSH1 0x20 MSTORE PUSH1 0x40 PUSH1 0x0 KECCAK256 SWAP1 JUMP JUMPDEST PUSH1 0x7 DUP2 ADD SLOAD PUSH2 0xA6B SWAP1 PUSH1 0x8 SHR PUSH1 0xFF AND PUSH2 0x295 JUMP JUMPDEST PUSH2 0xA7A PUSH1 0x9 DUP3 ADD SLOAD TIMESTAMP LT PUSH2 0x1F92 JUMP JUMPDEST PUSH2 0xA8A PUSH1 0x5 DUP3 ADD SLOAD DUP13 GT ISZERO PUSH2 0x1FD0 JUMP JUMPDEST ADD SLOAD PUSH1 0x1 PUSH1 0x1 PUSH1 0xA0 SHL SUB AND SWAP1 JUMP JUMPDEST PUSH1 0x1 PUSH1 0x1 PUSH1 0xA0 SHL SUB AND SWAP1 JUMP JUMPDEST CALLER EQ ISZERO PUSH2 0x2011 JUMP JUMPDEST DUP7 DUP2 JUMPDEST PUSH2 0xB5E JUMPI JUMPDEST POP POP CALLER PUSH1 0x0 SWAP1 DUP2 MSTORE PUSH1 0x4 PUSH1 0x20 MSTORE PUSH1 0x40 SWAP1 KECCAK256 PUSH32 0x71A5674C44B823BC0DF08201DFEB2E8BDF698CD684FD2BBAA79ADCF2C99FC186 SWAP4 PUSH2 0x39E SWAP4 SWAP1 SWAP3 PUSH2 0xB45 SWAP3 PUSH2 0xB16 SWAP1 SLOAD SWAP2 PUSH2 0xAFF PUSH2 0x19D6 JUMP JUMPDEST CALLER DUP2 MSTORE SWAP4 DUP11 PUSH1 0x20 DUP7 ADD MSTORE DUP7 PUSH1 0x40 DUP7 ADD MSTORE CALLDATASIZE SWAP2 PUSH2 0x1A0C JUMP JUMPDEST PUSH1 0x60 DUP4 ADD MSTORE PUSH1 0x80 DUP3 ADD MSTORE TIMESTAMP PUSH1 0xA0 DUP3 ADD MSTORE DUP8 PUSH1 0xC0 DUP3 ADD MSTORE PUSH2 0xB40 DUP7 PUSH1 0x0 MSTORE PUSH1 0x2 PUSH1 0x20 MSTORE PUSH1 0x40 PUSH1 0x0 KECCAK256 SWAP1 JUMP JUMPDEST PUSH2 0x2090 JUMP JUMPDEST PUSH1 0x40 DUP1 MLOAD SWAP6 DUP7 MSTORE PUSH1 0x20 DUP7 ADD SWAP2 SWAP1 SWAP2 MSTORE CALLER SWAP5 SWAP2 DUP3 SWAP2 DUP3 ADD SWAP1 JUMP JUMPDEST PUSH2 0xB72 DUP7 PUSH1 0x0 MSTORE PUSH1 0x2 PUSH1 0x20 MSTORE PUSH1 0x40 PUSH1 0x0 KECCAK256 SWAP1 JUMP JUMPDEST SLOAD DUP2 LT ISZERO PUSH2 0xBC1 JUMPI DUP1 PUSH2 0xBB6 PUSH2 0xB99 PUSH2 0xBBB SWAP4 PUSH2 0x2D7 DUP11 PUSH1 0x0 MSTORE PUSH1 0x2 PUSH1 0x20 MSTORE PUSH1 0x40 PUSH1 0x0 KECCAK256 SWAP1 JUMP JUMPDEST POP SLOAD CALLER SWAP1 PUSH2 0xBAF SWAP1 PUSH1 0x1 PUSH1 0x1 PUSH1 0xA0 SHL SUB AND PUSH2 0xA98 JUMP JUMPDEST EQ ISZERO PUSH2 0x2056 JUMP JUMPDEST PUSH2 0x19AC JUMP JUMPDEST DUP2 PUSH2 0xAAF JUMP JUMPDEST PUSH2 0xAB4 JUMP JUMPDEST CALLVALUE PUSH2 0x3A4 JUMPI PUSH1 0x0 CALLDATASIZE PUSH1 0x3 NOT ADD SLT PUSH2 0x3A4 JUMPI PUSH1 0x20 PUSH1 0x8 SLOAD PUSH1 0x40 MLOAD SWAP1 DUP2 MSTORE RETURN JUMPDEST CALLVALUE PUSH2 0x3A4 JUMPI PUSH1 0x20 CALLDATASIZE PUSH1 0x3 NOT ADD SLT PUSH2 0x3A4 JUMPI PUSH1 0x4 CALLDATALOAD PUSH1 0x0 MSTORE PUSH1 0x1 PUSH1 0x20 MSTORE PUSH1 0x40 PUSH1 0x0 KECCAK256 SLOAD ISZERO ISZERO PUSH2 0xC11 SWAP1 PUSH2 0x1F1E JUMP JUMPDEST PUSH1 0x4 CALLDATALOAD PUSH1 0x0 MSTORE PUSH1 0x1 PUSH1 0x20 MSTORE PUSH1 0x1 PUSH1 0xA0 SHL PUSH1 0x1 SWAP1 SUB PUSH1 0x40 PUSH1 0x0 KECCAK256 PUSH1 0x1 ADD SLOAD AND CALLER EQ PUSH2 0xC3A SWAP1 PUSH2 0x2145 JUMP JUMPDEST PUSH1 0x4 CALLDATALOAD PUSH2 0xC51 SWAP1 PUSH1 0x0 MSTORE PUSH1 0x1 PUSH1 0x20 MSTORE PUSH1 0x40 PUSH1 0x0 KECCAK256 SWAP1 JUMP JUMPDEST PUSH1 0x7 DUP2 ADD DUP1 SLOAD PUSH1 0x8 SHR PUSH1 0xFF AND PUSH2 0xC66 DUP2 PUSH2 0x801 JUMP JUMPDEST PUSH1 0x3 EQ PUSH2 0xC72 SWAP1 PUSH2 0x2344 JUMP JUMPDEST DUP1 SLOAD PUSH2 0xFF00 NOT AND PUSH2 0x500 OR SWAP1 SSTORE PUSH1 0x5 DUP2 ADD SLOAD SWAP1 PUSH1 0x8 SLOAD PUSH2 0xC92 SWAP1 DUP4 PUSH2 0x2380 JUMP JUMPDEST PUSH2 0x2710 SWAP1 DIV SWAP2 DUP3 PUSH2 0xCA2 SWAP2 PUSH2 0x2393 JUMP JUMPDEST SWAP2 PUSH1 0x6 DUP3 ADD SLOAD PUSH1 0xD SLOAD SWAP1 PUSH2 0xCB5 SWAP2 PUSH2 0x2393 JUMP JUMPDEST PUSH1 0xD SSTORE DUP1 PUSH1 0xE SLOAD SWAP1 PUSH2 0xCC6 SWAP2 PUSH2 0x19C9 JUMP JUMPDEST PUSH1 0xE SSTORE PUSH1 0xC SLOAD PUSH2 0xCD5 SWAP1 PUSH2 0x19AC JUMP JUMPDEST PUSH1 0xC SSTORE PUSH1 0xA DUP3 ADD SLOAD PUSH1 0x1 PUSH1 0x1 PUSH1 0xA0 SHL SUB AND PUSH1 0x0 SWAP1 DUP2 MSTORE PUSH1 0x4 PUSH1 0x20 MSTORE PUSH1 0x40 SWAP1 KECCAK256 DUP1 SLOAD PUSH2 0xCFF SWAP1 PUSH2 0x19BB JUMP JUMPDEST SWAP1 SSTORE PUSH1 0xA DUP3 ADD SLOAD PUSH1 0x1 PUSH1 0x1 PUSH1 0xA0 SHL SUB AND PUSH1 0x0 SWAP1 DUP2 MSTORE PUSH1 0x5 PUSH1 0x20 MSTORE PUSH1 0x40 SWAP1 KECCAK256 DUP1 SLOAD PUSH2 0xD28 SWAP1 PUSH2 0x19AC JUMP JUMPDEST SWAP1 SSTORE PUSH1 0xA DUP3 ADD SLOAD PUSH1 0x1 PUSH1 0x1 PUSH1 0xA0 SHL SUB AND PUSH1 0x0 SWAP1 DUP2 MSTORE PUSH1 0x6 PUSH1 0x20 MSTORE PUSH1 0x40 SWAP1 KECCAK256 DUP1 SLOAD PUSH2 0xD53 SWAP1 DUP6 SWAP1 PUSH2 0x19C9 JUMP JUMPDEST SWAP1 SSTORE PUSH1 0xA DUP3 ADD SLOAD DUP4 SWAP1 PUSH1 0x1 PUSH1 0x1 PUSH1 0xA0 SHL SUB AND GAS PUSH1 0x0 DUP1 SWAP4 DUP2 SWAP4 DUP3 SWAP4 CALL PUSH2 0xD77 PUSH2 0x23A0 JUMP JUMPDEST POP PUSH2 0xD81 SWAP1 PUSH2 0x23D0 JUMP JUMPDEST PUSH1 0x7 SLOAD PUSH1 0x1 PUSH1 0x1 PUSH1 0xA0 SHL SUB AND GAS PUSH1 0x0 DUP1 SWAP4 DUP2 SWAP4 DUP3 SWAP4 CALL PUSH2 0xD9F PUSH2 0x23A0 JUMP JUMPDEST POP PUSH2 0xDA9 SWAP1 PUSH2 0x240D JUMP JUMPDEST PUSH1 0x6 DUP2 ADD SLOAD PUSH1 0x5 DUP3 ADD SLOAD PUSH2 0xDBC SWAP2 PUSH2 0x2393 JUMP JUMPDEST DUP1 ISZERO ISZERO PUSH2 0xE02 PUSH1 0xA PUSH32 0xFC577563F1B9A0461E24ABEF1E1FCC0D33D3D881F20B5DF6DDA59DE4AAE2C821 SWAP5 PUSH2 0xE6A SWAP5 PUSH2 0xE59 SWAP5 PUSH2 0xE6F JUMPI JUMPDEST POP ADD SLOAD PUSH1 0x1 PUSH1 0x1 PUSH1 0xA0 SHL SUB AND SWAP1 JUMP JUMPDEST PUSH1 0x40 MLOAD SWAP5 DUP6 MSTORE PUSH1 0x1 PUSH1 0x1 PUSH1 0xA0 SHL SUB DUP2 AND SWAP5 DUP6 SWAP1 PUSH1 0x4 CALLDATALOAD SWAP1 PUSH32 0x224350E49B29E656CB8C93D7379C7DDB4907C6009B64159A5E70D38092EAE197 SWAP1 PUSH1 0x20 SWAP1 LOG3 PUSH1 0x1 PUSH1 0x1 PUSH1 0xA0 SHL SUB AND PUSH1 0x0 SWAP1 DUP2 MSTORE PUSH1 0x4 PUSH1 0x20 MSTORE PUSH1 0x40 SWAP1 KECCAK256 SWAP1 JUMP JUMPDEST SLOAD PUSH1 0x40 MLOAD SWAP1 DUP2 MSTORE SWAP1 DUP2 SWAP1 PUSH1 0x20 DUP3 ADD SWAP1 JUMP JUMPDEST SUB SWAP1 LOG2 STOP JUMPDEST PUSH1 0x0 DUP1 DUP1 DUP1 PUSH2 0xE9B SWAP5 PUSH2 0xE8B PUSH1 0x1 DUP9 ADD SLOAD PUSH1 0x1 DUP1 PUSH1 0xA0 SHL SUB AND SWAP1 JUMP JUMPDEST GAS CALL PUSH2 0xE95 PUSH2 0x23A0 JUMP JUMPDEST POP PUSH2 0x244F JUMP JUMPDEST CODESIZE PUSH2 0xDF3 JUMP JUMPDEST CALLVALUE PUSH2 0x3A4 JUMPI PUSH1 0x0 CALLDATASIZE PUSH1 0x3 NOT ADD SLT PUSH2 0x3A4 JUMPI PUSH1 0x7 SLOAD PUSH1 0x40 MLOAD PUSH1 0x1 PUSH1 0x1 PUSH1 0xA0 SHL SUB SWAP1 SWAP2 AND DUP2 MSTORE PUSH1 0x20 SWAP1 RETURN JUMPDEST SWAP1 PUSH1 0x40 PUSH1 0x3 NOT DUP4 ADD SLT PUSH2 0x3A4 JUMPI PUSH1 0x4 CALLDATALOAD SWAP2 PUSH1 0x24 CALLDATALOAD SWAP1 PUSH8 0xFFFFFFFFFFFFFFFF DUP3 GT PUSH2 0x3A4 JUMPI PUSH2 0xEFA SWAP2 PUSH1 0x4 ADD PUSH2 0x9B5 JUMP JUMPDEST SWAP1 SWAP2 JUMP JUMPDEST CALLVALUE PUSH2 0x3A4 JUMPI PUSH32 0x2214F6A8B429291289D3AFCDFCCC59167B10F1D8AD1529E3959F9CD19F19AF5F PUSH2 0xFD5 PUSH2 0xF30 CALLDATASIZE PUSH2 0xECA JUMP JUMPDEST DUP3 PUSH1 0x0 SWAP6 SWAP4 SWAP5 SWAP3 SWAP6 MSTORE PUSH1 0x1 PUSH1 0x20 MSTORE PUSH2 0xF4E PUSH1 0x40 PUSH1 0x0 KECCAK256 SLOAD ISZERO ISZERO PUSH2 0x1F1E JUMP JUMPDEST PUSH2 0xFC7 PUSH1 0x7 PUSH2 0xF67 DUP7 PUSH1 0x0 MSTORE PUSH1 0x1 PUSH1 0x20 MSTORE PUSH1 0x40 PUSH1 0x0 KECCAK256 SWAP1 JUMP JUMPDEST PUSH1 0x1 DUP2 ADD SLOAD PUSH2 0xF7E SWAP1 PUSH1 0x1 PUSH1 0x1 PUSH1 0xA0 SHL SUB AND PUSH2 0xA98 JUMP JUMPDEST CALLER EQ DUP1 ISZERO PUSH2 0xFEE JUMPI JUMPDEST PUSH2 0xF90 SWAP1 PUSH2 0x248B JUMP JUMPDEST ADD DUP1 SLOAD PUSH2 0xFB8 SWAP1 PUSH1 0x8 SHR PUSH1 0xFF AND PUSH2 0xFA6 DUP2 PUSH2 0x801 JUMP JUMPDEST PUSH1 0x2 DUP2 EQ SWAP1 DUP2 ISZERO PUSH2 0xFDA JUMPI JUMPDEST POP PUSH2 0x24C6 JUMP JUMPDEST DUP1 SLOAD PUSH2 0xFF00 NOT AND PUSH2 0x400 OR SWAP1 SSTORE JUMP JUMPDEST PUSH1 0x40 MLOAD SWAP2 DUP3 SWAP2 CALLER SWAP7 DUP4 PUSH2 0x2330 JUMP JUMPDEST SUB SWAP1 LOG3 STOP JUMPDEST PUSH1 0x3 SWAP2 POP PUSH2 0xFE7 DUP2 PUSH2 0x801 JUMP JUMPDEST EQ CODESIZE PUSH2 0xFB2 JUMP JUMPDEST POP PUSH1 0xA DUP2 ADD SLOAD PUSH2 0xF90 SWAP1 PUSH2 0x100A SWAP1 PUSH1 0x1 PUSH1 0x1 PUSH1 0xA0 SHL SUB AND PUSH2 0xA98 JUMP JUMPDEST CALLER EQ SWAP1 POP PUSH2 0xF87 JUMP JUMPDEST PUSH4 0x4E487B71 PUSH1 0xE0 SHL PUSH1 0x0 MSTORE PUSH1 0x32 PUSH1 0x4 MSTORE PUSH1 0x24 PUSH1 0x0 REVERT JUMPDEST DUP1 SLOAD DUP3 LT ISZERO PUSH2 0x1045 JUMPI PUSH1 0x0 MSTORE PUSH1 0x7 PUSH1 0x20 PUSH1 0x0 KECCAK256 SWAP2 MUL ADD SWAP1 PUSH1 0x0 SWAP1 JUMP JUMPDEST PUSH2 0x1013 JUMP JUMPDEST SWAP1 PUSH1 0x1 DUP3 DUP2 SHR SWAP3 AND DUP1 ISZERO PUSH2 0x107A JUMPI JUMPDEST PUSH1 0x20 DUP4 LT EQ PUSH2 0x1064 JUMPI JUMP JUMPDEST PUSH4 0x4E487B71 PUSH1 0xE0 SHL PUSH1 0x0 MSTORE PUSH1 0x22 PUSH1 0x4 MSTORE PUSH1 0x24 PUSH1 0x0 REVERT JUMPDEST SWAP2 PUSH1 0x7F AND SWAP2 PUSH2 0x1059 JUMP JUMPDEST PUSH4 0x4E487B71 PUSH1 0xE0 SHL PUSH1 0x0 MSTORE PUSH1 0x41 PUSH1 0x4 MSTORE PUSH1 0x24 PUSH1 0x0 REVERT JUMPDEST PUSH1 0xE0 DUP2 ADD SWAP1 DUP2 LT PUSH8 0xFFFFFFFFFFFFFFFF DUP3 GT OR PUSH2 0x10B6 JUMPI PUSH1 0x40 MSTORE JUMP JUMPDEST PUSH2 0x1084 JUMP JUMPDEST PUSH2 0x1C0 DUP2 ADD SWAP1 DUP2 LT PUSH8 0xFFFFFFFFFFFFFFFF DUP3 GT OR PUSH2 0x10B6 JUMPI PUSH1 0x40 MSTORE JUMP JUMPDEST SWAP1 PUSH1 0x1F DUP1 NOT SWAP2 ADD AND DUP2 ADD SWAP1 DUP2 LT PUSH8 0xFFFFFFFFFFFFFFFF DUP3 GT OR PUSH2 0x10B6 JUMPI PUSH1 0x40 MSTORE JUMP JUMPDEST SWAP1 PUSH1 0x40 MLOAD SWAP2 DUP3 PUSH1 0x0 DUP3 SLOAD SWAP3 PUSH2 0x110E DUP5 PUSH2 0x104A JUMP JUMPDEST SWAP1 DUP2 DUP5 MSTORE PUSH1 0x1 SWAP5 DUP6 DUP2 AND SWAP1 DUP2 PUSH1 0x0 EQ PUSH2 0x117D JUMPI POP PUSH1 0x1 EQ PUSH2 0x113A JUMPI JUMPDEST POP POP PUSH2 0x1138 SWAP3 POP SUB DUP4 PUSH2 0x10D8 JUMP JUMPDEST JUMP JUMPDEST SWAP1 SWAP4 SWAP2 POP PUSH1 0x0 MSTORE PUSH1 0x20 SWAP1 DUP2 PUSH1 0x0 KECCAK256 SWAP4 PUSH1 0x0 SWAP2 JUMPDEST DUP2 DUP4 LT PUSH2 0x1165 JUMPI POP POP PUSH2 0x1138 SWAP4 POP DUP3 ADD ADD CODESIZE DUP1 PUSH2 0x112A JUMP JUMPDEST DUP6 SLOAD DUP9 DUP5 ADD DUP6 ADD MSTORE SWAP5 DUP6 ADD SWAP5 DUP8 SWAP5 POP SWAP2 DUP4 ADD SWAP2 PUSH2 0x114D JUMP JUMPDEST SWAP2 POP POP PUSH2 0x1138 SWAP5 POP PUSH1 0x20 SWAP3 POP PUSH1 0xFF NOT AND DUP3 DUP5 ADD MSTORE ISZERO ISZERO PUSH1 0x5 SHL DUP3 ADD ADD CODESIZE DUP1 PUSH2 0x112A JUMP JUMPDEST SWAP6 SWAP3 PUSH2 0x11D2 SWAP3 PUSH1 0xC0 SWAP7 SWAP10 SWAP9 SWAP6 SWAP3 PUSH1 0x1 DUP1 PUSH1 0xA0 SHL SUB AND DUP9 MSTORE PUSH1 0x20 DUP9 ADD MSTORE PUSH1 0x40 DUP8 ADD MSTORE PUSH1 0xE0 PUSH1 0x60 DUP8 ADD MSTORE PUSH1 0xE0 DUP7 ADD SWAP1 PUSH2 0x4C9 JUMP JUMPDEST SWAP6 PUSH1 0x80 DUP6 ADD MSTORE PUSH1 0xA0 DUP5 ADD MSTORE ISZERO ISZERO SWAP2 ADD MSTORE JUMP JUMPDEST CALLVALUE PUSH2 0x3A4 JUMPI PUSH1 0x40 CALLDATASIZE PUSH1 0x3 NOT ADD SLT PUSH2 0x3A4 JUMPI PUSH1 0x24 CALLDATALOAD PUSH1 0x4 CALLDATALOAD PUSH1 0x0 MSTORE PUSH1 0x2 PUSH1 0x20 MSTORE PUSH1 0x40 PUSH1 0x0 KECCAK256 SWAP1 DUP2 SLOAD DUP2 LT ISZERO PUSH2 0x3A4 JUMPI PUSH2 0x121B SWAP2 PUSH2 0x1029 JUMP JUMPDEST POP PUSH1 0x1 DUP1 PUSH1 0xA0 SHL SUB DUP2 SLOAD AND PUSH2 0x61F PUSH1 0x1 DUP4 ADD SLOAD SWAP3 PUSH1 0x2 DUP2 ADD SLOAD SWAP1 PUSH2 0x1241 PUSH1 0x3 DUP3 ADD PUSH2 0x10FA JUMP JUMPDEST PUSH1 0x4 DUP3 ADD SLOAD SWAP1 PUSH1 0xFF PUSH1 0x6 PUSH1 0x5 DUP6 ADD SLOAD SWAP5 ADD SLOAD AND SWAP4 PUSH1 0x40 MLOAD SWAP8 DUP9 SWAP8 DUP9 PUSH2 0x11A0 JUMP JUMPDEST CALLVALUE PUSH2 0x3A4 JUMPI PUSH1 0x20 CALLDATASIZE PUSH1 0x3 NOT ADD SLT PUSH2 0x3A4 JUMPI PUSH1 0x1 PUSH1 0x1 PUSH1 0xA0 SHL SUB PUSH2 0x1282 PUSH2 0x45B JUMP JUMPDEST AND PUSH1 0x0 MSTORE PUSH1 0x4 PUSH1 0x20 MSTORE PUSH1 0x20 PUSH1 0x40 PUSH1 0x0 KECCAK256 SLOAD PUSH1 0x40 MLOAD SWAP1 DUP2 MSTORE RETURN JUMPDEST CALLVALUE PUSH2 0x3A4 JUMPI PUSH1 0x0 CALLDATASIZE PUSH1 0x3 NOT ADD SLT PUSH2 0x3A4 JUMPI PUSH1 0x20 PUSH1 0xE SLOAD PUSH1 0x40 MLOAD SWAP1 DUP2 MSTORE RETURN JUMPDEST CALLVALUE PUSH2 0x3A4 JUMPI PUSH1 0x0 CALLDATASIZE PUSH1 0x3 NOT ADD SLT PUSH2 0x3A4 JUMPI PUSH1 0x20 PUSH1 0xB SLOAD PUSH1 0x40 MLOAD SWAP1 DUP2 MSTORE RETURN JUMPDEST DUP1 SLOAD DUP3 LT ISZERO PUSH2 0x1045 JUMPI PUSH1 0x0 MSTORE PUSH1 0x20 PUSH1 0x0 KECCAK256 ADD SWAP1 PUSH1 0x0 SWAP1 JUMP JUMPDEST CALLVALUE PUSH2 0x3A4 JUMPI PUSH1 0x40 CALLDATASIZE PUSH1 0x3 NOT ADD SLT PUSH2 0x3A4 JUMPI PUSH2 0x1308 PUSH2 0x45B JUMP JUMPDEST PUSH1 0x1 PUSH1 0x1 PUSH1 0xA0 SHL SUB AND PUSH1 0x0 SWAP1 DUP2 MSTORE PUSH1 0x3 PUSH1 0x20 MSTORE PUSH1 0x40 SWAP1 KECCAK256 DUP1 SLOAD PUSH1 0x24 CALLDATALOAD SWAP2 SWAP1 DUP3 LT ISZERO PUSH2 0x3A4 JUMPI PUSH1 0x20 SWAP2 PUSH2 0x1339 SWAP2 PUSH2 0x12D7 JUMP JUMPDEST SWAP1 SLOAD SWAP1 PUSH1 0x3 SHL SHR PUSH1 0x40 MLOAD SWAP1 DUP2 MSTORE RETURN JUMPDEST CALLVALUE PUSH2 0x3A4 JUMPI PUSH1 0x20 CALLDATASIZE PUSH1 0x3 NOT ADD SLT PUSH2 0x3A4 JUMPI PUSH1 0x1 PUSH1 0x1 PUSH1 0xA0 SHL SUB PUSH2 0x1369 PUSH2 0x45B JUMP JUMPDEST AND PUSH1 0x0 MSTORE PUSH1 0x5 PUSH1 0x20 MSTORE PUSH1 0x20 PUSH1 0x40 PUSH1 0x0 KECCAK256 SLOAD PUSH1 0x40 MLOAD SWAP1 DUP2 MSTORE RETURN JUMPDEST CALLVALUE PUSH2 0x3A4 JUMPI PUSH1 0x20 CALLDATASIZE PUSH1 0x3 NOT ADD SLT PUSH2 0x3A4 JUMPI PUSH1 0x4 CALLDATALOAD PUSH1 0x0 MSTORE PUSH1 0x2 PUSH1 0x20 MSTORE PUSH1 0x20 PUSH1 0x40 PUSH1 0x0 KECCAK256 SLOAD PUSH1 0x40 MLOAD SWAP1 DUP2 MSTORE RETURN JUMPDEST CALLVALUE PUSH2 0x3A4 JUMPI PUSH1 0x20 CALLDATASIZE PUSH1 0x3 NOT ADD SLT PUSH2 0x3A4 JUMPI PUSH1 0x4 CALLDATALOAD PUSH1 0x0 SWAP1 DUP1 DUP3 MSTORE PUSH1 0x1 PUSH1 0x20 MSTORE PUSH1 0x40 DUP3 KECCAK256 SLOAD ISZERO ISZERO PUSH2 0x13DD SWAP1 PUSH2 0x1F1E JUMP JUMPDEST DUP1 DUP3 MSTORE PUSH1 0x1 PUSH1 0x20 DUP2 SWAP1 MSTORE PUSH1 0x40 DUP4 KECCAK256 ADD SLOAD PUSH2 0x1401 SWAP1 PUSH1 0x1 PUSH1 0x1 PUSH1 0xA0 SHL SUB AND CALLER EQ PUSH2 0x2145 JUMP JUMPDEST PUSH2 0x1415 DUP2 PUSH1 0x0 MSTORE PUSH1 0x1 PUSH1 0x20 MSTORE PUSH1 0x40 PUSH1 0x0 KECCAK256 SWAP1 JUMP JUMPDEST PUSH1 0x7 DUP2 ADD DUP1 SLOAD PUSH1 0x8 SHR PUSH1 0xFF AND PUSH2 0x142A DUP2 PUSH2 0x801 JUMP JUMPDEST ISZERO PUSH2 0x1434 SWAP1 PUSH2 0x1F5B JUMP JUMPDEST DUP1 SLOAD PUSH2 0xFF00 NOT AND PUSH2 0x600 OR SWAP1 SSTORE DUP3 DUP1 DUP1 DUP1 PUSH1 0x6 DUP6 ADD SLOAD PUSH1 0xA SLOAD PUSH2 0x1457 SWAP1 DUP3 PUSH2 0x2380 JUMP JUMPDEST PUSH2 0x2710 SWAP1 DIV SWAP6 DUP3 DUP1 DUP1 DUP1 PUSH2 0x146B DUP12 DUP8 PUSH2 0x2393 JUMP JUMPDEST SWAP11 DUP12 SWAP7 PUSH1 0xD SLOAD SWAP1 PUSH2 0x147B SWAP2 PUSH2 0x2393 JUMP JUMPDEST PUSH1 0xD SSTORE DUP1 PUSH1 0xE SLOAD SWAP1 PUSH2 0x148C SWAP2 PUSH2 0x19C9 JUMP JUMPDEST PUSH1 0xE SSTORE PUSH1 0x7 SLOAD PUSH1 0x1 PUSH1 0x1 PUSH1 0xA0 SHL SUB AND GAS CALL PUSH2 0x14A5 PUSH2 0x23A0 JUMP JUMPDEST POP PUSH2 0x14AF SWAP1 PUSH2 0x240D JUMP JUMPDEST PUSH1 0x1 ADD SLOAD PUSH1 0x1 PUSH1 0x1 PUSH1 0xA0 SHL SUB AND GAS CALL PUSH2 0x14C6 PUSH2 0x23A0 JUMP JUMPDEST POP PUSH2 0x14D0 SWAP1 PUSH2 0x244F JUMP JUMPDEST PUSH1 0x40 MLOAD SWAP1 DUP2 MSTORE PUSH32 0x58716386E17644E69FF7358E3317A395F4523FCD0FB9CC227EE68D117EBBFBFC SWAP1 PUSH1 0x20 SWAP1 LOG2 DUP1 RETURN JUMPDEST PUSH1 0xA0 CALLDATASIZE PUSH1 0x3 NOT ADD SLT PUSH2 0x3A4 JUMPI PUSH8 0xFFFFFFFFFFFFFFFF PUSH1 0x4 CALLDATALOAD DUP2 DUP2 GT PUSH2 0x3A4 JUMPI PUSH2 0x152C SWAP1 CALLDATASIZE SWAP1 PUSH1 0x4 ADD PUSH2 0x9B5 JUMP JUMPDEST SWAP1 PUSH1 0x24 CALLDATALOAD DUP4 DUP2 GT PUSH2 0x3A4 JUMPI PUSH2 0x1545 SWAP1 CALLDATASIZE SWAP1 PUSH1 0x4 ADD PUSH2 0x9B5 JUMP JUMPDEST SWAP2 SWAP1 SWAP4 PUSH1 0x44 CALLDATALOAD SWAP1 DUP2 GT PUSH2 0x3A4 JUMPI PUSH2 0x1560 SWAP1 CALLDATASIZE SWAP1 PUSH1 0x4 ADD PUSH2 0x9B5 JUMP JUMPDEST SWAP1 PUSH1 0x84 CALLDATALOAD SWAP4 PUSH1 0x4 DUP6 LT ISZERO PUSH2 0x3A4 JUMPI PUSH2 0x61F SWAP7 PUSH2 0x157F SWAP7 PUSH1 0x64 CALLDATALOAD SWAP6 PUSH2 0x1D62 JUMP JUMPDEST PUSH1 0x40 MLOAD SWAP1 DUP2 MSTORE SWAP1 DUP2 SWAP1 PUSH1 0x20 DUP3 ADD SWAP1 JUMP JUMPDEST CALLVALUE PUSH2 0x3A4 JUMPI PUSH1 0x0 CALLDATASIZE PUSH1 0x3 NOT ADD SLT PUSH2 0x3A4 JUMPI PUSH1 0x20 PUSH1 0x9 SLOAD PUSH1 0x40 MLOAD SWAP1 DUP2 MSTORE RETURN JUMPDEST SWAP15 SWAP14 SWAP13 SWAP9 SWAP3 DUP16 PUSH2 0x1A0 SWAP14 SWAP9 PUSH2 0x161C PUSH2 0x1664 SWAP15 SWAP10 SWAP14 SWAP9 PUSH2 0x160E PUSH2 0x1639 SWAP10 PUSH2 0x1600 PUSH2 0x1656 SWAP16 SWAP9 SWAP8 PUSH2 0x15EF PUSH2 0x162E SWAP12 PUSH1 0xE0 SWAP11 DUP11 MSTORE PUSH1 0x20 DUP11 ADD SWAP1 PUSH1 0x1 DUP1 PUSH1 0xA0 SHL SUB AND SWAP1 MSTORE JUMP JUMPDEST PUSH2 0x1C0 DUP1 PUSH1 0x40 DUP11 ADD MSTORE DUP9 ADD SWAP1 PUSH2 0x4C9 JUMP JUMPDEST SWAP1 DUP7 DUP3 SUB PUSH1 0x60 DUP9 ADD MSTORE PUSH2 0x4C9 JUMP JUMPDEST SWAP1 DUP5 DUP3 SUB PUSH1 0x80 DUP7 ADD MSTORE PUSH2 0x4C9 JUMP JUMPDEST SWAP13 PUSH1 0xA0 DUP4 ADD MSTORE PUSH1 0xC0 DUP3 ADD MSTORE ADD SWAP1 PUSH2 0x7F4 JUMP JUMPDEST PUSH2 0x100 DUP14 ADD SWAP1 PUSH2 0x80B JUMP JUMPDEST PUSH2 0x120 DUP12 ADD MSTORE PUSH2 0x140 DUP11 ADD MSTORE PUSH1 0x1 PUSH1 0x1 PUSH1 0xA0 SHL SUB AND PUSH2 0x160 DUP10 ADD MSTORE JUMP JUMPDEST DUP7 DUP3 SUB PUSH2 0x180 DUP9 ADD MSTORE PUSH2 0x4C9 JUMP JUMPDEST SWAP4 ADD MSTORE JUMP JUMPDEST CALLVALUE PUSH2 0x3A4 JUMPI PUSH1 0x20 CALLDATASIZE PUSH1 0x3 NOT ADD SLT PUSH2 0x3A4 JUMPI PUSH1 0x4 CALLDATALOAD PUSH1 0x0 MSTORE PUSH1 0x1 PUSH1 0x20 MSTORE PUSH1 0x40 PUSH1 0x0 KECCAK256 DUP1 SLOAD PUSH2 0x61F PUSH2 0x16A2 PUSH1 0x1 DUP5 ADD SLOAD PUSH1 0x1 DUP1 PUSH1 0xA0 SHL SUB AND SWAP1 JUMP JUMPDEST SWAP2 PUSH2 0x16AF PUSH1 0x2 DUP6 ADD PUSH2 0x10FA JUMP JUMPDEST SWAP4 PUSH2 0x16BC PUSH1 0x3 DUP3 ADD PUSH2 0x10FA JUMP JUMPDEST SWAP2 PUSH2 0x16C9 PUSH1 0x4 DUP4 ADD PUSH2 0x10FA JUMP JUMPDEST SWAP1 PUSH1 0x5 DUP4 ADD SLOAD SWAP1 PUSH1 0x6 DUP5 ADD SLOAD SWAP1 PUSH1 0x7 DUP6 ADD SLOAD SWAP1 PUSH1 0x8 DUP7 ADD SLOAD SWAP3 PUSH1 0x9 DUP8 ADD SLOAD SWAP5 PUSH2 0x16FB PUSH1 0xA DUP10 ADD SLOAD PUSH1 0x1 DUP1 PUSH1 0xA0 SHL SUB AND SWAP1 JUMP JUMPDEST SWAP7 PUSH1 0xC PUSH2 0x170A PUSH1 0xB DUP12 ADD PUSH2 0x10FA JUMP JUMPDEST SWAP10 ADD SLOAD SWAP10 PUSH1 0x40 MLOAD SWAP14 DUP15 SWAP14 DUP15 SWAP7 PUSH1 0xFF DUP1 DUP11 PUSH1 0x8 SHR AND SWAP10 AND SWAP8 PUSH2 0x15AD JUMP JUMPDEST CALLVALUE PUSH2 0x3A4 JUMPI PUSH1 0x0 CALLDATASIZE PUSH1 0x3 NOT ADD SLT PUSH2 0x3A4 JUMPI PUSH1 0x20 PUSH1 0xA SLOAD PUSH1 0x40 MLOAD SWAP1 DUP2 MSTORE RETURN JUMPDEST CALLVALUE PUSH2 0x3A4 JUMPI PUSH1 0x20 CALLDATASIZE PUSH1 0x3 NOT ADD SLT PUSH2 0x3A4 JUMPI PUSH1 0x1 PUSH1 0x1 PUSH1 0xA0 SHL SUB PUSH2 0x1765 PUSH2 0x45B JUMP JUMPDEST AND PUSH1 0x0 MSTORE PUSH1 0x4 PUSH1 0x20 MSTORE PUSH1 0x60 PUSH1 0x40 PUSH1 0x0 KECCAK256 SLOAD PUSH1 0x5 PUSH1 0x20 MSTORE PUSH1 0x40 PUSH1 0x0 KECCAK256 SLOAD PUSH1 0x6 PUSH1 0x20 MSTORE PUSH1 0x40 PUSH1 0x0 KECCAK256 SLOAD SWAP1 PUSH1 0x40 MLOAD SWAP3 DUP4 MSTORE PUSH1 0x20 DUP4 ADD MSTORE PUSH1 0x40 DUP3 ADD MSTORE RETURN JUMPDEST CALLVALUE PUSH2 0x3A4 JUMPI PUSH1 0x20 DUP1 PUSH1 0x3 NOT CALLDATASIZE ADD SLT PUSH2 0x3A4 JUMPI PUSH1 0x1 PUSH1 0x1 PUSH1 0xA0 SHL SUB PUSH2 0x17C1 PUSH2 0x45B JUMP JUMPDEST AND PUSH1 0x0 MSTORE PUSH1 0x3 DUP2 MSTORE PUSH1 0x40 PUSH1 0x0 KECCAK256 SWAP1 PUSH1 0x40 MLOAD SWAP1 DUP2 DUP2 DUP5 SLOAD SWAP2 DUP3 DUP2 MSTORE ADD SWAP4 PUSH1 0x0 MSTORE DUP2 PUSH1 0x0 KECCAK256 SWAP2 PUSH1 0x0 SWAP1 JUMPDEST DUP3 DUP3 LT PUSH2 0x180C JUMPI PUSH2 0x61F DUP6 PUSH2 0x1800 DUP2 DUP10 SUB DUP3 PUSH2 0x10D8 JUMP JUMPDEST PUSH1 0x40 MLOAD SWAP2 DUP3 SWAP2 DUP3 PUSH2 0x6A6 JUMP JUMPDEST DUP4 SLOAD DUP7 MSTORE SWAP5 DUP6 ADD SWAP5 PUSH1 0x1 SWAP4 DUP5 ADD SWAP4 SWAP1 SWAP2 ADD SWAP1 PUSH2 0x17E9 JUMP JUMPDEST CALLVALUE PUSH2 0x3A4 JUMPI PUSH2 0x1831 CALLDATASIZE PUSH2 0xECA JUMP JUMPDEST SWAP2 PUSH32 0x6FBD90F6B051DD2B74925FE39AEF5391515A82AC6783676B36A54AA5221C6A4F PUSH2 0x39E PUSH1 0x0 SWAP5 DUP4 DUP7 MSTORE PUSH1 0x1 PUSH1 0x20 MSTORE PUSH2 0x1870 PUSH1 0x40 DUP8 KECCAK256 SLOAD ISZERO ISZERO PUSH2 0x1F1E JUMP JUMPDEST DUP4 DUP7 MSTORE PUSH1 0x1 PUSH1 0x20 MSTORE PUSH2 0xFC7 PUSH1 0x40 DUP8 KECCAK256 PUSH2 0x1896 PUSH1 0x1 DUP1 PUSH1 0xA0 SHL SUB PUSH1 0xA DUP4 ADD SLOAD AND CALLER EQ PUSH2 0x21F7 JUMP JUMPDEST PUSH1 0x7 DUP2 ADD SWAP1 PUSH2 0x18B7 PUSH1 0x2 PUSH1 0xFF DUP5 SLOAD PUSH1 0x8 SHR AND PUSH2 0x18B1 DUP2 PUSH2 0x801 JUMP JUMPDEST EQ PUSH2 0x2232 JUMP JUMPDEST PUSH2 0x18C5 DUP5 DUP10 PUSH1 0xB DUP5 ADD PUSH2 0x2270 JUMP JUMPDEST PUSH1 0xC TIMESTAMP SWAP2 ADD SSTORE PUSH2 0x300 PUSH2 0xFF00 NOT DUP3 SLOAD AND OR SWAP1 SSTORE JUMP JUMPDEST CALLVALUE PUSH2 0x3A4 JUMPI PUSH1 0x0 CALLDATASIZE PUSH1 0x3 NOT ADD SLT PUSH2 0x3A4 JUMPI PUSH1 0x20 PUSH1 0xD SLOAD PUSH1 0x40 MLOAD SWAP1 DUP2 MSTORE RETURN JUMPDEST CALLVALUE PUSH2 0x3A4 JUMPI PUSH1 0x0 CALLDATASIZE PUSH1 0x3 NOT ADD SLT PUSH2 0x3A4 JUMPI PUSH1 0x20 PUSH1 0x0 SLOAD PUSH1 0x40 MLOAD SWAP1 DUP2 MSTORE RETURN JUMPDEST ISZERO PUSH2 0x191D JUMPI JUMP JUMPDEST PUSH1 0x40 MLOAD PUSH3 0x461BCD PUSH1 0xE5 SHL DUP2 MSTORE PUSH1 0x20 PUSH1 0x4 DUP3 ADD MSTORE PUSH1 0xE PUSH1 0x24 DUP3 ADD MSTORE PUSH14 0x52657761726420746F6F206C6F77 PUSH1 0x90 SHL PUSH1 0x44 DUP3 ADD MSTORE PUSH1 0x64 SWAP1 REVERT JUMPDEST ISZERO PUSH2 0x195A JUMPI JUMP JUMPDEST PUSH1 0x40 MLOAD PUSH3 0x461BCD PUSH1 0xE5 SHL DUP2 MSTORE PUSH1 0x20 PUSH1 0x4 DUP3 ADD MSTORE PUSH1 0x14 PUSH1 0x24 DUP3 ADD MSTORE PUSH20 0x125B9CDD59999A58DA595B9D081C185E5B595B9D PUSH1 0x62 SHL PUSH1 0x44 DUP3 ADD MSTORE PUSH1 0x64 SWAP1 REVERT JUMPDEST PUSH4 0x4E487B71 PUSH1 0xE0 SHL PUSH1 0x0 MSTORE PUSH1 0x11 PUSH1 0x4 MSTORE PUSH1 0x24 PUSH1 0x0 REVERT JUMPDEST PUSH1 0x0 NOT DUP2 EQ PUSH2 0x7CF JUMPI PUSH1 0x1 ADD SWAP1 JUMP JUMPDEST SWAP1 PUSH1 0xA DUP3 ADD DUP1 SWAP3 GT PUSH2 0x7CF JUMPI JUMP JUMPDEST SWAP2 SWAP1 DUP3 ADD DUP1 SWAP3 GT PUSH2 0x7CF JUMPI JUMP JUMPDEST PUSH1 0x40 MLOAD SWAP1 PUSH2 0x1138 DUP3 PUSH2 0x109A JUMP JUMPDEST PUSH1 0x40 MLOAD SWAP1 PUSH2 0x1138 DUP3 PUSH2 0x10BB JUMP JUMPDEST PUSH8 0xFFFFFFFFFFFFFFFF DUP2 GT PUSH2 0x10B6 JUMPI PUSH1 0x1F ADD PUSH1 0x1F NOT AND PUSH1 0x20 ADD SWAP1 JUMP JUMPDEST SWAP3 SWAP2 SWAP3 PUSH2 0x1A18 DUP3 PUSH2 0x19F0 JUMP JUMPDEST SWAP2 PUSH2 0x1A26 PUSH1 0x40 MLOAD SWAP4 DUP5 PUSH2 0x10D8 JUMP JUMPDEST DUP3 SWAP5 DUP2 DUP5 MSTORE DUP2 DUP4 ADD GT PUSH2 0x3A4 JUMPI DUP3 DUP2 PUSH1 0x20 SWAP4 DUP5 PUSH1 0x0 SWAP7 ADD CALLDATACOPY ADD ADD MSTORE JUMP JUMPDEST PUSH1 0x4 DUP3 LT ISZERO PUSH2 0x456 JUMPI MSTORE JUMP JUMPDEST PUSH1 0x7 DUP3 LT ISZERO PUSH2 0x456 JUMPI MSTORE JUMP JUMPDEST PUSH1 0x40 MLOAD SWAP1 PUSH1 0x20 DUP3 ADD DUP3 DUP2 LT PUSH8 0xFFFFFFFFFFFFFFFF DUP3 GT OR PUSH2 0x10B6 JUMPI PUSH1 0x40 MSTORE PUSH1 0x0 DUP3 MSTORE JUMP JUMPDEST SWAP1 PUSH1 0x1F DUP2 GT PUSH2 0x1A8D JUMPI POP POP POP JUMP JUMPDEST PUSH1 0x0 SWAP2 DUP3 MSTORE PUSH1 0x20 DUP3 KECCAK256 SWAP1 PUSH1 0x20 PUSH1 0x1F DUP6 ADD PUSH1 0x5 SHR DUP4 ADD SWAP5 LT PUSH2 0x1AC9 JUMPI JUMPDEST PUSH1 0x1F ADD PUSH1 0x5 SHR ADD SWAP2 JUMPDEST DUP3 DUP2 LT PUSH2 0x1ABE JUMPI POP POP POP JUMP JUMPDEST DUP2 DUP2 SSTORE PUSH1 0x1 ADD PUSH2 0x1AB2 JUMP JUMPDEST SWAP1 SWAP3 POP DUP3 SWAP1 PUSH2 0x1AA9 JUMP JUMPDEST SWAP2 SWAP1 SWAP2 DUP3 MLOAD PUSH8 0xFFFFFFFFFFFFFFFF DUP2 GT PUSH2 0x10B6 JUMPI PUSH2 0x1AFB DUP2 PUSH2 0x1AF5 DUP5 SLOAD PUSH2 0x104A JUMP JUMPDEST DUP5 PUSH2 0x1A7F JUMP JUMPDEST PUSH1 0x20 DUP1 PUSH1 0x1F DUP4 GT PUSH1 0x1 EQ PUSH2 0x1B37 JUMPI POP DUP2 SWAP3 SWAP4 SWAP5 PUSH1 0x0 SWAP3 PUSH2 0x1B2C JUMPI JUMPDEST POP POP DUP2 PUSH1 0x1 SHL SWAP2 PUSH1 0x0 NOT SWAP1 PUSH1 0x3 SHL SHR NOT AND OR SWAP1 SSTORE JUMP JUMPDEST ADD MLOAD SWAP1 POP CODESIZE DUP1 PUSH2 0x1B16 JUMP JUMPDEST SWAP1 PUSH1 0x1F NOT DUP4 AND SWAP6 PUSH2 0x1B4D DUP6 PUSH1 0x0 MSTORE PUSH1 0x20 PUSH1 0x0 KECCAK256 SWAP1 JUMP JUMPDEST SWAP3 PUSH1 0x0 SWAP1 JUMPDEST DUP9 DUP3 LT PUSH2 0x1B8A JUMPI POP POP DUP4 PUSH1 0x1 SWAP6 SWAP7 SWAP8 LT PUSH2 0x1B71 JUMPI JUMPDEST POP POP POP DUP2 SHL ADD SWAP1 SSTORE JUMP JUMPDEST ADD MLOAD PUSH1 0x0 NOT PUSH1 0xF8 DUP5 PUSH1 0x3 SHL AND SHR NOT AND SWAP1 SSTORE CODESIZE DUP1 DUP1 PUSH2 0x1B67 JUMP JUMPDEST DUP1 PUSH1 0x1 DUP6 SWAP7 DUP3 SWAP5 SWAP7 DUP7 ADD MLOAD DUP2 SSTORE ADD SWAP6 ADD SWAP4 ADD SWAP1 PUSH2 0x1B52 JUMP JUMPDEST SWAP1 PUSH1 0x4 DUP2 LT ISZERO PUSH2 0x456 JUMPI PUSH1 0xFF DUP1 NOT DUP4 SLOAD AND SWAP2 AND OR SWAP1 SSTORE JUMP JUMPDEST SWAP1 PUSH1 0x7 DUP2 LT ISZERO PUSH2 0x456 JUMPI PUSH2 0xFF00 DUP3 SLOAD SWAP2 PUSH1 0x8 SHL AND SWAP1 PUSH2 0xFF00 NOT AND OR SWAP1 SSTORE JUMP JUMPDEST DUP2 MLOAD DUP2 SSTORE PUSH1 0x20 DUP3 ADD MLOAD PUSH1 0x1 DUP3 ADD DUP1 SLOAD PUSH1 0x1 PUSH1 0x1 PUSH1 0xA0 SHL SUB NOT AND PUSH1 0x1 PUSH1 0x1 PUSH1 0xA0 SHL SUB SWAP1 SWAP3 AND SWAP2 SWAP1 SWAP2 OR SWAP1 SSTORE SWAP1 PUSH1 0xC SWAP1 PUSH2 0x1A0 SWAP1 PUSH2 0x1C1C PUSH1 0x40 DUP3 ADD MLOAD PUSH1 0x2 DUP7 ADD PUSH2 0x1AD3 JUMP JUMPDEST PUSH2 0x1C2D PUSH1 0x60 DUP3 ADD MLOAD PUSH1 0x3 DUP7 ADD PUSH2 0x1AD3 JUMP JUMPDEST PUSH2 0x1C3E PUSH1 0x80 DUP3 ADD MLOAD PUSH1 0x4 DUP7 ADD PUSH2 0x1AD3 JUMP JUMPDEST PUSH1 0xA0 DUP2 ADD MLOAD PUSH1 0x5 DUP6 ADD SSTORE PUSH1 0xC0 DUP2 ADD MLOAD PUSH1 0x6 DUP6 ADD SSTORE PUSH2 0x1C85 PUSH1 0x7 DUP6 ADD PUSH2 0x1C70 PUSH1 0xE0 DUP5 ADD MLOAD PUSH2 0x1C6A DUP2 PUSH2 0x7EA JUMP JUMPDEST DUP3 PUSH2 0x1BA2 JUMP JUMPDEST PUSH2 0x100 DUP4 ADD MLOAD SWAP1 PUSH2 0x1C80 DUP3 PUSH2 0x801 JUMP JUMPDEST PUSH2 0x1BBA JUMP JUMPDEST PUSH2 0x120 DUP2 ADD MLOAD PUSH1 0x8 DUP6 ADD SSTORE PUSH2 0x140 DUP2 ADD MLOAD PUSH1 0x9 DUP6 ADD SSTORE PUSH2 0x160 DUP2 ADD MLOAD PUSH1 0xA DUP6 ADD DUP1 SLOAD PUSH1 0x1 PUSH1 0x1 PUSH1 0xA0 SHL SUB NOT AND PUSH1 0x1 PUSH1 0x1 PUSH1 0xA0 SHL SUB SWAP1 SWAP3 AND SWAP2 SWAP1 SWAP2 OR SWAP1 SSTORE PUSH2 0x1CD4 PUSH2 0x180 DUP3 ADD MLOAD PUSH1 0xB DUP7 ADD PUSH2 0x1AD3 JUMP JUMPDEST ADD MLOAD SWAP2 ADD SSTORE JUMP JUMPDEST DUP1 SLOAD PUSH1 0x1 PUSH1 0x40 SHL DUP2 LT ISZERO PUSH2 0x10B6 JUMPI PUSH2 0x1CF8 SWAP2 PUSH1 0x1 DUP3 ADD DUP2 SSTORE PUSH2 0x12D7 JUMP JUMPDEST DUP2 SWAP3 SWAP2 SLOAD SWAP1 PUSH1 0x3 SHL SWAP2 DUP3 SHL SWAP2 PUSH1 0x0 NOT SWAP1 SHL NOT AND OR SWAP1 SSTORE JUMP JUMPDEST SWAP1 DUP1 PUSH1 0x20 SWAP4 SWAP3 DUP2 DUP5 MSTORE DUP5 DUP5 ADD CALLDATACOPY PUSH1 0x0 DUP3 DUP3 ADD DUP5 ADD MSTORE PUSH1 0x1F ADD PUSH1 0x1F NOT AND ADD ADD SWAP1 JUMP JUMPDEST SWAP2 SWAP4 PUSH2 0x1D4E PUSH2 0x1D5E SWAP3 PUSH1 0x60 SWAP6 SWAP9 SWAP8 SWAP7 PUSH1 0x80 DUP7 MSTORE PUSH1 0x80 DUP7 ADD SWAP2 PUSH2 0x1D10 JUMP JUMPDEST SWAP7 PUSH1 0x20 DUP5 ADD MSTORE PUSH1 0x40 DUP4 ADD SWAP1 PUSH2 0x7F4 JUMP JUMPDEST ADD MSTORE JUMP JUMPDEST SWAP2 SWAP1 SWAP6 SWAP3 SWAP7 SWAP4 SWAP7 PUSH2 0x1D77 PUSH1 0x9 SLOAD DUP6 LT ISZERO PUSH2 0x1916 JUMP JUMPDEST PUSH2 0x1D83 DUP5 CALLVALUE LT ISZERO PUSH2 0x1953 JUMP JUMPDEST PUSH2 0x1D8C DUP6 PUSH2 0x7EA JUMP JUMPDEST DUP5 PUSH2 0x1EE0 JUMPI PUSH3 0x3F480 SWAP2 JUMPDEST PUSH1 0x0 SLOAD SWAP9 DUP10 SWAP8 PUSH2 0x1DA6 DUP10 PUSH2 0x19AC JUMP JUMPDEST PUSH1 0x0 SSTORE PUSH2 0x1DB3 DUP6 TIMESTAMP PUSH2 0x19C9 JUMP JUMPDEST SWAP3 PUSH2 0x1DBC PUSH2 0x19E3 JUMP JUMPDEST DUP11 DUP2 MSTORE CALLER PUSH1 0x20 DUP3 ADD MSTORE SWAP5 PUSH2 0x1DD1 CALLDATASIZE DUP14 DUP11 PUSH2 0x1A0C JUMP JUMPDEST PUSH1 0x40 DUP8 ADD MSTORE CALLDATASIZE SWAP1 PUSH2 0x1DE1 SWAP3 PUSH2 0x1A0C JUMP JUMPDEST PUSH1 0x60 DUP6 ADD MSTORE CALLDATASIZE SWAP1 PUSH2 0x1DF1 SWAP3 PUSH2 0x1A0C JUMP JUMPDEST PUSH1 0x80 DUP4 ADD MSTORE PUSH1 0xA0 DUP3 ADD DUP6 SWAP1 MSTORE CALLVALUE PUSH1 0xC0 DUP4 ADD MSTORE PUSH2 0x1E10 DUP7 PUSH1 0xE0 DUP5 ADD PUSH2 0x1A43 JUMP JUMPDEST PUSH2 0x100 DUP3 ADD PUSH1 0x0 SWAP1 MSTORE TIMESTAMP PUSH2 0x120 DUP4 ADD MSTORE PUSH2 0x140 DUP3 ADD MSTORE PUSH2 0x160 DUP2 ADD PUSH1 0x0 SWAP1 MSTORE PUSH2 0x1E37 PUSH2 0x1A5B JUMP JUMPDEST PUSH2 0x180 DUP3 ADD MSTORE PUSH2 0x1A0 DUP2 ADD PUSH1 0x0 SWAP1 MSTORE PUSH2 0x1E5A DUP7 PUSH1 0x0 MSTORE PUSH1 0x1 PUSH1 0x20 MSTORE PUSH1 0x40 PUSH1 0x0 KECCAK256 SWAP1 JUMP JUMPDEST SWAP1 PUSH2 0x1E64 SWAP2 PUSH2 0x1BD9 JUMP JUMPDEST CALLER PUSH1 0x0 SWAP1 DUP2 MSTORE PUSH1 0x3 PUSH1 0x20 MSTORE PUSH1 0x40 SWAP1 KECCAK256 DUP6 PUSH2 0x1E7D SWAP2 PUSH2 0x1CDB JUMP JUMPDEST PUSH1 0xB SLOAD PUSH2 0x1E89 SWAP1 PUSH2 0x19AC JUMP JUMPDEST PUSH1 0xB SSTORE CALLVALUE PUSH1 0xD SLOAD SWAP1 PUSH2 0x1E9A SWAP2 PUSH2 0x19C9 JUMP JUMPDEST PUSH1 0xD SSTORE PUSH2 0x1EA7 SWAP1 TIMESTAMP PUSH2 0x19C9 JUMP JUMPDEST PUSH1 0x40 MLOAD SWAP4 DUP5 SWAP4 CALLER SWAP8 PUSH2 0x1EB9 SWAP5 DUP7 PUSH2 0x1D31 JUMP JUMPDEST SUB PUSH32 0x3E3DAD351780E0C5D9667147CA353C4414B45BFF35C16EAB9CF5BF45F60D71AC SWAP2 LOG3 SWAP1 JUMP JUMPDEST PUSH2 0x1EE9 DUP6 PUSH2 0x7EA JUMP JUMPDEST PUSH1 0x1 DUP6 SUB PUSH2 0x1EFB JUMPI PUSH3 0x15180 SWAP2 PUSH2 0x1D97 JUMP JUMPDEST PUSH2 0x1F04 DUP6 PUSH2 0x7EA JUMP JUMPDEST PUSH1 0x2 DUP6 SUB PUSH2 0x1F15 JUMPI PUSH2 0x3840 SWAP2 PUSH2 0x1D97 JUMP JUMPDEST PUSH2 0xE10 SWAP2 PUSH2 0x1D97 JUMP JUMPDEST ISZERO PUSH2 0x1F25 JUMPI JUMP JUMPDEST PUSH1 0x40 MLOAD PUSH3 0x461BCD PUSH1 0xE5 SHL DUP2 MSTORE PUSH1 0x20 PUSH1 0x4 DUP3 ADD MSTORE PUSH1 0xE PUSH1 0x24 DUP3 ADD MSTORE PUSH14 0x15185CDAC81B9BDD08199BDD5B99 PUSH1 0x92 SHL PUSH1 0x44 DUP3 ADD MSTORE PUSH1 0x64 SWAP1 REVERT JUMPDEST ISZERO PUSH2 0x1F62 JUMPI JUMP JUMPDEST PUSH1 0x40 MLOAD PUSH3 0x461BCD PUSH1 0xE5 SHL DUP2 MSTORE PUSH1 0x20 PUSH1 0x4 DUP3 ADD MSTORE PUSH1 0x8 PUSH1 0x24 DUP3 ADD MSTORE PUSH8 0x2737BA1037B832B7 PUSH1 0xC1 SHL PUSH1 0x44 DUP3 ADD MSTORE PUSH1 0x64 SWAP1 REVERT JUMPDEST ISZERO PUSH2 0x1F99 JUMPI JUMP JUMPDEST PUSH1 0x40 MLOAD PUSH3 0x461BCD PUSH1 0xE5 SHL DUP2 MSTORE PUSH1 0x20 PUSH1 0x4 DUP3 ADD MSTORE PUSH1 0xF PUSH1 0x24 DUP3 ADD MSTORE PUSH15 0x111958591B1A5B99481C185CDCD959 PUSH1 0x8A SHL PUSH1 0x44 DUP3 ADD MSTORE PUSH1 0x64 SWAP1 REVERT JUMPDEST ISZERO PUSH2 0x1FD7 JUMPI JUMP JUMPDEST PUSH1 0x40 MLOAD PUSH3 0x461BCD PUSH1 0xE5 SHL DUP2 MSTORE PUSH1 0x20 PUSH1 0x4 DUP3 ADD MSTORE PUSH1 0x12 PUSH1 0x24 DUP3 ADD MSTORE PUSH18 0x109A5908195E18D959591CC81C995DD85C99 PUSH1 0x72 SHL PUSH1 0x44 DUP3 ADD MSTORE PUSH1 0x64 SWAP1 REVERT JUMPDEST ISZERO PUSH2 0x2018 JUMPI JUMP JUMPDEST PUSH1 0x40 MLOAD PUSH3 0x461BCD PUSH1 0xE5 SHL DUP2 MSTORE PUSH1 0x20 PUSH1 0x4 DUP3 ADD MSTORE PUSH1 0x16 PUSH1 0x24 DUP3 ADD MSTORE PUSH22 0x43616E6E6F7420626964206F6E206F776E207461736B PUSH1 0x50 SHL PUSH1 0x44 DUP3 ADD MSTORE PUSH1 0x64 SWAP1 REVERT JUMPDEST ISZERO PUSH2 0x205D JUMPI JUMP JUMPDEST PUSH1 0x40 MLOAD PUSH3 0x461BCD PUSH1 0xE5 SHL DUP2 MSTORE PUSH1 0x20 PUSH1 0x4 DUP3 ADD MSTORE PUSH1 0xB PUSH1 0x24 DUP3 ADD MSTORE PUSH11 0x105B1C9958591E48189A59 PUSH1 0xAA SHL PUSH1 0x44 DUP3 ADD MSTORE PUSH1 0x64 SWAP1 REVERT JUMPDEST DUP1 SLOAD PUSH1 0x1 PUSH1 0x40 SHL DUP2 LT ISZERO PUSH2 0x10B6 JUMPI PUSH2 0x20AD SWAP2 PUSH1 0x1 DUP3 ADD DUP2 SSTORE PUSH2 0x1029 JUMP JUMPDEST PUSH2 0x212F JUMPI DUP2 MLOAD DUP2 SLOAD PUSH1 0x1 PUSH1 0x1 PUSH1 0xA0 SHL SUB NOT AND PUSH1 0x1 PUSH1 0x1 PUSH1 0xA0 SHL SUB SWAP2 SWAP1 SWAP2 AND OR DUP2 SSTORE PUSH2 0x1138 SWAP2 PUSH1 0x6 SWAP1 PUSH2 0x211C SWAP1 PUSH1 0xC0 SWAP1 PUSH1 0x20 DUP2 ADD MLOAD PUSH1 0x1 DUP7 ADD SSTORE PUSH1 0x40 DUP2 ADD MLOAD PUSH1 0x2 DUP7 ADD SSTORE PUSH2 0x2101 PUSH1 0x60 DUP3 ADD MLOAD PUSH1 0x3 DUP8 ADD PUSH2 0x1AD3 JUMP JUMPDEST PUSH1 0x80 DUP2 ADD MLOAD PUSH1 0x4 DUP7 ADD SSTORE PUSH1 0xA0 DUP2 ADD MLOAD PUSH1 0x5 DUP7 ADD SSTORE ADD MLOAD ISZERO ISZERO SWAP1 JUMP JUMPDEST SWAP2 ADD SWAP1 PUSH1 0xFF DUP1 NOT DUP4 SLOAD AND SWAP2 ISZERO ISZERO AND OR SWAP1 SSTORE JUMP JUMPDEST PUSH4 0x4E487B71 PUSH1 0xE0 SHL PUSH1 0x0 MSTORE PUSH1 0x0 PUSH1 0x4 MSTORE PUSH1 0x24 PUSH1 0x0 REVERT JUMPDEST ISZERO PUSH2 0x214C JUMPI JUMP JUMPDEST PUSH1 0x40 MLOAD PUSH3 0x461BCD PUSH1 0xE5 SHL DUP2 MSTORE PUSH1 0x20 PUSH1 0x4 DUP3 ADD MSTORE PUSH1 0xA PUSH1 0x24 DUP3 ADD MSTORE PUSH10 0x2737BA103837B9BA32B9 PUSH1 0xB1 SHL PUSH1 0x44 DUP3 ADD MSTORE PUSH1 0x64 SWAP1 REVERT JUMPDEST ISZERO PUSH2 0x2185 JUMPI JUMP JUMPDEST PUSH1 0x40 MLOAD PUSH3 0x461BCD PUSH1 0xE5 SHL DUP2 MSTORE PUSH1 0x20 PUSH1 0x4 DUP3 ADD MSTORE PUSH1 0xB PUSH1 0x24 DUP3 ADD MSTORE PUSH11 0x125B9D985B1A5908189A59 PUSH1 0xAA SHL PUSH1 0x44 DUP3 ADD MSTORE PUSH1 0x64 SWAP1 REVERT JUMPDEST ISZERO PUSH2 0x21BF JUMPI JUMP JUMPDEST PUSH1 0x40 MLOAD PUSH3 0x461BCD PUSH1 0xE5 SHL DUP2 MSTORE PUSH1 0x20 PUSH1 0x4 DUP3 ADD MSTORE PUSH1 0x10 PUSH1 0x24 DUP3 ADD MSTORE PUSH16 0x105B1C9958591E481858D8D95C1D1959 PUSH1 0x82 SHL PUSH1 0x44 DUP3 ADD MSTORE PUSH1 0x64 SWAP1 REVERT JUMPDEST ISZERO PUSH2 0x21FE JUMPI JUMP JUMPDEST PUSH1 0x40 MLOAD PUSH3 0x461BCD PUSH1 0xE5 SHL DUP2 MSTORE PUSH1 0x20 PUSH1 0x4 DUP3 ADD MSTORE PUSH1 0xC PUSH1 0x24 DUP3 ADD MSTORE PUSH12 0x139BDD08185CDCDA59DB9959 PUSH1 0xA2 SHL PUSH1 0x44 DUP3 ADD MSTORE PUSH1 0x64 SWAP1 REVERT JUMPDEST ISZERO PUSH2 0x2239 JUMPI JUMP JUMPDEST PUSH1 0x40 MLOAD PUSH3 0x461BCD PUSH1 0xE5 SHL DUP2 MSTORE PUSH1 0x20 PUSH1 0x4 DUP3 ADD MSTORE PUSH1 0xF PUSH1 0x24 DUP3 ADD MSTORE PUSH15 0x4E6F7420696E2070726F6772657373 PUSH1 0x88 SHL PUSH1 0x44 DUP3 ADD MSTORE PUSH1 0x64 SWAP1 REVERT JUMPDEST SWAP1 SWAP3 SWAP2 PUSH8 0xFFFFFFFFFFFFFFFF DUP2 GT PUSH2 0x10B6 JUMPI PUSH2 0x2290 DUP2 PUSH2 0x1AF5 DUP5 SLOAD PUSH2 0x104A JUMP JUMPDEST PUSH1 0x0 PUSH1 0x1F DUP3 GT PUSH1 0x1 EQ PUSH2 0x22C9 JUMPI DUP2 SWAP3 SWAP4 SWAP5 PUSH1 0x0 SWAP3 PUSH2 0x22BE JUMPI POP POP DUP2 PUSH1 0x1 SHL SWAP2 PUSH1 0x0 NOT SWAP1 PUSH1 0x3 SHL SHR NOT AND OR SWAP1 SSTORE JUMP JUMPDEST ADD CALLDATALOAD SWAP1 POP CODESIZE DUP1 PUSH2 0x1B16 JUMP JUMPDEST PUSH1 0x1F NOT DUP3 AND SWAP5 PUSH2 0x22DE DUP5 PUSH1 0x0 MSTORE PUSH1 0x20 PUSH1 0x0 KECCAK256 SWAP1 JUMP JUMPDEST SWAP2 DUP1 JUMPDEST DUP8 DUP2 LT PUSH2 0x2318 JUMPI POP DUP4 PUSH1 0x1 SWAP6 SWAP7 SWAP8 LT PUSH2 0x22FE JUMPI POP POP POP DUP2 SHL ADD SWAP1 SSTORE JUMP JUMPDEST ADD CALLDATALOAD PUSH1 0x0 NOT PUSH1 0x3 DUP5 SWAP1 SHL PUSH1 0xF8 AND SHR NOT AND SWAP1 SSTORE CODESIZE DUP1 DUP1 PUSH2 0x1B67 JUMP JUMPDEST SWAP1 SWAP3 PUSH1 0x20 PUSH1 0x1 DUP2 SWAP3 DUP7 DUP7 ADD CALLDATALOAD DUP2 SSTORE ADD SWAP5 ADD SWAP2 ADD PUSH2 0x22E1 JUMP JUMPDEST SWAP2 PUSH1 0x20 PUSH2 0x2341 SWAP4 DUP2 DUP2 MSTORE ADD SWAP2 PUSH2 0x1D10 JUMP JUMPDEST SWAP1 JUMP JUMPDEST ISZERO PUSH2 0x234B JUMPI JUMP JUMPDEST PUSH1 0x40 MLOAD PUSH3 0x461BCD PUSH1 0xE5 SHL DUP2 MSTORE PUSH1 0x20 PUSH1 0x4 DUP3 ADD MSTORE PUSH1 0xD PUSH1 0x24 DUP3 ADD MSTORE PUSH13 0x139BDD0818DBDB5C1B195D1959 PUSH1 0x9A SHL PUSH1 0x44 DUP3 ADD MSTORE PUSH1 0x64 SWAP1 REVERT JUMPDEST DUP2 DUP2 MUL SWAP3 SWAP2 DUP2 ISZERO SWAP2 DUP5 DIV EQ OR ISZERO PUSH2 0x7CF JUMPI JUMP JUMPDEST SWAP2 SWAP1 DUP3 SUB SWAP2 DUP3 GT PUSH2 0x7CF JUMPI JUMP JUMPDEST RETURNDATASIZE ISZERO PUSH2 0x23CB JUMPI RETURNDATASIZE SWAP1 PUSH2 0x23B1 DUP3 PUSH2 0x19F0 JUMP JUMPDEST SWAP2 PUSH2 0x23BF PUSH1 0x40 MLOAD SWAP4 DUP5 PUSH2 0x10D8 JUMP JUMPDEST DUP3 MSTORE RETURNDATASIZE PUSH1 0x0 PUSH1 0x20 DUP5 ADD RETURNDATACOPY JUMP JUMPDEST PUSH1 0x60 SWAP1 JUMP JUMPDEST ISZERO PUSH2 0x23D7 JUMPI JUMP JUMPDEST PUSH1 0x40 MLOAD PUSH3 0x461BCD PUSH1 0xE5 SHL DUP2 MSTORE PUSH1 0x20 PUSH1 0x4 DUP3 ADD MSTORE PUSH1 0xE PUSH1 0x24 DUP3 ADD MSTORE PUSH14 0x14185E5B595B9D0819985A5B1959 PUSH1 0x92 SHL PUSH1 0x44 DUP3 ADD MSTORE PUSH1 0x64 SWAP1 REVERT JUMPDEST ISZERO PUSH2 0x2414 JUMPI JUMP JUMPDEST PUSH1 0x40 MLOAD PUSH3 0x461BCD PUSH1 0xE5 SHL DUP2 MSTORE PUSH1 0x20 PUSH1 0x4 DUP3 ADD MSTORE PUSH1 0x13 PUSH1 0x24 DUP3 ADD MSTORE PUSH19 0x119959481D1C985B9CD9995C8819985A5B1959 PUSH1 0x6A SHL PUSH1 0x44 DUP3 ADD MSTORE PUSH1 0x64 SWAP1 REVERT JUMPDEST ISZERO PUSH2 0x2456 JUMPI JUMP JUMPDEST PUSH1 0x40 MLOAD PUSH3 0x461BCD PUSH1 0xE5 SHL DUP2 MSTORE PUSH1 0x20 PUSH1 0x4 DUP3 ADD MSTORE PUSH1 0xD PUSH1 0x24 DUP3 ADD MSTORE PUSH13 0x1499599D5B990819985A5B1959 PUSH1 0x9A SHL PUSH1 0x44 DUP3 ADD MSTORE PUSH1 0x64 SWAP1 REVERT JUMPDEST ISZERO PUSH2 0x2492 JUMPI JUMP JUMPDEST PUSH1 0x40 MLOAD PUSH3 0x461BCD PUSH1 0xE5 SHL DUP2 MSTORE PUSH1 0x20 PUSH1 0x4 DUP3 ADD MSTORE PUSH1 0xC PUSH1 0x24 DUP3 ADD MSTORE PUSH12 0x139BDD081A5B9D9BDB1D9959 PUSH1 0xA2 SHL PUSH1 0x44 DUP3 ADD MSTORE PUSH1 0x64 SWAP1 REVERT JUMPDEST ISZERO PUSH2 0x24CD JUMPI JUMP JUMPDEST PUSH1 0x40 MLOAD PUSH3 0x461BCD PUSH1 0xE5 SHL DUP2 MSTORE PUSH1 0x20 PUSH1 0x4 DUP3 ADD MSTORE PUSH1 0xE PUSH1 0x24 DUP3 ADD MSTORE PUSH14 0x43616E6E6F742064697370757465 PUSH1 0x90 SHL PUSH1 0x44 DUP3 ADD MSTORE PUSH1 0x64 SWAP1 REVERT JUMPDEST SWAP1 PUSH1 0xC PUSH2 0x250E PUSH2 0x19E3 JUMP JUMPDEST DUP4 SLOAD DUP2 MSTORE PUSH1 0x1 DUP5 ADD SLOAD PUSH1 0x1 PUSH1 0x1 PUSH1 0xA0 SHL SUB AND PUSH1 0x20 DUP3 ADD MSTORE SWAP3 PUSH2 0x2532 PUSH1 0x2 DUP3 ADD PUSH2 0x10FA JUMP JUMPDEST PUSH1 0x40 DUP6 ADD MSTORE PUSH2 0x2543 PUSH1 0x3 DUP3 ADD PUSH2 0x10FA JUMP JUMPDEST PUSH1 0x60 DUP6 ADD MSTORE PUSH2 0x2554 PUSH1 0x4 DUP3 ADD PUSH2 0x10FA JUMP JUMPDEST PUSH1 0x80 DUP6 ADD MSTORE PUSH1 0x5 DUP2 ADD SLOAD PUSH1 0xA0 DUP6 ADD MSTORE PUSH1 0x6 DUP2 ADD SLOAD PUSH1 0xC0 DUP6 ADD MSTORE PUSH2 0x2594 PUSH1 0xFF PUSH1 0x7 DUP4 ADD SLOAD PUSH2 0x2586 DUP3 DUP3 AND PUSH1 0xE0 DUP10 ADD PUSH2 0x1A43 JUMP JUMPDEST PUSH1 0x8 SHR AND PUSH2 0x100 DUP7 ADD PUSH2 0x1A4F JUMP JUMPDEST PUSH1 0x8 DUP2 ADD SLOAD PUSH2 0x120 DUP6 ADD MSTORE PUSH1 0x9 DUP2 ADD SLOAD PUSH2 0x140 DUP6 ADD MSTORE PUSH1 0xA DUP2 ADD SLOAD PUSH1 0x1 PUSH1 0x1 PUSH1 0xA0 SHL SUB AND PUSH2 0x160 DUP6 ADD MSTORE PUSH2 0x25CA PUSH1 0xB DUP3 ADD PUSH2 0x10FA JUMP JUMPDEST PUSH2 0x180 DUP6 ADD MSTORE ADD SLOAD PUSH2 0x1A0 DUP4 ADD MSTORE JUMP JUMPDEST PUSH8 0xFFFFFFFFFFFFFFFF DUP2 GT PUSH2 0x10B6 JUMPI PUSH1 0x5 SHL PUSH1 0x20 ADD SWAP1 JUMP JUMPDEST DUP1 MLOAD DUP3 LT ISZERO PUSH2 0x1045 JUMPI PUSH1 0x20 SWAP2 PUSH1 0x5 SHL ADD ADD SWAP1 JUMP INVALID LOG2 PUSH5 0x6970667358 0x22 SLT KECCAK256 PUSH24 0x2570354B02F551EC48793CB2A6284CBF268008DCE0F07DAD CREATE OR RETURNDATACOPY 0xE8 PUSH18 0xE9D664736F6C634300081400330000000000 "},"methodIdentifiers":{"acceptBid(uint256,uint256)":"02e9d5e4","agentCompletedTasks(address)":"70efdfb1","agentReputation(address)":"54de6e32","agentTasks(address,uint256)":"670ad782","agentTotalEarnings(address)":"09529dc1","approveWork(uint256)":"3d01e0fa","bidOnTask(uint256,uint256,uint256,string)":"2b42900a","cancelTask(uint256)":"7eec20a8","cancellationFeeBps()":"95305683","disputeTask(uint256,string)":"4bddd209","feeRecipient()":"46904840","getAgentStats(address)":"b5695b38","getAgentTasks(address)":"d8ea6821","getBidCount(uint256)":"744d3411","getBids(uint256)":"131d9a27","getOpenTasks(uint256,uint256)":"164bcc26","getTask(uint256)":"1d65e77e","minimumReward()":"813f8dc1","nextTaskId()":"fdc3d8d7","postTask(string,string,string,uint256,uint8)":"803a29da","protocolFeeBps()":"35659fb8","startWork(uint256)":"03a250f9","submitWork(uint256,string)":"da8accf9","taskBids(uint256,uint256)":"5492b197","tasks(uint256)":"8d977672","totalFeesCollected()":"60c6d8ae","totalTasksCompleted()":"108ab45e","totalTasksPosted()":"611f364a","totalValueLocked()":"ec18154e"}}}}}