{"contracts/AgentCovenant.sol":{"AgentCovenant":{"abi":[{"inputs":[{"internalType":"address","name":"_initiator","type":"address"},{"internalType":"address","name":"_counterparty","type":"address"},{"internalType":"bytes32","name":"_covenantType","type":"bytes32"},{"internalType":"string","name":"_termsIPFSHash","type":"string"},{"internalType":"uint256","name":"_duration","type":"uint256"},{"internalType":"uint256","name":"_stakeAmount","type":"uint256"},{"internalType":"address","name":"_feeRecipient","type":"address"},{"internalType":"uint256","name":"_protocolFeeBps","type":"uint256"}],"stateMutability":"payable","type":"constructor"},{"anonymous":false,"inputs":[{"indexed":true,"internalType":"address","name":"by","type":"address"}],"name":"CovenantAccepted","type":"event"},{"anonymous":false,"inputs":[],"name":"CovenantActivated","type":"event"},{"anonymous":false,"inputs":[{"indexed":true,"internalType":"address","name":"by","type":"address"},{"indexed":false,"internalType":"string","name":"reason","type":"string"}],"name":"CovenantBreached","type":"event"},{"anonymous":false,"inputs":[],"name":"CovenantFulfilled","type":"event"},{"anonymous":false,"inputs":[{"indexed":true,"internalType":"address","name":"by","type":"address"},{"indexed":false,"internalType":"string","name":"reason","type":"string"}],"name":"DisputeRaised","type":"event"},{"anonymous":false,"inputs":[{"indexed":true,"internalType":"address","name":"resolver","type":"address"},{"indexed":false,"internalType":"uint256","name":"initiatorAward","type":"uint256"},{"indexed":false,"internalType":"uint256","name":"counterpartyAward","type":"uint256"}],"name":"DisputeResolved","type":"event"},{"anonymous":false,"inputs":[{"indexed":true,"internalType":"address","name":"by","type":"address"},{"indexed":false,"internalType":"uint256","name":"amount","type":"uint256"}],"name":"FundsWithdrawn","type":"event"},{"anonymous":false,"inputs":[{"indexed":true,"internalType":"uint256","name":"index","type":"uint256"},{"indexed":false,"internalType":"string","name":"description","type":"string"},{"indexed":false,"internalType":"uint256","name":"payment","type":"uint256"}],"name":"MilestoneAdded","type":"event"},{"anonymous":false,"inputs":[{"indexed":true,"internalType":"uint256","name":"index","type":"uint256"},{"indexed":true,"internalType":"address","name":"by","type":"address"}],"name":"MilestoneCompleted","type":"event"},{"anonymous":false,"inputs":[{"indexed":true,"internalType":"uint256","name":"index","type":"uint256"},{"indexed":false,"internalType":"uint256","name":"amount","type":"uint256"}],"name":"MilestonePaid","type":"event"},{"inputs":[],"name":"acceptCovenant","outputs":[],"stateMutability":"nonpayable","type":"function"},{"inputs":[{"internalType":"string","name":"_description","type":"string"},{"internalType":"uint256","name":"_paymentAmount","type":"uint256"}],"name":"addMilestone","outputs":[],"stateMutability":"nonpayable","type":"function"},{"inputs":[{"internalType":"address","name":"","type":"address"}],"name":"agentCommitments","outputs":[{"internalType":"bytes32","name":"","type":"bytes32"}],"stateMutability":"view","type":"function"},{"inputs":[{"internalType":"uint256","name":"_milestoneIndex","type":"uint256"}],"name":"completeMilestone","outputs":[],"stateMutability":"nonpayable","type":"function"},{"inputs":[],"name":"counterparty","outputs":[{"internalType":"address","name":"","type":"address"}],"stateMutability":"view","type":"function"},{"inputs":[{"internalType":"string","name":"_reason","type":"string"}],"name":"declareBreach","outputs":[],"stateMutability":"nonpayable","type":"function"},{"inputs":[],"name":"disputeReason","outputs":[{"internalType":"string","name":"","type":"string"}],"stateMutability":"view","type":"function"},{"inputs":[],"name":"disputeResolver","outputs":[{"internalType":"address","name":"","type":"address"}],"stateMutability":"view","type":"function"},{"inputs":[],"name":"disputedAt","outputs":[{"internalType":"uint256","name":"","type":"uint256"}],"stateMutability":"view","type":"function"},{"inputs":[],"name":"feeRecipient","outputs":[{"internalType":"address","name":"","type":"address"}],"stateMutability":"view","type":"function"},{"inputs":[{"internalType":"uint256","name":"_index","type":"uint256"}],"name":"getMilestone","outputs":[{"components":[{"internalType":"string","name":"description","type":"string"},{"internalType":"uint256","name":"paymentAmount","type":"uint256"},{"internalType":"bool","name":"completed","type":"bool"},{"internalType":"bool","name":"paid","type":"bool"},{"internalType":"uint256","name":"completedAt","type":"uint256"}],"internalType":"struct AgentCovenant.Milestone","name":"","type":"tuple"}],"stateMutability":"view","type":"function"},{"inputs":[],"name":"getMilestoneCount","outputs":[{"internalType":"uint256","name":"","type":"uint256"}],"stateMutability":"view","type":"function"},{"inputs":[{"internalType":"address","name":"","type":"address"}],"name":"hasAccepted","outputs":[{"internalType":"bool","name":"","type":"bool"}],"stateMutability":"view","type":"function"},{"inputs":[],"name":"initiator","outputs":[{"internalType":"address","name":"","type":"address"}],"stateMutability":"view","type":"function"},{"inputs":[],"name":"isActive","outputs":[{"internalType":"bool","name":"","type":"bool"}],"stateMutability":"view","type":"function"},{"inputs":[{"internalType":"uint256","name":"","type":"uint256"}],"name":"milestones","outputs":[{"internalType":"string","name":"description","type":"string"},{"internalType":"uint256","name":"paymentAmount","type":"uint256"},{"internalType":"bool","name":"completed","type":"bool"},{"internalType":"bool","name":"paid","type":"bool"},{"internalType":"uint256","name":"completedAt","type":"uint256"}],"stateMutability":"view","type":"function"},{"inputs":[{"internalType":"uint256","name":"_milestoneIndex","type":"uint256"}],"name":"payMilestone","outputs":[],"stateMutability":"nonpayable","type":"function"},{"inputs":[],"name":"protocolFeeBps","outputs":[{"internalType":"uint256","name":"","type":"uint256"}],"stateMutability":"view","type":"function"},{"inputs":[{"internalType":"string","name":"_reason","type":"string"}],"name":"raiseDispute","outputs":[],"stateMutability":"nonpayable","type":"function"},{"inputs":[],"name":"remainingBalance","outputs":[{"internalType":"uint256","name":"","type":"uint256"}],"stateMutability":"view","type":"function"},{"inputs":[{"internalType":"uint256","name":"_initiatorAward","type":"uint256"},{"internalType":"uint256","name":"_counterpartyAward","type":"uint256"}],"name":"resolveDispute","outputs":[],"stateMutability":"nonpayable","type":"function"},{"inputs":[],"name":"status","outputs":[{"internalType":"enum AgentCovenant.CovenantStatus","name":"","type":"uint8"}],"stateMutability":"view","type":"function"},{"inputs":[],"name":"terms","outputs":[{"internalType":"bytes32","name":"covenantType","type":"bytes32"},{"internalType":"string","name":"termsIPFSHash","type":"string"},{"internalType":"uint256","name":"createdAt","type":"uint256"},{"internalType":"uint256","name":"expiresAt","type":"uint256"},{"internalType":"uint256","name":"stakeAmount","type":"uint256"}],"stateMutability":"view","type":"function"},{"inputs":[],"name":"timeRemaining","outputs":[{"internalType":"uint256","name":"","type":"uint256"}],"stateMutability":"view","type":"function"},{"inputs":[],"name":"totalMilestonePayments","outputs":[{"internalType":"uint256","name":"","type":"uint256"}],"stateMutability":"view","type":"function"},{"inputs":[],"name":"withdrawRemaining","outputs":[],"stateMutability":"nonpayable","type":"function"},{"stateMutability":"payable","type":"receive"}],"evm":{"bytecode":{"linkReferences":{},"object":"604060c0815262001f3e908138038062000019816200036b565b938439820191610100818403126200036657620000368162000391565b9060206200004681830162000391565b848301516060840151909391906001600160401b03908181116200036657830194601f91898388011215620003665786518181116200032557601f1997620000948286018a1689016200036b565b9b828d528883830101116200036657879060005b838110620003515750506000918c010152608085015160a08601519460e0620000d460c0890162000391565b97015160808b905260a091909152600980546001600160a01b0319166001600160a01b03988916179055600a553460085542908101939084106200033b5789519260a084018481108482111762000325578b528084528b8885015260808b85019442865260608101968752019586526000558a51918211620003255760019788548981811c911680156200031a575b898210146200030457828111620002b9575b50879183116001146200025057508190600b98999a9b60009262000244575b5050600019600383901b1c191690881b1787555b51600255516003555160045560ff199485600554166005551660005252826000209182541617905551611b979081620003a782396080518181816101980152818161061e015281816106ee0152818161081901528181610a740152818161100a0152818161128b0152611532015260a051818181610531015281816106690152818161092e01528181610d8d0152818161123f01526113640152f35b01519050388062000194565b82169a88600052876000209b60005b818110620002a3575091899a9b9c9184600b9b95941062000289575b505050811b018755620001a8565b015160001960f88460031b161c191690553880806200027b565b828401518e559c8a019c9289019289016200025f565b89600052886000208380860160051c8201928b8710620002fa575b0160051c01908a905b828110620002ed57505062000175565b60008155018a90620002dd565b92508192620002d4565b634e487b7160e01b600052602260045260246000fd5b90607f169062000163565b634e487b7160e01b600052604160045260246000fd5b634e487b7160e01b600052601160045260246000fd5b818101830151818f01840152899201620000a8565b600080fd5b6040519190601f01601f191682016001600160401b038111838210176200032557604052565b51906001600160a01b0382168203620003665756fe608080604052600436101561002c575b50361561001b57600080fd5b610027346008546119dc565b600855005b60003560e01c908163200d2ed2146117475750806322f3e2d4146117195780632442e1cb1461160457806335659fb8146115e65780633670a7bd146115a8578063469048401461157f5780634a4d41eb146115615780635c39fcc11461151c57806369b4d6fe146114d957806369db0a7e14611267578063725a3b4b14610fca5780637bf6c10414610ee45780637d0d50dc14610d7a57806384b62c2814610a3a578063852ea203146109745780638f4cf24714610956578063a8d52f7a146107e5578063bdc84ac314610560578063c3df65461461051b578063d24126d9146104fd578063d5025625146103f6578063da25de3c146103d8578063e3cfef60146103b5578063e89e4ed614610335578063ee38db95146101855763f5a3f4af14610157573861000f565b3461018057600036600319011261018057600d546040516001600160a01b039091168152602090f35b600080fd5b34610180576000366003190112610180577f00000000000000000000000000000000000000000000000000000000000000006001600160a01b038116906101cd33831461194b565b60ff60055416600781101590816103115760058114918215610327575b8215610300575b505080156102f5575b156102ba576008549081156102885760008080848194826008555af161021e611a57565b50156102515760207feaff4b37086828766ad3268786972c0cd24259d4c87a80f9d3963a3c3d999b0d91604051908152a2005b60405162461bcd60e51b815260206004820152600f60248201526e15da5d1a191c985dc819985a5b1959608a1b6044820152606490fd5b60405162461bcd60e51b815260206004820152600a6024820152694e6f2062616c616e636560b01b6044820152606490fd5b60405162461bcd60e51b815260206004820152601360248201527210d85b9b9bdd081dda5d1a191c985dc81e595d606a1b6044820152606490fd5b5060035442116101fa565b9091506103115760021483806101f1565b634e487b7160e01b600052602160045260246000fd5b5060068114915060006101ea565b34610180576020366003190112610180576004356006548110156101805761035f610391916118fb565b5061036981611855565b9060018101549060ff600360028301549201549160405195869560a0875260a087019061176f565b9360208601528181161515604086015260081c161515606084015260808301520390f35b346101805760003660031901126101805760206103d0611afd565b604051908152f35b34610180576000366003190112610180576020600854604051908152f35b346101805760003660031901126101805760005460405190600082600191825492610420846117dd565b808452938181169081156104db575060011461047e575b5061044492500383611833565b6002546003546004549061046a604051958695865260a0602087015260a086019061176f565b926040850152606084015260808301520390f35b600081815291507fb10e2d527612073b26eecdfd717e6a320cf44b4afac2b0732d9fcbe2b7fa0cf65b8483106104c05750610444935050810160200185610437565b81935090816020925483858a010152019101909185926104a7565b90506020925061044494915060ff191682840152151560051b82010185610437565b34610180576000366003190112610180576020600f54604051908152f35b34610180576000366003190112610180576040517f00000000000000000000000000000000000000000000000000000000000000006001600160a01b03168152602090f35b346101805760403660031901126101805760043560248035906005549060ff821660078110156107d05760030361079d5761059b83856119dc565b60089283548092116107615760ff1916600417600555600d80546001600160a01b0319163317905584806106db575b505082610654575b50805480610610575b505060405191825260208201527fd45d961e06565b8dd3d1da8aa5d6bdf1ea1253ebf46c31573e5acd0125f2432660403392a2005b6000808080938161064d96557f00000000000000000000000000000000000000000000000000000000000000005af1610647611a57565b50611ac1565b82806105db565b61065f8383546119e9565b82556000808080867f00000000000000000000000000000000000000000000000000000000000000005af1610692611a57565b506105d25760649060196040519162461bcd60e51b8352602060048401528201527f436f756e7465727061727479206177617264206661696c6564000000000000006044820152fd5b6106e4916119e9565b82556000808080877f00000000000000000000000000000000000000000000000000000000000000005af1610717611a57565b50156107245784846105ca565b60649060166040519162461bcd60e51b83526020600484015282015275125b9a5d1a585d1bdc88185dd85c990819985a5b195960521b6044820152fd5b60405162461bcd60e51b81526020600482015260158185015274417761726473206578636565642062616c616e636560581b6044820152606490fd5b606490600c6040519162461bcd60e51b8352602060048401528201526b139bdd08191a5cdc1d5d195960a21b6044820152fd5b50634e487b7160e01b60009081526021600452fd5b346101805760203660031901126101805760043567ffffffffffffffff8111610180576108169036906004016117af565b907f0000000000000000000000000000000000000000000000000000000000000000906108576001600160a01b03808416331490811561092a575b50611a87565b6005549060ff821660078110156103115760016108749114611987565b6003544211156108f3577f76b5660c2bd01bae8e3db371287bd828ee6a8a490398f7ac405273035e6379739260066108cf9360ff191617600555600854806108d4575b505060405191829160208352339560208401916119f6565b0390a2005b6000808080936108ec95826008555af1610647611a57565b84806108b7565b60405162461bcd60e51b815260206004820152600f60248201526e139bdd08195e1c1a5c9959081e595d608a1b6044820152606490fd5b90507f000000000000000000000000000000000000000000000000000000000000000016331485610851565b34610180576000366003190112610180576020600654604051908152f35b346101805760203660031901126101805760043560ff6005541660078110156103115760016109a39114611987565b6109b06006548210611a17565b6109b9816118fb565b5060028101805460ff8116610a015760019060ff191617905560034291015533907f032f77b843a5cc848407ffb1e918c51fd6982fbfd1adf0b60f45c6d7bb54068a600080a3005b60405162461bcd60e51b8152602060048201526011602482015270105b1c9958591e4818dbdb5c1b195d1959607a1b6044820152606490fd5b346101805760403660031901126101805767ffffffffffffffff60043581811161018057610a6c9036906004016117af565b9091610aa2337f00000000000000000000000000000000000000000000000000000000000000006001600160a01b03161461194b565b60ff600554166007811015610311576001610abd9114611987565b60085460243511610d3e57604051610ad481611817565b610add836119c0565b610aea6040519182611833565b838152368486011161018057838560208301376000602085830101528152602435602082015260006040820152600060608201526000608082015260065468010000000000000000811015610d1257806001610b4992016006556118fb565b929092610d285781518051918211610d1257610b6584546117dd565b601f8111610cce575b50602090601f8311600114610c6257918060039492608094600092610c57575b50508160011b9160001990861b1c19161784555b602081015160018501556002840160408201511515815460ff61ff006060860151151560081b1692169061ffff1916171790550151910155610be86024356007546119dc565b600755600654600019810192908311610c41577fbf293db00f4de65b181a066ecc2f8bb81fb7174b517fd8085700e259ad00db1b91610c346040519283926040845260408401916119f6565b60243560208301520390a2005b634e487b7160e01b600052601160045260246000fd5b015190508880610b8e565b90601f198316918560005260206000209260005b818110610cb657509260019285926080966003989610610c9e575b505050811b018455610ba2565b015160001983881b60f8161c19169055888080610c91565b92936020600181928786015181550195019301610c76565b846000526020600020601f840160051c810160208510610d0b575b601f830160051c82018110610cff575050610b6e565b60008155600101610ce9565b5080610ce9565b634e487b7160e01b600052604160045260246000fd5b634e487b7160e01b600052600060045260246000fd5b60405162461bcd60e51b8152602060048201526014602482015273496e73756666696369656e742062616c616e636560601b6044820152606490fd5b34610180576000366003190112610180577f00000000000000000000000000000000000000000000000000000000000000006001600160a01b031633819003610eac5760ff60055416600781101561031157610e7957600354421015610e4a5780600052600b6020526001604060002060ff1990828282541617905560055416176005557f9f4a87e77dbaf5b55d5e6f62125b58988c5befb44fb876196dd62ffca1362f21600080a27f47c82a599a82344a17a0b9fefda032175048e76d1d1bdf41e8bc686480ff204c600080a1005b60405162461bcd60e51b8152602060048201526007602482015266115e1c1a5c995960ca1b6044820152606490fd5b60405162461bcd60e51b815260206004820152600b60248201526a4e6f742070656e64696e6760a81b6044820152606490fd5b60405162461bcd60e51b815260206004820152601060248201526f4e6f7420636f756e746572706172747960801b6044820152606490fd5b34610180576000366003190112610180576040516000600e54610f06816117dd565b80845290600190818116908115610fa35750600114610f48575b610f4484610f3081860382611833565b60405191829160208352602083019061176f565b0390f35b600e600090815292507fbb7b4a454dc3493923482f07822329ed19e8244eff582cc204f8554c3620c3fd5b828410610f8b575050508101602001610f3082610f20565b80546020858701810191909152909301928101610f73565b60ff191660208087019190915292151560051b85019092019250610f309150839050610f20565b34610180576020806003193601126101805767ffffffffffffffff60043581811161018057610ffd9036906004016117af565b61103960018060a01b03807f000000000000000000000000000000000000000000000000000000000000000016331490811561123b5750611a87565b6005549260ff841693600785101561031157600194858114908115611232575b50156111fc5760ff19166003176005558111610d125761107a600e546117dd565b601f8111611195575b50600092601f82116001146110f6578180917f28b099eb575e23e32becd7c30dc8f9b2f98e370cdbf9841ea3338d9000402a25956000936110eb575b501b906000198360031b1c191617600e555b42600f556108cf60405192839286845233968401916119f6565b8501359250876110bf565b601f19821693600e6000527fbb7b4a454dc3493923482f07822329ed19e8244eff582cc204f8554c3620c3fd9060005b87878210611181575050837f28b099eb575e23e32becd7c30dc8f9b2f98e370cdbf9841ea3338d9000402a259610611167575b505081811b01600e556110d1565b840135600019600385901b60f8161c191690558580611159565b868301358455928401929182019101611126565b600e6000527fbb7b4a454dc3493923482f07822329ed19e8244eff582cc204f8554c3620c3fd601f830160051c8101918684106111f2575b601f0160051c019084905b8281106111e6575050611083565b600081550184906111d8565b90915081906111cd565b60405162461bcd60e51b815260048101879052600e60248201526d43616e6e6f74206469737075746560901b6044820152606490fd5b90501587611059565b90507f000000000000000000000000000000000000000000000000000000000000000016331486610851565b346101805760208060031936011261018057600435906001600160a01b036112b2337f000000000000000000000000000000000000000000000000000000000000000083161461194b565b60ff6005541660078110156103115760016112cd9114611987565b6112da6006548410611a17565b6112e3836118fb565b5060028101805460ff8116156114a45760ff8160081c166114705761ff001916610100179055600101805460085461131b91906119e9565b60085554600a54808202908282041482151715610c4157600080809361134761271083950480926119e9565b95600954165af1611356611a57565b5015611435576000808080847f00000000000000000000000000000000000000000000000000000000000000005af161138d611a57565b50156113ff57907f3af368126e502abc57fe61217a2e2ffc37e0753a9bc218ab9976a49a996e444991604051908152a26113c5611b1c565b6113cb57005b600260ff1960055416176005557fbf1804db3af6b11f9d3cadcf0c65df2bad3a56d93c275062fdc655bedf351f77600080a1005b60405162461bcd60e51b815260048101839052600e60248201526d14185e5b595b9d0819985a5b195960921b6044820152606490fd5b60405162461bcd60e51b8152600481018390526013602482015272119959481d1c985b9cd9995c8819985a5b1959606a1b6044820152606490fd5b60405162461bcd60e51b815260048101869052600c60248201526b105b1c9958591e481c185a5960a21b6044820152606490fd5b60405162461bcd60e51b815260048101869052600d60248201526c139bdd0818dbdb5c1b195d1959609a1b6044820152606490fd5b34610180576020366003190112610180576004356001600160a01b0381169081900361018057600052600b602052602060ff604060002054166040519015158152f35b34610180576000366003190112610180576040517f00000000000000000000000000000000000000000000000000000000000000006001600160a01b03168152602090f35b34610180576000366003190112610180576020600754604051908152f35b34610180576000366003190112610180576009546040516001600160a01b039091168152602090f35b34610180576020366003190112610180576004356001600160a01b0381169081900361018057600052600c6020526020604060002054604051908152f35b34610180576000366003190112610180576020600a54604051908152f35b346101805760208060031936011261018057600435906000608060405161162a81611817565b60608152828482015282604082015282606082015201526006548210156116e55761165660a0926118fb565b506040519161166483611817565b61166d82611855565b83526001820154918184019283526002810154906116c46003604087019260ff85161515845260ff606089019560081c161515855201549360808701948552604051978897828952519188015260c087019061176f565b93516040860152511515606085015251151560808401525160a08301520390f35b6064906040519062461bcd60e51b82526004820152600d60248201526c092dcecc2d8d2c840d2dcc8caf609b1b6044820152fd5b346101805760003660031901126101805760ff60055416600781101561031157602090600160405191148152f35b346101805760003660031901126101805760ff60055416906007821015610311576020918152f35b919082519283825260005b84811061179b575050826000602080949584010152601f8019910116010190565b60208183018101518483018201520161177a565b9181601f840112156101805782359167ffffffffffffffff8311610180576020838186019501011161018057565b90600182811c9216801561180d575b60208310146117f757565b634e487b7160e01b600052602260045260246000fd5b91607f16916117ec565b60a0810190811067ffffffffffffffff821117610d1257604052565b90601f8019910116810190811067ffffffffffffffff821117610d1257604052565b9060405191826000825492611869846117dd565b9081845260019485811690816000146118d85750600114611895575b505061189392500383611833565b565b9093915060005260209081600020936000915b8183106118c057505061189393508201013880611885565b855488840185015294850194879450918301916118a8565b91505061189394506020925060ff191682840152151560051b8201013880611885565b60065481101561193557600660005260021b7ff652222313e28459528d920b65115c16c04f3efc82aaedc97be59f3f377c0d3f0190600090565b634e487b7160e01b600052603260045260246000fd5b1561195257565b60405162461bcd60e51b815260206004820152600d60248201526c2737ba1034b734ba34b0ba37b960991b6044820152606490fd5b1561198e57565b60405162461bcd60e51b815260206004820152600a6024820152694e6f742061637469766560b01b6044820152606490fd5b67ffffffffffffffff8111610d1257601f01601f191660200190565b91908201809211610c4157565b91908203918211610c4157565b908060209392818452848401376000828201840152601f01601f1916010190565b15611a1e57565b60405162461bcd60e51b8152602060048201526011602482015270496e76616c6964206d696c6573746f6e6560781b6044820152606490fd5b3d15611a82573d90611a68826119c0565b91611a766040519384611833565b82523d6000602084013e565b606090565b15611a8e57565b60405162461bcd60e51b815260206004820152600b60248201526a4e6f74206120706172747960a81b6044820152606490fd5b15611ac857565b60405162461bcd60e51b815260206004820152600d60248201526c1499599d5b990819985a5b1959609a1b6044820152606490fd5b60035480421015611b1657611b139042906119e9565b90565b50600090565b60065460005b818110611b30575050600190565b60ff6002611b3d836118fb565b50015460081c1615611b5a576000198114610c4157600101611b22565b505060009056fea26469706673582212203fd6b10862758215ea379b646e350ac99def05544e520ff0a56efc5a8579ecd264736f6c63430008140033","opcodes":"PUSH1 0x40 PUSH1 0xC0 DUP2 MSTORE PUSH3 0x1F3E SWAP1 DUP2 CODESIZE SUB DUP1 PUSH3 0x19 DUP2 PUSH3 0x36B JUMP JUMPDEST SWAP4 DUP5 CODECOPY DUP3 ADD SWAP2 PUSH2 0x100 DUP2 DUP5 SUB SLT PUSH3 0x366 JUMPI PUSH3 0x36 DUP2 PUSH3 0x391 JUMP JUMPDEST SWAP1 PUSH1 0x20 PUSH3 0x46 DUP2 DUP4 ADD PUSH3 0x391 JUMP JUMPDEST DUP5 DUP4 ADD MLOAD PUSH1 0x60 DUP5 ADD MLOAD SWAP1 SWAP4 SWAP2 SWAP1 PUSH1 0x1 PUSH1 0x1 PUSH1 0x40 SHL SUB SWAP1 DUP2 DUP2 GT PUSH3 0x366 JUMPI DUP4 ADD SWAP5 PUSH1 0x1F SWAP2 DUP10 DUP4 DUP9 ADD SLT ISZERO PUSH3 0x366 JUMPI DUP7 MLOAD DUP2 DUP2 GT PUSH3 0x325 JUMPI PUSH1 0x1F NOT SWAP8 PUSH3 0x94 DUP3 DUP7 ADD DUP11 AND DUP10 ADD PUSH3 0x36B JUMP JUMPDEST SWAP12 DUP3 DUP14 MSTORE DUP9 DUP4 DUP4 ADD ADD GT PUSH3 0x366 JUMPI DUP8 SWAP1 PUSH1 0x0 JUMPDEST DUP4 DUP2 LT PUSH3 0x351 JUMPI POP POP PUSH1 0x0 SWAP2 DUP13 ADD ADD MSTORE PUSH1 0x80 DUP6 ADD MLOAD PUSH1 0xA0 DUP7 ADD MLOAD SWAP5 PUSH1 0xE0 PUSH3 0xD4 PUSH1 0xC0 DUP10 ADD PUSH3 0x391 JUMP JUMPDEST SWAP8 ADD MLOAD PUSH1 0x80 DUP12 SWAP1 MSTORE PUSH1 0xA0 SWAP2 SWAP1 SWAP2 MSTORE PUSH1 0x9 DUP1 SLOAD PUSH1 0x1 PUSH1 0x1 PUSH1 0xA0 SHL SUB NOT AND PUSH1 0x1 PUSH1 0x1 PUSH1 0xA0 SHL SUB SWAP9 DUP10 AND OR SWAP1 SSTORE PUSH1 0xA SSTORE CALLVALUE PUSH1 0x8 SSTORE TIMESTAMP SWAP1 DUP2 ADD SWAP4 SWAP1 DUP5 LT PUSH3 0x33B JUMPI DUP10 MLOAD SWAP3 PUSH1 0xA0 DUP5 ADD DUP5 DUP2 LT DUP5 DUP3 GT OR PUSH3 0x325 JUMPI DUP12 MSTORE DUP1 DUP5 MSTORE DUP12 DUP9 DUP6 ADD MSTORE PUSH1 0x80 DUP12 DUP6 ADD SWAP5 TIMESTAMP DUP7 MSTORE PUSH1 0x60 DUP2 ADD SWAP7 DUP8 MSTORE ADD SWAP6 DUP7 MSTORE PUSH1 0x0 SSTORE DUP11 MLOAD SWAP2 DUP3 GT PUSH3 0x325 JUMPI PUSH1 0x1 SWAP8 DUP9 SLOAD DUP10 DUP2 DUP2 SHR SWAP2 AND DUP1 ISZERO PUSH3 0x31A JUMPI JUMPDEST DUP10 DUP3 LT EQ PUSH3 0x304 JUMPI DUP3 DUP2 GT PUSH3 0x2B9 JUMPI JUMPDEST POP DUP8 SWAP2 DUP4 GT PUSH1 0x1 EQ PUSH3 0x250 JUMPI POP DUP2 SWAP1 PUSH1 0xB SWAP9 SWAP10 SWAP11 SWAP12 PUSH1 0x0 SWAP3 PUSH3 0x244 JUMPI JUMPDEST POP POP PUSH1 0x0 NOT PUSH1 0x3 DUP4 SWAP1 SHL SHR NOT AND SWAP1 DUP9 SHL OR DUP8 SSTORE JUMPDEST MLOAD PUSH1 0x2 SSTORE MLOAD PUSH1 0x3 SSTORE MLOAD PUSH1 0x4 SSTORE PUSH1 0xFF NOT SWAP5 DUP6 PUSH1 0x5 SLOAD AND PUSH1 0x5 SSTORE AND PUSH1 0x0 MSTORE MSTORE DUP3 PUSH1 0x0 KECCAK256 SWAP2 DUP3 SLOAD AND OR SWAP1 SSTORE MLOAD PUSH2 0x1B97 SWAP1 DUP2 PUSH3 0x3A7 DUP3 CODECOPY PUSH1 0x80 MLOAD DUP2 DUP2 DUP2 PUSH2 0x198 ADD MSTORE DUP2 DUP2 PUSH2 0x61E ADD MSTORE DUP2 DUP2 PUSH2 0x6EE ADD MSTORE DUP2 DUP2 PUSH2 0x819 ADD MSTORE DUP2 DUP2 PUSH2 0xA74 ADD MSTORE DUP2 DUP2 PUSH2 0x100A ADD MSTORE DUP2 DUP2 PUSH2 0x128B ADD MSTORE PUSH2 0x1532 ADD MSTORE PUSH1 0xA0 MLOAD DUP2 DUP2 DUP2 PUSH2 0x531 ADD MSTORE DUP2 DUP2 PUSH2 0x669 ADD MSTORE DUP2 DUP2 PUSH2 0x92E ADD MSTORE DUP2 DUP2 PUSH2 0xD8D ADD MSTORE DUP2 DUP2 PUSH2 0x123F ADD MSTORE PUSH2 0x1364 ADD MSTORE RETURN JUMPDEST ADD MLOAD SWAP1 POP CODESIZE DUP1 PUSH3 0x194 JUMP JUMPDEST DUP3 AND SWAP11 DUP9 PUSH1 0x0 MSTORE DUP8 PUSH1 0x0 KECCAK256 SWAP12 PUSH1 0x0 JUMPDEST DUP2 DUP2 LT PUSH3 0x2A3 JUMPI POP SWAP2 DUP10 SWAP11 SWAP12 SWAP13 SWAP2 DUP5 PUSH1 0xB SWAP12 SWAP6 SWAP5 LT PUSH3 0x289 JUMPI JUMPDEST POP POP POP DUP2 SHL ADD DUP8 SSTORE PUSH3 0x1A8 JUMP JUMPDEST ADD MLOAD PUSH1 0x0 NOT PUSH1 0xF8 DUP5 PUSH1 0x3 SHL AND SHR NOT AND SWAP1 SSTORE CODESIZE DUP1 DUP1 PUSH3 0x27B JUMP JUMPDEST DUP3 DUP5 ADD MLOAD DUP15 SSTORE SWAP13 DUP11 ADD SWAP13 SWAP3 DUP10 ADD SWAP3 DUP10 ADD PUSH3 0x25F JUMP JUMPDEST DUP10 PUSH1 0x0 MSTORE DUP9 PUSH1 0x0 KECCAK256 DUP4 DUP1 DUP7 ADD PUSH1 0x5 SHR DUP3 ADD SWAP3 DUP12 DUP8 LT PUSH3 0x2FA JUMPI JUMPDEST ADD PUSH1 0x5 SHR ADD SWAP1 DUP11 SWAP1 JUMPDEST DUP3 DUP2 LT PUSH3 0x2ED JUMPI POP POP PUSH3 0x175 JUMP JUMPDEST PUSH1 0x0 DUP2 SSTORE ADD DUP11 SWAP1 PUSH3 0x2DD JUMP JUMPDEST SWAP3 POP DUP2 SWAP3 PUSH3 0x2D4 JUMP JUMPDEST PUSH4 0x4E487B71 PUSH1 0xE0 SHL PUSH1 0x0 MSTORE PUSH1 0x22 PUSH1 0x4 MSTORE PUSH1 0x24 PUSH1 0x0 REVERT JUMPDEST SWAP1 PUSH1 0x7F AND SWAP1 PUSH3 0x163 JUMP JUMPDEST PUSH4 0x4E487B71 PUSH1 0xE0 SHL PUSH1 0x0 MSTORE PUSH1 0x41 PUSH1 0x4 MSTORE PUSH1 0x24 PUSH1 0x0 REVERT JUMPDEST PUSH4 0x4E487B71 PUSH1 0xE0 SHL PUSH1 0x0 MSTORE PUSH1 0x11 PUSH1 0x4 MSTORE PUSH1 0x24 PUSH1 0x0 REVERT JUMPDEST DUP2 DUP2 ADD DUP4 ADD MLOAD DUP2 DUP16 ADD DUP5 ADD MSTORE DUP10 SWAP3 ADD PUSH3 0xA8 JUMP JUMPDEST PUSH1 0x0 DUP1 REVERT JUMPDEST PUSH1 0x40 MLOAD SWAP2 SWAP1 PUSH1 0x1F ADD PUSH1 0x1F NOT AND DUP3 ADD PUSH1 0x1 PUSH1 0x1 PUSH1 0x40 SHL SUB DUP2 GT DUP4 DUP3 LT OR PUSH3 0x325 JUMPI PUSH1 0x40 MSTORE JUMP JUMPDEST MLOAD SWAP1 PUSH1 0x1 PUSH1 0x1 PUSH1 0xA0 SHL SUB DUP3 AND DUP3 SUB PUSH3 0x366 JUMPI JUMP INVALID PUSH1 0x80 DUP1 PUSH1 0x40 MSTORE PUSH1 0x4 CALLDATASIZE LT ISZERO PUSH2 0x2C JUMPI JUMPDEST POP CALLDATASIZE ISZERO PUSH2 0x1B JUMPI PUSH1 0x0 DUP1 REVERT JUMPDEST PUSH2 0x27 CALLVALUE PUSH1 0x8 SLOAD PUSH2 0x19DC JUMP JUMPDEST PUSH1 0x8 SSTORE STOP JUMPDEST PUSH1 0x0 CALLDATALOAD PUSH1 0xE0 SHR SWAP1 DUP2 PUSH4 0x200D2ED2 EQ PUSH2 0x1747 JUMPI POP DUP1 PUSH4 0x22F3E2D4 EQ PUSH2 0x1719 JUMPI DUP1 PUSH4 0x2442E1CB EQ PUSH2 0x1604 JUMPI DUP1 PUSH4 0x35659FB8 EQ PUSH2 0x15E6 JUMPI DUP1 PUSH4 0x3670A7BD EQ PUSH2 0x15A8 JUMPI DUP1 PUSH4 0x46904840 EQ PUSH2 0x157F JUMPI DUP1 PUSH4 0x4A4D41EB EQ PUSH2 0x1561 JUMPI DUP1 PUSH4 0x5C39FCC1 EQ PUSH2 0x151C JUMPI DUP1 PUSH4 0x69B4D6FE EQ PUSH2 0x14D9 JUMPI DUP1 PUSH4 0x69DB0A7E EQ PUSH2 0x1267 JUMPI DUP1 PUSH4 0x725A3B4B EQ PUSH2 0xFCA JUMPI DUP1 PUSH4 0x7BF6C104 EQ PUSH2 0xEE4 JUMPI DUP1 PUSH4 0x7D0D50DC EQ PUSH2 0xD7A JUMPI DUP1 PUSH4 0x84B62C28 EQ PUSH2 0xA3A JUMPI DUP1 PUSH4 0x852EA203 EQ PUSH2 0x974 JUMPI DUP1 PUSH4 0x8F4CF247 EQ PUSH2 0x956 JUMPI DUP1 PUSH4 0xA8D52F7A EQ PUSH2 0x7E5 JUMPI DUP1 PUSH4 0xBDC84AC3 EQ PUSH2 0x560 JUMPI DUP1 PUSH4 0xC3DF6546 EQ PUSH2 0x51B JUMPI DUP1 PUSH4 0xD24126D9 EQ PUSH2 0x4FD JUMPI DUP1 PUSH4 0xD5025625 EQ PUSH2 0x3F6 JUMPI DUP1 PUSH4 0xDA25DE3C EQ PUSH2 0x3D8 JUMPI DUP1 PUSH4 0xE3CFEF60 EQ PUSH2 0x3B5 JUMPI DUP1 PUSH4 0xE89E4ED6 EQ PUSH2 0x335 JUMPI DUP1 PUSH4 0xEE38DB95 EQ PUSH2 0x185 JUMPI PUSH4 0xF5A3F4AF EQ PUSH2 0x157 JUMPI CODESIZE PUSH2 0xF JUMP JUMPDEST CALLVALUE PUSH2 0x180 JUMPI PUSH1 0x0 CALLDATASIZE PUSH1 0x3 NOT ADD SLT PUSH2 0x180 JUMPI PUSH1 0xD SLOAD PUSH1 0x40 MLOAD PUSH1 0x1 PUSH1 0x1 PUSH1 0xA0 SHL SUB SWAP1 SWAP2 AND DUP2 MSTORE PUSH1 0x20 SWAP1 RETURN JUMPDEST PUSH1 0x0 DUP1 REVERT JUMPDEST CALLVALUE PUSH2 0x180 JUMPI PUSH1 0x0 CALLDATASIZE PUSH1 0x3 NOT ADD SLT PUSH2 0x180 JUMPI PUSH32 0x0 PUSH1 0x1 PUSH1 0x1 PUSH1 0xA0 SHL SUB DUP2 AND SWAP1 PUSH2 0x1CD CALLER DUP4 EQ PUSH2 0x194B JUMP JUMPDEST PUSH1 0xFF PUSH1 0x5 SLOAD AND PUSH1 0x7 DUP2 LT ISZERO SWAP1 DUP2 PUSH2 0x311 JUMPI PUSH1 0x5 DUP2 EQ SWAP2 DUP3 ISZERO PUSH2 0x327 JUMPI JUMPDEST DUP3 ISZERO PUSH2 0x300 JUMPI JUMPDEST POP POP DUP1 ISZERO PUSH2 0x2F5 JUMPI JUMPDEST ISZERO PUSH2 0x2BA JUMPI PUSH1 0x8 SLOAD SWAP1 DUP2 ISZERO PUSH2 0x288 JUMPI PUSH1 0x0 DUP1 DUP1 DUP5 DUP2 SWAP5 DUP3 PUSH1 0x8 SSTORE GAS CALL PUSH2 0x21E PUSH2 0x1A57 JUMP JUMPDEST POP ISZERO PUSH2 0x251 JUMPI PUSH1 0x20 PUSH32 0xEAFF4B37086828766AD3268786972C0CD24259D4C87A80F9D3963A3C3D999B0D SWAP2 PUSH1 0x40 MLOAD SWAP1 DUP2 MSTORE LOG2 STOP JUMPDEST PUSH1 0x40 MLOAD PUSH3 0x461BCD PUSH1 0xE5 SHL DUP2 MSTORE PUSH1 0x20 PUSH1 0x4 DUP3 ADD MSTORE PUSH1 0xF PUSH1 0x24 DUP3 ADD MSTORE PUSH15 0x15DA5D1A191C985DC819985A5B1959 PUSH1 0x8A SHL PUSH1 0x44 DUP3 ADD MSTORE PUSH1 0x64 SWAP1 REVERT JUMPDEST PUSH1 0x40 MLOAD PUSH3 0x461BCD PUSH1 0xE5 SHL DUP2 MSTORE PUSH1 0x20 PUSH1 0x4 DUP3 ADD MSTORE PUSH1 0xA PUSH1 0x24 DUP3 ADD MSTORE PUSH10 0x4E6F2062616C616E6365 PUSH1 0xB0 SHL PUSH1 0x44 DUP3 ADD MSTORE PUSH1 0x64 SWAP1 REVERT JUMPDEST PUSH1 0x40 MLOAD PUSH3 0x461BCD PUSH1 0xE5 SHL DUP2 MSTORE PUSH1 0x20 PUSH1 0x4 DUP3 ADD MSTORE PUSH1 0x13 PUSH1 0x24 DUP3 ADD MSTORE PUSH19 0x10D85B9B9BDD081DDA5D1A191C985DC81E595D PUSH1 0x6A SHL PUSH1 0x44 DUP3 ADD MSTORE PUSH1 0x64 SWAP1 REVERT JUMPDEST POP PUSH1 0x3 SLOAD TIMESTAMP GT PUSH2 0x1FA JUMP JUMPDEST SWAP1 SWAP2 POP PUSH2 0x311 JUMPI PUSH1 0x2 EQ DUP4 DUP1 PUSH2 0x1F1 JUMP JUMPDEST PUSH4 0x4E487B71 PUSH1 0xE0 SHL PUSH1 0x0 MSTORE PUSH1 0x21 PUSH1 0x4 MSTORE PUSH1 0x24 PUSH1 0x0 REVERT JUMPDEST POP PUSH1 0x6 DUP2 EQ SWAP2 POP PUSH1 0x0 PUSH2 0x1EA JUMP JUMPDEST CALLVALUE PUSH2 0x180 JUMPI PUSH1 0x20 CALLDATASIZE PUSH1 0x3 NOT ADD SLT PUSH2 0x180 JUMPI PUSH1 0x4 CALLDATALOAD PUSH1 0x6 SLOAD DUP2 LT ISZERO PUSH2 0x180 JUMPI PUSH2 0x35F PUSH2 0x391 SWAP2 PUSH2 0x18FB JUMP JUMPDEST POP PUSH2 0x369 DUP2 PUSH2 0x1855 JUMP JUMPDEST SWAP1 PUSH1 0x1 DUP2 ADD SLOAD SWAP1 PUSH1 0xFF PUSH1 0x3 PUSH1 0x2 DUP4 ADD SLOAD SWAP3 ADD SLOAD SWAP2 PUSH1 0x40 MLOAD SWAP6 DUP7 SWAP6 PUSH1 0xA0 DUP8 MSTORE PUSH1 0xA0 DUP8 ADD SWAP1 PUSH2 0x176F JUMP JUMPDEST SWAP4 PUSH1 0x20 DUP7 ADD MSTORE DUP2 DUP2 AND ISZERO ISZERO PUSH1 0x40 DUP7 ADD MSTORE PUSH1 0x8 SHR AND ISZERO ISZERO PUSH1 0x60 DUP5 ADD MSTORE PUSH1 0x80 DUP4 ADD MSTORE SUB SWAP1 RETURN JUMPDEST CALLVALUE PUSH2 0x180 JUMPI PUSH1 0x0 CALLDATASIZE PUSH1 0x3 NOT ADD SLT PUSH2 0x180 JUMPI PUSH1 0x20 PUSH2 0x3D0 PUSH2 0x1AFD JUMP JUMPDEST PUSH1 0x40 MLOAD SWAP1 DUP2 MSTORE RETURN JUMPDEST CALLVALUE PUSH2 0x180 JUMPI PUSH1 0x0 CALLDATASIZE PUSH1 0x3 NOT ADD SLT PUSH2 0x180 JUMPI PUSH1 0x20 PUSH1 0x8 SLOAD PUSH1 0x40 MLOAD SWAP1 DUP2 MSTORE RETURN JUMPDEST CALLVALUE PUSH2 0x180 JUMPI PUSH1 0x0 CALLDATASIZE PUSH1 0x3 NOT ADD SLT PUSH2 0x180 JUMPI PUSH1 0x0 SLOAD PUSH1 0x40 MLOAD SWAP1 PUSH1 0x0 DUP3 PUSH1 0x1 SWAP2 DUP3 SLOAD SWAP3 PUSH2 0x420 DUP5 PUSH2 0x17DD JUMP JUMPDEST DUP1 DUP5 MSTORE SWAP4 DUP2 DUP2 AND SWAP1 DUP2 ISZERO PUSH2 0x4DB JUMPI POP PUSH1 0x1 EQ PUSH2 0x47E JUMPI JUMPDEST POP PUSH2 0x444 SWAP3 POP SUB DUP4 PUSH2 0x1833 JUMP JUMPDEST PUSH1 0x2 SLOAD PUSH1 0x3 SLOAD PUSH1 0x4 SLOAD SWAP1 PUSH2 0x46A PUSH1 0x40 MLOAD SWAP6 DUP7 SWAP6 DUP7 MSTORE PUSH1 0xA0 PUSH1 0x20 DUP8 ADD MSTORE PUSH1 0xA0 DUP7 ADD SWAP1 PUSH2 0x176F JUMP JUMPDEST SWAP3 PUSH1 0x40 DUP6 ADD MSTORE PUSH1 0x60 DUP5 ADD MSTORE PUSH1 0x80 DUP4 ADD MSTORE SUB SWAP1 RETURN JUMPDEST PUSH1 0x0 DUP2 DUP2 MSTORE SWAP2 POP PUSH32 0xB10E2D527612073B26EECDFD717E6A320CF44B4AFAC2B0732D9FCBE2B7FA0CF6 JUMPDEST DUP5 DUP4 LT PUSH2 0x4C0 JUMPI POP PUSH2 0x444 SWAP4 POP POP DUP2 ADD PUSH1 0x20 ADD DUP6 PUSH2 0x437 JUMP JUMPDEST DUP2 SWAP4 POP SWAP1 DUP2 PUSH1 0x20 SWAP3 SLOAD DUP4 DUP6 DUP11 ADD ADD MSTORE ADD SWAP2 ADD SWAP1 SWAP2 DUP6 SWAP3 PUSH2 0x4A7 JUMP JUMPDEST SWAP1 POP PUSH1 0x20 SWAP3 POP PUSH2 0x444 SWAP5 SWAP2 POP PUSH1 0xFF NOT AND DUP3 DUP5 ADD MSTORE ISZERO ISZERO PUSH1 0x5 SHL DUP3 ADD ADD DUP6 PUSH2 0x437 JUMP JUMPDEST CALLVALUE PUSH2 0x180 JUMPI PUSH1 0x0 CALLDATASIZE PUSH1 0x3 NOT ADD SLT PUSH2 0x180 JUMPI PUSH1 0x20 PUSH1 0xF SLOAD PUSH1 0x40 MLOAD SWAP1 DUP2 MSTORE RETURN JUMPDEST CALLVALUE PUSH2 0x180 JUMPI PUSH1 0x0 CALLDATASIZE PUSH1 0x3 NOT ADD SLT PUSH2 0x180 JUMPI PUSH1 0x40 MLOAD PUSH32 0x0 PUSH1 0x1 PUSH1 0x1 PUSH1 0xA0 SHL SUB AND DUP2 MSTORE PUSH1 0x20 SWAP1 RETURN JUMPDEST CALLVALUE PUSH2 0x180 JUMPI PUSH1 0x40 CALLDATASIZE PUSH1 0x3 NOT ADD SLT PUSH2 0x180 JUMPI PUSH1 0x4 CALLDATALOAD PUSH1 0x24 DUP1 CALLDATALOAD SWAP1 PUSH1 0x5 SLOAD SWAP1 PUSH1 0xFF DUP3 AND PUSH1 0x7 DUP2 LT ISZERO PUSH2 0x7D0 JUMPI PUSH1 0x3 SUB PUSH2 0x79D JUMPI PUSH2 0x59B DUP4 DUP6 PUSH2 0x19DC JUMP JUMPDEST PUSH1 0x8 SWAP3 DUP4 SLOAD DUP1 SWAP3 GT PUSH2 0x761 JUMPI PUSH1 0xFF NOT AND PUSH1 0x4 OR PUSH1 0x5 SSTORE PUSH1 0xD DUP1 SLOAD PUSH1 0x1 PUSH1 0x1 PUSH1 0xA0 SHL SUB NOT AND CALLER OR SWAP1 SSTORE DUP5 DUP1 PUSH2 0x6DB JUMPI JUMPDEST POP POP DUP3 PUSH2 0x654 JUMPI JUMPDEST POP DUP1 SLOAD DUP1 PUSH2 0x610 JUMPI JUMPDEST POP POP PUSH1 0x40 MLOAD SWAP2 DUP3 MSTORE PUSH1 0x20 DUP3 ADD MSTORE PUSH32 0xD45D961E06565B8DD3D1DA8AA5D6BDF1EA1253EBF46C31573E5ACD0125F24326 PUSH1 0x40 CALLER SWAP3 LOG2 STOP JUMPDEST PUSH1 0x0 DUP1 DUP1 DUP1 SWAP4 DUP2 PUSH2 0x64D SWAP7 SSTORE PUSH32 0x0 GAS CALL PUSH2 0x647 PUSH2 0x1A57 JUMP JUMPDEST POP PUSH2 0x1AC1 JUMP JUMPDEST DUP3 DUP1 PUSH2 0x5DB JUMP JUMPDEST PUSH2 0x65F DUP4 DUP4 SLOAD PUSH2 0x19E9 JUMP JUMPDEST DUP3 SSTORE PUSH1 0x0 DUP1 DUP1 DUP1 DUP7 PUSH32 0x0 GAS CALL PUSH2 0x692 PUSH2 0x1A57 JUMP JUMPDEST POP PUSH2 0x5D2 JUMPI PUSH1 0x64 SWAP1 PUSH1 0x19 PUSH1 0x40 MLOAD SWAP2 PUSH3 0x461BCD PUSH1 0xE5 SHL DUP4 MSTORE PUSH1 0x20 PUSH1 0x4 DUP5 ADD MSTORE DUP3 ADD MSTORE PUSH32 0x436F756E7465727061727479206177617264206661696C656400000000000000 PUSH1 0x44 DUP3 ADD MSTORE REVERT JUMPDEST PUSH2 0x6E4 SWAP2 PUSH2 0x19E9 JUMP JUMPDEST DUP3 SSTORE PUSH1 0x0 DUP1 DUP1 DUP1 DUP8 PUSH32 0x0 GAS CALL PUSH2 0x717 PUSH2 0x1A57 JUMP JUMPDEST POP ISZERO PUSH2 0x724 JUMPI DUP5 DUP5 PUSH2 0x5CA JUMP JUMPDEST PUSH1 0x64 SWAP1 PUSH1 0x16 PUSH1 0x40 MLOAD SWAP2 PUSH3 0x461BCD PUSH1 0xE5 SHL DUP4 MSTORE PUSH1 0x20 PUSH1 0x4 DUP5 ADD MSTORE DUP3 ADD MSTORE PUSH22 0x125B9A5D1A585D1BDC88185DD85C990819985A5B1959 PUSH1 0x52 SHL PUSH1 0x44 DUP3 ADD MSTORE REVERT JUMPDEST PUSH1 0x40 MLOAD PUSH3 0x461BCD PUSH1 0xE5 SHL DUP2 MSTORE PUSH1 0x20 PUSH1 0x4 DUP3 ADD MSTORE PUSH1 0x15 DUP2 DUP6 ADD MSTORE PUSH21 0x417761726473206578636565642062616C616E6365 PUSH1 0x58 SHL PUSH1 0x44 DUP3 ADD MSTORE PUSH1 0x64 SWAP1 REVERT JUMPDEST PUSH1 0x64 SWAP1 PUSH1 0xC PUSH1 0x40 MLOAD SWAP2 PUSH3 0x461BCD PUSH1 0xE5 SHL DUP4 MSTORE PUSH1 0x20 PUSH1 0x4 DUP5 ADD MSTORE DUP3 ADD MSTORE PUSH12 0x139BDD08191A5CDC1D5D1959 PUSH1 0xA2 SHL PUSH1 0x44 DUP3 ADD MSTORE REVERT JUMPDEST POP PUSH4 0x4E487B71 PUSH1 0xE0 SHL PUSH1 0x0 SWAP1 DUP2 MSTORE PUSH1 0x21 PUSH1 0x4 MSTORE REVERT JUMPDEST CALLVALUE PUSH2 0x180 JUMPI PUSH1 0x20 CALLDATASIZE PUSH1 0x3 NOT ADD SLT PUSH2 0x180 JUMPI PUSH1 0x4 CALLDATALOAD PUSH8 0xFFFFFFFFFFFFFFFF DUP2 GT PUSH2 0x180 JUMPI PUSH2 0x816 SWAP1 CALLDATASIZE SWAP1 PUSH1 0x4 ADD PUSH2 0x17AF JUMP JUMPDEST SWAP1 PUSH32 0x0 SWAP1 PUSH2 0x857 PUSH1 0x1 PUSH1 0x1 PUSH1 0xA0 SHL SUB DUP1 DUP5 AND CALLER EQ SWAP1 DUP2 ISZERO PUSH2 0x92A JUMPI JUMPDEST POP PUSH2 0x1A87 JUMP JUMPDEST PUSH1 0x5 SLOAD SWAP1 PUSH1 0xFF DUP3 AND PUSH1 0x7 DUP2 LT ISZERO PUSH2 0x311 JUMPI PUSH1 0x1 PUSH2 0x874 SWAP2 EQ PUSH2 0x1987 JUMP JUMPDEST PUSH1 0x3 SLOAD TIMESTAMP GT ISZERO PUSH2 0x8F3 JUMPI PUSH32 0x76B5660C2BD01BAE8E3DB371287BD828EE6A8A490398F7AC405273035E637973 SWAP3 PUSH1 0x6 PUSH2 0x8CF SWAP4 PUSH1 0xFF NOT AND OR PUSH1 0x5 SSTORE PUSH1 0x8 SLOAD DUP1 PUSH2 0x8D4 JUMPI JUMPDEST POP POP PUSH1 0x40 MLOAD SWAP2 DUP3 SWAP2 PUSH1 0x20 DUP4 MSTORE CALLER SWAP6 PUSH1 0x20 DUP5 ADD SWAP2 PUSH2 0x19F6 JUMP JUMPDEST SUB SWAP1 LOG2 STOP JUMPDEST PUSH1 0x0 DUP1 DUP1 DUP1 SWAP4 PUSH2 0x8EC SWAP6 DUP3 PUSH1 0x8 SSTORE GAS CALL PUSH2 0x647 PUSH2 0x1A57 JUMP JUMPDEST DUP5 DUP1 PUSH2 0x8B7 JUMP JUMPDEST PUSH1 0x40 MLOAD PUSH3 0x461BCD PUSH1 0xE5 SHL DUP2 MSTORE PUSH1 0x20 PUSH1 0x4 DUP3 ADD MSTORE PUSH1 0xF PUSH1 0x24 DUP3 ADD MSTORE PUSH15 0x139BDD08195E1C1A5C9959081E595D PUSH1 0x8A SHL PUSH1 0x44 DUP3 ADD MSTORE PUSH1 0x64 SWAP1 REVERT JUMPDEST SWAP1 POP PUSH32 0x0 AND CALLER EQ DUP6 PUSH2 0x851 JUMP JUMPDEST CALLVALUE PUSH2 0x180 JUMPI PUSH1 0x0 CALLDATASIZE PUSH1 0x3 NOT ADD SLT PUSH2 0x180 JUMPI PUSH1 0x20 PUSH1 0x6 SLOAD PUSH1 0x40 MLOAD SWAP1 DUP2 MSTORE RETURN JUMPDEST CALLVALUE PUSH2 0x180 JUMPI PUSH1 0x20 CALLDATASIZE PUSH1 0x3 NOT ADD SLT PUSH2 0x180 JUMPI PUSH1 0x4 CALLDATALOAD PUSH1 0xFF PUSH1 0x5 SLOAD AND PUSH1 0x7 DUP2 LT ISZERO PUSH2 0x311 JUMPI PUSH1 0x1 PUSH2 0x9A3 SWAP2 EQ PUSH2 0x1987 JUMP JUMPDEST PUSH2 0x9B0 PUSH1 0x6 SLOAD DUP3 LT PUSH2 0x1A17 JUMP JUMPDEST PUSH2 0x9B9 DUP2 PUSH2 0x18FB JUMP JUMPDEST POP PUSH1 0x2 DUP2 ADD DUP1 SLOAD PUSH1 0xFF DUP2 AND PUSH2 0xA01 JUMPI PUSH1 0x1 SWAP1 PUSH1 0xFF NOT AND OR SWAP1 SSTORE PUSH1 0x3 TIMESTAMP SWAP2 ADD SSTORE CALLER SWAP1 PUSH32 0x32F77B843A5CC848407FFB1E918C51FD6982FBFD1ADF0B60F45C6D7BB54068A PUSH1 0x0 DUP1 LOG3 STOP JUMPDEST PUSH1 0x40 MLOAD PUSH3 0x461BCD PUSH1 0xE5 SHL DUP2 MSTORE PUSH1 0x20 PUSH1 0x4 DUP3 ADD MSTORE PUSH1 0x11 PUSH1 0x24 DUP3 ADD MSTORE PUSH17 0x105B1C9958591E4818DBDB5C1B195D1959 PUSH1 0x7A SHL PUSH1 0x44 DUP3 ADD MSTORE PUSH1 0x64 SWAP1 REVERT JUMPDEST CALLVALUE PUSH2 0x180 JUMPI PUSH1 0x40 CALLDATASIZE PUSH1 0x3 NOT ADD SLT PUSH2 0x180 JUMPI PUSH8 0xFFFFFFFFFFFFFFFF PUSH1 0x4 CALLDATALOAD DUP2 DUP2 GT PUSH2 0x180 JUMPI PUSH2 0xA6C SWAP1 CALLDATASIZE SWAP1 PUSH1 0x4 ADD PUSH2 0x17AF JUMP JUMPDEST SWAP1 SWAP2 PUSH2 0xAA2 CALLER PUSH32 0x0 PUSH1 0x1 PUSH1 0x1 PUSH1 0xA0 SHL SUB AND EQ PUSH2 0x194B JUMP JUMPDEST PUSH1 0xFF PUSH1 0x5 SLOAD AND PUSH1 0x7 DUP2 LT ISZERO PUSH2 0x311 JUMPI PUSH1 0x1 PUSH2 0xABD SWAP2 EQ PUSH2 0x1987 JUMP JUMPDEST PUSH1 0x8 SLOAD PUSH1 0x24 CALLDATALOAD GT PUSH2 0xD3E JUMPI PUSH1 0x40 MLOAD PUSH2 0xAD4 DUP2 PUSH2 0x1817 JUMP JUMPDEST PUSH2 0xADD DUP4 PUSH2 0x19C0 JUMP JUMPDEST PUSH2 0xAEA PUSH1 0x40 MLOAD SWAP2 DUP3 PUSH2 0x1833 JUMP JUMPDEST DUP4 DUP2 MSTORE CALLDATASIZE DUP5 DUP7 ADD GT PUSH2 0x180 JUMPI DUP4 DUP6 PUSH1 0x20 DUP4 ADD CALLDATACOPY PUSH1 0x0 PUSH1 0x20 DUP6 DUP4 ADD ADD MSTORE DUP2 MSTORE PUSH1 0x24 CALLDATALOAD PUSH1 0x20 DUP3 ADD MSTORE PUSH1 0x0 PUSH1 0x40 DUP3 ADD MSTORE PUSH1 0x0 PUSH1 0x60 DUP3 ADD MSTORE PUSH1 0x0 PUSH1 0x80 DUP3 ADD MSTORE PUSH1 0x6 SLOAD PUSH9 0x10000000000000000 DUP2 LT ISZERO PUSH2 0xD12 JUMPI DUP1 PUSH1 0x1 PUSH2 0xB49 SWAP3 ADD PUSH1 0x6 SSTORE PUSH2 0x18FB JUMP JUMPDEST SWAP3 SWAP1 SWAP3 PUSH2 0xD28 JUMPI DUP2 MLOAD DUP1 MLOAD SWAP2 DUP3 GT PUSH2 0xD12 JUMPI PUSH2 0xB65 DUP5 SLOAD PUSH2 0x17DD JUMP JUMPDEST PUSH1 0x1F DUP2 GT PUSH2 0xCCE JUMPI JUMPDEST POP PUSH1 0x20 SWAP1 PUSH1 0x1F DUP4 GT PUSH1 0x1 EQ PUSH2 0xC62 JUMPI SWAP2 DUP1 PUSH1 0x3 SWAP5 SWAP3 PUSH1 0x80 SWAP5 PUSH1 0x0 SWAP3 PUSH2 0xC57 JUMPI JUMPDEST POP POP DUP2 PUSH1 0x1 SHL SWAP2 PUSH1 0x0 NOT SWAP1 DUP7 SHL SHR NOT AND OR DUP5 SSTORE JUMPDEST PUSH1 0x20 DUP2 ADD MLOAD PUSH1 0x1 DUP6 ADD SSTORE PUSH1 0x2 DUP5 ADD PUSH1 0x40 DUP3 ADD MLOAD ISZERO ISZERO DUP2 SLOAD PUSH1 0xFF PUSH2 0xFF00 PUSH1 0x60 DUP7 ADD MLOAD ISZERO ISZERO PUSH1 0x8 SHL AND SWAP3 AND SWAP1 PUSH2 0xFFFF NOT AND OR OR SWAP1 SSTORE ADD MLOAD SWAP2 ADD SSTORE PUSH2 0xBE8 PUSH1 0x24 CALLDATALOAD PUSH1 0x7 SLOAD PUSH2 0x19DC JUMP JUMPDEST PUSH1 0x7 SSTORE PUSH1 0x6 SLOAD PUSH1 0x0 NOT DUP2 ADD SWAP3 SWAP1 DUP4 GT PUSH2 0xC41 JUMPI PUSH32 0xBF293DB00F4DE65B181A066ECC2F8BB81FB7174B517FD8085700E259AD00DB1B SWAP2 PUSH2 0xC34 PUSH1 0x40 MLOAD SWAP3 DUP4 SWAP3 PUSH1 0x40 DUP5 MSTORE PUSH1 0x40 DUP5 ADD SWAP2 PUSH2 0x19F6 JUMP JUMPDEST PUSH1 0x24 CALLDATALOAD PUSH1 0x20 DUP4 ADD MSTORE SUB SWAP1 LOG2 STOP JUMPDEST PUSH4 0x4E487B71 PUSH1 0xE0 SHL PUSH1 0x0 MSTORE PUSH1 0x11 PUSH1 0x4 MSTORE PUSH1 0x24 PUSH1 0x0 REVERT JUMPDEST ADD MLOAD SWAP1 POP DUP9 DUP1 PUSH2 0xB8E JUMP JUMPDEST SWAP1 PUSH1 0x1F NOT DUP4 AND SWAP2 DUP6 PUSH1 0x0 MSTORE PUSH1 0x20 PUSH1 0x0 KECCAK256 SWAP3 PUSH1 0x0 JUMPDEST DUP2 DUP2 LT PUSH2 0xCB6 JUMPI POP SWAP3 PUSH1 0x1 SWAP3 DUP6 SWAP3 PUSH1 0x80 SWAP7 PUSH1 0x3 SWAP9 SWAP7 LT PUSH2 0xC9E JUMPI JUMPDEST POP POP POP DUP2 SHL ADD DUP5 SSTORE PUSH2 0xBA2 JUMP JUMPDEST ADD MLOAD PUSH1 0x0 NOT DUP4 DUP9 SHL PUSH1 0xF8 AND SHR NOT AND SWAP1 SSTORE DUP9 DUP1 DUP1 PUSH2 0xC91 JUMP JUMPDEST SWAP3 SWAP4 PUSH1 0x20 PUSH1 0x1 DUP2 SWAP3 DUP8 DUP7 ADD MLOAD DUP2 SSTORE ADD SWAP6 ADD SWAP4 ADD PUSH2 0xC76 JUMP JUMPDEST DUP5 PUSH1 0x0 MSTORE PUSH1 0x20 PUSH1 0x0 KECCAK256 PUSH1 0x1F DUP5 ADD PUSH1 0x5 SHR DUP2 ADD PUSH1 0x20 DUP6 LT PUSH2 0xD0B JUMPI JUMPDEST PUSH1 0x1F DUP4 ADD PUSH1 0x5 SHR DUP3 ADD DUP2 LT PUSH2 0xCFF JUMPI POP POP PUSH2 0xB6E JUMP JUMPDEST PUSH1 0x0 DUP2 SSTORE PUSH1 0x1 ADD PUSH2 0xCE9 JUMP JUMPDEST POP DUP1 PUSH2 0xCE9 JUMP JUMPDEST PUSH4 0x4E487B71 PUSH1 0xE0 SHL PUSH1 0x0 MSTORE PUSH1 0x41 PUSH1 0x4 MSTORE PUSH1 0x24 PUSH1 0x0 REVERT JUMPDEST PUSH4 0x4E487B71 PUSH1 0xE0 SHL PUSH1 0x0 MSTORE PUSH1 0x0 PUSH1 0x4 MSTORE PUSH1 0x24 PUSH1 0x0 REVERT JUMPDEST PUSH1 0x40 MLOAD PUSH3 0x461BCD PUSH1 0xE5 SHL DUP2 MSTORE PUSH1 0x20 PUSH1 0x4 DUP3 ADD MSTORE PUSH1 0x14 PUSH1 0x24 DUP3 ADD MSTORE PUSH20 0x496E73756666696369656E742062616C616E6365 PUSH1 0x60 SHL PUSH1 0x44 DUP3 ADD MSTORE PUSH1 0x64 SWAP1 REVERT JUMPDEST CALLVALUE PUSH2 0x180 JUMPI PUSH1 0x0 CALLDATASIZE PUSH1 0x3 NOT ADD SLT PUSH2 0x180 JUMPI PUSH32 0x0 PUSH1 0x1 PUSH1 0x1 PUSH1 0xA0 SHL SUB AND CALLER DUP2 SWAP1 SUB PUSH2 0xEAC JUMPI PUSH1 0xFF PUSH1 0x5 SLOAD AND PUSH1 0x7 DUP2 LT ISZERO PUSH2 0x311 JUMPI PUSH2 0xE79 JUMPI PUSH1 0x3 SLOAD TIMESTAMP LT ISZERO PUSH2 0xE4A JUMPI DUP1 PUSH1 0x0 MSTORE PUSH1 0xB PUSH1 0x20 MSTORE PUSH1 0x1 PUSH1 0x40 PUSH1 0x0 KECCAK256 PUSH1 0xFF NOT SWAP1 DUP3 DUP3 DUP3 SLOAD AND OR SWAP1 SSTORE PUSH1 0x5 SLOAD AND OR PUSH1 0x5 SSTORE PUSH32 0x9F4A87E77DBAF5B55D5E6F62125B58988C5BEFB44FB876196DD62FFCA1362F21 PUSH1 0x0 DUP1 LOG2 PUSH32 0x47C82A599A82344A17A0B9FEFDA032175048E76D1D1BDF41E8BC686480FF204C PUSH1 0x0 DUP1 LOG1 STOP JUMPDEST PUSH1 0x40 MLOAD PUSH3 0x461BCD PUSH1 0xE5 SHL DUP2 MSTORE PUSH1 0x20 PUSH1 0x4 DUP3 ADD MSTORE PUSH1 0x7 PUSH1 0x24 DUP3 ADD MSTORE PUSH7 0x115E1C1A5C9959 PUSH1 0xCA SHL PUSH1 0x44 DUP3 ADD MSTORE PUSH1 0x64 SWAP1 REVERT JUMPDEST PUSH1 0x40 MLOAD PUSH3 0x461BCD PUSH1 0xE5 SHL DUP2 MSTORE PUSH1 0x20 PUSH1 0x4 DUP3 ADD MSTORE PUSH1 0xB PUSH1 0x24 DUP3 ADD MSTORE PUSH11 0x4E6F742070656E64696E67 PUSH1 0xA8 SHL PUSH1 0x44 DUP3 ADD MSTORE PUSH1 0x64 SWAP1 REVERT JUMPDEST PUSH1 0x40 MLOAD PUSH3 0x461BCD PUSH1 0xE5 SHL DUP2 MSTORE PUSH1 0x20 PUSH1 0x4 DUP3 ADD MSTORE PUSH1 0x10 PUSH1 0x24 DUP3 ADD MSTORE PUSH16 0x4E6F7420636F756E7465727061727479 PUSH1 0x80 SHL PUSH1 0x44 DUP3 ADD MSTORE PUSH1 0x64 SWAP1 REVERT JUMPDEST CALLVALUE PUSH2 0x180 JUMPI PUSH1 0x0 CALLDATASIZE PUSH1 0x3 NOT ADD SLT PUSH2 0x180 JUMPI PUSH1 0x40 MLOAD PUSH1 0x0 PUSH1 0xE SLOAD PUSH2 0xF06 DUP2 PUSH2 0x17DD JUMP JUMPDEST DUP1 DUP5 MSTORE SWAP1 PUSH1 0x1 SWAP1 DUP2 DUP2 AND SWAP1 DUP2 ISZERO PUSH2 0xFA3 JUMPI POP PUSH1 0x1 EQ PUSH2 0xF48 JUMPI JUMPDEST PUSH2 0xF44 DUP5 PUSH2 0xF30 DUP2 DUP7 SUB DUP3 PUSH2 0x1833 JUMP JUMPDEST PUSH1 0x40 MLOAD SWAP2 DUP3 SWAP2 PUSH1 0x20 DUP4 MSTORE PUSH1 0x20 DUP4 ADD SWAP1 PUSH2 0x176F JUMP JUMPDEST SUB SWAP1 RETURN JUMPDEST PUSH1 0xE PUSH1 0x0 SWAP1 DUP2 MSTORE SWAP3 POP PUSH32 0xBB7B4A454DC3493923482F07822329ED19E8244EFF582CC204F8554C3620C3FD JUMPDEST DUP3 DUP5 LT PUSH2 0xF8B JUMPI POP POP POP DUP2 ADD PUSH1 0x20 ADD PUSH2 0xF30 DUP3 PUSH2 0xF20 JUMP JUMPDEST DUP1 SLOAD PUSH1 0x20 DUP6 DUP8 ADD DUP2 ADD SWAP2 SWAP1 SWAP2 MSTORE SWAP1 SWAP4 ADD SWAP3 DUP2 ADD PUSH2 0xF73 JUMP JUMPDEST PUSH1 0xFF NOT AND PUSH1 0x20 DUP1 DUP8 ADD SWAP2 SWAP1 SWAP2 MSTORE SWAP3 ISZERO ISZERO PUSH1 0x5 SHL DUP6 ADD SWAP1 SWAP3 ADD SWAP3 POP PUSH2 0xF30 SWAP2 POP DUP4 SWAP1 POP PUSH2 0xF20 JUMP JUMPDEST CALLVALUE PUSH2 0x180 JUMPI PUSH1 0x20 DUP1 PUSH1 0x3 NOT CALLDATASIZE ADD SLT PUSH2 0x180 JUMPI PUSH8 0xFFFFFFFFFFFFFFFF PUSH1 0x4 CALLDATALOAD DUP2 DUP2 GT PUSH2 0x180 JUMPI PUSH2 0xFFD SWAP1 CALLDATASIZE SWAP1 PUSH1 0x4 ADD PUSH2 0x17AF JUMP JUMPDEST PUSH2 0x1039 PUSH1 0x1 DUP1 PUSH1 0xA0 SHL SUB DUP1 PUSH32 0x0 AND CALLER EQ SWAP1 DUP2 ISZERO PUSH2 0x123B JUMPI POP PUSH2 0x1A87 JUMP JUMPDEST PUSH1 0x5 SLOAD SWAP3 PUSH1 0xFF DUP5 AND SWAP4 PUSH1 0x7 DUP6 LT ISZERO PUSH2 0x311 JUMPI PUSH1 0x1 SWAP5 DUP6 DUP2 EQ SWAP1 DUP2 ISZERO PUSH2 0x1232 JUMPI JUMPDEST POP ISZERO PUSH2 0x11FC JUMPI PUSH1 0xFF NOT AND PUSH1 0x3 OR PUSH1 0x5 SSTORE DUP2 GT PUSH2 0xD12 JUMPI PUSH2 0x107A PUSH1 0xE SLOAD PUSH2 0x17DD JUMP JUMPDEST PUSH1 0x1F DUP2 GT PUSH2 0x1195 JUMPI JUMPDEST POP PUSH1 0x0 SWAP3 PUSH1 0x1F DUP3 GT PUSH1 0x1 EQ PUSH2 0x10F6 JUMPI DUP2 DUP1 SWAP2 PUSH32 0x28B099EB575E23E32BECD7C30DC8F9B2F98E370CDBF9841EA3338D9000402A25 SWAP6 PUSH1 0x0 SWAP4 PUSH2 0x10EB JUMPI JUMPDEST POP SHL SWAP1 PUSH1 0x0 NOT DUP4 PUSH1 0x3 SHL SHR NOT AND OR PUSH1 0xE SSTORE JUMPDEST TIMESTAMP PUSH1 0xF SSTORE PUSH2 0x8CF PUSH1 0x40 MLOAD SWAP3 DUP4 SWAP3 DUP7 DUP5 MSTORE CALLER SWAP7 DUP5 ADD SWAP2 PUSH2 0x19F6 JUMP JUMPDEST DUP6 ADD CALLDATALOAD SWAP3 POP DUP8 PUSH2 0x10BF JUMP JUMPDEST PUSH1 0x1F NOT DUP3 AND SWAP4 PUSH1 0xE PUSH1 0x0 MSTORE PUSH32 0xBB7B4A454DC3493923482F07822329ED19E8244EFF582CC204F8554C3620C3FD SWAP1 PUSH1 0x0 JUMPDEST DUP8 DUP8 DUP3 LT PUSH2 0x1181 JUMPI POP POP DUP4 PUSH32 0x28B099EB575E23E32BECD7C30DC8F9B2F98E370CDBF9841EA3338D9000402A25 SWAP7 LT PUSH2 0x1167 JUMPI JUMPDEST POP POP DUP2 DUP2 SHL ADD PUSH1 0xE SSTORE PUSH2 0x10D1 JUMP JUMPDEST DUP5 ADD CALLDATALOAD PUSH1 0x0 NOT PUSH1 0x3 DUP6 SWAP1 SHL PUSH1 0xF8 AND SHR NOT AND SWAP1 SSTORE DUP6 DUP1 PUSH2 0x1159 JUMP JUMPDEST DUP7 DUP4 ADD CALLDATALOAD DUP5 SSTORE SWAP3 DUP5 ADD SWAP3 SWAP2 DUP3 ADD SWAP2 ADD PUSH2 0x1126 JUMP JUMPDEST PUSH1 0xE PUSH1 0x0 MSTORE PUSH32 0xBB7B4A454DC3493923482F07822329ED19E8244EFF582CC204F8554C3620C3FD PUSH1 0x1F DUP4 ADD PUSH1 0x5 SHR DUP2 ADD SWAP2 DUP7 DUP5 LT PUSH2 0x11F2 JUMPI JUMPDEST PUSH1 0x1F ADD PUSH1 0x5 SHR ADD SWAP1 DUP5 SWAP1 JUMPDEST DUP3 DUP2 LT PUSH2 0x11E6 JUMPI POP POP PUSH2 0x1083 JUMP JUMPDEST PUSH1 0x0 DUP2 SSTORE ADD DUP5 SWAP1 PUSH2 0x11D8 JUMP JUMPDEST SWAP1 SWAP2 POP DUP2 SWAP1 PUSH2 0x11CD JUMP JUMPDEST PUSH1 0x40 MLOAD PUSH3 0x461BCD PUSH1 0xE5 SHL DUP2 MSTORE PUSH1 0x4 DUP2 ADD DUP8 SWAP1 MSTORE PUSH1 0xE PUSH1 0x24 DUP3 ADD MSTORE PUSH14 0x43616E6E6F742064697370757465 PUSH1 0x90 SHL PUSH1 0x44 DUP3 ADD MSTORE PUSH1 0x64 SWAP1 REVERT JUMPDEST SWAP1 POP ISZERO DUP8 PUSH2 0x1059 JUMP JUMPDEST SWAP1 POP PUSH32 0x0 AND CALLER EQ DUP7 PUSH2 0x851 JUMP JUMPDEST CALLVALUE PUSH2 0x180 JUMPI PUSH1 0x20 DUP1 PUSH1 0x3 NOT CALLDATASIZE ADD SLT PUSH2 0x180 JUMPI PUSH1 0x4 CALLDATALOAD SWAP1 PUSH1 0x1 PUSH1 0x1 PUSH1 0xA0 SHL SUB PUSH2 0x12B2 CALLER PUSH32 0x0 DUP4 AND EQ PUSH2 0x194B JUMP JUMPDEST PUSH1 0xFF PUSH1 0x5 SLOAD AND PUSH1 0x7 DUP2 LT ISZERO PUSH2 0x311 JUMPI PUSH1 0x1 PUSH2 0x12CD SWAP2 EQ PUSH2 0x1987 JUMP JUMPDEST PUSH2 0x12DA PUSH1 0x6 SLOAD DUP5 LT PUSH2 0x1A17 JUMP JUMPDEST PUSH2 0x12E3 DUP4 PUSH2 0x18FB JUMP JUMPDEST POP PUSH1 0x2 DUP2 ADD DUP1 SLOAD PUSH1 0xFF DUP2 AND ISZERO PUSH2 0x14A4 JUMPI PUSH1 0xFF DUP2 PUSH1 0x8 SHR AND PUSH2 0x1470 JUMPI PUSH2 0xFF00 NOT AND PUSH2 0x100 OR SWAP1 SSTORE PUSH1 0x1 ADD DUP1 SLOAD PUSH1 0x8 SLOAD PUSH2 0x131B SWAP2 SWAP1 PUSH2 0x19E9 JUMP JUMPDEST PUSH1 0x8 SSTORE SLOAD PUSH1 0xA SLOAD DUP1 DUP3 MUL SWAP1 DUP3 DUP3 DIV EQ DUP3 ISZERO OR ISZERO PUSH2 0xC41 JUMPI PUSH1 0x0 DUP1 DUP1 SWAP4 PUSH2 0x1347 PUSH2 0x2710 DUP4 SWAP6 DIV DUP1 SWAP3 PUSH2 0x19E9 JUMP JUMPDEST SWAP6 PUSH1 0x9 SLOAD AND GAS CALL PUSH2 0x1356 PUSH2 0x1A57 JUMP JUMPDEST POP ISZERO PUSH2 0x1435 JUMPI PUSH1 0x0 DUP1 DUP1 DUP1 DUP5 PUSH32 0x0 GAS CALL PUSH2 0x138D PUSH2 0x1A57 JUMP JUMPDEST POP ISZERO PUSH2 0x13FF JUMPI SWAP1 PUSH32 0x3AF368126E502ABC57FE61217A2E2FFC37E0753A9BC218AB9976A49A996E4449 SWAP2 PUSH1 0x40 MLOAD SWAP1 DUP2 MSTORE LOG2 PUSH2 0x13C5 PUSH2 0x1B1C JUMP JUMPDEST PUSH2 0x13CB JUMPI STOP JUMPDEST PUSH1 0x2 PUSH1 0xFF NOT PUSH1 0x5 SLOAD AND OR PUSH1 0x5 SSTORE PUSH32 0xBF1804DB3AF6B11F9D3CADCF0C65DF2BAD3A56D93C275062FDC655BEDF351F77 PUSH1 0x0 DUP1 LOG1 STOP JUMPDEST PUSH1 0x40 MLOAD PUSH3 0x461BCD PUSH1 0xE5 SHL DUP2 MSTORE PUSH1 0x4 DUP2 ADD DUP4 SWAP1 MSTORE PUSH1 0xE PUSH1 0x24 DUP3 ADD MSTORE PUSH14 0x14185E5B595B9D0819985A5B1959 PUSH1 0x92 SHL PUSH1 0x44 DUP3 ADD MSTORE PUSH1 0x64 SWAP1 REVERT JUMPDEST PUSH1 0x40 MLOAD PUSH3 0x461BCD PUSH1 0xE5 SHL DUP2 MSTORE PUSH1 0x4 DUP2 ADD DUP4 SWAP1 MSTORE PUSH1 0x13 PUSH1 0x24 DUP3 ADD MSTORE PUSH19 0x119959481D1C985B9CD9995C8819985A5B1959 PUSH1 0x6A SHL PUSH1 0x44 DUP3 ADD MSTORE PUSH1 0x64 SWAP1 REVERT JUMPDEST PUSH1 0x40 MLOAD PUSH3 0x461BCD PUSH1 0xE5 SHL DUP2 MSTORE PUSH1 0x4 DUP2 ADD DUP7 SWAP1 MSTORE PUSH1 0xC PUSH1 0x24 DUP3 ADD MSTORE PUSH12 0x105B1C9958591E481C185A59 PUSH1 0xA2 SHL PUSH1 0x44 DUP3 ADD MSTORE PUSH1 0x64 SWAP1 REVERT JUMPDEST PUSH1 0x40 MLOAD PUSH3 0x461BCD PUSH1 0xE5 SHL DUP2 MSTORE PUSH1 0x4 DUP2 ADD DUP7 SWAP1 MSTORE PUSH1 0xD PUSH1 0x24 DUP3 ADD MSTORE PUSH13 0x139BDD0818DBDB5C1B195D1959 PUSH1 0x9A SHL PUSH1 0x44 DUP3 ADD MSTORE PUSH1 0x64 SWAP1 REVERT JUMPDEST CALLVALUE PUSH2 0x180 JUMPI PUSH1 0x20 CALLDATASIZE PUSH1 0x3 NOT ADD SLT PUSH2 0x180 JUMPI PUSH1 0x4 CALLDATALOAD PUSH1 0x1 PUSH1 0x1 PUSH1 0xA0 SHL SUB DUP2 AND SWAP1 DUP2 SWAP1 SUB PUSH2 0x180 JUMPI PUSH1 0x0 MSTORE PUSH1 0xB PUSH1 0x20 MSTORE PUSH1 0x20 PUSH1 0xFF PUSH1 0x40 PUSH1 0x0 KECCAK256 SLOAD AND PUSH1 0x40 MLOAD SWAP1 ISZERO ISZERO DUP2 MSTORE RETURN JUMPDEST CALLVALUE PUSH2 0x180 JUMPI PUSH1 0x0 CALLDATASIZE PUSH1 0x3 NOT ADD SLT PUSH2 0x180 JUMPI PUSH1 0x40 MLOAD PUSH32 0x0 PUSH1 0x1 PUSH1 0x1 PUSH1 0xA0 SHL SUB AND DUP2 MSTORE PUSH1 0x20 SWAP1 RETURN JUMPDEST CALLVALUE PUSH2 0x180 JUMPI PUSH1 0x0 CALLDATASIZE PUSH1 0x3 NOT ADD SLT PUSH2 0x180 JUMPI PUSH1 0x20 PUSH1 0x7 SLOAD PUSH1 0x40 MLOAD SWAP1 DUP2 MSTORE RETURN JUMPDEST CALLVALUE PUSH2 0x180 JUMPI PUSH1 0x0 CALLDATASIZE PUSH1 0x3 NOT ADD SLT PUSH2 0x180 JUMPI PUSH1 0x9 SLOAD PUSH1 0x40 MLOAD PUSH1 0x1 PUSH1 0x1 PUSH1 0xA0 SHL SUB SWAP1 SWAP2 AND DUP2 MSTORE PUSH1 0x20 SWAP1 RETURN JUMPDEST CALLVALUE PUSH2 0x180 JUMPI PUSH1 0x20 CALLDATASIZE PUSH1 0x3 NOT ADD SLT PUSH2 0x180 JUMPI PUSH1 0x4 CALLDATALOAD PUSH1 0x1 PUSH1 0x1 PUSH1 0xA0 SHL SUB DUP2 AND SWAP1 DUP2 SWAP1 SUB PUSH2 0x180 JUMPI PUSH1 0x0 MSTORE PUSH1 0xC PUSH1 0x20 MSTORE PUSH1 0x20 PUSH1 0x40 PUSH1 0x0 KECCAK256 SLOAD PUSH1 0x40 MLOAD SWAP1 DUP2 MSTORE RETURN JUMPDEST CALLVALUE PUSH2 0x180 JUMPI PUSH1 0x0 CALLDATASIZE PUSH1 0x3 NOT ADD SLT PUSH2 0x180 JUMPI PUSH1 0x20 PUSH1 0xA SLOAD PUSH1 0x40 MLOAD SWAP1 DUP2 MSTORE RETURN JUMPDEST CALLVALUE PUSH2 0x180 JUMPI PUSH1 0x20 DUP1 PUSH1 0x3 NOT CALLDATASIZE ADD SLT PUSH2 0x180 JUMPI PUSH1 0x4 CALLDATALOAD SWAP1 PUSH1 0x0 PUSH1 0x80 PUSH1 0x40 MLOAD PUSH2 0x162A DUP2 PUSH2 0x1817 JUMP JUMPDEST PUSH1 0x60 DUP2 MSTORE DUP3 DUP5 DUP3 ADD MSTORE DUP3 PUSH1 0x40 DUP3 ADD MSTORE DUP3 PUSH1 0x60 DUP3 ADD MSTORE ADD MSTORE PUSH1 0x6 SLOAD DUP3 LT ISZERO PUSH2 0x16E5 JUMPI PUSH2 0x1656 PUSH1 0xA0 SWAP3 PUSH2 0x18FB JUMP JUMPDEST POP PUSH1 0x40 MLOAD SWAP2 PUSH2 0x1664 DUP4 PUSH2 0x1817 JUMP JUMPDEST PUSH2 0x166D DUP3 PUSH2 0x1855 JUMP JUMPDEST DUP4 MSTORE PUSH1 0x1 DUP3 ADD SLOAD SWAP2 DUP2 DUP5 ADD SWAP3 DUP4 MSTORE PUSH1 0x2 DUP2 ADD SLOAD SWAP1 PUSH2 0x16C4 PUSH1 0x3 PUSH1 0x40 DUP8 ADD SWAP3 PUSH1 0xFF DUP6 AND ISZERO ISZERO DUP5 MSTORE PUSH1 0xFF PUSH1 0x60 DUP10 ADD SWAP6 PUSH1 0x8 SHR AND ISZERO ISZERO DUP6 MSTORE ADD SLOAD SWAP4 PUSH1 0x80 DUP8 ADD SWAP5 DUP6 MSTORE PUSH1 0x40 MLOAD SWAP8 DUP9 SWAP8 DUP3 DUP10 MSTORE MLOAD SWAP2 DUP9 ADD MSTORE PUSH1 0xC0 DUP8 ADD SWAP1 PUSH2 0x176F JUMP JUMPDEST SWAP4 MLOAD PUSH1 0x40 DUP7 ADD MSTORE MLOAD ISZERO ISZERO PUSH1 0x60 DUP6 ADD MSTORE MLOAD ISZERO ISZERO PUSH1 0x80 DUP5 ADD MSTORE MLOAD PUSH1 0xA0 DUP4 ADD MSTORE SUB SWAP1 RETURN JUMPDEST PUSH1 0x64 SWAP1 PUSH1 0x40 MLOAD SWAP1 PUSH3 0x461BCD PUSH1 0xE5 SHL DUP3 MSTORE PUSH1 0x4 DUP3 ADD MSTORE PUSH1 0xD PUSH1 0x24 DUP3 ADD MSTORE PUSH13 0x92DCECC2D8D2C840D2DCC8CAF PUSH1 0x9B SHL PUSH1 0x44 DUP3 ADD MSTORE REVERT JUMPDEST CALLVALUE PUSH2 0x180 JUMPI PUSH1 0x0 CALLDATASIZE PUSH1 0x3 NOT ADD SLT PUSH2 0x180 JUMPI PUSH1 0xFF PUSH1 0x5 SLOAD AND PUSH1 0x7 DUP2 LT ISZERO PUSH2 0x311 JUMPI PUSH1 0x20 SWAP1 PUSH1 0x1 PUSH1 0x40 MLOAD SWAP2 EQ DUP2 MSTORE RETURN JUMPDEST CALLVALUE PUSH2 0x180 JUMPI PUSH1 0x0 CALLDATASIZE PUSH1 0x3 NOT ADD SLT PUSH2 0x180 JUMPI PUSH1 0xFF PUSH1 0x5 SLOAD AND SWAP1 PUSH1 0x7 DUP3 LT ISZERO PUSH2 0x311 JUMPI PUSH1 0x20 SWAP2 DUP2 MSTORE RETURN JUMPDEST SWAP2 SWAP1 DUP3 MLOAD SWAP3 DUP4 DUP3 MSTORE PUSH1 0x0 JUMPDEST DUP5 DUP2 LT PUSH2 0x179B JUMPI POP POP DUP3 PUSH1 0x0 PUSH1 0x20 DUP1 SWAP5 SWAP6 DUP5 ADD ADD MSTORE PUSH1 0x1F DUP1 NOT SWAP2 ADD AND ADD ADD SWAP1 JUMP JUMPDEST PUSH1 0x20 DUP2 DUP4 ADD DUP2 ADD MLOAD DUP5 DUP4 ADD DUP3 ADD MSTORE ADD PUSH2 0x177A JUMP JUMPDEST SWAP2 DUP2 PUSH1 0x1F DUP5 ADD SLT ISZERO PUSH2 0x180 JUMPI DUP3 CALLDATALOAD SWAP2 PUSH8 0xFFFFFFFFFFFFFFFF DUP4 GT PUSH2 0x180 JUMPI PUSH1 0x20 DUP4 DUP2 DUP7 ADD SWAP6 ADD ADD GT PUSH2 0x180 JUMPI JUMP JUMPDEST SWAP1 PUSH1 0x1 DUP3 DUP2 SHR SWAP3 AND DUP1 ISZERO PUSH2 0x180D JUMPI JUMPDEST PUSH1 0x20 DUP4 LT EQ PUSH2 0x17F7 JUMPI JUMP JUMPDEST PUSH4 0x4E487B71 PUSH1 0xE0 SHL PUSH1 0x0 MSTORE PUSH1 0x22 PUSH1 0x4 MSTORE PUSH1 0x24 PUSH1 0x0 REVERT JUMPDEST SWAP2 PUSH1 0x7F AND SWAP2 PUSH2 0x17EC JUMP JUMPDEST PUSH1 0xA0 DUP2 ADD SWAP1 DUP2 LT PUSH8 0xFFFFFFFFFFFFFFFF DUP3 GT OR PUSH2 0xD12 JUMPI PUSH1 0x40 MSTORE JUMP JUMPDEST SWAP1 PUSH1 0x1F DUP1 NOT SWAP2 ADD AND DUP2 ADD SWAP1 DUP2 LT PUSH8 0xFFFFFFFFFFFFFFFF DUP3 GT OR PUSH2 0xD12 JUMPI PUSH1 0x40 MSTORE JUMP JUMPDEST SWAP1 PUSH1 0x40 MLOAD SWAP2 DUP3 PUSH1 0x0 DUP3 SLOAD SWAP3 PUSH2 0x1869 DUP5 PUSH2 0x17DD JUMP JUMPDEST SWAP1 DUP2 DUP5 MSTORE PUSH1 0x1 SWAP5 DUP6 DUP2 AND SWAP1 DUP2 PUSH1 0x0 EQ PUSH2 0x18D8 JUMPI POP PUSH1 0x1 EQ PUSH2 0x1895 JUMPI JUMPDEST POP POP PUSH2 0x1893 SWAP3 POP SUB DUP4 PUSH2 0x1833 JUMP JUMPDEST JUMP JUMPDEST SWAP1 SWAP4 SWAP2 POP PUSH1 0x0 MSTORE PUSH1 0x20 SWAP1 DUP2 PUSH1 0x0 KECCAK256 SWAP4 PUSH1 0x0 SWAP2 JUMPDEST DUP2 DUP4 LT PUSH2 0x18C0 JUMPI POP POP PUSH2 0x1893 SWAP4 POP DUP3 ADD ADD CODESIZE DUP1 PUSH2 0x1885 JUMP JUMPDEST DUP6 SLOAD DUP9 DUP5 ADD DUP6 ADD MSTORE SWAP5 DUP6 ADD SWAP5 DUP8 SWAP5 POP SWAP2 DUP4 ADD SWAP2 PUSH2 0x18A8 JUMP JUMPDEST SWAP2 POP POP PUSH2 0x1893 SWAP5 POP PUSH1 0x20 SWAP3 POP PUSH1 0xFF NOT AND DUP3 DUP5 ADD MSTORE ISZERO ISZERO PUSH1 0x5 SHL DUP3 ADD ADD CODESIZE DUP1 PUSH2 0x1885 JUMP JUMPDEST PUSH1 0x6 SLOAD DUP2 LT ISZERO PUSH2 0x1935 JUMPI PUSH1 0x6 PUSH1 0x0 MSTORE PUSH1 0x2 SHL PUSH32 0xF652222313E28459528D920B65115C16C04F3EFC82AAEDC97BE59F3F377C0D3F ADD SWAP1 PUSH1 0x0 SWAP1 JUMP JUMPDEST PUSH4 0x4E487B71 PUSH1 0xE0 SHL PUSH1 0x0 MSTORE PUSH1 0x32 PUSH1 0x4 MSTORE PUSH1 0x24 PUSH1 0x0 REVERT JUMPDEST ISZERO PUSH2 0x1952 JUMPI JUMP JUMPDEST PUSH1 0x40 MLOAD PUSH3 0x461BCD PUSH1 0xE5 SHL DUP2 MSTORE PUSH1 0x20 PUSH1 0x4 DUP3 ADD MSTORE PUSH1 0xD PUSH1 0x24 DUP3 ADD MSTORE PUSH13 0x2737BA1034B734BA34B0BA37B9 PUSH1 0x99 SHL PUSH1 0x44 DUP3 ADD MSTORE PUSH1 0x64 SWAP1 REVERT JUMPDEST ISZERO PUSH2 0x198E JUMPI JUMP JUMPDEST PUSH1 0x40 MLOAD PUSH3 0x461BCD PUSH1 0xE5 SHL DUP2 MSTORE PUSH1 0x20 PUSH1 0x4 DUP3 ADD MSTORE PUSH1 0xA PUSH1 0x24 DUP3 ADD MSTORE PUSH10 0x4E6F7420616374697665 PUSH1 0xB0 SHL PUSH1 0x44 DUP3 ADD MSTORE PUSH1 0x64 SWAP1 REVERT JUMPDEST PUSH8 0xFFFFFFFFFFFFFFFF DUP2 GT PUSH2 0xD12 JUMPI PUSH1 0x1F ADD PUSH1 0x1F NOT AND PUSH1 0x20 ADD SWAP1 JUMP JUMPDEST SWAP2 SWAP1 DUP3 ADD DUP1 SWAP3 GT PUSH2 0xC41 JUMPI JUMP JUMPDEST SWAP2 SWAP1 DUP3 SUB SWAP2 DUP3 GT PUSH2 0xC41 JUMPI JUMP JUMPDEST SWAP1 DUP1 PUSH1 0x20 SWAP4 SWAP3 DUP2 DUP5 MSTORE DUP5 DUP5 ADD CALLDATACOPY PUSH1 0x0 DUP3 DUP3 ADD DUP5 ADD MSTORE PUSH1 0x1F ADD PUSH1 0x1F NOT AND ADD ADD SWAP1 JUMP JUMPDEST ISZERO PUSH2 0x1A1E JUMPI JUMP JUMPDEST PUSH1 0x40 MLOAD PUSH3 0x461BCD PUSH1 0xE5 SHL DUP2 MSTORE PUSH1 0x20 PUSH1 0x4 DUP3 ADD MSTORE PUSH1 0x11 PUSH1 0x24 DUP3 ADD MSTORE PUSH17 0x496E76616C6964206D696C6573746F6E65 PUSH1 0x78 SHL PUSH1 0x44 DUP3 ADD MSTORE PUSH1 0x64 SWAP1 REVERT JUMPDEST RETURNDATASIZE ISZERO PUSH2 0x1A82 JUMPI RETURNDATASIZE SWAP1 PUSH2 0x1A68 DUP3 PUSH2 0x19C0 JUMP JUMPDEST SWAP2 PUSH2 0x1A76 PUSH1 0x40 MLOAD SWAP4 DUP5 PUSH2 0x1833 JUMP JUMPDEST DUP3 MSTORE RETURNDATASIZE PUSH1 0x0 PUSH1 0x20 DUP5 ADD RETURNDATACOPY JUMP JUMPDEST PUSH1 0x60 SWAP1 JUMP JUMPDEST ISZERO PUSH2 0x1A8E JUMPI JUMP JUMPDEST PUSH1 0x40 MLOAD PUSH3 0x461BCD PUSH1 0xE5 SHL DUP2 MSTORE PUSH1 0x20 PUSH1 0x4 DUP3 ADD MSTORE PUSH1 0xB PUSH1 0x24 DUP3 ADD MSTORE PUSH11 0x4E6F742061207061727479 PUSH1 0xA8 SHL PUSH1 0x44 DUP3 ADD MSTORE PUSH1 0x64 SWAP1 REVERT JUMPDEST ISZERO PUSH2 0x1AC8 JUMPI JUMP JUMPDEST PUSH1 0x40 MLOAD PUSH3 0x461BCD PUSH1 0xE5 SHL DUP2 MSTORE PUSH1 0x20 PUSH1 0x4 DUP3 ADD MSTORE PUSH1 0xD PUSH1 0x24 DUP3 ADD MSTORE PUSH13 0x1499599D5B990819985A5B1959 PUSH1 0x9A SHL PUSH1 0x44 DUP3 ADD MSTORE PUSH1 0x64 SWAP1 REVERT JUMPDEST PUSH1 0x3 SLOAD DUP1 TIMESTAMP LT ISZERO PUSH2 0x1B16 JUMPI PUSH2 0x1B13 SWAP1 TIMESTAMP SWAP1 PUSH2 0x19E9 JUMP JUMPDEST SWAP1 JUMP JUMPDEST POP PUSH1 0x0 SWAP1 JUMP JUMPDEST PUSH1 0x6 SLOAD PUSH1 0x0 JUMPDEST DUP2 DUP2 LT PUSH2 0x1B30 JUMPI POP POP PUSH1 0x1 SWAP1 JUMP JUMPDEST PUSH1 0xFF PUSH1 0x2 PUSH2 0x1B3D DUP4 PUSH2 0x18FB JUMP JUMPDEST POP ADD SLOAD PUSH1 0x8 SHR AND ISZERO PUSH2 0x1B5A JUMPI PUSH1 0x0 NOT DUP2 EQ PUSH2 0xC41 JUMPI PUSH1 0x1 ADD PUSH2 0x1B22 JUMP JUMPDEST POP POP PUSH1 0x0 SWAP1 JUMP INVALID LOG2 PUSH5 0x6970667358 0x22 SLT KECCAK256 EXTCODEHASH 0xD6 0xB1 ADDMOD PUSH3 0x758215 0xEA CALLDATACOPY SWAP12 PUSH5 0x6E350AC99D 0xEF SDIV SLOAD 0x4E MSTORE 0xF CREATE 0xA5 PUSH15 0xFC5A8579ECD264736F6C6343000814 STOP CALLER "},"methodIdentifiers":{"acceptCovenant()":"7d0d50dc","addMilestone(string,uint256)":"84b62c28","agentCommitments(address)":"3670a7bd","completeMilestone(uint256)":"852ea203","counterparty()":"c3df6546","declareBreach(string)":"a8d52f7a","disputeReason()":"7bf6c104","disputeResolver()":"f5a3f4af","disputedAt()":"d24126d9","feeRecipient()":"46904840","getMilestone(uint256)":"2442e1cb","getMilestoneCount()":"8f4cf247","hasAccepted(address)":"69b4d6fe","initiator()":"5c39fcc1","isActive()":"22f3e2d4","milestones(uint256)":"e89e4ed6","payMilestone(uint256)":"69db0a7e","protocolFeeBps()":"35659fb8","raiseDispute(string)":"725a3b4b","remainingBalance()":"da25de3c","resolveDispute(uint256,uint256)":"bdc84ac3","status()":"200d2ed2","terms()":"d5025625","timeRemaining()":"e3cfef60","totalMilestonePayments()":"4a4d41eb","withdrawRemaining()":"ee38db95"}}}}}