{"contracts/ReputationStake.sol":{"ReputationStake":{"abi":[{"inputs":[{"internalType":"address","name":"_stakeToken","type":"address"},{"internalType":"address","name":"_feeRecipient","type":"address"}],"stateMutability":"nonpayable","type":"constructor"},{"anonymous":false,"inputs":[{"indexed":true,"internalType":"address","name":"agent","type":"address"},{"indexed":false,"internalType":"string","name":"metadataURI","type":"string"}],"name":"AgentRegistered","type":"event"},{"anonymous":false,"inputs":[{"indexed":true,"internalType":"address","name":"agent","type":"address"},{"indexed":false,"internalType":"uint256","name":"amount","type":"uint256"},{"indexed":false,"internalType":"string","name":"reason","type":"string"}],"name":"AgentSlashed","type":"event"},{"anonymous":false,"inputs":[{"indexed":true,"internalType":"address","name":"agent","type":"address"},{"indexed":false,"internalType":"uint256","name":"newScore","type":"uint256"}],"name":"ReputationUpdated","type":"event"},{"anonymous":false,"inputs":[{"indexed":true,"internalType":"address","name":"agent","type":"address"},{"indexed":false,"internalType":"uint256","name":"amount","type":"uint256"}],"name":"RewardDistributed","type":"event"},{"anonymous":false,"inputs":[{"indexed":true,"internalType":"address","name":"agent","type":"address"},{"indexed":false,"internalType":"uint256","name":"amount","type":"uint256"},{"indexed":false,"internalType":"uint256","name":"unlockTime","type":"uint256"}],"name":"StakeDeposited","type":"event"},{"anonymous":false,"inputs":[{"indexed":true,"internalType":"address","name":"agent","type":"address"},{"indexed":false,"internalType":"uint256","name":"amount","type":"uint256"}],"name":"StakeWithdrawn","type":"event"},{"inputs":[],"name":"activityWeight","outputs":[{"internalType":"uint256","name":"","type":"uint256"}],"stateMutability":"view","type":"function"},{"inputs":[{"internalType":"address","name":"_slasher","type":"address"}],"name":"addSlasher","outputs":[],"stateMutability":"nonpayable","type":"function"},{"inputs":[{"internalType":"address","name":"","type":"address"},{"internalType":"uint256","name":"","type":"uint256"}],"name":"agentStakes","outputs":[{"internalType":"uint256","name":"amount","type":"uint256"},{"internalType":"uint256","name":"since","type":"uint256"},{"internalType":"uint256","name":"unlockTime","type":"uint256"},{"internalType":"bool","name":"withdrawn","type":"bool"}],"stateMutability":"view","type":"function"},{"inputs":[{"internalType":"address","name":"","type":"address"}],"name":"agents","outputs":[{"internalType":"uint256","name":"totalStaked","type":"uint256"},{"internalType":"uint256","name":"reputationScore","type":"uint256"},{"internalType":"uint256","name":"successfulCovenants","type":"uint256"},{"internalType":"uint256","name":"breachedCovenants","type":"uint256"},{"internalType":"uint256","name":"lastActivity","type":"uint256"},{"internalType":"bool","name":"isActive","type":"bool"},{"internalType":"string","name":"metadataURI","type":"string"}],"stateMutability":"view","type":"function"},{"inputs":[{"internalType":"address","name":"","type":"address"}],"name":"authorizedSlashers","outputs":[{"internalType":"bool","name":"","type":"bool"}],"stateMutability":"view","type":"function"},{"inputs":[{"internalType":"address","name":"_agent","type":"address"}],"name":"calculateReputation","outputs":[{"internalType":"uint256","name":"","type":"uint256"}],"stateMutability":"view","type":"function"},{"inputs":[],"name":"feeRecipient","outputs":[{"internalType":"address","name":"","type":"address"}],"stateMutability":"view","type":"function"},{"inputs":[{"internalType":"address","name":"_agent","type":"address"}],"name":"getAgentProfile","outputs":[{"components":[{"internalType":"uint256","name":"totalStaked","type":"uint256"},{"internalType":"uint256","name":"reputationScore","type":"uint256"},{"internalType":"uint256","name":"successfulCovenants","type":"uint256"},{"internalType":"uint256","name":"breachedCovenants","type":"uint256"},{"internalType":"uint256","name":"lastActivity","type":"uint256"},{"internalType":"bool","name":"isActive","type":"bool"},{"internalType":"string","name":"metadataURI","type":"string"}],"internalType":"struct ReputationStake.AgentProfile","name":"","type":"tuple"}],"stateMutability":"view","type":"function"},{"inputs":[{"internalType":"address","name":"_agent","type":"address"},{"internalType":"uint256","name":"_index","type":"uint256"}],"name":"getStake","outputs":[{"components":[{"internalType":"uint256","name":"amount","type":"uint256"},{"internalType":"uint256","name":"since","type":"uint256"},{"internalType":"uint256","name":"unlockTime","type":"uint256"},{"internalType":"bool","name":"withdrawn","type":"bool"}],"internalType":"struct ReputationStake.Stake","name":"","type":"tuple"}],"stateMutability":"view","type":"function"},{"inputs":[{"internalType":"address","name":"_agent","type":"address"}],"name":"getStakeCount","outputs":[{"internalType":"uint256","name":"","type":"uint256"}],"stateMutability":"view","type":"function"},{"inputs":[],"name":"historyWeight","outputs":[{"internalType":"uint256","name":"","type":"uint256"}],"stateMutability":"view","type":"function"},{"inputs":[{"internalType":"address","name":"_agent","type":"address"}],"name":"isRegistered","outputs":[{"internalType":"bool","name":"","type":"bool"}],"stateMutability":"view","type":"function"},{"inputs":[],"name":"lockPeriod","outputs":[{"internalType":"uint256","name":"","type":"uint256"}],"stateMutability":"view","type":"function"},{"inputs":[],"name":"minimumStake","outputs":[{"internalType":"uint256","name":"","type":"uint256"}],"stateMutability":"view","type":"function"},{"inputs":[],"name":"protocolFeeBps","outputs":[{"internalType":"uint256","name":"","type":"uint256"}],"stateMutability":"view","type":"function"},{"inputs":[{"internalType":"address","name":"_agent","type":"address"},{"internalType":"uint256","name":"_slashingMultiplier","type":"uint256"},{"internalType":"string","name":"_reason","type":"string"}],"name":"recordBreach","outputs":[],"stateMutability":"nonpayable","type":"function"},{"inputs":[{"internalType":"address","name":"_agent","type":"address"}],"name":"recordSuccess","outputs":[],"stateMutability":"nonpayable","type":"function"},{"inputs":[{"internalType":"string","name":"_metadataURI","type":"string"}],"name":"registerAgent","outputs":[],"stateMutability":"nonpayable","type":"function"},{"inputs":[{"internalType":"address","name":"_slasher","type":"address"}],"name":"removeSlasher","outputs":[],"stateMutability":"nonpayable","type":"function"},{"inputs":[{"internalType":"uint256","name":"_minimumStake","type":"uint256"},{"internalType":"uint256","name":"_slashingPercentage","type":"uint256"},{"internalType":"uint256","name":"_lockPeriod","type":"uint256"}],"name":"setParameters","outputs":[],"stateMutability":"nonpayable","type":"function"},{"inputs":[],"name":"slashingPercentage","outputs":[{"internalType":"uint256","name":"","type":"uint256"}],"stateMutability":"view","type":"function"},{"inputs":[{"internalType":"uint256","name":"_amount","type":"uint256"}],"name":"stake","outputs":[],"stateMutability":"nonpayable","type":"function"},{"inputs":[],"name":"stakeToken","outputs":[{"internalType":"contract IERC20","name":"","type":"address"}],"stateMutability":"view","type":"function"},{"inputs":[],"name":"stakeWeight","outputs":[{"internalType":"uint256","name":"","type":"uint256"}],"stateMutability":"view","type":"function"},{"inputs":[],"name":"totalAgents","outputs":[{"internalType":"uint256","name":"","type":"uint256"}],"stateMutability":"view","type":"function"},{"inputs":[],"name":"totalStaked","outputs":[{"internalType":"uint256","name":"","type":"uint256"}],"stateMutability":"view","type":"function"},{"inputs":[{"internalType":"uint256","name":"_stakeIndex","type":"uint256"}],"name":"withdrawStake","outputs":[],"stateMutability":"nonpayable","type":"function"}],"evm":{"bytecode":{"linkReferences":{},"object":"6080346100ce57601f61192a38819003918201601f19168301916001600160401b038311848410176100d35780849260409485528339810103126100ce57610052602061004b836100e9565b92016100e9565b68056bc75e2d631000006005556103e860065562093a8060075560646008556028600955601e600a55601e600b5560018060a01b03908160018060a01b03199316836000541617600055169060015416176001553360005260046020526040600020600160ff1982541617905560405161182c90816100fe8239f35b600080fd5b634e487b7160e01b600052604160045260246000fd5b51906001600160a01b03821682036100ce5756fe6040608081526004908136101561001557600080fd5b6000803560e01c8063209ffa1814610fae57806325d5971f14610dbf578063267b116714610da057806327c06fd514610d735780632d2a958514610a8a57806334c5d2ce14610a4d57806335659fb814610a2e5780633fd8b02f14610a0f578063423412871461087c578063469048401461085357806351ed6a301461082b57806368a9f19c146107dc57806369666a49146107bd57806378dc93a4146106ba578063817b1cd21461069b578063a694fc3a1461048c578063aac6aa9c14610440578063aed2d908146103ff578063b0c87df2146103e0578063b2ab278214610369578063be3ac6a71461034a578063c3c5a54714610308578063c5053712146102e9578063cf57ee69146102b1578063cfd4766314610203578063ec5ffac2146101e05763fd66091e1461014957600080fd5b346101dd5760203660031901126101dd576101d99082906001600160a01b036101706112b6565b16815260026020522091825492600181015494600282015490600383015490830154916101a7600660ff600587015416950161141b565b9480519889988952602089015287015260608601526080850152151560a084015260e060c084015260e08301906112ff565b0390f35b80fd5b5090346101ff57816003193601126101ff576020906005549051908152f35b5080fd5b5090346101ff57806003193601126101ff5761025b6080926102236112b6565b8160608551610231816113dd565b8281528260208201528287820152015260018060a01b03168152600360205282602435912061133f565b5090805190610269826113dd565b825492838352600181015460208401908152606060ff600360028501549486880195865201541694019315158452825194855251602085015251908301525115156060820152f35b5090346101ff5760203660031901126101ff5760209181906001600160a01b036102d96112b6565b1681526003845220549051908152f35b5090346101ff57816003193601126101ff57602090600d549051908152f35b5090346101ff5760203660031901126101ff5760209160ff9060059083906001600160a01b036103366112b6565b168152600286522001541690519015158152f35b5090346101ff57816003193601126101ff57602090600a549051908152f35b5090346101ff57806003193601126101ff576103836112b6565b6001600160a01b031682526003602052808220805460243593908410156101dd57506080926103b19161133f565b509081549160018101549160ff6003600284015493015416928151948552602085015283015215156060820152f35b5090346101ff57816003193601126101ff57602090600b549051908152f35b50913461043c57602036600319011261043c5760209260ff918391906001600160a01b0361042b6112b6565b168252855220541690519015158152f35b8280fd5b50913461043c57602036600319011261043c5761045b6112b6565b3384528160205261047160ff84862054166115b4565b6001600160a01b031683526020528120805460ff1916905580f35b5090346101ff576020908160031936011261043c57833591338452600281526104bd60ff6005848720015416611507565b821561066457835482516323b872dd60e01b81523387820152306024820152604481018590529082908290606490829089906001600160a01b03165af190811561065a579061051391869161062d575b5061155c565b61051f6007544261159a565b825161052a816113dd565b8481528281014281528482019283526060820190878252338852600385528588208054906801000000000000000082101561061a579061056f9160018201815561133f565b939093610608576105c9927f05cce4a371bf9816b1a7594f1d76c98eba4ed025ff3e471234ae598f17899bd497969594926003925184555160018401558451600284015551151591019060ff801983541691151516179055565b338652600282528286206105de86825461159a565b90556105ec85600c5461159a565b600c556105f8336117a5565b519082519485528401523392a280f35b634e487b7160e01b8952888a52602489fd5b634e487b7160e01b8a5260418b5260248afd5b61064d9150833d8511610653575b61064581836113f9565b810190611544565b3861050d565b503d61063b565b83513d87823e3d90fd5b8490606492519162461bcd60e51b835282015260126024820152710416d6f756e74206d757374206265203e20360741b6044820152fd5b5090346101ff57816003193601126101ff57602090600c549051908152f35b50913461043c57602092836003193601126101dd5790826101d9926106dd6112b6565b606060c084516106ec816113ab565b848152848a820152848682015284838201528460808201528460a0820152015260018060a01b031681526002865220835193610727856113ab565b815485526001820154928686019384526002830154828701908152600384015491606088019283528401549260808801938452610777600660ff6005880154169660a08b0197151588520161141b565b9560c089019687528151998a99818b5251908a015251908801525160608701525160808601525160a085015251151560c08401525160e0808401526101008301906112ff565b5090346101ff57816003193601126101ff576020906006549051908152f35b50913461043c57602036600319011261043c576107f76112b6565b3384528160205261080d60ff84862054166115b4565b6001600160a01b031683526020528120805460ff1916600117905580f35b5090346101ff57816003193601126101ff57905490516001600160a01b039091168152602090f35b5090346101ff57816003193601126101ff5760015490516001600160a01b039091168152602090f35b5091903461043c5760209081600319360112610a0b5761089a6112b6565b903385528383526108b060ff82872054166115b4565b6001600160a01b03828116808752600280865283882060050154919692916108da9060ff16611507565b86885280865280848920016108ef81546114c1565b90558688528086524283858a200155610907856117a5565b868852808652600a848920918201540615610920578780f35b6064905404938461092f578780f35b8754845163a9059cbb60e01b81526001600160a01b039290921684830190815260208101879052919287928492908390036040019183918c91165af1908115610a015787916109e4575b50156109b35750519081527fe34918ff1c7084970068b53fd71ad6d8b04e9f15d3886cbf006443e6cdc52ea69190a2388080808080808780f35b83606492519162461bcd60e51b8352820152600d60248201526c14995dd85c990819985a5b1959609a1b6044820152fd5b6109fb9150853d87116106535761064581836113f9565b38610979565b83513d89823e3d90fd5b8380fd5b5090346101ff57816003193601126101ff576020906007549051908152f35b5090346101ff57816003193601126101ff576020906008549051908152f35b5091903461043c57606036600319011261043c5760ff610a779133855283602052842054166115b4565b3560055560243560065560443560075580f35b5090346101ff576020908160031936011261043c5767ffffffffffffffff908435828111610d6f57610abf90369087016112d1565b9190923386526002855260ff6005838820015416610d37578151610ae2816113ab565b8681528581019087825283810188815260608201898152608083019042825260a0840192600195868552878a11610d2357918b9796959391601f9593610b338b519a8d8919998a910116018b6113f9565b8b8a52368d8d0111610d1f578a8f8f8f8f808f849286948483013701015260c089019c8d523382526002905220955186555187860155516002850155516003840155518c8301555115156005820190610b97919060ff801983541691151516179055565b6006019351998a51938411610d0c5750610bb18454611371565b601f8111610cc6575b508790601f8411600114610c40575091808092610c2f9695948b9c7fda816ca2fc37b9eecec62ae8263008ec6be1afb38dc28bc9c7c51d7e348da9c29b9c94610c35575b50501b916000199060031b1c19161790555b610c1b600d546114c1565b600d555192839286845233968401916114e6565b0390a280f35b015192503880610bfe565b8392931699848a52888a209a8a5b818110610cb15750917fda816ca2fc37b9eecec62ae8263008ec6be1afb38dc28bc9c7c51d7e348da9c2999a9b9184610c2f989796959410610c98575b505050811b019055610c10565b015160001960f88460031b161c19169055388080610c8b565b838301518d559b85019b928a01928a01610c4e565b848a52888a20601f850160051c8101918a8610610d02575b601f0160051c019083905b828110610cf7575050610bba565b8b8155018390610ce9565b9091508190610cde565b634e487b7160e01b8a5260419052602489fd5b8e80fd5b50634e487b7160e01b8c5260418d5260248cfd5b815162461bcd60e51b81528088018690526012602482015271105b1c9958591e481c9959da5cdd195c995960721b6044820152606490fd5b8480fd5b5090346101ff5760203660031901126101ff57602090610d99610d946112b6565b611624565b9051908152f35b5090346101ff57816003193601126101ff576020906009549051908152f35b50913461043c57602080600319360112610a0b57813533855260028252610dee60ff6005868820015416611507565b3385526003825283852054811015610f7d57610e13903386526003835284862061133f565b5060038101805460ff8116610f455760028301544210610f12579183916001610ea89460ff191617905554809433885260028352868820610e558382546115a7565b9055610e6382600c546115a7565b600c55610e6f336117a5565b8754875163a9059cbb60e01b8152339281019283526020830193909352919384926001600160a01b03169183918a918391604090910190565b03925af1908115610f08577f8108595eb6bad3acefa9da467d90cc2217686d5c5ac85460f8b7849c840645fc939491610ee7918791610ef1575061155c565b519283523392a280f35b61064d9150843d86116106535761064581836113f9565b84513d87823e3d90fd5b5050925162461bcd60e51b815291820152600c60248201526b14dd1a5b1b081b1bd8dad95960a21b604482015260649150fd5b5050925162461bcd60e51b815291820152601160248201527020b63932b0b23c903bb4ba34323930bbb760791b604482015260649150fd5b50606492519162461bcd60e51b8352820152600d60248201526c092dcecc2d8d2c840d2dcc8caf609b1b6044820152fd5b5082346101ff5760603660031901126101ff57610fc96112b6565b9260443567ffffffffffffffff8111610a0b57610fe990369084016112d1565b94909433855260209284845260ff926110068483892054166115b4565b6001600160a01b038181168089526002808852848a206005015491989161102e908816611507565b888a5280885260039687868c200161104681546114c1565b9055898b52818952612710611072878d2042868201555461106d60243591600654906115f1565b6115f1565b0497881515806112a4575b6110ca575b8b8b7ff90d547af41b84ae5db3dc86fac677444898b3350b3e9cccd482dea1274bfc958f8c610c2f8f928e8e6110b78f6117a5565b80805196879687528601528401916114e6565b919497909298939a959681988b88528386528888209a885b8c5481108061129b575b156111b1578c8e88886110ff858561133f565b50015416158061119d575b61111f575b505061111a906114c1565b6110e2565b90829d61118c92611155858f61113861111a988761133f565b505485111590506111965761114d818661133f565b50549461133f565b506111618482546115a7565b90558d528b8b528d8d206111768382546115a7565b9055600c6111858382546115a7565b90556115a7565b9b90508c8e61110f565b839461133f565b506111a8838361133f565b5054151561110a565b50959b9c889e9a939b506111db91975061121295508c94508092999854169160015416928b6115a7565b875163a9059cbb60e01b81526001600160a01b0390931686840190815260208101919091529193849283918f918391604090910190565b03925af1908115611291578a91611274575b501561123957808080809b9a9998979b611082565b825162461bcd60e51b8152908101879052601560248201527414db185cda081d1c985b9cd9995c8819985a5b1959605a1b6044820152606490fd5b61128b9150883d8a116106535761064581836113f9565b8a611224565b84513d8c823e3d90fd5b508b15156110ec565b508a8c52828a52868c2054151561107d565b600435906001600160a01b03821682036112cc57565b600080fd5b9181601f840112156112cc5782359167ffffffffffffffff83116112cc57602083818601950101116112cc57565b919082519283825260005b84811061132b575050826000602080949584010152601f8019910116010190565b60208183018101518483018201520161130a565b805482101561135b5760005260206000209060021b0190600090565b634e487b7160e01b600052603260045260246000fd5b90600182811c921680156113a1575b602083101461138b57565b634e487b7160e01b600052602260045260246000fd5b91607f1691611380565b60e0810190811067ffffffffffffffff8211176113c757604052565b634e487b7160e01b600052604160045260246000fd5b6080810190811067ffffffffffffffff8211176113c757604052565b90601f8019910116810190811067ffffffffffffffff8211176113c757604052565b906040519182600082549261142f84611371565b90818452600194858116908160001461149e575060011461145b575b5050611459925003836113f9565b565b9093915060005260209081600020936000915b8183106114865750506114599350820101388061144b565b8554888401850152948501948794509183019161146e565b91505061145994506020925060ff191682840152151560051b820101388061144b565b60001981146114d05760010190565b634e487b7160e01b600052601160045260246000fd5b908060209392818452848401376000828201840152601f01601f1916010190565b1561150e57565b60405162461bcd60e51b815260206004820152600e60248201526d139bdd081c9959da5cdd195c995960921b6044820152606490fd5b908160209103126112cc575180151581036112cc5790565b1561156357565b60405162461bcd60e51b815260206004820152600f60248201526e151c985b9cd9995c8819985a5b1959608a1b6044820152606490fd5b919082018092116114d057565b919082039182116114d057565b156115bb57565b60405162461bcd60e51b815260206004820152600e60248201526d139bdd08185d5d1a1bdc9a5e995960921b6044820152606490fd5b818102929181159184041417156114d057565b811561160e570490565b634e487b7160e01b600052601260045260246000fd5b6001600160a01b03166000908152600260205260408120600581015460ff16156117a1578054801561179a5761166061166991600954906115f1565b60055490611604565b915b610190808411611792575b5060028201549161168b60038201548461159a565b82938161172f575b50506116a7600462015180920154426115a7565b04601e81101561171f57601e03601e811161170b57600b546116c8916115f1565b90600a820291808304600a14901517156116f757506116f49291601e6116ef92049261159a565b61159a565b90565b634e487b7160e01b81526011600452602490fd5b634e487b7160e01b82526011600452602482fd5b506116f492916116ef919261159a565b9091935060648102908082046064149015171561177e5761175c9161175391611604565b600a54906115f1565b600a810290808204600a149015171561170b5760649004916116a76004611693565b634e487b7160e01b83526011600452602483fd5b925038611676565b508161166b565b5090565b7ffc577563f1b9a0461e24abef1e1fcc0d33d3d881f20b5df6dda59de4aae2c82160206117d183611624565b9260018060a01b031692836000526002825280600160406000200155604051908152a256fea2646970667358221220512a9c133a07cae460ccd11e7ce6a304c995c0f2a758da4f1c72bcb99836061264736f6c63430008140033","opcodes":"PUSH1 0x80 CALLVALUE PUSH2 0xCE JUMPI PUSH1 0x1F PUSH2 0x192A CODESIZE DUP2 SWAP1 SUB SWAP2 DUP3 ADD PUSH1 0x1F NOT AND DUP4 ADD SWAP2 PUSH1 0x1 PUSH1 0x1 PUSH1 0x40 SHL SUB DUP4 GT DUP5 DUP5 LT OR PUSH2 0xD3 JUMPI DUP1 DUP5 SWAP3 PUSH1 0x40 SWAP5 DUP6 MSTORE DUP4 CODECOPY DUP2 ADD SUB SLT PUSH2 0xCE JUMPI PUSH2 0x52 PUSH1 0x20 PUSH2 0x4B DUP4 PUSH2 0xE9 JUMP JUMPDEST SWAP3 ADD PUSH2 0xE9 JUMP JUMPDEST PUSH9 0x56BC75E2D63100000 PUSH1 0x5 SSTORE PUSH2 0x3E8 PUSH1 0x6 SSTORE PUSH3 0x93A80 PUSH1 0x7 SSTORE PUSH1 0x64 PUSH1 0x8 SSTORE PUSH1 0x28 PUSH1 0x9 SSTORE PUSH1 0x1E PUSH1 0xA SSTORE PUSH1 0x1E PUSH1 0xB SSTORE PUSH1 0x1 DUP1 PUSH1 0xA0 SHL SUB SWAP1 DUP2 PUSH1 0x1 DUP1 PUSH1 0xA0 SHL SUB NOT SWAP4 AND DUP4 PUSH1 0x0 SLOAD AND OR PUSH1 0x0 SSTORE AND SWAP1 PUSH1 0x1 SLOAD AND OR PUSH1 0x1 SSTORE CALLER PUSH1 0x0 MSTORE PUSH1 0x4 PUSH1 0x20 MSTORE PUSH1 0x40 PUSH1 0x0 KECCAK256 PUSH1 0x1 PUSH1 0xFF NOT DUP3 SLOAD AND OR SWAP1 SSTORE PUSH1 0x40 MLOAD PUSH2 0x182C SWAP1 DUP2 PUSH2 0xFE DUP3 CODECOPY RETURN JUMPDEST PUSH1 0x0 DUP1 REVERT JUMPDEST PUSH4 0x4E487B71 PUSH1 0xE0 SHL PUSH1 0x0 MSTORE PUSH1 0x41 PUSH1 0x4 MSTORE PUSH1 0x24 PUSH1 0x0 REVERT JUMPDEST MLOAD SWAP1 PUSH1 0x1 PUSH1 0x1 PUSH1 0xA0 SHL SUB DUP3 AND DUP3 SUB PUSH2 0xCE JUMPI JUMP INVALID PUSH1 0x40 PUSH1 0x80 DUP2 MSTORE PUSH1 0x4 SWAP1 DUP2 CALLDATASIZE LT ISZERO PUSH2 0x15 JUMPI PUSH1 0x0 DUP1 REVERT JUMPDEST PUSH1 0x0 DUP1 CALLDATALOAD PUSH1 0xE0 SHR DUP1 PUSH4 0x209FFA18 EQ PUSH2 0xFAE JUMPI DUP1 PUSH4 0x25D5971F EQ PUSH2 0xDBF JUMPI DUP1 PUSH4 0x267B1167 EQ PUSH2 0xDA0 JUMPI DUP1 PUSH4 0x27C06FD5 EQ PUSH2 0xD73 JUMPI DUP1 PUSH4 0x2D2A9585 EQ PUSH2 0xA8A JUMPI DUP1 PUSH4 0x34C5D2CE EQ PUSH2 0xA4D JUMPI DUP1 PUSH4 0x35659FB8 EQ PUSH2 0xA2E JUMPI DUP1 PUSH4 0x3FD8B02F EQ PUSH2 0xA0F JUMPI DUP1 PUSH4 0x42341287 EQ PUSH2 0x87C JUMPI DUP1 PUSH4 0x46904840 EQ PUSH2 0x853 JUMPI DUP1 PUSH4 0x51ED6A30 EQ PUSH2 0x82B JUMPI DUP1 PUSH4 0x68A9F19C EQ PUSH2 0x7DC JUMPI DUP1 PUSH4 0x69666A49 EQ PUSH2 0x7BD JUMPI DUP1 PUSH4 0x78DC93A4 EQ PUSH2 0x6BA JUMPI DUP1 PUSH4 0x817B1CD2 EQ PUSH2 0x69B JUMPI DUP1 PUSH4 0xA694FC3A EQ PUSH2 0x48C JUMPI DUP1 PUSH4 0xAAC6AA9C EQ PUSH2 0x440 JUMPI DUP1 PUSH4 0xAED2D908 EQ PUSH2 0x3FF JUMPI DUP1 PUSH4 0xB0C87DF2 EQ PUSH2 0x3E0 JUMPI DUP1 PUSH4 0xB2AB2782 EQ PUSH2 0x369 JUMPI DUP1 PUSH4 0xBE3AC6A7 EQ PUSH2 0x34A JUMPI DUP1 PUSH4 0xC3C5A547 EQ PUSH2 0x308 JUMPI DUP1 PUSH4 0xC5053712 EQ PUSH2 0x2E9 JUMPI DUP1 PUSH4 0xCF57EE69 EQ PUSH2 0x2B1 JUMPI DUP1 PUSH4 0xCFD47663 EQ PUSH2 0x203 JUMPI DUP1 PUSH4 0xEC5FFAC2 EQ PUSH2 0x1E0 JUMPI PUSH4 0xFD66091E EQ PUSH2 0x149 JUMPI PUSH1 0x0 DUP1 REVERT JUMPDEST CALLVALUE PUSH2 0x1DD JUMPI PUSH1 0x20 CALLDATASIZE PUSH1 0x3 NOT ADD SLT PUSH2 0x1DD JUMPI PUSH2 0x1D9 SWAP1 DUP3 SWAP1 PUSH1 0x1 PUSH1 0x1 PUSH1 0xA0 SHL SUB PUSH2 0x170 PUSH2 0x12B6 JUMP JUMPDEST AND DUP2 MSTORE PUSH1 0x2 PUSH1 0x20 MSTORE KECCAK256 SWAP2 DUP3 SLOAD SWAP3 PUSH1 0x1 DUP2 ADD SLOAD SWAP5 PUSH1 0x2 DUP3 ADD SLOAD SWAP1 PUSH1 0x3 DUP4 ADD SLOAD SWAP1 DUP4 ADD SLOAD SWAP2 PUSH2 0x1A7 PUSH1 0x6 PUSH1 0xFF PUSH1 0x5 DUP8 ADD SLOAD AND SWAP6 ADD PUSH2 0x141B JUMP JUMPDEST SWAP5 DUP1 MLOAD SWAP9 DUP10 SWAP9 DUP10 MSTORE PUSH1 0x20 DUP10 ADD MSTORE DUP8 ADD MSTORE PUSH1 0x60 DUP7 ADD MSTORE PUSH1 0x80 DUP6 ADD MSTORE ISZERO ISZERO PUSH1 0xA0 DUP5 ADD MSTORE PUSH1 0xE0 PUSH1 0xC0 DUP5 ADD MSTORE PUSH1 0xE0 DUP4 ADD SWAP1 PUSH2 0x12FF JUMP JUMPDEST SUB SWAP1 RETURN JUMPDEST DUP1 REVERT JUMPDEST POP SWAP1 CALLVALUE PUSH2 0x1FF JUMPI DUP2 PUSH1 0x3 NOT CALLDATASIZE ADD SLT PUSH2 0x1FF JUMPI PUSH1 0x20 SWAP1 PUSH1 0x5 SLOAD SWAP1 MLOAD SWAP1 DUP2 MSTORE RETURN JUMPDEST POP DUP1 REVERT JUMPDEST POP SWAP1 CALLVALUE PUSH2 0x1FF JUMPI DUP1 PUSH1 0x3 NOT CALLDATASIZE ADD SLT PUSH2 0x1FF JUMPI PUSH2 0x25B PUSH1 0x80 SWAP3 PUSH2 0x223 PUSH2 0x12B6 JUMP JUMPDEST DUP2 PUSH1 0x60 DUP6 MLOAD PUSH2 0x231 DUP2 PUSH2 0x13DD JUMP JUMPDEST DUP3 DUP2 MSTORE DUP3 PUSH1 0x20 DUP3 ADD MSTORE DUP3 DUP8 DUP3 ADD MSTORE ADD MSTORE PUSH1 0x1 DUP1 PUSH1 0xA0 SHL SUB AND DUP2 MSTORE PUSH1 0x3 PUSH1 0x20 MSTORE DUP3 PUSH1 0x24 CALLDATALOAD SWAP2 KECCAK256 PUSH2 0x133F JUMP JUMPDEST POP SWAP1 DUP1 MLOAD SWAP1 PUSH2 0x269 DUP3 PUSH2 0x13DD JUMP JUMPDEST DUP3 SLOAD SWAP3 DUP4 DUP4 MSTORE PUSH1 0x1 DUP2 ADD SLOAD PUSH1 0x20 DUP5 ADD SWAP1 DUP2 MSTORE PUSH1 0x60 PUSH1 0xFF PUSH1 0x3 PUSH1 0x2 DUP6 ADD SLOAD SWAP5 DUP7 DUP9 ADD SWAP6 DUP7 MSTORE ADD SLOAD AND SWAP5 ADD SWAP4 ISZERO ISZERO DUP5 MSTORE DUP3 MLOAD SWAP5 DUP6 MSTORE MLOAD PUSH1 0x20 DUP6 ADD MSTORE MLOAD SWAP1 DUP4 ADD MSTORE MLOAD ISZERO ISZERO PUSH1 0x60 DUP3 ADD MSTORE RETURN JUMPDEST POP SWAP1 CALLVALUE PUSH2 0x1FF JUMPI PUSH1 0x20 CALLDATASIZE PUSH1 0x3 NOT ADD SLT PUSH2 0x1FF JUMPI PUSH1 0x20 SWAP2 DUP2 SWAP1 PUSH1 0x1 PUSH1 0x1 PUSH1 0xA0 SHL SUB PUSH2 0x2D9 PUSH2 0x12B6 JUMP JUMPDEST AND DUP2 MSTORE PUSH1 0x3 DUP5 MSTORE KECCAK256 SLOAD SWAP1 MLOAD SWAP1 DUP2 MSTORE RETURN JUMPDEST POP SWAP1 CALLVALUE PUSH2 0x1FF JUMPI DUP2 PUSH1 0x3 NOT CALLDATASIZE ADD SLT PUSH2 0x1FF JUMPI PUSH1 0x20 SWAP1 PUSH1 0xD SLOAD SWAP1 MLOAD SWAP1 DUP2 MSTORE RETURN JUMPDEST POP SWAP1 CALLVALUE PUSH2 0x1FF JUMPI PUSH1 0x20 CALLDATASIZE PUSH1 0x3 NOT ADD SLT PUSH2 0x1FF JUMPI PUSH1 0x20 SWAP2 PUSH1 0xFF SWAP1 PUSH1 0x5 SWAP1 DUP4 SWAP1 PUSH1 0x1 PUSH1 0x1 PUSH1 0xA0 SHL SUB PUSH2 0x336 PUSH2 0x12B6 JUMP JUMPDEST AND DUP2 MSTORE PUSH1 0x2 DUP7 MSTORE KECCAK256 ADD SLOAD AND SWAP1 MLOAD SWAP1 ISZERO ISZERO DUP2 MSTORE RETURN JUMPDEST POP SWAP1 CALLVALUE PUSH2 0x1FF JUMPI DUP2 PUSH1 0x3 NOT CALLDATASIZE ADD SLT PUSH2 0x1FF JUMPI PUSH1 0x20 SWAP1 PUSH1 0xA SLOAD SWAP1 MLOAD SWAP1 DUP2 MSTORE RETURN JUMPDEST POP SWAP1 CALLVALUE PUSH2 0x1FF JUMPI DUP1 PUSH1 0x3 NOT CALLDATASIZE ADD SLT PUSH2 0x1FF JUMPI PUSH2 0x383 PUSH2 0x12B6 JUMP JUMPDEST PUSH1 0x1 PUSH1 0x1 PUSH1 0xA0 SHL SUB AND DUP3 MSTORE PUSH1 0x3 PUSH1 0x20 MSTORE DUP1 DUP3 KECCAK256 DUP1 SLOAD PUSH1 0x24 CALLDATALOAD SWAP4 SWAP1 DUP5 LT ISZERO PUSH2 0x1DD JUMPI POP PUSH1 0x80 SWAP3 PUSH2 0x3B1 SWAP2 PUSH2 0x133F JUMP JUMPDEST POP SWAP1 DUP2 SLOAD SWAP2 PUSH1 0x1 DUP2 ADD SLOAD SWAP2 PUSH1 0xFF PUSH1 0x3 PUSH1 0x2 DUP5 ADD SLOAD SWAP4 ADD SLOAD AND SWAP3 DUP2 MLOAD SWAP5 DUP6 MSTORE PUSH1 0x20 DUP6 ADD MSTORE DUP4 ADD MSTORE ISZERO ISZERO PUSH1 0x60 DUP3 ADD MSTORE RETURN JUMPDEST POP SWAP1 CALLVALUE PUSH2 0x1FF JUMPI DUP2 PUSH1 0x3 NOT CALLDATASIZE ADD SLT PUSH2 0x1FF JUMPI PUSH1 0x20 SWAP1 PUSH1 0xB SLOAD SWAP1 MLOAD SWAP1 DUP2 MSTORE RETURN JUMPDEST POP SWAP2 CALLVALUE PUSH2 0x43C JUMPI PUSH1 0x20 CALLDATASIZE PUSH1 0x3 NOT ADD SLT PUSH2 0x43C JUMPI PUSH1 0x20 SWAP3 PUSH1 0xFF SWAP2 DUP4 SWAP2 SWAP1 PUSH1 0x1 PUSH1 0x1 PUSH1 0xA0 SHL SUB PUSH2 0x42B PUSH2 0x12B6 JUMP JUMPDEST AND DUP3 MSTORE DUP6 MSTORE KECCAK256 SLOAD AND SWAP1 MLOAD SWAP1 ISZERO ISZERO DUP2 MSTORE RETURN JUMPDEST DUP3 DUP1 REVERT JUMPDEST POP SWAP2 CALLVALUE PUSH2 0x43C JUMPI PUSH1 0x20 CALLDATASIZE PUSH1 0x3 NOT ADD SLT PUSH2 0x43C JUMPI PUSH2 0x45B PUSH2 0x12B6 JUMP JUMPDEST CALLER DUP5 MSTORE DUP2 PUSH1 0x20 MSTORE PUSH2 0x471 PUSH1 0xFF DUP5 DUP7 KECCAK256 SLOAD AND PUSH2 0x15B4 JUMP JUMPDEST PUSH1 0x1 PUSH1 0x1 PUSH1 0xA0 SHL SUB AND DUP4 MSTORE PUSH1 0x20 MSTORE DUP2 KECCAK256 DUP1 SLOAD PUSH1 0xFF NOT AND SWAP1 SSTORE DUP1 RETURN JUMPDEST POP SWAP1 CALLVALUE PUSH2 0x1FF JUMPI PUSH1 0x20 SWAP1 DUP2 PUSH1 0x3 NOT CALLDATASIZE ADD SLT PUSH2 0x43C JUMPI DUP4 CALLDATALOAD SWAP2 CALLER DUP5 MSTORE PUSH1 0x2 DUP2 MSTORE PUSH2 0x4BD PUSH1 0xFF PUSH1 0x5 DUP5 DUP8 KECCAK256 ADD SLOAD AND PUSH2 0x1507 JUMP JUMPDEST DUP3 ISZERO PUSH2 0x664 JUMPI DUP4 SLOAD DUP3 MLOAD PUSH4 0x23B872DD PUSH1 0xE0 SHL DUP2 MSTORE CALLER DUP8 DUP3 ADD MSTORE ADDRESS PUSH1 0x24 DUP3 ADD MSTORE PUSH1 0x44 DUP2 ADD DUP6 SWAP1 MSTORE SWAP1 DUP3 SWAP1 DUP3 SWAP1 PUSH1 0x64 SWAP1 DUP3 SWAP1 DUP10 SWAP1 PUSH1 0x1 PUSH1 0x1 PUSH1 0xA0 SHL SUB AND GAS CALL SWAP1 DUP2 ISZERO PUSH2 0x65A JUMPI SWAP1 PUSH2 0x513 SWAP2 DUP7 SWAP2 PUSH2 0x62D JUMPI JUMPDEST POP PUSH2 0x155C JUMP JUMPDEST PUSH2 0x51F PUSH1 0x7 SLOAD TIMESTAMP PUSH2 0x159A JUMP JUMPDEST DUP3 MLOAD PUSH2 0x52A DUP2 PUSH2 0x13DD JUMP JUMPDEST DUP5 DUP2 MSTORE DUP3 DUP2 ADD TIMESTAMP DUP2 MSTORE DUP5 DUP3 ADD SWAP3 DUP4 MSTORE PUSH1 0x60 DUP3 ADD SWAP1 DUP8 DUP3 MSTORE CALLER DUP9 MSTORE PUSH1 0x3 DUP6 MSTORE DUP6 DUP9 KECCAK256 DUP1 SLOAD SWAP1 PUSH9 0x10000000000000000 DUP3 LT ISZERO PUSH2 0x61A JUMPI SWAP1 PUSH2 0x56F SWAP2 PUSH1 0x1 DUP3 ADD DUP2 SSTORE PUSH2 0x133F JUMP JUMPDEST SWAP4 SWAP1 SWAP4 PUSH2 0x608 JUMPI PUSH2 0x5C9 SWAP3 PUSH32 0x5CCE4A371BF9816B1A7594F1D76C98EBA4ED025FF3E471234AE598F17899BD4 SWAP8 SWAP7 SWAP6 SWAP5 SWAP3 PUSH1 0x3 SWAP3 MLOAD DUP5 SSTORE MLOAD PUSH1 0x1 DUP5 ADD SSTORE DUP5 MLOAD PUSH1 0x2 DUP5 ADD SSTORE MLOAD ISZERO ISZERO SWAP2 ADD SWAP1 PUSH1 0xFF DUP1 NOT DUP4 SLOAD AND SWAP2 ISZERO ISZERO AND OR SWAP1 SSTORE JUMP JUMPDEST CALLER DUP7 MSTORE PUSH1 0x2 DUP3 MSTORE DUP3 DUP7 KECCAK256 PUSH2 0x5DE DUP7 DUP3 SLOAD PUSH2 0x159A JUMP JUMPDEST SWAP1 SSTORE PUSH2 0x5EC DUP6 PUSH1 0xC SLOAD PUSH2 0x159A JUMP JUMPDEST PUSH1 0xC SSTORE PUSH2 0x5F8 CALLER PUSH2 0x17A5 JUMP JUMPDEST MLOAD SWAP1 DUP3 MLOAD SWAP5 DUP6 MSTORE DUP5 ADD MSTORE CALLER SWAP3 LOG2 DUP1 RETURN JUMPDEST PUSH4 0x4E487B71 PUSH1 0xE0 SHL DUP10 MSTORE DUP9 DUP11 MSTORE PUSH1 0x24 DUP10 REVERT JUMPDEST PUSH4 0x4E487B71 PUSH1 0xE0 SHL DUP11 MSTORE PUSH1 0x41 DUP12 MSTORE PUSH1 0x24 DUP11 REVERT JUMPDEST PUSH2 0x64D SWAP2 POP DUP4 RETURNDATASIZE DUP6 GT PUSH2 0x653 JUMPI JUMPDEST PUSH2 0x645 DUP2 DUP4 PUSH2 0x13F9 JUMP JUMPDEST DUP2 ADD SWAP1 PUSH2 0x1544 JUMP JUMPDEST CODESIZE PUSH2 0x50D JUMP JUMPDEST POP RETURNDATASIZE PUSH2 0x63B JUMP JUMPDEST DUP4 MLOAD RETURNDATASIZE DUP8 DUP3 RETURNDATACOPY RETURNDATASIZE SWAP1 REVERT JUMPDEST DUP5 SWAP1 PUSH1 0x64 SWAP3 MLOAD SWAP2 PUSH3 0x461BCD PUSH1 0xE5 SHL DUP4 MSTORE DUP3 ADD MSTORE PUSH1 0x12 PUSH1 0x24 DUP3 ADD MSTORE PUSH18 0x416D6F756E74206D757374206265203E203 PUSH1 0x74 SHL PUSH1 0x44 DUP3 ADD MSTORE REVERT JUMPDEST POP SWAP1 CALLVALUE PUSH2 0x1FF JUMPI DUP2 PUSH1 0x3 NOT CALLDATASIZE ADD SLT PUSH2 0x1FF JUMPI PUSH1 0x20 SWAP1 PUSH1 0xC SLOAD SWAP1 MLOAD SWAP1 DUP2 MSTORE RETURN JUMPDEST POP SWAP2 CALLVALUE PUSH2 0x43C JUMPI PUSH1 0x20 SWAP3 DUP4 PUSH1 0x3 NOT CALLDATASIZE ADD SLT PUSH2 0x1DD JUMPI SWAP1 DUP3 PUSH2 0x1D9 SWAP3 PUSH2 0x6DD PUSH2 0x12B6 JUMP JUMPDEST PUSH1 0x60 PUSH1 0xC0 DUP5 MLOAD PUSH2 0x6EC DUP2 PUSH2 0x13AB JUMP JUMPDEST DUP5 DUP2 MSTORE DUP5 DUP11 DUP3 ADD MSTORE DUP5 DUP7 DUP3 ADD MSTORE DUP5 DUP4 DUP3 ADD MSTORE DUP5 PUSH1 0x80 DUP3 ADD MSTORE DUP5 PUSH1 0xA0 DUP3 ADD MSTORE ADD MSTORE PUSH1 0x1 DUP1 PUSH1 0xA0 SHL SUB AND DUP2 MSTORE PUSH1 0x2 DUP7 MSTORE KECCAK256 DUP4 MLOAD SWAP4 PUSH2 0x727 DUP6 PUSH2 0x13AB JUMP JUMPDEST DUP2 SLOAD DUP6 MSTORE PUSH1 0x1 DUP3 ADD SLOAD SWAP3 DUP7 DUP7 ADD SWAP4 DUP5 MSTORE PUSH1 0x2 DUP4 ADD SLOAD DUP3 DUP8 ADD SWAP1 DUP2 MSTORE PUSH1 0x3 DUP5 ADD SLOAD SWAP2 PUSH1 0x60 DUP9 ADD SWAP3 DUP4 MSTORE DUP5 ADD SLOAD SWAP3 PUSH1 0x80 DUP9 ADD SWAP4 DUP5 MSTORE PUSH2 0x777 PUSH1 0x6 PUSH1 0xFF PUSH1 0x5 DUP9 ADD SLOAD AND SWAP7 PUSH1 0xA0 DUP12 ADD SWAP8 ISZERO ISZERO DUP9 MSTORE ADD PUSH2 0x141B JUMP JUMPDEST SWAP6 PUSH1 0xC0 DUP10 ADD SWAP7 DUP8 MSTORE DUP2 MLOAD SWAP10 DUP11 SWAP10 DUP2 DUP12 MSTORE MLOAD SWAP1 DUP11 ADD MSTORE MLOAD SWAP1 DUP9 ADD MSTORE MLOAD PUSH1 0x60 DUP8 ADD MSTORE MLOAD PUSH1 0x80 DUP7 ADD MSTORE MLOAD PUSH1 0xA0 DUP6 ADD MSTORE MLOAD ISZERO ISZERO PUSH1 0xC0 DUP5 ADD MSTORE MLOAD PUSH1 0xE0 DUP1 DUP5 ADD MSTORE PUSH2 0x100 DUP4 ADD SWAP1 PUSH2 0x12FF JUMP JUMPDEST POP SWAP1 CALLVALUE PUSH2 0x1FF JUMPI DUP2 PUSH1 0x3 NOT CALLDATASIZE ADD SLT PUSH2 0x1FF JUMPI PUSH1 0x20 SWAP1 PUSH1 0x6 SLOAD SWAP1 MLOAD SWAP1 DUP2 MSTORE RETURN JUMPDEST POP SWAP2 CALLVALUE PUSH2 0x43C JUMPI PUSH1 0x20 CALLDATASIZE PUSH1 0x3 NOT ADD SLT PUSH2 0x43C JUMPI PUSH2 0x7F7 PUSH2 0x12B6 JUMP JUMPDEST CALLER DUP5 MSTORE DUP2 PUSH1 0x20 MSTORE PUSH2 0x80D PUSH1 0xFF DUP5 DUP7 KECCAK256 SLOAD AND PUSH2 0x15B4 JUMP JUMPDEST PUSH1 0x1 PUSH1 0x1 PUSH1 0xA0 SHL SUB AND DUP4 MSTORE PUSH1 0x20 MSTORE DUP2 KECCAK256 DUP1 SLOAD PUSH1 0xFF NOT AND PUSH1 0x1 OR SWAP1 SSTORE DUP1 RETURN JUMPDEST POP SWAP1 CALLVALUE PUSH2 0x1FF JUMPI DUP2 PUSH1 0x3 NOT CALLDATASIZE ADD SLT PUSH2 0x1FF JUMPI SWAP1 SLOAD SWAP1 MLOAD PUSH1 0x1 PUSH1 0x1 PUSH1 0xA0 SHL SUB SWAP1 SWAP2 AND DUP2 MSTORE PUSH1 0x20 SWAP1 RETURN JUMPDEST POP SWAP1 CALLVALUE PUSH2 0x1FF JUMPI DUP2 PUSH1 0x3 NOT CALLDATASIZE ADD SLT PUSH2 0x1FF JUMPI PUSH1 0x1 SLOAD SWAP1 MLOAD PUSH1 0x1 PUSH1 0x1 PUSH1 0xA0 SHL SUB SWAP1 SWAP2 AND DUP2 MSTORE PUSH1 0x20 SWAP1 RETURN JUMPDEST POP SWAP2 SWAP1 CALLVALUE PUSH2 0x43C JUMPI PUSH1 0x20 SWAP1 DUP2 PUSH1 0x3 NOT CALLDATASIZE ADD SLT PUSH2 0xA0B JUMPI PUSH2 0x89A PUSH2 0x12B6 JUMP JUMPDEST SWAP1 CALLER DUP6 MSTORE DUP4 DUP4 MSTORE PUSH2 0x8B0 PUSH1 0xFF DUP3 DUP8 KECCAK256 SLOAD AND PUSH2 0x15B4 JUMP JUMPDEST PUSH1 0x1 PUSH1 0x1 PUSH1 0xA0 SHL SUB DUP3 DUP2 AND DUP1 DUP8 MSTORE PUSH1 0x2 DUP1 DUP7 MSTORE DUP4 DUP9 KECCAK256 PUSH1 0x5 ADD SLOAD SWAP2 SWAP7 SWAP3 SWAP2 PUSH2 0x8DA SWAP1 PUSH1 0xFF AND PUSH2 0x1507 JUMP JUMPDEST DUP7 DUP9 MSTORE DUP1 DUP7 MSTORE DUP1 DUP5 DUP10 KECCAK256 ADD PUSH2 0x8EF DUP2 SLOAD PUSH2 0x14C1 JUMP JUMPDEST SWAP1 SSTORE DUP7 DUP9 MSTORE DUP1 DUP7 MSTORE TIMESTAMP DUP4 DUP6 DUP11 KECCAK256 ADD SSTORE PUSH2 0x907 DUP6 PUSH2 0x17A5 JUMP JUMPDEST DUP7 DUP9 MSTORE DUP1 DUP7 MSTORE PUSH1 0xA DUP5 DUP10 KECCAK256 SWAP2 DUP3 ADD SLOAD MOD ISZERO PUSH2 0x920 JUMPI DUP8 DUP1 RETURN JUMPDEST PUSH1 0x64 SWAP1 SLOAD DIV SWAP4 DUP5 PUSH2 0x92F JUMPI DUP8 DUP1 RETURN JUMPDEST DUP8 SLOAD DUP5 MLOAD PUSH4 0xA9059CBB PUSH1 0xE0 SHL DUP2 MSTORE PUSH1 0x1 PUSH1 0x1 PUSH1 0xA0 SHL SUB SWAP3 SWAP1 SWAP3 AND DUP5 DUP4 ADD SWAP1 DUP2 MSTORE PUSH1 0x20 DUP2 ADD DUP8 SWAP1 MSTORE SWAP2 SWAP3 DUP8 SWAP3 DUP5 SWAP3 SWAP1 DUP4 SWAP1 SUB PUSH1 0x40 ADD SWAP2 DUP4 SWAP2 DUP13 SWAP2 AND GAS CALL SWAP1 DUP2 ISZERO PUSH2 0xA01 JUMPI DUP8 SWAP2 PUSH2 0x9E4 JUMPI JUMPDEST POP ISZERO PUSH2 0x9B3 JUMPI POP MLOAD SWAP1 DUP2 MSTORE PUSH32 0xE34918FF1C7084970068B53FD71AD6D8B04E9F15D3886CBF006443E6CDC52EA6 SWAP2 SWAP1 LOG2 CODESIZE DUP1 DUP1 DUP1 DUP1 DUP1 DUP1 DUP8 DUP1 RETURN JUMPDEST DUP4 PUSH1 0x64 SWAP3 MLOAD SWAP2 PUSH3 0x461BCD PUSH1 0xE5 SHL DUP4 MSTORE DUP3 ADD MSTORE PUSH1 0xD PUSH1 0x24 DUP3 ADD MSTORE PUSH13 0x14995DD85C990819985A5B1959 PUSH1 0x9A SHL PUSH1 0x44 DUP3 ADD MSTORE REVERT JUMPDEST PUSH2 0x9FB SWAP2 POP DUP6 RETURNDATASIZE DUP8 GT PUSH2 0x653 JUMPI PUSH2 0x645 DUP2 DUP4 PUSH2 0x13F9 JUMP JUMPDEST CODESIZE PUSH2 0x979 JUMP JUMPDEST DUP4 MLOAD RETURNDATASIZE DUP10 DUP3 RETURNDATACOPY RETURNDATASIZE SWAP1 REVERT JUMPDEST DUP4 DUP1 REVERT JUMPDEST POP SWAP1 CALLVALUE PUSH2 0x1FF JUMPI DUP2 PUSH1 0x3 NOT CALLDATASIZE ADD SLT PUSH2 0x1FF JUMPI PUSH1 0x20 SWAP1 PUSH1 0x7 SLOAD SWAP1 MLOAD SWAP1 DUP2 MSTORE RETURN JUMPDEST POP SWAP1 CALLVALUE PUSH2 0x1FF JUMPI DUP2 PUSH1 0x3 NOT CALLDATASIZE ADD SLT PUSH2 0x1FF JUMPI PUSH1 0x20 SWAP1 PUSH1 0x8 SLOAD SWAP1 MLOAD SWAP1 DUP2 MSTORE RETURN JUMPDEST POP SWAP2 SWAP1 CALLVALUE PUSH2 0x43C JUMPI PUSH1 0x60 CALLDATASIZE PUSH1 0x3 NOT ADD SLT PUSH2 0x43C JUMPI PUSH1 0xFF PUSH2 0xA77 SWAP2 CALLER DUP6 MSTORE DUP4 PUSH1 0x20 MSTORE DUP5 KECCAK256 SLOAD AND PUSH2 0x15B4 JUMP JUMPDEST CALLDATALOAD PUSH1 0x5 SSTORE PUSH1 0x24 CALLDATALOAD PUSH1 0x6 SSTORE PUSH1 0x44 CALLDATALOAD PUSH1 0x7 SSTORE DUP1 RETURN JUMPDEST POP SWAP1 CALLVALUE PUSH2 0x1FF JUMPI PUSH1 0x20 SWAP1 DUP2 PUSH1 0x3 NOT CALLDATASIZE ADD SLT PUSH2 0x43C JUMPI PUSH8 0xFFFFFFFFFFFFFFFF SWAP1 DUP5 CALLDATALOAD DUP3 DUP2 GT PUSH2 0xD6F JUMPI PUSH2 0xABF SWAP1 CALLDATASIZE SWAP1 DUP8 ADD PUSH2 0x12D1 JUMP JUMPDEST SWAP2 SWAP1 SWAP3 CALLER DUP7 MSTORE PUSH1 0x2 DUP6 MSTORE PUSH1 0xFF PUSH1 0x5 DUP4 DUP9 KECCAK256 ADD SLOAD AND PUSH2 0xD37 JUMPI DUP2 MLOAD PUSH2 0xAE2 DUP2 PUSH2 0x13AB JUMP JUMPDEST DUP7 DUP2 MSTORE DUP6 DUP2 ADD SWAP1 DUP8 DUP3 MSTORE DUP4 DUP2 ADD DUP9 DUP2 MSTORE PUSH1 0x60 DUP3 ADD DUP10 DUP2 MSTORE PUSH1 0x80 DUP4 ADD SWAP1 TIMESTAMP DUP3 MSTORE PUSH1 0xA0 DUP5 ADD SWAP3 PUSH1 0x1 SWAP6 DUP7 DUP6 MSTORE DUP8 DUP11 GT PUSH2 0xD23 JUMPI SWAP2 DUP12 SWAP8 SWAP7 SWAP6 SWAP4 SWAP2 PUSH1 0x1F SWAP6 SWAP4 PUSH2 0xB33 DUP12 MLOAD SWAP11 DUP14 DUP10 NOT SWAP10 DUP11 SWAP2 ADD AND ADD DUP12 PUSH2 0x13F9 JUMP JUMPDEST DUP12 DUP11 MSTORE CALLDATASIZE DUP14 DUP14 ADD GT PUSH2 0xD1F JUMPI DUP11 DUP16 DUP16 DUP16 DUP16 DUP1 DUP16 DUP5 SWAP3 DUP7 SWAP5 DUP5 DUP4 ADD CALLDATACOPY ADD ADD MSTORE PUSH1 0xC0 DUP10 ADD SWAP13 DUP14 MSTORE CALLER DUP3 MSTORE PUSH1 0x2 SWAP1 MSTORE KECCAK256 SWAP6 MLOAD DUP7 SSTORE MLOAD DUP8 DUP7 ADD SSTORE MLOAD PUSH1 0x2 DUP6 ADD SSTORE MLOAD PUSH1 0x3 DUP5 ADD SSTORE MLOAD DUP13 DUP4 ADD SSTORE MLOAD ISZERO ISZERO PUSH1 0x5 DUP3 ADD SWAP1 PUSH2 0xB97 SWAP2 SWAP1 PUSH1 0xFF DUP1 NOT DUP4 SLOAD AND SWAP2 ISZERO ISZERO AND OR SWAP1 SSTORE JUMP JUMPDEST PUSH1 0x6 ADD SWAP4 MLOAD SWAP10 DUP11 MLOAD SWAP4 DUP5 GT PUSH2 0xD0C JUMPI POP PUSH2 0xBB1 DUP5 SLOAD PUSH2 0x1371 JUMP JUMPDEST PUSH1 0x1F DUP2 GT PUSH2 0xCC6 JUMPI JUMPDEST POP DUP8 SWAP1 PUSH1 0x1F DUP5 GT PUSH1 0x1 EQ PUSH2 0xC40 JUMPI POP SWAP2 DUP1 DUP1 SWAP3 PUSH2 0xC2F SWAP7 SWAP6 SWAP5 DUP12 SWAP13 PUSH32 0xDA816CA2FC37B9EECEC62AE8263008EC6BE1AFB38DC28BC9C7C51D7E348DA9C2 SWAP12 SWAP13 SWAP5 PUSH2 0xC35 JUMPI JUMPDEST POP POP SHL SWAP2 PUSH1 0x0 NOT SWAP1 PUSH1 0x3 SHL SHR NOT AND OR SWAP1 SSTORE JUMPDEST PUSH2 0xC1B PUSH1 0xD SLOAD PUSH2 0x14C1 JUMP JUMPDEST PUSH1 0xD SSTORE MLOAD SWAP3 DUP4 SWAP3 DUP7 DUP5 MSTORE CALLER SWAP7 DUP5 ADD SWAP2 PUSH2 0x14E6 JUMP JUMPDEST SUB SWAP1 LOG2 DUP1 RETURN JUMPDEST ADD MLOAD SWAP3 POP CODESIZE DUP1 PUSH2 0xBFE JUMP JUMPDEST DUP4 SWAP3 SWAP4 AND SWAP10 DUP5 DUP11 MSTORE DUP9 DUP11 KECCAK256 SWAP11 DUP11 JUMPDEST DUP2 DUP2 LT PUSH2 0xCB1 JUMPI POP SWAP2 PUSH32 0xDA816CA2FC37B9EECEC62AE8263008EC6BE1AFB38DC28BC9C7C51D7E348DA9C2 SWAP10 SWAP11 SWAP12 SWAP2 DUP5 PUSH2 0xC2F SWAP9 SWAP8 SWAP7 SWAP6 SWAP5 LT PUSH2 0xC98 JUMPI JUMPDEST POP POP POP DUP2 SHL ADD SWAP1 SSTORE PUSH2 0xC10 JUMP JUMPDEST ADD MLOAD PUSH1 0x0 NOT PUSH1 0xF8 DUP5 PUSH1 0x3 SHL AND SHR NOT AND SWAP1 SSTORE CODESIZE DUP1 DUP1 PUSH2 0xC8B JUMP JUMPDEST DUP4 DUP4 ADD MLOAD DUP14 SSTORE SWAP12 DUP6 ADD SWAP12 SWAP3 DUP11 ADD SWAP3 DUP11 ADD PUSH2 0xC4E JUMP JUMPDEST DUP5 DUP11 MSTORE DUP9 DUP11 KECCAK256 PUSH1 0x1F DUP6 ADD PUSH1 0x5 SHR DUP2 ADD SWAP2 DUP11 DUP7 LT PUSH2 0xD02 JUMPI JUMPDEST PUSH1 0x1F ADD PUSH1 0x5 SHR ADD SWAP1 DUP4 SWAP1 JUMPDEST DUP3 DUP2 LT PUSH2 0xCF7 JUMPI POP POP PUSH2 0xBBA JUMP JUMPDEST DUP12 DUP2 SSTORE ADD DUP4 SWAP1 PUSH2 0xCE9 JUMP JUMPDEST SWAP1 SWAP2 POP DUP2 SWAP1 PUSH2 0xCDE JUMP JUMPDEST PUSH4 0x4E487B71 PUSH1 0xE0 SHL DUP11 MSTORE PUSH1 0x41 SWAP1 MSTORE PUSH1 0x24 DUP10 REVERT JUMPDEST DUP15 DUP1 REVERT JUMPDEST POP PUSH4 0x4E487B71 PUSH1 0xE0 SHL DUP13 MSTORE PUSH1 0x41 DUP14 MSTORE PUSH1 0x24 DUP13 REVERT JUMPDEST DUP2 MLOAD PUSH3 0x461BCD PUSH1 0xE5 SHL DUP2 MSTORE DUP1 DUP9 ADD DUP7 SWAP1 MSTORE PUSH1 0x12 PUSH1 0x24 DUP3 ADD MSTORE PUSH18 0x105B1C9958591E481C9959DA5CDD195C9959 PUSH1 0x72 SHL PUSH1 0x44 DUP3 ADD MSTORE PUSH1 0x64 SWAP1 REVERT JUMPDEST DUP5 DUP1 REVERT JUMPDEST POP SWAP1 CALLVALUE PUSH2 0x1FF JUMPI PUSH1 0x20 CALLDATASIZE PUSH1 0x3 NOT ADD SLT PUSH2 0x1FF JUMPI PUSH1 0x20 SWAP1 PUSH2 0xD99 PUSH2 0xD94 PUSH2 0x12B6 JUMP JUMPDEST PUSH2 0x1624 JUMP JUMPDEST SWAP1 MLOAD SWAP1 DUP2 MSTORE RETURN JUMPDEST POP SWAP1 CALLVALUE PUSH2 0x1FF JUMPI DUP2 PUSH1 0x3 NOT CALLDATASIZE ADD SLT PUSH2 0x1FF JUMPI PUSH1 0x20 SWAP1 PUSH1 0x9 SLOAD SWAP1 MLOAD SWAP1 DUP2 MSTORE RETURN JUMPDEST POP SWAP2 CALLVALUE PUSH2 0x43C JUMPI PUSH1 0x20 DUP1 PUSH1 0x3 NOT CALLDATASIZE ADD SLT PUSH2 0xA0B JUMPI DUP2 CALLDATALOAD CALLER DUP6 MSTORE PUSH1 0x2 DUP3 MSTORE PUSH2 0xDEE PUSH1 0xFF PUSH1 0x5 DUP7 DUP9 KECCAK256 ADD SLOAD AND PUSH2 0x1507 JUMP JUMPDEST CALLER DUP6 MSTORE PUSH1 0x3 DUP3 MSTORE DUP4 DUP6 KECCAK256 SLOAD DUP2 LT ISZERO PUSH2 0xF7D JUMPI PUSH2 0xE13 SWAP1 CALLER DUP7 MSTORE PUSH1 0x3 DUP4 MSTORE DUP5 DUP7 KECCAK256 PUSH2 0x133F JUMP JUMPDEST POP PUSH1 0x3 DUP2 ADD DUP1 SLOAD PUSH1 0xFF DUP2 AND PUSH2 0xF45 JUMPI PUSH1 0x2 DUP4 ADD SLOAD TIMESTAMP LT PUSH2 0xF12 JUMPI SWAP2 DUP4 SWAP2 PUSH1 0x1 PUSH2 0xEA8 SWAP5 PUSH1 0xFF NOT AND OR SWAP1 SSTORE SLOAD DUP1 SWAP5 CALLER DUP9 MSTORE PUSH1 0x2 DUP4 MSTORE DUP7 DUP9 KECCAK256 PUSH2 0xE55 DUP4 DUP3 SLOAD PUSH2 0x15A7 JUMP JUMPDEST SWAP1 SSTORE PUSH2 0xE63 DUP3 PUSH1 0xC SLOAD PUSH2 0x15A7 JUMP JUMPDEST PUSH1 0xC SSTORE PUSH2 0xE6F CALLER PUSH2 0x17A5 JUMP JUMPDEST DUP8 SLOAD DUP8 MLOAD PUSH4 0xA9059CBB PUSH1 0xE0 SHL DUP2 MSTORE CALLER SWAP3 DUP2 ADD SWAP3 DUP4 MSTORE PUSH1 0x20 DUP4 ADD SWAP4 SWAP1 SWAP4 MSTORE SWAP2 SWAP4 DUP5 SWAP3 PUSH1 0x1 PUSH1 0x1 PUSH1 0xA0 SHL SUB AND SWAP2 DUP4 SWAP2 DUP11 SWAP2 DUP4 SWAP2 PUSH1 0x40 SWAP1 SWAP2 ADD SWAP1 JUMP JUMPDEST SUB SWAP3 GAS CALL SWAP1 DUP2 ISZERO PUSH2 0xF08 JUMPI PUSH32 0x8108595EB6BAD3ACEFA9DA467D90CC2217686D5C5AC85460F8B7849C840645FC SWAP4 SWAP5 SWAP2 PUSH2 0xEE7 SWAP2 DUP8 SWAP2 PUSH2 0xEF1 JUMPI POP PUSH2 0x155C JUMP JUMPDEST MLOAD SWAP3 DUP4 MSTORE CALLER SWAP3 LOG2 DUP1 RETURN JUMPDEST PUSH2 0x64D SWAP2 POP DUP5 RETURNDATASIZE DUP7 GT PUSH2 0x653 JUMPI PUSH2 0x645 DUP2 DUP4 PUSH2 0x13F9 JUMP JUMPDEST DUP5 MLOAD RETURNDATASIZE DUP8 DUP3 RETURNDATACOPY RETURNDATASIZE SWAP1 REVERT JUMPDEST POP POP SWAP3 MLOAD PUSH3 0x461BCD PUSH1 0xE5 SHL DUP2 MSTORE SWAP2 DUP3 ADD MSTORE PUSH1 0xC PUSH1 0x24 DUP3 ADD MSTORE PUSH12 0x14DD1A5B1B081B1BD8DAD959 PUSH1 0xA2 SHL PUSH1 0x44 DUP3 ADD MSTORE PUSH1 0x64 SWAP2 POP REVERT JUMPDEST POP POP SWAP3 MLOAD PUSH3 0x461BCD PUSH1 0xE5 SHL DUP2 MSTORE SWAP2 DUP3 ADD MSTORE PUSH1 0x11 PUSH1 0x24 DUP3 ADD MSTORE PUSH17 0x20B63932B0B23C903BB4BA34323930BBB7 PUSH1 0x79 SHL PUSH1 0x44 DUP3 ADD MSTORE PUSH1 0x64 SWAP2 POP REVERT JUMPDEST POP PUSH1 0x64 SWAP3 MLOAD SWAP2 PUSH3 0x461BCD PUSH1 0xE5 SHL DUP4 MSTORE DUP3 ADD MSTORE PUSH1 0xD PUSH1 0x24 DUP3 ADD MSTORE PUSH13 0x92DCECC2D8D2C840D2DCC8CAF PUSH1 0x9B SHL PUSH1 0x44 DUP3 ADD MSTORE REVERT JUMPDEST POP DUP3 CALLVALUE PUSH2 0x1FF JUMPI PUSH1 0x60 CALLDATASIZE PUSH1 0x3 NOT ADD SLT PUSH2 0x1FF JUMPI PUSH2 0xFC9 PUSH2 0x12B6 JUMP JUMPDEST SWAP3 PUSH1 0x44 CALLDATALOAD PUSH8 0xFFFFFFFFFFFFFFFF DUP2 GT PUSH2 0xA0B JUMPI PUSH2 0xFE9 SWAP1 CALLDATASIZE SWAP1 DUP5 ADD PUSH2 0x12D1 JUMP JUMPDEST SWAP5 SWAP1 SWAP5 CALLER DUP6 MSTORE PUSH1 0x20 SWAP3 DUP5 DUP5 MSTORE PUSH1 0xFF SWAP3 PUSH2 0x1006 DUP5 DUP4 DUP10 KECCAK256 SLOAD AND PUSH2 0x15B4 JUMP JUMPDEST PUSH1 0x1 PUSH1 0x1 PUSH1 0xA0 SHL SUB DUP2 DUP2 AND DUP1 DUP10 MSTORE PUSH1 0x2 DUP1 DUP9 MSTORE DUP5 DUP11 KECCAK256 PUSH1 0x5 ADD SLOAD SWAP2 SWAP9 SWAP2 PUSH2 0x102E SWAP1 DUP9 AND PUSH2 0x1507 JUMP JUMPDEST DUP9 DUP11 MSTORE DUP1 DUP9 MSTORE PUSH1 0x3 SWAP7 DUP8 DUP7 DUP13 KECCAK256 ADD PUSH2 0x1046 DUP2 SLOAD PUSH2 0x14C1 JUMP JUMPDEST SWAP1 SSTORE DUP10 DUP12 MSTORE DUP2 DUP10 MSTORE PUSH2 0x2710 PUSH2 0x1072 DUP8 DUP14 KECCAK256 TIMESTAMP DUP7 DUP3 ADD SSTORE SLOAD PUSH2 0x106D PUSH1 0x24 CALLDATALOAD SWAP2 PUSH1 0x6 SLOAD SWAP1 PUSH2 0x15F1 JUMP JUMPDEST PUSH2 0x15F1 JUMP JUMPDEST DIV SWAP8 DUP9 ISZERO ISZERO DUP1 PUSH2 0x12A4 JUMPI JUMPDEST PUSH2 0x10CA JUMPI JUMPDEST DUP12 DUP12 PUSH32 0xF90D547AF41B84AE5DB3DC86FAC677444898B3350B3E9CCCD482DEA1274BFC95 DUP16 DUP13 PUSH2 0xC2F DUP16 SWAP3 DUP15 DUP15 PUSH2 0x10B7 DUP16 PUSH2 0x17A5 JUMP JUMPDEST DUP1 DUP1 MLOAD SWAP7 DUP8 SWAP7 DUP8 MSTORE DUP7 ADD MSTORE DUP5 ADD SWAP2 PUSH2 0x14E6 JUMP JUMPDEST SWAP2 SWAP5 SWAP8 SWAP1 SWAP3 SWAP9 SWAP4 SWAP11 SWAP6 SWAP7 DUP2 SWAP9 DUP12 DUP9 MSTORE DUP4 DUP7 MSTORE DUP9 DUP9 KECCAK256 SWAP11 DUP9 JUMPDEST DUP13 SLOAD DUP2 LT DUP1 PUSH2 0x129B JUMPI JUMPDEST ISZERO PUSH2 0x11B1 JUMPI DUP13 DUP15 DUP9 DUP9 PUSH2 0x10FF DUP6 DUP6 PUSH2 0x133F JUMP JUMPDEST POP ADD SLOAD AND ISZERO DUP1 PUSH2 0x119D JUMPI JUMPDEST PUSH2 0x111F JUMPI JUMPDEST POP POP PUSH2 0x111A SWAP1 PUSH2 0x14C1 JUMP JUMPDEST PUSH2 0x10E2 JUMP JUMPDEST SWAP1 DUP3 SWAP14 PUSH2 0x118C SWAP3 PUSH2 0x1155 DUP6 DUP16 PUSH2 0x1138 PUSH2 0x111A SWAP9 DUP8 PUSH2 0x133F JUMP JUMPDEST POP SLOAD DUP6 GT ISZERO SWAP1 POP PUSH2 0x1196 JUMPI PUSH2 0x114D DUP2 DUP7 PUSH2 0x133F JUMP JUMPDEST POP SLOAD SWAP5 PUSH2 0x133F JUMP JUMPDEST POP PUSH2 0x1161 DUP5 DUP3 SLOAD PUSH2 0x15A7 JUMP JUMPDEST SWAP1 SSTORE DUP14 MSTORE DUP12 DUP12 MSTORE DUP14 DUP14 KECCAK256 PUSH2 0x1176 DUP4 DUP3 SLOAD PUSH2 0x15A7 JUMP JUMPDEST SWAP1 SSTORE PUSH1 0xC PUSH2 0x1185 DUP4 DUP3 SLOAD PUSH2 0x15A7 JUMP JUMPDEST SWAP1 SSTORE PUSH2 0x15A7 JUMP JUMPDEST SWAP12 SWAP1 POP DUP13 DUP15 PUSH2 0x110F JUMP JUMPDEST DUP4 SWAP5 PUSH2 0x133F JUMP JUMPDEST POP PUSH2 0x11A8 DUP4 DUP4 PUSH2 0x133F JUMP JUMPDEST POP SLOAD ISZERO ISZERO PUSH2 0x110A JUMP JUMPDEST POP SWAP6 SWAP12 SWAP13 DUP9 SWAP15 SWAP11 SWAP4 SWAP12 POP PUSH2 0x11DB SWAP2 SWAP8 POP PUSH2 0x1212 SWAP6 POP DUP13 SWAP5 POP DUP1 SWAP3 SWAP10 SWAP9 SLOAD AND SWAP2 PUSH1 0x1 SLOAD AND SWAP3 DUP12 PUSH2 0x15A7 JUMP JUMPDEST DUP8 MLOAD PUSH4 0xA9059CBB PUSH1 0xE0 SHL DUP2 MSTORE PUSH1 0x1 PUSH1 0x1 PUSH1 0xA0 SHL SUB SWAP1 SWAP4 AND DUP7 DUP5 ADD SWAP1 DUP2 MSTORE PUSH1 0x20 DUP2 ADD SWAP2 SWAP1 SWAP2 MSTORE SWAP2 SWAP4 DUP5 SWAP3 DUP4 SWAP2 DUP16 SWAP2 DUP4 SWAP2 PUSH1 0x40 SWAP1 SWAP2 ADD SWAP1 JUMP JUMPDEST SUB SWAP3 GAS CALL SWAP1 DUP2 ISZERO PUSH2 0x1291 JUMPI DUP11 SWAP2 PUSH2 0x1274 JUMPI JUMPDEST POP ISZERO PUSH2 0x1239 JUMPI DUP1 DUP1 DUP1 DUP1 SWAP12 SWAP11 SWAP10 SWAP9 SWAP8 SWAP12 PUSH2 0x1082 JUMP JUMPDEST DUP3 MLOAD PUSH3 0x461BCD PUSH1 0xE5 SHL DUP2 MSTORE SWAP1 DUP2 ADD DUP8 SWAP1 MSTORE PUSH1 0x15 PUSH1 0x24 DUP3 ADD MSTORE PUSH21 0x14DB185CDA081D1C985B9CD9995C8819985A5B1959 PUSH1 0x5A SHL PUSH1 0x44 DUP3 ADD MSTORE PUSH1 0x64 SWAP1 REVERT JUMPDEST PUSH2 0x128B SWAP2 POP DUP9 RETURNDATASIZE DUP11 GT PUSH2 0x653 JUMPI PUSH2 0x645 DUP2 DUP4 PUSH2 0x13F9 JUMP JUMPDEST DUP11 PUSH2 0x1224 JUMP JUMPDEST DUP5 MLOAD RETURNDATASIZE DUP13 DUP3 RETURNDATACOPY RETURNDATASIZE SWAP1 REVERT JUMPDEST POP DUP12 ISZERO ISZERO PUSH2 0x10EC JUMP JUMPDEST POP DUP11 DUP13 MSTORE DUP3 DUP11 MSTORE DUP7 DUP13 KECCAK256 SLOAD ISZERO ISZERO PUSH2 0x107D JUMP JUMPDEST PUSH1 0x4 CALLDATALOAD SWAP1 PUSH1 0x1 PUSH1 0x1 PUSH1 0xA0 SHL SUB DUP3 AND DUP3 SUB PUSH2 0x12CC JUMPI JUMP JUMPDEST PUSH1 0x0 DUP1 REVERT JUMPDEST SWAP2 DUP2 PUSH1 0x1F DUP5 ADD SLT ISZERO PUSH2 0x12CC JUMPI DUP3 CALLDATALOAD SWAP2 PUSH8 0xFFFFFFFFFFFFFFFF DUP4 GT PUSH2 0x12CC JUMPI PUSH1 0x20 DUP4 DUP2 DUP7 ADD SWAP6 ADD ADD GT PUSH2 0x12CC JUMPI JUMP JUMPDEST SWAP2 SWAP1 DUP3 MLOAD SWAP3 DUP4 DUP3 MSTORE PUSH1 0x0 JUMPDEST DUP5 DUP2 LT PUSH2 0x132B JUMPI POP POP DUP3 PUSH1 0x0 PUSH1 0x20 DUP1 SWAP5 SWAP6 DUP5 ADD ADD MSTORE PUSH1 0x1F DUP1 NOT SWAP2 ADD AND ADD ADD SWAP1 JUMP JUMPDEST PUSH1 0x20 DUP2 DUP4 ADD DUP2 ADD MLOAD DUP5 DUP4 ADD DUP3 ADD MSTORE ADD PUSH2 0x130A JUMP JUMPDEST DUP1 SLOAD DUP3 LT ISZERO PUSH2 0x135B JUMPI PUSH1 0x0 MSTORE PUSH1 0x20 PUSH1 0x0 KECCAK256 SWAP1 PUSH1 0x2 SHL ADD SWAP1 PUSH1 0x0 SWAP1 JUMP JUMPDEST PUSH4 0x4E487B71 PUSH1 0xE0 SHL PUSH1 0x0 MSTORE PUSH1 0x32 PUSH1 0x4 MSTORE PUSH1 0x24 PUSH1 0x0 REVERT JUMPDEST SWAP1 PUSH1 0x1 DUP3 DUP2 SHR SWAP3 AND DUP1 ISZERO PUSH2 0x13A1 JUMPI JUMPDEST PUSH1 0x20 DUP4 LT EQ PUSH2 0x138B JUMPI JUMP JUMPDEST PUSH4 0x4E487B71 PUSH1 0xE0 SHL PUSH1 0x0 MSTORE PUSH1 0x22 PUSH1 0x4 MSTORE PUSH1 0x24 PUSH1 0x0 REVERT JUMPDEST SWAP2 PUSH1 0x7F AND SWAP2 PUSH2 0x1380 JUMP JUMPDEST PUSH1 0xE0 DUP2 ADD SWAP1 DUP2 LT PUSH8 0xFFFFFFFFFFFFFFFF DUP3 GT OR PUSH2 0x13C7 JUMPI PUSH1 0x40 MSTORE JUMP JUMPDEST PUSH4 0x4E487B71 PUSH1 0xE0 SHL PUSH1 0x0 MSTORE PUSH1 0x41 PUSH1 0x4 MSTORE PUSH1 0x24 PUSH1 0x0 REVERT JUMPDEST PUSH1 0x80 DUP2 ADD SWAP1 DUP2 LT PUSH8 0xFFFFFFFFFFFFFFFF DUP3 GT OR PUSH2 0x13C7 JUMPI PUSH1 0x40 MSTORE JUMP JUMPDEST SWAP1 PUSH1 0x1F DUP1 NOT SWAP2 ADD AND DUP2 ADD SWAP1 DUP2 LT PUSH8 0xFFFFFFFFFFFFFFFF DUP3 GT OR PUSH2 0x13C7 JUMPI PUSH1 0x40 MSTORE JUMP JUMPDEST SWAP1 PUSH1 0x40 MLOAD SWAP2 DUP3 PUSH1 0x0 DUP3 SLOAD SWAP3 PUSH2 0x142F DUP5 PUSH2 0x1371 JUMP JUMPDEST SWAP1 DUP2 DUP5 MSTORE PUSH1 0x1 SWAP5 DUP6 DUP2 AND SWAP1 DUP2 PUSH1 0x0 EQ PUSH2 0x149E JUMPI POP PUSH1 0x1 EQ PUSH2 0x145B JUMPI JUMPDEST POP POP PUSH2 0x1459 SWAP3 POP SUB DUP4 PUSH2 0x13F9 JUMP JUMPDEST JUMP JUMPDEST SWAP1 SWAP4 SWAP2 POP PUSH1 0x0 MSTORE PUSH1 0x20 SWAP1 DUP2 PUSH1 0x0 KECCAK256 SWAP4 PUSH1 0x0 SWAP2 JUMPDEST DUP2 DUP4 LT PUSH2 0x1486 JUMPI POP POP PUSH2 0x1459 SWAP4 POP DUP3 ADD ADD CODESIZE DUP1 PUSH2 0x144B JUMP JUMPDEST DUP6 SLOAD DUP9 DUP5 ADD DUP6 ADD MSTORE SWAP5 DUP6 ADD SWAP5 DUP8 SWAP5 POP SWAP2 DUP4 ADD SWAP2 PUSH2 0x146E JUMP JUMPDEST SWAP2 POP POP PUSH2 0x1459 SWAP5 POP PUSH1 0x20 SWAP3 POP PUSH1 0xFF NOT AND DUP3 DUP5 ADD MSTORE ISZERO ISZERO PUSH1 0x5 SHL DUP3 ADD ADD CODESIZE DUP1 PUSH2 0x144B JUMP JUMPDEST PUSH1 0x0 NOT DUP2 EQ PUSH2 0x14D0 JUMPI PUSH1 0x1 ADD SWAP1 JUMP JUMPDEST PUSH4 0x4E487B71 PUSH1 0xE0 SHL PUSH1 0x0 MSTORE PUSH1 0x11 PUSH1 0x4 MSTORE PUSH1 0x24 PUSH1 0x0 REVERT JUMPDEST SWAP1 DUP1 PUSH1 0x20 SWAP4 SWAP3 DUP2 DUP5 MSTORE DUP5 DUP5 ADD CALLDATACOPY PUSH1 0x0 DUP3 DUP3 ADD DUP5 ADD MSTORE PUSH1 0x1F ADD PUSH1 0x1F NOT AND ADD ADD SWAP1 JUMP JUMPDEST ISZERO PUSH2 0x150E JUMPI JUMP JUMPDEST PUSH1 0x40 MLOAD PUSH3 0x461BCD PUSH1 0xE5 SHL DUP2 MSTORE PUSH1 0x20 PUSH1 0x4 DUP3 ADD MSTORE PUSH1 0xE PUSH1 0x24 DUP3 ADD MSTORE PUSH14 0x139BDD081C9959DA5CDD195C9959 PUSH1 0x92 SHL PUSH1 0x44 DUP3 ADD MSTORE PUSH1 0x64 SWAP1 REVERT JUMPDEST SWAP1 DUP2 PUSH1 0x20 SWAP2 SUB SLT PUSH2 0x12CC JUMPI MLOAD DUP1 ISZERO ISZERO DUP2 SUB PUSH2 0x12CC JUMPI SWAP1 JUMP JUMPDEST ISZERO PUSH2 0x1563 JUMPI JUMP JUMPDEST PUSH1 0x40 MLOAD PUSH3 0x461BCD PUSH1 0xE5 SHL DUP2 MSTORE PUSH1 0x20 PUSH1 0x4 DUP3 ADD MSTORE PUSH1 0xF PUSH1 0x24 DUP3 ADD MSTORE PUSH15 0x151C985B9CD9995C8819985A5B1959 PUSH1 0x8A SHL PUSH1 0x44 DUP3 ADD MSTORE PUSH1 0x64 SWAP1 REVERT JUMPDEST SWAP2 SWAP1 DUP3 ADD DUP1 SWAP3 GT PUSH2 0x14D0 JUMPI JUMP JUMPDEST SWAP2 SWAP1 DUP3 SUB SWAP2 DUP3 GT PUSH2 0x14D0 JUMPI JUMP JUMPDEST ISZERO PUSH2 0x15BB JUMPI JUMP JUMPDEST PUSH1 0x40 MLOAD PUSH3 0x461BCD PUSH1 0xE5 SHL DUP2 MSTORE PUSH1 0x20 PUSH1 0x4 DUP3 ADD MSTORE PUSH1 0xE PUSH1 0x24 DUP3 ADD MSTORE PUSH14 0x139BDD08185D5D1A1BDC9A5E9959 PUSH1 0x92 SHL PUSH1 0x44 DUP3 ADD MSTORE PUSH1 0x64 SWAP1 REVERT JUMPDEST DUP2 DUP2 MUL SWAP3 SWAP2 DUP2 ISZERO SWAP2 DUP5 DIV EQ OR ISZERO PUSH2 0x14D0 JUMPI JUMP JUMPDEST DUP2 ISZERO PUSH2 0x160E JUMPI DIV SWAP1 JUMP JUMPDEST PUSH4 0x4E487B71 PUSH1 0xE0 SHL PUSH1 0x0 MSTORE PUSH1 0x12 PUSH1 0x4 MSTORE PUSH1 0x24 PUSH1 0x0 REVERT JUMPDEST PUSH1 0x1 PUSH1 0x1 PUSH1 0xA0 SHL SUB AND PUSH1 0x0 SWAP1 DUP2 MSTORE PUSH1 0x2 PUSH1 0x20 MSTORE PUSH1 0x40 DUP2 KECCAK256 PUSH1 0x5 DUP2 ADD SLOAD PUSH1 0xFF AND ISZERO PUSH2 0x17A1 JUMPI DUP1 SLOAD DUP1 ISZERO PUSH2 0x179A JUMPI PUSH2 0x1660 PUSH2 0x1669 SWAP2 PUSH1 0x9 SLOAD SWAP1 PUSH2 0x15F1 JUMP JUMPDEST PUSH1 0x5 SLOAD SWAP1 PUSH2 0x1604 JUMP JUMPDEST SWAP2 JUMPDEST PUSH2 0x190 DUP1 DUP5 GT PUSH2 0x1792 JUMPI JUMPDEST POP PUSH1 0x2 DUP3 ADD SLOAD SWAP2 PUSH2 0x168B PUSH1 0x3 DUP3 ADD SLOAD DUP5 PUSH2 0x159A JUMP JUMPDEST DUP3 SWAP4 DUP2 PUSH2 0x172F JUMPI JUMPDEST POP POP PUSH2 0x16A7 PUSH1 0x4 PUSH3 0x15180 SWAP3 ADD SLOAD TIMESTAMP PUSH2 0x15A7 JUMP JUMPDEST DIV PUSH1 0x1E DUP2 LT ISZERO PUSH2 0x171F JUMPI PUSH1 0x1E SUB PUSH1 0x1E DUP2 GT PUSH2 0x170B JUMPI PUSH1 0xB SLOAD PUSH2 0x16C8 SWAP2 PUSH2 0x15F1 JUMP JUMPDEST SWAP1 PUSH1 0xA DUP3 MUL SWAP2 DUP1 DUP4 DIV PUSH1 0xA EQ SWAP1 ISZERO OR ISZERO PUSH2 0x16F7 JUMPI POP PUSH2 0x16F4 SWAP3 SWAP2 PUSH1 0x1E PUSH2 0x16EF SWAP3 DIV SWAP3 PUSH2 0x159A JUMP JUMPDEST PUSH2 0x159A JUMP JUMPDEST SWAP1 JUMP JUMPDEST PUSH4 0x4E487B71 PUSH1 0xE0 SHL DUP2 MSTORE PUSH1 0x11 PUSH1 0x4 MSTORE PUSH1 0x24 SWAP1 REVERT JUMPDEST PUSH4 0x4E487B71 PUSH1 0xE0 SHL DUP3 MSTORE PUSH1 0x11 PUSH1 0x4 MSTORE PUSH1 0x24 DUP3 REVERT JUMPDEST POP PUSH2 0x16F4 SWAP3 SWAP2 PUSH2 0x16EF SWAP2 SWAP3 PUSH2 0x159A JUMP JUMPDEST SWAP1 SWAP2 SWAP4 POP PUSH1 0x64 DUP2 MUL SWAP1 DUP1 DUP3 DIV PUSH1 0x64 EQ SWAP1 ISZERO OR ISZERO PUSH2 0x177E JUMPI PUSH2 0x175C SWAP2 PUSH2 0x1753 SWAP2 PUSH2 0x1604 JUMP JUMPDEST PUSH1 0xA SLOAD SWAP1 PUSH2 0x15F1 JUMP JUMPDEST PUSH1 0xA DUP2 MUL SWAP1 DUP1 DUP3 DIV PUSH1 0xA EQ SWAP1 ISZERO OR ISZERO PUSH2 0x170B JUMPI PUSH1 0x64 SWAP1 DIV SWAP2 PUSH2 0x16A7 PUSH1 0x4 PUSH2 0x1693 JUMP JUMPDEST PUSH4 0x4E487B71 PUSH1 0xE0 SHL DUP4 MSTORE PUSH1 0x11 PUSH1 0x4 MSTORE PUSH1 0x24 DUP4 REVERT JUMPDEST SWAP3 POP CODESIZE PUSH2 0x1676 JUMP JUMPDEST POP DUP2 PUSH2 0x166B JUMP JUMPDEST POP SWAP1 JUMP JUMPDEST PUSH32 0xFC577563F1B9A0461E24ABEF1E1FCC0D33D3D881F20B5DF6DDA59DE4AAE2C821 PUSH1 0x20 PUSH2 0x17D1 DUP4 PUSH2 0x1624 JUMP JUMPDEST SWAP3 PUSH1 0x1 DUP1 PUSH1 0xA0 SHL SUB AND SWAP3 DUP4 PUSH1 0x0 MSTORE PUSH1 0x2 DUP3 MSTORE DUP1 PUSH1 0x1 PUSH1 0x40 PUSH1 0x0 KECCAK256 ADD SSTORE PUSH1 0x40 MLOAD SWAP1 DUP2 MSTORE LOG2 JUMP INVALID LOG2 PUSH5 0x6970667358 0x22 SLT KECCAK256 MLOAD 0x2A SWAP13 SGT GASPRICE SMOD 0xCA 0xE4 PUSH1 0xCC 0xD1 0x1E PUSH29 0xE6A304C995C0F2A758DA4F1C72BCB99836061264736F6C634300081400 CALLER "},"methodIdentifiers":{"activityWeight()":"b0c87df2","addSlasher(address)":"68a9f19c","agentStakes(address,uint256)":"b2ab2782","agents(address)":"fd66091e","authorizedSlashers(address)":"aed2d908","calculateReputation(address)":"27c06fd5","feeRecipient()":"46904840","getAgentProfile(address)":"78dc93a4","getStake(address,uint256)":"cfd47663","getStakeCount(address)":"cf57ee69","historyWeight()":"be3ac6a7","isRegistered(address)":"c3c5a547","lockPeriod()":"3fd8b02f","minimumStake()":"ec5ffac2","protocolFeeBps()":"35659fb8","recordBreach(address,uint256,string)":"209ffa18","recordSuccess(address)":"42341287","registerAgent(string)":"2d2a9585","removeSlasher(address)":"aac6aa9c","setParameters(uint256,uint256,uint256)":"34c5d2ce","slashingPercentage()":"69666a49","stake(uint256)":"a694fc3a","stakeToken()":"51ed6a30","stakeWeight()":"267b1167","totalAgents()":"c5053712","totalStaked()":"817b1cd2","withdrawStake(uint256)":"25d5971f"}}}}}