{"contracts/AgentRegistry.sol":{"AgentRegistry":{"abi":[{"inputs":[],"stateMutability":"nonpayable","type":"constructor"},{"anonymous":false,"inputs":[{"indexed":true,"internalType":"address","name":"agent","type":"address"},{"indexed":false,"internalType":"uint256","name":"covenantsCompleted","type":"uint256"},{"indexed":false,"internalType":"uint256","name":"tasksCompleted","type":"uint256"},{"indexed":false,"internalType":"uint256","name":"totalEarned","type":"uint256"}],"name":"ActivityRecorded","type":"event"},{"anonymous":false,"inputs":[{"indexed":true,"internalType":"address","name":"agent","type":"address"},{"indexed":false,"internalType":"uint256","name":"timestamp","type":"uint256"}],"name":"AgentDeactivated","type":"event"},{"anonymous":false,"inputs":[{"indexed":true,"internalType":"address","name":"agent","type":"address"},{"indexed":false,"internalType":"uint256","name":"timestamp","type":"uint256"}],"name":"AgentReactivated","type":"event"},{"anonymous":false,"inputs":[{"indexed":true,"internalType":"address","name":"agent","type":"address"},{"indexed":false,"internalType":"string","name":"metadataURI","type":"string"},{"indexed":false,"internalType":"uint256[]","name":"skills","type":"uint256[]"},{"indexed":false,"internalType":"uint256","name":"timestamp","type":"uint256"}],"name":"AgentRegistered","type":"event"},{"anonymous":false,"inputs":[{"indexed":true,"internalType":"address","name":"agent","type":"address"},{"indexed":false,"internalType":"string","name":"metadataURI","type":"string"},{"indexed":false,"internalType":"uint256[]","name":"skills","type":"uint256[]"},{"indexed":false,"internalType":"uint256","name":"timestamp","type":"uint256"}],"name":"AgentUpdated","type":"event"},{"anonymous":false,"inputs":[{"indexed":true,"internalType":"uint256","name":"skillId","type":"uint256"},{"indexed":false,"internalType":"string","name":"name","type":"string"},{"indexed":false,"internalType":"string","name":"description","type":"string"}],"name":"SkillAdded","type":"event"},{"anonymous":false,"inputs":[{"indexed":true,"internalType":"address","name":"agent","type":"address"},{"indexed":true,"internalType":"uint256","name":"skillId","type":"uint256"}],"name":"SkillAssigned","type":"event"},{"inputs":[{"internalType":"string","name":"_name","type":"string"},{"internalType":"string","name":"_description","type":"string"}],"name":"addSkill","outputs":[],"stateMutability":"nonpayable","type":"function"},{"inputs":[{"internalType":"address","name":"","type":"address"}],"name":"agents","outputs":[{"internalType":"address","name":"agentAddress","type":"address"},{"internalType":"string","name":"metadataURI","type":"string"},{"internalType":"uint256","name":"reputationScore","type":"uint256"},{"internalType":"bool","name":"isActive","type":"bool"},{"internalType":"uint256","name":"registeredAt","type":"uint256"},{"internalType":"uint256","name":"lastActive","type":"uint256"},{"internalType":"uint256","name":"covenantsCompleted","type":"uint256"},{"internalType":"uint256","name":"tasksCompleted","type":"uint256"},{"internalType":"uint256","name":"totalEarned","type":"uint256"}],"stateMutability":"view","type":"function"},{"inputs":[{"internalType":"uint256","name":"","type":"uint256"}],"name":"allAgents","outputs":[{"internalType":"address","name":"","type":"address"}],"stateMutability":"view","type":"function"},{"inputs":[],"name":"deactivate","outputs":[],"stateMutability":"nonpayable","type":"function"},{"inputs":[{"internalType":"uint256","name":"_skillId","type":"uint256"}],"name":"findAgentsBySkill","outputs":[{"internalType":"address[]","name":"","type":"address[]"}],"stateMutability":"view","type":"function"},{"inputs":[{"internalType":"uint256[]","name":"_skillIds","type":"uint256[]"}],"name":"findAgentsBySkills","outputs":[{"internalType":"address[]","name":"","type":"address[]"}],"stateMutability":"view","type":"function"},{"inputs":[{"internalType":"address","name":"_agent","type":"address"}],"name":"getAgent","outputs":[{"components":[{"internalType":"address","name":"agentAddress","type":"address"},{"internalType":"string","name":"metadataURI","type":"string"},{"internalType":"uint256[]","name":"skills","type":"uint256[]"},{"internalType":"string[]","name":"skillNames","type":"string[]"},{"internalType":"uint256","name":"reputationScore","type":"uint256"},{"internalType":"bool","name":"isActive","type":"bool"},{"internalType":"uint256","name":"registeredAt","type":"uint256"},{"internalType":"uint256","name":"lastActive","type":"uint256"},{"internalType":"uint256","name":"covenantsCompleted","type":"uint256"},{"internalType":"uint256","name":"tasksCompleted","type":"uint256"},{"internalType":"uint256","name":"totalEarned","type":"uint256"}],"internalType":"struct AgentRegistry.AgentProfile","name":"","type":"tuple"}],"stateMutability":"view","type":"function"},{"inputs":[],"name":"getAgentCount","outputs":[{"internalType":"uint256","name":"","type":"uint256"}],"stateMutability":"view","type":"function"},{"inputs":[{"internalType":"address","name":"_agent","type":"address"}],"name":"getAgentSkills","outputs":[{"internalType":"uint256[]","name":"","type":"uint256[]"}],"stateMutability":"view","type":"function"},{"inputs":[],"name":"getAllSkills","outputs":[{"components":[{"internalType":"uint256","name":"id","type":"uint256"},{"internalType":"string","name":"name","type":"string"},{"internalType":"string","name":"description","type":"string"},{"internalType":"uint256","name":"agentCount","type":"uint256"}],"internalType":"struct AgentRegistry.Skill[]","name":"","type":"tuple[]"}],"stateMutability":"view","type":"function"},{"inputs":[{"internalType":"uint256","name":"_limit","type":"uint256"},{"internalType":"uint256","name":"_withinSeconds","type":"uint256"}],"name":"getRecentlyActive","outputs":[{"internalType":"address[]","name":"","type":"address[]"}],"stateMutability":"view","type":"function"},{"inputs":[{"internalType":"uint256","name":"_limit","type":"uint256"}],"name":"getTopAgents","outputs":[{"internalType":"address[]","name":"","type":"address[]"}],"stateMutability":"view","type":"function"},{"inputs":[{"internalType":"address","name":"_agent","type":"address"}],"name":"isRegistered","outputs":[{"internalType":"bool","name":"","type":"bool"}],"stateMutability":"view","type":"function"},{"inputs":[],"name":"nextSkillId","outputs":[{"internalType":"uint256","name":"","type":"uint256"}],"stateMutability":"view","type":"function"},{"inputs":[],"name":"owner","outputs":[{"internalType":"address","name":"","type":"address"}],"stateMutability":"view","type":"function"},{"inputs":[],"name":"reactivate","outputs":[],"stateMutability":"nonpayable","type":"function"},{"inputs":[{"internalType":"address","name":"_agent","type":"address"},{"internalType":"uint256","name":"_covenantsCompleted","type":"uint256"},{"internalType":"uint256","name":"_tasksCompleted","type":"uint256"},{"internalType":"uint256","name":"_totalEarned","type":"uint256"}],"name":"recordActivity","outputs":[],"stateMutability":"nonpayable","type":"function"},{"inputs":[{"internalType":"string","name":"_metadataURI","type":"string"},{"internalType":"uint256[]","name":"_skillIds","type":"uint256[]"}],"name":"registerAgent","outputs":[],"stateMutability":"payable","type":"function"},{"inputs":[],"name":"registrationFee","outputs":[{"internalType":"uint256","name":"","type":"uint256"}],"stateMutability":"view","type":"function"},{"inputs":[{"internalType":"uint256","name":"_newFee","type":"uint256"}],"name":"setRegistrationFee","outputs":[],"stateMutability":"nonpayable","type":"function"},{"inputs":[{"internalType":"string","name":"","type":"string"}],"name":"skillNameToId","outputs":[{"internalType":"uint256","name":"","type":"uint256"}],"stateMutability":"view","type":"function"},{"inputs":[{"internalType":"uint256","name":"","type":"uint256"},{"internalType":"uint256","name":"","type":"uint256"}],"name":"skillToAgents","outputs":[{"internalType":"address","name":"","type":"address"}],"stateMutability":"view","type":"function"},{"inputs":[{"internalType":"uint256","name":"","type":"uint256"}],"name":"skills","outputs":[{"internalType":"uint256","name":"id","type":"uint256"},{"internalType":"string","name":"name","type":"string"},{"internalType":"string","name":"description","type":"string"},{"internalType":"uint256","name":"agentCount","type":"uint256"}],"stateMutability":"view","type":"function"},{"inputs":[],"name":"totalAgents","outputs":[{"internalType":"uint256","name":"","type":"uint256"}],"stateMutability":"view","type":"function"},{"inputs":[{"internalType":"string","name":"_metadataURI","type":"string"},{"internalType":"uint256[]","name":"_skillIds","type":"uint256[]"}],"name":"updateProfile","outputs":[],"stateMutability":"nonpayable","type":"function"},{"inputs":[],"name":"withdrawFees","outputs":[],"stateMutability":"nonpayable","type":"function"},{"stateMutability":"payable","type":"receive"}],"evm":{"bytecode":{"linkReferences":{},"object":"60406080815234620003a7576001600555600060065566038d7ea4c68000600855600780546001600160a01b031916331790556200039962000040620003ac565b601a8152620000b96020917f536d61727420436f6e747261637420446576656c6f706d656e74000000000000838201526200007a620003e2565b90602782527f57726974696e6720616e64206175646974696e6720536f6c696469747920636f84830152666e74726163747360c81b868301526200044e565b62000126620000c7620003ac565b600d81526c4461746120416e616c7973697360981b83820152620000ea620003e2565b90602482527f4f6e2d636861696e20616e64206f66662d636861696e206461746120616e616c84830152637973697360e01b868301526200044e565b6200018e62000134620003ac565b600781526654726164696e6760c81b8382015262000151620003e2565b90602582527f446546692074726164696e6720616e64206172626974726167652073747261748483015264656769657360d81b868301526200044e565b620002006200019c620003ac565b601081526f21b7b73a32b73a1021b932b0ba34b7b760811b83820152620001c2620003e2565b90602682527f446f63756d656e746174696f6e2c20736f6369616c206d656469612c206d617284830152656b6574696e6760d01b868301526200044e565b620002656200020e620003ac565b60118152705365637572697479204175646974696e6760781b8382015262000235620003ac565b90601f82527f536d61727420636f6e7472616374207365637572697479207265766965777300848301526200044e565b620002d362000273620003ac565b601081526f4d616368696e65204c6561726e696e6760801b8382015262000299620003e2565b90602282527f41492f4d4c206d6f64656c20747261696e696e6720616e6420696e666572656e8483015261636560f01b868301526200044e565b6200032d620002e1620003ac565b60068152654465764f707360d01b83820152620002fd620003ac565b90601d82527f496e66726173747275637475726520616e64206465706c6f796d656e74000000848301526200044e565b62000337620003ac565b601481527f436f6d6d756e697479204d616e6167656d656e74000000000000000000000000828201527f446973636f72642c20666f72756d732c20676f7665726e616e636500000000006200038b620003ac565b92601b84528301526200044e565b516126879081620007fd8239f35b600080fd5b60408051919082016001600160401b03811183821017620003cc57604052565b634e487b7160e01b600052604160045260246000fd5b60405190606082016001600160401b03811183821017620003cc57604052565b60005b838110620004165750506000910152565b818101518382015260200162000405565b90602091620004428151809281855285808601910162000402565b601f01601f1916010190565b600554919291906000198214620007e657600182016005556040805194608086016001600160401b03811187821017620003cc578252838652602086018381528183880152600060608801528460005260016020528260002090875182555180519060018060401b038211620003cc57600183015490600182811c92168015620007db575b6020831014620006dc5781601f84931162000780575b50602090601f83116001146200070957600092620006fd575b50508160011b916000199060031b1c19161760018201555b82870151805190979060028301906001600160401b038111620003cc578154600181811c91168015620006f2575b6020821014620006dc57601f81116200068f575b506020601f821160011462000606579260039282606093620005f598979660008051602062002e848339815191529c9d9e600092620005fa575b50508160011b9160001990871b1c19161790555b01519101558583516020818751620005c68183858c0162000402565b8101600381520301902055620005e6835194848695865285019062000427565b90838203602085015262000427565b0390a2565b01519050388062000596565b601f1982169a8360005260206000209b60005b8181106200067657508360008051602062002e848339815191529b9c9d620005f59998979460039794606097600195106200065d575b505050811b019055620005aa565b015160001983891b60f8161c191690553880806200064f565b838301518e556001909d019c6020938401930162000619565b826000526020600020601f830160051c81019160208410620006d1575b601f0160051c01905b818110620006c457506200055c565b60008155600101620006b5565b9091508190620006ac565b634e487b7160e01b600052602260045260246000fd5b90607f169062000548565b01519050388062000502565b9250600184016000526020600020906000935b601f198416851062000764576001945083601f198116106200074a575b505050811b0160018201556200051a565b015160001960f88460031b161c1916905538808062000739565b818101518355602094850194600190930192909101906200071c565b909150600184016000526020600020601f840160051c81019160208510620007d0575b90601f859493920160051c01905b818110620007c05750620004e9565b60008155849350600101620007b1565b9091508190620007a3565b91607f1691620004d3565b634e487b7160e01b600052601160045260246000fdfe6080604052600436101561001b575b361561001957600080fd5b005b60003560e01c806308edbd141461186457806314c44e09146118465780633421ebfd146117ea57806334306d25146117cc578063346945fd14611687578063476343ee1461161057806350d15fbe1461159757806351b42b00146115225780635d3aa8131461140457806375ae1fef14610d8d5780638da5cb5b14610d6457806391cab63e14610a0a578063a113938f14610d33578063b1e29ea414610ba8578063b2bdc75f14610b6c578063b47172da14610b1b578063b6ef504e14610a98578063c320c72714610a6a578063c3c5a54714610a28578063c505371214610a0a578063ccc3bba81461084d578063d18611d61461077b578063d862ae871461049c578063e0bb12f71461045a578063fb3551ff146101f55763fd66091e0361000e57346101f05760203660031901126101f0576001600160a01b0380610160611f14565b16600052600060205260406000209081541661017e60018301611f64565b9160048101549060ff6005820154169060068101546007820154600883015491600a6009850154940154946101c5604051998a998a526101208060208c01528a019061200a565b96604089015215156060880152608087015260a086015260c085015260e08401526101008301520390f35b600080fd5b346101f05760203660031901126101f05761020e611f14565b600061014060405161021f81611e29565b82815260606020820152606060408201526060808201528260808201528260a08201528260c08201528260e08201528261010082015282610120820152015260018060a01b0316600052600060205260406000206040519061028082611e29565b80546001600160a01b0316825261029960018201611f64565b60208301526102aa600282016125a5565b604083015260038101546102bd816121bd565b906102cb6040519283611e60565b808252602082016003840160005260206000206000915b83831061043d5786600a878760608401526004810154608084015260ff600582015416151560a0840152600681015460c0840152600781015460e08401526008810154610100840152600981015461012084015201546101408201526040516020815260018060a01b0382511660208201526103886103726020840151610160604085015261018084019061200a565b6040840151838203601f190160608501526120ee565b606083015190601f19838203016080840152815180825260208201916020808360051b8301019401926000915b838310610410578680876101408b608081015160a085015260a0810151151560c085015260c081015160e085015260e08101516101008501526101008101516101208501526101208101518285015201516101608301520390f35b909192939460208061042e600193601f19868203018752895161200a565b970193019301919392906103b5565b60016020819261044c85611f64565b8152019201920191906102e2565b346101f05760203660031901126101f0576004356004548110156101f057610483602091612089565b905460405160039290921b1c6001600160a01b03168152f35b346101f05760403660031901126101f0576001600160401b036004358181116101f0576104cd903690600401611ed3565b6024358281116101f0576104e5903690600401611ed3565b916104fb60018060a01b0360075416331461256d565b6005549261050884612122565b60055560405161051781611e45565b8481526020928382019085825260408301908482526060840192600084528860005260019081885260406000209551865581860190518051908482116106f757819061056d826105678654611f2a565b8661226c565b8a90601f83116001146107185760009261070d575b5050600019600383901b1c191690831b1790555b60028501925180519283116106f7576105b3836105678654611f2a565b8790601f84116001146106635793838061065398956003956106469c99957f05991bfaa80c5f743d433bd10462fc1453a7c566aa9c81582e3dbab915dca4ff9e9c99600094610658575b50501b9160001990861b1c19161790555b5191015586604051838187516106278183858c01611ef1565b810160038152030190205560405194859460408652604086019061200a565b918483039085015261200a565b0390a2005b015192508f806105fd565b90601f9392931983169185600052896000209260005b8181106106e25750936106469a97937f05991bfaa80c5f743d433bd10462fc1453a7c566aa9c81582e3dbab915dca4ff9c9a97936106539a979383600398106106ca575b505050811b01905561060e565b015160001983881b60f8161c191690558d80806106bd565b82840151855593860193928b01928b01610679565b634e487b7160e01b600052604160045260246000fd5b015190508c80610582565b60008581528c8120879550929190601f198516908e5b828210610764575050841161074b575b505050811b019055610596565b015160001960f88460031b161c191690558c808061073e565b83850151865589979095019493840193018e61072e565b346101f05760003660031901126101f0573360005260006020526107ad60018060a01b03604060002054161515612341565b33600052600060205260ff6005604060002001541661081757336000526000602052604060002060058101600160ff198254161790556007429101556040514281527f72fa502a711d31da2101a8152ede15f4f332c7bef579c13ca9f8ef603a4480e660203392a2005b60405162461bcd60e51b815260206004820152600e60248201526d416c72656164792061637469766560901b6044820152606490fd5b346101f05760003660031901126101f05760055460001990818101908082116109c257610879826121bd565b916108876040519384611e60565b808352610896601f19916121bd565b0160005b8181106109d8575050600192835b82811061094b578385604051918291602090818401828552835180915260408501928060408360051b8801019501936000905b8382106108e85787870388f35b918496819592949698508190603f198b82030185528951908151815261092f61091d848401516080808786015284019061200a565b6040840151838203604085015261200a565b91606080910151910152980192019201879695939194926108db565b8060005260209085825260406000208382018281116109c2576109bd9360036109b7936040519261097b84611e45565b8154845261098a8c8301611f64565b9084015261099a60028201611f64565b6040840152015460608201526109b0828961221e565b528661221e565b50612122565b6108a8565b634e487b7160e01b600052601160045260246000fd5b6020906040516109e781611e45565b60008152606060008491808385015280604085015283015282870101520161089a565b346101f05760003660031901126101f0576020600654604051908152f35b346101f05760203660031901126101f0576001600160a01b03610a49611f14565b166000526000602052602060ff600560406000200154166040519015158152f35b346101f05760203660031901126101f057610a9060018060a01b0360075416331461256d565b600435600855005b346101f0576020806003193601126101f05760043560005260028152604060002090604051908181845491828152019360005281600020916000905b828210610afb57610af785610aeb81890382611e60565b60405191829182612045565b0390f35b83546001600160a01b031686529485019460019384019390910190610ad4565b346101f05760203660031901126101f0576001600160a01b03610b3c611f14565b166000526000602052610af7610b5860026040600020016125a5565b6040519182916020835260208301906120ee565b346101f05760203660031901126101f0576004356001600160401b0381116101f057610aeb610ba2610af7923690600401611d97565b906123bd565b346101f0576020806003193601126101f05760048054903581811115610d2d575080915b610bd58261238b565b9160005b818110610cff57505060005b8251811015610cae5760018082018083116109c257815b610c11575b5050610c0c90612122565b610be5565b8451811015610ca9578190610c6d906001600160a01b0380610c33838a61221e565b51166000526000875260046040600020015481610c50888b61221e565b51166000526000885260046040600020015410610c735750612122565b90610bfc565b80610c7e878a61221e565b511690610c8b838a61221e565b5116610c97878a61221e565b52610ca2828961221e565b52886109b7565b610c01565b8284610cb98161238b565b9160005b828110610cd25760405180610af78682612045565b610cfa906001600160a01b03610ce8828561221e565b5116610cf4828761221e565b52612122565b610cbd565b80610d0c610d2892612089565b905460039190911b1c6001600160a01b0316610cf4828761221e565b610bd9565b91610bcc565b346101f057610d413661202f565b906000526002602052604060002080548210156101f057602091610483916120d6565b346101f05760003660031901126101f0576007546040516001600160a01b039091168152602090f35b610d9636611dc7565b9060009392935b8281106113be575033600052600060205260ff600560406000200154166113845760085480341061134c578034116112f1575b50610dda826121d4565b60005b8381106112615750604051610df181611e29565b338152610dff368787611e9c565b9160208201928352610e10856121bd565b610e1d6040519182611e60565b858152602081018660051b8601903682116101f05786905b828210611251575050506040830152606082015260006080820152600160a08201524260c08201524260e082015260006101008201526000610120820152600061014082015233600052600060205260406000209160018060a01b038251166bffffffffffffffffffffffff60a01b845416178355518051906001600160401b0382116106f7578190610ed882610ecf6001880154611f2a565b6001880161226c565b602090601f83116001146111df576000926111d4575b50508160011b916000199060031b1c19161760018301555b60408101518051906001600160401b0382116106f75760206002850191610f2d84846122b1565b0190600052602060002060005b8381106111c057505050506060810151805190600160401b82116106f7576003840154826003860155808310611148575b5060200190600384016000526020600020916000905b8282106110655750505050610140816080600a93015160048501556005840160a0820151151560ff8019835416911617905560c0810151600685015560e08101516007850155610100810151600885015561012081015160098501550151910155600454600160401b8110156106f7577fdf1275f67e995789184a7a608f6c1b71953a305670459d1bb1f05956db47c05d936110476110298360016106539501600455612089565b81546001600160a01b0360039290921b91821b19163390911b179055565b611052600654612122565b60065560405193849333974293866122e5565b80518051906001600160401b0382116106f75761108c826110868854611f2a565b8861226c565b602090601f83116001146110d85792826001949360209386956000926110cd575b5050600019600383901b1c191690841b1787555b01940191019092610f81565b015190508f806110ad565b908660005260206000209160005b601f1985168110611130575083602093600196938796938794601f19811610611117575b505050811b0187556110c1565b015160001960f88460031b161c191690558f808061110a565b919260206001819286850151815501940192016110e6565b600385016000526020600020908382015b8183018110611169575050610f6b565b8061117660019254611f2a565b80611183575b5001611159565b601f811183146111995750600081555b8c61117c565b6000908282526111b7601f60208420920160051c8201858301612255565b81835555611193565b600190602084519401938184015501610f3a565b015190508880610eee565b9250600185016000526020600020906000935b601f1984168510611236576001945083601f1981161061121d575b505050811b016001830155610f06565b015160001960f88460031b161c1916905588808061120d565b818101518355602094850194600190930192909101906111f2565b8135815260209182019101610e35565b806112706112ec928686612131565b3560005260018060205261128981604060002001611f64565b611293838661221e565b5261129e828561221e565b506112aa828787612131565b3560005260026020526112c1336040600020612232565b6112cc828787612131565b3560005260205260036040600020016112e58154612122565b9055612122565b610ddd565b60008080611300819434612180565b335af161130b61218d565b50156113175784610dd0565b60405162461bcd60e51b815260206004820152600d60248201526c1499599d5b990819985a5b1959609a1b6044820152606490fd5b60405162461bcd60e51b815260206004820152601060248201526f496e73756666696369656e742066656560801b6044820152606490fd5b60405162461bcd60e51b8152602060048201526012602482015271105b1c9958591e481c9959da5cdd195c995960721b6044820152606490fd5b806113cd6113e4928585612131565b351515806113e9575b6113df90612141565b612122565b610d9d565b506113df6113f8828686612131565b356005541190506113d6565b346101f0576114123661202f565b60045461141e8161238b565b9261142b60009342612180565b60005b838110611477575b505050506114438161238b565b9160005b82811061145c5760405180610af78682612045565b611472906001600160a01b03610ce8828561221e565b611447565b61148081612089565b60018060a01b03809254600392831b1c1660005260206000815260ff6005604060002001541690816114f8575b506114c3575b50506114be90612122565b61142e565b908296916114d36114e394612089565b9054911b1c16610cf4828961221e565b93828510156114f35786806114b3565b611436565b600091508361150686612089565b905490851b1c16825252836007604060002001541015896114ad565b346101f05760003660031901126101f05733600052600060205261155060ff60056040600020015416612341565b336000526000602052600560406000200160ff1981541690556040514281527f0908d0024a3278cb165ed9b5e370dfd4b2c566122efebb355afb5b56e224915860203392a2005b346101f05760203660031901126101f0576004356000526001602052604060002080546115c660018301611f64565b9161160660036115d860028401611f64565b920154916115f8604051958695865260806020870152608086019061200a565b90848203604086015261200a565b9060608301520390f35b346101f05760003660031901126101f057600080808060018060a01b036007541661163c81331461256d565b47905af161164861218d565b501561165057005b60405162461bcd60e51b815260206004820152600f60248201526e15da5d1a191c985dc819985a5b1959608a1b6044820152606490fd5b346101f05760803660031901126101f0576001600160a01b036116a8611f14565b1680600052600060205260ff600560406000200154161561179457806000526000602052604060002060088101906116e3602435835461237e565b80925560098101916116f8604435845461237e565b809355600a820161170c606435825461237e565b809155426007840155600a820293828504600a14831517156109c2576005810293818504600514821517156109c257600461177e61176d6060977fac3c2beb7724a927c9efcb9aa36d9cc3215467ad97652337ec58c5527ba70e539961237e565b670de0b6b3a764000086049061237e565b91015560405192835260208301526040820152a2005b60405162461bcd60e51b815260206004820152601060248201526f4167656e74206e6f742061637469766560801b6044820152606490fd5b346101f05760003660031901126101f0576020600554604051908152f35b346101f05760203660031901126101f0576004356001600160401b0381116101f057611833602061182081933690600401611ed3565b8160405193828580945193849201611ef1565b8101600381520301902054604051908152f35b346101f05760003660031901126101f0576020600854604051908152f35b346101f05761187236611dc7565b92909133600052600060205261189260ff60056040600020015416612341565b60005b848110611d5857503360005260006020526040600020926000936002908181015b80548710156119f9576118c987826120d6565b969054600397881b1c95866000528460205260406000209960005b8b54808210156119e3578a906118fa838f6120d6565b90546001600160a01b03933392901b1c83161461192157505061191c90612122565b6118e4565b60009d9192969b9499979c959a93989d19968782019182116109c25761195c8461194e61197b94866120d6565b905490891b1c1691846120d6565b90919082549060031b9160018060a01b03809116831b921b1916179055565b805480156119cd5786019161199083836120d6565b9091825491871b1b1916905555600052600160205260406000200180549283156109c2576119c093019055612122565b95909293949691966118b6565b634e487b7160e01b600052603160045260246000fd5b50509499509492979095506119c0919650612122565b91879392611a06856121d4565b9160005b868110611ce95750506001600160401b0386116106f75760018301611a3987611a338354611f2a565b8361226c565b866000601f8211600114611c8257600091611c77575b508760011b906000198960031b1c19161790555b6001600160401b0385116106f757611a7b85826122b1565b839060005260206000209060005b868110611c6357505050805190600160401b82116106f7576003830154826003850155808310611beb575b5060200190600383016000526020600020916000905b828210611b1057877f4343b17cbad9b3255be7285fe10f12ee275fa867fad18ab3297ac8456cc99f7c88886106538d8a60074291015560405193849333974293866122e5565b80518051906001600160401b0382116106f757611b31826110868854611f2a565b602090601f8311600114611b7d579282600194936020938695600092611b72575b5050600019600383901b1c191690841b1787555b01940191019092611aca565b015190508e80611b52565b90601f198316918760005260206000209260005b818110611bd35750936020936001969387969383889510611bba575b505050811b018755611b66565b015160001960f88460031b161c191690558e8080611bad565b92936020600181928786015181550195019301611b91565b600384016000526020600020908382015b8183018110611c0c575050611ab4565b80611c1960019254611f2a565b80611c26575b5001611bfc565b601f81118314611c3c5750600081555b8b611c1f565b600090828252611c5a601f60208420920160051c8201858301612255565b81835555611c36565b600190602083359301928185015501611a89565b905088013589611a4f565b60008381526020812092505b8a601f198b168210611cd157505088601f19811610611cb7575b5050600187811b019055611a63565b89013560001960038a901b60f8161c191690558880611ca8565b60018394602093948493013581550193019101611c8e565b80611cf8611d53928989612131565b35600052600180602052611d1181604060002001611f64565b611d1b838861221e565b52611d26828761221e565b50611d32828a8a612131565b3560005283602052611d48336040600020612232565b6112cc828a8a612131565b611a0a565b80611d6c611d7d9287879897969596612131565b35151580611d88576113df90612141565b939293919091611895565b506113df6113f8828789612131565b9181601f840112156101f0578235916001600160401b0383116101f0576020808501948460051b0101116101f057565b60406003198201126101f057600435916001600160401b038084116101f057826023850112156101f0578360040135938185116101f05783602486830101116101f05760240193926024359182116101f057611e2591600401611d97565b9091565b61016081019081106001600160401b038211176106f757604052565b608081019081106001600160401b038211176106f757604052565b90601f801991011681019081106001600160401b038211176106f757604052565b6001600160401b0381116106f757601f01601f191660200190565b929192611ea882611e81565b91611eb66040519384611e60565b8294818452818301116101f0578281602093846000960137010152565b9080601f830112156101f057816020611eee93359101611e9c565b90565b60005b838110611f045750506000910152565b8181015183820152602001611ef4565b600435906001600160a01b03821682036101f057565b90600182811c92168015611f5a575b6020831014611f4457565b634e487b7160e01b600052602260045260246000fd5b91607f1691611f39565b9060405191826000825492611f7884611f2a565b908184526001948581169081600014611fe75750600114611fa4575b5050611fa292500383611e60565b565b9093915060005260209081600020936000915b818310611fcf575050611fa293508201013880611f94565b85548884018501529485019487945091830191611fb7565b915050611fa294506020925060ff191682840152151560051b8201013880611f94565b9060209161202381518092818552858086019101611ef1565b601f01601f1916010190565b60409060031901126101f0576004359060243590565b6020908160408183019282815285518094520193019160005b82811061206c575050505090565b83516001600160a01b03168552938101939281019260010161205e565b6004548110156120c05760046000527f8a35acfbc15ff81a39ae7d344fd709f28e8600b4aa8c65c6b64bfe7fe36bd19b0190600090565b634e487b7160e01b600052603260045260246000fd5b80548210156120c05760005260206000200190600090565b90815180825260208080930193019160005b82811061210e575050505090565b835185529381019392810192600101612100565b60001981146109c25760010190565b91908110156120c05760051b0190565b1561214857565b60405162461bcd60e51b815260206004820152601060248201526f125b9d985b1a59081cdada5b1b08125160821b6044820152606490fd5b919082039182116109c257565b3d156121b8573d9061219e82611e81565b916121ac6040519384611e60565b82523d6000602084013e565b606090565b6001600160401b0381116106f75760051b60200190565b906121de826121bd565b6121eb6040519182611e60565b82815280926121fc601f19916121bd565b019060005b82811061220d57505050565b806060602080938501015201612201565b80518210156120c05760209160051b010190565b90815491600160401b8310156106f7578261195c916001611fa2950181556120d6565b818110612260575050565b60008155600101612255565b9190601f811161227b57505050565b611fa2926000526020600020906020601f840160051c830193106122a7575b601f0160051c0190612255565b909150819061229a565b90600160401b81116106f7578154908083558181106122cf57505050565b611fa29260005260206000209182019101612255565b959493918091606088528160608901526080880137600060808288010152601f8019910116850191608086840301602087015281608084015260018060fb1b0382116101f05760409260a09260051b8092848301370101930152565b1561234857565b60405162461bcd60e51b815260206004820152600e60248201526d139bdd081c9959da5cdd195c995960921b6044820152606490fd5b919082018092116109c257565b90612395826121bd565b6123a26040519182611e60565b82815280926123b3601f19916121bd565b0190602036910137565b91908015612542576000908335825260209160028352604091828220908351808387829554938481520190865287862092865b898282106125235750505061240792500383611e60565b612411825161238b565b928094815b84518110156124db576001600160a01b0380612432838861221e565b5116845283895260ff600584862001541615612464576001805b828d89868a808610612499575b505050505050612473575b5061246e90612122565b612416565b81976124929161248661246e948961221e565b5116610cf4828a61221e565b9690612464565b6124ba946124ab87936124b39561221e565b511693612131565b35906125f4565b156124cd576124c890612122565b61244c565b50508338828d89868a612459565b50509450505093506124ec8161238b565b915b8181106124fc575090925050565b61251e906001600160a01b03612512828861221e565b5116610cf4828661221e565b6124ee565b85546001600160a01b03168452600195860195889550930192016123f0565b509050604051602081018181106001600160401b038211176106f75760405260008152600036813790565b1561257457565b60405162461bcd60e51b81526020600482015260096024820152682737ba1037bbb732b960b91b6044820152606490fd5b9060405191828154918282526020928383019160005283600020936000905b8282106125da57505050611fa292500383611e60565b8554845260019586019588955093810193909101906125c4565b6001600160a01b03166000908152602081905260408120600201805492915b8381106126235750505050600090565b8261262e82846120d6565b90549060031b1c146126485761264390612122565b612613565b5050505060019056fea2646970667358221220047b52bbfb601cdbb74e7cd9bd1b35adbe8e8a1670bb0b080ed36b8942891f9964736f6c6343000814003305991bfaa80c5f743d433bd10462fc1453a7c566aa9c81582e3dbab915dca4ff","opcodes":"PUSH1 0x40 PUSH1 0x80 DUP2 MSTORE CALLVALUE PUSH3 0x3A7 JUMPI PUSH1 0x1 PUSH1 0x5 SSTORE PUSH1 0x0 PUSH1 0x6 SSTORE PUSH7 0x38D7EA4C68000 PUSH1 0x8 SSTORE PUSH1 0x7 DUP1 SLOAD PUSH1 0x1 PUSH1 0x1 PUSH1 0xA0 SHL SUB NOT AND CALLER OR SWAP1 SSTORE PUSH3 0x399 PUSH3 0x40 PUSH3 0x3AC JUMP JUMPDEST PUSH1 0x1A DUP2 MSTORE PUSH3 0xB9 PUSH1 0x20 SWAP2 PUSH32 0x536D61727420436F6E747261637420446576656C6F706D656E74000000000000 DUP4 DUP3 ADD MSTORE PUSH3 0x7A PUSH3 0x3E2 JUMP JUMPDEST SWAP1 PUSH1 0x27 DUP3 MSTORE PUSH32 0x57726974696E6720616E64206175646974696E6720536F6C696469747920636F DUP5 DUP4 ADD MSTORE PUSH7 0x6E747261637473 PUSH1 0xC8 SHL DUP7 DUP4 ADD MSTORE PUSH3 0x44E JUMP JUMPDEST PUSH3 0x126 PUSH3 0xC7 PUSH3 0x3AC JUMP JUMPDEST PUSH1 0xD DUP2 MSTORE PUSH13 0x4461746120416E616C79736973 PUSH1 0x98 SHL DUP4 DUP3 ADD MSTORE PUSH3 0xEA PUSH3 0x3E2 JUMP JUMPDEST SWAP1 PUSH1 0x24 DUP3 MSTORE PUSH32 0x4F6E2D636861696E20616E64206F66662D636861696E206461746120616E616C DUP5 DUP4 ADD MSTORE PUSH4 0x79736973 PUSH1 0xE0 SHL DUP7 DUP4 ADD MSTORE PUSH3 0x44E JUMP JUMPDEST PUSH3 0x18E PUSH3 0x134 PUSH3 0x3AC JUMP JUMPDEST PUSH1 0x7 DUP2 MSTORE PUSH7 0x54726164696E67 PUSH1 0xC8 SHL DUP4 DUP3 ADD MSTORE PUSH3 0x151 PUSH3 0x3E2 JUMP JUMPDEST SWAP1 PUSH1 0x25 DUP3 MSTORE PUSH32 0x446546692074726164696E6720616E6420617262697472616765207374726174 DUP5 DUP4 ADD MSTORE PUSH5 0x6567696573 PUSH1 0xD8 SHL DUP7 DUP4 ADD MSTORE PUSH3 0x44E JUMP JUMPDEST PUSH3 0x200 PUSH3 0x19C PUSH3 0x3AC JUMP JUMPDEST PUSH1 0x10 DUP2 MSTORE PUSH16 0x21B7B73A32B73A1021B932B0BA34B7B7 PUSH1 0x81 SHL DUP4 DUP3 ADD MSTORE PUSH3 0x1C2 PUSH3 0x3E2 JUMP JUMPDEST SWAP1 PUSH1 0x26 DUP3 MSTORE PUSH32 0x446F63756D656E746174696F6E2C20736F6369616C206D656469612C206D6172 DUP5 DUP4 ADD MSTORE PUSH6 0x6B6574696E67 PUSH1 0xD0 SHL DUP7 DUP4 ADD MSTORE PUSH3 0x44E JUMP JUMPDEST PUSH3 0x265 PUSH3 0x20E PUSH3 0x3AC JUMP JUMPDEST PUSH1 0x11 DUP2 MSTORE PUSH17 0x5365637572697479204175646974696E67 PUSH1 0x78 SHL DUP4 DUP3 ADD MSTORE PUSH3 0x235 PUSH3 0x3AC JUMP JUMPDEST SWAP1 PUSH1 0x1F DUP3 MSTORE PUSH32 0x536D61727420636F6E7472616374207365637572697479207265766965777300 DUP5 DUP4 ADD MSTORE PUSH3 0x44E JUMP JUMPDEST PUSH3 0x2D3 PUSH3 0x273 PUSH3 0x3AC JUMP JUMPDEST PUSH1 0x10 DUP2 MSTORE PUSH16 0x4D616368696E65204C6561726E696E67 PUSH1 0x80 SHL DUP4 DUP3 ADD MSTORE PUSH3 0x299 PUSH3 0x3E2 JUMP JUMPDEST SWAP1 PUSH1 0x22 DUP3 MSTORE PUSH32 0x41492F4D4C206D6F64656C20747261696E696E6720616E6420696E666572656E DUP5 DUP4 ADD MSTORE PUSH2 0x6365 PUSH1 0xF0 SHL DUP7 DUP4 ADD MSTORE PUSH3 0x44E JUMP JUMPDEST PUSH3 0x32D PUSH3 0x2E1 PUSH3 0x3AC JUMP JUMPDEST PUSH1 0x6 DUP2 MSTORE PUSH6 0x4465764F7073 PUSH1 0xD0 SHL DUP4 DUP3 ADD MSTORE PUSH3 0x2FD PUSH3 0x3AC JUMP JUMPDEST SWAP1 PUSH1 0x1D DUP3 MSTORE PUSH32 0x496E66726173747275637475726520616E64206465706C6F796D656E74000000 DUP5 DUP4 ADD MSTORE PUSH3 0x44E JUMP JUMPDEST PUSH3 0x337 PUSH3 0x3AC JUMP JUMPDEST PUSH1 0x14 DUP2 MSTORE PUSH32 0x436F6D6D756E697479204D616E6167656D656E74000000000000000000000000 DUP3 DUP3 ADD MSTORE PUSH32 0x446973636F72642C20666F72756D732C20676F7665726E616E63650000000000 PUSH3 0x38B PUSH3 0x3AC JUMP JUMPDEST SWAP3 PUSH1 0x1B DUP5 MSTORE DUP4 ADD MSTORE PUSH3 0x44E JUMP JUMPDEST MLOAD PUSH2 0x2687 SWAP1 DUP2 PUSH3 0x7FD DUP3 CODECOPY RETURN JUMPDEST PUSH1 0x0 DUP1 REVERT JUMPDEST PUSH1 0x40 DUP1 MLOAD SWAP2 SWAP1 DUP3 ADD PUSH1 0x1 PUSH1 0x1 PUSH1 0x40 SHL SUB DUP2 GT DUP4 DUP3 LT OR PUSH3 0x3CC JUMPI PUSH1 0x40 MSTORE JUMP JUMPDEST PUSH4 0x4E487B71 PUSH1 0xE0 SHL PUSH1 0x0 MSTORE PUSH1 0x41 PUSH1 0x4 MSTORE PUSH1 0x24 PUSH1 0x0 REVERT JUMPDEST PUSH1 0x40 MLOAD SWAP1 PUSH1 0x60 DUP3 ADD PUSH1 0x1 PUSH1 0x1 PUSH1 0x40 SHL SUB DUP2 GT DUP4 DUP3 LT OR PUSH3 0x3CC JUMPI PUSH1 0x40 MSTORE JUMP JUMPDEST PUSH1 0x0 JUMPDEST DUP4 DUP2 LT PUSH3 0x416 JUMPI POP POP PUSH1 0x0 SWAP2 ADD MSTORE JUMP JUMPDEST DUP2 DUP2 ADD MLOAD DUP4 DUP3 ADD MSTORE PUSH1 0x20 ADD PUSH3 0x405 JUMP JUMPDEST SWAP1 PUSH1 0x20 SWAP2 PUSH3 0x442 DUP2 MLOAD DUP1 SWAP3 DUP2 DUP6 MSTORE DUP6 DUP1 DUP7 ADD SWAP2 ADD PUSH3 0x402 JUMP JUMPDEST PUSH1 0x1F ADD PUSH1 0x1F NOT AND ADD ADD SWAP1 JUMP JUMPDEST PUSH1 0x5 SLOAD SWAP2 SWAP3 SWAP2 SWAP1 PUSH1 0x0 NOT DUP3 EQ PUSH3 0x7E6 JUMPI PUSH1 0x1 DUP3 ADD PUSH1 0x5 SSTORE PUSH1 0x40 DUP1 MLOAD SWAP5 PUSH1 0x80 DUP7 ADD PUSH1 0x1 PUSH1 0x1 PUSH1 0x40 SHL SUB DUP2 GT DUP8 DUP3 LT OR PUSH3 0x3CC JUMPI DUP3 MSTORE DUP4 DUP7 MSTORE PUSH1 0x20 DUP7 ADD DUP4 DUP2 MSTORE DUP2 DUP4 DUP9 ADD MSTORE PUSH1 0x0 PUSH1 0x60 DUP9 ADD MSTORE DUP5 PUSH1 0x0 MSTORE PUSH1 0x1 PUSH1 0x20 MSTORE DUP3 PUSH1 0x0 KECCAK256 SWAP1 DUP8 MLOAD DUP3 SSTORE MLOAD DUP1 MLOAD SWAP1 PUSH1 0x1 DUP1 PUSH1 0x40 SHL SUB DUP3 GT PUSH3 0x3CC JUMPI PUSH1 0x1 DUP4 ADD SLOAD SWAP1 PUSH1 0x1 DUP3 DUP2 SHR SWAP3 AND DUP1 ISZERO PUSH3 0x7DB JUMPI JUMPDEST PUSH1 0x20 DUP4 LT EQ PUSH3 0x6DC JUMPI DUP2 PUSH1 0x1F DUP5 SWAP4 GT PUSH3 0x780 JUMPI JUMPDEST POP PUSH1 0x20 SWAP1 PUSH1 0x1F DUP4 GT PUSH1 0x1 EQ PUSH3 0x709 JUMPI PUSH1 0x0 SWAP3 PUSH3 0x6FD JUMPI JUMPDEST POP POP DUP2 PUSH1 0x1 SHL SWAP2 PUSH1 0x0 NOT SWAP1 PUSH1 0x3 SHL SHR NOT AND OR PUSH1 0x1 DUP3 ADD SSTORE JUMPDEST DUP3 DUP8 ADD MLOAD DUP1 MLOAD SWAP1 SWAP8 SWAP1 PUSH1 0x2 DUP4 ADD SWAP1 PUSH1 0x1 PUSH1 0x1 PUSH1 0x40 SHL SUB DUP2 GT PUSH3 0x3CC JUMPI DUP2 SLOAD PUSH1 0x1 DUP2 DUP2 SHR SWAP2 AND DUP1 ISZERO PUSH3 0x6F2 JUMPI JUMPDEST PUSH1 0x20 DUP3 LT EQ PUSH3 0x6DC JUMPI PUSH1 0x1F DUP2 GT PUSH3 0x68F JUMPI JUMPDEST POP PUSH1 0x20 PUSH1 0x1F DUP3 GT PUSH1 0x1 EQ PUSH3 0x606 JUMPI SWAP3 PUSH1 0x3 SWAP3 DUP3 PUSH1 0x60 SWAP4 PUSH3 0x5F5 SWAP9 SWAP8 SWAP7 PUSH1 0x0 DUP1 MLOAD PUSH1 0x20 PUSH3 0x2E84 DUP4 CODECOPY DUP2 MLOAD SWAP2 MSTORE SWAP13 SWAP14 SWAP15 PUSH1 0x0 SWAP3 PUSH3 0x5FA JUMPI JUMPDEST POP POP DUP2 PUSH1 0x1 SHL SWAP2 PUSH1 0x0 NOT SWAP1 DUP8 SHL SHR NOT AND OR SWAP1 SSTORE JUMPDEST ADD MLOAD SWAP2 ADD SSTORE DUP6 DUP4 MLOAD PUSH1 0x20 DUP2 DUP8 MLOAD PUSH3 0x5C6 DUP2 DUP4 DUP6 DUP13 ADD PUSH3 0x402 JUMP JUMPDEST DUP2 ADD PUSH1 0x3 DUP2 MSTORE SUB ADD SWAP1 KECCAK256 SSTORE PUSH3 0x5E6 DUP4 MLOAD SWAP5 DUP5 DUP7 SWAP6 DUP7 MSTORE DUP6 ADD SWAP1 PUSH3 0x427 JUMP JUMPDEST SWAP1 DUP4 DUP3 SUB PUSH1 0x20 DUP6 ADD MSTORE PUSH3 0x427 JUMP JUMPDEST SUB SWAP1 LOG2 JUMP JUMPDEST ADD MLOAD SWAP1 POP CODESIZE DUP1 PUSH3 0x596 JUMP JUMPDEST PUSH1 0x1F NOT DUP3 AND SWAP11 DUP4 PUSH1 0x0 MSTORE PUSH1 0x20 PUSH1 0x0 KECCAK256 SWAP12 PUSH1 0x0 JUMPDEST DUP2 DUP2 LT PUSH3 0x676 JUMPI POP DUP4 PUSH1 0x0 DUP1 MLOAD PUSH1 0x20 PUSH3 0x2E84 DUP4 CODECOPY DUP2 MLOAD SWAP2 MSTORE SWAP12 SWAP13 SWAP14 PUSH3 0x5F5 SWAP10 SWAP9 SWAP8 SWAP5 PUSH1 0x3 SWAP8 SWAP5 PUSH1 0x60 SWAP8 PUSH1 0x1 SWAP6 LT PUSH3 0x65D JUMPI JUMPDEST POP POP POP DUP2 SHL ADD SWAP1 SSTORE PUSH3 0x5AA JUMP JUMPDEST ADD MLOAD PUSH1 0x0 NOT DUP4 DUP10 SHL PUSH1 0xF8 AND SHR NOT AND SWAP1 SSTORE CODESIZE DUP1 DUP1 PUSH3 0x64F JUMP JUMPDEST DUP4 DUP4 ADD MLOAD DUP15 SSTORE PUSH1 0x1 SWAP1 SWAP14 ADD SWAP13 PUSH1 0x20 SWAP4 DUP5 ADD SWAP4 ADD PUSH3 0x619 JUMP JUMPDEST DUP3 PUSH1 0x0 MSTORE PUSH1 0x20 PUSH1 0x0 KECCAK256 PUSH1 0x1F DUP4 ADD PUSH1 0x5 SHR DUP2 ADD SWAP2 PUSH1 0x20 DUP5 LT PUSH3 0x6D1 JUMPI JUMPDEST PUSH1 0x1F ADD PUSH1 0x5 SHR ADD SWAP1 JUMPDEST DUP2 DUP2 LT PUSH3 0x6C4 JUMPI POP PUSH3 0x55C JUMP JUMPDEST PUSH1 0x0 DUP2 SSTORE PUSH1 0x1 ADD PUSH3 0x6B5 JUMP JUMPDEST SWAP1 SWAP2 POP DUP2 SWAP1 PUSH3 0x6AC JUMP JUMPDEST PUSH4 0x4E487B71 PUSH1 0xE0 SHL PUSH1 0x0 MSTORE PUSH1 0x22 PUSH1 0x4 MSTORE PUSH1 0x24 PUSH1 0x0 REVERT JUMPDEST SWAP1 PUSH1 0x7F AND SWAP1 PUSH3 0x548 JUMP JUMPDEST ADD MLOAD SWAP1 POP CODESIZE DUP1 PUSH3 0x502 JUMP JUMPDEST SWAP3 POP PUSH1 0x1 DUP5 ADD PUSH1 0x0 MSTORE PUSH1 0x20 PUSH1 0x0 KECCAK256 SWAP1 PUSH1 0x0 SWAP4 JUMPDEST PUSH1 0x1F NOT DUP5 AND DUP6 LT PUSH3 0x764 JUMPI PUSH1 0x1 SWAP5 POP DUP4 PUSH1 0x1F NOT DUP2 AND LT PUSH3 0x74A JUMPI JUMPDEST POP POP POP DUP2 SHL ADD PUSH1 0x1 DUP3 ADD SSTORE PUSH3 0x51A JUMP JUMPDEST ADD MLOAD PUSH1 0x0 NOT PUSH1 0xF8 DUP5 PUSH1 0x3 SHL AND SHR NOT AND SWAP1 SSTORE CODESIZE DUP1 DUP1 PUSH3 0x739 JUMP JUMPDEST DUP2 DUP2 ADD MLOAD DUP4 SSTORE PUSH1 0x20 SWAP5 DUP6 ADD SWAP5 PUSH1 0x1 SWAP1 SWAP4 ADD SWAP3 SWAP1 SWAP2 ADD SWAP1 PUSH3 0x71C JUMP JUMPDEST SWAP1 SWAP2 POP PUSH1 0x1 DUP5 ADD PUSH1 0x0 MSTORE PUSH1 0x20 PUSH1 0x0 KECCAK256 PUSH1 0x1F DUP5 ADD PUSH1 0x5 SHR DUP2 ADD SWAP2 PUSH1 0x20 DUP6 LT PUSH3 0x7D0 JUMPI JUMPDEST SWAP1 PUSH1 0x1F DUP6 SWAP5 SWAP4 SWAP3 ADD PUSH1 0x5 SHR ADD SWAP1 JUMPDEST DUP2 DUP2 LT PUSH3 0x7C0 JUMPI POP PUSH3 0x4E9 JUMP JUMPDEST PUSH1 0x0 DUP2 SSTORE DUP5 SWAP4 POP PUSH1 0x1 ADD PUSH3 0x7B1 JUMP JUMPDEST SWAP1 SWAP2 POP DUP2 SWAP1 PUSH3 0x7A3 JUMP JUMPDEST SWAP2 PUSH1 0x7F AND SWAP2 PUSH3 0x4D3 JUMP JUMPDEST PUSH4 0x4E487B71 PUSH1 0xE0 SHL PUSH1 0x0 MSTORE PUSH1 0x11 PUSH1 0x4 MSTORE PUSH1 0x24 PUSH1 0x0 REVERT INVALID PUSH1 0x80 PUSH1 0x40 MSTORE PUSH1 0x4 CALLDATASIZE LT ISZERO PUSH2 0x1B JUMPI JUMPDEST CALLDATASIZE ISZERO PUSH2 0x19 JUMPI PUSH1 0x0 DUP1 REVERT JUMPDEST STOP JUMPDEST PUSH1 0x0 CALLDATALOAD PUSH1 0xE0 SHR DUP1 PUSH4 0x8EDBD14 EQ PUSH2 0x1864 JUMPI DUP1 PUSH4 0x14C44E09 EQ PUSH2 0x1846 JUMPI DUP1 PUSH4 0x3421EBFD EQ PUSH2 0x17EA JUMPI DUP1 PUSH4 0x34306D25 EQ PUSH2 0x17CC JUMPI DUP1 PUSH4 0x346945FD EQ PUSH2 0x1687 JUMPI DUP1 PUSH4 0x476343EE EQ PUSH2 0x1610 JUMPI DUP1 PUSH4 0x50D15FBE EQ PUSH2 0x1597 JUMPI DUP1 PUSH4 0x51B42B00 EQ PUSH2 0x1522 JUMPI DUP1 PUSH4 0x5D3AA813 EQ PUSH2 0x1404 JUMPI DUP1 PUSH4 0x75AE1FEF EQ PUSH2 0xD8D JUMPI DUP1 PUSH4 0x8DA5CB5B EQ PUSH2 0xD64 JUMPI DUP1 PUSH4 0x91CAB63E EQ PUSH2 0xA0A JUMPI DUP1 PUSH4 0xA113938F EQ PUSH2 0xD33 JUMPI DUP1 PUSH4 0xB1E29EA4 EQ PUSH2 0xBA8 JUMPI DUP1 PUSH4 0xB2BDC75F EQ PUSH2 0xB6C JUMPI DUP1 PUSH4 0xB47172DA EQ PUSH2 0xB1B JUMPI DUP1 PUSH4 0xB6EF504E EQ PUSH2 0xA98 JUMPI DUP1 PUSH4 0xC320C727 EQ PUSH2 0xA6A JUMPI DUP1 PUSH4 0xC3C5A547 EQ PUSH2 0xA28 JUMPI DUP1 PUSH4 0xC5053712 EQ PUSH2 0xA0A JUMPI DUP1 PUSH4 0xCCC3BBA8 EQ PUSH2 0x84D JUMPI DUP1 PUSH4 0xD18611D6 EQ PUSH2 0x77B JUMPI DUP1 PUSH4 0xD862AE87 EQ PUSH2 0x49C JUMPI DUP1 PUSH4 0xE0BB12F7 EQ PUSH2 0x45A JUMPI DUP1 PUSH4 0xFB3551FF EQ PUSH2 0x1F5 JUMPI PUSH4 0xFD66091E SUB PUSH2 0xE JUMPI CALLVALUE PUSH2 0x1F0 JUMPI PUSH1 0x20 CALLDATASIZE PUSH1 0x3 NOT ADD SLT PUSH2 0x1F0 JUMPI PUSH1 0x1 PUSH1 0x1 PUSH1 0xA0 SHL SUB DUP1 PUSH2 0x160 PUSH2 0x1F14 JUMP JUMPDEST AND PUSH1 0x0 MSTORE PUSH1 0x0 PUSH1 0x20 MSTORE PUSH1 0x40 PUSH1 0x0 KECCAK256 SWAP1 DUP2 SLOAD AND PUSH2 0x17E PUSH1 0x1 DUP4 ADD PUSH2 0x1F64 JUMP JUMPDEST SWAP2 PUSH1 0x4 DUP2 ADD SLOAD SWAP1 PUSH1 0xFF PUSH1 0x5 DUP3 ADD SLOAD AND SWAP1 PUSH1 0x6 DUP2 ADD SLOAD PUSH1 0x7 DUP3 ADD SLOAD PUSH1 0x8 DUP4 ADD SLOAD SWAP2 PUSH1 0xA PUSH1 0x9 DUP6 ADD SLOAD SWAP5 ADD SLOAD SWAP5 PUSH2 0x1C5 PUSH1 0x40 MLOAD SWAP10 DUP11 SWAP10 DUP11 MSTORE PUSH2 0x120 DUP1 PUSH1 0x20 DUP13 ADD MSTORE DUP11 ADD SWAP1 PUSH2 0x200A JUMP JUMPDEST SWAP7 PUSH1 0x40 DUP10 ADD MSTORE ISZERO ISZERO PUSH1 0x60 DUP9 ADD MSTORE PUSH1 0x80 DUP8 ADD MSTORE PUSH1 0xA0 DUP7 ADD MSTORE PUSH1 0xC0 DUP6 ADD MSTORE PUSH1 0xE0 DUP5 ADD MSTORE PUSH2 0x100 DUP4 ADD MSTORE SUB SWAP1 RETURN JUMPDEST PUSH1 0x0 DUP1 REVERT JUMPDEST CALLVALUE PUSH2 0x1F0 JUMPI PUSH1 0x20 CALLDATASIZE PUSH1 0x3 NOT ADD SLT PUSH2 0x1F0 JUMPI PUSH2 0x20E PUSH2 0x1F14 JUMP JUMPDEST PUSH1 0x0 PUSH2 0x140 PUSH1 0x40 MLOAD PUSH2 0x21F DUP2 PUSH2 0x1E29 JUMP JUMPDEST DUP3 DUP2 MSTORE PUSH1 0x60 PUSH1 0x20 DUP3 ADD MSTORE PUSH1 0x60 PUSH1 0x40 DUP3 ADD MSTORE PUSH1 0x60 DUP1 DUP3 ADD MSTORE DUP3 PUSH1 0x80 DUP3 ADD MSTORE DUP3 PUSH1 0xA0 DUP3 ADD MSTORE DUP3 PUSH1 0xC0 DUP3 ADD MSTORE DUP3 PUSH1 0xE0 DUP3 ADD MSTORE DUP3 PUSH2 0x100 DUP3 ADD MSTORE DUP3 PUSH2 0x120 DUP3 ADD MSTORE ADD MSTORE PUSH1 0x1 DUP1 PUSH1 0xA0 SHL SUB AND PUSH1 0x0 MSTORE PUSH1 0x0 PUSH1 0x20 MSTORE PUSH1 0x40 PUSH1 0x0 KECCAK256 PUSH1 0x40 MLOAD SWAP1 PUSH2 0x280 DUP3 PUSH2 0x1E29 JUMP JUMPDEST DUP1 SLOAD PUSH1 0x1 PUSH1 0x1 PUSH1 0xA0 SHL SUB AND DUP3 MSTORE PUSH2 0x299 PUSH1 0x1 DUP3 ADD PUSH2 0x1F64 JUMP JUMPDEST PUSH1 0x20 DUP4 ADD MSTORE PUSH2 0x2AA PUSH1 0x2 DUP3 ADD PUSH2 0x25A5 JUMP JUMPDEST PUSH1 0x40 DUP4 ADD MSTORE PUSH1 0x3 DUP2 ADD SLOAD PUSH2 0x2BD DUP2 PUSH2 0x21BD JUMP JUMPDEST SWAP1 PUSH2 0x2CB PUSH1 0x40 MLOAD SWAP3 DUP4 PUSH2 0x1E60 JUMP JUMPDEST DUP1 DUP3 MSTORE PUSH1 0x20 DUP3 ADD PUSH1 0x3 DUP5 ADD PUSH1 0x0 MSTORE PUSH1 0x20 PUSH1 0x0 KECCAK256 PUSH1 0x0 SWAP2 JUMPDEST DUP4 DUP4 LT PUSH2 0x43D JUMPI DUP7 PUSH1 0xA DUP8 DUP8 PUSH1 0x60 DUP5 ADD MSTORE PUSH1 0x4 DUP2 ADD SLOAD PUSH1 0x80 DUP5 ADD MSTORE PUSH1 0xFF PUSH1 0x5 DUP3 ADD SLOAD AND ISZERO ISZERO PUSH1 0xA0 DUP5 ADD MSTORE PUSH1 0x6 DUP2 ADD SLOAD PUSH1 0xC0 DUP5 ADD MSTORE PUSH1 0x7 DUP2 ADD SLOAD PUSH1 0xE0 DUP5 ADD MSTORE PUSH1 0x8 DUP2 ADD SLOAD PUSH2 0x100 DUP5 ADD MSTORE PUSH1 0x9 DUP2 ADD SLOAD PUSH2 0x120 DUP5 ADD MSTORE ADD SLOAD PUSH2 0x140 DUP3 ADD MSTORE PUSH1 0x40 MLOAD PUSH1 0x20 DUP2 MSTORE PUSH1 0x1 DUP1 PUSH1 0xA0 SHL SUB DUP3 MLOAD AND PUSH1 0x20 DUP3 ADD MSTORE PUSH2 0x388 PUSH2 0x372 PUSH1 0x20 DUP5 ADD MLOAD PUSH2 0x160 PUSH1 0x40 DUP6 ADD MSTORE PUSH2 0x180 DUP5 ADD SWAP1 PUSH2 0x200A JUMP JUMPDEST PUSH1 0x40 DUP5 ADD MLOAD DUP4 DUP3 SUB PUSH1 0x1F NOT ADD PUSH1 0x60 DUP6 ADD MSTORE PUSH2 0x20EE JUMP JUMPDEST PUSH1 0x60 DUP4 ADD MLOAD SWAP1 PUSH1 0x1F NOT DUP4 DUP3 SUB ADD PUSH1 0x80 DUP5 ADD MSTORE DUP2 MLOAD DUP1 DUP3 MSTORE PUSH1 0x20 DUP3 ADD SWAP2 PUSH1 0x20 DUP1 DUP4 PUSH1 0x5 SHL DUP4 ADD ADD SWAP5 ADD SWAP3 PUSH1 0x0 SWAP2 JUMPDEST DUP4 DUP4 LT PUSH2 0x410 JUMPI DUP7 DUP1 DUP8 PUSH2 0x140 DUP12 PUSH1 0x80 DUP2 ADD MLOAD PUSH1 0xA0 DUP6 ADD MSTORE PUSH1 0xA0 DUP2 ADD MLOAD ISZERO ISZERO PUSH1 0xC0 DUP6 ADD MSTORE PUSH1 0xC0 DUP2 ADD MLOAD PUSH1 0xE0 DUP6 ADD MSTORE PUSH1 0xE0 DUP2 ADD MLOAD PUSH2 0x100 DUP6 ADD MSTORE PUSH2 0x100 DUP2 ADD MLOAD PUSH2 0x120 DUP6 ADD MSTORE PUSH2 0x120 DUP2 ADD MLOAD DUP3 DUP6 ADD MSTORE ADD MLOAD PUSH2 0x160 DUP4 ADD MSTORE SUB SWAP1 RETURN JUMPDEST SWAP1 SWAP2 SWAP3 SWAP4 SWAP5 PUSH1 0x20 DUP1 PUSH2 0x42E PUSH1 0x1 SWAP4 PUSH1 0x1F NOT DUP7 DUP3 SUB ADD DUP8 MSTORE DUP10 MLOAD PUSH2 0x200A JUMP JUMPDEST SWAP8 ADD SWAP4 ADD SWAP4 ADD SWAP2 SWAP4 SWAP3 SWAP1 PUSH2 0x3B5 JUMP JUMPDEST PUSH1 0x1 PUSH1 0x20 DUP2 SWAP3 PUSH2 0x44C DUP6 PUSH2 0x1F64 JUMP JUMPDEST DUP2 MSTORE ADD SWAP3 ADD SWAP3 ADD SWAP2 SWAP1 PUSH2 0x2E2 JUMP JUMPDEST CALLVALUE PUSH2 0x1F0 JUMPI PUSH1 0x20 CALLDATASIZE PUSH1 0x3 NOT ADD SLT PUSH2 0x1F0 JUMPI PUSH1 0x4 CALLDATALOAD PUSH1 0x4 SLOAD DUP2 LT ISZERO PUSH2 0x1F0 JUMPI PUSH2 0x483 PUSH1 0x20 SWAP2 PUSH2 0x2089 JUMP JUMPDEST SWAP1 SLOAD PUSH1 0x40 MLOAD PUSH1 0x3 SWAP3 SWAP1 SWAP3 SHL SHR PUSH1 0x1 PUSH1 0x1 PUSH1 0xA0 SHL SUB AND DUP2 MSTORE RETURN JUMPDEST CALLVALUE PUSH2 0x1F0 JUMPI PUSH1 0x40 CALLDATASIZE PUSH1 0x3 NOT ADD SLT PUSH2 0x1F0 JUMPI PUSH1 0x1 PUSH1 0x1 PUSH1 0x40 SHL SUB PUSH1 0x4 CALLDATALOAD DUP2 DUP2 GT PUSH2 0x1F0 JUMPI PUSH2 0x4CD SWAP1 CALLDATASIZE SWAP1 PUSH1 0x4 ADD PUSH2 0x1ED3 JUMP JUMPDEST PUSH1 0x24 CALLDATALOAD DUP3 DUP2 GT PUSH2 0x1F0 JUMPI PUSH2 0x4E5 SWAP1 CALLDATASIZE SWAP1 PUSH1 0x4 ADD PUSH2 0x1ED3 JUMP JUMPDEST SWAP2 PUSH2 0x4FB PUSH1 0x1 DUP1 PUSH1 0xA0 SHL SUB PUSH1 0x7 SLOAD AND CALLER EQ PUSH2 0x256D JUMP JUMPDEST PUSH1 0x5 SLOAD SWAP3 PUSH2 0x508 DUP5 PUSH2 0x2122 JUMP JUMPDEST PUSH1 0x5 SSTORE PUSH1 0x40 MLOAD PUSH2 0x517 DUP2 PUSH2 0x1E45 JUMP JUMPDEST DUP5 DUP2 MSTORE PUSH1 0x20 SWAP3 DUP4 DUP3 ADD SWAP1 DUP6 DUP3 MSTORE PUSH1 0x40 DUP4 ADD SWAP1 DUP5 DUP3 MSTORE PUSH1 0x60 DUP5 ADD SWAP3 PUSH1 0x0 DUP5 MSTORE DUP9 PUSH1 0x0 MSTORE PUSH1 0x1 SWAP1 DUP2 DUP9 MSTORE PUSH1 0x40 PUSH1 0x0 KECCAK256 SWAP6 MLOAD DUP7 SSTORE DUP2 DUP7 ADD SWAP1 MLOAD DUP1 MLOAD SWAP1 DUP5 DUP3 GT PUSH2 0x6F7 JUMPI DUP2 SWAP1 PUSH2 0x56D DUP3 PUSH2 0x567 DUP7 SLOAD PUSH2 0x1F2A JUMP JUMPDEST DUP7 PUSH2 0x226C JUMP JUMPDEST DUP11 SWAP1 PUSH1 0x1F DUP4 GT PUSH1 0x1 EQ PUSH2 0x718 JUMPI PUSH1 0x0 SWAP3 PUSH2 0x70D JUMPI JUMPDEST POP POP PUSH1 0x0 NOT PUSH1 0x3 DUP4 SWAP1 SHL SHR NOT AND SWAP1 DUP4 SHL OR SWAP1 SSTORE JUMPDEST PUSH1 0x2 DUP6 ADD SWAP3 MLOAD DUP1 MLOAD SWAP3 DUP4 GT PUSH2 0x6F7 JUMPI PUSH2 0x5B3 DUP4 PUSH2 0x567 DUP7 SLOAD PUSH2 0x1F2A JUMP JUMPDEST DUP8 SWAP1 PUSH1 0x1F DUP5 GT PUSH1 0x1 EQ PUSH2 0x663 JUMPI SWAP4 DUP4 DUP1 PUSH2 0x653 SWAP9 SWAP6 PUSH1 0x3 SWAP6 PUSH2 0x646 SWAP13 SWAP10 SWAP6 PUSH32 0x5991BFAA80C5F743D433BD10462FC1453A7C566AA9C81582E3DBAB915DCA4FF SWAP15 SWAP13 SWAP10 PUSH1 0x0 SWAP5 PUSH2 0x658 JUMPI JUMPDEST POP POP SHL SWAP2 PUSH1 0x0 NOT SWAP1 DUP7 SHL SHR NOT AND OR SWAP1 SSTORE JUMPDEST MLOAD SWAP2 ADD SSTORE DUP7 PUSH1 0x40 MLOAD DUP4 DUP2 DUP8 MLOAD PUSH2 0x627 DUP2 DUP4 DUP6 DUP13 ADD PUSH2 0x1EF1 JUMP JUMPDEST DUP2 ADD PUSH1 0x3 DUP2 MSTORE SUB ADD SWAP1 KECCAK256 SSTORE PUSH1 0x40 MLOAD SWAP5 DUP6 SWAP5 PUSH1 0x40 DUP7 MSTORE PUSH1 0x40 DUP7 ADD SWAP1 PUSH2 0x200A JUMP JUMPDEST SWAP2 DUP5 DUP4 SUB SWAP1 DUP6 ADD MSTORE PUSH2 0x200A JUMP JUMPDEST SUB SWAP1 LOG2 STOP JUMPDEST ADD MLOAD SWAP3 POP DUP16 DUP1 PUSH2 0x5FD JUMP JUMPDEST SWAP1 PUSH1 0x1F SWAP4 SWAP3 SWAP4 NOT DUP4 AND SWAP2 DUP6 PUSH1 0x0 MSTORE DUP10 PUSH1 0x0 KECCAK256 SWAP3 PUSH1 0x0 JUMPDEST DUP2 DUP2 LT PUSH2 0x6E2 JUMPI POP SWAP4 PUSH2 0x646 SWAP11 SWAP8 SWAP4 PUSH32 0x5991BFAA80C5F743D433BD10462FC1453A7C566AA9C81582E3DBAB915DCA4FF SWAP13 SWAP11 SWAP8 SWAP4 PUSH2 0x653 SWAP11 SWAP8 SWAP4 DUP4 PUSH1 0x3 SWAP9 LT PUSH2 0x6CA JUMPI JUMPDEST POP POP POP DUP2 SHL ADD SWAP1 SSTORE PUSH2 0x60E JUMP JUMPDEST ADD MLOAD PUSH1 0x0 NOT DUP4 DUP9 SHL PUSH1 0xF8 AND SHR NOT AND SWAP1 SSTORE DUP14 DUP1 DUP1 PUSH2 0x6BD JUMP JUMPDEST DUP3 DUP5 ADD MLOAD DUP6 SSTORE SWAP4 DUP7 ADD SWAP4 SWAP3 DUP12 ADD SWAP3 DUP12 ADD PUSH2 0x679 JUMP JUMPDEST PUSH4 0x4E487B71 PUSH1 0xE0 SHL PUSH1 0x0 MSTORE PUSH1 0x41 PUSH1 0x4 MSTORE PUSH1 0x24 PUSH1 0x0 REVERT JUMPDEST ADD MLOAD SWAP1 POP DUP13 DUP1 PUSH2 0x582 JUMP JUMPDEST PUSH1 0x0 DUP6 DUP2 MSTORE DUP13 DUP2 KECCAK256 DUP8 SWAP6 POP SWAP3 SWAP2 SWAP1 PUSH1 0x1F NOT DUP6 AND SWAP1 DUP15 JUMPDEST DUP3 DUP3 LT PUSH2 0x764 JUMPI POP POP DUP5 GT PUSH2 0x74B JUMPI JUMPDEST POP POP POP DUP2 SHL ADD SWAP1 SSTORE PUSH2 0x596 JUMP JUMPDEST ADD MLOAD PUSH1 0x0 NOT PUSH1 0xF8 DUP5 PUSH1 0x3 SHL AND SHR NOT AND SWAP1 SSTORE DUP13 DUP1 DUP1 PUSH2 0x73E JUMP JUMPDEST DUP4 DUP6 ADD MLOAD DUP7 SSTORE DUP10 SWAP8 SWAP1 SWAP6 ADD SWAP5 SWAP4 DUP5 ADD SWAP4 ADD DUP15 PUSH2 0x72E JUMP JUMPDEST CALLVALUE PUSH2 0x1F0 JUMPI PUSH1 0x0 CALLDATASIZE PUSH1 0x3 NOT ADD SLT PUSH2 0x1F0 JUMPI CALLER PUSH1 0x0 MSTORE PUSH1 0x0 PUSH1 0x20 MSTORE PUSH2 0x7AD PUSH1 0x1 DUP1 PUSH1 0xA0 SHL SUB PUSH1 0x40 PUSH1 0x0 KECCAK256 SLOAD AND ISZERO ISZERO PUSH2 0x2341 JUMP JUMPDEST CALLER PUSH1 0x0 MSTORE PUSH1 0x0 PUSH1 0x20 MSTORE PUSH1 0xFF PUSH1 0x5 PUSH1 0x40 PUSH1 0x0 KECCAK256 ADD SLOAD AND PUSH2 0x817 JUMPI CALLER PUSH1 0x0 MSTORE PUSH1 0x0 PUSH1 0x20 MSTORE PUSH1 0x40 PUSH1 0x0 KECCAK256 PUSH1 0x5 DUP2 ADD PUSH1 0x1 PUSH1 0xFF NOT DUP3 SLOAD AND OR SWAP1 SSTORE PUSH1 0x7 TIMESTAMP SWAP2 ADD SSTORE PUSH1 0x40 MLOAD TIMESTAMP DUP2 MSTORE PUSH32 0x72FA502A711D31DA2101A8152EDE15F4F332C7BEF579C13CA9F8EF603A4480E6 PUSH1 0x20 CALLER SWAP3 LOG2 STOP JUMPDEST PUSH1 0x40 MLOAD PUSH3 0x461BCD PUSH1 0xE5 SHL DUP2 MSTORE PUSH1 0x20 PUSH1 0x4 DUP3 ADD MSTORE PUSH1 0xE PUSH1 0x24 DUP3 ADD MSTORE PUSH14 0x416C726561647920616374697665 PUSH1 0x90 SHL PUSH1 0x44 DUP3 ADD MSTORE PUSH1 0x64 SWAP1 REVERT JUMPDEST CALLVALUE PUSH2 0x1F0 JUMPI PUSH1 0x0 CALLDATASIZE PUSH1 0x3 NOT ADD SLT PUSH2 0x1F0 JUMPI PUSH1 0x5 SLOAD PUSH1 0x0 NOT SWAP1 DUP2 DUP2 ADD SWAP1 DUP1 DUP3 GT PUSH2 0x9C2 JUMPI PUSH2 0x879 DUP3 PUSH2 0x21BD JUMP JUMPDEST SWAP2 PUSH2 0x887 PUSH1 0x40 MLOAD SWAP4 DUP5 PUSH2 0x1E60 JUMP JUMPDEST DUP1 DUP4 MSTORE PUSH2 0x896 PUSH1 0x1F NOT SWAP2 PUSH2 0x21BD JUMP JUMPDEST ADD PUSH1 0x0 JUMPDEST DUP2 DUP2 LT PUSH2 0x9D8 JUMPI POP POP PUSH1 0x1 SWAP3 DUP4 JUMPDEST DUP3 DUP2 LT PUSH2 0x94B JUMPI DUP4 DUP6 PUSH1 0x40 MLOAD SWAP2 DUP3 SWAP2 PUSH1 0x20 SWAP1 DUP2 DUP5 ADD DUP3 DUP6 MSTORE DUP4 MLOAD DUP1 SWAP2 MSTORE PUSH1 0x40 DUP6 ADD SWAP3 DUP1 PUSH1 0x40 DUP4 PUSH1 0x5 SHL DUP9 ADD ADD SWAP6 ADD SWAP4 PUSH1 0x0 SWAP1 JUMPDEST DUP4 DUP3 LT PUSH2 0x8E8 JUMPI DUP8 DUP8 SUB DUP9 RETURN JUMPDEST SWAP2 DUP5 SWAP7 DUP2 SWAP6 SWAP3 SWAP5 SWAP7 SWAP9 POP DUP2 SWAP1 PUSH1 0x3F NOT DUP12 DUP3 SUB ADD DUP6 MSTORE DUP10 MLOAD SWAP1 DUP2 MLOAD DUP2 MSTORE PUSH2 0x92F PUSH2 0x91D DUP5 DUP5 ADD MLOAD PUSH1 0x80 DUP1 DUP8 DUP7 ADD MSTORE DUP5 ADD SWAP1 PUSH2 0x200A JUMP JUMPDEST PUSH1 0x40 DUP5 ADD MLOAD DUP4 DUP3 SUB PUSH1 0x40 DUP6 ADD MSTORE PUSH2 0x200A JUMP JUMPDEST SWAP2 PUSH1 0x60 DUP1 SWAP2 ADD MLOAD SWAP2 ADD MSTORE SWAP9 ADD SWAP3 ADD SWAP3 ADD DUP8 SWAP7 SWAP6 SWAP4 SWAP2 SWAP5 SWAP3 PUSH2 0x8DB JUMP JUMPDEST DUP1 PUSH1 0x0 MSTORE PUSH1 0x20 SWAP1 DUP6 DUP3 MSTORE PUSH1 0x40 PUSH1 0x0 KECCAK256 DUP4 DUP3 ADD DUP3 DUP2 GT PUSH2 0x9C2 JUMPI PUSH2 0x9BD SWAP4 PUSH1 0x3 PUSH2 0x9B7 SWAP4 PUSH1 0x40 MLOAD SWAP3 PUSH2 0x97B DUP5 PUSH2 0x1E45 JUMP JUMPDEST DUP2 SLOAD DUP5 MSTORE PUSH2 0x98A DUP13 DUP4 ADD PUSH2 0x1F64 JUMP JUMPDEST SWAP1 DUP5 ADD MSTORE PUSH2 0x99A PUSH1 0x2 DUP3 ADD PUSH2 0x1F64 JUMP JUMPDEST PUSH1 0x40 DUP5 ADD MSTORE ADD SLOAD PUSH1 0x60 DUP3 ADD MSTORE PUSH2 0x9B0 DUP3 DUP10 PUSH2 0x221E JUMP JUMPDEST MSTORE DUP7 PUSH2 0x221E JUMP JUMPDEST POP PUSH2 0x2122 JUMP JUMPDEST PUSH2 0x8A8 JUMP JUMPDEST PUSH4 0x4E487B71 PUSH1 0xE0 SHL PUSH1 0x0 MSTORE PUSH1 0x11 PUSH1 0x4 MSTORE PUSH1 0x24 PUSH1 0x0 REVERT JUMPDEST PUSH1 0x20 SWAP1 PUSH1 0x40 MLOAD PUSH2 0x9E7 DUP2 PUSH2 0x1E45 JUMP JUMPDEST PUSH1 0x0 DUP2 MSTORE PUSH1 0x60 PUSH1 0x0 DUP5 SWAP2 DUP1 DUP4 DUP6 ADD MSTORE DUP1 PUSH1 0x40 DUP6 ADD MSTORE DUP4 ADD MSTORE DUP3 DUP8 ADD ADD MSTORE ADD PUSH2 0x89A JUMP JUMPDEST CALLVALUE PUSH2 0x1F0 JUMPI PUSH1 0x0 CALLDATASIZE PUSH1 0x3 NOT ADD SLT PUSH2 0x1F0 JUMPI PUSH1 0x20 PUSH1 0x6 SLOAD PUSH1 0x40 MLOAD SWAP1 DUP2 MSTORE RETURN JUMPDEST CALLVALUE PUSH2 0x1F0 JUMPI PUSH1 0x20 CALLDATASIZE PUSH1 0x3 NOT ADD SLT PUSH2 0x1F0 JUMPI PUSH1 0x1 PUSH1 0x1 PUSH1 0xA0 SHL SUB PUSH2 0xA49 PUSH2 0x1F14 JUMP JUMPDEST AND PUSH1 0x0 MSTORE PUSH1 0x0 PUSH1 0x20 MSTORE PUSH1 0x20 PUSH1 0xFF PUSH1 0x5 PUSH1 0x40 PUSH1 0x0 KECCAK256 ADD SLOAD AND PUSH1 0x40 MLOAD SWAP1 ISZERO ISZERO DUP2 MSTORE RETURN JUMPDEST CALLVALUE PUSH2 0x1F0 JUMPI PUSH1 0x20 CALLDATASIZE PUSH1 0x3 NOT ADD SLT PUSH2 0x1F0 JUMPI PUSH2 0xA90 PUSH1 0x1 DUP1 PUSH1 0xA0 SHL SUB PUSH1 0x7 SLOAD AND CALLER EQ PUSH2 0x256D JUMP JUMPDEST PUSH1 0x4 CALLDATALOAD PUSH1 0x8 SSTORE STOP JUMPDEST CALLVALUE PUSH2 0x1F0 JUMPI PUSH1 0x20 DUP1 PUSH1 0x3 NOT CALLDATASIZE ADD SLT PUSH2 0x1F0 JUMPI PUSH1 0x4 CALLDATALOAD PUSH1 0x0 MSTORE PUSH1 0x2 DUP2 MSTORE PUSH1 0x40 PUSH1 0x0 KECCAK256 SWAP1 PUSH1 0x40 MLOAD SWAP1 DUP2 DUP2 DUP5 SLOAD SWAP2 DUP3 DUP2 MSTORE ADD SWAP4 PUSH1 0x0 MSTORE DUP2 PUSH1 0x0 KECCAK256 SWAP2 PUSH1 0x0 SWAP1 JUMPDEST DUP3 DUP3 LT PUSH2 0xAFB JUMPI PUSH2 0xAF7 DUP6 PUSH2 0xAEB DUP2 DUP10 SUB DUP3 PUSH2 0x1E60 JUMP JUMPDEST PUSH1 0x40 MLOAD SWAP2 DUP3 SWAP2 DUP3 PUSH2 0x2045 JUMP JUMPDEST SUB SWAP1 RETURN JUMPDEST DUP4 SLOAD PUSH1 0x1 PUSH1 0x1 PUSH1 0xA0 SHL SUB AND DUP7 MSTORE SWAP5 DUP6 ADD SWAP5 PUSH1 0x1 SWAP4 DUP5 ADD SWAP4 SWAP1 SWAP2 ADD SWAP1 PUSH2 0xAD4 JUMP JUMPDEST CALLVALUE PUSH2 0x1F0 JUMPI PUSH1 0x20 CALLDATASIZE PUSH1 0x3 NOT ADD SLT PUSH2 0x1F0 JUMPI PUSH1 0x1 PUSH1 0x1 PUSH1 0xA0 SHL SUB PUSH2 0xB3C PUSH2 0x1F14 JUMP JUMPDEST AND PUSH1 0x0 MSTORE PUSH1 0x0 PUSH1 0x20 MSTORE PUSH2 0xAF7 PUSH2 0xB58 PUSH1 0x2 PUSH1 0x40 PUSH1 0x0 KECCAK256 ADD PUSH2 0x25A5 JUMP JUMPDEST PUSH1 0x40 MLOAD SWAP2 DUP3 SWAP2 PUSH1 0x20 DUP4 MSTORE PUSH1 0x20 DUP4 ADD SWAP1 PUSH2 0x20EE JUMP JUMPDEST CALLVALUE PUSH2 0x1F0 JUMPI PUSH1 0x20 CALLDATASIZE PUSH1 0x3 NOT ADD SLT PUSH2 0x1F0 JUMPI PUSH1 0x4 CALLDATALOAD PUSH1 0x1 PUSH1 0x1 PUSH1 0x40 SHL SUB DUP2 GT PUSH2 0x1F0 JUMPI PUSH2 0xAEB PUSH2 0xBA2 PUSH2 0xAF7 SWAP3 CALLDATASIZE SWAP1 PUSH1 0x4 ADD PUSH2 0x1D97 JUMP JUMPDEST SWAP1 PUSH2 0x23BD JUMP JUMPDEST CALLVALUE PUSH2 0x1F0 JUMPI PUSH1 0x20 DUP1 PUSH1 0x3 NOT CALLDATASIZE ADD SLT PUSH2 0x1F0 JUMPI PUSH1 0x4 DUP1 SLOAD SWAP1 CALLDATALOAD DUP2 DUP2 GT ISZERO PUSH2 0xD2D JUMPI POP DUP1 SWAP2 JUMPDEST PUSH2 0xBD5 DUP3 PUSH2 0x238B JUMP JUMPDEST SWAP2 PUSH1 0x0 JUMPDEST DUP2 DUP2 LT PUSH2 0xCFF JUMPI POP POP PUSH1 0x0 JUMPDEST DUP3 MLOAD DUP2 LT ISZERO PUSH2 0xCAE JUMPI PUSH1 0x1 DUP1 DUP3 ADD DUP1 DUP4 GT PUSH2 0x9C2 JUMPI DUP2 JUMPDEST PUSH2 0xC11 JUMPI JUMPDEST POP POP PUSH2 0xC0C SWAP1 PUSH2 0x2122 JUMP JUMPDEST PUSH2 0xBE5 JUMP JUMPDEST DUP5 MLOAD DUP2 LT ISZERO PUSH2 0xCA9 JUMPI DUP2 SWAP1 PUSH2 0xC6D SWAP1 PUSH1 0x1 PUSH1 0x1 PUSH1 0xA0 SHL SUB DUP1 PUSH2 0xC33 DUP4 DUP11 PUSH2 0x221E JUMP JUMPDEST MLOAD AND PUSH1 0x0 MSTORE PUSH1 0x0 DUP8 MSTORE PUSH1 0x4 PUSH1 0x40 PUSH1 0x0 KECCAK256 ADD SLOAD DUP2 PUSH2 0xC50 DUP9 DUP12 PUSH2 0x221E JUMP JUMPDEST MLOAD AND PUSH1 0x0 MSTORE PUSH1 0x0 DUP9 MSTORE PUSH1 0x4 PUSH1 0x40 PUSH1 0x0 KECCAK256 ADD SLOAD LT PUSH2 0xC73 JUMPI POP PUSH2 0x2122 JUMP JUMPDEST SWAP1 PUSH2 0xBFC JUMP JUMPDEST DUP1 PUSH2 0xC7E DUP8 DUP11 PUSH2 0x221E JUMP JUMPDEST MLOAD AND SWAP1 PUSH2 0xC8B DUP4 DUP11 PUSH2 0x221E JUMP JUMPDEST MLOAD AND PUSH2 0xC97 DUP8 DUP11 PUSH2 0x221E JUMP JUMPDEST MSTORE PUSH2 0xCA2 DUP3 DUP10 PUSH2 0x221E JUMP JUMPDEST MSTORE DUP9 PUSH2 0x9B7 JUMP JUMPDEST PUSH2 0xC01 JUMP JUMPDEST DUP3 DUP5 PUSH2 0xCB9 DUP2 PUSH2 0x238B JUMP JUMPDEST SWAP2 PUSH1 0x0 JUMPDEST DUP3 DUP2 LT PUSH2 0xCD2 JUMPI PUSH1 0x40 MLOAD DUP1 PUSH2 0xAF7 DUP7 DUP3 PUSH2 0x2045 JUMP JUMPDEST PUSH2 0xCFA SWAP1 PUSH1 0x1 PUSH1 0x1 PUSH1 0xA0 SHL SUB PUSH2 0xCE8 DUP3 DUP6 PUSH2 0x221E JUMP JUMPDEST MLOAD AND PUSH2 0xCF4 DUP3 DUP8 PUSH2 0x221E JUMP JUMPDEST MSTORE PUSH2 0x2122 JUMP JUMPDEST PUSH2 0xCBD JUMP JUMPDEST DUP1 PUSH2 0xD0C PUSH2 0xD28 SWAP3 PUSH2 0x2089 JUMP JUMPDEST SWAP1 SLOAD PUSH1 0x3 SWAP2 SWAP1 SWAP2 SHL SHR PUSH1 0x1 PUSH1 0x1 PUSH1 0xA0 SHL SUB AND PUSH2 0xCF4 DUP3 DUP8 PUSH2 0x221E JUMP JUMPDEST PUSH2 0xBD9 JUMP JUMPDEST SWAP2 PUSH2 0xBCC JUMP JUMPDEST CALLVALUE PUSH2 0x1F0 JUMPI PUSH2 0xD41 CALLDATASIZE PUSH2 0x202F JUMP JUMPDEST SWAP1 PUSH1 0x0 MSTORE PUSH1 0x2 PUSH1 0x20 MSTORE PUSH1 0x40 PUSH1 0x0 KECCAK256 DUP1 SLOAD DUP3 LT ISZERO PUSH2 0x1F0 JUMPI PUSH1 0x20 SWAP2 PUSH2 0x483 SWAP2 PUSH2 0x20D6 JUMP JUMPDEST CALLVALUE PUSH2 0x1F0 JUMPI PUSH1 0x0 CALLDATASIZE PUSH1 0x3 NOT ADD SLT PUSH2 0x1F0 JUMPI PUSH1 0x7 SLOAD PUSH1 0x40 MLOAD PUSH1 0x1 PUSH1 0x1 PUSH1 0xA0 SHL SUB SWAP1 SWAP2 AND DUP2 MSTORE PUSH1 0x20 SWAP1 RETURN JUMPDEST PUSH2 0xD96 CALLDATASIZE PUSH2 0x1DC7 JUMP JUMPDEST SWAP1 PUSH1 0x0 SWAP4 SWAP3 SWAP4 JUMPDEST DUP3 DUP2 LT PUSH2 0x13BE JUMPI POP CALLER PUSH1 0x0 MSTORE PUSH1 0x0 PUSH1 0x20 MSTORE PUSH1 0xFF PUSH1 0x5 PUSH1 0x40 PUSH1 0x0 KECCAK256 ADD SLOAD AND PUSH2 0x1384 JUMPI PUSH1 0x8 SLOAD DUP1 CALLVALUE LT PUSH2 0x134C JUMPI DUP1 CALLVALUE GT PUSH2 0x12F1 JUMPI JUMPDEST POP PUSH2 0xDDA DUP3 PUSH2 0x21D4 JUMP JUMPDEST PUSH1 0x0 JUMPDEST DUP4 DUP2 LT PUSH2 0x1261 JUMPI POP PUSH1 0x40 MLOAD PUSH2 0xDF1 DUP2 PUSH2 0x1E29 JUMP JUMPDEST CALLER DUP2 MSTORE PUSH2 0xDFF CALLDATASIZE DUP8 DUP8 PUSH2 0x1E9C JUMP JUMPDEST SWAP2 PUSH1 0x20 DUP3 ADD SWAP3 DUP4 MSTORE PUSH2 0xE10 DUP6 PUSH2 0x21BD JUMP JUMPDEST PUSH2 0xE1D PUSH1 0x40 MLOAD SWAP2 DUP3 PUSH2 0x1E60 JUMP JUMPDEST DUP6 DUP2 MSTORE PUSH1 0x20 DUP2 ADD DUP7 PUSH1 0x5 SHL DUP7 ADD SWAP1 CALLDATASIZE DUP3 GT PUSH2 0x1F0 JUMPI DUP7 SWAP1 JUMPDEST DUP3 DUP3 LT PUSH2 0x1251 JUMPI POP POP POP PUSH1 0x40 DUP4 ADD MSTORE PUSH1 0x60 DUP3 ADD MSTORE PUSH1 0x0 PUSH1 0x80 DUP3 ADD MSTORE PUSH1 0x1 PUSH1 0xA0 DUP3 ADD MSTORE TIMESTAMP PUSH1 0xC0 DUP3 ADD MSTORE TIMESTAMP PUSH1 0xE0 DUP3 ADD MSTORE PUSH1 0x0 PUSH2 0x100 DUP3 ADD MSTORE PUSH1 0x0 PUSH2 0x120 DUP3 ADD MSTORE PUSH1 0x0 PUSH2 0x140 DUP3 ADD MSTORE CALLER PUSH1 0x0 MSTORE PUSH1 0x0 PUSH1 0x20 MSTORE PUSH1 0x40 PUSH1 0x0 KECCAK256 SWAP2 PUSH1 0x1 DUP1 PUSH1 0xA0 SHL SUB DUP3 MLOAD AND PUSH12 0xFFFFFFFFFFFFFFFFFFFFFFFF PUSH1 0xA0 SHL DUP5 SLOAD AND OR DUP4 SSTORE MLOAD DUP1 MLOAD SWAP1 PUSH1 0x1 PUSH1 0x1 PUSH1 0x40 SHL SUB DUP3 GT PUSH2 0x6F7 JUMPI DUP2 SWAP1 PUSH2 0xED8 DUP3 PUSH2 0xECF PUSH1 0x1 DUP9 ADD SLOAD PUSH2 0x1F2A JUMP JUMPDEST PUSH1 0x1 DUP9 ADD PUSH2 0x226C JUMP JUMPDEST PUSH1 0x20 SWAP1 PUSH1 0x1F DUP4 GT PUSH1 0x1 EQ PUSH2 0x11DF JUMPI PUSH1 0x0 SWAP3 PUSH2 0x11D4 JUMPI JUMPDEST POP POP DUP2 PUSH1 0x1 SHL SWAP2 PUSH1 0x0 NOT SWAP1 PUSH1 0x3 SHL SHR NOT AND OR PUSH1 0x1 DUP4 ADD SSTORE JUMPDEST PUSH1 0x40 DUP2 ADD MLOAD DUP1 MLOAD SWAP1 PUSH1 0x1 PUSH1 0x1 PUSH1 0x40 SHL SUB DUP3 GT PUSH2 0x6F7 JUMPI PUSH1 0x20 PUSH1 0x2 DUP6 ADD SWAP2 PUSH2 0xF2D DUP5 DUP5 PUSH2 0x22B1 JUMP JUMPDEST ADD SWAP1 PUSH1 0x0 MSTORE PUSH1 0x20 PUSH1 0x0 KECCAK256 PUSH1 0x0 JUMPDEST DUP4 DUP2 LT PUSH2 0x11C0 JUMPI POP POP POP POP PUSH1 0x60 DUP2 ADD MLOAD DUP1 MLOAD SWAP1 PUSH1 0x1 PUSH1 0x40 SHL DUP3 GT PUSH2 0x6F7 JUMPI PUSH1 0x3 DUP5 ADD SLOAD DUP3 PUSH1 0x3 DUP7 ADD SSTORE DUP1 DUP4 LT PUSH2 0x1148 JUMPI JUMPDEST POP PUSH1 0x20 ADD SWAP1 PUSH1 0x3 DUP5 ADD PUSH1 0x0 MSTORE PUSH1 0x20 PUSH1 0x0 KECCAK256 SWAP2 PUSH1 0x0 SWAP1 JUMPDEST DUP3 DUP3 LT PUSH2 0x1065 JUMPI POP POP POP POP PUSH2 0x140 DUP2 PUSH1 0x80 PUSH1 0xA SWAP4 ADD MLOAD PUSH1 0x4 DUP6 ADD SSTORE PUSH1 0x5 DUP5 ADD PUSH1 0xA0 DUP3 ADD MLOAD ISZERO ISZERO PUSH1 0xFF DUP1 NOT DUP4 SLOAD AND SWAP2 AND OR SWAP1 SSTORE PUSH1 0xC0 DUP2 ADD MLOAD PUSH1 0x6 DUP6 ADD SSTORE PUSH1 0xE0 DUP2 ADD MLOAD PUSH1 0x7 DUP6 ADD SSTORE PUSH2 0x100 DUP2 ADD MLOAD PUSH1 0x8 DUP6 ADD SSTORE PUSH2 0x120 DUP2 ADD MLOAD PUSH1 0x9 DUP6 ADD SSTORE ADD MLOAD SWAP2 ADD SSTORE PUSH1 0x4 SLOAD PUSH1 0x1 PUSH1 0x40 SHL DUP2 LT ISZERO PUSH2 0x6F7 JUMPI PUSH32 0xDF1275F67E995789184A7A608F6C1B71953A305670459D1BB1F05956DB47C05D SWAP4 PUSH2 0x1047 PUSH2 0x1029 DUP4 PUSH1 0x1 PUSH2 0x653 SWAP6 ADD PUSH1 0x4 SSTORE PUSH2 0x2089 JUMP JUMPDEST DUP2 SLOAD PUSH1 0x1 PUSH1 0x1 PUSH1 0xA0 SHL SUB PUSH1 0x3 SWAP3 SWAP1 SWAP3 SHL SWAP2 DUP3 SHL NOT AND CALLER SWAP1 SWAP2 SHL OR SWAP1 SSTORE JUMP JUMPDEST PUSH2 0x1052 PUSH1 0x6 SLOAD PUSH2 0x2122 JUMP JUMPDEST PUSH1 0x6 SSTORE PUSH1 0x40 MLOAD SWAP4 DUP5 SWAP4 CALLER SWAP8 TIMESTAMP SWAP4 DUP7 PUSH2 0x22E5 JUMP JUMPDEST DUP1 MLOAD DUP1 MLOAD SWAP1 PUSH1 0x1 PUSH1 0x1 PUSH1 0x40 SHL SUB DUP3 GT PUSH2 0x6F7 JUMPI PUSH2 0x108C DUP3 PUSH2 0x1086 DUP9 SLOAD PUSH2 0x1F2A JUMP JUMPDEST DUP9 PUSH2 0x226C JUMP JUMPDEST PUSH1 0x20 SWAP1 PUSH1 0x1F DUP4 GT PUSH1 0x1 EQ PUSH2 0x10D8 JUMPI SWAP3 DUP3 PUSH1 0x1 SWAP5 SWAP4 PUSH1 0x20 SWAP4 DUP7 SWAP6 PUSH1 0x0 SWAP3 PUSH2 0x10CD JUMPI JUMPDEST POP POP PUSH1 0x0 NOT PUSH1 0x3 DUP4 SWAP1 SHL SHR NOT AND SWAP1 DUP5 SHL OR DUP8 SSTORE JUMPDEST ADD SWAP5 ADD SWAP2 ADD SWAP1 SWAP3 PUSH2 0xF81 JUMP JUMPDEST ADD MLOAD SWAP1 POP DUP16 DUP1 PUSH2 0x10AD JUMP JUMPDEST SWAP1 DUP7 PUSH1 0x0 MSTORE PUSH1 0x20 PUSH1 0x0 KECCAK256 SWAP2 PUSH1 0x0 JUMPDEST PUSH1 0x1F NOT DUP6 AND DUP2 LT PUSH2 0x1130 JUMPI POP DUP4 PUSH1 0x20 SWAP4 PUSH1 0x1 SWAP7 SWAP4 DUP8 SWAP7 SWAP4 DUP8 SWAP5 PUSH1 0x1F NOT DUP2 AND LT PUSH2 0x1117 JUMPI JUMPDEST POP POP POP DUP2 SHL ADD DUP8 SSTORE PUSH2 0x10C1 JUMP JUMPDEST ADD MLOAD PUSH1 0x0 NOT PUSH1 0xF8 DUP5 PUSH1 0x3 SHL AND SHR NOT AND SWAP1 SSTORE DUP16 DUP1 DUP1 PUSH2 0x110A JUMP JUMPDEST SWAP2 SWAP3 PUSH1 0x20 PUSH1 0x1 DUP2 SWAP3 DUP7 DUP6 ADD MLOAD DUP2 SSTORE ADD SWAP5 ADD SWAP3 ADD PUSH2 0x10E6 JUMP JUMPDEST PUSH1 0x3 DUP6 ADD PUSH1 0x0 MSTORE PUSH1 0x20 PUSH1 0x0 KECCAK256 SWAP1 DUP4 DUP3 ADD JUMPDEST DUP2 DUP4 ADD DUP2 LT PUSH2 0x1169 JUMPI POP POP PUSH2 0xF6B JUMP JUMPDEST DUP1 PUSH2 0x1176 PUSH1 0x1 SWAP3 SLOAD PUSH2 0x1F2A JUMP JUMPDEST DUP1 PUSH2 0x1183 JUMPI JUMPDEST POP ADD PUSH2 0x1159 JUMP JUMPDEST PUSH1 0x1F DUP2 GT DUP4 EQ PUSH2 0x1199 JUMPI POP PUSH1 0x0 DUP2 SSTORE JUMPDEST DUP13 PUSH2 0x117C JUMP JUMPDEST PUSH1 0x0 SWAP1 DUP3 DUP3 MSTORE PUSH2 0x11B7 PUSH1 0x1F PUSH1 0x20 DUP5 KECCAK256 SWAP3 ADD PUSH1 0x5 SHR DUP3 ADD DUP6 DUP4 ADD PUSH2 0x2255 JUMP JUMPDEST DUP2 DUP4 SSTORE SSTORE PUSH2 0x1193 JUMP JUMPDEST PUSH1 0x1 SWAP1 PUSH1 0x20 DUP5 MLOAD SWAP5 ADD SWAP4 DUP2 DUP5 ADD SSTORE ADD PUSH2 0xF3A JUMP JUMPDEST ADD MLOAD SWAP1 POP DUP9 DUP1 PUSH2 0xEEE JUMP JUMPDEST SWAP3 POP PUSH1 0x1 DUP6 ADD PUSH1 0x0 MSTORE PUSH1 0x20 PUSH1 0x0 KECCAK256 SWAP1 PUSH1 0x0 SWAP4 JUMPDEST PUSH1 0x1F NOT DUP5 AND DUP6 LT PUSH2 0x1236 JUMPI PUSH1 0x1 SWAP5 POP DUP4 PUSH1 0x1F NOT DUP2 AND LT PUSH2 0x121D JUMPI JUMPDEST POP POP POP DUP2 SHL ADD PUSH1 0x1 DUP4 ADD SSTORE PUSH2 0xF06 JUMP JUMPDEST ADD MLOAD PUSH1 0x0 NOT PUSH1 0xF8 DUP5 PUSH1 0x3 SHL AND SHR NOT AND SWAP1 SSTORE DUP9 DUP1 DUP1 PUSH2 0x120D JUMP JUMPDEST DUP2 DUP2 ADD MLOAD DUP4 SSTORE PUSH1 0x20 SWAP5 DUP6 ADD SWAP5 PUSH1 0x1 SWAP1 SWAP4 ADD SWAP3 SWAP1 SWAP2 ADD SWAP1 PUSH2 0x11F2 JUMP JUMPDEST DUP2 CALLDATALOAD DUP2 MSTORE PUSH1 0x20 SWAP2 DUP3 ADD SWAP2 ADD PUSH2 0xE35 JUMP JUMPDEST DUP1 PUSH2 0x1270 PUSH2 0x12EC SWAP3 DUP7 DUP7 PUSH2 0x2131 JUMP JUMPDEST CALLDATALOAD PUSH1 0x0 MSTORE PUSH1 0x1 DUP1 PUSH1 0x20 MSTORE PUSH2 0x1289 DUP2 PUSH1 0x40 PUSH1 0x0 KECCAK256 ADD PUSH2 0x1F64 JUMP JUMPDEST PUSH2 0x1293 DUP4 DUP7 PUSH2 0x221E JUMP JUMPDEST MSTORE PUSH2 0x129E DUP3 DUP6 PUSH2 0x221E JUMP JUMPDEST POP PUSH2 0x12AA DUP3 DUP8 DUP8 PUSH2 0x2131 JUMP JUMPDEST CALLDATALOAD PUSH1 0x0 MSTORE PUSH1 0x2 PUSH1 0x20 MSTORE PUSH2 0x12C1 CALLER PUSH1 0x40 PUSH1 0x0 KECCAK256 PUSH2 0x2232 JUMP JUMPDEST PUSH2 0x12CC DUP3 DUP8 DUP8 PUSH2 0x2131 JUMP JUMPDEST CALLDATALOAD PUSH1 0x0 MSTORE PUSH1 0x20 MSTORE PUSH1 0x3 PUSH1 0x40 PUSH1 0x0 KECCAK256 ADD PUSH2 0x12E5 DUP2 SLOAD PUSH2 0x2122 JUMP JUMPDEST SWAP1 SSTORE PUSH2 0x2122 JUMP JUMPDEST PUSH2 0xDDD JUMP JUMPDEST PUSH1 0x0 DUP1 DUP1 PUSH2 0x1300 DUP2 SWAP5 CALLVALUE PUSH2 0x2180 JUMP JUMPDEST CALLER GAS CALL PUSH2 0x130B PUSH2 0x218D JUMP JUMPDEST POP ISZERO PUSH2 0x1317 JUMPI DUP5 PUSH2 0xDD0 JUMP JUMPDEST PUSH1 0x40 MLOAD PUSH3 0x461BCD PUSH1 0xE5 SHL DUP2 MSTORE PUSH1 0x20 PUSH1 0x4 DUP3 ADD MSTORE PUSH1 0xD PUSH1 0x24 DUP3 ADD MSTORE PUSH13 0x1499599D5B990819985A5B1959 PUSH1 0x9A SHL PUSH1 0x44 DUP3 ADD MSTORE PUSH1 0x64 SWAP1 REVERT JUMPDEST PUSH1 0x40 MLOAD PUSH3 0x461BCD PUSH1 0xE5 SHL DUP2 MSTORE PUSH1 0x20 PUSH1 0x4 DUP3 ADD MSTORE PUSH1 0x10 PUSH1 0x24 DUP3 ADD MSTORE PUSH16 0x496E73756666696369656E7420666565 PUSH1 0x80 SHL PUSH1 0x44 DUP3 ADD MSTORE PUSH1 0x64 SWAP1 REVERT JUMPDEST PUSH1 0x40 MLOAD PUSH3 0x461BCD PUSH1 0xE5 SHL DUP2 MSTORE PUSH1 0x20 PUSH1 0x4 DUP3 ADD MSTORE PUSH1 0x12 PUSH1 0x24 DUP3 ADD MSTORE PUSH18 0x105B1C9958591E481C9959DA5CDD195C9959 PUSH1 0x72 SHL PUSH1 0x44 DUP3 ADD MSTORE PUSH1 0x64 SWAP1 REVERT JUMPDEST DUP1 PUSH2 0x13CD PUSH2 0x13E4 SWAP3 DUP6 DUP6 PUSH2 0x2131 JUMP JUMPDEST CALLDATALOAD ISZERO ISZERO DUP1 PUSH2 0x13E9 JUMPI JUMPDEST PUSH2 0x13DF SWAP1 PUSH2 0x2141 JUMP JUMPDEST PUSH2 0x2122 JUMP JUMPDEST PUSH2 0xD9D JUMP JUMPDEST POP PUSH2 0x13DF PUSH2 0x13F8 DUP3 DUP7 DUP7 PUSH2 0x2131 JUMP JUMPDEST CALLDATALOAD PUSH1 0x5 SLOAD GT SWAP1 POP PUSH2 0x13D6 JUMP JUMPDEST CALLVALUE PUSH2 0x1F0 JUMPI PUSH2 0x1412 CALLDATASIZE PUSH2 0x202F JUMP JUMPDEST PUSH1 0x4 SLOAD PUSH2 0x141E DUP2 PUSH2 0x238B JUMP JUMPDEST SWAP3 PUSH2 0x142B PUSH1 0x0 SWAP4 TIMESTAMP PUSH2 0x2180 JUMP JUMPDEST PUSH1 0x0 JUMPDEST DUP4 DUP2 LT PUSH2 0x1477 JUMPI JUMPDEST POP POP POP POP PUSH2 0x1443 DUP2 PUSH2 0x238B JUMP JUMPDEST SWAP2 PUSH1 0x0 JUMPDEST DUP3 DUP2 LT PUSH2 0x145C JUMPI PUSH1 0x40 MLOAD DUP1 PUSH2 0xAF7 DUP7 DUP3 PUSH2 0x2045 JUMP JUMPDEST PUSH2 0x1472 SWAP1 PUSH1 0x1 PUSH1 0x1 PUSH1 0xA0 SHL SUB PUSH2 0xCE8 DUP3 DUP6 PUSH2 0x221E JUMP JUMPDEST PUSH2 0x1447 JUMP JUMPDEST PUSH2 0x1480 DUP2 PUSH2 0x2089 JUMP JUMPDEST PUSH1 0x1 DUP1 PUSH1 0xA0 SHL SUB DUP1 SWAP3 SLOAD PUSH1 0x3 SWAP3 DUP4 SHL SHR AND PUSH1 0x0 MSTORE PUSH1 0x20 PUSH1 0x0 DUP2 MSTORE PUSH1 0xFF PUSH1 0x5 PUSH1 0x40 PUSH1 0x0 KECCAK256 ADD SLOAD AND SWAP1 DUP2 PUSH2 0x14F8 JUMPI JUMPDEST POP PUSH2 0x14C3 JUMPI JUMPDEST POP POP PUSH2 0x14BE SWAP1 PUSH2 0x2122 JUMP JUMPDEST PUSH2 0x142E JUMP JUMPDEST SWAP1 DUP3 SWAP7 SWAP2 PUSH2 0x14D3 PUSH2 0x14E3 SWAP5 PUSH2 0x2089 JUMP JUMPDEST SWAP1 SLOAD SWAP2 SHL SHR AND PUSH2 0xCF4 DUP3 DUP10 PUSH2 0x221E JUMP JUMPDEST SWAP4 DUP3 DUP6 LT ISZERO PUSH2 0x14F3 JUMPI DUP7 DUP1 PUSH2 0x14B3 JUMP JUMPDEST PUSH2 0x1436 JUMP JUMPDEST PUSH1 0x0 SWAP2 POP DUP4 PUSH2 0x1506 DUP7 PUSH2 0x2089 JUMP JUMPDEST SWAP1 SLOAD SWAP1 DUP6 SHL SHR AND DUP3 MSTORE MSTORE DUP4 PUSH1 0x7 PUSH1 0x40 PUSH1 0x0 KECCAK256 ADD SLOAD LT ISZERO DUP10 PUSH2 0x14AD JUMP JUMPDEST CALLVALUE PUSH2 0x1F0 JUMPI PUSH1 0x0 CALLDATASIZE PUSH1 0x3 NOT ADD SLT PUSH2 0x1F0 JUMPI CALLER PUSH1 0x0 MSTORE PUSH1 0x0 PUSH1 0x20 MSTORE PUSH2 0x1550 PUSH1 0xFF PUSH1 0x5 PUSH1 0x40 PUSH1 0x0 KECCAK256 ADD SLOAD AND PUSH2 0x2341 JUMP JUMPDEST CALLER PUSH1 0x0 MSTORE PUSH1 0x0 PUSH1 0x20 MSTORE PUSH1 0x5 PUSH1 0x40 PUSH1 0x0 KECCAK256 ADD PUSH1 0xFF NOT DUP2 SLOAD AND SWAP1 SSTORE PUSH1 0x40 MLOAD TIMESTAMP DUP2 MSTORE PUSH32 0x908D0024A3278CB165ED9B5E370DFD4B2C566122EFEBB355AFB5B56E2249158 PUSH1 0x20 CALLER SWAP3 LOG2 STOP JUMPDEST CALLVALUE PUSH2 0x1F0 JUMPI PUSH1 0x20 CALLDATASIZE PUSH1 0x3 NOT ADD SLT PUSH2 0x1F0 JUMPI PUSH1 0x4 CALLDATALOAD PUSH1 0x0 MSTORE PUSH1 0x1 PUSH1 0x20 MSTORE PUSH1 0x40 PUSH1 0x0 KECCAK256 DUP1 SLOAD PUSH2 0x15C6 PUSH1 0x1 DUP4 ADD PUSH2 0x1F64 JUMP JUMPDEST SWAP2 PUSH2 0x1606 PUSH1 0x3 PUSH2 0x15D8 PUSH1 0x2 DUP5 ADD PUSH2 0x1F64 JUMP JUMPDEST SWAP3 ADD SLOAD SWAP2 PUSH2 0x15F8 PUSH1 0x40 MLOAD SWAP6 DUP7 SWAP6 DUP7 MSTORE PUSH1 0x80 PUSH1 0x20 DUP8 ADD MSTORE PUSH1 0x80 DUP7 ADD SWAP1 PUSH2 0x200A JUMP JUMPDEST SWAP1 DUP5 DUP3 SUB PUSH1 0x40 DUP7 ADD MSTORE PUSH2 0x200A JUMP JUMPDEST SWAP1 PUSH1 0x60 DUP4 ADD MSTORE SUB SWAP1 RETURN JUMPDEST CALLVALUE PUSH2 0x1F0 JUMPI PUSH1 0x0 CALLDATASIZE PUSH1 0x3 NOT ADD SLT PUSH2 0x1F0 JUMPI PUSH1 0x0 DUP1 DUP1 DUP1 PUSH1 0x1 DUP1 PUSH1 0xA0 SHL SUB PUSH1 0x7 SLOAD AND PUSH2 0x163C DUP2 CALLER EQ PUSH2 0x256D JUMP JUMPDEST SELFBALANCE SWAP1 GAS CALL PUSH2 0x1648 PUSH2 0x218D JUMP JUMPDEST POP ISZERO PUSH2 0x1650 JUMPI STOP JUMPDEST PUSH1 0x40 MLOAD PUSH3 0x461BCD PUSH1 0xE5 SHL DUP2 MSTORE PUSH1 0x20 PUSH1 0x4 DUP3 ADD MSTORE PUSH1 0xF PUSH1 0x24 DUP3 ADD MSTORE PUSH15 0x15DA5D1A191C985DC819985A5B1959 PUSH1 0x8A SHL PUSH1 0x44 DUP3 ADD MSTORE PUSH1 0x64 SWAP1 REVERT JUMPDEST CALLVALUE PUSH2 0x1F0 JUMPI PUSH1 0x80 CALLDATASIZE PUSH1 0x3 NOT ADD SLT PUSH2 0x1F0 JUMPI PUSH1 0x1 PUSH1 0x1 PUSH1 0xA0 SHL SUB PUSH2 0x16A8 PUSH2 0x1F14 JUMP JUMPDEST AND DUP1 PUSH1 0x0 MSTORE PUSH1 0x0 PUSH1 0x20 MSTORE PUSH1 0xFF PUSH1 0x5 PUSH1 0x40 PUSH1 0x0 KECCAK256 ADD SLOAD AND ISZERO PUSH2 0x1794 JUMPI DUP1 PUSH1 0x0 MSTORE PUSH1 0x0 PUSH1 0x20 MSTORE PUSH1 0x40 PUSH1 0x0 KECCAK256 PUSH1 0x8 DUP2 ADD SWAP1 PUSH2 0x16E3 PUSH1 0x24 CALLDATALOAD DUP4 SLOAD PUSH2 0x237E JUMP JUMPDEST DUP1 SWAP3 SSTORE PUSH1 0x9 DUP2 ADD SWAP2 PUSH2 0x16F8 PUSH1 0x44 CALLDATALOAD DUP5 SLOAD PUSH2 0x237E JUMP JUMPDEST DUP1 SWAP4 SSTORE PUSH1 0xA DUP3 ADD PUSH2 0x170C PUSH1 0x64 CALLDATALOAD DUP3 SLOAD PUSH2 0x237E JUMP JUMPDEST DUP1 SWAP2 SSTORE TIMESTAMP PUSH1 0x7 DUP5 ADD SSTORE PUSH1 0xA DUP3 MUL SWAP4 DUP3 DUP6 DIV PUSH1 0xA EQ DUP4 ISZERO OR ISZERO PUSH2 0x9C2 JUMPI PUSH1 0x5 DUP2 MUL SWAP4 DUP2 DUP6 DIV PUSH1 0x5 EQ DUP3 ISZERO OR ISZERO PUSH2 0x9C2 JUMPI PUSH1 0x4 PUSH2 0x177E PUSH2 0x176D PUSH1 0x60 SWAP8 PUSH32 0xAC3C2BEB7724A927C9EFCB9AA36D9CC3215467AD97652337EC58C5527BA70E53 SWAP10 PUSH2 0x237E JUMP JUMPDEST PUSH8 0xDE0B6B3A7640000 DUP7 DIV SWAP1 PUSH2 0x237E JUMP JUMPDEST SWAP2 ADD SSTORE PUSH1 0x40 MLOAD SWAP3 DUP4 MSTORE PUSH1 0x20 DUP4 ADD MSTORE PUSH1 0x40 DUP3 ADD MSTORE LOG2 STOP JUMPDEST PUSH1 0x40 MLOAD PUSH3 0x461BCD PUSH1 0xE5 SHL DUP2 MSTORE PUSH1 0x20 PUSH1 0x4 DUP3 ADD MSTORE PUSH1 0x10 PUSH1 0x24 DUP3 ADD MSTORE PUSH16 0x4167656E74206E6F7420616374697665 PUSH1 0x80 SHL PUSH1 0x44 DUP3 ADD MSTORE PUSH1 0x64 SWAP1 REVERT JUMPDEST CALLVALUE PUSH2 0x1F0 JUMPI PUSH1 0x0 CALLDATASIZE PUSH1 0x3 NOT ADD SLT PUSH2 0x1F0 JUMPI PUSH1 0x20 PUSH1 0x5 SLOAD PUSH1 0x40 MLOAD SWAP1 DUP2 MSTORE RETURN JUMPDEST CALLVALUE PUSH2 0x1F0 JUMPI PUSH1 0x20 CALLDATASIZE PUSH1 0x3 NOT ADD SLT PUSH2 0x1F0 JUMPI PUSH1 0x4 CALLDATALOAD PUSH1 0x1 PUSH1 0x1 PUSH1 0x40 SHL SUB DUP2 GT PUSH2 0x1F0 JUMPI PUSH2 0x1833 PUSH1 0x20 PUSH2 0x1820 DUP2 SWAP4 CALLDATASIZE SWAP1 PUSH1 0x4 ADD PUSH2 0x1ED3 JUMP JUMPDEST DUP2 PUSH1 0x40 MLOAD SWAP4 DUP3 DUP6 DUP1 SWAP5 MLOAD SWAP4 DUP5 SWAP3 ADD PUSH2 0x1EF1 JUMP JUMPDEST DUP2 ADD PUSH1 0x3 DUP2 MSTORE SUB ADD SWAP1 KECCAK256 SLOAD PUSH1 0x40 MLOAD SWAP1 DUP2 MSTORE RETURN JUMPDEST CALLVALUE PUSH2 0x1F0 JUMPI PUSH1 0x0 CALLDATASIZE PUSH1 0x3 NOT ADD SLT PUSH2 0x1F0 JUMPI PUSH1 0x20 PUSH1 0x8 SLOAD PUSH1 0x40 MLOAD SWAP1 DUP2 MSTORE RETURN JUMPDEST CALLVALUE PUSH2 0x1F0 JUMPI PUSH2 0x1872 CALLDATASIZE PUSH2 0x1DC7 JUMP JUMPDEST SWAP3 SWAP1 SWAP2 CALLER PUSH1 0x0 MSTORE PUSH1 0x0 PUSH1 0x20 MSTORE PUSH2 0x1892 PUSH1 0xFF PUSH1 0x5 PUSH1 0x40 PUSH1 0x0 KECCAK256 ADD SLOAD AND PUSH2 0x2341 JUMP JUMPDEST PUSH1 0x0 JUMPDEST DUP5 DUP2 LT PUSH2 0x1D58 JUMPI POP CALLER PUSH1 0x0 MSTORE PUSH1 0x0 PUSH1 0x20 MSTORE PUSH1 0x40 PUSH1 0x0 KECCAK256 SWAP3 PUSH1 0x0 SWAP4 PUSH1 0x2 SWAP1 DUP2 DUP2 ADD JUMPDEST DUP1 SLOAD DUP8 LT ISZERO PUSH2 0x19F9 JUMPI PUSH2 0x18C9 DUP8 DUP3 PUSH2 0x20D6 JUMP JUMPDEST SWAP7 SWAP1 SLOAD PUSH1 0x3 SWAP8 DUP9 SHL SHR SWAP6 DUP7 PUSH1 0x0 MSTORE DUP5 PUSH1 0x20 MSTORE PUSH1 0x40 PUSH1 0x0 KECCAK256 SWAP10 PUSH1 0x0 JUMPDEST DUP12 SLOAD DUP1 DUP3 LT ISZERO PUSH2 0x19E3 JUMPI DUP11 SWAP1 PUSH2 0x18FA DUP4 DUP16 PUSH2 0x20D6 JUMP JUMPDEST SWAP1 SLOAD PUSH1 0x1 PUSH1 0x1 PUSH1 0xA0 SHL SUB SWAP4 CALLER SWAP3 SWAP1 SHL SHR DUP4 AND EQ PUSH2 0x1921 JUMPI POP POP PUSH2 0x191C SWAP1 PUSH2 0x2122 JUMP JUMPDEST PUSH2 0x18E4 JUMP JUMPDEST PUSH1 0x0 SWAP14 SWAP2 SWAP3 SWAP7 SWAP12 SWAP5 SWAP10 SWAP8 SWAP13 SWAP6 SWAP11 SWAP4 SWAP9 SWAP14 NOT SWAP7 DUP8 DUP3 ADD SWAP2 DUP3 GT PUSH2 0x9C2 JUMPI PUSH2 0x195C DUP5 PUSH2 0x194E PUSH2 0x197B SWAP5 DUP7 PUSH2 0x20D6 JUMP JUMPDEST SWAP1 SLOAD SWAP1 DUP10 SHL SHR AND SWAP2 DUP5 PUSH2 0x20D6 JUMP JUMPDEST SWAP1 SWAP2 SWAP1 DUP3 SLOAD SWAP1 PUSH1 0x3 SHL SWAP2 PUSH1 0x1 DUP1 PUSH1 0xA0 SHL SUB DUP1 SWAP2 AND DUP4 SHL SWAP3 SHL NOT AND OR SWAP1 SSTORE JUMP JUMPDEST DUP1 SLOAD DUP1 ISZERO PUSH2 0x19CD JUMPI DUP7 ADD SWAP2 PUSH2 0x1990 DUP4 DUP4 PUSH2 0x20D6 JUMP JUMPDEST SWAP1 SWAP2 DUP3 SLOAD SWAP2 DUP8 SHL SHL NOT AND SWAP1 SSTORE SSTORE PUSH1 0x0 MSTORE PUSH1 0x1 PUSH1 0x20 MSTORE PUSH1 0x40 PUSH1 0x0 KECCAK256 ADD DUP1 SLOAD SWAP3 DUP4 ISZERO PUSH2 0x9C2 JUMPI PUSH2 0x19C0 SWAP4 ADD SWAP1 SSTORE PUSH2 0x2122 JUMP JUMPDEST SWAP6 SWAP1 SWAP3 SWAP4 SWAP5 SWAP7 SWAP2 SWAP7 PUSH2 0x18B6 JUMP JUMPDEST PUSH4 0x4E487B71 PUSH1 0xE0 SHL PUSH1 0x0 MSTORE PUSH1 0x31 PUSH1 0x4 MSTORE PUSH1 0x24 PUSH1 0x0 REVERT JUMPDEST POP POP SWAP5 SWAP10 POP SWAP5 SWAP3 SWAP8 SWAP1 SWAP6 POP PUSH2 0x19C0 SWAP2 SWAP7 POP PUSH2 0x2122 JUMP JUMPDEST SWAP2 DUP8 SWAP4 SWAP3 PUSH2 0x1A06 DUP6 PUSH2 0x21D4 JUMP JUMPDEST SWAP2 PUSH1 0x0 JUMPDEST DUP7 DUP2 LT PUSH2 0x1CE9 JUMPI POP POP PUSH1 0x1 PUSH1 0x1 PUSH1 0x40 SHL SUB DUP7 GT PUSH2 0x6F7 JUMPI PUSH1 0x1 DUP4 ADD PUSH2 0x1A39 DUP8 PUSH2 0x1A33 DUP4 SLOAD PUSH2 0x1F2A JUMP JUMPDEST DUP4 PUSH2 0x226C JUMP JUMPDEST DUP7 PUSH1 0x0 PUSH1 0x1F DUP3 GT PUSH1 0x1 EQ PUSH2 0x1C82 JUMPI PUSH1 0x0 SWAP2 PUSH2 0x1C77 JUMPI JUMPDEST POP DUP8 PUSH1 0x1 SHL SWAP1 PUSH1 0x0 NOT DUP10 PUSH1 0x3 SHL SHR NOT AND OR SWAP1 SSTORE JUMPDEST PUSH1 0x1 PUSH1 0x1 PUSH1 0x40 SHL SUB DUP6 GT PUSH2 0x6F7 JUMPI PUSH2 0x1A7B DUP6 DUP3 PUSH2 0x22B1 JUMP JUMPDEST DUP4 SWAP1 PUSH1 0x0 MSTORE PUSH1 0x20 PUSH1 0x0 KECCAK256 SWAP1 PUSH1 0x0 JUMPDEST DUP7 DUP2 LT PUSH2 0x1C63 JUMPI POP POP POP DUP1 MLOAD SWAP1 PUSH1 0x1 PUSH1 0x40 SHL DUP3 GT PUSH2 0x6F7 JUMPI PUSH1 0x3 DUP4 ADD SLOAD DUP3 PUSH1 0x3 DUP6 ADD SSTORE DUP1 DUP4 LT PUSH2 0x1BEB JUMPI JUMPDEST POP PUSH1 0x20 ADD SWAP1 PUSH1 0x3 DUP4 ADD PUSH1 0x0 MSTORE PUSH1 0x20 PUSH1 0x0 KECCAK256 SWAP2 PUSH1 0x0 SWAP1 JUMPDEST DUP3 DUP3 LT PUSH2 0x1B10 JUMPI DUP8 PUSH32 0x4343B17CBAD9B3255BE7285FE10F12EE275FA867FAD18AB3297AC8456CC99F7C DUP9 DUP9 PUSH2 0x653 DUP14 DUP11 PUSH1 0x7 TIMESTAMP SWAP2 ADD SSTORE PUSH1 0x40 MLOAD SWAP4 DUP5 SWAP4 CALLER SWAP8 TIMESTAMP SWAP4 DUP7 PUSH2 0x22E5 JUMP JUMPDEST DUP1 MLOAD DUP1 MLOAD SWAP1 PUSH1 0x1 PUSH1 0x1 PUSH1 0x40 SHL SUB DUP3 GT PUSH2 0x6F7 JUMPI PUSH2 0x1B31 DUP3 PUSH2 0x1086 DUP9 SLOAD PUSH2 0x1F2A JUMP JUMPDEST PUSH1 0x20 SWAP1 PUSH1 0x1F DUP4 GT PUSH1 0x1 EQ PUSH2 0x1B7D JUMPI SWAP3 DUP3 PUSH1 0x1 SWAP5 SWAP4 PUSH1 0x20 SWAP4 DUP7 SWAP6 PUSH1 0x0 SWAP3 PUSH2 0x1B72 JUMPI JUMPDEST POP POP PUSH1 0x0 NOT PUSH1 0x3 DUP4 SWAP1 SHL SHR NOT AND SWAP1 DUP5 SHL OR DUP8 SSTORE JUMPDEST ADD SWAP5 ADD SWAP2 ADD SWAP1 SWAP3 PUSH2 0x1ACA JUMP JUMPDEST ADD MLOAD SWAP1 POP DUP15 DUP1 PUSH2 0x1B52 JUMP JUMPDEST SWAP1 PUSH1 0x1F NOT DUP4 AND SWAP2 DUP8 PUSH1 0x0 MSTORE PUSH1 0x20 PUSH1 0x0 KECCAK256 SWAP3 PUSH1 0x0 JUMPDEST DUP2 DUP2 LT PUSH2 0x1BD3 JUMPI POP SWAP4 PUSH1 0x20 SWAP4 PUSH1 0x1 SWAP7 SWAP4 DUP8 SWAP7 SWAP4 DUP4 DUP9 SWAP6 LT PUSH2 0x1BBA JUMPI JUMPDEST POP POP POP DUP2 SHL ADD DUP8 SSTORE PUSH2 0x1B66 JUMP JUMPDEST ADD MLOAD PUSH1 0x0 NOT PUSH1 0xF8 DUP5 PUSH1 0x3 SHL AND SHR NOT AND SWAP1 SSTORE DUP15 DUP1 DUP1 PUSH2 0x1BAD JUMP JUMPDEST SWAP3 SWAP4 PUSH1 0x20 PUSH1 0x1 DUP2 SWAP3 DUP8 DUP7 ADD MLOAD DUP2 SSTORE ADD SWAP6 ADD SWAP4 ADD PUSH2 0x1B91 JUMP JUMPDEST PUSH1 0x3 DUP5 ADD PUSH1 0x0 MSTORE PUSH1 0x20 PUSH1 0x0 KECCAK256 SWAP1 DUP4 DUP3 ADD JUMPDEST DUP2 DUP4 ADD DUP2 LT PUSH2 0x1C0C JUMPI POP POP PUSH2 0x1AB4 JUMP JUMPDEST DUP1 PUSH2 0x1C19 PUSH1 0x1 SWAP3 SLOAD PUSH2 0x1F2A JUMP JUMPDEST DUP1 PUSH2 0x1C26 JUMPI JUMPDEST POP ADD PUSH2 0x1BFC JUMP JUMPDEST PUSH1 0x1F DUP2 GT DUP4 EQ PUSH2 0x1C3C JUMPI POP PUSH1 0x0 DUP2 SSTORE JUMPDEST DUP12 PUSH2 0x1C1F JUMP JUMPDEST PUSH1 0x0 SWAP1 DUP3 DUP3 MSTORE PUSH2 0x1C5A PUSH1 0x1F PUSH1 0x20 DUP5 KECCAK256 SWAP3 ADD PUSH1 0x5 SHR DUP3 ADD DUP6 DUP4 ADD PUSH2 0x2255 JUMP JUMPDEST DUP2 DUP4 SSTORE SSTORE PUSH2 0x1C36 JUMP JUMPDEST PUSH1 0x1 SWAP1 PUSH1 0x20 DUP4 CALLDATALOAD SWAP4 ADD SWAP3 DUP2 DUP6 ADD SSTORE ADD PUSH2 0x1A89 JUMP JUMPDEST SWAP1 POP DUP9 ADD CALLDATALOAD DUP10 PUSH2 0x1A4F JUMP JUMPDEST PUSH1 0x0 DUP4 DUP2 MSTORE PUSH1 0x20 DUP2 KECCAK256 SWAP3 POP JUMPDEST DUP11 PUSH1 0x1F NOT DUP12 AND DUP3 LT PUSH2 0x1CD1 JUMPI POP POP DUP9 PUSH1 0x1F NOT DUP2 AND LT PUSH2 0x1CB7 JUMPI JUMPDEST POP POP PUSH1 0x1 DUP8 DUP2 SHL ADD SWAP1 SSTORE PUSH2 0x1A63 JUMP JUMPDEST DUP10 ADD CALLDATALOAD PUSH1 0x0 NOT PUSH1 0x3 DUP11 SWAP1 SHL PUSH1 0xF8 AND SHR NOT AND SWAP1 SSTORE DUP9 DUP1 PUSH2 0x1CA8 JUMP JUMPDEST PUSH1 0x1 DUP4 SWAP5 PUSH1 0x20 SWAP4 SWAP5 DUP5 SWAP4 ADD CALLDATALOAD DUP2 SSTORE ADD SWAP4 ADD SWAP2 ADD PUSH2 0x1C8E JUMP JUMPDEST DUP1 PUSH2 0x1CF8 PUSH2 0x1D53 SWAP3 DUP10 DUP10 PUSH2 0x2131 JUMP JUMPDEST CALLDATALOAD PUSH1 0x0 MSTORE PUSH1 0x1 DUP1 PUSH1 0x20 MSTORE PUSH2 0x1D11 DUP2 PUSH1 0x40 PUSH1 0x0 KECCAK256 ADD PUSH2 0x1F64 JUMP JUMPDEST PUSH2 0x1D1B DUP4 DUP9 PUSH2 0x221E JUMP JUMPDEST MSTORE PUSH2 0x1D26 DUP3 DUP8 PUSH2 0x221E JUMP JUMPDEST POP PUSH2 0x1D32 DUP3 DUP11 DUP11 PUSH2 0x2131 JUMP JUMPDEST CALLDATALOAD PUSH1 0x0 MSTORE DUP4 PUSH1 0x20 MSTORE PUSH2 0x1D48 CALLER PUSH1 0x40 PUSH1 0x0 KECCAK256 PUSH2 0x2232 JUMP JUMPDEST PUSH2 0x12CC DUP3 DUP11 DUP11 PUSH2 0x2131 JUMP JUMPDEST PUSH2 0x1A0A JUMP JUMPDEST DUP1 PUSH2 0x1D6C PUSH2 0x1D7D SWAP3 DUP8 DUP8 SWAP9 SWAP8 SWAP7 SWAP6 SWAP7 PUSH2 0x2131 JUMP JUMPDEST CALLDATALOAD ISZERO ISZERO DUP1 PUSH2 0x1D88 JUMPI PUSH2 0x13DF SWAP1 PUSH2 0x2141 JUMP JUMPDEST SWAP4 SWAP3 SWAP4 SWAP2 SWAP1 SWAP2 PUSH2 0x1895 JUMP JUMPDEST POP PUSH2 0x13DF PUSH2 0x13F8 DUP3 DUP8 DUP10 PUSH2 0x2131 JUMP JUMPDEST SWAP2 DUP2 PUSH1 0x1F DUP5 ADD SLT ISZERO PUSH2 0x1F0 JUMPI DUP3 CALLDATALOAD SWAP2 PUSH1 0x1 PUSH1 0x1 PUSH1 0x40 SHL SUB DUP4 GT PUSH2 0x1F0 JUMPI PUSH1 0x20 DUP1 DUP6 ADD SWAP5 DUP5 PUSH1 0x5 SHL ADD ADD GT PUSH2 0x1F0 JUMPI JUMP JUMPDEST PUSH1 0x40 PUSH1 0x3 NOT DUP3 ADD SLT PUSH2 0x1F0 JUMPI PUSH1 0x4 CALLDATALOAD SWAP2 PUSH1 0x1 PUSH1 0x1 PUSH1 0x40 SHL SUB DUP1 DUP5 GT PUSH2 0x1F0 JUMPI DUP3 PUSH1 0x23 DUP6 ADD SLT ISZERO PUSH2 0x1F0 JUMPI DUP4 PUSH1 0x4 ADD CALLDATALOAD SWAP4 DUP2 DUP6 GT PUSH2 0x1F0 JUMPI DUP4 PUSH1 0x24 DUP7 DUP4 ADD ADD GT PUSH2 0x1F0 JUMPI PUSH1 0x24 ADD SWAP4 SWAP3 PUSH1 0x24 CALLDATALOAD SWAP2 DUP3 GT PUSH2 0x1F0 JUMPI PUSH2 0x1E25 SWAP2 PUSH1 0x4 ADD PUSH2 0x1D97 JUMP JUMPDEST SWAP1 SWAP2 JUMP JUMPDEST PUSH2 0x160 DUP2 ADD SWAP1 DUP2 LT PUSH1 0x1 PUSH1 0x1 PUSH1 0x40 SHL SUB DUP3 GT OR PUSH2 0x6F7 JUMPI PUSH1 0x40 MSTORE JUMP JUMPDEST PUSH1 0x80 DUP2 ADD SWAP1 DUP2 LT PUSH1 0x1 PUSH1 0x1 PUSH1 0x40 SHL SUB DUP3 GT OR PUSH2 0x6F7 JUMPI PUSH1 0x40 MSTORE JUMP JUMPDEST SWAP1 PUSH1 0x1F DUP1 NOT SWAP2 ADD AND DUP2 ADD SWAP1 DUP2 LT PUSH1 0x1 PUSH1 0x1 PUSH1 0x40 SHL SUB DUP3 GT OR PUSH2 0x6F7 JUMPI PUSH1 0x40 MSTORE JUMP JUMPDEST PUSH1 0x1 PUSH1 0x1 PUSH1 0x40 SHL SUB DUP2 GT PUSH2 0x6F7 JUMPI PUSH1 0x1F ADD PUSH1 0x1F NOT AND PUSH1 0x20 ADD SWAP1 JUMP JUMPDEST SWAP3 SWAP2 SWAP3 PUSH2 0x1EA8 DUP3 PUSH2 0x1E81 JUMP JUMPDEST SWAP2 PUSH2 0x1EB6 PUSH1 0x40 MLOAD SWAP4 DUP5 PUSH2 0x1E60 JUMP JUMPDEST DUP3 SWAP5 DUP2 DUP5 MSTORE DUP2 DUP4 ADD GT PUSH2 0x1F0 JUMPI DUP3 DUP2 PUSH1 0x20 SWAP4 DUP5 PUSH1 0x0 SWAP7 ADD CALLDATACOPY ADD ADD MSTORE JUMP JUMPDEST SWAP1 DUP1 PUSH1 0x1F DUP4 ADD SLT ISZERO PUSH2 0x1F0 JUMPI DUP2 PUSH1 0x20 PUSH2 0x1EEE SWAP4 CALLDATALOAD SWAP2 ADD PUSH2 0x1E9C JUMP JUMPDEST SWAP1 JUMP JUMPDEST PUSH1 0x0 JUMPDEST DUP4 DUP2 LT PUSH2 0x1F04 JUMPI POP POP PUSH1 0x0 SWAP2 ADD MSTORE JUMP JUMPDEST DUP2 DUP2 ADD MLOAD DUP4 DUP3 ADD MSTORE PUSH1 0x20 ADD PUSH2 0x1EF4 JUMP JUMPDEST PUSH1 0x4 CALLDATALOAD SWAP1 PUSH1 0x1 PUSH1 0x1 PUSH1 0xA0 SHL SUB DUP3 AND DUP3 SUB PUSH2 0x1F0 JUMPI JUMP JUMPDEST SWAP1 PUSH1 0x1 DUP3 DUP2 SHR SWAP3 AND DUP1 ISZERO PUSH2 0x1F5A JUMPI JUMPDEST PUSH1 0x20 DUP4 LT EQ PUSH2 0x1F44 JUMPI JUMP JUMPDEST PUSH4 0x4E487B71 PUSH1 0xE0 SHL PUSH1 0x0 MSTORE PUSH1 0x22 PUSH1 0x4 MSTORE PUSH1 0x24 PUSH1 0x0 REVERT JUMPDEST SWAP2 PUSH1 0x7F AND SWAP2 PUSH2 0x1F39 JUMP JUMPDEST SWAP1 PUSH1 0x40 MLOAD SWAP2 DUP3 PUSH1 0x0 DUP3 SLOAD SWAP3 PUSH2 0x1F78 DUP5 PUSH2 0x1F2A JUMP JUMPDEST SWAP1 DUP2 DUP5 MSTORE PUSH1 0x1 SWAP5 DUP6 DUP2 AND SWAP1 DUP2 PUSH1 0x0 EQ PUSH2 0x1FE7 JUMPI POP PUSH1 0x1 EQ PUSH2 0x1FA4 JUMPI JUMPDEST POP POP PUSH2 0x1FA2 SWAP3 POP SUB DUP4 PUSH2 0x1E60 JUMP JUMPDEST JUMP JUMPDEST SWAP1 SWAP4 SWAP2 POP PUSH1 0x0 MSTORE PUSH1 0x20 SWAP1 DUP2 PUSH1 0x0 KECCAK256 SWAP4 PUSH1 0x0 SWAP2 JUMPDEST DUP2 DUP4 LT PUSH2 0x1FCF JUMPI POP POP PUSH2 0x1FA2 SWAP4 POP DUP3 ADD ADD CODESIZE DUP1 PUSH2 0x1F94 JUMP JUMPDEST DUP6 SLOAD DUP9 DUP5 ADD DUP6 ADD MSTORE SWAP5 DUP6 ADD SWAP5 DUP8 SWAP5 POP SWAP2 DUP4 ADD SWAP2 PUSH2 0x1FB7 JUMP JUMPDEST SWAP2 POP POP PUSH2 0x1FA2 SWAP5 POP PUSH1 0x20 SWAP3 POP PUSH1 0xFF NOT AND DUP3 DUP5 ADD MSTORE ISZERO ISZERO PUSH1 0x5 SHL DUP3 ADD ADD CODESIZE DUP1 PUSH2 0x1F94 JUMP JUMPDEST SWAP1 PUSH1 0x20 SWAP2 PUSH2 0x2023 DUP2 MLOAD DUP1 SWAP3 DUP2 DUP6 MSTORE DUP6 DUP1 DUP7 ADD SWAP2 ADD PUSH2 0x1EF1 JUMP JUMPDEST PUSH1 0x1F ADD PUSH1 0x1F NOT AND ADD ADD SWAP1 JUMP JUMPDEST PUSH1 0x40 SWAP1 PUSH1 0x3 NOT ADD SLT PUSH2 0x1F0 JUMPI PUSH1 0x4 CALLDATALOAD SWAP1 PUSH1 0x24 CALLDATALOAD SWAP1 JUMP JUMPDEST PUSH1 0x20 SWAP1 DUP2 PUSH1 0x40 DUP2 DUP4 ADD SWAP3 DUP3 DUP2 MSTORE DUP6 MLOAD DUP1 SWAP5 MSTORE ADD SWAP4 ADD SWAP2 PUSH1 0x0 JUMPDEST DUP3 DUP2 LT PUSH2 0x206C JUMPI POP POP POP POP SWAP1 JUMP JUMPDEST DUP4 MLOAD PUSH1 0x1 PUSH1 0x1 PUSH1 0xA0 SHL SUB AND DUP6 MSTORE SWAP4 DUP2 ADD SWAP4 SWAP3 DUP2 ADD SWAP3 PUSH1 0x1 ADD PUSH2 0x205E JUMP JUMPDEST PUSH1 0x4 SLOAD DUP2 LT ISZERO PUSH2 0x20C0 JUMPI PUSH1 0x4 PUSH1 0x0 MSTORE PUSH32 0x8A35ACFBC15FF81A39AE7D344FD709F28E8600B4AA8C65C6B64BFE7FE36BD19B ADD SWAP1 PUSH1 0x0 SWAP1 JUMP JUMPDEST PUSH4 0x4E487B71 PUSH1 0xE0 SHL PUSH1 0x0 MSTORE PUSH1 0x32 PUSH1 0x4 MSTORE PUSH1 0x24 PUSH1 0x0 REVERT JUMPDEST DUP1 SLOAD DUP3 LT ISZERO PUSH2 0x20C0 JUMPI PUSH1 0x0 MSTORE PUSH1 0x20 PUSH1 0x0 KECCAK256 ADD SWAP1 PUSH1 0x0 SWAP1 JUMP JUMPDEST SWAP1 DUP2 MLOAD DUP1 DUP3 MSTORE PUSH1 0x20 DUP1 DUP1 SWAP4 ADD SWAP4 ADD SWAP2 PUSH1 0x0 JUMPDEST DUP3 DUP2 LT PUSH2 0x210E JUMPI POP POP POP POP SWAP1 JUMP JUMPDEST DUP4 MLOAD DUP6 MSTORE SWAP4 DUP2 ADD SWAP4 SWAP3 DUP2 ADD SWAP3 PUSH1 0x1 ADD PUSH2 0x2100 JUMP JUMPDEST PUSH1 0x0 NOT DUP2 EQ PUSH2 0x9C2 JUMPI PUSH1 0x1 ADD SWAP1 JUMP JUMPDEST SWAP2 SWAP1 DUP2 LT ISZERO PUSH2 0x20C0 JUMPI PUSH1 0x5 SHL ADD SWAP1 JUMP JUMPDEST ISZERO PUSH2 0x2148 JUMPI JUMP JUMPDEST PUSH1 0x40 MLOAD PUSH3 0x461BCD PUSH1 0xE5 SHL DUP2 MSTORE PUSH1 0x20 PUSH1 0x4 DUP3 ADD MSTORE PUSH1 0x10 PUSH1 0x24 DUP3 ADD MSTORE PUSH16 0x125B9D985B1A59081CDADA5B1B081251 PUSH1 0x82 SHL PUSH1 0x44 DUP3 ADD MSTORE PUSH1 0x64 SWAP1 REVERT JUMPDEST SWAP2 SWAP1 DUP3 SUB SWAP2 DUP3 GT PUSH2 0x9C2 JUMPI JUMP JUMPDEST RETURNDATASIZE ISZERO PUSH2 0x21B8 JUMPI RETURNDATASIZE SWAP1 PUSH2 0x219E DUP3 PUSH2 0x1E81 JUMP JUMPDEST SWAP2 PUSH2 0x21AC PUSH1 0x40 MLOAD SWAP4 DUP5 PUSH2 0x1E60 JUMP JUMPDEST DUP3 MSTORE RETURNDATASIZE PUSH1 0x0 PUSH1 0x20 DUP5 ADD RETURNDATACOPY JUMP JUMPDEST PUSH1 0x60 SWAP1 JUMP JUMPDEST PUSH1 0x1 PUSH1 0x1 PUSH1 0x40 SHL SUB DUP2 GT PUSH2 0x6F7 JUMPI PUSH1 0x5 SHL PUSH1 0x20 ADD SWAP1 JUMP JUMPDEST SWAP1 PUSH2 0x21DE DUP3 PUSH2 0x21BD JUMP JUMPDEST PUSH2 0x21EB PUSH1 0x40 MLOAD SWAP2 DUP3 PUSH2 0x1E60 JUMP JUMPDEST DUP3 DUP2 MSTORE DUP1 SWAP3 PUSH2 0x21FC PUSH1 0x1F NOT SWAP2 PUSH2 0x21BD JUMP JUMPDEST ADD SWAP1 PUSH1 0x0 JUMPDEST DUP3 DUP2 LT PUSH2 0x220D JUMPI POP POP POP JUMP JUMPDEST DUP1 PUSH1 0x60 PUSH1 0x20 DUP1 SWAP4 DUP6 ADD ADD MSTORE ADD PUSH2 0x2201 JUMP JUMPDEST DUP1 MLOAD DUP3 LT ISZERO PUSH2 0x20C0 JUMPI PUSH1 0x20 SWAP2 PUSH1 0x5 SHL ADD ADD SWAP1 JUMP JUMPDEST SWAP1 DUP2 SLOAD SWAP2 PUSH1 0x1 PUSH1 0x40 SHL DUP4 LT ISZERO PUSH2 0x6F7 JUMPI DUP3 PUSH2 0x195C SWAP2 PUSH1 0x1 PUSH2 0x1FA2 SWAP6 ADD DUP2 SSTORE PUSH2 0x20D6 JUMP JUMPDEST DUP2 DUP2 LT PUSH2 0x2260 JUMPI POP POP JUMP JUMPDEST PUSH1 0x0 DUP2 SSTORE PUSH1 0x1 ADD PUSH2 0x2255 JUMP JUMPDEST SWAP2 SWAP1 PUSH1 0x1F DUP2 GT PUSH2 0x227B JUMPI POP POP POP JUMP JUMPDEST PUSH2 0x1FA2 SWAP3 PUSH1 0x0 MSTORE PUSH1 0x20 PUSH1 0x0 KECCAK256 SWAP1 PUSH1 0x20 PUSH1 0x1F DUP5 ADD PUSH1 0x5 SHR DUP4 ADD SWAP4 LT PUSH2 0x22A7 JUMPI JUMPDEST PUSH1 0x1F ADD PUSH1 0x5 SHR ADD SWAP1 PUSH2 0x2255 JUMP JUMPDEST SWAP1 SWAP2 POP DUP2 SWAP1 PUSH2 0x229A JUMP JUMPDEST SWAP1 PUSH1 0x1 PUSH1 0x40 SHL DUP2 GT PUSH2 0x6F7 JUMPI DUP2 SLOAD SWAP1 DUP1 DUP4 SSTORE DUP2 DUP2 LT PUSH2 0x22CF JUMPI POP POP POP JUMP JUMPDEST PUSH2 0x1FA2 SWAP3 PUSH1 0x0 MSTORE PUSH1 0x20 PUSH1 0x0 KECCAK256 SWAP2 DUP3 ADD SWAP2 ADD PUSH2 0x2255 JUMP JUMPDEST SWAP6 SWAP5 SWAP4 SWAP2 DUP1 SWAP2 PUSH1 0x60 DUP9 MSTORE DUP2 PUSH1 0x60 DUP10 ADD MSTORE PUSH1 0x80 DUP9 ADD CALLDATACOPY PUSH1 0x0 PUSH1 0x80 DUP3 DUP9 ADD ADD MSTORE PUSH1 0x1F DUP1 NOT SWAP2 ADD AND DUP6 ADD SWAP2 PUSH1 0x80 DUP7 DUP5 SUB ADD PUSH1 0x20 DUP8 ADD MSTORE DUP2 PUSH1 0x80 DUP5 ADD MSTORE PUSH1 0x1 DUP1 PUSH1 0xFB SHL SUB DUP3 GT PUSH2 0x1F0 JUMPI PUSH1 0x40 SWAP3 PUSH1 0xA0 SWAP3 PUSH1 0x5 SHL DUP1 SWAP3 DUP5 DUP4 ADD CALLDATACOPY ADD ADD SWAP4 ADD MSTORE JUMP JUMPDEST ISZERO PUSH2 0x2348 JUMPI JUMP JUMPDEST PUSH1 0x40 MLOAD PUSH3 0x461BCD PUSH1 0xE5 SHL DUP2 MSTORE PUSH1 0x20 PUSH1 0x4 DUP3 ADD MSTORE PUSH1 0xE PUSH1 0x24 DUP3 ADD MSTORE PUSH14 0x139BDD081C9959DA5CDD195C9959 PUSH1 0x92 SHL PUSH1 0x44 DUP3 ADD MSTORE PUSH1 0x64 SWAP1 REVERT JUMPDEST SWAP2 SWAP1 DUP3 ADD DUP1 SWAP3 GT PUSH2 0x9C2 JUMPI JUMP JUMPDEST SWAP1 PUSH2 0x2395 DUP3 PUSH2 0x21BD JUMP JUMPDEST PUSH2 0x23A2 PUSH1 0x40 MLOAD SWAP2 DUP3 PUSH2 0x1E60 JUMP JUMPDEST DUP3 DUP2 MSTORE DUP1 SWAP3 PUSH2 0x23B3 PUSH1 0x1F NOT SWAP2 PUSH2 0x21BD JUMP JUMPDEST ADD SWAP1 PUSH1 0x20 CALLDATASIZE SWAP2 ADD CALLDATACOPY JUMP JUMPDEST SWAP2 SWAP1 DUP1 ISZERO PUSH2 0x2542 JUMPI PUSH1 0x0 SWAP1 DUP4 CALLDATALOAD DUP3 MSTORE PUSH1 0x20 SWAP2 PUSH1 0x2 DUP4 MSTORE PUSH1 0x40 SWAP2 DUP3 DUP3 KECCAK256 SWAP1 DUP4 MLOAD DUP1 DUP4 DUP8 DUP3 SWAP6 SLOAD SWAP4 DUP5 DUP2 MSTORE ADD SWAP1 DUP7 MSTORE DUP8 DUP7 KECCAK256 SWAP3 DUP7 JUMPDEST DUP10 DUP3 DUP3 LT PUSH2 0x2523 JUMPI POP POP POP PUSH2 0x2407 SWAP3 POP SUB DUP4 PUSH2 0x1E60 JUMP JUMPDEST PUSH2 0x2411 DUP3 MLOAD PUSH2 0x238B JUMP JUMPDEST SWAP3 DUP1 SWAP5 DUP2 JUMPDEST DUP5 MLOAD DUP2 LT ISZERO PUSH2 0x24DB JUMPI PUSH1 0x1 PUSH1 0x1 PUSH1 0xA0 SHL SUB DUP1 PUSH2 0x2432 DUP4 DUP9 PUSH2 0x221E JUMP JUMPDEST MLOAD AND DUP5 MSTORE DUP4 DUP10 MSTORE PUSH1 0xFF PUSH1 0x5 DUP5 DUP7 KECCAK256 ADD SLOAD AND ISZERO PUSH2 0x2464 JUMPI PUSH1 0x1 DUP1 JUMPDEST DUP3 DUP14 DUP10 DUP7 DUP11 DUP1 DUP7 LT PUSH2 0x2499 JUMPI JUMPDEST POP POP POP POP POP POP PUSH2 0x2473 JUMPI JUMPDEST POP PUSH2 0x246E SWAP1 PUSH2 0x2122 JUMP JUMPDEST PUSH2 0x2416 JUMP JUMPDEST DUP2 SWAP8 PUSH2 0x2492 SWAP2 PUSH2 0x2486 PUSH2 0x246E SWAP5 DUP10 PUSH2 0x221E JUMP JUMPDEST MLOAD AND PUSH2 0xCF4 DUP3 DUP11 PUSH2 0x221E JUMP JUMPDEST SWAP7 SWAP1 PUSH2 0x2464 JUMP JUMPDEST PUSH2 0x24BA SWAP5 PUSH2 0x24AB DUP8 SWAP4 PUSH2 0x24B3 SWAP6 PUSH2 0x221E JUMP JUMPDEST MLOAD AND SWAP4 PUSH2 0x2131 JUMP JUMPDEST CALLDATALOAD SWAP1 PUSH2 0x25F4 JUMP JUMPDEST ISZERO PUSH2 0x24CD JUMPI PUSH2 0x24C8 SWAP1 PUSH2 0x2122 JUMP JUMPDEST PUSH2 0x244C JUMP JUMPDEST POP POP DUP4 CODESIZE DUP3 DUP14 DUP10 DUP7 DUP11 PUSH2 0x2459 JUMP JUMPDEST POP POP SWAP5 POP POP POP SWAP4 POP PUSH2 0x24EC DUP2 PUSH2 0x238B JUMP JUMPDEST SWAP2 JUMPDEST DUP2 DUP2 LT PUSH2 0x24FC JUMPI POP SWAP1 SWAP3 POP POP JUMP JUMPDEST PUSH2 0x251E SWAP1 PUSH1 0x1 PUSH1 0x1 PUSH1 0xA0 SHL SUB PUSH2 0x2512 DUP3 DUP9 PUSH2 0x221E JUMP JUMPDEST MLOAD AND PUSH2 0xCF4 DUP3 DUP7 PUSH2 0x221E JUMP JUMPDEST PUSH2 0x24EE JUMP JUMPDEST DUP6 SLOAD PUSH1 0x1 PUSH1 0x1 PUSH1 0xA0 SHL SUB AND DUP5 MSTORE PUSH1 0x1 SWAP6 DUP7 ADD SWAP6 DUP9 SWAP6 POP SWAP4 ADD SWAP3 ADD PUSH2 0x23F0 JUMP JUMPDEST POP SWAP1 POP PUSH1 0x40 MLOAD PUSH1 0x20 DUP2 ADD DUP2 DUP2 LT PUSH1 0x1 PUSH1 0x1 PUSH1 0x40 SHL SUB DUP3 GT OR PUSH2 0x6F7 JUMPI PUSH1 0x40 MSTORE PUSH1 0x0 DUP2 MSTORE PUSH1 0x0 CALLDATASIZE DUP2 CALLDATACOPY SWAP1 JUMP JUMPDEST ISZERO PUSH2 0x2574 JUMPI JUMP JUMPDEST PUSH1 0x40 MLOAD PUSH3 0x461BCD PUSH1 0xE5 SHL DUP2 MSTORE PUSH1 0x20 PUSH1 0x4 DUP3 ADD MSTORE PUSH1 0x9 PUSH1 0x24 DUP3 ADD MSTORE PUSH9 0x2737BA1037BBB732B9 PUSH1 0xB9 SHL PUSH1 0x44 DUP3 ADD MSTORE PUSH1 0x64 SWAP1 REVERT JUMPDEST SWAP1 PUSH1 0x40 MLOAD SWAP2 DUP3 DUP2 SLOAD SWAP2 DUP3 DUP3 MSTORE PUSH1 0x20 SWAP3 DUP4 DUP4 ADD SWAP2 PUSH1 0x0 MSTORE DUP4 PUSH1 0x0 KECCAK256 SWAP4 PUSH1 0x0 SWAP1 JUMPDEST DUP3 DUP3 LT PUSH2 0x25DA JUMPI POP POP POP PUSH2 0x1FA2 SWAP3 POP SUB DUP4 PUSH2 0x1E60 JUMP JUMPDEST DUP6 SLOAD DUP5 MSTORE PUSH1 0x1 SWAP6 DUP7 ADD SWAP6 DUP9 SWAP6 POP SWAP4 DUP2 ADD SWAP4 SWAP1 SWAP2 ADD SWAP1 PUSH2 0x25C4 JUMP JUMPDEST PUSH1 0x1 PUSH1 0x1 PUSH1 0xA0 SHL SUB AND PUSH1 0x0 SWAP1 DUP2 MSTORE PUSH1 0x20 DUP2 SWAP1 MSTORE PUSH1 0x40 DUP2 KECCAK256 PUSH1 0x2 ADD DUP1 SLOAD SWAP3 SWAP2 JUMPDEST DUP4 DUP2 LT PUSH2 0x2623 JUMPI POP POP POP POP PUSH1 0x0 SWAP1 JUMP JUMPDEST DUP3 PUSH2 0x262E DUP3 DUP5 PUSH2 0x20D6 JUMP JUMPDEST SWAP1 SLOAD SWAP1 PUSH1 0x3 SHL SHR EQ PUSH2 0x2648 JUMPI PUSH2 0x2643 SWAP1 PUSH2 0x2122 JUMP JUMPDEST PUSH2 0x2613 JUMP JUMPDEST POP POP POP POP PUSH1 0x1 SWAP1 JUMP INVALID LOG2 PUSH5 0x6970667358 0x22 SLT KECCAK256 DIV PUSH28 0x52BBFB601CDBB74E7CD9BD1B35ADBE8E8A1670BB0B080ED36B894289 0x1F SWAP10 PUSH5 0x736F6C6343 STOP ADDMOD EQ STOP CALLER SDIV SWAP10 SHL STATICCALL 0xA8 0xC PUSH0 PUSH21 0x3D433BD10462FC1453A7C566AA9C81582E3DBAB915 0xDC LOG4 SELFDESTRUCT "},"methodIdentifiers":{"addSkill(string,string)":"d862ae87","agents(address)":"fd66091e","allAgents(uint256)":"e0bb12f7","deactivate()":"51b42b00","findAgentsBySkill(uint256)":"b6ef504e","findAgentsBySkills(uint256[])":"b2bdc75f","getAgent(address)":"fb3551ff","getAgentCount()":"91cab63e","getAgentSkills(address)":"b47172da","getAllSkills()":"ccc3bba8","getRecentlyActive(uint256,uint256)":"5d3aa813","getTopAgents(uint256)":"b1e29ea4","isRegistered(address)":"c3c5a547","nextSkillId()":"34306d25","owner()":"8da5cb5b","reactivate()":"d18611d6","recordActivity(address,uint256,uint256,uint256)":"346945fd","registerAgent(string,uint256[])":"75ae1fef","registrationFee()":"14c44e09","setRegistrationFee(uint256)":"c320c727","skillNameToId(string)":"3421ebfd","skillToAgents(uint256,uint256)":"a113938f","skills(uint256)":"50d15fbe","totalAgents()":"c5053712","updateProfile(string,uint256[])":"08edbd14","withdrawFees()":"476343ee"}}}}}