{
  "_format": "hh-sol-artifact-1",
  "contractName": "ReputationStake",
  "sourceName": "contracts/ReputationStake.sol",
  "abi": [
    {
      "inputs": [
        {
          "internalType": "address",
          "name": "_stakeToken",
          "type": "address"
        },
        {
          "internalType": "address",
          "name": "_feeRecipient",
          "type": "address"
        }
      ],
      "stateMutability": "nonpayable",
      "type": "constructor"
    },
    {
      "anonymous": false,
      "inputs": [
        {
          "indexed": true,
          "internalType": "address",
          "name": "agent",
          "type": "address"
        },
        {
          "indexed": false,
          "internalType": "string",
          "name": "metadataURI",
          "type": "string"
        }
      ],
      "name": "AgentRegistered",
      "type": "event"
    },
    {
      "anonymous": false,
      "inputs": [
        {
          "indexed": true,
          "internalType": "address",
          "name": "agent",
          "type": "address"
        },
        {
          "indexed": false,
          "internalType": "uint256",
          "name": "amount",
          "type": "uint256"
        },
        {
          "indexed": false,
          "internalType": "string",
          "name": "reason",
          "type": "string"
        }
      ],
      "name": "AgentSlashed",
      "type": "event"
    },
    {
      "anonymous": false,
      "inputs": [
        {
          "indexed": true,
          "internalType": "address",
          "name": "agent",
          "type": "address"
        },
        {
          "indexed": false,
          "internalType": "uint256",
          "name": "newScore",
          "type": "uint256"
        }
      ],
      "name": "ReputationUpdated",
      "type": "event"
    },
    {
      "anonymous": false,
      "inputs": [
        {
          "indexed": true,
          "internalType": "address",
          "name": "agent",
          "type": "address"
        },
        {
          "indexed": false,
          "internalType": "uint256",
          "name": "amount",
          "type": "uint256"
        }
      ],
      "name": "RewardDistributed",
      "type": "event"
    },
    {
      "anonymous": false,
      "inputs": [
        {
          "indexed": true,
          "internalType": "address",
          "name": "agent",
          "type": "address"
        },
        {
          "indexed": false,
          "internalType": "uint256",
          "name": "amount",
          "type": "uint256"
        },
        {
          "indexed": false,
          "internalType": "uint256",
          "name": "unlockTime",
          "type": "uint256"
        }
      ],
      "name": "StakeDeposited",
      "type": "event"
    },
    {
      "anonymous": false,
      "inputs": [
        {
          "indexed": true,
          "internalType": "address",
          "name": "agent",
          "type": "address"
        },
        {
          "indexed": false,
          "internalType": "uint256",
          "name": "amount",
          "type": "uint256"
        }
      ],
      "name": "StakeWithdrawn",
      "type": "event"
    },
    {
      "inputs": [],
      "name": "activityWeight",
      "outputs": [
        {
          "internalType": "uint256",
          "name": "",
          "type": "uint256"
        }
      ],
      "stateMutability": "view",
      "type": "function"
    },
    {
      "inputs": [
        {
          "internalType": "address",
          "name": "_slasher",
          "type": "address"
        }
      ],
      "name": "addSlasher",
      "outputs": [],
      "stateMutability": "nonpayable",
      "type": "function"
    },
    {
      "inputs": [
        {
          "internalType": "address",
          "name": "",
          "type": "address"
        },
        {
          "internalType": "uint256",
          "name": "",
          "type": "uint256"
        }
      ],
      "name": "agentStakes",
      "outputs": [
        {
          "internalType": "uint256",
          "name": "amount",
          "type": "uint256"
        },
        {
          "internalType": "uint256",
          "name": "since",
          "type": "uint256"
        },
        {
          "internalType": "uint256",
          "name": "unlockTime",
          "type": "uint256"
        },
        {
          "internalType": "bool",
          "name": "withdrawn",
          "type": "bool"
        }
      ],
      "stateMutability": "view",
      "type": "function"
    },
    {
      "inputs": [
        {
          "internalType": "address",
          "name": "",
          "type": "address"
        }
      ],
      "name": "agents",
      "outputs": [
        {
          "internalType": "uint256",
          "name": "totalStaked",
          "type": "uint256"
        },
        {
          "internalType": "uint256",
          "name": "reputationScore",
          "type": "uint256"
        },
        {
          "internalType": "uint256",
          "name": "successfulCovenants",
          "type": "uint256"
        },
        {
          "internalType": "uint256",
          "name": "breachedCovenants",
          "type": "uint256"
        },
        {
          "internalType": "uint256",
          "name": "lastActivity",
          "type": "uint256"
        },
        {
          "internalType": "bool",
          "name": "isActive",
          "type": "bool"
        },
        {
          "internalType": "string",
          "name": "metadataURI",
          "type": "string"
        }
      ],
      "stateMutability": "view",
      "type": "function"
    },
    {
      "inputs": [
        {
          "internalType": "address",
          "name": "",
          "type": "address"
        }
      ],
      "name": "authorizedSlashers",
      "outputs": [
        {
          "internalType": "bool",
          "name": "",
          "type": "bool"
        }
      ],
      "stateMutability": "view",
      "type": "function"
    },
    {
      "inputs": [
        {
          "internalType": "address",
          "name": "_agent",
          "type": "address"
        }
      ],
      "name": "calculateReputation",
      "outputs": [
        {
          "internalType": "uint256",
          "name": "",
          "type": "uint256"
        }
      ],
      "stateMutability": "view",
      "type": "function"
    },
    {
      "inputs": [],
      "name": "feeRecipient",
      "outputs": [
        {
          "internalType": "address",
          "name": "",
          "type": "address"
        }
      ],
      "stateMutability": "view",
      "type": "function"
    },
    {
      "inputs": [
        {
          "internalType": "address",
          "name": "_agent",
          "type": "address"
        }
      ],
      "name": "getAgentProfile",
      "outputs": [
        {
          "components": [
            {
              "internalType": "uint256",
              "name": "totalStaked",
              "type": "uint256"
            },
            {
              "internalType": "uint256",
              "name": "reputationScore",
              "type": "uint256"
            },
            {
              "internalType": "uint256",
              "name": "successfulCovenants",
              "type": "uint256"
            },
            {
              "internalType": "uint256",
              "name": "breachedCovenants",
              "type": "uint256"
            },
            {
              "internalType": "uint256",
              "name": "lastActivity",
              "type": "uint256"
            },
            {
              "internalType": "bool",
              "name": "isActive",
              "type": "bool"
            },
            {
              "internalType": "string",
              "name": "metadataURI",
              "type": "string"
            }
          ],
          "internalType": "struct ReputationStake.AgentProfile",
          "name": "",
          "type": "tuple"
        }
      ],
      "stateMutability": "view",
      "type": "function"
    },
    {
      "inputs": [
        {
          "internalType": "address",
          "name": "_agent",
          "type": "address"
        },
        {
          "internalType": "uint256",
          "name": "_index",
          "type": "uint256"
        }
      ],
      "name": "getStake",
      "outputs": [
        {
          "components": [
            {
              "internalType": "uint256",
              "name": "amount",
              "type": "uint256"
            },
            {
              "internalType": "uint256",
              "name": "since",
              "type": "uint256"
            },
            {
              "internalType": "uint256",
              "name": "unlockTime",
              "type": "uint256"
            },
            {
              "internalType": "bool",
              "name": "withdrawn",
              "type": "bool"
            }
          ],
          "internalType": "struct ReputationStake.Stake",
          "name": "",
          "type": "tuple"
        }
      ],
      "stateMutability": "view",
      "type": "function"
    },
    {
      "inputs": [
        {
          "internalType": "address",
          "name": "_agent",
          "type": "address"
        }
      ],
      "name": "getStakeCount",
      "outputs": [
        {
          "internalType": "uint256",
          "name": "",
          "type": "uint256"
        }
      ],
      "stateMutability": "view",
      "type": "function"
    },
    {
      "inputs": [],
      "name": "historyWeight",
      "outputs": [
        {
          "internalType": "uint256",
          "name": "",
          "type": "uint256"
        }
      ],
      "stateMutability": "view",
      "type": "function"
    },
    {
      "inputs": [
        {
          "internalType": "address",
          "name": "_agent",
          "type": "address"
        }
      ],
      "name": "isRegistered",
      "outputs": [
        {
          "internalType": "bool",
          "name": "",
          "type": "bool"
        }
      ],
      "stateMutability": "view",
      "type": "function"
    },
    {
      "inputs": [],
      "name": "lockPeriod",
      "outputs": [
        {
          "internalType": "uint256",
          "name": "",
          "type": "uint256"
        }
      ],
      "stateMutability": "view",
      "type": "function"
    },
    {
      "inputs": [],
      "name": "minimumStake",
      "outputs": [
        {
          "internalType": "uint256",
          "name": "",
          "type": "uint256"
        }
      ],
      "stateMutability": "view",
      "type": "function"
    },
    {
      "inputs": [],
      "name": "protocolFeeBps",
      "outputs": [
        {
          "internalType": "uint256",
          "name": "",
          "type": "uint256"
        }
      ],
      "stateMutability": "view",
      "type": "function"
    },
    {
      "inputs": [
        {
          "internalType": "address",
          "name": "_agent",
          "type": "address"
        },
        {
          "internalType": "uint256",
          "name": "_slashingMultiplier",
          "type": "uint256"
        },
        {
          "internalType": "string",
          "name": "_reason",
          "type": "string"
        }
      ],
      "name": "recordBreach",
      "outputs": [],
      "stateMutability": "nonpayable",
      "type": "function"
    },
    {
      "inputs": [
        {
          "internalType": "address",
          "name": "_agent",
          "type": "address"
        }
      ],
      "name": "recordSuccess",
      "outputs": [],
      "stateMutability": "nonpayable",
      "type": "function"
    },
    {
      "inputs": [
        {
          "internalType": "string",
          "name": "_metadataURI",
          "type": "string"
        }
      ],
      "name": "registerAgent",
      "outputs": [],
      "stateMutability": "nonpayable",
      "type": "function"
    },
    {
      "inputs": [
        {
          "internalType": "address",
          "name": "_slasher",
          "type": "address"
        }
      ],
      "name": "removeSlasher",
      "outputs": [],
      "stateMutability": "nonpayable",
      "type": "function"
    },
    {
      "inputs": [
        {
          "internalType": "uint256",
          "name": "_minimumStake",
          "type": "uint256"
        },
        {
          "internalType": "uint256",
          "name": "_slashingPercentage",
          "type": "uint256"
        },
        {
          "internalType": "uint256",
          "name": "_lockPeriod",
          "type": "uint256"
        }
      ],
      "name": "setParameters",
      "outputs": [],
      "stateMutability": "nonpayable",
      "type": "function"
    },
    {
      "inputs": [],
      "name": "slashingPercentage",
      "outputs": [
        {
          "internalType": "uint256",
          "name": "",
          "type": "uint256"
        }
      ],
      "stateMutability": "view",
      "type": "function"
    },
    {
      "inputs": [
        {
          "internalType": "uint256",
          "name": "_amount",
          "type": "uint256"
        }
      ],
      "name": "stake",
      "outputs": [],
      "stateMutability": "nonpayable",
      "type": "function"
    },
    {
      "inputs": [],
      "name": "stakeToken",
      "outputs": [
        {
          "internalType": "contract IERC20",
          "name": "",
          "type": "address"
        }
      ],
      "stateMutability": "view",
      "type": "function"
    },
    {
      "inputs": [],
      "name": "stakeWeight",
      "outputs": [
        {
          "internalType": "uint256",
          "name": "",
          "type": "uint256"
        }
      ],
      "stateMutability": "view",
      "type": "function"
    },
    {
      "inputs": [],
      "name": "totalAgents",
      "outputs": [
        {
          "internalType": "uint256",
          "name": "",
          "type": "uint256"
        }
      ],
      "stateMutability": "view",
      "type": "function"
    },
    {
      "inputs": [],
      "name": "totalStaked",
      "outputs": [
        {
          "internalType": "uint256",
          "name": "",
          "type": "uint256"
        }
      ],
      "stateMutability": "view",
      "type": "function"
    },
    {
      "inputs": [
        {
          "internalType": "uint256",
          "name": "_stakeIndex",
          "type": "uint256"
        }
      ],
      "name": "withdrawStake",
      "outputs": [],
      "stateMutability": "nonpayable",
      "type": "function"
    }
  ],
  "bytecode": "0x608060405268056bc75e2d631000006005556103e860065562093a8060075560646008556028600955601e600a55601e600b553480156200003f57600080fd5b5060405162001ccb38038062001ccb8339810160408190526200006291620000ca565b600080546001600160a01b039384166001600160a01b031991821617825560018054939094169216919091178255338152600460205260409020805460ff1916909117905562000102565b80516001600160a01b0381168114620000c557600080fd5b919050565b60008060408385031215620000de57600080fd5b620000e983620000ad565b9150620000f960208401620000ad565b90509250929050565b611bb980620001126000396000f3fe608060405234801561001057600080fd5b50600436106101a95760003560e01c806378dc93a4116100f9578063be3ac6a711610097578063cf57ee6911610071578063cf57ee69146103ab578063cfd47663146103d4578063ec5ffac21461041c578063fd66091e1461042557600080fd5b8063be3ac6a71461036a578063c3c5a54714610373578063c5053712146103a257600080fd5b8063aac6aa9c116100d3578063aac6aa9c146102e6578063aed2d908146102f9578063b0c87df21461032c578063b2ab27821461033557600080fd5b806378dc93a4146102aa578063817b1cd2146102ca578063a694fc3a146102d357600080fd5b806335659fb8116101665780634690484011610140578063469048401461025057806351ed6a301461027b57806368a9f19c1461028e57806369666a49146102a157600080fd5b806335659fb81461022b5780633fd8b02f14610234578063423412871461023d57600080fd5b8063209ffa18146101ae57806325d5971f146101c3578063267b1167146101d657806327c06fd5146101f25780632d2a95851461020557806334c5d2ce14610218575b600080fd5b6101c16101bc366004611677565b61044b565b005b6101c16101d13660046116d1565b610814565b6101df60095481565b6040519081526020015b60405180910390f35b6101df6102003660046116ea565b610a99565b6101c161021336600461170c565b610bf1565b6101c161022636600461174e565b610d7e565b6101df60085481565b6101df60075481565b6101c161024b3660046116ea565b610dbb565b600154610263906001600160a01b031681565b6040516001600160a01b0390911681526020016101e9565b600054610263906001600160a01b031681565b6101c161029c3660046116ea565b610eb5565b6101df60065481565b6102bd6102b83660046116ea565b610f08565b6040516101e991906117c0565b6101df600c5481565b6101c16102e13660046116d1565b61104a565b6101c16102f43660046116ea565b611288565b61031c6103073660046116ea565b60046020526000908152604090205460ff1681565b60405190151581526020016101e9565b6101df600b5481565b610348610343366004611822565b6112d8565b60408051948552602085019390935291830152151560608201526080016101e9565b6101df600a5481565b61031c6103813660046116ea565b6001600160a01b031660009081526002602052604090206005015460ff1690565b6101df600d5481565b6101df6103b93660046116ea565b6001600160a01b031660009081526003602052604090205490565b6103e76103e2366004611822565b611321565b6040516101e9919081518152602080830151908201526040808301519082015260609182015115159181019190915260800190565b6101df60055481565b6104386104333660046116ea565b6113c7565b6040516101e9979695949392919061184c565b3360009081526004602052604090205460ff166104835760405162461bcd60e51b815260040161047a90611892565b60405180910390fd5b6001600160a01b03841660009081526002602052604090206005015460ff166104be5760405162461bcd60e51b815260040161047a906118ba565b6001600160a01b03841660009081526002602052604081206003018054916104e5836118f8565b90915550506001600160a01b0384166000908152600260205260408120426004820155600654905461271091869161051d9190611911565b6105279190611911565b610531919061193e565b905060008111801561055a57506001600160a01b03851660009081526002602052604090205415155b156107bf576001600160a01b038516600090815260036020526040812082915b81548110801561058a5750600083115b156106e5578181815481106105a1576105a1611952565b600091825260209091206003600490920201015460ff161580156105e8575060008282815481106105d4576105d4611952565b906000526020600020906004020160000154115b156106d357600082828154811061060157610601611952565b906000526020600020906004020160000154841161061f5783610644565b82828154811061063157610631611952565b9060005260206000209060040201600001545b90508083838154811061065957610659611952565b906000526020600020906004020160000160008282546106799190611968565b90915550506001600160a01b038916600090815260026020526040812080548392906106a6908490611968565b9250508190555080600c60008282546106bf9190611968565b909155506106cf90508185611968565b9350505b806106dd816118f8565b91505061057a565b506000546001546001600160a01b039182169163a9059cbb91166107098587611968565b6040516001600160e01b031960e085901b1681526001600160a01b03909216600483015260248201526044016020604051808303816000875af1158015610754573d6000803e3d6000fd5b505050506040513d601f19601f82011682018060405250810190610778919061197b565b6107bc5760405162461bcd60e51b815260206004820152601560248201527414db185cda081d1c985b9cd9995c8819985a5b1959605a1b604482015260640161047a565b50505b6107c885611494565b846001600160a01b03167ff90d547af41b84ae5db3dc86fac677444898b3350b3e9cccd482dea1274bfc95828585604051610805939291906119c6565b60405180910390a25050505050565b3360009081526002602052604090206005015460ff166108465760405162461bcd60e51b815260040161047a906118ba565b3360009081526003602052604090205481106108945760405162461bcd60e51b815260206004820152600d60248201526c092dcecc2d8d2c840d2dcc8caf609b1b604482015260640161047a565b3360009081526003602052604081208054839081106108b5576108b5611952565b60009182526020909120600490910201600381015490915060ff16156109115760405162461bcd60e51b815260206004820152601160248201527020b63932b0b23c903bb4ba34323930bbb760791b604482015260640161047a565b80600201544210156109545760405162461bcd60e51b815260206004820152600c60248201526b14dd1a5b1b081b1bd8dad95960a21b604482015260640161047a565b60038101805460ff1916600117905580543360009081526002602052604081208054839290610984908490611968565b9250508190555080600c600082825461099d9190611968565b909155506109ac905033611494565b60005460405163a9059cbb60e01b8152336004820152602481018390526001600160a01b039091169063a9059cbb906044016020604051808303816000875af11580156109fd573d6000803e3d6000fd5b505050506040513d601f19601f82011682018060405250810190610a21919061197b565b610a5f5760405162461bcd60e51b815260206004820152600f60248201526e151c985b9cd9995c8819985a5b1959608a1b604482015260640161047a565b60405181815233907f8108595eb6bad3acefa9da467d90cc2217686d5c5ac85460f8b7849c840645fc9060200160405180910390a2505050565b6001600160a01b0381166000908152600260205260408120600581015460ff16610ac65750600092915050565b8054600090610ad6576000610af2565b6005546009548354610ae89190611911565b610af2919061193e565b9050610190811115610b0357506101905b600082600301548360020154610b1991906119e9565b905060008115610b6c5760008285600201546064610b379190611911565b610b41919061193e565b90506064600a5482610b539190611911565b610b5e90600a611911565b610b68919061193e565b9150505b600062015180856004015442610b829190611968565b610b8c919061193e565b90506000601e8210610b9f576000610bce565b600b54601e90610baf8483611968565b610bb99190611911565b610bc490600a611911565b610bce919061193e565b905080610bdb84876119e9565b610be591906119e9565b98975050505050505050565b3360009081526002602052604090206005015460ff1615610c495760405162461bcd60e51b8152602060048201526012602482015271105b1c9958591e481c9959da5cdd195c995960721b604482015260640161047a565b6040518060e001604052806000815260200160008152602001600081526020016000815260200142815260200160011515815260200183838080601f016020809104026020016040519081016040528093929190818152602001838380828437600092018290525093909452505033815260026020818152604092839020855181559085015160018201559184015190820155606083015160038201556080830151600482015560a083015160058201805460ff191691151591909117905560c08301519091506006820190610d1f9082611a9b565b5050600d805491506000610d32836118f8565b9190505550336001600160a01b03167fda816ca2fc37b9eecec62ae8263008ec6be1afb38dc28bc9c7c51d7e348da9c28383604051610d72929190611b5b565b60405180910390a25050565b3360009081526004602052604090205460ff16610dad5760405162461bcd60e51b815260040161047a90611892565b600592909255600655600755565b3360009081526004602052604090205460ff16610dea5760405162461bcd60e51b815260040161047a90611892565b6001600160a01b03811660009081526002602052604090206005015460ff16610e255760405162461bcd60e51b815260040161047a906118ba565b6001600160a01b0381166000908152600260208190526040822001805491610e4c836118f8565b90915550506001600160a01b038116600090815260026020526040902042600490910155610e7981611494565b6001600160a01b03811660009081526002602081905260409091200154610ea290600a90611b6f565b600003610eb257610eb2816114f3565b50565b3360009081526004602052604090205460ff16610ee45760405162461bcd60e51b815260040161047a90611892565b6001600160a01b03166000908152600460205260409020805460ff19166001179055565b610f4a6040518060e001604052806000815260200160008152602001600081526020016000815260200160008152602001600015158152602001606081525090565b6001600160a01b038216600090815260026020818152604092839020835160e0810185528154815260018201549281019290925291820154928101929092526003810154606083015260048101546080830152600581015460ff16151560a083015260068101805460c084019190610fc190611a12565b80601f0160208091040260200160405190810160405280929190818152602001828054610fed90611a12565b801561103a5780601f1061100f5761010080835404028352916020019161103a565b820191906000526020600020905b81548152906001019060200180831161101d57829003601f168201915b5050505050815250509050919050565b3360009081526002602052604090206005015460ff1661107c5760405162461bcd60e51b815260040161047a906118ba565b600081116110c15760405162461bcd60e51b81526020600482015260126024820152710416d6f756e74206d757374206265203e20360741b604482015260640161047a565b6000546040516323b872dd60e01b8152336004820152306024820152604481018390526001600160a01b03909116906323b872dd906064016020604051808303816000875af1158015611118573d6000803e3d6000fd5b505050506040513d601f19601f8201168201806040525081019061113c919061197b565b61117a5760405162461bcd60e51b815260206004820152600f60248201526e151c985b9cd9995c8819985a5b1959608a1b604482015260640161047a565b60006040518060800160405280838152602001428152602001600754426111a191906119e9565b81526000602091820181905233808252600380845260408084208054600180820183559186528686208851600490920201908155878701519181019190915586820151600280830191909155606088015191909301805460ff1916911515919091179055918352909252908120805492935084929091906112239084906119e9565b9250508190555081600c600082825461123c91906119e9565b9091555061124b905033611494565b6040808201518151848152602081019190915233917f05cce4a371bf9816b1a7594f1d76c98eba4ed025ff3e471234ae598f17899bd49101610d72565b3360009081526004602052604090205460ff166112b75760405162461bcd60e51b815260040161047a90611892565b6001600160a01b03166000908152600460205260409020805460ff19169055565b600360205281600052604060002081815481106112f457600080fd5b60009182526020909120600490910201805460018201546002830154600390930154919450925060ff1684565b61134e60405180608001604052806000815260200160008152602001600081526020016000151581525090565b6001600160a01b038316600090815260036020526040902080548390811061137857611378611952565b60009182526020918290206040805160808101825260049093029091018054835260018101549383019390935260028301549082015260039091015460ff161515606082015290505b92915050565b6002602081905260009182526040909120805460018201549282015460038301546004840154600585015460068601805495979694959394929360ff909216929161141190611a12565b80601f016020809104026020016040519081016040528092919081815260200182805461143d90611a12565b801561148a5780601f1061145f5761010080835404028352916020019161148a565b820191906000526020600020905b81548152906001019060200180831161146d57829003601f168201915b5050505050905087565b600061149f82610a99565b6001600160a01b0383166000818152600260205260409081902060010183905551919250907ffc577563f1b9a0461e24abef1e1fcc0d33d3d881f20b5df6dda59de4aae2c82190610d729084815260200190565b6001600160a01b0381166000908152600260205260408120546115189060649061193e565b9050801561160e5760005460405163a9059cbb60e01b81526001600160a01b038481166004830152602482018490529091169063a9059cbb906044016020604051808303816000875af1158015611573573d6000803e3d6000fd5b505050506040513d601f19601f82011682018060405250810190611597919061197b565b6115d35760405162461bcd60e51b815260206004820152600d60248201526c14995dd85c990819985a5b1959609a1b604482015260640161047a565b816001600160a01b03167fe34918ff1c7084970068b53fd71ad6d8b04e9f15d3886cbf006443e6cdc52ea682604051610d7291815260200190565b5050565b80356001600160a01b038116811461162957600080fd5b919050565b60008083601f84011261164057600080fd5b50813567ffffffffffffffff81111561165857600080fd5b60208301915083602082850101111561167057600080fd5b9250929050565b6000806000806060858703121561168d57600080fd5b61169685611612565b935060208501359250604085013567ffffffffffffffff8111156116b957600080fd5b6116c58782880161162e565b95989497509550505050565b6000602082840312156116e357600080fd5b5035919050565b6000602082840312156116fc57600080fd5b61170582611612565b9392505050565b6000806020838503121561171f57600080fd5b823567ffffffffffffffff81111561173657600080fd5b6117428582860161162e565b90969095509350505050565b60008060006060848603121561176357600080fd5b505081359360208301359350604090920135919050565b6000815180845260005b818110156117a057602081850181015186830182015201611784565b506000602082860101526020601f19601f83011685010191505092915050565b6020815281516020820152602082015160408201526040820151606082015260608201516080820152608082015160a082015260a0820151151560c0820152600060c083015160e08084015261181a61010084018261177a565b949350505050565b6000806040838503121561183557600080fd5b61183e83611612565b946020939093013593505050565b87815286602082015285604082015284606082015283608082015282151560a082015260e060c0820152600061188560e083018461177a565b9998505050505050505050565b6020808252600e908201526d139bdd08185d5d1a1bdc9a5e995960921b604082015260600190565b6020808252600e908201526d139bdd081c9959da5cdd195c995960921b604082015260600190565b634e487b7160e01b600052601160045260246000fd5b60006001820161190a5761190a6118e2565b5060010190565b80820281158282048414176113c1576113c16118e2565b634e487b7160e01b600052601260045260246000fd5b60008261194d5761194d611928565b500490565b634e487b7160e01b600052603260045260246000fd5b818103818111156113c1576113c16118e2565b60006020828403121561198d57600080fd5b8151801515811461170557600080fd5b81835281816020850137506000828201602090810191909152601f909101601f19169091010190565b8381526040602082015260006119e060408301848661199d565b95945050505050565b808201808211156113c1576113c16118e2565b634e487b7160e01b600052604160045260246000fd5b600181811c90821680611a2657607f821691505b602082108103611a4657634e487b7160e01b600052602260045260246000fd5b50919050565b601f821115611a9657600081815260208120601f850160051c81016020861015611a735750805b601f850160051c820191505b81811015611a9257828155600101611a7f565b5050505b505050565b815167ffffffffffffffff811115611ab557611ab56119fc565b611ac981611ac38454611a12565b84611a4c565b602080601f831160018114611afe5760008415611ae65750858301515b600019600386901b1c1916600185901b178555611a92565b600085815260208120601f198616915b82811015611b2d57888601518255948401946001909101908401611b0e565b5085821015611b4b5787850151600019600388901b60f8161c191681555b5050505050600190811b01905550565b60208152600061181a60208301848661199d565b600082611b7e57611b7e611928565b50069056fea2646970667358221220900d3e694f7303c765da599c07a5713b156c2796e8cf4856a1891b19ba8fd2bb64736f6c63430008140033",
  "linkReferences": {},
  "deployedLinkReferences": {}
}