{
  "_format": "hh-sol-artifact-1",
  "contractName": "ReputationStake",
  "sourceName": "contracts/ReputationStake.sol",
  "abi": [
    {
      "inputs": [
        {
          "internalType": "address",
          "name": "_stakeToken",
          "type": "address"
        },
        {
          "internalType": "address",
          "name": "_feeRecipient",
          "type": "address"
        }
      ],
      "stateMutability": "nonpayable",
      "type": "constructor"
    },
    {
      "inputs": [],
      "name": "ContractNotPaused",
      "type": "error"
    },
    {
      "inputs": [],
      "name": "ContractPaused",
      "type": "error"
    },
    {
      "inputs": [],
      "name": "NotPauser",
      "type": "error"
    },
    {
      "inputs": [],
      "name": "ReentrancyGuardReentrantCall",
      "type": "error"
    },
    {
      "anonymous": false,
      "inputs": [
        {
          "indexed": true,
          "internalType": "address",
          "name": "agent",
          "type": "address"
        },
        {
          "indexed": false,
          "internalType": "string",
          "name": "metadataURI",
          "type": "string"
        }
      ],
      "name": "AgentRegistered",
      "type": "event"
    },
    {
      "anonymous": false,
      "inputs": [
        {
          "indexed": true,
          "internalType": "address",
          "name": "agent",
          "type": "address"
        },
        {
          "indexed": false,
          "internalType": "uint256",
          "name": "amount",
          "type": "uint256"
        },
        {
          "indexed": false,
          "internalType": "string",
          "name": "reason",
          "type": "string"
        }
      ],
      "name": "AgentSlashed",
      "type": "event"
    },
    {
      "anonymous": false,
      "inputs": [
        {
          "indexed": false,
          "internalType": "address",
          "name": "account",
          "type": "address"
        }
      ],
      "name": "Paused",
      "type": "event"
    },
    {
      "anonymous": false,
      "inputs": [
        {
          "indexed": true,
          "internalType": "address",
          "name": "previousPauser",
          "type": "address"
        },
        {
          "indexed": true,
          "internalType": "address",
          "name": "newPauser",
          "type": "address"
        }
      ],
      "name": "PauserTransferred",
      "type": "event"
    },
    {
      "anonymous": false,
      "inputs": [
        {
          "indexed": true,
          "internalType": "address",
          "name": "agent",
          "type": "address"
        },
        {
          "indexed": false,
          "internalType": "uint256",
          "name": "newScore",
          "type": "uint256"
        }
      ],
      "name": "ReputationUpdated",
      "type": "event"
    },
    {
      "anonymous": false,
      "inputs": [
        {
          "indexed": true,
          "internalType": "address",
          "name": "agent",
          "type": "address"
        },
        {
          "indexed": false,
          "internalType": "uint256",
          "name": "amount",
          "type": "uint256"
        }
      ],
      "name": "RewardDistributed",
      "type": "event"
    },
    {
      "anonymous": false,
      "inputs": [
        {
          "indexed": true,
          "internalType": "address",
          "name": "agent",
          "type": "address"
        },
        {
          "indexed": false,
          "internalType": "uint256",
          "name": "amount",
          "type": "uint256"
        },
        {
          "indexed": false,
          "internalType": "uint256",
          "name": "unlockTime",
          "type": "uint256"
        }
      ],
      "name": "StakeDeposited",
      "type": "event"
    },
    {
      "anonymous": false,
      "inputs": [
        {
          "indexed": true,
          "internalType": "address",
          "name": "agent",
          "type": "address"
        },
        {
          "indexed": false,
          "internalType": "uint256",
          "name": "amount",
          "type": "uint256"
        }
      ],
      "name": "StakeWithdrawn",
      "type": "event"
    },
    {
      "anonymous": false,
      "inputs": [
        {
          "indexed": false,
          "internalType": "address",
          "name": "account",
          "type": "address"
        }
      ],
      "name": "Unpaused",
      "type": "event"
    },
    {
      "inputs": [],
      "name": "activityWeight",
      "outputs": [
        {
          "internalType": "uint256",
          "name": "",
          "type": "uint256"
        }
      ],
      "stateMutability": "view",
      "type": "function"
    },
    {
      "inputs": [
        {
          "internalType": "address",
          "name": "_slasher",
          "type": "address"
        }
      ],
      "name": "addSlasher",
      "outputs": [],
      "stateMutability": "nonpayable",
      "type": "function"
    },
    {
      "inputs": [
        {
          "internalType": "address",
          "name": "",
          "type": "address"
        },
        {
          "internalType": "uint256",
          "name": "",
          "type": "uint256"
        }
      ],
      "name": "agentStakes",
      "outputs": [
        {
          "internalType": "uint256",
          "name": "amount",
          "type": "uint256"
        },
        {
          "internalType": "uint256",
          "name": "since",
          "type": "uint256"
        },
        {
          "internalType": "uint256",
          "name": "unlockTime",
          "type": "uint256"
        },
        {
          "internalType": "bool",
          "name": "withdrawn",
          "type": "bool"
        }
      ],
      "stateMutability": "view",
      "type": "function"
    },
    {
      "inputs": [
        {
          "internalType": "address",
          "name": "",
          "type": "address"
        }
      ],
      "name": "agents",
      "outputs": [
        {
          "internalType": "uint256",
          "name": "totalStaked",
          "type": "uint256"
        },
        {
          "internalType": "uint256",
          "name": "reputationScore",
          "type": "uint256"
        },
        {
          "internalType": "uint256",
          "name": "successfulCovenants",
          "type": "uint256"
        },
        {
          "internalType": "uint256",
          "name": "breachedCovenants",
          "type": "uint256"
        },
        {
          "internalType": "uint256",
          "name": "lastActivity",
          "type": "uint256"
        },
        {
          "internalType": "bool",
          "name": "isActive",
          "type": "bool"
        },
        {
          "internalType": "string",
          "name": "metadataURI",
          "type": "string"
        }
      ],
      "stateMutability": "view",
      "type": "function"
    },
    {
      "inputs": [
        {
          "internalType": "address",
          "name": "",
          "type": "address"
        }
      ],
      "name": "authorizedSlashers",
      "outputs": [
        {
          "internalType": "bool",
          "name": "",
          "type": "bool"
        }
      ],
      "stateMutability": "view",
      "type": "function"
    },
    {
      "inputs": [
        {
          "internalType": "address",
          "name": "_agent",
          "type": "address"
        }
      ],
      "name": "calculateReputation",
      "outputs": [
        {
          "internalType": "uint256",
          "name": "",
          "type": "uint256"
        }
      ],
      "stateMutability": "view",
      "type": "function"
    },
    {
      "inputs": [],
      "name": "feeRecipient",
      "outputs": [
        {
          "internalType": "address",
          "name": "",
          "type": "address"
        }
      ],
      "stateMutability": "view",
      "type": "function"
    },
    {
      "inputs": [
        {
          "internalType": "address",
          "name": "_agent",
          "type": "address"
        }
      ],
      "name": "getAgentProfile",
      "outputs": [
        {
          "components": [
            {
              "internalType": "uint256",
              "name": "totalStaked",
              "type": "uint256"
            },
            {
              "internalType": "uint256",
              "name": "reputationScore",
              "type": "uint256"
            },
            {
              "internalType": "uint256",
              "name": "successfulCovenants",
              "type": "uint256"
            },
            {
              "internalType": "uint256",
              "name": "breachedCovenants",
              "type": "uint256"
            },
            {
              "internalType": "uint256",
              "name": "lastActivity",
              "type": "uint256"
            },
            {
              "internalType": "bool",
              "name": "isActive",
              "type": "bool"
            },
            {
              "internalType": "string",
              "name": "metadataURI",
              "type": "string"
            }
          ],
          "internalType": "struct ReputationStake.AgentProfile",
          "name": "",
          "type": "tuple"
        }
      ],
      "stateMutability": "view",
      "type": "function"
    },
    {
      "inputs": [
        {
          "internalType": "address",
          "name": "_agent",
          "type": "address"
        },
        {
          "internalType": "uint256",
          "name": "_index",
          "type": "uint256"
        }
      ],
      "name": "getStake",
      "outputs": [
        {
          "components": [
            {
              "internalType": "uint256",
              "name": "amount",
              "type": "uint256"
            },
            {
              "internalType": "uint256",
              "name": "since",
              "type": "uint256"
            },
            {
              "internalType": "uint256",
              "name": "unlockTime",
              "type": "uint256"
            },
            {
              "internalType": "bool",
              "name": "withdrawn",
              "type": "bool"
            }
          ],
          "internalType": "struct ReputationStake.Stake",
          "name": "",
          "type": "tuple"
        }
      ],
      "stateMutability": "view",
      "type": "function"
    },
    {
      "inputs": [
        {
          "internalType": "address",
          "name": "_agent",
          "type": "address"
        }
      ],
      "name": "getStakeCount",
      "outputs": [
        {
          "internalType": "uint256",
          "name": "",
          "type": "uint256"
        }
      ],
      "stateMutability": "view",
      "type": "function"
    },
    {
      "inputs": [],
      "name": "historyWeight",
      "outputs": [
        {
          "internalType": "uint256",
          "name": "",
          "type": "uint256"
        }
      ],
      "stateMutability": "view",
      "type": "function"
    },
    {
      "inputs": [
        {
          "internalType": "address",
          "name": "_agent",
          "type": "address"
        }
      ],
      "name": "isRegistered",
      "outputs": [
        {
          "internalType": "bool",
          "name": "",
          "type": "bool"
        }
      ],
      "stateMutability": "view",
      "type": "function"
    },
    {
      "inputs": [],
      "name": "lockPeriod",
      "outputs": [
        {
          "internalType": "uint256",
          "name": "",
          "type": "uint256"
        }
      ],
      "stateMutability": "view",
      "type": "function"
    },
    {
      "inputs": [],
      "name": "minimumStake",
      "outputs": [
        {
          "internalType": "uint256",
          "name": "",
          "type": "uint256"
        }
      ],
      "stateMutability": "view",
      "type": "function"
    },
    {
      "inputs": [],
      "name": "pause",
      "outputs": [],
      "stateMutability": "nonpayable",
      "type": "function"
    },
    {
      "inputs": [],
      "name": "paused",
      "outputs": [
        {
          "internalType": "bool",
          "name": "",
          "type": "bool"
        }
      ],
      "stateMutability": "view",
      "type": "function"
    },
    {
      "inputs": [],
      "name": "pauser",
      "outputs": [
        {
          "internalType": "address",
          "name": "",
          "type": "address"
        }
      ],
      "stateMutability": "view",
      "type": "function"
    },
    {
      "inputs": [],
      "name": "protocolFeeBps",
      "outputs": [
        {
          "internalType": "uint256",
          "name": "",
          "type": "uint256"
        }
      ],
      "stateMutability": "view",
      "type": "function"
    },
    {
      "inputs": [
        {
          "internalType": "address",
          "name": "_agent",
          "type": "address"
        },
        {
          "internalType": "uint256",
          "name": "_slashingMultiplier",
          "type": "uint256"
        },
        {
          "internalType": "string",
          "name": "_reason",
          "type": "string"
        }
      ],
      "name": "recordBreach",
      "outputs": [],
      "stateMutability": "nonpayable",
      "type": "function"
    },
    {
      "inputs": [
        {
          "internalType": "address",
          "name": "_agent",
          "type": "address"
        }
      ],
      "name": "recordSuccess",
      "outputs": [],
      "stateMutability": "nonpayable",
      "type": "function"
    },
    {
      "inputs": [
        {
          "internalType": "string",
          "name": "_metadataURI",
          "type": "string"
        }
      ],
      "name": "registerAgent",
      "outputs": [],
      "stateMutability": "nonpayable",
      "type": "function"
    },
    {
      "inputs": [
        {
          "internalType": "address",
          "name": "_slasher",
          "type": "address"
        }
      ],
      "name": "removeSlasher",
      "outputs": [],
      "stateMutability": "nonpayable",
      "type": "function"
    },
    {
      "inputs": [
        {
          "internalType": "uint256",
          "name": "_minimumStake",
          "type": "uint256"
        },
        {
          "internalType": "uint256",
          "name": "_slashingPercentage",
          "type": "uint256"
        },
        {
          "internalType": "uint256",
          "name": "_lockPeriod",
          "type": "uint256"
        }
      ],
      "name": "setParameters",
      "outputs": [],
      "stateMutability": "nonpayable",
      "type": "function"
    },
    {
      "inputs": [],
      "name": "slashingPercentage",
      "outputs": [
        {
          "internalType": "uint256",
          "name": "",
          "type": "uint256"
        }
      ],
      "stateMutability": "view",
      "type": "function"
    },
    {
      "inputs": [
        {
          "internalType": "uint256",
          "name": "_amount",
          "type": "uint256"
        }
      ],
      "name": "stake",
      "outputs": [],
      "stateMutability": "nonpayable",
      "type": "function"
    },
    {
      "inputs": [],
      "name": "stakeToken",
      "outputs": [
        {
          "internalType": "contract IERC20",
          "name": "",
          "type": "address"
        }
      ],
      "stateMutability": "view",
      "type": "function"
    },
    {
      "inputs": [],
      "name": "stakeWeight",
      "outputs": [
        {
          "internalType": "uint256",
          "name": "",
          "type": "uint256"
        }
      ],
      "stateMutability": "view",
      "type": "function"
    },
    {
      "inputs": [],
      "name": "totalAgents",
      "outputs": [
        {
          "internalType": "uint256",
          "name": "",
          "type": "uint256"
        }
      ],
      "stateMutability": "view",
      "type": "function"
    },
    {
      "inputs": [],
      "name": "totalStaked",
      "outputs": [
        {
          "internalType": "uint256",
          "name": "",
          "type": "uint256"
        }
      ],
      "stateMutability": "view",
      "type": "function"
    },
    {
      "inputs": [
        {
          "internalType": "address",
          "name": "newPauser",
          "type": "address"
        }
      ],
      "name": "transferPauser",
      "outputs": [],
      "stateMutability": "nonpayable",
      "type": "function"
    },
    {
      "inputs": [],
      "name": "unpause",
      "outputs": [],
      "stateMutability": "nonpayable",
      "type": "function"
    },
    {
      "inputs": [
        {
          "internalType": "uint256",
          "name": "_stakeIndex",
          "type": "uint256"
        }
      ],
      "name": "withdrawStake",
      "outputs": [],
      "stateMutability": "nonpayable",
      "type": "function"
    }
  ],
  "bytecode": "0x60803461011557601f62001bc638819003918201601f19168301916001600160401b0383118484101761011a57808492604094855283398101031261011557610053602061004c83610130565b9201610130565b60017f9b779b17422d0df92223018b32b4d1fa46e071723d6817e2486d003becc55f0055600054610100600160a81b033360081b1690610100600160a81b0319161760005568056bc75e2d631000006006556103e860075562093a8060085560646009556028600a55601e600b55601e600c5560018060a01b03908160018060a01b03199316836001541617600155169060025416176002553360005260056020526040600020600160ff19825416179055604051611a819081620001458239f35b600080fd5b634e487b7160e01b600052604160045260246000fd5b51906001600160a01b03821682036101155756fe6040608081526004908136101561001557600080fd5b6000803560e01c8063209ffa181461120757806325d5971f14611019578063267b116714610ffa57806327c06fd514610fcd5780632d2a958514610ce457806334c5d2ce14610ca657806335659fb814610c875780633f4ba83a14610c135780633fd8b02f14610bf45780634234128714610a5b5780634421ea211461098a578063469048401461096157806351ed6a30146109385780635c975abb1461091657806368a9f19c146108c457806369666a49146108a557806378dc93a4146107a2578063817b1cd2146107835780638456cb59146106ff5780639fd0506d146106d3578063a694fc3a146104c4578063aac6aa9c14610475578063aed2d90814610437578063b0c87df214610418578063b2ab2782146103a1578063be3ac6a714610382578063c3c5a54714610340578063c505371214610321578063cf57ee69146102eb578063cfd476631461023a578063ec5ffac2146102175763fd66091e1461018057600080fd5b34610214576020366003190112610214576102109082906001600160a01b036101a761150b565b16815260036020522091825492600181015494600282015490600383015490830154916101de600660ff6005870154169501611670565b9480519889988952602089015287015260608601526080850152151560a084015260e060c084015260e0830190611554565b0390f35b80fd5b5090346102365781600319360112610236576020906006549051908152f35b5080fd5b5091346102e757816003193601126102e7576080926102919161025b61150b565b826060865161026981611632565b8281528260208201528288820152015260018060a01b03168252602052826024359120611594565b509080519061029f82611632565b825492838352600181015460208401908152606060ff600360028501549486880195865201541694019315158452825194855251602085015251908301525115156060820152f35b8280fd5b5091346102e75760203660031901126102e75760209282916001600160a01b0361031361150b565b168252845220549051908152f35b509034610236578160031936011261023657602090600e549051908152f35b5090346102365760203660031901126102365760209160ff9060059083906001600160a01b0361036e61150b565b168152600386522001541690519015158152f35b509034610236578160031936011261023657602090600b549051908152f35b50346102145781600319360112610214576103ba61150b565b6001600160a01b031681526020929092528082208054602435939084101561021457506080926103e991611594565b509081549160018101549160ff6003600284015493015416928151948552602085015283015215156060820152f35b509034610236578160031936011261023657602090600c549051908152f35b5090346102365760203660031901126102365760209160ff9082906001600160a01b0361046261150b565b1681526005855220541690519015158152f35b5090346102365760203660031901126102365761049061150b565b33835260056020526104a760ff8385205416611809565b6001600160a01b0316825260056020528120805460ff1916905580f35b50903461023657602090816003193601126102e757833591338452600381526104f560ff600584872001541661175c565b821561069c5760015482516323b872dd60e01b81523387820152306024820152604481018590529082908290606490829089906001600160a01b03165af1908115610692579061054c918691610665575b506117b1565b610558600854426117ef565b825161056381611632565b84815282810142815284820192835260608201908782523388528885528588208054906801000000000000000082101561065257906105a791600182018155611594565b93909361064057610601927f05cce4a371bf9816b1a7594f1d76c98eba4ed025ff3e471234ae598f17899bd497969594926003925184555160018401558451600284015551151591019060ff801983541691151516179055565b338652600382528286206106168682546117ef565b905561062485600d546117ef565b600d55610630336119fa565b519082519485528401523392a280f35b634e487b7160e01b8952888a52602489fd5b634e487b7160e01b8a5260418b5260248afd5b6106859150833d851161068b575b61067d818361164e565b810190611799565b38610546565b503d610673565b83513d87823e3d90fd5b8490606492519162461bcd60e51b835282015260126024820152710416d6f756e74206d757374206265203e20360741b6044820152fd5b5090346102365781600319360112610236579054905160089190911c6001600160a01b03168152602090f35b5091346102e757826003193601126102e757825490600882901c6001600160a01b031633036107755760ff8216610767575060ff19166001178255513381527f62e78cea01bee320cd4e420270b5ea74000d11b0c9f74754ebdbfc544b05a25890602090a180f35b825163ab35696f60e01b8152fd5b825163492f678160e01b8152fd5b509034610236578160031936011261023657602090600d549051908152f35b5091346102e75760209283600319360112610214579082610210926107c561150b565b606060c084516107d481611600565b848152848a820152848682015284838201528460808201528460a0820152015260018060a01b03168152600386522083519361080f85611600565b81548552600182015492868601938452600283015482870190815260038401549160608801928352840154926080880193845261085f600660ff6005880154169660a08b01971515885201611670565b9560c089019687528151998a99818b5251908a015251908801525160608701525160808601525160a085015251151560c08401525160e080840152610100830190611554565b5090346102365781600319360112610236576020906007549051908152f35b509034610236576020366003190112610236576108df61150b565b33835260056020526108f660ff8385205416611809565b6001600160a01b0316825260056020528120805460ff1916600117905580f35b50903461023657816003193601126102365760ff602092541690519015158152f35b50903461023657816003193601126102365760015490516001600160a01b039091168152602090f35b50903461023657816003193601126102365760025490516001600160a01b039091168152602090f35b5091346102e75760203660031901126102e7576109a561150b565b83549060018060a01b0392838360081c1693843303610a4c578216948515610a10575050610100600160a81b031990911660089190911b610100600160a81b03161783557f51c4874e0f23f262e04a38c51751336dde72126d67f53eb672aaff02996b3ef68380a380f35b906020606492519162461bcd60e51b83528201526016602482015275496e76616c696420706175736572206164647265737360501b6044820152fd5b50845163492f678160e01b8152fd5b509190346102e75760209081600319360112610bf057610a7961150b565b9033855260058352610a9060ff8287205416611809565b6001600160a01b03828116808752600385528287206005015490959190610ab99060ff1661175c565b85875260038552600283882001610ad08154611716565b90558587526003855242828489200155610ae9846119fa565b85875260038552828720600a60028201540615610b04578780f35b60649054049384610b13578780f35b600154845163a9059cbb60e01b81526001600160a01b039290921684830190815260208101879052919287928492908390036040019183918c91165af1908115610be6578791610bc9575b5015610b985750519081527fe34918ff1c7084970068b53fd71ad6d8b04e9f15d3886cbf006443e6cdc52ea69190a2388080808080808780f35b83606492519162461bcd60e51b8352820152600d60248201526c14995dd85c990819985a5b1959609a1b6044820152fd5b610be09150853d871161068b5761067d818361164e565b38610b5e565b83513d89823e3d90fd5b8380fd5b5090346102365781600319360112610236576020906008549051908152f35b5091346102e757826003193601126102e757825490600882901c6001600160a01b031633036107755760ff821615610c79575060ff19168255513381527f5db9ee0a495bf2e6ff9c91a7834c1ba4fdd244a5e8aa4e537bd38aeae4b073aa90602090a180f35b825163dcdde9dd60e01b8152fd5b5090346102365781600319360112610236576020906009549051908152f35b509190346102e75760603660031901126102e75760ff610cd191338552600560205284205416611809565b3560065560243560075560443560085580f35b50903461023657602090816003193601126102e75767ffffffffffffffff908435828111610fc957610d199036908701611526565b9190923386526003855260ff6005838820015416610f91578151610d3c81611600565b8681528581019087825283810188815260608201898152608083019042825260a0840192600195868552878a11610f7d57918b9796959391601f9593610d8d8b519a8d8919998a910116018b61164e565b8b8a52368d8d0111610f79578a8f8f8f8f808f849286948483013701015260c089019c8d523382526003905220955186555187860155516002850155516003840155518c8301555115156005820190610df1919060ff801983541691151516179055565b6006019351998a51938411610f665750610e0b84546115c6565b601f8111610f20575b508790601f8411600114610e9a575091808092610e899695948b9c7fda816ca2fc37b9eecec62ae8263008ec6be1afb38dc28bc9c7c51d7e348da9c29b9c94610e8f575b50501b916000199060031b1c19161790555b610e75600e54611716565b600e5551928392868452339684019161173b565b0390a280f35b015192503880610e58565b8392931699848a52888a209a8a5b818110610f0b5750917fda816ca2fc37b9eecec62ae8263008ec6be1afb38dc28bc9c7c51d7e348da9c2999a9b9184610e89989796959410610ef2575b505050811b019055610e6a565b015160001960f88460031b161c19169055388080610ee5565b838301518d559b85019b928a01928a01610ea8565b848a52888a20601f850160051c8101918a8610610f5c575b601f0160051c019083905b828110610f51575050610e14565b8b8155018390610f43565b9091508190610f38565b634e487b7160e01b8a5260419052602489fd5b8e80fd5b50634e487b7160e01b8c5260418d5260248cfd5b815162461bcd60e51b81528088018690526012602482015271105b1c9958591e481c9959da5cdd195c995960721b6044820152606490fd5b8480fd5b50903461023657602036600319011261023657602090610ff3610fee61150b565b611879565b9051908152f35b509034610236578160031936011261023657602090600a549051908152f35b5091346102e757602080600319360112610bf05781353385526003825261104860ff600586882001541661175c565b338552828252838520548110156111d65761106b90338652838352848620611594565b5060038101805460ff811661119e576002830154421061116b5791839160016111019460ff1916179055548094338852600383528688206110ad8382546117fc565b90556110bb82600d546117fc565b600d556110c7336119fa565b600154875163a9059cbb60e01b8152339281019283526020830193909352919384926001600160a01b03169183918a918391604090910190565b03925af1908115611161577f8108595eb6bad3acefa9da467d90cc2217686d5c5ac85460f8b7849c840645fc93949161114091879161114a57506117b1565b519283523392a280f35b6106859150843d861161068b5761067d818361164e565b84513d87823e3d90fd5b5050925162461bcd60e51b815291820152600c60248201526b14dd1a5b1b081b1bd8dad95960a21b604482015260649150fd5b5050925162461bcd60e51b815291820152601160248201527020b63932b0b23c903bb4ba34323930bbb760791b604482015260649150fd5b50606492519162461bcd60e51b8352820152600d60248201526c092dcecc2d8d2c840d2dcc8caf609b1b6044820152fd5b5090346102365760603660031901126102365761122261150b565b9060443567ffffffffffffffff8111610bf0576112429036908601611526565b94903385526020926005845260ff9461125f868389205416611809565b60018060a01b039586821696878952600395868852611285836005878d2001541661175c565b888a5286885286858b200161129a8154611716565b9055888a528688526127106112c6868c204284820155546112c16024359160075490611846565b611846565b0496871515806114f9575b61131f575b5050505096610e89929161130c7ff90d547af41b84ae5db3dc86fac677444898b3350b3e9cccd482dea1274bfc959798996119fa565b808051968796875286015284019161173b565b9396919994959097929a82978a875289855287872099875b8b548110806114f0575b15611407578b8f8e908a6113558585611594565b5001541615806113f3575b611375575b505061137090611716565b611337565b90829c6113e2926113ab858e61138e6113709887611594565b505485111590506113ec576113a38186611594565b505494611594565b506113b78482546117fc565b90558c528a8a528c8c206113cc8382546117fc565b9055600d6113db8382546117fc565b90556117fc565b9a90508b8d611365565b8394611594565b506113fe8383611594565b50541515611360565b50949a9b9095508a92989197969c5061146793995061143081600154169160025416928b6117fc565b875163a9059cbb60e01b81526001600160a01b0390931686840190815260208101919091529193849283918f918391604090910190565b03925af19081156114e6578a916114c9575b501561148e578080809a99989796959a6112d6565b825162461bcd60e51b8152908101879052601560248201527414db185cda081d1c985b9cd9995c8819985a5b1959605a1b6044820152606490fd5b6114e09150883d8a1161068b5761067d818361164e565b38611479565b84513d8c823e3d90fd5b508a1515611341565b50898b52808952858b205415156112d1565b600435906001600160a01b038216820361152157565b600080fd5b9181601f840112156115215782359167ffffffffffffffff8311611521576020838186019501011161152157565b919082519283825260005b848110611580575050826000602080949584010152601f8019910116010190565b60208183018101518483018201520161155f565b80548210156115b05760005260206000209060021b0190600090565b634e487b7160e01b600052603260045260246000fd5b90600182811c921680156115f6575b60208310146115e057565b634e487b7160e01b600052602260045260246000fd5b91607f16916115d5565b60e0810190811067ffffffffffffffff82111761161c57604052565b634e487b7160e01b600052604160045260246000fd5b6080810190811067ffffffffffffffff82111761161c57604052565b90601f8019910116810190811067ffffffffffffffff82111761161c57604052565b9060405191826000825492611684846115c6565b9081845260019485811690816000146116f357506001146116b0575b50506116ae9250038361164e565b565b9093915060005260209081600020936000915b8183106116db5750506116ae935082010138806116a0565b855488840185015294850194879450918301916116c3565b9150506116ae94506020925060ff191682840152151560051b82010138806116a0565b60001981146117255760010190565b634e487b7160e01b600052601160045260246000fd5b908060209392818452848401376000828201840152601f01601f1916010190565b1561176357565b60405162461bcd60e51b815260206004820152600e60248201526d139bdd081c9959da5cdd195c995960921b6044820152606490fd5b90816020910312611521575180151581036115215790565b156117b857565b60405162461bcd60e51b815260206004820152600f60248201526e151c985b9cd9995c8819985a5b1959608a1b6044820152606490fd5b9190820180921161172557565b9190820391821161172557565b1561181057565b60405162461bcd60e51b815260206004820152600e60248201526d139bdd08185d5d1a1bdc9a5e995960921b6044820152606490fd5b8181029291811591840414171561172557565b8115611863570490565b634e487b7160e01b600052601260045260246000fd5b6001600160a01b03166000908152600360205260408120600581015460ff16156119f657805480156119ef576118b56118be91600a5490611846565b60065490611859565b915b6101908084116119e7575b506002820154916118e06003820154846117ef565b829381611984575b50506118fc600462015180920154426117fc565b04601e81101561197457601e03601e811161196057600c5461191d91611846565b90600a820291808304600a149015171561194c57506119499291601e6119449204926117ef565b6117ef565b90565b634e487b7160e01b81526011600452602490fd5b634e487b7160e01b82526011600452602482fd5b50611949929161194491926117ef565b909193506064810290808204606414901517156119d3576119b1916119a891611859565b600b5490611846565b600a810290808204600a14901517156119605760649004916118fc60046118e8565b634e487b7160e01b83526011600452602483fd5b9250386118cb565b50816118c0565b5090565b7ffc577563f1b9a0461e24abef1e1fcc0d33d3d881f20b5df6dda59de4aae2c8216020611a2683611879565b9260018060a01b031692836000526003825280600160406000200155604051908152a256fea2646970667358221220eb98ef16177a662c19eb9eda3eb464a9fbb600c76cf83ccf6deda51d080c933564736f6c63430008140033",
  "linkReferences": {},
  "deployedLinkReferences": {}
}