{
  "_format": "hh-sol-artifact-1",
  "contractName": "AgentCovenant",
  "sourceName": "contracts/AgentCovenant.sol",
  "abi": [
    {
      "inputs": [
        {
          "internalType": "address",
          "name": "_initiator",
          "type": "address"
        },
        {
          "internalType": "address",
          "name": "_counterparty",
          "type": "address"
        },
        {
          "internalType": "bytes32",
          "name": "_covenantType",
          "type": "bytes32"
        },
        {
          "internalType": "string",
          "name": "_termsIPFSHash",
          "type": "string"
        },
        {
          "internalType": "uint256",
          "name": "_duration",
          "type": "uint256"
        },
        {
          "internalType": "uint256",
          "name": "_stakeAmount",
          "type": "uint256"
        },
        {
          "internalType": "address",
          "name": "_feeRecipient",
          "type": "address"
        },
        {
          "internalType": "uint256",
          "name": "_protocolFeeBps",
          "type": "uint256"
        }
      ],
      "stateMutability": "payable",
      "type": "constructor"
    },
    {
      "inputs": [],
      "name": "ContractNotPaused",
      "type": "error"
    },
    {
      "inputs": [],
      "name": "ContractPaused",
      "type": "error"
    },
    {
      "inputs": [],
      "name": "NotPauser",
      "type": "error"
    },
    {
      "inputs": [],
      "name": "ReentrancyGuardReentrantCall",
      "type": "error"
    },
    {
      "anonymous": false,
      "inputs": [
        {
          "indexed": true,
          "internalType": "address",
          "name": "by",
          "type": "address"
        }
      ],
      "name": "CovenantAccepted",
      "type": "event"
    },
    {
      "anonymous": false,
      "inputs": [],
      "name": "CovenantActivated",
      "type": "event"
    },
    {
      "anonymous": false,
      "inputs": [
        {
          "indexed": true,
          "internalType": "address",
          "name": "by",
          "type": "address"
        },
        {
          "indexed": false,
          "internalType": "string",
          "name": "reason",
          "type": "string"
        }
      ],
      "name": "CovenantBreached",
      "type": "event"
    },
    {
      "anonymous": false,
      "inputs": [],
      "name": "CovenantFulfilled",
      "type": "event"
    },
    {
      "anonymous": false,
      "inputs": [
        {
          "indexed": true,
          "internalType": "address",
          "name": "by",
          "type": "address"
        },
        {
          "indexed": false,
          "internalType": "string",
          "name": "reason",
          "type": "string"
        }
      ],
      "name": "DisputeRaised",
      "type": "event"
    },
    {
      "anonymous": false,
      "inputs": [
        {
          "indexed": true,
          "internalType": "address",
          "name": "resolver",
          "type": "address"
        },
        {
          "indexed": false,
          "internalType": "uint256",
          "name": "initiatorAward",
          "type": "uint256"
        },
        {
          "indexed": false,
          "internalType": "uint256",
          "name": "counterpartyAward",
          "type": "uint256"
        }
      ],
      "name": "DisputeResolved",
      "type": "event"
    },
    {
      "anonymous": false,
      "inputs": [
        {
          "indexed": true,
          "internalType": "address",
          "name": "by",
          "type": "address"
        },
        {
          "indexed": false,
          "internalType": "uint256",
          "name": "amount",
          "type": "uint256"
        }
      ],
      "name": "FundsWithdrawn",
      "type": "event"
    },
    {
      "anonymous": false,
      "inputs": [
        {
          "indexed": true,
          "internalType": "uint256",
          "name": "index",
          "type": "uint256"
        },
        {
          "indexed": false,
          "internalType": "string",
          "name": "description",
          "type": "string"
        },
        {
          "indexed": false,
          "internalType": "uint256",
          "name": "payment",
          "type": "uint256"
        }
      ],
      "name": "MilestoneAdded",
      "type": "event"
    },
    {
      "anonymous": false,
      "inputs": [
        {
          "indexed": true,
          "internalType": "uint256",
          "name": "index",
          "type": "uint256"
        },
        {
          "indexed": true,
          "internalType": "address",
          "name": "by",
          "type": "address"
        }
      ],
      "name": "MilestoneCompleted",
      "type": "event"
    },
    {
      "anonymous": false,
      "inputs": [
        {
          "indexed": true,
          "internalType": "uint256",
          "name": "index",
          "type": "uint256"
        },
        {
          "indexed": false,
          "internalType": "uint256",
          "name": "amount",
          "type": "uint256"
        }
      ],
      "name": "MilestonePaid",
      "type": "event"
    },
    {
      "anonymous": false,
      "inputs": [
        {
          "indexed": false,
          "internalType": "address",
          "name": "account",
          "type": "address"
        }
      ],
      "name": "Paused",
      "type": "event"
    },
    {
      "anonymous": false,
      "inputs": [
        {
          "indexed": true,
          "internalType": "address",
          "name": "previousPauser",
          "type": "address"
        },
        {
          "indexed": true,
          "internalType": "address",
          "name": "newPauser",
          "type": "address"
        }
      ],
      "name": "PauserTransferred",
      "type": "event"
    },
    {
      "anonymous": false,
      "inputs": [
        {
          "indexed": false,
          "internalType": "address",
          "name": "account",
          "type": "address"
        }
      ],
      "name": "Unpaused",
      "type": "event"
    },
    {
      "inputs": [],
      "name": "acceptCovenant",
      "outputs": [],
      "stateMutability": "nonpayable",
      "type": "function"
    },
    {
      "inputs": [
        {
          "internalType": "string",
          "name": "_description",
          "type": "string"
        },
        {
          "internalType": "uint256",
          "name": "_paymentAmount",
          "type": "uint256"
        }
      ],
      "name": "addMilestone",
      "outputs": [],
      "stateMutability": "nonpayable",
      "type": "function"
    },
    {
      "inputs": [
        {
          "internalType": "address",
          "name": "",
          "type": "address"
        }
      ],
      "name": "agentCommitments",
      "outputs": [
        {
          "internalType": "bytes32",
          "name": "",
          "type": "bytes32"
        }
      ],
      "stateMutability": "view",
      "type": "function"
    },
    {
      "inputs": [
        {
          "internalType": "uint256",
          "name": "_milestoneIndex",
          "type": "uint256"
        }
      ],
      "name": "completeMilestone",
      "outputs": [],
      "stateMutability": "nonpayable",
      "type": "function"
    },
    {
      "inputs": [],
      "name": "counterparty",
      "outputs": [
        {
          "internalType": "address",
          "name": "",
          "type": "address"
        }
      ],
      "stateMutability": "view",
      "type": "function"
    },
    {
      "inputs": [
        {
          "internalType": "string",
          "name": "_reason",
          "type": "string"
        }
      ],
      "name": "declareBreach",
      "outputs": [],
      "stateMutability": "nonpayable",
      "type": "function"
    },
    {
      "inputs": [],
      "name": "disputeReason",
      "outputs": [
        {
          "internalType": "string",
          "name": "",
          "type": "string"
        }
      ],
      "stateMutability": "view",
      "type": "function"
    },
    {
      "inputs": [],
      "name": "disputeResolver",
      "outputs": [
        {
          "internalType": "address",
          "name": "",
          "type": "address"
        }
      ],
      "stateMutability": "view",
      "type": "function"
    },
    {
      "inputs": [],
      "name": "disputedAt",
      "outputs": [
        {
          "internalType": "uint256",
          "name": "",
          "type": "uint256"
        }
      ],
      "stateMutability": "view",
      "type": "function"
    },
    {
      "inputs": [],
      "name": "feeRecipient",
      "outputs": [
        {
          "internalType": "address",
          "name": "",
          "type": "address"
        }
      ],
      "stateMutability": "view",
      "type": "function"
    },
    {
      "inputs": [
        {
          "internalType": "uint256",
          "name": "_index",
          "type": "uint256"
        }
      ],
      "name": "getMilestone",
      "outputs": [
        {
          "components": [
            {
              "internalType": "string",
              "name": "description",
              "type": "string"
            },
            {
              "internalType": "uint256",
              "name": "paymentAmount",
              "type": "uint256"
            },
            {
              "internalType": "bool",
              "name": "completed",
              "type": "bool"
            },
            {
              "internalType": "bool",
              "name": "paid",
              "type": "bool"
            },
            {
              "internalType": "uint256",
              "name": "completedAt",
              "type": "uint256"
            }
          ],
          "internalType": "struct AgentCovenant.Milestone",
          "name": "",
          "type": "tuple"
        }
      ],
      "stateMutability": "view",
      "type": "function"
    },
    {
      "inputs": [],
      "name": "getMilestoneCount",
      "outputs": [
        {
          "internalType": "uint256",
          "name": "",
          "type": "uint256"
        }
      ],
      "stateMutability": "view",
      "type": "function"
    },
    {
      "inputs": [
        {
          "internalType": "address",
          "name": "",
          "type": "address"
        }
      ],
      "name": "hasAccepted",
      "outputs": [
        {
          "internalType": "bool",
          "name": "",
          "type": "bool"
        }
      ],
      "stateMutability": "view",
      "type": "function"
    },
    {
      "inputs": [],
      "name": "initiator",
      "outputs": [
        {
          "internalType": "address",
          "name": "",
          "type": "address"
        }
      ],
      "stateMutability": "view",
      "type": "function"
    },
    {
      "inputs": [],
      "name": "isActive",
      "outputs": [
        {
          "internalType": "bool",
          "name": "",
          "type": "bool"
        }
      ],
      "stateMutability": "view",
      "type": "function"
    },
    {
      "inputs": [
        {
          "internalType": "uint256",
          "name": "",
          "type": "uint256"
        }
      ],
      "name": "milestones",
      "outputs": [
        {
          "internalType": "string",
          "name": "description",
          "type": "string"
        },
        {
          "internalType": "uint256",
          "name": "paymentAmount",
          "type": "uint256"
        },
        {
          "internalType": "bool",
          "name": "completed",
          "type": "bool"
        },
        {
          "internalType": "bool",
          "name": "paid",
          "type": "bool"
        },
        {
          "internalType": "uint256",
          "name": "completedAt",
          "type": "uint256"
        }
      ],
      "stateMutability": "view",
      "type": "function"
    },
    {
      "inputs": [],
      "name": "pause",
      "outputs": [],
      "stateMutability": "nonpayable",
      "type": "function"
    },
    {
      "inputs": [],
      "name": "paused",
      "outputs": [
        {
          "internalType": "bool",
          "name": "",
          "type": "bool"
        }
      ],
      "stateMutability": "view",
      "type": "function"
    },
    {
      "inputs": [],
      "name": "pauser",
      "outputs": [
        {
          "internalType": "address",
          "name": "",
          "type": "address"
        }
      ],
      "stateMutability": "view",
      "type": "function"
    },
    {
      "inputs": [
        {
          "internalType": "uint256",
          "name": "_milestoneIndex",
          "type": "uint256"
        }
      ],
      "name": "payMilestone",
      "outputs": [],
      "stateMutability": "nonpayable",
      "type": "function"
    },
    {
      "inputs": [],
      "name": "protocolFeeBps",
      "outputs": [
        {
          "internalType": "uint256",
          "name": "",
          "type": "uint256"
        }
      ],
      "stateMutability": "view",
      "type": "function"
    },
    {
      "inputs": [
        {
          "internalType": "string",
          "name": "_reason",
          "type": "string"
        }
      ],
      "name": "raiseDispute",
      "outputs": [],
      "stateMutability": "nonpayable",
      "type": "function"
    },
    {
      "inputs": [],
      "name": "remainingBalance",
      "outputs": [
        {
          "internalType": "uint256",
          "name": "",
          "type": "uint256"
        }
      ],
      "stateMutability": "view",
      "type": "function"
    },
    {
      "inputs": [
        {
          "internalType": "uint256",
          "name": "_initiatorAward",
          "type": "uint256"
        },
        {
          "internalType": "uint256",
          "name": "_counterpartyAward",
          "type": "uint256"
        }
      ],
      "name": "resolveDispute",
      "outputs": [],
      "stateMutability": "nonpayable",
      "type": "function"
    },
    {
      "inputs": [],
      "name": "status",
      "outputs": [
        {
          "internalType": "enum AgentCovenant.CovenantStatus",
          "name": "",
          "type": "uint8"
        }
      ],
      "stateMutability": "view",
      "type": "function"
    },
    {
      "inputs": [],
      "name": "terms",
      "outputs": [
        {
          "internalType": "bytes32",
          "name": "covenantType",
          "type": "bytes32"
        },
        {
          "internalType": "string",
          "name": "termsIPFSHash",
          "type": "string"
        },
        {
          "internalType": "uint256",
          "name": "createdAt",
          "type": "uint256"
        },
        {
          "internalType": "uint256",
          "name": "expiresAt",
          "type": "uint256"
        },
        {
          "internalType": "uint256",
          "name": "stakeAmount",
          "type": "uint256"
        }
      ],
      "stateMutability": "view",
      "type": "function"
    },
    {
      "inputs": [],
      "name": "timeRemaining",
      "outputs": [
        {
          "internalType": "uint256",
          "name": "",
          "type": "uint256"
        }
      ],
      "stateMutability": "view",
      "type": "function"
    },
    {
      "inputs": [],
      "name": "totalMilestonePayments",
      "outputs": [
        {
          "internalType": "uint256",
          "name": "",
          "type": "uint256"
        }
      ],
      "stateMutability": "view",
      "type": "function"
    },
    {
      "inputs": [
        {
          "internalType": "address",
          "name": "newPauser",
          "type": "address"
        }
      ],
      "name": "transferPauser",
      "outputs": [],
      "stateMutability": "nonpayable",
      "type": "function"
    },
    {
      "inputs": [],
      "name": "unpause",
      "outputs": [],
      "stateMutability": "nonpayable",
      "type": "function"
    },
    {
      "inputs": [],
      "name": "withdrawRemaining",
      "outputs": [],
      "stateMutability": "nonpayable",
      "type": "function"
    },
    {
      "stateMutability": "payable",
      "type": "receive"
    }
  ],
  "bytecode": "0x604060c08152620022c390813803806200001981620003b3565b93843982019161010081840312620003ae576200003681620003d9565b90602062000046818301620003d9565b8483015160608401519193916001600160401b039190828111620003ae57830190601f92898484011215620003ae5782518181116200036d57601f19936200009482870186168901620003b3565b9b828d52888383010111620003ae57879060005b838110620003995750506000918c01015260808501519360a08601519460e0620000d560c08901620003d9565b97015160017f9b779b17422d0df92223018b32b4d1fa46e071723d6817e2486d003becc55f0081905560008054610100600160a81b0319163360081b610100600160a81b031617905560808c905260a09a909a52600a80546001600160a01b0319166001600160a01b03998a16179055600b5534600955429081019490851062000383578a519360a08501858110858211176200036d578c528085528c8986015260808c860195428752606081019788520196875289558b519283116200036d576002548981811c9116801562000362575b898210146200034c5782811162000300575b50879183116001146200029557508190600c98999a9b60009262000289575b5050600019600383901b1c191690881b176002555b51600355516004555160055560ff199485600654166006551660005252826000209182541617905551611ed49081620003ef82396080518181816101cf01528181610656015281816107260152818161085101528181610aeb015281816111580152818161140401526116e4015260a051818181610569015281816106a10152818161096601528181610eb5015281816113a601526114dd0152f35b015190503880620001d8565b82169a6002600052876000209b60005b818110620002ea575091899a9b9c9184600c9b959410620002d0575b505050811b01600255620001ed565b015160001960f88460031b161c19169055388080620002c1565b828401518e559c8a019c928901928901620002a5565b6002600052886000208380860160051c8201928b871062000342575b0160051c01908a905b82811062000335575050620001b9565b60008155018a9062000325565b925081926200031c565b634e487b7160e01b600052602260045260246000fd5b90607f1690620001a7565b634e487b7160e01b600052604160045260246000fd5b634e487b7160e01b600052601160045260246000fd5b818101830151818f01840152899201620000a8565b600080fd5b6040519190601f01601f191682016001600160401b038111838210176200036d57604052565b51906001600160a01b0382168203620003ae5756fe608080604052600436101561002c575b50361561001b57600080fd5b61002734600954611cf9565b600955005b60003560e01c908163200d2ed214611a345750806322f3e2d414611a065780632442e1cb146118f157806335659fb8146118d35780633670a7bd146118955780633f4ba83a1461181f5780634421ea211461175a57806346904840146117315780634a4d41eb146117135780635c39fcc1146116ce5780635c975abb146116ab57806369b4d6fe1461166857806369db0a7e146113ce578063725a3b4b146111045780637bf6c1041461101e5780637d0d50dc14610e905780638456cb5914610e1757806384b62c2814610a9f578063852ea203146109d95780638f4cf247146109bb5780639fd0506d1461098e578063a8d52f7a1461081d578063bdc84ac314610598578063c3df654614610553578063d24126d914610535578063d50256251461042d578063da25de3c1461040f578063e3cfef60146103ec578063e89e4ed61461036c578063ee38db95146101bc5763f5a3f4af1461018e573861000f565b346101b75760003660031901126101b757600e546040516001600160a01b039091168152602090f35b600080fd5b346101b75760003660031901126101b7577f00000000000000000000000000000000000000000000000000000000000000006001600160a01b03811690610204338314611c68565b60ff6006541660078110159081610348576005811491821561035e575b8215610337575b5050801561032c575b156102f1576009549081156102bf5760008080848194826009555af1610255611d74565b50156102885760207feaff4b37086828766ad3268786972c0cd24259d4c87a80f9d3963a3c3d999b0d91604051908152a2005b60405162461bcd60e51b815260206004820152600f60248201526e15da5d1a191c985dc819985a5b1959608a1b6044820152606490fd5b60405162461bcd60e51b815260206004820152600a6024820152694e6f2062616c616e636560b01b6044820152606490fd5b60405162461bcd60e51b815260206004820152601360248201527210d85b9b9bdd081dda5d1a191c985dc81e595d606a1b6044820152606490fd5b506004544211610231565b909150610348576002148380610228565b634e487b7160e01b600052602160045260246000fd5b506006811491506000610221565b346101b75760203660031901126101b7576004356007548110156101b7576103966103c891611be8565b506103a081611b42565b9060018101549060ff600360028301549201549160405195869560a0875260a0870190611a5c565b9360208601528181161515604086015260081c161515606084015260808301520390f35b346101b75760003660031901126101b7576020610407611e1a565b604051908152f35b346101b75760003660031901126101b7576020600954604051908152f35b346101b75760003660031901126101b75760018054604051918260006002549261045684611aca565b8084529381811690811561051357506001146104b4575b5061047a92500383611b20565b600354600454600554906104a0604051958695865260a0602087015260a0860190611a5c565b926040850152606084015260808301520390f35b6002600090815291507f405787fa12a823e0f2b7631cc41b3ba8828b3321ca811111fa75cd3aa3bb5ace5b8483106104f8575061047a93505081016020018561046d565b81935090816020925483858a010152019101909185926104df565b90506020925061047a94915060ff191682840152151560051b8201018561046d565b346101b75760003660031901126101b7576020601054604051908152f35b346101b75760003660031901126101b7576040517f00000000000000000000000000000000000000000000000000000000000000006001600160a01b03168152602090f35b346101b75760403660031901126101b75760043560248035906006549060ff82166007811015610808576003036107d5576105d38385611cf9565b60099283548092116107995760ff1916600417600655600e80546001600160a01b031916331790558480610713575b50508261068c575b50805480610648575b505060405191825260208201527fd45d961e06565b8dd3d1da8aa5d6bdf1ea1253ebf46c31573e5acd0125f2432660403392a2005b6000808080938161068596557f00000000000000000000000000000000000000000000000000000000000000005af161067f611d74565b50611dde565b8280610613565b610697838354611d06565b82556000808080867f00000000000000000000000000000000000000000000000000000000000000005af16106ca611d74565b5061060a5760649060196040519162461bcd60e51b8352602060048401528201527f436f756e7465727061727479206177617264206661696c6564000000000000006044820152fd5b61071c91611d06565b82556000808080877f00000000000000000000000000000000000000000000000000000000000000005af161074f611d74565b501561075c578484610602565b60649060166040519162461bcd60e51b83526020600484015282015275125b9a5d1a585d1bdc88185dd85c990819985a5b195960521b6044820152fd5b60405162461bcd60e51b81526020600482015260158185015274417761726473206578636565642062616c616e636560581b6044820152606490fd5b606490600c6040519162461bcd60e51b8352602060048401528201526b139bdd08191a5cdc1d5d195960a21b6044820152fd5b50634e487b7160e01b60009081526021600452fd5b346101b75760203660031901126101b75760043567ffffffffffffffff81116101b75761084e903690600401611a9c565b907f00000000000000000000000000000000000000000000000000000000000000009061088f6001600160a01b038084163314908115610962575b50611da4565b6006549060ff821660078110156103485760016108ac9114611ca4565b60045442111561092b577f76b5660c2bd01bae8e3db371287bd828ee6a8a490398f7ac405273035e6379739260066109079360ff1916176006556009548061090c575b50506040519182916020835233956020840191611d13565b0390a2005b60008080809361092495826009555af161067f611d74565b84806108ef565b60405162461bcd60e51b815260206004820152600f60248201526e139bdd08195e1c1a5c9959081e595d608a1b6044820152606490fd5b90507f000000000000000000000000000000000000000000000000000000000000000016331485610889565b346101b75760003660031901126101b75760005460405160089190911c6001600160a01b03168152602090f35b346101b75760003660031901126101b7576020600754604051908152f35b346101b75760203660031901126101b75760043560ff600654166007811015610348576001610a089114611ca4565b610a156007548210611d34565b610a1e81611be8565b5060028101805460ff8116610a665760019060ff191617905560034291015533907f032f77b843a5cc848407ffb1e918c51fd6982fbfd1adf0b60f45c6d7bb54068a600080a3005b60405162461bcd60e51b8152602060048201526011602482015270105b1c9958591e4818dbdb5c1b195d1959607a1b6044820152606490fd5b346101b75760403660031901126101b75767ffffffffffffffff6004358181116101b757610ad1903690600401611a9c565b909160ff60005416610e0557610ae5611c38565b610b19337f00000000000000000000000000000000000000000000000000000000000000006001600160a01b031614611c68565b60ff600654166007811015610348576001610b349114611ca4565b60095460243511610dc957604051610b4b81611b04565b610b5483611cdd565b610b616040519182611b20565b83815236848601116101b757838560208301376000602085830101528152602435602082015260006040820152600060608201526000608082015260075468010000000000000000811015610d9d57806001610bc09201600755611be8565b929092610db35781518051918211610d9d57610bdc8454611aca565b601f8111610d59575b50602090601f8311600114610ceb57918060039492608094600092610ce0575b50508160011b9160001990861b1c19161784555b602081015160018501556002840160408201511515815460ff61ff006060860151151560081b1692169061ffff1916171790550151910155610c5f602435600854611cf9565b600855600754600019810192908311610cca577fbf293db00f4de65b181a066ecc2f8bb81fb7174b517fd8085700e259ad00db1b91610cab604051928392604084526040840191611d13565b60243560208301520390a26001600080516020611e7f83398151915255005b634e487b7160e01b600052601160045260246000fd5b015190508880610c05565b908460005260206000209160005b601f1985168110610d415750926003949260019260809583601f19811610610d29575b505050811b018455610c19565b015160001983881b60f8161c19169055888080610d1c565b91926020600181928685015181550194019201610cf9565b846000526020600020601f840160051c810160208510610d96575b601f830160051c82018110610d8a575050610be5565b60008155600101610d74565b5080610d74565b634e487b7160e01b600052604160045260246000fd5b634e487b7160e01b600052600060045260246000fd5b60405162461bcd60e51b8152602060048201526014602482015273496e73756666696369656e742062616c616e636560601b6044820152606490fd5b60405163ab35696f60e01b8152600490fd5b346101b75760003660031901126101b757600054600881901c6001600160a01b03163303610e7e5760ff8116610e055760019060ff1916176000557f62e78cea01bee320cd4e420270b5ea74000d11b0c9f74754ebdbfc544b05a2586020604051338152a1005b60405163492f678160e01b8152600490fd5b346101b75760003660031901126101b75760ff60005416610e0557610eb3611c38565b7f00000000000000000000000000000000000000000000000000000000000000006001600160a01b031633819003610fe65760ff60065416600781101561034857610fb357600454421015610f845780600052600c6020526001604060002060ff1990828282541617905560065416176006557f9f4a87e77dbaf5b55d5e6f62125b58988c5befb44fb876196dd62ffca1362f21600080a27f47c82a599a82344a17a0b9fefda032175048e76d1d1bdf41e8bc686480ff204c600080a16001600080516020611e7f83398151915255005b60405162461bcd60e51b8152602060048201526007602482015266115e1c1a5c995960ca1b6044820152606490fd5b60405162461bcd60e51b815260206004820152600b60248201526a4e6f742070656e64696e6760a81b6044820152606490fd5b60405162461bcd60e51b815260206004820152601060248201526f4e6f7420636f756e746572706172747960801b6044820152606490fd5b346101b75760003660031901126101b7576040516000600f5461104081611aca565b808452906001908181169081156110dd5750600114611082575b61107e8461106a81860382611b20565b604051918291602083526020830190611a5c565b0390f35b600f600090815292507f8d1108e10bcb7c27dddfc02ed9d693a074039d026cf4ea4240b40f7d581ac8025b8284106110c557505050810160200161106a8261105a565b805460208587018101919091529093019281016110ad565b60ff191660208087019190915292151560051b8501909201925061106a915083905061105a565b346101b7576020806003193601126101b75767ffffffffffffffff6004358181116101b757611137903690600401611a9c565b929060ff60005416610e055761114b611c38565b61118760018060a01b03807f00000000000000000000000000000000000000000000000000000000000000001633149081156113a25750611da4565b6006549260ff841693600785101561034857600194858114908115611399575b50156113635760ff19166003176006558411610d9d576111c8600f54611aca565b601f81116112fc575b50600093601f811160011461125b57807f28b099eb575e23e32becd7c30dc8f9b2f98e370cdbf9841ea3338d9000402a25939495600091611250575b50600019600383901b1c191681861b17600f555b4260105561123b6040519283928684523396840191611d13565b0390a2600080516020611e7f83398151915255005b90508201358661120d565b601f19811694600f6000527f8d1108e10bcb7c27dddfc02ed9d693a074039d026cf4ea4240b40f7d581ac8029060005b8781106112e75750827f28b099eb575e23e32becd7c30dc8f9b2f98e370cdbf9841ea3338d9000402a25959697106112cd575b50508481811b01600f55611221565b830135600019600384901b60f8161c1916905585806112be565b8482013583559186019190850190850161128b565b600f6000527f8d1108e10bcb7c27dddfc02ed9d693a074039d026cf4ea4240b40f7d581ac802601f860160051c810191848710611359575b601f0160051c019084905b82811061134d5750506111d1565b6000815501849061133f565b9091508190611334565b60405162461bcd60e51b815260048101859052600e60248201526d43616e6e6f74206469737075746560901b6044820152606490fd5b905015876111a7565b90507f000000000000000000000000000000000000000000000000000000000000000016331486610889565b346101b7576020806003193601126101b7576004359060ff60005416610e05576113f6611c38565b6001600160a01b0361142b337f0000000000000000000000000000000000000000000000000000000000000000831614611c68565b60ff6006541660078110156103485760016114469114611ca4565b6114536007548410611d34565b61145c83611be8565b5060028101805460ff8116156116335760ff8160081c166115ff5761ff00191661010017905560010180546009546114949190611d06565b60095554600b54808202908282041482151715610cca5760008080936114c06127108395048092611d06565b95600a54165af16114cf611d74565b50156115c4576000808080847f00000000000000000000000000000000000000000000000000000000000000005af1611506611d74565b501561158e57907f3af368126e502abc57fe61217a2e2ffc37e0753a9bc218ab9976a49a996e444991604051908152a261153e611e39565b611557575b6001600080516020611e7f83398151915255005b600260ff1960065416176006557fbf1804db3af6b11f9d3cadcf0c65df2bad3a56d93c275062fdc655bedf351f77600080a1611543565b60405162461bcd60e51b815260048101839052600e60248201526d14185e5b595b9d0819985a5b195960921b6044820152606490fd5b60405162461bcd60e51b8152600481018390526013602482015272119959481d1c985b9cd9995c8819985a5b1959606a1b6044820152606490fd5b60405162461bcd60e51b815260048101869052600c60248201526b105b1c9958591e481c185a5960a21b6044820152606490fd5b60405162461bcd60e51b815260048101869052600d60248201526c139bdd0818dbdb5c1b195d1959609a1b6044820152606490fd5b346101b75760203660031901126101b7576004356001600160a01b038116908190036101b757600052600c602052602060ff604060002054166040519015158152f35b346101b75760003660031901126101b757602060ff600054166040519015158152f35b346101b75760003660031901126101b7576040517f00000000000000000000000000000000000000000000000000000000000000006001600160a01b03168152602090f35b346101b75760003660031901126101b7576020600854604051908152f35b346101b75760003660031901126101b757600a546040516001600160a01b039091168152602090f35b346101b75760203660031901126101b7576001600160a01b03600435818116918282036101b757600054908160081c1691823303610e7e5783156117e157610100600160a81b031990911660089190911b610100600160a81b03161760009081557f51c4874e0f23f262e04a38c51751336dde72126d67f53eb672aaff02996b3ef69080a3005b60405162461bcd60e51b8152602060048201526016602482015275496e76616c696420706175736572206164647265737360501b6044820152606490fd5b346101b75760003660031901126101b757600054600881901c6001600160a01b03163303610e7e5760ff8116156118835760ff19166000557f5db9ee0a495bf2e6ff9c91a7834c1ba4fdd244a5e8aa4e537bd38aeae4b073aa6020604051338152a1005b60405163dcdde9dd60e01b8152600490fd5b346101b75760203660031901126101b7576004356001600160a01b038116908190036101b757600052600d6020526020604060002054604051908152f35b346101b75760003660031901126101b7576020600b54604051908152f35b346101b7576020806003193601126101b757600435906000608060405161191781611b04565b60608152828482015282604082015282606082015201526007548210156119d25761194360a092611be8565b506040519161195183611b04565b61195a82611b42565b83526001820154918184019283526002810154906119b16003604087019260ff85161515845260ff606089019560081c161515855201549360808701948552604051978897828952519188015260c0870190611a5c565b93516040860152511515606085015251151560808401525160a08301520390f35b6064906040519062461bcd60e51b82526004820152600d60248201526c092dcecc2d8d2c840d2dcc8caf609b1b6044820152fd5b346101b75760003660031901126101b75760ff60065416600781101561034857602090600160405191148152f35b346101b75760003660031901126101b75760ff60065416906007821015610348576020918152f35b919082519283825260005b848110611a88575050826000602080949584010152601f8019910116010190565b602081830181015184830182015201611a67565b9181601f840112156101b75782359167ffffffffffffffff83116101b757602083818601950101116101b757565b90600182811c92168015611afa575b6020831014611ae457565b634e487b7160e01b600052602260045260246000fd5b91607f1691611ad9565b60a0810190811067ffffffffffffffff821117610d9d57604052565b90601f8019910116810190811067ffffffffffffffff821117610d9d57604052565b9060405191826000825492611b5684611aca565b908184526001948581169081600014611bc55750600114611b82575b5050611b8092500383611b20565b565b9093915060005260209081600020936000915b818310611bad575050611b8093508201013880611b72565b85548884018501529485019487945091830191611b95565b915050611b8094506020925060ff191682840152151560051b8201013880611b72565b600754811015611c2257600760005260021b7fa66cc928b5edb82af9bd49922954155ab7b0942694bea4ce44661d9a8736c6880190600090565b634e487b7160e01b600052603260045260246000fd5b600080516020611e7f8339815191526002815414611c565760029055565b604051633ee5aeb560e01b8152600490fd5b15611c6f57565b60405162461bcd60e51b815260206004820152600d60248201526c2737ba1034b734ba34b0ba37b960991b6044820152606490fd5b15611cab57565b60405162461bcd60e51b815260206004820152600a6024820152694e6f742061637469766560b01b6044820152606490fd5b67ffffffffffffffff8111610d9d57601f01601f191660200190565b91908201809211610cca57565b91908203918211610cca57565b908060209392818452848401376000828201840152601f01601f1916010190565b15611d3b57565b60405162461bcd60e51b8152602060048201526011602482015270496e76616c6964206d696c6573746f6e6560781b6044820152606490fd5b3d15611d9f573d90611d8582611cdd565b91611d936040519384611b20565b82523d6000602084013e565b606090565b15611dab57565b60405162461bcd60e51b815260206004820152600b60248201526a4e6f74206120706172747960a81b6044820152606490fd5b15611de557565b60405162461bcd60e51b815260206004820152600d60248201526c1499599d5b990819985a5b1959609a1b6044820152606490fd5b60045480421015611e3357611e30904290611d06565b90565b50600090565b60075460005b818110611e4d575050600190565b60ff6002611e5a83611be8565b50015460081c1615611e77576000198114610cca57600101611e3f565b505060009056fe9b779b17422d0df92223018b32b4d1fa46e071723d6817e2486d003becc55f00a2646970667358221220b86077934da44136196b85d13963e1e2ed2fc37eb79873992dbe28a5b7ae0c8264736f6c63430008140033",
  "linkReferences": {},
  "deployedLinkReferences": {}
}