{
  "_format": "hh-sol-artifact-1",
  "contractName": "AgentRegistry",
  "sourceName": "contracts/AgentRegistry.sol",
  "abi": [
    {
      "inputs": [],
      "stateMutability": "nonpayable",
      "type": "constructor"
    },
    {
      "anonymous": false,
      "inputs": [
        {
          "indexed": true,
          "internalType": "address",
          "name": "agent",
          "type": "address"
        },
        {
          "indexed": false,
          "internalType": "uint256",
          "name": "covenantsCompleted",
          "type": "uint256"
        },
        {
          "indexed": false,
          "internalType": "uint256",
          "name": "tasksCompleted",
          "type": "uint256"
        },
        {
          "indexed": false,
          "internalType": "uint256",
          "name": "totalEarned",
          "type": "uint256"
        }
      ],
      "name": "ActivityRecorded",
      "type": "event"
    },
    {
      "anonymous": false,
      "inputs": [
        {
          "indexed": true,
          "internalType": "address",
          "name": "agent",
          "type": "address"
        },
        {
          "indexed": false,
          "internalType": "uint256",
          "name": "timestamp",
          "type": "uint256"
        }
      ],
      "name": "AgentDeactivated",
      "type": "event"
    },
    {
      "anonymous": false,
      "inputs": [
        {
          "indexed": true,
          "internalType": "address",
          "name": "agent",
          "type": "address"
        },
        {
          "indexed": false,
          "internalType": "uint256",
          "name": "timestamp",
          "type": "uint256"
        }
      ],
      "name": "AgentReactivated",
      "type": "event"
    },
    {
      "anonymous": false,
      "inputs": [
        {
          "indexed": true,
          "internalType": "address",
          "name": "agent",
          "type": "address"
        },
        {
          "indexed": false,
          "internalType": "string",
          "name": "metadataURI",
          "type": "string"
        },
        {
          "indexed": false,
          "internalType": "uint256[]",
          "name": "skills",
          "type": "uint256[]"
        },
        {
          "indexed": false,
          "internalType": "uint256",
          "name": "timestamp",
          "type": "uint256"
        }
      ],
      "name": "AgentRegistered",
      "type": "event"
    },
    {
      "anonymous": false,
      "inputs": [
        {
          "indexed": true,
          "internalType": "address",
          "name": "agent",
          "type": "address"
        },
        {
          "indexed": false,
          "internalType": "string",
          "name": "metadataURI",
          "type": "string"
        },
        {
          "indexed": false,
          "internalType": "uint256[]",
          "name": "skills",
          "type": "uint256[]"
        },
        {
          "indexed": false,
          "internalType": "uint256",
          "name": "timestamp",
          "type": "uint256"
        }
      ],
      "name": "AgentUpdated",
      "type": "event"
    },
    {
      "anonymous": false,
      "inputs": [
        {
          "indexed": true,
          "internalType": "uint256",
          "name": "skillId",
          "type": "uint256"
        },
        {
          "indexed": false,
          "internalType": "string",
          "name": "name",
          "type": "string"
        },
        {
          "indexed": false,
          "internalType": "string",
          "name": "description",
          "type": "string"
        }
      ],
      "name": "SkillAdded",
      "type": "event"
    },
    {
      "anonymous": false,
      "inputs": [
        {
          "indexed": true,
          "internalType": "address",
          "name": "agent",
          "type": "address"
        },
        {
          "indexed": true,
          "internalType": "uint256",
          "name": "skillId",
          "type": "uint256"
        }
      ],
      "name": "SkillAssigned",
      "type": "event"
    },
    {
      "inputs": [
        {
          "internalType": "string",
          "name": "_name",
          "type": "string"
        },
        {
          "internalType": "string",
          "name": "_description",
          "type": "string"
        }
      ],
      "name": "addSkill",
      "outputs": [],
      "stateMutability": "nonpayable",
      "type": "function"
    },
    {
      "inputs": [
        {
          "internalType": "address",
          "name": "",
          "type": "address"
        }
      ],
      "name": "agents",
      "outputs": [
        {
          "internalType": "address",
          "name": "agentAddress",
          "type": "address"
        },
        {
          "internalType": "string",
          "name": "metadataURI",
          "type": "string"
        },
        {
          "internalType": "uint256",
          "name": "reputationScore",
          "type": "uint256"
        },
        {
          "internalType": "bool",
          "name": "isActive",
          "type": "bool"
        },
        {
          "internalType": "uint256",
          "name": "registeredAt",
          "type": "uint256"
        },
        {
          "internalType": "uint256",
          "name": "lastActive",
          "type": "uint256"
        },
        {
          "internalType": "uint256",
          "name": "covenantsCompleted",
          "type": "uint256"
        },
        {
          "internalType": "uint256",
          "name": "tasksCompleted",
          "type": "uint256"
        },
        {
          "internalType": "uint256",
          "name": "totalEarned",
          "type": "uint256"
        }
      ],
      "stateMutability": "view",
      "type": "function"
    },
    {
      "inputs": [
        {
          "internalType": "uint256",
          "name": "",
          "type": "uint256"
        }
      ],
      "name": "allAgents",
      "outputs": [
        {
          "internalType": "address",
          "name": "",
          "type": "address"
        }
      ],
      "stateMutability": "view",
      "type": "function"
    },
    {
      "inputs": [],
      "name": "deactivate",
      "outputs": [],
      "stateMutability": "nonpayable",
      "type": "function"
    },
    {
      "inputs": [
        {
          "internalType": "uint256",
          "name": "_skillId",
          "type": "uint256"
        }
      ],
      "name": "findAgentsBySkill",
      "outputs": [
        {
          "internalType": "address[]",
          "name": "",
          "type": "address[]"
        }
      ],
      "stateMutability": "view",
      "type": "function"
    },
    {
      "inputs": [
        {
          "internalType": "uint256[]",
          "name": "_skillIds",
          "type": "uint256[]"
        }
      ],
      "name": "findAgentsBySkills",
      "outputs": [
        {
          "internalType": "address[]",
          "name": "",
          "type": "address[]"
        }
      ],
      "stateMutability": "view",
      "type": "function"
    },
    {
      "inputs": [
        {
          "internalType": "address",
          "name": "_agent",
          "type": "address"
        }
      ],
      "name": "getAgent",
      "outputs": [
        {
          "components": [
            {
              "internalType": "address",
              "name": "agentAddress",
              "type": "address"
            },
            {
              "internalType": "string",
              "name": "metadataURI",
              "type": "string"
            },
            {
              "internalType": "uint256[]",
              "name": "skills",
              "type": "uint256[]"
            },
            {
              "internalType": "string[]",
              "name": "skillNames",
              "type": "string[]"
            },
            {
              "internalType": "uint256",
              "name": "reputationScore",
              "type": "uint256"
            },
            {
              "internalType": "bool",
              "name": "isActive",
              "type": "bool"
            },
            {
              "internalType": "uint256",
              "name": "registeredAt",
              "type": "uint256"
            },
            {
              "internalType": "uint256",
              "name": "lastActive",
              "type": "uint256"
            },
            {
              "internalType": "uint256",
              "name": "covenantsCompleted",
              "type": "uint256"
            },
            {
              "internalType": "uint256",
              "name": "tasksCompleted",
              "type": "uint256"
            },
            {
              "internalType": "uint256",
              "name": "totalEarned",
              "type": "uint256"
            }
          ],
          "internalType": "struct AgentRegistry.AgentProfile",
          "name": "",
          "type": "tuple"
        }
      ],
      "stateMutability": "view",
      "type": "function"
    },
    {
      "inputs": [],
      "name": "getAgentCount",
      "outputs": [
        {
          "internalType": "uint256",
          "name": "",
          "type": "uint256"
        }
      ],
      "stateMutability": "view",
      "type": "function"
    },
    {
      "inputs": [
        {
          "internalType": "address",
          "name": "_agent",
          "type": "address"
        }
      ],
      "name": "getAgentSkills",
      "outputs": [
        {
          "internalType": "uint256[]",
          "name": "",
          "type": "uint256[]"
        }
      ],
      "stateMutability": "view",
      "type": "function"
    },
    {
      "inputs": [],
      "name": "getAllSkills",
      "outputs": [
        {
          "components": [
            {
              "internalType": "uint256",
              "name": "id",
              "type": "uint256"
            },
            {
              "internalType": "string",
              "name": "name",
              "type": "string"
            },
            {
              "internalType": "string",
              "name": "description",
              "type": "string"
            },
            {
              "internalType": "uint256",
              "name": "agentCount",
              "type": "uint256"
            }
          ],
          "internalType": "struct AgentRegistry.Skill[]",
          "name": "",
          "type": "tuple[]"
        }
      ],
      "stateMutability": "view",
      "type": "function"
    },
    {
      "inputs": [
        {
          "internalType": "uint256",
          "name": "_limit",
          "type": "uint256"
        },
        {
          "internalType": "uint256",
          "name": "_withinSeconds",
          "type": "uint256"
        }
      ],
      "name": "getRecentlyActive",
      "outputs": [
        {
          "internalType": "address[]",
          "name": "",
          "type": "address[]"
        }
      ],
      "stateMutability": "view",
      "type": "function"
    },
    {
      "inputs": [
        {
          "internalType": "uint256",
          "name": "_limit",
          "type": "uint256"
        }
      ],
      "name": "getTopAgents",
      "outputs": [
        {
          "internalType": "address[]",
          "name": "",
          "type": "address[]"
        }
      ],
      "stateMutability": "view",
      "type": "function"
    },
    {
      "inputs": [
        {
          "internalType": "address",
          "name": "_agent",
          "type": "address"
        }
      ],
      "name": "isRegistered",
      "outputs": [
        {
          "internalType": "bool",
          "name": "",
          "type": "bool"
        }
      ],
      "stateMutability": "view",
      "type": "function"
    },
    {
      "inputs": [],
      "name": "nextSkillId",
      "outputs": [
        {
          "internalType": "uint256",
          "name": "",
          "type": "uint256"
        }
      ],
      "stateMutability": "view",
      "type": "function"
    },
    {
      "inputs": [],
      "name": "owner",
      "outputs": [
        {
          "internalType": "address",
          "name": "",
          "type": "address"
        }
      ],
      "stateMutability": "view",
      "type": "function"
    },
    {
      "inputs": [],
      "name": "reactivate",
      "outputs": [],
      "stateMutability": "nonpayable",
      "type": "function"
    },
    {
      "inputs": [
        {
          "internalType": "address",
          "name": "_agent",
          "type": "address"
        },
        {
          "internalType": "uint256",
          "name": "_covenantsCompleted",
          "type": "uint256"
        },
        {
          "internalType": "uint256",
          "name": "_tasksCompleted",
          "type": "uint256"
        },
        {
          "internalType": "uint256",
          "name": "_totalEarned",
          "type": "uint256"
        }
      ],
      "name": "recordActivity",
      "outputs": [],
      "stateMutability": "nonpayable",
      "type": "function"
    },
    {
      "inputs": [
        {
          "internalType": "string",
          "name": "_metadataURI",
          "type": "string"
        },
        {
          "internalType": "uint256[]",
          "name": "_skillIds",
          "type": "uint256[]"
        }
      ],
      "name": "registerAgent",
      "outputs": [],
      "stateMutability": "payable",
      "type": "function"
    },
    {
      "inputs": [],
      "name": "registrationFee",
      "outputs": [
        {
          "internalType": "uint256",
          "name": "",
          "type": "uint256"
        }
      ],
      "stateMutability": "view",
      "type": "function"
    },
    {
      "inputs": [
        {
          "internalType": "uint256",
          "name": "_newFee",
          "type": "uint256"
        }
      ],
      "name": "setRegistrationFee",
      "outputs": [],
      "stateMutability": "nonpayable",
      "type": "function"
    },
    {
      "inputs": [
        {
          "internalType": "string",
          "name": "",
          "type": "string"
        }
      ],
      "name": "skillNameToId",
      "outputs": [
        {
          "internalType": "uint256",
          "name": "",
          "type": "uint256"
        }
      ],
      "stateMutability": "view",
      "type": "function"
    },
    {
      "inputs": [
        {
          "internalType": "uint256",
          "name": "",
          "type": "uint256"
        },
        {
          "internalType": "uint256",
          "name": "",
          "type": "uint256"
        }
      ],
      "name": "skillToAgents",
      "outputs": [
        {
          "internalType": "address",
          "name": "",
          "type": "address"
        }
      ],
      "stateMutability": "view",
      "type": "function"
    },
    {
      "inputs": [
        {
          "internalType": "uint256",
          "name": "",
          "type": "uint256"
        }
      ],
      "name": "skills",
      "outputs": [
        {
          "internalType": "uint256",
          "name": "id",
          "type": "uint256"
        },
        {
          "internalType": "string",
          "name": "name",
          "type": "string"
        },
        {
          "internalType": "string",
          "name": "description",
          "type": "string"
        },
        {
          "internalType": "uint256",
          "name": "agentCount",
          "type": "uint256"
        }
      ],
      "stateMutability": "view",
      "type": "function"
    },
    {
      "inputs": [],
      "name": "totalAgents",
      "outputs": [
        {
          "internalType": "uint256",
          "name": "",
          "type": "uint256"
        }
      ],
      "stateMutability": "view",
      "type": "function"
    },
    {
      "inputs": [
        {
          "internalType": "string",
          "name": "_metadataURI",
          "type": "string"
        },
        {
          "internalType": "uint256[]",
          "name": "_skillIds",
          "type": "uint256[]"
        }
      ],
      "name": "updateProfile",
      "outputs": [],
      "stateMutability": "nonpayable",
      "type": "function"
    },
    {
      "inputs": [],
      "name": "withdrawFees",
      "outputs": [],
      "stateMutability": "nonpayable",
      "type": "function"
    },
    {
      "stateMutability": "payable",
      "type": "receive"
    }
  ],
  "bytecode": "0x60406080815234620003a7576001600555600060065566038d7ea4c68000600855600780546001600160a01b031916331790556200039962000040620003ac565b601a8152620000b96020917f536d61727420436f6e747261637420446576656c6f706d656e74000000000000838201526200007a620003e2565b90602782527f57726974696e6720616e64206175646974696e6720536f6c696469747920636f84830152666e74726163747360c81b868301526200044e565b62000126620000c7620003ac565b600d81526c4461746120416e616c7973697360981b83820152620000ea620003e2565b90602482527f4f6e2d636861696e20616e64206f66662d636861696e206461746120616e616c84830152637973697360e01b868301526200044e565b6200018e62000134620003ac565b600781526654726164696e6760c81b8382015262000151620003e2565b90602582527f446546692074726164696e6720616e64206172626974726167652073747261748483015264656769657360d81b868301526200044e565b620002006200019c620003ac565b601081526f21b7b73a32b73a1021b932b0ba34b7b760811b83820152620001c2620003e2565b90602682527f446f63756d656e746174696f6e2c20736f6369616c206d656469612c206d617284830152656b6574696e6760d01b868301526200044e565b620002656200020e620003ac565b60118152705365637572697479204175646974696e6760781b8382015262000235620003ac565b90601f82527f536d61727420636f6e7472616374207365637572697479207265766965777300848301526200044e565b620002d362000273620003ac565b601081526f4d616368696e65204c6561726e696e6760801b8382015262000299620003e2565b90602282527f41492f4d4c206d6f64656c20747261696e696e6720616e6420696e666572656e8483015261636560f01b868301526200044e565b6200032d620002e1620003ac565b60068152654465764f707360d01b83820152620002fd620003ac565b90601d82527f496e66726173747275637475726520616e64206465706c6f796d656e74000000848301526200044e565b62000337620003ac565b601481527f436f6d6d756e697479204d616e6167656d656e74000000000000000000000000828201527f446973636f72642c20666f72756d732c20676f7665726e616e636500000000006200038b620003ac565b92601b84528301526200044e565b516126879081620007fd8239f35b600080fd5b60408051919082016001600160401b03811183821017620003cc57604052565b634e487b7160e01b600052604160045260246000fd5b60405190606082016001600160401b03811183821017620003cc57604052565b60005b838110620004165750506000910152565b818101518382015260200162000405565b90602091620004428151809281855285808601910162000402565b601f01601f1916010190565b600554919291906000198214620007e657600182016005556040805194608086016001600160401b03811187821017620003cc578252838652602086018381528183880152600060608801528460005260016020528260002090875182555180519060018060401b038211620003cc57600183015490600182811c92168015620007db575b6020831014620006dc5781601f84931162000780575b50602090601f83116001146200070957600092620006fd575b50508160011b916000199060031b1c19161760018201555b82870151805190979060028301906001600160401b038111620003cc578154600181811c91168015620006f2575b6020821014620006dc57601f81116200068f575b506020601f821160011462000606579260039282606093620005f598979660008051602062002e848339815191529c9d9e600092620005fa575b50508160011b9160001990871b1c19161790555b01519101558583516020818751620005c68183858c0162000402565b8101600381520301902055620005e6835194848695865285019062000427565b90838203602085015262000427565b0390a2565b01519050388062000596565b601f1982169a8360005260206000209b60005b8181106200067657508360008051602062002e848339815191529b9c9d620005f59998979460039794606097600195106200065d575b505050811b019055620005aa565b015160001983891b60f8161c191690553880806200064f565b838301518e556001909d019c6020938401930162000619565b826000526020600020601f830160051c81019160208410620006d1575b601f0160051c01905b818110620006c457506200055c565b60008155600101620006b5565b9091508190620006ac565b634e487b7160e01b600052602260045260246000fd5b90607f169062000548565b01519050388062000502565b9250600184016000526020600020906000935b601f198416851062000764576001945083601f198116106200074a575b505050811b0160018201556200051a565b015160001960f88460031b161c1916905538808062000739565b818101518355602094850194600190930192909101906200071c565b909150600184016000526020600020601f840160051c81019160208510620007d0575b90601f859493920160051c01905b818110620007c05750620004e9565b60008155849350600101620007b1565b9091508190620007a3565b91607f1691620004d3565b634e487b7160e01b600052601160045260246000fdfe6080604052600436101561001b575b361561001957600080fd5b005b60003560e01c806308edbd141461186457806314c44e09146118465780633421ebfd146117ea57806334306d25146117cc578063346945fd14611687578063476343ee1461161057806350d15fbe1461159757806351b42b00146115225780635d3aa8131461140457806375ae1fef14610d8d5780638da5cb5b14610d6457806391cab63e14610a0a578063a113938f14610d33578063b1e29ea414610ba8578063b2bdc75f14610b6c578063b47172da14610b1b578063b6ef504e14610a98578063c320c72714610a6a578063c3c5a54714610a28578063c505371214610a0a578063ccc3bba81461084d578063d18611d61461077b578063d862ae871461049c578063e0bb12f71461045a578063fb3551ff146101f55763fd66091e0361000e57346101f05760203660031901126101f0576001600160a01b0380610160611f14565b16600052600060205260406000209081541661017e60018301611f64565b9160048101549060ff6005820154169060068101546007820154600883015491600a6009850154940154946101c5604051998a998a526101208060208c01528a019061200a565b96604089015215156060880152608087015260a086015260c085015260e08401526101008301520390f35b600080fd5b346101f05760203660031901126101f05761020e611f14565b600061014060405161021f81611e29565b82815260606020820152606060408201526060808201528260808201528260a08201528260c08201528260e08201528261010082015282610120820152015260018060a01b0316600052600060205260406000206040519061028082611e29565b80546001600160a01b0316825261029960018201611f64565b60208301526102aa600282016125a5565b604083015260038101546102bd816121bd565b906102cb6040519283611e60565b808252602082016003840160005260206000206000915b83831061043d5786600a878760608401526004810154608084015260ff600582015416151560a0840152600681015460c0840152600781015460e08401526008810154610100840152600981015461012084015201546101408201526040516020815260018060a01b0382511660208201526103886103726020840151610160604085015261018084019061200a565b6040840151838203601f190160608501526120ee565b606083015190601f19838203016080840152815180825260208201916020808360051b8301019401926000915b838310610410578680876101408b608081015160a085015260a0810151151560c085015260c081015160e085015260e08101516101008501526101008101516101208501526101208101518285015201516101608301520390f35b909192939460208061042e600193601f19868203018752895161200a565b970193019301919392906103b5565b60016020819261044c85611f64565b8152019201920191906102e2565b346101f05760203660031901126101f0576004356004548110156101f057610483602091612089565b905460405160039290921b1c6001600160a01b03168152f35b346101f05760403660031901126101f0576001600160401b036004358181116101f0576104cd903690600401611ed3565b6024358281116101f0576104e5903690600401611ed3565b916104fb60018060a01b0360075416331461256d565b6005549261050884612122565b60055560405161051781611e45565b8481526020928382019085825260408301908482526060840192600084528860005260019081885260406000209551865581860190518051908482116106f757819061056d826105678654611f2a565b8661226c565b8a90601f83116001146107185760009261070d575b5050600019600383901b1c191690831b1790555b60028501925180519283116106f7576105b3836105678654611f2a565b8790601f84116001146106635793838061065398956003956106469c99957f05991bfaa80c5f743d433bd10462fc1453a7c566aa9c81582e3dbab915dca4ff9e9c99600094610658575b50501b9160001990861b1c19161790555b5191015586604051838187516106278183858c01611ef1565b810160038152030190205560405194859460408652604086019061200a565b918483039085015261200a565b0390a2005b015192508f806105fd565b90601f9392931983169185600052896000209260005b8181106106e25750936106469a97937f05991bfaa80c5f743d433bd10462fc1453a7c566aa9c81582e3dbab915dca4ff9c9a97936106539a979383600398106106ca575b505050811b01905561060e565b015160001983881b60f8161c191690558d80806106bd565b82840151855593860193928b01928b01610679565b634e487b7160e01b600052604160045260246000fd5b015190508c80610582565b60008581528c8120879550929190601f198516908e5b828210610764575050841161074b575b505050811b019055610596565b015160001960f88460031b161c191690558c808061073e565b83850151865589979095019493840193018e61072e565b346101f05760003660031901126101f0573360005260006020526107ad60018060a01b03604060002054161515612341565b33600052600060205260ff6005604060002001541661081757336000526000602052604060002060058101600160ff198254161790556007429101556040514281527f72fa502a711d31da2101a8152ede15f4f332c7bef579c13ca9f8ef603a4480e660203392a2005b60405162461bcd60e51b815260206004820152600e60248201526d416c72656164792061637469766560901b6044820152606490fd5b346101f05760003660031901126101f05760055460001990818101908082116109c257610879826121bd565b916108876040519384611e60565b808352610896601f19916121bd565b0160005b8181106109d8575050600192835b82811061094b578385604051918291602090818401828552835180915260408501928060408360051b8801019501936000905b8382106108e85787870388f35b918496819592949698508190603f198b82030185528951908151815261092f61091d848401516080808786015284019061200a565b6040840151838203604085015261200a565b91606080910151910152980192019201879695939194926108db565b8060005260209085825260406000208382018281116109c2576109bd9360036109b7936040519261097b84611e45565b8154845261098a8c8301611f64565b9084015261099a60028201611f64565b6040840152015460608201526109b0828961221e565b528661221e565b50612122565b6108a8565b634e487b7160e01b600052601160045260246000fd5b6020906040516109e781611e45565b60008152606060008491808385015280604085015283015282870101520161089a565b346101f05760003660031901126101f0576020600654604051908152f35b346101f05760203660031901126101f0576001600160a01b03610a49611f14565b166000526000602052602060ff600560406000200154166040519015158152f35b346101f05760203660031901126101f057610a9060018060a01b0360075416331461256d565b600435600855005b346101f0576020806003193601126101f05760043560005260028152604060002090604051908181845491828152019360005281600020916000905b828210610afb57610af785610aeb81890382611e60565b60405191829182612045565b0390f35b83546001600160a01b031686529485019460019384019390910190610ad4565b346101f05760203660031901126101f0576001600160a01b03610b3c611f14565b166000526000602052610af7610b5860026040600020016125a5565b6040519182916020835260208301906120ee565b346101f05760203660031901126101f0576004356001600160401b0381116101f057610aeb610ba2610af7923690600401611d97565b906123bd565b346101f0576020806003193601126101f05760048054903581811115610d2d575080915b610bd58261238b565b9160005b818110610cff57505060005b8251811015610cae5760018082018083116109c257815b610c11575b5050610c0c90612122565b610be5565b8451811015610ca9578190610c6d906001600160a01b0380610c33838a61221e565b51166000526000875260046040600020015481610c50888b61221e565b51166000526000885260046040600020015410610c735750612122565b90610bfc565b80610c7e878a61221e565b511690610c8b838a61221e565b5116610c97878a61221e565b52610ca2828961221e565b52886109b7565b610c01565b8284610cb98161238b565b9160005b828110610cd25760405180610af78682612045565b610cfa906001600160a01b03610ce8828561221e565b5116610cf4828761221e565b52612122565b610cbd565b80610d0c610d2892612089565b905460039190911b1c6001600160a01b0316610cf4828761221e565b610bd9565b91610bcc565b346101f057610d413661202f565b906000526002602052604060002080548210156101f057602091610483916120d6565b346101f05760003660031901126101f0576007546040516001600160a01b039091168152602090f35b610d9636611dc7565b9060009392935b8281106113be575033600052600060205260ff600560406000200154166113845760085480341061134c578034116112f1575b50610dda826121d4565b60005b8381106112615750604051610df181611e29565b338152610dff368787611e9c565b9160208201928352610e10856121bd565b610e1d6040519182611e60565b858152602081018660051b8601903682116101f05786905b828210611251575050506040830152606082015260006080820152600160a08201524260c08201524260e082015260006101008201526000610120820152600061014082015233600052600060205260406000209160018060a01b038251166bffffffffffffffffffffffff60a01b845416178355518051906001600160401b0382116106f7578190610ed882610ecf6001880154611f2a565b6001880161226c565b602090601f83116001146111df576000926111d4575b50508160011b916000199060031b1c19161760018301555b60408101518051906001600160401b0382116106f75760206002850191610f2d84846122b1565b0190600052602060002060005b8381106111c057505050506060810151805190600160401b82116106f7576003840154826003860155808310611148575b5060200190600384016000526020600020916000905b8282106110655750505050610140816080600a93015160048501556005840160a0820151151560ff8019835416911617905560c0810151600685015560e08101516007850155610100810151600885015561012081015160098501550151910155600454600160401b8110156106f7577fdf1275f67e995789184a7a608f6c1b71953a305670459d1bb1f05956db47c05d936110476110298360016106539501600455612089565b81546001600160a01b0360039290921b91821b19163390911b179055565b611052600654612122565b60065560405193849333974293866122e5565b80518051906001600160401b0382116106f75761108c826110868854611f2a565b8861226c565b602090601f83116001146110d85792826001949360209386956000926110cd575b5050600019600383901b1c191690841b1787555b01940191019092610f81565b015190508f806110ad565b908660005260206000209160005b601f1985168110611130575083602093600196938796938794601f19811610611117575b505050811b0187556110c1565b015160001960f88460031b161c191690558f808061110a565b919260206001819286850151815501940192016110e6565b600385016000526020600020908382015b8183018110611169575050610f6b565b8061117660019254611f2a565b80611183575b5001611159565b601f811183146111995750600081555b8c61117c565b6000908282526111b7601f60208420920160051c8201858301612255565b81835555611193565b600190602084519401938184015501610f3a565b015190508880610eee565b9250600185016000526020600020906000935b601f1984168510611236576001945083601f1981161061121d575b505050811b016001830155610f06565b015160001960f88460031b161c1916905588808061120d565b818101518355602094850194600190930192909101906111f2565b8135815260209182019101610e35565b806112706112ec928686612131565b3560005260018060205261128981604060002001611f64565b611293838661221e565b5261129e828561221e565b506112aa828787612131565b3560005260026020526112c1336040600020612232565b6112cc828787612131565b3560005260205260036040600020016112e58154612122565b9055612122565b610ddd565b60008080611300819434612180565b335af161130b61218d565b50156113175784610dd0565b60405162461bcd60e51b815260206004820152600d60248201526c1499599d5b990819985a5b1959609a1b6044820152606490fd5b60405162461bcd60e51b815260206004820152601060248201526f496e73756666696369656e742066656560801b6044820152606490fd5b60405162461bcd60e51b8152602060048201526012602482015271105b1c9958591e481c9959da5cdd195c995960721b6044820152606490fd5b806113cd6113e4928585612131565b351515806113e9575b6113df90612141565b612122565b610d9d565b506113df6113f8828686612131565b356005541190506113d6565b346101f0576114123661202f565b60045461141e8161238b565b9261142b60009342612180565b60005b838110611477575b505050506114438161238b565b9160005b82811061145c5760405180610af78682612045565b611472906001600160a01b03610ce8828561221e565b611447565b61148081612089565b60018060a01b03809254600392831b1c1660005260206000815260ff6005604060002001541690816114f8575b506114c3575b50506114be90612122565b61142e565b908296916114d36114e394612089565b9054911b1c16610cf4828961221e565b93828510156114f35786806114b3565b611436565b600091508361150686612089565b905490851b1c16825252836007604060002001541015896114ad565b346101f05760003660031901126101f05733600052600060205261155060ff60056040600020015416612341565b336000526000602052600560406000200160ff1981541690556040514281527f0908d0024a3278cb165ed9b5e370dfd4b2c566122efebb355afb5b56e224915860203392a2005b346101f05760203660031901126101f0576004356000526001602052604060002080546115c660018301611f64565b9161160660036115d860028401611f64565b920154916115f8604051958695865260806020870152608086019061200a565b90848203604086015261200a565b9060608301520390f35b346101f05760003660031901126101f057600080808060018060a01b036007541661163c81331461256d565b47905af161164861218d565b501561165057005b60405162461bcd60e51b815260206004820152600f60248201526e15da5d1a191c985dc819985a5b1959608a1b6044820152606490fd5b346101f05760803660031901126101f0576001600160a01b036116a8611f14565b1680600052600060205260ff600560406000200154161561179457806000526000602052604060002060088101906116e3602435835461237e565b80925560098101916116f8604435845461237e565b809355600a820161170c606435825461237e565b809155426007840155600a820293828504600a14831517156109c2576005810293818504600514821517156109c257600461177e61176d6060977fac3c2beb7724a927c9efcb9aa36d9cc3215467ad97652337ec58c5527ba70e539961237e565b670de0b6b3a764000086049061237e565b91015560405192835260208301526040820152a2005b60405162461bcd60e51b815260206004820152601060248201526f4167656e74206e6f742061637469766560801b6044820152606490fd5b346101f05760003660031901126101f0576020600554604051908152f35b346101f05760203660031901126101f0576004356001600160401b0381116101f057611833602061182081933690600401611ed3565b8160405193828580945193849201611ef1565b8101600381520301902054604051908152f35b346101f05760003660031901126101f0576020600854604051908152f35b346101f05761187236611dc7565b92909133600052600060205261189260ff60056040600020015416612341565b60005b848110611d5857503360005260006020526040600020926000936002908181015b80548710156119f9576118c987826120d6565b969054600397881b1c95866000528460205260406000209960005b8b54808210156119e3578a906118fa838f6120d6565b90546001600160a01b03933392901b1c83161461192157505061191c90612122565b6118e4565b60009d9192969b9499979c959a93989d19968782019182116109c25761195c8461194e61197b94866120d6565b905490891b1c1691846120d6565b90919082549060031b9160018060a01b03809116831b921b1916179055565b805480156119cd5786019161199083836120d6565b9091825491871b1b1916905555600052600160205260406000200180549283156109c2576119c093019055612122565b95909293949691966118b6565b634e487b7160e01b600052603160045260246000fd5b50509499509492979095506119c0919650612122565b91879392611a06856121d4565b9160005b868110611ce95750506001600160401b0386116106f75760018301611a3987611a338354611f2a565b8361226c565b866000601f8211600114611c8257600091611c77575b508760011b906000198960031b1c19161790555b6001600160401b0385116106f757611a7b85826122b1565b839060005260206000209060005b868110611c6357505050805190600160401b82116106f7576003830154826003850155808310611beb575b5060200190600383016000526020600020916000905b828210611b1057877f4343b17cbad9b3255be7285fe10f12ee275fa867fad18ab3297ac8456cc99f7c88886106538d8a60074291015560405193849333974293866122e5565b80518051906001600160401b0382116106f757611b31826110868854611f2a565b602090601f8311600114611b7d579282600194936020938695600092611b72575b5050600019600383901b1c191690841b1787555b01940191019092611aca565b015190508e80611b52565b90601f198316918760005260206000209260005b818110611bd35750936020936001969387969383889510611bba575b505050811b018755611b66565b015160001960f88460031b161c191690558e8080611bad565b92936020600181928786015181550195019301611b91565b600384016000526020600020908382015b8183018110611c0c575050611ab4565b80611c1960019254611f2a565b80611c26575b5001611bfc565b601f81118314611c3c5750600081555b8b611c1f565b600090828252611c5a601f60208420920160051c8201858301612255565b81835555611c36565b600190602083359301928185015501611a89565b905088013589611a4f565b60008381526020812092505b8a601f198b168210611cd157505088601f19811610611cb7575b5050600187811b019055611a63565b89013560001960038a901b60f8161c191690558880611ca8565b60018394602093948493013581550193019101611c8e565b80611cf8611d53928989612131565b35600052600180602052611d1181604060002001611f64565b611d1b838861221e565b52611d26828761221e565b50611d32828a8a612131565b3560005283602052611d48336040600020612232565b6112cc828a8a612131565b611a0a565b80611d6c611d7d9287879897969596612131565b35151580611d88576113df90612141565b939293919091611895565b506113df6113f8828789612131565b9181601f840112156101f0578235916001600160401b0383116101f0576020808501948460051b0101116101f057565b60406003198201126101f057600435916001600160401b038084116101f057826023850112156101f0578360040135938185116101f05783602486830101116101f05760240193926024359182116101f057611e2591600401611d97565b9091565b61016081019081106001600160401b038211176106f757604052565b608081019081106001600160401b038211176106f757604052565b90601f801991011681019081106001600160401b038211176106f757604052565b6001600160401b0381116106f757601f01601f191660200190565b929192611ea882611e81565b91611eb66040519384611e60565b8294818452818301116101f0578281602093846000960137010152565b9080601f830112156101f057816020611eee93359101611e9c565b90565b60005b838110611f045750506000910152565b8181015183820152602001611ef4565b600435906001600160a01b03821682036101f057565b90600182811c92168015611f5a575b6020831014611f4457565b634e487b7160e01b600052602260045260246000fd5b91607f1691611f39565b9060405191826000825492611f7884611f2a565b908184526001948581169081600014611fe75750600114611fa4575b5050611fa292500383611e60565b565b9093915060005260209081600020936000915b818310611fcf575050611fa293508201013880611f94565b85548884018501529485019487945091830191611fb7565b915050611fa294506020925060ff191682840152151560051b8201013880611f94565b9060209161202381518092818552858086019101611ef1565b601f01601f1916010190565b60409060031901126101f0576004359060243590565b6020908160408183019282815285518094520193019160005b82811061206c575050505090565b83516001600160a01b03168552938101939281019260010161205e565b6004548110156120c05760046000527f8a35acfbc15ff81a39ae7d344fd709f28e8600b4aa8c65c6b64bfe7fe36bd19b0190600090565b634e487b7160e01b600052603260045260246000fd5b80548210156120c05760005260206000200190600090565b90815180825260208080930193019160005b82811061210e575050505090565b835185529381019392810192600101612100565b60001981146109c25760010190565b91908110156120c05760051b0190565b1561214857565b60405162461bcd60e51b815260206004820152601060248201526f125b9d985b1a59081cdada5b1b08125160821b6044820152606490fd5b919082039182116109c257565b3d156121b8573d9061219e82611e81565b916121ac6040519384611e60565b82523d6000602084013e565b606090565b6001600160401b0381116106f75760051b60200190565b906121de826121bd565b6121eb6040519182611e60565b82815280926121fc601f19916121bd565b019060005b82811061220d57505050565b806060602080938501015201612201565b80518210156120c05760209160051b010190565b90815491600160401b8310156106f7578261195c916001611fa2950181556120d6565b818110612260575050565b60008155600101612255565b9190601f811161227b57505050565b611fa2926000526020600020906020601f840160051c830193106122a7575b601f0160051c0190612255565b909150819061229a565b90600160401b81116106f7578154908083558181106122cf57505050565b611fa29260005260206000209182019101612255565b959493918091606088528160608901526080880137600060808288010152601f8019910116850191608086840301602087015281608084015260018060fb1b0382116101f05760409260a09260051b8092848301370101930152565b1561234857565b60405162461bcd60e51b815260206004820152600e60248201526d139bdd081c9959da5cdd195c995960921b6044820152606490fd5b919082018092116109c257565b90612395826121bd565b6123a26040519182611e60565b82815280926123b3601f19916121bd565b0190602036910137565b91908015612542576000908335825260209160028352604091828220908351808387829554938481520190865287862092865b898282106125235750505061240792500383611e60565b612411825161238b565b928094815b84518110156124db576001600160a01b0380612432838861221e565b5116845283895260ff600584862001541615612464576001805b828d89868a808610612499575b505050505050612473575b5061246e90612122565b612416565b81976124929161248661246e948961221e565b5116610cf4828a61221e565b9690612464565b6124ba946124ab87936124b39561221e565b511693612131565b35906125f4565b156124cd576124c890612122565b61244c565b50508338828d89868a612459565b50509450505093506124ec8161238b565b915b8181106124fc575090925050565b61251e906001600160a01b03612512828861221e565b5116610cf4828661221e565b6124ee565b85546001600160a01b03168452600195860195889550930192016123f0565b509050604051602081018181106001600160401b038211176106f75760405260008152600036813790565b1561257457565b60405162461bcd60e51b81526020600482015260096024820152682737ba1037bbb732b960b91b6044820152606490fd5b9060405191828154918282526020928383019160005283600020936000905b8282106125da57505050611fa292500383611e60565b8554845260019586019588955093810193909101906125c4565b6001600160a01b03166000908152602081905260408120600201805492915b8381106126235750505050600090565b8261262e82846120d6565b90549060031b1c146126485761264390612122565b612613565b5050505060019056fea2646970667358221220047b52bbfb601cdbb74e7cd9bd1b35adbe8e8a1670bb0b080ed36b8942891f9964736f6c6343000814003305991bfaa80c5f743d433bd10462fc1453a7c566aa9c81582e3dbab915dca4ff",
  "linkReferences": {},
  "deployedLinkReferences": {}
}