{
  "_format": "hh-sol-artifact-1",
  "contractName": "AgentCovenant",
  "sourceName": "contracts/AgentCovenant.sol",
  "abi": [
    {
      "inputs": [
        {
          "internalType": "address",
          "name": "_initiator",
          "type": "address"
        },
        {
          "internalType": "address",
          "name": "_counterparty",
          "type": "address"
        },
        {
          "internalType": "bytes32",
          "name": "_covenantType",
          "type": "bytes32"
        },
        {
          "internalType": "string",
          "name": "_termsIPFSHash",
          "type": "string"
        },
        {
          "internalType": "uint256",
          "name": "_duration",
          "type": "uint256"
        },
        {
          "internalType": "uint256",
          "name": "_stakeAmount",
          "type": "uint256"
        },
        {
          "internalType": "address",
          "name": "_feeRecipient",
          "type": "address"
        },
        {
          "internalType": "uint256",
          "name": "_protocolFeeBps",
          "type": "uint256"
        }
      ],
      "stateMutability": "payable",
      "type": "constructor"
    },
    {
      "anonymous": false,
      "inputs": [
        {
          "indexed": true,
          "internalType": "address",
          "name": "by",
          "type": "address"
        }
      ],
      "name": "CovenantAccepted",
      "type": "event"
    },
    {
      "anonymous": false,
      "inputs": [],
      "name": "CovenantActivated",
      "type": "event"
    },
    {
      "anonymous": false,
      "inputs": [
        {
          "indexed": true,
          "internalType": "address",
          "name": "by",
          "type": "address"
        },
        {
          "indexed": false,
          "internalType": "string",
          "name": "reason",
          "type": "string"
        }
      ],
      "name": "CovenantBreached",
      "type": "event"
    },
    {
      "anonymous": false,
      "inputs": [],
      "name": "CovenantFulfilled",
      "type": "event"
    },
    {
      "anonymous": false,
      "inputs": [
        {
          "indexed": true,
          "internalType": "address",
          "name": "by",
          "type": "address"
        },
        {
          "indexed": false,
          "internalType": "string",
          "name": "reason",
          "type": "string"
        }
      ],
      "name": "DisputeRaised",
      "type": "event"
    },
    {
      "anonymous": false,
      "inputs": [
        {
          "indexed": true,
          "internalType": "address",
          "name": "resolver",
          "type": "address"
        },
        {
          "indexed": false,
          "internalType": "uint256",
          "name": "initiatorAward",
          "type": "uint256"
        },
        {
          "indexed": false,
          "internalType": "uint256",
          "name": "counterpartyAward",
          "type": "uint256"
        }
      ],
      "name": "DisputeResolved",
      "type": "event"
    },
    {
      "anonymous": false,
      "inputs": [
        {
          "indexed": true,
          "internalType": "address",
          "name": "by",
          "type": "address"
        },
        {
          "indexed": false,
          "internalType": "uint256",
          "name": "amount",
          "type": "uint256"
        }
      ],
      "name": "FundsWithdrawn",
      "type": "event"
    },
    {
      "anonymous": false,
      "inputs": [
        {
          "indexed": true,
          "internalType": "uint256",
          "name": "index",
          "type": "uint256"
        },
        {
          "indexed": false,
          "internalType": "string",
          "name": "description",
          "type": "string"
        },
        {
          "indexed": false,
          "internalType": "uint256",
          "name": "payment",
          "type": "uint256"
        }
      ],
      "name": "MilestoneAdded",
      "type": "event"
    },
    {
      "anonymous": false,
      "inputs": [
        {
          "indexed": true,
          "internalType": "uint256",
          "name": "index",
          "type": "uint256"
        },
        {
          "indexed": true,
          "internalType": "address",
          "name": "by",
          "type": "address"
        }
      ],
      "name": "MilestoneCompleted",
      "type": "event"
    },
    {
      "anonymous": false,
      "inputs": [
        {
          "indexed": true,
          "internalType": "uint256",
          "name": "index",
          "type": "uint256"
        },
        {
          "indexed": false,
          "internalType": "uint256",
          "name": "amount",
          "type": "uint256"
        }
      ],
      "name": "MilestonePaid",
      "type": "event"
    },
    {
      "inputs": [],
      "name": "acceptCovenant",
      "outputs": [],
      "stateMutability": "nonpayable",
      "type": "function"
    },
    {
      "inputs": [
        {
          "internalType": "string",
          "name": "_description",
          "type": "string"
        },
        {
          "internalType": "uint256",
          "name": "_paymentAmount",
          "type": "uint256"
        }
      ],
      "name": "addMilestone",
      "outputs": [],
      "stateMutability": "nonpayable",
      "type": "function"
    },
    {
      "inputs": [
        {
          "internalType": "address",
          "name": "",
          "type": "address"
        }
      ],
      "name": "agentCommitments",
      "outputs": [
        {
          "internalType": "bytes32",
          "name": "",
          "type": "bytes32"
        }
      ],
      "stateMutability": "view",
      "type": "function"
    },
    {
      "inputs": [
        {
          "internalType": "uint256",
          "name": "_milestoneIndex",
          "type": "uint256"
        }
      ],
      "name": "completeMilestone",
      "outputs": [],
      "stateMutability": "nonpayable",
      "type": "function"
    },
    {
      "inputs": [],
      "name": "counterparty",
      "outputs": [
        {
          "internalType": "address",
          "name": "",
          "type": "address"
        }
      ],
      "stateMutability": "view",
      "type": "function"
    },
    {
      "inputs": [
        {
          "internalType": "string",
          "name": "_reason",
          "type": "string"
        }
      ],
      "name": "declareBreach",
      "outputs": [],
      "stateMutability": "nonpayable",
      "type": "function"
    },
    {
      "inputs": [],
      "name": "disputeReason",
      "outputs": [
        {
          "internalType": "string",
          "name": "",
          "type": "string"
        }
      ],
      "stateMutability": "view",
      "type": "function"
    },
    {
      "inputs": [],
      "name": "disputeResolver",
      "outputs": [
        {
          "internalType": "address",
          "name": "",
          "type": "address"
        }
      ],
      "stateMutability": "view",
      "type": "function"
    },
    {
      "inputs": [],
      "name": "disputedAt",
      "outputs": [
        {
          "internalType": "uint256",
          "name": "",
          "type": "uint256"
        }
      ],
      "stateMutability": "view",
      "type": "function"
    },
    {
      "inputs": [],
      "name": "feeRecipient",
      "outputs": [
        {
          "internalType": "address",
          "name": "",
          "type": "address"
        }
      ],
      "stateMutability": "view",
      "type": "function"
    },
    {
      "inputs": [
        {
          "internalType": "uint256",
          "name": "_index",
          "type": "uint256"
        }
      ],
      "name": "getMilestone",
      "outputs": [
        {
          "components": [
            {
              "internalType": "string",
              "name": "description",
              "type": "string"
            },
            {
              "internalType": "uint256",
              "name": "paymentAmount",
              "type": "uint256"
            },
            {
              "internalType": "bool",
              "name": "completed",
              "type": "bool"
            },
            {
              "internalType": "bool",
              "name": "paid",
              "type": "bool"
            },
            {
              "internalType": "uint256",
              "name": "completedAt",
              "type": "uint256"
            }
          ],
          "internalType": "struct AgentCovenant.Milestone",
          "name": "",
          "type": "tuple"
        }
      ],
      "stateMutability": "view",
      "type": "function"
    },
    {
      "inputs": [],
      "name": "getMilestoneCount",
      "outputs": [
        {
          "internalType": "uint256",
          "name": "",
          "type": "uint256"
        }
      ],
      "stateMutability": "view",
      "type": "function"
    },
    {
      "inputs": [
        {
          "internalType": "address",
          "name": "",
          "type": "address"
        }
      ],
      "name": "hasAccepted",
      "outputs": [
        {
          "internalType": "bool",
          "name": "",
          "type": "bool"
        }
      ],
      "stateMutability": "view",
      "type": "function"
    },
    {
      "inputs": [],
      "name": "initiator",
      "outputs": [
        {
          "internalType": "address",
          "name": "",
          "type": "address"
        }
      ],
      "stateMutability": "view",
      "type": "function"
    },
    {
      "inputs": [],
      "name": "isActive",
      "outputs": [
        {
          "internalType": "bool",
          "name": "",
          "type": "bool"
        }
      ],
      "stateMutability": "view",
      "type": "function"
    },
    {
      "inputs": [
        {
          "internalType": "uint256",
          "name": "",
          "type": "uint256"
        }
      ],
      "name": "milestones",
      "outputs": [
        {
          "internalType": "string",
          "name": "description",
          "type": "string"
        },
        {
          "internalType": "uint256",
          "name": "paymentAmount",
          "type": "uint256"
        },
        {
          "internalType": "bool",
          "name": "completed",
          "type": "bool"
        },
        {
          "internalType": "bool",
          "name": "paid",
          "type": "bool"
        },
        {
          "internalType": "uint256",
          "name": "completedAt",
          "type": "uint256"
        }
      ],
      "stateMutability": "view",
      "type": "function"
    },
    {
      "inputs": [
        {
          "internalType": "uint256",
          "name": "_milestoneIndex",
          "type": "uint256"
        }
      ],
      "name": "payMilestone",
      "outputs": [],
      "stateMutability": "nonpayable",
      "type": "function"
    },
    {
      "inputs": [],
      "name": "protocolFeeBps",
      "outputs": [
        {
          "internalType": "uint256",
          "name": "",
          "type": "uint256"
        }
      ],
      "stateMutability": "view",
      "type": "function"
    },
    {
      "inputs": [
        {
          "internalType": "string",
          "name": "_reason",
          "type": "string"
        }
      ],
      "name": "raiseDispute",
      "outputs": [],
      "stateMutability": "nonpayable",
      "type": "function"
    },
    {
      "inputs": [],
      "name": "remainingBalance",
      "outputs": [
        {
          "internalType": "uint256",
          "name": "",
          "type": "uint256"
        }
      ],
      "stateMutability": "view",
      "type": "function"
    },
    {
      "inputs": [
        {
          "internalType": "uint256",
          "name": "_initiatorAward",
          "type": "uint256"
        },
        {
          "internalType": "uint256",
          "name": "_counterpartyAward",
          "type": "uint256"
        }
      ],
      "name": "resolveDispute",
      "outputs": [],
      "stateMutability": "nonpayable",
      "type": "function"
    },
    {
      "inputs": [],
      "name": "status",
      "outputs": [
        {
          "internalType": "enum AgentCovenant.CovenantStatus",
          "name": "",
          "type": "uint8"
        }
      ],
      "stateMutability": "view",
      "type": "function"
    },
    {
      "inputs": [],
      "name": "terms",
      "outputs": [
        {
          "internalType": "bytes32",
          "name": "covenantType",
          "type": "bytes32"
        },
        {
          "internalType": "string",
          "name": "termsIPFSHash",
          "type": "string"
        },
        {
          "internalType": "uint256",
          "name": "createdAt",
          "type": "uint256"
        },
        {
          "internalType": "uint256",
          "name": "expiresAt",
          "type": "uint256"
        },
        {
          "internalType": "uint256",
          "name": "stakeAmount",
          "type": "uint256"
        }
      ],
      "stateMutability": "view",
      "type": "function"
    },
    {
      "inputs": [],
      "name": "timeRemaining",
      "outputs": [
        {
          "internalType": "uint256",
          "name": "",
          "type": "uint256"
        }
      ],
      "stateMutability": "view",
      "type": "function"
    },
    {
      "inputs": [],
      "name": "totalMilestonePayments",
      "outputs": [
        {
          "internalType": "uint256",
          "name": "",
          "type": "uint256"
        }
      ],
      "stateMutability": "view",
      "type": "function"
    },
    {
      "inputs": [],
      "name": "withdrawRemaining",
      "outputs": [],
      "stateMutability": "nonpayable",
      "type": "function"
    },
    {
      "stateMutability": "payable",
      "type": "receive"
    }
  ],
  "bytecode": "0x604060c0815262001f3e908138038062000019816200036b565b938439820191610100818403126200036657620000368162000391565b9060206200004681830162000391565b848301516060840151909391906001600160401b03908181116200036657830194601f91898388011215620003665786518181116200032557601f1997620000948286018a1689016200036b565b9b828d528883830101116200036657879060005b838110620003515750506000918c010152608085015160a08601519460e0620000d460c0890162000391565b97015160808b905260a091909152600980546001600160a01b0319166001600160a01b03988916179055600a553460085542908101939084106200033b5789519260a084018481108482111762000325578b528084528b8885015260808b85019442865260608101968752019586526000558a51918211620003255760019788548981811c911680156200031a575b898210146200030457828111620002b9575b50879183116001146200025057508190600b98999a9b60009262000244575b5050600019600383901b1c191690881b1787555b51600255516003555160045560ff199485600554166005551660005252826000209182541617905551611b979081620003a782396080518181816101980152818161061e015281816106ee0152818161081901528181610a740152818161100a0152818161128b0152611532015260a051818181610531015281816106690152818161092e01528181610d8d0152818161123f01526113640152f35b01519050388062000194565b82169a88600052876000209b60005b818110620002a3575091899a9b9c9184600b9b95941062000289575b505050811b018755620001a8565b015160001960f88460031b161c191690553880806200027b565b828401518e559c8a019c9289019289016200025f565b89600052886000208380860160051c8201928b8710620002fa575b0160051c01908a905b828110620002ed57505062000175565b60008155018a90620002dd565b92508192620002d4565b634e487b7160e01b600052602260045260246000fd5b90607f169062000163565b634e487b7160e01b600052604160045260246000fd5b634e487b7160e01b600052601160045260246000fd5b818101830151818f01840152899201620000a8565b600080fd5b6040519190601f01601f191682016001600160401b038111838210176200032557604052565b51906001600160a01b0382168203620003665756fe608080604052600436101561002c575b50361561001b57600080fd5b610027346008546119dc565b600855005b60003560e01c908163200d2ed2146117475750806322f3e2d4146117195780632442e1cb1461160457806335659fb8146115e65780633670a7bd146115a8578063469048401461157f5780634a4d41eb146115615780635c39fcc11461151c57806369b4d6fe146114d957806369db0a7e14611267578063725a3b4b14610fca5780637bf6c10414610ee45780637d0d50dc14610d7a57806384b62c2814610a3a578063852ea203146109745780638f4cf24714610956578063a8d52f7a146107e5578063bdc84ac314610560578063c3df65461461051b578063d24126d9146104fd578063d5025625146103f6578063da25de3c146103d8578063e3cfef60146103b5578063e89e4ed614610335578063ee38db95146101855763f5a3f4af14610157573861000f565b3461018057600036600319011261018057600d546040516001600160a01b039091168152602090f35b600080fd5b34610180576000366003190112610180577f00000000000000000000000000000000000000000000000000000000000000006001600160a01b038116906101cd33831461194b565b60ff60055416600781101590816103115760058114918215610327575b8215610300575b505080156102f5575b156102ba576008549081156102885760008080848194826008555af161021e611a57565b50156102515760207feaff4b37086828766ad3268786972c0cd24259d4c87a80f9d3963a3c3d999b0d91604051908152a2005b60405162461bcd60e51b815260206004820152600f60248201526e15da5d1a191c985dc819985a5b1959608a1b6044820152606490fd5b60405162461bcd60e51b815260206004820152600a6024820152694e6f2062616c616e636560b01b6044820152606490fd5b60405162461bcd60e51b815260206004820152601360248201527210d85b9b9bdd081dda5d1a191c985dc81e595d606a1b6044820152606490fd5b5060035442116101fa565b9091506103115760021483806101f1565b634e487b7160e01b600052602160045260246000fd5b5060068114915060006101ea565b34610180576020366003190112610180576004356006548110156101805761035f610391916118fb565b5061036981611855565b9060018101549060ff600360028301549201549160405195869560a0875260a087019061176f565b9360208601528181161515604086015260081c161515606084015260808301520390f35b346101805760003660031901126101805760206103d0611afd565b604051908152f35b34610180576000366003190112610180576020600854604051908152f35b346101805760003660031901126101805760005460405190600082600191825492610420846117dd565b808452938181169081156104db575060011461047e575b5061044492500383611833565b6002546003546004549061046a604051958695865260a0602087015260a086019061176f565b926040850152606084015260808301520390f35b600081815291507fb10e2d527612073b26eecdfd717e6a320cf44b4afac2b0732d9fcbe2b7fa0cf65b8483106104c05750610444935050810160200185610437565b81935090816020925483858a010152019101909185926104a7565b90506020925061044494915060ff191682840152151560051b82010185610437565b34610180576000366003190112610180576020600f54604051908152f35b34610180576000366003190112610180576040517f00000000000000000000000000000000000000000000000000000000000000006001600160a01b03168152602090f35b346101805760403660031901126101805760043560248035906005549060ff821660078110156107d05760030361079d5761059b83856119dc565b60089283548092116107615760ff1916600417600555600d80546001600160a01b0319163317905584806106db575b505082610654575b50805480610610575b505060405191825260208201527fd45d961e06565b8dd3d1da8aa5d6bdf1ea1253ebf46c31573e5acd0125f2432660403392a2005b6000808080938161064d96557f00000000000000000000000000000000000000000000000000000000000000005af1610647611a57565b50611ac1565b82806105db565b61065f8383546119e9565b82556000808080867f00000000000000000000000000000000000000000000000000000000000000005af1610692611a57565b506105d25760649060196040519162461bcd60e51b8352602060048401528201527f436f756e7465727061727479206177617264206661696c6564000000000000006044820152fd5b6106e4916119e9565b82556000808080877f00000000000000000000000000000000000000000000000000000000000000005af1610717611a57565b50156107245784846105ca565b60649060166040519162461bcd60e51b83526020600484015282015275125b9a5d1a585d1bdc88185dd85c990819985a5b195960521b6044820152fd5b60405162461bcd60e51b81526020600482015260158185015274417761726473206578636565642062616c616e636560581b6044820152606490fd5b606490600c6040519162461bcd60e51b8352602060048401528201526b139bdd08191a5cdc1d5d195960a21b6044820152fd5b50634e487b7160e01b60009081526021600452fd5b346101805760203660031901126101805760043567ffffffffffffffff8111610180576108169036906004016117af565b907f0000000000000000000000000000000000000000000000000000000000000000906108576001600160a01b03808416331490811561092a575b50611a87565b6005549060ff821660078110156103115760016108749114611987565b6003544211156108f3577f76b5660c2bd01bae8e3db371287bd828ee6a8a490398f7ac405273035e6379739260066108cf9360ff191617600555600854806108d4575b505060405191829160208352339560208401916119f6565b0390a2005b6000808080936108ec95826008555af1610647611a57565b84806108b7565b60405162461bcd60e51b815260206004820152600f60248201526e139bdd08195e1c1a5c9959081e595d608a1b6044820152606490fd5b90507f000000000000000000000000000000000000000000000000000000000000000016331485610851565b34610180576000366003190112610180576020600654604051908152f35b346101805760203660031901126101805760043560ff6005541660078110156103115760016109a39114611987565b6109b06006548210611a17565b6109b9816118fb565b5060028101805460ff8116610a015760019060ff191617905560034291015533907f032f77b843a5cc848407ffb1e918c51fd6982fbfd1adf0b60f45c6d7bb54068a600080a3005b60405162461bcd60e51b8152602060048201526011602482015270105b1c9958591e4818dbdb5c1b195d1959607a1b6044820152606490fd5b346101805760403660031901126101805767ffffffffffffffff60043581811161018057610a6c9036906004016117af565b9091610aa2337f00000000000000000000000000000000000000000000000000000000000000006001600160a01b03161461194b565b60ff600554166007811015610311576001610abd9114611987565b60085460243511610d3e57604051610ad481611817565b610add836119c0565b610aea6040519182611833565b838152368486011161018057838560208301376000602085830101528152602435602082015260006040820152600060608201526000608082015260065468010000000000000000811015610d1257806001610b4992016006556118fb565b929092610d285781518051918211610d1257610b6584546117dd565b601f8111610cce575b50602090601f8311600114610c6257918060039492608094600092610c57575b50508160011b9160001990861b1c19161784555b602081015160018501556002840160408201511515815460ff61ff006060860151151560081b1692169061ffff1916171790550151910155610be86024356007546119dc565b600755600654600019810192908311610c41577fbf293db00f4de65b181a066ecc2f8bb81fb7174b517fd8085700e259ad00db1b91610c346040519283926040845260408401916119f6565b60243560208301520390a2005b634e487b7160e01b600052601160045260246000fd5b015190508880610b8e565b90601f198316918560005260206000209260005b818110610cb657509260019285926080966003989610610c9e575b505050811b018455610ba2565b015160001983881b60f8161c19169055888080610c91565b92936020600181928786015181550195019301610c76565b846000526020600020601f840160051c810160208510610d0b575b601f830160051c82018110610cff575050610b6e565b60008155600101610ce9565b5080610ce9565b634e487b7160e01b600052604160045260246000fd5b634e487b7160e01b600052600060045260246000fd5b60405162461bcd60e51b8152602060048201526014602482015273496e73756666696369656e742062616c616e636560601b6044820152606490fd5b34610180576000366003190112610180577f00000000000000000000000000000000000000000000000000000000000000006001600160a01b031633819003610eac5760ff60055416600781101561031157610e7957600354421015610e4a5780600052600b6020526001604060002060ff1990828282541617905560055416176005557f9f4a87e77dbaf5b55d5e6f62125b58988c5befb44fb876196dd62ffca1362f21600080a27f47c82a599a82344a17a0b9fefda032175048e76d1d1bdf41e8bc686480ff204c600080a1005b60405162461bcd60e51b8152602060048201526007602482015266115e1c1a5c995960ca1b6044820152606490fd5b60405162461bcd60e51b815260206004820152600b60248201526a4e6f742070656e64696e6760a81b6044820152606490fd5b60405162461bcd60e51b815260206004820152601060248201526f4e6f7420636f756e746572706172747960801b6044820152606490fd5b34610180576000366003190112610180576040516000600e54610f06816117dd565b80845290600190818116908115610fa35750600114610f48575b610f4484610f3081860382611833565b60405191829160208352602083019061176f565b0390f35b600e600090815292507fbb7b4a454dc3493923482f07822329ed19e8244eff582cc204f8554c3620c3fd5b828410610f8b575050508101602001610f3082610f20565b80546020858701810191909152909301928101610f73565b60ff191660208087019190915292151560051b85019092019250610f309150839050610f20565b34610180576020806003193601126101805767ffffffffffffffff60043581811161018057610ffd9036906004016117af565b61103960018060a01b03807f000000000000000000000000000000000000000000000000000000000000000016331490811561123b5750611a87565b6005549260ff841693600785101561031157600194858114908115611232575b50156111fc5760ff19166003176005558111610d125761107a600e546117dd565b601f8111611195575b50600092601f82116001146110f6578180917f28b099eb575e23e32becd7c30dc8f9b2f98e370cdbf9841ea3338d9000402a25956000936110eb575b501b906000198360031b1c191617600e555b42600f556108cf60405192839286845233968401916119f6565b8501359250876110bf565b601f19821693600e6000527fbb7b4a454dc3493923482f07822329ed19e8244eff582cc204f8554c3620c3fd9060005b87878210611181575050837f28b099eb575e23e32becd7c30dc8f9b2f98e370cdbf9841ea3338d9000402a259610611167575b505081811b01600e556110d1565b840135600019600385901b60f8161c191690558580611159565b868301358455928401929182019101611126565b600e6000527fbb7b4a454dc3493923482f07822329ed19e8244eff582cc204f8554c3620c3fd601f830160051c8101918684106111f2575b601f0160051c019084905b8281106111e6575050611083565b600081550184906111d8565b90915081906111cd565b60405162461bcd60e51b815260048101879052600e60248201526d43616e6e6f74206469737075746560901b6044820152606490fd5b90501587611059565b90507f000000000000000000000000000000000000000000000000000000000000000016331486610851565b346101805760208060031936011261018057600435906001600160a01b036112b2337f000000000000000000000000000000000000000000000000000000000000000083161461194b565b60ff6005541660078110156103115760016112cd9114611987565b6112da6006548410611a17565b6112e3836118fb565b5060028101805460ff8116156114a45760ff8160081c166114705761ff001916610100179055600101805460085461131b91906119e9565b60085554600a54808202908282041482151715610c4157600080809361134761271083950480926119e9565b95600954165af1611356611a57565b5015611435576000808080847f00000000000000000000000000000000000000000000000000000000000000005af161138d611a57565b50156113ff57907f3af368126e502abc57fe61217a2e2ffc37e0753a9bc218ab9976a49a996e444991604051908152a26113c5611b1c565b6113cb57005b600260ff1960055416176005557fbf1804db3af6b11f9d3cadcf0c65df2bad3a56d93c275062fdc655bedf351f77600080a1005b60405162461bcd60e51b815260048101839052600e60248201526d14185e5b595b9d0819985a5b195960921b6044820152606490fd5b60405162461bcd60e51b8152600481018390526013602482015272119959481d1c985b9cd9995c8819985a5b1959606a1b6044820152606490fd5b60405162461bcd60e51b815260048101869052600c60248201526b105b1c9958591e481c185a5960a21b6044820152606490fd5b60405162461bcd60e51b815260048101869052600d60248201526c139bdd0818dbdb5c1b195d1959609a1b6044820152606490fd5b34610180576020366003190112610180576004356001600160a01b0381169081900361018057600052600b602052602060ff604060002054166040519015158152f35b34610180576000366003190112610180576040517f00000000000000000000000000000000000000000000000000000000000000006001600160a01b03168152602090f35b34610180576000366003190112610180576020600754604051908152f35b34610180576000366003190112610180576009546040516001600160a01b039091168152602090f35b34610180576020366003190112610180576004356001600160a01b0381169081900361018057600052600c6020526020604060002054604051908152f35b34610180576000366003190112610180576020600a54604051908152f35b346101805760208060031936011261018057600435906000608060405161162a81611817565b60608152828482015282604082015282606082015201526006548210156116e55761165660a0926118fb565b506040519161166483611817565b61166d82611855565b83526001820154918184019283526002810154906116c46003604087019260ff85161515845260ff606089019560081c161515855201549360808701948552604051978897828952519188015260c087019061176f565b93516040860152511515606085015251151560808401525160a08301520390f35b6064906040519062461bcd60e51b82526004820152600d60248201526c092dcecc2d8d2c840d2dcc8caf609b1b6044820152fd5b346101805760003660031901126101805760ff60055416600781101561031157602090600160405191148152f35b346101805760003660031901126101805760ff60055416906007821015610311576020918152f35b919082519283825260005b84811061179b575050826000602080949584010152601f8019910116010190565b60208183018101518483018201520161177a565b9181601f840112156101805782359167ffffffffffffffff8311610180576020838186019501011161018057565b90600182811c9216801561180d575b60208310146117f757565b634e487b7160e01b600052602260045260246000fd5b91607f16916117ec565b60a0810190811067ffffffffffffffff821117610d1257604052565b90601f8019910116810190811067ffffffffffffffff821117610d1257604052565b9060405191826000825492611869846117dd565b9081845260019485811690816000146118d85750600114611895575b505061189392500383611833565b565b9093915060005260209081600020936000915b8183106118c057505061189393508201013880611885565b855488840185015294850194879450918301916118a8565b91505061189394506020925060ff191682840152151560051b8201013880611885565b60065481101561193557600660005260021b7ff652222313e28459528d920b65115c16c04f3efc82aaedc97be59f3f377c0d3f0190600090565b634e487b7160e01b600052603260045260246000fd5b1561195257565b60405162461bcd60e51b815260206004820152600d60248201526c2737ba1034b734ba34b0ba37b960991b6044820152606490fd5b1561198e57565b60405162461bcd60e51b815260206004820152600a6024820152694e6f742061637469766560b01b6044820152606490fd5b67ffffffffffffffff8111610d1257601f01601f191660200190565b91908201809211610c4157565b91908203918211610c4157565b908060209392818452848401376000828201840152601f01601f1916010190565b15611a1e57565b60405162461bcd60e51b8152602060048201526011602482015270496e76616c6964206d696c6573746f6e6560781b6044820152606490fd5b3d15611a82573d90611a68826119c0565b91611a766040519384611833565b82523d6000602084013e565b606090565b15611a8e57565b60405162461bcd60e51b815260206004820152600b60248201526a4e6f74206120706172747960a81b6044820152606490fd5b15611ac857565b60405162461bcd60e51b815260206004820152600d60248201526c1499599d5b990819985a5b1959609a1b6044820152606490fd5b60035480421015611b1657611b139042906119e9565b90565b50600090565b60065460005b818110611b30575050600190565b60ff6002611b3d836118fb565b50015460081c1615611b5a576000198114610c4157600101611b22565b505060009056fea26469706673582212203fd6b10862758215ea379b646e350ac99def05544e520ff0a56efc5a8579ecd264736f6c63430008140033",
  "linkReferences": {},
  "deployedLinkReferences": {}
}