{
  "_format": "hh-sol-artifact-1",
  "contractName": "ReputationStake",
  "sourceName": "contracts/ReputationStake.sol",
  "abi": [
    {
      "inputs": [
        {
          "internalType": "address",
          "name": "_stakeToken",
          "type": "address"
        },
        {
          "internalType": "address",
          "name": "_feeRecipient",
          "type": "address"
        }
      ],
      "stateMutability": "nonpayable",
      "type": "constructor"
    },
    {
      "anonymous": false,
      "inputs": [
        {
          "indexed": true,
          "internalType": "address",
          "name": "agent",
          "type": "address"
        },
        {
          "indexed": false,
          "internalType": "string",
          "name": "metadataURI",
          "type": "string"
        }
      ],
      "name": "AgentRegistered",
      "type": "event"
    },
    {
      "anonymous": false,
      "inputs": [
        {
          "indexed": true,
          "internalType": "address",
          "name": "agent",
          "type": "address"
        },
        {
          "indexed": false,
          "internalType": "uint256",
          "name": "amount",
          "type": "uint256"
        },
        {
          "indexed": false,
          "internalType": "string",
          "name": "reason",
          "type": "string"
        }
      ],
      "name": "AgentSlashed",
      "type": "event"
    },
    {
      "anonymous": false,
      "inputs": [
        {
          "indexed": true,
          "internalType": "address",
          "name": "agent",
          "type": "address"
        },
        {
          "indexed": false,
          "internalType": "uint256",
          "name": "newScore",
          "type": "uint256"
        }
      ],
      "name": "ReputationUpdated",
      "type": "event"
    },
    {
      "anonymous": false,
      "inputs": [
        {
          "indexed": true,
          "internalType": "address",
          "name": "agent",
          "type": "address"
        },
        {
          "indexed": false,
          "internalType": "uint256",
          "name": "amount",
          "type": "uint256"
        }
      ],
      "name": "RewardDistributed",
      "type": "event"
    },
    {
      "anonymous": false,
      "inputs": [
        {
          "indexed": true,
          "internalType": "address",
          "name": "agent",
          "type": "address"
        },
        {
          "indexed": false,
          "internalType": "uint256",
          "name": "amount",
          "type": "uint256"
        },
        {
          "indexed": false,
          "internalType": "uint256",
          "name": "unlockTime",
          "type": "uint256"
        }
      ],
      "name": "StakeDeposited",
      "type": "event"
    },
    {
      "anonymous": false,
      "inputs": [
        {
          "indexed": true,
          "internalType": "address",
          "name": "agent",
          "type": "address"
        },
        {
          "indexed": false,
          "internalType": "uint256",
          "name": "amount",
          "type": "uint256"
        }
      ],
      "name": "StakeWithdrawn",
      "type": "event"
    },
    {
      "inputs": [],
      "name": "activityWeight",
      "outputs": [
        {
          "internalType": "uint256",
          "name": "",
          "type": "uint256"
        }
      ],
      "stateMutability": "view",
      "type": "function"
    },
    {
      "inputs": [
        {
          "internalType": "address",
          "name": "_slasher",
          "type": "address"
        }
      ],
      "name": "addSlasher",
      "outputs": [],
      "stateMutability": "nonpayable",
      "type": "function"
    },
    {
      "inputs": [
        {
          "internalType": "address",
          "name": "",
          "type": "address"
        },
        {
          "internalType": "uint256",
          "name": "",
          "type": "uint256"
        }
      ],
      "name": "agentStakes",
      "outputs": [
        {
          "internalType": "uint256",
          "name": "amount",
          "type": "uint256"
        },
        {
          "internalType": "uint256",
          "name": "since",
          "type": "uint256"
        },
        {
          "internalType": "uint256",
          "name": "unlockTime",
          "type": "uint256"
        },
        {
          "internalType": "bool",
          "name": "withdrawn",
          "type": "bool"
        }
      ],
      "stateMutability": "view",
      "type": "function"
    },
    {
      "inputs": [
        {
          "internalType": "address",
          "name": "",
          "type": "address"
        }
      ],
      "name": "agents",
      "outputs": [
        {
          "internalType": "uint256",
          "name": "totalStaked",
          "type": "uint256"
        },
        {
          "internalType": "uint256",
          "name": "reputationScore",
          "type": "uint256"
        },
        {
          "internalType": "uint256",
          "name": "successfulCovenants",
          "type": "uint256"
        },
        {
          "internalType": "uint256",
          "name": "breachedCovenants",
          "type": "uint256"
        },
        {
          "internalType": "uint256",
          "name": "lastActivity",
          "type": "uint256"
        },
        {
          "internalType": "bool",
          "name": "isActive",
          "type": "bool"
        },
        {
          "internalType": "string",
          "name": "metadataURI",
          "type": "string"
        }
      ],
      "stateMutability": "view",
      "type": "function"
    },
    {
      "inputs": [
        {
          "internalType": "address",
          "name": "",
          "type": "address"
        }
      ],
      "name": "authorizedSlashers",
      "outputs": [
        {
          "internalType": "bool",
          "name": "",
          "type": "bool"
        }
      ],
      "stateMutability": "view",
      "type": "function"
    },
    {
      "inputs": [
        {
          "internalType": "address",
          "name": "_agent",
          "type": "address"
        }
      ],
      "name": "calculateReputation",
      "outputs": [
        {
          "internalType": "uint256",
          "name": "",
          "type": "uint256"
        }
      ],
      "stateMutability": "view",
      "type": "function"
    },
    {
      "inputs": [],
      "name": "feeRecipient",
      "outputs": [
        {
          "internalType": "address",
          "name": "",
          "type": "address"
        }
      ],
      "stateMutability": "view",
      "type": "function"
    },
    {
      "inputs": [
        {
          "internalType": "address",
          "name": "_agent",
          "type": "address"
        }
      ],
      "name": "getAgentProfile",
      "outputs": [
        {
          "components": [
            {
              "internalType": "uint256",
              "name": "totalStaked",
              "type": "uint256"
            },
            {
              "internalType": "uint256",
              "name": "reputationScore",
              "type": "uint256"
            },
            {
              "internalType": "uint256",
              "name": "successfulCovenants",
              "type": "uint256"
            },
            {
              "internalType": "uint256",
              "name": "breachedCovenants",
              "type": "uint256"
            },
            {
              "internalType": "uint256",
              "name": "lastActivity",
              "type": "uint256"
            },
            {
              "internalType": "bool",
              "name": "isActive",
              "type": "bool"
            },
            {
              "internalType": "string",
              "name": "metadataURI",
              "type": "string"
            }
          ],
          "internalType": "struct ReputationStake.AgentProfile",
          "name": "",
          "type": "tuple"
        }
      ],
      "stateMutability": "view",
      "type": "function"
    },
    {
      "inputs": [
        {
          "internalType": "address",
          "name": "_agent",
          "type": "address"
        },
        {
          "internalType": "uint256",
          "name": "_index",
          "type": "uint256"
        }
      ],
      "name": "getStake",
      "outputs": [
        {
          "components": [
            {
              "internalType": "uint256",
              "name": "amount",
              "type": "uint256"
            },
            {
              "internalType": "uint256",
              "name": "since",
              "type": "uint256"
            },
            {
              "internalType": "uint256",
              "name": "unlockTime",
              "type": "uint256"
            },
            {
              "internalType": "bool",
              "name": "withdrawn",
              "type": "bool"
            }
          ],
          "internalType": "struct ReputationStake.Stake",
          "name": "",
          "type": "tuple"
        }
      ],
      "stateMutability": "view",
      "type": "function"
    },
    {
      "inputs": [
        {
          "internalType": "address",
          "name": "_agent",
          "type": "address"
        }
      ],
      "name": "getStakeCount",
      "outputs": [
        {
          "internalType": "uint256",
          "name": "",
          "type": "uint256"
        }
      ],
      "stateMutability": "view",
      "type": "function"
    },
    {
      "inputs": [],
      "name": "historyWeight",
      "outputs": [
        {
          "internalType": "uint256",
          "name": "",
          "type": "uint256"
        }
      ],
      "stateMutability": "view",
      "type": "function"
    },
    {
      "inputs": [
        {
          "internalType": "address",
          "name": "_agent",
          "type": "address"
        }
      ],
      "name": "isRegistered",
      "outputs": [
        {
          "internalType": "bool",
          "name": "",
          "type": "bool"
        }
      ],
      "stateMutability": "view",
      "type": "function"
    },
    {
      "inputs": [],
      "name": "lockPeriod",
      "outputs": [
        {
          "internalType": "uint256",
          "name": "",
          "type": "uint256"
        }
      ],
      "stateMutability": "view",
      "type": "function"
    },
    {
      "inputs": [],
      "name": "minimumStake",
      "outputs": [
        {
          "internalType": "uint256",
          "name": "",
          "type": "uint256"
        }
      ],
      "stateMutability": "view",
      "type": "function"
    },
    {
      "inputs": [],
      "name": "protocolFeeBps",
      "outputs": [
        {
          "internalType": "uint256",
          "name": "",
          "type": "uint256"
        }
      ],
      "stateMutability": "view",
      "type": "function"
    },
    {
      "inputs": [
        {
          "internalType": "address",
          "name": "_agent",
          "type": "address"
        },
        {
          "internalType": "uint256",
          "name": "_slashingMultiplier",
          "type": "uint256"
        },
        {
          "internalType": "string",
          "name": "_reason",
          "type": "string"
        }
      ],
      "name": "recordBreach",
      "outputs": [],
      "stateMutability": "nonpayable",
      "type": "function"
    },
    {
      "inputs": [
        {
          "internalType": "address",
          "name": "_agent",
          "type": "address"
        }
      ],
      "name": "recordSuccess",
      "outputs": [],
      "stateMutability": "nonpayable",
      "type": "function"
    },
    {
      "inputs": [
        {
          "internalType": "string",
          "name": "_metadataURI",
          "type": "string"
        }
      ],
      "name": "registerAgent",
      "outputs": [],
      "stateMutability": "nonpayable",
      "type": "function"
    },
    {
      "inputs": [
        {
          "internalType": "address",
          "name": "_slasher",
          "type": "address"
        }
      ],
      "name": "removeSlasher",
      "outputs": [],
      "stateMutability": "nonpayable",
      "type": "function"
    },
    {
      "inputs": [
        {
          "internalType": "uint256",
          "name": "_minimumStake",
          "type": "uint256"
        },
        {
          "internalType": "uint256",
          "name": "_slashingPercentage",
          "type": "uint256"
        },
        {
          "internalType": "uint256",
          "name": "_lockPeriod",
          "type": "uint256"
        }
      ],
      "name": "setParameters",
      "outputs": [],
      "stateMutability": "nonpayable",
      "type": "function"
    },
    {
      "inputs": [],
      "name": "slashingPercentage",
      "outputs": [
        {
          "internalType": "uint256",
          "name": "",
          "type": "uint256"
        }
      ],
      "stateMutability": "view",
      "type": "function"
    },
    {
      "inputs": [
        {
          "internalType": "uint256",
          "name": "_amount",
          "type": "uint256"
        }
      ],
      "name": "stake",
      "outputs": [],
      "stateMutability": "nonpayable",
      "type": "function"
    },
    {
      "inputs": [],
      "name": "stakeToken",
      "outputs": [
        {
          "internalType": "contract IERC20",
          "name": "",
          "type": "address"
        }
      ],
      "stateMutability": "view",
      "type": "function"
    },
    {
      "inputs": [],
      "name": "stakeWeight",
      "outputs": [
        {
          "internalType": "uint256",
          "name": "",
          "type": "uint256"
        }
      ],
      "stateMutability": "view",
      "type": "function"
    },
    {
      "inputs": [],
      "name": "totalAgents",
      "outputs": [
        {
          "internalType": "uint256",
          "name": "",
          "type": "uint256"
        }
      ],
      "stateMutability": "view",
      "type": "function"
    },
    {
      "inputs": [],
      "name": "totalStaked",
      "outputs": [
        {
          "internalType": "uint256",
          "name": "",
          "type": "uint256"
        }
      ],
      "stateMutability": "view",
      "type": "function"
    },
    {
      "inputs": [
        {
          "internalType": "uint256",
          "name": "_stakeIndex",
          "type": "uint256"
        }
      ],
      "name": "withdrawStake",
      "outputs": [],
      "stateMutability": "nonpayable",
      "type": "function"
    }
  ],
  "bytecode": "0x6080346100ce57601f61192a38819003918201601f19168301916001600160401b038311848410176100d35780849260409485528339810103126100ce57610052602061004b836100e9565b92016100e9565b68056bc75e2d631000006005556103e860065562093a8060075560646008556028600955601e600a55601e600b5560018060a01b03908160018060a01b03199316836000541617600055169060015416176001553360005260046020526040600020600160ff1982541617905560405161182c90816100fe8239f35b600080fd5b634e487b7160e01b600052604160045260246000fd5b51906001600160a01b03821682036100ce5756fe6040608081526004908136101561001557600080fd5b6000803560e01c8063209ffa1814610fae57806325d5971f14610dbf578063267b116714610da057806327c06fd514610d735780632d2a958514610a8a57806334c5d2ce14610a4d57806335659fb814610a2e5780633fd8b02f14610a0f578063423412871461087c578063469048401461085357806351ed6a301461082b57806368a9f19c146107dc57806369666a49146107bd57806378dc93a4146106ba578063817b1cd21461069b578063a694fc3a1461048c578063aac6aa9c14610440578063aed2d908146103ff578063b0c87df2146103e0578063b2ab278214610369578063be3ac6a71461034a578063c3c5a54714610308578063c5053712146102e9578063cf57ee69146102b1578063cfd4766314610203578063ec5ffac2146101e05763fd66091e1461014957600080fd5b346101dd5760203660031901126101dd576101d99082906001600160a01b036101706112b6565b16815260026020522091825492600181015494600282015490600383015490830154916101a7600660ff600587015416950161141b565b9480519889988952602089015287015260608601526080850152151560a084015260e060c084015260e08301906112ff565b0390f35b80fd5b5090346101ff57816003193601126101ff576020906005549051908152f35b5080fd5b5090346101ff57806003193601126101ff5761025b6080926102236112b6565b8160608551610231816113dd565b8281528260208201528287820152015260018060a01b03168152600360205282602435912061133f565b5090805190610269826113dd565b825492838352600181015460208401908152606060ff600360028501549486880195865201541694019315158452825194855251602085015251908301525115156060820152f35b5090346101ff5760203660031901126101ff5760209181906001600160a01b036102d96112b6565b1681526003845220549051908152f35b5090346101ff57816003193601126101ff57602090600d549051908152f35b5090346101ff5760203660031901126101ff5760209160ff9060059083906001600160a01b036103366112b6565b168152600286522001541690519015158152f35b5090346101ff57816003193601126101ff57602090600a549051908152f35b5090346101ff57806003193601126101ff576103836112b6565b6001600160a01b031682526003602052808220805460243593908410156101dd57506080926103b19161133f565b509081549160018101549160ff6003600284015493015416928151948552602085015283015215156060820152f35b5090346101ff57816003193601126101ff57602090600b549051908152f35b50913461043c57602036600319011261043c5760209260ff918391906001600160a01b0361042b6112b6565b168252855220541690519015158152f35b8280fd5b50913461043c57602036600319011261043c5761045b6112b6565b3384528160205261047160ff84862054166115b4565b6001600160a01b031683526020528120805460ff1916905580f35b5090346101ff576020908160031936011261043c57833591338452600281526104bd60ff6005848720015416611507565b821561066457835482516323b872dd60e01b81523387820152306024820152604481018590529082908290606490829089906001600160a01b03165af190811561065a579061051391869161062d575b5061155c565b61051f6007544261159a565b825161052a816113dd565b8481528281014281528482019283526060820190878252338852600385528588208054906801000000000000000082101561061a579061056f9160018201815561133f565b939093610608576105c9927f05cce4a371bf9816b1a7594f1d76c98eba4ed025ff3e471234ae598f17899bd497969594926003925184555160018401558451600284015551151591019060ff801983541691151516179055565b338652600282528286206105de86825461159a565b90556105ec85600c5461159a565b600c556105f8336117a5565b519082519485528401523392a280f35b634e487b7160e01b8952888a52602489fd5b634e487b7160e01b8a5260418b5260248afd5b61064d9150833d8511610653575b61064581836113f9565b810190611544565b3861050d565b503d61063b565b83513d87823e3d90fd5b8490606492519162461bcd60e51b835282015260126024820152710416d6f756e74206d757374206265203e20360741b6044820152fd5b5090346101ff57816003193601126101ff57602090600c549051908152f35b50913461043c57602092836003193601126101dd5790826101d9926106dd6112b6565b606060c084516106ec816113ab565b848152848a820152848682015284838201528460808201528460a0820152015260018060a01b031681526002865220835193610727856113ab565b815485526001820154928686019384526002830154828701908152600384015491606088019283528401549260808801938452610777600660ff6005880154169660a08b0197151588520161141b565b9560c089019687528151998a99818b5251908a015251908801525160608701525160808601525160a085015251151560c08401525160e0808401526101008301906112ff565b5090346101ff57816003193601126101ff576020906006549051908152f35b50913461043c57602036600319011261043c576107f76112b6565b3384528160205261080d60ff84862054166115b4565b6001600160a01b031683526020528120805460ff1916600117905580f35b5090346101ff57816003193601126101ff57905490516001600160a01b039091168152602090f35b5090346101ff57816003193601126101ff5760015490516001600160a01b039091168152602090f35b5091903461043c5760209081600319360112610a0b5761089a6112b6565b903385528383526108b060ff82872054166115b4565b6001600160a01b03828116808752600280865283882060050154919692916108da9060ff16611507565b86885280865280848920016108ef81546114c1565b90558688528086524283858a200155610907856117a5565b868852808652600a848920918201540615610920578780f35b6064905404938461092f578780f35b8754845163a9059cbb60e01b81526001600160a01b039290921684830190815260208101879052919287928492908390036040019183918c91165af1908115610a015787916109e4575b50156109b35750519081527fe34918ff1c7084970068b53fd71ad6d8b04e9f15d3886cbf006443e6cdc52ea69190a2388080808080808780f35b83606492519162461bcd60e51b8352820152600d60248201526c14995dd85c990819985a5b1959609a1b6044820152fd5b6109fb9150853d87116106535761064581836113f9565b38610979565b83513d89823e3d90fd5b8380fd5b5090346101ff57816003193601126101ff576020906007549051908152f35b5090346101ff57816003193601126101ff576020906008549051908152f35b5091903461043c57606036600319011261043c5760ff610a779133855283602052842054166115b4565b3560055560243560065560443560075580f35b5090346101ff576020908160031936011261043c5767ffffffffffffffff908435828111610d6f57610abf90369087016112d1565b9190923386526002855260ff6005838820015416610d37578151610ae2816113ab565b8681528581019087825283810188815260608201898152608083019042825260a0840192600195868552878a11610d2357918b9796959391601f9593610b338b519a8d8919998a910116018b6113f9565b8b8a52368d8d0111610d1f578a8f8f8f8f808f849286948483013701015260c089019c8d523382526002905220955186555187860155516002850155516003840155518c8301555115156005820190610b97919060ff801983541691151516179055565b6006019351998a51938411610d0c5750610bb18454611371565b601f8111610cc6575b508790601f8411600114610c40575091808092610c2f9695948b9c7fda816ca2fc37b9eecec62ae8263008ec6be1afb38dc28bc9c7c51d7e348da9c29b9c94610c35575b50501b916000199060031b1c19161790555b610c1b600d546114c1565b600d555192839286845233968401916114e6565b0390a280f35b015192503880610bfe565b8392931699848a52888a209a8a5b818110610cb15750917fda816ca2fc37b9eecec62ae8263008ec6be1afb38dc28bc9c7c51d7e348da9c2999a9b9184610c2f989796959410610c98575b505050811b019055610c10565b015160001960f88460031b161c19169055388080610c8b565b838301518d559b85019b928a01928a01610c4e565b848a52888a20601f850160051c8101918a8610610d02575b601f0160051c019083905b828110610cf7575050610bba565b8b8155018390610ce9565b9091508190610cde565b634e487b7160e01b8a5260419052602489fd5b8e80fd5b50634e487b7160e01b8c5260418d5260248cfd5b815162461bcd60e51b81528088018690526012602482015271105b1c9958591e481c9959da5cdd195c995960721b6044820152606490fd5b8480fd5b5090346101ff5760203660031901126101ff57602090610d99610d946112b6565b611624565b9051908152f35b5090346101ff57816003193601126101ff576020906009549051908152f35b50913461043c57602080600319360112610a0b57813533855260028252610dee60ff6005868820015416611507565b3385526003825283852054811015610f7d57610e13903386526003835284862061133f565b5060038101805460ff8116610f455760028301544210610f12579183916001610ea89460ff191617905554809433885260028352868820610e558382546115a7565b9055610e6382600c546115a7565b600c55610e6f336117a5565b8754875163a9059cbb60e01b8152339281019283526020830193909352919384926001600160a01b03169183918a918391604090910190565b03925af1908115610f08577f8108595eb6bad3acefa9da467d90cc2217686d5c5ac85460f8b7849c840645fc939491610ee7918791610ef1575061155c565b519283523392a280f35b61064d9150843d86116106535761064581836113f9565b84513d87823e3d90fd5b5050925162461bcd60e51b815291820152600c60248201526b14dd1a5b1b081b1bd8dad95960a21b604482015260649150fd5b5050925162461bcd60e51b815291820152601160248201527020b63932b0b23c903bb4ba34323930bbb760791b604482015260649150fd5b50606492519162461bcd60e51b8352820152600d60248201526c092dcecc2d8d2c840d2dcc8caf609b1b6044820152fd5b5082346101ff5760603660031901126101ff57610fc96112b6565b9260443567ffffffffffffffff8111610a0b57610fe990369084016112d1565b94909433855260209284845260ff926110068483892054166115b4565b6001600160a01b038181168089526002808852848a206005015491989161102e908816611507565b888a5280885260039687868c200161104681546114c1565b9055898b52818952612710611072878d2042868201555461106d60243591600654906115f1565b6115f1565b0497881515806112a4575b6110ca575b8b8b7ff90d547af41b84ae5db3dc86fac677444898b3350b3e9cccd482dea1274bfc958f8c610c2f8f928e8e6110b78f6117a5565b80805196879687528601528401916114e6565b919497909298939a959681988b88528386528888209a885b8c5481108061129b575b156111b1578c8e88886110ff858561133f565b50015416158061119d575b61111f575b505061111a906114c1565b6110e2565b90829d61118c92611155858f61113861111a988761133f565b505485111590506111965761114d818661133f565b50549461133f565b506111618482546115a7565b90558d528b8b528d8d206111768382546115a7565b9055600c6111858382546115a7565b90556115a7565b9b90508c8e61110f565b839461133f565b506111a8838361133f565b5054151561110a565b50959b9c889e9a939b506111db91975061121295508c94508092999854169160015416928b6115a7565b875163a9059cbb60e01b81526001600160a01b0390931686840190815260208101919091529193849283918f918391604090910190565b03925af1908115611291578a91611274575b501561123957808080809b9a9998979b611082565b825162461bcd60e51b8152908101879052601560248201527414db185cda081d1c985b9cd9995c8819985a5b1959605a1b6044820152606490fd5b61128b9150883d8a116106535761064581836113f9565b8a611224565b84513d8c823e3d90fd5b508b15156110ec565b508a8c52828a52868c2054151561107d565b600435906001600160a01b03821682036112cc57565b600080fd5b9181601f840112156112cc5782359167ffffffffffffffff83116112cc57602083818601950101116112cc57565b919082519283825260005b84811061132b575050826000602080949584010152601f8019910116010190565b60208183018101518483018201520161130a565b805482101561135b5760005260206000209060021b0190600090565b634e487b7160e01b600052603260045260246000fd5b90600182811c921680156113a1575b602083101461138b57565b634e487b7160e01b600052602260045260246000fd5b91607f1691611380565b60e0810190811067ffffffffffffffff8211176113c757604052565b634e487b7160e01b600052604160045260246000fd5b6080810190811067ffffffffffffffff8211176113c757604052565b90601f8019910116810190811067ffffffffffffffff8211176113c757604052565b906040519182600082549261142f84611371565b90818452600194858116908160001461149e575060011461145b575b5050611459925003836113f9565b565b9093915060005260209081600020936000915b8183106114865750506114599350820101388061144b565b8554888401850152948501948794509183019161146e565b91505061145994506020925060ff191682840152151560051b820101388061144b565b60001981146114d05760010190565b634e487b7160e01b600052601160045260246000fd5b908060209392818452848401376000828201840152601f01601f1916010190565b1561150e57565b60405162461bcd60e51b815260206004820152600e60248201526d139bdd081c9959da5cdd195c995960921b6044820152606490fd5b908160209103126112cc575180151581036112cc5790565b1561156357565b60405162461bcd60e51b815260206004820152600f60248201526e151c985b9cd9995c8819985a5b1959608a1b6044820152606490fd5b919082018092116114d057565b919082039182116114d057565b156115bb57565b60405162461bcd60e51b815260206004820152600e60248201526d139bdd08185d5d1a1bdc9a5e995960921b6044820152606490fd5b818102929181159184041417156114d057565b811561160e570490565b634e487b7160e01b600052601260045260246000fd5b6001600160a01b03166000908152600260205260408120600581015460ff16156117a1578054801561179a5761166061166991600954906115f1565b60055490611604565b915b610190808411611792575b5060028201549161168b60038201548461159a565b82938161172f575b50506116a7600462015180920154426115a7565b04601e81101561171f57601e03601e811161170b57600b546116c8916115f1565b90600a820291808304600a14901517156116f757506116f49291601e6116ef92049261159a565b61159a565b90565b634e487b7160e01b81526011600452602490fd5b634e487b7160e01b82526011600452602482fd5b506116f492916116ef919261159a565b9091935060648102908082046064149015171561177e5761175c9161175391611604565b600a54906115f1565b600a810290808204600a149015171561170b5760649004916116a76004611693565b634e487b7160e01b83526011600452602483fd5b925038611676565b508161166b565b5090565b7ffc577563f1b9a0461e24abef1e1fcc0d33d3d881f20b5df6dda59de4aae2c82160206117d183611624565b9260018060a01b031692836000526002825280600160406000200155604051908152a256fea2646970667358221220512a9c133a07cae460ccd11e7ce6a304c995c0f2a758da4f1c72bcb99836061264736f6c63430008140033",
  "linkReferences": {},
  "deployedLinkReferences": {}
}