{
  "_format": "hh-sol-artifact-1",
  "contractName": "TaskMarket",
  "sourceName": "contracts/TaskMarket.sol",
  "abi": [
    {
      "inputs": [
        {
          "internalType": "address",
          "name": "_feeRecipient",
          "type": "address"
        }
      ],
      "stateMutability": "nonpayable",
      "type": "constructor"
    },
    {
      "inputs": [],
      "name": "ContractNotPaused",
      "type": "error"
    },
    {
      "inputs": [],
      "name": "ContractPaused",
      "type": "error"
    },
    {
      "inputs": [],
      "name": "NotPauser",
      "type": "error"
    },
    {
      "inputs": [],
      "name": "ReentrancyGuardReentrantCall",
      "type": "error"
    },
    {
      "anonymous": false,
      "inputs": [
        {
          "indexed": true,
          "internalType": "uint256",
          "name": "taskId",
          "type": "uint256"
        },
        {
          "indexed": true,
          "internalType": "address",
          "name": "bidder",
          "type": "address"
        },
        {
          "indexed": false,
          "internalType": "uint256",
          "name": "amount",
          "type": "uint256"
        }
      ],
      "name": "BidAccepted",
      "type": "event"
    },
    {
      "anonymous": false,
      "inputs": [
        {
          "indexed": true,
          "internalType": "uint256",
          "name": "taskId",
          "type": "uint256"
        },
        {
          "indexed": true,
          "internalType": "address",
          "name": "bidder",
          "type": "address"
        },
        {
          "indexed": false,
          "internalType": "uint256",
          "name": "amount",
          "type": "uint256"
        },
        {
          "indexed": false,
          "internalType": "uint256",
          "name": "estimatedTime",
          "type": "uint256"
        }
      ],
      "name": "BidSubmitted",
      "type": "event"
    },
    {
      "anonymous": false,
      "inputs": [
        {
          "indexed": false,
          "internalType": "address",
          "name": "account",
          "type": "address"
        }
      ],
      "name": "Paused",
      "type": "event"
    },
    {
      "anonymous": false,
      "inputs": [
        {
          "indexed": true,
          "internalType": "address",
          "name": "previousPauser",
          "type": "address"
        },
        {
          "indexed": true,
          "internalType": "address",
          "name": "newPauser",
          "type": "address"
        }
      ],
      "name": "PauserTransferred",
      "type": "event"
    },
    {
      "anonymous": false,
      "inputs": [
        {
          "indexed": true,
          "internalType": "address",
          "name": "agent",
          "type": "address"
        },
        {
          "indexed": false,
          "internalType": "uint256",
          "name": "newScore",
          "type": "uint256"
        }
      ],
      "name": "ReputationUpdated",
      "type": "event"
    },
    {
      "anonymous": false,
      "inputs": [
        {
          "indexed": true,
          "internalType": "uint256",
          "name": "taskId",
          "type": "uint256"
        },
        {
          "indexed": true,
          "internalType": "address",
          "name": "worker",
          "type": "address"
        },
        {
          "indexed": false,
          "internalType": "uint256",
          "name": "payment",
          "type": "uint256"
        }
      ],
      "name": "TaskApproved",
      "type": "event"
    },
    {
      "anonymous": false,
      "inputs": [
        {
          "indexed": true,
          "internalType": "uint256",
          "name": "taskId",
          "type": "uint256"
        },
        {
          "indexed": false,
          "internalType": "uint256",
          "name": "refundAmount",
          "type": "uint256"
        }
      ],
      "name": "TaskCancelled",
      "type": "event"
    },
    {
      "anonymous": false,
      "inputs": [
        {
          "indexed": true,
          "internalType": "uint256",
          "name": "taskId",
          "type": "uint256"
        },
        {
          "indexed": true,
          "internalType": "address",
          "name": "by",
          "type": "address"
        },
        {
          "indexed": false,
          "internalType": "string",
          "name": "reason",
          "type": "string"
        }
      ],
      "name": "TaskDisputed",
      "type": "event"
    },
    {
      "anonymous": false,
      "inputs": [
        {
          "indexed": true,
          "internalType": "uint256",
          "name": "taskId",
          "type": "uint256"
        },
        {
          "indexed": true,
          "internalType": "address",
          "name": "poster",
          "type": "address"
        },
        {
          "indexed": false,
          "internalType": "string",
          "name": "title",
          "type": "string"
        },
        {
          "indexed": false,
          "internalType": "uint256",
          "name": "reward",
          "type": "uint256"
        },
        {
          "indexed": false,
          "internalType": "enum TaskMarket.TaskPriority",
          "name": "priority",
          "type": "uint8"
        },
        {
          "indexed": false,
          "internalType": "uint256",
          "name": "deadline",
          "type": "uint256"
        }
      ],
      "name": "TaskPosted",
      "type": "event"
    },
    {
      "anonymous": false,
      "inputs": [
        {
          "indexed": false,
          "internalType": "address",
          "name": "account",
          "type": "address"
        }
      ],
      "name": "Unpaused",
      "type": "event"
    },
    {
      "anonymous": false,
      "inputs": [
        {
          "indexed": true,
          "internalType": "uint256",
          "name": "taskId",
          "type": "uint256"
        },
        {
          "indexed": true,
          "internalType": "address",
          "name": "worker",
          "type": "address"
        },
        {
          "indexed": false,
          "internalType": "string",
          "name": "resultIPFS",
          "type": "string"
        }
      ],
      "name": "WorkCompleted",
      "type": "event"
    },
    {
      "anonymous": false,
      "inputs": [
        {
          "indexed": true,
          "internalType": "uint256",
          "name": "taskId",
          "type": "uint256"
        },
        {
          "indexed": true,
          "internalType": "address",
          "name": "worker",
          "type": "address"
        }
      ],
      "name": "WorkStarted",
      "type": "event"
    },
    {
      "inputs": [
        {
          "internalType": "uint256",
          "name": "_taskId",
          "type": "uint256"
        },
        {
          "internalType": "uint256",
          "name": "_bidIndex",
          "type": "uint256"
        }
      ],
      "name": "acceptBid",
      "outputs": [],
      "stateMutability": "nonpayable",
      "type": "function"
    },
    {
      "inputs": [
        {
          "internalType": "address",
          "name": "",
          "type": "address"
        }
      ],
      "name": "agentCompletedTasks",
      "outputs": [
        {
          "internalType": "uint256",
          "name": "",
          "type": "uint256"
        }
      ],
      "stateMutability": "view",
      "type": "function"
    },
    {
      "inputs": [
        {
          "internalType": "address",
          "name": "",
          "type": "address"
        }
      ],
      "name": "agentReputation",
      "outputs": [
        {
          "internalType": "uint256",
          "name": "",
          "type": "uint256"
        }
      ],
      "stateMutability": "view",
      "type": "function"
    },
    {
      "inputs": [
        {
          "internalType": "address",
          "name": "",
          "type": "address"
        },
        {
          "internalType": "uint256",
          "name": "",
          "type": "uint256"
        }
      ],
      "name": "agentTasks",
      "outputs": [
        {
          "internalType": "uint256",
          "name": "",
          "type": "uint256"
        }
      ],
      "stateMutability": "view",
      "type": "function"
    },
    {
      "inputs": [
        {
          "internalType": "address",
          "name": "",
          "type": "address"
        }
      ],
      "name": "agentTotalEarnings",
      "outputs": [
        {
          "internalType": "uint256",
          "name": "",
          "type": "uint256"
        }
      ],
      "stateMutability": "view",
      "type": "function"
    },
    {
      "inputs": [
        {
          "internalType": "uint256",
          "name": "_taskId",
          "type": "uint256"
        }
      ],
      "name": "approveWork",
      "outputs": [],
      "stateMutability": "nonpayable",
      "type": "function"
    },
    {
      "inputs": [
        {
          "internalType": "uint256",
          "name": "_taskId",
          "type": "uint256"
        },
        {
          "internalType": "uint256",
          "name": "_amount",
          "type": "uint256"
        },
        {
          "internalType": "uint256",
          "name": "_estimatedTime",
          "type": "uint256"
        },
        {
          "internalType": "string",
          "name": "_proposalIPFS",
          "type": "string"
        }
      ],
      "name": "bidOnTask",
      "outputs": [],
      "stateMutability": "nonpayable",
      "type": "function"
    },
    {
      "inputs": [
        {
          "internalType": "uint256",
          "name": "_taskId",
          "type": "uint256"
        }
      ],
      "name": "cancelTask",
      "outputs": [],
      "stateMutability": "nonpayable",
      "type": "function"
    },
    {
      "inputs": [],
      "name": "cancellationFeeBps",
      "outputs": [
        {
          "internalType": "uint256",
          "name": "",
          "type": "uint256"
        }
      ],
      "stateMutability": "view",
      "type": "function"
    },
    {
      "inputs": [
        {
          "internalType": "uint256",
          "name": "_taskId",
          "type": "uint256"
        },
        {
          "internalType": "string",
          "name": "_reason",
          "type": "string"
        }
      ],
      "name": "disputeTask",
      "outputs": [],
      "stateMutability": "nonpayable",
      "type": "function"
    },
    {
      "inputs": [],
      "name": "feeRecipient",
      "outputs": [
        {
          "internalType": "address",
          "name": "",
          "type": "address"
        }
      ],
      "stateMutability": "view",
      "type": "function"
    },
    {
      "inputs": [
        {
          "internalType": "address",
          "name": "_agent",
          "type": "address"
        }
      ],
      "name": "getAgentStats",
      "outputs": [
        {
          "internalType": "uint256",
          "name": "reputation",
          "type": "uint256"
        },
        {
          "internalType": "uint256",
          "name": "completed",
          "type": "uint256"
        },
        {
          "internalType": "uint256",
          "name": "earnings",
          "type": "uint256"
        }
      ],
      "stateMutability": "view",
      "type": "function"
    },
    {
      "inputs": [
        {
          "internalType": "address",
          "name": "_agent",
          "type": "address"
        }
      ],
      "name": "getAgentTasks",
      "outputs": [
        {
          "internalType": "uint256[]",
          "name": "",
          "type": "uint256[]"
        }
      ],
      "stateMutability": "view",
      "type": "function"
    },
    {
      "inputs": [
        {
          "internalType": "uint256",
          "name": "_taskId",
          "type": "uint256"
        }
      ],
      "name": "getBidCount",
      "outputs": [
        {
          "internalType": "uint256",
          "name": "",
          "type": "uint256"
        }
      ],
      "stateMutability": "view",
      "type": "function"
    },
    {
      "inputs": [
        {
          "internalType": "uint256",
          "name": "_taskId",
          "type": "uint256"
        }
      ],
      "name": "getBids",
      "outputs": [
        {
          "components": [
            {
              "internalType": "address",
              "name": "bidder",
              "type": "address"
            },
            {
              "internalType": "uint256",
              "name": "amount",
              "type": "uint256"
            },
            {
              "internalType": "uint256",
              "name": "estimatedTime",
              "type": "uint256"
            },
            {
              "internalType": "string",
              "name": "proposalIPFS",
              "type": "string"
            },
            {
              "internalType": "uint256",
              "name": "reputation",
              "type": "uint256"
            },
            {
              "internalType": "uint256",
              "name": "timestamp",
              "type": "uint256"
            },
            {
              "internalType": "bool",
              "name": "accepted",
              "type": "bool"
            }
          ],
          "internalType": "struct TaskMarket.Bid[]",
          "name": "",
          "type": "tuple[]"
        }
      ],
      "stateMutability": "view",
      "type": "function"
    },
    {
      "inputs": [
        {
          "internalType": "uint256",
          "name": "_offset",
          "type": "uint256"
        },
        {
          "internalType": "uint256",
          "name": "_limit",
          "type": "uint256"
        }
      ],
      "name": "getOpenTasks",
      "outputs": [
        {
          "internalType": "uint256[]",
          "name": "",
          "type": "uint256[]"
        }
      ],
      "stateMutability": "view",
      "type": "function"
    },
    {
      "inputs": [
        {
          "internalType": "uint256",
          "name": "_taskId",
          "type": "uint256"
        }
      ],
      "name": "getTask",
      "outputs": [
        {
          "components": [
            {
              "internalType": "uint256",
              "name": "id",
              "type": "uint256"
            },
            {
              "internalType": "address",
              "name": "poster",
              "type": "address"
            },
            {
              "internalType": "string",
              "name": "title",
              "type": "string"
            },
            {
              "internalType": "string",
              "name": "description",
              "type": "string"
            },
            {
              "internalType": "string",
              "name": "requirementsIPFS",
              "type": "string"
            },
            {
              "internalType": "uint256",
              "name": "reward",
              "type": "uint256"
            },
            {
              "internalType": "uint256",
              "name": "collateral",
              "type": "uint256"
            },
            {
              "internalType": "enum TaskMarket.TaskPriority",
              "name": "priority",
              "type": "uint8"
            },
            {
              "internalType": "enum TaskMarket.TaskStatus",
              "name": "status",
              "type": "uint8"
            },
            {
              "internalType": "uint256",
              "name": "createdAt",
              "type": "uint256"
            },
            {
              "internalType": "uint256",
              "name": "deadline",
              "type": "uint256"
            },
            {
              "internalType": "address",
              "name": "assignedTo",
              "type": "address"
            },
            {
              "internalType": "string",
              "name": "resultIPFS",
              "type": "string"
            },
            {
              "internalType": "uint256",
              "name": "completedAt",
              "type": "uint256"
            }
          ],
          "internalType": "struct TaskMarket.Task",
          "name": "",
          "type": "tuple"
        }
      ],
      "stateMutability": "view",
      "type": "function"
    },
    {
      "inputs": [],
      "name": "minimumReward",
      "outputs": [
        {
          "internalType": "uint256",
          "name": "",
          "type": "uint256"
        }
      ],
      "stateMutability": "view",
      "type": "function"
    },
    {
      "inputs": [],
      "name": "nextTaskId",
      "outputs": [
        {
          "internalType": "uint256",
          "name": "",
          "type": "uint256"
        }
      ],
      "stateMutability": "view",
      "type": "function"
    },
    {
      "inputs": [],
      "name": "pause",
      "outputs": [],
      "stateMutability": "nonpayable",
      "type": "function"
    },
    {
      "inputs": [],
      "name": "paused",
      "outputs": [
        {
          "internalType": "bool",
          "name": "",
          "type": "bool"
        }
      ],
      "stateMutability": "view",
      "type": "function"
    },
    {
      "inputs": [],
      "name": "pauser",
      "outputs": [
        {
          "internalType": "address",
          "name": "",
          "type": "address"
        }
      ],
      "stateMutability": "view",
      "type": "function"
    },
    {
      "inputs": [
        {
          "internalType": "string",
          "name": "_title",
          "type": "string"
        },
        {
          "internalType": "string",
          "name": "_description",
          "type": "string"
        },
        {
          "internalType": "string",
          "name": "_requirementsIPFS",
          "type": "string"
        },
        {
          "internalType": "uint256",
          "name": "_reward",
          "type": "uint256"
        },
        {
          "internalType": "enum TaskMarket.TaskPriority",
          "name": "_priority",
          "type": "uint8"
        }
      ],
      "name": "postTask",
      "outputs": [
        {
          "internalType": "uint256",
          "name": "taskId",
          "type": "uint256"
        }
      ],
      "stateMutability": "payable",
      "type": "function"
    },
    {
      "inputs": [],
      "name": "protocolFeeBps",
      "outputs": [
        {
          "internalType": "uint256",
          "name": "",
          "type": "uint256"
        }
      ],
      "stateMutability": "view",
      "type": "function"
    },
    {
      "inputs": [
        {
          "internalType": "uint256",
          "name": "_taskId",
          "type": "uint256"
        }
      ],
      "name": "startWork",
      "outputs": [],
      "stateMutability": "nonpayable",
      "type": "function"
    },
    {
      "inputs": [
        {
          "internalType": "uint256",
          "name": "_taskId",
          "type": "uint256"
        },
        {
          "internalType": "string",
          "name": "_resultIPFS",
          "type": "string"
        }
      ],
      "name": "submitWork",
      "outputs": [],
      "stateMutability": "nonpayable",
      "type": "function"
    },
    {
      "inputs": [
        {
          "internalType": "uint256",
          "name": "",
          "type": "uint256"
        },
        {
          "internalType": "uint256",
          "name": "",
          "type": "uint256"
        }
      ],
      "name": "taskBids",
      "outputs": [
        {
          "internalType": "address",
          "name": "bidder",
          "type": "address"
        },
        {
          "internalType": "uint256",
          "name": "amount",
          "type": "uint256"
        },
        {
          "internalType": "uint256",
          "name": "estimatedTime",
          "type": "uint256"
        },
        {
          "internalType": "string",
          "name": "proposalIPFS",
          "type": "string"
        },
        {
          "internalType": "uint256",
          "name": "reputation",
          "type": "uint256"
        },
        {
          "internalType": "uint256",
          "name": "timestamp",
          "type": "uint256"
        },
        {
          "internalType": "bool",
          "name": "accepted",
          "type": "bool"
        }
      ],
      "stateMutability": "view",
      "type": "function"
    },
    {
      "inputs": [
        {
          "internalType": "uint256",
          "name": "",
          "type": "uint256"
        }
      ],
      "name": "tasks",
      "outputs": [
        {
          "internalType": "uint256",
          "name": "id",
          "type": "uint256"
        },
        {
          "internalType": "address",
          "name": "poster",
          "type": "address"
        },
        {
          "internalType": "string",
          "name": "title",
          "type": "string"
        },
        {
          "internalType": "string",
          "name": "description",
          "type": "string"
        },
        {
          "internalType": "string",
          "name": "requirementsIPFS",
          "type": "string"
        },
        {
          "internalType": "uint256",
          "name": "reward",
          "type": "uint256"
        },
        {
          "internalType": "uint256",
          "name": "collateral",
          "type": "uint256"
        },
        {
          "internalType": "enum TaskMarket.TaskPriority",
          "name": "priority",
          "type": "uint8"
        },
        {
          "internalType": "enum TaskMarket.TaskStatus",
          "name": "status",
          "type": "uint8"
        },
        {
          "internalType": "uint256",
          "name": "createdAt",
          "type": "uint256"
        },
        {
          "internalType": "uint256",
          "name": "deadline",
          "type": "uint256"
        },
        {
          "internalType": "address",
          "name": "assignedTo",
          "type": "address"
        },
        {
          "internalType": "string",
          "name": "resultIPFS",
          "type": "string"
        },
        {
          "internalType": "uint256",
          "name": "completedAt",
          "type": "uint256"
        }
      ],
      "stateMutability": "view",
      "type": "function"
    },
    {
      "inputs": [],
      "name": "totalFeesCollected",
      "outputs": [
        {
          "internalType": "uint256",
          "name": "",
          "type": "uint256"
        }
      ],
      "stateMutability": "view",
      "type": "function"
    },
    {
      "inputs": [],
      "name": "totalTasksCompleted",
      "outputs": [
        {
          "internalType": "uint256",
          "name": "",
          "type": "uint256"
        }
      ],
      "stateMutability": "view",
      "type": "function"
    },
    {
      "inputs": [],
      "name": "totalTasksPosted",
      "outputs": [
        {
          "internalType": "uint256",
          "name": "",
          "type": "uint256"
        }
      ],
      "stateMutability": "view",
      "type": "function"
    },
    {
      "inputs": [],
      "name": "totalValueLocked",
      "outputs": [
        {
          "internalType": "uint256",
          "name": "",
          "type": "uint256"
        }
      ],
      "stateMutability": "view",
      "type": "function"
    },
    {
      "inputs": [
        {
          "internalType": "address",
          "name": "newPauser",
          "type": "address"
        }
      ],
      "name": "transferPauser",
      "outputs": [],
      "stateMutability": "nonpayable",
      "type": "function"
    },
    {
      "inputs": [],
      "name": "unpause",
      "outputs": [],
      "stateMutability": "nonpayable",
      "type": "function"
    },
    {
      "stateMutability": "payable",
      "type": "receive"
    }
  ],
  "bytecode": "0x6080346100d757601f612a6f38819003918201601f19168301916001600160401b038311848410176100dc578084926020946040528339810103126100d757516001600160a01b038116908190036100d75760017f9b779b17422d0df92223018b32b4d1fa46e071723d6817e2486d003becc55f0081905560008054610100600160a81b03191633600890811b610100600160a81b03169190911790915590805560fa60095566038d7ea4c68000600a556101f4600b5580546001600160a01b03191691909117905560405161297c90816100f38239f35b600080fd5b634e487b7160e01b600052604160045260246000fdfe6080604052600436101561001b575b361561001957600080fd5b005b60003560e01c806302e9d5e41461023b57806303a250f91461023657806309529dc114610231578063108ab45e1461022c578063131d9a2714610227578063164bcc26146102225780631d65e77e1461021d5780632b42900a1461021857806335659fb8146102135780633d01e0fa1461020e5780633f4ba83a146102095780634421ea211461020457806346904840146101ff5780634bddd209146101fa5780635492b197146101f557806354de6e32146101f05780635c975abb146101eb57806360c6d8ae146101e6578063611f364a146101e1578063670ad782146101dc57806370efdfb1146101d7578063744d3411146101d25780637eec20a8146101cd578063803a29da146101c8578063813f8dc1146101c35780638456cb59146101be5780638d977672146101b957806395305683146101b45780639fd0506d146101af578063b5695b38146101aa578063d8ea6821146101a5578063da8accf9146101a0578063ec18154e1461019b5763fdc3d8d70361000e57611bc2565b611ba4565b611ae7565b611a63565b611a08565b6119db565b6119bd565b611903565b6117e0565b6117c2565b611732565b6115e1565b6115b5565b61157b565b611523565b6114ed565b6114cf565b6114ac565b611472565b6113f5565b61110f565b6110b2565b610fec565b610f61565b610c7d565b610c5f565b610a6c565b610999565b61076a565b610645565b610535565b6104fb565b610433565b3461042e57604036600319011261042e5760043560243560009160ff83541661041c57610266612211565b808352600260205261027d60408420541515612241565b80835260026020527f91a721693afff25f233ac308edbd2fa15ad7d4dfacdd164dd4e8c57ab72f4ae960018060a01b036102c1816001604088200154163314612468565b6103ee6102d8846000526002602052604060002090565b9461039f61033d60078801926103056102f6855460ff9060081c1690565b6102ff8161088a565b1561227e565b61032461031c896000526003602052604060002090565b5482106124a1565b610338886000526003602052604060002090565b61123a565b509161036d6006840161036061035b610357835460ff1690565b1590565b6124db565b805460ff19166001179055565b8254600a890180546001600160a01b0319166001600160a01b03909216919091179055805461ff001916610100179055565b6001810195600587549101556103e1856103dc6103c2845460018060a01b031690565b6001600160a01b0316600090815260046020526040902090565b61218a565b546001600160a01b031690565b935460405190815293169280602081015b0390a3610419600160008051602061292783398151915255565b80f35b60405163ab35696f60e01b8152600490fd5b600080fd5b3461042e57602036600319011261042e57600435600090808252600260205261046160408320541515612241565b808252600260205260076040832061048660018060a01b03600a83015416331461251a565b0160ff815460081c169060078210156104e0576104a860016104b7931461251a565b805461ff001916610200179055565b33907f4883666eff4707b2212b9bf824c3a2c47933345113365d6229f5ed21336049498380a380f35b61085d565b600435906001600160a01b038216820361042e57565b3461042e57602036600319011261042e576001600160a01b0361051c6104e5565b1660005260076020526020604060002054604051908152f35b3461042e57600036600319011261042e576020600d54604051908152f35b919082519283825260005b84811061057f575050826000602080949584010152601f8019910116010190565b60208183018101518483018201520161055e565b602080820190808352835180925260409283810182858560051b8401019601946000925b8584106105c8575050505050505090565b909192939495968580600192603f198582030187528a5190848060a01b038251168152828201518382015286820151878201526106146060808401519060e08091850152830190610553565b916080808201519083015260a0808201519083015260c08091015115159101529901940194019295949391906105b7565b3461042e5760208060031936011261042e576004803560005260038083526040928360002090815492610677846128fa565b94610684875196876112e9565b8486526000938452828420918387015b8686106106ac578851806106a88a82610593565b0390f35b6007856001928b516106bd816112ab565b875460a086901b869003166001600160a01b03168152848801548382015260028801548d8201526106ef86890161130b565b6060820152868801546080820152600588015460a082015261072161071860068a015460ff1690565b151560c0830152565b815201940195019492610694565b6020908160408183019282815285518094520193019160005b828110610756575050505090565b835185529381019392810192600101610748565b3461042e57604036600319011261042e5760243560043561078a826128fa565b9061079860405192836112e9565b828252601f196107a7846128fa565b0136602084013760009260019182810180911161085857825490835b6107d9575b858552604051806106a8878261072f565b8181108061084f575b1561084a5761080b6007610800836000526002602052604060002090565b015460081c60ff1690565b6108148161088a565b15610829575b61082390611e5b565b836107c3565b94610842818761083c6108239489612912565b52611e5b565b95905061081a565b6107c8565b508286106107e2565b611e45565b634e487b7160e01b600052602160045260246000fd5b600411156104e057565b9060048210156104e05752565b600711156104e057565b9060078210156104e05752565b60208082528251828201528201516001600160a01b0316604082015260408201516108da6101c0918260608501526101e0840190610553565b6109906109106108fc606087015193601f199485888303016080890152610553565b6080870151848783030160a0880152610553565b60a086015160c086015260c086015160e086015260e0860151610939610100918288019061087d565b86015161094c6101209182880190610894565b8601516101409081870152860151610160908187015286015161097c610180918288019060018060a01b03169052565b8601516101a0938683030184870152610553565b93015191015290565b3461042e57602036600319011261042e576040516109b6816112cc565b6101a060009182815282602082015260606040820152606080820152606060808201528260a08201528260c08201528260e082015282610100820152826101208201528261014082015282610160820152606061018082015201526106a8610a32610a2d6004356000526002602052604060002090565b612823565b604051918291826108a1565b9181601f8401121561042e5782359167ffffffffffffffff831161042e576020838186019501011161042e57565b3461042e57608036600319011261042e5760443560243560043560643567ffffffffffffffff811161042e57610aa6903690600401610a3e565b6000949160ff86541661041c57610abb612211565b8386526002602052610ad260408720541515612241565b610ae6846000526002602052604060002090565b6007810154610afa9060081c60ff166102f6565b610b09600982015442106122b5565b610b1960058201548711156122f3565b600190810154610b4590610b3d906001600160a01b03165b6001600160a01b031690565b331415612334565b86815b610bf7575b50503360009081526005602052604090207f71a5674c44b823bc0df08201dfeb2e8bdf698cd684fd2bbaa79adcf2c99fc186936103ff939092610bde92610baf905491610b98611e85565b338152938a60208601528660408601523691611ebb565b606083015260808201524260a08201528760c0820152610bd9866000526003602052604060002090565b6123b3565b6040805195865260208601919091523394918291820190565b610c0b866000526003602052604060002090565b54811015610c5a5780610c4f610c32610c54936103388a6000526003602052604060002090565b50543390610c48906001600160a01b0316610b31565b1415612379565b611e5b565b81610b48565b610b4d565b3461042e57600036600319011261042e576020600954604051908152f35b3461042e57602036600319011261042e5760ff6000541661041c57610ca0612211565b60043560005260026020526040600020541515610cbc90612241565b6004356000526002602052600160a01b60019003604060002060010154163314610ce590612468565b600435610cfc906000526002602052604060002090565b60078101805460081c60ff16610d118161088a565b600314610d1d90612664565b805461ff001916610500179055600581015490600954610d3d90836126a0565b61271090049182610d4d916126b3565b916006820154600e5490610d60916126b3565b600e5580600f5490610d7191611e78565b600f55600d54610d8090611e5b565b600d55600a8201546001600160a01b031660009081526005602052604090208054610daa90611e6a565b9055600a8201546001600160a01b031660009081526006602052604090208054610dd390611e5b565b9055600a8201546001600160a01b031660009081526007602052604090208054610dfe908590611e78565b9055600a82015483906001600160a01b03165a6000809381938293f1610e226126c0565b50610e2c906126f0565b6008546001600160a01b03165a6000809381938293f1610e4a6126c0565b50610e549061272d565b60068101546005820154610e67916126b3565b801515610ead600a7ffc577563f1b9a0461e24abef1e1fcc0d33d3d881f20b5df6dda59de4aae2c82194610f1594610f0494610f2f575b5001546001600160a01b031690565b6040519485526001600160a01b038116948590600435907f224350e49b29e656cb8c93d7379c7ddb4907c6009b64159a5e70d38092eae19790602090a36001600160a01b0316600090815260056020526040902090565b546040519081529081906020820190565b0390a2610019600160008051602061292783398151915255565b6000808080610f5b94610f4b600188015460018060a01b031690565b5af1610f556126c0565b5061276f565b38610e9e565b3461042e57600080600319360112610fe9578054600881901c6001600160a01b03163303610fd75760ff811615610fc55760ff191681557f5db9ee0a495bf2e6ff9c91a7834c1ba4fdd244a5e8aa4e537bd38aeae4b073aa6020604051338152a180f35b60405163dcdde9dd60e01b8152600490fd5b60405163492f678160e01b8152600490fd5b80fd5b3461042e57602036600319011261042e576110056104e5565b60005460081c6001600160a01b039081169033829003610fd75782169182156110745760008054610100600160a81b03191660089290921b610100600160a81b03169190911790557f51c4874e0f23f262e04a38c51751336dde72126d67f53eb672aaff02996b3ef6600080a3005b60405162461bcd60e51b8152602060048201526016602482015275496e76616c696420706175736572206164647265737360501b6044820152606490fd5b3461042e57600036600319011261042e576008546040516001600160a01b039091168152602090f35b90604060031983011261042e57600435916024359067ffffffffffffffff821161042e5761110b91600401610a3e565b9091565b3461042e577f2214f6a8b429291289d3afcdfccc59167b10f1d8ad1529e3959f9cd19f19af5f6111e6611141366110db565b826000959394929552600260205261115f6040600020541515612241565b6111d86007611178866000526002602052604060002090565b600181015461118f906001600160a01b0316610b31565b331480156111ff575b6111a1906127ab565b0180546111c99060081c60ff166111b78161088a565b600281149081156111eb575b506127e6565b805461ff001916610400179055565b604051918291339683612653565b0390a3005b600391506111f88161088a565b14386111c3565b50600a8101546111a19061121b906001600160a01b0316610b31565b33149050611198565b634e487b7160e01b600052603260045260246000fd5b8054821015611256576000526007602060002091020190600090565b611224565b90600182811c9216801561128b575b602083101461127557565b634e487b7160e01b600052602260045260246000fd5b91607f169161126a565b634e487b7160e01b600052604160045260246000fd5b60e0810190811067ffffffffffffffff8211176112c757604052565b611295565b6101c0810190811067ffffffffffffffff8211176112c757604052565b90601f8019910116810190811067ffffffffffffffff8211176112c757604052565b906040519182600082549261131f8461125b565b90818452600194858116908160001461138e575060011461134b575b5050611349925003836112e9565b565b9093915060005260209081600020936000915b8183106113765750506113499350820101388061133b565b8554888401850152948501948794509183019161135e565b91505061134994506020925060ff191682840152151560051b820101388061133b565b95926113e39260c0969998959260018060a01b031688526020880152604087015260e0606087015260e0860190610553565b95608085015260a08401521515910152565b3461042e57604036600319011261042e576024356004356000526003602052604060002090815481101561042e5761142c9161123a565b5060018060a01b038154166106a86001830154926002810154906114526003820161130b565b60048201549060ff600660058501549401541693604051978897886113b1565b3461042e57602036600319011261042e576001600160a01b036114936104e5565b1660005260056020526020604060002054604051908152f35b3461042e57600036600319011261042e57602060ff600054166040519015158152f35b3461042e57600036600319011261042e576020600f54604051908152f35b3461042e57600036600319011261042e576020600c54604051908152f35b80548210156112565760005260206000200190600090565b3461042e57604036600319011261042e5761153c6104e5565b6001600160a01b031660009081526004602052604090208054602435919082101561042e5760209161156d9161150b565b90546040519160031b1c8152f35b3461042e57602036600319011261042e576001600160a01b0361159c6104e5565b1660005260066020526020604060002054604051908152f35b3461042e57602036600319011261042e5760043560005260036020526020604060002054604051908152f35b3461042e57602036600319011261042e5760043560009080825260026020526040822054151561161090612241565b80825260026020526040822060010154611634906001600160a01b03163314612468565b611648816000526002602052604060002090565b60078101805460081c60ff1661165d8161088a565b156116679061227e565b805461ff001916610600179055828080806006850154600b5461168a90826126a0565b6127109004958280808061169e8b876126b3565b9a8b96600e54906116ae916126b3565b600e5580600f54906116bf91611e78565b600f556008546001600160a01b03165af16116d86126c0565b506116e29061272d565b600101546001600160a01b03165af16116f96126c0565b506117039061276f565b6040519081527f58716386e17644e69ff7358e3317a395f4523fcd0fb9cc227ee68d117ebbfbfc90602090a280f35b60a036600319011261042e5767ffffffffffffffff60043581811161042e5761175f903690600401610a3e565b9060243583811161042e57611778903690600401610a3e565b91909360443590811161042e57611793903690600401610a3e565b9060843593600485101561042e576106a8966117b29660643595611be0565b6040519081529081906020820190565b3461042e57600036600319011261042e576020600a54604051908152f35b3461042e57600080600319360112610fe9578054600881901c6001600160a01b03163303610fd75760ff811661041c5760019060ff19161781557f62e78cea01bee320cd4e420270b5ea74000d11b0c9f74754ebdbfc544b05a2586020604051338152a180f35b9e9d9c98928f6101a09d986118b66118fe9e999d986118a86118d39961189a6118f09f98976118896118c89b60e09a8a5260208a019060018060a01b03169052565b6101c08060408a0152880190610553565b908682036060880152610553565b908482036080860152610553565b9c60a083015260c0820152019061087d565b6101008d0190610894565b6101208b01526101408a01526001600160a01b0316610160890152565b868203610180880152610553565b930152565b3461042e57602036600319011261042e576004356000908152600260205260409020805460018201546106a8906001600160a01b0316916119466002850161130b565b936119536003820161130b565b916119606004830161130b565b90600583015490600684015490600785015490600886015492600987015494611992600a89015460018060a01b031690565b96600c6119a1600b8b0161130b565b990154996040519d8e9d8e9660ff808a60081c16991697611847565b3461042e57600036600319011261042e576020600b54604051908152f35b3461042e57600036600319011261042e5760005460405160089190911c6001600160a01b03168152602090f35b3461042e57602036600319011261042e576001600160a01b03611a296104e5565b1660005260056020526060604060002054600660205260406000205460076020526040600020549060405192835260208301526040820152f35b3461042e5760208060031936011261042e576001600160a01b03611a856104e5565b1660005260048152604060002090604051908181845491828152019360005281600020916000905b828210611ad0576106a885611ac4818903826112e9565b6040519182918261072f565b835486529485019460019384019390910190611aad565b3461042e57611af5366110db565b917f6fbd90f6b051dd2b74925fe39aef5391515a82ac6783676b36a54aa5221c6a4f611b9e6000948386526002602052611b3460408720541515612241565b83865260026020526111d860408720611b5a60018060a01b03600a83015416331461251a565b6007810190611b7b600260ff845460081c16611b758161088a565b14612555565b611b898489600b8401612593565b600c4291015561030061ff0019825416179055565b0390a380f35b3461042e57600036600319011261042e576020600e54604051908152f35b3461042e57600036600319011261042e576020600154604051908152f35b9190959296939660ff6000541661041c57611bf9612211565b611c07600a54851015611dc5565b611c1384341015611e02565b611c1c85610873565b84611d87576203f480915b600154988997611c3689611e5b565b600155611c438542611e78565b92611c4c611e92565b8a815233602082015294611c61368d8a611ebb565b60408701523690611c7192611ebb565b60608501523690611c8192611ebb565b608083015260a082018590523460c0830152611ca08660e08401611ef2565b61010082016000905242610120830152610140820152610160810160009052611cc7611f0a565b6101808201526101a0810160009052611cea866000526002602052604060002090565b90611cf491612088565b33600090815260046020526040902085611d0d9161218a565b600c54611d1990611e5b565b600c5534600e5490611d2a91611e78565b600e55611d379042611e78565b6040519384933397611d4994866121e0565b037f3e3dad351780e0c5d9667147ca353c4414b45bff35c16eab9cf5bf45f60d71ac91a3611d84600160008051602061292783398151915255565b90565b611d9085610873565b60018503611da2576201518091611c27565b611dab85610873565b60028503611dbc5761384091611c27565b610e1091611c27565b15611dcc57565b60405162461bcd60e51b815260206004820152600e60248201526d52657761726420746f6f206c6f7760901b6044820152606490fd5b15611e0957565b60405162461bcd60e51b8152602060048201526014602482015273125b9cdd59999a58da595b9d081c185e5b595b9d60621b6044820152606490fd5b634e487b7160e01b600052601160045260246000fd5b60001981146108585760010190565b90600a820180921161085857565b9190820180921161085857565b60405190611349826112ab565b60405190611349826112cc565b67ffffffffffffffff81116112c757601f01601f191660200190565b929192611ec782611e9f565b91611ed560405193846112e9565b82948184528183011161042e578281602093846000960137010152565b60048210156104e05752565b60078210156104e05752565b604051906020820182811067ffffffffffffffff8211176112c75760405260008252565b90601f8111611f3c57505050565b600091825260208220906020601f850160051c83019410611f78575b601f0160051c01915b828110611f6d57505050565b818155600101611f61565b9092508290611f58565b919091825167ffffffffffffffff81116112c757611faa81611fa4845461125b565b84611f2e565b602080601f8311600114611fe6575081929394600092611fdb575b50508160011b916000199060031b1c1916179055565b015190503880611fc5565b90601f19831695611ffc85600052602060002090565b926000905b88821061203957505083600195969710612020575b505050811b019055565b015160001960f88460031b161c19169055388080612016565b80600185968294968601518155019501930190612001565b9060048110156104e05760ff80198354169116179055565b9060078110156104e05761ff0082549160081b169061ff001916179055565b8151815560208201516001820180546001600160a01b0319166001600160a01b0390921691909117905590600c906101a0906120cb604082015160028601611f82565b6120dc606082015160038601611f82565b6120ed608082015160048601611f82565b60a0810151600585015560c081015160068501556121346007850161211f60e084015161211981610873565b82612051565b6101008301519061212f8261088a565b612069565b61012081015160088501556101408101516009850155610160810151600a850180546001600160a01b0319166001600160a01b03909216919091179055612183610180820151600b8601611f82565b0151910155565b8054600160401b8110156112c7576121a79160018201815561150b565b819291549060031b91821b91600019901b1916179055565b908060209392818452848401376000828201840152601f01601f1916010190565b91936121fd61220d926060959897966080865260808601916121bf565b966020840152604083019061087d565b0152565b600080516020612927833981519152600281541461222f5760029055565b604051633ee5aeb560e01b8152600490fd5b1561224857565b60405162461bcd60e51b815260206004820152600e60248201526d15185cdac81b9bdd08199bdd5b9960921b6044820152606490fd5b1561228557565b60405162461bcd60e51b81526020600482015260086024820152672737ba1037b832b760c11b6044820152606490fd5b156122bc57565b60405162461bcd60e51b815260206004820152600f60248201526e111958591b1a5b99481c185cdcd959608a1b6044820152606490fd5b156122fa57565b60405162461bcd60e51b8152602060048201526012602482015271109a5908195e18d959591cc81c995dd85c9960721b6044820152606490fd5b1561233b57565b60405162461bcd60e51b815260206004820152601660248201527543616e6e6f7420626964206f6e206f776e207461736b60501b6044820152606490fd5b1561238057565b60405162461bcd60e51b815260206004820152600b60248201526a105b1c9958591e48189a5960aa1b6044820152606490fd5b8054600160401b8110156112c7576123d09160018201815561123a565b61245257815181546001600160a01b0319166001600160a01b03919091161781556113499160069061243f9060c0906020810151600186015560408101516002860155612424606082015160038701611f82565b6080810151600486015560a081015160058601550151151590565b91019060ff801983541691151516179055565b634e487b7160e01b600052600060045260246000fd5b1561246f57565b60405162461bcd60e51b815260206004820152600a6024820152692737ba103837b9ba32b960b11b6044820152606490fd5b156124a857565b60405162461bcd60e51b815260206004820152600b60248201526a125b9d985b1a5908189a5960aa1b6044820152606490fd5b156124e257565b60405162461bcd60e51b815260206004820152601060248201526f105b1c9958591e481858d8d95c1d195960821b6044820152606490fd5b1561252157565b60405162461bcd60e51b815260206004820152600c60248201526b139bdd08185cdcda59db995960a21b6044820152606490fd5b1561255c57565b60405162461bcd60e51b815260206004820152600f60248201526e4e6f7420696e2070726f677265737360881b6044820152606490fd5b90929167ffffffffffffffff81116112c7576125b381611fa4845461125b565b6000601f82116001146125ec57819293946000926125e15750508160011b916000199060031b1c1916179055565b013590503880611fc5565b601f1982169461260184600052602060002090565b91805b87811061263b57508360019596971061262157505050811b019055565b0135600019600384901b60f8161c19169055388080612016565b90926020600181928686013581550194019101612604565b916020611d849381815201916121bf565b1561266b57565b60405162461bcd60e51b815260206004820152600d60248201526c139bdd0818dbdb5c1b195d1959609a1b6044820152606490fd5b8181029291811591840414171561085857565b9190820391821161085857565b3d156126eb573d906126d182611e9f565b916126df60405193846112e9565b82523d6000602084013e565b606090565b156126f757565b60405162461bcd60e51b815260206004820152600e60248201526d14185e5b595b9d0819985a5b195960921b6044820152606490fd5b1561273457565b60405162461bcd60e51b8152602060048201526013602482015272119959481d1c985b9cd9995c8819985a5b1959606a1b6044820152606490fd5b1561277657565b60405162461bcd60e51b815260206004820152600d60248201526c1499599d5b990819985a5b1959609a1b6044820152606490fd5b156127b257565b60405162461bcd60e51b815260206004820152600c60248201526b139bdd081a5b9d9bdb1d995960a21b6044820152606490fd5b156127ed57565b60405162461bcd60e51b815260206004820152600e60248201526d43616e6e6f74206469737075746560901b6044820152606490fd5b90600c61282e611e92565b8354815260018401546001600160a01b03166020820152926128526002820161130b565b60408501526128636003820161130b565b60608501526128746004820161130b565b6080850152600581015460a0850152600681015460c08501526128b460ff60078301546128a682821660e08901611ef2565b60081c166101008601611efe565b60088101546101208501526009810154610140850152600a8101546001600160a01b03166101608501526128ea600b820161130b565b61018085015201546101a0830152565b67ffffffffffffffff81116112c75760051b60200190565b80518210156112565760209160051b01019056fe9b779b17422d0df92223018b32b4d1fa46e071723d6817e2486d003becc55f00a2646970667358221220c87d51b4b1405e6ca8cb3e388de95e46df9003ebfe11ebfd820c94e79047e3a464736f6c63430008140033",
  "linkReferences": {},
  "deployedLinkReferences": {}
}