{
  "_format": "hh-sol-artifact-1",
  "contractName": "TaskMarket",
  "sourceName": "contracts/TaskMarket.sol",
  "abi": [
    {
      "inputs": [
        {
          "internalType": "address",
          "name": "_feeRecipient",
          "type": "address"
        }
      ],
      "stateMutability": "nonpayable",
      "type": "constructor"
    },
    {
      "anonymous": false,
      "inputs": [
        {
          "indexed": true,
          "internalType": "uint256",
          "name": "taskId",
          "type": "uint256"
        },
        {
          "indexed": true,
          "internalType": "address",
          "name": "bidder",
          "type": "address"
        },
        {
          "indexed": false,
          "internalType": "uint256",
          "name": "amount",
          "type": "uint256"
        }
      ],
      "name": "BidAccepted",
      "type": "event"
    },
    {
      "anonymous": false,
      "inputs": [
        {
          "indexed": true,
          "internalType": "uint256",
          "name": "taskId",
          "type": "uint256"
        },
        {
          "indexed": true,
          "internalType": "address",
          "name": "bidder",
          "type": "address"
        },
        {
          "indexed": false,
          "internalType": "uint256",
          "name": "amount",
          "type": "uint256"
        },
        {
          "indexed": false,
          "internalType": "uint256",
          "name": "estimatedTime",
          "type": "uint256"
        }
      ],
      "name": "BidSubmitted",
      "type": "event"
    },
    {
      "anonymous": false,
      "inputs": [
        {
          "indexed": true,
          "internalType": "address",
          "name": "agent",
          "type": "address"
        },
        {
          "indexed": false,
          "internalType": "uint256",
          "name": "newScore",
          "type": "uint256"
        }
      ],
      "name": "ReputationUpdated",
      "type": "event"
    },
    {
      "anonymous": false,
      "inputs": [
        {
          "indexed": true,
          "internalType": "uint256",
          "name": "taskId",
          "type": "uint256"
        },
        {
          "indexed": true,
          "internalType": "address",
          "name": "worker",
          "type": "address"
        },
        {
          "indexed": false,
          "internalType": "uint256",
          "name": "payment",
          "type": "uint256"
        }
      ],
      "name": "TaskApproved",
      "type": "event"
    },
    {
      "anonymous": false,
      "inputs": [
        {
          "indexed": true,
          "internalType": "uint256",
          "name": "taskId",
          "type": "uint256"
        },
        {
          "indexed": false,
          "internalType": "uint256",
          "name": "refundAmount",
          "type": "uint256"
        }
      ],
      "name": "TaskCancelled",
      "type": "event"
    },
    {
      "anonymous": false,
      "inputs": [
        {
          "indexed": true,
          "internalType": "uint256",
          "name": "taskId",
          "type": "uint256"
        },
        {
          "indexed": true,
          "internalType": "address",
          "name": "by",
          "type": "address"
        },
        {
          "indexed": false,
          "internalType": "string",
          "name": "reason",
          "type": "string"
        }
      ],
      "name": "TaskDisputed",
      "type": "event"
    },
    {
      "anonymous": false,
      "inputs": [
        {
          "indexed": true,
          "internalType": "uint256",
          "name": "taskId",
          "type": "uint256"
        },
        {
          "indexed": true,
          "internalType": "address",
          "name": "poster",
          "type": "address"
        },
        {
          "indexed": false,
          "internalType": "string",
          "name": "title",
          "type": "string"
        },
        {
          "indexed": false,
          "internalType": "uint256",
          "name": "reward",
          "type": "uint256"
        },
        {
          "indexed": false,
          "internalType": "enum TaskMarket.TaskPriority",
          "name": "priority",
          "type": "uint8"
        },
        {
          "indexed": false,
          "internalType": "uint256",
          "name": "deadline",
          "type": "uint256"
        }
      ],
      "name": "TaskPosted",
      "type": "event"
    },
    {
      "anonymous": false,
      "inputs": [
        {
          "indexed": true,
          "internalType": "uint256",
          "name": "taskId",
          "type": "uint256"
        },
        {
          "indexed": true,
          "internalType": "address",
          "name": "worker",
          "type": "address"
        },
        {
          "indexed": false,
          "internalType": "string",
          "name": "resultIPFS",
          "type": "string"
        }
      ],
      "name": "WorkCompleted",
      "type": "event"
    },
    {
      "anonymous": false,
      "inputs": [
        {
          "indexed": true,
          "internalType": "uint256",
          "name": "taskId",
          "type": "uint256"
        },
        {
          "indexed": true,
          "internalType": "address",
          "name": "worker",
          "type": "address"
        }
      ],
      "name": "WorkStarted",
      "type": "event"
    },
    {
      "inputs": [
        {
          "internalType": "uint256",
          "name": "_taskId",
          "type": "uint256"
        },
        {
          "internalType": "uint256",
          "name": "_bidIndex",
          "type": "uint256"
        }
      ],
      "name": "acceptBid",
      "outputs": [],
      "stateMutability": "nonpayable",
      "type": "function"
    },
    {
      "inputs": [
        {
          "internalType": "address",
          "name": "",
          "type": "address"
        }
      ],
      "name": "agentCompletedTasks",
      "outputs": [
        {
          "internalType": "uint256",
          "name": "",
          "type": "uint256"
        }
      ],
      "stateMutability": "view",
      "type": "function"
    },
    {
      "inputs": [
        {
          "internalType": "address",
          "name": "",
          "type": "address"
        }
      ],
      "name": "agentReputation",
      "outputs": [
        {
          "internalType": "uint256",
          "name": "",
          "type": "uint256"
        }
      ],
      "stateMutability": "view",
      "type": "function"
    },
    {
      "inputs": [
        {
          "internalType": "address",
          "name": "",
          "type": "address"
        },
        {
          "internalType": "uint256",
          "name": "",
          "type": "uint256"
        }
      ],
      "name": "agentTasks",
      "outputs": [
        {
          "internalType": "uint256",
          "name": "",
          "type": "uint256"
        }
      ],
      "stateMutability": "view",
      "type": "function"
    },
    {
      "inputs": [
        {
          "internalType": "address",
          "name": "",
          "type": "address"
        }
      ],
      "name": "agentTotalEarnings",
      "outputs": [
        {
          "internalType": "uint256",
          "name": "",
          "type": "uint256"
        }
      ],
      "stateMutability": "view",
      "type": "function"
    },
    {
      "inputs": [
        {
          "internalType": "uint256",
          "name": "_taskId",
          "type": "uint256"
        }
      ],
      "name": "approveWork",
      "outputs": [],
      "stateMutability": "nonpayable",
      "type": "function"
    },
    {
      "inputs": [
        {
          "internalType": "uint256",
          "name": "_taskId",
          "type": "uint256"
        },
        {
          "internalType": "uint256",
          "name": "_amount",
          "type": "uint256"
        },
        {
          "internalType": "uint256",
          "name": "_estimatedTime",
          "type": "uint256"
        },
        {
          "internalType": "string",
          "name": "_proposalIPFS",
          "type": "string"
        }
      ],
      "name": "bidOnTask",
      "outputs": [],
      "stateMutability": "nonpayable",
      "type": "function"
    },
    {
      "inputs": [
        {
          "internalType": "uint256",
          "name": "_taskId",
          "type": "uint256"
        }
      ],
      "name": "cancelTask",
      "outputs": [],
      "stateMutability": "nonpayable",
      "type": "function"
    },
    {
      "inputs": [],
      "name": "cancellationFeeBps",
      "outputs": [
        {
          "internalType": "uint256",
          "name": "",
          "type": "uint256"
        }
      ],
      "stateMutability": "view",
      "type": "function"
    },
    {
      "inputs": [
        {
          "internalType": "uint256",
          "name": "_taskId",
          "type": "uint256"
        },
        {
          "internalType": "string",
          "name": "_reason",
          "type": "string"
        }
      ],
      "name": "disputeTask",
      "outputs": [],
      "stateMutability": "nonpayable",
      "type": "function"
    },
    {
      "inputs": [],
      "name": "feeRecipient",
      "outputs": [
        {
          "internalType": "address",
          "name": "",
          "type": "address"
        }
      ],
      "stateMutability": "view",
      "type": "function"
    },
    {
      "inputs": [
        {
          "internalType": "address",
          "name": "_agent",
          "type": "address"
        }
      ],
      "name": "getAgentStats",
      "outputs": [
        {
          "internalType": "uint256",
          "name": "reputation",
          "type": "uint256"
        },
        {
          "internalType": "uint256",
          "name": "completed",
          "type": "uint256"
        },
        {
          "internalType": "uint256",
          "name": "earnings",
          "type": "uint256"
        }
      ],
      "stateMutability": "view",
      "type": "function"
    },
    {
      "inputs": [
        {
          "internalType": "address",
          "name": "_agent",
          "type": "address"
        }
      ],
      "name": "getAgentTasks",
      "outputs": [
        {
          "internalType": "uint256[]",
          "name": "",
          "type": "uint256[]"
        }
      ],
      "stateMutability": "view",
      "type": "function"
    },
    {
      "inputs": [
        {
          "internalType": "uint256",
          "name": "_taskId",
          "type": "uint256"
        }
      ],
      "name": "getBidCount",
      "outputs": [
        {
          "internalType": "uint256",
          "name": "",
          "type": "uint256"
        }
      ],
      "stateMutability": "view",
      "type": "function"
    },
    {
      "inputs": [
        {
          "internalType": "uint256",
          "name": "_taskId",
          "type": "uint256"
        }
      ],
      "name": "getBids",
      "outputs": [
        {
          "components": [
            {
              "internalType": "address",
              "name": "bidder",
              "type": "address"
            },
            {
              "internalType": "uint256",
              "name": "amount",
              "type": "uint256"
            },
            {
              "internalType": "uint256",
              "name": "estimatedTime",
              "type": "uint256"
            },
            {
              "internalType": "string",
              "name": "proposalIPFS",
              "type": "string"
            },
            {
              "internalType": "uint256",
              "name": "reputation",
              "type": "uint256"
            },
            {
              "internalType": "uint256",
              "name": "timestamp",
              "type": "uint256"
            },
            {
              "internalType": "bool",
              "name": "accepted",
              "type": "bool"
            }
          ],
          "internalType": "struct TaskMarket.Bid[]",
          "name": "",
          "type": "tuple[]"
        }
      ],
      "stateMutability": "view",
      "type": "function"
    },
    {
      "inputs": [
        {
          "internalType": "uint256",
          "name": "_offset",
          "type": "uint256"
        },
        {
          "internalType": "uint256",
          "name": "_limit",
          "type": "uint256"
        }
      ],
      "name": "getOpenTasks",
      "outputs": [
        {
          "internalType": "uint256[]",
          "name": "",
          "type": "uint256[]"
        }
      ],
      "stateMutability": "view",
      "type": "function"
    },
    {
      "inputs": [
        {
          "internalType": "uint256",
          "name": "_taskId",
          "type": "uint256"
        }
      ],
      "name": "getTask",
      "outputs": [
        {
          "components": [
            {
              "internalType": "uint256",
              "name": "id",
              "type": "uint256"
            },
            {
              "internalType": "address",
              "name": "poster",
              "type": "address"
            },
            {
              "internalType": "string",
              "name": "title",
              "type": "string"
            },
            {
              "internalType": "string",
              "name": "description",
              "type": "string"
            },
            {
              "internalType": "string",
              "name": "requirementsIPFS",
              "type": "string"
            },
            {
              "internalType": "uint256",
              "name": "reward",
              "type": "uint256"
            },
            {
              "internalType": "uint256",
              "name": "collateral",
              "type": "uint256"
            },
            {
              "internalType": "enum TaskMarket.TaskPriority",
              "name": "priority",
              "type": "uint8"
            },
            {
              "internalType": "enum TaskMarket.TaskStatus",
              "name": "status",
              "type": "uint8"
            },
            {
              "internalType": "uint256",
              "name": "createdAt",
              "type": "uint256"
            },
            {
              "internalType": "uint256",
              "name": "deadline",
              "type": "uint256"
            },
            {
              "internalType": "address",
              "name": "assignedTo",
              "type": "address"
            },
            {
              "internalType": "string",
              "name": "resultIPFS",
              "type": "string"
            },
            {
              "internalType": "uint256",
              "name": "completedAt",
              "type": "uint256"
            }
          ],
          "internalType": "struct TaskMarket.Task",
          "name": "",
          "type": "tuple"
        }
      ],
      "stateMutability": "view",
      "type": "function"
    },
    {
      "inputs": [],
      "name": "minimumReward",
      "outputs": [
        {
          "internalType": "uint256",
          "name": "",
          "type": "uint256"
        }
      ],
      "stateMutability": "view",
      "type": "function"
    },
    {
      "inputs": [],
      "name": "nextTaskId",
      "outputs": [
        {
          "internalType": "uint256",
          "name": "",
          "type": "uint256"
        }
      ],
      "stateMutability": "view",
      "type": "function"
    },
    {
      "inputs": [
        {
          "internalType": "string",
          "name": "_title",
          "type": "string"
        },
        {
          "internalType": "string",
          "name": "_description",
          "type": "string"
        },
        {
          "internalType": "string",
          "name": "_requirementsIPFS",
          "type": "string"
        },
        {
          "internalType": "uint256",
          "name": "_reward",
          "type": "uint256"
        },
        {
          "internalType": "enum TaskMarket.TaskPriority",
          "name": "_priority",
          "type": "uint8"
        }
      ],
      "name": "postTask",
      "outputs": [
        {
          "internalType": "uint256",
          "name": "taskId",
          "type": "uint256"
        }
      ],
      "stateMutability": "payable",
      "type": "function"
    },
    {
      "inputs": [],
      "name": "protocolFeeBps",
      "outputs": [
        {
          "internalType": "uint256",
          "name": "",
          "type": "uint256"
        }
      ],
      "stateMutability": "view",
      "type": "function"
    },
    {
      "inputs": [
        {
          "internalType": "uint256",
          "name": "_taskId",
          "type": "uint256"
        }
      ],
      "name": "startWork",
      "outputs": [],
      "stateMutability": "nonpayable",
      "type": "function"
    },
    {
      "inputs": [
        {
          "internalType": "uint256",
          "name": "_taskId",
          "type": "uint256"
        },
        {
          "internalType": "string",
          "name": "_resultIPFS",
          "type": "string"
        }
      ],
      "name": "submitWork",
      "outputs": [],
      "stateMutability": "nonpayable",
      "type": "function"
    },
    {
      "inputs": [
        {
          "internalType": "uint256",
          "name": "",
          "type": "uint256"
        },
        {
          "internalType": "uint256",
          "name": "",
          "type": "uint256"
        }
      ],
      "name": "taskBids",
      "outputs": [
        {
          "internalType": "address",
          "name": "bidder",
          "type": "address"
        },
        {
          "internalType": "uint256",
          "name": "amount",
          "type": "uint256"
        },
        {
          "internalType": "uint256",
          "name": "estimatedTime",
          "type": "uint256"
        },
        {
          "internalType": "string",
          "name": "proposalIPFS",
          "type": "string"
        },
        {
          "internalType": "uint256",
          "name": "reputation",
          "type": "uint256"
        },
        {
          "internalType": "uint256",
          "name": "timestamp",
          "type": "uint256"
        },
        {
          "internalType": "bool",
          "name": "accepted",
          "type": "bool"
        }
      ],
      "stateMutability": "view",
      "type": "function"
    },
    {
      "inputs": [
        {
          "internalType": "uint256",
          "name": "",
          "type": "uint256"
        }
      ],
      "name": "tasks",
      "outputs": [
        {
          "internalType": "uint256",
          "name": "id",
          "type": "uint256"
        },
        {
          "internalType": "address",
          "name": "poster",
          "type": "address"
        },
        {
          "internalType": "string",
          "name": "title",
          "type": "string"
        },
        {
          "internalType": "string",
          "name": "description",
          "type": "string"
        },
        {
          "internalType": "string",
          "name": "requirementsIPFS",
          "type": "string"
        },
        {
          "internalType": "uint256",
          "name": "reward",
          "type": "uint256"
        },
        {
          "internalType": "uint256",
          "name": "collateral",
          "type": "uint256"
        },
        {
          "internalType": "enum TaskMarket.TaskPriority",
          "name": "priority",
          "type": "uint8"
        },
        {
          "internalType": "enum TaskMarket.TaskStatus",
          "name": "status",
          "type": "uint8"
        },
        {
          "internalType": "uint256",
          "name": "createdAt",
          "type": "uint256"
        },
        {
          "internalType": "uint256",
          "name": "deadline",
          "type": "uint256"
        },
        {
          "internalType": "address",
          "name": "assignedTo",
          "type": "address"
        },
        {
          "internalType": "string",
          "name": "resultIPFS",
          "type": "string"
        },
        {
          "internalType": "uint256",
          "name": "completedAt",
          "type": "uint256"
        }
      ],
      "stateMutability": "view",
      "type": "function"
    },
    {
      "inputs": [],
      "name": "totalFeesCollected",
      "outputs": [
        {
          "internalType": "uint256",
          "name": "",
          "type": "uint256"
        }
      ],
      "stateMutability": "view",
      "type": "function"
    },
    {
      "inputs": [],
      "name": "totalTasksCompleted",
      "outputs": [
        {
          "internalType": "uint256",
          "name": "",
          "type": "uint256"
        }
      ],
      "stateMutability": "view",
      "type": "function"
    },
    {
      "inputs": [],
      "name": "totalTasksPosted",
      "outputs": [
        {
          "internalType": "uint256",
          "name": "",
          "type": "uint256"
        }
      ],
      "stateMutability": "view",
      "type": "function"
    },
    {
      "inputs": [],
      "name": "totalValueLocked",
      "outputs": [
        {
          "internalType": "uint256",
          "name": "",
          "type": "uint256"
        }
      ],
      "stateMutability": "view",
      "type": "function"
    },
    {
      "stateMutability": "payable",
      "type": "receive"
    }
  ],
  "bytecode": "0x60803461008f57601f6126e738819003918201601f19168301916001600160401b038311848410176100945780849260209460405283398101031261008f57516001600160a01b0381169081900361008f57600160005560fa60085566038d7ea4c680006009556101f4600a55600780546001600160a01b03191691909117905560405161263c90816100ab8239f35b600080fd5b634e487b7160e01b600052604160045260246000fdfe6080604052600436101561001b575b361561001957600080fd5b005b60003560e01c806302e9d5e4146101eb57806303a250f9146101e657806309529dc1146101e1578063108ab45e146101dc578063131d9a27146101d7578063164bcc26146101d25780631d65e77e146101cd5780632b42900a146101c857806335659fb8146101c35780633d01e0fa146101be57806346904840146101b95780634bddd209146101b45780635492b197146101af57806354de6e32146101aa57806360c6d8ae146101a5578063611f364a146101a0578063670ad7821461019b57806370efdfb114610196578063744d3411146101915780637eec20a81461018c578063803a29da14610187578063813f8dc1146101825780638d9776721461017d5780639530568314610178578063b5695b3814610173578063d8ea68211461016e578063da8accf914610169578063ec18154e146101645763fdc3d8d70361000e576118f8565b6118da565b611823565b61179f565b611744565b611726565b611669565b61158f565b6114ff565b6113ae565b611382565b611348565b6112ef565b6112b9565b61129b565b611261565b6111e4565b610efe565b610ea1565b610be4565b610bc6565b6109e3565b610910565b6106e1565b6105bb565b6104ab565b610471565b6103a9565b346103a45760403660031901126103a457600435602435600091808352600160205261021c60408420541515611f1e565b80835260016020527f91a721693afff25f233ac308edbd2fa15ad7d4dfacdd164dd4e8c57ab72f4ae960018060a01b03610260816001604088200154163314612145565b61038d610277846000526001602052604060002090565b9461033e6102dc60078801926102a4610295855460ff9060081c1690565b61029e81610801565b15611f5b565b6102c36102bb896000526002602052604060002090565b54821061217e565b6102d7886000526002602052604060002090565b611029565b509161030c600684016102ff6102fa6102f6835460ff1690565b1590565b6121b8565b805460ff19166001179055565b8254600a890180546001600160a01b0319166001600160a01b03909216919091179055805461ff001916610100179055565b6001810195600587549101556103808561037b610361845460018060a01b031690565b6001600160a01b0316600090815260036020526040902090565b611cdb565b546001600160a01b031690565b935460405190815293169280602081015b0390a380f35b600080fd5b346103a45760203660031901126103a45760043560009080825260016020526103d760408320541515611f1e565b80825260016020526007604083206103fc60018060a01b03600a8301541633146121f7565b0160ff815460081c169060078210156104565761041e600161042d93146121f7565b805461ff001916610200179055565b33907f4883666eff4707b2212b9bf824c3a2c47933345113365d6229f5ed21336049498380a380f35b6107d4565b600435906001600160a01b03821682036103a457565b346103a45760203660031901126103a4576001600160a01b0361049261045b565b1660005260066020526020604060002054604051908152f35b346103a45760003660031901126103a4576020600c54604051908152f35b919082519283825260005b8481106104f5575050826000602080949584010152601f8019910116010190565b6020818301810151848301820152016104d4565b602080820190808352835180925260409283810182858560051b8401019601946000925b85841061053e575050505050505090565b909192939495968580600192603f198582030187528a5190848060a01b0382511681528282015183820152868201518782015261058a6060808401519060e080918501528301906104c9565b916080808201519083015260a0808201519083015260c080910151151591015299019401940192959493919061052d565b346103a4576020806003193601126103a4576004803560005260029081835260409283600020908154926105ee846125da565b946105fb875196876110d8565b8486526000938452828420918387015b8686106106235788518061061f8a82610509565b0390f35b6007856001928b516106348161109a565b875460a086901b869003166001600160a01b031681528488015483820152868801548d820152610666600389016110fa565b6060820152858801546080820152600588015460a082015261069861068f60068a015460ff1690565b151560c0830152565b81520194019501949261060b565b6020908160408183019282815285518094520193019160005b8281106106cd575050505090565b8351855293810193928101926001016106bf565b346103a45760403660031901126103a457602435600435610701826125da565b9061070f60405192836110d8565b828252601f1961071e846125da565b013660208401376000926001918281018091116107cf57845490835b610750575b8585526040518061061f87826106a6565b818110806107c6575b156107c1576107826007610777836000526001602052604060002090565b015460081c60ff1690565b61078b81610801565b156107a0575b61079a906119ac565b8361073a565b946107b981876107b361079a94896125f2565b526119ac565b959050610791565b61073f565b50828610610759565b611996565b634e487b7160e01b600052602160045260246000fd5b6004111561045657565b9060048210156104565752565b6007111561045657565b9060078210156104565752565b60208082528251828201528201516001600160a01b0316604082015260408201516108516101c0918260608501526101e08401906104c9565b610907610887610873606087015193601f1994858883030160808901526104c9565b6080870151848783030160a08801526104c9565b60a086015160c086015260c086015160e086015260e08601516108b061010091828801906107f4565b8601516108c3610120918288019061080b565b860151610140908187015286015161016090818701528601516108f3610180918288019060018060a01b03169052565b8601516101a09386830301848701526104c9565b93015191015290565b346103a45760203660031901126103a45760405161092d816110bb565b6101a060009182815282602082015260606040820152606080820152606060808201528260a08201528260c08201528260e0820152826101008201528261012082015282610140820152826101608201526060610180820152015261061f6109a96109a46004356000526001602052604060002090565b612503565b60405191829182610818565b9181601f840112156103a45782359167ffffffffffffffff83116103a457602083818601950101116103a457565b346103a45760803660031901126103a45760443560243560043560643567ffffffffffffffff81116103a457610a1d9036906004016109b5565b60009491838652600180602052610a3960408820541515611f1e565b610aac610aa4610a9883610a57896000526001602052604060002090565b6007810154610a6b9060081c60ff16610295565b610a7a60098201544210611f92565b610a8a60058201548c1115611fd0565b01546001600160a01b031690565b6001600160a01b031690565b331415612011565b86815b610b5e575b50503360009081526004602052604090207f71a5674c44b823bc0df08201dfeb2e8bdf698cd684fd2bbaa79adcf2c99fc1869361039e939092610b4592610b16905491610aff6119d6565b338152938a60208601528660408601523691611a0c565b606083015260808201524260a08201528760c0820152610b40866000526002602052604060002090565b612090565b6040805195865260208601919091523394918291820190565b610b72866000526002602052604060002090565b54811015610bc15780610bb6610b99610bbb936102d78a6000526002602052604060002090565b50543390610baf906001600160a01b0316610a98565b1415612056565b6119ac565b81610aaf565b610ab4565b346103a45760003660031901126103a4576020600854604051908152f35b346103a45760203660031901126103a45760043560005260016020526040600020541515610c1190611f1e565b6004356000526001602052600160a01b60019003604060002060010154163314610c3a90612145565b600435610c51906000526001602052604060002090565b60078101805460081c60ff16610c6681610801565b600314610c7290612344565b805461ff001916610500179055600581015490600854610c929083612380565b61271090049182610ca291612393565b916006820154600d5490610cb591612393565b600d5580600e5490610cc6916119c9565b600e55600c54610cd5906119ac565b600c55600a8201546001600160a01b031660009081526004602052604090208054610cff906119bb565b9055600a8201546001600160a01b031660009081526005602052604090208054610d28906119ac565b9055600a8201546001600160a01b031660009081526006602052604090208054610d539085906119c9565b9055600a82015483906001600160a01b03165a6000809381938293f1610d776123a0565b50610d81906123d0565b6007546001600160a01b03165a6000809381938293f1610d9f6123a0565b50610da99061240d565b60068101546005820154610dbc91612393565b801515610e02600a7ffc577563f1b9a0461e24abef1e1fcc0d33d3d881f20b5df6dda59de4aae2c82194610e6a94610e5994610e6f575b5001546001600160a01b031690565b6040519485526001600160a01b038116948590600435907f224350e49b29e656cb8c93d7379c7ddb4907c6009b64159a5e70d38092eae19790602090a36001600160a01b0316600090815260046020526040902090565b546040519081529081906020820190565b0390a2005b6000808080610e9b94610e8b600188015460018060a01b031690565b5af1610e956123a0565b5061244f565b38610df3565b346103a45760003660031901126103a4576007546040516001600160a01b039091168152602090f35b9060406003198301126103a457600435916024359067ffffffffffffffff82116103a457610efa916004016109b5565b9091565b346103a4577f2214f6a8b429291289d3afcdfccc59167b10f1d8ad1529e3959f9cd19f19af5f610fd5610f3036610eca565b8260009593949295526001602052610f4e6040600020541515611f1e565b610fc76007610f67866000526001602052604060002090565b6001810154610f7e906001600160a01b0316610a98565b33148015610fee575b610f909061248b565b018054610fb89060081c60ff16610fa681610801565b60028114908115610fda575b506124c6565b805461ff001916610400179055565b604051918291339683612330565b0390a3005b60039150610fe781610801565b1438610fb2565b50600a810154610f909061100a906001600160a01b0316610a98565b33149050610f87565b634e487b7160e01b600052603260045260246000fd5b8054821015611045576000526007602060002091020190600090565b611013565b90600182811c9216801561107a575b602083101461106457565b634e487b7160e01b600052602260045260246000fd5b91607f1691611059565b634e487b7160e01b600052604160045260246000fd5b60e0810190811067ffffffffffffffff8211176110b657604052565b611084565b6101c0810190811067ffffffffffffffff8211176110b657604052565b90601f8019910116810190811067ffffffffffffffff8211176110b657604052565b906040519182600082549261110e8461104a565b90818452600194858116908160001461117d575060011461113a575b5050611138925003836110d8565b565b9093915060005260209081600020936000915b8183106111655750506111389350820101388061112a565b8554888401850152948501948794509183019161114d565b91505061113894506020925060ff191682840152151560051b820101388061112a565b95926111d29260c0969998959260018060a01b031688526020880152604087015260e0606087015260e08601906104c9565b95608085015260a08401521515910152565b346103a45760403660031901126103a457602435600435600052600260205260406000209081548110156103a45761121b91611029565b5060018060a01b0381541661061f600183015492600281015490611241600382016110fa565b60048201549060ff600660058501549401541693604051978897886111a0565b346103a45760203660031901126103a4576001600160a01b0361128261045b565b1660005260046020526020604060002054604051908152f35b346103a45760003660031901126103a4576020600e54604051908152f35b346103a45760003660031901126103a4576020600b54604051908152f35b80548210156110455760005260206000200190600090565b346103a45760403660031901126103a45761130861045b565b6001600160a01b03166000908152600360205260409020805460243591908210156103a457602091611339916112d7565b90549060031b1c604051908152f35b346103a45760203660031901126103a4576001600160a01b0361136961045b565b1660005260056020526020604060002054604051908152f35b346103a45760203660031901126103a45760043560005260026020526020604060002054604051908152f35b346103a45760203660031901126103a4576004356000908082526001602052604082205415156113dd90611f1e565b80825260016020819052604083200154611401906001600160a01b03163314612145565b611415816000526001602052604060002090565b60078101805460081c60ff1661142a81610801565b1561143490611f5b565b805461ff001916610600179055828080806006850154600a546114579082612380565b6127109004958280808061146b8b87612393565b9a8b96600d549061147b91612393565b600d5580600e549061148c916119c9565b600e556007546001600160a01b03165af16114a56123a0565b506114af9061240d565b600101546001600160a01b03165af16114c66123a0565b506114d09061244f565b6040519081527f58716386e17644e69ff7358e3317a395f4523fcd0fb9cc227ee68d117ebbfbfc90602090a280f35b60a03660031901126103a45767ffffffffffffffff6004358181116103a45761152c9036906004016109b5565b906024358381116103a4576115459036906004016109b5565b9190936044359081116103a4576115609036906004016109b5565b906084359360048510156103a45761061f9661157f9660643595611d62565b6040519081529081906020820190565b346103a45760003660031901126103a4576020600954604051908152f35b9e9d9c98928f6101a09d9861161c6116649e999d9861160e611639996116006116569f98976115ef61162e9b60e09a8a5260208a019060018060a01b03169052565b6101c08060408a01528801906104c9565b9086820360608801526104c9565b9084820360808601526104c9565b9c60a083015260c082015201906107f4565b6101008d019061080b565b6101208b01526101408a01526001600160a01b0316610160890152565b8682036101808801526104c9565b930152565b346103a45760203660031901126103a45760043560005260016020526040600020805461061f6116a2600184015460018060a01b031690565b916116af600285016110fa565b936116bc600382016110fa565b916116c9600483016110fa565b906005830154906006840154906007850154906008860154926009870154946116fb600a89015460018060a01b031690565b96600c61170a600b8b016110fa565b990154996040519d8e9d8e9660ff808a60081c169916976115ad565b346103a45760003660031901126103a4576020600a54604051908152f35b346103a45760203660031901126103a4576001600160a01b0361176561045b565b1660005260046020526060604060002054600560205260406000205460066020526040600020549060405192835260208301526040820152f35b346103a4576020806003193601126103a4576001600160a01b036117c161045b565b1660005260038152604060002090604051908181845491828152019360005281600020916000905b82821061180c5761061f85611800818903826110d8565b604051918291826106a6565b8354865294850194600193840193909101906117e9565b346103a45761183136610eca565b917f6fbd90f6b051dd2b74925fe39aef5391515a82ac6783676b36a54aa5221c6a4f61039e600094838652600160205261187060408720541515611f1e565b8386526001602052610fc76040872061189660018060a01b03600a8301541633146121f7565b60078101906118b7600260ff845460081c166118b181610801565b14612232565b6118c58489600b8401612270565b600c4291015561030061ff0019825416179055565b346103a45760003660031901126103a4576020600d54604051908152f35b346103a45760003660031901126103a4576020600054604051908152f35b1561191d57565b60405162461bcd60e51b815260206004820152600e60248201526d52657761726420746f6f206c6f7760901b6044820152606490fd5b1561195a57565b60405162461bcd60e51b8152602060048201526014602482015273125b9cdd59999a58da595b9d081c185e5b595b9d60621b6044820152606490fd5b634e487b7160e01b600052601160045260246000fd5b60001981146107cf5760010190565b90600a82018092116107cf57565b919082018092116107cf57565b604051906111388261109a565b60405190611138826110bb565b67ffffffffffffffff81116110b657601f01601f191660200190565b929192611a18826119f0565b91611a2660405193846110d8565b8294818452818301116103a4578281602093846000960137010152565b60048210156104565752565b60078210156104565752565b604051906020820182811067ffffffffffffffff8211176110b65760405260008252565b90601f8111611a8d57505050565b600091825260208220906020601f850160051c83019410611ac9575b601f0160051c01915b828110611abe57505050565b818155600101611ab2565b9092508290611aa9565b919091825167ffffffffffffffff81116110b657611afb81611af5845461104a565b84611a7f565b602080601f8311600114611b37575081929394600092611b2c575b50508160011b916000199060031b1c1916179055565b015190503880611b16565b90601f19831695611b4d85600052602060002090565b926000905b888210611b8a57505083600195969710611b71575b505050811b019055565b015160001960f88460031b161c19169055388080611b67565b80600185968294968601518155019501930190611b52565b9060048110156104565760ff80198354169116179055565b9060078110156104565761ff0082549160081b169061ff001916179055565b8151815560208201516001820180546001600160a01b0319166001600160a01b0390921691909117905590600c906101a090611c1c604082015160028601611ad3565b611c2d606082015160038601611ad3565b611c3e608082015160048601611ad3565b60a0810151600585015560c08101516006850155611c8560078501611c7060e0840151611c6a816107ea565b82611ba2565b61010083015190611c8082610801565b611bba565b61012081015160088501556101408101516009850155610160810151600a850180546001600160a01b0319166001600160a01b03909216919091179055611cd4610180820151600b8601611ad3565b0151910155565b8054600160401b8110156110b657611cf8916001820181556112d7565b819291549060031b91821b91600019901b1916179055565b908060209392818452848401376000828201840152601f01601f1916010190565b9193611d4e611d5e92606095989796608086526080860191611d10565b96602084015260408301906107f4565b0152565b91909592969396611d77600954851015611916565b611d8384341015611953565b611d8c856107ea565b84611ee0576203f480915b600054988997611da6896119ac565b600055611db385426119c9565b92611dbc6119e3565b8a815233602082015294611dd1368d8a611a0c565b60408701523690611de192611a0c565b60608501523690611df192611a0c565b608083015260a082018590523460c0830152611e108660e08401611a43565b61010082016000905242610120830152610140820152610160810160009052611e37611a5b565b6101808201526101a0810160009052611e5a866000526001602052604060002090565b90611e6491611bd9565b33600090815260036020526040902085611e7d91611cdb565b600b54611e89906119ac565b600b5534600d5490611e9a916119c9565b600d55611ea790426119c9565b6040519384933397611eb99486611d31565b037f3e3dad351780e0c5d9667147ca353c4414b45bff35c16eab9cf5bf45f60d71ac91a390565b611ee9856107ea565b60018503611efb576201518091611d97565b611f04856107ea565b60028503611f155761384091611d97565b610e1091611d97565b15611f2557565b60405162461bcd60e51b815260206004820152600e60248201526d15185cdac81b9bdd08199bdd5b9960921b6044820152606490fd5b15611f6257565b60405162461bcd60e51b81526020600482015260086024820152672737ba1037b832b760c11b6044820152606490fd5b15611f9957565b60405162461bcd60e51b815260206004820152600f60248201526e111958591b1a5b99481c185cdcd959608a1b6044820152606490fd5b15611fd757565b60405162461bcd60e51b8152602060048201526012602482015271109a5908195e18d959591cc81c995dd85c9960721b6044820152606490fd5b1561201857565b60405162461bcd60e51b815260206004820152601660248201527543616e6e6f7420626964206f6e206f776e207461736b60501b6044820152606490fd5b1561205d57565b60405162461bcd60e51b815260206004820152600b60248201526a105b1c9958591e48189a5960aa1b6044820152606490fd5b8054600160401b8110156110b6576120ad91600182018155611029565b61212f57815181546001600160a01b0319166001600160a01b03919091161781556111389160069061211c9060c0906020810151600186015560408101516002860155612101606082015160038701611ad3565b6080810151600486015560a081015160058601550151151590565b91019060ff801983541691151516179055565b634e487b7160e01b600052600060045260246000fd5b1561214c57565b60405162461bcd60e51b815260206004820152600a6024820152692737ba103837b9ba32b960b11b6044820152606490fd5b1561218557565b60405162461bcd60e51b815260206004820152600b60248201526a125b9d985b1a5908189a5960aa1b6044820152606490fd5b156121bf57565b60405162461bcd60e51b815260206004820152601060248201526f105b1c9958591e481858d8d95c1d195960821b6044820152606490fd5b156121fe57565b60405162461bcd60e51b815260206004820152600c60248201526b139bdd08185cdcda59db995960a21b6044820152606490fd5b1561223957565b60405162461bcd60e51b815260206004820152600f60248201526e4e6f7420696e2070726f677265737360881b6044820152606490fd5b90929167ffffffffffffffff81116110b65761229081611af5845461104a565b6000601f82116001146122c957819293946000926122be5750508160011b916000199060031b1c1916179055565b013590503880611b16565b601f198216946122de84600052602060002090565b91805b8781106123185750836001959697106122fe57505050811b019055565b0135600019600384901b60f8161c19169055388080611b67565b909260206001819286860135815501940191016122e1565b916020612341938181520191611d10565b90565b1561234b57565b60405162461bcd60e51b815260206004820152600d60248201526c139bdd0818dbdb5c1b195d1959609a1b6044820152606490fd5b818102929181159184041417156107cf57565b919082039182116107cf57565b3d156123cb573d906123b1826119f0565b916123bf60405193846110d8565b82523d6000602084013e565b606090565b156123d757565b60405162461bcd60e51b815260206004820152600e60248201526d14185e5b595b9d0819985a5b195960921b6044820152606490fd5b1561241457565b60405162461bcd60e51b8152602060048201526013602482015272119959481d1c985b9cd9995c8819985a5b1959606a1b6044820152606490fd5b1561245657565b60405162461bcd60e51b815260206004820152600d60248201526c1499599d5b990819985a5b1959609a1b6044820152606490fd5b1561249257565b60405162461bcd60e51b815260206004820152600c60248201526b139bdd081a5b9d9bdb1d995960a21b6044820152606490fd5b156124cd57565b60405162461bcd60e51b815260206004820152600e60248201526d43616e6e6f74206469737075746560901b6044820152606490fd5b90600c61250e6119e3565b8354815260018401546001600160a01b0316602082015292612532600282016110fa565b6040850152612543600382016110fa565b6060850152612554600482016110fa565b6080850152600581015460a0850152600681015460c085015261259460ff600783015461258682821660e08901611a43565b60081c166101008601611a4f565b60088101546101208501526009810154610140850152600a8101546001600160a01b03166101608501526125ca600b82016110fa565b61018085015201546101a0830152565b67ffffffffffffffff81116110b65760051b60200190565b80518210156110455760209160051b01019056fea2646970667358221220772570354b02f551ec48793cb2a6284cbf268008dce0f07dadf0173ee871e9d664736f6c63430008140033",
  "linkReferences": {},
  "deployedLinkReferences": {}
}