{
  "_format": "hh-sol-artifact-1",
  "contractName": "TaskMarket",
  "sourceName": "contracts/TaskMarket.sol",
  "abi": [
    {
      "inputs": [
        {
          "internalType": "address",
          "name": "_feeRecipient",
          "type": "address"
        }
      ],
      "stateMutability": "nonpayable",
      "type": "constructor"
    },
    {
      "inputs": [],
      "name": "ContractNotPaused",
      "type": "error"
    },
    {
      "inputs": [],
      "name": "ContractPaused",
      "type": "error"
    },
    {
      "inputs": [],
      "name": "NotPauser",
      "type": "error"
    },
    {
      "inputs": [],
      "name": "ReentrancyGuardReentrantCall",
      "type": "error"
    },
    {
      "anonymous": false,
      "inputs": [
        {
          "indexed": true,
          "internalType": "uint256",
          "name": "taskId",
          "type": "uint256"
        },
        {
          "indexed": true,
          "internalType": "address",
          "name": "bidder",
          "type": "address"
        },
        {
          "indexed": false,
          "internalType": "uint256",
          "name": "amount",
          "type": "uint256"
        }
      ],
      "name": "BidAccepted",
      "type": "event"
    },
    {
      "anonymous": false,
      "inputs": [
        {
          "indexed": true,
          "internalType": "uint256",
          "name": "taskId",
          "type": "uint256"
        },
        {
          "indexed": true,
          "internalType": "address",
          "name": "bidder",
          "type": "address"
        },
        {
          "indexed": false,
          "internalType": "uint256",
          "name": "amount",
          "type": "uint256"
        },
        {
          "indexed": false,
          "internalType": "uint256",
          "name": "estimatedTime",
          "type": "uint256"
        }
      ],
      "name": "BidSubmitted",
      "type": "event"
    },
    {
      "anonymous": false,
      "inputs": [
        {
          "indexed": false,
          "internalType": "address",
          "name": "account",
          "type": "address"
        }
      ],
      "name": "Paused",
      "type": "event"
    },
    {
      "anonymous": false,
      "inputs": [
        {
          "indexed": true,
          "internalType": "address",
          "name": "previousPauser",
          "type": "address"
        },
        {
          "indexed": true,
          "internalType": "address",
          "name": "newPauser",
          "type": "address"
        }
      ],
      "name": "PauserTransferred",
      "type": "event"
    },
    {
      "anonymous": false,
      "inputs": [
        {
          "indexed": true,
          "internalType": "address",
          "name": "agent",
          "type": "address"
        },
        {
          "indexed": false,
          "internalType": "uint256",
          "name": "newScore",
          "type": "uint256"
        }
      ],
      "name": "ReputationUpdated",
      "type": "event"
    },
    {
      "anonymous": false,
      "inputs": [
        {
          "indexed": true,
          "internalType": "uint256",
          "name": "taskId",
          "type": "uint256"
        },
        {
          "indexed": true,
          "internalType": "address",
          "name": "worker",
          "type": "address"
        },
        {
          "indexed": false,
          "internalType": "uint256",
          "name": "payment",
          "type": "uint256"
        }
      ],
      "name": "TaskApproved",
      "type": "event"
    },
    {
      "anonymous": false,
      "inputs": [
        {
          "indexed": true,
          "internalType": "uint256",
          "name": "taskId",
          "type": "uint256"
        },
        {
          "indexed": false,
          "internalType": "uint256",
          "name": "refundAmount",
          "type": "uint256"
        }
      ],
      "name": "TaskCancelled",
      "type": "event"
    },
    {
      "anonymous": false,
      "inputs": [
        {
          "indexed": true,
          "internalType": "uint256",
          "name": "taskId",
          "type": "uint256"
        },
        {
          "indexed": true,
          "internalType": "address",
          "name": "by",
          "type": "address"
        },
        {
          "indexed": false,
          "internalType": "string",
          "name": "reason",
          "type": "string"
        }
      ],
      "name": "TaskDisputed",
      "type": "event"
    },
    {
      "anonymous": false,
      "inputs": [
        {
          "indexed": true,
          "internalType": "uint256",
          "name": "taskId",
          "type": "uint256"
        },
        {
          "indexed": true,
          "internalType": "address",
          "name": "poster",
          "type": "address"
        },
        {
          "indexed": false,
          "internalType": "string",
          "name": "title",
          "type": "string"
        },
        {
          "indexed": false,
          "internalType": "uint256",
          "name": "reward",
          "type": "uint256"
        },
        {
          "indexed": false,
          "internalType": "enum TaskMarket.TaskPriority",
          "name": "priority",
          "type": "uint8"
        },
        {
          "indexed": false,
          "internalType": "uint256",
          "name": "deadline",
          "type": "uint256"
        }
      ],
      "name": "TaskPosted",
      "type": "event"
    },
    {
      "anonymous": false,
      "inputs": [
        {
          "indexed": false,
          "internalType": "address",
          "name": "account",
          "type": "address"
        }
      ],
      "name": "Unpaused",
      "type": "event"
    },
    {
      "anonymous": false,
      "inputs": [
        {
          "indexed": true,
          "internalType": "uint256",
          "name": "taskId",
          "type": "uint256"
        },
        {
          "indexed": true,
          "internalType": "address",
          "name": "worker",
          "type": "address"
        },
        {
          "indexed": false,
          "internalType": "string",
          "name": "resultIPFS",
          "type": "string"
        }
      ],
      "name": "WorkCompleted",
      "type": "event"
    },
    {
      "anonymous": false,
      "inputs": [
        {
          "indexed": true,
          "internalType": "uint256",
          "name": "taskId",
          "type": "uint256"
        },
        {
          "indexed": true,
          "internalType": "address",
          "name": "worker",
          "type": "address"
        }
      ],
      "name": "WorkStarted",
      "type": "event"
    },
    {
      "inputs": [],
      "name": "BPS_DENOMINATOR",
      "outputs": [
        {
          "internalType": "uint256",
          "name": "",
          "type": "uint256"
        }
      ],
      "stateMutability": "view",
      "type": "function"
    },
    {
      "inputs": [],
      "name": "MAX_BIDS_PER_TASK",
      "outputs": [
        {
          "internalType": "uint256",
          "name": "",
          "type": "uint256"
        }
      ],
      "stateMutability": "view",
      "type": "function"
    },
    {
      "inputs": [],
      "name": "MAX_TASK_DURATION",
      "outputs": [
        {
          "internalType": "uint256",
          "name": "",
          "type": "uint256"
        }
      ],
      "stateMutability": "view",
      "type": "function"
    },
    {
      "inputs": [],
      "name": "MIN_TASK_DURATION",
      "outputs": [
        {
          "internalType": "uint256",
          "name": "",
          "type": "uint256"
        }
      ],
      "stateMutability": "view",
      "type": "function"
    },
    {
      "inputs": [],
      "name": "PLATFORM_FEE_BPS",
      "outputs": [
        {
          "internalType": "uint256",
          "name": "",
          "type": "uint256"
        }
      ],
      "stateMutability": "view",
      "type": "function"
    },
    {
      "inputs": [
        {
          "internalType": "uint256",
          "name": "_taskId",
          "type": "uint256"
        },
        {
          "internalType": "uint256",
          "name": "_bidIndex",
          "type": "uint256"
        }
      ],
      "name": "acceptBid",
      "outputs": [],
      "stateMutability": "nonpayable",
      "type": "function"
    },
    {
      "inputs": [
        {
          "internalType": "address",
          "name": "",
          "type": "address"
        }
      ],
      "name": "agentCompletedTasks",
      "outputs": [
        {
          "internalType": "uint256",
          "name": "",
          "type": "uint256"
        }
      ],
      "stateMutability": "view",
      "type": "function"
    },
    {
      "inputs": [
        {
          "internalType": "address",
          "name": "",
          "type": "address"
        }
      ],
      "name": "agentReputation",
      "outputs": [
        {
          "internalType": "uint256",
          "name": "",
          "type": "uint256"
        }
      ],
      "stateMutability": "view",
      "type": "function"
    },
    {
      "inputs": [
        {
          "internalType": "address",
          "name": "",
          "type": "address"
        },
        {
          "internalType": "uint256",
          "name": "",
          "type": "uint256"
        }
      ],
      "name": "agentTasks",
      "outputs": [
        {
          "internalType": "uint256",
          "name": "",
          "type": "uint256"
        }
      ],
      "stateMutability": "view",
      "type": "function"
    },
    {
      "inputs": [
        {
          "internalType": "address",
          "name": "",
          "type": "address"
        }
      ],
      "name": "agentTotalEarnings",
      "outputs": [
        {
          "internalType": "uint256",
          "name": "",
          "type": "uint256"
        }
      ],
      "stateMutability": "view",
      "type": "function"
    },
    {
      "inputs": [
        {
          "internalType": "uint256",
          "name": "_taskId",
          "type": "uint256"
        }
      ],
      "name": "approveWork",
      "outputs": [],
      "stateMutability": "nonpayable",
      "type": "function"
    },
    {
      "inputs": [
        {
          "internalType": "uint256",
          "name": "_taskId",
          "type": "uint256"
        },
        {
          "internalType": "uint256",
          "name": "_amount",
          "type": "uint256"
        },
        {
          "internalType": "uint256",
          "name": "_estimatedTime",
          "type": "uint256"
        },
        {
          "internalType": "string",
          "name": "_proposalIPFS",
          "type": "string"
        }
      ],
      "name": "bidOnTask",
      "outputs": [],
      "stateMutability": "nonpayable",
      "type": "function"
    },
    {
      "inputs": [
        {
          "internalType": "uint256",
          "name": "_taskId",
          "type": "uint256"
        }
      ],
      "name": "cancelTask",
      "outputs": [],
      "stateMutability": "nonpayable",
      "type": "function"
    },
    {
      "inputs": [],
      "name": "cancellationFeeBps",
      "outputs": [
        {
          "internalType": "uint256",
          "name": "",
          "type": "uint256"
        }
      ],
      "stateMutability": "view",
      "type": "function"
    },
    {
      "inputs": [
        {
          "internalType": "uint256",
          "name": "_taskId",
          "type": "uint256"
        },
        {
          "internalType": "string",
          "name": "_reason",
          "type": "string"
        }
      ],
      "name": "disputeTask",
      "outputs": [],
      "stateMutability": "nonpayable",
      "type": "function"
    },
    {
      "inputs": [],
      "name": "feeRecipient",
      "outputs": [
        {
          "internalType": "address",
          "name": "",
          "type": "address"
        }
      ],
      "stateMutability": "view",
      "type": "function"
    },
    {
      "inputs": [
        {
          "internalType": "address",
          "name": "_agent",
          "type": "address"
        }
      ],
      "name": "getAgentStats",
      "outputs": [
        {
          "internalType": "uint256",
          "name": "reputation",
          "type": "uint256"
        },
        {
          "internalType": "uint256",
          "name": "completed",
          "type": "uint256"
        },
        {
          "internalType": "uint256",
          "name": "earnings",
          "type": "uint256"
        }
      ],
      "stateMutability": "view",
      "type": "function"
    },
    {
      "inputs": [
        {
          "internalType": "address",
          "name": "_agent",
          "type": "address"
        }
      ],
      "name": "getAgentTasks",
      "outputs": [
        {
          "internalType": "uint256[]",
          "name": "",
          "type": "uint256[]"
        }
      ],
      "stateMutability": "view",
      "type": "function"
    },
    {
      "inputs": [
        {
          "internalType": "uint256",
          "name": "_taskId",
          "type": "uint256"
        }
      ],
      "name": "getBidCount",
      "outputs": [
        {
          "internalType": "uint256",
          "name": "",
          "type": "uint256"
        }
      ],
      "stateMutability": "view",
      "type": "function"
    },
    {
      "inputs": [
        {
          "internalType": "uint256",
          "name": "_taskId",
          "type": "uint256"
        }
      ],
      "name": "getBids",
      "outputs": [
        {
          "components": [
            {
              "internalType": "address",
              "name": "bidder",
              "type": "address"
            },
            {
              "internalType": "uint256",
              "name": "amount",
              "type": "uint256"
            },
            {
              "internalType": "uint256",
              "name": "estimatedTime",
              "type": "uint256"
            },
            {
              "internalType": "string",
              "name": "proposalIPFS",
              "type": "string"
            },
            {
              "internalType": "uint256",
              "name": "reputation",
              "type": "uint256"
            },
            {
              "internalType": "uint256",
              "name": "timestamp",
              "type": "uint256"
            },
            {
              "internalType": "bool",
              "name": "accepted",
              "type": "bool"
            }
          ],
          "internalType": "struct TaskMarket.Bid[]",
          "name": "",
          "type": "tuple[]"
        }
      ],
      "stateMutability": "view",
      "type": "function"
    },
    {
      "inputs": [
        {
          "internalType": "uint256",
          "name": "_offset",
          "type": "uint256"
        },
        {
          "internalType": "uint256",
          "name": "_limit",
          "type": "uint256"
        }
      ],
      "name": "getOpenTasks",
      "outputs": [
        {
          "internalType": "uint256[]",
          "name": "",
          "type": "uint256[]"
        }
      ],
      "stateMutability": "view",
      "type": "function"
    },
    {
      "inputs": [
        {
          "internalType": "uint256",
          "name": "_taskId",
          "type": "uint256"
        }
      ],
      "name": "getTask",
      "outputs": [
        {
          "components": [
            {
              "internalType": "uint256",
              "name": "id",
              "type": "uint256"
            },
            {
              "internalType": "address",
              "name": "poster",
              "type": "address"
            },
            {
              "internalType": "string",
              "name": "title",
              "type": "string"
            },
            {
              "internalType": "string",
              "name": "description",
              "type": "string"
            },
            {
              "internalType": "string",
              "name": "requirementsIPFS",
              "type": "string"
            },
            {
              "internalType": "uint256",
              "name": "reward",
              "type": "uint256"
            },
            {
              "internalType": "uint256",
              "name": "collateral",
              "type": "uint256"
            },
            {
              "internalType": "enum TaskMarket.TaskPriority",
              "name": "priority",
              "type": "uint8"
            },
            {
              "internalType": "enum TaskMarket.TaskStatus",
              "name": "status",
              "type": "uint8"
            },
            {
              "internalType": "uint256",
              "name": "createdAt",
              "type": "uint256"
            },
            {
              "internalType": "uint256",
              "name": "deadline",
              "type": "uint256"
            },
            {
              "internalType": "address",
              "name": "assignedTo",
              "type": "address"
            },
            {
              "internalType": "string",
              "name": "resultIPFS",
              "type": "string"
            },
            {
              "internalType": "uint256",
              "name": "completedAt",
              "type": "uint256"
            }
          ],
          "internalType": "struct TaskMarket.Task",
          "name": "",
          "type": "tuple"
        }
      ],
      "stateMutability": "view",
      "type": "function"
    },
    {
      "inputs": [],
      "name": "minimumReward",
      "outputs": [
        {
          "internalType": "uint256",
          "name": "",
          "type": "uint256"
        }
      ],
      "stateMutability": "view",
      "type": "function"
    },
    {
      "inputs": [],
      "name": "nextTaskId",
      "outputs": [
        {
          "internalType": "uint256",
          "name": "",
          "type": "uint256"
        }
      ],
      "stateMutability": "view",
      "type": "function"
    },
    {
      "inputs": [],
      "name": "pause",
      "outputs": [],
      "stateMutability": "nonpayable",
      "type": "function"
    },
    {
      "inputs": [],
      "name": "paused",
      "outputs": [
        {
          "internalType": "bool",
          "name": "",
          "type": "bool"
        }
      ],
      "stateMutability": "view",
      "type": "function"
    },
    {
      "inputs": [],
      "name": "pauser",
      "outputs": [
        {
          "internalType": "address",
          "name": "",
          "type": "address"
        }
      ],
      "stateMutability": "view",
      "type": "function"
    },
    {
      "inputs": [
        {
          "internalType": "string",
          "name": "_title",
          "type": "string"
        },
        {
          "internalType": "string",
          "name": "_description",
          "type": "string"
        },
        {
          "internalType": "string",
          "name": "_requirementsIPFS",
          "type": "string"
        },
        {
          "internalType": "uint256",
          "name": "_reward",
          "type": "uint256"
        },
        {
          "internalType": "enum TaskMarket.TaskPriority",
          "name": "_priority",
          "type": "uint8"
        }
      ],
      "name": "postTask",
      "outputs": [
        {
          "internalType": "uint256",
          "name": "taskId",
          "type": "uint256"
        }
      ],
      "stateMutability": "payable",
      "type": "function"
    },
    {
      "inputs": [],
      "name": "protocolFeeBps",
      "outputs": [
        {
          "internalType": "uint256",
          "name": "",
          "type": "uint256"
        }
      ],
      "stateMutability": "view",
      "type": "function"
    },
    {
      "inputs": [
        {
          "internalType": "uint256",
          "name": "_taskId",
          "type": "uint256"
        }
      ],
      "name": "startWork",
      "outputs": [],
      "stateMutability": "nonpayable",
      "type": "function"
    },
    {
      "inputs": [
        {
          "internalType": "uint256",
          "name": "_taskId",
          "type": "uint256"
        },
        {
          "internalType": "string",
          "name": "_resultIPFS",
          "type": "string"
        }
      ],
      "name": "submitWork",
      "outputs": [],
      "stateMutability": "nonpayable",
      "type": "function"
    },
    {
      "inputs": [
        {
          "internalType": "uint256",
          "name": "",
          "type": "uint256"
        },
        {
          "internalType": "uint256",
          "name": "",
          "type": "uint256"
        }
      ],
      "name": "taskBids",
      "outputs": [
        {
          "internalType": "address",
          "name": "bidder",
          "type": "address"
        },
        {
          "internalType": "uint256",
          "name": "amount",
          "type": "uint256"
        },
        {
          "internalType": "uint256",
          "name": "estimatedTime",
          "type": "uint256"
        },
        {
          "internalType": "string",
          "name": "proposalIPFS",
          "type": "string"
        },
        {
          "internalType": "uint256",
          "name": "reputation",
          "type": "uint256"
        },
        {
          "internalType": "uint256",
          "name": "timestamp",
          "type": "uint256"
        },
        {
          "internalType": "bool",
          "name": "accepted",
          "type": "bool"
        }
      ],
      "stateMutability": "view",
      "type": "function"
    },
    {
      "inputs": [
        {
          "internalType": "uint256",
          "name": "",
          "type": "uint256"
        }
      ],
      "name": "tasks",
      "outputs": [
        {
          "internalType": "uint256",
          "name": "id",
          "type": "uint256"
        },
        {
          "internalType": "address",
          "name": "poster",
          "type": "address"
        },
        {
          "internalType": "string",
          "name": "title",
          "type": "string"
        },
        {
          "internalType": "string",
          "name": "description",
          "type": "string"
        },
        {
          "internalType": "string",
          "name": "requirementsIPFS",
          "type": "string"
        },
        {
          "internalType": "uint256",
          "name": "reward",
          "type": "uint256"
        },
        {
          "internalType": "uint256",
          "name": "collateral",
          "type": "uint256"
        },
        {
          "internalType": "enum TaskMarket.TaskPriority",
          "name": "priority",
          "type": "uint8"
        },
        {
          "internalType": "enum TaskMarket.TaskStatus",
          "name": "status",
          "type": "uint8"
        },
        {
          "internalType": "uint256",
          "name": "createdAt",
          "type": "uint256"
        },
        {
          "internalType": "uint256",
          "name": "deadline",
          "type": "uint256"
        },
        {
          "internalType": "address",
          "name": "assignedTo",
          "type": "address"
        },
        {
          "internalType": "string",
          "name": "resultIPFS",
          "type": "string"
        },
        {
          "internalType": "uint256",
          "name": "completedAt",
          "type": "uint256"
        }
      ],
      "stateMutability": "view",
      "type": "function"
    },
    {
      "inputs": [],
      "name": "totalFeesCollected",
      "outputs": [
        {
          "internalType": "uint256",
          "name": "",
          "type": "uint256"
        }
      ],
      "stateMutability": "view",
      "type": "function"
    },
    {
      "inputs": [],
      "name": "totalTasksCompleted",
      "outputs": [
        {
          "internalType": "uint256",
          "name": "",
          "type": "uint256"
        }
      ],
      "stateMutability": "view",
      "type": "function"
    },
    {
      "inputs": [],
      "name": "totalTasksPosted",
      "outputs": [
        {
          "internalType": "uint256",
          "name": "",
          "type": "uint256"
        }
      ],
      "stateMutability": "view",
      "type": "function"
    },
    {
      "inputs": [],
      "name": "totalValueLocked",
      "outputs": [
        {
          "internalType": "uint256",
          "name": "",
          "type": "uint256"
        }
      ],
      "stateMutability": "view",
      "type": "function"
    },
    {
      "inputs": [
        {
          "internalType": "address",
          "name": "newPauser",
          "type": "address"
        }
      ],
      "name": "transferPauser",
      "outputs": [],
      "stateMutability": "nonpayable",
      "type": "function"
    },
    {
      "inputs": [],
      "name": "unpause",
      "outputs": [],
      "stateMutability": "nonpayable",
      "type": "function"
    },
    {
      "stateMutability": "payable",
      "type": "receive"
    }
  ],
  "bytecode": "0x6080346100d957601f62002cb738819003918201601f19168301916001600160401b038311848410176100de578084926020946040528339810103126100d957516001600160a01b038116908190036100d95760017f9b779b17422d0df92223018b32b4d1fa46e071723d6817e2486d003becc55f0081905560008054610100600160a81b03191633600890811b610100600160a81b03169190911790915590805560fa60095566038d7ea4c68000600a556101f4600b5580546001600160a01b031916919091179055604051612bc29081620000f58239f35b600080fd5b634e487b7160e01b600052604160045260246000fdfe6080604052600436101561001b575b361561001957600080fd5b005b60003560e01c806302e9d5e41461028b57806303a250f91461028657806309529dc1146102815780630f0ef7fe1461027c578063108ab45e14610277578063131d9a2714610272578063164bcc261461026d5780631d65e77e146102685780632b42900a1461026357806335659fb81461025e5780633d01e0fa146102595780633f4ba83a146102545780634421ea211461024f578063469048401461024a5780634bddd20914610245578063539aa77f146102405780635492b1971461023b57806354de6e32146102365780635c975abb146102315780635f08bb531461022c57806360c6d8ae14610227578063611f364a14610222578063670ad7821461021d5780636b4e89a21461021857806370efdfb114610213578063744d34111461020e5780637eec20a814610209578063803a29da14610204578063813f8dc1146101ff5780638456cb59146101fa5780638d977672146101f557806395305683146101f05780639fd0506d146101eb578063b5695b38146101e6578063d8ea6821146101e1578063da8accf9146101dc578063e1a45218146101d7578063ec18154e146101d25763fdc3d8d70361000e57611cbf565b611ca1565b611c84565b611bc7565b611b43565b611ae8565b611abb565b611a9d565b6119e3565b6118c0565b6118a2565b611812565b6116c1565b611695565b61165b565b61163c565b6115e4565b6115ae565b611590565b611573565b611550565b611516565b611499565b6112ac565b611197565b61113a565b611074565b610fe9565b610d09565b610ceb565b610ad8565b610a05565b6107d6565b6106b1565b6105a1565b610585565b61054b565b610483565b3461047e57604036600319011261047e5760043560243560009160ff83541661046c576102b6612402565b80835260026020526102cd60408420541515612432565b80835260026020527f91a721693afff25f233ac308edbd2fa15ad7d4dfacdd164dd4e8c57ab72f4ae960018060a01b03610311816001604088200154163314612698565b61043e610328846000526002602052604060002090565b946103ef61038d6007880192610355610346855460ff9060081c1690565b61034f816108f6565b1561246f565b61037461036c896000526003602052604060002090565b5482106126d1565b610388886000526003602052604060002090565b6112de565b50916103bd600684016103b06103ab6103a7835460ff1690565b1590565b61270b565b805460ff19166001179055565b8254600a890180546001600160a01b0319166001600160a01b03909216919091179055805461ff001916610100179055565b6001810195600587549101556104318561042c610412845460018060a01b031690565b6001600160a01b0316600090815260046020526040902090565b61237b565b546001600160a01b031690565b935460405190815293169280602081015b0390a36104696001600080516020612b6d83398151915255565b80f35b60405163ab35696f60e01b8152600490fd5b600080fd5b3461047e57602036600319011261047e5760043560009080825260026020526104b160408320541515612432565b80825260026020526007604083206104d660018060a01b03600a83015416331461274a565b0160ff815460081c16906007821015610530576104f86001610507931461274a565b805461ff001916610200179055565b33907f4883666eff4707b2212b9bf824c3a2c47933345113365d6229f5ed21336049498380a380f35b6108c9565b600435906001600160a01b038216820361047e57565b3461047e57602036600319011261047e576001600160a01b0361056c610535565b1660005260076020526020604060002054604051908152f35b3461047e57600036600319011261047e57602060405160328152f35b3461047e57600036600319011261047e576020600d54604051908152f35b919082519283825260005b8481106105eb575050826000602080949584010152601f8019910116010190565b6020818301810151848301820152016105ca565b602080820190808352835180925260409283810182858560051b8401019601946000925b858410610634575050505050505090565b909192939495968580600192603f198582030187528a5190848060a01b038251168152828201518382015286820151878201526106806060808401519060e080918501528301906105bf565b916080808201519083015260a0808201519083015260c0809101511515910152990194019401929594939190610623565b3461047e5760208060031936011261047e5760048035600052600380835260409283600020908154926106e384612b40565b946106f08751968761138d565b8486526000938452828420918387015b868610610718578851806107148a826105ff565b0390f35b6007856001928b516107298161134f565b875460a086901b869003166001600160a01b03168152848801548382015260028801548d82015261075b8689016113af565b6060820152868801546080820152600588015460a082015261078d61078460068a015460ff1690565b151560c0830152565b815201940195019492610700565b6020908160408183019282815285518094520193019160005b8281106107c2575050505090565b8351855293810193928101926001016107b4565b3461047e57604036600319011261047e576024356004356107f682612b40565b90610804604051928361138d565b828252601f1961081384612b40565b013660208401376000926001918281018091116108c457825490835b610845575b85855260405180610714878261079b565b818110806108bb575b156108b657610877600761086c836000526002602052604060002090565b015460081c60ff1690565b610880816108f6565b15610895575b61088f9061204c565b8361082f565b946108ae81876108a861088f9489612b58565b5261204c565b959050610886565b610834565b5082861061084e565b612036565b634e487b7160e01b600052602160045260246000fd5b6004111561053057565b9060048210156105305752565b6007111561053057565b9060078210156105305752565b60208082528251828201528201516001600160a01b0316604082015260408201516109466101c0918260608501526101e08401906105bf565b6109fc61097c610968606087015193601f1994858883030160808901526105bf565b6080870151848783030160a08801526105bf565b60a086015160c086015260c086015160e086015260e08601516109a561010091828801906108e9565b8601516109b86101209182880190610900565b860151610140908187015286015161016090818701528601516109e8610180918288019060018060a01b03169052565b8601516101a09386830301848701526105bf565b93015191015290565b3461047e57602036600319011261047e57604051610a2281611370565b6101a060009182815282602082015260606040820152606080820152606060808201528260a08201528260c08201528260e08201528261010082015282610120820152826101408201528261016082015260606101808201520152610714610a9e610a996004356000526002602052604060002090565b612a69565b6040519182918261090d565b9181601f8401121561047e5782359167ffffffffffffffff831161047e576020838186019501011161047e57565b3461047e57608036600319011261047e5760443560243560043560643567ffffffffffffffff811161047e57610b12903690600401610aaa565b6000949160ff86541661046c57610b27612402565b8386526002602052610b3e60408720541515612432565b610b52846000526002602052604060002090565b6007810154610b669060081c60ff16610346565b610b75600982015442106124a6565b610b8560058201548711156124e4565b600190810154610bb190610ba9906001600160a01b03165b6001600160a01b031690565b331415612525565b610bd16032610bca876000526003602052604060002090565b541061256a565b86815b610c83575b50503360009081526005602052604090207f71a5674c44b823bc0df08201dfeb2e8bdf698cd684fd2bbaa79adcf2c99fc1869361044f939092610c6a92610c3b905491610c24612076565b338152938a602086015286604086015236916120ac565b606083015260808201524260a08201528760c0820152610c65866000526003602052604060002090565b6125e3565b6040805195865260208601919091523394918291820190565b610c97866000526003602052604060002090565b54811015610ce65780610cdb610cbe610ce0936103888a6000526003602052604060002090565b50543390610cd4906001600160a01b0316610b9d565b14156125a9565b61204c565b81610bd4565b610bd9565b3461047e57600036600319011261047e576020600954604051908152f35b3461047e57602036600319011261047e5760ff6000541661046c57610d2c612402565b60043560005260026020526040600020541515610d4890612432565b6004356000526002602052600160a01b60019003604060002060010154163314610d7190612698565b600435610d88906000526002602052604060002090565b60078101805460081c60ff16610d9d816108f6565b600314610da990612894565b805461ff001916610500179055600581015490610dc5826128d0565b61271090049182610dd5916128f9565b916006820154600e5490610de8916128f9565b600e5580600f5490610df991612069565b600f55600d54610e089061204c565b600d55600a8201546001600160a01b031660009081526005602052604090208054610e329061205b565b9055600a8201546001600160a01b031660009081526006602052604090208054610e5b9061204c565b9055600a8201546001600160a01b031660009081526007602052604090208054610e86908590612069565b9055600a82015483906001600160a01b03165a6000809381938293f1610eaa612906565b50610eb490612936565b6008546001600160a01b03165a6000809381938293f1610ed2612906565b50610edc90612973565b60068101546005820154610eef916128f9565b801515610f35600a7ffc577563f1b9a0461e24abef1e1fcc0d33d3d881f20b5df6dda59de4aae2c82194610f9d94610f8c94610fb7575b5001546001600160a01b031690565b6040519485526001600160a01b038116948590600435907f224350e49b29e656cb8c93d7379c7ddb4907c6009b64159a5e70d38092eae19790602090a36001600160a01b0316600090815260056020526040902090565b546040519081529081906020820190565b0390a26100196001600080516020612b6d83398151915255565b6000808080610fe394610fd3600188015460018060a01b031690565b5af1610fdd612906565b506129b5565b38610f26565b3461047e57600080600319360112611071578054600881901c6001600160a01b0316330361105f5760ff81161561104d5760ff191681557f5db9ee0a495bf2e6ff9c91a7834c1ba4fdd244a5e8aa4e537bd38aeae4b073aa6020604051338152a180f35b60405163dcdde9dd60e01b8152600490fd5b60405163492f678160e01b8152600490fd5b80fd5b3461047e57602036600319011261047e5761108d610535565b60005460081c6001600160a01b03908116903382900361105f5782169182156110fc5760008054610100600160a81b03191660089290921b610100600160a81b03169190911790557f51c4874e0f23f262e04a38c51751336dde72126d67f53eb672aaff02996b3ef6600080a3005b60405162461bcd60e51b8152602060048201526016602482015275496e76616c696420706175736572206164647265737360501b6044820152606490fd5b3461047e57600036600319011261047e576008546040516001600160a01b039091168152602090f35b90604060031983011261047e57600435916024359067ffffffffffffffff821161047e5761119391600401610aaa565b9091565b3461047e577f2214f6a8b429291289d3afcdfccc59167b10f1d8ad1529e3959f9cd19f19af5f61126e6111c936611163565b82600095939492955260026020526111e76040600020541515612432565b6112606007611200866000526002602052604060002090565b6001810154611217906001600160a01b0316610b9d565b33148015611287575b611229906129f1565b0180546112519060081c60ff1661123f816108f6565b60028114908115611273575b50612a2c565b805461ff001916610400179055565b604051918291339683612883565b0390a3005b60039150611280816108f6565b143861124b565b50600a810154611229906112a3906001600160a01b0316610b9d565b33149050611220565b3461047e57600036600319011261047e57602060405160648152f35b634e487b7160e01b600052603260045260246000fd5b80548210156112fa576000526007602060002091020190600090565b6112c8565b90600182811c9216801561132f575b602083101461131957565b634e487b7160e01b600052602260045260246000fd5b91607f169161130e565b634e487b7160e01b600052604160045260246000fd5b60e0810190811067ffffffffffffffff82111761136b57604052565b611339565b6101c0810190811067ffffffffffffffff82111761136b57604052565b90601f8019910116810190811067ffffffffffffffff82111761136b57604052565b90604051918260008254926113c3846112ff565b90818452600194858116908160001461143257506001146113ef575b50506113ed9250038361138d565b565b9093915060005260209081600020936000915b81831061141a5750506113ed935082010138806113df565b85548884018501529485019487945091830191611402565b9150506113ed94506020925060ff191682840152151560051b82010138806113df565b95926114879260c0969998959260018060a01b031688526020880152604087015260e0606087015260e08601906105bf565b95608085015260a08401521515910152565b3461047e57604036600319011261047e576024356004356000526003602052604060002090815481101561047e576114d0916112de565b5060018060a01b038154166107146001830154926002810154906114f6600382016113af565b60048201549060ff60066005850154940154169360405197889788611455565b3461047e57602036600319011261047e576001600160a01b03611537610535565b1660005260056020526020604060002054604051908152f35b3461047e57600036600319011261047e57602060ff600054166040519015158152f35b3461047e57600036600319011261047e576020604051610e108152f35b3461047e57600036600319011261047e576020600f54604051908152f35b3461047e57600036600319011261047e576020600c54604051908152f35b80548210156112fa5760005260206000200190600090565b3461047e57604036600319011261047e576115fd610535565b6001600160a01b031660009081526004602052604090208054602435919082101561047e5760209161162e916115cc565b90546040519160031b1c8152f35b3461047e57600036600319011261047e5760206040516301e133808152f35b3461047e57602036600319011261047e576001600160a01b0361167c610535565b1660005260066020526020604060002054604051908152f35b3461047e57602036600319011261047e5760043560005260036020526020604060002054604051908152f35b3461047e57602036600319011261047e576004356000908082526002602052604082205415156116f090612432565b80825260026020526040822060010154611714906001600160a01b03163314612698565b611728816000526002602052604060002090565b60078101805460081c60ff1661173d816108f6565b156117479061246f565b805461ff001916610600179055828080806006850154600b5461176a90826128e6565b6127109004958280808061177e8b876128f9565b9a8b96600e549061178e916128f9565b600e5580600f549061179f91612069565b600f556008546001600160a01b03165af16117b8612906565b506117c290612973565b600101546001600160a01b03165af16117d9612906565b506117e3906129b5565b6040519081527f58716386e17644e69ff7358e3317a395f4523fcd0fb9cc227ee68d117ebbfbfc90602090a280f35b60a036600319011261047e5767ffffffffffffffff60043581811161047e5761183f903690600401610aaa565b9060243583811161047e57611858903690600401610aaa565b91909360443590811161047e57611873903690600401610aaa565b9060843593600485101561047e57610714966118929660643595611cdd565b6040519081529081906020820190565b3461047e57600036600319011261047e576020600a54604051908152f35b3461047e57600080600319360112611071578054600881901c6001600160a01b0316330361105f5760ff811661046c5760019060ff19161781557f62e78cea01bee320cd4e420270b5ea74000d11b0c9f74754ebdbfc544b05a2586020604051338152a180f35b9e9d9c98928f6101a09d986119966119de9e999d986119886119b39961197a6119d09f98976119696119a89b60e09a8a5260208a019060018060a01b03169052565b6101c08060408a01528801906105bf565b9086820360608801526105bf565b9084820360808601526105bf565b9c60a083015260c082015201906108e9565b6101008d0190610900565b6101208b01526101408a01526001600160a01b0316610160890152565b8682036101808801526105bf565b930152565b3461047e57602036600319011261047e57600435600090815260026020526040902080546001820154610714906001600160a01b031691611a26600285016113af565b93611a33600382016113af565b91611a40600483016113af565b90600583015490600684015490600785015490600886015492600987015494611a72600a89015460018060a01b031690565b96600c611a81600b8b016113af565b990154996040519d8e9d8e9660ff808a60081c16991697611927565b3461047e57600036600319011261047e576020600b54604051908152f35b3461047e57600036600319011261047e5760005460405160089190911c6001600160a01b03168152602090f35b3461047e57602036600319011261047e576001600160a01b03611b09610535565b1660005260056020526060604060002054600660205260406000205460076020526040600020549060405192835260208301526040820152f35b3461047e5760208060031936011261047e576001600160a01b03611b65610535565b1660005260048152604060002090604051908181845491828152019360005281600020916000905b828210611bb05761071485611ba48189038261138d565b6040519182918261079b565b835486529485019460019384019390910190611b8d565b3461047e57611bd536611163565b917f6fbd90f6b051dd2b74925fe39aef5391515a82ac6783676b36a54aa5221c6a4f611c7e6000948386526002602052611c1460408720541515612432565b838652600260205261126060408720611c3a60018060a01b03600a83015416331461274a565b6007810190611c5b600260ff845460081c16611c55816108f6565b14612785565b611c698489600b84016127c3565b600c4291015561030061ff0019825416179055565b0390a380f35b3461047e57600036600319011261047e5760206040516127108152f35b3461047e57600036600319011261047e576020600e54604051908152f35b3461047e57600036600319011261047e576020600154604051908152f35b9190959296939660ff6000541661046c57611cf6612402565b611d01871515611efd565b611d0e6064881115611f3a565b611d1c600a54851015611f77565b611d2884341015611fb4565b611d31856108df565b84611ebf576203f480915b610e1083101580611eb1575b611d5190611ff7565b600154988997611d608961204c565b600155611d6d8542612069565b92611d76612083565b8a815233602082015294611d8b368d8a6120ac565b60408701523690611d9b926120ac565b60608501523690611dab926120ac565b608083015260a082018590523460c0830152611dca8660e084016120e3565b61010082016000905242610120830152610140820152610160810160009052611df16120fb565b6101808201526101a0810160009052611e14866000526002602052604060002090565b90611e1e91612279565b33600090815260046020526040902085611e379161237b565b600c54611e439061204c565b600c5534600e5490611e5491612069565b600e55611e619042612069565b6040519384933397611e7394866123d1565b037f3e3dad351780e0c5d9667147ca353c4414b45bff35c16eab9cf5bf45f60d71ac91a3611eae6001600080516020612b6d83398151915255565b90565b506301e13380831115611d48565b611ec8856108df565b60018503611eda576201518091611d3c565b611ee3856108df565b60028503611ef45761384091611d3c565b610e1091611d3c565b15611f0457565b60405162461bcd60e51b815260206004820152600e60248201526d151a5d1b19481c995c5d5a5c995960921b6044820152606490fd5b15611f4157565b60405162461bcd60e51b815260206004820152600e60248201526d5469746c6520746f6f206c6f6e6760901b6044820152606490fd5b15611f7e57565b60405162461bcd60e51b815260206004820152600e60248201526d52657761726420746f6f206c6f7760901b6044820152606490fd5b15611fbb57565b60405162461bcd60e51b8152602060048201526014602482015273125b9cdd59999a58da595b9d081c185e5b595b9d60621b6044820152606490fd5b15611ffe57565b60405162461bcd60e51b815260206004820152601060248201526f24b73b30b634b210323ab930ba34b7b760811b6044820152606490fd5b634e487b7160e01b600052601160045260246000fd5b60001981146108c45760010190565b90600a82018092116108c457565b919082018092116108c457565b604051906113ed8261134f565b604051906113ed82611370565b67ffffffffffffffff811161136b57601f01601f191660200190565b9291926120b882612090565b916120c6604051938461138d565b82948184528183011161047e578281602093846000960137010152565b60048210156105305752565b60078210156105305752565b604051906020820182811067ffffffffffffffff82111761136b5760405260008252565b90601f811161212d57505050565b600091825260208220906020601f850160051c83019410612169575b601f0160051c01915b82811061215e57505050565b818155600101612152565b9092508290612149565b919091825167ffffffffffffffff811161136b5761219b8161219584546112ff565b8461211f565b602080601f83116001146121d75750819293946000926121cc575b50508160011b916000199060031b1c1916179055565b0151905038806121b6565b90601f198316956121ed85600052602060002090565b926000905b88821061222a57505083600195969710612211575b505050811b019055565b015160001960f88460031b161c19169055388080612207565b806001859682949686015181550195019301906121f2565b9060048110156105305760ff80198354169116179055565b9060078110156105305761ff0082549160081b169061ff001916179055565b8151815560208201516001820180546001600160a01b0319166001600160a01b0390921691909117905590600c906101a0906122bc604082015160028601612173565b6122cd606082015160038601612173565b6122de608082015160048601612173565b60a0810151600585015560c081015160068501556123256007850161231060e084015161230a816108df565b82612242565b61010083015190612320826108f6565b61225a565b61012081015160088501556101408101516009850155610160810151600a850180546001600160a01b0319166001600160a01b03909216919091179055612374610180820151600b8601612173565b0151910155565b8054600160401b81101561136b57612398916001820181556115cc565b819291549060031b91821b91600019901b1916179055565b908060209392818452848401376000828201840152601f01601f1916010190565b91936123ee6123fe926060959897966080865260808601916123b0565b96602084015260408301906108e9565b0152565b600080516020612b6d83398151915260028154146124205760029055565b604051633ee5aeb560e01b8152600490fd5b1561243957565b60405162461bcd60e51b815260206004820152600e60248201526d15185cdac81b9bdd08199bdd5b9960921b6044820152606490fd5b1561247657565b60405162461bcd60e51b81526020600482015260086024820152672737ba1037b832b760c11b6044820152606490fd5b156124ad57565b60405162461bcd60e51b815260206004820152600f60248201526e111958591b1a5b99481c185cdcd959608a1b6044820152606490fd5b156124eb57565b60405162461bcd60e51b8152602060048201526012602482015271109a5908195e18d959591cc81c995dd85c9960721b6044820152606490fd5b1561252c57565b60405162461bcd60e51b815260206004820152601660248201527543616e6e6f7420626964206f6e206f776e207461736b60501b6044820152606490fd5b1561257157565b60405162461bcd60e51b815260206004820152601060248201526f13585e08189a591cc81c995858da195960821b6044820152606490fd5b156125b057565b60405162461bcd60e51b815260206004820152600b60248201526a105b1c9958591e48189a5960aa1b6044820152606490fd5b8054600160401b81101561136b57612600916001820181556112de565b61268257815181546001600160a01b0319166001600160a01b03919091161781556113ed9160069061266f9060c0906020810151600186015560408101516002860155612654606082015160038701612173565b6080810151600486015560a081015160058601550151151590565b91019060ff801983541691151516179055565b634e487b7160e01b600052600060045260246000fd5b1561269f57565b60405162461bcd60e51b815260206004820152600a6024820152692737ba103837b9ba32b960b11b6044820152606490fd5b156126d857565b60405162461bcd60e51b815260206004820152600b60248201526a125b9d985b1a5908189a5960aa1b6044820152606490fd5b1561271257565b60405162461bcd60e51b815260206004820152601060248201526f105b1c9958591e481858d8d95c1d195960821b6044820152606490fd5b1561275157565b60405162461bcd60e51b815260206004820152600c60248201526b139bdd08185cdcda59db995960a21b6044820152606490fd5b1561278c57565b60405162461bcd60e51b815260206004820152600f60248201526e4e6f7420696e2070726f677265737360881b6044820152606490fd5b90929167ffffffffffffffff811161136b576127e38161219584546112ff565b6000601f821160011461281c57819293946000926128115750508160011b916000199060031b1c1916179055565b0135905038806121b6565b601f1982169461283184600052602060002090565b91805b87811061286b57508360019596971061285157505050811b019055565b0135600019600384901b60f8161c19169055388080612207565b90926020600181928686013581550194019101612834565b916020611eae9381815201916123b0565b1561289b57565b60405162461bcd60e51b815260206004820152600d60248201526c139bdd0818dbdb5c1b195d1959609a1b6044820152606490fd5b906064820291808304606414901517156108c457565b818102929181159184041417156108c457565b919082039182116108c457565b3d15612931573d9061291782612090565b91612925604051938461138d565b82523d6000602084013e565b606090565b1561293d57565b60405162461bcd60e51b815260206004820152600e60248201526d14185e5b595b9d0819985a5b195960921b6044820152606490fd5b1561297a57565b60405162461bcd60e51b8152602060048201526013602482015272119959481d1c985b9cd9995c8819985a5b1959606a1b6044820152606490fd5b156129bc57565b60405162461bcd60e51b815260206004820152600d60248201526c1499599d5b990819985a5b1959609a1b6044820152606490fd5b156129f857565b60405162461bcd60e51b815260206004820152600c60248201526b139bdd081a5b9d9bdb1d995960a21b6044820152606490fd5b15612a3357565b60405162461bcd60e51b815260206004820152600e60248201526d43616e6e6f74206469737075746560901b6044820152606490fd5b90600c612a74612083565b8354815260018401546001600160a01b0316602082015292612a98600282016113af565b6040850152612aa9600382016113af565b6060850152612aba600482016113af565b6080850152600581015460a0850152600681015460c0850152612afa60ff6007830154612aec82821660e089016120e3565b60081c1661010086016120ef565b60088101546101208501526009810154610140850152600a8101546001600160a01b0316610160850152612b30600b82016113af565b61018085015201546101a0830152565b67ffffffffffffffff811161136b5760051b60200190565b80518210156112fa5760209160051b01019056fe9b779b17422d0df92223018b32b4d1fa46e071723d6817e2486d003becc55f00a264697066735822122063c22468a87317005f01136ced0199421fc0785e2756d4bb39fdf7549366465164736f6c63430008140033",
  "linkReferences": {},
  "deployedLinkReferences": {}
}