{
  "_format": "hh-sol-artifact-1",
  "contractName": "CovenantFactory",
  "sourceName": "contracts/CovenantFactory.sol",
  "abi": [
    {
      "inputs": [
        {
          "internalType": "address",
          "name": "_feeRecipient",
          "type": "address"
        }
      ],
      "stateMutability": "nonpayable",
      "type": "constructor"
    },
    {
      "inputs": [],
      "name": "CovenantAlreadyExists",
      "type": "error"
    },
    {
      "inputs": [],
      "name": "InsufficientStake",
      "type": "error"
    },
    {
      "inputs": [],
      "name": "InvalidAgentAddress",
      "type": "error"
    },
    {
      "inputs": [],
      "name": "Unauthorized",
      "type": "error"
    },
    {
      "anonymous": false,
      "inputs": [
        {
          "indexed": true,
          "internalType": "address",
          "name": "covenantAddress",
          "type": "address"
        },
        {
          "indexed": true,
          "internalType": "address",
          "name": "initiator",
          "type": "address"
        },
        {
          "indexed": true,
          "internalType": "address",
          "name": "counterparty",
          "type": "address"
        },
        {
          "indexed": false,
          "internalType": "bytes32",
          "name": "covenantType",
          "type": "bytes32"
        },
        {
          "indexed": false,
          "internalType": "uint256",
          "name": "stakeAmount",
          "type": "uint256"
        },
        {
          "indexed": false,
          "internalType": "uint256",
          "name": "timestamp",
          "type": "uint256"
        }
      ],
      "name": "CovenantCreated",
      "type": "event"
    },
    {
      "anonymous": false,
      "inputs": [
        {
          "indexed": true,
          "internalType": "address",
          "name": "oldRecipient",
          "type": "address"
        },
        {
          "indexed": true,
          "internalType": "address",
          "name": "newRecipient",
          "type": "address"
        }
      ],
      "name": "FeeRecipientUpdated",
      "type": "event"
    },
    {
      "anonymous": false,
      "inputs": [
        {
          "indexed": false,
          "internalType": "uint256",
          "name": "oldStake",
          "type": "uint256"
        },
        {
          "indexed": false,
          "internalType": "uint256",
          "name": "newStake",
          "type": "uint256"
        }
      ],
      "name": "MinimumStakeUpdated",
      "type": "event"
    },
    {
      "anonymous": false,
      "inputs": [
        {
          "indexed": false,
          "internalType": "uint256",
          "name": "oldFee",
          "type": "uint256"
        },
        {
          "indexed": false,
          "internalType": "uint256",
          "name": "newFee",
          "type": "uint256"
        }
      ],
      "name": "ProtocolFeeUpdated",
      "type": "event"
    },
    {
      "inputs": [
        {
          "internalType": "bytes32",
          "name": "",
          "type": "bytes32"
        }
      ],
      "name": "agentPairToCovenant",
      "outputs": [
        {
          "internalType": "address",
          "name": "",
          "type": "address"
        }
      ],
      "stateMutability": "view",
      "type": "function"
    },
    {
      "inputs": [
        {
          "internalType": "address",
          "name": "",
          "type": "address"
        }
      ],
      "name": "covenantCreationTime",
      "outputs": [
        {
          "internalType": "uint256",
          "name": "",
          "type": "uint256"
        }
      ],
      "stateMutability": "view",
      "type": "function"
    },
    {
      "inputs": [
        {
          "internalType": "address",
          "name": "_agent1",
          "type": "address"
        },
        {
          "internalType": "address",
          "name": "_agent2",
          "type": "address"
        }
      ],
      "name": "covenantExists",
      "outputs": [
        {
          "internalType": "bool",
          "name": "",
          "type": "bool"
        }
      ],
      "stateMutability": "view",
      "type": "function"
    },
    {
      "inputs": [
        {
          "internalType": "uint256",
          "name": "",
          "type": "uint256"
        }
      ],
      "name": "covenants",
      "outputs": [
        {
          "internalType": "address",
          "name": "",
          "type": "address"
        }
      ],
      "stateMutability": "view",
      "type": "function"
    },
    {
      "inputs": [
        {
          "internalType": "address",
          "name": "_counterparty",
          "type": "address"
        },
        {
          "internalType": "bytes32",
          "name": "_covenantType",
          "type": "bytes32"
        },
        {
          "internalType": "string",
          "name": "_termsIPFSHash",
          "type": "string"
        },
        {
          "internalType": "uint256",
          "name": "_duration",
          "type": "uint256"
        }
      ],
      "name": "createCovenant",
      "outputs": [
        {
          "internalType": "address",
          "name": "covenantAddress",
          "type": "address"
        }
      ],
      "stateMutability": "payable",
      "type": "function"
    },
    {
      "inputs": [],
      "name": "feeRecipient",
      "outputs": [
        {
          "internalType": "address",
          "name": "",
          "type": "address"
        }
      ],
      "stateMutability": "view",
      "type": "function"
    },
    {
      "inputs": [],
      "name": "getCovenantCount",
      "outputs": [
        {
          "internalType": "uint256",
          "name": "",
          "type": "uint256"
        }
      ],
      "stateMutability": "view",
      "type": "function"
    },
    {
      "inputs": [
        {
          "internalType": "uint256",
          "name": "_offset",
          "type": "uint256"
        },
        {
          "internalType": "uint256",
          "name": "_limit",
          "type": "uint256"
        }
      ],
      "name": "getCovenants",
      "outputs": [
        {
          "internalType": "address[]",
          "name": "",
          "type": "address[]"
        }
      ],
      "stateMutability": "view",
      "type": "function"
    },
    {
      "inputs": [],
      "name": "minimumStake",
      "outputs": [
        {
          "internalType": "uint256",
          "name": "",
          "type": "uint256"
        }
      ],
      "stateMutability": "view",
      "type": "function"
    },
    {
      "inputs": [],
      "name": "owner",
      "outputs": [
        {
          "internalType": "address",
          "name": "",
          "type": "address"
        }
      ],
      "stateMutability": "view",
      "type": "function"
    },
    {
      "inputs": [],
      "name": "protocolFeeBps",
      "outputs": [
        {
          "internalType": "uint256",
          "name": "",
          "type": "uint256"
        }
      ],
      "stateMutability": "view",
      "type": "function"
    },
    {
      "inputs": [
        {
          "internalType": "address",
          "name": "_newRecipient",
          "type": "address"
        }
      ],
      "name": "setFeeRecipient",
      "outputs": [],
      "stateMutability": "nonpayable",
      "type": "function"
    },
    {
      "inputs": [
        {
          "internalType": "uint256",
          "name": "_newMinimum",
          "type": "uint256"
        }
      ],
      "name": "setMinimumStake",
      "outputs": [],
      "stateMutability": "nonpayable",
      "type": "function"
    },
    {
      "inputs": [
        {
          "internalType": "uint256",
          "name": "_newFeeBps",
          "type": "uint256"
        }
      ],
      "name": "setProtocolFee",
      "outputs": [],
      "stateMutability": "nonpayable",
      "type": "function"
    },
    {
      "inputs": [
        {
          "internalType": "address",
          "name": "_newOwner",
          "type": "address"
        }
      ],
      "name": "transferOwnership",
      "outputs": [],
      "stateMutability": "nonpayable",
      "type": "function"
    }
  ],
  "bytecode": "0x60806040526064600455662386f26fc1000060055534801561002057600080fd5b506040516134a93803806134a983398101604081905261003f91610099565b6001600160a01b03811661006657604051635697b36760e01b815260040160405180910390fd5b60068054336001600160a01b031991821617909155600380549091166001600160a01b03929092169190911790556100c9565b6000602082840312156100ab57600080fd5b81516001600160a01b03811681146100c257600080fd5b9392505050565b6133d1806100d86000396000f3fe608060405260043610620000fb5760003560e01c80638da5cb5b1162000095578063e74b981b1162000060578063e74b981b14620002e5578063ea50eb03146200030a578063ec5ffac21462000321578063f2fde38b146200033957600080fd5b80638da5cb5b146200024757806392d5388e1462000269578063d565d1691462000280578063d9516baa14620002b157600080fd5b80633ba8585911620000d65780633ba8585914620001905780634690484014620001c65780635d7a9d0714620001e8578063787dce3d146200022257600080fd5b8063233e9903146200010057806328f4ca31146200012757806335659fb81462000169575b600080fd5b3480156200010d57600080fd5b50620001256200011f36600462000ab0565b6200035e565b005b3480156200013457600080fd5b506200014c6200014636600462000ab0565b620003ca565b6040516001600160a01b0390911681526020015b60405180910390f35b3480156200017657600080fd5b506200018160045481565b60405190815260200162000160565b3480156200019d57600080fd5b50620001b5620001af36600462000ae7565b620003f5565b604051901515815260200162000160565b348015620001d357600080fd5b506003546200014c906001600160a01b031681565b348015620001f557600080fd5b506200014c6200020736600462000ab0565b6002602052600090815260409020546001600160a01b031681565b3480156200022f57600080fd5b50620001256200024136600462000ab0565b620004a2565b3480156200025457600080fd5b506006546200014c906001600160a01b031681565b6200014c6200027a36600462000b1f565b62000555565b3480156200028d57600080fd5b50620001816200029f36600462000bb5565b60016020526000908152604090205481565b348015620002be57600080fd5b50620002d6620002d036600462000bda565b620008c9565b60405162000160919062000bfd565b348015620002f257600080fd5b50620001256200030436600462000bb5565b620009ce565b3480156200031757600080fd5b5060005462000181565b3480156200032e57600080fd5b506200018160055481565b3480156200034657600080fd5b50620001256200035836600462000bb5565b62000a55565b6006546001600160a01b0316331462000389576040516282b42960e81b815260040160405180910390fd5b60055460408051918252602082018390527fd67ed534faf3e0dcda08ac6043ec96dcf9b6ebec56055fd14bd0cb40a27c0e49910160405180910390a1600555565b60008181548110620003db57600080fd5b6000918252602090912001546001600160a01b0316905081565b600080826001600160a01b0316846001600160a01b0316106200041957826200041b565b835b836001600160a01b0316856001600160a01b0316106200043c57846200043e565b835b6040516bffffffffffffffffffffffff19606093841b811660208301529190921b16603482015260480160408051601f198184030181529181528151602092830120600090815260029092529020546001600160a01b031615159150505b92915050565b6006546001600160a01b03163314620004cd576040516282b42960e81b815260040160405180910390fd5b6103e8811115620005145760405162461bcd60e51b815260206004820152600c60248201526b08ccaca40e8dede40d0d2ced60a31b60448201526064015b60405180910390fd5b60045460408051918252602082018390527fb404cac19fb1cbeff98d325795b08886e3cd8fe8cb1a2f193aac66f13fb239c3910160405180910390a1600455565b60006001600160a01b03861615806200057657506001600160a01b03861633145b156200059557604051635697b36760e01b815260040160405180910390fd5b600554341015620005b9576040516378de4a6960e11b815260040160405180910390fd5b60006001600160a01b0387163310620005d35786620005d5565b335b6001600160a01b0388163310620005ed5733620005ef565b875b6040516bffffffffffffffffffffffff19606093841b811660208301529190921b16603482015260480160408051601f198184030181529181528151602092830120600081815260029093529120549091506001600160a01b03161562000669576040516303f9bd7560e11b815260040160405180910390fd5b6000612710600454346200067e919062000c62565b6200068a919062000c7c565b905060006200069a823462000c9f565b6003546040519192506000916001600160a01b039091169084908381818185875af1925050503d8060008114620006ee576040519150601f19603f3d011682016040523d82523d6000602084013e620006f3565b606091505b50509050806200073c5760405162461bcd60e51b8152602060048201526013602482015272119959481d1c985b9cd9995c8819985a5b1959606a1b60448201526064016200050b565b600082338c8c8c8c8c89600360009054906101000a90046001600160a01b03166004546040516200076d9062000aa2565b620007819998979695949392919062000cb5565b6040518091039082f09050801580156200079f573d6000803e3d6000fd5b5090508095506000869080600181540180825580915050600190039060005260206000200160009091909190916101000a8154816001600160a01b0302191690836001600160a01b031602179055504260016000886001600160a01b03166001600160a01b0316815260200190815260200160002081905550856002600087815260200190815260200160002060006101000a8154816001600160a01b0302191690836001600160a01b031602179055508a6001600160a01b0316336001600160a01b0316876001600160a01b03167f3eb472a527e15c935ab5f5304eb8a07041c95959ead93c387cfff282331ca09d8d8742604051620008b3939291909283526020830191909152604082015260600190565b60405180910390a4505050505095945050505050565b60606000620008d9838562000d2a565b600054909150811115620008ec57506000545b6000620008fa858362000c9f565b67ffffffffffffffff81111562000915576200091562000d40565b6040519080825280602002602001820160405280156200093f578160200160208202803683370190505b509050845b82811015620009c5576000818154811062000963576200096362000d56565b6000918252602090912001546001600160a01b03168262000985888462000c9f565b8151811062000998576200099862000d56565b6001600160a01b039092166020928302919091019091015280620009bc8162000d6c565b91505062000944565b50949350505050565b6006546001600160a01b03163314620009f9576040516282b42960e81b815260040160405180910390fd5b6003546040516001600160a01b038084169216907faaebcf1bfa00580e41d966056b48521fa9f202645c86d4ddf28113e617c1b1d390600090a3600380546001600160a01b0319166001600160a01b0392909216919091179055565b6006546001600160a01b0316331462000a80576040516282b42960e81b815260040160405180910390fd5b600680546001600160a01b0319166001600160a01b0392909216919091179055565b6126138062000d8983390190565b60006020828403121562000ac357600080fd5b5035919050565b80356001600160a01b038116811462000ae257600080fd5b919050565b6000806040838503121562000afb57600080fd5b62000b068362000aca565b915062000b166020840162000aca565b90509250929050565b60008060008060006080868803121562000b3857600080fd5b62000b438662000aca565b945060208601359350604086013567ffffffffffffffff8082111562000b6857600080fd5b818801915088601f83011262000b7d57600080fd5b81358181111562000b8d57600080fd5b89602082850101111562000ba057600080fd5b96999598505060200195606001359392505050565b60006020828403121562000bc857600080fd5b62000bd38262000aca565b9392505050565b6000806040838503121562000bee57600080fd5b50508035926020909101359150565b6020808252825182820181905260009190848201906040850190845b8181101562000c405783516001600160a01b03168352928401929184019160010162000c19565b50909695505050505050565b634e487b7160e01b600052601160045260246000fd5b80820281158282048414176200049c576200049c62000c4c565b60008262000c9a57634e487b7160e01b600052601260045260246000fd5b500490565b818103818111156200049c576200049c62000c4c565b6001600160a01b038a8116825289811660208301526040820189905261010060608301819052820187905260009061012090888a838601376000848a01830152608084019790975260a0830195909552509190931660c082015260e0810192909252601f909201601f19160101949350505050565b808201808211156200049c576200049c62000c4c565b634e487b7160e01b600052604160045260246000fd5b634e487b7160e01b600052603260045260246000fd5b60006001820162000d815762000d8162000c4c565b506001019056fe60c0604052604051620026133803806200261383398101604081905262000026916200013f565b6001600160a01b0388811660805287811660a0908152600980546001600160a01b03191692851692909217909155600a82905534600855604080519182018152878252602082018790524290820181905260608201906200008990879062000273565b815260209081018590528151600090815590820151600190620000ad90826200032a565b506040828101516002830155606083015160038301556080909201516004909101556005805460ff199081169091556001600160a01b03999099166000908152600b60205220805490981660011790975550620003f695505050505050565b80516001600160a01b03811681146200012457600080fd5b919050565b634e487b7160e01b600052604160045260246000fd5b600080600080600080600080610100898b0312156200015d57600080fd5b62000168896200010c565b9750602062000179818b016200010c565b60408b015160608c015191995097506001600160401b03808211156200019e57600080fd5b818c0191508c601f830112620001b357600080fd5b815181811115620001c857620001c862000129565b604051601f8201601f19908116603f01168101908382118183101715620001f357620001f362000129565b816040528281528f868487010111156200020c57600080fd5b600093505b8284101562000230578484018601518185018701529285019262000211565b6000868483010152809a505050505050506080890151935060a089015192506200025d60c08a016200010c565b915060e089015190509295985092959890939650565b808201808211156200029557634e487b7160e01b600052601160045260246000fd5b92915050565b600181811c90821680620002b057607f821691505b602082108103620002d157634e487b7160e01b600052602260045260246000fd5b50919050565b601f8211156200032557600081815260208120601f850160051c81016020861015620003005750805b601f850160051c820191505b8181101562000321578281556001016200030c565b5050505b505050565b81516001600160401b0381111562000346576200034662000129565b6200035e816200035784546200029b565b84620002d7565b602080601f8311600181146200039657600084156200037d5750858301515b600019600386901b1c1916600185901b17855562000321565b600085815260208120601f198616915b82811015620003c757888601518255948401946001909101908401620003a6565b5085821015620003e65787850151600019600388901b60f8161c191681555b5050505050600190811b01905550565b60805160a0516121876200048c6000396000818161044e0152818161095001528181610ac301528181610c8f01528181610d800152818161118601526115380152600081816102dc015281816106dd01528181610a9101528181610e2d015281816111540152818161128a0152818161145f0152818161160d0152818161189a015281816119d90152611a7e01526121876000f3fe6080604052600436106101855760003560e01c806384b62c28116100d1578063d24126d91161008a578063e3cfef6011610064578063e3cfef60146104c2578063e89e4ed6146104d7578063ee38db9514610508578063f5a3f4af1461051d57600080fd5b8063d24126d914610470578063d502562514610486578063da25de3c146104ac57600080fd5b806384b62c28146103a7578063852ea203146103c75780638f4cf247146103e7578063a8d52f7a146103fc578063bdc84ac31461041c578063c3df65461461043c57600080fd5b80634a4d41eb1161013e57806369db0a7e1161011857806369db0a7e1461032e578063725a3b4b146103505780637bf6c104146103705780637d0d50dc1461039257600080fd5b80634a4d41eb146102b45780635c39fcc1146102ca57806369b4d6fe146102fe57600080fd5b8063200d2ed2146101a957806322f3e2d4146101d95780632442e1cb146101fe57806335659fb81461022b5780633670a7bd1461024f578063469048401461027c57600080fd5b366101a457346008600082825461019c9190611b53565b925050819055005b600080fd5b3480156101b557600080fd5b506005546101c39060ff1681565b6040516101d09190611b82565b60405180910390f35b3480156101e557600080fd5b506101ee61053d565b60405190151581526020016101d0565b34801561020a57600080fd5b5061021e610219366004611baa565b61055e565b6040516101d09190611c09565b34801561023757600080fd5b50610241600a5481565b6040519081526020016101d0565b34801561025b57600080fd5b5061024161026a366004611c5d565b600c6020526000908152604090205481565b34801561028857600080fd5b5060095461029c906001600160a01b031681565b6040516001600160a01b0390911681526020016101d0565b3480156102c057600080fd5b5061024160075481565b3480156102d657600080fd5b5061029c7f000000000000000000000000000000000000000000000000000000000000000081565b34801561030a57600080fd5b506101ee610319366004611c5d565b600b6020526000908152604090205460ff1681565b34801561033a57600080fd5b5061034e610349366004611baa565b6106d2565b005b34801561035c57600080fd5b5061034e61036b366004611cd6565b610a86565b34801561037c57600080fd5b50610385610bf6565b6040516101d09190611d18565b34801561039e57600080fd5b5061034e610c84565b3480156103b357600080fd5b5061034e6103c2366004611d2b565b610e22565b3480156103d357600080fd5b5061034e6103e2366004611baa565b611017565b3480156103f357600080fd5b50600654610241565b34801561040857600080fd5b5061034e610417366004611cd6565b611149565b34801561042857600080fd5b5061034e610437366004611d77565b611369565b34801561044857600080fd5b5061029c7f000000000000000000000000000000000000000000000000000000000000000081565b34801561047c57600080fd5b50610241600f5481565b34801561049257600080fd5b5061049b6116e9565b6040516101d0959493929190611d99565b3480156104b857600080fd5b5061024160085481565b3480156104ce57600080fd5b50610241611792565b3480156104e357600080fd5b506104f76104f2366004611baa565b6117b7565b6040516101d0959493929190611dcf565b34801561051457600080fd5b5061034e61188f565b34801561052957600080fd5b50600d5461029c906001600160a01b031681565b6000600160055460ff16600681111561055857610558611b6c565b14905090565b6105946040518060a001604052806060815260200160008152602001600015158152602001600015158152602001600081525090565b60065482106105da5760405162461bcd60e51b815260206004820152600d60248201526c092dcecc2d8d2c840d2dcc8caf609b1b60448201526064015b60405180910390fd5b600682815481106105ed576105ed611e06565b90600052602060002090600402016040518060a001604052908160008201805461061690611e1c565b80601f016020809104026020016040519081016040528092919081815260200182805461064290611e1c565b801561068f5780601f106106645761010080835404028352916020019161068f565b820191906000526020600020905b81548152906001019060200180831161067257829003601f168201915b505050918352505060018201546020820152600282015460ff80821615156040840152610100909104161515606082015260039091015460809091015292915050565b336001600160a01b037f0000000000000000000000000000000000000000000000000000000000000000161461071a5760405162461bcd60e51b81526004016105d190611e56565b600160055460ff16600681111561073357610733611b6c565b146107505760405162461bcd60e51b81526004016105d190611e7d565b60065481106107955760405162461bcd60e51b8152602060048201526011602482015270496e76616c6964206d696c6573746f6e6560781b60448201526064016105d1565b6000600682815481106107aa576107aa611e06565b60009182526020909120600490910201600281015490915060ff166108015760405162461bcd60e51b815260206004820152600d60248201526c139bdd0818dbdb5c1b195d1959609a1b60448201526064016105d1565b6002810154610100900460ff161561084a5760405162461bcd60e51b815260206004820152600c60248201526b105b1c9958591e481c185a5960a21b60448201526064016105d1565b60028101805461ff001916610100179055600181015460088054600090610872908490611ea1565b925050819055506000612710600a5483600101546108909190611eb4565b61089a9190611ecb565b905060008183600101546108ae9190611ea1565b6009546040519192506000916001600160a01b039091169084908381818185875af1925050503d8060008114610900576040519150601f19603f3d011682016040523d82523d6000602084013e610905565b606091505b505090508061094c5760405162461bcd60e51b8152602060048201526013602482015272119959481d1c985b9cd9995c8819985a5b1959606a1b60448201526064016105d1565b60007f00000000000000000000000000000000000000000000000000000000000000006001600160a01b03168360405160006040518083038185875af1925050503d80600081146109b9576040519150601f19603f3d011682016040523d82523d6000602084013e6109be565b606091505b5050905080610a005760405162461bcd60e51b815260206004820152600e60248201526d14185e5b595b9d0819985a5b195960921b60448201526064016105d1565b857f3af368126e502abc57fe61217a2e2ffc37e0753a9bc218ab9976a49a996e444984604051610a3291815260200190565b60405180910390a2610a42611ad7565b15610a7e576005805460ff191660021790556040517fbf1804db3af6b11f9d3cadcf0c65df2bad3a56d93c275062fdc655bedf351f7790600090a15b505050505050565b336001600160a01b037f0000000000000000000000000000000000000000000000000000000000000000161480610ae55750336001600160a01b037f000000000000000000000000000000000000000000000000000000000000000016145b610b1f5760405162461bcd60e51b815260206004820152600b60248201526a4e6f74206120706172747960a81b60448201526064016105d1565b600160055460ff166006811115610b3857610b38611b6c565b1480610b5a5750600060055460ff166006811115610b5857610b58611b6c565b145b610b975760405162461bcd60e51b815260206004820152600e60248201526d43616e6e6f74206469737075746560901b60448201526064016105d1565b6005805460ff19166003179055600e610bb1828483611f4e565b5042600f5560405133907f28b099eb575e23e32becd7c30dc8f9b2f98e370cdbf9841ea3338d9000402a2590610bea9085908590612038565b60405180910390a25050565b600e8054610c0390611e1c565b80601f0160208091040260200160405190810160405280929190818152602001828054610c2f90611e1c565b8015610c7c5780601f10610c5157610100808354040283529160200191610c7c565b820191906000526020600020905b815481529060010190602001808311610c5f57829003601f168201915b505050505081565b336001600160a01b037f00000000000000000000000000000000000000000000000000000000000000001614610cef5760405162461bcd60e51b815260206004820152601060248201526f4e6f7420636f756e746572706172747960801b60448201526064016105d1565b600060055460ff166006811115610d0857610d08611b6c565b14610d435760405162461bcd60e51b815260206004820152600b60248201526a4e6f742070656e64696e6760a81b60448201526064016105d1565b6003544210610d7e5760405162461bcd60e51b8152602060048201526007602482015266115e1c1a5c995960ca1b60448201526064016105d1565b7f00000000000000000000000000000000000000000000000000000000000000006001600160a01b03166000818152600b60205260408082208054600160ff199182168117909255600580549091169091179055517f9f4a87e77dbaf5b55d5e6f62125b58988c5befb44fb876196dd62ffca1362f219190a26040517f47c82a599a82344a17a0b9fefda032175048e76d1d1bdf41e8bc686480ff204c90600090a1565b336001600160a01b037f00000000000000000000000000000000000000000000000000000000000000001614610e6a5760405162461bcd60e51b81526004016105d190611e56565b600160055460ff166006811115610e8357610e83611b6c565b14610ea05760405162461bcd60e51b81526004016105d190611e7d565b600854811115610ee95760405162461bcd60e51b8152602060048201526014602482015273496e73756666696369656e742062616c616e636560601b60448201526064016105d1565b6040805160c06020601f8601819004028201810190925260a08101848152600692829190879087908190850183828082843760009201829052509385525050506020808301869052604083018290526060830182905260809092018190528354600181018555938152208151919260040201908190610f689082612054565b50602082015160018201556040820151600282018054606085015115156101000261ff00199315159390931661ffff199091161791909117905560809091015160039091015560078054829190600090610fc3908490611b53565b9091555050600654610fd790600190611ea1565b7fbf293db00f4de65b181a066ecc2f8bb81fb7174b517fd8085700e259ad00db1b84848460405161100a93929190612114565b60405180910390a2505050565b600160055460ff16600681111561103057611030611b6c565b1461104d5760405162461bcd60e51b81526004016105d190611e7d565b60065481106110925760405162461bcd60e51b8152602060048201526011602482015270496e76616c6964206d696c6573746f6e6560781b60448201526064016105d1565b6000600682815481106110a7576110a7611e06565b60009182526020909120600490910201600281015490915060ff16156111035760405162461bcd60e51b8152602060048201526011602482015270105b1c9958591e4818dbdb5c1b195d1959607a1b60448201526064016105d1565b60028101805460ff19166001179055426003820155604051339083907f032f77b843a5cc848407ffb1e918c51fd6982fbfd1adf0b60f45c6d7bb54068a90600090a35050565b336001600160a01b037f00000000000000000000000000000000000000000000000000000000000000001614806111a85750336001600160a01b037f000000000000000000000000000000000000000000000000000000000000000016145b6111e25760405162461bcd60e51b815260206004820152600b60248201526a4e6f74206120706172747960a81b60448201526064016105d1565b600160055460ff1660068111156111fb576111fb611b6c565b146112185760405162461bcd60e51b81526004016105d190611e7d565b600354421161125b5760405162461bcd60e51b815260206004820152600f60248201526e139bdd08195e1c1a5c9959081e595d608a1b60448201526064016105d1565b6005805460ff191660061790556008541561132e57600880546000918290556040519091906001600160a01b037f0000000000000000000000000000000000000000000000000000000000000000169083908381818185875af1925050503d80600081146112e5576040519150601f19603f3d011682016040523d82523d6000602084013e6112ea565b606091505b505090508061132b5760405162461bcd60e51b815260206004820152600d60248201526c1499599d5b990819985a5b1959609a1b60448201526064016105d1565b50505b336001600160a01b03167f76b5660c2bd01bae8e3db371287bd828ee6a8a490398f7ac405273035e6379738383604051610bea929190612038565b600360055460ff16600681111561138257611382611b6c565b146113be5760405162461bcd60e51b815260206004820152600c60248201526b139bdd08191a5cdc1d5d195960a21b60448201526064016105d1565b6008546113cb8284611b53565b11156114115760405162461bcd60e51b8152602060048201526015602482015274417761726473206578636565642062616c616e636560581b60448201526064016105d1565b6005805460ff19166004179055600d8054336001600160a01b0319909116179055811561150b57816008600082825461144a9190611ea1565b90915550506040516000906001600160a01b037f0000000000000000000000000000000000000000000000000000000000000000169084908381818185875af1925050503d80600081146114ba576040519150601f19603f3d011682016040523d82523d6000602084013e6114bf565b606091505b50509050806115095760405162461bcd60e51b8152602060048201526016602482015275125b9a5d1a585d1bdc88185dd85c990819985a5b195960521b60448201526064016105d1565b505b80156115eb5780600860008282546115239190611ea1565b90915550506040516000906001600160a01b037f0000000000000000000000000000000000000000000000000000000000000000169083908381818185875af1925050503d8060008114611593576040519150601f19603f3d011682016040523d82523d6000602084013e611598565b606091505b50509050806115e95760405162461bcd60e51b815260206004820152601960248201527f436f756e7465727061727479206177617264206661696c65640000000000000060448201526064016105d1565b505b600854156116b157600880546000918290556040519091906001600160a01b037f0000000000000000000000000000000000000000000000000000000000000000169083908381818185875af1925050503d8060008114611668576040519150601f19603f3d011682016040523d82523d6000602084013e61166d565b606091505b50509050806116ae5760405162461bcd60e51b815260206004820152600d60248201526c1499599d5b990819985a5b1959609a1b60448201526064016105d1565b50505b604080518381526020810183905233917fd45d961e06565b8dd3d1da8aa5d6bdf1ea1253ebf46c31573e5acd0125f243269101610bea565b60008054600180549192916116fd90611e1c565b80601f016020809104026020016040519081016040528092919081815260200182805461172990611e1c565b80156117765780601f1061174b57610100808354040283529160200191611776565b820191906000526020600020905b81548152906001019060200180831161175957829003601f168201915b5050505050908060020154908060030154908060040154905085565b60035460009042106117a45750600090565b6003546117b2904290611ea1565b905090565b600681815481106117c757600080fd5b90600052602060002090600402016000915090508060000180546117ea90611e1c565b80601f016020809104026020016040519081016040528092919081815260200182805461181690611e1c565b80156118635780601f1061183857610100808354040283529160200191611863565b820191906000526020600020905b81548152906001019060200180831161184657829003601f168201915b505050600184015460028501546003909501549394909360ff8083169450610100909204909116915085565b336001600160a01b037f000000000000000000000000000000000000000000000000000000000000000016146118d75760405162461bcd60e51b81526004016105d190611e56565b6005805460ff1660068111156118ef576118ef611b6c565b14806119115750600660055460ff16600681111561190f5761190f611b6c565b145b806119325750600260055460ff16600681111561193057611930611b6c565b145b8061193e575060035442115b6119805760405162461bcd60e51b815260206004820152601360248201527210d85b9b9bdd081dda5d1a191c985dc81e595d606a1b60448201526064016105d1565b6000600854116119bf5760405162461bcd60e51b815260206004820152600a6024820152694e6f2062616c616e636560b01b60448201526064016105d1565b600880546000918290556040519091906001600160a01b037f0000000000000000000000000000000000000000000000000000000000000000169083908381818185875af1925050503d8060008114611a34576040519150601f19603f3d011682016040523d82523d6000602084013e611a39565b606091505b5050905080611a7c5760405162461bcd60e51b815260206004820152600f60248201526e15da5d1a191c985dc819985a5b1959608a1b60448201526064016105d1565b7f00000000000000000000000000000000000000000000000000000000000000006001600160a01b03167feaff4b37086828766ad3268786972c0cd24259d4c87a80f9d3963a3c3d999b0d83604051610bea91815260200190565b6000805b600654811015611b355760068181548110611af857611af8611e06565b906000526020600020906004020160020160019054906101000a900460ff16611b2357600091505090565b80611b2d81612138565b915050611adb565b506001905090565b634e487b7160e01b600052601160045260246000fd5b80820180821115611b6657611b66611b3d565b92915050565b634e487b7160e01b600052602160045260246000fd5b6020810160078310611ba457634e487b7160e01b600052602160045260246000fd5b91905290565b600060208284031215611bbc57600080fd5b5035919050565b6000815180845260005b81811015611be957602081850181015186830182015201611bcd565b506000602082860101526020601f19601f83011685010191505092915050565b602081526000825160a06020840152611c2560c0840182611bc3565b905060208401516040840152604084015115156060840152606084015115156080840152608084015160a08401528091505092915050565b600060208284031215611c6f57600080fd5b81356001600160a01b0381168114611c8657600080fd5b9392505050565b60008083601f840112611c9f57600080fd5b50813567ffffffffffffffff811115611cb757600080fd5b602083019150836020828501011115611ccf57600080fd5b9250929050565b60008060208385031215611ce957600080fd5b823567ffffffffffffffff811115611d0057600080fd5b611d0c85828601611c8d565b90969095509350505050565b602081526000611c866020830184611bc3565b600080600060408486031215611d4057600080fd5b833567ffffffffffffffff811115611d5757600080fd5b611d6386828701611c8d565b909790965060209590950135949350505050565b60008060408385031215611d8a57600080fd5b50508035926020909101359150565b85815260a060208201526000611db260a0830187611bc3565b604083019590955250606081019290925260809091015292915050565b60a081526000611de260a0830188611bc3565b60208301969096525092151560408401529015156060830152608090910152919050565b634e487b7160e01b600052603260045260246000fd5b600181811c90821680611e3057607f821691505b602082108103611e5057634e487b7160e01b600052602260045260246000fd5b50919050565b6020808252600d908201526c2737ba1034b734ba34b0ba37b960991b604082015260600190565b6020808252600a90820152694e6f742061637469766560b01b604082015260600190565b81810381811115611b6657611b66611b3d565b8082028115828204841417611b6657611b66611b3d565b600082611ee857634e487b7160e01b600052601260045260246000fd5b500490565b634e487b7160e01b600052604160045260246000fd5b601f821115611f4957600081815260208120601f850160051c81016020861015611f2a5750805b601f850160051c820191505b81811015610a7e57828155600101611f36565b505050565b67ffffffffffffffff831115611f6657611f66611eed565b611f7a83611f748354611e1c565b83611f03565b6000601f841160018114611fae5760008515611f965750838201355b600019600387901b1c1916600186901b178355612008565b600083815260209020601f19861690835b82811015611fdf5786850135825560209485019460019092019101611fbf565b5086821015611ffc5760001960f88860031b161c19848701351681555b505060018560011b0183555b5050505050565b81835281816020850137506000828201602090810191909152601f909101601f19169091010190565b60208152600061204c60208301848661200f565b949350505050565b815167ffffffffffffffff81111561206e5761206e611eed565b6120828161207c8454611e1c565b84611f03565b602080601f8311600181146120b7576000841561209f5750858301515b600019600386901b1c1916600185901b178555610a7e565b600085815260208120601f198616915b828110156120e6578886015182559484019460019091019084016120c7565b50858210156121045787850151600019600388901b60f8161c191681555b5050505050600190811b01905550565b60408152600061212860408301858761200f565b9050826020830152949350505050565b60006001820161214a5761214a611b3d565b506001019056fea2646970667358221220dacab52b3469b8135e5e3583c49cf7cc4e604b02a01ddccb211456e5a758d24b64736f6c63430008140033a26469706673582212202ff141e6aff20ec9661502f201a3697049faa8c4b61449bb1fc141440e7f38ae64736f6c63430008140033",
  "linkReferences": {},
  "deployedLinkReferences": {}
}