{
  "_format": "hh-sol-artifact-1",
  "contractName": "AgentRegistry",
  "sourceName": "contracts/AgentRegistry.sol",
  "abi": [
    {
      "inputs": [],
      "stateMutability": "nonpayable",
      "type": "constructor"
    },
    {
      "inputs": [],
      "name": "ContractNotPaused",
      "type": "error"
    },
    {
      "inputs": [],
      "name": "ContractPaused",
      "type": "error"
    },
    {
      "inputs": [],
      "name": "NotPauser",
      "type": "error"
    },
    {
      "inputs": [],
      "name": "ReentrancyGuardReentrantCall",
      "type": "error"
    },
    {
      "anonymous": false,
      "inputs": [
        {
          "indexed": true,
          "internalType": "address",
          "name": "agent",
          "type": "address"
        },
        {
          "indexed": false,
          "internalType": "uint256",
          "name": "covenantsCompleted",
          "type": "uint256"
        },
        {
          "indexed": false,
          "internalType": "uint256",
          "name": "tasksCompleted",
          "type": "uint256"
        },
        {
          "indexed": false,
          "internalType": "uint256",
          "name": "totalEarned",
          "type": "uint256"
        }
      ],
      "name": "ActivityRecorded",
      "type": "event"
    },
    {
      "anonymous": false,
      "inputs": [
        {
          "indexed": true,
          "internalType": "address",
          "name": "agent",
          "type": "address"
        },
        {
          "indexed": false,
          "internalType": "uint256",
          "name": "timestamp",
          "type": "uint256"
        }
      ],
      "name": "AgentDeactivated",
      "type": "event"
    },
    {
      "anonymous": false,
      "inputs": [
        {
          "indexed": true,
          "internalType": "address",
          "name": "agent",
          "type": "address"
        },
        {
          "indexed": false,
          "internalType": "uint256",
          "name": "timestamp",
          "type": "uint256"
        }
      ],
      "name": "AgentReactivated",
      "type": "event"
    },
    {
      "anonymous": false,
      "inputs": [
        {
          "indexed": true,
          "internalType": "address",
          "name": "agent",
          "type": "address"
        },
        {
          "indexed": false,
          "internalType": "string",
          "name": "metadataURI",
          "type": "string"
        },
        {
          "indexed": false,
          "internalType": "uint256[]",
          "name": "skills",
          "type": "uint256[]"
        },
        {
          "indexed": false,
          "internalType": "uint256",
          "name": "timestamp",
          "type": "uint256"
        }
      ],
      "name": "AgentRegistered",
      "type": "event"
    },
    {
      "anonymous": false,
      "inputs": [
        {
          "indexed": true,
          "internalType": "address",
          "name": "agent",
          "type": "address"
        },
        {
          "indexed": false,
          "internalType": "string",
          "name": "metadataURI",
          "type": "string"
        },
        {
          "indexed": false,
          "internalType": "uint256[]",
          "name": "skills",
          "type": "uint256[]"
        },
        {
          "indexed": false,
          "internalType": "uint256",
          "name": "timestamp",
          "type": "uint256"
        }
      ],
      "name": "AgentUpdated",
      "type": "event"
    },
    {
      "anonymous": false,
      "inputs": [
        {
          "indexed": false,
          "internalType": "address",
          "name": "account",
          "type": "address"
        }
      ],
      "name": "Paused",
      "type": "event"
    },
    {
      "anonymous": false,
      "inputs": [
        {
          "indexed": true,
          "internalType": "address",
          "name": "previousPauser",
          "type": "address"
        },
        {
          "indexed": true,
          "internalType": "address",
          "name": "newPauser",
          "type": "address"
        }
      ],
      "name": "PauserTransferred",
      "type": "event"
    },
    {
      "anonymous": false,
      "inputs": [
        {
          "indexed": true,
          "internalType": "uint256",
          "name": "skillId",
          "type": "uint256"
        },
        {
          "indexed": false,
          "internalType": "string",
          "name": "name",
          "type": "string"
        },
        {
          "indexed": false,
          "internalType": "string",
          "name": "description",
          "type": "string"
        }
      ],
      "name": "SkillAdded",
      "type": "event"
    },
    {
      "anonymous": false,
      "inputs": [
        {
          "indexed": true,
          "internalType": "address",
          "name": "agent",
          "type": "address"
        },
        {
          "indexed": true,
          "internalType": "uint256",
          "name": "skillId",
          "type": "uint256"
        }
      ],
      "name": "SkillAssigned",
      "type": "event"
    },
    {
      "anonymous": false,
      "inputs": [
        {
          "indexed": false,
          "internalType": "address",
          "name": "account",
          "type": "address"
        }
      ],
      "name": "Unpaused",
      "type": "event"
    },
    {
      "inputs": [
        {
          "internalType": "string",
          "name": "_name",
          "type": "string"
        },
        {
          "internalType": "string",
          "name": "_description",
          "type": "string"
        }
      ],
      "name": "addSkill",
      "outputs": [],
      "stateMutability": "nonpayable",
      "type": "function"
    },
    {
      "inputs": [
        {
          "internalType": "address",
          "name": "",
          "type": "address"
        }
      ],
      "name": "agents",
      "outputs": [
        {
          "internalType": "address",
          "name": "agentAddress",
          "type": "address"
        },
        {
          "internalType": "string",
          "name": "metadataURI",
          "type": "string"
        },
        {
          "internalType": "uint256",
          "name": "reputationScore",
          "type": "uint256"
        },
        {
          "internalType": "bool",
          "name": "isActive",
          "type": "bool"
        },
        {
          "internalType": "uint256",
          "name": "registeredAt",
          "type": "uint256"
        },
        {
          "internalType": "uint256",
          "name": "lastActive",
          "type": "uint256"
        },
        {
          "internalType": "uint256",
          "name": "covenantsCompleted",
          "type": "uint256"
        },
        {
          "internalType": "uint256",
          "name": "tasksCompleted",
          "type": "uint256"
        },
        {
          "internalType": "uint256",
          "name": "totalEarned",
          "type": "uint256"
        }
      ],
      "stateMutability": "view",
      "type": "function"
    },
    {
      "inputs": [
        {
          "internalType": "uint256",
          "name": "",
          "type": "uint256"
        }
      ],
      "name": "allAgents",
      "outputs": [
        {
          "internalType": "address",
          "name": "",
          "type": "address"
        }
      ],
      "stateMutability": "view",
      "type": "function"
    },
    {
      "inputs": [],
      "name": "deactivate",
      "outputs": [],
      "stateMutability": "nonpayable",
      "type": "function"
    },
    {
      "inputs": [
        {
          "internalType": "uint256",
          "name": "_skillId",
          "type": "uint256"
        }
      ],
      "name": "findAgentsBySkill",
      "outputs": [
        {
          "internalType": "address[]",
          "name": "",
          "type": "address[]"
        }
      ],
      "stateMutability": "view",
      "type": "function"
    },
    {
      "inputs": [
        {
          "internalType": "uint256[]",
          "name": "_skillIds",
          "type": "uint256[]"
        }
      ],
      "name": "findAgentsBySkills",
      "outputs": [
        {
          "internalType": "address[]",
          "name": "",
          "type": "address[]"
        }
      ],
      "stateMutability": "view",
      "type": "function"
    },
    {
      "inputs": [
        {
          "internalType": "address",
          "name": "_agent",
          "type": "address"
        }
      ],
      "name": "getAgent",
      "outputs": [
        {
          "components": [
            {
              "internalType": "address",
              "name": "agentAddress",
              "type": "address"
            },
            {
              "internalType": "string",
              "name": "metadataURI",
              "type": "string"
            },
            {
              "internalType": "uint256[]",
              "name": "skills",
              "type": "uint256[]"
            },
            {
              "internalType": "string[]",
              "name": "skillNames",
              "type": "string[]"
            },
            {
              "internalType": "uint256",
              "name": "reputationScore",
              "type": "uint256"
            },
            {
              "internalType": "bool",
              "name": "isActive",
              "type": "bool"
            },
            {
              "internalType": "uint256",
              "name": "registeredAt",
              "type": "uint256"
            },
            {
              "internalType": "uint256",
              "name": "lastActive",
              "type": "uint256"
            },
            {
              "internalType": "uint256",
              "name": "covenantsCompleted",
              "type": "uint256"
            },
            {
              "internalType": "uint256",
              "name": "tasksCompleted",
              "type": "uint256"
            },
            {
              "internalType": "uint256",
              "name": "totalEarned",
              "type": "uint256"
            }
          ],
          "internalType": "struct AgentRegistry.AgentProfile",
          "name": "",
          "type": "tuple"
        }
      ],
      "stateMutability": "view",
      "type": "function"
    },
    {
      "inputs": [],
      "name": "getAgentCount",
      "outputs": [
        {
          "internalType": "uint256",
          "name": "",
          "type": "uint256"
        }
      ],
      "stateMutability": "view",
      "type": "function"
    },
    {
      "inputs": [
        {
          "internalType": "address",
          "name": "_agent",
          "type": "address"
        }
      ],
      "name": "getAgentSkills",
      "outputs": [
        {
          "internalType": "uint256[]",
          "name": "",
          "type": "uint256[]"
        }
      ],
      "stateMutability": "view",
      "type": "function"
    },
    {
      "inputs": [],
      "name": "getAllSkills",
      "outputs": [
        {
          "components": [
            {
              "internalType": "uint256",
              "name": "id",
              "type": "uint256"
            },
            {
              "internalType": "string",
              "name": "name",
              "type": "string"
            },
            {
              "internalType": "string",
              "name": "description",
              "type": "string"
            },
            {
              "internalType": "uint256",
              "name": "agentCount",
              "type": "uint256"
            }
          ],
          "internalType": "struct AgentRegistry.Skill[]",
          "name": "",
          "type": "tuple[]"
        }
      ],
      "stateMutability": "view",
      "type": "function"
    },
    {
      "inputs": [
        {
          "internalType": "uint256",
          "name": "_limit",
          "type": "uint256"
        },
        {
          "internalType": "uint256",
          "name": "_withinSeconds",
          "type": "uint256"
        }
      ],
      "name": "getRecentlyActive",
      "outputs": [
        {
          "internalType": "address[]",
          "name": "",
          "type": "address[]"
        }
      ],
      "stateMutability": "view",
      "type": "function"
    },
    {
      "inputs": [
        {
          "internalType": "uint256",
          "name": "_limit",
          "type": "uint256"
        }
      ],
      "name": "getTopAgents",
      "outputs": [
        {
          "internalType": "address[]",
          "name": "",
          "type": "address[]"
        }
      ],
      "stateMutability": "view",
      "type": "function"
    },
    {
      "inputs": [
        {
          "internalType": "address",
          "name": "_agent",
          "type": "address"
        }
      ],
      "name": "isRegistered",
      "outputs": [
        {
          "internalType": "bool",
          "name": "",
          "type": "bool"
        }
      ],
      "stateMutability": "view",
      "type": "function"
    },
    {
      "inputs": [],
      "name": "nextSkillId",
      "outputs": [
        {
          "internalType": "uint256",
          "name": "",
          "type": "uint256"
        }
      ],
      "stateMutability": "view",
      "type": "function"
    },
    {
      "inputs": [],
      "name": "owner",
      "outputs": [
        {
          "internalType": "address",
          "name": "",
          "type": "address"
        }
      ],
      "stateMutability": "view",
      "type": "function"
    },
    {
      "inputs": [],
      "name": "pause",
      "outputs": [],
      "stateMutability": "nonpayable",
      "type": "function"
    },
    {
      "inputs": [],
      "name": "paused",
      "outputs": [
        {
          "internalType": "bool",
          "name": "",
          "type": "bool"
        }
      ],
      "stateMutability": "view",
      "type": "function"
    },
    {
      "inputs": [],
      "name": "pauser",
      "outputs": [
        {
          "internalType": "address",
          "name": "",
          "type": "address"
        }
      ],
      "stateMutability": "view",
      "type": "function"
    },
    {
      "inputs": [],
      "name": "reactivate",
      "outputs": [],
      "stateMutability": "nonpayable",
      "type": "function"
    },
    {
      "inputs": [
        {
          "internalType": "address",
          "name": "_agent",
          "type": "address"
        },
        {
          "internalType": "uint256",
          "name": "_covenantsCompleted",
          "type": "uint256"
        },
        {
          "internalType": "uint256",
          "name": "_tasksCompleted",
          "type": "uint256"
        },
        {
          "internalType": "uint256",
          "name": "_totalEarned",
          "type": "uint256"
        }
      ],
      "name": "recordActivity",
      "outputs": [],
      "stateMutability": "nonpayable",
      "type": "function"
    },
    {
      "inputs": [
        {
          "internalType": "string",
          "name": "_metadataURI",
          "type": "string"
        },
        {
          "internalType": "uint256[]",
          "name": "_skillIds",
          "type": "uint256[]"
        }
      ],
      "name": "registerAgent",
      "outputs": [],
      "stateMutability": "payable",
      "type": "function"
    },
    {
      "inputs": [],
      "name": "registrationFee",
      "outputs": [
        {
          "internalType": "uint256",
          "name": "",
          "type": "uint256"
        }
      ],
      "stateMutability": "view",
      "type": "function"
    },
    {
      "inputs": [
        {
          "internalType": "uint256",
          "name": "_newFee",
          "type": "uint256"
        }
      ],
      "name": "setRegistrationFee",
      "outputs": [],
      "stateMutability": "nonpayable",
      "type": "function"
    },
    {
      "inputs": [
        {
          "internalType": "string",
          "name": "",
          "type": "string"
        }
      ],
      "name": "skillNameToId",
      "outputs": [
        {
          "internalType": "uint256",
          "name": "",
          "type": "uint256"
        }
      ],
      "stateMutability": "view",
      "type": "function"
    },
    {
      "inputs": [
        {
          "internalType": "uint256",
          "name": "",
          "type": "uint256"
        },
        {
          "internalType": "uint256",
          "name": "",
          "type": "uint256"
        }
      ],
      "name": "skillToAgents",
      "outputs": [
        {
          "internalType": "address",
          "name": "",
          "type": "address"
        }
      ],
      "stateMutability": "view",
      "type": "function"
    },
    {
      "inputs": [
        {
          "internalType": "uint256",
          "name": "",
          "type": "uint256"
        }
      ],
      "name": "skills",
      "outputs": [
        {
          "internalType": "uint256",
          "name": "id",
          "type": "uint256"
        },
        {
          "internalType": "string",
          "name": "name",
          "type": "string"
        },
        {
          "internalType": "string",
          "name": "description",
          "type": "string"
        },
        {
          "internalType": "uint256",
          "name": "agentCount",
          "type": "uint256"
        }
      ],
      "stateMutability": "view",
      "type": "function"
    },
    {
      "inputs": [],
      "name": "totalAgents",
      "outputs": [
        {
          "internalType": "uint256",
          "name": "",
          "type": "uint256"
        }
      ],
      "stateMutability": "view",
      "type": "function"
    },
    {
      "inputs": [
        {
          "internalType": "address",
          "name": "newPauser",
          "type": "address"
        }
      ],
      "name": "transferPauser",
      "outputs": [],
      "stateMutability": "nonpayable",
      "type": "function"
    },
    {
      "inputs": [],
      "name": "unpause",
      "outputs": [],
      "stateMutability": "nonpayable",
      "type": "function"
    },
    {
      "inputs": [
        {
          "internalType": "string",
          "name": "_metadataURI",
          "type": "string"
        },
        {
          "internalType": "uint256[]",
          "name": "_skillIds",
          "type": "uint256[]"
        }
      ],
      "name": "updateProfile",
      "outputs": [],
      "stateMutability": "nonpayable",
      "type": "function"
    },
    {
      "inputs": [],
      "name": "withdrawFees",
      "outputs": [],
      "stateMutability": "nonpayable",
      "type": "function"
    },
    {
      "stateMutability": "payable",
      "type": "receive"
    }
  ],
  "bytecode": "0x60406080815234620003f35760017f9b779b17422d0df92223018b32b4d1fa46e071723d6817e2486d003becc55f0081905560008054610100600160a81b03191633600881811b610100600160a81b031692909217835560069390935560079190915566038d7ea4c6800060095580546001600160a01b0319169091179055620003e56200008c620003f8565b601a8152620001056020917f536d61727420436f6e747261637420446576656c6f706d656e7400000000000083820152620000c66200042e565b90602782527f57726974696e6720616e64206175646974696e6720536f6c696469747920636f84830152666e74726163747360c81b868301526200049a565b6200017262000113620003f8565b600d81526c4461746120416e616c7973697360981b83820152620001366200042e565b90602482527f4f6e2d636861696e20616e64206f66662d636861696e206461746120616e616c84830152637973697360e01b868301526200049a565b620001da62000180620003f8565b600781526654726164696e6760c81b838201526200019d6200042e565b90602582527f446546692074726164696e6720616e64206172626974726167652073747261748483015264656769657360d81b868301526200049a565b6200024c620001e8620003f8565b601081526f21b7b73a32b73a1021b932b0ba34b7b760811b838201526200020e6200042e565b90602682527f446f63756d656e746174696f6e2c20736f6369616c206d656469612c206d617284830152656b6574696e6760d01b868301526200049a565b620002b16200025a620003f8565b60118152705365637572697479204175646974696e6760781b8382015262000281620003f8565b90601f82527f536d61727420636f6e7472616374207365637572697479207265766965777300848301526200049a565b6200031f620002bf620003f8565b601081526f4d616368696e65204c6561726e696e6760801b83820152620002e56200042e565b90602282527f41492f4d4c206d6f64656c20747261696e696e6720616e6420696e666572656e8483015261636560f01b868301526200049a565b620003796200032d620003f8565b60068152654465764f707360d01b8382015262000349620003f8565b90601d82527f496e66726173747275637475726520616e64206465706c6f796d656e74000000848301526200049a565b62000383620003f8565b601481527f436f6d6d756e697479204d616e6167656d656e74000000000000000000000000828201527f446973636f72642c20666f72756d732c20676f7665726e616e63650000000000620003d7620003f8565b92601b84528301526200049a565b516129709081620008428239f35b600080fd5b60408051919082016001600160401b038111838210176200041857604052565b634e487b7160e01b600052604160045260246000fd5b60405190606082016001600160401b038111838210176200041857604052565b60005b838110620004625750506000910152565b818101518382015260200162000451565b906020916200048e815180928185528580860191016200044e565b601f01601f1916010190565b6006549192919060001982146200082b57600182016006556040805194608086016001600160401b03811187821017620004185782528386526020860183815282870196828852600060608201528560005260026020528360002091815183555197885160018060401b038111620004185760018401549960018b811c9b16801562000820575b60208c101462000723578190601f9b8c8111620007c7575b506020908c8311600114620007505760009262000744575b50508160011b916000199060031b1c19161760018401555b51805190986002840191906001600160401b03821162000418578254600181811c9116801562000739575b60208210146200072357818111620006d9575b506020908211600114620006505792600392826060936200063f989796600080516020620031b28339815191529c9d9e60009262000644575b50508160011b9160001990871b1c19161790555b01519101558583516020818751620006108183858c016200044e565b810160048152030190205562000630835194848695865285019062000473565b90838203602085015262000473565b0390a2565b015190503880620005e0565b601f1982169a8360005260206000209b60005b818110620006c0575083600080516020620031b28339815191529b9c9d6200063f999897946003979460609760019510620006a7575b505050811b019055620005f4565b015160001983891b60f8161c1916905538808062000699565b838301518e556001909d019c6020938401930162000663565b8360005260206000208280850160051c8201926020861062000719575b0160051c01905b8181106200070c5750620005a7565b60008155600101620006fd565b92508192620006f6565b634e487b7160e01b600052602260045260246000fd5b90607f169062000594565b01519050388062000551565b9250600186016000526020600020906000935b601f1984168510620007ab576001945083601f1981161062000791575b505050811b01600184015562000569565b015160001960f88460031b161c1916905538808062000780565b8181015183556020948501946001909301929091019062000763565b9091506001860160005260206000208c80850160051c8201926020861062000816575b9085949392910160051c01905b81811062000806575062000539565b60008155849350600101620007f7565b92508192620007ea565b9a607f169a62000521565b634e487b7160e01b600052601160045260246000fdfe6080604052600436101561001b575b361561001957600080fd5b005b60003560e01c806308edbd1414611b5457806314c44e0914611b365780633421ebfd14611ada57806334306d2514611abc578063346945fd146119775780633f4ba83a146119015780634421ea211461183c578063476343ee146117c557806350d15fbe1461174c57806351b42b00146116d75780635c975abb146116b45780635d3aa8131461158e57806375ae1fef14610e805780638456cb5914610df55780638da5cb5b14610dcc57806391cab63e14610a475780639fd0506d14610d9f578063a113938f14610d6e578063b1e29ea414610be5578063b2bdc75f14610ba9578063b47172da14610b58578063b6ef504e14610ad5578063c320c72714610aa7578063c3c5a54714610a65578063c505371214610a47578063ccc3bba814610888578063d18611d6146107b3578063d862ae87146104d3578063e0bb12f714610491578063fb3551ff1461022c5763fd66091e0361000e5734610227576020366003190112610227576001600160a01b03806101976121fd565b1660005260016020526040600020908154166101b56001830161224d565b9160048101549060ff6005820154169060068101546007820154600883015491600a6009850154940154946101fc604051998a998a526101208060208c01528a01906122f3565b96604089015215156060880152608087015260a086015260c085015260e08401526101008301520390f35b600080fd5b34610227576020366003190112610227576102456121fd565b600061014060405161025681612112565b82815260606020820152606060408201526060808201528260808201528260a08201528260c08201528260e08201528261010082015282610120820152015260018060a01b031660005260016020526040600020604051906102b782612112565b80546001600160a01b031682526102d06001820161224d565b60208301526102e16002820161288b565b604083015260038101546102f4816124a6565b906103026040519283612149565b808252602082016003840160005260206000206000915b8383106104745786600a878760608401526004810154608084015260ff600582015416151560a0840152600681015460c0840152600781015460e08401526008810154610100840152600981015461012084015201546101408201526040516020815260018060a01b0382511660208201526103bf6103a9602084015161016060408501526101808401906122f3565b6040840151838203601f190160608501526123d7565b606083015190601f19838203016080840152815180825260208201916020808360051b8301019401926000915b838310610447578680876101408b608081015160a085015260a0810151151560c085015260c081015160e085015260e08101516101008501526101008101516101208501526101208101518285015201516101608301520390f35b9091929394602080610465600193601f1986820301875289516122f3565b970193019301919392906103ec565b6001602081926104838561224d565b815201920192019190610319565b3461022757602036600319011261022757600435600554811015610227576104ba602091612372565b905460405160039290921b1c6001600160a01b03168152f35b34610227576040366003190112610227576001600160401b03600435818111610227576105049036906004016121bc565b6024358281116102275761051c9036906004016121bc565b9161053260018060a01b03600854163314612853565b6006549261053f8461240b565b60065560405161054e8161212e565b8481526020928382019085825260408301908482526060840192600084528860005260028752604060002094518555600190818601905180519084821161072f5781906105a58261059f8654612213565b86612555565b8a90601f831160011461075057600092610745575b5050600019600383901b1c191690831b1790555b600285019251805192831161072f576105eb8361059f8654612213565b8790601f841160011461069b5793838061068b989560039561067e9c99957f05991bfaa80c5f743d433bd10462fc1453a7c566aa9c81582e3dbab915dca4ff9e9c99600094610690575b50501b9160001990861b1c19161790555b51910155866040518381875161065f8183858c016121da565b81016004815203019020556040519485946040865260408601906122f3565b91848303908501526122f3565b0390a2005b015192508f80610635565b90601f9392931983169185600052896000209260005b81811061071a57509361067e9a97937f05991bfaa80c5f743d433bd10462fc1453a7c566aa9c81582e3dbab915dca4ff9c9a979361068b9a97938360039810610702575b505050811b019055610646565b015160001983881b60f8161c191690558d80806106f5565b82840151855593860193928b01928b016106b1565b634e487b7160e01b600052604160045260246000fd5b015190508c806105ba565b60008581528c8120879550929190601f198516908e5b82821061079c5750508411610783575b505050811b0190556105ce565b015160001960f88460031b161c191690558c8080610776565b83850151865589979095019493840193018e610766565b3461022757600036600319011261022757336000908152600160205260409020546107e8906001600160a01b0316151561262a565b33600052600160205260ff6005604060002001541661085257336000526001602052604060002060058101600160ff198254161790556007429101556040514281527f72fa502a711d31da2101a8152ede15f4f332c7bef579c13ca9f8ef603a4480e660203392a2005b60405162461bcd60e51b815260206004820152600e60248201526d416c72656164792061637469766560901b6044820152606490fd5b3461022757600036600319011261022757600654600019808201908282116109ff576108b3826124a6565b916108c16040519384612149565b8083526108d0601f19916124a6565b0160005b818110610a15575050600192835b818110610985578385604051918291602090818401828552835180915260408501928060408360051b8801019501936000905b8382106109225787870388f35b918496819592949698508190603f198b82030185528951908151815261096961095784840151608080878601528401906122f3565b604084015183820360408501526122f3565b9160608091015191015298019201920187969593919492610915565b806000526002906020828152604060002090858301908382116109ff5760036109f4936109d76109fa978c946109cc604051966109c18861212e565b85548852850161224d565b90860152820161224d565b6040840152015460608201526109ed8289612507565b5286612507565b5061240b565b6108e2565b634e487b7160e01b600052601160045260246000fd5b602090604051610a248161212e565b6000815260606000849180838501528060408501528301528287010152016108d4565b34610227576000366003190112610227576020600754604051908152f35b34610227576020366003190112610227576001600160a01b03610a866121fd565b166000526001602052602060ff600560406000200154166040519015158152f35b3461022757602036600319011261022757610acd60018060a01b03600854163314612853565b600435600955005b34610227576020806003193601126102275760043560005260038152604060002090604051908181845491828152019360005281600020916000905b828210610b3857610b3485610b2881890382612149565b6040519182918261232e565b0390f35b83546001600160a01b031686529485019460019384019390910190610b11565b34610227576020366003190112610227576001600160a01b03610b796121fd565b166000526001602052610b34610b95600260406000200161288b565b6040519182916020835260208301906123d7565b34610227576020366003190112610227576004356001600160401b03811161022757610b28610bdf610b34923690600401612080565b906126a6565b34610227576020806003193601126102275760055460043581811115610d68575080915b610c1282612674565b9160005b818110610d3a57505060005b8251811015610ce95760018082018083116109ff57815b610c4e575b5050610c499061240b565b610c22565b8451811015610ce4578190610ca8906001600160a01b0380610c70838a612507565b511660005283875260046040600020015481610c8c888b612507565b511660005284885260046040600020015410610cae575061240b565b90610c39565b80610cb9878a612507565b511690610cc6838a612507565b5116610cd2878a612507565b52610cdd8289612507565b52886109f4565b610c3e565b8284610cf481612674565b9160005b828110610d0d5760405180610b34868261232e565b610d35906001600160a01b03610d238285612507565b5116610d2f8287612507565b5261240b565b610cf8565b80610d47610d6392612372565b905460039190911b1c6001600160a01b0316610d2f8287612507565b610c16565b91610c09565b3461022757610d7c36612318565b90600052600360205260406000208054821015610227576020916104ba916123bf565b346102275760003660031901126102275760005460405160089190911c6001600160a01b03168152602090f35b34610227576000366003190112610227576008546040516001600160a01b039091168152602090f35b3461022757600036600319011261022757600054600881901c6001600160a01b03163303610e6e5760ff8116610e5c5760019060ff1916176000557f62e78cea01bee320cd4e420270b5ea74000d11b0c9f74754ebdbfc544b05a2586020604051338152a1005b60405163ab35696f60e01b8152600490fd5b60405163492f678160e01b8152600490fd5b610e89366120b0565b9060ff60009493945416610e5c5760027f9b779b17422d0df92223018b32b4d1fa46e071723d6817e2486d003becc55f00541461157c5760027f9b779b17422d0df92223018b32b4d1fa46e071723d6817e2486d003becc55f005560005b828110611536575033600052600160205260ff600560406000200154166114fc576009548034106114c457803411611469575b50610f24826124bd565b60005b8381106113d8575060405190610f3c82612112565b338252610f4a368787612185565b6020830152610f58846124a6565b610f656040519182612149565b84815260208101368660051b8601116102275784905b8660051b860182106113c85750506040830152606082015260006080820152600160a08201524260c08201524260e082015260006101008201526000610120820152600061014082015233600052600160205260406000209060018060a01b038151166bffffffffffffffffffffffff60a01b83541617825560208101518051906001600160401b03821161072f5781906110268261101d6001880154612213565b60018801612555565b602090601f83116001146113565760009261134b575b50508160011b916000199060031b1c19161760018301555b60408101518051906001600160401b03821161072f576020600285019161107b848461259a565b0190600052602060002060005b83811061133757505050506060810151805190600160401b821161072f5760038401548260038601558083106112bf575b5060200190600384016000526020600020916000905b8282106111dc5750505050610140816080600a93015160048501556005840160a0820151151560ff8019835416911617905560c0810151600685015560e08101516007850155610100810151600885015561012081015160098501550151910155600554600160401b81101561072f577fdf1275f67e995789184a7a608f6c1b71953a305670459d1bb1f05956db47c05d936111956111778360016111b39501600555612372565b81546001600160a01b0360039290921b91821b19163390911b179055565b6111a060075461240b565b60075560405193849333974293866125ce565b0390a260017f9b779b17422d0df92223018b32b4d1fa46e071723d6817e2486d003becc55f0055005b80518051906001600160401b03821161072f57611203826111fd8854612213565b88612555565b602090601f831160011461124f579282600194936020938695600092611244575b5050600019600383901b1c191690841b1787555b019401910190926110cf565b015190508f80611224565b908660005260206000209160005b601f19851681106112a7575083602093600196938796938794601f1981161061128e575b505050811b018755611238565b015160001960f88460031b161c191690558f8080611281565b9192602060018192868501518155019401920161125d565b600385016000526020600020908382015b81830181106112e05750506110b9565b806112ed60019254612213565b806112fa575b50016112d0565b601f811183146113105750600081555b8c6112f3565b60009082825261132e601f60208420920160051c820185830161253e565b8183555561130a565b600190602084519401938184015501611088565b01519050888061103c565b9250600185016000526020600020906000935b601f19841685106113ad576001945083601f19811610611394575b505050811b016001830155611054565b015160001960f88460031b161c19169055888080611384565b81810151835560209485019460019093019290910190611369565b8135815260209182019101610f7b565b806113e761146492868661241a565b356000526002602052611400600160406000200161224d565b61140a8285612507565b526114158184612507565b5061142181868661241a565b3560005260038060205261143933604060002061251b565b61144482878761241a565b35600052600260205260406000200161145d815461240b565b905561240b565b610f27565b60008080611478819434612469565b335af1611483612476565b501561148f5784610f1a565b60405162461bcd60e51b815260206004820152600d60248201526c1499599d5b990819985a5b1959609a1b6044820152606490fd5b60405162461bcd60e51b815260206004820152601060248201526f496e73756666696369656e742066656560801b6044820152606490fd5b60405162461bcd60e51b8152602060048201526012602482015271105b1c9958591e481c9959da5cdd195c995960721b6044820152606490fd5b8061154561155c92858561241a565b35151580611561575b6115579061242a565b61240b565b610ee7565b5061155761157082868661241a565b3560065411905061154e565b604051633ee5aeb560e01b8152600490fd5b346102275761159c36612318565b6005918254906115ab82612674565b936115b860009442612469565b9060005b848110611606575b50505050506115d281612674565b9160005b8281106115eb5760405180610b34868261232e565b611601906001600160a01b03610d238285612507565b6115d6565b61160f81612372565b60018060a01b03809254600392831b1c16600052600160209080825260ff8660406000200154169182611689575b5050611654575b505061164f9061240b565b6115bc565b9082979161166461167494612372565b9054911b1c16610d2f828a612507565b9483861015611684578780611644565b6115c4565b9091508361169686612372565b905490851b1c16600052528460076040600020015410158a8061163d565b3461022757600036600319011261022757602060ff600054166040519015158152f35b346102275760003660031901126102275733600052600160205261170560ff6005604060002001541661262a565b336000526001602052600560406000200160ff1981541690556040514281527f0908d0024a3278cb165ed9b5e370dfd4b2c566122efebb355afb5b56e224915860203392a2005b346102275760203660031901126102275760043560005260026020526040600020805461177b6001830161224d565b916117bb600361178d6002840161224d565b920154916117ad60405195869586526080602087015260808601906122f3565b9084820360408601526122f3565b9060608301520390f35b3461022757600036600319011261022757600080808060018060a01b03600854166117f1813314612853565b47905af16117fd612476565b501561180557005b60405162461bcd60e51b815260206004820152600f60248201526e15da5d1a191c985dc819985a5b1959608a1b6044820152606490fd5b34610227576020366003190112610227576118556121fd565b6000546001600160a01b03600882901c8116919033839003610e6e5783169283156118c357610100600160a81b031990911660089190911b610100600160a81b03161760009081557f51c4874e0f23f262e04a38c51751336dde72126d67f53eb672aaff02996b3ef69080a3005b60405162461bcd60e51b8152602060048201526016602482015275496e76616c696420706175736572206164647265737360501b6044820152606490fd5b3461022757600036600319011261022757600054600881901c6001600160a01b03163303610e6e5760ff8116156119655760ff19166000557f5db9ee0a495bf2e6ff9c91a7834c1ba4fdd244a5e8aa4e537bd38aeae4b073aa6020604051338152a1005b60405163dcdde9dd60e01b8152600490fd5b34610227576080366003190112610227576001600160a01b036119986121fd565b1680600052600160205260ff6005604060002001541615611a8457806000526001602052604060002060088101906119d36024358354612667565b80925560098101916119e86044358454612667565b809355600a82016119fc6064358254612667565b809155426007840155600a820293828504600a14831517156109ff576005810293818504600514821517156109ff576004611a6e611a5d6060977fac3c2beb7724a927c9efcb9aa36d9cc3215467ad97652337ec58c5527ba70e5399612667565b670de0b6b3a7640000860490612667565b91015560405192835260208301526040820152a2005b60405162461bcd60e51b815260206004820152601060248201526f4167656e74206e6f742061637469766560801b6044820152606490fd5b34610227576000366003190112610227576020600654604051908152f35b34610227576020366003190112610227576004356001600160401b03811161022757611b236020611b10819336906004016121bc565b81604051938285809451938492016121da565b8101600481520301902054604051908152f35b34610227576000366003190112610227576020600954604051908152f35b3461022757611b62366120b0565b9190336000526001602052611b8160ff6005604060002001541661262a565b60005b8381106120455750336000526001602052604060002060009460028201905b8154871015611ce557611bb687836123bf565b90549060031b1c9485600052600360205260406000209660005b885480821015611cd157611be4828b6123bf565b90546001600160a01b03929160031b1c82163314611c0c575050611c079061240b565b611bd0565b9092969a9498939795999160001982019182116109ff57611c4384611c34611c6294866123bf565b90549060031b1c1691846123bf565b90919082549060031b9160018060a01b03809116831b921b1916179055565b80548015611cbb576000190191611c7983836123bf565b909182549160031b1b1916905555600052600260205260036040600020019081549182156109ff57611cb09260001901905561240b565b959194909293611ba3565b634e487b7160e01b600052603160045260246000fd5b505093979094929650611cb091955061240b565b94929190611cf2846124bd565b9060005b858110611fd457506001600160401b03861161072f5760018301611d2487611d1e8354612213565b83612555565b866000601f8211600114611f6d57600091611f62575b508760011b906000198960031b1c19161790555b6001600160401b03851161072f57611d66858261259a565b839060005260206000209060005b868110611f4e57505050805190600160401b821161072f576003830154826003850155808310611ed6575b5060200190600383016000526020600020916000905b828210611dfb57877f4343b17cbad9b3255be7285fe10f12ee275fa867fad18ab3297ac8456cc99f7c888861068b8d8a60074291015560405193849333974293866125ce565b80518051906001600160401b03821161072f57611e1c826111fd8854612213565b602090601f8311600114611e68579282600194936020938695600092611e5d575b5050600019600383901b1c191690841b1787555b01940191019092611db5565b015190508e80611e3d565b90601f198316918760005260206000209260005b818110611ebe5750936020936001969387969383889510611ea5575b505050811b018755611e51565b015160001960f88460031b161c191690558e8080611e98565b92936020600181928786015181550195019301611e7c565b600384016000526020600020908382015b8183018110611ef7575050611d9f565b80611f0460019254612213565b80611f11575b5001611ee7565b601f81118314611f275750600081555b8b611f0a565b600090828252611f45601f60208420920160051c820185830161253e565b81835555611f21565b600190602083359301928185015501611d74565b905088013589611d3a565b60008381526020812092505b8a601f198b168210611fbc57505088601f19811610611fa2575b5050600187811b019055611d4e565b89013560001960038a901b60f8161c191690558880611f93565b60018394602093948493013581550193019101611f79565b80611fe361204092888861241a565b356000526002602052611ffc600160406000200161224d565b6120068286612507565b526120118185612507565b5061201d81888861241a565b3560005260038060205261203533604060002061251b565b61144482898961241a565b611cf6565b8061205761206892868598969561241a565b35151580612071576115579061242a565b93909193611b84565b5061155761157082878961241a565b9181601f84011215610227578235916001600160401b038311610227576020808501948460051b01011161022757565b604060031982011261022757600435916001600160401b038084116102275782602385011215610227578360040135938185116102275783602486830101116102275760240193926024359182116102275761210e91600401612080565b9091565b61016081019081106001600160401b0382111761072f57604052565b608081019081106001600160401b0382111761072f57604052565b90601f801991011681019081106001600160401b0382111761072f57604052565b6001600160401b03811161072f57601f01601f191660200190565b9291926121918261216a565b9161219f6040519384612149565b829481845281830111610227578281602093846000960137010152565b9080601f83011215610227578160206121d793359101612185565b90565b60005b8381106121ed5750506000910152565b81810151838201526020016121dd565b600435906001600160a01b038216820361022757565b90600182811c92168015612243575b602083101461222d57565b634e487b7160e01b600052602260045260246000fd5b91607f1691612222565b906040519182600082549261226184612213565b9081845260019485811690816000146122d0575060011461228d575b505061228b92500383612149565b565b9093915060005260209081600020936000915b8183106122b857505061228b9350820101388061227d565b855488840185015294850194879450918301916122a0565b91505061228b94506020925060ff191682840152151560051b820101388061227d565b9060209161230c815180928185528580860191016121da565b601f01601f1916010190565b6040906003190112610227576004359060243590565b6020908160408183019282815285518094520193019160005b828110612355575050505090565b83516001600160a01b031685529381019392810192600101612347565b6005548110156123a95760056000527f036b6384b5eca791c62761152d0c79bb0604c104a5fb6f4eb0703f3154bb3db00190600090565b634e487b7160e01b600052603260045260246000fd5b80548210156123a95760005260206000200190600090565b90815180825260208080930193019160005b8281106123f7575050505090565b8351855293810193928101926001016123e9565b60001981146109ff5760010190565b91908110156123a95760051b0190565b1561243157565b60405162461bcd60e51b815260206004820152601060248201526f125b9d985b1a59081cdada5b1b08125160821b6044820152606490fd5b919082039182116109ff57565b3d156124a1573d906124878261216a565b916124956040519384612149565b82523d6000602084013e565b606090565b6001600160401b03811161072f5760051b60200190565b906124c7826124a6565b6124d46040519182612149565b82815280926124e5601f19916124a6565b019060005b8281106124f657505050565b8060606020809385010152016124ea565b80518210156123a95760209160051b010190565b90815491600160401b83101561072f5782611c4391600161228b950181556123bf565b818110612549575050565b6000815560010161253e565b9190601f811161256457505050565b61228b926000526020600020906020601f840160051c83019310612590575b601f0160051c019061253e565b9091508190612583565b90600160401b811161072f578154908083558181106125b857505050565b61228b926000526020600020918201910161253e565b959493918091606088528160608901526080880137600060808288010152601f8019910116850191608086840301602087015281608084015260018060fb1b0382116102275760409260a09260051b8092848301370101930152565b1561263157565b60405162461bcd60e51b815260206004820152600e60248201526d139bdd081c9959da5cdd195c995960921b6044820152606490fd5b919082018092116109ff57565b9061267e826124a6565b61268b6040519182612149565b828152809261269c601f19916124a6565b0190602036910137565b91908015612828576000928035845260209360038552604092838220908451808389829554938481520190865289862092865b8b828210612809575050506126f092500383612149565b6126fa8251612674565b928094815b84518110156127c1576001600160a01b038061271b8388612507565b511684526001808c5260ff60058b8720015416156127b657805b868110612778575b50612752575b5061274d9061240b565b6126ff565b81976127719161276561274d9489612507565b5116610d2f828a612507565b9690612743565b61279a83612786868b612507565b5116612793838a8961241a565b35906128da565b156127ad576127a89061240b565b612735565b5050833861273d565b505061274d9061240b565b50509450505093506127d281612674565b915b8181106127e2575090925050565b612804906001600160a01b036127f88288612507565b5116610d2f8286612507565b6127d4565b85546001600160a01b03168452600195860195889550930192016126d9565b509050604051602081018181106001600160401b0382111761072f5760405260008152600036813790565b1561285a57565b60405162461bcd60e51b81526020600482015260096024820152682737ba1037bbb732b960b91b6044820152606490fd5b9060405191828154918282526020928383019160005283600020936000905b8282106128c05750505061228b92500383612149565b8554845260019586019588955093810193909101906128aa565b6001600160a01b03166000908152600160208190526040822060020180549391925b84811061290d575050505050600090565b8261291882846123bf565b90549060031b1c146129325761292d9061240b565b6128fc565b50505090509056fea264697066735822122044f20ecbf70f2345d9b188268c83a69dba41a64b59234b8cf5d4f8d9da0829be64736f6c6343000814003305991bfaa80c5f743d433bd10462fc1453a7c566aa9c81582e3dbab915dca4ff",
  "linkReferences": {},
  "deployedLinkReferences": {}
}