{
  "_format": "hh-sol-artifact-1",
  "contractName": "AgentRegistry",
  "sourceName": "contracts/AgentRegistry.sol",
  "abi": [
    {
      "inputs": [],
      "stateMutability": "nonpayable",
      "type": "constructor"
    },
    {
      "inputs": [],
      "name": "ContractNotPaused",
      "type": "error"
    },
    {
      "inputs": [],
      "name": "ContractPaused",
      "type": "error"
    },
    {
      "inputs": [],
      "name": "NotPauser",
      "type": "error"
    },
    {
      "inputs": [],
      "name": "ReentrancyGuardReentrantCall",
      "type": "error"
    },
    {
      "anonymous": false,
      "inputs": [
        {
          "indexed": true,
          "internalType": "address",
          "name": "agent",
          "type": "address"
        },
        {
          "indexed": false,
          "internalType": "uint256",
          "name": "covenantsCompleted",
          "type": "uint256"
        },
        {
          "indexed": false,
          "internalType": "uint256",
          "name": "tasksCompleted",
          "type": "uint256"
        },
        {
          "indexed": false,
          "internalType": "uint256",
          "name": "totalEarned",
          "type": "uint256"
        }
      ],
      "name": "ActivityRecorded",
      "type": "event"
    },
    {
      "anonymous": false,
      "inputs": [
        {
          "indexed": true,
          "internalType": "address",
          "name": "agent",
          "type": "address"
        },
        {
          "indexed": false,
          "internalType": "uint256",
          "name": "timestamp",
          "type": "uint256"
        }
      ],
      "name": "AgentDeactivated",
      "type": "event"
    },
    {
      "anonymous": false,
      "inputs": [
        {
          "indexed": true,
          "internalType": "address",
          "name": "agent",
          "type": "address"
        },
        {
          "indexed": false,
          "internalType": "uint256",
          "name": "timestamp",
          "type": "uint256"
        }
      ],
      "name": "AgentReactivated",
      "type": "event"
    },
    {
      "anonymous": false,
      "inputs": [
        {
          "indexed": true,
          "internalType": "address",
          "name": "agent",
          "type": "address"
        },
        {
          "indexed": false,
          "internalType": "string",
          "name": "metadataURI",
          "type": "string"
        },
        {
          "indexed": false,
          "internalType": "uint256[]",
          "name": "skills",
          "type": "uint256[]"
        },
        {
          "indexed": false,
          "internalType": "uint256",
          "name": "timestamp",
          "type": "uint256"
        }
      ],
      "name": "AgentRegistered",
      "type": "event"
    },
    {
      "anonymous": false,
      "inputs": [
        {
          "indexed": true,
          "internalType": "address",
          "name": "agent",
          "type": "address"
        },
        {
          "indexed": false,
          "internalType": "string",
          "name": "metadataURI",
          "type": "string"
        },
        {
          "indexed": false,
          "internalType": "uint256[]",
          "name": "skills",
          "type": "uint256[]"
        },
        {
          "indexed": false,
          "internalType": "uint256",
          "name": "timestamp",
          "type": "uint256"
        }
      ],
      "name": "AgentUpdated",
      "type": "event"
    },
    {
      "anonymous": false,
      "inputs": [
        {
          "indexed": false,
          "internalType": "address",
          "name": "account",
          "type": "address"
        }
      ],
      "name": "Paused",
      "type": "event"
    },
    {
      "anonymous": false,
      "inputs": [
        {
          "indexed": true,
          "internalType": "address",
          "name": "previousPauser",
          "type": "address"
        },
        {
          "indexed": true,
          "internalType": "address",
          "name": "newPauser",
          "type": "address"
        }
      ],
      "name": "PauserTransferred",
      "type": "event"
    },
    {
      "anonymous": false,
      "inputs": [
        {
          "indexed": true,
          "internalType": "uint256",
          "name": "skillId",
          "type": "uint256"
        },
        {
          "indexed": false,
          "internalType": "string",
          "name": "name",
          "type": "string"
        },
        {
          "indexed": false,
          "internalType": "string",
          "name": "description",
          "type": "string"
        }
      ],
      "name": "SkillAdded",
      "type": "event"
    },
    {
      "anonymous": false,
      "inputs": [
        {
          "indexed": true,
          "internalType": "address",
          "name": "agent",
          "type": "address"
        },
        {
          "indexed": true,
          "internalType": "uint256",
          "name": "skillId",
          "type": "uint256"
        }
      ],
      "name": "SkillAssigned",
      "type": "event"
    },
    {
      "anonymous": false,
      "inputs": [
        {
          "indexed": false,
          "internalType": "address",
          "name": "account",
          "type": "address"
        }
      ],
      "name": "Unpaused",
      "type": "event"
    },
    {
      "inputs": [],
      "name": "MAX_METADATA_LENGTH",
      "outputs": [
        {
          "internalType": "uint256",
          "name": "",
          "type": "uint256"
        }
      ],
      "stateMutability": "view",
      "type": "function"
    },
    {
      "inputs": [],
      "name": "MAX_SKILLS_PER_AGENT",
      "outputs": [
        {
          "internalType": "uint256",
          "name": "",
          "type": "uint256"
        }
      ],
      "stateMutability": "view",
      "type": "function"
    },
    {
      "inputs": [],
      "name": "MIN_METADATA_LENGTH",
      "outputs": [
        {
          "internalType": "uint256",
          "name": "",
          "type": "uint256"
        }
      ],
      "stateMutability": "view",
      "type": "function"
    },
    {
      "inputs": [],
      "name": "REGISTRATION_FEE",
      "outputs": [
        {
          "internalType": "uint256",
          "name": "",
          "type": "uint256"
        }
      ],
      "stateMutability": "view",
      "type": "function"
    },
    {
      "inputs": [
        {
          "internalType": "string",
          "name": "_name",
          "type": "string"
        },
        {
          "internalType": "string",
          "name": "_description",
          "type": "string"
        }
      ],
      "name": "addSkill",
      "outputs": [],
      "stateMutability": "nonpayable",
      "type": "function"
    },
    {
      "inputs": [
        {
          "internalType": "address",
          "name": "",
          "type": "address"
        }
      ],
      "name": "agents",
      "outputs": [
        {
          "internalType": "address",
          "name": "agentAddress",
          "type": "address"
        },
        {
          "internalType": "string",
          "name": "metadataURI",
          "type": "string"
        },
        {
          "internalType": "uint256",
          "name": "reputationScore",
          "type": "uint256"
        },
        {
          "internalType": "bool",
          "name": "isActive",
          "type": "bool"
        },
        {
          "internalType": "uint256",
          "name": "registeredAt",
          "type": "uint256"
        },
        {
          "internalType": "uint256",
          "name": "lastActive",
          "type": "uint256"
        },
        {
          "internalType": "uint256",
          "name": "covenantsCompleted",
          "type": "uint256"
        },
        {
          "internalType": "uint256",
          "name": "tasksCompleted",
          "type": "uint256"
        },
        {
          "internalType": "uint256",
          "name": "totalEarned",
          "type": "uint256"
        }
      ],
      "stateMutability": "view",
      "type": "function"
    },
    {
      "inputs": [
        {
          "internalType": "uint256",
          "name": "",
          "type": "uint256"
        }
      ],
      "name": "allAgents",
      "outputs": [
        {
          "internalType": "address",
          "name": "",
          "type": "address"
        }
      ],
      "stateMutability": "view",
      "type": "function"
    },
    {
      "inputs": [],
      "name": "deactivate",
      "outputs": [],
      "stateMutability": "nonpayable",
      "type": "function"
    },
    {
      "inputs": [
        {
          "internalType": "uint256",
          "name": "_skillId",
          "type": "uint256"
        }
      ],
      "name": "findAgentsBySkill",
      "outputs": [
        {
          "internalType": "address[]",
          "name": "",
          "type": "address[]"
        }
      ],
      "stateMutability": "view",
      "type": "function"
    },
    {
      "inputs": [
        {
          "internalType": "uint256[]",
          "name": "_skillIds",
          "type": "uint256[]"
        }
      ],
      "name": "findAgentsBySkills",
      "outputs": [
        {
          "internalType": "address[]",
          "name": "",
          "type": "address[]"
        }
      ],
      "stateMutability": "view",
      "type": "function"
    },
    {
      "inputs": [
        {
          "internalType": "address",
          "name": "_agent",
          "type": "address"
        }
      ],
      "name": "getAgent",
      "outputs": [
        {
          "components": [
            {
              "internalType": "address",
              "name": "agentAddress",
              "type": "address"
            },
            {
              "internalType": "string",
              "name": "metadataURI",
              "type": "string"
            },
            {
              "internalType": "uint256[]",
              "name": "skills",
              "type": "uint256[]"
            },
            {
              "internalType": "string[]",
              "name": "skillNames",
              "type": "string[]"
            },
            {
              "internalType": "uint256",
              "name": "reputationScore",
              "type": "uint256"
            },
            {
              "internalType": "bool",
              "name": "isActive",
              "type": "bool"
            },
            {
              "internalType": "uint256",
              "name": "registeredAt",
              "type": "uint256"
            },
            {
              "internalType": "uint256",
              "name": "lastActive",
              "type": "uint256"
            },
            {
              "internalType": "uint256",
              "name": "covenantsCompleted",
              "type": "uint256"
            },
            {
              "internalType": "uint256",
              "name": "tasksCompleted",
              "type": "uint256"
            },
            {
              "internalType": "uint256",
              "name": "totalEarned",
              "type": "uint256"
            }
          ],
          "internalType": "struct AgentRegistry.AgentProfile",
          "name": "",
          "type": "tuple"
        }
      ],
      "stateMutability": "view",
      "type": "function"
    },
    {
      "inputs": [],
      "name": "getAgentCount",
      "outputs": [
        {
          "internalType": "uint256",
          "name": "",
          "type": "uint256"
        }
      ],
      "stateMutability": "view",
      "type": "function"
    },
    {
      "inputs": [
        {
          "internalType": "address",
          "name": "_agent",
          "type": "address"
        }
      ],
      "name": "getAgentSkills",
      "outputs": [
        {
          "internalType": "uint256[]",
          "name": "",
          "type": "uint256[]"
        }
      ],
      "stateMutability": "view",
      "type": "function"
    },
    {
      "inputs": [],
      "name": "getAllSkills",
      "outputs": [
        {
          "components": [
            {
              "internalType": "uint256",
              "name": "id",
              "type": "uint256"
            },
            {
              "internalType": "string",
              "name": "name",
              "type": "string"
            },
            {
              "internalType": "string",
              "name": "description",
              "type": "string"
            },
            {
              "internalType": "uint256",
              "name": "agentCount",
              "type": "uint256"
            }
          ],
          "internalType": "struct AgentRegistry.Skill[]",
          "name": "",
          "type": "tuple[]"
        }
      ],
      "stateMutability": "view",
      "type": "function"
    },
    {
      "inputs": [
        {
          "internalType": "uint256",
          "name": "_limit",
          "type": "uint256"
        },
        {
          "internalType": "uint256",
          "name": "_withinSeconds",
          "type": "uint256"
        }
      ],
      "name": "getRecentlyActive",
      "outputs": [
        {
          "internalType": "address[]",
          "name": "",
          "type": "address[]"
        }
      ],
      "stateMutability": "view",
      "type": "function"
    },
    {
      "inputs": [
        {
          "internalType": "uint256",
          "name": "_limit",
          "type": "uint256"
        }
      ],
      "name": "getTopAgents",
      "outputs": [
        {
          "internalType": "address[]",
          "name": "",
          "type": "address[]"
        }
      ],
      "stateMutability": "view",
      "type": "function"
    },
    {
      "inputs": [
        {
          "internalType": "address",
          "name": "_agent",
          "type": "address"
        }
      ],
      "name": "isRegistered",
      "outputs": [
        {
          "internalType": "bool",
          "name": "",
          "type": "bool"
        }
      ],
      "stateMutability": "view",
      "type": "function"
    },
    {
      "inputs": [],
      "name": "nextSkillId",
      "outputs": [
        {
          "internalType": "uint256",
          "name": "",
          "type": "uint256"
        }
      ],
      "stateMutability": "view",
      "type": "function"
    },
    {
      "inputs": [],
      "name": "owner",
      "outputs": [
        {
          "internalType": "address",
          "name": "",
          "type": "address"
        }
      ],
      "stateMutability": "view",
      "type": "function"
    },
    {
      "inputs": [],
      "name": "pause",
      "outputs": [],
      "stateMutability": "nonpayable",
      "type": "function"
    },
    {
      "inputs": [],
      "name": "paused",
      "outputs": [
        {
          "internalType": "bool",
          "name": "",
          "type": "bool"
        }
      ],
      "stateMutability": "view",
      "type": "function"
    },
    {
      "inputs": [],
      "name": "pauser",
      "outputs": [
        {
          "internalType": "address",
          "name": "",
          "type": "address"
        }
      ],
      "stateMutability": "view",
      "type": "function"
    },
    {
      "inputs": [],
      "name": "reactivate",
      "outputs": [],
      "stateMutability": "nonpayable",
      "type": "function"
    },
    {
      "inputs": [
        {
          "internalType": "address",
          "name": "_agent",
          "type": "address"
        },
        {
          "internalType": "uint256",
          "name": "_covenantsCompleted",
          "type": "uint256"
        },
        {
          "internalType": "uint256",
          "name": "_tasksCompleted",
          "type": "uint256"
        },
        {
          "internalType": "uint256",
          "name": "_totalEarned",
          "type": "uint256"
        }
      ],
      "name": "recordActivity",
      "outputs": [],
      "stateMutability": "nonpayable",
      "type": "function"
    },
    {
      "inputs": [
        {
          "internalType": "string",
          "name": "_metadataURI",
          "type": "string"
        },
        {
          "internalType": "uint256[]",
          "name": "_skillIds",
          "type": "uint256[]"
        }
      ],
      "name": "registerAgent",
      "outputs": [],
      "stateMutability": "payable",
      "type": "function"
    },
    {
      "inputs": [],
      "name": "registrationFee",
      "outputs": [
        {
          "internalType": "uint256",
          "name": "",
          "type": "uint256"
        }
      ],
      "stateMutability": "view",
      "type": "function"
    },
    {
      "inputs": [
        {
          "internalType": "uint256",
          "name": "_newFee",
          "type": "uint256"
        }
      ],
      "name": "setRegistrationFee",
      "outputs": [],
      "stateMutability": "nonpayable",
      "type": "function"
    },
    {
      "inputs": [
        {
          "internalType": "string",
          "name": "",
          "type": "string"
        }
      ],
      "name": "skillNameToId",
      "outputs": [
        {
          "internalType": "uint256",
          "name": "",
          "type": "uint256"
        }
      ],
      "stateMutability": "view",
      "type": "function"
    },
    {
      "inputs": [
        {
          "internalType": "uint256",
          "name": "",
          "type": "uint256"
        },
        {
          "internalType": "uint256",
          "name": "",
          "type": "uint256"
        }
      ],
      "name": "skillToAgents",
      "outputs": [
        {
          "internalType": "address",
          "name": "",
          "type": "address"
        }
      ],
      "stateMutability": "view",
      "type": "function"
    },
    {
      "inputs": [
        {
          "internalType": "uint256",
          "name": "",
          "type": "uint256"
        }
      ],
      "name": "skills",
      "outputs": [
        {
          "internalType": "uint256",
          "name": "id",
          "type": "uint256"
        },
        {
          "internalType": "string",
          "name": "name",
          "type": "string"
        },
        {
          "internalType": "string",
          "name": "description",
          "type": "string"
        },
        {
          "internalType": "uint256",
          "name": "agentCount",
          "type": "uint256"
        }
      ],
      "stateMutability": "view",
      "type": "function"
    },
    {
      "inputs": [],
      "name": "totalAgents",
      "outputs": [
        {
          "internalType": "uint256",
          "name": "",
          "type": "uint256"
        }
      ],
      "stateMutability": "view",
      "type": "function"
    },
    {
      "inputs": [
        {
          "internalType": "address",
          "name": "newPauser",
          "type": "address"
        }
      ],
      "name": "transferPauser",
      "outputs": [],
      "stateMutability": "nonpayable",
      "type": "function"
    },
    {
      "inputs": [],
      "name": "unpause",
      "outputs": [],
      "stateMutability": "nonpayable",
      "type": "function"
    },
    {
      "inputs": [
        {
          "internalType": "string",
          "name": "_metadataURI",
          "type": "string"
        },
        {
          "internalType": "uint256[]",
          "name": "_skillIds",
          "type": "uint256[]"
        }
      ],
      "name": "updateProfile",
      "outputs": [],
      "stateMutability": "nonpayable",
      "type": "function"
    },
    {
      "inputs": [],
      "name": "withdrawFees",
      "outputs": [],
      "stateMutability": "nonpayable",
      "type": "function"
    },
    {
      "stateMutability": "payable",
      "type": "receive"
    }
  ],
  "bytecode": "0x60406080815234620003f35760017f9b779b17422d0df92223018b32b4d1fa46e071723d6817e2486d003becc55f0081905560008054610100600160a81b03191633600881811b610100600160a81b031692909217835560069390935560079190915566038d7ea4c6800060095580546001600160a01b0319169091179055620003e56200008c620003f8565b601a8152620001056020917f536d61727420436f6e747261637420446576656c6f706d656e7400000000000083820152620000c66200042e565b90602782527f57726974696e6720616e64206175646974696e6720536f6c696469747920636f84830152666e74726163747360c81b868301526200049a565b6200017262000113620003f8565b600d81526c4461746120416e616c7973697360981b83820152620001366200042e565b90602482527f4f6e2d636861696e20616e64206f66662d636861696e206461746120616e616c84830152637973697360e01b868301526200049a565b620001da62000180620003f8565b600781526654726164696e6760c81b838201526200019d6200042e565b90602582527f446546692074726164696e6720616e64206172626974726167652073747261748483015264656769657360d81b868301526200049a565b6200024c620001e8620003f8565b601081526f21b7b73a32b73a1021b932b0ba34b7b760811b838201526200020e6200042e565b90602682527f446f63756d656e746174696f6e2c20736f6369616c206d656469612c206d617284830152656b6574696e6760d01b868301526200049a565b620002b16200025a620003f8565b60118152705365637572697479204175646974696e6760781b8382015262000281620003f8565b90601f82527f536d61727420636f6e7472616374207365637572697479207265766965777300848301526200049a565b6200031f620002bf620003f8565b601081526f4d616368696e65204c6561726e696e6760801b83820152620002e56200042e565b90602282527f41492f4d4c206d6f64656c20747261696e696e6720616e6420696e666572656e8483015261636560f01b868301526200049a565b620003796200032d620003f8565b60068152654465764f707360d01b8382015262000349620003f8565b90601d82527f496e66726173747275637475726520616e64206465706c6f796d656e74000000848301526200049a565b62000383620003f8565b601481527f436f6d6d756e697479204d616e6167656d656e74000000000000000000000000828201527f446973636f72642c20666f72756d732c20676f7665726e616e63650000000000620003d7620003f8565b92601b84528301526200049a565b51612b5c9081620008428239f35b600080fd5b60408051919082016001600160401b038111838210176200041857604052565b634e487b7160e01b600052604160045260246000fd5b60405190606082016001600160401b038111838210176200041857604052565b60005b838110620004625750506000910152565b818101518382015260200162000451565b906020916200048e815180928185528580860191016200044e565b601f01601f1916010190565b6006549192919060001982146200082b57600182016006556040805194608086016001600160401b03811187821017620004185782528386526020860183815282870196828852600060608201528560005260026020528360002091815183555197885160018060401b038111620004185760018401549960018b811c9b16801562000820575b60208c101462000723578190601f9b8c8111620007c7575b506020908c8311600114620007505760009262000744575b50508160011b916000199060031b1c19161760018401555b51805190986002840191906001600160401b03821162000418578254600181811c9116801562000739575b60208210146200072357818111620006d9575b506020908211600114620006505792600392826060936200063f9897966000805160206200339e8339815191529c9d9e60009262000644575b50508160011b9160001990871b1c19161790555b01519101558583516020818751620006108183858c016200044e565b810160048152030190205562000630835194848695865285019062000473565b90838203602085015262000473565b0390a2565b015190503880620005e0565b601f1982169a8360005260206000209b60005b818110620006c05750836000805160206200339e8339815191529b9c9d6200063f999897946003979460609760019510620006a7575b505050811b019055620005f4565b015160001983891b60f8161c1916905538808062000699565b838301518e556001909d019c6020938401930162000663565b8360005260206000208280850160051c8201926020861062000719575b0160051c01905b8181106200070c5750620005a7565b60008155600101620006fd565b92508192620006f6565b634e487b7160e01b600052602260045260246000fd5b90607f169062000594565b01519050388062000551565b9250600186016000526020600020906000935b601f1984168510620007ab576001945083601f1981161062000791575b505050811b01600184015562000569565b015160001960f88460031b161c1916905538808062000780565b8181015183556020948501946001909301929091019062000763565b9091506001860160005260206000208c80850160051c8201926020861062000816575b9085949392910160051c01905b81811062000806575062000539565b60008155849350600101620007f7565b92508192620007ea565b9a607f169a62000521565b634e487b7160e01b600052601160045260246000fdfe6080604052600436101561001b575b361561001957600080fd5b005b60003560e01c806308edbd1414611d4d5780631295c6a914611d3157806314c44e0914611d135780633421ebfd14611cb757806334306d2514611c99578063346945fd14611b115780633f4ba83a14611a9b5780634421ea21146119d6578063476343ee1461195f57806350d15fbe146118e657806351b42b00146118715780635c975abb1461184e5780635d3aa8131461172857806364b4f7511461170657806375ae1fef14610ee55780638456cb5914610e5a5780638da5cb5b14610e3157806391cab63e14610aac5780639fd0506d14610e04578063a113938f14610dd3578063b1e29ea414610c4a578063b2bdc75f14610c0e578063b47172da14610bbd578063b6ef504e14610b3a578063c320c72714610b0c578063c3c5a54714610aca578063c505371214610aac578063ccc3bba8146108ed578063d18611d614610818578063d1bca73d146107fc578063d862ae871461051c578063e0bb12f7146104da578063e8868e9f146104bd578063fb3551ff146102585763fd66091e0361000e5734610253576020366003190112610253576001600160a01b03806101c36123f6565b1660005260016020526040600020908154166101e160018301612446565b9160048101549060ff6005820154169060068101546007820154600883015491600a600985015494015494610228604051998a998a526101208060208c01528a01906124ec565b96604089015215156060880152608087015260a086015260c085015260e08401526101008301520390f35b600080fd5b34610253576020366003190112610253576102716123f6565b60006101406040516102828161230b565b82815260606020820152606060408201526060808201528260808201528260a08201528260c08201528260e08201528261010082015282610120820152015260018060a01b031660005260016020526040600020604051906102e38261230b565b80546001600160a01b031682526102fc60018201612446565b602083015261030d60028201612a77565b6040830152600381015461032081612692565b9061032e6040519283612342565b808252602082016003840160005260206000206000915b8383106104a05786600a878760608401526004810154608084015260ff600582015416151560a0840152600681015460c0840152600781015460e08401526008810154610100840152600981015461012084015201546101408201526040516020815260018060a01b0382511660208201526103eb6103d5602084015161016060408501526101808401906124ec565b6040840151838203601f190160608501526125d0565b606083015190601f19838203016080840152815180825260208201916020808360051b8301019401926000915b838310610473578680876101408b608081015160a085015260a0810151151560c085015260c081015160e085015260e08101516101008501526101008101516101208501526101208101518285015201516101608301520390f35b9091929394602080610491600193601f1986820301875289516124ec565b97019301930191939290610418565b6001602081926104af85612446565b815201920192019190610345565b346102535760003660031901126102535760206040516101f48152f35b34610253576020366003190112610253576004356005548110156102535761050360209161256b565b905460405160039290921b1c6001600160a01b03168152f35b34610253576040366003190112610253576001600160401b036004358181116102535761054d9036906004016123b5565b602435828111610253576105659036906004016123b5565b9161057b60018060a01b03600854163314612a3f565b6006549261058884612604565b60065560405161059781612327565b848152602092838201908582526040830190848252606084019260008452886000526002875260406000209451855560019081860190518051908482116107785781906105ee826105e8865461240c565b86612741565b8a90601f83116001146107995760009261078e575b5050600019600383901b1c191690831b1790555b600285019251805192831161077857610634836105e8865461240c565b8790601f84116001146106e4579383806106d498956003956106c79c99957f05991bfaa80c5f743d433bd10462fc1453a7c566aa9c81582e3dbab915dca4ff9e9c996000946106d9575b50501b9160001990861b1c19161790555b5191015586604051838187516106a88183858c016123d3565b81016004815203019020556040519485946040865260408601906124ec565b91848303908501526124ec565b0390a2005b015192508f8061067e565b90601f9392931983169185600052896000209260005b8181106107635750936106c79a97937f05991bfaa80c5f743d433bd10462fc1453a7c566aa9c81582e3dbab915dca4ff9c9a97936106d49a9793836003981061074b575b505050811b01905561068f565b015160001983881b60f8161c191690558d808061073e565b82840151855593860193928b01928b016106fa565b634e487b7160e01b600052604160045260246000fd5b015190508c80610603565b60008581528c8120879550929190601f198516908e5b8282106107e557505084116107cc575b505050811b019055610617565b015160001960f88460031b161c191690558c80806107bf565b83850151865589979095019493840193018e6107af565b3461025357600036600319011261025357602060405160148152f35b34610253576000366003190112610253573360009081526001602052604090205461084d906001600160a01b03161515612816565b33600052600160205260ff600560406000200154166108b757336000526001602052604060002060058101600160ff198254161790556007429101556040514281527f72fa502a711d31da2101a8152ede15f4f332c7bef579c13ca9f8ef603a4480e660203392a2005b60405162461bcd60e51b815260206004820152600e60248201526d416c72656164792061637469766560901b6044820152606490fd5b346102535760003660031901126102535760065460001980820190828211610a645761091882612692565b916109266040519384612342565b808352610935601f1991612692565b0160005b818110610a7a575050600192835b8181106109ea578385604051918291602090818401828552835180915260408501928060408360051b8801019501936000905b8382106109875787870388f35b918496819592949698508190603f198b8203018552895190815181526109ce6109bc84840151608080878601528401906124ec565b604084015183820360408501526124ec565b916060809101519101529801920192018796959391949261097a565b80600052600290602082815260406000209085830190838211610a64576003610a5993610a3c610a5f978c94610a3160405196610a2688612327565b855488528501612446565b908601528201612446565b604084015201546060820152610a5282896126f3565b52866126f3565b50612604565b610947565b634e487b7160e01b600052601160045260246000fd5b602090604051610a8981612327565b600081526060600084918083850152806040850152830152828701015201610939565b34610253576000366003190112610253576020600754604051908152f35b34610253576020366003190112610253576001600160a01b03610aeb6123f6565b166000526001602052602060ff600560406000200154166040519015158152f35b3461025357602036600319011261025357610b3260018060a01b03600854163314612a3f565b600435600955005b34610253576020806003193601126102535760043560005260038152604060002090604051908181845491828152019360005281600020916000905b828210610b9d57610b9985610b8d81890382612342565b60405191829182612527565b0390f35b83546001600160a01b031686529485019460019384019390910190610b76565b34610253576020366003190112610253576001600160a01b03610bde6123f6565b166000526001602052610b99610bfa6002604060002001612a77565b6040519182916020835260208301906125d0565b34610253576020366003190112610253576004356001600160401b03811161025357610b8d610c44610b99923690600401612279565b90612892565b34610253576020806003193601126102535760055460043581811115610dcd575080915b610c7782612860565b9160005b818110610d9f57505060005b8251811015610d4e576001808201808311610a6457815b610cb3575b5050610cae90612604565b610c87565b8451811015610d49578190610d0d906001600160a01b0380610cd5838a6126f3565b511660005283875260046040600020015481610cf1888b6126f3565b511660005284885260046040600020015410610d135750612604565b90610c9e565b80610d1e878a6126f3565b511690610d2b838a6126f3565b5116610d37878a6126f3565b52610d4282896126f3565b5288610a59565b610ca3565b8284610d5981612860565b9160005b828110610d725760405180610b998682612527565b610d9a906001600160a01b03610d8882856126f3565b5116610d9482876126f3565b52612604565b610d5d565b80610dac610dc89261256b565b905460039190911b1c6001600160a01b0316610d9482876126f3565b610c7b565b91610c6e565b3461025357610de136612511565b9060005260036020526040600020805482101561025357602091610503916125b8565b346102535760003660031901126102535760005460405160089190911c6001600160a01b03168152602090f35b34610253576000366003190112610253576008546040516001600160a01b039091168152602090f35b3461025357600036600319011261025357600054600881901c6001600160a01b03163303610ed35760ff8116610ec15760019060ff1916176000557f62e78cea01bee320cd4e420270b5ea74000d11b0c9f74754ebdbfc544b05a2586020604051338152a1005b60405163ab35696f60e01b8152600490fd5b60405163492f678160e01b8152600490fd5b610eee366122a9565b9060ff60009493945416610ec15760027f9b779b17422d0df92223018b32b4d1fa46e071723d6817e2486d003becc55f0054146116f45760027f9b779b17422d0df92223018b32b4d1fa46e071723d6817e2486d003becc55f005560005b8281106116ae575033600052600160205260ff600560406000200154166116745766038d7ea4c6800080341061163c5782156115f757601483116115c057600a8510611586576101f4851161154d5734116114f0575b610fab826126a9565b60005b83811061145f575060405190610fc38261230b565b338252610fd136878761237e565b6020830152610fdf84612692565b610fec6040519182612342565b84815260208101368660051b8601116102535784905b8660051b8601821061144f5750506040830152606082015260006080820152600160a08201524260c08201524260e082015260006101008201526000610120820152600061014082015233600052600160205260406000209060018060a01b038151166bffffffffffffffffffffffff60a01b83541617825560208101518051906001600160401b0382116107785781906110ad826110a4600188015461240c565b60018801612741565b602090601f83116001146113dd576000926113d2575b50508160011b916000199060031b1c19161760018301555b60408101518051906001600160401b03821161077857602060028501916111028484612786565b0190600052602060002060005b8381106113be57505050506060810151805190600160401b8211610778576003840154826003860155808310611346575b5060200190600384016000526020600020916000905b8282106112635750505050610140816080600a93015160048501556005840160a0820151151560ff8019835416911617905560c0810151600685015560e08101516007850155610100810151600885015561012081015160098501550151910155600554600160401b811015610778577fdf1275f67e995789184a7a608f6c1b71953a305670459d1bb1f05956db47c05d9361121c6111fe83600161123a950160055561256b565b81546001600160a01b0360039290921b91821b19163390911b179055565b611227600754612604565b60075560405193849333974293866127ba565b0390a260017f9b779b17422d0df92223018b32b4d1fa46e071723d6817e2486d003becc55f0055005b80518051906001600160401b0382116107785761128a82611284885461240c565b88612741565b602090601f83116001146112d65792826001949360209386956000926112cb575b5050600019600383901b1c191690841b1787555b01940191019092611156565b015190508f806112ab565b908660005260206000209160005b601f198516811061132e575083602093600196938796938794601f19811610611315575b505050811b0187556112bf565b015160001960f88460031b161c191690558f8080611308565b919260206001819286850151815501940192016112e4565b600385016000526020600020908382015b8183018110611367575050611140565b806113746001925461240c565b80611381575b5001611357565b601f811183146113975750600081555b8c61137a565b6000908282526113b5601f60208420920160051c820185830161272a565b81835555611391565b60019060208451940193818401550161110f565b0151905088806110c3565b9250600185016000526020600020906000935b601f1984168510611434576001945083601f1981161061141b575b505050811b0160018301556110db565b015160001960f88460031b161c1916905588808061140b565b818101518355602094850194600190930192909101906113f0565b8135815260209182019101611002565b8061146e6114eb928686612613565b3560005260026020526114876001604060002001612446565b61149182856126f3565b5261149c81846126f3565b506114a8818686612613565b356000526003806020526114c0336040600020612707565b6114cb828787612613565b3560005260026020526040600020016114e48154612604565b9055612604565b610fae565b66038d7ea4c67fff193401348111610a6457600080808093335af1611513612662565b50610fa25760405162461bcd60e51b815260206004820152600d60248201526c1499599d5b990819985a5b1959609a1b6044820152606490fd5b60405162461bcd60e51b81526020600482015260116024820152704d6574616461746120746f6f206c6f6e6760781b6044820152606490fd5b60405162461bcd60e51b815260206004820152601260248201527113595d1859185d18481d1bdbc81cda1bdc9d60721b6044820152606490fd5b60405162461bcd60e51b815260206004820152600f60248201526e546f6f206d616e7920736b696c6c7360881b6044820152606490fd5b60405162461bcd60e51b815260206004820152601c60248201527f4d7573742068617665206174206c65617374206f6e6520736b696c6c000000006044820152606490fd5b60405162461bcd60e51b815260206004820152601060248201526f496e73756666696369656e742066656560801b6044820152606490fd5b60405162461bcd60e51b8152602060048201526012602482015271105b1c9958591e481c9959da5cdd195c995960721b6044820152606490fd5b806116bd6116d4928585612613565b351515806116d9575b6116cf90612623565b612604565b610f4c565b506116cf6116e8828686612613565b356006541190506116c6565b604051633ee5aeb560e01b8152600490fd5b3461025357600036600319011261025357602060405166038d7ea4c680008152f35b346102535761173636612511565b60059182549061174582612860565b93600093420390428211610a645760005b8481106117a0575b505050505061176c81612860565b9160005b8281106117855760405180610b998682612527565b61179b906001600160a01b03610d8882856126f3565b611770565b6117a98161256b565b60018060a01b03809254600392831b1c16600052600160209080825260ff8660406000200154169182611823575b50506117ee575b50506117e990612604565b611756565b908297916117fe61180e9461256b565b9054911b1c16610d94828a6126f3565b948386101561181e5787806117de565b61175e565b909150836118308661256b565b905490851b1c16600052528460076040600020015410158a806117d7565b3461025357600036600319011261025357602060ff600054166040519015158152f35b346102535760003660031901126102535733600052600160205261189f60ff60056040600020015416612816565b336000526001602052600560406000200160ff1981541690556040514281527f0908d0024a3278cb165ed9b5e370dfd4b2c566122efebb355afb5b56e224915860203392a2005b346102535760203660031901126102535760043560005260026020526040600020805461191560018301612446565b91611955600361192760028401612446565b9201549161194760405195869586526080602087015260808601906124ec565b9084820360408601526124ec565b9060608301520390f35b3461025357600036600319011261025357600080808060018060a01b036008541661198b813314612a3f565b47905af1611997612662565b501561199f57005b60405162461bcd60e51b815260206004820152600f60248201526e15da5d1a191c985dc819985a5b1959608a1b6044820152606490fd5b34610253576020366003190112610253576119ef6123f6565b6000546001600160a01b03600882901c8116919033839003610ed3578316928315611a5d57610100600160a81b031990911660089190911b610100600160a81b03161760009081557f51c4874e0f23f262e04a38c51751336dde72126d67f53eb672aaff02996b3ef69080a3005b60405162461bcd60e51b8152602060048201526016602482015275496e76616c696420706175736572206164647265737360501b6044820152606490fd5b3461025357600036600319011261025357600054600881901c6001600160a01b03163303610ed35760ff811615611aff5760ff19166000557f5db9ee0a495bf2e6ff9c91a7834c1ba4fdd244a5e8aa4e537bd38aeae4b073aa6020604051338152a1005b60405163dcdde9dd60e01b8152600490fd5b34610253576080366003190112610253576001600160a01b03611b326123f6565b168015611c5c5780600052600160205260ff6005604060002001541615611c245780600052600160205260406000206008810190611b736024358354612853565b8092556009810191611b886044358454612853565b809355600a8201611b9c6064358254612853565b809155426007840155600a820293828504600a1483151715610a6457600581029381850460051482151715610a64576004611c0e611bfd6060977fac3c2beb7724a927c9efcb9aa36d9cc3215467ad97652337ec58c5527ba70e5399612853565b670de0b6b3a7640000860490612853565b91015560405192835260208301526040820152a2005b60405162461bcd60e51b815260206004820152601060248201526f4167656e74206e6f742061637469766560801b6044820152606490fd5b60405162461bcd60e51b8152602060048201526015602482015274496e76616c6964206167656e74206164647265737360581b6044820152606490fd5b34610253576000366003190112610253576020600654604051908152f35b34610253576020366003190112610253576004356001600160401b03811161025357611d006020611ced819336906004016123b5565b81604051938285809451938492016123d3565b8101600481520301902054604051908152f35b34610253576000366003190112610253576020600954604051908152f35b34610253576000366003190112610253576020604051600a8152f35b3461025357611d5b366122a9565b9190336000526001602052611d7a60ff60056040600020015416612816565b60005b83811061223e5750336000526001602052604060002060009460028201905b8154871015611ede57611daf87836125b8565b90549060031b1c9485600052600360205260406000209660005b885480821015611eca57611ddd828b6125b8565b90546001600160a01b03929160031b1c82163314611e05575050611e0090612604565b611dc9565b9092969a949893979599916000198201918211610a6457611e3c84611e2d611e5b94866125b8565b90549060031b1c1691846125b8565b90919082549060031b9160018060a01b03809116831b921b1916179055565b80548015611eb4576000190191611e7283836125b8565b909182549160031b1b191690555560005260026020526003604060002001908154918215610a6457611ea992600019019055612604565b959194909293611d9c565b634e487b7160e01b600052603160045260246000fd5b505093979094929650611ea9919550612604565b94929190611eeb846126a9565b9060005b8581106121cd57506001600160401b0386116107785760018301611f1d87611f17835461240c565b83612741565b866000601f82116001146121665760009161215b575b508760011b906000198960031b1c19161790555b6001600160401b03851161077857611f5f8582612786565b839060005260206000209060005b86811061214757505050805190600160401b82116107785760038301548260038501558083106120cf575b5060200190600383016000526020600020916000905b828210611ff457877f4343b17cbad9b3255be7285fe10f12ee275fa867fad18ab3297ac8456cc99f7c88886106d48d8a60074291015560405193849333974293866127ba565b80518051906001600160401b0382116107785761201582611284885461240c565b602090601f8311600114612061579282600194936020938695600092612056575b5050600019600383901b1c191690841b1787555b01940191019092611fae565b015190508e80612036565b90601f198316918760005260206000209260005b8181106120b7575093602093600196938796938388951061209e575b505050811b01875561204a565b015160001960f88460031b161c191690558e8080612091565b92936020600181928786015181550195019301612075565b600384016000526020600020908382015b81830181106120f0575050611f98565b806120fd6001925461240c565b8061210a575b50016120e0565b601f811183146121205750600081555b8b612103565b60009082825261213e601f60208420920160051c820185830161272a565b8183555561211a565b600190602083359301928185015501611f6d565b905088013589611f33565b60008381526020812092505b8a601f198b1682106121b557505088601f1981161061219b575b5050600187811b019055611f47565b89013560001960038a901b60f8161c19169055888061218c565b60018394602093948493013581550193019101612172565b806121dc612239928888612613565b3560005260026020526121f56001604060002001612446565b6121ff82866126f3565b5261220a81856126f3565b50612216818888612613565b3560005260038060205261222e336040600020612707565b6114cb828989612613565b611eef565b80612250612261928685989695612613565b3515158061226a576116cf90612623565b93909193611d7d565b506116cf6116e8828789612613565b9181601f84011215610253578235916001600160401b038311610253576020808501948460051b01011161025357565b604060031982011261025357600435916001600160401b038084116102535782602385011215610253578360040135938185116102535783602486830101116102535760240193926024359182116102535761230791600401612279565b9091565b61016081019081106001600160401b0382111761077857604052565b608081019081106001600160401b0382111761077857604052565b90601f801991011681019081106001600160401b0382111761077857604052565b6001600160401b03811161077857601f01601f191660200190565b92919261238a82612363565b916123986040519384612342565b829481845281830111610253578281602093846000960137010152565b9080601f83011215610253578160206123d09335910161237e565b90565b60005b8381106123e65750506000910152565b81810151838201526020016123d6565b600435906001600160a01b038216820361025357565b90600182811c9216801561243c575b602083101461242657565b634e487b7160e01b600052602260045260246000fd5b91607f169161241b565b906040519182600082549261245a8461240c565b9081845260019485811690816000146124c95750600114612486575b505061248492500383612342565b565b9093915060005260209081600020936000915b8183106124b157505061248493508201013880612476565b85548884018501529485019487945091830191612499565b91505061248494506020925060ff191682840152151560051b8201013880612476565b90602091612505815180928185528580860191016123d3565b601f01601f1916010190565b6040906003190112610253576004359060243590565b6020908160408183019282815285518094520193019160005b82811061254e575050505090565b83516001600160a01b031685529381019392810192600101612540565b6005548110156125a25760056000527f036b6384b5eca791c62761152d0c79bb0604c104a5fb6f4eb0703f3154bb3db00190600090565b634e487b7160e01b600052603260045260246000fd5b80548210156125a25760005260206000200190600090565b90815180825260208080930193019160005b8281106125f0575050505090565b8351855293810193928101926001016125e2565b6000198114610a645760010190565b91908110156125a25760051b0190565b1561262a57565b60405162461bcd60e51b815260206004820152601060248201526f125b9d985b1a59081cdada5b1b08125160821b6044820152606490fd5b3d1561268d573d9061267382612363565b916126816040519384612342565b82523d6000602084013e565b606090565b6001600160401b0381116107785760051b60200190565b906126b382612692565b6126c06040519182612342565b82815280926126d1601f1991612692565b019060005b8281106126e257505050565b8060606020809385010152016126d6565b80518210156125a25760209160051b010190565b90815491600160401b8310156107785782611e3c916001612484950181556125b8565b818110612735575050565b6000815560010161272a565b9190601f811161275057505050565b612484926000526020600020906020601f840160051c8301931061277c575b601f0160051c019061272a565b909150819061276f565b90600160401b8111610778578154908083558181106127a457505050565b612484926000526020600020918201910161272a565b959493918091606088528160608901526080880137600060808288010152601f8019910116850191608086840301602087015281608084015260018060fb1b0382116102535760409260a09260051b8092848301370101930152565b1561281d57565b60405162461bcd60e51b815260206004820152600e60248201526d139bdd081c9959da5cdd195c995960921b6044820152606490fd5b91908201809211610a6457565b9061286a82612692565b6128776040519182612342565b8281528092612888601f1991612692565b0190602036910137565b91908015612a14576000928035845260209360038552604092838220908451808389829554938481520190865289862092865b8b8282106129f5575050506128dc92500383612342565b6128e68251612860565b928094815b84518110156129ad576001600160a01b038061290783886126f3565b511684526001808c5260ff60058b8720015416156129a257805b868110612964575b5061293e575b5061293990612604565b6128eb565b819761295d9161295161293994896126f3565b5116610d94828a6126f3565b969061292f565b61298683612972868b6126f3565b511661297f838a89612613565b3590612ac6565b156129995761299490612604565b612921565b50508338612929565b505061293990612604565b50509450505093506129be81612860565b915b8181106129ce575090925050565b6129f0906001600160a01b036129e482886126f3565b5116610d9482866126f3565b6129c0565b85546001600160a01b03168452600195860195889550930192016128c5565b509050604051602081018181106001600160401b038211176107785760405260008152600036813790565b15612a4657565b60405162461bcd60e51b81526020600482015260096024820152682737ba1037bbb732b960b91b6044820152606490fd5b9060405191828154918282526020928383019160005283600020936000905b828210612aac5750505061248492500383612342565b855484526001958601958895509381019390910190612a96565b6001600160a01b03166000908152600160208190526040822060020180549391925b848110612af9575050505050600090565b82612b0482846125b8565b90549060031b1c14612b1e57612b1990612604565b612ae8565b50505090509056fea2646970667358221220ef9c40d97b19a4b3cd60fd6c7060a4eecc0d7c7f3961f988d3448ebbdb9f9c8864736f6c6343000814003305991bfaa80c5f743d433bd10462fc1453a7c566aa9c81582e3dbab915dca4ff",
  "linkReferences": {},
  "deployedLinkReferences": {}
}