{
  "_format": "hh-sol-artifact-1",
  "contractName": "DisputeDAO",
  "sourceName": "contracts/core/DisputeDAO.sol",
  "abi": [
    {
      "inputs": [
        {
          "internalType": "address",
          "name": "_stakingToken",
          "type": "address"
        },
        {
          "internalType": "address",
          "name": "_reputationStake",
          "type": "address"
        }
      ],
      "stateMutability": "nonpayable",
      "type": "constructor"
    },
    {
      "inputs": [],
      "name": "ReentrancyGuardReentrantCall",
      "type": "error"
    },
    {
      "anonymous": false,
      "inputs": [
        {
          "indexed": true,
          "internalType": "uint256",
          "name": "disputeId",
          "type": "uint256"
        },
        {
          "indexed": false,
          "internalType": "uint256",
          "name": "appealCount",
          "type": "uint256"
        }
      ],
      "name": "AppealFiled",
      "type": "event"
    },
    {
      "anonymous": false,
      "inputs": [
        {
          "indexed": true,
          "internalType": "uint256",
          "name": "disputeId",
          "type": "uint256"
        },
        {
          "indexed": true,
          "internalType": "address",
          "name": "covenant",
          "type": "address"
        },
        {
          "indexed": true,
          "internalType": "address",
          "name": "initiator",
          "type": "address"
        },
        {
          "indexed": false,
          "internalType": "uint256",
          "name": "stakeAmount",
          "type": "uint256"
        }
      ],
      "name": "DisputeCreated",
      "type": "event"
    },
    {
      "anonymous": false,
      "inputs": [
        {
          "indexed": true,
          "internalType": "uint256",
          "name": "disputeId",
          "type": "uint256"
        },
        {
          "indexed": false,
          "internalType": "uint256",
          "name": "initiatorAward",
          "type": "uint256"
        },
        {
          "indexed": false,
          "internalType": "uint256",
          "name": "counterpartyAward",
          "type": "uint256"
        },
        {
          "indexed": false,
          "internalType": "uint256",
          "name": "totalVotingPower",
          "type": "uint256"
        }
      ],
      "name": "DisputeResolved",
      "type": "event"
    },
    {
      "anonymous": false,
      "inputs": [
        {
          "indexed": true,
          "internalType": "uint256",
          "name": "disputeId",
          "type": "uint256"
        },
        {
          "indexed": true,
          "internalType": "address",
          "name": "by",
          "type": "address"
        },
        {
          "indexed": false,
          "internalType": "string",
          "name": "ipfsHash",
          "type": "string"
        }
      ],
      "name": "EvidenceSubmitted",
      "type": "event"
    },
    {
      "anonymous": false,
      "inputs": [
        {
          "indexed": true,
          "internalType": "uint256",
          "name": "disputeId",
          "type": "uint256"
        },
        {
          "indexed": true,
          "internalType": "address",
          "name": "juror",
          "type": "address"
        },
        {
          "indexed": false,
          "internalType": "uint256",
          "name": "amount",
          "type": "uint256"
        },
        {
          "indexed": false,
          "internalType": "string",
          "name": "reason",
          "type": "string"
        }
      ],
      "name": "JurorPenalized",
      "type": "event"
    },
    {
      "anonymous": false,
      "inputs": [
        {
          "indexed": true,
          "internalType": "uint256",
          "name": "disputeId",
          "type": "uint256"
        },
        {
          "indexed": true,
          "internalType": "address",
          "name": "juror",
          "type": "address"
        },
        {
          "indexed": false,
          "internalType": "uint256",
          "name": "amount",
          "type": "uint256"
        }
      ],
      "name": "JurorRewarded",
      "type": "event"
    },
    {
      "anonymous": false,
      "inputs": [
        {
          "indexed": true,
          "internalType": "uint256",
          "name": "disputeId",
          "type": "uint256"
        },
        {
          "indexed": true,
          "internalType": "address",
          "name": "juror",
          "type": "address"
        }
      ],
      "name": "JurorSelected",
      "type": "event"
    },
    {
      "anonymous": false,
      "inputs": [
        {
          "indexed": true,
          "internalType": "uint256",
          "name": "disputeId",
          "type": "uint256"
        },
        {
          "indexed": true,
          "internalType": "address",
          "name": "juror",
          "type": "address"
        }
      ],
      "name": "VoteCommitted",
      "type": "event"
    },
    {
      "anonymous": false,
      "inputs": [
        {
          "indexed": true,
          "internalType": "uint256",
          "name": "disputeId",
          "type": "uint256"
        },
        {
          "indexed": true,
          "internalType": "address",
          "name": "juror",
          "type": "address"
        },
        {
          "indexed": false,
          "internalType": "enum DisputeDAO.VoteOption",
          "name": "vote",
          "type": "uint8"
        }
      ],
      "name": "VoteRevealed",
      "type": "event"
    },
    {
      "inputs": [
        {
          "internalType": "uint256",
          "name": "_disputeId",
          "type": "uint256"
        }
      ],
      "name": "advanceToCommitPhase",
      "outputs": [],
      "stateMutability": "nonpayable",
      "type": "function"
    },
    {
      "inputs": [],
      "name": "appealPeriod",
      "outputs": [
        {
          "internalType": "uint256",
          "name": "",
          "type": "uint256"
        }
      ],
      "stateMutability": "view",
      "type": "function"
    },
    {
      "inputs": [],
      "name": "commitPeriod",
      "outputs": [
        {
          "internalType": "uint256",
          "name": "",
          "type": "uint256"
        }
      ],
      "stateMutability": "view",
      "type": "function"
    },
    {
      "inputs": [
        {
          "internalType": "uint256",
          "name": "_disputeId",
          "type": "uint256"
        },
        {
          "internalType": "bytes32",
          "name": "_commitHash",
          "type": "bytes32"
        }
      ],
      "name": "commitVote",
      "outputs": [],
      "stateMutability": "nonpayable",
      "type": "function"
    },
    {
      "inputs": [
        {
          "internalType": "address",
          "name": "_covenant",
          "type": "address"
        },
        {
          "internalType": "string",
          "name": "_reason",
          "type": "string"
        },
        {
          "internalType": "string",
          "name": "_evidenceIPFS",
          "type": "string"
        }
      ],
      "name": "createDispute",
      "outputs": [
        {
          "internalType": "uint256",
          "name": "disputeId",
          "type": "uint256"
        }
      ],
      "stateMutability": "payable",
      "type": "function"
    },
    {
      "inputs": [],
      "name": "disputeFee",
      "outputs": [
        {
          "internalType": "uint256",
          "name": "",
          "type": "uint256"
        }
      ],
      "stateMutability": "view",
      "type": "function"
    },
    {
      "inputs": [
        {
          "internalType": "uint256",
          "name": "",
          "type": "uint256"
        }
      ],
      "name": "disputes",
      "outputs": [
        {
          "internalType": "uint256",
          "name": "id",
          "type": "uint256"
        },
        {
          "internalType": "address",
          "name": "covenant",
          "type": "address"
        },
        {
          "internalType": "address",
          "name": "initiator",
          "type": "address"
        },
        {
          "internalType": "address",
          "name": "counterparty",
          "type": "address"
        },
        {
          "internalType": "uint256",
          "name": "stakeAmount",
          "type": "uint256"
        },
        {
          "internalType": "string",
          "name": "reason",
          "type": "string"
        },
        {
          "internalType": "string",
          "name": "evidenceIPFS",
          "type": "string"
        },
        {
          "internalType": "enum DisputeDAO.DisputeStatus",
          "name": "status",
          "type": "uint8"
        },
        {
          "internalType": "uint256",
          "name": "createdAt",
          "type": "uint256"
        },
        {
          "internalType": "uint256",
          "name": "evidenceEndTime",
          "type": "uint256"
        },
        {
          "internalType": "uint256",
          "name": "commitEndTime",
          "type": "uint256"
        },
        {
          "internalType": "uint256",
          "name": "revealEndTime",
          "type": "uint256"
        },
        {
          "internalType": "uint256",
          "name": "resolutionTime",
          "type": "uint256"
        },
        {
          "internalType": "uint256",
          "name": "initiatorAward",
          "type": "uint256"
        },
        {
          "internalType": "uint256",
          "name": "counterpartyAward",
          "type": "uint256"
        },
        {
          "internalType": "uint256",
          "name": "totalReputationVoted",
          "type": "uint256"
        },
        {
          "internalType": "bool",
          "name": "appealed",
          "type": "bool"
        },
        {
          "internalType": "uint256",
          "name": "appealCount",
          "type": "uint256"
        }
      ],
      "stateMutability": "view",
      "type": "function"
    },
    {
      "inputs": [],
      "name": "evidencePeriod",
      "outputs": [
        {
          "internalType": "uint256",
          "name": "",
          "type": "uint256"
        }
      ],
      "stateMutability": "view",
      "type": "function"
    },
    {
      "inputs": [
        {
          "internalType": "uint256",
          "name": "_disputeId",
          "type": "uint256"
        }
      ],
      "name": "executeResolution",
      "outputs": [],
      "stateMutability": "nonpayable",
      "type": "function"
    },
    {
      "inputs": [
        {
          "internalType": "uint256",
          "name": "_disputeId",
          "type": "uint256"
        },
        {
          "internalType": "string",
          "name": "_reason",
          "type": "string"
        }
      ],
      "name": "fileAppeal",
      "outputs": [],
      "stateMutability": "payable",
      "type": "function"
    },
    {
      "inputs": [
        {
          "internalType": "uint256",
          "name": "_disputeId",
          "type": "uint256"
        }
      ],
      "name": "getDispute",
      "outputs": [
        {
          "internalType": "address",
          "name": "covenant",
          "type": "address"
        },
        {
          "internalType": "enum DisputeDAO.DisputeStatus",
          "name": "status",
          "type": "uint8"
        },
        {
          "internalType": "uint256",
          "name": "stakeAmount",
          "type": "uint256"
        },
        {
          "internalType": "uint256",
          "name": "selectedJurorCount",
          "type": "uint256"
        },
        {
          "internalType": "bool",
          "name": "canAppeal",
          "type": "bool"
        }
      ],
      "stateMutability": "view",
      "type": "function"
    },
    {
      "inputs": [
        {
          "internalType": "uint256",
          "name": "_disputeId",
          "type": "uint256"
        }
      ],
      "name": "getJurors",
      "outputs": [
        {
          "internalType": "address[]",
          "name": "",
          "type": "address[]"
        }
      ],
      "stateMutability": "view",
      "type": "function"
    },
    {
      "inputs": [
        {
          "internalType": "uint256",
          "name": "_disputeId",
          "type": "uint256"
        },
        {
          "internalType": "address",
          "name": "_juror",
          "type": "address"
        }
      ],
      "name": "hasCommitted",
      "outputs": [
        {
          "internalType": "bool",
          "name": "",
          "type": "bool"
        }
      ],
      "stateMutability": "view",
      "type": "function"
    },
    {
      "inputs": [
        {
          "internalType": "uint256",
          "name": "_disputeId",
          "type": "uint256"
        },
        {
          "internalType": "address",
          "name": "_juror",
          "type": "address"
        }
      ],
      "name": "hasRevealed",
      "outputs": [
        {
          "internalType": "bool",
          "name": "",
          "type": "bool"
        }
      ],
      "stateMutability": "view",
      "type": "function"
    },
    {
      "inputs": [
        {
          "internalType": "address",
          "name": "",
          "type": "address"
        },
        {
          "internalType": "uint256",
          "name": "",
          "type": "uint256"
        }
      ],
      "name": "jurorCases",
      "outputs": [
        {
          "internalType": "uint256",
          "name": "",
          "type": "uint256"
        }
      ],
      "stateMutability": "view",
      "type": "function"
    },
    {
      "inputs": [],
      "name": "jurorCount",
      "outputs": [
        {
          "internalType": "uint256",
          "name": "",
          "type": "uint256"
        }
      ],
      "stateMutability": "view",
      "type": "function"
    },
    {
      "inputs": [],
      "name": "jurorRewardRate",
      "outputs": [
        {
          "internalType": "uint256",
          "name": "",
          "type": "uint256"
        }
      ],
      "stateMutability": "view",
      "type": "function"
    },
    {
      "inputs": [
        {
          "internalType": "address",
          "name": "",
          "type": "address"
        }
      ],
      "name": "jurors",
      "outputs": [
        {
          "internalType": "bool",
          "name": "isActive",
          "type": "bool"
        },
        {
          "internalType": "uint256",
          "name": "totalCases",
          "type": "uint256"
        },
        {
          "internalType": "uint256",
          "name": "correctVotes",
          "type": "uint256"
        },
        {
          "internalType": "uint256",
          "name": "reputation",
          "type": "uint256"
        },
        {
          "internalType": "uint256",
          "name": "stakedAmount",
          "type": "uint256"
        },
        {
          "internalType": "uint256",
          "name": "rewardsEarned",
          "type": "uint256"
        },
        {
          "internalType": "uint256",
          "name": "lastActivity",
          "type": "uint256"
        }
      ],
      "stateMutability": "view",
      "type": "function"
    },
    {
      "inputs": [],
      "name": "minJurorStake",
      "outputs": [
        {
          "internalType": "uint256",
          "name": "",
          "type": "uint256"
        }
      ],
      "stateMutability": "view",
      "type": "function"
    },
    {
      "inputs": [],
      "name": "minReputationToServe",
      "outputs": [
        {
          "internalType": "uint256",
          "name": "",
          "type": "uint256"
        }
      ],
      "stateMutability": "view",
      "type": "function"
    },
    {
      "inputs": [],
      "name": "missedVotePenalty",
      "outputs": [
        {
          "internalType": "uint256",
          "name": "",
          "type": "uint256"
        }
      ],
      "stateMutability": "view",
      "type": "function"
    },
    {
      "inputs": [],
      "name": "nextDisputeId",
      "outputs": [
        {
          "internalType": "uint256",
          "name": "",
          "type": "uint256"
        }
      ],
      "stateMutability": "view",
      "type": "function"
    },
    {
      "inputs": [
        {
          "internalType": "uint256",
          "name": "_stakeAmount",
          "type": "uint256"
        }
      ],
      "name": "registerAsJuror",
      "outputs": [],
      "stateMutability": "nonpayable",
      "type": "function"
    },
    {
      "inputs": [
        {
          "internalType": "uint256",
          "name": "",
          "type": "uint256"
        }
      ],
      "name": "registeredJurors",
      "outputs": [
        {
          "internalType": "address",
          "name": "",
          "type": "address"
        }
      ],
      "stateMutability": "view",
      "type": "function"
    },
    {
      "inputs": [],
      "name": "reputationStake",
      "outputs": [
        {
          "internalType": "contract IReputationStake",
          "name": "",
          "type": "address"
        }
      ],
      "stateMutability": "view",
      "type": "function"
    },
    {
      "inputs": [
        {
          "internalType": "uint256",
          "name": "_disputeId",
          "type": "uint256"
        }
      ],
      "name": "resolveDispute",
      "outputs": [],
      "stateMutability": "nonpayable",
      "type": "function"
    },
    {
      "inputs": [],
      "name": "revealPeriod",
      "outputs": [
        {
          "internalType": "uint256",
          "name": "",
          "type": "uint256"
        }
      ],
      "stateMutability": "view",
      "type": "function"
    },
    {
      "inputs": [
        {
          "internalType": "uint256",
          "name": "_disputeId",
          "type": "uint256"
        },
        {
          "internalType": "enum DisputeDAO.VoteOption",
          "name": "_vote",
          "type": "uint8"
        },
        {
          "internalType": "uint256",
          "name": "_salt",
          "type": "uint256"
        }
      ],
      "name": "revealVote",
      "outputs": [],
      "stateMutability": "nonpayable",
      "type": "function"
    },
    {
      "inputs": [],
      "name": "stakingToken",
      "outputs": [
        {
          "internalType": "contract IERC20",
          "name": "",
          "type": "address"
        }
      ],
      "stateMutability": "view",
      "type": "function"
    },
    {
      "inputs": [
        {
          "internalType": "uint256",
          "name": "_disputeId",
          "type": "uint256"
        },
        {
          "internalType": "string",
          "name": "_evidenceIPFS",
          "type": "string"
        }
      ],
      "name": "submitEvidence",
      "outputs": [],
      "stateMutability": "nonpayable",
      "type": "function"
    },
    {
      "inputs": [],
      "name": "unstakeAsJuror",
      "outputs": [],
      "stateMutability": "nonpayable",
      "type": "function"
    },
    {
      "inputs": [],
      "name": "wrongVotePenalty",
      "outputs": [
        {
          "internalType": "uint256",
          "name": "",
          "type": "uint256"
        }
      ],
      "stateMutability": "view",
      "type": "function"
    }
  ],
  "bytecode": "0x6080346200010357601f62002ab238819003918201601f19168301916001600160401b038311848410176200010857808492604094855283398101031262000103576200005a602062000052836200011e565b92016200011e565b60017f9b779b17422d0df92223018b32b4d1fa46e071723d6817e2486d003becc55f00556001600255683635c9adc5dea0000060075560076008556203f4806009556202a300600a556201518080600b55600c556064600d5566b1a2bc2ec50000600e556064600f556032601055601960115560018060a01b03908160018060a01b031993168360005416176000551690600154161760015560405161297e9081620001348239f35b600080fd5b634e487b7160e01b600052604160045260246000fd5b51906001600160a01b0382168203620001035756fe61012080604052600436101561001457600080fd5b60009060e08235811c9182630db3993414612112575081630f11132414611ea457816316b5551d14611e385781631a7d135214611e0f578163276ae81114611df15781632aeeccb314611d9b5781632afce44f14611d7d5781632cd701f514611d39578163309a1b5314611b095781633188219814611576578163336ebdfa146114d75781633bc70ec0146111f75781634206ea4c146111d9578163564a565d1461106d5781636a20625814610e775781636a5b745614610e595781636d2404ac14610e3b5781636d8acf4514610d8257816372f702f314610d5b5781637cbf3b6b14610bfc5781639da6918014610aab5781639e4f272d14610a8d578163a6a7f0eb1461097b578163a99ef9f51461092f578163b9ce896b14610911578163c2b7b8681461031e578163d209d03e14610300578163dca5f6b01461028357508063e1398c0c14610265578063e3a96cbd146101c2578063f713b052146101a45763f96046811461018457600080fd5b346101a157806003193601126101a1576020600b54604051908152f35b80fd5b50346101a157806003193601126101a1576020600a54604051908152f35b50346101a15760203660031901126101a157604060a0916004358152600360205220600180831b036001820154169060ff6007820154166004820154600f8301549161020d8161234a565b600581149384610255575b84610246575b5060405194855261022e8161234a565b60208501526040840152606083015215156080820152f35b6015015460021193503861021e565b601481015460ff16159450610218565b50346101a157806003193601126101a1576020601154604051908152f35b82346101a15760203660031901126101a1576040906001600160a01b036102a8612149565b16815260046020522060ff815416906001810154906002810154600382015460048301549160066005850154940154946040519615158752602087015260408601526060850152608084015260a083015260c0820152f35b82346101a157806003193601126101a1576020600954604051908152f35b82346101a15760203660031901126101a1576103386123f4565b6004358152600360205260408120610362600360ff60078401541661035c8161234a565b14612832565b600b8101544211156108d55781828384600f8501545b8082106107d35750508183119283806107ca575b15610783575050506004820154600d83015582600e8301555b600560ff1960078401541617600783015542600c8301556004358352600360205260408320906127106103df6004840154600f5490612874565b04600f83015490811561076d57855b600f85015481101561070d5761040781600f87016121ac565b60018060a01b0391549060031b1c168088526004602052604088209080600052601187016020528560ff60406000205416816106f8575b81156106c1575b60048110156106ad5761050a57506003820154601054612710039061271082116104f65761047c6104f19594939261271092612874565b04600383015560105460405190815260406020820152600b60408201526a4d697373656420766f746560a81b60608201527f7076793ebd4b1d036042d7ad0bbbb52e2b841612a9d6ed8ded45ce66f0bd90e0608060043592a35b600181016104e48154612424565b9055600642910155612424565b6103ee565b634e487b7160e01b8b52601160045260248bfd5b610594576003820154601154612710039061271082116104f6576105376104f19594939261271092612874565b04600383015560115460405190815260406020820152600a60408201526957726f6e6720766f746560b01b60608201527f7076793ebd4b1d036042d7ad0bbbb52e2b841612a9d6ed8ded45ce66f0bd90e0608060043592a36104d6565b9190600281016105a48154612424565b9055600581016105b7868604825461247f565b9055885460405163a9059cbb60e01b81526001600160a01b03858116600483015287870460248301529091602091839160449183918f91165af19081156106a2578a91610673575b501561063e576104f19260405186860481527f38fef0e2638c7bfd9820a74741bd8d5b75996df52983ee3195e0e6db53b4fec4602060043592a36104d6565b60405162461bcd60e51b815260206004820152600d60248201526c14995dd85c990819985a5b1959609a1b6044820152606490fd5b610695915060203d60201161069b575b61068d818361222c565b81019061239e565b8a6105ff565b503d610683565b6040513d8c823e3d90fd5b634e487b7160e01b8b52602160045260248bfd5b90508615806106d1575b90610445565b5060048110156106e457600281146106cb565b634e487b7160e01b8a52602160045260248afd5b905060048110156106e457600181149061043e565b8686600d810154906013600e82015491015490604051928352602083015260408201527f43c6fe16c1e88a9b3bceaf30a2ae3d7e9ad9533f87698ebb2b628263771ae0e6606060043592a260016000805160206129298339815191525580f35b634e487b7160e01b600052601260045260246000fd5b821191826107c0575b5050156107a85782600d8301556004820154600e8301556103a5565b600482015460011c80600d840155600e8301556103a5565b119050848061078c565b5081811161038c565b90936107e285600f88016121ac565b60018060a01b0391549060031b1c16908160005260128701602052604060002054916011880160205260ff6040600020541660048110156106e45760010361083e5750610838916108329161247f565b94612424565b90610378565b80600097969297526011880160205260ff6040600020541660048110156106e45760020361087a5750610838916108749161247f565b93612424565b600095929195526011870160205260ff6040600020541660048110156108c1576003146108ac575b5061083890612424565b6108ba90610838929461247f565b92906108a2565b634e487b7160e01b89526021600452602489fd5b60405162461bcd60e51b815260206004820152601460248201527352657665616c20706572696f642061637469766560601b6044820152606490fd5b82346101a157806003193601126101a1576020600e54604051908152f35b82346101a15760403660031901126101a1576010604061094d61212e565b926004358152600360205220019060018060a01b031660005260205260206040600020541515604051908152f35b82346101a15761098a3661236a565b919081845260036020526109ba6040852060018060a01b03806002830154163314918215610a7c575b505061277a565b81845260036020526009604085206109e4600160ff6007840154166109de8161234a565b146127b4565b01544211610a3f577fa49e7517d2b5714f7812f718444c5a2931d4fc670ed2d2aa2426ff2f42c5b44d90836040519160208352816020840152604083013784604085830101526040813395601f80199101168101030190a380f35b60405162461bcd60e51b8152602060048201526015602482015274115d9a59195b98d9481c195c9a5bd908195b991959605a1b6044820152606490fd5b6003919250015416331486806109b3565b82346101a157806003193601126101a1576020600c54604051908152f35b82346101a15760403660031901126101a157600435610ad2610acd33836128c2565b6127f8565b80825260206003815260408320600260ff600783015416610af28161234a565b03610bc157600a8101544211610b86576010019033600052818152604060002054610b4e57336000525260243560406000205533907f3834a2c8ea101e1468b529270d35fbff0a12de32a5a7e5729b8b4dad6fb32c018380a380f35b6064906040519062461bcd60e51b825260048201526011602482015270105b1c9958591e4818dbdb5b5a5d1d1959607a1b6044820152fd5b60405162461bcd60e51b815260048101839052601360248201527210dbdb5b5a5d081c195c9a5bd908195b991959606a1b6044820152606490fd5b60405162461bcd60e51b81526004810183905260136024820152724e6f7420696e20636f6d6d697420706861736560681b6044820152606490fd5b82346101a15760203660031901126101a157610c166123f4565b6004358152600360205260408120906007820191610c43600560ff855416610c3d8161234a565b14612887565b610c54600c820154600c549061247f565b42118015610d4d575b15610d11576001810154600d820154600e909201546001600160a01b0390911691823b15610d0d57906044849283604051958694859363bdc84ac360e01b8552600485015260248401525af18015610d0257610cd6575b50815460ff191660061790915560016000805160206129298339815191525580f35b67ffffffffffffffff8111610cee5760405282610cb4565b634e487b7160e01b82526041600452602482fd5b6040513d84823e3d90fd5b8380fd5b60405162461bcd60e51b815260206004820152601460248201527341707065616c20706572696f642061637469766560601b6044820152606490fd5b5060ff601482015416610c5d565b82346101a157806003193601126101a157546040516001600160a01b039091168152602090f35b82346101a157602080600319360112610e3757600435825260038152600f604083200160405192838383549182815201908193835284832090835b818110610e1a5750505084610dd391038561222c565b60405193838594850191818652518092526040850193925b828110610dfa57505050500390f35b83516001600160a01b031685528695509381019392810192600101610deb565b82546001600160a01b031684529286019260019283019201610dbd565b5080fd5b82346101a157806003193601126101a1576020600d54604051908152f35b82346101a157806003193601126101a1576020601054604051908152f35b82610e813661236a565b5050808252602060038152610eb16040842060018060a01b0380600283015416331491821561105c57505061277a565b600e548060011b90808204600214901517156110485734106110045781835260038152604083206007810190815491610ef2600560ff8516610c3d8161234a565b601482019283549060ff8216610fcc5760158401948554906002821015610f915791610f517f3c38c919bdd44374f95e247e400f505a9fb708fe987d5a077f6d54a13ae817379897969492600f9694600160ff19809616179055612424565b865516905501805486825580610f78575b5050610f6d8461248c565b54604051908152a280f35b610f8a91875283872090810190612468565b8580610f62565b60405162461bcd60e51b815260048101899052601360248201527213585e08185c1c19585b1cc81c995858da1959606a1b6044820152606490fd5b60405162461bcd60e51b815260048101879052601060248201526f105b1c9958591e48185c1c19585b195960821b6044820152606490fd5b6064906040519062461bcd60e51b82526004820152601760248201527f496e73756666696369656e742061707065616c206665650000000000000000006044820152fd5b634e487b7160e01b84526011600452602484fd5b6003919250015416331485806109b3565b82346101a15760203660031901126101a157600435815260036020526040902090815491600160a01b60019003928360018301541693806002840154166101005260038301541660a052600482015493600583016110ca90612264565b946110d760068501612264565b95600785015460ff166080526008850154966009860154600a87015490600b88015492600c89015494600d8a015496600e8b01549860138c01549a60148d015460ff169c6015015460c0528d604051809152528c5160200152610100518c516040015260a0518c51606001528b5160800152610240808c5160a001528b510161115f9161230a565b8a518082039060c001526111729161230a565b9960805161117f9061234a565b6080518a80510152895161010001528851610120015287516101400152865161016001528551610180015284516101a0015283516101c0015282516101e0015215158151610200015260c051815161022001525180910390f35b82346101a157806003193601126101a1576020600854604051908152f35b905034610e3757602090816003193601126114d357600435916112186123f4565b600754831061149a573384526004815260ff604085205416611461576001546040516327c06fd560e01b81523360048201526001600160a01b03949183908290602490829089165afa9081156113e0578691611430575b50600d54116113eb578482858254166064604051809481936323b872dd60e01b83523360048401523060248401528760448401525af180156113e0576112bc9187916113c3575b506123b6565b60405192830183811067ffffffffffffffff8211176113af5790600692916040526001845281840190868252604085018781526060860190670de0b6b3a7640000830482526080870192835260a0870193898552600460c0890196428852338c525260408a209751151560ff80198a5416911617885551600188015551600287015551600386015551600485015551600584015551910155600654600160401b81101561139b57806001611373920160065561215f565b819291549060031b9133831b921b191617905560016000805160206129298339815191525580f35b634e487b7160e01b83526041600452602483fd5b634e487b7160e01b86526041600452602486fd5b6113da9150843d861161069b5761068d818361222c565b386112b6565b6040513d88823e3d90fd5b60405162461bcd60e51b815260048101839052601760248201527f496e73756666696369656e742072657075746174696f6e0000000000000000006044820152606490fd5b90508281813d831161145a575b611447818361222c565b8101031261145657513861126f565b8580fd5b503d61143d565b6064906040519062461bcd60e51b825260048201526012602482015271105b1c9958591e481c9959da5cdd195c995960721b6044820152fd5b6064906040519062461bcd60e51b825260048201526012602482015271496e73756666696369656e74207374616b6560701b6044820152fd5b8280fd5b82346101a15760203660031901126101a157600435815260036020526040812060078101805461150f600160ff83166109de8161234a565b60098301544211156115385760ff19166002179055600a8054611532904261247f565b91015580f35b60405162461bcd60e51b815260206004820152601660248201527545766964656e636520706572696f642061637469766560501b6044820152606490fd5b8260603660031901126101a15761158b612149565b60243567ffffffffffffffff81116114d3576115ab9036906004016121c4565b9160443567ffffffffffffffff8111611b05576115cc9036906004016121c4565b6115d46123f4565b600e543410611acd57604051631006976960e11b81526020816004816001600160a01b0388165afa8015611ac2578790611a82575b600391506116168161234a565b03611a45576002549461162886612424565b6002558587526003602090815260408089208881556001810180546001600160a01b0319166001600160a01b0389169081179091559151635c39fcc160e01b81529097929091829060049082905afa9081156119ec578991611a26575b506002870180546001600160a01b0319166001600160a01b039283161790556040516361efb2a360e11b815290602090829060049082908a165afa9081156119ec5789916119f7575b506003870180546001600160a01b0319166001600160a01b03928316179055604051633689778f60e21b815290602090829060049082908a165afa9081156119ec5789916119b6575b50600487015567ffffffffffffffff82116119a257819061173b60058801546121f2565b601f811161196f575b508890601f83116001146119035789926118f8575b50508160011b916000199060031b1c19161760058501555b67ffffffffffffffff81116113af5780602096600686019361179385546121f2565b601f81116118bf575b5081601f841160011461185b5792611850575b50508160011b916000199060031b1c19161790555b6007820160ff1981541690554260088301556117e26009544261247f565b60098301556117f08361248c565b827f3854fefc4ebe91a685ab0a9689bb3eda28d3cc5373aa8e87ee52f597bd1b907685600460018060a01b036002870154169501549360405194855260018060a01b031693a4600160008051602061292983398151915255604051908152f35b0135905087806117af565b858152898120909450915b601f19841685106118a8576001945083601f1981161061188e575b505050811b0190556117c4565b0135600019600384901b60f8161c19169055878080611881565b818101358355938901936001909201918901611866565b6118e8908684528a8420601f860160051c8101918c87106118ee575b601f0160051c0190612468565b8961179c565b90915081906118db565b013590508880611759565b600588018a5260208a208a9450915b601f1984168510611957576001945083601f1981161061193d575b505050811b016005850155611771565b0135600019600384901b60f8161c1916905588808061192d565b81810135835560209485019460019093019201611912565b61199c90600589018b5260208b20601f850160051c810191602086106118ee57601f0160051c0190612468565b89611744565b634e487b7160e01b88526041600452602488fd5b90506020813d6020116119e4575b816119d16020938361222c565b810103126119e0575189611717565b8880fd5b3d91506119c4565b6040513d8b823e3d90fd5b611a19915060203d602011611a1f575b611a11818361222c565b810190612449565b896116ce565b503d611a07565b611a3f915060203d602011611a1f57611a11818361222c565b89611685565b60405162461bcd60e51b815260206004820152601560248201527410dbdd995b985b9d081b9bdd08191a5cdc1d5d1959605a1b6044820152606490fd5b506020813d602011611aba575b81611a9c6020938361222c565b81010312611ab657516007811015611ab657600390611609565b8680fd5b3d9150611a8f565b6040513d89823e3d90fd5b60405162461bcd60e51b815260206004820152601060248201526f496e73756666696369656e742066656560801b6044820152606490fd5b8480fd5b82346101a157806003193601126101a157611b226123f4565b33815260206004815260408220805460ff9182821615611d035760048101918254938415611cd35791859391879593338752600590818752604088209088928254935b848110611c05575050505060ff199190911690915550839055825460405163a9059cbb60e01b815233600482015260248101929092529092839160449183916001600160a01b03165af1908115611bfa57611bc8928492611bdd575b50506123b6565b60016000805160206129298339815191525580f35b611bf39250803d1061069b5761068d818361222c565b8380611bc1565b6040513d85823e3d90fd5b91809496989a611c1a8486989a9c94966121ac565b919054600392831b1c90528083528d60079186848460408520015416611c3f8161234a565b14948515611c9f575b505050505015611c6b57611c5b90612424565b9189979593918b99979593611b65565b60405162461bcd60e51b8152600481018b9052600c60248201526b41637469766520636173657360a01b6044820152606490fd5b600695509060409291611cb2888c6121ac565b905490831b1c83525220015416611cc88161234a565b14838d8d818e611c48565b60405162461bcd60e51b81526004810187905260086024820152674e6f207374616b6560c01b6044820152606490fd5b60405162461bcd60e51b815260048101859052600e60248201526d139bdd081c9959da5cdd195c995960921b6044820152606490fd5b82346101a15760203660031901126101a157600435906006548210156101a1576020611d648361215f565b905460405160039290921b1c6001600160a01b03168152f35b82346101a157806003193601126101a1576020600f54604051908152f35b82346101a15760403660031901126101a157611db5612149565b6001600160a01b03168152600560205260408120805460243592908310156101a1576020611de384846121ac565b90546040519160031b1c8152f35b82346101a157806003193601126101a1576020600754604051908152f35b82346101a157806003193601126101a1576001546040516001600160a01b039091168152602090f35b82346101a15760403660031901126101a157611e5261212e565b60043582526003602052601160408320019060018060a01b0316825260205260ff604082205416906004821015611e90576020826040519015158152f35b634e487b7160e01b81526021600452602490fd5b82346101a15760603660031901126101a1576004356024359060048210156114d357611ed3610acd33836128c2565b80835260206003815260408420611f2e600360ff600784018054828116611ef98161234a565b611f176002821491828015612100575b611f1290612832565b61234a565b806120f3575b6120d4575b50541661035c8161234a565b600b8101544211612099576011810133865280835260ff60408720541660048110156120855761204d57604051838101908660f81b8252604435602182015260218152606081019181831067ffffffffffffffff841117612039578260405281519020338952601085018652604089205403612008575050907ffb0a2a4b906424480a54d601db26ad920592115a97358d199495345723df34cb929133875282526040862060ff1981541660ff8716179055601281018252611ffa60136040882054920191825461247f565b90556040519384523393a380f35b906d125b9d985b1a59081c995d99585b60921b60a46064938762461bcd60e51b855285820152600e60848201520152fd5b634e487b7160e01b89526041600452602489fd5b60405162461bcd60e51b815260048101849052601060248201526f105b1c9958591e481c995d99585b195960821b6044820152606490fd5b634e487b7160e01b87526021600452602487fd5b60405162461bcd60e51b815260048101839052601360248201527214995d99585b081c195c9a5bd908195b991959606a1b6044820152606490fd5b83908319161781556120e8600b544261247f565b600b86015589611f22565b50600a8601544211611f1d565b5061210a8161234a565b808714611f09565b839034610e375781600319360112610e37576020906002548152f35b602435906001600160a01b038216820361214457565b600080fd5b600435906001600160a01b038216820361214457565b6006548110156121965760066000527ff652222313e28459528d920b65115c16c04f3efc82aaedc97be59f3f377c0d3f0190600090565b634e487b7160e01b600052603260045260246000fd5b80548210156121965760005260206000200190600090565b9181601f840112156121445782359167ffffffffffffffff8311612144576020838186019501011161214457565b90600182811c92168015612222575b602083101461220c57565b634e487b7160e01b600052602260045260246000fd5b91607f1691612201565b90601f8019910116810190811067ffffffffffffffff82111761224e57604052565b634e487b7160e01b600052604160045260246000fd5b9060405191826000825492612278846121f2565b9081845260019485811690816000146122e757506001146122a4575b50506122a29250038361222c565b565b9093915060005260209081600020936000915b8183106122cf5750506122a293508201013880612294565b855488840185015294850194879450918301916122b7565b9150506122a294506020925060ff191682840152151560051b8201013880612294565b919082519283825260005b848110612336575050826000602080949584010152601f8019910116010190565b602081830181015184830182015201612315565b6007111561235457565b634e487b7160e01b600052602160045260246000fd5b90604060031983011261214457600435916024359067ffffffffffffffff82116121445761239a916004016121c4565b9091565b90816020910312612144575180151581036121445790565b156123bd57565b60405162461bcd60e51b815260206004820152600f60248201526e151c985b9cd9995c8819985a5b1959608a1b6044820152606490fd5b60008051602061292983398151915260028154146124125760029055565b604051633ee5aeb560e01b8152600490fd5b60001981146124335760010190565b634e487b7160e01b600052601160045260246000fd5b9081602091031261214457516001600160a01b03811681036121445790565b818110612473575050565b60008155600101612468565b9190820180921161243357565b906000908282526003926020908482526040938481209260065495829783906002870198600f88019060128901935b8181108061269b575b1561263d578b9c6124db83838c9d9e9f9b9c6126a6565b6001600160a01b038181169a9091908e908d8d1561262d579060ff8c8f938f97969594815260048098522054161561262d575483168d14801561261f575b612610579061252791612720565b612603578554600160401b91828210156125f0578c61254d6001938481018b558a6121ac565b90928354918c1b92831b921b19161790558b8d5260058b52898d20908154928310156125f05761258d8f91936125b995936125e4989795820181556121ac565b81929154908b1b91821b91600019901b19161790558b8d528a5286898d200154888b52898d2055612424565b988b7f6a547857424ddf8f94427bf9c458627075464dcf7326c192e44abf6aea499fb48c80a3612424565b9b9a999897969b6124bb565b634e487b7160e01b8e526041845260248efd5b505097506125e490612424565b5050505097506125e490612424565b508289820154168d14612519565b505050505097506125e490612424565b505094509450509395509395505410612662575050600701805460ff19166001179055565b60649250519062461bcd60e51b825260048201526013602482015272496e73756666696369656e74206a75726f727360681b6044820152fd5b506008548d106124c4565b919081156127185760001943019043821161243357604051936020850192408352604085015260608401524260808401526080835260a083019280841067ffffffffffffffff85111761224e57612703936040525190200661215f565b905460039190911b1c6001600160a01b031690565b505050600090565b9060005b600f83018054821015612771578161273b916121ac565b905460039190911b1c6001600160a01b039081169083161461276957612762600f91612424565b9050612724565b505050600190565b50505050600090565b1561278157565b60405162461bcd60e51b815260206004820152600b60248201526a4e6f74206120706172747960a81b6044820152606490fd5b156127bb57565b60405162461bcd60e51b81526020600482015260156024820152744e6f7420696e2065766964656e636520706861736560581b6044820152606490fd5b156127ff57565b60405162461bcd60e51b815260206004820152600b60248201526a2737ba103090353ab937b960a91b6044820152606490fd5b1561283957565b60405162461bcd60e51b81526020600482015260136024820152724e6f7420696e2072657665616c20706861736560681b6044820152606490fd5b8181029291811591840414171561243357565b1561288e57565b60405162461bcd60e51b815260206004820152600c60248201526b139bdd081c995cdbdb1d995960a21b6044820152606490fd5b60005260039081602052604060002091600f600093018054935b8481106128ed575050505050600090565b6128f781836121ac565b905490841b1c6001600160a01b039081169085161461291e5761291990612424565b6128dc565b505050505060019056fe9b779b17422d0df92223018b32b4d1fa46e071723d6817e2486d003becc55f00a26469706673582212207e4cc60d4293786f6c9ce1b58078e002682b916e3897cc7e7e578d6f9f75bcce64736f6c63430008140033",
  "linkReferences": {},
  "deployedLinkReferences": {}
}