{
  "_format": "hh-sol-artifact-1",
  "contractName": "DisputeDAO",
  "sourceName": "contracts/core/DisputeDAO.sol",
  "abi": [
    {
      "inputs": [
        {
          "internalType": "address",
          "name": "_stakingToken",
          "type": "address"
        },
        {
          "internalType": "address",
          "name": "_reputationStake",
          "type": "address"
        }
      ],
      "stateMutability": "nonpayable",
      "type": "constructor"
    },
    {
      "inputs": [],
      "name": "ReentrancyGuardReentrantCall",
      "type": "error"
    },
    {
      "anonymous": false,
      "inputs": [
        {
          "indexed": true,
          "internalType": "uint256",
          "name": "disputeId",
          "type": "uint256"
        },
        {
          "indexed": false,
          "internalType": "uint256",
          "name": "appealCount",
          "type": "uint256"
        }
      ],
      "name": "AppealFiled",
      "type": "event"
    },
    {
      "anonymous": false,
      "inputs": [
        {
          "indexed": true,
          "internalType": "uint256",
          "name": "disputeId",
          "type": "uint256"
        },
        {
          "indexed": true,
          "internalType": "address",
          "name": "covenant",
          "type": "address"
        },
        {
          "indexed": true,
          "internalType": "address",
          "name": "initiator",
          "type": "address"
        },
        {
          "indexed": false,
          "internalType": "uint256",
          "name": "stakeAmount",
          "type": "uint256"
        }
      ],
      "name": "DisputeCreated",
      "type": "event"
    },
    {
      "anonymous": false,
      "inputs": [
        {
          "indexed": true,
          "internalType": "uint256",
          "name": "disputeId",
          "type": "uint256"
        },
        {
          "indexed": false,
          "internalType": "uint256",
          "name": "initiatorAward",
          "type": "uint256"
        },
        {
          "indexed": false,
          "internalType": "uint256",
          "name": "counterpartyAward",
          "type": "uint256"
        },
        {
          "indexed": false,
          "internalType": "uint256",
          "name": "totalVotingPower",
          "type": "uint256"
        }
      ],
      "name": "DisputeResolved",
      "type": "event"
    },
    {
      "anonymous": false,
      "inputs": [
        {
          "indexed": true,
          "internalType": "uint256",
          "name": "disputeId",
          "type": "uint256"
        },
        {
          "indexed": true,
          "internalType": "address",
          "name": "by",
          "type": "address"
        },
        {
          "indexed": false,
          "internalType": "string",
          "name": "ipfsHash",
          "type": "string"
        }
      ],
      "name": "EvidenceSubmitted",
      "type": "event"
    },
    {
      "anonymous": false,
      "inputs": [
        {
          "indexed": true,
          "internalType": "uint256",
          "name": "disputeId",
          "type": "uint256"
        },
        {
          "indexed": true,
          "internalType": "address",
          "name": "juror",
          "type": "address"
        },
        {
          "indexed": false,
          "internalType": "uint256",
          "name": "amount",
          "type": "uint256"
        },
        {
          "indexed": false,
          "internalType": "string",
          "name": "reason",
          "type": "string"
        }
      ],
      "name": "JurorPenalized",
      "type": "event"
    },
    {
      "anonymous": false,
      "inputs": [
        {
          "indexed": true,
          "internalType": "uint256",
          "name": "disputeId",
          "type": "uint256"
        },
        {
          "indexed": true,
          "internalType": "address",
          "name": "juror",
          "type": "address"
        },
        {
          "indexed": false,
          "internalType": "uint256",
          "name": "amount",
          "type": "uint256"
        }
      ],
      "name": "JurorRewarded",
      "type": "event"
    },
    {
      "anonymous": false,
      "inputs": [
        {
          "indexed": true,
          "internalType": "uint256",
          "name": "disputeId",
          "type": "uint256"
        },
        {
          "indexed": true,
          "internalType": "address",
          "name": "juror",
          "type": "address"
        }
      ],
      "name": "JurorSelected",
      "type": "event"
    },
    {
      "anonymous": false,
      "inputs": [
        {
          "indexed": true,
          "internalType": "uint256",
          "name": "disputeId",
          "type": "uint256"
        },
        {
          "indexed": true,
          "internalType": "address",
          "name": "juror",
          "type": "address"
        }
      ],
      "name": "VoteCommitted",
      "type": "event"
    },
    {
      "anonymous": false,
      "inputs": [
        {
          "indexed": true,
          "internalType": "uint256",
          "name": "disputeId",
          "type": "uint256"
        },
        {
          "indexed": true,
          "internalType": "address",
          "name": "juror",
          "type": "address"
        },
        {
          "indexed": false,
          "internalType": "enum DisputeDAO.VoteOption",
          "name": "vote",
          "type": "uint8"
        }
      ],
      "name": "VoteRevealed",
      "type": "event"
    },
    {
      "inputs": [
        {
          "internalType": "uint256",
          "name": "_disputeId",
          "type": "uint256"
        }
      ],
      "name": "advanceToCommitPhase",
      "outputs": [],
      "stateMutability": "nonpayable",
      "type": "function"
    },
    {
      "inputs": [],
      "name": "appealPeriod",
      "outputs": [
        {
          "internalType": "uint256",
          "name": "",
          "type": "uint256"
        }
      ],
      "stateMutability": "view",
      "type": "function"
    },
    {
      "inputs": [],
      "name": "commitPeriod",
      "outputs": [
        {
          "internalType": "uint256",
          "name": "",
          "type": "uint256"
        }
      ],
      "stateMutability": "view",
      "type": "function"
    },
    {
      "inputs": [
        {
          "internalType": "uint256",
          "name": "_disputeId",
          "type": "uint256"
        },
        {
          "internalType": "bytes32",
          "name": "_commitHash",
          "type": "bytes32"
        }
      ],
      "name": "commitVote",
      "outputs": [],
      "stateMutability": "nonpayable",
      "type": "function"
    },
    {
      "inputs": [
        {
          "internalType": "address",
          "name": "_covenant",
          "type": "address"
        },
        {
          "internalType": "string",
          "name": "_reason",
          "type": "string"
        },
        {
          "internalType": "string",
          "name": "_evidenceIPFS",
          "type": "string"
        }
      ],
      "name": "createDispute",
      "outputs": [
        {
          "internalType": "uint256",
          "name": "disputeId",
          "type": "uint256"
        }
      ],
      "stateMutability": "payable",
      "type": "function"
    },
    {
      "inputs": [],
      "name": "disputeFee",
      "outputs": [
        {
          "internalType": "uint256",
          "name": "",
          "type": "uint256"
        }
      ],
      "stateMutability": "view",
      "type": "function"
    },
    {
      "inputs": [
        {
          "internalType": "uint256",
          "name": "",
          "type": "uint256"
        }
      ],
      "name": "disputes",
      "outputs": [
        {
          "internalType": "uint256",
          "name": "id",
          "type": "uint256"
        },
        {
          "internalType": "address",
          "name": "covenant",
          "type": "address"
        },
        {
          "internalType": "address",
          "name": "initiator",
          "type": "address"
        },
        {
          "internalType": "address",
          "name": "counterparty",
          "type": "address"
        },
        {
          "internalType": "uint256",
          "name": "stakeAmount",
          "type": "uint256"
        },
        {
          "internalType": "string",
          "name": "reason",
          "type": "string"
        },
        {
          "internalType": "string",
          "name": "evidenceIPFS",
          "type": "string"
        },
        {
          "internalType": "enum DisputeDAO.DisputeStatus",
          "name": "status",
          "type": "uint8"
        },
        {
          "internalType": "uint256",
          "name": "createdAt",
          "type": "uint256"
        },
        {
          "internalType": "uint256",
          "name": "evidenceEndTime",
          "type": "uint256"
        },
        {
          "internalType": "uint256",
          "name": "commitEndTime",
          "type": "uint256"
        },
        {
          "internalType": "uint256",
          "name": "revealEndTime",
          "type": "uint256"
        },
        {
          "internalType": "uint256",
          "name": "resolutionTime",
          "type": "uint256"
        },
        {
          "internalType": "uint256",
          "name": "initiatorAward",
          "type": "uint256"
        },
        {
          "internalType": "uint256",
          "name": "counterpartyAward",
          "type": "uint256"
        },
        {
          "internalType": "uint256",
          "name": "totalReputationVoted",
          "type": "uint256"
        },
        {
          "internalType": "bool",
          "name": "appealed",
          "type": "bool"
        },
        {
          "internalType": "uint256",
          "name": "appealCount",
          "type": "uint256"
        }
      ],
      "stateMutability": "view",
      "type": "function"
    },
    {
      "inputs": [],
      "name": "evidencePeriod",
      "outputs": [
        {
          "internalType": "uint256",
          "name": "",
          "type": "uint256"
        }
      ],
      "stateMutability": "view",
      "type": "function"
    },
    {
      "inputs": [
        {
          "internalType": "uint256",
          "name": "_disputeId",
          "type": "uint256"
        }
      ],
      "name": "executeResolution",
      "outputs": [],
      "stateMutability": "nonpayable",
      "type": "function"
    },
    {
      "inputs": [
        {
          "internalType": "uint256",
          "name": "_disputeId",
          "type": "uint256"
        },
        {
          "internalType": "string",
          "name": "_reason",
          "type": "string"
        }
      ],
      "name": "fileAppeal",
      "outputs": [],
      "stateMutability": "payable",
      "type": "function"
    },
    {
      "inputs": [
        {
          "internalType": "uint256",
          "name": "_disputeId",
          "type": "uint256"
        }
      ],
      "name": "getDispute",
      "outputs": [
        {
          "internalType": "address",
          "name": "covenant",
          "type": "address"
        },
        {
          "internalType": "enum DisputeDAO.DisputeStatus",
          "name": "status",
          "type": "uint8"
        },
        {
          "internalType": "uint256",
          "name": "stakeAmount",
          "type": "uint256"
        },
        {
          "internalType": "uint256",
          "name": "selectedJurorCount",
          "type": "uint256"
        },
        {
          "internalType": "bool",
          "name": "canAppeal",
          "type": "bool"
        }
      ],
      "stateMutability": "view",
      "type": "function"
    },
    {
      "inputs": [
        {
          "internalType": "uint256",
          "name": "_disputeId",
          "type": "uint256"
        }
      ],
      "name": "getJurors",
      "outputs": [
        {
          "internalType": "address[]",
          "name": "",
          "type": "address[]"
        }
      ],
      "stateMutability": "view",
      "type": "function"
    },
    {
      "inputs": [
        {
          "internalType": "uint256",
          "name": "_disputeId",
          "type": "uint256"
        },
        {
          "internalType": "address",
          "name": "_juror",
          "type": "address"
        }
      ],
      "name": "hasCommitted",
      "outputs": [
        {
          "internalType": "bool",
          "name": "",
          "type": "bool"
        }
      ],
      "stateMutability": "view",
      "type": "function"
    },
    {
      "inputs": [
        {
          "internalType": "uint256",
          "name": "_disputeId",
          "type": "uint256"
        },
        {
          "internalType": "address",
          "name": "_juror",
          "type": "address"
        }
      ],
      "name": "hasRevealed",
      "outputs": [
        {
          "internalType": "bool",
          "name": "",
          "type": "bool"
        }
      ],
      "stateMutability": "view",
      "type": "function"
    },
    {
      "inputs": [
        {
          "internalType": "address",
          "name": "",
          "type": "address"
        },
        {
          "internalType": "uint256",
          "name": "",
          "type": "uint256"
        }
      ],
      "name": "jurorCases",
      "outputs": [
        {
          "internalType": "uint256",
          "name": "",
          "type": "uint256"
        }
      ],
      "stateMutability": "view",
      "type": "function"
    },
    {
      "inputs": [],
      "name": "jurorCount",
      "outputs": [
        {
          "internalType": "uint256",
          "name": "",
          "type": "uint256"
        }
      ],
      "stateMutability": "view",
      "type": "function"
    },
    {
      "inputs": [],
      "name": "jurorRewardRate",
      "outputs": [
        {
          "internalType": "uint256",
          "name": "",
          "type": "uint256"
        }
      ],
      "stateMutability": "view",
      "type": "function"
    },
    {
      "inputs": [
        {
          "internalType": "address",
          "name": "",
          "type": "address"
        }
      ],
      "name": "jurors",
      "outputs": [
        {
          "internalType": "bool",
          "name": "isActive",
          "type": "bool"
        },
        {
          "internalType": "uint256",
          "name": "totalCases",
          "type": "uint256"
        },
        {
          "internalType": "uint256",
          "name": "correctVotes",
          "type": "uint256"
        },
        {
          "internalType": "uint256",
          "name": "reputation",
          "type": "uint256"
        },
        {
          "internalType": "uint256",
          "name": "stakedAmount",
          "type": "uint256"
        },
        {
          "internalType": "uint256",
          "name": "rewardsEarned",
          "type": "uint256"
        },
        {
          "internalType": "uint256",
          "name": "lastActivity",
          "type": "uint256"
        }
      ],
      "stateMutability": "view",
      "type": "function"
    },
    {
      "inputs": [],
      "name": "minJurorStake",
      "outputs": [
        {
          "internalType": "uint256",
          "name": "",
          "type": "uint256"
        }
      ],
      "stateMutability": "view",
      "type": "function"
    },
    {
      "inputs": [],
      "name": "minReputationToServe",
      "outputs": [
        {
          "internalType": "uint256",
          "name": "",
          "type": "uint256"
        }
      ],
      "stateMutability": "view",
      "type": "function"
    },
    {
      "inputs": [],
      "name": "missedVotePenalty",
      "outputs": [
        {
          "internalType": "uint256",
          "name": "",
          "type": "uint256"
        }
      ],
      "stateMutability": "view",
      "type": "function"
    },
    {
      "inputs": [],
      "name": "nextDisputeId",
      "outputs": [
        {
          "internalType": "uint256",
          "name": "",
          "type": "uint256"
        }
      ],
      "stateMutability": "view",
      "type": "function"
    },
    {
      "inputs": [
        {
          "internalType": "uint256",
          "name": "_stakeAmount",
          "type": "uint256"
        }
      ],
      "name": "registerAsJuror",
      "outputs": [],
      "stateMutability": "nonpayable",
      "type": "function"
    },
    {
      "inputs": [],
      "name": "reputationStake",
      "outputs": [
        {
          "internalType": "contract IReputationStake",
          "name": "",
          "type": "address"
        }
      ],
      "stateMutability": "view",
      "type": "function"
    },
    {
      "inputs": [
        {
          "internalType": "uint256",
          "name": "_disputeId",
          "type": "uint256"
        }
      ],
      "name": "resolveDispute",
      "outputs": [],
      "stateMutability": "nonpayable",
      "type": "function"
    },
    {
      "inputs": [],
      "name": "revealPeriod",
      "outputs": [
        {
          "internalType": "uint256",
          "name": "",
          "type": "uint256"
        }
      ],
      "stateMutability": "view",
      "type": "function"
    },
    {
      "inputs": [
        {
          "internalType": "uint256",
          "name": "_disputeId",
          "type": "uint256"
        },
        {
          "internalType": "enum DisputeDAO.VoteOption",
          "name": "_vote",
          "type": "uint8"
        },
        {
          "internalType": "uint256",
          "name": "_salt",
          "type": "uint256"
        }
      ],
      "name": "revealVote",
      "outputs": [],
      "stateMutability": "nonpayable",
      "type": "function"
    },
    {
      "inputs": [],
      "name": "stakingToken",
      "outputs": [
        {
          "internalType": "contract IERC20",
          "name": "",
          "type": "address"
        }
      ],
      "stateMutability": "view",
      "type": "function"
    },
    {
      "inputs": [
        {
          "internalType": "uint256",
          "name": "_disputeId",
          "type": "uint256"
        },
        {
          "internalType": "string",
          "name": "_evidenceIPFS",
          "type": "string"
        }
      ],
      "name": "submitEvidence",
      "outputs": [],
      "stateMutability": "nonpayable",
      "type": "function"
    },
    {
      "inputs": [],
      "name": "unstakeAsJuror",
      "outputs": [],
      "stateMutability": "nonpayable",
      "type": "function"
    },
    {
      "inputs": [],
      "name": "wrongVotePenalty",
      "outputs": [
        {
          "internalType": "uint256",
          "name": "",
          "type": "uint256"
        }
      ],
      "stateMutability": "view",
      "type": "function"
    }
  ],
  "bytecode": "0x6080346200010257601f620028fd38819003918201601f19168301916001600160401b038311848410176200010757808492604094855283398101031262000102576200005a602062000052836200011d565b92016200011d565b60017f9b779b17422d0df92223018b32b4d1fa46e071723d6817e2486d003becc55f00556001600255683635c9adc5dea00000600655600780556203f4806008556202a3006009556201518080600a55600b556064600c5566b1a2bc2ec50000600d556064600e556032600f55601960105560018060a01b03908160018060a01b03199316836000541617600055169060015416176001556040516127ca9081620001338239f35b600080fd5b634e487b7160e01b600052604160045260246000fd5b51906001600160a01b0382168203620001025756fe61012080604052600436101561001457600080fd5b600090813560e01c9081630db399341461209c575080630f11132414611e2e57806316b5551d14611dc25780631a7d135214611d99578063276ae81114611d7b5780632aeeccb314611d255780632afce44f14611d07578063309a1b5314611ad75780633188219814611530578063336ebdfa146114905780633bc70ec0146111f05780634206ea4c146111d2578063564a565d146110525780636a20625814610e6d5780636a5b745614610e4f5780636d2404ac14610e315780636d8acf4514610d7857806372f702f314610d515780637cbf3b6b14610bf25780639da6918014610aa15780639e4f272d14610a83578063a6a7f0eb14610971578063a99ef9f514610925578063b9ce896b14610907578063c2b7b86814610314578063d209d03e146102f6578063dca5f6b014610276578063e1398c0c14610258578063e3a96cbd146101b5578063f713b052146101975763f96046811461017757600080fd5b346101945780600319360112610194576020600a54604051908152f35b80fd5b50346101945780600319360112610194576020600954604051908152f35b503461019457602036600319011261019457604060a0916004358152600360205220600180831b036001820154169060ff6007820154166004820154600f830154916102008161229d565b600581149384610248575b84610239575b506040519485526102218161229d565b60208501526040840152606083015215156080820152f35b60150154600211935038610211565b601481015460ff1615945061020b565b50346101945780600319360112610194576020601054604051908152f35b50346101945760203660031901126101945760e0906040906001600160a01b0361029e6120d3565b16815260046020522060ff815416906001810154906002810154600382015460048301549160066005850154940154946040519615158752602087015260408601526060850152608084015260a083015260c0820152f35b50346101945780600319360112610194576020600854604051908152f35b50346101945760203660031901126101945761032e612347565b6004358152600360205260408120610358600360ff6007840154166103528161229d565b1461267e565b600b8101544211156108cb5781828384600f8501545b8082106107c95750508183119283806107c0575b15610779575050506004820154600d83015582600e8301555b600560ff1960078401541617600783015542600c8301556004358352600360205260408320906127106103d56004840154600e54906126c0565b04600f83015490811561076357855b600f850154811015610703576103fd81600f87016120e9565b60018060a01b0391549060031b1c168088526004602052604088209080600052601187016020528560ff60406000205416816106ee575b81156106b7575b60048110156106a35761050057506003820154600f54612710039061271082116104ec576104726104e795949392612710926126c0565b046003830155600f5460405190815260406020820152600b60408201526a4d697373656420766f746560a81b60608201527f7076793ebd4b1d036042d7ad0bbbb52e2b841612a9d6ed8ded45ce66f0bd90e0608060043592a35b600181016104da8154612377565b9055600642910155612377565b6103e4565b634e487b7160e01b8b52601160045260248bfd5b61058a576003820154601054612710039061271082116104ec5761052d6104e795949392612710926126c0565b04600383015560105460405190815260406020820152600a60408201526957726f6e6720766f746560b01b60608201527f7076793ebd4b1d036042d7ad0bbbb52e2b841612a9d6ed8ded45ce66f0bd90e0608060043592a36104cc565b91906002810161059a8154612377565b9055600581016105ad86860482546123d2565b9055885460405163a9059cbb60e01b81526001600160a01b03858116600483015287870460248301529091602091839160449183918f91165af1908115610698578a91610669575b5015610634576104e79260405186860481527f38fef0e2638c7bfd9820a74741bd8d5b75996df52983ee3195e0e6db53b4fec4602060043592a36104cc565b60405162461bcd60e51b815260206004820152600d60248201526c14995dd85c990819985a5b1959609a1b6044820152606490fd5b61068b915060203d602011610691575b610683818361217f565b8101906122f1565b386105f5565b503d610679565b6040513d8c823e3d90fd5b634e487b7160e01b8b52602160045260248bfd5b90508615806106c7575b9061043b565b5060048110156106da57600281146106c1565b634e487b7160e01b8a52602160045260248afd5b905060048110156106da576001811490610434565b8686600d810154906013600e82015491015490604051928352602083015260408201527f43c6fe16c1e88a9b3bceaf30a2ae3d7e9ad9533f87698ebb2b628263771ae0e6606060043592a260016000805160206127758339815191525580f35b634e487b7160e01b600052601260045260246000fd5b821191826107b6575b50501561079e5782600d8301556004820154600e83015561039b565b600482015460011c80600d840155600e83015561039b565b1190503880610782565b50818111610382565b90936107d885600f88016120e9565b60018060a01b0391549060031b1c16908160005260128701602052604060002054916011880160205260ff6040600020541660048110156106da57600103610834575061082e91610828916123d2565b94612377565b9061036e565b80600097969297526011880160205260ff6040600020541660048110156106da57600203610870575061082e9161086a916123d2565b93612377565b600095929195526011870160205260ff6040600020541660048110156108b7576003146108a2575b5061082e90612377565b6108b09061082e92946123d2565b9290610898565b634e487b7160e01b89526021600452602489fd5b60405162461bcd60e51b815260206004820152601460248201527352657665616c20706572696f642061637469766560601b6044820152606490fd5b50346101945780600319360112610194576020600d54604051908152f35b503461019457604036600319011261019457601060406109436120b8565b926004358152600360205220019060018060a01b031660005260205260206040600020541515604051908152f35b503461019457610980366122bd565b919081845260036020526109b06040852060018060a01b03806002830154163314918215610a72575b50506125c6565b81845260036020526009604085206109da600160ff6007840154166109d48161229d565b14612600565b01544211610a35577fa49e7517d2b5714f7812f718444c5a2931d4fc670ed2d2aa2426ff2f42c5b44d90836040519160208352816020840152604083013784604085830101526040813395601f80199101168101030190a380f35b60405162461bcd60e51b8152602060048201526015602482015274115d9a59195b98d9481c195c9a5bd908195b991959605a1b6044820152606490fd5b6003919250015416331438806109a9565b50346101945780600319360112610194576020600b54604051908152f35b503461019457604036600319011261019457600435610ac8610ac3338361270e565b612644565b80825260206003815260408320600260ff600783015416610ae88161229d565b03610bb757600a8101544211610b7c576010019033600052818152604060002054610b4457336000525260243560406000205533907f3834a2c8ea101e1468b529270d35fbff0a12de32a5a7e5729b8b4dad6fb32c018380a380f35b6064906040519062461bcd60e51b825260048201526011602482015270105b1c9958591e4818dbdb5b5a5d1d1959607a1b6044820152fd5b60405162461bcd60e51b815260048101839052601360248201527210dbdb5b5a5d081c195c9a5bd908195b991959606a1b6044820152606490fd5b60405162461bcd60e51b81526004810183905260136024820152724e6f7420696e20636f6d6d697420706861736560681b6044820152606490fd5b503461019457602036600319011261019457610c0c612347565b6004358152600360205260408120906007820191610c39600560ff855416610c338161229d565b146126d3565b610c4a600c820154600b54906123d2565b42118015610d43575b15610d07576001810154600d820154600e909201546001600160a01b0390911691823b15610d0357906044849283604051958694859363bdc84ac360e01b8552600485015260248401525af18015610cf857610ccc575b50815460ff191660061790915560016000805160206127758339815191525580f35b67ffffffffffffffff8111610ce45760405238610caa565b634e487b7160e01b82526041600452602482fd5b6040513d84823e3d90fd5b8380fd5b60405162461bcd60e51b815260206004820152601460248201527341707065616c20706572696f642061637469766560601b6044820152606490fd5b5060ff601482015416610c53565b5034610194578060031936011261019457546040516001600160a01b039091168152602090f35b503461019457602080600319360112610e2d57600435825260038152600f604083200160405192838383549182815201908193835284832090835b818110610e105750505084610dc991038561217f565b60405193838594850191818652518092526040850193925b828110610df057505050500390f35b83516001600160a01b031685528695509381019392810192600101610de1565b82546001600160a01b031684529286019260019283019201610db3565b5080fd5b50346101945780600319360112610194576020600c54604051908152f35b50346101945780600319360112610194576020600f54604051908152f35b50610e77366122bd565b5050808252602060038152610ea76040842060018060a01b03806002830154163314918215610a725750506125c6565b600d548060011b908082046002149015171561103e573410610ffa5781835260038152604083206007810190815491610ee8600560ff8516610c338161229d565b601482019283549060ff8216610fc25760158401948554906002821015610f875791610f477f3c38c919bdd44374f95e247e400f505a9fb708fe987d5a077f6d54a13ae817379897969492600f9694600160ff19809616179055612377565b865516905501805486825580610f6e575b5050610f63846123df565b54604051908152a280f35b610f80918752838720908101906123bb565b3880610f58565b60405162461bcd60e51b815260048101899052601360248201527213585e08185c1c19585b1cc81c995858da1959606a1b6044820152606490fd5b60405162461bcd60e51b815260048101879052601060248201526f105b1c9958591e48185c1c19585b195960821b6044820152606490fd5b6064906040519062461bcd60e51b82526004820152601760248201527f496e73756666696369656e742061707065616c206665650000000000000000006044820152fd5b634e487b7160e01b84526011600452602484fd5b5034610194576020366003190112610194576004358152600360205260409020805490600160a01b600190039182600183015416928060028401541660e05260038301541661010052600482015492600583016110ae906121b7565b936110bb600685016121b7565b94600785015460ff1660c0526008850154956009860154600a87015490600b88015492600c89015494600d8a015496600e8b01549860138c01549a60148d015460ff169c6015015460a05260405180608052526080516020015260e051608051604001526101005160805160600152608051608001526102408060805160a00152608051016111499161225d565b6080518082039060c0015261115d9161225d565b9860c05161116a9061229d565b60c05160805160e00152608051610100015260805161012001526080516101400152608051610160015260805161018001526080516101a001526080516101c001526080516101e001521515608051610200015260a051608051610220015260805180910390f35b50346101945780600319360112610194576020600754604051908152f35b503461019457602080600319360112610e2d576004359061120f612347565b6006548210611457573383526004815260ff60408420541661141e576001546040516327c06fd560e01b81523360048201526001600160a01b039183908290602490829086165afa9081156114135785916113e2575b50600c541161139d578184918254166064604051809481936323b872dd60e01b83523360048401523060248401528860448401525af18015611392576112b2918591611375575b50612309565b6040519160e0830183811067ffffffffffffffff8211176113615790600692916040526001845281840190858252604085018681526060860190670de0b6b3a7640000830482526080870192835260a0870193888552600460c0890196428852338b5252604089209751151560ff80198a541691161788555160018801555160028701555160038601555160048501555160058401555191015560016000805160206127758339815191525580f35b634e487b7160e01b85526041600452602485fd5b61138c9150833d851161069157610683818361217f565b386112ac565b6040513d86823e3d90fd5b60405162461bcd60e51b815260048101839052601760248201527f496e73756666696369656e742072657075746174696f6e0000000000000000006044820152606490fd5b90508281813d831161140c575b6113f9818361217f565b81010312611408575138611265565b8480fd5b503d6113ef565b6040513d87823e3d90fd5b6064906040519062461bcd60e51b825260048201526012602482015271105b1c9958591e481c9959da5cdd195c995960721b6044820152fd5b6064906040519062461bcd60e51b825260048201526012602482015271496e73756666696369656e74207374616b6560701b6044820152fd5b50346101945760203660031901126101945760043581526003602052604081206007810180546114c8600160ff83166109d48161229d565b60098301544211156114f25760029060ff1916179055600a6114ec600954426123d2565b91015580f35b60405162461bcd60e51b815260206004820152601660248201527545766964656e636520706572696f642061637469766560501b6044820152606490fd5b506060366003190112610194576115456120d3565b60243567ffffffffffffffff8111611ad357611565903690600401612117565b9160443567ffffffffffffffff811161140857611586903690600401612117565b61158e612347565b600d543410611a9b57604051631006976960e11b81526020816004816001600160a01b0388165afa8015611a90578790611a50575b600391506115d08161229d565b03611a1357600254946115e286612377565b6002558587526003602090815260408089208881556001810180546001600160a01b0319166001600160a01b0389169081179091559151635c39fcc160e01b81529097929091829060049082905afa9081156119ba5789916119f4575b506002870180546001600160a01b0319166001600160a01b039283161790556040516361efb2a360e11b815290602090829060049082908a165afa9081156119ba5789916119c5575b506003870180546001600160a01b0319166001600160a01b03928316179055604051633689778f60e21b815290602090829060049082908a165afa9081156119ba578991611984575b50600487015567ffffffffffffffff82116119705781906116f56005880154612145565b601f811161193d575b508890601f83116001146118d15789926118c6575b50508160011b916000199060031b1c19161760058501555b67ffffffffffffffff81116118b25780602096600686019361174d8554612145565b601f8111611879575b5081601f8411600114611815579261180a575b50508160011b916000199060031b1c19161790555b6007820160ff19815416905542600883015561179c600854426123d2565b60098301556117aa836123df565b827f3854fefc4ebe91a685ab0a9689bb3eda28d3cc5373aa8e87ee52f597bd1b907685600460018060a01b036002870154169501549360405194855260018060a01b031693a4600160008051602061277583398151915255604051908152f35b013590503880611769565b858152898120909450915b601f1984168510611862576001945083601f19811610611848575b505050811b01905561177e565b0135600019600384901b60f8161c1916905538808061183b565b818101358355938901936001909201918901611820565b6118a2908684528a8420601f860160051c8101918c87106118a8575b601f0160051c01906123bb565b38611756565b9091508190611895565b634e487b7160e01b86526041600452602486fd5b013590503880611713565b600588018a5260208a208a9450915b601f1984168510611925576001945083601f1981161061190b575b505050811b01600585015561172b565b0135600019600384901b60f8161c191690553880806118fb565b818101358355602094850194600190930192016118e0565b61196a90600589018b5260208b20601f850160051c810191602086106118a857601f0160051c01906123bb565b386116fe565b634e487b7160e01b88526041600452602488fd5b90506020813d6020116119b2575b8161199f6020938361217f565b810103126119ae5751386116d1565b8880fd5b3d9150611992565b6040513d8b823e3d90fd5b6119e7915060203d6020116119ed575b6119df818361217f565b81019061239c565b38611688565b503d6119d5565b611a0d915060203d6020116119ed576119df818361217f565b3861163f565b60405162461bcd60e51b815260206004820152601560248201527410dbdd995b985b9d081b9bdd08191a5cdc1d5d1959605a1b6044820152606490fd5b506020813d602011611a88575b81611a6a6020938361217f565b81010312611a8457516007811015611a84576003906115c3565b8680fd5b3d9150611a5d565b6040513d89823e3d90fd5b60405162461bcd60e51b815260206004820152601060248201526f496e73756666696369656e742066656560801b6044820152606490fd5b8280fd5b5034610194578060031936011261019457611af0612347565b33815260206004815260408220805460ff9182821615611cd15760048101918254938415611ca15791859391879593338752600590818752604088209088928254935b848110611bd3575050505060ff199190911690915550839055825460405163a9059cbb60e01b815233600482015260248101929092529092839160449183916001600160a01b03165af1908115611bc857611b96928492611bab575b5050612309565b60016000805160206127758339815191525580f35b611bc19250803d1061069157610683818361217f565b3880611b8f565b6040513d85823e3d90fd5b91809496989a611be88486989a9c94966120e9565b919054600392831b1c90528083528d60079186848460408520015416611c0d8161229d565b14948515611c6d575b505050505015611c3957611c2990612377565b9189979593918b99979593611b33565b60405162461bcd60e51b8152600481018b9052600c60248201526b41637469766520636173657360a01b6044820152606490fd5b600695509060409291611c80888c6120e9565b905490831b1c83525220015416611c968161229d565b1483388d818e611c16565b60405162461bcd60e51b81526004810187905260086024820152674e6f207374616b6560c01b6044820152606490fd5b60405162461bcd60e51b815260048101859052600e60248201526d139bdd081c9959da5cdd195c995960921b6044820152606490fd5b50346101945780600319360112610194576020600e54604051908152f35b503461019457604036600319011261019457611d3f6120d3565b6001600160a01b0316815260056020526040812080546024359290831015610194576020611d6d84846120e9565b90546040519160031b1c8152f35b50346101945780600319360112610194576020600654604051908152f35b50346101945780600319360112610194576001546040516001600160a01b039091168152602090f35b503461019457604036600319011261019457611ddc6120b8565b60043582526003602052601160408320019060018060a01b0316825260205260ff604082205416906004821015611e1a576020826040519015158152f35b634e487b7160e01b81526021600452602490fd5b503461019457606036600319011261019457600435602435906004821015611ad357611e5d610ac3338361270e565b80835260206003815260408420611eb8600360ff600784018054828116611e838161229d565b611ea1600282149182801561208a575b611e9c9061267e565b61229d565b8061207d575b61205e575b5054166103528161229d565b600b8101544211612023576011810133865280835260ff604087205416600481101561200f57611fd757604051838101908660f81b8252604435602182015260218152606081019181831067ffffffffffffffff841117611fc3578260405281519020338952601085018652604089205403611f92575050907ffb0a2a4b906424480a54d601db26ad920592115a97358d199495345723df34cb929133875282526040862060ff1981541660ff8716179055601281018252611f846013604088205492019182546123d2565b90556040519384523393a380f35b906d125b9d985b1a59081c995d99585b60921b60a46064938762461bcd60e51b855285820152600e60848201520152fd5b634e487b7160e01b89526041600452602489fd5b60405162461bcd60e51b815260048101849052601060248201526f105b1c9958591e481c995d99585b195960821b6044820152606490fd5b634e487b7160e01b87526021600452602487fd5b60405162461bcd60e51b815260048101839052601360248201527214995d99585b081c195c9a5bd908195b991959606a1b6044820152606490fd5b8390831916178155612072600a54426123d2565b600b86015538611eac565b50600a8601544211611ea7565b506120948161229d565b808714611e93565b905034610e2d5781600319360112610e2d576020906002548152f35b602435906001600160a01b03821682036120ce57565b600080fd5b600435906001600160a01b03821682036120ce57565b80548210156121015760005260206000200190600090565b634e487b7160e01b600052603260045260246000fd5b9181601f840112156120ce5782359167ffffffffffffffff83116120ce57602083818601950101116120ce57565b90600182811c92168015612175575b602083101461215f57565b634e487b7160e01b600052602260045260246000fd5b91607f1691612154565b90601f8019910116810190811067ffffffffffffffff8211176121a157604052565b634e487b7160e01b600052604160045260246000fd5b90604051918260008254926121cb84612145565b90818452600194858116908160001461223a57506001146121f7575b50506121f59250038361217f565b565b9093915060005260209081600020936000915b8183106122225750506121f5935082010138806121e7565b8554888401850152948501948794509183019161220a565b9150506121f594506020925060ff191682840152151560051b82010138806121e7565b919082519283825260005b848110612289575050826000602080949584010152601f8019910116010190565b602081830181015184830182015201612268565b600711156122a757565b634e487b7160e01b600052602160045260246000fd5b9060406003198301126120ce57600435916024359067ffffffffffffffff82116120ce576122ed91600401612117565b9091565b908160209103126120ce575180151581036120ce5790565b1561231057565b60405162461bcd60e51b815260206004820152600f60248201526e151c985b9cd9995c8819985a5b1959608a1b6044820152606490fd5b60008051602061277583398151915260028154146123655760029055565b604051633ee5aeb560e01b8152600490fd5b60001981146123865760010190565b634e487b7160e01b600052601160045260246000fd5b908160209103126120ce57516001600160a01b03811681036120ce5790565b8181106123c6575050565b600081556001016123bb565b9190820180921161238657565b90600091808352600390602082815260408086209186946000198043014381119040975b60075481101561256657816104ec578551858101908a8252898882015282606082015260804281830152815260a0810181811067ffffffffffffffff8211176125525788525190206001600160a01b03908116908161246d575b505061246890612377565b612403565b600f890180549168010000000000000000928381101561253d578f909161249c8c9360019586820181556120e9565b81929154908c1b9188831b921b191617905584815260058a522090815492831015612529578e6124f8848e947f6a547857424ddf8f94427bf9c458627075464dcf7326c192e44abf6aea499fb4946124689998970181556120e9565b8154908b1b908a86831b921b191617905583815260048a52888b8220015460128d018b528b82205580a3903861245d565b634e487b7160e01b8f52604160045260248ffd5b50634e487b7160e01b8f52604160045260248ffd5b634e487b7160e01b8e52604160045260248efd5b5050509295965093509150600f8401541061258d575050600701805460ff19166001179055565b60649250519062461bcd60e51b825260048201526013602482015272496e73756666696369656e74206a75726f727360681b6044820152fd5b156125cd57565b60405162461bcd60e51b815260206004820152600b60248201526a4e6f74206120706172747960a81b6044820152606490fd5b1561260757565b60405162461bcd60e51b81526020600482015260156024820152744e6f7420696e2065766964656e636520706861736560581b6044820152606490fd5b1561264b57565b60405162461bcd60e51b815260206004820152600b60248201526a2737ba103090353ab937b960a91b6044820152606490fd5b1561268557565b60405162461bcd60e51b81526020600482015260136024820152724e6f7420696e2072657665616c20706861736560681b6044820152606490fd5b8181029291811591840414171561238657565b156126da57565b60405162461bcd60e51b815260206004820152600c60248201526b139bdd081c995cdbdb1d995960a21b6044820152606490fd5b60005260039081602052604060002091600f600093018054935b848110612739575050505050600090565b61274381836120e9565b905490841b1c6001600160a01b039081169085161461276a5761276590612377565b612728565b505050505060019056fe9b779b17422d0df92223018b32b4d1fa46e071723d6817e2486d003becc55f00a2646970667358221220b744286b3213d8f1c9e3dae482d4798d4d7d2e525cacb610aa6c6fd336c8269d64736f6c63430008140033",
  "linkReferences": {},
  "deployedLinkReferences": {}
}