{
  "_format": "hh-sol-artifact-1",
  "contractName": "DisputeDAO",
  "sourceName": "contracts/core/DisputeDAO.sol",
  "abi": [
    {
      "inputs": [
        {
          "internalType": "address",
          "name": "_stakingToken",
          "type": "address"
        },
        {
          "internalType": "address",
          "name": "_reputationStake",
          "type": "address"
        }
      ],
      "stateMutability": "nonpayable",
      "type": "constructor"
    },
    {
      "inputs": [],
      "name": "ReentrancyGuardReentrantCall",
      "type": "error"
    },
    {
      "anonymous": false,
      "inputs": [
        {
          "indexed": true,
          "internalType": "uint256",
          "name": "disputeId",
          "type": "uint256"
        },
        {
          "indexed": false,
          "internalType": "uint256",
          "name": "appealCount",
          "type": "uint256"
        }
      ],
      "name": "AppealFiled",
      "type": "event"
    },
    {
      "anonymous": false,
      "inputs": [
        {
          "indexed": true,
          "internalType": "uint256",
          "name": "disputeId",
          "type": "uint256"
        },
        {
          "indexed": true,
          "internalType": "address",
          "name": "covenant",
          "type": "address"
        },
        {
          "indexed": true,
          "internalType": "address",
          "name": "initiator",
          "type": "address"
        },
        {
          "indexed": false,
          "internalType": "uint256",
          "name": "stakeAmount",
          "type": "uint256"
        }
      ],
      "name": "DisputeCreated",
      "type": "event"
    },
    {
      "anonymous": false,
      "inputs": [
        {
          "indexed": true,
          "internalType": "uint256",
          "name": "disputeId",
          "type": "uint256"
        },
        {
          "indexed": false,
          "internalType": "uint256",
          "name": "initiatorAward",
          "type": "uint256"
        },
        {
          "indexed": false,
          "internalType": "uint256",
          "name": "counterpartyAward",
          "type": "uint256"
        },
        {
          "indexed": false,
          "internalType": "uint256",
          "name": "totalVotingPower",
          "type": "uint256"
        }
      ],
      "name": "DisputeResolved",
      "type": "event"
    },
    {
      "anonymous": false,
      "inputs": [
        {
          "indexed": true,
          "internalType": "uint256",
          "name": "disputeId",
          "type": "uint256"
        },
        {
          "indexed": true,
          "internalType": "address",
          "name": "by",
          "type": "address"
        },
        {
          "indexed": false,
          "internalType": "string",
          "name": "ipfsHash",
          "type": "string"
        }
      ],
      "name": "EvidenceSubmitted",
      "type": "event"
    },
    {
      "anonymous": false,
      "inputs": [
        {
          "indexed": true,
          "internalType": "uint256",
          "name": "disputeId",
          "type": "uint256"
        },
        {
          "indexed": true,
          "internalType": "address",
          "name": "juror",
          "type": "address"
        },
        {
          "indexed": false,
          "internalType": "uint256",
          "name": "amount",
          "type": "uint256"
        },
        {
          "indexed": false,
          "internalType": "string",
          "name": "reason",
          "type": "string"
        }
      ],
      "name": "JurorPenalized",
      "type": "event"
    },
    {
      "anonymous": false,
      "inputs": [
        {
          "indexed": true,
          "internalType": "uint256",
          "name": "disputeId",
          "type": "uint256"
        },
        {
          "indexed": true,
          "internalType": "address",
          "name": "juror",
          "type": "address"
        },
        {
          "indexed": false,
          "internalType": "uint256",
          "name": "amount",
          "type": "uint256"
        }
      ],
      "name": "JurorRewarded",
      "type": "event"
    },
    {
      "anonymous": false,
      "inputs": [
        {
          "indexed": true,
          "internalType": "uint256",
          "name": "disputeId",
          "type": "uint256"
        },
        {
          "indexed": true,
          "internalType": "address",
          "name": "juror",
          "type": "address"
        }
      ],
      "name": "JurorSelected",
      "type": "event"
    },
    {
      "anonymous": false,
      "inputs": [
        {
          "indexed": true,
          "internalType": "uint256",
          "name": "disputeId",
          "type": "uint256"
        },
        {
          "indexed": true,
          "internalType": "address",
          "name": "juror",
          "type": "address"
        }
      ],
      "name": "VoteCommitted",
      "type": "event"
    },
    {
      "anonymous": false,
      "inputs": [
        {
          "indexed": true,
          "internalType": "uint256",
          "name": "disputeId",
          "type": "uint256"
        },
        {
          "indexed": true,
          "internalType": "address",
          "name": "juror",
          "type": "address"
        },
        {
          "indexed": false,
          "internalType": "enum DisputeDAO.VoteOption",
          "name": "vote",
          "type": "uint8"
        }
      ],
      "name": "VoteRevealed",
      "type": "event"
    },
    {
      "inputs": [
        {
          "internalType": "uint256",
          "name": "_disputeId",
          "type": "uint256"
        }
      ],
      "name": "advanceToCommitPhase",
      "outputs": [],
      "stateMutability": "nonpayable",
      "type": "function"
    },
    {
      "inputs": [],
      "name": "appealPeriod",
      "outputs": [
        {
          "internalType": "uint256",
          "name": "",
          "type": "uint256"
        }
      ],
      "stateMutability": "view",
      "type": "function"
    },
    {
      "inputs": [],
      "name": "commitPeriod",
      "outputs": [
        {
          "internalType": "uint256",
          "name": "",
          "type": "uint256"
        }
      ],
      "stateMutability": "view",
      "type": "function"
    },
    {
      "inputs": [
        {
          "internalType": "uint256",
          "name": "_disputeId",
          "type": "uint256"
        },
        {
          "internalType": "bytes32",
          "name": "_commitHash",
          "type": "bytes32"
        }
      ],
      "name": "commitVote",
      "outputs": [],
      "stateMutability": "nonpayable",
      "type": "function"
    },
    {
      "inputs": [
        {
          "internalType": "address",
          "name": "_covenant",
          "type": "address"
        },
        {
          "internalType": "string",
          "name": "_reason",
          "type": "string"
        },
        {
          "internalType": "string",
          "name": "_evidenceIPFS",
          "type": "string"
        }
      ],
      "name": "createDispute",
      "outputs": [
        {
          "internalType": "uint256",
          "name": "disputeId",
          "type": "uint256"
        }
      ],
      "stateMutability": "payable",
      "type": "function"
    },
    {
      "inputs": [],
      "name": "disputeFee",
      "outputs": [
        {
          "internalType": "uint256",
          "name": "",
          "type": "uint256"
        }
      ],
      "stateMutability": "view",
      "type": "function"
    },
    {
      "inputs": [
        {
          "internalType": "uint256",
          "name": "",
          "type": "uint256"
        }
      ],
      "name": "disputes",
      "outputs": [
        {
          "internalType": "uint256",
          "name": "id",
          "type": "uint256"
        },
        {
          "internalType": "address",
          "name": "covenant",
          "type": "address"
        },
        {
          "internalType": "address",
          "name": "initiator",
          "type": "address"
        },
        {
          "internalType": "address",
          "name": "counterparty",
          "type": "address"
        },
        {
          "internalType": "uint256",
          "name": "stakeAmount",
          "type": "uint256"
        },
        {
          "internalType": "string",
          "name": "reason",
          "type": "string"
        },
        {
          "internalType": "string",
          "name": "evidenceIPFS",
          "type": "string"
        },
        {
          "internalType": "enum DisputeDAO.DisputeStatus",
          "name": "status",
          "type": "uint8"
        },
        {
          "internalType": "uint256",
          "name": "createdAt",
          "type": "uint256"
        },
        {
          "internalType": "uint256",
          "name": "evidenceEndTime",
          "type": "uint256"
        },
        {
          "internalType": "uint256",
          "name": "commitEndTime",
          "type": "uint256"
        },
        {
          "internalType": "uint256",
          "name": "revealEndTime",
          "type": "uint256"
        },
        {
          "internalType": "uint256",
          "name": "resolutionTime",
          "type": "uint256"
        },
        {
          "internalType": "uint256",
          "name": "initiatorAward",
          "type": "uint256"
        },
        {
          "internalType": "uint256",
          "name": "counterpartyAward",
          "type": "uint256"
        },
        {
          "internalType": "uint256",
          "name": "totalReputationVoted",
          "type": "uint256"
        },
        {
          "internalType": "bool",
          "name": "appealed",
          "type": "bool"
        },
        {
          "internalType": "uint256",
          "name": "appealCount",
          "type": "uint256"
        }
      ],
      "stateMutability": "view",
      "type": "function"
    },
    {
      "inputs": [],
      "name": "evidencePeriod",
      "outputs": [
        {
          "internalType": "uint256",
          "name": "",
          "type": "uint256"
        }
      ],
      "stateMutability": "view",
      "type": "function"
    },
    {
      "inputs": [
        {
          "internalType": "uint256",
          "name": "_disputeId",
          "type": "uint256"
        }
      ],
      "name": "executeResolution",
      "outputs": [],
      "stateMutability": "nonpayable",
      "type": "function"
    },
    {
      "inputs": [
        {
          "internalType": "uint256",
          "name": "_disputeId",
          "type": "uint256"
        },
        {
          "internalType": "string",
          "name": "_reason",
          "type": "string"
        }
      ],
      "name": "fileAppeal",
      "outputs": [],
      "stateMutability": "payable",
      "type": "function"
    },
    {
      "inputs": [
        {
          "internalType": "uint256",
          "name": "_disputeId",
          "type": "uint256"
        }
      ],
      "name": "getDispute",
      "outputs": [
        {
          "internalType": "address",
          "name": "covenant",
          "type": "address"
        },
        {
          "internalType": "enum DisputeDAO.DisputeStatus",
          "name": "status",
          "type": "uint8"
        },
        {
          "internalType": "uint256",
          "name": "stakeAmount",
          "type": "uint256"
        },
        {
          "internalType": "uint256",
          "name": "selectedJurorCount",
          "type": "uint256"
        },
        {
          "internalType": "bool",
          "name": "canAppeal",
          "type": "bool"
        }
      ],
      "stateMutability": "view",
      "type": "function"
    },
    {
      "inputs": [
        {
          "internalType": "uint256",
          "name": "_disputeId",
          "type": "uint256"
        }
      ],
      "name": "getJurors",
      "outputs": [
        {
          "internalType": "address[]",
          "name": "",
          "type": "address[]"
        }
      ],
      "stateMutability": "view",
      "type": "function"
    },
    {
      "inputs": [
        {
          "internalType": "uint256",
          "name": "_disputeId",
          "type": "uint256"
        },
        {
          "internalType": "address",
          "name": "_juror",
          "type": "address"
        }
      ],
      "name": "hasCommitted",
      "outputs": [
        {
          "internalType": "bool",
          "name": "",
          "type": "bool"
        }
      ],
      "stateMutability": "view",
      "type": "function"
    },
    {
      "inputs": [
        {
          "internalType": "uint256",
          "name": "_disputeId",
          "type": "uint256"
        },
        {
          "internalType": "address",
          "name": "_juror",
          "type": "address"
        }
      ],
      "name": "hasRevealed",
      "outputs": [
        {
          "internalType": "bool",
          "name": "",
          "type": "bool"
        }
      ],
      "stateMutability": "view",
      "type": "function"
    },
    {
      "inputs": [
        {
          "internalType": "address",
          "name": "",
          "type": "address"
        },
        {
          "internalType": "uint256",
          "name": "",
          "type": "uint256"
        }
      ],
      "name": "jurorCases",
      "outputs": [
        {
          "internalType": "uint256",
          "name": "",
          "type": "uint256"
        }
      ],
      "stateMutability": "view",
      "type": "function"
    },
    {
      "inputs": [],
      "name": "jurorCount",
      "outputs": [
        {
          "internalType": "uint256",
          "name": "",
          "type": "uint256"
        }
      ],
      "stateMutability": "view",
      "type": "function"
    },
    {
      "inputs": [],
      "name": "jurorRewardRate",
      "outputs": [
        {
          "internalType": "uint256",
          "name": "",
          "type": "uint256"
        }
      ],
      "stateMutability": "view",
      "type": "function"
    },
    {
      "inputs": [
        {
          "internalType": "address",
          "name": "",
          "type": "address"
        }
      ],
      "name": "jurors",
      "outputs": [
        {
          "internalType": "bool",
          "name": "isActive",
          "type": "bool"
        },
        {
          "internalType": "uint256",
          "name": "totalCases",
          "type": "uint256"
        },
        {
          "internalType": "uint256",
          "name": "correctVotes",
          "type": "uint256"
        },
        {
          "internalType": "uint256",
          "name": "reputation",
          "type": "uint256"
        },
        {
          "internalType": "uint256",
          "name": "stakedAmount",
          "type": "uint256"
        },
        {
          "internalType": "uint256",
          "name": "rewardsEarned",
          "type": "uint256"
        },
        {
          "internalType": "uint256",
          "name": "lastActivity",
          "type": "uint256"
        }
      ],
      "stateMutability": "view",
      "type": "function"
    },
    {
      "inputs": [],
      "name": "minJurorStake",
      "outputs": [
        {
          "internalType": "uint256",
          "name": "",
          "type": "uint256"
        }
      ],
      "stateMutability": "view",
      "type": "function"
    },
    {
      "inputs": [],
      "name": "minReputationToServe",
      "outputs": [
        {
          "internalType": "uint256",
          "name": "",
          "type": "uint256"
        }
      ],
      "stateMutability": "view",
      "type": "function"
    },
    {
      "inputs": [],
      "name": "missedVotePenalty",
      "outputs": [
        {
          "internalType": "uint256",
          "name": "",
          "type": "uint256"
        }
      ],
      "stateMutability": "view",
      "type": "function"
    },
    {
      "inputs": [],
      "name": "nextDisputeId",
      "outputs": [
        {
          "internalType": "uint256",
          "name": "",
          "type": "uint256"
        }
      ],
      "stateMutability": "view",
      "type": "function"
    },
    {
      "inputs": [
        {
          "internalType": "uint256",
          "name": "_stakeAmount",
          "type": "uint256"
        }
      ],
      "name": "registerAsJuror",
      "outputs": [],
      "stateMutability": "nonpayable",
      "type": "function"
    },
    {
      "inputs": [],
      "name": "reputationStake",
      "outputs": [
        {
          "internalType": "contract IReputationStake",
          "name": "",
          "type": "address"
        }
      ],
      "stateMutability": "view",
      "type": "function"
    },
    {
      "inputs": [
        {
          "internalType": "uint256",
          "name": "_disputeId",
          "type": "uint256"
        }
      ],
      "name": "resolveDispute",
      "outputs": [],
      "stateMutability": "nonpayable",
      "type": "function"
    },
    {
      "inputs": [],
      "name": "revealPeriod",
      "outputs": [
        {
          "internalType": "uint256",
          "name": "",
          "type": "uint256"
        }
      ],
      "stateMutability": "view",
      "type": "function"
    },
    {
      "inputs": [
        {
          "internalType": "uint256",
          "name": "_disputeId",
          "type": "uint256"
        },
        {
          "internalType": "enum DisputeDAO.VoteOption",
          "name": "_vote",
          "type": "uint8"
        },
        {
          "internalType": "uint256",
          "name": "_salt",
          "type": "uint256"
        }
      ],
      "name": "revealVote",
      "outputs": [],
      "stateMutability": "nonpayable",
      "type": "function"
    },
    {
      "inputs": [],
      "name": "stakingToken",
      "outputs": [
        {
          "internalType": "contract IERC20",
          "name": "",
          "type": "address"
        }
      ],
      "stateMutability": "view",
      "type": "function"
    },
    {
      "inputs": [
        {
          "internalType": "uint256",
          "name": "_disputeId",
          "type": "uint256"
        },
        {
          "internalType": "string",
          "name": "_evidenceIPFS",
          "type": "string"
        }
      ],
      "name": "submitEvidence",
      "outputs": [],
      "stateMutability": "nonpayable",
      "type": "function"
    },
    {
      "inputs": [],
      "name": "unstakeAsJuror",
      "outputs": [],
      "stateMutability": "nonpayable",
      "type": "function"
    },
    {
      "inputs": [],
      "name": "wrongVotePenalty",
      "outputs": [
        {
          "internalType": "uint256",
          "name": "",
          "type": "uint256"
        }
      ],
      "stateMutability": "view",
      "type": "function"
    }
  ],
  "bytecode": "0x6080346200010257601f6200290838819003918201601f19168301916001600160401b038311848410176200010757808492604094855283398101031262000102576200005a602062000052836200011d565b92016200011d565b60017f9b779b17422d0df92223018b32b4d1fa46e071723d6817e2486d003becc55f00556001600255683635c9adc5dea00000600655600780556203f4806008556202a3006009556201518080600a55600b556064600c5566b1a2bc2ec50000600d556064600e556032600f55601960105560018060a01b03908160018060a01b03199316836000541617600055169060015416176001556040516127d59081620001338239f35b600080fd5b634e487b7160e01b600052604160045260246000fd5b51906001600160a01b0382168203620001025756fe61012080604052600436101561001457600080fd5b60009060e08235811c9182630db39934146120a7575081630f11132414611e3957816316b5551d14611dcd5781631a7d135214611da4578163276ae81114611d865781632aeeccb314611d305781632afce44f14611d12578163309a1b5314611ae2578163318821981461153b578163336ebdfa1461149b5781633bc70ec0146111f75781634206ea4c146111d9578163564a565d146110625781636a20625814610e6c5781636a5b745614610e4e5781636d2404ac14610e305781636d8acf4514610d7757816372f702f314610d505781637cbf3b6b14610bf15781639da6918014610aa05781639e4f272d14610a82578163a6a7f0eb14610970578163a99ef9f514610924578163b9ce896b14610906578163c2b7b86814610313578163d209d03e146102f5578163dca5f6b01461027857508063e1398c0c1461025a578063e3a96cbd146101b7578063f713b052146101995763f96046811461017957600080fd5b346101965780600319360112610196576020600a54604051908152f35b80fd5b50346101965780600319360112610196576020600954604051908152f35b503461019657602036600319011261019657604060a0916004358152600360205220600180831b036001820154169060ff6007820154166004820154600f83015491610202816122a8565b60058114938461024a575b8461023b575b50604051948552610223816122a8565b60208501526040840152606083015215156080820152f35b60150154600211935038610213565b601481015460ff1615945061020d565b50346101965780600319360112610196576020601054604051908152f35b8234610196576020366003190112610196576040906001600160a01b0361029d6120de565b16815260046020522060ff815416906001810154906002810154600382015460048301549160066005850154940154946040519615158752602087015260408601526060850152608084015260a083015260c0820152f35b82346101965780600319360112610196576020600854604051908152f35b82346101965760203660031901126101965761032d612352565b6004358152600360205260408120610357600360ff600784015416610351816122a8565b14612689565b600b8101544211156108ca5781828384600f8501545b8082106107c85750508183119283806107bf575b15610778575050506004820154600d83015582600e8301555b600560ff1960078401541617600783015542600c8301556004358352600360205260408320906127106103d46004840154600e54906126cb565b04600f83015490811561076257855b600f850154811015610702576103fc81600f87016120f4565b60018060a01b0391549060031b1c168088526004602052604088209080600052601187016020528560ff60406000205416816106ed575b81156106b6575b60048110156106a2576104ff57506003820154600f54612710039061271082116104eb576104716104e695949392612710926126cb565b046003830155600f5460405190815260406020820152600b60408201526a4d697373656420766f746560a81b60608201527f7076793ebd4b1d036042d7ad0bbbb52e2b841612a9d6ed8ded45ce66f0bd90e0608060043592a35b600181016104d98154612382565b9055600642910155612382565b6103e3565b634e487b7160e01b8b52601160045260248bfd5b610589576003820154601054612710039061271082116104eb5761052c6104e695949392612710926126cb565b04600383015560105460405190815260406020820152600a60408201526957726f6e6720766f746560b01b60608201527f7076793ebd4b1d036042d7ad0bbbb52e2b841612a9d6ed8ded45ce66f0bd90e0608060043592a36104cb565b9190600281016105998154612382565b9055600581016105ac86860482546123dd565b9055885460405163a9059cbb60e01b81526001600160a01b03858116600483015287870460248301529091602091839160449183918f91165af1908115610697578a91610668575b5015610633576104e69260405186860481527f38fef0e2638c7bfd9820a74741bd8d5b75996df52983ee3195e0e6db53b4fec4602060043592a36104cb565b60405162461bcd60e51b815260206004820152600d60248201526c14995dd85c990819985a5b1959609a1b6044820152606490fd5b61068a915060203d602011610690575b610682818361218a565b8101906122fc565b8a6105f4565b503d610678565b6040513d8c823e3d90fd5b634e487b7160e01b8b52602160045260248bfd5b90508615806106c6575b9061043a565b5060048110156106d957600281146106c0565b634e487b7160e01b8a52602160045260248afd5b905060048110156106d9576001811490610433565b8686600d810154906013600e82015491015490604051928352602083015260408201527f43c6fe16c1e88a9b3bceaf30a2ae3d7e9ad9533f87698ebb2b628263771ae0e6606060043592a260016000805160206127808339815191525580f35b634e487b7160e01b600052601260045260246000fd5b821191826107b5575b50501561079d5782600d8301556004820154600e83015561039a565b600482015460011c80600d840155600e83015561039a565b1190508480610781565b50818111610381565b90936107d785600f88016120f4565b60018060a01b0391549060031b1c16908160005260128701602052604060002054916011880160205260ff6040600020541660048110156106d957600103610833575061082d91610827916123dd565b94612382565b9061036d565b80600097969297526011880160205260ff6040600020541660048110156106d95760020361086f575061082d91610869916123dd565b93612382565b600095929195526011870160205260ff6040600020541660048110156108b6576003146108a1575b5061082d90612382565b6108af9061082d92946123dd565b9290610897565b634e487b7160e01b89526021600452602489fd5b60405162461bcd60e51b815260206004820152601460248201527352657665616c20706572696f642061637469766560601b6044820152606490fd5b82346101965780600319360112610196576020600d54604051908152f35b823461019657604036600319011261019657601060406109426120c3565b926004358152600360205220019060018060a01b031660005260205260206040600020541515604051908152f35b82346101965761097f366122c8565b919081845260036020526109af6040852060018060a01b03806002830154163314918215610a71575b50506125d1565b81845260036020526009604085206109d9600160ff6007840154166109d3816122a8565b1461260b565b01544211610a34577fa49e7517d2b5714f7812f718444c5a2931d4fc670ed2d2aa2426ff2f42c5b44d90836040519160208352816020840152604083013784604085830101526040813395601f80199101168101030190a380f35b60405162461bcd60e51b8152602060048201526015602482015274115d9a59195b98d9481c195c9a5bd908195b991959605a1b6044820152606490fd5b6003919250015416331486806109a8565b82346101965780600319360112610196576020600b54604051908152f35b823461019657604036600319011261019657600435610ac7610ac23383612719565b61264f565b80825260206003815260408320600260ff600783015416610ae7816122a8565b03610bb657600a8101544211610b7b576010019033600052818152604060002054610b4357336000525260243560406000205533907f3834a2c8ea101e1468b529270d35fbff0a12de32a5a7e5729b8b4dad6fb32c018380a380f35b6064906040519062461bcd60e51b825260048201526011602482015270105b1c9958591e4818dbdb5b5a5d1d1959607a1b6044820152fd5b60405162461bcd60e51b815260048101839052601360248201527210dbdb5b5a5d081c195c9a5bd908195b991959606a1b6044820152606490fd5b60405162461bcd60e51b81526004810183905260136024820152724e6f7420696e20636f6d6d697420706861736560681b6044820152606490fd5b823461019657602036600319011261019657610c0b612352565b6004358152600360205260408120906007820191610c38600560ff855416610c32816122a8565b146126de565b610c49600c820154600b54906123dd565b42118015610d42575b15610d06576001810154600d820154600e909201546001600160a01b0390911691823b15610d0257906044849283604051958694859363bdc84ac360e01b8552600485015260248401525af18015610cf757610ccb575b50815460ff191660061790915560016000805160206127808339815191525580f35b67ffffffffffffffff8111610ce35760405282610ca9565b634e487b7160e01b82526041600452602482fd5b6040513d84823e3d90fd5b8380fd5b60405162461bcd60e51b815260206004820152601460248201527341707065616c20706572696f642061637469766560601b6044820152606490fd5b5060ff601482015416610c52565b8234610196578060031936011261019657546040516001600160a01b039091168152602090f35b823461019657602080600319360112610e2c57600435825260038152600f604083200160405192838383549182815201908193835284832090835b818110610e0f5750505084610dc891038561218a565b60405193838594850191818652518092526040850193925b828110610def57505050500390f35b83516001600160a01b031685528695509381019392810192600101610de0565b82546001600160a01b031684529286019260019283019201610db2565b5080fd5b82346101965780600319360112610196576020600c54604051908152f35b82346101965780600319360112610196576020600f54604051908152f35b82610e76366122c8565b5050808252602060038152610ea66040842060018060a01b038060028301541633149182156110515750506125d1565b600d548060011b908082046002149015171561103d573410610ff95781835260038152604083206007810190815491610ee7600560ff8516610c32816122a8565b601482019283549060ff8216610fc15760158401948554906002821015610f865791610f467f3c38c919bdd44374f95e247e400f505a9fb708fe987d5a077f6d54a13ae817379897969492600f9694600160ff19809616179055612382565b865516905501805486825580610f6d575b5050610f62846123ea565b54604051908152a280f35b610f7f918752838720908101906123c6565b8580610f57565b60405162461bcd60e51b815260048101899052601360248201527213585e08185c1c19585b1cc81c995858da1959606a1b6044820152606490fd5b60405162461bcd60e51b815260048101879052601060248201526f105b1c9958591e48185c1c19585b195960821b6044820152606490fd5b6064906040519062461bcd60e51b82526004820152601760248201527f496e73756666696369656e742061707065616c206665650000000000000000006044820152fd5b634e487b7160e01b84526011600452602484fd5b6003919250015416331485806109a8565b8234610196576020366003190112610196576004358152600360205260409020808054600160a01b600190038060018401541690806002850154166101005260038401541660c0526004830154600584016110bc906121c2565b6110c8600686016121c2565b600786015460ff1688526008860154600987015490600a88015492600b89015494600c8a015496600d8b015498600e8c01549a60138d01549c6014015460ff169d6015015460a052604051806080525260805160200152610100516080516040015260c05160805160600152608051608001526102408060805160a001526080510161115391612268565b6080518082039060c0015261116791612268565b998051611173906122a8565b8051906080510152608051610100015260805161012001526080516101400152608051610160015260805161018001526080516101a001526080516101c001526080516101e001521515608051610200015260a051608051610220015260805180910390f35b82346101965780600319360112610196576020600754604051908152f35b905034610e2c5760208060031936011261149757600435611216612352565b600654811061145d573384526004825260ff604085205416611423576001546040516327c06fd560e01b81523360048201526001600160a01b039184908290602490829086165afa9081156114185786916113e7575b50600c54116113a2578285918254166064604051809481936323b872dd60e01b83523360048401523060248401528760448401525af18015611397576112b991869161137a575b50612314565b60405192830183811067ffffffffffffffff8211176113665790600692916040526001845281840190858252604085018681526060860190670de0b6b3a7640000830482526080870192835260a0870193888552600460c0890196428852338b5252604089209751151560ff80198a541691161788555160018801555160028701555160038601555160048501555160058401555191015560016000805160206127808339815191525580f35b634e487b7160e01b85526041600452602485fd5b6113919150843d861161069057610682818361218a565b386112b3565b6040513d87823e3d90fd5b60405162461bcd60e51b815260048101849052601760248201527f496e73756666696369656e742072657075746174696f6e0000000000000000006044820152606490fd5b90508381813d8311611411575b6113fe818361218a565b8101031261140d57513861126c565b8580fd5b503d6113f4565b6040513d88823e3d90fd5b60405162461bcd60e51b8152600481018390526012602482015271105b1c9958591e481c9959da5cdd195c995960721b6044820152606490fd5b60405162461bcd60e51b8152600481018390526012602482015271496e73756666696369656e74207374616b6560701b6044820152606490fd5b8280fd5b82346101965760203660031901126101965760043581526003602052604081206007810180546114d3600160ff83166109d3816122a8565b60098301544211156114fd5760029060ff1916179055600a6114f7600954426123dd565b91015580f35b60405162461bcd60e51b815260206004820152601660248201527545766964656e636520706572696f642061637469766560501b6044820152606490fd5b826060366003190112610196576115506120de565b60243567ffffffffffffffff811161149757611570903690600401612122565b9160443567ffffffffffffffff8111611ade57611591903690600401612122565b611599612352565b600d543410611aa657604051631006976960e11b81526020816004816001600160a01b0388165afa8015611a9b578790611a5b575b600391506115db816122a8565b03611a1e57600254946115ed86612382565b6002558587526003602090815260408089208881556001810180546001600160a01b0319166001600160a01b0389169081179091559151635c39fcc160e01b81529097929091829060049082905afa9081156119c55789916119ff575b506002870180546001600160a01b0319166001600160a01b039283161790556040516361efb2a360e11b815290602090829060049082908a165afa9081156119c55789916119d0575b506003870180546001600160a01b0319166001600160a01b03928316179055604051633689778f60e21b815290602090829060049082908a165afa9081156119c557899161198f575b50600487015567ffffffffffffffff821161197b5781906117006005880154612150565b601f8111611948575b508890601f83116001146118dc5789926118d1575b50508160011b916000199060031b1c19161760058501555b67ffffffffffffffff81116118bd578060209660068601936117588554612150565b601f8111611884575b5081601f84116001146118205792611815575b50508160011b916000199060031b1c19161790555b6007820160ff1981541690554260088301556117a7600854426123dd565b60098301556117b5836123ea565b827f3854fefc4ebe91a685ab0a9689bb3eda28d3cc5373aa8e87ee52f597bd1b907685600460018060a01b036002870154169501549360405194855260018060a01b031693a4600160008051602061278083398151915255604051908152f35b013590508780611774565b858152898120909450915b601f198416851061186d576001945083601f19811610611853575b505050811b019055611789565b0135600019600384901b60f8161c19169055878080611846565b81810135835593890193600190920191890161182b565b6118ad908684528a8420601f860160051c8101918c87106118b3575b601f0160051c01906123c6565b89611761565b90915081906118a0565b634e487b7160e01b86526041600452602486fd5b01359050888061171e565b600588018a5260208a208a9450915b601f1984168510611930576001945083601f19811610611916575b505050811b016005850155611736565b0135600019600384901b60f8161c19169055888080611906565b818101358355602094850194600190930192016118eb565b61197590600589018b5260208b20601f850160051c810191602086106118b357601f0160051c01906123c6565b89611709565b634e487b7160e01b88526041600452602488fd5b90506020813d6020116119bd575b816119aa6020938361218a565b810103126119b95751896116dc565b8880fd5b3d915061199d565b6040513d8b823e3d90fd5b6119f2915060203d6020116119f8575b6119ea818361218a565b8101906123a7565b89611693565b503d6119e0565b611a18915060203d6020116119f8576119ea818361218a565b8961164a565b60405162461bcd60e51b815260206004820152601560248201527410dbdd995b985b9d081b9bdd08191a5cdc1d5d1959605a1b6044820152606490fd5b506020813d602011611a93575b81611a756020938361218a565b81010312611a8f57516007811015611a8f576003906115ce565b8680fd5b3d9150611a68565b6040513d89823e3d90fd5b60405162461bcd60e51b815260206004820152601060248201526f496e73756666696369656e742066656560801b6044820152606490fd5b8480fd5b8234610196578060031936011261019657611afb612352565b33815260206004815260408220805460ff9182821615611cdc5760048101918254938415611cac5791859391879593338752600590818752604088209088928254935b848110611bde575050505060ff199190911690915550839055825460405163a9059cbb60e01b815233600482015260248101929092529092839160449183916001600160a01b03165af1908115611bd357611ba1928492611bb6575b5050612314565b60016000805160206127808339815191525580f35b611bcc9250803d1061069057610682818361218a565b8380611b9a565b6040513d85823e3d90fd5b91809496989a611bf38486989a9c94966120f4565b919054600392831b1c90528083528d60079186848460408520015416611c18816122a8565b14948515611c78575b505050505015611c4457611c3490612382565b9189979593918b99979593611b3e565b60405162461bcd60e51b8152600481018b9052600c60248201526b41637469766520636173657360a01b6044820152606490fd5b600695509060409291611c8b888c6120f4565b905490831b1c83525220015416611ca1816122a8565b14838d8d818e611c21565b60405162461bcd60e51b81526004810187905260086024820152674e6f207374616b6560c01b6044820152606490fd5b60405162461bcd60e51b815260048101859052600e60248201526d139bdd081c9959da5cdd195c995960921b6044820152606490fd5b82346101965780600319360112610196576020600e54604051908152f35b823461019657604036600319011261019657611d4a6120de565b6001600160a01b0316815260056020526040812080546024359290831015610196576020611d7884846120f4565b90546040519160031b1c8152f35b82346101965780600319360112610196576020600654604051908152f35b82346101965780600319360112610196576001546040516001600160a01b039091168152602090f35b823461019657604036600319011261019657611de76120c3565b60043582526003602052601160408320019060018060a01b0316825260205260ff604082205416906004821015611e25576020826040519015158152f35b634e487b7160e01b81526021600452602490fd5b82346101965760603660031901126101965760043560243590600482101561149757611e68610ac23383612719565b80835260206003815260408420611ec3600360ff600784018054828116611e8e816122a8565b611eac6002821491828015612095575b611ea790612689565b6122a8565b80612088575b612069575b505416610351816122a8565b600b810154421161202e576011810133865280835260ff604087205416600481101561201a57611fe257604051838101908660f81b8252604435602182015260218152606081019181831067ffffffffffffffff841117611fce578260405281519020338952601085018652604089205403611f9d575050907ffb0a2a4b906424480a54d601db26ad920592115a97358d199495345723df34cb929133875282526040862060ff1981541660ff8716179055601281018252611f8f6013604088205492019182546123dd565b90556040519384523393a380f35b906d125b9d985b1a59081c995d99585b60921b60a46064938762461bcd60e51b855285820152600e60848201520152fd5b634e487b7160e01b89526041600452602489fd5b60405162461bcd60e51b815260048101849052601060248201526f105b1c9958591e481c995d99585b195960821b6044820152606490fd5b634e487b7160e01b87526021600452602487fd5b60405162461bcd60e51b815260048101839052601360248201527214995d99585b081c195c9a5bd908195b991959606a1b6044820152606490fd5b839083191617815561207d600a54426123dd565b600b86015589611eb7565b50600a8601544211611eb2565b5061209f816122a8565b808714611e9e565b839034610e2c5781600319360112610e2c576020906002548152f35b602435906001600160a01b03821682036120d957565b600080fd5b600435906001600160a01b03821682036120d957565b805482101561210c5760005260206000200190600090565b634e487b7160e01b600052603260045260246000fd5b9181601f840112156120d95782359167ffffffffffffffff83116120d957602083818601950101116120d957565b90600182811c92168015612180575b602083101461216a57565b634e487b7160e01b600052602260045260246000fd5b91607f169161215f565b90601f8019910116810190811067ffffffffffffffff8211176121ac57604052565b634e487b7160e01b600052604160045260246000fd5b90604051918260008254926121d684612150565b9081845260019485811690816000146122455750600114612202575b50506122009250038361218a565b565b9093915060005260209081600020936000915b81831061222d575050612200935082010138806121f2565b85548884018501529485019487945091830191612215565b91505061220094506020925060ff191682840152151560051b82010138806121f2565b919082519283825260005b848110612294575050826000602080949584010152601f8019910116010190565b602081830181015184830182015201612273565b600711156122b257565b634e487b7160e01b600052602160045260246000fd5b9060406003198301126120d957600435916024359067ffffffffffffffff82116120d9576122f891600401612122565b9091565b908160209103126120d9575180151581036120d95790565b1561231b57565b60405162461bcd60e51b815260206004820152600f60248201526e151c985b9cd9995c8819985a5b1959608a1b6044820152606490fd5b60008051602061278083398151915260028154146123705760029055565b604051633ee5aeb560e01b8152600490fd5b60001981146123915760010190565b634e487b7160e01b600052601160045260246000fd5b908160209103126120d957516001600160a01b03811681036120d95790565b8181106123d1575050565b600081556001016123c6565b9190820180921161239157565b90600091808352600390602082815260408086209186946000198043014381119040975b60075481101561257157816104eb578551858101908a8252898882015282606082015260804281830152815260a0810181811067ffffffffffffffff82111761255d5788525190206001600160a01b039081169081612478575b505061247390612382565b61240e565b600f8901805491680100000000000000009283811015612548578f90916124a78c9360019586820181556120f4565b81929154908c1b9188831b921b191617905584815260058a522090815492831015612534578e612503848e947f6a547857424ddf8f94427bf9c458627075464dcf7326c192e44abf6aea499fb4946124739998970181556120f4565b8154908b1b908a86831b921b191617905583815260048a52888b8220015460128d018b528b82205580a39038612468565b634e487b7160e01b8f52604160045260248ffd5b50634e487b7160e01b8f52604160045260248ffd5b634e487b7160e01b8e52604160045260248efd5b5050509295965093509150600f84015410612598575050600701805460ff19166001179055565b60649250519062461bcd60e51b825260048201526013602482015272496e73756666696369656e74206a75726f727360681b6044820152fd5b156125d857565b60405162461bcd60e51b815260206004820152600b60248201526a4e6f74206120706172747960a81b6044820152606490fd5b1561261257565b60405162461bcd60e51b81526020600482015260156024820152744e6f7420696e2065766964656e636520706861736560581b6044820152606490fd5b1561265657565b60405162461bcd60e51b815260206004820152600b60248201526a2737ba103090353ab937b960a91b6044820152606490fd5b1561269057565b60405162461bcd60e51b81526020600482015260136024820152724e6f7420696e2072657665616c20706861736560681b6044820152606490fd5b8181029291811591840414171561239157565b156126e557565b60405162461bcd60e51b815260206004820152600c60248201526b139bdd081c995cdbdb1d995960a21b6044820152606490fd5b60005260039081602052604060002091600f600093018054935b848110612744575050505050600090565b61274e81836120f4565b905490841b1c6001600160a01b03908116908516146127755761277090612382565b612733565b505050505060019056fe9b779b17422d0df92223018b32b4d1fa46e071723d6817e2486d003becc55f00a2646970667358221220b744286b3213d8f1c9e3dae482d4798d4d7d2e525cacb610aa6c6fd336c8269d64736f6c63430008140033",
  "linkReferences": {},
  "deployedLinkReferences": {}
}